{
	"src/Exchange.sol": {
		"Exchange": {
			"abi": [
				{
					"inputs": [
						{
							"internalType": "address",
							"name": "_owner",
							"type": "address"
						}
					],
					"stateMutability": "nonpayable",
					"type": "constructor"
				},
				{
					"anonymous": false,
					"inputs": [
						{
							"indexed": true,
							"internalType": "address",
							"name": "newContractOwner",
							"type": "address"
						}
					],
					"name": "ContractOwnershipTransferFinished",
					"type": "event"
				},
				{
					"anonymous": false,
					"inputs": [
						{
							"indexed": true,
							"internalType": "address",
							"name": "from",
							"type": "address"
						},
						{
							"indexed": true,
							"internalType": "address",
							"name": "to",
							"type": "address"
						}
					],
					"name": "InitiatedOwnershipTransfer",
					"type": "event"
				},
				{
					"anonymous": false,
					"inputs": [
						{
							"indexed": true,
							"internalType": "address",
							"name": "tokenAddress",
							"type": "address"
						},
						{
							"indexed": true,
							"internalType": "address",
							"name": "requestor",
							"type": "address"
						},
						{
							"indexed": false,
							"internalType": "enum Exchange.RequestTypes",
							"name": "Type",
							"type": "uint8"
						},
						{
							"indexed": false,
							"internalType": "uint256",
							"name": "amount",
							"type": "uint256"
						},
						{
							"indexed": false,
							"internalType": "uint256",
							"name": "tokenPrice",
							"type": "uint256"
						}
					],
					"name": "RequestCreated",
					"type": "event"
				},
				{
					"anonymous": false,
					"inputs": [
						{
							"indexed": true,
							"internalType": "address",
							"name": "tokenAddress",
							"type": "address"
						},
						{
							"indexed": true,
							"internalType": "address",
							"name": "requestor",
							"type": "address"
						},
						{
							"indexed": true,
							"internalType": "address",
							"name": "counterparty",
							"type": "address"
						},
						{
							"indexed": false,
							"internalType": "enum Exchange.RequestTypes",
							"name": "Type",
							"type": "uint8"
						},
						{
							"indexed": false,
							"internalType": "uint256",
							"name": "amount",
							"type": "uint256"
						},
						{
							"indexed": false,
							"internalType": "uint256",
							"name": "tokenPrice",
							"type": "uint256"
						}
					],
					"name": "RequestExecuted",
					"type": "event"
				},
				{
					"inputs": [
						{
							"internalType": "address",
							"name": "",
							"type": "address"
						}
					],
					"name": "Requests",
					"outputs": [
						{
							"internalType": "address",
							"name": "tokenAddress",
							"type": "address"
						},
						{
							"internalType": "uint256",
							"name": "amount",
							"type": "uint256"
						},
						{
							"internalType": "uint256",
							"name": "coinPrice",
							"type": "uint256"
						},
						{
							"internalType": "enum Exchange.RequestTypes",
							"name": "Type",
							"type": "uint8"
						}
					],
					"stateMutability": "view",
					"type": "function"
				},
				{
					"inputs": [
						{
							"internalType": "address",
							"name": "coinAddress",
							"type": "address"
						},
						{
							"internalType": "uint256",
							"name": "amount",
							"type": "uint256"
						},
						{
							"internalType": "uint256",
							"name": "coinPrice",
							"type": "uint256"
						}
					],
					"name": "buyRequest",
					"outputs": [],
					"stateMutability": "payable",
					"type": "function"
				},
				{
					"inputs": [
						{
							"internalType": "address",
							"name": "",
							"type": "address"
						},
						{
							"internalType": "uint256",
							"name": "",
							"type": "uint256"
						}
					],
					"name": "buyRequestants",
					"outputs": [
						{
							"internalType": "address",
							"name": "",
							"type": "address"
						}
					],
					"stateMutability": "view",
					"type": "function"
				},
				{
					"inputs": [],
					"name": "claimPriceMismatchEthFees",
					"outputs": [],
					"stateMutability": "nonpayable",
					"type": "function"
				},
				{
					"inputs": [],
					"name": "claimTokenOwnership",
					"outputs": [
						{
							"internalType": "bool",
							"name": "",
							"type": "bool"
						}
					],
					"stateMutability": "nonpayable",
					"type": "function"
				},
				{
					"inputs": [],
					"name": "contractOwner",
					"outputs": [
						{
							"internalType": "address",
							"name": "",
							"type": "address"
						}
					],
					"stateMutability": "view",
					"type": "function"
				},
				{
					"inputs": [
						{
							"internalType": "address",
							"name": "_nextContractOwner",
							"type": "address"
						}
					],
					"name": "initiateOwnershipTransfer",
					"outputs": [
						{
							"internalType": "bool",
							"name": "",
							"type": "bool"
						}
					],
					"stateMutability": "nonpayable",
					"type": "function"
				},
				{
					"inputs": [],
					"name": "nextContractOwner",
					"outputs": [
						{
							"internalType": "address",
							"name": "",
							"type": "address"
						}
					],
					"stateMutability": "view",
					"type": "function"
				},
				{
					"inputs": [],
					"name": "priceMismatchEthFees",
					"outputs": [
						{
							"internalType": "uint256",
							"name": "",
							"type": "uint256"
						}
					],
					"stateMutability": "view",
					"type": "function"
				},
				{
					"inputs": [
						{
							"internalType": "address",
							"name": "tokenAddress",
							"type": "address"
						},
						{
							"internalType": "uint256",
							"name": "amount",
							"type": "uint256"
						},
						{
							"internalType": "uint256",
							"name": "coinPrice",
							"type": "uint256"
						}
					],
					"name": "sellRequest",
					"outputs": [],
					"stateMutability": "nonpayable",
					"type": "function"
				},
				{
					"inputs": [
						{
							"internalType": "address",
							"name": "",
							"type": "address"
						},
						{
							"internalType": "uint256",
							"name": "",
							"type": "uint256"
						}
					],
					"name": "sellRequestants",
					"outputs": [
						{
							"internalType": "address",
							"name": "",
							"type": "address"
						}
					],
					"stateMutability": "view",
					"type": "function"
				}
			],
			"devdoc": {
				"kind": "dev",
				"methods": {},
				"version": 1
			},
			"evm": {
				"assembly": "    /* \"src/Exchange.sol\":226:9186  contract Exchange{... */\n  mstore(0x40, 0x80)\n    /* \"src/Exchange.sol\":2959:3062  constructor(address _owner){... */\n  callvalue\n  dup1\n  iszero\n  tag_1\n  jumpi\n  0x00\n  dup1\n  revert\ntag_1:\n  pop\n  mload(0x40)\n  sub(codesize, bytecodeSize)\n  dup1\n  bytecodeSize\n  dup4\n  codecopy\n  dup2\n  dup2\n  add\n  0x40\n  mstore\n  dup2\n  add\n  swap1\n  tag_2\n  swap2\n  swap1\n  tag_3\n  jump\t// in\ntag_2:\n    /* \"src/Exchange.sol\":3013:3019  _owner */\n  dup1\n    /* \"src/Exchange.sol\":2997:3010  contractOwner */\n  0x00\n  dup1\n    /* \"src/Exchange.sol\":2997:3019  contractOwner = _owner */\n  0x0100\n  exp\n  dup2\n  sload\n  dup2\n  0xffffffffffffffffffffffffffffffffffffffff\n  mul\n  not\n  and\n  swap1\n  dup4\n  0xffffffffffffffffffffffffffffffffffffffff\n  and\n  mul\n  or\n  swap1\n  sstore\n  pop\n    /* \"src/Exchange.sol\":3053:3054  0 */\n  0x00\n    /* \"src/Exchange.sol\":3030:3050  priceMismatchEthFees */\n  0x05\n    /* \"src/Exchange.sol\":3030:3054  priceMismatchEthFees = 0 */\n  dup2\n  swap1\n  sstore\n  pop\n    /* \"src/Exchange.sol\":2959:3062  constructor(address _owner){... */\n  pop\n    /* \"src/Exchange.sol\":226:9186  contract Exchange{... */\n  jump(tag_6)\n    /* \"#utility.yul\":88:205   */\ntag_8:\n    /* \"#utility.yul\":197:198   */\n  0x00\n    /* \"#utility.yul\":194:195   */\n  dup1\n    /* \"#utility.yul\":187:199   */\n  revert\n    /* \"#utility.yul\":334:460   */\ntag_10:\n    /* \"#utility.yul\":371:378   */\n  0x00\n    /* \"#utility.yul\":411:453   */\n  0xffffffffffffffffffffffffffffffffffffffff\n    /* \"#utility.yul\":404:409   */\n  dup3\n    /* \"#utility.yul\":400:454   */\n  and\n    /* \"#utility.yul\":389:454   */\n  swap1\n  pop\n    /* \"#utility.yul\":334:460   */\n  swap2\n  swap1\n  pop\n  jump\t// out\n    /* \"#utility.yul\":466:562   */\ntag_11:\n    /* \"#utility.yul\":503:510   */\n  0x00\n    /* \"#utility.yul\":532:556   */\n  tag_20\n    /* \"#utility.yul\":550:555   */\n  dup3\n    /* \"#utility.yul\":532:556   */\n  tag_10\n  jump\t// in\ntag_20:\n    /* \"#utility.yul\":521:556   */\n  swap1\n  pop\n    /* \"#utility.yul\":466:562   */\n  swap2\n  swap1\n  pop\n  jump\t// out\n    /* \"#utility.yul\":568:690   */\ntag_12:\n    /* \"#utility.yul\":641:665   */\n  tag_22\n    /* \"#utility.yul\":659:664   */\n  dup2\n    /* \"#utility.yul\":641:665   */\n  tag_11\n  jump\t// in\ntag_22:\n    /* \"#utility.yul\":634:639   */\n  dup2\n    /* \"#utility.yul\":631:666   */\n  eq\n    /* \"#utility.yul\":621:684   */\n  tag_23\n  jumpi\n    /* \"#utility.yul\":680:681   */\n  0x00\n    /* \"#utility.yul\":677:678   */\n  dup1\n    /* \"#utility.yul\":670:682   */\n  revert\n    /* \"#utility.yul\":621:684   */\ntag_23:\n    /* \"#utility.yul\":568:690   */\n  pop\n  jump\t// out\n    /* \"#utility.yul\":696:839   */\ntag_13:\n    /* \"#utility.yul\":753:758   */\n  0x00\n    /* \"#utility.yul\":784:790   */\n  dup2\n    /* \"#utility.yul\":778:791   */\n  mload\n    /* \"#utility.yul\":769:791   */\n  swap1\n  pop\n    /* \"#utility.yul\":800:833   */\n  tag_25\n    /* \"#utility.yul\":827:832   */\n  dup2\n    /* \"#utility.yul\":800:833   */\n  tag_12\n  jump\t// in\ntag_25:\n    /* \"#utility.yul\":696:839   */\n  swap3\n  swap2\n  pop\n  pop\n  jump\t// out\n    /* \"#utility.yul\":845:1196   */\ntag_3:\n    /* \"#utility.yul\":915:921   */\n  0x00\n    /* \"#utility.yul\":964:966   */\n  0x20\n    /* \"#utility.yul\":952:961   */\n  dup3\n    /* \"#utility.yul\":943:950   */\n  dup5\n    /* \"#utility.yul\":939:962   */\n  sub\n    /* \"#utility.yul\":935:967   */\n  slt\n    /* \"#utility.yul\":932:1051   */\n  iszero\n  tag_27\n  jumpi\n    /* \"#utility.yul\":970:1049   */\n  tag_28\n  tag_8\n  jump\t// in\ntag_28:\n    /* \"#utility.yul\":932:1051   */\ntag_27:\n    /* \"#utility.yul\":1090:1091   */\n  0x00\n    /* \"#utility.yul\":1115:1179   */\n  tag_29\n    /* \"#utility.yul\":1171:1178   */\n  dup5\n    /* \"#utility.yul\":1162:1168   */\n  dup3\n    /* \"#utility.yul\":1151:1160   */\n  dup6\n    /* \"#utility.yul\":1147:1169   */\n  add\n    /* \"#utility.yul\":1115:1179   */\n  tag_13\n  jump\t// in\ntag_29:\n    /* \"#utility.yul\":1105:1179   */\n  swap2\n  pop\n    /* \"#utility.yul\":1061:1189   */\n  pop\n    /* \"#utility.yul\":845:1196   */\n  swap3\n  swap2\n  pop\n  pop\n  jump\t// out\n    /* \"src/Exchange.sol\":226:9186  contract Exchange{... */\ntag_6:\n  dataSize(sub_0)\n  dup1\n  dataOffset(sub_0)\n  0x00\n  codecopy\n  0x00\n  return\nstop\n\nsub_0: assembly {\n        /* \"src/Exchange.sol\":226:9186  contract Exchange{... */\n      mstore(0x40, 0x80)\n      jumpi(tag_1, lt(calldatasize, 0x04))\n      shr(0xe0, calldataload(0x00))\n      dup1\n      0x83588b99\n      gt\n      tag_13\n      jumpi\n      dup1\n      0x83588b99\n      eq\n      tag_7\n      jumpi\n      dup1\n      0x9cd119e3\n      eq\n      tag_8\n      jumpi\n      dup1\n      0xa760e06a\n      eq\n      tag_9\n      jumpi\n      dup1\n      0xc0b6f561\n      eq\n      tag_10\n      jumpi\n      dup1\n      0xc2eb05ba\n      eq\n      tag_11\n      jumpi\n      dup1\n      0xce606ee0\n      eq\n      tag_12\n      jumpi\n      jump(tag_1)\n    tag_13:\n      dup1\n      0x10731a65\n      eq\n      tag_2\n      jumpi\n      dup1\n      0x1a4b3311\n      eq\n      tag_3\n      jumpi\n      dup1\n      0x1fb64da0\n      eq\n      tag_4\n      jumpi\n      dup1\n      0x28b02a8d\n      eq\n      tag_5\n      jumpi\n      dup1\n      0x73b298e2\n      eq\n      tag_6\n      jumpi\n    tag_1:\n      0x00\n      dup1\n      revert\n        /* \"src/Exchange.sol\":3601:3888  function claimTokenOwnership() external ... */\n    tag_2:\n      callvalue\n      dup1\n      iszero\n      tag_14\n      jumpi\n      0x00\n      dup1\n      revert\n    tag_14:\n      pop\n      tag_15\n      tag_16\n      jump\t// in\n    tag_15:\n      mload(0x40)\n      tag_17\n      swap2\n      swap1\n      tag_18\n      jump\t// in\n    tag_17:\n      mload(0x40)\n      dup1\n      swap2\n      sub\n      swap1\n      return\n        /* \"src/Exchange.sol\":474:521  mapping(address => UserRequest) public Requests */\n    tag_3:\n      callvalue\n      dup1\n      iszero\n      tag_19\n      jumpi\n      0x00\n      dup1\n      revert\n    tag_19:\n      pop\n      tag_20\n      0x04\n      dup1\n      calldatasize\n      sub\n      dup2\n      add\n      swap1\n      tag_21\n      swap2\n      swap1\n      tag_22\n      jump\t// in\n    tag_21:\n      tag_23\n      jump\t// in\n    tag_20:\n      mload(0x40)\n      tag_24\n      swap5\n      swap4\n      swap3\n      swap2\n      swap1\n      tag_25\n      jump\t// in\n    tag_24:\n      mload(0x40)\n      dup1\n      swap2\n      sub\n      swap1\n      return\n        /* \"src/Exchange.sol\":686:737  mapping(address => address[]) public buyRequestants */\n    tag_4:\n      callvalue\n      dup1\n      iszero\n      tag_26\n      jumpi\n      0x00\n      dup1\n      revert\n    tag_26:\n      pop\n      tag_27\n      0x04\n      dup1\n      calldatasize\n      sub\n      dup2\n      add\n      swap1\n      tag_28\n      swap2\n      swap1\n      tag_29\n      jump\t// in\n    tag_28:\n      tag_30\n      jump\t// in\n    tag_27:\n      mload(0x40)\n      tag_31\n      swap2\n      swap1\n      tag_32\n      jump\t// in\n    tag_31:\n      mload(0x40)\n      dup1\n      swap2\n      sub\n      swap1\n      return\n        /* \"src/Exchange.sol\":835:870  uint256 public priceMismatchEthFees */\n    tag_5:\n      callvalue\n      dup1\n      iszero\n      tag_33\n      jumpi\n      0x00\n      dup1\n      revert\n    tag_33:\n      pop\n      tag_34\n      tag_35\n      jump\t// in\n    tag_34:\n      mload(0x40)\n      tag_36\n      swap2\n      swap1\n      tag_37\n      jump\t// in\n    tag_36:\n      mload(0x40)\n      dup1\n      swap2\n      sub\n      swap1\n      return\n        /* \"src/Exchange.sol\":4185:4738  function sellRequest(address tokenAddress, uint256 amount, uint256 coinPrice) external ... */\n    tag_6:\n      callvalue\n      dup1\n      iszero\n      tag_38\n      jumpi\n      0x00\n      dup1\n      revert\n    tag_38:\n      pop\n      tag_39\n      0x04\n      dup1\n      calldatasize\n      sub\n      dup2\n      add\n      swap1\n      tag_40\n      swap2\n      swap1\n      tag_41\n      jump\t// in\n    tag_40:\n      tag_42\n      jump\t// in\n    tag_39:\n      stop\n        /* \"src/Exchange.sol\":627:679  mapping(address => address[]) public sellRequestants */\n    tag_7:\n      callvalue\n      dup1\n      iszero\n      tag_43\n      jumpi\n      0x00\n      dup1\n      revert\n    tag_43:\n      pop\n      tag_44\n      0x04\n      dup1\n      calldatasize\n      sub\n      dup2\n      add\n      swap1\n      tag_45\n      swap2\n      swap1\n      tag_29\n      jump\t// in\n    tag_45:\n      tag_46\n      jump\t// in\n    tag_44:\n      mload(0x40)\n      tag_47\n      swap2\n      swap1\n      tag_32\n      jump\t// in\n    tag_47:\n      mload(0x40)\n      dup1\n      swap2\n      sub\n      swap1\n      return\n        /* \"src/Exchange.sol\":3896:4119  function claimPriceMismatchEthFees() external ... */\n    tag_8:\n      callvalue\n      dup1\n      iszero\n      tag_48\n      jumpi\n      0x00\n      dup1\n      revert\n    tag_48:\n      pop\n      tag_49\n      tag_50\n      jump\t// in\n    tag_49:\n      stop\n        /* \"src/Exchange.sol\":4746:5216  function buyRequest(address coinAddress, uint256 amount, uint256 coinPrice) external payable ... */\n    tag_9:\n      tag_51\n      0x04\n      dup1\n      calldatasize\n      sub\n      dup2\n      add\n      swap1\n      tag_52\n      swap2\n      swap1\n      tag_41\n      jump\t// in\n    tag_52:\n      tag_53\n      jump\t// in\n    tag_51:\n      stop\n        /* \"src/Exchange.sol\":3168:3502  function initiateOwnershipTransfer(address _nextContractOwner) external ... */\n    tag_10:\n      callvalue\n      dup1\n      iszero\n      tag_54\n      jumpi\n      0x00\n      dup1\n      revert\n    tag_54:\n      pop\n      tag_55\n      0x04\n      dup1\n      calldatasize\n      sub\n      dup2\n      add\n      swap1\n      tag_56\n      swap2\n      swap1\n      tag_22\n      jump\t// in\n    tag_56:\n      tag_57\n      jump\t// in\n    tag_55:\n      mload(0x40)\n      tag_58\n      swap2\n      swap1\n      tag_18\n      jump\t// in\n    tag_58:\n      mload(0x40)\n      dup1\n      swap2\n      sub\n      swap1\n      return\n        /* \"src/Exchange.sol\":375:407  address public nextContractOwner */\n    tag_11:\n      callvalue\n      dup1\n      iszero\n      tag_59\n      jumpi\n      0x00\n      dup1\n      revert\n    tag_59:\n      pop\n      tag_60\n      tag_61\n      jump\t// in\n    tag_60:\n      mload(0x40)\n      tag_62\n      swap2\n      swap1\n      tag_32\n      jump\t// in\n    tag_62:\n      mload(0x40)\n      dup1\n      swap2\n      sub\n      swap1\n      return\n        /* \"src/Exchange.sol\":340:368  address public contractOwner */\n    tag_12:\n      callvalue\n      dup1\n      iszero\n      tag_63\n      jumpi\n      0x00\n      dup1\n      revert\n    tag_63:\n      pop\n      tag_64\n      tag_65\n      jump\t// in\n    tag_64:\n      mload(0x40)\n      tag_66\n      swap2\n      swap1\n      tag_32\n      jump\t// in\n    tag_66:\n      mload(0x40)\n      dup1\n      swap2\n      sub\n      swap1\n      return\n        /* \"src/Exchange.sol\":3601:3888  function claimTokenOwnership() external ... */\n    tag_16:\n        /* \"src/Exchange.sol\":3698:3702  bool */\n      0x00\n        /* \"src/Exchange.sol\":3661:3678  nextContractOwner */\n      0x01\n      0x00\n      swap1\n      sload\n      swap1\n      0x0100\n      exp\n      swap1\n      div\n      0xffffffffffffffffffffffffffffffffffffffff\n      and\n        /* \"src/Exchange.sol\":1839:1850  _authorized */\n      dup1\n        /* \"src/Exchange.sol\":1825:1850  msg.sender == _authorized */\n      0xffffffffffffffffffffffffffffffffffffffff\n      and\n        /* \"src/Exchange.sol\":1825:1835  msg.sender */\n      caller\n        /* \"src/Exchange.sol\":1825:1850  msg.sender == _authorized */\n      0xffffffffffffffffffffffffffffffffffffffff\n      and\n      eq\n        /* \"src/Exchange.sol\":1817:1879  require(msg.sender == _authorized, \"Caller is not authorized\") */\n      tag_68\n      jumpi\n      mload(0x40)\n      0x08c379a000000000000000000000000000000000000000000000000000000000\n      dup2\n      mstore\n      0x04\n      add\n      tag_69\n      swap1\n      tag_70\n      jump\t// in\n    tag_69:\n      mload(0x40)\n      dup1\n      swap2\n      sub\n      swap1\n      revert\n    tag_68:\n        /* \"src/Exchange.sol\":3736:3753  nextContractOwner */\n      0x01\n      0x00\n      swap1\n      sload\n      swap1\n      0x0100\n      exp\n      swap1\n      div\n      0xffffffffffffffffffffffffffffffffffffffff\n      and\n        /* \"src/Exchange.sol\":3720:3733  contractOwner */\n      0x00\n      dup1\n        /* \"src/Exchange.sol\":3720:3753  contractOwner = nextContractOwner */\n      0x0100\n      exp\n      dup2\n      sload\n      dup2\n      0xffffffffffffffffffffffffffffffffffffffff\n      mul\n      not\n      and\n      swap1\n      dup4\n      0xffffffffffffffffffffffffffffffffffffffff\n      and\n      mul\n      or\n      swap1\n      sstore\n      pop\n        /* \"src/Exchange.sol\":3792:3793  0 */\n      0x00\n        /* \"src/Exchange.sol\":3764:3781  nextContractOwner */\n      0x01\n      0x00\n        /* \"src/Exchange.sol\":3764:3794  nextContractOwner = address(0) */\n      0x0100\n      exp\n      dup2\n      sload\n      dup2\n      0xffffffffffffffffffffffffffffffffffffffff\n      mul\n      not\n      and\n      swap1\n      dup4\n      0xffffffffffffffffffffffffffffffffffffffff\n      and\n      mul\n      or\n      swap1\n      sstore\n      pop\n        /* \"src/Exchange.sol\":3844:3857  contractOwner */\n      0x00\n      dup1\n      sload\n      swap1\n      0x0100\n      exp\n      swap1\n      div\n      0xffffffffffffffffffffffffffffffffffffffff\n      and\n        /* \"src/Exchange.sol\":3810:3858  ContractOwnershipTransferFinished(contractOwner) */\n      0xffffffffffffffffffffffffffffffffffffffff\n      and\n      0x041e8ee868cb815a7e5cd1a100e6ff024772d79c071718c049ab7d3bc4e1226d\n      mload(0x40)\n      mload(0x40)\n      dup1\n      swap2\n      sub\n      swap1\n      log2\n        /* \"src/Exchange.sol\":3876:3880  true */\n      0x01\n        /* \"src/Exchange.sol\":3869:3880  return true */\n      swap2\n      pop\n        /* \"src/Exchange.sol\":3601:3888  function claimTokenOwnership() external ... */\n      pop\n      swap1\n      jump\t// out\n        /* \"src/Exchange.sol\":474:521  mapping(address => UserRequest) public Requests */\n    tag_23:\n      mstore(0x20, 0x02)\n      dup1\n      0x00\n      mstore\n      keccak256(0x00, 0x40)\n      0x00\n      swap2\n      pop\n      swap1\n      pop\n      dup1\n      0x00\n      add\n      0x00\n      swap1\n      sload\n      swap1\n      0x0100\n      exp\n      swap1\n      div\n      0xffffffffffffffffffffffffffffffffffffffff\n      and\n      swap1\n      dup1\n      0x01\n      add\n      sload\n      swap1\n      dup1\n      0x02\n      add\n      sload\n      swap1\n      dup1\n      0x03\n      add\n      0x00\n      swap1\n      sload\n      swap1\n      0x0100\n      exp\n      swap1\n      div\n      0xff\n      and\n      swap1\n      pop\n      dup5\n      jump\t// out\n        /* \"src/Exchange.sol\":686:737  mapping(address => address[]) public buyRequestants */\n    tag_30:\n      mstore(0x20, 0x04)\n      dup2\n      0x00\n      mstore\n      keccak256(0x00, 0x40)\n      dup2\n      dup2\n      sload\n      dup2\n      lt\n      tag_72\n      jumpi\n      0x00\n      dup1\n      revert\n    tag_72:\n      swap1\n      0x00\n      mstore\n      keccak256(0x00, 0x20)\n      add\n      0x00\n      swap2\n      pop\n      swap2\n      pop\n      swap1\n      sload\n      swap1\n      0x0100\n      exp\n      swap1\n      div\n      0xffffffffffffffffffffffffffffffffffffffff\n      and\n      dup2\n      jump\t// out\n        /* \"src/Exchange.sol\":835:870  uint256 public priceMismatchEthFees */\n    tag_35:\n      sload(0x05)\n      dup2\n      jump\t// out\n        /* \"src/Exchange.sol\":4185:4738  function sellRequest(address tokenAddress, uint256 amount, uint256 coinPrice) external ... */\n    tag_42:\n        /* \"src/Exchange.sol\":2426:2443  RequestTypes.NONE */\n      0x00\n        /* \"src/Exchange.sol\":2397:2443  Requests[msg.sender].Type == RequestTypes.NONE */\n      0x02\n      dup2\n      gt\n      iszero\n      tag_75\n      jumpi\n      tag_76\n      tag_77\n      jump\t// in\n    tag_76:\n    tag_75:\n        /* \"src/Exchange.sol\":2397:2405  Requests */\n      0x02\n        /* \"src/Exchange.sol\":2397:2417  Requests[msg.sender] */\n      0x00\n        /* \"src/Exchange.sol\":2406:2416  msg.sender */\n      caller\n        /* \"src/Exchange.sol\":2397:2417  Requests[msg.sender] */\n      0xffffffffffffffffffffffffffffffffffffffff\n      and\n      0xffffffffffffffffffffffffffffffffffffffff\n      and\n      dup2\n      mstore\n      0x20\n      add\n      swap1\n      dup2\n      mstore\n      0x20\n      add\n      0x00\n      keccak256\n        /* \"src/Exchange.sol\":2397:2422  Requests[msg.sender].Type */\n      0x03\n      add\n      0x00\n      swap1\n      sload\n      swap1\n      0x0100\n      exp\n      swap1\n      div\n      0xff\n      and\n        /* \"src/Exchange.sol\":2397:2443  Requests[msg.sender].Type == RequestTypes.NONE */\n      0x02\n      dup2\n      gt\n      iszero\n      tag_78\n      jumpi\n      tag_79\n      tag_77\n      jump\t// in\n    tag_79:\n    tag_78:\n      eq\n        /* \"src/Exchange.sol\":2389:2444  require(Requests[msg.sender].Type == RequestTypes.NONE) */\n      tag_80\n      jumpi\n      0x00\n      dup1\n      revert\n    tag_80:\n        /* \"src/Exchange.sol\":4323:4329  amount */\n      dup2\n        /* \"src/Exchange.sol\":2686:2687  0 */\n      0x00\n        /* \"src/Exchange.sol\":2675:2682  _amount */\n      dup2\n        /* \"src/Exchange.sol\":2675:2687  _amount != 0 */\n      sub\n        /* \"src/Exchange.sol\":2667:2724  require(_amount != 0, \"Amount must be greater than zero\") */\n      tag_82\n      jumpi\n      mload(0x40)\n      0x08c379a000000000000000000000000000000000000000000000000000000000\n      dup2\n      mstore\n      0x04\n      add\n      tag_83\n      swap1\n      tag_84\n      jump\t// in\n    tag_83:\n      mload(0x40)\n      dup1\n      swap2\n      sub\n      swap1\n      revert\n    tag_82:\n        /* \"src/Exchange.sol\":4353:4362  coinPrice */\n      dup2\n        /* \"src/Exchange.sol\":2818:2819  0 */\n      0x00\n        /* \"src/Exchange.sol\":2807:2814  _amount */\n      dup2\n        /* \"src/Exchange.sol\":2807:2819  _amount != 0 */\n      sub\n        /* \"src/Exchange.sol\":2799:2855  require(_amount != 0, \"Price must be greater than zero\") */\n      tag_86\n      jumpi\n      mload(0x40)\n      0x08c379a000000000000000000000000000000000000000000000000000000000\n      dup2\n      mstore\n      0x04\n      add\n      tag_87\n      swap1\n      tag_88\n      jump\t// in\n    tag_87:\n      mload(0x40)\n      dup1\n      swap2\n      sub\n      swap1\n      revert\n    tag_86:\n        /* \"src/Exchange.sol\":4393:4405  tokenAddress */\n      dup5\n        /* \"src/Exchange.sol\":4407:4413  amount */\n      dup5\n        /* \"src/Exchange.sol\":2154:2161  _amount */\n      dup1\n        /* \"src/Exchange.sol\":2100:2112  tokenAddress */\n      dup3\n        /* \"src/Exchange.sol\":2093:2123  IERC20(tokenAddress).allowance */\n      0xffffffffffffffffffffffffffffffffffffffff\n      and\n      0xdd62ed3e\n        /* \"src/Exchange.sol\":2124:2134  msg.sender */\n      caller\n        /* \"src/Exchange.sol\":2144:2148  this */\n      address\n        /* \"src/Exchange.sol\":2093:2150  IERC20(tokenAddress).allowance(msg.sender, address(this)) */\n      mload(0x40)\n      dup4\n      0xffffffff\n      and\n      0xe0\n      shl\n      dup2\n      mstore\n      0x04\n      add\n      tag_90\n      swap3\n      swap2\n      swap1\n      tag_91\n      jump\t// in\n    tag_90:\n      0x20\n      mload(0x40)\n      dup1\n      dup4\n      sub\n      dup2\n      dup7\n      gas\n      staticcall\n      iszero\n      dup1\n      iszero\n      tag_93\n      jumpi\n      returndatasize\n      0x00\n      dup1\n      returndatacopy\n      revert(0x00, returndatasize)\n    tag_93:\n      pop\n      pop\n      pop\n      pop\n      mload(0x40)\n      returndatasize\n      not(0x1f)\n      0x1f\n      dup3\n      add\n      and\n      dup3\n      add\n      dup1\n      0x40\n      mstore\n      pop\n      dup2\n      add\n      swap1\n      tag_94\n      swap2\n      swap1\n      tag_95\n      jump\t// in\n    tag_94:\n        /* \"src/Exchange.sol\":2093:2161  IERC20(tokenAddress).allowance(msg.sender, address(this)) >= _amount */\n      lt\n      iszero\n        /* \"src/Exchange.sol\":2085:2162  require(IERC20(tokenAddress).allowance(msg.sender, address(this)) >= _amount) */\n      tag_96\n      jumpi\n      0x00\n      dup1\n      revert\n    tag_96:\n        /* \"src/Exchange.sol\":4442:4454  tokenAddress */\n      dup7\n        /* \"src/Exchange.sol\":4456:4462  amount */\n      dup7\n        /* \"src/Exchange.sol\":2317:2324  _amount */\n      dup1\n        /* \"src/Exchange.sol\":2278:2290  tokenAddress */\n      dup3\n        /* \"src/Exchange.sol\":2271:2301  IERC20(tokenAddress).balanceOf */\n      0xffffffffffffffffffffffffffffffffffffffff\n      and\n      0x70a08231\n        /* \"src/Exchange.sol\":2302:2312  msg.sender */\n      caller\n        /* \"src/Exchange.sol\":2271:2313  IERC20(tokenAddress).balanceOf(msg.sender) */\n      mload(0x40)\n      dup3\n      0xffffffff\n      and\n      0xe0\n      shl\n      dup2\n      mstore\n      0x04\n      add\n      tag_98\n      swap2\n      swap1\n      tag_32\n      jump\t// in\n    tag_98:\n      0x20\n      mload(0x40)\n      dup1\n      dup4\n      sub\n      dup2\n      dup7\n      gas\n      staticcall\n      iszero\n      dup1\n      iszero\n      tag_100\n      jumpi\n      returndatasize\n      0x00\n      dup1\n      returndatacopy\n      revert(0x00, returndatasize)\n    tag_100:\n      pop\n      pop\n      pop\n      pop\n      mload(0x40)\n      returndatasize\n      not(0x1f)\n      0x1f\n      dup3\n      add\n      and\n      dup3\n      add\n      dup1\n      0x40\n      mstore\n      pop\n      dup2\n      add\n      swap1\n      tag_101\n      swap2\n      swap1\n      tag_95\n      jump\t// in\n    tag_101:\n        /* \"src/Exchange.sol\":2271:2324  IERC20(tokenAddress).balanceOf(msg.sender) >= _amount */\n      lt\n      iszero\n        /* \"src/Exchange.sol\":2263:2325  require(IERC20(tokenAddress).balanceOf(msg.sender) >= _amount) */\n      tag_102\n      jumpi\n      0x00\n      dup1\n      revert\n    tag_102:\n        /* \"src/Exchange.sol\":4508:4525  RequestTypes.SELL */\n      0x01\n        /* \"src/Exchange.sol\":4480:4488  Requests */\n      0x02\n        /* \"src/Exchange.sol\":4480:4500  Requests[msg.sender] */\n      0x00\n        /* \"src/Exchange.sol\":4489:4499  msg.sender */\n      caller\n        /* \"src/Exchange.sol\":4480:4500  Requests[msg.sender] */\n      0xffffffffffffffffffffffffffffffffffffffff\n      and\n      0xffffffffffffffffffffffffffffffffffffffff\n      and\n      dup2\n      mstore\n      0x20\n      add\n      swap1\n      dup2\n      mstore\n      0x20\n      add\n      0x00\n      keccak256\n        /* \"src/Exchange.sol\":4480:4505  Requests[msg.sender].Type */\n      0x03\n      add\n      0x00\n        /* \"src/Exchange.sol\":4480:4525  Requests[msg.sender].Type = RequestTypes.SELL */\n      0x0100\n      exp\n      dup2\n      sload\n      dup2\n      0xff\n      mul\n      not\n      and\n      swap1\n      dup4\n      0x02\n      dup2\n      gt\n      iszero\n      tag_104\n      jumpi\n      tag_105\n      tag_77\n      jump\t// in\n    tag_105:\n    tag_104:\n      mul\n      or\n      swap1\n      sstore\n      pop\n        /* \"src/Exchange.sol\":4547:4559  tokenAddress */\n      dup9\n        /* \"src/Exchange.sol\":4540:4573  IERC20(tokenAddress).transferFrom */\n      0xffffffffffffffffffffffffffffffffffffffff\n      and\n      0x23b872dd\n        /* \"src/Exchange.sol\":4574:4584  msg.sender */\n      caller\n        /* \"src/Exchange.sol\":4594:4598  this */\n      address\n        /* \"src/Exchange.sol\":4601:4607  amount */\n      dup12\n        /* \"src/Exchange.sol\":4540:4608  IERC20(tokenAddress).transferFrom(msg.sender, address(this), amount) */\n      mload(0x40)\n      dup5\n      0xffffffff\n      and\n      0xe0\n      shl\n      dup2\n      mstore\n      0x04\n      add\n      tag_106\n      swap4\n      swap3\n      swap2\n      swap1\n      tag_107\n      jump\t// in\n    tag_106:\n      0x20\n      mload(0x40)\n      dup1\n      dup4\n      sub\n      dup2\n      0x00\n      dup8\n      gas\n      call\n      iszero\n      dup1\n      iszero\n      tag_109\n      jumpi\n      returndatasize\n      0x00\n      dup1\n      returndatacopy\n      revert(0x00, returndatasize)\n    tag_109:\n      pop\n      pop\n      pop\n      pop\n      mload(0x40)\n      returndatasize\n      not(0x1f)\n      0x1f\n      dup3\n      add\n      and\n      dup3\n      add\n      dup1\n      0x40\n      mstore\n      pop\n      dup2\n      add\n      swap1\n      tag_110\n      swap2\n      swap1\n      tag_111\n      jump\t// in\n    tag_110:\n        /* \"src/Exchange.sol\":4536:4653  if(!IERC20(tokenAddress).transferFrom(msg.sender, address(this), amount)) revert(\"Token transfer to exchange failed\") */\n      tag_112\n      jumpi\n        /* \"src/Exchange.sol\":4610:4653  revert(\"Token transfer to exchange failed\") */\n      mload(0x40)\n      0x08c379a000000000000000000000000000000000000000000000000000000000\n      dup2\n      mstore\n      0x04\n      add\n      tag_113\n      swap1\n      tag_114\n      jump\t// in\n    tag_113:\n      mload(0x40)\n      dup1\n      swap2\n      sub\n      swap1\n      revert\n        /* \"src/Exchange.sol\":4536:4653  if(!IERC20(tokenAddress).transferFrom(msg.sender, address(this), amount)) revert(\"Token transfer to exchange failed\") */\n    tag_112:\n        /* \"src/Exchange.sol\":4664:4729  matchRequests(tokenAddress, amount, coinPrice, RequestTypes.SELL) */\n      tag_115\n        /* \"src/Exchange.sol\":4678:4690  tokenAddress */\n      dup10\n        /* \"src/Exchange.sol\":4692:4698  amount */\n      dup10\n        /* \"src/Exchange.sol\":4700:4709  coinPrice */\n      dup10\n        /* \"src/Exchange.sol\":4711:4728  RequestTypes.SELL */\n      0x01\n        /* \"src/Exchange.sol\":4664:4677  matchRequests */\n      tag_116\n        /* \"src/Exchange.sol\":4664:4729  matchRequests(tokenAddress, amount, coinPrice, RequestTypes.SELL) */\n      jump\t// in\n    tag_115:\n        /* \"src/Exchange.sol\":2173:2174  _ */\n      pop\n      pop\n        /* \"src/Exchange.sol\":2866:2867  _ */\n      pop\n      pop\n        /* \"src/Exchange.sol\":2735:2736  _ */\n      pop\n        /* \"src/Exchange.sol\":2456:2457  _ */\n      pop\n        /* \"src/Exchange.sol\":4185:4738  function sellRequest(address tokenAddress, uint256 amount, uint256 coinPrice) external ... */\n      pop\n      pop\n      pop\n      jump\t// out\n        /* \"src/Exchange.sol\":627:679  mapping(address => address[]) public sellRequestants */\n    tag_46:\n      mstore(0x20, 0x03)\n      dup2\n      0x00\n      mstore\n      keccak256(0x00, 0x40)\n      dup2\n      dup2\n      sload\n      dup2\n      lt\n      tag_117\n      jumpi\n      0x00\n      dup1\n      revert\n    tag_117:\n      swap1\n      0x00\n      mstore\n      keccak256(0x00, 0x20)\n      add\n      0x00\n      swap2\n      pop\n      swap2\n      pop\n      swap1\n      sload\n      swap1\n      0x0100\n      exp\n      swap1\n      div\n      0xffffffffffffffffffffffffffffffffffffffff\n      and\n      dup2\n      jump\t// out\n        /* \"src/Exchange.sol\":3896:4119  function claimPriceMismatchEthFees() external ... */\n    tag_50:\n        /* \"src/Exchange.sol\":3962:3975  contractOwner */\n      0x00\n      dup1\n      sload\n      swap1\n      0x0100\n      exp\n      swap1\n      div\n      0xffffffffffffffffffffffffffffffffffffffff\n      and\n        /* \"src/Exchange.sol\":1839:1850  _authorized */\n      dup1\n        /* \"src/Exchange.sol\":1825:1850  msg.sender == _authorized */\n      0xffffffffffffffffffffffffffffffffffffffff\n      and\n        /* \"src/Exchange.sol\":1825:1835  msg.sender */\n      caller\n        /* \"src/Exchange.sol\":1825:1850  msg.sender == _authorized */\n      0xffffffffffffffffffffffffffffffffffffffff\n      and\n      eq\n        /* \"src/Exchange.sol\":1817:1879  require(msg.sender == _authorized, \"Caller is not authorized\") */\n      tag_120\n      jumpi\n      mload(0x40)\n      0x08c379a000000000000000000000000000000000000000000000000000000000\n      dup2\n      mstore\n      0x04\n      add\n      tag_121\n      swap1\n      tag_70\n      jump\t// in\n    tag_121:\n      mload(0x40)\n      dup1\n      swap2\n      sub\n      swap1\n      revert\n    tag_120:\n        /* \"src/Exchange.sol\":3994:4006  uint256 fees */\n      0x00\n        /* \"src/Exchange.sol\":4009:4029  priceMismatchEthFees */\n      sload(0x05)\n        /* \"src/Exchange.sol\":3994:4029  uint256 fees = priceMismatchEthFees */\n      swap1\n      pop\n        /* \"src/Exchange.sol\":4063:4064  0 */\n      0x00\n        /* \"src/Exchange.sol\":4040:4060  priceMismatchEthFees */\n      0x05\n        /* \"src/Exchange.sol\":4040:4064  priceMismatchEthFees = 0 */\n      dup2\n      swap1\n      sstore\n      pop\n        /* \"src/Exchange.sol\":4075:4111  sendEther(payable(msg.sender), fees) */\n      tag_123\n        /* \"src/Exchange.sol\":4093:4103  msg.sender */\n      caller\n        /* \"src/Exchange.sol\":4106:4110  fees */\n      dup3\n        /* \"src/Exchange.sol\":4075:4084  sendEther */\n      tag_124\n        /* \"src/Exchange.sol\":4075:4111  sendEther(payable(msg.sender), fees) */\n      jump\t// in\n    tag_123:\n        /* \"src/Exchange.sol\":3983:4119  {... */\n      pop\n        /* \"src/Exchange.sol\":3896:4119  function claimPriceMismatchEthFees() external ... */\n      pop\n      jump\t// out\n        /* \"src/Exchange.sol\":4746:5216  function buyRequest(address coinAddress, uint256 amount, uint256 coinPrice) external payable ... */\n    tag_53:\n        /* \"src/Exchange.sol\":2426:2443  RequestTypes.NONE */\n      0x00\n        /* \"src/Exchange.sol\":2397:2443  Requests[msg.sender].Type == RequestTypes.NONE */\n      0x02\n      dup2\n      gt\n      iszero\n      tag_126\n      jumpi\n      tag_127\n      tag_77\n      jump\t// in\n    tag_127:\n    tag_126:\n        /* \"src/Exchange.sol\":2397:2405  Requests */\n      0x02\n        /* \"src/Exchange.sol\":2397:2417  Requests[msg.sender] */\n      0x00\n        /* \"src/Exchange.sol\":2406:2416  msg.sender */\n      caller\n        /* \"src/Exchange.sol\":2397:2417  Requests[msg.sender] */\n      0xffffffffffffffffffffffffffffffffffffffff\n      and\n      0xffffffffffffffffffffffffffffffffffffffff\n      and\n      dup2\n      mstore\n      0x20\n      add\n      swap1\n      dup2\n      mstore\n      0x20\n      add\n      0x00\n      keccak256\n        /* \"src/Exchange.sol\":2397:2422  Requests[msg.sender].Type */\n      0x03\n      add\n      0x00\n      swap1\n      sload\n      swap1\n      0x0100\n      exp\n      swap1\n      div\n      0xff\n      and\n        /* \"src/Exchange.sol\":2397:2443  Requests[msg.sender].Type == RequestTypes.NONE */\n      0x02\n      dup2\n      gt\n      iszero\n      tag_128\n      jumpi\n      tag_129\n      tag_77\n      jump\t// in\n    tag_129:\n    tag_128:\n      eq\n        /* \"src/Exchange.sol\":2389:2444  require(Requests[msg.sender].Type == RequestTypes.NONE) */\n      tag_130\n      jumpi\n      0x00\n      dup1\n      revert\n    tag_130:\n        /* \"src/Exchange.sol\":4890:4896  amount */\n      dup2\n        /* \"src/Exchange.sol\":2686:2687  0 */\n      0x00\n        /* \"src/Exchange.sol\":2675:2682  _amount */\n      dup2\n        /* \"src/Exchange.sol\":2675:2687  _amount != 0 */\n      sub\n        /* \"src/Exchange.sol\":2667:2724  require(_amount != 0, \"Amount must be greater than zero\") */\n      tag_132\n      jumpi\n      mload(0x40)\n      0x08c379a000000000000000000000000000000000000000000000000000000000\n      dup2\n      mstore\n      0x04\n      add\n      tag_133\n      swap1\n      tag_84\n      jump\t// in\n    tag_133:\n      mload(0x40)\n      dup1\n      swap2\n      sub\n      swap1\n      revert\n    tag_132:\n        /* \"src/Exchange.sol\":4920:4929  coinPrice */\n      dup2\n        /* \"src/Exchange.sol\":2818:2819  0 */\n      0x00\n        /* \"src/Exchange.sol\":2807:2814  _amount */\n      dup2\n        /* \"src/Exchange.sol\":2807:2819  _amount != 0 */\n      sub\n        /* \"src/Exchange.sol\":2799:2855  require(_amount != 0, \"Price must be greater than zero\") */\n      tag_135\n      jumpi\n      mload(0x40)\n      0x08c379a000000000000000000000000000000000000000000000000000000000\n      dup2\n      mstore\n      0x04\n      add\n      tag_136\n      swap1\n      tag_88\n      jump\t// in\n    tag_136:\n      mload(0x40)\n      dup1\n      swap2\n      sub\n      swap1\n      revert\n    tag_135:\n        /* \"src/Exchange.sol\":4959:4968  coinPrice */\n      dup3\n        /* \"src/Exchange.sol\":4952:4958  amount */\n      dup5\n        /* \"src/Exchange.sol\":4952:4968  amount*coinPrice */\n      tag_137\n      swap2\n      swap1\n      tag_138\n      jump\t// in\n    tag_137:\n        /* \"src/Exchange.sol\":1974:1981  _amount */\n      dup1\n        /* \"src/Exchange.sol\":1961:1970  msg.value */\n      callvalue\n        /* \"src/Exchange.sol\":1961:1981  msg.value >= _amount */\n      lt\n      iszero\n        /* \"src/Exchange.sol\":1953:1982  require(msg.value >= _amount) */\n      tag_140\n      jumpi\n      0x00\n      dup1\n      revert\n    tag_140:\n        /* \"src/Exchange.sol\":5008:5017  coinPrice */\n      dup4\n        /* \"src/Exchange.sol\":5001:5007  amount */\n      dup6\n        /* \"src/Exchange.sol\":5001:5017  amount*coinPrice */\n      tag_142\n      swap2\n      swap1\n      tag_138\n      jump\t// in\n    tag_142:\n        /* \"src/Exchange.sol\":4989:4998  msg.value */\n      callvalue\n        /* \"src/Exchange.sol\":4989:5017  msg.value > amount*coinPrice */\n      gt\n        /* \"src/Exchange.sol\":4986:5079  if(msg.value > amount*coinPrice) sendEther(payable(msg.sender), msg.value - amount*coinPrice) */\n      iszero\n      tag_143\n      jumpi\n        /* \"src/Exchange.sol\":5019:5079  sendEther(payable(msg.sender), msg.value - amount*coinPrice) */\n      tag_144\n        /* \"src/Exchange.sol\":5037:5047  msg.sender */\n      caller\n        /* \"src/Exchange.sol\":5069:5078  coinPrice */\n      dup6\n        /* \"src/Exchange.sol\":5062:5068  amount */\n      dup8\n        /* \"src/Exchange.sol\":5062:5078  amount*coinPrice */\n      tag_145\n      swap2\n      swap1\n      tag_138\n      jump\t// in\n    tag_145:\n        /* \"src/Exchange.sol\":5050:5059  msg.value */\n      callvalue\n        /* \"src/Exchange.sol\":5050:5078  msg.value - amount*coinPrice */\n      tag_146\n      swap2\n      swap1\n      tag_147\n      jump\t// in\n    tag_146:\n        /* \"src/Exchange.sol\":5019:5028  sendEther */\n      tag_124\n        /* \"src/Exchange.sol\":5019:5079  sendEther(payable(msg.sender), msg.value - amount*coinPrice) */\n      jump\t// in\n    tag_144:\n        /* \"src/Exchange.sol\":4986:5079  if(msg.value > amount*coinPrice) sendEther(payable(msg.sender), msg.value - amount*coinPrice) */\n    tag_143:\n        /* \"src/Exchange.sol\":5118:5134  RequestTypes.BUY */\n      0x02\n        /* \"src/Exchange.sol\":5090:5098  Requests */\n      dup1\n        /* \"src/Exchange.sol\":5090:5110  Requests[msg.sender] */\n      0x00\n        /* \"src/Exchange.sol\":5099:5109  msg.sender */\n      caller\n        /* \"src/Exchange.sol\":5090:5110  Requests[msg.sender] */\n      0xffffffffffffffffffffffffffffffffffffffff\n      and\n      0xffffffffffffffffffffffffffffffffffffffff\n      and\n      dup2\n      mstore\n      0x20\n      add\n      swap1\n      dup2\n      mstore\n      0x20\n      add\n      0x00\n      keccak256\n        /* \"src/Exchange.sol\":5090:5115  Requests[msg.sender].Type */\n      0x03\n      add\n      0x00\n        /* \"src/Exchange.sol\":5090:5134  Requests[msg.sender].Type = RequestTypes.BUY */\n      0x0100\n      exp\n      dup2\n      sload\n      dup2\n      0xff\n      mul\n      not\n      and\n      swap1\n      dup4\n      0x02\n      dup2\n      gt\n      iszero\n      tag_148\n      jumpi\n      tag_149\n      tag_77\n      jump\t// in\n    tag_149:\n    tag_148:\n      mul\n      or\n      swap1\n      sstore\n      pop\n        /* \"src/Exchange.sol\":5145:5208  matchRequests(coinAddress, amount, coinPrice, RequestTypes.BUY) */\n      tag_150\n        /* \"src/Exchange.sol\":5159:5170  coinAddress */\n      dup7\n        /* \"src/Exchange.sol\":5172:5178  amount */\n      dup7\n        /* \"src/Exchange.sol\":5180:5189  coinPrice */\n      dup7\n        /* \"src/Exchange.sol\":5191:5207  RequestTypes.BUY */\n      0x02\n        /* \"src/Exchange.sol\":5145:5158  matchRequests */\n      tag_116\n        /* \"src/Exchange.sol\":5145:5208  matchRequests(coinAddress, amount, coinPrice, RequestTypes.BUY) */\n      jump\t// in\n    tag_150:\n        /* \"src/Exchange.sol\":2866:2867  _ */\n      pop\n        /* \"src/Exchange.sol\":2735:2736  _ */\n      pop\n        /* \"src/Exchange.sol\":2456:2457  _ */\n      pop\n        /* \"src/Exchange.sol\":4746:5216  function buyRequest(address coinAddress, uint256 amount, uint256 coinPrice) external payable ... */\n      pop\n      pop\n      pop\n      jump\t// out\n        /* \"src/Exchange.sol\":3168:3502  function initiateOwnershipTransfer(address _nextContractOwner) external ... */\n    tag_57:\n        /* \"src/Exchange.sol\":3336:3340  bool */\n      0x00\n        /* \"src/Exchange.sol\":3260:3273  contractOwner */\n      dup1\n      0x00\n      swap1\n      sload\n      swap1\n      0x0100\n      exp\n      swap1\n      div\n      0xffffffffffffffffffffffffffffffffffffffff\n      and\n        /* \"src/Exchange.sol\":1839:1850  _authorized */\n      dup1\n        /* \"src/Exchange.sol\":1825:1850  msg.sender == _authorized */\n      0xffffffffffffffffffffffffffffffffffffffff\n      and\n        /* \"src/Exchange.sol\":1825:1835  msg.sender */\n      caller\n        /* \"src/Exchange.sol\":1825:1850  msg.sender == _authorized */\n      0xffffffffffffffffffffffffffffffffffffffff\n      and\n      eq\n        /* \"src/Exchange.sol\":1817:1879  require(msg.sender == _authorized, \"Caller is not authorized\") */\n      tag_152\n      jumpi\n      mload(0x40)\n      0x08c379a000000000000000000000000000000000000000000000000000000000\n      dup2\n      mstore\n      0x04\n      add\n      tag_153\n      swap1\n      tag_70\n      jump\t// in\n    tag_153:\n      mload(0x40)\n      dup1\n      swap2\n      sub\n      swap1\n      revert\n    tag_152:\n        /* \"src/Exchange.sol\":3299:3317  _nextContractOwner */\n      dup3\n        /* \"src/Exchange.sol\":2540:2543  _to */\n      dup1\n        /* \"src/Exchange.sol\":2526:2543  address(0) != _to */\n      0xffffffffffffffffffffffffffffffffffffffff\n      and\n        /* \"src/Exchange.sol\":2534:2535  0 */\n      0x00\n        /* \"src/Exchange.sol\":2526:2543  address(0) != _to */\n      0xffffffffffffffffffffffffffffffffffffffff\n      and\n      sub\n        /* \"src/Exchange.sol\":2518:2591  require(address(0) != _to, \"Transfer to the zero address is not allowed\") */\n      tag_155\n      jumpi\n      mload(0x40)\n      0x08c379a000000000000000000000000000000000000000000000000000000000\n      dup2\n      mstore\n      0x04\n      add\n      tag_156\n      swap1\n      tag_157\n      jump\t// in\n    tag_156:\n      mload(0x40)\n      dup1\n      swap2\n      sub\n      swap1\n      revert\n    tag_155:\n        /* \"src/Exchange.sol\":3378:3396  _nextContractOwner */\n      dup4\n        /* \"src/Exchange.sol\":3358:3375  nextContractOwner */\n      0x01\n      0x00\n        /* \"src/Exchange.sol\":3358:3396  nextContractOwner = _nextContractOwner */\n      0x0100\n      exp\n      dup2\n      sload\n      dup2\n      0xffffffffffffffffffffffffffffffffffffffff\n      mul\n      not\n      and\n      swap1\n      dup4\n      0xffffffffffffffffffffffffffffffffffffffff\n      and\n      mul\n      or\n      swap1\n      sstore\n      pop\n        /* \"src/Exchange.sol\":3454:3471  nextContractOwner */\n      0x01\n      0x00\n      swap1\n      sload\n      swap1\n      0x0100\n      exp\n      swap1\n      div\n      0xffffffffffffffffffffffffffffffffffffffff\n      and\n        /* \"src/Exchange.sol\":3412:3472  InitiatedOwnershipTransfer(contractOwner, nextContractOwner) */\n      0xffffffffffffffffffffffffffffffffffffffff\n      and\n        /* \"src/Exchange.sol\":3439:3452  contractOwner */\n      0x00\n      dup1\n      sload\n      swap1\n      0x0100\n      exp\n      swap1\n      div\n      0xffffffffffffffffffffffffffffffffffffffff\n      and\n        /* \"src/Exchange.sol\":3412:3472  InitiatedOwnershipTransfer(contractOwner, nextContractOwner) */\n      0xffffffffffffffffffffffffffffffffffffffff\n      and\n      0xfee8bf98f40b2ac772a78cd4d45742484d3471f99046b224f8e6922e7c6eb1d2\n      mload(0x40)\n      mload(0x40)\n      dup1\n      swap2\n      sub\n      swap1\n      log3\n        /* \"src/Exchange.sol\":3490:3494  true */\n      0x01\n        /* \"src/Exchange.sol\":3483:3494  return true */\n      swap3\n      pop\n        /* \"src/Exchange.sol\":1890:1891  _ */\n      pop\n        /* \"src/Exchange.sol\":3168:3502  function initiateOwnershipTransfer(address _nextContractOwner) external ... */\n      pop\n      swap2\n      swap1\n      pop\n      jump\t// out\n        /* \"src/Exchange.sol\":375:407  address public nextContractOwner */\n    tag_61:\n      0x01\n      0x00\n      swap1\n      sload\n      swap1\n      0x0100\n      exp\n      swap1\n      div\n      0xffffffffffffffffffffffffffffffffffffffff\n      and\n      dup2\n      jump\t// out\n        /* \"src/Exchange.sol\":340:368  address public contractOwner */\n    tag_65:\n      0x00\n      dup1\n      sload\n      swap1\n      0x0100\n      exp\n      swap1\n      div\n      0xffffffffffffffffffffffffffffffffffffffff\n      and\n      dup2\n      jump\t// out\n        /* \"src/Exchange.sol\":5319:6149  function matchRequests(address tokenAddress, uint256 amount, uint256 tokenPrice, RequestTypes TYPE) private{... */\n    tag_116:\n        /* \"src/Exchange.sol\":5437:5465  address[] memory requestants */\n      0x00\n        /* \"src/Exchange.sol\":5475:5492  RequestTypes.SELL */\n      0x01\n        /* \"src/Exchange.sol\":5469:5492  TYPE==RequestTypes.SELL */\n      0x02\n      dup2\n      gt\n      iszero\n      tag_160\n      jumpi\n      tag_161\n      tag_77\n      jump\t// in\n    tag_161:\n    tag_160:\n        /* \"src/Exchange.sol\":5469:5473  TYPE */\n      dup3\n        /* \"src/Exchange.sol\":5469:5492  TYPE==RequestTypes.SELL */\n      0x02\n      dup2\n      gt\n      iszero\n      tag_162\n      jumpi\n      tag_163\n      tag_77\n      jump\t// in\n    tag_163:\n    tag_162:\n      eq\n        /* \"src/Exchange.sol\":5469:5555  TYPE==RequestTypes.SELL ? buyRequestants[tokenAddress] : sellRequestants[tokenAddress] */\n      tag_164\n      jumpi\n        /* \"src/Exchange.sol\":5526:5541  sellRequestants */\n      0x03\n        /* \"src/Exchange.sol\":5526:5555  sellRequestants[tokenAddress] */\n      0x00\n        /* \"src/Exchange.sol\":5542:5554  tokenAddress */\n      dup7\n        /* \"src/Exchange.sol\":5526:5555  sellRequestants[tokenAddress] */\n      0xffffffffffffffffffffffffffffffffffffffff\n      and\n      0xffffffffffffffffffffffffffffffffffffffff\n      and\n      dup2\n      mstore\n      0x20\n      add\n      swap1\n      dup2\n      mstore\n      0x20\n      add\n      0x00\n      keccak256\n        /* \"src/Exchange.sol\":5469:5555  TYPE==RequestTypes.SELL ? buyRequestants[tokenAddress] : sellRequestants[tokenAddress] */\n      jump(tag_165)\n    tag_164:\n        /* \"src/Exchange.sol\":5495:5509  buyRequestants */\n      0x04\n        /* \"src/Exchange.sol\":5495:5523  buyRequestants[tokenAddress] */\n      0x00\n        /* \"src/Exchange.sol\":5510:5522  tokenAddress */\n      dup7\n        /* \"src/Exchange.sol\":5495:5523  buyRequestants[tokenAddress] */\n      0xffffffffffffffffffffffffffffffffffffffff\n      and\n      0xffffffffffffffffffffffffffffffffffffffff\n      and\n      dup2\n      mstore\n      0x20\n      add\n      swap1\n      dup2\n      mstore\n      0x20\n      add\n      0x00\n      keccak256\n        /* \"src/Exchange.sol\":5469:5555  TYPE==RequestTypes.SELL ? buyRequestants[tokenAddress] : sellRequestants[tokenAddress] */\n    tag_165:\n        /* \"src/Exchange.sol\":5437:5556  address[] memory requestants = (TYPE==RequestTypes.SELL ? buyRequestants[tokenAddress] : sellRequestants[tokenAddress]) */\n      dup1\n      sload\n      dup1\n      0x20\n      mul\n      0x20\n      add\n      mload(0x40)\n      swap1\n      dup2\n      add\n      0x40\n      mstore\n      dup1\n      swap3\n      swap2\n      swap1\n      dup2\n      dup2\n      mstore\n      0x20\n      add\n      dup3\n      dup1\n      sload\n      dup1\n      iszero\n      tag_166\n      jumpi\n      0x20\n      mul\n      dup3\n      add\n      swap2\n      swap1\n      0x00\n      mstore\n      keccak256(0x00, 0x20)\n      swap1\n    tag_167:\n      dup2\n      0x00\n      swap1\n      sload\n      swap1\n      0x0100\n      exp\n      swap1\n      div\n      0xffffffffffffffffffffffffffffffffffffffff\n      and\n      0xffffffffffffffffffffffffffffffffffffffff\n      and\n      dup2\n      mstore\n      0x20\n      add\n      swap1\n      0x01\n      add\n      swap1\n      dup1\n      dup4\n      gt\n      tag_167\n      jumpi\n    tag_166:\n      pop\n      pop\n      pop\n      pop\n      pop\n      swap1\n      pop\n        /* \"src/Exchange.sol\":5567:5585  uint256 amountLeft */\n      0x00\n        /* \"src/Exchange.sol\":5588:5594  amount */\n      dup5\n        /* \"src/Exchange.sol\":5567:5594  uint256 amountLeft = amount */\n      swap1\n      pop\n        /* \"src/Exchange.sol\":5610:5619  uint256 i */\n      0x00\n        /* \"src/Exchange.sol\":5622:5633  requestants */\n      dup3\n        /* \"src/Exchange.sol\":5622:5640  requestants.length */\n      mload\n        /* \"src/Exchange.sol\":5610:5640  uint256 i = requestants.length */\n      swap1\n      pop\n        /* \"src/Exchange.sol\":5605:5954  for (uint256 i = requestants.length; i > 0; i--){... */\n    tag_168:\n        /* \"src/Exchange.sol\":5646:5647  0 */\n      0x00\n        /* \"src/Exchange.sol\":5642:5643  i */\n      dup2\n        /* \"src/Exchange.sol\":5642:5647  i > 0 */\n      gt\n        /* \"src/Exchange.sol\":5605:5954  for (uint256 i = requestants.length; i > 0; i--){... */\n      iszero\n      tag_169\n      jumpi\n        /* \"src/Exchange.sol\":5668:5695  UserRequest memory _Request */\n      0x00\n        /* \"src/Exchange.sol\":5698:5706  Requests */\n      0x02\n        /* \"src/Exchange.sol\":5698:5724  Requests[requestants[i-1]] */\n      0x00\n        /* \"src/Exchange.sol\":5707:5718  requestants */\n      dup6\n        /* \"src/Exchange.sol\":5721:5722  1 */\n      0x01\n        /* \"src/Exchange.sol\":5719:5720  i */\n      dup6\n        /* \"src/Exchange.sol\":5719:5722  i-1 */\n      tag_171\n      swap2\n      swap1\n      tag_147\n      jump\t// in\n    tag_171:\n        /* \"src/Exchange.sol\":5707:5723  requestants[i-1] */\n      dup2\n      mload\n      dup2\n      lt\n      tag_172\n      jumpi\n      tag_173\n      tag_174\n      jump\t// in\n    tag_173:\n    tag_172:\n      0x20\n      mul\n      0x20\n      add\n      add\n      mload\n        /* \"src/Exchange.sol\":5698:5724  Requests[requestants[i-1]] */\n      0xffffffffffffffffffffffffffffffffffffffff\n      and\n      0xffffffffffffffffffffffffffffffffffffffff\n      and\n      dup2\n      mstore\n      0x20\n      add\n      swap1\n      dup2\n      mstore\n      0x20\n      add\n      0x00\n      keccak256\n        /* \"src/Exchange.sol\":5668:5724  UserRequest memory _Request = Requests[requestants[i-1]] */\n      mload(0x40)\n      dup1\n      0x80\n      add\n      0x40\n      mstore\n      swap1\n      dup2\n      0x00\n      dup3\n      add\n      0x00\n      swap1\n      sload\n      swap1\n      0x0100\n      exp\n      swap1\n      div\n      0xffffffffffffffffffffffffffffffffffffffff\n      and\n      0xffffffffffffffffffffffffffffffffffffffff\n      and\n      0xffffffffffffffffffffffffffffffffffffffff\n      and\n      dup2\n      mstore\n      0x20\n      add\n      0x01\n      dup3\n      add\n      sload\n      dup2\n      mstore\n      0x20\n      add\n      0x02\n      dup3\n      add\n      sload\n      dup2\n      mstore\n      0x20\n      add\n      0x03\n      dup3\n      add\n      0x00\n      swap1\n      sload\n      swap1\n      0x0100\n      exp\n      swap1\n      div\n      0xff\n      and\n      0x02\n      dup2\n      gt\n      iszero\n      tag_175\n      jumpi\n      tag_176\n      tag_77\n      jump\t// in\n    tag_176:\n    tag_175:\n      0x02\n      dup2\n      gt\n      iszero\n      tag_177\n      jumpi\n      tag_178\n      tag_77\n      jump\t// in\n    tag_178:\n    tag_177:\n      dup2\n      mstore\n      pop\n      pop\n      swap1\n      pop\n        /* \"src/Exchange.sol\":5742:5774  priceCheck(_Request, tokenPrice) */\n      tag_179\n        /* \"src/Exchange.sol\":5753:5761  _Request */\n      dup2\n        /* \"src/Exchange.sol\":5763:5773  tokenPrice */\n      dup8\n        /* \"src/Exchange.sol\":5742:5752  priceCheck */\n      tag_180\n        /* \"src/Exchange.sol\":5742:5774  priceCheck(_Request, tokenPrice) */\n      jump\t// in\n    tag_179:\n        /* \"src/Exchange.sol\":5739:5943  if(priceCheck(_Request, tokenPrice)){... */\n      iszero\n      tag_181\n      jumpi\n        /* \"src/Exchange.sol\":5807:5882  executeRequests(tokenAddress,requestants[i-1], amountLeft, i-1, tokenPrice) */\n      tag_182\n        /* \"src/Exchange.sol\":5823:5835  tokenAddress */\n      dup9\n        /* \"src/Exchange.sol\":5836:5847  requestants */\n      dup6\n        /* \"src/Exchange.sol\":5850:5851  1 */\n      0x01\n        /* \"src/Exchange.sol\":5848:5849  i */\n      dup6\n        /* \"src/Exchange.sol\":5848:5851  i-1 */\n      tag_183\n      swap2\n      swap1\n      tag_147\n      jump\t// in\n    tag_183:\n        /* \"src/Exchange.sol\":5836:5852  requestants[i-1] */\n      dup2\n      mload\n      dup2\n      lt\n      tag_184\n      jumpi\n      tag_185\n      tag_174\n      jump\t// in\n    tag_185:\n    tag_184:\n      0x20\n      mul\n      0x20\n      add\n      add\n      mload\n        /* \"src/Exchange.sol\":5854:5864  amountLeft */\n      dup6\n        /* \"src/Exchange.sol\":5868:5869  1 */\n      0x01\n        /* \"src/Exchange.sol\":5866:5867  i */\n      dup7\n        /* \"src/Exchange.sol\":5866:5869  i-1 */\n      tag_186\n      swap2\n      swap1\n      tag_147\n      jump\t// in\n    tag_186:\n        /* \"src/Exchange.sol\":5871:5881  tokenPrice */\n      dup11\n        /* \"src/Exchange.sol\":5807:5822  executeRequests */\n      tag_187\n        /* \"src/Exchange.sol\":5807:5882  executeRequests(tokenAddress,requestants[i-1], amountLeft, i-1, tokenPrice) */\n      jump\t// in\n    tag_182:\n        /* \"src/Exchange.sol\":5794:5882  amountLeft = executeRequests(tokenAddress,requestants[i-1], amountLeft, i-1, tokenPrice) */\n      swap3\n      pop\n        /* \"src/Exchange.sol\":5919:5920  0 */\n      0x00\n        /* \"src/Exchange.sol\":5905:5915  amountLeft */\n      dup4\n        /* \"src/Exchange.sol\":5905:5920  amountLeft == 0 */\n      sub\n        /* \"src/Exchange.sol\":5901:5927  if (amountLeft == 0) break */\n      tag_188\n      jumpi\n        /* \"src/Exchange.sol\":5922:5927  break */\n      pop\n      jump(tag_169)\n        /* \"src/Exchange.sol\":5901:5927  if (amountLeft == 0) break */\n    tag_188:\n        /* \"src/Exchange.sol\":5739:5943  if(priceCheck(_Request, tokenPrice)){... */\n    tag_181:\n        /* \"src/Exchange.sol\":5653:5954  {... */\n      pop\n        /* \"src/Exchange.sol\":5649:5652  i-- */\n      dup1\n      dup1\n      tag_189\n      swap1\n      tag_190\n      jump\t// in\n    tag_189:\n      swap2\n      pop\n      pop\n        /* \"src/Exchange.sol\":5605:5954  for (uint256 i = requestants.length; i > 0; i--){... */\n      jump(tag_168)\n    tag_169:\n      pop\n        /* \"src/Exchange.sol\":5980:5981  0 */\n      0x00\n        /* \"src/Exchange.sol\":5967:5977  amountLeft */\n      dup2\n        /* \"src/Exchange.sol\":5967:5981  amountLeft > 0 */\n      gt\n        /* \"src/Exchange.sol\":5964:6142  if(amountLeft > 0){... */\n      iszero\n      tag_191\n      jumpi\n        /* \"src/Exchange.sol\":5997:6051  addRequest(tokenAddress, amountLeft, tokenPrice, TYPE) */\n      tag_192\n        /* \"src/Exchange.sol\":6008:6020  tokenAddress */\n      dup7\n        /* \"src/Exchange.sol\":6022:6032  amountLeft */\n      dup3\n        /* \"src/Exchange.sol\":6034:6044  tokenPrice */\n      dup7\n        /* \"src/Exchange.sol\":6046:6050  TYPE */\n      dup7\n        /* \"src/Exchange.sol\":5997:6007  addRequest */\n      tag_193\n        /* \"src/Exchange.sol\":5997:6051  addRequest(tokenAddress, amountLeft, tokenPrice, TYPE) */\n      jump\t// in\n    tag_192:\n        /* \"src/Exchange.sol\":5964:6142  if(amountLeft > 0){... */\n      jump(tag_194)\n    tag_191:\n        /* \"src/Exchange.sol\":6110:6127  RequestTypes.NONE */\n      0x00\n        /* \"src/Exchange.sol\":6082:6090  Requests */\n      0x02\n        /* \"src/Exchange.sol\":6082:6102  Requests[msg.sender] */\n      0x00\n        /* \"src/Exchange.sol\":6091:6101  msg.sender */\n      caller\n        /* \"src/Exchange.sol\":6082:6102  Requests[msg.sender] */\n      0xffffffffffffffffffffffffffffffffffffffff\n      and\n      0xffffffffffffffffffffffffffffffffffffffff\n      and\n      dup2\n      mstore\n      0x20\n      add\n      swap1\n      dup2\n      mstore\n      0x20\n      add\n      0x00\n      keccak256\n        /* \"src/Exchange.sol\":6082:6107  Requests[msg.sender].Type */\n      0x03\n      add\n      0x00\n        /* \"src/Exchange.sol\":6082:6127  Requests[msg.sender].Type = RequestTypes.NONE */\n      0x0100\n      exp\n      dup2\n      sload\n      dup2\n      0xff\n      mul\n      not\n      and\n      swap1\n      dup4\n      0x02\n      dup2\n      gt\n      iszero\n      tag_195\n      jumpi\n      tag_196\n      tag_77\n      jump\t// in\n    tag_196:\n    tag_195:\n      mul\n      or\n      swap1\n      sstore\n      pop\n        /* \"src/Exchange.sol\":5964:6142  if(amountLeft > 0){... */\n    tag_194:\n        /* \"src/Exchange.sol\":5426:6149  {... */\n      pop\n      pop\n        /* \"src/Exchange.sol\":5319:6149  function matchRequests(address tokenAddress, uint256 amount, uint256 tokenPrice, RequestTypes TYPE) private{... */\n      pop\n      pop\n      pop\n      pop\n      jump\t// out\n        /* \"src/Exchange.sol\":9003:9183  function sendEther(address payable reciver, uint256 amount) private{... */\n    tag_124:\n        /* \"src/Exchange.sol\":9082:9091  bool sent */\n      0x00\n        /* \"src/Exchange.sol\":9096:9103  reciver */\n      dup3\n        /* \"src/Exchange.sol\":9096:9108  reciver.call */\n      0xffffffffffffffffffffffffffffffffffffffff\n      and\n        /* \"src/Exchange.sol\":9116:9122  amount */\n      dup3\n        /* \"src/Exchange.sol\":9096:9127  reciver.call{value: amount}(\"\") */\n      mload(0x40)\n      tag_198\n      swap1\n      tag_199\n      jump\t// in\n    tag_198:\n      0x00\n      mload(0x40)\n      dup1\n      dup4\n      sub\n      dup2\n      dup6\n      dup8\n      gas\n      call\n      swap3\n      pop\n      pop\n      pop\n      returndatasize\n      dup1\n      0x00\n      dup2\n      eq\n      tag_202\n      jumpi\n      mload(0x40)\n      swap2\n      pop\n      and(add(returndatasize, 0x3f), not(0x1f))\n      dup3\n      add\n      0x40\n      mstore\n      returndatasize\n      dup3\n      mstore\n      returndatasize\n      0x00\n      0x20\n      dup5\n      add\n      returndatacopy\n      jump(tag_201)\n    tag_202:\n      0x60\n      swap2\n      pop\n    tag_201:\n      pop\n        /* \"src/Exchange.sol\":9081:9127  (bool sent,) = reciver.call{value: amount}(\"\") */\n      pop\n      swap1\n      pop\n        /* \"src/Exchange.sol\":9146:9150  sent */\n      dup1\n        /* \"src/Exchange.sol\":9138:9175  require(sent, \"Failed to send Ether\") */\n      tag_203\n      jumpi\n      mload(0x40)\n      0x08c379a000000000000000000000000000000000000000000000000000000000\n      dup2\n      mstore\n      0x04\n      add\n      tag_204\n      swap1\n      tag_205\n      jump\t// in\n    tag_204:\n      mload(0x40)\n      dup1\n      swap2\n      sub\n      swap1\n      revert\n    tag_203:\n        /* \"src/Exchange.sol\":9070:9183  {... */\n      pop\n        /* \"src/Exchange.sol\":9003:9183  function sendEther(address payable reciver, uint256 amount) private{... */\n      pop\n      pop\n      jump\t// out\n        /* \"src/Exchange.sol\":6157:6485  function priceCheck(UserRequest memory _Request, uint256 tokenPrice) private pure returns(bool){... */\n    tag_180:\n        /* \"src/Exchange.sol\":6247:6251  bool */\n      0x00\n        /* \"src/Exchange.sol\":6283:6300  RequestTypes.SELL */\n      0x01\n        /* \"src/Exchange.sol\":6266:6300  _Request.Type == RequestTypes.SELL */\n      0x02\n      dup2\n      gt\n      iszero\n      tag_207\n      jumpi\n      tag_208\n      tag_77\n      jump\t// in\n    tag_208:\n    tag_207:\n        /* \"src/Exchange.sol\":6266:6274  _Request */\n      dup4\n        /* \"src/Exchange.sol\":6266:6279  _Request.Type */\n      0x60\n      add\n      mload\n        /* \"src/Exchange.sol\":6266:6300  _Request.Type == RequestTypes.SELL */\n      0x02\n      dup2\n      gt\n      iszero\n      tag_209\n      jumpi\n      tag_210\n      tag_77\n      jump\t// in\n    tag_210:\n    tag_209:\n      sub\n        /* \"src/Exchange.sol\":6263:6455  if(_Request.Type == RequestTypes.SELL){... */\n      tag_211\n      jumpi\n        /* \"src/Exchange.sol\":6341:6351  tokenPrice */\n      dup2\n        /* \"src/Exchange.sol\":6319:6327  _Request */\n      dup4\n        /* \"src/Exchange.sol\":6319:6337  _Request.coinPrice */\n      0x40\n      add\n      mload\n        /* \"src/Exchange.sol\":6319:6351  _Request.coinPrice <= tokenPrice */\n      gt\n        /* \"src/Exchange.sol\":6316:6364  if(_Request.coinPrice <= tokenPrice) return true */\n      tag_212\n      jumpi\n        /* \"src/Exchange.sol\":6360:6364  true */\n      0x01\n        /* \"src/Exchange.sol\":6353:6364  return true */\n      swap1\n      pop\n      jump(tag_206)\n        /* \"src/Exchange.sol\":6316:6364  if(_Request.coinPrice <= tokenPrice) return true */\n    tag_212:\n        /* \"src/Exchange.sol\":6263:6455  if(_Request.Type == RequestTypes.SELL){... */\n      jump(tag_213)\n    tag_211:\n        /* \"src/Exchange.sol\":6420:6430  tokenPrice */\n      dup2\n        /* \"src/Exchange.sol\":6398:6406  _Request */\n      dup4\n        /* \"src/Exchange.sol\":6398:6416  _Request.coinPrice */\n      0x40\n      add\n      mload\n        /* \"src/Exchange.sol\":6398:6430  _Request.coinPrice >= tokenPrice */\n      lt\n        /* \"src/Exchange.sol\":6395:6443  if(_Request.coinPrice >= tokenPrice) return true */\n      tag_214\n      jumpi\n        /* \"src/Exchange.sol\":6439:6443  true */\n      0x01\n        /* \"src/Exchange.sol\":6432:6443  return true */\n      swap1\n      pop\n      jump(tag_206)\n        /* \"src/Exchange.sol\":6395:6443  if(_Request.coinPrice >= tokenPrice) return true */\n    tag_214:\n        /* \"src/Exchange.sol\":6263:6455  if(_Request.Type == RequestTypes.SELL){... */\n    tag_213:\n        /* \"src/Exchange.sol\":6472:6477  false */\n      0x00\n        /* \"src/Exchange.sol\":6465:6477  return false */\n      swap1\n      pop\n        /* \"src/Exchange.sol\":6157:6485  function priceCheck(UserRequest memory _Request, uint256 tokenPrice) private pure returns(bool){... */\n    tag_206:\n      swap3\n      swap2\n      pop\n      pop\n      jump\t// out\n        /* \"src/Exchange.sol\":6541:7832  function executeRequests(address tokenAddress, address counterparty, uint256 amount, uint256 requestIndex, uint256 tokenPrice) private returns(uint256){... */\n    tag_187:\n        /* \"src/Exchange.sol\":6684:6691  uint256 */\n      0x00\n        /* \"src/Exchange.sol\":6703:6731  UserRequest storage _Request */\n      dup1\n        /* \"src/Exchange.sol\":6734:6742  Requests */\n      0x02\n        /* \"src/Exchange.sol\":6734:6756  Requests[counterparty] */\n      0x00\n        /* \"src/Exchange.sol\":6743:6755  counterparty */\n      dup8\n        /* \"src/Exchange.sol\":6734:6756  Requests[counterparty] */\n      0xffffffffffffffffffffffffffffffffffffffff\n      and\n      0xffffffffffffffffffffffffffffffffffffffff\n      and\n      dup2\n      mstore\n      0x20\n      add\n      swap1\n      dup2\n      mstore\n      0x20\n      add\n      0x00\n      keccak256\n        /* \"src/Exchange.sol\":6703:6756  UserRequest storage _Request = Requests[counterparty] */\n      swap1\n      pop\n        /* \"src/Exchange.sol\":6767:6786  uint256 tradeAmount */\n      0x00\n        /* \"src/Exchange.sol\":6798:6806  _Request */\n      dup2\n        /* \"src/Exchange.sol\":6798:6813  _Request.amount */\n      0x01\n      add\n      sload\n        /* \"src/Exchange.sol\":6789:6795  amount */\n      dup7\n        /* \"src/Exchange.sol\":6789:6813  amount < _Request.amount */\n      lt\n        /* \"src/Exchange.sol\":6789:6840  amount < _Request.amount ? amount : _Request.amount */\n      tag_216\n      jumpi\n        /* \"src/Exchange.sol\":6825:6833  _Request */\n      dup2\n        /* \"src/Exchange.sol\":6825:6840  _Request.amount */\n      0x01\n      add\n      sload\n        /* \"src/Exchange.sol\":6789:6840  amount < _Request.amount ? amount : _Request.amount */\n      jump(tag_217)\n    tag_216:\n        /* \"src/Exchange.sol\":6816:6822  amount */\n      dup6\n        /* \"src/Exchange.sol\":6789:6840  amount < _Request.amount ? amount : _Request.amount */\n    tag_217:\n        /* \"src/Exchange.sol\":6767:6840  uint256 tradeAmount = amount < _Request.amount ? amount : _Request.amount */\n      swap1\n      pop\n        /* \"src/Exchange.sol\":6872:6888  RequestTypes.BUY */\n      0x02\n        /* \"src/Exchange.sol\":6855:6888  _Request.Type == RequestTypes.BUY */\n      dup1\n      dup2\n      gt\n      iszero\n      tag_218\n      jumpi\n      tag_219\n      tag_77\n      jump\t// in\n    tag_219:\n    tag_218:\n        /* \"src/Exchange.sol\":6855:6863  _Request */\n      dup3\n        /* \"src/Exchange.sol\":6855:6868  _Request.Type */\n      0x03\n      add\n      0x00\n      swap1\n      sload\n      swap1\n      0x0100\n      exp\n      swap1\n      div\n      0xff\n      and\n        /* \"src/Exchange.sol\":6855:6888  _Request.Type == RequestTypes.BUY */\n      0x02\n      dup2\n      gt\n      iszero\n      tag_220\n      jumpi\n      tag_221\n      tag_77\n      jump\t// in\n    tag_221:\n    tag_220:\n      sub\n        /* \"src/Exchange.sol\":6851:7540  if (_Request.Type == RequestTypes.BUY) {... */\n      tag_222\n      jumpi\n        /* \"src/Exchange.sol\":6916:6928  tokenAddress */\n      dup8\n        /* \"src/Exchange.sol\":6909:6938  IERC20(tokenAddress).transfer */\n      0xffffffffffffffffffffffffffffffffffffffff\n      and\n      0xa9059cbb\n        /* \"src/Exchange.sol\":6939:6951  counterparty */\n      dup9\n        /* \"src/Exchange.sol\":6953:6964  tradeAmount */\n      dup4\n        /* \"src/Exchange.sol\":6909:6965  IERC20(tokenAddress).transfer(counterparty, tradeAmount) */\n      mload(0x40)\n      dup4\n      0xffffffff\n      and\n      0xe0\n      shl\n      dup2\n      mstore\n      0x04\n      add\n      tag_223\n      swap3\n      swap2\n      swap1\n      tag_224\n      jump\t// in\n    tag_223:\n      0x20\n      mload(0x40)\n      dup1\n      dup4\n      sub\n      dup2\n      0x00\n      dup8\n      gas\n      call\n      iszero\n      dup1\n      iszero\n      tag_226\n      jumpi\n      returndatasize\n      0x00\n      dup1\n      returndatacopy\n      revert(0x00, returndatasize)\n    tag_226:\n      pop\n      pop\n      pop\n      pop\n      mload(0x40)\n      returndatasize\n      not(0x1f)\n      0x1f\n      dup3\n      add\n      and\n      dup3\n      add\n      dup1\n      0x40\n      mstore\n      pop\n      dup2\n      add\n      swap1\n      tag_227\n      swap2\n      swap1\n      tag_111\n      jump\t// in\n    tag_227:\n        /* \"src/Exchange.sol\":6905:7007  if(!IERC20(tokenAddress).transfer(counterparty, tradeAmount)) revert(\"Token transfer to buyer failed\") */\n      tag_228\n      jumpi\n        /* \"src/Exchange.sol\":6967:7007  revert(\"Token transfer to buyer failed\") */\n      mload(0x40)\n      0x08c379a000000000000000000000000000000000000000000000000000000000\n      dup2\n      mstore\n      0x04\n      add\n      tag_229\n      swap1\n      tag_230\n      jump\t// in\n    tag_229:\n      mload(0x40)\n      dup1\n      swap2\n      sub\n      swap1\n      revert\n        /* \"src/Exchange.sol\":6905:7007  if(!IERC20(tokenAddress).transfer(counterparty, tradeAmount)) revert(\"Token transfer to buyer failed\") */\n    tag_228:\n        /* \"src/Exchange.sol\":7022:7083  sendEther(payable(msg.sender),tradeAmount*_Request.coinPrice) */\n      tag_231\n        /* \"src/Exchange.sol\":7040:7050  msg.sender */\n      caller\n        /* \"src/Exchange.sol\":7064:7072  _Request */\n      dup4\n        /* \"src/Exchange.sol\":7064:7082  _Request.coinPrice */\n      0x02\n      add\n      sload\n        /* \"src/Exchange.sol\":7052:7063  tradeAmount */\n      dup4\n        /* \"src/Exchange.sol\":7052:7082  tradeAmount*_Request.coinPrice */\n      tag_232\n      swap2\n      swap1\n      tag_138\n      jump\t// in\n    tag_232:\n        /* \"src/Exchange.sol\":7022:7031  sendEther */\n      tag_124\n        /* \"src/Exchange.sol\":7022:7083  sendEther(payable(msg.sender),tradeAmount*_Request.coinPrice) */\n      jump\t// in\n    tag_231:\n        /* \"src/Exchange.sol\":7122:7132  tokenPrice */\n      dup4\n        /* \"src/Exchange.sol\":7101:7109  _Request */\n      dup3\n        /* \"src/Exchange.sol\":7101:7119  _Request.coinPrice */\n      0x02\n      add\n      sload\n        /* \"src/Exchange.sol\":7101:7132  _Request.coinPrice > tokenPrice */\n      gt\n        /* \"src/Exchange.sol\":7098:7201  if(_Request.coinPrice > tokenPrice) priceMismatchEthFees+=((_Request.coinPrice-tokenPrice)*tradeAmount) */\n      iszero\n      tag_233\n      jumpi\n        /* \"src/Exchange.sol\":7189:7200  tradeAmount */\n      dup1\n        /* \"src/Exchange.sol\":7177:7187  tokenPrice */\n      dup5\n        /* \"src/Exchange.sol\":7158:7166  _Request */\n      dup4\n        /* \"src/Exchange.sol\":7158:7176  _Request.coinPrice */\n      0x02\n      add\n      sload\n        /* \"src/Exchange.sol\":7158:7187  _Request.coinPrice-tokenPrice */\n      tag_234\n      swap2\n      swap1\n      tag_147\n      jump\t// in\n    tag_234:\n        /* \"src/Exchange.sol\":7157:7200  (_Request.coinPrice-tokenPrice)*tradeAmount */\n      tag_235\n      swap2\n      swap1\n      tag_138\n      jump\t// in\n    tag_235:\n        /* \"src/Exchange.sol\":7134:7154  priceMismatchEthFees */\n      0x05\n      0x00\n        /* \"src/Exchange.sol\":7134:7201  priceMismatchEthFees+=((_Request.coinPrice-tokenPrice)*tradeAmount) */\n      dup3\n      dup3\n      sload\n      tag_236\n      swap2\n      swap1\n      tag_237\n      jump\t// in\n    tag_236:\n      swap3\n      pop\n      pop\n      dup2\n      swap1\n      sstore\n      pop\n        /* \"src/Exchange.sol\":7098:7201  if(_Request.coinPrice > tokenPrice) priceMismatchEthFees+=((_Request.coinPrice-tokenPrice)*tradeAmount) */\n    tag_233:\n        /* \"src/Exchange.sol\":6851:7540  if (_Request.Type == RequestTypes.BUY) {... */\n      jump(tag_238)\n    tag_222:\n        /* \"src/Exchange.sol\":7243:7255  tokenAddress */\n      dup8\n        /* \"src/Exchange.sol\":7236:7265  IERC20(tokenAddress).transfer */\n      0xffffffffffffffffffffffffffffffffffffffff\n      and\n      0xa9059cbb\n        /* \"src/Exchange.sol\":7266:7276  msg.sender */\n      caller\n        /* \"src/Exchange.sol\":7278:7289  tradeAmount */\n      dup4\n        /* \"src/Exchange.sol\":7236:7290  IERC20(tokenAddress).transfer(msg.sender, tradeAmount) */\n      mload(0x40)\n      dup4\n      0xffffffff\n      and\n      0xe0\n      shl\n      dup2\n      mstore\n      0x04\n      add\n      tag_239\n      swap3\n      swap2\n      swap1\n      tag_224\n      jump\t// in\n    tag_239:\n      0x20\n      mload(0x40)\n      dup1\n      dup4\n      sub\n      dup2\n      0x00\n      dup8\n      gas\n      call\n      iszero\n      dup1\n      iszero\n      tag_241\n      jumpi\n      returndatasize\n      0x00\n      dup1\n      returndatacopy\n      revert(0x00, returndatasize)\n    tag_241:\n      pop\n      pop\n      pop\n      pop\n      mload(0x40)\n      returndatasize\n      not(0x1f)\n      0x1f\n      dup3\n      add\n      and\n      dup3\n      add\n      dup1\n      0x40\n      mstore\n      pop\n      dup2\n      add\n      swap1\n      tag_242\n      swap2\n      swap1\n      tag_111\n      jump\t// in\n    tag_242:\n        /* \"src/Exchange.sol\":7232:7332  if(!IERC20(tokenAddress).transfer(msg.sender, tradeAmount)) revert(\"Token transfer to buyer failed\") */\n      tag_243\n      jumpi\n        /* \"src/Exchange.sol\":7292:7332  revert(\"Token transfer to buyer failed\") */\n      mload(0x40)\n      0x08c379a000000000000000000000000000000000000000000000000000000000\n      dup2\n      mstore\n      0x04\n      add\n      tag_244\n      swap1\n      tag_230\n      jump\t// in\n    tag_244:\n      mload(0x40)\n      dup1\n      swap2\n      sub\n      swap1\n      revert\n        /* \"src/Exchange.sol\":7232:7332  if(!IERC20(tokenAddress).transfer(msg.sender, tradeAmount)) revert(\"Token transfer to buyer failed\") */\n    tag_243:\n        /* \"src/Exchange.sol\":7347:7410  sendEther(payable(counterparty),tradeAmount*_Request.coinPrice) */\n      tag_245\n        /* \"src/Exchange.sol\":7365:7377  counterparty */\n      dup8\n        /* \"src/Exchange.sol\":7391:7399  _Request */\n      dup4\n        /* \"src/Exchange.sol\":7391:7409  _Request.coinPrice */\n      0x02\n      add\n      sload\n        /* \"src/Exchange.sol\":7379:7390  tradeAmount */\n      dup4\n        /* \"src/Exchange.sol\":7379:7409  tradeAmount*_Request.coinPrice */\n      tag_246\n      swap2\n      swap1\n      tag_138\n      jump\t// in\n    tag_246:\n        /* \"src/Exchange.sol\":7347:7356  sendEther */\n      tag_124\n        /* \"src/Exchange.sol\":7347:7410  sendEther(payable(counterparty),tradeAmount*_Request.coinPrice) */\n      jump\t// in\n    tag_245:\n        /* \"src/Exchange.sol\":7449:7459  tokenPrice */\n      dup4\n        /* \"src/Exchange.sol\":7428:7436  _Request */\n      dup3\n        /* \"src/Exchange.sol\":7428:7446  _Request.coinPrice */\n      0x02\n      add\n      sload\n        /* \"src/Exchange.sol\":7428:7459  _Request.coinPrice < tokenPrice */\n      lt\n        /* \"src/Exchange.sol\":7425:7528  if(_Request.coinPrice < tokenPrice) priceMismatchEthFees+=((tokenPrice-_Request.coinPrice)*tradeAmount) */\n      iszero\n      tag_247\n      jumpi\n        /* \"src/Exchange.sol\":7516:7527  tradeAmount */\n      dup1\n        /* \"src/Exchange.sol\":7496:7504  _Request */\n      dup3\n        /* \"src/Exchange.sol\":7496:7514  _Request.coinPrice */\n      0x02\n      add\n      sload\n        /* \"src/Exchange.sol\":7485:7495  tokenPrice */\n      dup6\n        /* \"src/Exchange.sol\":7485:7514  tokenPrice-_Request.coinPrice */\n      tag_248\n      swap2\n      swap1\n      tag_147\n      jump\t// in\n    tag_248:\n        /* \"src/Exchange.sol\":7484:7527  (tokenPrice-_Request.coinPrice)*tradeAmount */\n      tag_249\n      swap2\n      swap1\n      tag_138\n      jump\t// in\n    tag_249:\n        /* \"src/Exchange.sol\":7461:7481  priceMismatchEthFees */\n      0x05\n      0x00\n        /* \"src/Exchange.sol\":7461:7528  priceMismatchEthFees+=((tokenPrice-_Request.coinPrice)*tradeAmount) */\n      dup3\n      dup3\n      sload\n      tag_250\n      swap2\n      swap1\n      tag_237\n      jump\t// in\n    tag_250:\n      swap3\n      pop\n      pop\n      dup2\n      swap1\n      sstore\n      pop\n        /* \"src/Exchange.sol\":7425:7528  if(_Request.coinPrice < tokenPrice) priceMismatchEthFees+=((tokenPrice-_Request.coinPrice)*tradeAmount) */\n    tag_247:\n        /* \"src/Exchange.sol\":6851:7540  if (_Request.Type == RequestTypes.BUY) {... */\n    tag_238:\n        /* \"src/Exchange.sol\":7569:7580  tradeAmount */\n      dup1\n        /* \"src/Exchange.sol\":7550:7558  _Request */\n      dup3\n        /* \"src/Exchange.sol\":7550:7565  _Request.amount */\n      0x01\n      add\n      0x00\n        /* \"src/Exchange.sol\":7550:7580  _Request.amount -= tradeAmount */\n      dup3\n      dup3\n      sload\n      tag_251\n      swap2\n      swap1\n      tag_147\n      jump\t// in\n    tag_251:\n      swap3\n      pop\n      pop\n      dup2\n      swap1\n      sstore\n      pop\n        /* \"src/Exchange.sol\":7640:7650  msg.sender */\n      caller\n        /* \"src/Exchange.sol\":7596:7699  RequestExecuted(tokenAddress, counterparty, msg.sender, _Request.Type, tradeAmount, _Request.coinPrice) */\n      0xffffffffffffffffffffffffffffffffffffffff\n      and\n        /* \"src/Exchange.sol\":7626:7638  counterparty */\n      dup8\n        /* \"src/Exchange.sol\":7596:7699  RequestExecuted(tokenAddress, counterparty, msg.sender, _Request.Type, tradeAmount, _Request.coinPrice) */\n      0xffffffffffffffffffffffffffffffffffffffff\n      and\n        /* \"src/Exchange.sol\":7612:7624  tokenAddress */\n      dup10\n        /* \"src/Exchange.sol\":7596:7699  RequestExecuted(tokenAddress, counterparty, msg.sender, _Request.Type, tradeAmount, _Request.coinPrice) */\n      0xffffffffffffffffffffffffffffffffffffffff\n      and\n      0x1ce728f6a2703272ee2e07cf07fd21ddc592575a5b6774a529b595fdf56dd1a6\n        /* \"src/Exchange.sol\":7652:7660  _Request */\n      dup6\n        /* \"src/Exchange.sol\":7652:7665  _Request.Type */\n      0x03\n      add\n      0x00\n      swap1\n      sload\n      swap1\n      0x0100\n      exp\n      swap1\n      div\n      0xff\n      and\n        /* \"src/Exchange.sol\":7667:7678  tradeAmount */\n      dup6\n        /* \"src/Exchange.sol\":7680:7688  _Request */\n      dup8\n        /* \"src/Exchange.sol\":7680:7698  _Request.coinPrice */\n      0x02\n      add\n      sload\n        /* \"src/Exchange.sol\":7596:7699  RequestExecuted(tokenAddress, counterparty, msg.sender, _Request.Type, tradeAmount, _Request.coinPrice) */\n      mload(0x40)\n      tag_252\n      swap4\n      swap3\n      swap2\n      swap1\n      tag_253\n      jump\t// in\n    tag_252:\n      mload(0x40)\n      dup1\n      swap2\n      sub\n      swap1\n      log4\n        /* \"src/Exchange.sol\":7733:7734  0 */\n      0x00\n        /* \"src/Exchange.sol\":7714:7722  _Request */\n      dup3\n        /* \"src/Exchange.sol\":7714:7729  _Request.amount */\n      0x01\n      add\n      sload\n        /* \"src/Exchange.sol\":7714:7734  _Request.amount == 0 */\n      sub\n        /* \"src/Exchange.sol\":7710:7787  if (_Request.amount == 0) removeRequest(tokenAddress, _Request, requestIndex) */\n      tag_254\n      jumpi\n        /* \"src/Exchange.sol\":7736:7787  removeRequest(tokenAddress, _Request, requestIndex) */\n      tag_255\n        /* \"src/Exchange.sol\":7750:7762  tokenAddress */\n      dup9\n        /* \"src/Exchange.sol\":7764:7772  _Request */\n      dup4\n        /* \"src/Exchange.sol\":7774:7786  requestIndex */\n      dup8\n        /* \"src/Exchange.sol\":7736:7749  removeRequest */\n      tag_256\n        /* \"src/Exchange.sol\":7736:7787  removeRequest(tokenAddress, _Request, requestIndex) */\n      jump\t// in\n    tag_255:\n        /* \"src/Exchange.sol\":7710:7787  if (_Request.amount == 0) removeRequest(tokenAddress, _Request, requestIndex) */\n    tag_254:\n        /* \"src/Exchange.sol\":7813:7824  tradeAmount */\n      dup1\n        /* \"src/Exchange.sol\":7805:7824  amount-=tradeAmount */\n      dup7\n      tag_257\n      swap2\n      swap1\n      tag_147\n      jump\t// in\n    tag_257:\n      swap6\n      pop\n      dup6\n        /* \"src/Exchange.sol\":7798:7824  return amount-=tradeAmount */\n      swap3\n      pop\n      pop\n      pop\n        /* \"src/Exchange.sol\":6541:7832  function executeRequests(address tokenAddress, address counterparty, uint256 amount, uint256 requestIndex, uint256 tokenPrice) private returns(uint256){... */\n      swap6\n      swap5\n      pop\n      pop\n      pop\n      pop\n      pop\n      jump\t// out\n        /* \"src/Exchange.sol\":7902:8453  function addRequest(address tokenAddress, uint256 amount, uint256 tokenPrice, RequestTypes TYPE) private {... */\n    tag_193:\n        /* \"src/Exchange.sol\":8018:8047  address[] storage requestants */\n      0x00\n        /* \"src/Exchange.sol\":8057:8074  RequestTypes.SELL */\n      0x01\n        /* \"src/Exchange.sol\":8051:8074  TYPE!=RequestTypes.SELL */\n      0x02\n      dup2\n      gt\n      iszero\n      tag_259\n      jumpi\n      tag_260\n      tag_77\n      jump\t// in\n    tag_260:\n    tag_259:\n        /* \"src/Exchange.sol\":8051:8055  TYPE */\n      dup3\n        /* \"src/Exchange.sol\":8051:8074  TYPE!=RequestTypes.SELL */\n      0x02\n      dup2\n      gt\n      iszero\n      tag_261\n      jumpi\n      tag_262\n      tag_77\n      jump\t// in\n    tag_262:\n    tag_261:\n      sub\n        /* \"src/Exchange.sol\":8051:8137  TYPE!=RequestTypes.SELL ? buyRequestants[tokenAddress] : sellRequestants[tokenAddress] */\n      tag_263\n      jumpi\n        /* \"src/Exchange.sol\":8108:8123  sellRequestants */\n      0x03\n        /* \"src/Exchange.sol\":8108:8137  sellRequestants[tokenAddress] */\n      0x00\n        /* \"src/Exchange.sol\":8124:8136  tokenAddress */\n      dup7\n        /* \"src/Exchange.sol\":8108:8137  sellRequestants[tokenAddress] */\n      0xffffffffffffffffffffffffffffffffffffffff\n      and\n      0xffffffffffffffffffffffffffffffffffffffff\n      and\n      dup2\n      mstore\n      0x20\n      add\n      swap1\n      dup2\n      mstore\n      0x20\n      add\n      0x00\n      keccak256\n        /* \"src/Exchange.sol\":8051:8137  TYPE!=RequestTypes.SELL ? buyRequestants[tokenAddress] : sellRequestants[tokenAddress] */\n      jump(tag_264)\n    tag_263:\n        /* \"src/Exchange.sol\":8077:8091  buyRequestants */\n      0x04\n        /* \"src/Exchange.sol\":8077:8105  buyRequestants[tokenAddress] */\n      0x00\n        /* \"src/Exchange.sol\":8092:8104  tokenAddress */\n      dup7\n        /* \"src/Exchange.sol\":8077:8105  buyRequestants[tokenAddress] */\n      0xffffffffffffffffffffffffffffffffffffffff\n      and\n      0xffffffffffffffffffffffffffffffffffffffff\n      and\n      dup2\n      mstore\n      0x20\n      add\n      swap1\n      dup2\n      mstore\n      0x20\n      add\n      0x00\n      keccak256\n        /* \"src/Exchange.sol\":8051:8137  TYPE!=RequestTypes.SELL ? buyRequestants[tokenAddress] : sellRequestants[tokenAddress] */\n    tag_264:\n        /* \"src/Exchange.sol\":8018:8138  address[] storage requestants = (TYPE!=RequestTypes.SELL ? buyRequestants[tokenAddress] : sellRequestants[tokenAddress]) */\n      swap1\n      pop\n        /* \"src/Exchange.sol\":8149:8160  requestants */\n      dup1\n        /* \"src/Exchange.sol\":8166:8176  msg.sender */\n      caller\n        /* \"src/Exchange.sol\":8149:8177  requestants.push(msg.sender) */\n      swap1\n      dup1\n      0x01\n      dup2\n      sload\n      add\n      dup1\n      dup3\n      sstore\n      dup1\n      swap2\n      pop\n      pop\n      0x01\n      swap1\n      sub\n      swap1\n      0x00\n      mstore\n      keccak256(0x00, 0x20)\n      add\n      0x00\n      swap1\n      swap2\n      swap1\n      swap2\n      swap1\n      swap2\n      0x0100\n      exp\n      dup2\n      sload\n      dup2\n      0xffffffffffffffffffffffffffffffffffffffff\n      mul\n      not\n      and\n      swap1\n      dup4\n      0xffffffffffffffffffffffffffffffffffffffff\n      and\n      mul\n      or\n      swap1\n      sstore\n      pop\n        /* \"src/Exchange.sol\":8188:8216  UserRequest storage _Request */\n      0x00\n        /* \"src/Exchange.sol\":8219:8227  Requests */\n      0x02\n        /* \"src/Exchange.sol\":8219:8239  Requests[msg.sender] */\n      0x00\n        /* \"src/Exchange.sol\":8228:8238  msg.sender */\n      caller\n        /* \"src/Exchange.sol\":8219:8239  Requests[msg.sender] */\n      0xffffffffffffffffffffffffffffffffffffffff\n      and\n      0xffffffffffffffffffffffffffffffffffffffff\n      and\n      dup2\n      mstore\n      0x20\n      add\n      swap1\n      dup2\n      mstore\n      0x20\n      add\n      0x00\n      keccak256\n        /* \"src/Exchange.sol\":8188:8239  UserRequest storage _Request = Requests[msg.sender] */\n      swap1\n      pop\n        /* \"src/Exchange.sol\":8274:8286  tokenAddress */\n      dup6\n        /* \"src/Exchange.sol\":8250:8258  _Request */\n      dup2\n        /* \"src/Exchange.sol\":8250:8271  _Request.tokenAddress */\n      0x00\n      add\n      0x00\n        /* \"src/Exchange.sol\":8250:8286  _Request.tokenAddress = tokenAddress */\n      0x0100\n      exp\n      dup2\n      sload\n      dup2\n      0xffffffffffffffffffffffffffffffffffffffff\n      mul\n      not\n      and\n      swap1\n      dup4\n      0xffffffffffffffffffffffffffffffffffffffff\n      and\n      mul\n      or\n      swap1\n      sstore\n      pop\n        /* \"src/Exchange.sol\":8315:8321  amount */\n      dup5\n        /* \"src/Exchange.sol\":8297:8305  _Request */\n      dup2\n        /* \"src/Exchange.sol\":8297:8312  _Request.amount */\n      0x01\n      add\n        /* \"src/Exchange.sol\":8297:8321  _Request.amount = amount */\n      dup2\n      swap1\n      sstore\n      pop\n        /* \"src/Exchange.sol\":8353:8363  tokenPrice */\n      dup4\n        /* \"src/Exchange.sol\":8332:8340  _Request */\n      dup2\n        /* \"src/Exchange.sol\":8332:8350  _Request.coinPrice */\n      0x02\n      add\n        /* \"src/Exchange.sol\":8332:8363  _Request.coinPrice = tokenPrice */\n      dup2\n      swap1\n      sstore\n      pop\n        /* \"src/Exchange.sol\":8408:8418  msg.sender */\n      caller\n        /* \"src/Exchange.sol\":8379:8445  RequestCreated(tokenAddress, msg.sender, TYPE, amount, tokenPrice) */\n      0xffffffffffffffffffffffffffffffffffffffff\n      and\n        /* \"src/Exchange.sol\":8394:8406  tokenAddress */\n      dup7\n        /* \"src/Exchange.sol\":8379:8445  RequestCreated(tokenAddress, msg.sender, TYPE, amount, tokenPrice) */\n      0xffffffffffffffffffffffffffffffffffffffff\n      and\n      0xba9e7b0a1a964fea173e3888ffbcbe410fca9a481f92cf8fc8b76a1b70f31d68\n        /* \"src/Exchange.sol\":8420:8424  TYPE */\n      dup6\n        /* \"src/Exchange.sol\":8426:8432  amount */\n      dup9\n        /* \"src/Exchange.sol\":8434:8444  tokenPrice */\n      dup9\n        /* \"src/Exchange.sol\":8379:8445  RequestCreated(tokenAddress, msg.sender, TYPE, amount, tokenPrice) */\n      mload(0x40)\n      tag_266\n      swap4\n      swap3\n      swap2\n      swap1\n      tag_253\n      jump\t// in\n    tag_266:\n      mload(0x40)\n      dup1\n      swap2\n      sub\n      swap1\n      log3\n        /* \"src/Exchange.sol\":8007:8453  {... */\n      pop\n      pop\n        /* \"src/Exchange.sol\":7902:8453  function addRequest(address tokenAddress, uint256 amount, uint256 tokenPrice, RequestTypes TYPE) private {... */\n      pop\n      pop\n      pop\n      pop\n      jump\t// out\n        /* \"src/Exchange.sol\":8532:8928  function removeRequest(address tokenAddress, UserRequest storage request, uint256 requestIndex) private {... */\n    tag_256:\n        /* \"src/Exchange.sol\":8647:8676  address[] storage requestants */\n      0x00\n        /* \"src/Exchange.sol\":8694:8711  RequestTypes.SELL */\n      0x01\n        /* \"src/Exchange.sol\":8680:8711  request.Type==RequestTypes.SELL */\n      0x02\n      dup2\n      gt\n      iszero\n      tag_268\n      jumpi\n      tag_269\n      tag_77\n      jump\t// in\n    tag_269:\n    tag_268:\n        /* \"src/Exchange.sol\":8680:8687  request */\n      dup4\n        /* \"src/Exchange.sol\":8680:8692  request.Type */\n      0x03\n      add\n      0x00\n      swap1\n      sload\n      swap1\n      0x0100\n      exp\n      swap1\n      div\n      0xff\n      and\n        /* \"src/Exchange.sol\":8680:8711  request.Type==RequestTypes.SELL */\n      0x02\n      dup2\n      gt\n      iszero\n      tag_270\n      jumpi\n      tag_271\n      tag_77\n      jump\t// in\n    tag_271:\n    tag_270:\n      eq\n        /* \"src/Exchange.sol\":8680:8774  request.Type==RequestTypes.SELL ? sellRequestants[tokenAddress] : buyRequestants[tokenAddress] */\n      tag_272\n      jumpi\n        /* \"src/Exchange.sol\":8746:8760  buyRequestants */\n      0x04\n        /* \"src/Exchange.sol\":8746:8774  buyRequestants[tokenAddress] */\n      0x00\n        /* \"src/Exchange.sol\":8761:8773  tokenAddress */\n      dup6\n        /* \"src/Exchange.sol\":8746:8774  buyRequestants[tokenAddress] */\n      0xffffffffffffffffffffffffffffffffffffffff\n      and\n      0xffffffffffffffffffffffffffffffffffffffff\n      and\n      dup2\n      mstore\n      0x20\n      add\n      swap1\n      dup2\n      mstore\n      0x20\n      add\n      0x00\n      keccak256\n        /* \"src/Exchange.sol\":8680:8774  request.Type==RequestTypes.SELL ? sellRequestants[tokenAddress] : buyRequestants[tokenAddress] */\n      jump(tag_273)\n    tag_272:\n        /* \"src/Exchange.sol\":8714:8729  sellRequestants */\n      0x03\n        /* \"src/Exchange.sol\":8714:8743  sellRequestants[tokenAddress] */\n      0x00\n        /* \"src/Exchange.sol\":8730:8742  tokenAddress */\n      dup6\n        /* \"src/Exchange.sol\":8714:8743  sellRequestants[tokenAddress] */\n      0xffffffffffffffffffffffffffffffffffffffff\n      and\n      0xffffffffffffffffffffffffffffffffffffffff\n      and\n      dup2\n      mstore\n      0x20\n      add\n      swap1\n      dup2\n      mstore\n      0x20\n      add\n      0x00\n      keccak256\n        /* \"src/Exchange.sol\":8680:8774  request.Type==RequestTypes.SELL ? sellRequestants[tokenAddress] : buyRequestants[tokenAddress] */\n    tag_273:\n        /* \"src/Exchange.sol\":8647:8775  address[] storage requestants = (request.Type==RequestTypes.SELL ? sellRequestants[tokenAddress] : buyRequestants[tokenAddress]) */\n      swap1\n      pop\n        /* \"src/Exchange.sol\":8814:8825  requestants */\n      dup1\n        /* \"src/Exchange.sol\":8847:8848  1 */\n      0x01\n        /* \"src/Exchange.sol\":8826:8837  requestants */\n      dup3\n        /* \"src/Exchange.sol\":8826:8844  requestants.length */\n      dup1\n      sload\n      swap1\n      pop\n        /* \"src/Exchange.sol\":8826:8848  requestants.length - 1 */\n      tag_274\n      swap2\n      swap1\n      tag_147\n      jump\t// in\n    tag_274:\n        /* \"src/Exchange.sol\":8814:8849  requestants[requestants.length - 1] */\n      dup2\n      sload\n      dup2\n      lt\n      tag_275\n      jumpi\n      tag_276\n      tag_174\n      jump\t// in\n    tag_276:\n    tag_275:\n      swap1\n      0x00\n      mstore\n      keccak256(0x00, 0x20)\n      add\n      0x00\n      swap1\n      sload\n      swap1\n      0x0100\n      exp\n      swap1\n      div\n      0xffffffffffffffffffffffffffffffffffffffff\n      and\n        /* \"src/Exchange.sol\":8786:8797  requestants */\n      dup2\n        /* \"src/Exchange.sol\":8798:8810  requestIndex */\n      dup4\n        /* \"src/Exchange.sol\":8786:8811  requestants[requestIndex] */\n      dup2\n      sload\n      dup2\n      lt\n      tag_278\n      jumpi\n      tag_279\n      tag_174\n      jump\t// in\n    tag_279:\n    tag_278:\n      swap1\n      0x00\n      mstore\n      keccak256(0x00, 0x20)\n      add\n      0x00\n        /* \"src/Exchange.sol\":8786:8849  requestants[requestIndex] = requestants[requestants.length - 1] */\n      0x0100\n      exp\n      dup2\n      sload\n      dup2\n      0xffffffffffffffffffffffffffffffffffffffff\n      mul\n      not\n      and\n      swap1\n      dup4\n      0xffffffffffffffffffffffffffffffffffffffff\n      and\n      mul\n      or\n      swap1\n      sstore\n      pop\n        /* \"src/Exchange.sol\":8860:8871  requestants */\n      dup1\n        /* \"src/Exchange.sol\":8860:8877  requestants.pop() */\n      dup1\n      sload\n      dup1\n      tag_281\n      jumpi\n      tag_282\n      tag_283\n      jump\t// in\n    tag_282:\n    tag_281:\n      0x01\n      swap1\n      sub\n      dup2\n      dup2\n      swap1\n      0x00\n      mstore\n      keccak256(0x00, 0x20)\n      add\n      exp(0x0100, 0x00)\n      dup2\n      sload\n      swap1\n      0xffffffffffffffffffffffffffffffffffffffff\n      mul\n      not\n      and\n      swap1\n      sstore\n      swap1\n      sstore\n        /* \"src/Exchange.sol\":8903:8920  RequestTypes.NONE */\n      0x00\n        /* \"src/Exchange.sol\":8888:8895  request */\n      dup4\n        /* \"src/Exchange.sol\":8888:8900  request.Type */\n      0x03\n      add\n      0x00\n        /* \"src/Exchange.sol\":8888:8920  request.Type = RequestTypes.NONE */\n      0x0100\n      exp\n      dup2\n      sload\n      dup2\n      0xff\n      mul\n      not\n      and\n      swap1\n      dup4\n      0x02\n      dup2\n      gt\n      iszero\n      tag_285\n      jumpi\n      tag_286\n      tag_77\n      jump\t// in\n    tag_286:\n    tag_285:\n      mul\n      or\n      swap1\n      sstore\n      pop\n        /* \"src/Exchange.sol\":8636:8928  {... */\n      pop\n        /* \"src/Exchange.sol\":8532:8928  function removeRequest(address tokenAddress, UserRequest storage request, uint256 requestIndex) private {... */\n      pop\n      pop\n      pop\n      jump\t// out\n        /* \"#utility.yul\":7:97   */\n    tag_287:\n        /* \"#utility.yul\":41:48   */\n      0x00\n        /* \"#utility.yul\":84:89   */\n      dup2\n        /* \"#utility.yul\":77:90   */\n      iszero\n        /* \"#utility.yul\":70:91   */\n      iszero\n        /* \"#utility.yul\":59:91   */\n      swap1\n      pop\n        /* \"#utility.yul\":7:97   */\n      swap2\n      swap1\n      pop\n      jump\t// out\n        /* \"#utility.yul\":103:212   */\n    tag_288:\n        /* \"#utility.yul\":184:205   */\n      tag_330\n        /* \"#utility.yul\":199:204   */\n      dup2\n        /* \"#utility.yul\":184:205   */\n      tag_287\n      jump\t// in\n    tag_330:\n        /* \"#utility.yul\":179:182   */\n      dup3\n        /* \"#utility.yul\":172:206   */\n      mstore\n        /* \"#utility.yul\":103:212   */\n      pop\n      pop\n      jump\t// out\n        /* \"#utility.yul\":218:428   */\n    tag_18:\n        /* \"#utility.yul\":305:309   */\n      0x00\n        /* \"#utility.yul\":343:345   */\n      0x20\n        /* \"#utility.yul\":332:341   */\n      dup3\n        /* \"#utility.yul\":328:346   */\n      add\n        /* \"#utility.yul\":320:346   */\n      swap1\n      pop\n        /* \"#utility.yul\":356:421   */\n      tag_332\n        /* \"#utility.yul\":418:419   */\n      0x00\n        /* \"#utility.yul\":407:416   */\n      dup4\n        /* \"#utility.yul\":403:420   */\n      add\n        /* \"#utility.yul\":394:400   */\n      dup5\n        /* \"#utility.yul\":356:421   */\n      tag_288\n      jump\t// in\n    tag_332:\n        /* \"#utility.yul\":218:428   */\n      swap3\n      swap2\n      pop\n      pop\n      jump\t// out\n        /* \"#utility.yul\":515:632   */\n    tag_290:\n        /* \"#utility.yul\":624:625   */\n      0x00\n        /* \"#utility.yul\":621:622   */\n      dup1\n        /* \"#utility.yul\":614:626   */\n      revert\n        /* \"#utility.yul\":761:887   */\n    tag_292:\n        /* \"#utility.yul\":798:805   */\n      0x00\n        /* \"#utility.yul\":838:880   */\n      0xffffffffffffffffffffffffffffffffffffffff\n        /* \"#utility.yul\":831:836   */\n      dup3\n        /* \"#utility.yul\":827:881   */\n      and\n        /* \"#utility.yul\":816:881   */\n      swap1\n      pop\n        /* \"#utility.yul\":761:887   */\n      swap2\n      swap1\n      pop\n      jump\t// out\n        /* \"#utility.yul\":893:989   */\n    tag_293:\n        /* \"#utility.yul\":930:937   */\n      0x00\n        /* \"#utility.yul\":959:983   */\n      tag_338\n        /* \"#utility.yul\":977:982   */\n      dup3\n        /* \"#utility.yul\":959:983   */\n      tag_292\n      jump\t// in\n    tag_338:\n        /* \"#utility.yul\":948:983   */\n      swap1\n      pop\n        /* \"#utility.yul\":893:989   */\n      swap2\n      swap1\n      pop\n      jump\t// out\n        /* \"#utility.yul\":995:1117   */\n    tag_294:\n        /* \"#utility.yul\":1068:1092   */\n      tag_340\n        /* \"#utility.yul\":1086:1091   */\n      dup2\n        /* \"#utility.yul\":1068:1092   */\n      tag_293\n      jump\t// in\n    tag_340:\n        /* \"#utility.yul\":1061:1066   */\n      dup2\n        /* \"#utility.yul\":1058:1093   */\n      eq\n        /* \"#utility.yul\":1048:1111   */\n      tag_341\n      jumpi\n        /* \"#utility.yul\":1107:1108   */\n      0x00\n        /* \"#utility.yul\":1104:1105   */\n      dup1\n        /* \"#utility.yul\":1097:1109   */\n      revert\n        /* \"#utility.yul\":1048:1111   */\n    tag_341:\n        /* \"#utility.yul\":995:1117   */\n      pop\n      jump\t// out\n        /* \"#utility.yul\":1123:1262   */\n    tag_295:\n        /* \"#utility.yul\":1169:1174   */\n      0x00\n        /* \"#utility.yul\":1207:1213   */\n      dup2\n        /* \"#utility.yul\":1194:1214   */\n      calldataload\n        /* \"#utility.yul\":1185:1214   */\n      swap1\n      pop\n        /* \"#utility.yul\":1223:1256   */\n      tag_343\n        /* \"#utility.yul\":1250:1255   */\n      dup2\n        /* \"#utility.yul\":1223:1256   */\n      tag_294\n      jump\t// in\n    tag_343:\n        /* \"#utility.yul\":1123:1262   */\n      swap3\n      swap2\n      pop\n      pop\n      jump\t// out\n        /* \"#utility.yul\":1268:1597   */\n    tag_22:\n        /* \"#utility.yul\":1327:1333   */\n      0x00\n        /* \"#utility.yul\":1376:1378   */\n      0x20\n        /* \"#utility.yul\":1364:1373   */\n      dup3\n        /* \"#utility.yul\":1355:1362   */\n      dup5\n        /* \"#utility.yul\":1351:1374   */\n      sub\n        /* \"#utility.yul\":1347:1379   */\n      slt\n        /* \"#utility.yul\":1344:1463   */\n      iszero\n      tag_345\n      jumpi\n        /* \"#utility.yul\":1382:1461   */\n      tag_346\n      tag_290\n      jump\t// in\n    tag_346:\n        /* \"#utility.yul\":1344:1463   */\n    tag_345:\n        /* \"#utility.yul\":1502:1503   */\n      0x00\n        /* \"#utility.yul\":1527:1580   */\n      tag_347\n        /* \"#utility.yul\":1572:1579   */\n      dup5\n        /* \"#utility.yul\":1563:1569   */\n      dup3\n        /* \"#utility.yul\":1552:1561   */\n      dup6\n        /* \"#utility.yul\":1548:1570   */\n      add\n        /* \"#utility.yul\":1527:1580   */\n      tag_295\n      jump\t// in\n    tag_347:\n        /* \"#utility.yul\":1517:1580   */\n      swap2\n      pop\n        /* \"#utility.yul\":1473:1590   */\n      pop\n        /* \"#utility.yul\":1268:1597   */\n      swap3\n      swap2\n      pop\n      pop\n      jump\t// out\n        /* \"#utility.yul\":1603:1721   */\n    tag_296:\n        /* \"#utility.yul\":1690:1714   */\n      tag_349\n        /* \"#utility.yul\":1708:1713   */\n      dup2\n        /* \"#utility.yul\":1690:1714   */\n      tag_293\n      jump\t// in\n    tag_349:\n        /* \"#utility.yul\":1685:1688   */\n      dup3\n        /* \"#utility.yul\":1678:1715   */\n      mstore\n        /* \"#utility.yul\":1603:1721   */\n      pop\n      pop\n      jump\t// out\n        /* \"#utility.yul\":1727:1804   */\n    tag_297:\n        /* \"#utility.yul\":1764:1771   */\n      0x00\n        /* \"#utility.yul\":1793:1798   */\n      dup2\n        /* \"#utility.yul\":1782:1798   */\n      swap1\n      pop\n        /* \"#utility.yul\":1727:1804   */\n      swap2\n      swap1\n      pop\n      jump\t// out\n        /* \"#utility.yul\":1810:1928   */\n    tag_298:\n        /* \"#utility.yul\":1897:1921   */\n      tag_352\n        /* \"#utility.yul\":1915:1920   */\n      dup2\n        /* \"#utility.yul\":1897:1921   */\n      tag_297\n      jump\t// in\n    tag_352:\n        /* \"#utility.yul\":1892:1895   */\n      dup3\n        /* \"#utility.yul\":1885:1922   */\n      mstore\n        /* \"#utility.yul\":1810:1928   */\n      pop\n      pop\n      jump\t// out\n        /* \"#utility.yul\":1934:2114   */\n    tag_77:\n        /* \"#utility.yul\":1982:2059   */\n      0x4e487b7100000000000000000000000000000000000000000000000000000000\n        /* \"#utility.yul\":1979:1980   */\n      0x00\n        /* \"#utility.yul\":1972:2060   */\n      mstore\n        /* \"#utility.yul\":2079:2083   */\n      0x21\n        /* \"#utility.yul\":2076:2077   */\n      0x04\n        /* \"#utility.yul\":2069:2084   */\n      mstore\n        /* \"#utility.yul\":2103:2107   */\n      0x24\n        /* \"#utility.yul\":2100:2101   */\n      0x00\n        /* \"#utility.yul\":2093:2108   */\n      revert\n        /* \"#utility.yul\":2120:2240   */\n    tag_299:\n        /* \"#utility.yul\":2208:2209   */\n      0x03\n        /* \"#utility.yul\":2201:2206   */\n      dup2\n        /* \"#utility.yul\":2198:2210   */\n      lt\n        /* \"#utility.yul\":2188:2234   */\n      tag_355\n      jumpi\n        /* \"#utility.yul\":2214:2232   */\n      tag_356\n      tag_77\n      jump\t// in\n    tag_356:\n        /* \"#utility.yul\":2188:2234   */\n    tag_355:\n        /* \"#utility.yul\":2120:2240   */\n      pop\n      jump\t// out\n        /* \"#utility.yul\":2246:2387   */\n    tag_300:\n        /* \"#utility.yul\":2298:2305   */\n      0x00\n        /* \"#utility.yul\":2327:2332   */\n      dup2\n        /* \"#utility.yul\":2316:2332   */\n      swap1\n      pop\n        /* \"#utility.yul\":2333:2381   */\n      tag_358\n        /* \"#utility.yul\":2375:2380   */\n      dup3\n        /* \"#utility.yul\":2333:2381   */\n      tag_299\n      jump\t// in\n    tag_358:\n        /* \"#utility.yul\":2246:2387   */\n      swap2\n      swap1\n      pop\n      jump\t// out\n        /* \"#utility.yul\":2393:2534   */\n    tag_301:\n        /* \"#utility.yul\":2456:2465   */\n      0x00\n        /* \"#utility.yul\":2489:2528   */\n      tag_360\n        /* \"#utility.yul\":2522:2527   */\n      dup3\n        /* \"#utility.yul\":2489:2528   */\n      tag_300\n      jump\t// in\n    tag_360:\n        /* \"#utility.yul\":2476:2528   */\n      swap1\n      pop\n        /* \"#utility.yul\":2393:2534   */\n      swap2\n      swap1\n      pop\n      jump\t// out\n        /* \"#utility.yul\":2540:2697   */\n    tag_302:\n        /* \"#utility.yul\":2640:2690   */\n      tag_362\n        /* \"#utility.yul\":2684:2689   */\n      dup2\n        /* \"#utility.yul\":2640:2690   */\n      tag_301\n      jump\t// in\n    tag_362:\n        /* \"#utility.yul\":2635:2638   */\n      dup3\n        /* \"#utility.yul\":2628:2691   */\n      mstore\n        /* \"#utility.yul\":2540:2697   */\n      pop\n      pop\n      jump\t// out\n        /* \"#utility.yul\":2703:3282   */\n    tag_25:\n        /* \"#utility.yul\":2893:2897   */\n      0x00\n        /* \"#utility.yul\":2931:2934   */\n      0x80\n        /* \"#utility.yul\":2920:2929   */\n      dup3\n        /* \"#utility.yul\":2916:2935   */\n      add\n        /* \"#utility.yul\":2908:2935   */\n      swap1\n      pop\n        /* \"#utility.yul\":2945:3016   */\n      tag_364\n        /* \"#utility.yul\":3013:3014   */\n      0x00\n        /* \"#utility.yul\":3002:3011   */\n      dup4\n        /* \"#utility.yul\":2998:3015   */\n      add\n        /* \"#utility.yul\":2989:2995   */\n      dup8\n        /* \"#utility.yul\":2945:3016   */\n      tag_296\n      jump\t// in\n    tag_364:\n        /* \"#utility.yul\":3026:3098   */\n      tag_365\n        /* \"#utility.yul\":3094:3096   */\n      0x20\n        /* \"#utility.yul\":3083:3092   */\n      dup4\n        /* \"#utility.yul\":3079:3097   */\n      add\n        /* \"#utility.yul\":3070:3076   */\n      dup7\n        /* \"#utility.yul\":3026:3098   */\n      tag_298\n      jump\t// in\n    tag_365:\n        /* \"#utility.yul\":3108:3180   */\n      tag_366\n        /* \"#utility.yul\":3176:3178   */\n      0x40\n        /* \"#utility.yul\":3165:3174   */\n      dup4\n        /* \"#utility.yul\":3161:3179   */\n      add\n        /* \"#utility.yul\":3152:3158   */\n      dup6\n        /* \"#utility.yul\":3108:3180   */\n      tag_298\n      jump\t// in\n    tag_366:\n        /* \"#utility.yul\":3190:3275   */\n      tag_367\n        /* \"#utility.yul\":3271:3273   */\n      0x60\n        /* \"#utility.yul\":3260:3269   */\n      dup4\n        /* \"#utility.yul\":3256:3274   */\n      add\n        /* \"#utility.yul\":3247:3253   */\n      dup5\n        /* \"#utility.yul\":3190:3275   */\n      tag_302\n      jump\t// in\n    tag_367:\n        /* \"#utility.yul\":2703:3282   */\n      swap6\n      swap5\n      pop\n      pop\n      pop\n      pop\n      pop\n      jump\t// out\n        /* \"#utility.yul\":3288:3410   */\n    tag_303:\n        /* \"#utility.yul\":3361:3385   */\n      tag_369\n        /* \"#utility.yul\":3379:3384   */\n      dup2\n        /* \"#utility.yul\":3361:3385   */\n      tag_297\n      jump\t// in\n    tag_369:\n        /* \"#utility.yul\":3354:3359   */\n      dup2\n        /* \"#utility.yul\":3351:3386   */\n      eq\n        /* \"#utility.yul\":3341:3404   */\n      tag_370\n      jumpi\n        /* \"#utility.yul\":3400:3401   */\n      0x00\n        /* \"#utility.yul\":3397:3398   */\n      dup1\n        /* \"#utility.yul\":3390:3402   */\n      revert\n        /* \"#utility.yul\":3341:3404   */\n    tag_370:\n        /* \"#utility.yul\":3288:3410   */\n      pop\n      jump\t// out\n        /* \"#utility.yul\":3416:3555   */\n    tag_304:\n        /* \"#utility.yul\":3462:3467   */\n      0x00\n        /* \"#utility.yul\":3500:3506   */\n      dup2\n        /* \"#utility.yul\":3487:3507   */\n      calldataload\n        /* \"#utility.yul\":3478:3507   */\n      swap1\n      pop\n        /* \"#utility.yul\":3516:3549   */\n      tag_372\n        /* \"#utility.yul\":3543:3548   */\n      dup2\n        /* \"#utility.yul\":3516:3549   */\n      tag_303\n      jump\t// in\n    tag_372:\n        /* \"#utility.yul\":3416:3555   */\n      swap3\n      swap2\n      pop\n      pop\n      jump\t// out\n        /* \"#utility.yul\":3561:4035   */\n    tag_29:\n        /* \"#utility.yul\":3629:3635   */\n      0x00\n        /* \"#utility.yul\":3637:3643   */\n      dup1\n        /* \"#utility.yul\":3686:3688   */\n      0x40\n        /* \"#utility.yul\":3674:3683   */\n      dup4\n        /* \"#utility.yul\":3665:3672   */\n      dup6\n        /* \"#utility.yul\":3661:3684   */\n      sub\n        /* \"#utility.yul\":3657:3689   */\n      slt\n        /* \"#utility.yul\":3654:3773   */\n      iszero\n      tag_374\n      jumpi\n        /* \"#utility.yul\":3692:3771   */\n      tag_375\n      tag_290\n      jump\t// in\n    tag_375:\n        /* \"#utility.yul\":3654:3773   */\n    tag_374:\n        /* \"#utility.yul\":3812:3813   */\n      0x00\n        /* \"#utility.yul\":3837:3890   */\n      tag_376\n        /* \"#utility.yul\":3882:3889   */\n      dup6\n        /* \"#utility.yul\":3873:3879   */\n      dup3\n        /* \"#utility.yul\":3862:3871   */\n      dup7\n        /* \"#utility.yul\":3858:3880   */\n      add\n        /* \"#utility.yul\":3837:3890   */\n      tag_295\n      jump\t// in\n    tag_376:\n        /* \"#utility.yul\":3827:3890   */\n      swap3\n      pop\n        /* \"#utility.yul\":3783:3900   */\n      pop\n        /* \"#utility.yul\":3939:3941   */\n      0x20\n        /* \"#utility.yul\":3965:4018   */\n      tag_377\n        /* \"#utility.yul\":4010:4017   */\n      dup6\n        /* \"#utility.yul\":4001:4007   */\n      dup3\n        /* \"#utility.yul\":3990:3999   */\n      dup7\n        /* \"#utility.yul\":3986:4008   */\n      add\n        /* \"#utility.yul\":3965:4018   */\n      tag_304\n      jump\t// in\n    tag_377:\n        /* \"#utility.yul\":3955:4018   */\n      swap2\n      pop\n        /* \"#utility.yul\":3910:4028   */\n      pop\n        /* \"#utility.yul\":3561:4035   */\n      swap3\n      pop\n      swap3\n      swap1\n      pop\n      jump\t// out\n        /* \"#utility.yul\":4041:4263   */\n    tag_32:\n        /* \"#utility.yul\":4134:4138   */\n      0x00\n        /* \"#utility.yul\":4172:4174   */\n      0x20\n        /* \"#utility.yul\":4161:4170   */\n      dup3\n        /* \"#utility.yul\":4157:4175   */\n      add\n        /* \"#utility.yul\":4149:4175   */\n      swap1\n      pop\n        /* \"#utility.yul\":4185:4256   */\n      tag_379\n        /* \"#utility.yul\":4253:4254   */\n      0x00\n        /* \"#utility.yul\":4242:4251   */\n      dup4\n        /* \"#utility.yul\":4238:4255   */\n      add\n        /* \"#utility.yul\":4229:4235   */\n      dup5\n        /* \"#utility.yul\":4185:4256   */\n      tag_296\n      jump\t// in\n    tag_379:\n        /* \"#utility.yul\":4041:4263   */\n      swap3\n      swap2\n      pop\n      pop\n      jump\t// out\n        /* \"#utility.yul\":4269:4491   */\n    tag_37:\n        /* \"#utility.yul\":4362:4366   */\n      0x00\n        /* \"#utility.yul\":4400:4402   */\n      0x20\n        /* \"#utility.yul\":4389:4398   */\n      dup3\n        /* \"#utility.yul\":4385:4403   */\n      add\n        /* \"#utility.yul\":4377:4403   */\n      swap1\n      pop\n        /* \"#utility.yul\":4413:4484   */\n      tag_381\n        /* \"#utility.yul\":4481:4482   */\n      0x00\n        /* \"#utility.yul\":4470:4479   */\n      dup4\n        /* \"#utility.yul\":4466:4483   */\n      add\n        /* \"#utility.yul\":4457:4463   */\n      dup5\n        /* \"#utility.yul\":4413:4484   */\n      tag_298\n      jump\t// in\n    tag_381:\n        /* \"#utility.yul\":4269:4491   */\n      swap3\n      swap2\n      pop\n      pop\n      jump\t// out\n        /* \"#utility.yul\":4497:5116   */\n    tag_41:\n        /* \"#utility.yul\":4574:4580   */\n      0x00\n        /* \"#utility.yul\":4582:4588   */\n      dup1\n        /* \"#utility.yul\":4590:4596   */\n      0x00\n        /* \"#utility.yul\":4639:4641   */\n      0x60\n        /* \"#utility.yul\":4627:4636   */\n      dup5\n        /* \"#utility.yul\":4618:4625   */\n      dup7\n        /* \"#utility.yul\":4614:4637   */\n      sub\n        /* \"#utility.yul\":4610:4642   */\n      slt\n        /* \"#utility.yul\":4607:4726   */\n      iszero\n      tag_383\n      jumpi\n        /* \"#utility.yul\":4645:4724   */\n      tag_384\n      tag_290\n      jump\t// in\n    tag_384:\n        /* \"#utility.yul\":4607:4726   */\n    tag_383:\n        /* \"#utility.yul\":4765:4766   */\n      0x00\n        /* \"#utility.yul\":4790:4843   */\n      tag_385\n        /* \"#utility.yul\":4835:4842   */\n      dup7\n        /* \"#utility.yul\":4826:4832   */\n      dup3\n        /* \"#utility.yul\":4815:4824   */\n      dup8\n        /* \"#utility.yul\":4811:4833   */\n      add\n        /* \"#utility.yul\":4790:4843   */\n      tag_295\n      jump\t// in\n    tag_385:\n        /* \"#utility.yul\":4780:4843   */\n      swap4\n      pop\n        /* \"#utility.yul\":4736:4853   */\n      pop\n        /* \"#utility.yul\":4892:4894   */\n      0x20\n        /* \"#utility.yul\":4918:4971   */\n      tag_386\n        /* \"#utility.yul\":4963:4970   */\n      dup7\n        /* \"#utility.yul\":4954:4960   */\n      dup3\n        /* \"#utility.yul\":4943:4952   */\n      dup8\n        /* \"#utility.yul\":4939:4961   */\n      add\n        /* \"#utility.yul\":4918:4971   */\n      tag_304\n      jump\t// in\n    tag_386:\n        /* \"#utility.yul\":4908:4971   */\n      swap3\n      pop\n        /* \"#utility.yul\":4863:4981   */\n      pop\n        /* \"#utility.yul\":5020:5022   */\n      0x40\n        /* \"#utility.yul\":5046:5099   */\n      tag_387\n        /* \"#utility.yul\":5091:5098   */\n      dup7\n        /* \"#utility.yul\":5082:5088   */\n      dup3\n        /* \"#utility.yul\":5071:5080   */\n      dup8\n        /* \"#utility.yul\":5067:5089   */\n      add\n        /* \"#utility.yul\":5046:5099   */\n      tag_304\n      jump\t// in\n    tag_387:\n        /* \"#utility.yul\":5036:5099   */\n      swap2\n      pop\n        /* \"#utility.yul\":4991:5109   */\n      pop\n        /* \"#utility.yul\":4497:5116   */\n      swap3\n      pop\n      swap3\n      pop\n      swap3\n      jump\t// out\n        /* \"#utility.yul\":5122:5291   */\n    tag_305:\n        /* \"#utility.yul\":5206:5217   */\n      0x00\n        /* \"#utility.yul\":5240:5246   */\n      dup3\n        /* \"#utility.yul\":5235:5238   */\n      dup3\n        /* \"#utility.yul\":5228:5247   */\n      mstore\n        /* \"#utility.yul\":5280:5284   */\n      0x20\n        /* \"#utility.yul\":5275:5278   */\n      dup3\n        /* \"#utility.yul\":5271:5285   */\n      add\n        /* \"#utility.yul\":5256:5285   */\n      swap1\n      pop\n        /* \"#utility.yul\":5122:5291   */\n      swap3\n      swap2\n      pop\n      pop\n      jump\t// out\n        /* \"#utility.yul\":5297:5471   */\n    tag_306:\n        /* \"#utility.yul\":5437:5463   */\n      0x43616c6c6572206973206e6f7420617574686f72697a65640000000000000000\n        /* \"#utility.yul\":5433:5434   */\n      0x00\n        /* \"#utility.yul\":5425:5431   */\n      dup3\n        /* \"#utility.yul\":5421:5435   */\n      add\n        /* \"#utility.yul\":5414:5464   */\n      mstore\n        /* \"#utility.yul\":5297:5471   */\n      pop\n      jump\t// out\n        /* \"#utility.yul\":5477:5843   */\n    tag_307:\n        /* \"#utility.yul\":5619:5622   */\n      0x00\n        /* \"#utility.yul\":5640:5707   */\n      tag_391\n        /* \"#utility.yul\":5704:5706   */\n      0x18\n        /* \"#utility.yul\":5699:5702   */\n      dup4\n        /* \"#utility.yul\":5640:5707   */\n      tag_305\n      jump\t// in\n    tag_391:\n        /* \"#utility.yul\":5633:5707   */\n      swap2\n      pop\n        /* \"#utility.yul\":5716:5809   */\n      tag_392\n        /* \"#utility.yul\":5805:5808   */\n      dup3\n        /* \"#utility.yul\":5716:5809   */\n      tag_306\n      jump\t// in\n    tag_392:\n        /* \"#utility.yul\":5834:5836   */\n      0x20\n        /* \"#utility.yul\":5829:5832   */\n      dup3\n        /* \"#utility.yul\":5825:5837   */\n      add\n        /* \"#utility.yul\":5818:5837   */\n      swap1\n      pop\n        /* \"#utility.yul\":5477:5843   */\n      swap2\n      swap1\n      pop\n      jump\t// out\n        /* \"#utility.yul\":5849:6268   */\n    tag_70:\n        /* \"#utility.yul\":6015:6019   */\n      0x00\n        /* \"#utility.yul\":6053:6055   */\n      0x20\n        /* \"#utility.yul\":6042:6051   */\n      dup3\n        /* \"#utility.yul\":6038:6056   */\n      add\n        /* \"#utility.yul\":6030:6056   */\n      swap1\n      pop\n        /* \"#utility.yul\":6102:6111   */\n      dup2\n        /* \"#utility.yul\":6096:6100   */\n      dup2\n        /* \"#utility.yul\":6092:6112   */\n      sub\n        /* \"#utility.yul\":6088:6089   */\n      0x00\n        /* \"#utility.yul\":6077:6086   */\n      dup4\n        /* \"#utility.yul\":6073:6090   */\n      add\n        /* \"#utility.yul\":6066:6113   */\n      mstore\n        /* \"#utility.yul\":6130:6261   */\n      tag_394\n        /* \"#utility.yul\":6256:6260   */\n      dup2\n        /* \"#utility.yul\":6130:6261   */\n      tag_307\n      jump\t// in\n    tag_394:\n        /* \"#utility.yul\":6122:6261   */\n      swap1\n      pop\n        /* \"#utility.yul\":5849:6268   */\n      swap2\n      swap1\n      pop\n      jump\t// out\n        /* \"#utility.yul\":6274:6456   */\n    tag_308:\n        /* \"#utility.yul\":6414:6448   */\n      0x416d6f756e74206d7573742062652067726561746572207468616e207a65726f\n        /* \"#utility.yul\":6410:6411   */\n      0x00\n        /* \"#utility.yul\":6402:6408   */\n      dup3\n        /* \"#utility.yul\":6398:6412   */\n      add\n        /* \"#utility.yul\":6391:6449   */\n      mstore\n        /* \"#utility.yul\":6274:6456   */\n      pop\n      jump\t// out\n        /* \"#utility.yul\":6462:6828   */\n    tag_309:\n        /* \"#utility.yul\":6604:6607   */\n      0x00\n        /* \"#utility.yul\":6625:6692   */\n      tag_397\n        /* \"#utility.yul\":6689:6691   */\n      0x20\n        /* \"#utility.yul\":6684:6687   */\n      dup4\n        /* \"#utility.yul\":6625:6692   */\n      tag_305\n      jump\t// in\n    tag_397:\n        /* \"#utility.yul\":6618:6692   */\n      swap2\n      pop\n        /* \"#utility.yul\":6701:6794   */\n      tag_398\n        /* \"#utility.yul\":6790:6793   */\n      dup3\n        /* \"#utility.yul\":6701:6794   */\n      tag_308\n      jump\t// in\n    tag_398:\n        /* \"#utility.yul\":6819:6821   */\n      0x20\n        /* \"#utility.yul\":6814:6817   */\n      dup3\n        /* \"#utility.yul\":6810:6822   */\n      add\n        /* \"#utility.yul\":6803:6822   */\n      swap1\n      pop\n        /* \"#utility.yul\":6462:6828   */\n      swap2\n      swap1\n      pop\n      jump\t// out\n        /* \"#utility.yul\":6834:7253   */\n    tag_84:\n        /* \"#utility.yul\":7000:7004   */\n      0x00\n        /* \"#utility.yul\":7038:7040   */\n      0x20\n        /* \"#utility.yul\":7027:7036   */\n      dup3\n        /* \"#utility.yul\":7023:7041   */\n      add\n        /* \"#utility.yul\":7015:7041   */\n      swap1\n      pop\n        /* \"#utility.yul\":7087:7096   */\n      dup2\n        /* \"#utility.yul\":7081:7085   */\n      dup2\n        /* \"#utility.yul\":7077:7097   */\n      sub\n        /* \"#utility.yul\":7073:7074   */\n      0x00\n        /* \"#utility.yul\":7062:7071   */\n      dup4\n        /* \"#utility.yul\":7058:7075   */\n      add\n        /* \"#utility.yul\":7051:7098   */\n      mstore\n        /* \"#utility.yul\":7115:7246   */\n      tag_400\n        /* \"#utility.yul\":7241:7245   */\n      dup2\n        /* \"#utility.yul\":7115:7246   */\n      tag_309\n      jump\t// in\n    tag_400:\n        /* \"#utility.yul\":7107:7246   */\n      swap1\n      pop\n        /* \"#utility.yul\":6834:7253   */\n      swap2\n      swap1\n      pop\n      jump\t// out\n        /* \"#utility.yul\":7259:7440   */\n    tag_310:\n        /* \"#utility.yul\":7399:7432   */\n      0x5072696365206d7573742062652067726561746572207468616e207a65726f00\n        /* \"#utility.yul\":7395:7396   */\n      0x00\n        /* \"#utility.yul\":7387:7393   */\n      dup3\n        /* \"#utility.yul\":7383:7397   */\n      add\n        /* \"#utility.yul\":7376:7433   */\n      mstore\n        /* \"#utility.yul\":7259:7440   */\n      pop\n      jump\t// out\n        /* \"#utility.yul\":7446:7812   */\n    tag_311:\n        /* \"#utility.yul\":7588:7591   */\n      0x00\n        /* \"#utility.yul\":7609:7676   */\n      tag_403\n        /* \"#utility.yul\":7673:7675   */\n      0x1f\n        /* \"#utility.yul\":7668:7671   */\n      dup4\n        /* \"#utility.yul\":7609:7676   */\n      tag_305\n      jump\t// in\n    tag_403:\n        /* \"#utility.yul\":7602:7676   */\n      swap2\n      pop\n        /* \"#utility.yul\":7685:7778   */\n      tag_404\n        /* \"#utility.yul\":7774:7777   */\n      dup3\n        /* \"#utility.yul\":7685:7778   */\n      tag_310\n      jump\t// in\n    tag_404:\n        /* \"#utility.yul\":7803:7805   */\n      0x20\n        /* \"#utility.yul\":7798:7801   */\n      dup3\n        /* \"#utility.yul\":7794:7806   */\n      add\n        /* \"#utility.yul\":7787:7806   */\n      swap1\n      pop\n        /* \"#utility.yul\":7446:7812   */\n      swap2\n      swap1\n      pop\n      jump\t// out\n        /* \"#utility.yul\":7818:8237   */\n    tag_88:\n        /* \"#utility.yul\":7984:7988   */\n      0x00\n        /* \"#utility.yul\":8022:8024   */\n      0x20\n        /* \"#utility.yul\":8011:8020   */\n      dup3\n        /* \"#utility.yul\":8007:8025   */\n      add\n        /* \"#utility.yul\":7999:8025   */\n      swap1\n      pop\n        /* \"#utility.yul\":8071:8080   */\n      dup2\n        /* \"#utility.yul\":8065:8069   */\n      dup2\n        /* \"#utility.yul\":8061:8081   */\n      sub\n        /* \"#utility.yul\":8057:8058   */\n      0x00\n        /* \"#utility.yul\":8046:8055   */\n      dup4\n        /* \"#utility.yul\":8042:8059   */\n      add\n        /* \"#utility.yul\":8035:8082   */\n      mstore\n        /* \"#utility.yul\":8099:8230   */\n      tag_406\n        /* \"#utility.yul\":8225:8229   */\n      dup2\n        /* \"#utility.yul\":8099:8230   */\n      tag_311\n      jump\t// in\n    tag_406:\n        /* \"#utility.yul\":8091:8230   */\n      swap1\n      pop\n        /* \"#utility.yul\":7818:8237   */\n      swap2\n      swap1\n      pop\n      jump\t// out\n        /* \"#utility.yul\":8243:8575   */\n    tag_91:\n        /* \"#utility.yul\":8364:8368   */\n      0x00\n        /* \"#utility.yul\":8402:8404   */\n      0x40\n        /* \"#utility.yul\":8391:8400   */\n      dup3\n        /* \"#utility.yul\":8387:8405   */\n      add\n        /* \"#utility.yul\":8379:8405   */\n      swap1\n      pop\n        /* \"#utility.yul\":8415:8486   */\n      tag_408\n        /* \"#utility.yul\":8483:8484   */\n      0x00\n        /* \"#utility.yul\":8472:8481   */\n      dup4\n        /* \"#utility.yul\":8468:8485   */\n      add\n        /* \"#utility.yul\":8459:8465   */\n      dup6\n        /* \"#utility.yul\":8415:8486   */\n      tag_296\n      jump\t// in\n    tag_408:\n        /* \"#utility.yul\":8496:8568   */\n      tag_409\n        /* \"#utility.yul\":8564:8566   */\n      0x20\n        /* \"#utility.yul\":8553:8562   */\n      dup4\n        /* \"#utility.yul\":8549:8567   */\n      add\n        /* \"#utility.yul\":8540:8546   */\n      dup5\n        /* \"#utility.yul\":8496:8568   */\n      tag_296\n      jump\t// in\n    tag_409:\n        /* \"#utility.yul\":8243:8575   */\n      swap4\n      swap3\n      pop\n      pop\n      pop\n      jump\t// out\n        /* \"#utility.yul\":8581:8724   */\n    tag_312:\n        /* \"#utility.yul\":8638:8643   */\n      0x00\n        /* \"#utility.yul\":8669:8675   */\n      dup2\n        /* \"#utility.yul\":8663:8676   */\n      mload\n        /* \"#utility.yul\":8654:8676   */\n      swap1\n      pop\n        /* \"#utility.yul\":8685:8718   */\n      tag_411\n        /* \"#utility.yul\":8712:8717   */\n      dup2\n        /* \"#utility.yul\":8685:8718   */\n      tag_303\n      jump\t// in\n    tag_411:\n        /* \"#utility.yul\":8581:8724   */\n      swap3\n      swap2\n      pop\n      pop\n      jump\t// out\n        /* \"#utility.yul\":8730:9081   */\n    tag_95:\n        /* \"#utility.yul\":8800:8806   */\n      0x00\n        /* \"#utility.yul\":8849:8851   */\n      0x20\n        /* \"#utility.yul\":8837:8846   */\n      dup3\n        /* \"#utility.yul\":8828:8835   */\n      dup5\n        /* \"#utility.yul\":8824:8847   */\n      sub\n        /* \"#utility.yul\":8820:8852   */\n      slt\n        /* \"#utility.yul\":8817:8936   */\n      iszero\n      tag_413\n      jumpi\n        /* \"#utility.yul\":8855:8934   */\n      tag_414\n      tag_290\n      jump\t// in\n    tag_414:\n        /* \"#utility.yul\":8817:8936   */\n    tag_413:\n        /* \"#utility.yul\":8975:8976   */\n      0x00\n        /* \"#utility.yul\":9000:9064   */\n      tag_415\n        /* \"#utility.yul\":9056:9063   */\n      dup5\n        /* \"#utility.yul\":9047:9053   */\n      dup3\n        /* \"#utility.yul\":9036:9045   */\n      dup6\n        /* \"#utility.yul\":9032:9054   */\n      add\n        /* \"#utility.yul\":9000:9064   */\n      tag_312\n      jump\t// in\n    tag_415:\n        /* \"#utility.yul\":8990:9064   */\n      swap2\n      pop\n        /* \"#utility.yul\":8946:9074   */\n      pop\n        /* \"#utility.yul\":8730:9081   */\n      swap3\n      swap2\n      pop\n      pop\n      jump\t// out\n        /* \"#utility.yul\":9087:9529   */\n    tag_107:\n        /* \"#utility.yul\":9236:9240   */\n      0x00\n        /* \"#utility.yul\":9274:9276   */\n      0x60\n        /* \"#utility.yul\":9263:9272   */\n      dup3\n        /* \"#utility.yul\":9259:9277   */\n      add\n        /* \"#utility.yul\":9251:9277   */\n      swap1\n      pop\n        /* \"#utility.yul\":9287:9358   */\n      tag_417\n        /* \"#utility.yul\":9355:9356   */\n      0x00\n        /* \"#utility.yul\":9344:9353   */\n      dup4\n        /* \"#utility.yul\":9340:9357   */\n      add\n        /* \"#utility.yul\":9331:9337   */\n      dup7\n        /* \"#utility.yul\":9287:9358   */\n      tag_296\n      jump\t// in\n    tag_417:\n        /* \"#utility.yul\":9368:9440   */\n      tag_418\n        /* \"#utility.yul\":9436:9438   */\n      0x20\n        /* \"#utility.yul\":9425:9434   */\n      dup4\n        /* \"#utility.yul\":9421:9439   */\n      add\n        /* \"#utility.yul\":9412:9418   */\n      dup6\n        /* \"#utility.yul\":9368:9440   */\n      tag_296\n      jump\t// in\n    tag_418:\n        /* \"#utility.yul\":9450:9522   */\n      tag_419\n        /* \"#utility.yul\":9518:9520   */\n      0x40\n        /* \"#utility.yul\":9507:9516   */\n      dup4\n        /* \"#utility.yul\":9503:9521   */\n      add\n        /* \"#utility.yul\":9494:9500   */\n      dup5\n        /* \"#utility.yul\":9450:9522   */\n      tag_298\n      jump\t// in\n    tag_419:\n        /* \"#utility.yul\":9087:9529   */\n      swap5\n      swap4\n      pop\n      pop\n      pop\n      pop\n      jump\t// out\n        /* \"#utility.yul\":9535:9651   */\n    tag_313:\n        /* \"#utility.yul\":9605:9626   */\n      tag_421\n        /* \"#utility.yul\":9620:9625   */\n      dup2\n        /* \"#utility.yul\":9605:9626   */\n      tag_287\n      jump\t// in\n    tag_421:\n        /* \"#utility.yul\":9598:9603   */\n      dup2\n        /* \"#utility.yul\":9595:9627   */\n      eq\n        /* \"#utility.yul\":9585:9645   */\n      tag_422\n      jumpi\n        /* \"#utility.yul\":9641:9642   */\n      0x00\n        /* \"#utility.yul\":9638:9639   */\n      dup1\n        /* \"#utility.yul\":9631:9643   */\n      revert\n        /* \"#utility.yul\":9585:9645   */\n    tag_422:\n        /* \"#utility.yul\":9535:9651   */\n      pop\n      jump\t// out\n        /* \"#utility.yul\":9657:9794   */\n    tag_314:\n        /* \"#utility.yul\":9711:9716   */\n      0x00\n        /* \"#utility.yul\":9742:9748   */\n      dup2\n        /* \"#utility.yul\":9736:9749   */\n      mload\n        /* \"#utility.yul\":9727:9749   */\n      swap1\n      pop\n        /* \"#utility.yul\":9758:9788   */\n      tag_424\n        /* \"#utility.yul\":9782:9787   */\n      dup2\n        /* \"#utility.yul\":9758:9788   */\n      tag_313\n      jump\t// in\n    tag_424:\n        /* \"#utility.yul\":9657:9794   */\n      swap3\n      swap2\n      pop\n      pop\n      jump\t// out\n        /* \"#utility.yul\":9800:10145   */\n    tag_111:\n        /* \"#utility.yul\":9867:9873   */\n      0x00\n        /* \"#utility.yul\":9916:9918   */\n      0x20\n        /* \"#utility.yul\":9904:9913   */\n      dup3\n        /* \"#utility.yul\":9895:9902   */\n      dup5\n        /* \"#utility.yul\":9891:9914   */\n      sub\n        /* \"#utility.yul\":9887:9919   */\n      slt\n        /* \"#utility.yul\":9884:10003   */\n      iszero\n      tag_426\n      jumpi\n        /* \"#utility.yul\":9922:10001   */\n      tag_427\n      tag_290\n      jump\t// in\n    tag_427:\n        /* \"#utility.yul\":9884:10003   */\n    tag_426:\n        /* \"#utility.yul\":10042:10043   */\n      0x00\n        /* \"#utility.yul\":10067:10128   */\n      tag_428\n        /* \"#utility.yul\":10120:10127   */\n      dup5\n        /* \"#utility.yul\":10111:10117   */\n      dup3\n        /* \"#utility.yul\":10100:10109   */\n      dup6\n        /* \"#utility.yul\":10096:10118   */\n      add\n        /* \"#utility.yul\":10067:10128   */\n      tag_314\n      jump\t// in\n    tag_428:\n        /* \"#utility.yul\":10057:10128   */\n      swap2\n      pop\n        /* \"#utility.yul\":10013:10138   */\n      pop\n        /* \"#utility.yul\":9800:10145   */\n      swap3\n      swap2\n      pop\n      pop\n      jump\t// out\n        /* \"#utility.yul\":10151:10371   */\n    tag_315:\n        /* \"#utility.yul\":10291:10325   */\n      0x546f6b656e207472616e7366657220746f2065786368616e6765206661696c65\n        /* \"#utility.yul\":10287:10288   */\n      0x00\n        /* \"#utility.yul\":10279:10285   */\n      dup3\n        /* \"#utility.yul\":10275:10289   */\n      add\n        /* \"#utility.yul\":10268:10326   */\n      mstore\n        /* \"#utility.yul\":10360:10363   */\n      0x6400000000000000000000000000000000000000000000000000000000000000\n        /* \"#utility.yul\":10355:10357   */\n      0x20\n        /* \"#utility.yul\":10347:10353   */\n      dup3\n        /* \"#utility.yul\":10343:10358   */\n      add\n        /* \"#utility.yul\":10336:10364   */\n      mstore\n        /* \"#utility.yul\":10151:10371   */\n      pop\n      jump\t// out\n        /* \"#utility.yul\":10377:10743   */\n    tag_316:\n        /* \"#utility.yul\":10519:10522   */\n      0x00\n        /* \"#utility.yul\":10540:10607   */\n      tag_431\n        /* \"#utility.yul\":10604:10606   */\n      0x21\n        /* \"#utility.yul\":10599:10602   */\n      dup4\n        /* \"#utility.yul\":10540:10607   */\n      tag_305\n      jump\t// in\n    tag_431:\n        /* \"#utility.yul\":10533:10607   */\n      swap2\n      pop\n        /* \"#utility.yul\":10616:10709   */\n      tag_432\n        /* \"#utility.yul\":10705:10708   */\n      dup3\n        /* \"#utility.yul\":10616:10709   */\n      tag_315\n      jump\t// in\n    tag_432:\n        /* \"#utility.yul\":10734:10736   */\n      0x40\n        /* \"#utility.yul\":10729:10732   */\n      dup3\n        /* \"#utility.yul\":10725:10737   */\n      add\n        /* \"#utility.yul\":10718:10737   */\n      swap1\n      pop\n        /* \"#utility.yul\":10377:10743   */\n      swap2\n      swap1\n      pop\n      jump\t// out\n        /* \"#utility.yul\":10749:11168   */\n    tag_114:\n        /* \"#utility.yul\":10915:10919   */\n      0x00\n        /* \"#utility.yul\":10953:10955   */\n      0x20\n        /* \"#utility.yul\":10942:10951   */\n      dup3\n        /* \"#utility.yul\":10938:10956   */\n      add\n        /* \"#utility.yul\":10930:10956   */\n      swap1\n      pop\n        /* \"#utility.yul\":11002:11011   */\n      dup2\n        /* \"#utility.yul\":10996:11000   */\n      dup2\n        /* \"#utility.yul\":10992:11012   */\n      sub\n        /* \"#utility.yul\":10988:10989   */\n      0x00\n        /* \"#utility.yul\":10977:10986   */\n      dup4\n        /* \"#utility.yul\":10973:10990   */\n      add\n        /* \"#utility.yul\":10966:11013   */\n      mstore\n        /* \"#utility.yul\":11030:11161   */\n      tag_434\n        /* \"#utility.yul\":11156:11160   */\n      dup2\n        /* \"#utility.yul\":11030:11161   */\n      tag_316\n      jump\t// in\n    tag_434:\n        /* \"#utility.yul\":11022:11161   */\n      swap1\n      pop\n        /* \"#utility.yul\":10749:11168   */\n      swap2\n      swap1\n      pop\n      jump\t// out\n        /* \"#utility.yul\":11174:11354   */\n    tag_317:\n        /* \"#utility.yul\":11222:11299   */\n      0x4e487b7100000000000000000000000000000000000000000000000000000000\n        /* \"#utility.yul\":11219:11220   */\n      0x00\n        /* \"#utility.yul\":11212:11300   */\n      mstore\n        /* \"#utility.yul\":11319:11323   */\n      0x11\n        /* \"#utility.yul\":11316:11317   */\n      0x04\n        /* \"#utility.yul\":11309:11324   */\n      mstore\n        /* \"#utility.yul\":11343:11347   */\n      0x24\n        /* \"#utility.yul\":11340:11341   */\n      0x00\n        /* \"#utility.yul\":11333:11348   */\n      revert\n        /* \"#utility.yul\":11360:11770   */\n    tag_138:\n        /* \"#utility.yul\":11400:11407   */\n      0x00\n        /* \"#utility.yul\":11423:11443   */\n      tag_437\n        /* \"#utility.yul\":11441:11442   */\n      dup3\n        /* \"#utility.yul\":11423:11443   */\n      tag_297\n      jump\t// in\n    tag_437:\n        /* \"#utility.yul\":11418:11443   */\n      swap2\n      pop\n        /* \"#utility.yul\":11457:11477   */\n      tag_438\n        /* \"#utility.yul\":11475:11476   */\n      dup4\n        /* \"#utility.yul\":11457:11477   */\n      tag_297\n      jump\t// in\n    tag_438:\n        /* \"#utility.yul\":11452:11477   */\n      swap3\n      pop\n        /* \"#utility.yul\":11512:11513   */\n      dup3\n        /* \"#utility.yul\":11509:11510   */\n      dup3\n        /* \"#utility.yul\":11505:11514   */\n      mul\n        /* \"#utility.yul\":11534:11564   */\n      tag_439\n        /* \"#utility.yul\":11552:11563   */\n      dup2\n        /* \"#utility.yul\":11534:11564   */\n      tag_297\n      jump\t// in\n    tag_439:\n        /* \"#utility.yul\":11523:11564   */\n      swap2\n      pop\n        /* \"#utility.yul\":11713:11714   */\n      dup3\n        /* \"#utility.yul\":11704:11711   */\n      dup3\n        /* \"#utility.yul\":11700:11715   */\n      div\n        /* \"#utility.yul\":11697:11698   */\n      dup5\n        /* \"#utility.yul\":11694:11716   */\n      eq\n        /* \"#utility.yul\":11674:11675   */\n      dup4\n        /* \"#utility.yul\":11667:11676   */\n      iszero\n        /* \"#utility.yul\":11647:11730   */\n      or\n        /* \"#utility.yul\":11624:11763   */\n      tag_440\n      jumpi\n        /* \"#utility.yul\":11743:11761   */\n      tag_441\n      tag_317\n      jump\t// in\n    tag_441:\n        /* \"#utility.yul\":11624:11763   */\n    tag_440:\n        /* \"#utility.yul\":11408:11770   */\n      pop\n        /* \"#utility.yul\":11360:11770   */\n      swap3\n      swap2\n      pop\n      pop\n      jump\t// out\n        /* \"#utility.yul\":11776:11970   */\n    tag_147:\n        /* \"#utility.yul\":11816:11820   */\n      0x00\n        /* \"#utility.yul\":11836:11856   */\n      tag_443\n        /* \"#utility.yul\":11854:11855   */\n      dup3\n        /* \"#utility.yul\":11836:11856   */\n      tag_297\n      jump\t// in\n    tag_443:\n        /* \"#utility.yul\":11831:11856   */\n      swap2\n      pop\n        /* \"#utility.yul\":11870:11890   */\n      tag_444\n        /* \"#utility.yul\":11888:11889   */\n      dup4\n        /* \"#utility.yul\":11870:11890   */\n      tag_297\n      jump\t// in\n    tag_444:\n        /* \"#utility.yul\":11865:11890   */\n      swap3\n      pop\n        /* \"#utility.yul\":11914:11915   */\n      dup3\n        /* \"#utility.yul\":11911:11912   */\n      dup3\n        /* \"#utility.yul\":11907:11916   */\n      sub\n        /* \"#utility.yul\":11899:11916   */\n      swap1\n      pop\n        /* \"#utility.yul\":11938:11939   */\n      dup2\n        /* \"#utility.yul\":11932:11936   */\n      dup2\n        /* \"#utility.yul\":11929:11940   */\n      gt\n        /* \"#utility.yul\":11926:11963   */\n      iszero\n      tag_445\n      jumpi\n        /* \"#utility.yul\":11943:11961   */\n      tag_446\n      tag_317\n      jump\t// in\n    tag_446:\n        /* \"#utility.yul\":11926:11963   */\n    tag_445:\n        /* \"#utility.yul\":11776:11970   */\n      swap3\n      swap2\n      pop\n      pop\n      jump\t// out\n        /* \"#utility.yul\":11976:12206   */\n    tag_318:\n        /* \"#utility.yul\":12116:12150   */\n      0x5472616e7366657220746f20746865207a65726f206164647265737320697320\n        /* \"#utility.yul\":12112:12113   */\n      0x00\n        /* \"#utility.yul\":12104:12110   */\n      dup3\n        /* \"#utility.yul\":12100:12114   */\n      add\n        /* \"#utility.yul\":12093:12151   */\n      mstore\n        /* \"#utility.yul\":12185:12198   */\n      0x6e6f7420616c6c6f776564000000000000000000000000000000000000000000\n        /* \"#utility.yul\":12180:12182   */\n      0x20\n        /* \"#utility.yul\":12172:12178   */\n      dup3\n        /* \"#utility.yul\":12168:12183   */\n      add\n        /* \"#utility.yul\":12161:12199   */\n      mstore\n        /* \"#utility.yul\":11976:12206   */\n      pop\n      jump\t// out\n        /* \"#utility.yul\":12212:12578   */\n    tag_319:\n        /* \"#utility.yul\":12354:12357   */\n      0x00\n        /* \"#utility.yul\":12375:12442   */\n      tag_449\n        /* \"#utility.yul\":12439:12441   */\n      0x2b\n        /* \"#utility.yul\":12434:12437   */\n      dup4\n        /* \"#utility.yul\":12375:12442   */\n      tag_305\n      jump\t// in\n    tag_449:\n        /* \"#utility.yul\":12368:12442   */\n      swap2\n      pop\n        /* \"#utility.yul\":12451:12544   */\n      tag_450\n        /* \"#utility.yul\":12540:12543   */\n      dup3\n        /* \"#utility.yul\":12451:12544   */\n      tag_318\n      jump\t// in\n    tag_450:\n        /* \"#utility.yul\":12569:12571   */\n      0x40\n        /* \"#utility.yul\":12564:12567   */\n      dup3\n        /* \"#utility.yul\":12560:12572   */\n      add\n        /* \"#utility.yul\":12553:12572   */\n      swap1\n      pop\n        /* \"#utility.yul\":12212:12578   */\n      swap2\n      swap1\n      pop\n      jump\t// out\n        /* \"#utility.yul\":12584:13003   */\n    tag_157:\n        /* \"#utility.yul\":12750:12754   */\n      0x00\n        /* \"#utility.yul\":12788:12790   */\n      0x20\n        /* \"#utility.yul\":12777:12786   */\n      dup3\n        /* \"#utility.yul\":12773:12791   */\n      add\n        /* \"#utility.yul\":12765:12791   */\n      swap1\n      pop\n        /* \"#utility.yul\":12837:12846   */\n      dup2\n        /* \"#utility.yul\":12831:12835   */\n      dup2\n        /* \"#utility.yul\":12827:12847   */\n      sub\n        /* \"#utility.yul\":12823:12824   */\n      0x00\n        /* \"#utility.yul\":12812:12821   */\n      dup4\n        /* \"#utility.yul\":12808:12825   */\n      add\n        /* \"#utility.yul\":12801:12848   */\n      mstore\n        /* \"#utility.yul\":12865:12996   */\n      tag_452\n        /* \"#utility.yul\":12991:12995   */\n      dup2\n        /* \"#utility.yul\":12865:12996   */\n      tag_319\n      jump\t// in\n    tag_452:\n        /* \"#utility.yul\":12857:12996   */\n      swap1\n      pop\n        /* \"#utility.yul\":12584:13003   */\n      swap2\n      swap1\n      pop\n      jump\t// out\n        /* \"#utility.yul\":13009:13189   */\n    tag_174:\n        /* \"#utility.yul\":13057:13134   */\n      0x4e487b7100000000000000000000000000000000000000000000000000000000\n        /* \"#utility.yul\":13054:13055   */\n      0x00\n        /* \"#utility.yul\":13047:13135   */\n      mstore\n        /* \"#utility.yul\":13154:13158   */\n      0x32\n        /* \"#utility.yul\":13151:13152   */\n      0x04\n        /* \"#utility.yul\":13144:13159   */\n      mstore\n        /* \"#utility.yul\":13178:13182   */\n      0x24\n        /* \"#utility.yul\":13175:13176   */\n      0x00\n        /* \"#utility.yul\":13168:13183   */\n      revert\n        /* \"#utility.yul\":13195:13366   */\n    tag_190:\n        /* \"#utility.yul\":13234:13237   */\n      0x00\n        /* \"#utility.yul\":13257:13281   */\n      tag_455\n        /* \"#utility.yul\":13275:13280   */\n      dup3\n        /* \"#utility.yul\":13257:13281   */\n      tag_297\n      jump\t// in\n    tag_455:\n        /* \"#utility.yul\":13248:13281   */\n      swap2\n      pop\n        /* \"#utility.yul\":13303:13307   */\n      0x00\n        /* \"#utility.yul\":13296:13301   */\n      dup3\n        /* \"#utility.yul\":13293:13308   */\n      sub\n        /* \"#utility.yul\":13290:13331   */\n      tag_456\n      jumpi\n        /* \"#utility.yul\":13311:13329   */\n      tag_457\n      tag_317\n      jump\t// in\n    tag_457:\n        /* \"#utility.yul\":13290:13331   */\n    tag_456:\n        /* \"#utility.yul\":13358:13359   */\n      0x01\n        /* \"#utility.yul\":13351:13356   */\n      dup3\n        /* \"#utility.yul\":13347:13360   */\n      sub\n        /* \"#utility.yul\":13340:13360   */\n      swap1\n      pop\n        /* \"#utility.yul\":13195:13366   */\n      swap2\n      swap1\n      pop\n      jump\t// out\n        /* \"#utility.yul\":13372:13519   */\n    tag_320:\n        /* \"#utility.yul\":13473:13484   */\n      0x00\n        /* \"#utility.yul\":13510:13513   */\n      dup2\n        /* \"#utility.yul\":13495:13513   */\n      swap1\n      pop\n        /* \"#utility.yul\":13372:13519   */\n      swap3\n      swap2\n      pop\n      pop\n      jump\t// out\n        /* \"#utility.yul\":13525:13639   */\n    tag_321:\n      pop\n      jump\t// out\n        /* \"#utility.yul\":13645:14043   */\n    tag_322:\n        /* \"#utility.yul\":13804:13807   */\n      0x00\n        /* \"#utility.yul\":13825:13908   */\n      tag_461\n        /* \"#utility.yul\":13906:13907   */\n      0x00\n        /* \"#utility.yul\":13901:13904   */\n      dup4\n        /* \"#utility.yul\":13825:13908   */\n      tag_320\n      jump\t// in\n    tag_461:\n        /* \"#utility.yul\":13818:13908   */\n      swap2\n      pop\n        /* \"#utility.yul\":13917:14010   */\n      tag_462\n        /* \"#utility.yul\":14006:14009   */\n      dup3\n        /* \"#utility.yul\":13917:14010   */\n      tag_321\n      jump\t// in\n    tag_462:\n        /* \"#utility.yul\":14035:14036   */\n      0x00\n        /* \"#utility.yul\":14030:14033   */\n      dup3\n        /* \"#utility.yul\":14026:14037   */\n      add\n        /* \"#utility.yul\":14019:14037   */\n      swap1\n      pop\n        /* \"#utility.yul\":13645:14043   */\n      swap2\n      swap1\n      pop\n      jump\t// out\n        /* \"#utility.yul\":14049:14428   */\n    tag_199:\n        /* \"#utility.yul\":14233:14236   */\n      0x00\n        /* \"#utility.yul\":14255:14402   */\n      tag_464\n        /* \"#utility.yul\":14398:14401   */\n      dup3\n        /* \"#utility.yul\":14255:14402   */\n      tag_322\n      jump\t// in\n    tag_464:\n        /* \"#utility.yul\":14248:14402   */\n      swap2\n      pop\n        /* \"#utility.yul\":14419:14422   */\n      dup2\n        /* \"#utility.yul\":14412:14422   */\n      swap1\n      pop\n        /* \"#utility.yul\":14049:14428   */\n      swap2\n      swap1\n      pop\n      jump\t// out\n        /* \"#utility.yul\":14434:14604   */\n    tag_323:\n        /* \"#utility.yul\":14574:14596   */\n      0x4661696c656420746f2073656e64204574686572000000000000000000000000\n        /* \"#utility.yul\":14570:14571   */\n      0x00\n        /* \"#utility.yul\":14562:14568   */\n      dup3\n        /* \"#utility.yul\":14558:14572   */\n      add\n        /* \"#utility.yul\":14551:14597   */\n      mstore\n        /* \"#utility.yul\":14434:14604   */\n      pop\n      jump\t// out\n        /* \"#utility.yul\":14610:14976   */\n    tag_324:\n        /* \"#utility.yul\":14752:14755   */\n      0x00\n        /* \"#utility.yul\":14773:14840   */\n      tag_467\n        /* \"#utility.yul\":14837:14839   */\n      0x14\n        /* \"#utility.yul\":14832:14835   */\n      dup4\n        /* \"#utility.yul\":14773:14840   */\n      tag_305\n      jump\t// in\n    tag_467:\n        /* \"#utility.yul\":14766:14840   */\n      swap2\n      pop\n        /* \"#utility.yul\":14849:14942   */\n      tag_468\n        /* \"#utility.yul\":14938:14941   */\n      dup3\n        /* \"#utility.yul\":14849:14942   */\n      tag_323\n      jump\t// in\n    tag_468:\n        /* \"#utility.yul\":14967:14969   */\n      0x20\n        /* \"#utility.yul\":14962:14965   */\n      dup3\n        /* \"#utility.yul\":14958:14970   */\n      add\n        /* \"#utility.yul\":14951:14970   */\n      swap1\n      pop\n        /* \"#utility.yul\":14610:14976   */\n      swap2\n      swap1\n      pop\n      jump\t// out\n        /* \"#utility.yul\":14982:15401   */\n    tag_205:\n        /* \"#utility.yul\":15148:15152   */\n      0x00\n        /* \"#utility.yul\":15186:15188   */\n      0x20\n        /* \"#utility.yul\":15175:15184   */\n      dup3\n        /* \"#utility.yul\":15171:15189   */\n      add\n        /* \"#utility.yul\":15163:15189   */\n      swap1\n      pop\n        /* \"#utility.yul\":15235:15244   */\n      dup2\n        /* \"#utility.yul\":15229:15233   */\n      dup2\n        /* \"#utility.yul\":15225:15245   */\n      sub\n        /* \"#utility.yul\":15221:15222   */\n      0x00\n        /* \"#utility.yul\":15210:15219   */\n      dup4\n        /* \"#utility.yul\":15206:15223   */\n      add\n        /* \"#utility.yul\":15199:15246   */\n      mstore\n        /* \"#utility.yul\":15263:15394   */\n      tag_470\n        /* \"#utility.yul\":15389:15393   */\n      dup2\n        /* \"#utility.yul\":15263:15394   */\n      tag_324\n      jump\t// in\n    tag_470:\n        /* \"#utility.yul\":15255:15394   */\n      swap1\n      pop\n        /* \"#utility.yul\":14982:15401   */\n      swap2\n      swap1\n      pop\n      jump\t// out\n        /* \"#utility.yul\":15407:15739   */\n    tag_224:\n        /* \"#utility.yul\":15528:15532   */\n      0x00\n        /* \"#utility.yul\":15566:15568   */\n      0x40\n        /* \"#utility.yul\":15555:15564   */\n      dup3\n        /* \"#utility.yul\":15551:15569   */\n      add\n        /* \"#utility.yul\":15543:15569   */\n      swap1\n      pop\n        /* \"#utility.yul\":15579:15650   */\n      tag_472\n        /* \"#utility.yul\":15647:15648   */\n      0x00\n        /* \"#utility.yul\":15636:15645   */\n      dup4\n        /* \"#utility.yul\":15632:15649   */\n      add\n        /* \"#utility.yul\":15623:15629   */\n      dup6\n        /* \"#utility.yul\":15579:15650   */\n      tag_296\n      jump\t// in\n    tag_472:\n        /* \"#utility.yul\":15660:15732   */\n      tag_473\n        /* \"#utility.yul\":15728:15730   */\n      0x20\n        /* \"#utility.yul\":15717:15726   */\n      dup4\n        /* \"#utility.yul\":15713:15731   */\n      add\n        /* \"#utility.yul\":15704:15710   */\n      dup5\n        /* \"#utility.yul\":15660:15732   */\n      tag_298\n      jump\t// in\n    tag_473:\n        /* \"#utility.yul\":15407:15739   */\n      swap4\n      swap3\n      pop\n      pop\n      pop\n      jump\t// out\n        /* \"#utility.yul\":15745:15925   */\n    tag_325:\n        /* \"#utility.yul\":15885:15917   */\n      0x546f6b656e207472616e7366657220746f206275796572206661696c65640000\n        /* \"#utility.yul\":15881:15882   */\n      0x00\n        /* \"#utility.yul\":15873:15879   */\n      dup3\n        /* \"#utility.yul\":15869:15883   */\n      add\n        /* \"#utility.yul\":15862:15918   */\n      mstore\n        /* \"#utility.yul\":15745:15925   */\n      pop\n      jump\t// out\n        /* \"#utility.yul\":15931:16297   */\n    tag_326:\n        /* \"#utility.yul\":16073:16076   */\n      0x00\n        /* \"#utility.yul\":16094:16161   */\n      tag_476\n        /* \"#utility.yul\":16158:16160   */\n      0x1e\n        /* \"#utility.yul\":16153:16156   */\n      dup4\n        /* \"#utility.yul\":16094:16161   */\n      tag_305\n      jump\t// in\n    tag_476:\n        /* \"#utility.yul\":16087:16161   */\n      swap2\n      pop\n        /* \"#utility.yul\":16170:16263   */\n      tag_477\n        /* \"#utility.yul\":16259:16262   */\n      dup3\n        /* \"#utility.yul\":16170:16263   */\n      tag_325\n      jump\t// in\n    tag_477:\n        /* \"#utility.yul\":16288:16290   */\n      0x20\n        /* \"#utility.yul\":16283:16286   */\n      dup3\n        /* \"#utility.yul\":16279:16291   */\n      add\n        /* \"#utility.yul\":16272:16291   */\n      swap1\n      pop\n        /* \"#utility.yul\":15931:16297   */\n      swap2\n      swap1\n      pop\n      jump\t// out\n        /* \"#utility.yul\":16303:16722   */\n    tag_230:\n        /* \"#utility.yul\":16469:16473   */\n      0x00\n        /* \"#utility.yul\":16507:16509   */\n      0x20\n        /* \"#utility.yul\":16496:16505   */\n      dup3\n        /* \"#utility.yul\":16492:16510   */\n      add\n        /* \"#utility.yul\":16484:16510   */\n      swap1\n      pop\n        /* \"#utility.yul\":16556:16565   */\n      dup2\n        /* \"#utility.yul\":16550:16554   */\n      dup2\n        /* \"#utility.yul\":16546:16566   */\n      sub\n        /* \"#utility.yul\":16542:16543   */\n      0x00\n        /* \"#utility.yul\":16531:16540   */\n      dup4\n        /* \"#utility.yul\":16527:16544   */\n      add\n        /* \"#utility.yul\":16520:16567   */\n      mstore\n        /* \"#utility.yul\":16584:16715   */\n      tag_479\n        /* \"#utility.yul\":16710:16714   */\n      dup2\n        /* \"#utility.yul\":16584:16715   */\n      tag_326\n      jump\t// in\n    tag_479:\n        /* \"#utility.yul\":16576:16715   */\n      swap1\n      pop\n        /* \"#utility.yul\":16303:16722   */\n      swap2\n      swap1\n      pop\n      jump\t// out\n        /* \"#utility.yul\":16728:16919   */\n    tag_237:\n        /* \"#utility.yul\":16768:16771   */\n      0x00\n        /* \"#utility.yul\":16787:16807   */\n      tag_481\n        /* \"#utility.yul\":16805:16806   */\n      dup3\n        /* \"#utility.yul\":16787:16807   */\n      tag_297\n      jump\t// in\n    tag_481:\n        /* \"#utility.yul\":16782:16807   */\n      swap2\n      pop\n        /* \"#utility.yul\":16821:16841   */\n      tag_482\n        /* \"#utility.yul\":16839:16840   */\n      dup4\n        /* \"#utility.yul\":16821:16841   */\n      tag_297\n      jump\t// in\n    tag_482:\n        /* \"#utility.yul\":16816:16841   */\n      swap3\n      pop\n        /* \"#utility.yul\":16864:16865   */\n      dup3\n        /* \"#utility.yul\":16861:16862   */\n      dup3\n        /* \"#utility.yul\":16857:16866   */\n      add\n        /* \"#utility.yul\":16850:16866   */\n      swap1\n      pop\n        /* \"#utility.yul\":16885:16888   */\n      dup1\n        /* \"#utility.yul\":16882:16883   */\n      dup3\n        /* \"#utility.yul\":16879:16889   */\n      gt\n        /* \"#utility.yul\":16876:16912   */\n      iszero\n      tag_483\n      jumpi\n        /* \"#utility.yul\":16892:16910   */\n      tag_484\n      tag_317\n      jump\t// in\n    tag_484:\n        /* \"#utility.yul\":16876:16912   */\n    tag_483:\n        /* \"#utility.yul\":16728:16919   */\n      swap3\n      swap2\n      pop\n      pop\n      jump\t// out\n        /* \"#utility.yul\":16925:17393   */\n    tag_253:\n        /* \"#utility.yul\":17087:17091   */\n      0x00\n        /* \"#utility.yul\":17125:17127   */\n      0x60\n        /* \"#utility.yul\":17114:17123   */\n      dup3\n        /* \"#utility.yul\":17110:17128   */\n      add\n        /* \"#utility.yul\":17102:17128   */\n      swap1\n      pop\n        /* \"#utility.yul\":17138:17222   */\n      tag_486\n        /* \"#utility.yul\":17219:17220   */\n      0x00\n        /* \"#utility.yul\":17208:17217   */\n      dup4\n        /* \"#utility.yul\":17204:17221   */\n      add\n        /* \"#utility.yul\":17195:17201   */\n      dup7\n        /* \"#utility.yul\":17138:17222   */\n      tag_302\n      jump\t// in\n    tag_486:\n        /* \"#utility.yul\":17232:17304   */\n      tag_487\n        /* \"#utility.yul\":17300:17302   */\n      0x20\n        /* \"#utility.yul\":17289:17298   */\n      dup4\n        /* \"#utility.yul\":17285:17303   */\n      add\n        /* \"#utility.yul\":17276:17282   */\n      dup6\n        /* \"#utility.yul\":17232:17304   */\n      tag_298\n      jump\t// in\n    tag_487:\n        /* \"#utility.yul\":17314:17386   */\n      tag_488\n        /* \"#utility.yul\":17382:17384   */\n      0x40\n        /* \"#utility.yul\":17371:17380   */\n      dup4\n        /* \"#utility.yul\":17367:17385   */\n      add\n        /* \"#utility.yul\":17358:17364   */\n      dup5\n        /* \"#utility.yul\":17314:17386   */\n      tag_298\n      jump\t// in\n    tag_488:\n        /* \"#utility.yul\":16925:17393   */\n      swap5\n      swap4\n      pop\n      pop\n      pop\n      pop\n      jump\t// out\n        /* \"#utility.yul\":17399:17579   */\n    tag_283:\n        /* \"#utility.yul\":17447:17524   */\n      0x4e487b7100000000000000000000000000000000000000000000000000000000\n        /* \"#utility.yul\":17444:17445   */\n      0x00\n        /* \"#utility.yul\":17437:17525   */\n      mstore\n        /* \"#utility.yul\":17544:17548   */\n      0x31\n        /* \"#utility.yul\":17541:17542   */\n      0x04\n        /* \"#utility.yul\":17534:17549   */\n      mstore\n        /* \"#utility.yul\":17568:17572   */\n      0x24\n        /* \"#utility.yul\":17565:17566   */\n      0x00\n        /* \"#utility.yul\":17558:17573   */\n      revert\n\n    auxdata: 0xa2646970667358221220db6a82e8b71821f6d8e7cdf3851ba35bc2987c2923310be97e7a1a593f8dcae364736f6c63430008190033\n}\n",
				"bytecode": {
					"linkReferences": {},
					"object": "608060405234801561000f575f80fd5b506040516122d63803806122d6833981810160405281019061003191906100db565b805f806101000a81548173ffffffffffffffffffffffffffffffffffffffff021916908373ffffffffffffffffffffffffffffffffffffffff1602179055505f60058190555050610106565b5f80fd5b5f73ffffffffffffffffffffffffffffffffffffffff82169050919050565b5f6100aa82610081565b9050919050565b6100ba816100a0565b81146100c4575f80fd5b50565b5f815190506100d5816100b1565b92915050565b5f602082840312156100f0576100ef61007d565b5b5f6100fd848285016100c7565b91505092915050565b6121c3806101135f395ff3fe60806040526004361061009b575f3560e01c806383588b991161006357806383588b99146101965780639cd119e3146101d2578063a760e06a146101e8578063c0b6f56114610204578063c2eb05ba14610240578063ce606ee01461026a5761009b565b806310731a651461009f5780631a4b3311146100c95780631fb64da01461010857806328b02a8d1461014457806373b298e21461016e575b5f80fd5b3480156100aa575f80fd5b506100b3610294565b6040516100c0919061190e565b60405180910390f35b3480156100d4575f80fd5b506100ef60048036038101906100ea9190611985565b61042f565b6040516100ff9493929190611a4a565b60405180910390f35b348015610113575f80fd5b5061012e60048036038101906101299190611ab7565b610486565b60405161013b9190611af5565b60405180910390f35b34801561014f575f80fd5b506101586104ce565b6040516101659190611b0e565b60405180910390f35b348015610179575f80fd5b50610194600480360381019061018f9190611b27565b6104d4565b005b3480156101a1575f80fd5b506101bc60048036038101906101b79190611ab7565b61081d565b6040516101c99190611af5565b60405180910390f35b3480156101dd575f80fd5b506101e6610865565b005b61020260048036038101906101fd9190611b27565b61090e565b005b34801561020f575f80fd5b5061022a60048036038101906102259190611985565b610ad7565b604051610237919061190e565b60405180910390f35b34801561024b575f80fd5b50610254610cbb565b6040516102619190611af5565b60405180910390f35b348015610275575f80fd5b5061027e610ce0565b60405161028b9190611af5565b60405180910390f35b5f60015f9054906101000a900473ffffffffffffffffffffffffffffffffffffffff168073ffffffffffffffffffffffffffffffffffffffff163373ffffffffffffffffffffffffffffffffffffffff1614610325576040517f08c379a000000000000000000000000000000000000000000000000000000000815260040161031c90611bd1565b60405180910390fd5b60015f9054906101000a900473ffffffffffffffffffffffffffffffffffffffff165f806101000a81548173ffffffffffffffffffffffffffffffffffffffff021916908373ffffffffffffffffffffffffffffffffffffffff1602179055505f60015f6101000a81548173ffffffffffffffffffffffffffffffffffffffff021916908373ffffffffffffffffffffffffffffffffffffffff1602179055505f8054906101000a900473ffffffffffffffffffffffffffffffffffffffff1673ffffffffffffffffffffffffffffffffffffffff167f041e8ee868cb815a7e5cd1a100e6ff024772d79c071718c049ab7d3bc4e1226d60405160405180910390a2600191505090565b6002602052805f5260405f205f91509050805f015f9054906101000a900473ffffffffffffffffffffffffffffffffffffffff1690806001015490806002015490806003015f9054906101000a900460ff16905084565b6004602052815f5260405f20818154811061049f575f80fd5b905f5260205f20015f915091509054906101000a900473ffffffffffffffffffffffffffffffffffffffff1681565b60055481565b5f60028111156104e7576104e66119d7565b5b60025f3373ffffffffffffffffffffffffffffffffffffffff1673ffffffffffffffffffffffffffffffffffffffff1681526020019081526020015f206003015f9054906101000a900460ff166002811115610546576105456119d7565b5b1461054f575f80fd5b815f8103610592576040517f08c379a000000000000000000000000000000000000000000000000000000000815260040161058990611c39565b60405180910390fd5b815f81036105d5576040517f08c379a00000000000000000000000000000000000000000000000000000000081526004016105cc90611ca1565b60405180910390fd5b8484808273ffffffffffffffffffffffffffffffffffffffff1663dd62ed3e33306040518363ffffffff1660e01b8152600401610613929190611cbf565b602060405180830381865afa15801561062e573d5f803e3d5ffd5b505050506040513d601f19601f820116820180604052508101906106529190611cfa565b101561065c575f80fd5b8686808273ffffffffffffffffffffffffffffffffffffffff166370a08231336040518263ffffffff1660e01b81526004016106989190611af5565b602060405180830381865afa1580156106b3573d5f803e3d5ffd5b505050506040513d601f19601f820116820180604052508101906106d79190611cfa565b10156106e1575f80fd5b600160025f3373ffffffffffffffffffffffffffffffffffffffff1673ffffffffffffffffffffffffffffffffffffffff1681526020019081526020015f206003015f6101000a81548160ff02191690836002811115610744576107436119d7565b5b02179055508873ffffffffffffffffffffffffffffffffffffffff166323b872dd33308b6040518463ffffffff1660e01b815260040161078693929190611d25565b6020604051808303815f875af11580156107a2573d5f803e3d5ffd5b505050506040513d601f19601f820116820180604052508101906107c69190611d84565b610805576040517f08c379a00000000000000000000000000000000000000000000000000000000081526004016107fc90611e1f565b60405180910390fd5b6108128989896001610d03565b505050505050505050565b6003602052815f5260405f208181548110610836575f80fd5b905f5260205f20015f915091509054906101000a900473ffffffffffffffffffffffffffffffffffffffff1681565b5f8054906101000a900473ffffffffffffffffffffffffffffffffffffffff168073ffffffffffffffffffffffffffffffffffffffff163373ffffffffffffffffffffffffffffffffffffffff16146108f3576040517f08c379a00000000000000000000000000000000000000000000000000000000081526004016108ea90611bd1565b60405180910390fd5b5f60055490505f60058190555061090a3382611055565b5050565b5f6002811115610921576109206119d7565b5b60025f3373ffffffffffffffffffffffffffffffffffffffff1673ffffffffffffffffffffffffffffffffffffffff1681526020019081526020015f206003015f9054906101000a900460ff1660028111156109805761097f6119d7565b5b14610989575f80fd5b815f81036109cc576040517f08c379a00000000000000000000000000000000000000000000000000000000081526004016109c390611c39565b60405180910390fd5b815f8103610a0f576040517f08c379a0000000000000000000000000000000000000000000000000000000008152600401610a0690611ca1565b60405180910390fd5b8284610a1b9190611e6a565b80341015610a27575f80fd5b8385610a339190611e6a565b341115610a5b57610a5a338587610a4a9190611e6a565b34610a559190611eab565b611055565b5b6002805f3373ffffffffffffffffffffffffffffffffffffffff1673ffffffffffffffffffffffffffffffffffffffff1681526020019081526020015f206003015f6101000a81548160ff02191690836002811115610abd57610abc6119d7565b5b0217905550610acf8686866002610d03565b505050505050565b5f805f9054906101000a900473ffffffffffffffffffffffffffffffffffffffff168073ffffffffffffffffffffffffffffffffffffffff163373ffffffffffffffffffffffffffffffffffffffff1614610b67576040517f08c379a0000000000000000000000000000000000000000000000000000000008152600401610b5e90611bd1565b60405180910390fd5b828073ffffffffffffffffffffffffffffffffffffffff165f73ffffffffffffffffffffffffffffffffffffffff1603610bd6576040517f08c379a0000000000000000000000000000000000000000000000000000000008152600401610bcd90611f4e565b60405180910390fd5b8360015f6101000a81548173ffffffffffffffffffffffffffffffffffffffff021916908373ffffffffffffffffffffffffffffffffffffffff16021790555060015f9054906101000a900473ffffffffffffffffffffffffffffffffffffffff1673ffffffffffffffffffffffffffffffffffffffff165f8054906101000a900473ffffffffffffffffffffffffffffffffffffffff1673ffffffffffffffffffffffffffffffffffffffff167ffee8bf98f40b2ac772a78cd4d45742484d3471f99046b224f8e6922e7c6eb1d260405160405180910390a3600192505050919050565b60015f9054906101000a900473ffffffffffffffffffffffffffffffffffffffff1681565b5f8054906101000a900473ffffffffffffffffffffffffffffffffffffffff1681565b5f60016002811115610d1857610d176119d7565b5b826002811115610d2b57610d2a6119d7565b5b14610d725760035f8673ffffffffffffffffffffffffffffffffffffffff1673ffffffffffffffffffffffffffffffffffffffff1681526020019081526020015f20610db0565b60045f8673ffffffffffffffffffffffffffffffffffffffff1673ffffffffffffffffffffffffffffffffffffffff1681526020019081526020015f205b805480602002602001604051908101604052809291908181526020018280548015610e2d57602002820191905f5260205f20905b815f9054906101000a900473ffffffffffffffffffffffffffffffffffffffff1673ffffffffffffffffffffffffffffffffffffffff1681526020019060010190808311610de4575b505050505090505f8490505f825190505b5f811115610fcb575f60025f85600185610e589190611eab565b81518110610e6957610e68611f6c565b5b602002602001015173ffffffffffffffffffffffffffffffffffffffff1673ffffffffffffffffffffffffffffffffffffffff1681526020019081526020015f206040518060800160405290815f82015f9054906101000a900473ffffffffffffffffffffffffffffffffffffffff1673ffffffffffffffffffffffffffffffffffffffff1673ffffffffffffffffffffffffffffffffffffffff1681526020016001820154815260200160028201548152602001600382015f9054906101000a900460ff166002811115610f4157610f406119d7565b5b6002811115610f5357610f526119d7565b5b815250509050610f638187611102565b15610fb757610fa78885600185610f7a9190611eab565b81518110610f8b57610f8a611f6c565b5b602002602001015185600186610fa19190611eab565b8a61116b565b92505f8303610fb65750610fcb565b5b508080610fc390611f99565b915050610e3e565b505f811115610fe557610fe08682868661150c565b61104d565b5f60025f3373ffffffffffffffffffffffffffffffffffffffff1673ffffffffffffffffffffffffffffffffffffffff1681526020019081526020015f206003015f6101000a81548160ff02191690836002811115611047576110466119d7565b5b02179055505b505050505050565b5f8273ffffffffffffffffffffffffffffffffffffffff168260405161107a90611fed565b5f6040518083038185875af1925050503d805f81146110b4576040519150601f19603f3d011682016040523d82523d5f602084013e6110b9565b606091505b50509050806110fd576040517f08c379a00000000000000000000000000000000000000000000000000000000081526004016110f49061204b565b60405180910390fd5b505050565b5f60016002811115611117576111166119d7565b5b8360600151600281111561112e5761112d6119d7565b5b0361114c57818360400151116111475760019050611165565b611161565b818360400151106111605760019050611165565b5b5f90505b92915050565b5f8060025f8773ffffffffffffffffffffffffffffffffffffffff1673ffffffffffffffffffffffffffffffffffffffff1681526020019081526020015f2090505f816001015486106111c25781600101546111c4565b855b90506002808111156111d9576111d86119d7565b5b826003015f9054906101000a900460ff1660028111156111fc576111fb6119d7565b5b03611318578773ffffffffffffffffffffffffffffffffffffffff1663a9059cbb88836040518363ffffffff1660e01b815260040161123c929190612069565b6020604051808303815f875af1158015611258573d5f803e3d5ffd5b505050506040513d601f19601f8201168201806040525081019061127c9190611d84565b6112bb576040517f08c379a00000000000000000000000000000000000000000000000000000000081526004016112b2906120da565b60405180910390fd5b6112d4338360020154836112cf9190611e6a565b611055565b838260020154111561131357808483600201546112f19190611eab565b6112fb9190611e6a565b60055f82825461130b91906120f8565b925050819055505b61142b565b8773ffffffffffffffffffffffffffffffffffffffff1663a9059cbb33836040518363ffffffff1660e01b8152600401611353929190612069565b6020604051808303815f875af115801561136f573d5f803e3d5ffd5b505050506040513d601f19601f820116820180604052508101906113939190611d84565b6113d2576040517f08c379a00000000000000000000000000000000000000000000000000000000081526004016113c9906120da565b60405180910390fd5b6113eb878360020154836113e69190611e6a565b611055565b838260020154101561142a57808260020154856114089190611eab565b6114129190611e6a565b60055f82825461142291906120f8565b925050819055505b5b80826001015f82825461143e9190611eab565b925050819055503373ffffffffffffffffffffffffffffffffffffffff168773ffffffffffffffffffffffffffffffffffffffff168973ffffffffffffffffffffffffffffffffffffffff167f1ce728f6a2703272ee2e07cf07fd21ddc592575a5b6774a529b595fdf56dd1a6856003015f9054906101000a900460ff168587600201546040516114d19392919061212b565b60405180910390a45f8260010154036114f0576114ef88838761171e565b5b80866114fc9190611eab565b9550859250505095945050505050565b5f60016002811115611521576115206119d7565b5b826002811115611534576115336119d7565b5b0361157b5760035f8673ffffffffffffffffffffffffffffffffffffffff1673ffffffffffffffffffffffffffffffffffffffff1681526020019081526020015f206115b9565b60045f8673ffffffffffffffffffffffffffffffffffffffff1673ffffffffffffffffffffffffffffffffffffffff1681526020019081526020015f205b90508033908060018154018082558091505060019003905f5260205f20015f9091909190916101000a81548173ffffffffffffffffffffffffffffffffffffffff021916908373ffffffffffffffffffffffffffffffffffffffff1602179055505f60025f3373ffffffffffffffffffffffffffffffffffffffff1673ffffffffffffffffffffffffffffffffffffffff1681526020019081526020015f20905085815f015f6101000a81548173ffffffffffffffffffffffffffffffffffffffff021916908373ffffffffffffffffffffffffffffffffffffffff1602179055508481600101819055508381600201819055503373ffffffffffffffffffffffffffffffffffffffff168673ffffffffffffffffffffffffffffffffffffffff167fba9e7b0a1a964fea173e3888ffbcbe410fca9a481f92cf8fc8b76a1b70f31d6885888860405161170e9392919061212b565b60405180910390a3505050505050565b5f60016002811115611733576117326119d7565b5b836003015f9054906101000a900460ff166002811115611756576117556119d7565b5b1461179d5760045f8573ffffffffffffffffffffffffffffffffffffffff1673ffffffffffffffffffffffffffffffffffffffff1681526020019081526020015f206117db565b60035f8573ffffffffffffffffffffffffffffffffffffffff1673ffffffffffffffffffffffffffffffffffffffff1681526020019081526020015f205b905080600182805490506117ef9190611eab565b81548110611800576117ff611f6c565b5b905f5260205f20015f9054906101000a900473ffffffffffffffffffffffffffffffffffffffff1681838154811061183b5761183a611f6c565b5b905f5260205f20015f6101000a81548173ffffffffffffffffffffffffffffffffffffffff021916908373ffffffffffffffffffffffffffffffffffffffff1602179055508080548061189157611890612160565b5b600190038181905f5260205f20015f6101000a81549073ffffffffffffffffffffffffffffffffffffffff021916905590555f836003015f6101000a81548160ff021916908360028111156118e9576118e86119d7565b5b021790555050505050565b5f8115159050919050565b611908816118f4565b82525050565b5f6020820190506119215f8301846118ff565b92915050565b5f80fd5b5f73ffffffffffffffffffffffffffffffffffffffff82169050919050565b5f6119548261192b565b9050919050565b6119648161194a565b811461196e575f80fd5b50565b5f8135905061197f8161195b565b92915050565b5f6020828403121561199a57611999611927565b5b5f6119a784828501611971565b91505092915050565b6119b98161194a565b82525050565b5f819050919050565b6119d1816119bf565b82525050565b7f4e487b71000000000000000000000000000000000000000000000000000000005f52602160045260245ffd5b60038110611a1557611a146119d7565b5b50565b5f819050611a2582611a04565b919050565b5f611a3482611a18565b9050919050565b611a4481611a2a565b82525050565b5f608082019050611a5d5f8301876119b0565b611a6a60208301866119c8565b611a7760408301856119c8565b611a846060830184611a3b565b95945050505050565b611a96816119bf565b8114611aa0575f80fd5b50565b5f81359050611ab181611a8d565b92915050565b5f8060408385031215611acd57611acc611927565b5b5f611ada85828601611971565b9250506020611aeb85828601611aa3565b9150509250929050565b5f602082019050611b085f8301846119b0565b92915050565b5f602082019050611b215f8301846119c8565b92915050565b5f805f60608486031215611b3e57611b3d611927565b5b5f611b4b86828701611971565b9350506020611b5c86828701611aa3565b9250506040611b6d86828701611aa3565b9150509250925092565b5f82825260208201905092915050565b7f43616c6c6572206973206e6f7420617574686f72697a656400000000000000005f82015250565b5f611bbb601883611b77565b9150611bc682611b87565b602082019050919050565b5f6020820190508181035f830152611be881611baf565b9050919050565b7f416d6f756e74206d7573742062652067726561746572207468616e207a65726f5f82015250565b5f611c23602083611b77565b9150611c2e82611bef565b602082019050919050565b5f6020820190508181035f830152611c5081611c17565b9050919050565b7f5072696365206d7573742062652067726561746572207468616e207a65726f005f82015250565b5f611c8b601f83611b77565b9150611c9682611c57565b602082019050919050565b5f6020820190508181035f830152611cb881611c7f565b9050919050565b5f604082019050611cd25f8301856119b0565b611cdf60208301846119b0565b9392505050565b5f81519050611cf481611a8d565b92915050565b5f60208284031215611d0f57611d0e611927565b5b5f611d1c84828501611ce6565b91505092915050565b5f606082019050611d385f8301866119b0565b611d4560208301856119b0565b611d5260408301846119c8565b949350505050565b611d63816118f4565b8114611d6d575f80fd5b50565b5f81519050611d7e81611d5a565b92915050565b5f60208284031215611d9957611d98611927565b5b5f611da684828501611d70565b91505092915050565b7f546f6b656e207472616e7366657220746f2065786368616e6765206661696c655f8201527f6400000000000000000000000000000000000000000000000000000000000000602082015250565b5f611e09602183611b77565b9150611e1482611daf565b604082019050919050565b5f6020820190508181035f830152611e3681611dfd565b9050919050565b7f4e487b71000000000000000000000000000000000000000000000000000000005f52601160045260245ffd5b5f611e74826119bf565b9150611e7f836119bf565b9250828202611e8d816119bf565b91508282048414831517611ea457611ea3611e3d565b5b5092915050565b5f611eb5826119bf565b9150611ec0836119bf565b9250828203905081811115611ed857611ed7611e3d565b5b92915050565b7f5472616e7366657220746f20746865207a65726f2061646472657373206973205f8201527f6e6f7420616c6c6f776564000000000000000000000000000000000000000000602082015250565b5f611f38602b83611b77565b9150611f4382611ede565b604082019050919050565b5f6020820190508181035f830152611f6581611f2c565b9050919050565b7f4e487b71000000000000000000000000000000000000000000000000000000005f52603260045260245ffd5b5f611fa3826119bf565b91505f8203611fb557611fb4611e3d565b5b600182039050919050565b5f81905092915050565b50565b5f611fd85f83611fc0565b9150611fe382611fca565b5f82019050919050565b5f611ff782611fcd565b9150819050919050565b7f4661696c656420746f2073656e642045746865720000000000000000000000005f82015250565b5f612035601483611b77565b915061204082612001565b602082019050919050565b5f6020820190508181035f83015261206281612029565b9050919050565b5f60408201905061207c5f8301856119b0565b61208960208301846119c8565b9392505050565b7f546f6b656e207472616e7366657220746f206275796572206661696c656400005f82015250565b5f6120c4601e83611b77565b91506120cf82612090565b602082019050919050565b5f6020820190508181035f8301526120f1816120b8565b9050919050565b5f612102826119bf565b915061210d836119bf565b925082820190508082111561212557612124611e3d565b5b92915050565b5f60608201905061213e5f830186611a3b565b61214b60208301856119c8565b61215860408301846119c8565b949350505050565b7f4e487b71000000000000000000000000000000000000000000000000000000005f52603160045260245ffdfea2646970667358221220db6a82e8b71821f6d8e7cdf3851ba35bc2987c2923310be97e7a1a593f8dcae364736f6c63430008190033",
					"opcodes": "PUSH1 0x80 PUSH1 0x40 MSTORE CALLVALUE DUP1 ISZERO PUSH2 0xF JUMPI PUSH0 DUP1 REVERT JUMPDEST POP PUSH1 0x40 MLOAD PUSH2 0x22D6 CODESIZE SUB DUP1 PUSH2 0x22D6 DUP4 CODECOPY DUP2 DUP2 ADD PUSH1 0x40 MSTORE DUP2 ADD SWAP1 PUSH2 0x31 SWAP2 SWAP1 PUSH2 0xDB JUMP JUMPDEST DUP1 PUSH0 DUP1 PUSH2 0x100 EXP DUP2 SLOAD DUP2 PUSH20 0xFFFFFFFFFFFFFFFFFFFFFFFFFFFFFFFFFFFFFFFF MUL NOT AND SWAP1 DUP4 PUSH20 0xFFFFFFFFFFFFFFFFFFFFFFFFFFFFFFFFFFFFFFFF AND MUL OR SWAP1 SSTORE POP PUSH0 PUSH1 0x5 DUP2 SWAP1 SSTORE POP POP PUSH2 0x106 JUMP JUMPDEST PUSH0 DUP1 REVERT JUMPDEST PUSH0 PUSH20 0xFFFFFFFFFFFFFFFFFFFFFFFFFFFFFFFFFFFFFFFF DUP3 AND SWAP1 POP SWAP2 SWAP1 POP JUMP JUMPDEST PUSH0 PUSH2 0xAA DUP3 PUSH2 0x81 JUMP JUMPDEST SWAP1 POP SWAP2 SWAP1 POP JUMP JUMPDEST PUSH2 0xBA DUP2 PUSH2 0xA0 JUMP JUMPDEST DUP2 EQ PUSH2 0xC4 JUMPI PUSH0 DUP1 REVERT JUMPDEST POP JUMP JUMPDEST PUSH0 DUP2 MLOAD SWAP1 POP PUSH2 0xD5 DUP2 PUSH2 0xB1 JUMP JUMPDEST SWAP3 SWAP2 POP POP JUMP JUMPDEST PUSH0 PUSH1 0x20 DUP3 DUP5 SUB SLT ISZERO PUSH2 0xF0 JUMPI PUSH2 0xEF PUSH2 0x7D JUMP JUMPDEST JUMPDEST PUSH0 PUSH2 0xFD DUP5 DUP3 DUP6 ADD PUSH2 0xC7 JUMP JUMPDEST SWAP2 POP POP SWAP3 SWAP2 POP POP JUMP JUMPDEST PUSH2 0x21C3 DUP1 PUSH2 0x113 PUSH0 CODECOPY PUSH0 RETURN INVALID PUSH1 0x80 PUSH1 0x40 MSTORE PUSH1 0x4 CALLDATASIZE LT PUSH2 0x9B JUMPI PUSH0 CALLDATALOAD PUSH1 0xE0 SHR DUP1 PUSH4 0x83588B99 GT PUSH2 0x63 JUMPI DUP1 PUSH4 0x83588B99 EQ PUSH2 0x196 JUMPI DUP1 PUSH4 0x9CD119E3 EQ PUSH2 0x1D2 JUMPI DUP1 PUSH4 0xA760E06A EQ PUSH2 0x1E8 JUMPI DUP1 PUSH4 0xC0B6F561 EQ PUSH2 0x204 JUMPI DUP1 PUSH4 0xC2EB05BA EQ PUSH2 0x240 JUMPI DUP1 PUSH4 0xCE606EE0 EQ PUSH2 0x26A JUMPI PUSH2 0x9B JUMP JUMPDEST DUP1 PUSH4 0x10731A65 EQ PUSH2 0x9F JUMPI DUP1 PUSH4 0x1A4B3311 EQ PUSH2 0xC9 JUMPI DUP1 PUSH4 0x1FB64DA0 EQ PUSH2 0x108 JUMPI DUP1 PUSH4 0x28B02A8D EQ PUSH2 0x144 JUMPI DUP1 PUSH4 0x73B298E2 EQ PUSH2 0x16E JUMPI JUMPDEST PUSH0 DUP1 REVERT JUMPDEST CALLVALUE DUP1 ISZERO PUSH2 0xAA JUMPI PUSH0 DUP1 REVERT JUMPDEST POP PUSH2 0xB3 PUSH2 0x294 JUMP JUMPDEST PUSH1 0x40 MLOAD PUSH2 0xC0 SWAP2 SWAP1 PUSH2 0x190E JUMP JUMPDEST PUSH1 0x40 MLOAD DUP1 SWAP2 SUB SWAP1 RETURN JUMPDEST CALLVALUE DUP1 ISZERO PUSH2 0xD4 JUMPI PUSH0 DUP1 REVERT JUMPDEST POP PUSH2 0xEF PUSH1 0x4 DUP1 CALLDATASIZE SUB DUP2 ADD SWAP1 PUSH2 0xEA SWAP2 SWAP1 PUSH2 0x1985 JUMP JUMPDEST PUSH2 0x42F JUMP JUMPDEST PUSH1 0x40 MLOAD PUSH2 0xFF SWAP5 SWAP4 SWAP3 SWAP2 SWAP1 PUSH2 0x1A4A JUMP JUMPDEST PUSH1 0x40 MLOAD DUP1 SWAP2 SUB SWAP1 RETURN JUMPDEST CALLVALUE DUP1 ISZERO PUSH2 0x113 JUMPI PUSH0 DUP1 REVERT JUMPDEST POP PUSH2 0x12E PUSH1 0x4 DUP1 CALLDATASIZE SUB DUP2 ADD SWAP1 PUSH2 0x129 SWAP2 SWAP1 PUSH2 0x1AB7 JUMP JUMPDEST PUSH2 0x486 JUMP JUMPDEST PUSH1 0x40 MLOAD PUSH2 0x13B SWAP2 SWAP1 PUSH2 0x1AF5 JUMP JUMPDEST PUSH1 0x40 MLOAD DUP1 SWAP2 SUB SWAP1 RETURN JUMPDEST CALLVALUE DUP1 ISZERO PUSH2 0x14F JUMPI PUSH0 DUP1 REVERT JUMPDEST POP PUSH2 0x158 PUSH2 0x4CE JUMP JUMPDEST PUSH1 0x40 MLOAD PUSH2 0x165 SWAP2 SWAP1 PUSH2 0x1B0E JUMP JUMPDEST PUSH1 0x40 MLOAD DUP1 SWAP2 SUB SWAP1 RETURN JUMPDEST CALLVALUE DUP1 ISZERO PUSH2 0x179 JUMPI PUSH0 DUP1 REVERT JUMPDEST POP PUSH2 0x194 PUSH1 0x4 DUP1 CALLDATASIZE SUB DUP2 ADD SWAP1 PUSH2 0x18F SWAP2 SWAP1 PUSH2 0x1B27 JUMP JUMPDEST PUSH2 0x4D4 JUMP JUMPDEST STOP JUMPDEST CALLVALUE DUP1 ISZERO PUSH2 0x1A1 JUMPI PUSH0 DUP1 REVERT JUMPDEST POP PUSH2 0x1BC PUSH1 0x4 DUP1 CALLDATASIZE SUB DUP2 ADD SWAP1 PUSH2 0x1B7 SWAP2 SWAP1 PUSH2 0x1AB7 JUMP JUMPDEST PUSH2 0x81D JUMP JUMPDEST PUSH1 0x40 MLOAD PUSH2 0x1C9 SWAP2 SWAP1 PUSH2 0x1AF5 JUMP JUMPDEST PUSH1 0x40 MLOAD DUP1 SWAP2 SUB SWAP1 RETURN JUMPDEST CALLVALUE DUP1 ISZERO PUSH2 0x1DD JUMPI PUSH0 DUP1 REVERT JUMPDEST POP PUSH2 0x1E6 PUSH2 0x865 JUMP JUMPDEST STOP JUMPDEST PUSH2 0x202 PUSH1 0x4 DUP1 CALLDATASIZE SUB DUP2 ADD SWAP1 PUSH2 0x1FD SWAP2 SWAP1 PUSH2 0x1B27 JUMP JUMPDEST PUSH2 0x90E JUMP JUMPDEST STOP JUMPDEST CALLVALUE DUP1 ISZERO PUSH2 0x20F JUMPI PUSH0 DUP1 REVERT JUMPDEST POP PUSH2 0x22A PUSH1 0x4 DUP1 CALLDATASIZE SUB DUP2 ADD SWAP1 PUSH2 0x225 SWAP2 SWAP1 PUSH2 0x1985 JUMP JUMPDEST PUSH2 0xAD7 JUMP JUMPDEST PUSH1 0x40 MLOAD PUSH2 0x237 SWAP2 SWAP1 PUSH2 0x190E JUMP JUMPDEST PUSH1 0x40 MLOAD DUP1 SWAP2 SUB SWAP1 RETURN JUMPDEST CALLVALUE DUP1 ISZERO PUSH2 0x24B JUMPI PUSH0 DUP1 REVERT JUMPDEST POP PUSH2 0x254 PUSH2 0xCBB JUMP JUMPDEST PUSH1 0x40 MLOAD PUSH2 0x261 SWAP2 SWAP1 PUSH2 0x1AF5 JUMP JUMPDEST PUSH1 0x40 MLOAD DUP1 SWAP2 SUB SWAP1 RETURN JUMPDEST CALLVALUE DUP1 ISZERO PUSH2 0x275 JUMPI PUSH0 DUP1 REVERT JUMPDEST POP PUSH2 0x27E PUSH2 0xCE0 JUMP JUMPDEST PUSH1 0x40 MLOAD PUSH2 0x28B SWAP2 SWAP1 PUSH2 0x1AF5 JUMP JUMPDEST PUSH1 0x40 MLOAD DUP1 SWAP2 SUB SWAP1 RETURN JUMPDEST PUSH0 PUSH1 0x1 PUSH0 SWAP1 SLOAD SWAP1 PUSH2 0x100 EXP SWAP1 DIV PUSH20 0xFFFFFFFFFFFFFFFFFFFFFFFFFFFFFFFFFFFFFFFF AND DUP1 PUSH20 0xFFFFFFFFFFFFFFFFFFFFFFFFFFFFFFFFFFFFFFFF AND CALLER PUSH20 0xFFFFFFFFFFFFFFFFFFFFFFFFFFFFFFFFFFFFFFFF AND EQ PUSH2 0x325 JUMPI PUSH1 0x40 MLOAD PUSH32 0x8C379A000000000000000000000000000000000000000000000000000000000 DUP2 MSTORE PUSH1 0x4 ADD PUSH2 0x31C SWAP1 PUSH2 0x1BD1 JUMP JUMPDEST PUSH1 0x40 MLOAD DUP1 SWAP2 SUB SWAP1 REVERT JUMPDEST PUSH1 0x1 PUSH0 SWAP1 SLOAD SWAP1 PUSH2 0x100 EXP SWAP1 DIV PUSH20 0xFFFFFFFFFFFFFFFFFFFFFFFFFFFFFFFFFFFFFFFF AND PUSH0 DUP1 PUSH2 0x100 EXP DUP2 SLOAD DUP2 PUSH20 0xFFFFFFFFFFFFFFFFFFFFFFFFFFFFFFFFFFFFFFFF MUL NOT AND SWAP1 DUP4 PUSH20 0xFFFFFFFFFFFFFFFFFFFFFFFFFFFFFFFFFFFFFFFF AND MUL OR SWAP1 SSTORE POP PUSH0 PUSH1 0x1 PUSH0 PUSH2 0x100 EXP DUP2 SLOAD DUP2 PUSH20 0xFFFFFFFFFFFFFFFFFFFFFFFFFFFFFFFFFFFFFFFF MUL NOT AND SWAP1 DUP4 PUSH20 0xFFFFFFFFFFFFFFFFFFFFFFFFFFFFFFFFFFFFFFFF AND MUL OR SWAP1 SSTORE POP PUSH0 DUP1 SLOAD SWAP1 PUSH2 0x100 EXP SWAP1 DIV PUSH20 0xFFFFFFFFFFFFFFFFFFFFFFFFFFFFFFFFFFFFFFFF AND PUSH20 0xFFFFFFFFFFFFFFFFFFFFFFFFFFFFFFFFFFFFFFFF AND PUSH32 0x41E8EE868CB815A7E5CD1A100E6FF024772D79C071718C049AB7D3BC4E1226D PUSH1 0x40 MLOAD PUSH1 0x40 MLOAD DUP1 SWAP2 SUB SWAP1 LOG2 PUSH1 0x1 SWAP2 POP POP SWAP1 JUMP JUMPDEST PUSH1 0x2 PUSH1 0x20 MSTORE DUP1 PUSH0 MSTORE PUSH1 0x40 PUSH0 KECCAK256 PUSH0 SWAP2 POP SWAP1 POP DUP1 PUSH0 ADD PUSH0 SWAP1 SLOAD SWAP1 PUSH2 0x100 EXP SWAP1 DIV PUSH20 0xFFFFFFFFFFFFFFFFFFFFFFFFFFFFFFFFFFFFFFFF AND SWAP1 DUP1 PUSH1 0x1 ADD SLOAD SWAP1 DUP1 PUSH1 0x2 ADD SLOAD SWAP1 DUP1 PUSH1 0x3 ADD PUSH0 SWAP1 SLOAD SWAP1 PUSH2 0x100 EXP SWAP1 DIV PUSH1 0xFF AND SWAP1 POP DUP5 JUMP JUMPDEST PUSH1 0x4 PUSH1 0x20 MSTORE DUP2 PUSH0 MSTORE PUSH1 0x40 PUSH0 KECCAK256 DUP2 DUP2 SLOAD DUP2 LT PUSH2 0x49F JUMPI PUSH0 DUP1 REVERT JUMPDEST SWAP1 PUSH0 MSTORE PUSH1 0x20 PUSH0 KECCAK256 ADD PUSH0 SWAP2 POP SWAP2 POP SWAP1 SLOAD SWAP1 PUSH2 0x100 EXP SWAP1 DIV PUSH20 0xFFFFFFFFFFFFFFFFFFFFFFFFFFFFFFFFFFFFFFFF AND DUP2 JUMP JUMPDEST PUSH1 0x5 SLOAD DUP2 JUMP JUMPDEST PUSH0 PUSH1 0x2 DUP2 GT ISZERO PUSH2 0x4E7 JUMPI PUSH2 0x4E6 PUSH2 0x19D7 JUMP JUMPDEST JUMPDEST PUSH1 0x2 PUSH0 CALLER PUSH20 0xFFFFFFFFFFFFFFFFFFFFFFFFFFFFFFFFFFFFFFFF AND PUSH20 0xFFFFFFFFFFFFFFFFFFFFFFFFFFFFFFFFFFFFFFFF AND DUP2 MSTORE PUSH1 0x20 ADD SWAP1 DUP2 MSTORE PUSH1 0x20 ADD PUSH0 KECCAK256 PUSH1 0x3 ADD PUSH0 SWAP1 SLOAD SWAP1 PUSH2 0x100 EXP SWAP1 DIV PUSH1 0xFF AND PUSH1 0x2 DUP2 GT ISZERO PUSH2 0x546 JUMPI PUSH2 0x545 PUSH2 0x19D7 JUMP JUMPDEST JUMPDEST EQ PUSH2 0x54F JUMPI PUSH0 DUP1 REVERT JUMPDEST DUP2 PUSH0 DUP2 SUB PUSH2 0x592 JUMPI PUSH1 0x40 MLOAD PUSH32 0x8C379A000000000000000000000000000000000000000000000000000000000 DUP2 MSTORE PUSH1 0x4 ADD PUSH2 0x589 SWAP1 PUSH2 0x1C39 JUMP JUMPDEST PUSH1 0x40 MLOAD DUP1 SWAP2 SUB SWAP1 REVERT JUMPDEST DUP2 PUSH0 DUP2 SUB PUSH2 0x5D5 JUMPI PUSH1 0x40 MLOAD PUSH32 0x8C379A000000000000000000000000000000000000000000000000000000000 DUP2 MSTORE PUSH1 0x4 ADD PUSH2 0x5CC SWAP1 PUSH2 0x1CA1 JUMP JUMPDEST PUSH1 0x40 MLOAD DUP1 SWAP2 SUB SWAP1 REVERT JUMPDEST DUP5 DUP5 DUP1 DUP3 PUSH20 0xFFFFFFFFFFFFFFFFFFFFFFFFFFFFFFFFFFFFFFFF AND PUSH4 0xDD62ED3E CALLER ADDRESS PUSH1 0x40 MLOAD DUP4 PUSH4 0xFFFFFFFF AND PUSH1 0xE0 SHL DUP2 MSTORE PUSH1 0x4 ADD PUSH2 0x613 SWAP3 SWAP2 SWAP1 PUSH2 0x1CBF JUMP JUMPDEST PUSH1 0x20 PUSH1 0x40 MLOAD DUP1 DUP4 SUB DUP2 DUP7 GAS STATICCALL ISZERO DUP1 ISZERO PUSH2 0x62E JUMPI RETURNDATASIZE PUSH0 DUP1 RETURNDATACOPY RETURNDATASIZE PUSH0 REVERT JUMPDEST POP POP POP POP PUSH1 0x40 MLOAD RETURNDATASIZE PUSH1 0x1F NOT PUSH1 0x1F DUP3 ADD AND DUP3 ADD DUP1 PUSH1 0x40 MSTORE POP DUP2 ADD SWAP1 PUSH2 0x652 SWAP2 SWAP1 PUSH2 0x1CFA JUMP JUMPDEST LT ISZERO PUSH2 0x65C JUMPI PUSH0 DUP1 REVERT JUMPDEST DUP7 DUP7 DUP1 DUP3 PUSH20 0xFFFFFFFFFFFFFFFFFFFFFFFFFFFFFFFFFFFFFFFF AND PUSH4 0x70A08231 CALLER PUSH1 0x40 MLOAD DUP3 PUSH4 0xFFFFFFFF AND PUSH1 0xE0 SHL DUP2 MSTORE PUSH1 0x4 ADD PUSH2 0x698 SWAP2 SWAP1 PUSH2 0x1AF5 JUMP JUMPDEST PUSH1 0x20 PUSH1 0x40 MLOAD DUP1 DUP4 SUB DUP2 DUP7 GAS STATICCALL ISZERO DUP1 ISZERO PUSH2 0x6B3 JUMPI RETURNDATASIZE PUSH0 DUP1 RETURNDATACOPY RETURNDATASIZE PUSH0 REVERT JUMPDEST POP POP POP POP PUSH1 0x40 MLOAD RETURNDATASIZE PUSH1 0x1F NOT PUSH1 0x1F DUP3 ADD AND DUP3 ADD DUP1 PUSH1 0x40 MSTORE POP DUP2 ADD SWAP1 PUSH2 0x6D7 SWAP2 SWAP1 PUSH2 0x1CFA JUMP JUMPDEST LT ISZERO PUSH2 0x6E1 JUMPI PUSH0 DUP1 REVERT JUMPDEST PUSH1 0x1 PUSH1 0x2 PUSH0 CALLER PUSH20 0xFFFFFFFFFFFFFFFFFFFFFFFFFFFFFFFFFFFFFFFF AND PUSH20 0xFFFFFFFFFFFFFFFFFFFFFFFFFFFFFFFFFFFFFFFF AND DUP2 MSTORE PUSH1 0x20 ADD SWAP1 DUP2 MSTORE PUSH1 0x20 ADD PUSH0 KECCAK256 PUSH1 0x3 ADD PUSH0 PUSH2 0x100 EXP DUP2 SLOAD DUP2 PUSH1 0xFF MUL NOT AND SWAP1 DUP4 PUSH1 0x2 DUP2 GT ISZERO PUSH2 0x744 JUMPI PUSH2 0x743 PUSH2 0x19D7 JUMP JUMPDEST JUMPDEST MUL OR SWAP1 SSTORE POP DUP9 PUSH20 0xFFFFFFFFFFFFFFFFFFFFFFFFFFFFFFFFFFFFFFFF AND PUSH4 0x23B872DD CALLER ADDRESS DUP12 PUSH1 0x40 MLOAD DUP5 PUSH4 0xFFFFFFFF AND PUSH1 0xE0 SHL DUP2 MSTORE PUSH1 0x4 ADD PUSH2 0x786 SWAP4 SWAP3 SWAP2 SWAP1 PUSH2 0x1D25 JUMP JUMPDEST PUSH1 0x20 PUSH1 0x40 MLOAD DUP1 DUP4 SUB DUP2 PUSH0 DUP8 GAS CALL ISZERO DUP1 ISZERO PUSH2 0x7A2 JUMPI RETURNDATASIZE PUSH0 DUP1 RETURNDATACOPY RETURNDATASIZE PUSH0 REVERT JUMPDEST POP POP POP POP PUSH1 0x40 MLOAD RETURNDATASIZE PUSH1 0x1F NOT PUSH1 0x1F DUP3 ADD AND DUP3 ADD DUP1 PUSH1 0x40 MSTORE POP DUP2 ADD SWAP1 PUSH2 0x7C6 SWAP2 SWAP1 PUSH2 0x1D84 JUMP JUMPDEST PUSH2 0x805 JUMPI PUSH1 0x40 MLOAD PUSH32 0x8C379A000000000000000000000000000000000000000000000000000000000 DUP2 MSTORE PUSH1 0x4 ADD PUSH2 0x7FC SWAP1 PUSH2 0x1E1F JUMP JUMPDEST PUSH1 0x40 MLOAD DUP1 SWAP2 SUB SWAP1 REVERT JUMPDEST PUSH2 0x812 DUP10 DUP10 DUP10 PUSH1 0x1 PUSH2 0xD03 JUMP JUMPDEST POP POP POP POP POP POP POP POP POP JUMP JUMPDEST PUSH1 0x3 PUSH1 0x20 MSTORE DUP2 PUSH0 MSTORE PUSH1 0x40 PUSH0 KECCAK256 DUP2 DUP2 SLOAD DUP2 LT PUSH2 0x836 JUMPI PUSH0 DUP1 REVERT JUMPDEST SWAP1 PUSH0 MSTORE PUSH1 0x20 PUSH0 KECCAK256 ADD PUSH0 SWAP2 POP SWAP2 POP SWAP1 SLOAD SWAP1 PUSH2 0x100 EXP SWAP1 DIV PUSH20 0xFFFFFFFFFFFFFFFFFFFFFFFFFFFFFFFFFFFFFFFF AND DUP2 JUMP JUMPDEST PUSH0 DUP1 SLOAD SWAP1 PUSH2 0x100 EXP SWAP1 DIV PUSH20 0xFFFFFFFFFFFFFFFFFFFFFFFFFFFFFFFFFFFFFFFF AND DUP1 PUSH20 0xFFFFFFFFFFFFFFFFFFFFFFFFFFFFFFFFFFFFFFFF AND CALLER PUSH20 0xFFFFFFFFFFFFFFFFFFFFFFFFFFFFFFFFFFFFFFFF AND EQ PUSH2 0x8F3 JUMPI PUSH1 0x40 MLOAD PUSH32 0x8C379A000000000000000000000000000000000000000000000000000000000 DUP2 MSTORE PUSH1 0x4 ADD PUSH2 0x8EA SWAP1 PUSH2 0x1BD1 JUMP JUMPDEST PUSH1 0x40 MLOAD DUP1 SWAP2 SUB SWAP1 REVERT JUMPDEST PUSH0 PUSH1 0x5 SLOAD SWAP1 POP PUSH0 PUSH1 0x5 DUP2 SWAP1 SSTORE POP PUSH2 0x90A CALLER DUP3 PUSH2 0x1055 JUMP JUMPDEST POP POP JUMP JUMPDEST PUSH0 PUSH1 0x2 DUP2 GT ISZERO PUSH2 0x921 JUMPI PUSH2 0x920 PUSH2 0x19D7 JUMP JUMPDEST JUMPDEST PUSH1 0x2 PUSH0 CALLER PUSH20 0xFFFFFFFFFFFFFFFFFFFFFFFFFFFFFFFFFFFFFFFF AND PUSH20 0xFFFFFFFFFFFFFFFFFFFFFFFFFFFFFFFFFFFFFFFF AND DUP2 MSTORE PUSH1 0x20 ADD SWAP1 DUP2 MSTORE PUSH1 0x20 ADD PUSH0 KECCAK256 PUSH1 0x3 ADD PUSH0 SWAP1 SLOAD SWAP1 PUSH2 0x100 EXP SWAP1 DIV PUSH1 0xFF AND PUSH1 0x2 DUP2 GT ISZERO PUSH2 0x980 JUMPI PUSH2 0x97F PUSH2 0x19D7 JUMP JUMPDEST JUMPDEST EQ PUSH2 0x989 JUMPI PUSH0 DUP1 REVERT JUMPDEST DUP2 PUSH0 DUP2 SUB PUSH2 0x9CC JUMPI PUSH1 0x40 MLOAD PUSH32 0x8C379A000000000000000000000000000000000000000000000000000000000 DUP2 MSTORE PUSH1 0x4 ADD PUSH2 0x9C3 SWAP1 PUSH2 0x1C39 JUMP JUMPDEST PUSH1 0x40 MLOAD DUP1 SWAP2 SUB SWAP1 REVERT JUMPDEST DUP2 PUSH0 DUP2 SUB PUSH2 0xA0F JUMPI PUSH1 0x40 MLOAD PUSH32 0x8C379A000000000000000000000000000000000000000000000000000000000 DUP2 MSTORE PUSH1 0x4 ADD PUSH2 0xA06 SWAP1 PUSH2 0x1CA1 JUMP JUMPDEST PUSH1 0x40 MLOAD DUP1 SWAP2 SUB SWAP1 REVERT JUMPDEST DUP3 DUP5 PUSH2 0xA1B SWAP2 SWAP1 PUSH2 0x1E6A JUMP JUMPDEST DUP1 CALLVALUE LT ISZERO PUSH2 0xA27 JUMPI PUSH0 DUP1 REVERT JUMPDEST DUP4 DUP6 PUSH2 0xA33 SWAP2 SWAP1 PUSH2 0x1E6A JUMP JUMPDEST CALLVALUE GT ISZERO PUSH2 0xA5B JUMPI PUSH2 0xA5A CALLER DUP6 DUP8 PUSH2 0xA4A SWAP2 SWAP1 PUSH2 0x1E6A JUMP JUMPDEST CALLVALUE PUSH2 0xA55 SWAP2 SWAP1 PUSH2 0x1EAB JUMP JUMPDEST PUSH2 0x1055 JUMP JUMPDEST JUMPDEST PUSH1 0x2 DUP1 PUSH0 CALLER PUSH20 0xFFFFFFFFFFFFFFFFFFFFFFFFFFFFFFFFFFFFFFFF AND PUSH20 0xFFFFFFFFFFFFFFFFFFFFFFFFFFFFFFFFFFFFFFFF AND DUP2 MSTORE PUSH1 0x20 ADD SWAP1 DUP2 MSTORE PUSH1 0x20 ADD PUSH0 KECCAK256 PUSH1 0x3 ADD PUSH0 PUSH2 0x100 EXP DUP2 SLOAD DUP2 PUSH1 0xFF MUL NOT AND SWAP1 DUP4 PUSH1 0x2 DUP2 GT ISZERO PUSH2 0xABD JUMPI PUSH2 0xABC PUSH2 0x19D7 JUMP JUMPDEST JUMPDEST MUL OR SWAP1 SSTORE POP PUSH2 0xACF DUP7 DUP7 DUP7 PUSH1 0x2 PUSH2 0xD03 JUMP JUMPDEST POP POP POP POP POP POP JUMP JUMPDEST PUSH0 DUP1 PUSH0 SWAP1 SLOAD SWAP1 PUSH2 0x100 EXP SWAP1 DIV PUSH20 0xFFFFFFFFFFFFFFFFFFFFFFFFFFFFFFFFFFFFFFFF AND DUP1 PUSH20 0xFFFFFFFFFFFFFFFFFFFFFFFFFFFFFFFFFFFFFFFF AND CALLER PUSH20 0xFFFFFFFFFFFFFFFFFFFFFFFFFFFFFFFFFFFFFFFF AND EQ PUSH2 0xB67 JUMPI PUSH1 0x40 MLOAD PUSH32 0x8C379A000000000000000000000000000000000000000000000000000000000 DUP2 MSTORE PUSH1 0x4 ADD PUSH2 0xB5E SWAP1 PUSH2 0x1BD1 JUMP JUMPDEST PUSH1 0x40 MLOAD DUP1 SWAP2 SUB SWAP1 REVERT JUMPDEST DUP3 DUP1 PUSH20 0xFFFFFFFFFFFFFFFFFFFFFFFFFFFFFFFFFFFFFFFF AND PUSH0 PUSH20 0xFFFFFFFFFFFFFFFFFFFFFFFFFFFFFFFFFFFFFFFF AND SUB PUSH2 0xBD6 JUMPI PUSH1 0x40 MLOAD PUSH32 0x8C379A000000000000000000000000000000000000000000000000000000000 DUP2 MSTORE PUSH1 0x4 ADD PUSH2 0xBCD SWAP1 PUSH2 0x1F4E JUMP JUMPDEST PUSH1 0x40 MLOAD DUP1 SWAP2 SUB SWAP1 REVERT JUMPDEST DUP4 PUSH1 0x1 PUSH0 PUSH2 0x100 EXP DUP2 SLOAD DUP2 PUSH20 0xFFFFFFFFFFFFFFFFFFFFFFFFFFFFFFFFFFFFFFFF MUL NOT AND SWAP1 DUP4 PUSH20 0xFFFFFFFFFFFFFFFFFFFFFFFFFFFFFFFFFFFFFFFF AND MUL OR SWAP1 SSTORE POP PUSH1 0x1 PUSH0 SWAP1 SLOAD SWAP1 PUSH2 0x100 EXP SWAP1 DIV PUSH20 0xFFFFFFFFFFFFFFFFFFFFFFFFFFFFFFFFFFFFFFFF AND PUSH20 0xFFFFFFFFFFFFFFFFFFFFFFFFFFFFFFFFFFFFFFFF AND PUSH0 DUP1 SLOAD SWAP1 PUSH2 0x100 EXP SWAP1 DIV PUSH20 0xFFFFFFFFFFFFFFFFFFFFFFFFFFFFFFFFFFFFFFFF AND PUSH20 0xFFFFFFFFFFFFFFFFFFFFFFFFFFFFFFFFFFFFFFFF AND PUSH32 0xFEE8BF98F40B2AC772A78CD4D45742484D3471F99046B224F8E6922E7C6EB1D2 PUSH1 0x40 MLOAD PUSH1 0x40 MLOAD DUP1 SWAP2 SUB SWAP1 LOG3 PUSH1 0x1 SWAP3 POP POP POP SWAP2 SWAP1 POP JUMP JUMPDEST PUSH1 0x1 PUSH0 SWAP1 SLOAD SWAP1 PUSH2 0x100 EXP SWAP1 DIV PUSH20 0xFFFFFFFFFFFFFFFFFFFFFFFFFFFFFFFFFFFFFFFF AND DUP2 JUMP JUMPDEST PUSH0 DUP1 SLOAD SWAP1 PUSH2 0x100 EXP SWAP1 DIV PUSH20 0xFFFFFFFFFFFFFFFFFFFFFFFFFFFFFFFFFFFFFFFF AND DUP2 JUMP JUMPDEST PUSH0 PUSH1 0x1 PUSH1 0x2 DUP2 GT ISZERO PUSH2 0xD18 JUMPI PUSH2 0xD17 PUSH2 0x19D7 JUMP JUMPDEST JUMPDEST DUP3 PUSH1 0x2 DUP2 GT ISZERO PUSH2 0xD2B JUMPI PUSH2 0xD2A PUSH2 0x19D7 JUMP JUMPDEST JUMPDEST EQ PUSH2 0xD72 JUMPI PUSH1 0x3 PUSH0 DUP7 PUSH20 0xFFFFFFFFFFFFFFFFFFFFFFFFFFFFFFFFFFFFFFFF AND PUSH20 0xFFFFFFFFFFFFFFFFFFFFFFFFFFFFFFFFFFFFFFFF AND DUP2 MSTORE PUSH1 0x20 ADD SWAP1 DUP2 MSTORE PUSH1 0x20 ADD PUSH0 KECCAK256 PUSH2 0xDB0 JUMP JUMPDEST PUSH1 0x4 PUSH0 DUP7 PUSH20 0xFFFFFFFFFFFFFFFFFFFFFFFFFFFFFFFFFFFFFFFF AND PUSH20 0xFFFFFFFFFFFFFFFFFFFFFFFFFFFFFFFFFFFFFFFF AND DUP2 MSTORE PUSH1 0x20 ADD SWAP1 DUP2 MSTORE PUSH1 0x20 ADD PUSH0 KECCAK256 JUMPDEST DUP1 SLOAD DUP1 PUSH1 0x20 MUL PUSH1 0x20 ADD PUSH1 0x40 MLOAD SWAP1 DUP2 ADD PUSH1 0x40 MSTORE DUP1 SWAP3 SWAP2 SWAP1 DUP2 DUP2 MSTORE PUSH1 0x20 ADD DUP3 DUP1 SLOAD DUP1 ISZERO PUSH2 0xE2D JUMPI PUSH1 0x20 MUL DUP3 ADD SWAP2 SWAP1 PUSH0 MSTORE PUSH1 0x20 PUSH0 KECCAK256 SWAP1 JUMPDEST DUP2 PUSH0 SWAP1 SLOAD SWAP1 PUSH2 0x100 EXP SWAP1 DIV PUSH20 0xFFFFFFFFFFFFFFFFFFFFFFFFFFFFFFFFFFFFFFFF AND PUSH20 0xFFFFFFFFFFFFFFFFFFFFFFFFFFFFFFFFFFFFFFFF AND DUP2 MSTORE PUSH1 0x20 ADD SWAP1 PUSH1 0x1 ADD SWAP1 DUP1 DUP4 GT PUSH2 0xDE4 JUMPI JUMPDEST POP POP POP POP POP SWAP1 POP PUSH0 DUP5 SWAP1 POP PUSH0 DUP3 MLOAD SWAP1 POP JUMPDEST PUSH0 DUP2 GT ISZERO PUSH2 0xFCB JUMPI PUSH0 PUSH1 0x2 PUSH0 DUP6 PUSH1 0x1 DUP6 PUSH2 0xE58 SWAP2 SWAP1 PUSH2 0x1EAB JUMP JUMPDEST DUP2 MLOAD DUP2 LT PUSH2 0xE69 JUMPI PUSH2 0xE68 PUSH2 0x1F6C JUMP JUMPDEST JUMPDEST PUSH1 0x20 MUL PUSH1 0x20 ADD ADD MLOAD PUSH20 0xFFFFFFFFFFFFFFFFFFFFFFFFFFFFFFFFFFFFFFFF AND PUSH20 0xFFFFFFFFFFFFFFFFFFFFFFFFFFFFFFFFFFFFFFFF AND DUP2 MSTORE PUSH1 0x20 ADD SWAP1 DUP2 MSTORE PUSH1 0x20 ADD PUSH0 KECCAK256 PUSH1 0x40 MLOAD DUP1 PUSH1 0x80 ADD PUSH1 0x40 MSTORE SWAP1 DUP2 PUSH0 DUP3 ADD PUSH0 SWAP1 SLOAD SWAP1 PUSH2 0x100 EXP SWAP1 DIV PUSH20 0xFFFFFFFFFFFFFFFFFFFFFFFFFFFFFFFFFFFFFFFF AND PUSH20 0xFFFFFFFFFFFFFFFFFFFFFFFFFFFFFFFFFFFFFFFF AND PUSH20 0xFFFFFFFFFFFFFFFFFFFFFFFFFFFFFFFFFFFFFFFF AND DUP2 MSTORE PUSH1 0x20 ADD PUSH1 0x1 DUP3 ADD SLOAD DUP2 MSTORE PUSH1 0x20 ADD PUSH1 0x2 DUP3 ADD SLOAD DUP2 MSTORE PUSH1 0x20 ADD PUSH1 0x3 DUP3 ADD PUSH0 SWAP1 SLOAD SWAP1 PUSH2 0x100 EXP SWAP1 DIV PUSH1 0xFF AND PUSH1 0x2 DUP2 GT ISZERO PUSH2 0xF41 JUMPI PUSH2 0xF40 PUSH2 0x19D7 JUMP JUMPDEST JUMPDEST PUSH1 0x2 DUP2 GT ISZERO PUSH2 0xF53 JUMPI PUSH2 0xF52 PUSH2 0x19D7 JUMP JUMPDEST JUMPDEST DUP2 MSTORE POP POP SWAP1 POP PUSH2 0xF63 DUP2 DUP8 PUSH2 0x1102 JUMP JUMPDEST ISZERO PUSH2 0xFB7 JUMPI PUSH2 0xFA7 DUP9 DUP6 PUSH1 0x1 DUP6 PUSH2 0xF7A SWAP2 SWAP1 PUSH2 0x1EAB JUMP JUMPDEST DUP2 MLOAD DUP2 LT PUSH2 0xF8B JUMPI PUSH2 0xF8A PUSH2 0x1F6C JUMP JUMPDEST JUMPDEST PUSH1 0x20 MUL PUSH1 0x20 ADD ADD MLOAD DUP6 PUSH1 0x1 DUP7 PUSH2 0xFA1 SWAP2 SWAP1 PUSH2 0x1EAB JUMP JUMPDEST DUP11 PUSH2 0x116B JUMP JUMPDEST SWAP3 POP PUSH0 DUP4 SUB PUSH2 0xFB6 JUMPI POP PUSH2 0xFCB JUMP JUMPDEST JUMPDEST POP DUP1 DUP1 PUSH2 0xFC3 SWAP1 PUSH2 0x1F99 JUMP JUMPDEST SWAP2 POP POP PUSH2 0xE3E JUMP JUMPDEST POP PUSH0 DUP2 GT ISZERO PUSH2 0xFE5 JUMPI PUSH2 0xFE0 DUP7 DUP3 DUP7 DUP7 PUSH2 0x150C JUMP JUMPDEST PUSH2 0x104D JUMP JUMPDEST PUSH0 PUSH1 0x2 PUSH0 CALLER PUSH20 0xFFFFFFFFFFFFFFFFFFFFFFFFFFFFFFFFFFFFFFFF AND PUSH20 0xFFFFFFFFFFFFFFFFFFFFFFFFFFFFFFFFFFFFFFFF AND DUP2 MSTORE PUSH1 0x20 ADD SWAP1 DUP2 MSTORE PUSH1 0x20 ADD PUSH0 KECCAK256 PUSH1 0x3 ADD PUSH0 PUSH2 0x100 EXP DUP2 SLOAD DUP2 PUSH1 0xFF MUL NOT AND SWAP1 DUP4 PUSH1 0x2 DUP2 GT ISZERO PUSH2 0x1047 JUMPI PUSH2 0x1046 PUSH2 0x19D7 JUMP JUMPDEST JUMPDEST MUL OR SWAP1 SSTORE POP JUMPDEST POP POP POP POP POP POP JUMP JUMPDEST PUSH0 DUP3 PUSH20 0xFFFFFFFFFFFFFFFFFFFFFFFFFFFFFFFFFFFFFFFF AND DUP3 PUSH1 0x40 MLOAD PUSH2 0x107A SWAP1 PUSH2 0x1FED JUMP JUMPDEST PUSH0 PUSH1 0x40 MLOAD DUP1 DUP4 SUB DUP2 DUP6 DUP8 GAS CALL SWAP3 POP POP POP RETURNDATASIZE DUP1 PUSH0 DUP2 EQ PUSH2 0x10B4 JUMPI PUSH1 0x40 MLOAD SWAP2 POP PUSH1 0x1F NOT PUSH1 0x3F RETURNDATASIZE ADD AND DUP3 ADD PUSH1 0x40 MSTORE RETURNDATASIZE DUP3 MSTORE RETURNDATASIZE PUSH0 PUSH1 0x20 DUP5 ADD RETURNDATACOPY PUSH2 0x10B9 JUMP JUMPDEST PUSH1 0x60 SWAP2 POP JUMPDEST POP POP SWAP1 POP DUP1 PUSH2 0x10FD JUMPI PUSH1 0x40 MLOAD PUSH32 0x8C379A000000000000000000000000000000000000000000000000000000000 DUP2 MSTORE PUSH1 0x4 ADD PUSH2 0x10F4 SWAP1 PUSH2 0x204B JUMP JUMPDEST PUSH1 0x40 MLOAD DUP1 SWAP2 SUB SWAP1 REVERT JUMPDEST POP POP POP JUMP JUMPDEST PUSH0 PUSH1 0x1 PUSH1 0x2 DUP2 GT ISZERO PUSH2 0x1117 JUMPI PUSH2 0x1116 PUSH2 0x19D7 JUMP JUMPDEST JUMPDEST DUP4 PUSH1 0x60 ADD MLOAD PUSH1 0x2 DUP2 GT ISZERO PUSH2 0x112E JUMPI PUSH2 0x112D PUSH2 0x19D7 JUMP JUMPDEST JUMPDEST SUB PUSH2 0x114C JUMPI DUP2 DUP4 PUSH1 0x40 ADD MLOAD GT PUSH2 0x1147 JUMPI PUSH1 0x1 SWAP1 POP PUSH2 0x1165 JUMP JUMPDEST PUSH2 0x1161 JUMP JUMPDEST DUP2 DUP4 PUSH1 0x40 ADD MLOAD LT PUSH2 0x1160 JUMPI PUSH1 0x1 SWAP1 POP PUSH2 0x1165 JUMP JUMPDEST JUMPDEST PUSH0 SWAP1 POP JUMPDEST SWAP3 SWAP2 POP POP JUMP JUMPDEST PUSH0 DUP1 PUSH1 0x2 PUSH0 DUP8 PUSH20 0xFFFFFFFFFFFFFFFFFFFFFFFFFFFFFFFFFFFFFFFF AND PUSH20 0xFFFFFFFFFFFFFFFFFFFFFFFFFFFFFFFFFFFFFFFF AND DUP2 MSTORE PUSH1 0x20 ADD SWAP1 DUP2 MSTORE PUSH1 0x20 ADD PUSH0 KECCAK256 SWAP1 POP PUSH0 DUP2 PUSH1 0x1 ADD SLOAD DUP7 LT PUSH2 0x11C2 JUMPI DUP2 PUSH1 0x1 ADD SLOAD PUSH2 0x11C4 JUMP JUMPDEST DUP6 JUMPDEST SWAP1 POP PUSH1 0x2 DUP1 DUP2 GT ISZERO PUSH2 0x11D9 JUMPI PUSH2 0x11D8 PUSH2 0x19D7 JUMP JUMPDEST JUMPDEST DUP3 PUSH1 0x3 ADD PUSH0 SWAP1 SLOAD SWAP1 PUSH2 0x100 EXP SWAP1 DIV PUSH1 0xFF AND PUSH1 0x2 DUP2 GT ISZERO PUSH2 0x11FC JUMPI PUSH2 0x11FB PUSH2 0x19D7 JUMP JUMPDEST JUMPDEST SUB PUSH2 0x1318 JUMPI DUP8 PUSH20 0xFFFFFFFFFFFFFFFFFFFFFFFFFFFFFFFFFFFFFFFF AND PUSH4 0xA9059CBB DUP9 DUP4 PUSH1 0x40 MLOAD DUP4 PUSH4 0xFFFFFFFF AND PUSH1 0xE0 SHL DUP2 MSTORE PUSH1 0x4 ADD PUSH2 0x123C SWAP3 SWAP2 SWAP1 PUSH2 0x2069 JUMP JUMPDEST PUSH1 0x20 PUSH1 0x40 MLOAD DUP1 DUP4 SUB DUP2 PUSH0 DUP8 GAS CALL ISZERO DUP1 ISZERO PUSH2 0x1258 JUMPI RETURNDATASIZE PUSH0 DUP1 RETURNDATACOPY RETURNDATASIZE PUSH0 REVERT JUMPDEST POP POP POP POP PUSH1 0x40 MLOAD RETURNDATASIZE PUSH1 0x1F NOT PUSH1 0x1F DUP3 ADD AND DUP3 ADD DUP1 PUSH1 0x40 MSTORE POP DUP2 ADD SWAP1 PUSH2 0x127C SWAP2 SWAP1 PUSH2 0x1D84 JUMP JUMPDEST PUSH2 0x12BB JUMPI PUSH1 0x40 MLOAD PUSH32 0x8C379A000000000000000000000000000000000000000000000000000000000 DUP2 MSTORE PUSH1 0x4 ADD PUSH2 0x12B2 SWAP1 PUSH2 0x20DA JUMP JUMPDEST PUSH1 0x40 MLOAD DUP1 SWAP2 SUB SWAP1 REVERT JUMPDEST PUSH2 0x12D4 CALLER DUP4 PUSH1 0x2 ADD SLOAD DUP4 PUSH2 0x12CF SWAP2 SWAP1 PUSH2 0x1E6A JUMP JUMPDEST PUSH2 0x1055 JUMP JUMPDEST DUP4 DUP3 PUSH1 0x2 ADD SLOAD GT ISZERO PUSH2 0x1313 JUMPI DUP1 DUP5 DUP4 PUSH1 0x2 ADD SLOAD PUSH2 0x12F1 SWAP2 SWAP1 PUSH2 0x1EAB JUMP JUMPDEST PUSH2 0x12FB SWAP2 SWAP1 PUSH2 0x1E6A JUMP JUMPDEST PUSH1 0x5 PUSH0 DUP3 DUP3 SLOAD PUSH2 0x130B SWAP2 SWAP1 PUSH2 0x20F8 JUMP JUMPDEST SWAP3 POP POP DUP2 SWAP1 SSTORE POP JUMPDEST PUSH2 0x142B JUMP JUMPDEST DUP8 PUSH20 0xFFFFFFFFFFFFFFFFFFFFFFFFFFFFFFFFFFFFFFFF AND PUSH4 0xA9059CBB CALLER DUP4 PUSH1 0x40 MLOAD DUP4 PUSH4 0xFFFFFFFF AND PUSH1 0xE0 SHL DUP2 MSTORE PUSH1 0x4 ADD PUSH2 0x1353 SWAP3 SWAP2 SWAP1 PUSH2 0x2069 JUMP JUMPDEST PUSH1 0x20 PUSH1 0x40 MLOAD DUP1 DUP4 SUB DUP2 PUSH0 DUP8 GAS CALL ISZERO DUP1 ISZERO PUSH2 0x136F JUMPI RETURNDATASIZE PUSH0 DUP1 RETURNDATACOPY RETURNDATASIZE PUSH0 REVERT JUMPDEST POP POP POP POP PUSH1 0x40 MLOAD RETURNDATASIZE PUSH1 0x1F NOT PUSH1 0x1F DUP3 ADD AND DUP3 ADD DUP1 PUSH1 0x40 MSTORE POP DUP2 ADD SWAP1 PUSH2 0x1393 SWAP2 SWAP1 PUSH2 0x1D84 JUMP JUMPDEST PUSH2 0x13D2 JUMPI PUSH1 0x40 MLOAD PUSH32 0x8C379A000000000000000000000000000000000000000000000000000000000 DUP2 MSTORE PUSH1 0x4 ADD PUSH2 0x13C9 SWAP1 PUSH2 0x20DA JUMP JUMPDEST PUSH1 0x40 MLOAD DUP1 SWAP2 SUB SWAP1 REVERT JUMPDEST PUSH2 0x13EB DUP8 DUP4 PUSH1 0x2 ADD SLOAD DUP4 PUSH2 0x13E6 SWAP2 SWAP1 PUSH2 0x1E6A JUMP JUMPDEST PUSH2 0x1055 JUMP JUMPDEST DUP4 DUP3 PUSH1 0x2 ADD SLOAD LT ISZERO PUSH2 0x142A JUMPI DUP1 DUP3 PUSH1 0x2 ADD SLOAD DUP6 PUSH2 0x1408 SWAP2 SWAP1 PUSH2 0x1EAB JUMP JUMPDEST PUSH2 0x1412 SWAP2 SWAP1 PUSH2 0x1E6A JUMP JUMPDEST PUSH1 0x5 PUSH0 DUP3 DUP3 SLOAD PUSH2 0x1422 SWAP2 SWAP1 PUSH2 0x20F8 JUMP JUMPDEST SWAP3 POP POP DUP2 SWAP1 SSTORE POP JUMPDEST JUMPDEST DUP1 DUP3 PUSH1 0x1 ADD PUSH0 DUP3 DUP3 SLOAD PUSH2 0x143E SWAP2 SWAP1 PUSH2 0x1EAB JUMP JUMPDEST SWAP3 POP POP DUP2 SWAP1 SSTORE POP CALLER PUSH20 0xFFFFFFFFFFFFFFFFFFFFFFFFFFFFFFFFFFFFFFFF AND DUP8 PUSH20 0xFFFFFFFFFFFFFFFFFFFFFFFFFFFFFFFFFFFFFFFF AND DUP10 PUSH20 0xFFFFFFFFFFFFFFFFFFFFFFFFFFFFFFFFFFFFFFFF AND PUSH32 0x1CE728F6A2703272EE2E07CF07FD21DDC592575A5B6774A529B595FDF56DD1A6 DUP6 PUSH1 0x3 ADD PUSH0 SWAP1 SLOAD SWAP1 PUSH2 0x100 EXP SWAP1 DIV PUSH1 0xFF AND DUP6 DUP8 PUSH1 0x2 ADD SLOAD PUSH1 0x40 MLOAD PUSH2 0x14D1 SWAP4 SWAP3 SWAP2 SWAP1 PUSH2 0x212B JUMP JUMPDEST PUSH1 0x40 MLOAD DUP1 SWAP2 SUB SWAP1 LOG4 PUSH0 DUP3 PUSH1 0x1 ADD SLOAD SUB PUSH2 0x14F0 JUMPI PUSH2 0x14EF DUP9 DUP4 DUP8 PUSH2 0x171E JUMP JUMPDEST JUMPDEST DUP1 DUP7 PUSH2 0x14FC SWAP2 SWAP1 PUSH2 0x1EAB JUMP JUMPDEST SWAP6 POP DUP6 SWAP3 POP POP POP SWAP6 SWAP5 POP POP POP POP POP JUMP JUMPDEST PUSH0 PUSH1 0x1 PUSH1 0x2 DUP2 GT ISZERO PUSH2 0x1521 JUMPI PUSH2 0x1520 PUSH2 0x19D7 JUMP JUMPDEST JUMPDEST DUP3 PUSH1 0x2 DUP2 GT ISZERO PUSH2 0x1534 JUMPI PUSH2 0x1533 PUSH2 0x19D7 JUMP JUMPDEST JUMPDEST SUB PUSH2 0x157B JUMPI PUSH1 0x3 PUSH0 DUP7 PUSH20 0xFFFFFFFFFFFFFFFFFFFFFFFFFFFFFFFFFFFFFFFF AND PUSH20 0xFFFFFFFFFFFFFFFFFFFFFFFFFFFFFFFFFFFFFFFF AND DUP2 MSTORE PUSH1 0x20 ADD SWAP1 DUP2 MSTORE PUSH1 0x20 ADD PUSH0 KECCAK256 PUSH2 0x15B9 JUMP JUMPDEST PUSH1 0x4 PUSH0 DUP7 PUSH20 0xFFFFFFFFFFFFFFFFFFFFFFFFFFFFFFFFFFFFFFFF AND PUSH20 0xFFFFFFFFFFFFFFFFFFFFFFFFFFFFFFFFFFFFFFFF AND DUP2 MSTORE PUSH1 0x20 ADD SWAP1 DUP2 MSTORE PUSH1 0x20 ADD PUSH0 KECCAK256 JUMPDEST SWAP1 POP DUP1 CALLER SWAP1 DUP1 PUSH1 0x1 DUP2 SLOAD ADD DUP1 DUP3 SSTORE DUP1 SWAP2 POP POP PUSH1 0x1 SWAP1 SUB SWAP1 PUSH0 MSTORE PUSH1 0x20 PUSH0 KECCAK256 ADD PUSH0 SWAP1 SWAP2 SWAP1 SWAP2 SWAP1 SWAP2 PUSH2 0x100 EXP DUP2 SLOAD DUP2 PUSH20 0xFFFFFFFFFFFFFFFFFFFFFFFFFFFFFFFFFFFFFFFF MUL NOT AND SWAP1 DUP4 PUSH20 0xFFFFFFFFFFFFFFFFFFFFFFFFFFFFFFFFFFFFFFFF AND MUL OR SWAP1 SSTORE POP PUSH0 PUSH1 0x2 PUSH0 CALLER PUSH20 0xFFFFFFFFFFFFFFFFFFFFFFFFFFFFFFFFFFFFFFFF AND PUSH20 0xFFFFFFFFFFFFFFFFFFFFFFFFFFFFFFFFFFFFFFFF AND DUP2 MSTORE PUSH1 0x20 ADD SWAP1 DUP2 MSTORE PUSH1 0x20 ADD PUSH0 KECCAK256 SWAP1 POP DUP6 DUP2 PUSH0 ADD PUSH0 PUSH2 0x100 EXP DUP2 SLOAD DUP2 PUSH20 0xFFFFFFFFFFFFFFFFFFFFFFFFFFFFFFFFFFFFFFFF MUL NOT AND SWAP1 DUP4 PUSH20 0xFFFFFFFFFFFFFFFFFFFFFFFFFFFFFFFFFFFFFFFF AND MUL OR SWAP1 SSTORE POP DUP5 DUP2 PUSH1 0x1 ADD DUP2 SWAP1 SSTORE POP DUP4 DUP2 PUSH1 0x2 ADD DUP2 SWAP1 SSTORE POP CALLER PUSH20 0xFFFFFFFFFFFFFFFFFFFFFFFFFFFFFFFFFFFFFFFF AND DUP7 PUSH20 0xFFFFFFFFFFFFFFFFFFFFFFFFFFFFFFFFFFFFFFFF AND PUSH32 0xBA9E7B0A1A964FEA173E3888FFBCBE410FCA9A481F92CF8FC8B76A1B70F31D68 DUP6 DUP9 DUP9 PUSH1 0x40 MLOAD PUSH2 0x170E SWAP4 SWAP3 SWAP2 SWAP1 PUSH2 0x212B JUMP JUMPDEST PUSH1 0x40 MLOAD DUP1 SWAP2 SUB SWAP1 LOG3 POP POP POP POP POP POP JUMP JUMPDEST PUSH0 PUSH1 0x1 PUSH1 0x2 DUP2 GT ISZERO PUSH2 0x1733 JUMPI PUSH2 0x1732 PUSH2 0x19D7 JUMP JUMPDEST JUMPDEST DUP4 PUSH1 0x3 ADD PUSH0 SWAP1 SLOAD SWAP1 PUSH2 0x100 EXP SWAP1 DIV PUSH1 0xFF AND PUSH1 0x2 DUP2 GT ISZERO PUSH2 0x1756 JUMPI PUSH2 0x1755 PUSH2 0x19D7 JUMP JUMPDEST JUMPDEST EQ PUSH2 0x179D JUMPI PUSH1 0x4 PUSH0 DUP6 PUSH20 0xFFFFFFFFFFFFFFFFFFFFFFFFFFFFFFFFFFFFFFFF AND PUSH20 0xFFFFFFFFFFFFFFFFFFFFFFFFFFFFFFFFFFFFFFFF AND DUP2 MSTORE PUSH1 0x20 ADD SWAP1 DUP2 MSTORE PUSH1 0x20 ADD PUSH0 KECCAK256 PUSH2 0x17DB JUMP JUMPDEST PUSH1 0x3 PUSH0 DUP6 PUSH20 0xFFFFFFFFFFFFFFFFFFFFFFFFFFFFFFFFFFFFFFFF AND PUSH20 0xFFFFFFFFFFFFFFFFFFFFFFFFFFFFFFFFFFFFFFFF AND DUP2 MSTORE PUSH1 0x20 ADD SWAP1 DUP2 MSTORE PUSH1 0x20 ADD PUSH0 KECCAK256 JUMPDEST SWAP1 POP DUP1 PUSH1 0x1 DUP3 DUP1 SLOAD SWAP1 POP PUSH2 0x17EF SWAP2 SWAP1 PUSH2 0x1EAB JUMP JUMPDEST DUP2 SLOAD DUP2 LT PUSH2 0x1800 JUMPI PUSH2 0x17FF PUSH2 0x1F6C JUMP JUMPDEST JUMPDEST SWAP1 PUSH0 MSTORE PUSH1 0x20 PUSH0 KECCAK256 ADD PUSH0 SWAP1 SLOAD SWAP1 PUSH2 0x100 EXP SWAP1 DIV PUSH20 0xFFFFFFFFFFFFFFFFFFFFFFFFFFFFFFFFFFFFFFFF AND DUP2 DUP4 DUP2 SLOAD DUP2 LT PUSH2 0x183B JUMPI PUSH2 0x183A PUSH2 0x1F6C JUMP JUMPDEST JUMPDEST SWAP1 PUSH0 MSTORE PUSH1 0x20 PUSH0 KECCAK256 ADD PUSH0 PUSH2 0x100 EXP DUP2 SLOAD DUP2 PUSH20 0xFFFFFFFFFFFFFFFFFFFFFFFFFFFFFFFFFFFFFFFF MUL NOT AND SWAP1 DUP4 PUSH20 0xFFFFFFFFFFFFFFFFFFFFFFFFFFFFFFFFFFFFFFFF AND MUL OR SWAP1 SSTORE POP DUP1 DUP1 SLOAD DUP1 PUSH2 0x1891 JUMPI PUSH2 0x1890 PUSH2 0x2160 JUMP JUMPDEST JUMPDEST PUSH1 0x1 SWAP1 SUB DUP2 DUP2 SWAP1 PUSH0 MSTORE PUSH1 0x20 PUSH0 KECCAK256 ADD PUSH0 PUSH2 0x100 EXP DUP2 SLOAD SWAP1 PUSH20 0xFFFFFFFFFFFFFFFFFFFFFFFFFFFFFFFFFFFFFFFF MUL NOT AND SWAP1 SSTORE SWAP1 SSTORE PUSH0 DUP4 PUSH1 0x3 ADD PUSH0 PUSH2 0x100 EXP DUP2 SLOAD DUP2 PUSH1 0xFF MUL NOT AND SWAP1 DUP4 PUSH1 0x2 DUP2 GT ISZERO PUSH2 0x18E9 JUMPI PUSH2 0x18E8 PUSH2 0x19D7 JUMP JUMPDEST JUMPDEST MUL OR SWAP1 SSTORE POP POP POP POP POP JUMP JUMPDEST PUSH0 DUP2 ISZERO ISZERO SWAP1 POP SWAP2 SWAP1 POP JUMP JUMPDEST PUSH2 0x1908 DUP2 PUSH2 0x18F4 JUMP JUMPDEST DUP3 MSTORE POP POP JUMP JUMPDEST PUSH0 PUSH1 0x20 DUP3 ADD SWAP1 POP PUSH2 0x1921 PUSH0 DUP4 ADD DUP5 PUSH2 0x18FF JUMP JUMPDEST SWAP3 SWAP2 POP POP JUMP JUMPDEST PUSH0 DUP1 REVERT JUMPDEST PUSH0 PUSH20 0xFFFFFFFFFFFFFFFFFFFFFFFFFFFFFFFFFFFFFFFF DUP3 AND SWAP1 POP SWAP2 SWAP1 POP JUMP JUMPDEST PUSH0 PUSH2 0x1954 DUP3 PUSH2 0x192B JUMP JUMPDEST SWAP1 POP SWAP2 SWAP1 POP JUMP JUMPDEST PUSH2 0x1964 DUP2 PUSH2 0x194A JUMP JUMPDEST DUP2 EQ PUSH2 0x196E JUMPI PUSH0 DUP1 REVERT JUMPDEST POP JUMP JUMPDEST PUSH0 DUP2 CALLDATALOAD SWAP1 POP PUSH2 0x197F DUP2 PUSH2 0x195B JUMP JUMPDEST SWAP3 SWAP2 POP POP JUMP JUMPDEST PUSH0 PUSH1 0x20 DUP3 DUP5 SUB SLT ISZERO PUSH2 0x199A JUMPI PUSH2 0x1999 PUSH2 0x1927 JUMP JUMPDEST JUMPDEST PUSH0 PUSH2 0x19A7 DUP5 DUP3 DUP6 ADD PUSH2 0x1971 JUMP JUMPDEST SWAP2 POP POP SWAP3 SWAP2 POP POP JUMP JUMPDEST PUSH2 0x19B9 DUP2 PUSH2 0x194A JUMP JUMPDEST DUP3 MSTORE POP POP JUMP JUMPDEST PUSH0 DUP2 SWAP1 POP SWAP2 SWAP1 POP JUMP JUMPDEST PUSH2 0x19D1 DUP2 PUSH2 0x19BF JUMP JUMPDEST DUP3 MSTORE POP POP JUMP JUMPDEST PUSH32 0x4E487B7100000000000000000000000000000000000000000000000000000000 PUSH0 MSTORE PUSH1 0x21 PUSH1 0x4 MSTORE PUSH1 0x24 PUSH0 REVERT JUMPDEST PUSH1 0x3 DUP2 LT PUSH2 0x1A15 JUMPI PUSH2 0x1A14 PUSH2 0x19D7 JUMP JUMPDEST JUMPDEST POP JUMP JUMPDEST PUSH0 DUP2 SWAP1 POP PUSH2 0x1A25 DUP3 PUSH2 0x1A04 JUMP JUMPDEST SWAP2 SWAP1 POP JUMP JUMPDEST PUSH0 PUSH2 0x1A34 DUP3 PUSH2 0x1A18 JUMP JUMPDEST SWAP1 POP SWAP2 SWAP1 POP JUMP JUMPDEST PUSH2 0x1A44 DUP2 PUSH2 0x1A2A JUMP JUMPDEST DUP3 MSTORE POP POP JUMP JUMPDEST PUSH0 PUSH1 0x80 DUP3 ADD SWAP1 POP PUSH2 0x1A5D PUSH0 DUP4 ADD DUP8 PUSH2 0x19B0 JUMP JUMPDEST PUSH2 0x1A6A PUSH1 0x20 DUP4 ADD DUP7 PUSH2 0x19C8 JUMP JUMPDEST PUSH2 0x1A77 PUSH1 0x40 DUP4 ADD DUP6 PUSH2 0x19C8 JUMP JUMPDEST PUSH2 0x1A84 PUSH1 0x60 DUP4 ADD DUP5 PUSH2 0x1A3B JUMP JUMPDEST SWAP6 SWAP5 POP POP POP POP POP JUMP JUMPDEST PUSH2 0x1A96 DUP2 PUSH2 0x19BF JUMP JUMPDEST DUP2 EQ PUSH2 0x1AA0 JUMPI PUSH0 DUP1 REVERT JUMPDEST POP JUMP JUMPDEST PUSH0 DUP2 CALLDATALOAD SWAP1 POP PUSH2 0x1AB1 DUP2 PUSH2 0x1A8D JUMP JUMPDEST SWAP3 SWAP2 POP POP JUMP JUMPDEST PUSH0 DUP1 PUSH1 0x40 DUP4 DUP6 SUB SLT ISZERO PUSH2 0x1ACD JUMPI PUSH2 0x1ACC PUSH2 0x1927 JUMP JUMPDEST JUMPDEST PUSH0 PUSH2 0x1ADA DUP6 DUP3 DUP7 ADD PUSH2 0x1971 JUMP JUMPDEST SWAP3 POP POP PUSH1 0x20 PUSH2 0x1AEB DUP6 DUP3 DUP7 ADD PUSH2 0x1AA3 JUMP JUMPDEST SWAP2 POP POP SWAP3 POP SWAP3 SWAP1 POP JUMP JUMPDEST PUSH0 PUSH1 0x20 DUP3 ADD SWAP1 POP PUSH2 0x1B08 PUSH0 DUP4 ADD DUP5 PUSH2 0x19B0 JUMP JUMPDEST SWAP3 SWAP2 POP POP JUMP JUMPDEST PUSH0 PUSH1 0x20 DUP3 ADD SWAP1 POP PUSH2 0x1B21 PUSH0 DUP4 ADD DUP5 PUSH2 0x19C8 JUMP JUMPDEST SWAP3 SWAP2 POP POP JUMP JUMPDEST PUSH0 DUP1 PUSH0 PUSH1 0x60 DUP5 DUP7 SUB SLT ISZERO PUSH2 0x1B3E JUMPI PUSH2 0x1B3D PUSH2 0x1927 JUMP JUMPDEST JUMPDEST PUSH0 PUSH2 0x1B4B DUP7 DUP3 DUP8 ADD PUSH2 0x1971 JUMP JUMPDEST SWAP4 POP POP PUSH1 0x20 PUSH2 0x1B5C DUP7 DUP3 DUP8 ADD PUSH2 0x1AA3 JUMP JUMPDEST SWAP3 POP POP PUSH1 0x40 PUSH2 0x1B6D DUP7 DUP3 DUP8 ADD PUSH2 0x1AA3 JUMP JUMPDEST SWAP2 POP POP SWAP3 POP SWAP3 POP SWAP3 JUMP JUMPDEST PUSH0 DUP3 DUP3 MSTORE PUSH1 0x20 DUP3 ADD SWAP1 POP SWAP3 SWAP2 POP POP JUMP JUMPDEST PUSH32 0x43616C6C6572206973206E6F7420617574686F72697A65640000000000000000 PUSH0 DUP3 ADD MSTORE POP JUMP JUMPDEST PUSH0 PUSH2 0x1BBB PUSH1 0x18 DUP4 PUSH2 0x1B77 JUMP JUMPDEST SWAP2 POP PUSH2 0x1BC6 DUP3 PUSH2 0x1B87 JUMP JUMPDEST PUSH1 0x20 DUP3 ADD SWAP1 POP SWAP2 SWAP1 POP JUMP JUMPDEST PUSH0 PUSH1 0x20 DUP3 ADD SWAP1 POP DUP2 DUP2 SUB PUSH0 DUP4 ADD MSTORE PUSH2 0x1BE8 DUP2 PUSH2 0x1BAF JUMP JUMPDEST SWAP1 POP SWAP2 SWAP1 POP JUMP JUMPDEST PUSH32 0x416D6F756E74206D7573742062652067726561746572207468616E207A65726F PUSH0 DUP3 ADD MSTORE POP JUMP JUMPDEST PUSH0 PUSH2 0x1C23 PUSH1 0x20 DUP4 PUSH2 0x1B77 JUMP JUMPDEST SWAP2 POP PUSH2 0x1C2E DUP3 PUSH2 0x1BEF JUMP JUMPDEST PUSH1 0x20 DUP3 ADD SWAP1 POP SWAP2 SWAP1 POP JUMP JUMPDEST PUSH0 PUSH1 0x20 DUP3 ADD SWAP1 POP DUP2 DUP2 SUB PUSH0 DUP4 ADD MSTORE PUSH2 0x1C50 DUP2 PUSH2 0x1C17 JUMP JUMPDEST SWAP1 POP SWAP2 SWAP1 POP JUMP JUMPDEST PUSH32 0x5072696365206D7573742062652067726561746572207468616E207A65726F00 PUSH0 DUP3 ADD MSTORE POP JUMP JUMPDEST PUSH0 PUSH2 0x1C8B PUSH1 0x1F DUP4 PUSH2 0x1B77 JUMP JUMPDEST SWAP2 POP PUSH2 0x1C96 DUP3 PUSH2 0x1C57 JUMP JUMPDEST PUSH1 0x20 DUP3 ADD SWAP1 POP SWAP2 SWAP1 POP JUMP JUMPDEST PUSH0 PUSH1 0x20 DUP3 ADD SWAP1 POP DUP2 DUP2 SUB PUSH0 DUP4 ADD MSTORE PUSH2 0x1CB8 DUP2 PUSH2 0x1C7F JUMP JUMPDEST SWAP1 POP SWAP2 SWAP1 POP JUMP JUMPDEST PUSH0 PUSH1 0x40 DUP3 ADD SWAP1 POP PUSH2 0x1CD2 PUSH0 DUP4 ADD DUP6 PUSH2 0x19B0 JUMP JUMPDEST PUSH2 0x1CDF PUSH1 0x20 DUP4 ADD DUP5 PUSH2 0x19B0 JUMP JUMPDEST SWAP4 SWAP3 POP POP POP JUMP JUMPDEST PUSH0 DUP2 MLOAD SWAP1 POP PUSH2 0x1CF4 DUP2 PUSH2 0x1A8D JUMP JUMPDEST SWAP3 SWAP2 POP POP JUMP JUMPDEST PUSH0 PUSH1 0x20 DUP3 DUP5 SUB SLT ISZERO PUSH2 0x1D0F JUMPI PUSH2 0x1D0E PUSH2 0x1927 JUMP JUMPDEST JUMPDEST PUSH0 PUSH2 0x1D1C DUP5 DUP3 DUP6 ADD PUSH2 0x1CE6 JUMP JUMPDEST SWAP2 POP POP SWAP3 SWAP2 POP POP JUMP JUMPDEST PUSH0 PUSH1 0x60 DUP3 ADD SWAP1 POP PUSH2 0x1D38 PUSH0 DUP4 ADD DUP7 PUSH2 0x19B0 JUMP JUMPDEST PUSH2 0x1D45 PUSH1 0x20 DUP4 ADD DUP6 PUSH2 0x19B0 JUMP JUMPDEST PUSH2 0x1D52 PUSH1 0x40 DUP4 ADD DUP5 PUSH2 0x19C8 JUMP JUMPDEST SWAP5 SWAP4 POP POP POP POP JUMP JUMPDEST PUSH2 0x1D63 DUP2 PUSH2 0x18F4 JUMP JUMPDEST DUP2 EQ PUSH2 0x1D6D JUMPI PUSH0 DUP1 REVERT JUMPDEST POP JUMP JUMPDEST PUSH0 DUP2 MLOAD SWAP1 POP PUSH2 0x1D7E DUP2 PUSH2 0x1D5A JUMP JUMPDEST SWAP3 SWAP2 POP POP JUMP JUMPDEST PUSH0 PUSH1 0x20 DUP3 DUP5 SUB SLT ISZERO PUSH2 0x1D99 JUMPI PUSH2 0x1D98 PUSH2 0x1927 JUMP JUMPDEST JUMPDEST PUSH0 PUSH2 0x1DA6 DUP5 DUP3 DUP6 ADD PUSH2 0x1D70 JUMP JUMPDEST SWAP2 POP POP SWAP3 SWAP2 POP POP JUMP JUMPDEST PUSH32 0x546F6B656E207472616E7366657220746F2065786368616E6765206661696C65 PUSH0 DUP3 ADD MSTORE PUSH32 0x6400000000000000000000000000000000000000000000000000000000000000 PUSH1 0x20 DUP3 ADD MSTORE POP JUMP JUMPDEST PUSH0 PUSH2 0x1E09 PUSH1 0x21 DUP4 PUSH2 0x1B77 JUMP JUMPDEST SWAP2 POP PUSH2 0x1E14 DUP3 PUSH2 0x1DAF JUMP JUMPDEST PUSH1 0x40 DUP3 ADD SWAP1 POP SWAP2 SWAP1 POP JUMP JUMPDEST PUSH0 PUSH1 0x20 DUP3 ADD SWAP1 POP DUP2 DUP2 SUB PUSH0 DUP4 ADD MSTORE PUSH2 0x1E36 DUP2 PUSH2 0x1DFD JUMP JUMPDEST SWAP1 POP SWAP2 SWAP1 POP JUMP JUMPDEST PUSH32 0x4E487B7100000000000000000000000000000000000000000000000000000000 PUSH0 MSTORE PUSH1 0x11 PUSH1 0x4 MSTORE PUSH1 0x24 PUSH0 REVERT JUMPDEST PUSH0 PUSH2 0x1E74 DUP3 PUSH2 0x19BF JUMP JUMPDEST SWAP2 POP PUSH2 0x1E7F DUP4 PUSH2 0x19BF JUMP JUMPDEST SWAP3 POP DUP3 DUP3 MUL PUSH2 0x1E8D DUP2 PUSH2 0x19BF JUMP JUMPDEST SWAP2 POP DUP3 DUP3 DIV DUP5 EQ DUP4 ISZERO OR PUSH2 0x1EA4 JUMPI PUSH2 0x1EA3 PUSH2 0x1E3D JUMP JUMPDEST JUMPDEST POP SWAP3 SWAP2 POP POP JUMP JUMPDEST PUSH0 PUSH2 0x1EB5 DUP3 PUSH2 0x19BF JUMP JUMPDEST SWAP2 POP PUSH2 0x1EC0 DUP4 PUSH2 0x19BF JUMP JUMPDEST SWAP3 POP DUP3 DUP3 SUB SWAP1 POP DUP2 DUP2 GT ISZERO PUSH2 0x1ED8 JUMPI PUSH2 0x1ED7 PUSH2 0x1E3D JUMP JUMPDEST JUMPDEST SWAP3 SWAP2 POP POP JUMP JUMPDEST PUSH32 0x5472616E7366657220746F20746865207A65726F206164647265737320697320 PUSH0 DUP3 ADD MSTORE PUSH32 0x6E6F7420616C6C6F776564000000000000000000000000000000000000000000 PUSH1 0x20 DUP3 ADD MSTORE POP JUMP JUMPDEST PUSH0 PUSH2 0x1F38 PUSH1 0x2B DUP4 PUSH2 0x1B77 JUMP JUMPDEST SWAP2 POP PUSH2 0x1F43 DUP3 PUSH2 0x1EDE JUMP JUMPDEST PUSH1 0x40 DUP3 ADD SWAP1 POP SWAP2 SWAP1 POP JUMP JUMPDEST PUSH0 PUSH1 0x20 DUP3 ADD SWAP1 POP DUP2 DUP2 SUB PUSH0 DUP4 ADD MSTORE PUSH2 0x1F65 DUP2 PUSH2 0x1F2C JUMP JUMPDEST SWAP1 POP SWAP2 SWAP1 POP JUMP JUMPDEST PUSH32 0x4E487B7100000000000000000000000000000000000000000000000000000000 PUSH0 MSTORE PUSH1 0x32 PUSH1 0x4 MSTORE PUSH1 0x24 PUSH0 REVERT JUMPDEST PUSH0 PUSH2 0x1FA3 DUP3 PUSH2 0x19BF JUMP JUMPDEST SWAP2 POP PUSH0 DUP3 SUB PUSH2 0x1FB5 JUMPI PUSH2 0x1FB4 PUSH2 0x1E3D JUMP JUMPDEST JUMPDEST PUSH1 0x1 DUP3 SUB SWAP1 POP SWAP2 SWAP1 POP JUMP JUMPDEST PUSH0 DUP2 SWAP1 POP SWAP3 SWAP2 POP POP JUMP JUMPDEST POP JUMP JUMPDEST PUSH0 PUSH2 0x1FD8 PUSH0 DUP4 PUSH2 0x1FC0 JUMP JUMPDEST SWAP2 POP PUSH2 0x1FE3 DUP3 PUSH2 0x1FCA JUMP JUMPDEST PUSH0 DUP3 ADD SWAP1 POP SWAP2 SWAP1 POP JUMP JUMPDEST PUSH0 PUSH2 0x1FF7 DUP3 PUSH2 0x1FCD JUMP JUMPDEST SWAP2 POP DUP2 SWAP1 POP SWAP2 SWAP1 POP JUMP JUMPDEST PUSH32 0x4661696C656420746F2073656E64204574686572000000000000000000000000 PUSH0 DUP3 ADD MSTORE POP JUMP JUMPDEST PUSH0 PUSH2 0x2035 PUSH1 0x14 DUP4 PUSH2 0x1B77 JUMP JUMPDEST SWAP2 POP PUSH2 0x2040 DUP3 PUSH2 0x2001 JUMP JUMPDEST PUSH1 0x20 DUP3 ADD SWAP1 POP SWAP2 SWAP1 POP JUMP JUMPDEST PUSH0 PUSH1 0x20 DUP3 ADD SWAP1 POP DUP2 DUP2 SUB PUSH0 DUP4 ADD MSTORE PUSH2 0x2062 DUP2 PUSH2 0x2029 JUMP JUMPDEST SWAP1 POP SWAP2 SWAP1 POP JUMP JUMPDEST PUSH0 PUSH1 0x40 DUP3 ADD SWAP1 POP PUSH2 0x207C PUSH0 DUP4 ADD DUP6 PUSH2 0x19B0 JUMP JUMPDEST PUSH2 0x2089 PUSH1 0x20 DUP4 ADD DUP5 PUSH2 0x19C8 JUMP JUMPDEST SWAP4 SWAP3 POP POP POP JUMP JUMPDEST PUSH32 0x546F6B656E207472616E7366657220746F206275796572206661696C65640000 PUSH0 DUP3 ADD MSTORE POP JUMP JUMPDEST PUSH0 PUSH2 0x20C4 PUSH1 0x1E DUP4 PUSH2 0x1B77 JUMP JUMPDEST SWAP2 POP PUSH2 0x20CF DUP3 PUSH2 0x2090 JUMP JUMPDEST PUSH1 0x20 DUP3 ADD SWAP1 POP SWAP2 SWAP1 POP JUMP JUMPDEST PUSH0 PUSH1 0x20 DUP3 ADD SWAP1 POP DUP2 DUP2 SUB PUSH0 DUP4 ADD MSTORE PUSH2 0x20F1 DUP2 PUSH2 0x20B8 JUMP JUMPDEST SWAP1 POP SWAP2 SWAP1 POP JUMP JUMPDEST PUSH0 PUSH2 0x2102 DUP3 PUSH2 0x19BF JUMP JUMPDEST SWAP2 POP PUSH2 0x210D DUP4 PUSH2 0x19BF JUMP JUMPDEST SWAP3 POP DUP3 DUP3 ADD SWAP1 POP DUP1 DUP3 GT ISZERO PUSH2 0x2125 JUMPI PUSH2 0x2124 PUSH2 0x1E3D JUMP JUMPDEST JUMPDEST SWAP3 SWAP2 POP POP JUMP JUMPDEST PUSH0 PUSH1 0x60 DUP3 ADD SWAP1 POP PUSH2 0x213E PUSH0 DUP4 ADD DUP7 PUSH2 0x1A3B JUMP JUMPDEST PUSH2 0x214B PUSH1 0x20 DUP4 ADD DUP6 PUSH2 0x19C8 JUMP JUMPDEST PUSH2 0x2158 PUSH1 0x40 DUP4 ADD DUP5 PUSH2 0x19C8 JUMP JUMPDEST SWAP5 SWAP4 POP POP POP POP JUMP JUMPDEST PUSH32 0x4E487B7100000000000000000000000000000000000000000000000000000000 PUSH0 MSTORE PUSH1 0x31 PUSH1 0x4 MSTORE PUSH1 0x24 PUSH0 REVERT INVALID LOG2 PUSH5 0x6970667358 0x22 SLT KECCAK256 0xDB PUSH11 0x82E8B71821F6D8E7CDF385 SHL LOG3 JUMPDEST 0xC2 SWAP9 PUSH29 0x2923310BE97E7A1A593F8DCAE364736F6C634300081900330000000000 "
				},
				"gasEstimates": {
					"creation": {
						"codeDepositCost": "1728600",
						"executionCost": "infinite",
						"totalCost": "infinite"
					},
					"external": {
						"Requests(address)": "infinite",
						"buyRequest(address,uint256,uint256)": "infinite",
						"buyRequestants(address,uint256)": "infinite",
						"claimPriceMismatchEthFees()": "infinite",
						"claimTokenOwnership()": "56472",
						"contractOwner()": "2615",
						"initiateOwnershipTransfer(address)": "33004",
						"nextContractOwner()": "2596",
						"priceMismatchEthFees()": "2492",
						"sellRequest(address,uint256,uint256)": "infinite",
						"sellRequestants(address,uint256)": "infinite"
					},
					"internal": {
						"addRequest(address,uint256,uint256,enum Exchange.RequestTypes)": "infinite",
						"executeRequests(address,address,uint256,uint256,uint256)": "infinite",
						"matchRequests(address,uint256,uint256,enum Exchange.RequestTypes)": "infinite",
						"priceCheck(struct Exchange.UserRequest memory,uint256)": "infinite",
						"removeRequest(address,struct Exchange.UserRequest storage pointer,uint256)": "infinite",
						"sendEther(address payable,uint256)": "infinite"
					}
				},
				"methodIdentifiers": {
					"Requests(address)": "1a4b3311",
					"buyRequest(address,uint256,uint256)": "a760e06a",
					"buyRequestants(address,uint256)": "1fb64da0",
					"claimPriceMismatchEthFees()": "9cd119e3",
					"claimTokenOwnership()": "10731a65",
					"contractOwner()": "ce606ee0",
					"initiateOwnershipTransfer(address)": "c0b6f561",
					"nextContractOwner()": "c2eb05ba",
					"priceMismatchEthFees()": "28b02a8d",
					"sellRequest(address,uint256,uint256)": "73b298e2",
					"sellRequestants(address,uint256)": "83588b99"
				}
			},
			"storageLayout": {
				"storage": [
					{
						"astId": 4,
						"contract": "src/Exchange.sol:Exchange",
						"label": "contractOwner",
						"offset": 0,
						"slot": "0",
						"type": "t_address"
					},
					{
						"astId": 6,
						"contract": "src/Exchange.sol:Exchange",
						"label": "nextContractOwner",
						"offset": 0,
						"slot": "1",
						"type": "t_address"
					},
					{
						"astId": 11,
						"contract": "src/Exchange.sol:Exchange",
						"label": "Requests",
						"offset": 0,
						"slot": "2",
						"type": "t_mapping(t_address,t_struct(UserRequest)37_storage)"
					},
					{
						"astId": 16,
						"contract": "src/Exchange.sol:Exchange",
						"label": "sellRequestants",
						"offset": 0,
						"slot": "3",
						"type": "t_mapping(t_address,t_array(t_address)dyn_storage)"
					},
					{
						"astId": 21,
						"contract": "src/Exchange.sol:Exchange",
						"label": "buyRequestants",
						"offset": 0,
						"slot": "4",
						"type": "t_mapping(t_address,t_array(t_address)dyn_storage)"
					},
					{
						"astId": 23,
						"contract": "src/Exchange.sol:Exchange",
						"label": "priceMismatchEthFees",
						"offset": 0,
						"slot": "5",
						"type": "t_uint256"
					}
				],
				"types": {
					"t_address": {
						"encoding": "inplace",
						"label": "address",
						"numberOfBytes": "20"
					},
					"t_array(t_address)dyn_storage": {
						"base": "t_address",
						"encoding": "dynamic_array",
						"label": "address[]",
						"numberOfBytes": "32"
					},
					"t_enum(RequestTypes)27": {
						"encoding": "inplace",
						"label": "enum Exchange.RequestTypes",
						"numberOfBytes": "1"
					},
					"t_mapping(t_address,t_array(t_address)dyn_storage)": {
						"encoding": "mapping",
						"key": "t_address",
						"label": "mapping(address => address[])",
						"numberOfBytes": "32",
						"value": "t_array(t_address)dyn_storage"
					},
					"t_mapping(t_address,t_struct(UserRequest)37_storage)": {
						"encoding": "mapping",
						"key": "t_address",
						"label": "mapping(address => struct Exchange.UserRequest)",
						"numberOfBytes": "32",
						"value": "t_struct(UserRequest)37_storage"
					},
					"t_struct(UserRequest)37_storage": {
						"encoding": "inplace",
						"label": "struct Exchange.UserRequest",
						"members": [
							{
								"astId": 29,
								"contract": "src/Exchange.sol:Exchange",
								"label": "tokenAddress",
								"offset": 0,
								"slot": "0",
								"type": "t_address"
							},
							{
								"astId": 31,
								"contract": "src/Exchange.sol:Exchange",
								"label": "amount",
								"offset": 0,
								"slot": "1",
								"type": "t_uint256"
							},
							{
								"astId": 33,
								"contract": "src/Exchange.sol:Exchange",
								"label": "coinPrice",
								"offset": 0,
								"slot": "2",
								"type": "t_uint256"
							},
							{
								"astId": 36,
								"contract": "src/Exchange.sol:Exchange",
								"label": "Type",
								"offset": 0,
								"slot": "3",
								"type": "t_enum(RequestTypes)27"
							}
						],
						"numberOfBytes": "128"
					},
					"t_uint256": {
						"encoding": "inplace",
						"label": "uint256",
						"numberOfBytes": "32"
					}
				}
			},
			"userdoc": {
				"kind": "user",
				"methods": {},
				"version": 1
			}
		}
	}
}