{
	"src/exchange.sol": {
		"exchange": {
			"abi": [
				{
					"inputs": [
						{
							"internalType": "address",
							"name": "_owner",
							"type": "address"
						}
					],
					"stateMutability": "nonpayable",
					"type": "constructor"
				},
				{
					"anonymous": false,
					"inputs": [
						{
							"indexed": true,
							"internalType": "address",
							"name": "newContractOwner",
							"type": "address"
						}
					],
					"name": "ContractOwnershipTransferFinished",
					"type": "event"
				},
				{
					"anonymous": false,
					"inputs": [
						{
							"indexed": true,
							"internalType": "address",
							"name": "from",
							"type": "address"
						},
						{
							"indexed": true,
							"internalType": "address",
							"name": "to",
							"type": "address"
						}
					],
					"name": "ContractOwnershipTransferStarted",
					"type": "event"
				},
				{
					"anonymous": false,
					"inputs": [
						{
							"indexed": true,
							"internalType": "address",
							"name": "tokenAddress",
							"type": "address"
						},
						{
							"indexed": true,
							"internalType": "address",
							"name": "requestor",
							"type": "address"
						},
						{
							"indexed": false,
							"internalType": "enum exchange.RequestTypes",
							"name": "Type",
							"type": "uint8"
						},
						{
							"indexed": false,
							"internalType": "uint256",
							"name": "amount",
							"type": "uint256"
						},
						{
							"indexed": false,
							"internalType": "uint256",
							"name": "tokenPrice",
							"type": "uint256"
						}
					],
					"name": "RequestCreated",
					"type": "event"
				},
				{
					"anonymous": false,
					"inputs": [
						{
							"indexed": true,
							"internalType": "address",
							"name": "tokenAddress",
							"type": "address"
						},
						{
							"indexed": true,
							"internalType": "address",
							"name": "requestor",
							"type": "address"
						},
						{
							"indexed": true,
							"internalType": "address",
							"name": "counterparty",
							"type": "address"
						},
						{
							"indexed": false,
							"internalType": "enum exchange.RequestTypes",
							"name": "Type",
							"type": "uint8"
						},
						{
							"indexed": false,
							"internalType": "uint256",
							"name": "amount",
							"type": "uint256"
						},
						{
							"indexed": false,
							"internalType": "uint256",
							"name": "tokenPrice",
							"type": "uint256"
						}
					],
					"name": "RequestExecuted",
					"type": "event"
				},
				{
					"inputs": [
						{
							"internalType": "address",
							"name": "coinAddress",
							"type": "address"
						},
						{
							"internalType": "uint256",
							"name": "amount",
							"type": "uint256"
						},
						{
							"internalType": "uint256",
							"name": "coinPrice",
							"type": "uint256"
						}
					],
					"name": "buyRequest",
					"outputs": [],
					"stateMutability": "payable",
					"type": "function"
				},
				{
					"inputs": [
						{
							"internalType": "address",
							"name": "",
							"type": "address"
						},
						{
							"internalType": "uint256",
							"name": "",
							"type": "uint256"
						}
					],
					"name": "buyRequestants",
					"outputs": [
						{
							"internalType": "address",
							"name": "",
							"type": "address"
						}
					],
					"stateMutability": "view",
					"type": "function"
				},
				{
					"inputs": [],
					"name": "claimTokenOwnership",
					"outputs": [
						{
							"internalType": "bool",
							"name": "",
							"type": "bool"
						}
					],
					"stateMutability": "nonpayable",
					"type": "function"
				},
				{
					"inputs": [],
					"name": "contractOwner",
					"outputs": [
						{
							"internalType": "address",
							"name": "",
							"type": "address"
						}
					],
					"stateMutability": "view",
					"type": "function"
				},
				{
					"inputs": [],
					"name": "nextContractOwner",
					"outputs": [
						{
							"internalType": "address",
							"name": "",
							"type": "address"
						}
					],
					"stateMutability": "view",
					"type": "function"
				},
				{
					"inputs": [],
					"name": "priceMismatchEthFees",
					"outputs": [
						{
							"internalType": "uint256",
							"name": "",
							"type": "uint256"
						}
					],
					"stateMutability": "view",
					"type": "function"
				},
				{
					"inputs": [
						{
							"internalType": "address",
							"name": "",
							"type": "address"
						},
						{
							"internalType": "uint256",
							"name": "",
							"type": "uint256"
						}
					],
					"name": "priceMismatchTokenFees",
					"outputs": [
						{
							"internalType": "uint256",
							"name": "",
							"type": "uint256"
						}
					],
					"stateMutability": "view",
					"type": "function"
				},
				{
					"inputs": [
						{
							"internalType": "address",
							"name": "tokenAddress",
							"type": "address"
						},
						{
							"internalType": "uint256",
							"name": "amount",
							"type": "uint256"
						},
						{
							"internalType": "uint256",
							"name": "coinPrice",
							"type": "uint256"
						}
					],
					"name": "sellRequest",
					"outputs": [],
					"stateMutability": "nonpayable",
					"type": "function"
				},
				{
					"inputs": [
						{
							"internalType": "address",
							"name": "",
							"type": "address"
						},
						{
							"internalType": "uint256",
							"name": "",
							"type": "uint256"
						}
					],
					"name": "sellRequestants",
					"outputs": [
						{
							"internalType": "address",
							"name": "",
							"type": "address"
						}
					],
					"stateMutability": "view",
					"type": "function"
				},
				{
					"inputs": [
						{
							"internalType": "address",
							"name": "_nextContractOwner",
							"type": "address"
						}
					],
					"name": "transferContractOwnership",
					"outputs": [
						{
							"internalType": "bool",
							"name": "",
							"type": "bool"
						}
					],
					"stateMutability": "nonpayable",
					"type": "function"
				},
				{
					"inputs": [
						{
							"internalType": "address",
							"name": "",
							"type": "address"
						}
					],
					"name": "users",
					"outputs": [
						{
							"components": [
								{
									"internalType": "address",
									"name": "tokenAddress",
									"type": "address"
								},
								{
									"internalType": "uint256",
									"name": "amount",
									"type": "uint256"
								},
								{
									"internalType": "uint256",
									"name": "coinPrice",
									"type": "uint256"
								},
								{
									"internalType": "uint256",
									"name": "time",
									"type": "uint256"
								},
								{
									"internalType": "enum exchange.RequestTypes",
									"name": "Type",
									"type": "uint8"
								}
							],
							"internalType": "struct exchange.UserRequest",
							"name": "Request",
							"type": "tuple"
						}
					],
					"stateMutability": "view",
					"type": "function"
				}
			],
			"devdoc": {
				"kind": "dev",
				"methods": {},
				"version": 1
			},
			"evm": {
				"assembly": "    /* \"src/exchange.sol\":133:8823  contract exchange{... */\n  mstore(0x40, 0x80)\n    /* \"src/exchange.sol\":2735:2838  constructor(address _owner){... */\n  callvalue\n  dup1\n  iszero\n  tag_1\n  jumpi\n  0x00\n  dup1\n  revert\ntag_1:\n  pop\n  mload(0x40)\n  sub(codesize, bytecodeSize)\n  dup1\n  bytecodeSize\n  dup4\n  codecopy\n  dup2\n  dup2\n  add\n  0x40\n  mstore\n  dup2\n  add\n  swap1\n  tag_2\n  swap2\n  swap1\n  tag_3\n  jump\t// in\ntag_2:\n    /* \"src/exchange.sol\":2789:2795  _owner */\n  dup1\n    /* \"src/exchange.sol\":2773:2786  contractOwner */\n  0x00\n  dup1\n    /* \"src/exchange.sol\":2773:2795  contractOwner = _owner */\n  0x0100\n  exp\n  dup2\n  sload\n  dup2\n  0xffffffffffffffffffffffffffffffffffffffff\n  mul\n  not\n  and\n  swap1\n  dup4\n  0xffffffffffffffffffffffffffffffffffffffff\n  and\n  mul\n  or\n  swap1\n  sstore\n  pop\n    /* \"src/exchange.sol\":2829:2830  0 */\n  0x00\n    /* \"src/exchange.sol\":2806:2826  priceMismatchEthFees */\n  0x06\n    /* \"src/exchange.sol\":2806:2830  priceMismatchEthFees = 0 */\n  dup2\n  swap1\n  sstore\n  pop\n    /* \"src/exchange.sol\":2735:2838  constructor(address _owner){... */\n  pop\n    /* \"src/exchange.sol\":133:8823  contract exchange{... */\n  jump(tag_6)\n    /* \"#utility.yul\":88:205   */\ntag_8:\n    /* \"#utility.yul\":197:198   */\n  0x00\n    /* \"#utility.yul\":194:195   */\n  dup1\n    /* \"#utility.yul\":187:199   */\n  revert\n    /* \"#utility.yul\":334:460   */\ntag_10:\n    /* \"#utility.yul\":371:378   */\n  0x00\n    /* \"#utility.yul\":411:453   */\n  0xffffffffffffffffffffffffffffffffffffffff\n    /* \"#utility.yul\":404:409   */\n  dup3\n    /* \"#utility.yul\":400:454   */\n  and\n    /* \"#utility.yul\":389:454   */\n  swap1\n  pop\n    /* \"#utility.yul\":334:460   */\n  swap2\n  swap1\n  pop\n  jump\t// out\n    /* \"#utility.yul\":466:562   */\ntag_11:\n    /* \"#utility.yul\":503:510   */\n  0x00\n    /* \"#utility.yul\":532:556   */\n  tag_20\n    /* \"#utility.yul\":550:555   */\n  dup3\n    /* \"#utility.yul\":532:556   */\n  tag_10\n  jump\t// in\ntag_20:\n    /* \"#utility.yul\":521:556   */\n  swap1\n  pop\n    /* \"#utility.yul\":466:562   */\n  swap2\n  swap1\n  pop\n  jump\t// out\n    /* \"#utility.yul\":568:690   */\ntag_12:\n    /* \"#utility.yul\":641:665   */\n  tag_22\n    /* \"#utility.yul\":659:664   */\n  dup2\n    /* \"#utility.yul\":641:665   */\n  tag_11\n  jump\t// in\ntag_22:\n    /* \"#utility.yul\":634:639   */\n  dup2\n    /* \"#utility.yul\":631:666   */\n  eq\n    /* \"#utility.yul\":621:684   */\n  tag_23\n  jumpi\n    /* \"#utility.yul\":680:681   */\n  0x00\n    /* \"#utility.yul\":677:678   */\n  dup1\n    /* \"#utility.yul\":670:682   */\n  revert\n    /* \"#utility.yul\":621:684   */\ntag_23:\n    /* \"#utility.yul\":568:690   */\n  pop\n  jump\t// out\n    /* \"#utility.yul\":696:839   */\ntag_13:\n    /* \"#utility.yul\":753:758   */\n  0x00\n    /* \"#utility.yul\":784:790   */\n  dup2\n    /* \"#utility.yul\":778:791   */\n  mload\n    /* \"#utility.yul\":769:791   */\n  swap1\n  pop\n    /* \"#utility.yul\":800:833   */\n  tag_25\n    /* \"#utility.yul\":827:832   */\n  dup2\n    /* \"#utility.yul\":800:833   */\n  tag_12\n  jump\t// in\ntag_25:\n    /* \"#utility.yul\":696:839   */\n  swap3\n  swap2\n  pop\n  pop\n  jump\t// out\n    /* \"#utility.yul\":845:1196   */\ntag_3:\n    /* \"#utility.yul\":915:921   */\n  0x00\n    /* \"#utility.yul\":964:966   */\n  0x20\n    /* \"#utility.yul\":952:961   */\n  dup3\n    /* \"#utility.yul\":943:950   */\n  dup5\n    /* \"#utility.yul\":939:962   */\n  sub\n    /* \"#utility.yul\":935:967   */\n  slt\n    /* \"#utility.yul\":932:1051   */\n  iszero\n  tag_27\n  jumpi\n    /* \"#utility.yul\":970:1049   */\n  tag_28\n  tag_8\n  jump\t// in\ntag_28:\n    /* \"#utility.yul\":932:1051   */\ntag_27:\n    /* \"#utility.yul\":1090:1091   */\n  0x00\n    /* \"#utility.yul\":1115:1179   */\n  tag_29\n    /* \"#utility.yul\":1171:1178   */\n  dup5\n    /* \"#utility.yul\":1162:1168   */\n  dup3\n    /* \"#utility.yul\":1151:1160   */\n  dup6\n    /* \"#utility.yul\":1147:1169   */\n  add\n    /* \"#utility.yul\":1115:1179   */\n  tag_13\n  jump\t// in\ntag_29:\n    /* \"#utility.yul\":1105:1179   */\n  swap2\n  pop\n    /* \"#utility.yul\":1061:1189   */\n  pop\n    /* \"#utility.yul\":845:1196   */\n  swap3\n  swap2\n  pop\n  pop\n  jump\t// out\n    /* \"src/exchange.sol\":133:8823  contract exchange{... */\ntag_6:\n  dataSize(sub_0)\n  dup1\n  dataOffset(sub_0)\n  0x00\n  codecopy\n  0x00\n  return\nstop\n\nsub_0: assembly {\n        /* \"src/exchange.sol\":133:8823  contract exchange{... */\n      mstore(0x40, 0x80)\n      jumpi(tag_1, lt(calldatasize, 0x04))\n      shr(0xe0, calldataload(0x00))\n      dup1\n      0x83588b99\n      gt\n      tag_13\n      jumpi\n      dup1\n      0x83588b99\n      eq\n      tag_7\n      jumpi\n      dup1\n      0xa760e06a\n      eq\n      tag_8\n      jumpi\n      dup1\n      0xa843c51f\n      eq\n      tag_9\n      jumpi\n      dup1\n      0xa87430ba\n      eq\n      tag_10\n      jumpi\n      dup1\n      0xc2eb05ba\n      eq\n      tag_11\n      jumpi\n      dup1\n      0xce606ee0\n      eq\n      tag_12\n      jumpi\n      jump(tag_1)\n    tag_13:\n      dup1\n      0x10731a65\n      eq\n      tag_2\n      jumpi\n      dup1\n      0x1fb64da0\n      eq\n      tag_3\n      jumpi\n      dup1\n      0x28b02a8d\n      eq\n      tag_4\n      jumpi\n      dup1\n      0x4aaa2acb\n      eq\n      tag_5\n      jumpi\n      dup1\n      0x73b298e2\n      eq\n      tag_6\n      jumpi\n    tag_1:\n      0x00\n      dup1\n      revert\n        /* \"src/exchange.sol\":3383:3670  function claimTokenOwnership() external ... */\n    tag_2:\n      callvalue\n      dup1\n      iszero\n      tag_14\n      jumpi\n      0x00\n      dup1\n      revert\n    tag_14:\n      pop\n      tag_15\n      tag_16\n      jump\t// in\n    tag_15:\n      mload(0x40)\n      tag_17\n      swap2\n      swap1\n      tag_18\n      jump\t// in\n    tag_17:\n      mload(0x40)\n      dup1\n      swap2\n      sub\n      swap1\n      return\n        /* \"src/exchange.sol\":463:514  mapping(address => address[]) public buyRequestants */\n    tag_3:\n      callvalue\n      dup1\n      iszero\n      tag_19\n      jumpi\n      0x00\n      dup1\n      revert\n    tag_19:\n      pop\n      tag_20\n      0x04\n      dup1\n      calldatasize\n      sub\n      dup2\n      add\n      swap1\n      tag_21\n      swap2\n      swap1\n      tag_22\n      jump\t// in\n    tag_21:\n      tag_23\n      jump\t// in\n    tag_20:\n      mload(0x40)\n      tag_24\n      swap2\n      swap1\n      tag_25\n      jump\t// in\n    tag_24:\n      mload(0x40)\n      dup1\n      swap2\n      sub\n      swap1\n      return\n        /* \"src/exchange.sol\":595:630  uint256 public priceMismatchEthFees */\n    tag_4:\n      callvalue\n      dup1\n      iszero\n      tag_26\n      jumpi\n      0x00\n      dup1\n      revert\n    tag_26:\n      pop\n      tag_27\n      tag_28\n      jump\t// in\n    tag_27:\n      mload(0x40)\n      tag_29\n      swap2\n      swap1\n      tag_30\n      jump\t// in\n    tag_29:\n      mload(0x40)\n      dup1\n      swap2\n      sub\n      swap1\n      return\n        /* \"src/exchange.sol\":523:582  mapping(address => uint256[]) public priceMismatchTokenFees */\n    tag_5:\n      callvalue\n      dup1\n      iszero\n      tag_31\n      jumpi\n      0x00\n      dup1\n      revert\n    tag_31:\n      pop\n      tag_32\n      0x04\n      dup1\n      calldatasize\n      sub\n      dup2\n      add\n      swap1\n      tag_33\n      swap2\n      swap1\n      tag_22\n      jump\t// in\n    tag_33:\n      tag_34\n      jump\t// in\n    tag_32:\n      mload(0x40)\n      tag_35\n      swap2\n      swap1\n      tag_30\n      jump\t// in\n    tag_35:\n      mload(0x40)\n      dup1\n      swap2\n      sub\n      swap1\n      return\n        /* \"src/exchange.sol\":3734:4228  function sellRequest(address tokenAddress, uint256 amount, uint256 coinPrice) external ... */\n    tag_6:\n      callvalue\n      dup1\n      iszero\n      tag_36\n      jumpi\n      0x00\n      dup1\n      revert\n    tag_36:\n      pop\n      tag_37\n      0x04\n      dup1\n      calldatasize\n      sub\n      dup2\n      add\n      swap1\n      tag_38\n      swap2\n      swap1\n      tag_39\n      jump\t// in\n    tag_38:\n      tag_40\n      jump\t// in\n    tag_37:\n      stop\n        /* \"src/exchange.sol\":404:456  mapping(address => address[]) public sellRequestants */\n    tag_7:\n      callvalue\n      dup1\n      iszero\n      tag_41\n      jumpi\n      0x00\n      dup1\n      revert\n    tag_41:\n      pop\n      tag_42\n      0x04\n      dup1\n      calldatasize\n      sub\n      dup2\n      add\n      swap1\n      tag_43\n      swap2\n      swap1\n      tag_22\n      jump\t// in\n    tag_43:\n      tag_44\n      jump\t// in\n    tag_42:\n      mload(0x40)\n      tag_45\n      swap2\n      swap1\n      tag_25\n      jump\t// in\n    tag_45:\n      mload(0x40)\n      dup1\n      swap2\n      sub\n      swap1\n      return\n        /* \"src/exchange.sol\":4236:4649  function buyRequest(address coinAddress, uint256 amount, uint256 coinPrice) public payable ... */\n    tag_8:\n      tag_46\n      0x04\n      dup1\n      calldatasize\n      sub\n      dup2\n      add\n      swap1\n      tag_47\n      swap2\n      swap1\n      tag_39\n      jump\t// in\n    tag_47:\n      tag_48\n      jump\t// in\n    tag_46:\n      stop\n        /* \"src/exchange.sol\":2944:3284  function transferContractOwnership(address _nextContractOwner) external ... */\n    tag_9:\n      callvalue\n      dup1\n      iszero\n      tag_49\n      jumpi\n      0x00\n      dup1\n      revert\n    tag_49:\n      pop\n      tag_50\n      0x04\n      dup1\n      calldatasize\n      sub\n      dup2\n      add\n      swap1\n      tag_51\n      swap2\n      swap1\n      tag_52\n      jump\t// in\n    tag_51:\n      tag_53\n      jump\t// in\n    tag_50:\n      mload(0x40)\n      tag_54\n      swap2\n      swap1\n      tag_18\n      jump\t// in\n    tag_54:\n      mload(0x40)\n      dup1\n      swap2\n      sub\n      swap1\n      return\n        /* \"src/exchange.sol\":296:333  mapping(address => User) public users */\n    tag_10:\n      callvalue\n      dup1\n      iszero\n      tag_55\n      jumpi\n      0x00\n      dup1\n      revert\n    tag_55:\n      pop\n      tag_56\n      0x04\n      dup1\n      calldatasize\n      sub\n      dup2\n      add\n      swap1\n      tag_57\n      swap2\n      swap1\n      tag_52\n      jump\t// in\n    tag_57:\n      tag_58\n      jump\t// in\n    tag_56:\n      mload(0x40)\n      tag_59\n      swap2\n      swap1\n      tag_60\n      jump\t// in\n    tag_59:\n      mload(0x40)\n      dup1\n      swap2\n      sub\n      swap1\n      return\n        /* \"src/exchange.sol\":198:230  address public nextContractOwner */\n    tag_11:\n      callvalue\n      dup1\n      iszero\n      tag_61\n      jumpi\n      0x00\n      dup1\n      revert\n    tag_61:\n      pop\n      tag_62\n      tag_63\n      jump\t// in\n    tag_62:\n      mload(0x40)\n      tag_64\n      swap2\n      swap1\n      tag_25\n      jump\t// in\n    tag_64:\n      mload(0x40)\n      dup1\n      swap2\n      sub\n      swap1\n      return\n        /* \"src/exchange.sol\":163:191  address public contractOwner */\n    tag_12:\n      callvalue\n      dup1\n      iszero\n      tag_65\n      jumpi\n      0x00\n      dup1\n      revert\n    tag_65:\n      pop\n      tag_66\n      tag_67\n      jump\t// in\n    tag_66:\n      mload(0x40)\n      tag_68\n      swap2\n      swap1\n      tag_25\n      jump\t// in\n    tag_68:\n      mload(0x40)\n      dup1\n      swap2\n      sub\n      swap1\n      return\n        /* \"src/exchange.sol\":3383:3670  function claimTokenOwnership() external ... */\n    tag_16:\n        /* \"src/exchange.sol\":3480:3484  bool */\n      0x00\n        /* \"src/exchange.sol\":3443:3460  nextContractOwner */\n      0x01\n      0x00\n      swap1\n      sload\n      swap1\n      0x0100\n      exp\n      swap1\n      div\n      0xffffffffffffffffffffffffffffffffffffffff\n      and\n        /* \"src/exchange.sol\":1737:1748  _authorized */\n      dup1\n        /* \"src/exchange.sol\":1723:1748  msg.sender == _authorized */\n      0xffffffffffffffffffffffffffffffffffffffff\n      and\n        /* \"src/exchange.sol\":1723:1733  msg.sender */\n      caller\n        /* \"src/exchange.sol\":1723:1748  msg.sender == _authorized */\n      0xffffffffffffffffffffffffffffffffffffffff\n      and\n      eq\n        /* \"src/exchange.sol\":1715:1777  require(msg.sender == _authorized, \"Caller is not authorized\") */\n      tag_70\n      jumpi\n      mload(0x40)\n      0x08c379a000000000000000000000000000000000000000000000000000000000\n      dup2\n      mstore\n      0x04\n      add\n      tag_71\n      swap1\n      tag_72\n      jump\t// in\n    tag_71:\n      mload(0x40)\n      dup1\n      swap2\n      sub\n      swap1\n      revert\n    tag_70:\n        /* \"src/exchange.sol\":3518:3535  nextContractOwner */\n      0x01\n      0x00\n      swap1\n      sload\n      swap1\n      0x0100\n      exp\n      swap1\n      div\n      0xffffffffffffffffffffffffffffffffffffffff\n      and\n        /* \"src/exchange.sol\":3502:3515  contractOwner */\n      0x00\n      dup1\n        /* \"src/exchange.sol\":3502:3535  contractOwner = nextContractOwner */\n      0x0100\n      exp\n      dup2\n      sload\n      dup2\n      0xffffffffffffffffffffffffffffffffffffffff\n      mul\n      not\n      and\n      swap1\n      dup4\n      0xffffffffffffffffffffffffffffffffffffffff\n      and\n      mul\n      or\n      swap1\n      sstore\n      pop\n        /* \"src/exchange.sol\":3574:3575  0 */\n      0x00\n        /* \"src/exchange.sol\":3546:3563  nextContractOwner */\n      0x01\n      0x00\n        /* \"src/exchange.sol\":3546:3576  nextContractOwner = address(0) */\n      0x0100\n      exp\n      dup2\n      sload\n      dup2\n      0xffffffffffffffffffffffffffffffffffffffff\n      mul\n      not\n      and\n      swap1\n      dup4\n      0xffffffffffffffffffffffffffffffffffffffff\n      and\n      mul\n      or\n      swap1\n      sstore\n      pop\n        /* \"src/exchange.sol\":3626:3639  contractOwner */\n      0x00\n      dup1\n      sload\n      swap1\n      0x0100\n      exp\n      swap1\n      div\n      0xffffffffffffffffffffffffffffffffffffffff\n      and\n        /* \"src/exchange.sol\":3592:3640  ContractOwnershipTransferFinished(contractOwner) */\n      0xffffffffffffffffffffffffffffffffffffffff\n      and\n      0x041e8ee868cb815a7e5cd1a100e6ff024772d79c071718c049ab7d3bc4e1226d\n      mload(0x40)\n      mload(0x40)\n      dup1\n      swap2\n      sub\n      swap1\n      log2\n        /* \"src/exchange.sol\":3658:3662  true */\n      0x01\n        /* \"src/exchange.sol\":3651:3662  return true */\n      swap2\n      pop\n        /* \"src/exchange.sol\":3383:3670  function claimTokenOwnership() external ... */\n      pop\n      swap1\n      jump\t// out\n        /* \"src/exchange.sol\":463:514  mapping(address => address[]) public buyRequestants */\n    tag_23:\n      mstore(0x20, 0x04)\n      dup2\n      0x00\n      mstore\n      keccak256(0x00, 0x40)\n      dup2\n      dup2\n      sload\n      dup2\n      lt\n      tag_74\n      jumpi\n      0x00\n      dup1\n      revert\n    tag_74:\n      swap1\n      0x00\n      mstore\n      keccak256(0x00, 0x20)\n      add\n      0x00\n      swap2\n      pop\n      swap2\n      pop\n      swap1\n      sload\n      swap1\n      0x0100\n      exp\n      swap1\n      div\n      0xffffffffffffffffffffffffffffffffffffffff\n      and\n      dup2\n      jump\t// out\n        /* \"src/exchange.sol\":595:630  uint256 public priceMismatchEthFees */\n    tag_28:\n      sload(0x06)\n      dup2\n      jump\t// out\n        /* \"src/exchange.sol\":523:582  mapping(address => uint256[]) public priceMismatchTokenFees */\n    tag_34:\n      mstore(0x20, 0x05)\n      dup2\n      0x00\n      mstore\n      keccak256(0x00, 0x40)\n      dup2\n      dup2\n      sload\n      dup2\n      lt\n      tag_76\n      jumpi\n      0x00\n      dup1\n      revert\n    tag_76:\n      swap1\n      0x00\n      mstore\n      keccak256(0x00, 0x20)\n      add\n      0x00\n      swap2\n      pop\n      swap2\n      pop\n      pop\n      sload\n      dup2\n      jump\t// out\n        /* \"src/exchange.sol\":3734:4228  function sellRequest(address tokenAddress, uint256 amount, uint256 coinPrice) external ... */\n    tag_40:\n        /* \"src/exchange.sol\":2329:2346  RequestTypes.NONE */\n      0x00\n        /* \"src/exchange.sol\":2295:2346  users[msg.sender].Request.Type == RequestTypes.NONE */\n      0x02\n      dup2\n      gt\n      iszero\n      tag_79\n      jumpi\n      tag_80\n      tag_81\n      jump\t// in\n    tag_80:\n    tag_79:\n        /* \"src/exchange.sol\":2295:2300  users */\n      0x02\n        /* \"src/exchange.sol\":2295:2312  users[msg.sender] */\n      0x00\n        /* \"src/exchange.sol\":2301:2311  msg.sender */\n      caller\n        /* \"src/exchange.sol\":2295:2312  users[msg.sender] */\n      0xffffffffffffffffffffffffffffffffffffffff\n      and\n      0xffffffffffffffffffffffffffffffffffffffff\n      and\n      dup2\n      mstore\n      0x20\n      add\n      swap1\n      dup2\n      mstore\n      0x20\n      add\n      0x00\n      keccak256\n        /* \"src/exchange.sol\":2295:2320  users[msg.sender].Request */\n      0x00\n      add\n        /* \"src/exchange.sol\":2295:2325  users[msg.sender].Request.Type */\n      0x04\n      add\n      0x00\n      swap1\n      sload\n      swap1\n      0x0100\n      exp\n      swap1\n      div\n      0xff\n      and\n        /* \"src/exchange.sol\":2295:2346  users[msg.sender].Request.Type == RequestTypes.NONE */\n      0x02\n      dup2\n      gt\n      iszero\n      tag_82\n      jumpi\n      tag_83\n      tag_81\n      jump\t// in\n    tag_83:\n    tag_82:\n      eq\n        /* \"src/exchange.sol\":2287:2347  require(users[msg.sender].Request.Type == RequestTypes.NONE) */\n      tag_84\n      jumpi\n      0x00\n      dup1\n      revert\n    tag_84:\n        /* \"src/exchange.sol\":3878:3890  tokenAddress */\n      dup3\n        /* \"src/exchange.sol\":3892:3898  amount */\n      dup3\n        /* \"src/exchange.sol\":2052:2059  _amount */\n      dup1\n        /* \"src/exchange.sol\":1998:2010  tokenAddress */\n      dup3\n        /* \"src/exchange.sol\":1991:2021  IERC20(tokenAddress).allowance */\n      0xffffffffffffffffffffffffffffffffffffffff\n      and\n      0xdd62ed3e\n        /* \"src/exchange.sol\":2022:2032  msg.sender */\n      caller\n        /* \"src/exchange.sol\":2042:2046  this */\n      address\n        /* \"src/exchange.sol\":1991:2048  IERC20(tokenAddress).allowance(msg.sender, address(this)) */\n      mload(0x40)\n      dup4\n      0xffffffff\n      and\n      0xe0\n      shl\n      dup2\n      mstore\n      0x04\n      add\n      tag_86\n      swap3\n      swap2\n      swap1\n      tag_87\n      jump\t// in\n    tag_86:\n      0x20\n      mload(0x40)\n      dup1\n      dup4\n      sub\n      dup2\n      dup7\n      gas\n      staticcall\n      iszero\n      dup1\n      iszero\n      tag_89\n      jumpi\n      returndatasize\n      0x00\n      dup1\n      returndatacopy\n      revert(0x00, returndatasize)\n    tag_89:\n      pop\n      pop\n      pop\n      pop\n      mload(0x40)\n      returndatasize\n      not(0x1f)\n      0x1f\n      dup3\n      add\n      and\n      dup3\n      add\n      dup1\n      0x40\n      mstore\n      pop\n      dup2\n      add\n      swap1\n      tag_90\n      swap2\n      swap1\n      tag_91\n      jump\t// in\n    tag_90:\n        /* \"src/exchange.sol\":1991:2059  IERC20(tokenAddress).allowance(msg.sender, address(this)) >= _amount */\n      lt\n      iszero\n        /* \"src/exchange.sol\":1983:2060  require(IERC20(tokenAddress).allowance(msg.sender, address(this)) >= _amount) */\n      tag_92\n      jumpi\n      0x00\n      dup1\n      revert\n    tag_92:\n        /* \"src/exchange.sol\":3927:3939  tokenAddress */\n      dup5\n        /* \"src/exchange.sol\":3941:3947  amount */\n      dup5\n        /* \"src/exchange.sol\":2215:2222  _amount */\n      dup1\n        /* \"src/exchange.sol\":2176:2188  tokenAddress */\n      dup3\n        /* \"src/exchange.sol\":2169:2199  IERC20(tokenAddress).balanceOf */\n      0xffffffffffffffffffffffffffffffffffffffff\n      and\n      0x70a08231\n        /* \"src/exchange.sol\":2200:2210  msg.sender */\n      caller\n        /* \"src/exchange.sol\":2169:2211  IERC20(tokenAddress).balanceOf(msg.sender) */\n      mload(0x40)\n      dup3\n      0xffffffff\n      and\n      0xe0\n      shl\n      dup2\n      mstore\n      0x04\n      add\n      tag_94\n      swap2\n      swap1\n      tag_25\n      jump\t// in\n    tag_94:\n      0x20\n      mload(0x40)\n      dup1\n      dup4\n      sub\n      dup2\n      dup7\n      gas\n      staticcall\n      iszero\n      dup1\n      iszero\n      tag_96\n      jumpi\n      returndatasize\n      0x00\n      dup1\n      returndatacopy\n      revert(0x00, returndatasize)\n    tag_96:\n      pop\n      pop\n      pop\n      pop\n      mload(0x40)\n      returndatasize\n      not(0x1f)\n      0x1f\n      dup3\n      add\n      and\n      dup3\n      add\n      dup1\n      0x40\n      mstore\n      pop\n      dup2\n      add\n      swap1\n      tag_97\n      swap2\n      swap1\n      tag_91\n      jump\t// in\n    tag_97:\n        /* \"src/exchange.sol\":2169:2222  IERC20(tokenAddress).balanceOf(msg.sender) >= _amount */\n      lt\n      iszero\n        /* \"src/exchange.sol\":2161:2223  require(IERC20(tokenAddress).balanceOf(msg.sender) >= _amount) */\n      tag_98\n      jumpi\n      0x00\n      dup1\n      revert\n    tag_98:\n        /* \"src/exchange.sol\":3998:4015  RequestTypes.SELL */\n      0x01\n        /* \"src/exchange.sol\":3965:3970  users */\n      0x02\n        /* \"src/exchange.sol\":3965:3982  users[msg.sender] */\n      0x00\n        /* \"src/exchange.sol\":3971:3981  msg.sender */\n      caller\n        /* \"src/exchange.sol\":3965:3982  users[msg.sender] */\n      0xffffffffffffffffffffffffffffffffffffffff\n      and\n      0xffffffffffffffffffffffffffffffffffffffff\n      and\n      dup2\n      mstore\n      0x20\n      add\n      swap1\n      dup2\n      mstore\n      0x20\n      add\n      0x00\n      keccak256\n        /* \"src/exchange.sol\":3965:3990  users[msg.sender].Request */\n      0x00\n      add\n        /* \"src/exchange.sol\":3965:3995  users[msg.sender].Request.Type */\n      0x04\n      add\n      0x00\n        /* \"src/exchange.sol\":3965:4015  users[msg.sender].Request.Type = RequestTypes.SELL */\n      0x0100\n      exp\n      dup2\n      sload\n      dup2\n      0xff\n      mul\n      not\n      and\n      swap1\n      dup4\n      0x02\n      dup2\n      gt\n      iszero\n      tag_100\n      jumpi\n      tag_101\n      tag_81\n      jump\t// in\n    tag_101:\n    tag_100:\n      mul\n      or\n      swap1\n      sstore\n      pop\n        /* \"src/exchange.sol\":4037:4049  tokenAddress */\n      dup7\n        /* \"src/exchange.sol\":4030:4063  IERC20(tokenAddress).transferFrom */\n      0xffffffffffffffffffffffffffffffffffffffff\n      and\n      0x23b872dd\n        /* \"src/exchange.sol\":4064:4074  msg.sender */\n      caller\n        /* \"src/exchange.sol\":4084:4088  this */\n      address\n        /* \"src/exchange.sol\":4091:4097  amount */\n      dup10\n        /* \"src/exchange.sol\":4030:4098  IERC20(tokenAddress).transferFrom(msg.sender, address(this), amount) */\n      mload(0x40)\n      dup5\n      0xffffffff\n      and\n      0xe0\n      shl\n      dup2\n      mstore\n      0x04\n      add\n      tag_102\n      swap4\n      swap3\n      swap2\n      swap1\n      tag_103\n      jump\t// in\n    tag_102:\n      0x20\n      mload(0x40)\n      dup1\n      dup4\n      sub\n      dup2\n      0x00\n      dup8\n      gas\n      call\n      iszero\n      dup1\n      iszero\n      tag_105\n      jumpi\n      returndatasize\n      0x00\n      dup1\n      returndatacopy\n      revert(0x00, returndatasize)\n    tag_105:\n      pop\n      pop\n      pop\n      pop\n      mload(0x40)\n      returndatasize\n      not(0x1f)\n      0x1f\n      dup3\n      add\n      and\n      dup3\n      add\n      dup1\n      0x40\n      mstore\n      pop\n      dup2\n      add\n      swap1\n      tag_106\n      swap2\n      swap1\n      tag_107\n      jump\t// in\n    tag_106:\n        /* \"src/exchange.sol\":4026:4143  if(!IERC20(tokenAddress).transferFrom(msg.sender, address(this), amount)) revert(\"Token transfer to exchange failed\") */\n      tag_108\n      jumpi\n        /* \"src/exchange.sol\":4100:4143  revert(\"Token transfer to exchange failed\") */\n      mload(0x40)\n      0x08c379a000000000000000000000000000000000000000000000000000000000\n      dup2\n      mstore\n      0x04\n      add\n      tag_109\n      swap1\n      tag_110\n      jump\t// in\n    tag_109:\n      mload(0x40)\n      dup1\n      swap2\n      sub\n      swap1\n      revert\n        /* \"src/exchange.sol\":4026:4143  if(!IERC20(tokenAddress).transferFrom(msg.sender, address(this), amount)) revert(\"Token transfer to exchange failed\") */\n    tag_108:\n        /* \"src/exchange.sol\":4154:4219  matchRequests(tokenAddress, amount, coinPrice, RequestTypes.SELL) */\n      tag_111\n        /* \"src/exchange.sol\":4168:4180  tokenAddress */\n      dup8\n        /* \"src/exchange.sol\":4182:4188  amount */\n      dup8\n        /* \"src/exchange.sol\":4190:4199  coinPrice */\n      dup8\n        /* \"src/exchange.sol\":4201:4218  RequestTypes.SELL */\n      0x01\n        /* \"src/exchange.sol\":4154:4167  matchRequests */\n      tag_112\n        /* \"src/exchange.sol\":4154:4219  matchRequests(tokenAddress, amount, coinPrice, RequestTypes.SELL) */\n      jump\t// in\n    tag_111:\n        /* \"src/exchange.sol\":2071:2072  _ */\n      pop\n      pop\n        /* \"src/exchange.sol\":2359:2360  _ */\n      pop\n      pop\n        /* \"src/exchange.sol\":3734:4228  function sellRequest(address tokenAddress, uint256 amount, uint256 coinPrice) external ... */\n      pop\n      pop\n      pop\n      jump\t// out\n        /* \"src/exchange.sol\":404:456  mapping(address => address[]) public sellRequestants */\n    tag_44:\n      mstore(0x20, 0x03)\n      dup2\n      0x00\n      mstore\n      keccak256(0x00, 0x40)\n      dup2\n      dup2\n      sload\n      dup2\n      lt\n      tag_113\n      jumpi\n      0x00\n      dup1\n      revert\n    tag_113:\n      swap1\n      0x00\n      mstore\n      keccak256(0x00, 0x20)\n      add\n      0x00\n      swap2\n      pop\n      swap2\n      pop\n      swap1\n      sload\n      swap1\n      0x0100\n      exp\n      swap1\n      div\n      0xffffffffffffffffffffffffffffffffffffffff\n      and\n      dup2\n      jump\t// out\n        /* \"src/exchange.sol\":4236:4649  function buyRequest(address coinAddress, uint256 amount, uint256 coinPrice) public payable ... */\n    tag_48:\n        /* \"src/exchange.sol\":2329:2346  RequestTypes.NONE */\n      0x00\n        /* \"src/exchange.sol\":2295:2346  users[msg.sender].Request.Type == RequestTypes.NONE */\n      0x02\n      dup2\n      gt\n      iszero\n      tag_116\n      jumpi\n      tag_117\n      tag_81\n      jump\t// in\n    tag_117:\n    tag_116:\n        /* \"src/exchange.sol\":2295:2300  users */\n      0x02\n        /* \"src/exchange.sol\":2295:2312  users[msg.sender] */\n      0x00\n        /* \"src/exchange.sol\":2301:2311  msg.sender */\n      caller\n        /* \"src/exchange.sol\":2295:2312  users[msg.sender] */\n      0xffffffffffffffffffffffffffffffffffffffff\n      and\n      0xffffffffffffffffffffffffffffffffffffffff\n      and\n      dup2\n      mstore\n      0x20\n      add\n      swap1\n      dup2\n      mstore\n      0x20\n      add\n      0x00\n      keccak256\n        /* \"src/exchange.sol\":2295:2320  users[msg.sender].Request */\n      0x00\n      add\n        /* \"src/exchange.sol\":2295:2325  users[msg.sender].Request.Type */\n      0x04\n      add\n      0x00\n      swap1\n      sload\n      swap1\n      0x0100\n      exp\n      swap1\n      div\n      0xff\n      and\n        /* \"src/exchange.sol\":2295:2346  users[msg.sender].Request.Type == RequestTypes.NONE */\n      0x02\n      dup2\n      gt\n      iszero\n      tag_118\n      jumpi\n      tag_119\n      tag_81\n      jump\t// in\n    tag_119:\n    tag_118:\n      eq\n        /* \"src/exchange.sol\":2287:2347  require(users[msg.sender].Request.Type == RequestTypes.NONE) */\n      tag_120\n      jumpi\n      0x00\n      dup1\n      revert\n    tag_120:\n        /* \"src/exchange.sol\":4383:4392  coinPrice */\n      dup1\n        /* \"src/exchange.sol\":4376:4382  amount */\n      dup3\n        /* \"src/exchange.sol\":4376:4392  amount*coinPrice */\n      tag_121\n      swap2\n      swap1\n      tag_122\n      jump\t// in\n    tag_121:\n        /* \"src/exchange.sol\":1872:1879  _amount */\n      dup1\n        /* \"src/exchange.sol\":1859:1868  msg.value */\n      callvalue\n        /* \"src/exchange.sol\":1859:1879  msg.value >= _amount */\n      lt\n      iszero\n        /* \"src/exchange.sol\":1851:1880  require(msg.value >= _amount) */\n      tag_124\n      jumpi\n      0x00\n      dup1\n      revert\n    tag_124:\n        /* \"src/exchange.sol\":4444:4445  0 */\n      0x00\n        /* \"src/exchange.sol\":4432:4441  coinPrice */\n      dup3\n        /* \"src/exchange.sol\":4425:4431  amount */\n      dup5\n        /* \"src/exchange.sol\":4425:4441  amount*coinPrice */\n      tag_126\n      swap2\n      swap1\n      tag_122\n      jump\t// in\n    tag_126:\n        /* \"src/exchange.sol\":4413:4422  msg.value */\n      callvalue\n        /* \"src/exchange.sol\":4413:4441  msg.value - amount*coinPrice */\n      tag_127\n      swap2\n      swap1\n      tag_128\n      jump\t// in\n    tag_127:\n        /* \"src/exchange.sol\":4413:4445  msg.value - amount*coinPrice > 0 */\n      gt\n        /* \"src/exchange.sol\":4410:4507  if(msg.value - amount*coinPrice > 0) sendEther(payable(msg.sender), msg.value - amount*coinPrice) */\n      iszero\n      tag_129\n      jumpi\n        /* \"src/exchange.sol\":4447:4507  sendEther(payable(msg.sender), msg.value - amount*coinPrice) */\n      tag_130\n        /* \"src/exchange.sol\":4465:4475  msg.sender */\n      caller\n        /* \"src/exchange.sol\":4497:4506  coinPrice */\n      dup4\n        /* \"src/exchange.sol\":4490:4496  amount */\n      dup6\n        /* \"src/exchange.sol\":4490:4506  amount*coinPrice */\n      tag_131\n      swap2\n      swap1\n      tag_122\n      jump\t// in\n    tag_131:\n        /* \"src/exchange.sol\":4478:4487  msg.value */\n      callvalue\n        /* \"src/exchange.sol\":4478:4506  msg.value - amount*coinPrice */\n      tag_132\n      swap2\n      swap1\n      tag_128\n      jump\t// in\n    tag_132:\n        /* \"src/exchange.sol\":4447:4456  sendEther */\n      tag_133\n        /* \"src/exchange.sol\":4447:4507  sendEther(payable(msg.sender), msg.value - amount*coinPrice) */\n      jump\t// in\n    tag_130:\n        /* \"src/exchange.sol\":4410:4507  if(msg.value - amount*coinPrice > 0) sendEther(payable(msg.sender), msg.value - amount*coinPrice) */\n    tag_129:\n        /* \"src/exchange.sol\":4551:4567  RequestTypes.BUY */\n      0x02\n        /* \"src/exchange.sol\":4518:4523  users */\n      dup1\n        /* \"src/exchange.sol\":4518:4535  users[msg.sender] */\n      0x00\n        /* \"src/exchange.sol\":4524:4534  msg.sender */\n      caller\n        /* \"src/exchange.sol\":4518:4535  users[msg.sender] */\n      0xffffffffffffffffffffffffffffffffffffffff\n      and\n      0xffffffffffffffffffffffffffffffffffffffff\n      and\n      dup2\n      mstore\n      0x20\n      add\n      swap1\n      dup2\n      mstore\n      0x20\n      add\n      0x00\n      keccak256\n        /* \"src/exchange.sol\":4518:4543  users[msg.sender].Request */\n      0x00\n      add\n        /* \"src/exchange.sol\":4518:4548  users[msg.sender].Request.Type */\n      0x04\n      add\n      0x00\n        /* \"src/exchange.sol\":4518:4567  users[msg.sender].Request.Type = RequestTypes.BUY */\n      0x0100\n      exp\n      dup2\n      sload\n      dup2\n      0xff\n      mul\n      not\n      and\n      swap1\n      dup4\n      0x02\n      dup2\n      gt\n      iszero\n      tag_134\n      jumpi\n      tag_135\n      tag_81\n      jump\t// in\n    tag_135:\n    tag_134:\n      mul\n      or\n      swap1\n      sstore\n      pop\n        /* \"src/exchange.sol\":4578:4641  matchRequests(coinAddress, amount, coinPrice, RequestTypes.BUY) */\n      tag_136\n        /* \"src/exchange.sol\":4592:4603  coinAddress */\n      dup5\n        /* \"src/exchange.sol\":4605:4611  amount */\n      dup5\n        /* \"src/exchange.sol\":4613:4622  coinPrice */\n      dup5\n        /* \"src/exchange.sol\":4624:4640  RequestTypes.BUY */\n      0x02\n        /* \"src/exchange.sol\":4578:4591  matchRequests */\n      tag_112\n        /* \"src/exchange.sol\":4578:4641  matchRequests(coinAddress, amount, coinPrice, RequestTypes.BUY) */\n      jump\t// in\n    tag_136:\n        /* \"src/exchange.sol\":2359:2360  _ */\n      pop\n        /* \"src/exchange.sol\":4236:4649  function buyRequest(address coinAddress, uint256 amount, uint256 coinPrice) public payable ... */\n      pop\n      pop\n      pop\n      jump\t// out\n        /* \"src/exchange.sol\":2944:3284  function transferContractOwnership(address _nextContractOwner) external ... */\n    tag_53:\n        /* \"src/exchange.sol\":3112:3116  bool */\n      0x00\n        /* \"src/exchange.sol\":3036:3049  contractOwner */\n      dup1\n      0x00\n      swap1\n      sload\n      swap1\n      0x0100\n      exp\n      swap1\n      div\n      0xffffffffffffffffffffffffffffffffffffffff\n      and\n        /* \"src/exchange.sol\":1737:1748  _authorized */\n      dup1\n        /* \"src/exchange.sol\":1723:1748  msg.sender == _authorized */\n      0xffffffffffffffffffffffffffffffffffffffff\n      and\n        /* \"src/exchange.sol\":1723:1733  msg.sender */\n      caller\n        /* \"src/exchange.sol\":1723:1748  msg.sender == _authorized */\n      0xffffffffffffffffffffffffffffffffffffffff\n      and\n      eq\n        /* \"src/exchange.sol\":1715:1777  require(msg.sender == _authorized, \"Caller is not authorized\") */\n      tag_138\n      jumpi\n      mload(0x40)\n      0x08c379a000000000000000000000000000000000000000000000000000000000\n      dup2\n      mstore\n      0x04\n      add\n      tag_139\n      swap1\n      tag_72\n      jump\t// in\n    tag_139:\n      mload(0x40)\n      dup1\n      swap2\n      sub\n      swap1\n      revert\n    tag_138:\n        /* \"src/exchange.sol\":3075:3093  _nextContractOwner */\n      dup3\n        /* \"src/exchange.sol\":2443:2446  _to */\n      dup1\n        /* \"src/exchange.sol\":2429:2446  address(0) != _to */\n      0xffffffffffffffffffffffffffffffffffffffff\n      and\n        /* \"src/exchange.sol\":2437:2438  0 */\n      0x00\n        /* \"src/exchange.sol\":2429:2446  address(0) != _to */\n      0xffffffffffffffffffffffffffffffffffffffff\n      and\n      sub\n        /* \"src/exchange.sol\":2421:2494  require(address(0) != _to, \"Transfer to the zero address is not allowed\") */\n      tag_141\n      jumpi\n      mload(0x40)\n      0x08c379a000000000000000000000000000000000000000000000000000000000\n      dup2\n      mstore\n      0x04\n      add\n      tag_142\n      swap1\n      tag_143\n      jump\t// in\n    tag_142:\n      mload(0x40)\n      dup1\n      swap2\n      sub\n      swap1\n      revert\n    tag_141:\n        /* \"src/exchange.sol\":3154:3172  _nextContractOwner */\n      dup4\n        /* \"src/exchange.sol\":3134:3151  nextContractOwner */\n      0x01\n      0x00\n        /* \"src/exchange.sol\":3134:3172  nextContractOwner = _nextContractOwner */\n      0x0100\n      exp\n      dup2\n      sload\n      dup2\n      0xffffffffffffffffffffffffffffffffffffffff\n      mul\n      not\n      and\n      swap1\n      dup4\n      0xffffffffffffffffffffffffffffffffffffffff\n      and\n      mul\n      or\n      swap1\n      sstore\n      pop\n        /* \"src/exchange.sol\":3236:3253  nextContractOwner */\n      0x01\n      0x00\n      swap1\n      sload\n      swap1\n      0x0100\n      exp\n      swap1\n      div\n      0xffffffffffffffffffffffffffffffffffffffff\n      and\n        /* \"src/exchange.sol\":3188:3254  ContractOwnershipTransferStarted(contractOwner, nextContractOwner) */\n      0xffffffffffffffffffffffffffffffffffffffff\n      and\n        /* \"src/exchange.sol\":3221:3234  contractOwner */\n      0x00\n      dup1\n      sload\n      swap1\n      0x0100\n      exp\n      swap1\n      div\n      0xffffffffffffffffffffffffffffffffffffffff\n      and\n        /* \"src/exchange.sol\":3188:3254  ContractOwnershipTransferStarted(contractOwner, nextContractOwner) */\n      0xffffffffffffffffffffffffffffffffffffffff\n      and\n      0x3171ef419dfba51cf3b185fa6ee8071885c38deb1e1621df017995e8a5e9254c\n      mload(0x40)\n      mload(0x40)\n      dup1\n      swap2\n      sub\n      swap1\n      log3\n        /* \"src/exchange.sol\":3272:3276  true */\n      0x01\n        /* \"src/exchange.sol\":3265:3276  return true */\n      swap3\n      pop\n        /* \"src/exchange.sol\":1788:1789  _ */\n      pop\n        /* \"src/exchange.sol\":2944:3284  function transferContractOwnership(address _nextContractOwner) external ... */\n      pop\n      swap2\n      swap1\n      pop\n      jump\t// out\n        /* \"src/exchange.sol\":296:333  mapping(address => User) public users */\n    tag_58:\n      mstore(0x20, 0x02)\n      dup1\n      0x00\n      mstore\n      keccak256(0x00, 0x40)\n      0x00\n      swap2\n      pop\n      swap1\n      pop\n      dup1\n      0x00\n      add\n      mload(0x40)\n      dup1\n      0xa0\n      add\n      0x40\n      mstore\n      swap1\n      dup2\n      0x00\n      dup3\n      add\n      0x00\n      swap1\n      sload\n      swap1\n      0x0100\n      exp\n      swap1\n      div\n      0xffffffffffffffffffffffffffffffffffffffff\n      and\n      0xffffffffffffffffffffffffffffffffffffffff\n      and\n      0xffffffffffffffffffffffffffffffffffffffff\n      and\n      dup2\n      mstore\n      0x20\n      add\n      0x01\n      dup3\n      add\n      sload\n      dup2\n      mstore\n      0x20\n      add\n      0x02\n      dup3\n      add\n      sload\n      dup2\n      mstore\n      0x20\n      add\n      0x03\n      dup3\n      add\n      sload\n      dup2\n      mstore\n      0x20\n      add\n      0x04\n      dup3\n      add\n      0x00\n      swap1\n      sload\n      swap1\n      0x0100\n      exp\n      swap1\n      div\n      0xff\n      and\n      0x02\n      dup2\n      gt\n      iszero\n      tag_145\n      jumpi\n      tag_146\n      tag_81\n      jump\t// in\n    tag_146:\n    tag_145:\n      0x02\n      dup2\n      gt\n      iszero\n      tag_147\n      jumpi\n      tag_148\n      tag_81\n      jump\t// in\n    tag_148:\n    tag_147:\n      dup2\n      mstore\n      pop\n      pop\n      swap1\n      pop\n      dup2\n      jump\t// out\n        /* \"src/exchange.sol\":198:230  address public nextContractOwner */\n    tag_63:\n      0x01\n      0x00\n      swap1\n      sload\n      swap1\n      0x0100\n      exp\n      swap1\n      div\n      0xffffffffffffffffffffffffffffffffffffffff\n      and\n      dup2\n      jump\t// out\n        /* \"src/exchange.sol\":163:191  address public contractOwner */\n    tag_67:\n      0x00\n      dup1\n      sload\n      swap1\n      0x0100\n      exp\n      swap1\n      div\n      0xffffffffffffffffffffffffffffffffffffffff\n      and\n      dup2\n      jump\t// out\n        /* \"src/exchange.sol\":5080:5931  function matchRequests(address tokenAddress, uint256 amount, uint256 tokenPrice, RequestTypes TYPE) private{... */\n    tag_112:\n        /* \"src/exchange.sol\":5198:5227  address[] storage requestants */\n      0x00\n        /* \"src/exchange.sol\":5237:5254  RequestTypes.SELL */\n      0x01\n        /* \"src/exchange.sol\":5231:5254  TYPE==RequestTypes.SELL */\n      0x02\n      dup2\n      gt\n      iszero\n      tag_150\n      jumpi\n      tag_151\n      tag_81\n      jump\t// in\n    tag_151:\n    tag_150:\n        /* \"src/exchange.sol\":5231:5235  TYPE */\n      dup3\n        /* \"src/exchange.sol\":5231:5254  TYPE==RequestTypes.SELL */\n      0x02\n      dup2\n      gt\n      iszero\n      tag_152\n      jumpi\n      tag_153\n      tag_81\n      jump\t// in\n    tag_153:\n    tag_152:\n      eq\n        /* \"src/exchange.sol\":5231:5317  TYPE==RequestTypes.SELL ? buyRequestants[tokenAddress] : sellRequestants[tokenAddress] */\n      tag_154\n      jumpi\n        /* \"src/exchange.sol\":5288:5303  sellRequestants */\n      0x03\n        /* \"src/exchange.sol\":5288:5317  sellRequestants[tokenAddress] */\n      0x00\n        /* \"src/exchange.sol\":5304:5316  tokenAddress */\n      dup7\n        /* \"src/exchange.sol\":5288:5317  sellRequestants[tokenAddress] */\n      0xffffffffffffffffffffffffffffffffffffffff\n      and\n      0xffffffffffffffffffffffffffffffffffffffff\n      and\n      dup2\n      mstore\n      0x20\n      add\n      swap1\n      dup2\n      mstore\n      0x20\n      add\n      0x00\n      keccak256\n        /* \"src/exchange.sol\":5231:5317  TYPE==RequestTypes.SELL ? buyRequestants[tokenAddress] : sellRequestants[tokenAddress] */\n      jump(tag_155)\n    tag_154:\n        /* \"src/exchange.sol\":5257:5271  buyRequestants */\n      0x04\n        /* \"src/exchange.sol\":5257:5285  buyRequestants[tokenAddress] */\n      0x00\n        /* \"src/exchange.sol\":5272:5284  tokenAddress */\n      dup7\n        /* \"src/exchange.sol\":5257:5285  buyRequestants[tokenAddress] */\n      0xffffffffffffffffffffffffffffffffffffffff\n      and\n      0xffffffffffffffffffffffffffffffffffffffff\n      and\n      dup2\n      mstore\n      0x20\n      add\n      swap1\n      dup2\n      mstore\n      0x20\n      add\n      0x00\n      keccak256\n        /* \"src/exchange.sol\":5231:5317  TYPE==RequestTypes.SELL ? buyRequestants[tokenAddress] : sellRequestants[tokenAddress] */\n    tag_155:\n        /* \"src/exchange.sol\":5198:5318  address[] storage requestants = (TYPE==RequestTypes.SELL ? buyRequestants[tokenAddress] : sellRequestants[tokenAddress]) */\n      swap1\n      pop\n        /* \"src/exchange.sol\":5339:5357  uint256 amountLeft */\n      0x00\n        /* \"src/exchange.sol\":5360:5366  amount */\n      dup5\n        /* \"src/exchange.sol\":5339:5366  uint256 amountLeft = amount */\n      swap1\n      pop\n        /* \"src/exchange.sol\":5382:5391  uint256 i */\n      0x00\n        /* \"src/exchange.sol\":5394:5405  requestants */\n      dup3\n        /* \"src/exchange.sol\":5394:5412  requestants.length */\n      dup1\n      sload\n      swap1\n      pop\n        /* \"src/exchange.sol\":5382:5412  uint256 i = requestants.length */\n      swap1\n      pop\n        /* \"src/exchange.sol\":5377:5731  for (uint256 i = requestants.length; i > 0; i--){... */\n    tag_156:\n        /* \"src/exchange.sol\":5418:5419  0 */\n      0x00\n        /* \"src/exchange.sol\":5414:5415  i */\n      dup2\n        /* \"src/exchange.sol\":5414:5419  i > 0 */\n      gt\n        /* \"src/exchange.sol\":5377:5731  for (uint256 i = requestants.length; i > 0; i--){... */\n      iszero\n      tag_157\n      jumpi\n        /* \"src/exchange.sol\":5440:5467  UserRequest storage Request */\n      0x00\n        /* \"src/exchange.sol\":5470:5475  users */\n      0x02\n        /* \"src/exchange.sol\":5470:5493  users[requestants[i-1]] */\n      0x00\n        /* \"src/exchange.sol\":5476:5487  requestants */\n      dup6\n        /* \"src/exchange.sol\":5490:5491  1 */\n      0x01\n        /* \"src/exchange.sol\":5488:5489  i */\n      dup6\n        /* \"src/exchange.sol\":5488:5491  i-1 */\n      tag_159\n      swap2\n      swap1\n      tag_128\n      jump\t// in\n    tag_159:\n        /* \"src/exchange.sol\":5476:5492  requestants[i-1] */\n      dup2\n      sload\n      dup2\n      lt\n      tag_160\n      jumpi\n      tag_161\n      tag_162\n      jump\t// in\n    tag_161:\n    tag_160:\n      swap1\n      0x00\n      mstore\n      keccak256(0x00, 0x20)\n      add\n      0x00\n      swap1\n      sload\n      swap1\n      0x0100\n      exp\n      swap1\n      div\n      0xffffffffffffffffffffffffffffffffffffffff\n      and\n        /* \"src/exchange.sol\":5470:5493  users[requestants[i-1]] */\n      0xffffffffffffffffffffffffffffffffffffffff\n      and\n      0xffffffffffffffffffffffffffffffffffffffff\n      and\n      dup2\n      mstore\n      0x20\n      add\n      swap1\n      dup2\n      mstore\n      0x20\n      add\n      0x00\n      keccak256\n        /* \"src/exchange.sol\":5470:5501  users[requestants[i-1]].Request */\n      0x00\n      add\n        /* \"src/exchange.sol\":5440:5501  UserRequest storage Request = users[requestants[i-1]].Request */\n      swap1\n      pop\n        /* \"src/exchange.sol\":5519:5550  priceCheck(Request, tokenPrice) */\n      tag_164\n        /* \"src/exchange.sol\":5530:5537  Request */\n      dup2\n        /* \"src/exchange.sol\":5519:5550  priceCheck(Request, tokenPrice) */\n      mload(0x40)\n      dup1\n      0xa0\n      add\n      0x40\n      mstore\n      swap1\n      dup2\n      0x00\n      dup3\n      add\n      0x00\n      swap1\n      sload\n      swap1\n      0x0100\n      exp\n      swap1\n      div\n      0xffffffffffffffffffffffffffffffffffffffff\n      and\n      0xffffffffffffffffffffffffffffffffffffffff\n      and\n      0xffffffffffffffffffffffffffffffffffffffff\n      and\n      dup2\n      mstore\n      0x20\n      add\n      0x01\n      dup3\n      add\n      sload\n      dup2\n      mstore\n      0x20\n      add\n      0x02\n      dup3\n      add\n      sload\n      dup2\n      mstore\n      0x20\n      add\n      0x03\n      dup3\n      add\n      sload\n      dup2\n      mstore\n      0x20\n      add\n      0x04\n      dup3\n      add\n      0x00\n      swap1\n      sload\n      swap1\n      0x0100\n      exp\n      swap1\n      div\n      0xff\n      and\n      0x02\n      dup2\n      gt\n      iszero\n      tag_165\n      jumpi\n      tag_166\n      tag_81\n      jump\t// in\n    tag_166:\n    tag_165:\n      0x02\n      dup2\n      gt\n      iszero\n      tag_167\n      jumpi\n      tag_168\n      tag_81\n      jump\t// in\n    tag_168:\n    tag_167:\n      dup2\n      mstore\n      pop\n      pop\n        /* \"src/exchange.sol\":5539:5549  tokenPrice */\n      dup8\n        /* \"src/exchange.sol\":5519:5529  priceCheck */\n      tag_169\n        /* \"src/exchange.sol\":5519:5550  priceCheck(Request, tokenPrice) */\n      jump\t// in\n    tag_164:\n        /* \"src/exchange.sol\":5516:5720  if(priceCheck(Request, tokenPrice)) {... */\n      iszero\n      tag_170\n      jumpi\n        /* \"src/exchange.sol\":5584:5659  executeRequests(tokenAddress,requestants[i-1], amountLeft, i-1, tokenPrice) */\n      tag_171\n        /* \"src/exchange.sol\":5600:5612  tokenAddress */\n      dup9\n        /* \"src/exchange.sol\":5613:5624  requestants */\n      dup6\n        /* \"src/exchange.sol\":5627:5628  1 */\n      0x01\n        /* \"src/exchange.sol\":5625:5626  i */\n      dup6\n        /* \"src/exchange.sol\":5625:5628  i-1 */\n      tag_172\n      swap2\n      swap1\n      tag_128\n      jump\t// in\n    tag_172:\n        /* \"src/exchange.sol\":5613:5629  requestants[i-1] */\n      dup2\n      sload\n      dup2\n      lt\n      tag_173\n      jumpi\n      tag_174\n      tag_162\n      jump\t// in\n    tag_174:\n    tag_173:\n      swap1\n      0x00\n      mstore\n      keccak256(0x00, 0x20)\n      add\n      0x00\n      swap1\n      sload\n      swap1\n      0x0100\n      exp\n      swap1\n      div\n      0xffffffffffffffffffffffffffffffffffffffff\n      and\n        /* \"src/exchange.sol\":5631:5641  amountLeft */\n      dup6\n        /* \"src/exchange.sol\":5645:5646  1 */\n      0x01\n        /* \"src/exchange.sol\":5643:5644  i */\n      dup7\n        /* \"src/exchange.sol\":5643:5646  i-1 */\n      tag_176\n      swap2\n      swap1\n      tag_128\n      jump\t// in\n    tag_176:\n        /* \"src/exchange.sol\":5648:5658  tokenPrice */\n      dup11\n        /* \"src/exchange.sol\":5584:5599  executeRequests */\n      tag_177\n        /* \"src/exchange.sol\":5584:5659  executeRequests(tokenAddress,requestants[i-1], amountLeft, i-1, tokenPrice) */\n      jump\t// in\n    tag_171:\n        /* \"src/exchange.sol\":5571:5659  amountLeft = executeRequests(tokenAddress,requestants[i-1], amountLeft, i-1, tokenPrice) */\n      swap3\n      pop\n        /* \"src/exchange.sol\":5696:5697  0 */\n      0x00\n        /* \"src/exchange.sol\":5682:5692  amountLeft */\n      dup4\n        /* \"src/exchange.sol\":5682:5697  amountLeft == 0 */\n      sub\n        /* \"src/exchange.sol\":5678:5704  if (amountLeft == 0) break */\n      tag_178\n      jumpi\n        /* \"src/exchange.sol\":5699:5704  break */\n      pop\n      jump(tag_157)\n        /* \"src/exchange.sol\":5678:5704  if (amountLeft == 0) break */\n    tag_178:\n        /* \"src/exchange.sol\":5516:5720  if(priceCheck(Request, tokenPrice)) {... */\n    tag_170:\n        /* \"src/exchange.sol\":5425:5731  {... */\n      pop\n        /* \"src/exchange.sol\":5421:5424  i-- */\n      dup1\n      dup1\n      tag_179\n      swap1\n      tag_180\n      jump\t// in\n    tag_179:\n      swap2\n      pop\n      pop\n        /* \"src/exchange.sol\":5377:5731  for (uint256 i = requestants.length; i > 0; i--){... */\n      jump(tag_156)\n    tag_157:\n      pop\n        /* \"src/exchange.sol\":5757:5758  0 */\n      0x00\n        /* \"src/exchange.sol\":5744:5754  amountLeft */\n      dup2\n        /* \"src/exchange.sol\":5744:5758  amountLeft > 0 */\n      gt\n        /* \"src/exchange.sol\":5741:5924  if(amountLeft > 0){... */\n      iszero\n      tag_181\n      jumpi\n        /* \"src/exchange.sol\":5774:5828  addRequest(tokenAddress, amountLeft, tokenPrice, TYPE) */\n      tag_182\n        /* \"src/exchange.sol\":5785:5797  tokenAddress */\n      dup7\n        /* \"src/exchange.sol\":5799:5809  amountLeft */\n      dup3\n        /* \"src/exchange.sol\":5811:5821  tokenPrice */\n      dup7\n        /* \"src/exchange.sol\":5823:5827  TYPE */\n      dup7\n        /* \"src/exchange.sol\":5774:5784  addRequest */\n      tag_183\n        /* \"src/exchange.sol\":5774:5828  addRequest(tokenAddress, amountLeft, tokenPrice, TYPE) */\n      jump\t// in\n    tag_182:\n        /* \"src/exchange.sol\":5741:5924  if(amountLeft > 0){... */\n      jump(tag_184)\n    tag_181:\n        /* \"src/exchange.sol\":5892:5909  RequestTypes.NONE */\n      0x00\n        /* \"src/exchange.sol\":5859:5864  users */\n      0x02\n        /* \"src/exchange.sol\":5859:5876  users[msg.sender] */\n      0x00\n        /* \"src/exchange.sol\":5865:5875  msg.sender */\n      caller\n        /* \"src/exchange.sol\":5859:5876  users[msg.sender] */\n      0xffffffffffffffffffffffffffffffffffffffff\n      and\n      0xffffffffffffffffffffffffffffffffffffffff\n      and\n      dup2\n      mstore\n      0x20\n      add\n      swap1\n      dup2\n      mstore\n      0x20\n      add\n      0x00\n      keccak256\n        /* \"src/exchange.sol\":5859:5884  users[msg.sender].Request */\n      0x00\n      add\n        /* \"src/exchange.sol\":5859:5889  users[msg.sender].Request.Type */\n      0x04\n      add\n      0x00\n        /* \"src/exchange.sol\":5859:5909  users[msg.sender].Request.Type = RequestTypes.NONE */\n      0x0100\n      exp\n      dup2\n      sload\n      dup2\n      0xff\n      mul\n      not\n      and\n      swap1\n      dup4\n      0x02\n      dup2\n      gt\n      iszero\n      tag_185\n      jumpi\n      tag_186\n      tag_81\n      jump\t// in\n    tag_186:\n    tag_185:\n      mul\n      or\n      swap1\n      sstore\n      pop\n        /* \"src/exchange.sol\":5741:5924  if(amountLeft > 0){... */\n    tag_184:\n        /* \"src/exchange.sol\":5187:5931  {... */\n      pop\n      pop\n        /* \"src/exchange.sol\":5080:5931  function matchRequests(address tokenAddress, uint256 amount, uint256 tokenPrice, RequestTypes TYPE) private{... */\n      pop\n      pop\n      pop\n      pop\n      jump\t// out\n        /* \"src/exchange.sol\":7974:8154  function sendEther(address payable reciver, uint256 amount) private{... */\n    tag_133:\n        /* \"src/exchange.sol\":8053:8062  bool sent */\n      0x00\n        /* \"src/exchange.sol\":8067:8074  reciver */\n      dup3\n        /* \"src/exchange.sol\":8067:8079  reciver.call */\n      0xffffffffffffffffffffffffffffffffffffffff\n      and\n        /* \"src/exchange.sol\":8087:8093  amount */\n      dup3\n        /* \"src/exchange.sol\":8067:8098  reciver.call{value: amount}(\"\") */\n      mload(0x40)\n      tag_188\n      swap1\n      tag_189\n      jump\t// in\n    tag_188:\n      0x00\n      mload(0x40)\n      dup1\n      dup4\n      sub\n      dup2\n      dup6\n      dup8\n      gas\n      call\n      swap3\n      pop\n      pop\n      pop\n      returndatasize\n      dup1\n      0x00\n      dup2\n      eq\n      tag_192\n      jumpi\n      mload(0x40)\n      swap2\n      pop\n      and(add(returndatasize, 0x3f), not(0x1f))\n      dup3\n      add\n      0x40\n      mstore\n      returndatasize\n      dup3\n      mstore\n      returndatasize\n      0x00\n      0x20\n      dup5\n      add\n      returndatacopy\n      jump(tag_191)\n    tag_192:\n      0x60\n      swap2\n      pop\n    tag_191:\n      pop\n        /* \"src/exchange.sol\":8052:8098  (bool sent,) = reciver.call{value: amount}(\"\") */\n      pop\n      swap1\n      pop\n        /* \"src/exchange.sol\":8117:8121  sent */\n      dup1\n        /* \"src/exchange.sol\":8109:8146  require(sent, \"Failed to send Ether\") */\n      tag_193\n      jumpi\n      mload(0x40)\n      0x08c379a000000000000000000000000000000000000000000000000000000000\n      dup2\n      mstore\n      0x04\n      add\n      tag_194\n      swap1\n      tag_195\n      jump\t// in\n    tag_194:\n      mload(0x40)\n      dup1\n      swap2\n      sub\n      swap1\n      revert\n    tag_193:\n        /* \"src/exchange.sol\":8041:8154  {... */\n      pop\n        /* \"src/exchange.sol\":7974:8154  function sendEther(address payable reciver, uint256 amount) private{... */\n      pop\n      pop\n      jump\t// out\n        /* \"src/exchange.sol\":4659:4983  function priceCheck(UserRequest memory Request, uint256 tokenPrice) private pure returns(bool){... */\n    tag_169:\n        /* \"src/exchange.sol\":4748:4752  bool */\n      0x00\n        /* \"src/exchange.sol\":4783:4800  RequestTypes.SELL */\n      0x01\n        /* \"src/exchange.sol\":4767:4800  Request.Type == RequestTypes.SELL */\n      0x02\n      dup2\n      gt\n      iszero\n      tag_197\n      jumpi\n      tag_198\n      tag_81\n      jump\t// in\n    tag_198:\n    tag_197:\n        /* \"src/exchange.sol\":4767:4774  Request */\n      dup4\n        /* \"src/exchange.sol\":4767:4779  Request.Type */\n      0x80\n      add\n      mload\n        /* \"src/exchange.sol\":4767:4800  Request.Type == RequestTypes.SELL */\n      0x02\n      dup2\n      gt\n      iszero\n      tag_199\n      jumpi\n      tag_200\n      tag_81\n      jump\t// in\n    tag_200:\n    tag_199:\n      sub\n        /* \"src/exchange.sol\":4764:4953  if(Request.Type == RequestTypes.SELL){... */\n      tag_201\n      jumpi\n        /* \"src/exchange.sol\":4840:4850  tokenPrice */\n      dup2\n        /* \"src/exchange.sol\":4819:4826  Request */\n      dup4\n        /* \"src/exchange.sol\":4819:4836  Request.coinPrice */\n      0x40\n      add\n      mload\n        /* \"src/exchange.sol\":4819:4850  Request.coinPrice >= tokenPrice */\n      lt\n        /* \"src/exchange.sol\":4816:4863  if(Request.coinPrice >= tokenPrice) return true */\n      tag_202\n      jumpi\n        /* \"src/exchange.sol\":4859:4863  true */\n      0x01\n        /* \"src/exchange.sol\":4852:4863  return true */\n      swap1\n      pop\n      jump(tag_196)\n        /* \"src/exchange.sol\":4816:4863  if(Request.coinPrice >= tokenPrice) return true */\n    tag_202:\n        /* \"src/exchange.sol\":4764:4953  if(Request.Type == RequestTypes.SELL){... */\n      jump(tag_203)\n    tag_201:\n        /* \"src/exchange.sol\":4918:4928  tokenPrice */\n      dup2\n        /* \"src/exchange.sol\":4897:4904  Request */\n      dup4\n        /* \"src/exchange.sol\":4897:4914  Request.coinPrice */\n      0x40\n      add\n      mload\n        /* \"src/exchange.sol\":4897:4928  Request.coinPrice <= tokenPrice */\n      gt\n        /* \"src/exchange.sol\":4894:4941  if(Request.coinPrice <= tokenPrice) return true */\n      tag_204\n      jumpi\n        /* \"src/exchange.sol\":4937:4941  true */\n      0x01\n        /* \"src/exchange.sol\":4930:4941  return true */\n      swap1\n      pop\n      jump(tag_196)\n        /* \"src/exchange.sol\":4894:4941  if(Request.coinPrice <= tokenPrice) return true */\n    tag_204:\n        /* \"src/exchange.sol\":4764:4953  if(Request.Type == RequestTypes.SELL){... */\n    tag_203:\n        /* \"src/exchange.sol\":4970:4975  false */\n      0x00\n        /* \"src/exchange.sol\":4963:4975  return false */\n      swap1\n      pop\n        /* \"src/exchange.sol\":4659:4983  function priceCheck(UserRequest memory Request, uint256 tokenPrice) private pure returns(bool){... */\n    tag_196:\n      swap3\n      swap2\n      pop\n      pop\n      jump\t// out\n        /* \"src/exchange.sol\":5987:7236  function executeRequests(address tokenAddress, address counterparty, uint256 amount, uint256 requestIndex, uint256 tokenPrice) private returns(uint256){... */\n    tag_177:\n        /* \"src/exchange.sol\":6130:6137  uint256 */\n      0x00\n        /* \"src/exchange.sol\":6149:6176  UserRequest storage Request */\n      dup1\n        /* \"src/exchange.sol\":6179:6184  users */\n      0x02\n        /* \"src/exchange.sol\":6179:6198  users[counterparty] */\n      0x00\n        /* \"src/exchange.sol\":6185:6197  counterparty */\n      dup8\n        /* \"src/exchange.sol\":6179:6198  users[counterparty] */\n      0xffffffffffffffffffffffffffffffffffffffff\n      and\n      0xffffffffffffffffffffffffffffffffffffffff\n      and\n      dup2\n      mstore\n      0x20\n      add\n      swap1\n      dup2\n      mstore\n      0x20\n      add\n      0x00\n      keccak256\n        /* \"src/exchange.sol\":6179:6206  users[counterparty].Request */\n      0x00\n      add\n        /* \"src/exchange.sol\":6149:6206  UserRequest storage Request = users[counterparty].Request */\n      swap1\n      pop\n        /* \"src/exchange.sol\":6217:6236  uint256 tradeAmount */\n      0x00\n        /* \"src/exchange.sol\":6248:6255  Request */\n      dup2\n        /* \"src/exchange.sol\":6248:6262  Request.amount */\n      0x01\n      add\n      sload\n        /* \"src/exchange.sol\":6239:6245  amount */\n      dup7\n        /* \"src/exchange.sol\":6239:6262  amount < Request.amount */\n      lt\n        /* \"src/exchange.sol\":6239:6288  amount < Request.amount ? amount : Request.amount */\n      tag_206\n      jumpi\n        /* \"src/exchange.sol\":6274:6281  Request */\n      dup2\n        /* \"src/exchange.sol\":6274:6288  Request.amount */\n      0x01\n      add\n      sload\n        /* \"src/exchange.sol\":6239:6288  amount < Request.amount ? amount : Request.amount */\n      jump(tag_207)\n    tag_206:\n        /* \"src/exchange.sol\":6265:6271  amount */\n      dup6\n        /* \"src/exchange.sol\":6239:6288  amount < Request.amount ? amount : Request.amount */\n    tag_207:\n        /* \"src/exchange.sol\":6217:6288  uint256 tradeAmount = amount < Request.amount ? amount : Request.amount */\n      swap1\n      pop\n        /* \"src/exchange.sol\":6319:6335  RequestTypes.BUY */\n      0x02\n        /* \"src/exchange.sol\":6303:6335  Request.Type == RequestTypes.BUY */\n      dup1\n      dup2\n      gt\n      iszero\n      tag_208\n      jumpi\n      tag_209\n      tag_81\n      jump\t// in\n    tag_209:\n    tag_208:\n        /* \"src/exchange.sol\":6303:6310  Request */\n      dup3\n        /* \"src/exchange.sol\":6303:6315  Request.Type */\n      0x04\n      add\n      0x00\n      swap1\n      sload\n      swap1\n      0x0100\n      exp\n      swap1\n      div\n      0xff\n      and\n        /* \"src/exchange.sol\":6303:6335  Request.Type == RequestTypes.BUY */\n      0x02\n      dup2\n      gt\n      iszero\n      tag_210\n      jumpi\n      tag_211\n      tag_81\n      jump\t// in\n    tag_211:\n    tag_210:\n      sub\n        /* \"src/exchange.sol\":6299:6949  if (Request.Type == RequestTypes.BUY) {... */\n      tag_212\n      jumpi\n        /* \"src/exchange.sol\":6363:6375  tokenAddress */\n      dup8\n        /* \"src/exchange.sol\":6356:6385  IERC20(tokenAddress).transfer */\n      0xffffffffffffffffffffffffffffffffffffffff\n      and\n      0xa9059cbb\n        /* \"src/exchange.sol\":6386:6398  counterparty */\n      dup9\n        /* \"src/exchange.sol\":6400:6411  tradeAmount */\n      dup4\n        /* \"src/exchange.sol\":6356:6412  IERC20(tokenAddress).transfer(counterparty, tradeAmount) */\n      mload(0x40)\n      dup4\n      0xffffffff\n      and\n      0xe0\n      shl\n      dup2\n      mstore\n      0x04\n      add\n      tag_213\n      swap3\n      swap2\n      swap1\n      tag_214\n      jump\t// in\n    tag_213:\n      0x20\n      mload(0x40)\n      dup1\n      dup4\n      sub\n      dup2\n      0x00\n      dup8\n      gas\n      call\n      iszero\n      dup1\n      iszero\n      tag_216\n      jumpi\n      returndatasize\n      0x00\n      dup1\n      returndatacopy\n      revert(0x00, returndatasize)\n    tag_216:\n      pop\n      pop\n      pop\n      pop\n      mload(0x40)\n      returndatasize\n      not(0x1f)\n      0x1f\n      dup3\n      add\n      and\n      dup3\n      add\n      dup1\n      0x40\n      mstore\n      pop\n      dup2\n      add\n      swap1\n      tag_217\n      swap2\n      swap1\n      tag_107\n      jump\t// in\n    tag_217:\n        /* \"src/exchange.sol\":6352:6454  if(!IERC20(tokenAddress).transfer(counterparty, tradeAmount)) revert(\"Token transfer to buyer failed\") */\n      tag_218\n      jumpi\n        /* \"src/exchange.sol\":6414:6454  revert(\"Token transfer to buyer failed\") */\n      mload(0x40)\n      0x08c379a000000000000000000000000000000000000000000000000000000000\n      dup2\n      mstore\n      0x04\n      add\n      tag_219\n      swap1\n      tag_220\n      jump\t// in\n    tag_219:\n      mload(0x40)\n      dup1\n      swap2\n      sub\n      swap1\n      revert\n        /* \"src/exchange.sol\":6352:6454  if(!IERC20(tokenAddress).transfer(counterparty, tradeAmount)) revert(\"Token transfer to buyer failed\") */\n    tag_218:\n        /* \"src/exchange.sol\":6469:6529  sendEther(payable(msg.sender),tradeAmount*Request.coinPrice) */\n      tag_221\n        /* \"src/exchange.sol\":6487:6497  msg.sender */\n      caller\n        /* \"src/exchange.sol\":6511:6518  Request */\n      dup4\n        /* \"src/exchange.sol\":6511:6528  Request.coinPrice */\n      0x02\n      add\n      sload\n        /* \"src/exchange.sol\":6499:6510  tradeAmount */\n      dup4\n        /* \"src/exchange.sol\":6499:6528  tradeAmount*Request.coinPrice */\n      tag_222\n      swap2\n      swap1\n      tag_122\n      jump\t// in\n    tag_222:\n        /* \"src/exchange.sol\":6469:6478  sendEther */\n      tag_133\n        /* \"src/exchange.sol\":6469:6529  sendEther(payable(msg.sender),tradeAmount*Request.coinPrice) */\n      jump\t// in\n    tag_221:\n        /* \"src/exchange.sol\":6567:6577  tokenPrice */\n      dup4\n        /* \"src/exchange.sol\":6547:6554  Request */\n      dup3\n        /* \"src/exchange.sol\":6547:6564  Request.coinPrice */\n      0x02\n      add\n      sload\n        /* \"src/exchange.sol\":6547:6577  Request.coinPrice > tokenPrice */\n      gt\n        /* \"src/exchange.sol\":6544:6629  if(Request.coinPrice > tokenPrice) priceMismatchEthFees+=Request.coinPrice-tokenPrice */\n      iszero\n      tag_223\n      jumpi\n        /* \"src/exchange.sol\":6619:6629  tokenPrice */\n      dup4\n        /* \"src/exchange.sol\":6601:6608  Request */\n      dup3\n        /* \"src/exchange.sol\":6601:6618  Request.coinPrice */\n      0x02\n      add\n      sload\n        /* \"src/exchange.sol\":6601:6629  Request.coinPrice-tokenPrice */\n      tag_224\n      swap2\n      swap1\n      tag_128\n      jump\t// in\n    tag_224:\n        /* \"src/exchange.sol\":6579:6599  priceMismatchEthFees */\n      0x06\n      0x00\n        /* \"src/exchange.sol\":6579:6629  priceMismatchEthFees+=Request.coinPrice-tokenPrice */\n      dup3\n      dup3\n      sload\n      tag_225\n      swap2\n      swap1\n      tag_226\n      jump\t// in\n    tag_225:\n      swap3\n      pop\n      pop\n      dup2\n      swap1\n      sstore\n      pop\n        /* \"src/exchange.sol\":6544:6629  if(Request.coinPrice > tokenPrice) priceMismatchEthFees+=Request.coinPrice-tokenPrice */\n    tag_223:\n        /* \"src/exchange.sol\":6299:6949  if (Request.Type == RequestTypes.BUY) {... */\n      jump(tag_227)\n    tag_212:\n        /* \"src/exchange.sol\":6671:6683  tokenAddress */\n      dup8\n        /* \"src/exchange.sol\":6664:6693  IERC20(tokenAddress).transfer */\n      0xffffffffffffffffffffffffffffffffffffffff\n      and\n      0xa9059cbb\n        /* \"src/exchange.sol\":6694:6704  msg.sender */\n      caller\n        /* \"src/exchange.sol\":6706:6717  tradeAmount */\n      dup4\n        /* \"src/exchange.sol\":6664:6718  IERC20(tokenAddress).transfer(msg.sender, tradeAmount) */\n      mload(0x40)\n      dup4\n      0xffffffff\n      and\n      0xe0\n      shl\n      dup2\n      mstore\n      0x04\n      add\n      tag_228\n      swap3\n      swap2\n      swap1\n      tag_214\n      jump\t// in\n    tag_228:\n      0x20\n      mload(0x40)\n      dup1\n      dup4\n      sub\n      dup2\n      0x00\n      dup8\n      gas\n      call\n      iszero\n      dup1\n      iszero\n      tag_230\n      jumpi\n      returndatasize\n      0x00\n      dup1\n      returndatacopy\n      revert(0x00, returndatasize)\n    tag_230:\n      pop\n      pop\n      pop\n      pop\n      mload(0x40)\n      returndatasize\n      not(0x1f)\n      0x1f\n      dup3\n      add\n      and\n      dup3\n      add\n      dup1\n      0x40\n      mstore\n      pop\n      dup2\n      add\n      swap1\n      tag_231\n      swap2\n      swap1\n      tag_107\n      jump\t// in\n    tag_231:\n        /* \"src/exchange.sol\":6660:6760  if(!IERC20(tokenAddress).transfer(msg.sender, tradeAmount)) revert(\"Token transfer to buyer failed\") */\n      tag_232\n      jumpi\n        /* \"src/exchange.sol\":6720:6760  revert(\"Token transfer to buyer failed\") */\n      mload(0x40)\n      0x08c379a000000000000000000000000000000000000000000000000000000000\n      dup2\n      mstore\n      0x04\n      add\n      tag_233\n      swap1\n      tag_220\n      jump\t// in\n    tag_233:\n      mload(0x40)\n      dup1\n      swap2\n      sub\n      swap1\n      revert\n        /* \"src/exchange.sol\":6660:6760  if(!IERC20(tokenAddress).transfer(msg.sender, tradeAmount)) revert(\"Token transfer to buyer failed\") */\n    tag_232:\n        /* \"src/exchange.sol\":6775:6837  sendEther(payable(counterparty),tradeAmount*Request.coinPrice) */\n      tag_234\n        /* \"src/exchange.sol\":6793:6805  counterparty */\n      dup8\n        /* \"src/exchange.sol\":6819:6826  Request */\n      dup4\n        /* \"src/exchange.sol\":6819:6836  Request.coinPrice */\n      0x02\n      add\n      sload\n        /* \"src/exchange.sol\":6807:6818  tradeAmount */\n      dup4\n        /* \"src/exchange.sol\":6807:6836  tradeAmount*Request.coinPrice */\n      tag_235\n      swap2\n      swap1\n      tag_122\n      jump\t// in\n    tag_235:\n        /* \"src/exchange.sol\":6775:6784  sendEther */\n      tag_133\n        /* \"src/exchange.sol\":6775:6837  sendEther(payable(counterparty),tradeAmount*Request.coinPrice) */\n      jump\t// in\n    tag_234:\n        /* \"src/exchange.sol\":6875:6885  tokenPrice */\n      dup4\n        /* \"src/exchange.sol\":6855:6862  Request */\n      dup3\n        /* \"src/exchange.sol\":6855:6872  Request.coinPrice */\n      0x02\n      add\n      sload\n        /* \"src/exchange.sol\":6855:6885  Request.coinPrice > tokenPrice */\n      gt\n        /* \"src/exchange.sol\":6852:6937  if(Request.coinPrice > tokenPrice) priceMismatchEthFees+=Request.coinPrice-tokenPrice */\n      iszero\n      tag_236\n      jumpi\n        /* \"src/exchange.sol\":6927:6937  tokenPrice */\n      dup4\n        /* \"src/exchange.sol\":6909:6916  Request */\n      dup3\n        /* \"src/exchange.sol\":6909:6926  Request.coinPrice */\n      0x02\n      add\n      sload\n        /* \"src/exchange.sol\":6909:6937  Request.coinPrice-tokenPrice */\n      tag_237\n      swap2\n      swap1\n      tag_128\n      jump\t// in\n    tag_237:\n        /* \"src/exchange.sol\":6887:6907  priceMismatchEthFees */\n      0x06\n      0x00\n        /* \"src/exchange.sol\":6887:6937  priceMismatchEthFees+=Request.coinPrice-tokenPrice */\n      dup3\n      dup3\n      sload\n      tag_238\n      swap2\n      swap1\n      tag_226\n      jump\t// in\n    tag_238:\n      swap3\n      pop\n      pop\n      dup2\n      swap1\n      sstore\n      pop\n        /* \"src/exchange.sol\":6852:6937  if(Request.coinPrice > tokenPrice) priceMismatchEthFees+=Request.coinPrice-tokenPrice */\n    tag_236:\n        /* \"src/exchange.sol\":6299:6949  if (Request.Type == RequestTypes.BUY) {... */\n    tag_227:\n        /* \"src/exchange.sol\":6977:6988  tradeAmount */\n      dup1\n        /* \"src/exchange.sol\":6959:6966  Request */\n      dup3\n        /* \"src/exchange.sol\":6959:6973  Request.amount */\n      0x01\n      add\n      0x00\n        /* \"src/exchange.sol\":6959:6988  Request.amount -= tradeAmount */\n      dup3\n      dup3\n      sload\n      tag_239\n      swap2\n      swap1\n      tag_128\n      jump\t// in\n    tag_239:\n      swap3\n      pop\n      pop\n      dup2\n      swap1\n      sstore\n      pop\n        /* \"src/exchange.sol\":7048:7058  msg.sender */\n      caller\n        /* \"src/exchange.sol\":7004:7105  RequestExecuted(tokenAddress, counterparty, msg.sender, Request.Type, tradeAmount, Request.coinPrice) */\n      0xffffffffffffffffffffffffffffffffffffffff\n      and\n        /* \"src/exchange.sol\":7034:7046  counterparty */\n      dup8\n        /* \"src/exchange.sol\":7004:7105  RequestExecuted(tokenAddress, counterparty, msg.sender, Request.Type, tradeAmount, Request.coinPrice) */\n      0xffffffffffffffffffffffffffffffffffffffff\n      and\n        /* \"src/exchange.sol\":7020:7032  tokenAddress */\n      dup10\n        /* \"src/exchange.sol\":7004:7105  RequestExecuted(tokenAddress, counterparty, msg.sender, Request.Type, tradeAmount, Request.coinPrice) */\n      0xffffffffffffffffffffffffffffffffffffffff\n      and\n      0x1ce728f6a2703272ee2e07cf07fd21ddc592575a5b6774a529b595fdf56dd1a6\n        /* \"src/exchange.sol\":7060:7067  Request */\n      dup6\n        /* \"src/exchange.sol\":7060:7072  Request.Type */\n      0x04\n      add\n      0x00\n      swap1\n      sload\n      swap1\n      0x0100\n      exp\n      swap1\n      div\n      0xff\n      and\n        /* \"src/exchange.sol\":7074:7085  tradeAmount */\n      dup6\n        /* \"src/exchange.sol\":7087:7094  Request */\n      dup8\n        /* \"src/exchange.sol\":7087:7104  Request.coinPrice */\n      0x02\n      add\n      sload\n        /* \"src/exchange.sol\":7004:7105  RequestExecuted(tokenAddress, counterparty, msg.sender, Request.Type, tradeAmount, Request.coinPrice) */\n      mload(0x40)\n      tag_240\n      swap4\n      swap3\n      swap2\n      swap1\n      tag_241\n      jump\t// in\n    tag_240:\n      mload(0x40)\n      dup1\n      swap2\n      sub\n      swap1\n      log4\n        /* \"src/exchange.sol\":7138:7139  0 */\n      0x00\n        /* \"src/exchange.sol\":7120:7127  Request */\n      dup3\n        /* \"src/exchange.sol\":7120:7134  Request.amount */\n      0x01\n      add\n      sload\n        /* \"src/exchange.sol\":7120:7139  Request.amount == 0 */\n      sub\n        /* \"src/exchange.sol\":7116:7191  if (Request.amount == 0) removeRequest(tokenAddress, Request, requestIndex) */\n      tag_242\n      jumpi\n        /* \"src/exchange.sol\":7141:7191  removeRequest(tokenAddress, Request, requestIndex) */\n      tag_243\n        /* \"src/exchange.sol\":7155:7167  tokenAddress */\n      dup9\n        /* \"src/exchange.sol\":7169:7176  Request */\n      dup4\n        /* \"src/exchange.sol\":7178:7190  requestIndex */\n      dup8\n        /* \"src/exchange.sol\":7141:7154  removeRequest */\n      tag_244\n        /* \"src/exchange.sol\":7141:7191  removeRequest(tokenAddress, Request, requestIndex) */\n      jump\t// in\n    tag_243:\n        /* \"src/exchange.sol\":7116:7191  if (Request.amount == 0) removeRequest(tokenAddress, Request, requestIndex) */\n    tag_242:\n        /* \"src/exchange.sol\":7217:7228  tradeAmount */\n      dup1\n        /* \"src/exchange.sol\":7209:7228  amount-=tradeAmount */\n      dup7\n      tag_245\n      swap2\n      swap1\n      tag_128\n      jump\t// in\n    tag_245:\n      swap6\n      pop\n      dup6\n        /* \"src/exchange.sol\":7202:7228  return amount-=tradeAmount */\n      swap3\n      pop\n      pop\n      pop\n        /* \"src/exchange.sol\":5987:7236  function executeRequests(address tokenAddress, address counterparty, uint256 amount, uint256 requestIndex, uint256 tokenPrice) private returns(uint256){... */\n      swap6\n      swap5\n      pop\n      pop\n      pop\n      pop\n      pop\n      jump\t// out\n        /* \"src/exchange.sol\":7306:7899  function addRequest(address tokenAddress, uint256 amount, uint256 tokenPrice, RequestTypes TYPE) private {... */\n    tag_183:\n        /* \"src/exchange.sol\":7422:7451  address[] storage requestants */\n      0x00\n        /* \"src/exchange.sol\":7461:7478  RequestTypes.SELL */\n      0x01\n        /* \"src/exchange.sol\":7455:7478  TYPE!=RequestTypes.SELL */\n      0x02\n      dup2\n      gt\n      iszero\n      tag_247\n      jumpi\n      tag_248\n      tag_81\n      jump\t// in\n    tag_248:\n    tag_247:\n        /* \"src/exchange.sol\":7455:7459  TYPE */\n      dup3\n        /* \"src/exchange.sol\":7455:7478  TYPE!=RequestTypes.SELL */\n      0x02\n      dup2\n      gt\n      iszero\n      tag_249\n      jumpi\n      tag_250\n      tag_81\n      jump\t// in\n    tag_250:\n    tag_249:\n      sub\n        /* \"src/exchange.sol\":7455:7541  TYPE!=RequestTypes.SELL ? buyRequestants[tokenAddress] : sellRequestants[tokenAddress] */\n      tag_251\n      jumpi\n        /* \"src/exchange.sol\":7512:7527  sellRequestants */\n      0x03\n        /* \"src/exchange.sol\":7512:7541  sellRequestants[tokenAddress] */\n      0x00\n        /* \"src/exchange.sol\":7528:7540  tokenAddress */\n      dup7\n        /* \"src/exchange.sol\":7512:7541  sellRequestants[tokenAddress] */\n      0xffffffffffffffffffffffffffffffffffffffff\n      and\n      0xffffffffffffffffffffffffffffffffffffffff\n      and\n      dup2\n      mstore\n      0x20\n      add\n      swap1\n      dup2\n      mstore\n      0x20\n      add\n      0x00\n      keccak256\n        /* \"src/exchange.sol\":7455:7541  TYPE!=RequestTypes.SELL ? buyRequestants[tokenAddress] : sellRequestants[tokenAddress] */\n      jump(tag_252)\n    tag_251:\n        /* \"src/exchange.sol\":7481:7495  buyRequestants */\n      0x04\n        /* \"src/exchange.sol\":7481:7509  buyRequestants[tokenAddress] */\n      0x00\n        /* \"src/exchange.sol\":7496:7508  tokenAddress */\n      dup7\n        /* \"src/exchange.sol\":7481:7509  buyRequestants[tokenAddress] */\n      0xffffffffffffffffffffffffffffffffffffffff\n      and\n      0xffffffffffffffffffffffffffffffffffffffff\n      and\n      dup2\n      mstore\n      0x20\n      add\n      swap1\n      dup2\n      mstore\n      0x20\n      add\n      0x00\n      keccak256\n        /* \"src/exchange.sol\":7455:7541  TYPE!=RequestTypes.SELL ? buyRequestants[tokenAddress] : sellRequestants[tokenAddress] */\n    tag_252:\n        /* \"src/exchange.sol\":7422:7542  address[] storage requestants = (TYPE!=RequestTypes.SELL ? buyRequestants[tokenAddress] : sellRequestants[tokenAddress]) */\n      swap1\n      pop\n        /* \"src/exchange.sol\":7553:7564  requestants */\n      dup1\n        /* \"src/exchange.sol\":7570:7580  msg.sender */\n      caller\n        /* \"src/exchange.sol\":7553:7581  requestants.push(msg.sender) */\n      swap1\n      dup1\n      0x01\n      dup2\n      sload\n      add\n      dup1\n      dup3\n      sstore\n      dup1\n      swap2\n      pop\n      pop\n      0x01\n      swap1\n      sub\n      swap1\n      0x00\n      mstore\n      keccak256(0x00, 0x20)\n      add\n      0x00\n      swap1\n      swap2\n      swap1\n      swap2\n      swap1\n      swap2\n      0x0100\n      exp\n      dup2\n      sload\n      dup2\n      0xffffffffffffffffffffffffffffffffffffffff\n      mul\n      not\n      and\n      swap1\n      dup4\n      0xffffffffffffffffffffffffffffffffffffffff\n      and\n      mul\n      or\n      swap1\n      sstore\n      pop\n        /* \"src/exchange.sol\":7592:7619  UserRequest storage Request */\n      0x00\n        /* \"src/exchange.sol\":7622:7627  users */\n      0x02\n        /* \"src/exchange.sol\":7622:7639  users[msg.sender] */\n      0x00\n        /* \"src/exchange.sol\":7628:7638  msg.sender */\n      caller\n        /* \"src/exchange.sol\":7622:7639  users[msg.sender] */\n      0xffffffffffffffffffffffffffffffffffffffff\n      and\n      0xffffffffffffffffffffffffffffffffffffffff\n      and\n      dup2\n      mstore\n      0x20\n      add\n      swap1\n      dup2\n      mstore\n      0x20\n      add\n      0x00\n      keccak256\n        /* \"src/exchange.sol\":7622:7647  users[msg.sender].Request */\n      0x00\n      add\n        /* \"src/exchange.sol\":7592:7647  UserRequest storage Request = users[msg.sender].Request */\n      swap1\n      pop\n        /* \"src/exchange.sol\":7681:7693  tokenAddress */\n      dup6\n        /* \"src/exchange.sol\":7658:7665  Request */\n      dup2\n        /* \"src/exchange.sol\":7658:7678  Request.tokenAddress */\n      0x00\n      add\n      0x00\n        /* \"src/exchange.sol\":7658:7693  Request.tokenAddress = tokenAddress */\n      0x0100\n      exp\n      dup2\n      sload\n      dup2\n      0xffffffffffffffffffffffffffffffffffffffff\n      mul\n      not\n      and\n      swap1\n      dup4\n      0xffffffffffffffffffffffffffffffffffffffff\n      and\n      mul\n      or\n      swap1\n      sstore\n      pop\n        /* \"src/exchange.sol\":7721:7727  amount */\n      dup5\n        /* \"src/exchange.sol\":7704:7711  Request */\n      dup2\n        /* \"src/exchange.sol\":7704:7718  Request.amount */\n      0x01\n      add\n        /* \"src/exchange.sol\":7704:7727  Request.amount = amount */\n      dup2\n      swap1\n      sstore\n      pop\n        /* \"src/exchange.sol\":7758:7768  tokenPrice */\n      dup4\n        /* \"src/exchange.sol\":7738:7745  Request */\n      dup2\n        /* \"src/exchange.sol\":7738:7755  Request.coinPrice */\n      0x02\n      add\n        /* \"src/exchange.sol\":7738:7768  Request.coinPrice = tokenPrice */\n      dup2\n      swap1\n      sstore\n      pop\n        /* \"src/exchange.sol\":7794:7809  block.timestamp */\n      timestamp\n        /* \"src/exchange.sol\":7779:7786  Request */\n      dup2\n        /* \"src/exchange.sol\":7779:7791  Request.time */\n      0x03\n      add\n        /* \"src/exchange.sol\":7779:7809  Request.time = block.timestamp */\n      dup2\n      swap1\n      sstore\n      pop\n        /* \"src/exchange.sol\":7854:7864  msg.sender */\n      caller\n        /* \"src/exchange.sol\":7825:7891  RequestCreated(tokenAddress, msg.sender, TYPE, amount, tokenPrice) */\n      0xffffffffffffffffffffffffffffffffffffffff\n      and\n        /* \"src/exchange.sol\":7840:7852  tokenAddress */\n      dup7\n        /* \"src/exchange.sol\":7825:7891  RequestCreated(tokenAddress, msg.sender, TYPE, amount, tokenPrice) */\n      0xffffffffffffffffffffffffffffffffffffffff\n      and\n      0xba9e7b0a1a964fea173e3888ffbcbe410fca9a481f92cf8fc8b76a1b70f31d68\n        /* \"src/exchange.sol\":7866:7870  TYPE */\n      dup6\n        /* \"src/exchange.sol\":7872:7878  amount */\n      dup9\n        /* \"src/exchange.sol\":7880:7890  tokenPrice */\n      dup9\n        /* \"src/exchange.sol\":7825:7891  RequestCreated(tokenAddress, msg.sender, TYPE, amount, tokenPrice) */\n      mload(0x40)\n      tag_254\n      swap4\n      swap3\n      swap2\n      swap1\n      tag_241\n      jump\t// in\n    tag_254:\n      mload(0x40)\n      dup1\n      swap2\n      sub\n      swap1\n      log3\n        /* \"src/exchange.sol\":7411:7899  {... */\n      pop\n      pop\n        /* \"src/exchange.sol\":7306:7899  function addRequest(address tokenAddress, uint256 amount, uint256 tokenPrice, RequestTypes TYPE) private {... */\n      pop\n      pop\n      pop\n      pop\n      jump\t// out\n        /* \"src/exchange.sol\":8233:8818  function removeRequest(address tokenAddress, UserRequest storage request, uint256 requestIndex) private {... */\n    tag_244:\n        /* \"src/exchange.sol\":8348:8377  address[] storage requestants */\n      0x00\n        /* \"src/exchange.sol\":8395:8412  RequestTypes.SELL */\n      0x01\n        /* \"src/exchange.sol\":8381:8412  request.Type==RequestTypes.SELL */\n      0x02\n      dup2\n      gt\n      iszero\n      tag_256\n      jumpi\n      tag_257\n      tag_81\n      jump\t// in\n    tag_257:\n    tag_256:\n        /* \"src/exchange.sol\":8381:8388  request */\n      dup4\n        /* \"src/exchange.sol\":8381:8393  request.Type */\n      0x04\n      add\n      0x00\n      swap1\n      sload\n      swap1\n      0x0100\n      exp\n      swap1\n      div\n      0xff\n      and\n        /* \"src/exchange.sol\":8381:8412  request.Type==RequestTypes.SELL */\n      0x02\n      dup2\n      gt\n      iszero\n      tag_258\n      jumpi\n      tag_259\n      tag_81\n      jump\t// in\n    tag_259:\n    tag_258:\n      eq\n        /* \"src/exchange.sol\":8381:8475  request.Type==RequestTypes.SELL ? sellRequestants[tokenAddress] : buyRequestants[tokenAddress] */\n      tag_260\n      jumpi\n        /* \"src/exchange.sol\":8447:8461  buyRequestants */\n      0x04\n        /* \"src/exchange.sol\":8447:8475  buyRequestants[tokenAddress] */\n      0x00\n        /* \"src/exchange.sol\":8462:8474  tokenAddress */\n      dup6\n        /* \"src/exchange.sol\":8447:8475  buyRequestants[tokenAddress] */\n      0xffffffffffffffffffffffffffffffffffffffff\n      and\n      0xffffffffffffffffffffffffffffffffffffffff\n      and\n      dup2\n      mstore\n      0x20\n      add\n      swap1\n      dup2\n      mstore\n      0x20\n      add\n      0x00\n      keccak256\n        /* \"src/exchange.sol\":8381:8475  request.Type==RequestTypes.SELL ? sellRequestants[tokenAddress] : buyRequestants[tokenAddress] */\n      jump(tag_261)\n    tag_260:\n        /* \"src/exchange.sol\":8415:8430  sellRequestants */\n      0x03\n        /* \"src/exchange.sol\":8415:8444  sellRequestants[tokenAddress] */\n      0x00\n        /* \"src/exchange.sol\":8431:8443  tokenAddress */\n      dup6\n        /* \"src/exchange.sol\":8415:8444  sellRequestants[tokenAddress] */\n      0xffffffffffffffffffffffffffffffffffffffff\n      and\n      0xffffffffffffffffffffffffffffffffffffffff\n      and\n      dup2\n      mstore\n      0x20\n      add\n      swap1\n      dup2\n      mstore\n      0x20\n      add\n      0x00\n      keccak256\n        /* \"src/exchange.sol\":8381:8475  request.Type==RequestTypes.SELL ? sellRequestants[tokenAddress] : buyRequestants[tokenAddress] */\n    tag_261:\n        /* \"src/exchange.sol\":8348:8476  address[] storage requestants = (request.Type==RequestTypes.SELL ? sellRequestants[tokenAddress] : buyRequestants[tokenAddress]) */\n      swap1\n      pop\n        /* \"src/exchange.sol\":8619:8628  uint256 i */\n      0x00\n        /* \"src/exchange.sol\":8631:8643  requestIndex */\n      dup3\n        /* \"src/exchange.sol\":8619:8643  uint256 i = requestIndex */\n      swap1\n      pop\n        /* \"src/exchange.sol\":8614:8740  for (uint256 i = requestIndex; i < requestants.length - 1; i++) {... */\n    tag_262:\n        /* \"src/exchange.sol\":8670:8671  1 */\n      0x01\n        /* \"src/exchange.sol\":8649:8660  requestants */\n      dup3\n        /* \"src/exchange.sol\":8649:8667  requestants.length */\n      dup1\n      sload\n      swap1\n      pop\n        /* \"src/exchange.sol\":8649:8671  requestants.length - 1 */\n      tag_265\n      swap2\n      swap1\n      tag_128\n      jump\t// in\n    tag_265:\n        /* \"src/exchange.sol\":8645:8646  i */\n      dup2\n        /* \"src/exchange.sol\":8645:8671  i < requestants.length - 1 */\n      lt\n        /* \"src/exchange.sol\":8614:8740  for (uint256 i = requestIndex; i < requestants.length - 1; i++) {... */\n      iszero\n      tag_263\n      jumpi\n        /* \"src/exchange.sol\":8710:8721  requestants */\n      dup2\n        /* \"src/exchange.sol\":8726:8727  1 */\n      0x01\n        /* \"src/exchange.sol\":8722:8723  i */\n      dup3\n        /* \"src/exchange.sol\":8722:8727  i + 1 */\n      tag_266\n      swap2\n      swap1\n      tag_226\n      jump\t// in\n    tag_266:\n        /* \"src/exchange.sol\":8710:8728  requestants[i + 1] */\n      dup2\n      sload\n      dup2\n      lt\n      tag_267\n      jumpi\n      tag_268\n      tag_162\n      jump\t// in\n    tag_268:\n    tag_267:\n      swap1\n      0x00\n      mstore\n      keccak256(0x00, 0x20)\n      add\n      0x00\n      swap1\n      sload\n      swap1\n      0x0100\n      exp\n      swap1\n      div\n      0xffffffffffffffffffffffffffffffffffffffff\n      and\n        /* \"src/exchange.sol\":8693:8704  requestants */\n      dup3\n        /* \"src/exchange.sol\":8705:8706  i */\n      dup3\n        /* \"src/exchange.sol\":8693:8707  requestants[i] */\n      dup2\n      sload\n      dup2\n      lt\n      tag_270\n      jumpi\n      tag_271\n      tag_162\n      jump\t// in\n    tag_271:\n    tag_270:\n      swap1\n      0x00\n      mstore\n      keccak256(0x00, 0x20)\n      add\n      0x00\n        /* \"src/exchange.sol\":8693:8728  requestants[i] = requestants[i + 1] */\n      0x0100\n      exp\n      dup2\n      sload\n      dup2\n      0xffffffffffffffffffffffffffffffffffffffff\n      mul\n      not\n      and\n      swap1\n      dup4\n      0xffffffffffffffffffffffffffffffffffffffff\n      and\n      mul\n      or\n      swap1\n      sstore\n      pop\n        /* \"src/exchange.sol\":8673:8676  i++ */\n      dup1\n      dup1\n      0x01\n      add\n      swap2\n      pop\n      pop\n        /* \"src/exchange.sol\":8614:8740  for (uint256 i = requestIndex; i < requestants.length - 1; i++) {... */\n      jump(tag_262)\n    tag_263:\n      pop\n        /* \"src/exchange.sol\":8750:8761  requestants */\n      dup1\n        /* \"src/exchange.sol\":8750:8767  requestants.pop() */\n      dup1\n      sload\n      dup1\n      tag_273\n      jumpi\n      tag_274\n      tag_275\n      jump\t// in\n    tag_274:\n    tag_273:\n      0x01\n      swap1\n      sub\n      dup2\n      dup2\n      swap1\n      0x00\n      mstore\n      keccak256(0x00, 0x20)\n      add\n      exp(0x0100, 0x00)\n      dup2\n      sload\n      swap1\n      0xffffffffffffffffffffffffffffffffffffffff\n      mul\n      not\n      and\n      swap1\n      sstore\n      swap1\n      sstore\n        /* \"src/exchange.sol\":8793:8810  RequestTypes.NONE */\n      0x00\n        /* \"src/exchange.sol\":8778:8785  request */\n      dup4\n        /* \"src/exchange.sol\":8778:8790  request.Type */\n      0x04\n      add\n      0x00\n        /* \"src/exchange.sol\":8778:8810  request.Type = RequestTypes.NONE */\n      0x0100\n      exp\n      dup2\n      sload\n      dup2\n      0xff\n      mul\n      not\n      and\n      swap1\n      dup4\n      0x02\n      dup2\n      gt\n      iszero\n      tag_277\n      jumpi\n      tag_278\n      tag_81\n      jump\t// in\n    tag_278:\n    tag_277:\n      mul\n      or\n      swap1\n      sstore\n      pop\n        /* \"src/exchange.sol\":8337:8818  {... */\n      pop\n        /* \"src/exchange.sol\":8233:8818  function removeRequest(address tokenAddress, UserRequest storage request, uint256 requestIndex) private {... */\n      pop\n      pop\n      pop\n      jump\t// out\n        /* \"#utility.yul\":7:97   */\n    tag_279:\n        /* \"#utility.yul\":41:48   */\n      0x00\n        /* \"#utility.yul\":84:89   */\n      dup2\n        /* \"#utility.yul\":77:90   */\n      iszero\n        /* \"#utility.yul\":70:91   */\n      iszero\n        /* \"#utility.yul\":59:91   */\n      swap1\n      pop\n        /* \"#utility.yul\":7:97   */\n      swap2\n      swap1\n      pop\n      jump\t// out\n        /* \"#utility.yul\":103:212   */\n    tag_280:\n        /* \"#utility.yul\":184:205   */\n      tag_322\n        /* \"#utility.yul\":199:204   */\n      dup2\n        /* \"#utility.yul\":184:205   */\n      tag_279\n      jump\t// in\n    tag_322:\n        /* \"#utility.yul\":179:182   */\n      dup3\n        /* \"#utility.yul\":172:206   */\n      mstore\n        /* \"#utility.yul\":103:212   */\n      pop\n      pop\n      jump\t// out\n        /* \"#utility.yul\":218:428   */\n    tag_18:\n        /* \"#utility.yul\":305:309   */\n      0x00\n        /* \"#utility.yul\":343:345   */\n      0x20\n        /* \"#utility.yul\":332:341   */\n      dup3\n        /* \"#utility.yul\":328:346   */\n      add\n        /* \"#utility.yul\":320:346   */\n      swap1\n      pop\n        /* \"#utility.yul\":356:421   */\n      tag_324\n        /* \"#utility.yul\":418:419   */\n      0x00\n        /* \"#utility.yul\":407:416   */\n      dup4\n        /* \"#utility.yul\":403:420   */\n      add\n        /* \"#utility.yul\":394:400   */\n      dup5\n        /* \"#utility.yul\":356:421   */\n      tag_280\n      jump\t// in\n    tag_324:\n        /* \"#utility.yul\":218:428   */\n      swap3\n      swap2\n      pop\n      pop\n      jump\t// out\n        /* \"#utility.yul\":515:632   */\n    tag_282:\n        /* \"#utility.yul\":624:625   */\n      0x00\n        /* \"#utility.yul\":621:622   */\n      dup1\n        /* \"#utility.yul\":614:626   */\n      revert\n        /* \"#utility.yul\":761:887   */\n    tag_284:\n        /* \"#utility.yul\":798:805   */\n      0x00\n        /* \"#utility.yul\":838:880   */\n      0xffffffffffffffffffffffffffffffffffffffff\n        /* \"#utility.yul\":831:836   */\n      dup3\n        /* \"#utility.yul\":827:881   */\n      and\n        /* \"#utility.yul\":816:881   */\n      swap1\n      pop\n        /* \"#utility.yul\":761:887   */\n      swap2\n      swap1\n      pop\n      jump\t// out\n        /* \"#utility.yul\":893:989   */\n    tag_285:\n        /* \"#utility.yul\":930:937   */\n      0x00\n        /* \"#utility.yul\":959:983   */\n      tag_330\n        /* \"#utility.yul\":977:982   */\n      dup3\n        /* \"#utility.yul\":959:983   */\n      tag_284\n      jump\t// in\n    tag_330:\n        /* \"#utility.yul\":948:983   */\n      swap1\n      pop\n        /* \"#utility.yul\":893:989   */\n      swap2\n      swap1\n      pop\n      jump\t// out\n        /* \"#utility.yul\":995:1117   */\n    tag_286:\n        /* \"#utility.yul\":1068:1092   */\n      tag_332\n        /* \"#utility.yul\":1086:1091   */\n      dup2\n        /* \"#utility.yul\":1068:1092   */\n      tag_285\n      jump\t// in\n    tag_332:\n        /* \"#utility.yul\":1061:1066   */\n      dup2\n        /* \"#utility.yul\":1058:1093   */\n      eq\n        /* \"#utility.yul\":1048:1111   */\n      tag_333\n      jumpi\n        /* \"#utility.yul\":1107:1108   */\n      0x00\n        /* \"#utility.yul\":1104:1105   */\n      dup1\n        /* \"#utility.yul\":1097:1109   */\n      revert\n        /* \"#utility.yul\":1048:1111   */\n    tag_333:\n        /* \"#utility.yul\":995:1117   */\n      pop\n      jump\t// out\n        /* \"#utility.yul\":1123:1262   */\n    tag_287:\n        /* \"#utility.yul\":1169:1174   */\n      0x00\n        /* \"#utility.yul\":1207:1213   */\n      dup2\n        /* \"#utility.yul\":1194:1214   */\n      calldataload\n        /* \"#utility.yul\":1185:1214   */\n      swap1\n      pop\n        /* \"#utility.yul\":1223:1256   */\n      tag_335\n        /* \"#utility.yul\":1250:1255   */\n      dup2\n        /* \"#utility.yul\":1223:1256   */\n      tag_286\n      jump\t// in\n    tag_335:\n        /* \"#utility.yul\":1123:1262   */\n      swap3\n      swap2\n      pop\n      pop\n      jump\t// out\n        /* \"#utility.yul\":1268:1345   */\n    tag_288:\n        /* \"#utility.yul\":1305:1312   */\n      0x00\n        /* \"#utility.yul\":1334:1339   */\n      dup2\n        /* \"#utility.yul\":1323:1339   */\n      swap1\n      pop\n        /* \"#utility.yul\":1268:1345   */\n      swap2\n      swap1\n      pop\n      jump\t// out\n        /* \"#utility.yul\":1351:1473   */\n    tag_289:\n        /* \"#utility.yul\":1424:1448   */\n      tag_338\n        /* \"#utility.yul\":1442:1447   */\n      dup2\n        /* \"#utility.yul\":1424:1448   */\n      tag_288\n      jump\t// in\n    tag_338:\n        /* \"#utility.yul\":1417:1422   */\n      dup2\n        /* \"#utility.yul\":1414:1449   */\n      eq\n        /* \"#utility.yul\":1404:1467   */\n      tag_339\n      jumpi\n        /* \"#utility.yul\":1463:1464   */\n      0x00\n        /* \"#utility.yul\":1460:1461   */\n      dup1\n        /* \"#utility.yul\":1453:1465   */\n      revert\n        /* \"#utility.yul\":1404:1467   */\n    tag_339:\n        /* \"#utility.yul\":1351:1473   */\n      pop\n      jump\t// out\n        /* \"#utility.yul\":1479:1618   */\n    tag_290:\n        /* \"#utility.yul\":1525:1530   */\n      0x00\n        /* \"#utility.yul\":1563:1569   */\n      dup2\n        /* \"#utility.yul\":1550:1570   */\n      calldataload\n        /* \"#utility.yul\":1541:1570   */\n      swap1\n      pop\n        /* \"#utility.yul\":1579:1612   */\n      tag_341\n        /* \"#utility.yul\":1606:1611   */\n      dup2\n        /* \"#utility.yul\":1579:1612   */\n      tag_289\n      jump\t// in\n    tag_341:\n        /* \"#utility.yul\":1479:1618   */\n      swap3\n      swap2\n      pop\n      pop\n      jump\t// out\n        /* \"#utility.yul\":1624:2098   */\n    tag_22:\n        /* \"#utility.yul\":1692:1698   */\n      0x00\n        /* \"#utility.yul\":1700:1706   */\n      dup1\n        /* \"#utility.yul\":1749:1751   */\n      0x40\n        /* \"#utility.yul\":1737:1746   */\n      dup4\n        /* \"#utility.yul\":1728:1735   */\n      dup6\n        /* \"#utility.yul\":1724:1747   */\n      sub\n        /* \"#utility.yul\":1720:1752   */\n      slt\n        /* \"#utility.yul\":1717:1836   */\n      iszero\n      tag_343\n      jumpi\n        /* \"#utility.yul\":1755:1834   */\n      tag_344\n      tag_282\n      jump\t// in\n    tag_344:\n        /* \"#utility.yul\":1717:1836   */\n    tag_343:\n        /* \"#utility.yul\":1875:1876   */\n      0x00\n        /* \"#utility.yul\":1900:1953   */\n      tag_345\n        /* \"#utility.yul\":1945:1952   */\n      dup6\n        /* \"#utility.yul\":1936:1942   */\n      dup3\n        /* \"#utility.yul\":1925:1934   */\n      dup7\n        /* \"#utility.yul\":1921:1943   */\n      add\n        /* \"#utility.yul\":1900:1953   */\n      tag_287\n      jump\t// in\n    tag_345:\n        /* \"#utility.yul\":1890:1953   */\n      swap3\n      pop\n        /* \"#utility.yul\":1846:1963   */\n      pop\n        /* \"#utility.yul\":2002:2004   */\n      0x20\n        /* \"#utility.yul\":2028:2081   */\n      tag_346\n        /* \"#utility.yul\":2073:2080   */\n      dup6\n        /* \"#utility.yul\":2064:2070   */\n      dup3\n        /* \"#utility.yul\":2053:2062   */\n      dup7\n        /* \"#utility.yul\":2049:2071   */\n      add\n        /* \"#utility.yul\":2028:2081   */\n      tag_290\n      jump\t// in\n    tag_346:\n        /* \"#utility.yul\":2018:2081   */\n      swap2\n      pop\n        /* \"#utility.yul\":1973:2091   */\n      pop\n        /* \"#utility.yul\":1624:2098   */\n      swap3\n      pop\n      swap3\n      swap1\n      pop\n      jump\t// out\n        /* \"#utility.yul\":2104:2222   */\n    tag_291:\n        /* \"#utility.yul\":2191:2215   */\n      tag_348\n        /* \"#utility.yul\":2209:2214   */\n      dup2\n        /* \"#utility.yul\":2191:2215   */\n      tag_285\n      jump\t// in\n    tag_348:\n        /* \"#utility.yul\":2186:2189   */\n      dup3\n        /* \"#utility.yul\":2179:2216   */\n      mstore\n        /* \"#utility.yul\":2104:2222   */\n      pop\n      pop\n      jump\t// out\n        /* \"#utility.yul\":2228:2450   */\n    tag_25:\n        /* \"#utility.yul\":2321:2325   */\n      0x00\n        /* \"#utility.yul\":2359:2361   */\n      0x20\n        /* \"#utility.yul\":2348:2357   */\n      dup3\n        /* \"#utility.yul\":2344:2362   */\n      add\n        /* \"#utility.yul\":2336:2362   */\n      swap1\n      pop\n        /* \"#utility.yul\":2372:2443   */\n      tag_350\n        /* \"#utility.yul\":2440:2441   */\n      0x00\n        /* \"#utility.yul\":2429:2438   */\n      dup4\n        /* \"#utility.yul\":2425:2442   */\n      add\n        /* \"#utility.yul\":2416:2422   */\n      dup5\n        /* \"#utility.yul\":2372:2443   */\n      tag_291\n      jump\t// in\n    tag_350:\n        /* \"#utility.yul\":2228:2450   */\n      swap3\n      swap2\n      pop\n      pop\n      jump\t// out\n        /* \"#utility.yul\":2456:2574   */\n    tag_292:\n        /* \"#utility.yul\":2543:2567   */\n      tag_352\n        /* \"#utility.yul\":2561:2566   */\n      dup2\n        /* \"#utility.yul\":2543:2567   */\n      tag_288\n      jump\t// in\n    tag_352:\n        /* \"#utility.yul\":2538:2541   */\n      dup3\n        /* \"#utility.yul\":2531:2568   */\n      mstore\n        /* \"#utility.yul\":2456:2574   */\n      pop\n      pop\n      jump\t// out\n        /* \"#utility.yul\":2580:2802   */\n    tag_30:\n        /* \"#utility.yul\":2673:2677   */\n      0x00\n        /* \"#utility.yul\":2711:2713   */\n      0x20\n        /* \"#utility.yul\":2700:2709   */\n      dup3\n        /* \"#utility.yul\":2696:2714   */\n      add\n        /* \"#utility.yul\":2688:2714   */\n      swap1\n      pop\n        /* \"#utility.yul\":2724:2795   */\n      tag_354\n        /* \"#utility.yul\":2792:2793   */\n      0x00\n        /* \"#utility.yul\":2781:2790   */\n      dup4\n        /* \"#utility.yul\":2777:2794   */\n      add\n        /* \"#utility.yul\":2768:2774   */\n      dup5\n        /* \"#utility.yul\":2724:2795   */\n      tag_292\n      jump\t// in\n    tag_354:\n        /* \"#utility.yul\":2580:2802   */\n      swap3\n      swap2\n      pop\n      pop\n      jump\t// out\n        /* \"#utility.yul\":2808:3427   */\n    tag_39:\n        /* \"#utility.yul\":2885:2891   */\n      0x00\n        /* \"#utility.yul\":2893:2899   */\n      dup1\n        /* \"#utility.yul\":2901:2907   */\n      0x00\n        /* \"#utility.yul\":2950:2952   */\n      0x60\n        /* \"#utility.yul\":2938:2947   */\n      dup5\n        /* \"#utility.yul\":2929:2936   */\n      dup7\n        /* \"#utility.yul\":2925:2948   */\n      sub\n        /* \"#utility.yul\":2921:2953   */\n      slt\n        /* \"#utility.yul\":2918:3037   */\n      iszero\n      tag_356\n      jumpi\n        /* \"#utility.yul\":2956:3035   */\n      tag_357\n      tag_282\n      jump\t// in\n    tag_357:\n        /* \"#utility.yul\":2918:3037   */\n    tag_356:\n        /* \"#utility.yul\":3076:3077   */\n      0x00\n        /* \"#utility.yul\":3101:3154   */\n      tag_358\n        /* \"#utility.yul\":3146:3153   */\n      dup7\n        /* \"#utility.yul\":3137:3143   */\n      dup3\n        /* \"#utility.yul\":3126:3135   */\n      dup8\n        /* \"#utility.yul\":3122:3144   */\n      add\n        /* \"#utility.yul\":3101:3154   */\n      tag_287\n      jump\t// in\n    tag_358:\n        /* \"#utility.yul\":3091:3154   */\n      swap4\n      pop\n        /* \"#utility.yul\":3047:3164   */\n      pop\n        /* \"#utility.yul\":3203:3205   */\n      0x20\n        /* \"#utility.yul\":3229:3282   */\n      tag_359\n        /* \"#utility.yul\":3274:3281   */\n      dup7\n        /* \"#utility.yul\":3265:3271   */\n      dup3\n        /* \"#utility.yul\":3254:3263   */\n      dup8\n        /* \"#utility.yul\":3250:3272   */\n      add\n        /* \"#utility.yul\":3229:3282   */\n      tag_290\n      jump\t// in\n    tag_359:\n        /* \"#utility.yul\":3219:3282   */\n      swap3\n      pop\n        /* \"#utility.yul\":3174:3292   */\n      pop\n        /* \"#utility.yul\":3331:3333   */\n      0x40\n        /* \"#utility.yul\":3357:3410   */\n      tag_360\n        /* \"#utility.yul\":3402:3409   */\n      dup7\n        /* \"#utility.yul\":3393:3399   */\n      dup3\n        /* \"#utility.yul\":3382:3391   */\n      dup8\n        /* \"#utility.yul\":3378:3400   */\n      add\n        /* \"#utility.yul\":3357:3410   */\n      tag_290\n      jump\t// in\n    tag_360:\n        /* \"#utility.yul\":3347:3410   */\n      swap2\n      pop\n        /* \"#utility.yul\":3302:3420   */\n      pop\n        /* \"#utility.yul\":2808:3427   */\n      swap3\n      pop\n      swap3\n      pop\n      swap3\n      jump\t// out\n        /* \"#utility.yul\":3433:3762   */\n    tag_52:\n        /* \"#utility.yul\":3492:3498   */\n      0x00\n        /* \"#utility.yul\":3541:3543   */\n      0x20\n        /* \"#utility.yul\":3529:3538   */\n      dup3\n        /* \"#utility.yul\":3520:3527   */\n      dup5\n        /* \"#utility.yul\":3516:3539   */\n      sub\n        /* \"#utility.yul\":3512:3544   */\n      slt\n        /* \"#utility.yul\":3509:3628   */\n      iszero\n      tag_362\n      jumpi\n        /* \"#utility.yul\":3547:3626   */\n      tag_363\n      tag_282\n      jump\t// in\n    tag_363:\n        /* \"#utility.yul\":3509:3628   */\n    tag_362:\n        /* \"#utility.yul\":3667:3668   */\n      0x00\n        /* \"#utility.yul\":3692:3745   */\n      tag_364\n        /* \"#utility.yul\":3737:3744   */\n      dup5\n        /* \"#utility.yul\":3728:3734   */\n      dup3\n        /* \"#utility.yul\":3717:3726   */\n      dup6\n        /* \"#utility.yul\":3713:3735   */\n      add\n        /* \"#utility.yul\":3692:3745   */\n      tag_287\n      jump\t// in\n    tag_364:\n        /* \"#utility.yul\":3682:3745   */\n      swap2\n      pop\n        /* \"#utility.yul\":3638:3755   */\n      pop\n        /* \"#utility.yul\":3433:3762   */\n      swap3\n      swap2\n      pop\n      pop\n      jump\t// out\n        /* \"#utility.yul\":3768:3876   */\n    tag_293:\n        /* \"#utility.yul\":3845:3869   */\n      tag_366\n        /* \"#utility.yul\":3863:3868   */\n      dup2\n        /* \"#utility.yul\":3845:3869   */\n      tag_285\n      jump\t// in\n    tag_366:\n        /* \"#utility.yul\":3840:3843   */\n      dup3\n        /* \"#utility.yul\":3833:3870   */\n      mstore\n        /* \"#utility.yul\":3768:3876   */\n      pop\n      pop\n      jump\t// out\n        /* \"#utility.yul\":3882:3990   */\n    tag_294:\n        /* \"#utility.yul\":3959:3983   */\n      tag_368\n        /* \"#utility.yul\":3977:3982   */\n      dup2\n        /* \"#utility.yul\":3959:3983   */\n      tag_288\n      jump\t// in\n    tag_368:\n        /* \"#utility.yul\":3954:3957   */\n      dup3\n        /* \"#utility.yul\":3947:3984   */\n      mstore\n        /* \"#utility.yul\":3882:3990   */\n      pop\n      pop\n      jump\t// out\n        /* \"#utility.yul\":3996:4176   */\n    tag_81:\n        /* \"#utility.yul\":4044:4121   */\n      0x4e487b7100000000000000000000000000000000000000000000000000000000\n        /* \"#utility.yul\":4041:4042   */\n      0x00\n        /* \"#utility.yul\":4034:4122   */\n      mstore\n        /* \"#utility.yul\":4141:4145   */\n      0x21\n        /* \"#utility.yul\":4138:4139   */\n      0x04\n        /* \"#utility.yul\":4131:4146   */\n      mstore\n        /* \"#utility.yul\":4165:4169   */\n      0x24\n        /* \"#utility.yul\":4162:4163   */\n      0x00\n        /* \"#utility.yul\":4155:4170   */\n      revert\n        /* \"#utility.yul\":4182:4302   */\n    tag_295:\n        /* \"#utility.yul\":4270:4271   */\n      0x03\n        /* \"#utility.yul\":4263:4268   */\n      dup2\n        /* \"#utility.yul\":4260:4272   */\n      lt\n        /* \"#utility.yul\":4250:4296   */\n      tag_371\n      jumpi\n        /* \"#utility.yul\":4276:4294   */\n      tag_372\n      tag_81\n      jump\t// in\n    tag_372:\n        /* \"#utility.yul\":4250:4296   */\n    tag_371:\n        /* \"#utility.yul\":4182:4302   */\n      pop\n      jump\t// out\n        /* \"#utility.yul\":4308:4449   */\n    tag_296:\n        /* \"#utility.yul\":4360:4367   */\n      0x00\n        /* \"#utility.yul\":4389:4394   */\n      dup2\n        /* \"#utility.yul\":4378:4394   */\n      swap1\n      pop\n        /* \"#utility.yul\":4395:4443   */\n      tag_374\n        /* \"#utility.yul\":4437:4442   */\n      dup3\n        /* \"#utility.yul\":4395:4443   */\n      tag_295\n      jump\t// in\n    tag_374:\n        /* \"#utility.yul\":4308:4449   */\n      swap2\n      swap1\n      pop\n      jump\t// out\n        /* \"#utility.yul\":4455:4596   */\n    tag_297:\n        /* \"#utility.yul\":4518:4527   */\n      0x00\n        /* \"#utility.yul\":4551:4590   */\n      tag_376\n        /* \"#utility.yul\":4584:4589   */\n      dup3\n        /* \"#utility.yul\":4551:4590   */\n      tag_296\n      jump\t// in\n    tag_376:\n        /* \"#utility.yul\":4538:4590   */\n      swap1\n      pop\n        /* \"#utility.yul\":4455:4596   */\n      swap2\n      swap1\n      pop\n      jump\t// out\n        /* \"#utility.yul\":4602:4749   */\n    tag_298:\n        /* \"#utility.yul\":4692:4742   */\n      tag_378\n        /* \"#utility.yul\":4736:4741   */\n      dup2\n        /* \"#utility.yul\":4692:4742   */\n      tag_297\n      jump\t// in\n    tag_378:\n        /* \"#utility.yul\":4687:4690   */\n      dup3\n        /* \"#utility.yul\":4680:4743   */\n      mstore\n        /* \"#utility.yul\":4602:4749   */\n      pop\n      pop\n      jump\t// out\n        /* \"#utility.yul\":4821:5882   */\n    tag_299:\n        /* \"#utility.yul\":4972:4976   */\n      0xa0\n        /* \"#utility.yul\":4967:4970   */\n      dup3\n        /* \"#utility.yul\":4963:4977   */\n      add\n        /* \"#utility.yul\":5067:5071   */\n      0x00\n        /* \"#utility.yul\":5060:5065   */\n      dup3\n        /* \"#utility.yul\":5056:5072   */\n      add\n        /* \"#utility.yul\":5050:5073   */\n      mload\n        /* \"#utility.yul\":5086:5149   */\n      tag_380\n        /* \"#utility.yul\":5143:5147   */\n      0x00\n        /* \"#utility.yul\":5138:5141   */\n      dup6\n        /* \"#utility.yul\":5134:5148   */\n      add\n        /* \"#utility.yul\":5120:5132   */\n      dup3\n        /* \"#utility.yul\":5086:5149   */\n      tag_293\n      jump\t// in\n    tag_380:\n        /* \"#utility.yul\":4987:5159   */\n      pop\n        /* \"#utility.yul\":5243:5247   */\n      0x20\n        /* \"#utility.yul\":5236:5241   */\n      dup3\n        /* \"#utility.yul\":5232:5248   */\n      add\n        /* \"#utility.yul\":5226:5249   */\n      mload\n        /* \"#utility.yul\":5262:5325   */\n      tag_381\n        /* \"#utility.yul\":5319:5323   */\n      0x20\n        /* \"#utility.yul\":5314:5317   */\n      dup6\n        /* \"#utility.yul\":5310:5324   */\n      add\n        /* \"#utility.yul\":5296:5308   */\n      dup3\n        /* \"#utility.yul\":5262:5325   */\n      tag_294\n      jump\t// in\n    tag_381:\n        /* \"#utility.yul\":5169:5335   */\n      pop\n        /* \"#utility.yul\":5422:5426   */\n      0x40\n        /* \"#utility.yul\":5415:5420   */\n      dup3\n        /* \"#utility.yul\":5411:5427   */\n      add\n        /* \"#utility.yul\":5405:5428   */\n      mload\n        /* \"#utility.yul\":5441:5504   */\n      tag_382\n        /* \"#utility.yul\":5498:5502   */\n      0x40\n        /* \"#utility.yul\":5493:5496   */\n      dup6\n        /* \"#utility.yul\":5489:5503   */\n      add\n        /* \"#utility.yul\":5475:5487   */\n      dup3\n        /* \"#utility.yul\":5441:5504   */\n      tag_294\n      jump\t// in\n    tag_382:\n        /* \"#utility.yul\":5345:5514   */\n      pop\n        /* \"#utility.yul\":5596:5600   */\n      0x60\n        /* \"#utility.yul\":5589:5594   */\n      dup3\n        /* \"#utility.yul\":5585:5601   */\n      add\n        /* \"#utility.yul\":5579:5602   */\n      mload\n        /* \"#utility.yul\":5615:5678   */\n      tag_383\n        /* \"#utility.yul\":5672:5676   */\n      0x60\n        /* \"#utility.yul\":5667:5670   */\n      dup6\n        /* \"#utility.yul\":5663:5677   */\n      add\n        /* \"#utility.yul\":5649:5661   */\n      dup3\n        /* \"#utility.yul\":5615:5678   */\n      tag_294\n      jump\t// in\n    tag_383:\n        /* \"#utility.yul\":5524:5688   */\n      pop\n        /* \"#utility.yul\":5770:5774   */\n      0x80\n        /* \"#utility.yul\":5763:5768   */\n      dup3\n        /* \"#utility.yul\":5759:5775   */\n      add\n        /* \"#utility.yul\":5753:5776   */\n      mload\n        /* \"#utility.yul\":5789:5865   */\n      tag_384\n        /* \"#utility.yul\":5859:5863   */\n      0x80\n        /* \"#utility.yul\":5854:5857   */\n      dup6\n        /* \"#utility.yul\":5850:5864   */\n      add\n        /* \"#utility.yul\":5836:5848   */\n      dup3\n        /* \"#utility.yul\":5789:5865   */\n      tag_298\n      jump\t// in\n    tag_384:\n        /* \"#utility.yul\":5698:5875   */\n      pop\n        /* \"#utility.yul\":4941:5882   */\n      pop\n        /* \"#utility.yul\":4821:5882   */\n      pop\n      pop\n      jump\t// out\n        /* \"#utility.yul\":5888:6219   */\n    tag_60:\n        /* \"#utility.yul\":6035:6039   */\n      0x00\n        /* \"#utility.yul\":6073:6076   */\n      0xa0\n        /* \"#utility.yul\":6062:6071   */\n      dup3\n        /* \"#utility.yul\":6058:6077   */\n      add\n        /* \"#utility.yul\":6050:6077   */\n      swap1\n      pop\n        /* \"#utility.yul\":6087:6212   */\n      tag_386\n        /* \"#utility.yul\":6209:6210   */\n      0x00\n        /* \"#utility.yul\":6198:6207   */\n      dup4\n        /* \"#utility.yul\":6194:6211   */\n      add\n        /* \"#utility.yul\":6185:6191   */\n      dup5\n        /* \"#utility.yul\":6087:6212   */\n      tag_299\n      jump\t// in\n    tag_386:\n        /* \"#utility.yul\":5888:6219   */\n      swap3\n      swap2\n      pop\n      pop\n      jump\t// out\n        /* \"#utility.yul\":6225:6394   */\n    tag_300:\n        /* \"#utility.yul\":6309:6320   */\n      0x00\n        /* \"#utility.yul\":6343:6349   */\n      dup3\n        /* \"#utility.yul\":6338:6341   */\n      dup3\n        /* \"#utility.yul\":6331:6350   */\n      mstore\n        /* \"#utility.yul\":6383:6387   */\n      0x20\n        /* \"#utility.yul\":6378:6381   */\n      dup3\n        /* \"#utility.yul\":6374:6388   */\n      add\n        /* \"#utility.yul\":6359:6388   */\n      swap1\n      pop\n        /* \"#utility.yul\":6225:6394   */\n      swap3\n      swap2\n      pop\n      pop\n      jump\t// out\n        /* \"#utility.yul\":6400:6574   */\n    tag_301:\n        /* \"#utility.yul\":6540:6566   */\n      0x43616c6c6572206973206e6f7420617574686f72697a65640000000000000000\n        /* \"#utility.yul\":6536:6537   */\n      0x00\n        /* \"#utility.yul\":6528:6534   */\n      dup3\n        /* \"#utility.yul\":6524:6538   */\n      add\n        /* \"#utility.yul\":6517:6567   */\n      mstore\n        /* \"#utility.yul\":6400:6574   */\n      pop\n      jump\t// out\n        /* \"#utility.yul\":6580:6946   */\n    tag_302:\n        /* \"#utility.yul\":6722:6725   */\n      0x00\n        /* \"#utility.yul\":6743:6810   */\n      tag_390\n        /* \"#utility.yul\":6807:6809   */\n      0x18\n        /* \"#utility.yul\":6802:6805   */\n      dup4\n        /* \"#utility.yul\":6743:6810   */\n      tag_300\n      jump\t// in\n    tag_390:\n        /* \"#utility.yul\":6736:6810   */\n      swap2\n      pop\n        /* \"#utility.yul\":6819:6912   */\n      tag_391\n        /* \"#utility.yul\":6908:6911   */\n      dup3\n        /* \"#utility.yul\":6819:6912   */\n      tag_301\n      jump\t// in\n    tag_391:\n        /* \"#utility.yul\":6937:6939   */\n      0x20\n        /* \"#utility.yul\":6932:6935   */\n      dup3\n        /* \"#utility.yul\":6928:6940   */\n      add\n        /* \"#utility.yul\":6921:6940   */\n      swap1\n      pop\n        /* \"#utility.yul\":6580:6946   */\n      swap2\n      swap1\n      pop\n      jump\t// out\n        /* \"#utility.yul\":6952:7371   */\n    tag_72:\n        /* \"#utility.yul\":7118:7122   */\n      0x00\n        /* \"#utility.yul\":7156:7158   */\n      0x20\n        /* \"#utility.yul\":7145:7154   */\n      dup3\n        /* \"#utility.yul\":7141:7159   */\n      add\n        /* \"#utility.yul\":7133:7159   */\n      swap1\n      pop\n        /* \"#utility.yul\":7205:7214   */\n      dup2\n        /* \"#utility.yul\":7199:7203   */\n      dup2\n        /* \"#utility.yul\":7195:7215   */\n      sub\n        /* \"#utility.yul\":7191:7192   */\n      0x00\n        /* \"#utility.yul\":7180:7189   */\n      dup4\n        /* \"#utility.yul\":7176:7193   */\n      add\n        /* \"#utility.yul\":7169:7216   */\n      mstore\n        /* \"#utility.yul\":7233:7364   */\n      tag_393\n        /* \"#utility.yul\":7359:7363   */\n      dup2\n        /* \"#utility.yul\":7233:7364   */\n      tag_302\n      jump\t// in\n    tag_393:\n        /* \"#utility.yul\":7225:7364   */\n      swap1\n      pop\n        /* \"#utility.yul\":6952:7371   */\n      swap2\n      swap1\n      pop\n      jump\t// out\n        /* \"#utility.yul\":7377:7709   */\n    tag_87:\n        /* \"#utility.yul\":7498:7502   */\n      0x00\n        /* \"#utility.yul\":7536:7538   */\n      0x40\n        /* \"#utility.yul\":7525:7534   */\n      dup3\n        /* \"#utility.yul\":7521:7539   */\n      add\n        /* \"#utility.yul\":7513:7539   */\n      swap1\n      pop\n        /* \"#utility.yul\":7549:7620   */\n      tag_395\n        /* \"#utility.yul\":7617:7618   */\n      0x00\n        /* \"#utility.yul\":7606:7615   */\n      dup4\n        /* \"#utility.yul\":7602:7619   */\n      add\n        /* \"#utility.yul\":7593:7599   */\n      dup6\n        /* \"#utility.yul\":7549:7620   */\n      tag_291\n      jump\t// in\n    tag_395:\n        /* \"#utility.yul\":7630:7702   */\n      tag_396\n        /* \"#utility.yul\":7698:7700   */\n      0x20\n        /* \"#utility.yul\":7687:7696   */\n      dup4\n        /* \"#utility.yul\":7683:7701   */\n      add\n        /* \"#utility.yul\":7674:7680   */\n      dup5\n        /* \"#utility.yul\":7630:7702   */\n      tag_291\n      jump\t// in\n    tag_396:\n        /* \"#utility.yul\":7377:7709   */\n      swap4\n      swap3\n      pop\n      pop\n      pop\n      jump\t// out\n        /* \"#utility.yul\":7715:7858   */\n    tag_303:\n        /* \"#utility.yul\":7772:7777   */\n      0x00\n        /* \"#utility.yul\":7803:7809   */\n      dup2\n        /* \"#utility.yul\":7797:7810   */\n      mload\n        /* \"#utility.yul\":7788:7810   */\n      swap1\n      pop\n        /* \"#utility.yul\":7819:7852   */\n      tag_398\n        /* \"#utility.yul\":7846:7851   */\n      dup2\n        /* \"#utility.yul\":7819:7852   */\n      tag_289\n      jump\t// in\n    tag_398:\n        /* \"#utility.yul\":7715:7858   */\n      swap3\n      swap2\n      pop\n      pop\n      jump\t// out\n        /* \"#utility.yul\":7864:8215   */\n    tag_91:\n        /* \"#utility.yul\":7934:7940   */\n      0x00\n        /* \"#utility.yul\":7983:7985   */\n      0x20\n        /* \"#utility.yul\":7971:7980   */\n      dup3\n        /* \"#utility.yul\":7962:7969   */\n      dup5\n        /* \"#utility.yul\":7958:7981   */\n      sub\n        /* \"#utility.yul\":7954:7986   */\n      slt\n        /* \"#utility.yul\":7951:8070   */\n      iszero\n      tag_400\n      jumpi\n        /* \"#utility.yul\":7989:8068   */\n      tag_401\n      tag_282\n      jump\t// in\n    tag_401:\n        /* \"#utility.yul\":7951:8070   */\n    tag_400:\n        /* \"#utility.yul\":8109:8110   */\n      0x00\n        /* \"#utility.yul\":8134:8198   */\n      tag_402\n        /* \"#utility.yul\":8190:8197   */\n      dup5\n        /* \"#utility.yul\":8181:8187   */\n      dup3\n        /* \"#utility.yul\":8170:8179   */\n      dup6\n        /* \"#utility.yul\":8166:8188   */\n      add\n        /* \"#utility.yul\":8134:8198   */\n      tag_303\n      jump\t// in\n    tag_402:\n        /* \"#utility.yul\":8124:8198   */\n      swap2\n      pop\n        /* \"#utility.yul\":8080:8208   */\n      pop\n        /* \"#utility.yul\":7864:8215   */\n      swap3\n      swap2\n      pop\n      pop\n      jump\t// out\n        /* \"#utility.yul\":8221:8663   */\n    tag_103:\n        /* \"#utility.yul\":8370:8374   */\n      0x00\n        /* \"#utility.yul\":8408:8410   */\n      0x60\n        /* \"#utility.yul\":8397:8406   */\n      dup3\n        /* \"#utility.yul\":8393:8411   */\n      add\n        /* \"#utility.yul\":8385:8411   */\n      swap1\n      pop\n        /* \"#utility.yul\":8421:8492   */\n      tag_404\n        /* \"#utility.yul\":8489:8490   */\n      0x00\n        /* \"#utility.yul\":8478:8487   */\n      dup4\n        /* \"#utility.yul\":8474:8491   */\n      add\n        /* \"#utility.yul\":8465:8471   */\n      dup7\n        /* \"#utility.yul\":8421:8492   */\n      tag_291\n      jump\t// in\n    tag_404:\n        /* \"#utility.yul\":8502:8574   */\n      tag_405\n        /* \"#utility.yul\":8570:8572   */\n      0x20\n        /* \"#utility.yul\":8559:8568   */\n      dup4\n        /* \"#utility.yul\":8555:8573   */\n      add\n        /* \"#utility.yul\":8546:8552   */\n      dup6\n        /* \"#utility.yul\":8502:8574   */\n      tag_291\n      jump\t// in\n    tag_405:\n        /* \"#utility.yul\":8584:8656   */\n      tag_406\n        /* \"#utility.yul\":8652:8654   */\n      0x40\n        /* \"#utility.yul\":8641:8650   */\n      dup4\n        /* \"#utility.yul\":8637:8655   */\n      add\n        /* \"#utility.yul\":8628:8634   */\n      dup5\n        /* \"#utility.yul\":8584:8656   */\n      tag_292\n      jump\t// in\n    tag_406:\n        /* \"#utility.yul\":8221:8663   */\n      swap5\n      swap4\n      pop\n      pop\n      pop\n      pop\n      jump\t// out\n        /* \"#utility.yul\":8669:8785   */\n    tag_304:\n        /* \"#utility.yul\":8739:8760   */\n      tag_408\n        /* \"#utility.yul\":8754:8759   */\n      dup2\n        /* \"#utility.yul\":8739:8760   */\n      tag_279\n      jump\t// in\n    tag_408:\n        /* \"#utility.yul\":8732:8737   */\n      dup2\n        /* \"#utility.yul\":8729:8761   */\n      eq\n        /* \"#utility.yul\":8719:8779   */\n      tag_409\n      jumpi\n        /* \"#utility.yul\":8775:8776   */\n      0x00\n        /* \"#utility.yul\":8772:8773   */\n      dup1\n        /* \"#utility.yul\":8765:8777   */\n      revert\n        /* \"#utility.yul\":8719:8779   */\n    tag_409:\n        /* \"#utility.yul\":8669:8785   */\n      pop\n      jump\t// out\n        /* \"#utility.yul\":8791:8928   */\n    tag_305:\n        /* \"#utility.yul\":8845:8850   */\n      0x00\n        /* \"#utility.yul\":8876:8882   */\n      dup2\n        /* \"#utility.yul\":8870:8883   */\n      mload\n        /* \"#utility.yul\":8861:8883   */\n      swap1\n      pop\n        /* \"#utility.yul\":8892:8922   */\n      tag_411\n        /* \"#utility.yul\":8916:8921   */\n      dup2\n        /* \"#utility.yul\":8892:8922   */\n      tag_304\n      jump\t// in\n    tag_411:\n        /* \"#utility.yul\":8791:8928   */\n      swap3\n      swap2\n      pop\n      pop\n      jump\t// out\n        /* \"#utility.yul\":8934:9279   */\n    tag_107:\n        /* \"#utility.yul\":9001:9007   */\n      0x00\n        /* \"#utility.yul\":9050:9052   */\n      0x20\n        /* \"#utility.yul\":9038:9047   */\n      dup3\n        /* \"#utility.yul\":9029:9036   */\n      dup5\n        /* \"#utility.yul\":9025:9048   */\n      sub\n        /* \"#utility.yul\":9021:9053   */\n      slt\n        /* \"#utility.yul\":9018:9137   */\n      iszero\n      tag_413\n      jumpi\n        /* \"#utility.yul\":9056:9135   */\n      tag_414\n      tag_282\n      jump\t// in\n    tag_414:\n        /* \"#utility.yul\":9018:9137   */\n    tag_413:\n        /* \"#utility.yul\":9176:9177   */\n      0x00\n        /* \"#utility.yul\":9201:9262   */\n      tag_415\n        /* \"#utility.yul\":9254:9261   */\n      dup5\n        /* \"#utility.yul\":9245:9251   */\n      dup3\n        /* \"#utility.yul\":9234:9243   */\n      dup6\n        /* \"#utility.yul\":9230:9252   */\n      add\n        /* \"#utility.yul\":9201:9262   */\n      tag_305\n      jump\t// in\n    tag_415:\n        /* \"#utility.yul\":9191:9262   */\n      swap2\n      pop\n        /* \"#utility.yul\":9147:9272   */\n      pop\n        /* \"#utility.yul\":8934:9279   */\n      swap3\n      swap2\n      pop\n      pop\n      jump\t// out\n        /* \"#utility.yul\":9285:9505   */\n    tag_306:\n        /* \"#utility.yul\":9425:9459   */\n      0x546f6b656e207472616e7366657220746f2065786368616e6765206661696c65\n        /* \"#utility.yul\":9421:9422   */\n      0x00\n        /* \"#utility.yul\":9413:9419   */\n      dup3\n        /* \"#utility.yul\":9409:9423   */\n      add\n        /* \"#utility.yul\":9402:9460   */\n      mstore\n        /* \"#utility.yul\":9494:9497   */\n      0x6400000000000000000000000000000000000000000000000000000000000000\n        /* \"#utility.yul\":9489:9491   */\n      0x20\n        /* \"#utility.yul\":9481:9487   */\n      dup3\n        /* \"#utility.yul\":9477:9492   */\n      add\n        /* \"#utility.yul\":9470:9498   */\n      mstore\n        /* \"#utility.yul\":9285:9505   */\n      pop\n      jump\t// out\n        /* \"#utility.yul\":9511:9877   */\n    tag_307:\n        /* \"#utility.yul\":9653:9656   */\n      0x00\n        /* \"#utility.yul\":9674:9741   */\n      tag_418\n        /* \"#utility.yul\":9738:9740   */\n      0x21\n        /* \"#utility.yul\":9733:9736   */\n      dup4\n        /* \"#utility.yul\":9674:9741   */\n      tag_300\n      jump\t// in\n    tag_418:\n        /* \"#utility.yul\":9667:9741   */\n      swap2\n      pop\n        /* \"#utility.yul\":9750:9843   */\n      tag_419\n        /* \"#utility.yul\":9839:9842   */\n      dup3\n        /* \"#utility.yul\":9750:9843   */\n      tag_306\n      jump\t// in\n    tag_419:\n        /* \"#utility.yul\":9868:9870   */\n      0x40\n        /* \"#utility.yul\":9863:9866   */\n      dup3\n        /* \"#utility.yul\":9859:9871   */\n      add\n        /* \"#utility.yul\":9852:9871   */\n      swap1\n      pop\n        /* \"#utility.yul\":9511:9877   */\n      swap2\n      swap1\n      pop\n      jump\t// out\n        /* \"#utility.yul\":9883:10302   */\n    tag_110:\n        /* \"#utility.yul\":10049:10053   */\n      0x00\n        /* \"#utility.yul\":10087:10089   */\n      0x20\n        /* \"#utility.yul\":10076:10085   */\n      dup3\n        /* \"#utility.yul\":10072:10090   */\n      add\n        /* \"#utility.yul\":10064:10090   */\n      swap1\n      pop\n        /* \"#utility.yul\":10136:10145   */\n      dup2\n        /* \"#utility.yul\":10130:10134   */\n      dup2\n        /* \"#utility.yul\":10126:10146   */\n      sub\n        /* \"#utility.yul\":10122:10123   */\n      0x00\n        /* \"#utility.yul\":10111:10120   */\n      dup4\n        /* \"#utility.yul\":10107:10124   */\n      add\n        /* \"#utility.yul\":10100:10147   */\n      mstore\n        /* \"#utility.yul\":10164:10295   */\n      tag_421\n        /* \"#utility.yul\":10290:10294   */\n      dup2\n        /* \"#utility.yul\":10164:10295   */\n      tag_307\n      jump\t// in\n    tag_421:\n        /* \"#utility.yul\":10156:10295   */\n      swap1\n      pop\n        /* \"#utility.yul\":9883:10302   */\n      swap2\n      swap1\n      pop\n      jump\t// out\n        /* \"#utility.yul\":10308:10488   */\n    tag_308:\n        /* \"#utility.yul\":10356:10433   */\n      0x4e487b7100000000000000000000000000000000000000000000000000000000\n        /* \"#utility.yul\":10353:10354   */\n      0x00\n        /* \"#utility.yul\":10346:10434   */\n      mstore\n        /* \"#utility.yul\":10453:10457   */\n      0x11\n        /* \"#utility.yul\":10450:10451   */\n      0x04\n        /* \"#utility.yul\":10443:10458   */\n      mstore\n        /* \"#utility.yul\":10477:10481   */\n      0x24\n        /* \"#utility.yul\":10474:10475   */\n      0x00\n        /* \"#utility.yul\":10467:10482   */\n      revert\n        /* \"#utility.yul\":10494:10904   */\n    tag_122:\n        /* \"#utility.yul\":10534:10541   */\n      0x00\n        /* \"#utility.yul\":10557:10577   */\n      tag_424\n        /* \"#utility.yul\":10575:10576   */\n      dup3\n        /* \"#utility.yul\":10557:10577   */\n      tag_288\n      jump\t// in\n    tag_424:\n        /* \"#utility.yul\":10552:10577   */\n      swap2\n      pop\n        /* \"#utility.yul\":10591:10611   */\n      tag_425\n        /* \"#utility.yul\":10609:10610   */\n      dup4\n        /* \"#utility.yul\":10591:10611   */\n      tag_288\n      jump\t// in\n    tag_425:\n        /* \"#utility.yul\":10586:10611   */\n      swap3\n      pop\n        /* \"#utility.yul\":10646:10647   */\n      dup3\n        /* \"#utility.yul\":10643:10644   */\n      dup3\n        /* \"#utility.yul\":10639:10648   */\n      mul\n        /* \"#utility.yul\":10668:10698   */\n      tag_426\n        /* \"#utility.yul\":10686:10697   */\n      dup2\n        /* \"#utility.yul\":10668:10698   */\n      tag_288\n      jump\t// in\n    tag_426:\n        /* \"#utility.yul\":10657:10698   */\n      swap2\n      pop\n        /* \"#utility.yul\":10847:10848   */\n      dup3\n        /* \"#utility.yul\":10838:10845   */\n      dup3\n        /* \"#utility.yul\":10834:10849   */\n      div\n        /* \"#utility.yul\":10831:10832   */\n      dup5\n        /* \"#utility.yul\":10828:10850   */\n      eq\n        /* \"#utility.yul\":10808:10809   */\n      dup4\n        /* \"#utility.yul\":10801:10810   */\n      iszero\n        /* \"#utility.yul\":10781:10864   */\n      or\n        /* \"#utility.yul\":10758:10897   */\n      tag_427\n      jumpi\n        /* \"#utility.yul\":10877:10895   */\n      tag_428\n      tag_308\n      jump\t// in\n    tag_428:\n        /* \"#utility.yul\":10758:10897   */\n    tag_427:\n        /* \"#utility.yul\":10542:10904   */\n      pop\n        /* \"#utility.yul\":10494:10904   */\n      swap3\n      swap2\n      pop\n      pop\n      jump\t// out\n        /* \"#utility.yul\":10910:11104   */\n    tag_128:\n        /* \"#utility.yul\":10950:10954   */\n      0x00\n        /* \"#utility.yul\":10970:10990   */\n      tag_430\n        /* \"#utility.yul\":10988:10989   */\n      dup3\n        /* \"#utility.yul\":10970:10990   */\n      tag_288\n      jump\t// in\n    tag_430:\n        /* \"#utility.yul\":10965:10990   */\n      swap2\n      pop\n        /* \"#utility.yul\":11004:11024   */\n      tag_431\n        /* \"#utility.yul\":11022:11023   */\n      dup4\n        /* \"#utility.yul\":11004:11024   */\n      tag_288\n      jump\t// in\n    tag_431:\n        /* \"#utility.yul\":10999:11024   */\n      swap3\n      pop\n        /* \"#utility.yul\":11048:11049   */\n      dup3\n        /* \"#utility.yul\":11045:11046   */\n      dup3\n        /* \"#utility.yul\":11041:11050   */\n      sub\n        /* \"#utility.yul\":11033:11050   */\n      swap1\n      pop\n        /* \"#utility.yul\":11072:11073   */\n      dup2\n        /* \"#utility.yul\":11066:11070   */\n      dup2\n        /* \"#utility.yul\":11063:11074   */\n      gt\n        /* \"#utility.yul\":11060:11097   */\n      iszero\n      tag_432\n      jumpi\n        /* \"#utility.yul\":11077:11095   */\n      tag_433\n      tag_308\n      jump\t// in\n    tag_433:\n        /* \"#utility.yul\":11060:11097   */\n    tag_432:\n        /* \"#utility.yul\":10910:11104   */\n      swap3\n      swap2\n      pop\n      pop\n      jump\t// out\n        /* \"#utility.yul\":11110:11340   */\n    tag_309:\n        /* \"#utility.yul\":11250:11284   */\n      0x5472616e7366657220746f20746865207a65726f206164647265737320697320\n        /* \"#utility.yul\":11246:11247   */\n      0x00\n        /* \"#utility.yul\":11238:11244   */\n      dup3\n        /* \"#utility.yul\":11234:11248   */\n      add\n        /* \"#utility.yul\":11227:11285   */\n      mstore\n        /* \"#utility.yul\":11319:11332   */\n      0x6e6f7420616c6c6f776564000000000000000000000000000000000000000000\n        /* \"#utility.yul\":11314:11316   */\n      0x20\n        /* \"#utility.yul\":11306:11312   */\n      dup3\n        /* \"#utility.yul\":11302:11317   */\n      add\n        /* \"#utility.yul\":11295:11333   */\n      mstore\n        /* \"#utility.yul\":11110:11340   */\n      pop\n      jump\t// out\n        /* \"#utility.yul\":11346:11712   */\n    tag_310:\n        /* \"#utility.yul\":11488:11491   */\n      0x00\n        /* \"#utility.yul\":11509:11576   */\n      tag_436\n        /* \"#utility.yul\":11573:11575   */\n      0x2b\n        /* \"#utility.yul\":11568:11571   */\n      dup4\n        /* \"#utility.yul\":11509:11576   */\n      tag_300\n      jump\t// in\n    tag_436:\n        /* \"#utility.yul\":11502:11576   */\n      swap2\n      pop\n        /* \"#utility.yul\":11585:11678   */\n      tag_437\n        /* \"#utility.yul\":11674:11677   */\n      dup3\n        /* \"#utility.yul\":11585:11678   */\n      tag_309\n      jump\t// in\n    tag_437:\n        /* \"#utility.yul\":11703:11705   */\n      0x40\n        /* \"#utility.yul\":11698:11701   */\n      dup3\n        /* \"#utility.yul\":11694:11706   */\n      add\n        /* \"#utility.yul\":11687:11706   */\n      swap1\n      pop\n        /* \"#utility.yul\":11346:11712   */\n      swap2\n      swap1\n      pop\n      jump\t// out\n        /* \"#utility.yul\":11718:12137   */\n    tag_143:\n        /* \"#utility.yul\":11884:11888   */\n      0x00\n        /* \"#utility.yul\":11922:11924   */\n      0x20\n        /* \"#utility.yul\":11911:11920   */\n      dup3\n        /* \"#utility.yul\":11907:11925   */\n      add\n        /* \"#utility.yul\":11899:11925   */\n      swap1\n      pop\n        /* \"#utility.yul\":11971:11980   */\n      dup2\n        /* \"#utility.yul\":11965:11969   */\n      dup2\n        /* \"#utility.yul\":11961:11981   */\n      sub\n        /* \"#utility.yul\":11957:11958   */\n      0x00\n        /* \"#utility.yul\":11946:11955   */\n      dup4\n        /* \"#utility.yul\":11942:11959   */\n      add\n        /* \"#utility.yul\":11935:11982   */\n      mstore\n        /* \"#utility.yul\":11999:12130   */\n      tag_439\n        /* \"#utility.yul\":12125:12129   */\n      dup2\n        /* \"#utility.yul\":11999:12130   */\n      tag_310\n      jump\t// in\n    tag_439:\n        /* \"#utility.yul\":11991:12130   */\n      swap1\n      pop\n        /* \"#utility.yul\":11718:12137   */\n      swap2\n      swap1\n      pop\n      jump\t// out\n        /* \"#utility.yul\":12143:12323   */\n    tag_162:\n        /* \"#utility.yul\":12191:12268   */\n      0x4e487b7100000000000000000000000000000000000000000000000000000000\n        /* \"#utility.yul\":12188:12189   */\n      0x00\n        /* \"#utility.yul\":12181:12269   */\n      mstore\n        /* \"#utility.yul\":12288:12292   */\n      0x32\n        /* \"#utility.yul\":12285:12286   */\n      0x04\n        /* \"#utility.yul\":12278:12293   */\n      mstore\n        /* \"#utility.yul\":12312:12316   */\n      0x24\n        /* \"#utility.yul\":12309:12310   */\n      0x00\n        /* \"#utility.yul\":12302:12317   */\n      revert\n        /* \"#utility.yul\":12329:12500   */\n    tag_180:\n        /* \"#utility.yul\":12368:12371   */\n      0x00\n        /* \"#utility.yul\":12391:12415   */\n      tag_442\n        /* \"#utility.yul\":12409:12414   */\n      dup3\n        /* \"#utility.yul\":12391:12415   */\n      tag_288\n      jump\t// in\n    tag_442:\n        /* \"#utility.yul\":12382:12415   */\n      swap2\n      pop\n        /* \"#utility.yul\":12437:12441   */\n      0x00\n        /* \"#utility.yul\":12430:12435   */\n      dup3\n        /* \"#utility.yul\":12427:12442   */\n      sub\n        /* \"#utility.yul\":12424:12465   */\n      tag_443\n      jumpi\n        /* \"#utility.yul\":12445:12463   */\n      tag_444\n      tag_308\n      jump\t// in\n    tag_444:\n        /* \"#utility.yul\":12424:12465   */\n    tag_443:\n        /* \"#utility.yul\":12492:12493   */\n      0x01\n        /* \"#utility.yul\":12485:12490   */\n      dup3\n        /* \"#utility.yul\":12481:12494   */\n      sub\n        /* \"#utility.yul\":12474:12494   */\n      swap1\n      pop\n        /* \"#utility.yul\":12329:12500   */\n      swap2\n      swap1\n      pop\n      jump\t// out\n        /* \"#utility.yul\":12506:12653   */\n    tag_311:\n        /* \"#utility.yul\":12607:12618   */\n      0x00\n        /* \"#utility.yul\":12644:12647   */\n      dup2\n        /* \"#utility.yul\":12629:12647   */\n      swap1\n      pop\n        /* \"#utility.yul\":12506:12653   */\n      swap3\n      swap2\n      pop\n      pop\n      jump\t// out\n        /* \"#utility.yul\":12659:12773   */\n    tag_312:\n      pop\n      jump\t// out\n        /* \"#utility.yul\":12779:13177   */\n    tag_313:\n        /* \"#utility.yul\":12938:12941   */\n      0x00\n        /* \"#utility.yul\":12959:13042   */\n      tag_448\n        /* \"#utility.yul\":13040:13041   */\n      0x00\n        /* \"#utility.yul\":13035:13038   */\n      dup4\n        /* \"#utility.yul\":12959:13042   */\n      tag_311\n      jump\t// in\n    tag_448:\n        /* \"#utility.yul\":12952:13042   */\n      swap2\n      pop\n        /* \"#utility.yul\":13051:13144   */\n      tag_449\n        /* \"#utility.yul\":13140:13143   */\n      dup3\n        /* \"#utility.yul\":13051:13144   */\n      tag_312\n      jump\t// in\n    tag_449:\n        /* \"#utility.yul\":13169:13170   */\n      0x00\n        /* \"#utility.yul\":13164:13167   */\n      dup3\n        /* \"#utility.yul\":13160:13171   */\n      add\n        /* \"#utility.yul\":13153:13171   */\n      swap1\n      pop\n        /* \"#utility.yul\":12779:13177   */\n      swap2\n      swap1\n      pop\n      jump\t// out\n        /* \"#utility.yul\":13183:13562   */\n    tag_189:\n        /* \"#utility.yul\":13367:13370   */\n      0x00\n        /* \"#utility.yul\":13389:13536   */\n      tag_451\n        /* \"#utility.yul\":13532:13535   */\n      dup3\n        /* \"#utility.yul\":13389:13536   */\n      tag_313\n      jump\t// in\n    tag_451:\n        /* \"#utility.yul\":13382:13536   */\n      swap2\n      pop\n        /* \"#utility.yul\":13553:13556   */\n      dup2\n        /* \"#utility.yul\":13546:13556   */\n      swap1\n      pop\n        /* \"#utility.yul\":13183:13562   */\n      swap2\n      swap1\n      pop\n      jump\t// out\n        /* \"#utility.yul\":13568:13738   */\n    tag_314:\n        /* \"#utility.yul\":13708:13730   */\n      0x4661696c656420746f2073656e64204574686572000000000000000000000000\n        /* \"#utility.yul\":13704:13705   */\n      0x00\n        /* \"#utility.yul\":13696:13702   */\n      dup3\n        /* \"#utility.yul\":13692:13706   */\n      add\n        /* \"#utility.yul\":13685:13731   */\n      mstore\n        /* \"#utility.yul\":13568:13738   */\n      pop\n      jump\t// out\n        /* \"#utility.yul\":13744:14110   */\n    tag_315:\n        /* \"#utility.yul\":13886:13889   */\n      0x00\n        /* \"#utility.yul\":13907:13974   */\n      tag_454\n        /* \"#utility.yul\":13971:13973   */\n      0x14\n        /* \"#utility.yul\":13966:13969   */\n      dup4\n        /* \"#utility.yul\":13907:13974   */\n      tag_300\n      jump\t// in\n    tag_454:\n        /* \"#utility.yul\":13900:13974   */\n      swap2\n      pop\n        /* \"#utility.yul\":13983:14076   */\n      tag_455\n        /* \"#utility.yul\":14072:14075   */\n      dup3\n        /* \"#utility.yul\":13983:14076   */\n      tag_314\n      jump\t// in\n    tag_455:\n        /* \"#utility.yul\":14101:14103   */\n      0x20\n        /* \"#utility.yul\":14096:14099   */\n      dup3\n        /* \"#utility.yul\":14092:14104   */\n      add\n        /* \"#utility.yul\":14085:14104   */\n      swap1\n      pop\n        /* \"#utility.yul\":13744:14110   */\n      swap2\n      swap1\n      pop\n      jump\t// out\n        /* \"#utility.yul\":14116:14535   */\n    tag_195:\n        /* \"#utility.yul\":14282:14286   */\n      0x00\n        /* \"#utility.yul\":14320:14322   */\n      0x20\n        /* \"#utility.yul\":14309:14318   */\n      dup3\n        /* \"#utility.yul\":14305:14323   */\n      add\n        /* \"#utility.yul\":14297:14323   */\n      swap1\n      pop\n        /* \"#utility.yul\":14369:14378   */\n      dup2\n        /* \"#utility.yul\":14363:14367   */\n      dup2\n        /* \"#utility.yul\":14359:14379   */\n      sub\n        /* \"#utility.yul\":14355:14356   */\n      0x00\n        /* \"#utility.yul\":14344:14353   */\n      dup4\n        /* \"#utility.yul\":14340:14357   */\n      add\n        /* \"#utility.yul\":14333:14380   */\n      mstore\n        /* \"#utility.yul\":14397:14528   */\n      tag_457\n        /* \"#utility.yul\":14523:14527   */\n      dup2\n        /* \"#utility.yul\":14397:14528   */\n      tag_315\n      jump\t// in\n    tag_457:\n        /* \"#utility.yul\":14389:14528   */\n      swap1\n      pop\n        /* \"#utility.yul\":14116:14535   */\n      swap2\n      swap1\n      pop\n      jump\t// out\n        /* \"#utility.yul\":14541:14873   */\n    tag_214:\n        /* \"#utility.yul\":14662:14666   */\n      0x00\n        /* \"#utility.yul\":14700:14702   */\n      0x40\n        /* \"#utility.yul\":14689:14698   */\n      dup3\n        /* \"#utility.yul\":14685:14703   */\n      add\n        /* \"#utility.yul\":14677:14703   */\n      swap1\n      pop\n        /* \"#utility.yul\":14713:14784   */\n      tag_459\n        /* \"#utility.yul\":14781:14782   */\n      0x00\n        /* \"#utility.yul\":14770:14779   */\n      dup4\n        /* \"#utility.yul\":14766:14783   */\n      add\n        /* \"#utility.yul\":14757:14763   */\n      dup6\n        /* \"#utility.yul\":14713:14784   */\n      tag_291\n      jump\t// in\n    tag_459:\n        /* \"#utility.yul\":14794:14866   */\n      tag_460\n        /* \"#utility.yul\":14862:14864   */\n      0x20\n        /* \"#utility.yul\":14851:14860   */\n      dup4\n        /* \"#utility.yul\":14847:14865   */\n      add\n        /* \"#utility.yul\":14838:14844   */\n      dup5\n        /* \"#utility.yul\":14794:14866   */\n      tag_292\n      jump\t// in\n    tag_460:\n        /* \"#utility.yul\":14541:14873   */\n      swap4\n      swap3\n      pop\n      pop\n      pop\n      jump\t// out\n        /* \"#utility.yul\":14879:15059   */\n    tag_316:\n        /* \"#utility.yul\":15019:15051   */\n      0x546f6b656e207472616e7366657220746f206275796572206661696c65640000\n        /* \"#utility.yul\":15015:15016   */\n      0x00\n        /* \"#utility.yul\":15007:15013   */\n      dup3\n        /* \"#utility.yul\":15003:15017   */\n      add\n        /* \"#utility.yul\":14996:15052   */\n      mstore\n        /* \"#utility.yul\":14879:15059   */\n      pop\n      jump\t// out\n        /* \"#utility.yul\":15065:15431   */\n    tag_317:\n        /* \"#utility.yul\":15207:15210   */\n      0x00\n        /* \"#utility.yul\":15228:15295   */\n      tag_463\n        /* \"#utility.yul\":15292:15294   */\n      0x1e\n        /* \"#utility.yul\":15287:15290   */\n      dup4\n        /* \"#utility.yul\":15228:15295   */\n      tag_300\n      jump\t// in\n    tag_463:\n        /* \"#utility.yul\":15221:15295   */\n      swap2\n      pop\n        /* \"#utility.yul\":15304:15397   */\n      tag_464\n        /* \"#utility.yul\":15393:15396   */\n      dup3\n        /* \"#utility.yul\":15304:15397   */\n      tag_316\n      jump\t// in\n    tag_464:\n        /* \"#utility.yul\":15422:15424   */\n      0x20\n        /* \"#utility.yul\":15417:15420   */\n      dup3\n        /* \"#utility.yul\":15413:15425   */\n      add\n        /* \"#utility.yul\":15406:15425   */\n      swap1\n      pop\n        /* \"#utility.yul\":15065:15431   */\n      swap2\n      swap1\n      pop\n      jump\t// out\n        /* \"#utility.yul\":15437:15856   */\n    tag_220:\n        /* \"#utility.yul\":15603:15607   */\n      0x00\n        /* \"#utility.yul\":15641:15643   */\n      0x20\n        /* \"#utility.yul\":15630:15639   */\n      dup3\n        /* \"#utility.yul\":15626:15644   */\n      add\n        /* \"#utility.yul\":15618:15644   */\n      swap1\n      pop\n        /* \"#utility.yul\":15690:15699   */\n      dup2\n        /* \"#utility.yul\":15684:15688   */\n      dup2\n        /* \"#utility.yul\":15680:15700   */\n      sub\n        /* \"#utility.yul\":15676:15677   */\n      0x00\n        /* \"#utility.yul\":15665:15674   */\n      dup4\n        /* \"#utility.yul\":15661:15678   */\n      add\n        /* \"#utility.yul\":15654:15701   */\n      mstore\n        /* \"#utility.yul\":15718:15849   */\n      tag_466\n        /* \"#utility.yul\":15844:15848   */\n      dup2\n        /* \"#utility.yul\":15718:15849   */\n      tag_317\n      jump\t// in\n    tag_466:\n        /* \"#utility.yul\":15710:15849   */\n      swap1\n      pop\n        /* \"#utility.yul\":15437:15856   */\n      swap2\n      swap1\n      pop\n      jump\t// out\n        /* \"#utility.yul\":15862:16053   */\n    tag_226:\n        /* \"#utility.yul\":15902:15905   */\n      0x00\n        /* \"#utility.yul\":15921:15941   */\n      tag_468\n        /* \"#utility.yul\":15939:15940   */\n      dup3\n        /* \"#utility.yul\":15921:15941   */\n      tag_288\n      jump\t// in\n    tag_468:\n        /* \"#utility.yul\":15916:15941   */\n      swap2\n      pop\n        /* \"#utility.yul\":15955:15975   */\n      tag_469\n        /* \"#utility.yul\":15973:15974   */\n      dup4\n        /* \"#utility.yul\":15955:15975   */\n      tag_288\n      jump\t// in\n    tag_469:\n        /* \"#utility.yul\":15950:15975   */\n      swap3\n      pop\n        /* \"#utility.yul\":15998:15999   */\n      dup3\n        /* \"#utility.yul\":15995:15996   */\n      dup3\n        /* \"#utility.yul\":15991:16000   */\n      add\n        /* \"#utility.yul\":15984:16000   */\n      swap1\n      pop\n        /* \"#utility.yul\":16019:16022   */\n      dup1\n        /* \"#utility.yul\":16016:16017   */\n      dup3\n        /* \"#utility.yul\":16013:16023   */\n      gt\n        /* \"#utility.yul\":16010:16046   */\n      iszero\n      tag_470\n      jumpi\n        /* \"#utility.yul\":16026:16044   */\n      tag_471\n      tag_308\n      jump\t// in\n    tag_471:\n        /* \"#utility.yul\":16010:16046   */\n    tag_470:\n        /* \"#utility.yul\":15862:16053   */\n      swap3\n      swap2\n      pop\n      pop\n      jump\t// out\n        /* \"#utility.yul\":16059:16216   */\n    tag_318:\n        /* \"#utility.yul\":16159:16209   */\n      tag_473\n        /* \"#utility.yul\":16203:16208   */\n      dup2\n        /* \"#utility.yul\":16159:16209   */\n      tag_297\n      jump\t// in\n    tag_473:\n        /* \"#utility.yul\":16154:16157   */\n      dup3\n        /* \"#utility.yul\":16147:16210   */\n      mstore\n        /* \"#utility.yul\":16059:16216   */\n      pop\n      pop\n      jump\t// out\n        /* \"#utility.yul\":16222:16690   */\n    tag_241:\n        /* \"#utility.yul\":16384:16388   */\n      0x00\n        /* \"#utility.yul\":16422:16424   */\n      0x60\n        /* \"#utility.yul\":16411:16420   */\n      dup3\n        /* \"#utility.yul\":16407:16425   */\n      add\n        /* \"#utility.yul\":16399:16425   */\n      swap1\n      pop\n        /* \"#utility.yul\":16435:16519   */\n      tag_475\n        /* \"#utility.yul\":16516:16517   */\n      0x00\n        /* \"#utility.yul\":16505:16514   */\n      dup4\n        /* \"#utility.yul\":16501:16518   */\n      add\n        /* \"#utility.yul\":16492:16498   */\n      dup7\n        /* \"#utility.yul\":16435:16519   */\n      tag_318\n      jump\t// in\n    tag_475:\n        /* \"#utility.yul\":16529:16601   */\n      tag_476\n        /* \"#utility.yul\":16597:16599   */\n      0x20\n        /* \"#utility.yul\":16586:16595   */\n      dup4\n        /* \"#utility.yul\":16582:16600   */\n      add\n        /* \"#utility.yul\":16573:16579   */\n      dup6\n        /* \"#utility.yul\":16529:16601   */\n      tag_292\n      jump\t// in\n    tag_476:\n        /* \"#utility.yul\":16611:16683   */\n      tag_477\n        /* \"#utility.yul\":16679:16681   */\n      0x40\n        /* \"#utility.yul\":16668:16677   */\n      dup4\n        /* \"#utility.yul\":16664:16682   */\n      add\n        /* \"#utility.yul\":16655:16661   */\n      dup5\n        /* \"#utility.yul\":16611:16683   */\n      tag_292\n      jump\t// in\n    tag_477:\n        /* \"#utility.yul\":16222:16690   */\n      swap5\n      swap4\n      pop\n      pop\n      pop\n      pop\n      jump\t// out\n        /* \"#utility.yul\":16696:16876   */\n    tag_275:\n        /* \"#utility.yul\":16744:16821   */\n      0x4e487b7100000000000000000000000000000000000000000000000000000000\n        /* \"#utility.yul\":16741:16742   */\n      0x00\n        /* \"#utility.yul\":16734:16822   */\n      mstore\n        /* \"#utility.yul\":16841:16845   */\n      0x31\n        /* \"#utility.yul\":16838:16839   */\n      0x04\n        /* \"#utility.yul\":16831:16846   */\n      mstore\n        /* \"#utility.yul\":16865:16869   */\n      0x24\n        /* \"#utility.yul\":16862:16863   */\n      0x00\n        /* \"#utility.yul\":16855:16870   */\n      revert\n\n    auxdata: 0xa26469706673582212204858b198be3a02700a3b9d694eba27901dd35149c94da45067931e6b5953065464736f6c63430008190033\n}\n",
				"bytecode": {
					"linkReferences": {},
					"object": "608060405234801561000f575f80fd5b5060405161217d38038061217d833981810160405281019061003191906100db565b805f806101000a81548173ffffffffffffffffffffffffffffffffffffffff021916908373ffffffffffffffffffffffffffffffffffffffff1602179055505f60068190555050610106565b5f80fd5b5f73ffffffffffffffffffffffffffffffffffffffff82169050919050565b5f6100aa82610081565b9050919050565b6100ba816100a0565b81146100c4575f80fd5b50565b5f815190506100d5816100b1565b92915050565b5f602082840312156100f0576100ef61007d565b5b5f6100fd848285016100c7565b91505092915050565b61206a806101135f395ff3fe60806040526004361061009b575f3560e01c806383588b991161006357806383588b9914610193578063a760e06a146101cf578063a843c51f146101eb578063a87430ba14610227578063c2eb05ba14610263578063ce606ee01461028d5761009b565b806310731a651461009f5780631fb64da0146100c957806328b02a8d146101055780634aaa2acb1461012f57806373b298e21461016b575b5f80fd5b3480156100aa575f80fd5b506100b36102b7565b6040516100c0919061181c565b60405180910390f35b3480156100d4575f80fd5b506100ef60048036038101906100ea91906118c6565b610452565b6040516100fc9190611913565b60405180910390f35b348015610110575f80fd5b5061011961049a565b604051610126919061193b565b60405180910390f35b34801561013a575f80fd5b50610155600480360381019061015091906118c6565b6104a0565b604051610162919061193b565b60405180910390f35b348015610176575f80fd5b50610191600480360381019061018c9190611954565b6104cb565b005b34801561019e575f80fd5b506101b960048036038101906101b491906118c6565b610790565b6040516101c69190611913565b60405180910390f35b6101e960048036038101906101e49190611954565b6107d8565b005b3480156101f6575f80fd5b50610211600480360381019061020c91906119a4565b610928565b60405161021e919061181c565b60405180910390f35b348015610232575f80fd5b5061024d600480360381019061024891906119a4565b610b0c565b60405161025a9190611ac6565b60405180910390f35b34801561026e575f80fd5b50610277610bdc565b6040516102849190611913565b60405180910390f35b348015610298575f80fd5b506102a1610c01565b6040516102ae9190611913565b60405180910390f35b5f60015f9054906101000a900473ffffffffffffffffffffffffffffffffffffffff168073ffffffffffffffffffffffffffffffffffffffff163373ffffffffffffffffffffffffffffffffffffffff1614610348576040517f08c379a000000000000000000000000000000000000000000000000000000000815260040161033f90611b39565b60405180910390fd5b60015f9054906101000a900473ffffffffffffffffffffffffffffffffffffffff165f806101000a81548173ffffffffffffffffffffffffffffffffffffffff021916908373ffffffffffffffffffffffffffffffffffffffff1602179055505f60015f6101000a81548173ffffffffffffffffffffffffffffffffffffffff021916908373ffffffffffffffffffffffffffffffffffffffff1602179055505f8054906101000a900473ffffffffffffffffffffffffffffffffffffffff1673ffffffffffffffffffffffffffffffffffffffff167f041e8ee868cb815a7e5cd1a100e6ff024772d79c071718c049ab7d3bc4e1226d60405160405180910390a2600191505090565b6004602052815f5260405f20818154811061046b575f80fd5b905f5260205f20015f915091509054906101000a900473ffffffffffffffffffffffffffffffffffffffff1681565b60065481565b6005602052815f5260405f2081815481106104b9575f80fd5b905f5260205f20015f91509150505481565b5f60028111156104de576104dd6119ed565b5b60025f3373ffffffffffffffffffffffffffffffffffffffff1673ffffffffffffffffffffffffffffffffffffffff1681526020019081526020015f205f016004015f9054906101000a900460ff16600281111561053f5761053e6119ed565b5b14610548575f80fd5b8282808273ffffffffffffffffffffffffffffffffffffffff1663dd62ed3e33306040518363ffffffff1660e01b8152600401610586929190611b57565b602060405180830381865afa1580156105a1573d5f803e3d5ffd5b505050506040513d601f19601f820116820180604052508101906105c59190611b92565b10156105cf575f80fd5b8484808273ffffffffffffffffffffffffffffffffffffffff166370a08231336040518263ffffffff1660e01b815260040161060b9190611913565b602060405180830381865afa158015610626573d5f803e3d5ffd5b505050506040513d601f19601f8201168201806040525081019061064a9190611b92565b1015610654575f80fd5b600160025f3373ffffffffffffffffffffffffffffffffffffffff1673ffffffffffffffffffffffffffffffffffffffff1681526020019081526020015f205f016004015f6101000a81548160ff021916908360028111156106b9576106b86119ed565b5b02179055508673ffffffffffffffffffffffffffffffffffffffff166323b872dd3330896040518463ffffffff1660e01b81526004016106fb93929190611bbd565b6020604051808303815f875af1158015610717573d5f803e3d5ffd5b505050506040513d601f19601f8201168201806040525081019061073b9190611c1c565b61077a576040517f08c379a000000000000000000000000000000000000000000000000000000000815260040161077190611cb7565b60405180910390fd5b6107878787876001610c24565b50505050505050565b6003602052815f5260405f2081815481106107a9575f80fd5b905f5260205f20015f915091509054906101000a900473ffffffffffffffffffffffffffffffffffffffff1681565b5f60028111156107eb576107ea6119ed565b5b60025f3373ffffffffffffffffffffffffffffffffffffffff1673ffffffffffffffffffffffffffffffffffffffff1681526020019081526020015f205f016004015f9054906101000a900460ff16600281111561084c5761084b6119ed565b5b14610855575f80fd5b80826108619190611d02565b8034101561086d575f80fd5b5f828461087a9190611d02565b346108859190611d43565b11156108ac576108ab33838561089b9190611d02565b346108a69190611d43565b610f45565b5b6002805f3373ffffffffffffffffffffffffffffffffffffffff1673ffffffffffffffffffffffffffffffffffffffff1681526020019081526020015f205f016004015f6101000a81548160ff021916908360028111156109105761090f6119ed565b5b02179055506109228484846002610c24565b50505050565b5f805f9054906101000a900473ffffffffffffffffffffffffffffffffffffffff168073ffffffffffffffffffffffffffffffffffffffff163373ffffffffffffffffffffffffffffffffffffffff16146109b8576040517f08c379a00000000000000000000000000000000000000000000000000000000081526004016109af90611b39565b60405180910390fd5b828073ffffffffffffffffffffffffffffffffffffffff165f73ffffffffffffffffffffffffffffffffffffffff1603610a27576040517f08c379a0000000000000000000000000000000000000000000000000000000008152600401610a1e90611de6565b60405180910390fd5b8360015f6101000a81548173ffffffffffffffffffffffffffffffffffffffff021916908373ffffffffffffffffffffffffffffffffffffffff16021790555060015f9054906101000a900473ffffffffffffffffffffffffffffffffffffffff1673ffffffffffffffffffffffffffffffffffffffff165f8054906101000a900473ffffffffffffffffffffffffffffffffffffffff1673ffffffffffffffffffffffffffffffffffffffff167f3171ef419dfba51cf3b185fa6ee8071885c38deb1e1621df017995e8a5e9254c60405160405180910390a3600192505050919050565b6002602052805f5260405f205f91509050805f016040518060a00160405290815f82015f9054906101000a900473ffffffffffffffffffffffffffffffffffffffff1673ffffffffffffffffffffffffffffffffffffffff1673ffffffffffffffffffffffffffffffffffffffff168152602001600182015481526020016002820154815260200160038201548152602001600482015f9054906101000a900460ff166002811115610bc157610bc06119ed565b5b6002811115610bd357610bd26119ed565b5b81525050905081565b60015f9054906101000a900473ffffffffffffffffffffffffffffffffffffffff1681565b5f8054906101000a900473ffffffffffffffffffffffffffffffffffffffff1681565b5f60016002811115610c3957610c386119ed565b5b826002811115610c4c57610c4b6119ed565b5b14610c935760035f8673ffffffffffffffffffffffffffffffffffffffff1673ffffffffffffffffffffffffffffffffffffffff1681526020019081526020015f20610cd1565b60045f8673ffffffffffffffffffffffffffffffffffffffff1673ffffffffffffffffffffffffffffffffffffffff1681526020019081526020015f205b90505f8490505f828054905090505b5f811115610eb9575f60025f85600185610cfa9190611d43565b81548110610d0b57610d0a611e04565b5b905f5260205f20015f9054906101000a900473ffffffffffffffffffffffffffffffffffffffff1673ffffffffffffffffffffffffffffffffffffffff1673ffffffffffffffffffffffffffffffffffffffff1681526020019081526020015f205f019050610e31816040518060a00160405290815f82015f9054906101000a900473ffffffffffffffffffffffffffffffffffffffff1673ffffffffffffffffffffffffffffffffffffffff1673ffffffffffffffffffffffffffffffffffffffff168152602001600182015481526020016002820154815260200160038201548152602001600482015f9054906101000a900460ff166002811115610e1557610e146119ed565b5b6002811115610e2757610e266119ed565b5b8152505087610ff2565b15610ea557610e958885600185610e489190611d43565b81548110610e5957610e58611e04565b5b905f5260205f20015f9054906101000a900473ffffffffffffffffffffffffffffffffffffffff1685600186610e8f9190611d43565b8a61105b565b92505f8303610ea45750610eb9565b5b508080610eb190611e31565b915050610ce0565b505f811115610ed357610ece868286866113e8565b610f3d565b5f60025f3373ffffffffffffffffffffffffffffffffffffffff1673ffffffffffffffffffffffffffffffffffffffff1681526020019081526020015f205f016004015f6101000a81548160ff02191690836002811115610f3757610f366119ed565b5b02179055505b505050505050565b5f8273ffffffffffffffffffffffffffffffffffffffff1682604051610f6a90611e85565b5f6040518083038185875af1925050503d805f8114610fa4576040519150601f19603f3d011682016040523d82523d5f602084013e610fa9565b606091505b5050905080610fed576040517f08c379a0000000000000000000000000000000000000000000000000000000008152600401610fe490611ee3565b60405180910390fd5b505050565b5f60016002811115611007576110066119ed565b5b8360800151600281111561101e5761101d6119ed565b5b0361103c57818360400151106110375760019050611055565b611051565b818360400151116110505760019050611055565b5b5f90505b92915050565b5f8060025f8773ffffffffffffffffffffffffffffffffffffffff1673ffffffffffffffffffffffffffffffffffffffff1681526020019081526020015f205f0190505f816001015486106110b45781600101546110b6565b855b90506002808111156110cb576110ca6119ed565b5b826004015f9054906101000a900460ff1660028111156110ee576110ed6119ed565b5b036111ff578773ffffffffffffffffffffffffffffffffffffffff1663a9059cbb88836040518363ffffffff1660e01b815260040161112e929190611f01565b6020604051808303815f875af115801561114a573d5f803e3d5ffd5b505050506040513d601f19601f8201168201806040525081019061116e9190611c1c565b6111ad576040517f08c379a00000000000000000000000000000000000000000000000000000000081526004016111a490611f72565b60405180910390fd5b6111c6338360020154836111c19190611d02565b610f45565b83826002015411156111fa578382600201546111e29190611d43565b60065f8282546111f29190611f90565b925050819055505b611307565b8773ffffffffffffffffffffffffffffffffffffffff1663a9059cbb33836040518363ffffffff1660e01b815260040161123a929190611f01565b6020604051808303815f875af1158015611256573d5f803e3d5ffd5b505050506040513d601f19601f8201168201806040525081019061127a9190611c1c565b6112b9576040517f08c379a00000000000000000000000000000000000000000000000000000000081526004016112b090611f72565b60405180910390fd5b6112d2878360020154836112cd9190611d02565b610f45565b8382600201541115611306578382600201546112ee9190611d43565b60065f8282546112fe9190611f90565b925050819055505b5b80826001015f82825461131a9190611d43565b925050819055503373ffffffffffffffffffffffffffffffffffffffff168773ffffffffffffffffffffffffffffffffffffffff168973ffffffffffffffffffffffffffffffffffffffff167f1ce728f6a2703272ee2e07cf07fd21ddc592575a5b6774a529b595fdf56dd1a6856004015f9054906101000a900460ff168587600201546040516113ad93929190611fd2565b60405180910390a45f8260010154036113cc576113cb888387611605565b5b80866113d89190611d43565b9550859250505095945050505050565b5f600160028111156113fd576113fc6119ed565b5b8260028111156114105761140f6119ed565b5b036114575760035f8673ffffffffffffffffffffffffffffffffffffffff1673ffffffffffffffffffffffffffffffffffffffff1681526020019081526020015f20611495565b60045f8673ffffffffffffffffffffffffffffffffffffffff1673ffffffffffffffffffffffffffffffffffffffff1681526020019081526020015f205b90508033908060018154018082558091505060019003905f5260205f20015f9091909190916101000a81548173ffffffffffffffffffffffffffffffffffffffff021916908373ffffffffffffffffffffffffffffffffffffffff1602179055505f60025f3373ffffffffffffffffffffffffffffffffffffffff1673ffffffffffffffffffffffffffffffffffffffff1681526020019081526020015f205f01905085815f015f6101000a81548173ffffffffffffffffffffffffffffffffffffffff021916908373ffffffffffffffffffffffffffffffffffffffff1602179055508481600101819055508381600201819055504281600301819055503373ffffffffffffffffffffffffffffffffffffffff168673ffffffffffffffffffffffffffffffffffffffff167fba9e7b0a1a964fea173e3888ffbcbe410fca9a481f92cf8fc8b76a1b70f31d688588886040516115f593929190611fd2565b60405180910390a3505050505050565b5f6001600281111561161a576116196119ed565b5b836004015f9054906101000a900460ff16600281111561163d5761163c6119ed565b5b146116845760045f8573ffffffffffffffffffffffffffffffffffffffff1673ffffffffffffffffffffffffffffffffffffffff1681526020019081526020015f206116c2565b60035f8573ffffffffffffffffffffffffffffffffffffffff1673ffffffffffffffffffffffffffffffffffffffff1681526020019081526020015f205b90505f8290505b600182805490506116da9190611d43565b81101561178d57816001826116ef9190611f90565b81548110611700576116ff611e04565b5b905f5260205f20015f9054906101000a900473ffffffffffffffffffffffffffffffffffffffff1682828154811061173b5761173a611e04565b5b905f5260205f20015f6101000a81548173ffffffffffffffffffffffffffffffffffffffff021916908373ffffffffffffffffffffffffffffffffffffffff16021790555080806001019150506116c9565b508080548061179f5761179e612007565b5b600190038181905f5260205f20015f6101000a81549073ffffffffffffffffffffffffffffffffffffffff021916905590555f836004015f6101000a81548160ff021916908360028111156117f7576117f66119ed565b5b021790555050505050565b5f8115159050919050565b61181681611802565b82525050565b5f60208201905061182f5f83018461180d565b92915050565b5f80fd5b5f73ffffffffffffffffffffffffffffffffffffffff82169050919050565b5f61186282611839565b9050919050565b61187281611858565b811461187c575f80fd5b50565b5f8135905061188d81611869565b92915050565b5f819050919050565b6118a581611893565b81146118af575f80fd5b50565b5f813590506118c08161189c565b92915050565b5f80604083850312156118dc576118db611835565b5b5f6118e98582860161187f565b92505060206118fa858286016118b2565b9150509250929050565b61190d81611858565b82525050565b5f6020820190506119265f830184611904565b92915050565b61193581611893565b82525050565b5f60208201905061194e5f83018461192c565b92915050565b5f805f6060848603121561196b5761196a611835565b5b5f6119788682870161187f565b9350506020611989868287016118b2565b925050604061199a868287016118b2565b9150509250925092565b5f602082840312156119b9576119b8611835565b5b5f6119c68482850161187f565b91505092915050565b6119d881611858565b82525050565b6119e781611893565b82525050565b7f4e487b71000000000000000000000000000000000000000000000000000000005f52602160045260245ffd5b60038110611a2b57611a2a6119ed565b5b50565b5f819050611a3b82611a1a565b919050565b5f611a4a82611a2e565b9050919050565b611a5a81611a40565b82525050565b60a082015f820151611a745f8501826119cf565b506020820151611a8760208501826119de565b506040820151611a9a60408501826119de565b506060820151611aad60608501826119de565b506080820151611ac06080850182611a51565b50505050565b5f60a082019050611ad95f830184611a60565b92915050565b5f82825260208201905092915050565b7f43616c6c6572206973206e6f7420617574686f72697a656400000000000000005f82015250565b5f611b23601883611adf565b9150611b2e82611aef565b602082019050919050565b5f6020820190508181035f830152611b5081611b17565b9050919050565b5f604082019050611b6a5f830185611904565b611b776020830184611904565b9392505050565b5f81519050611b8c8161189c565b92915050565b5f60208284031215611ba757611ba6611835565b5b5f611bb484828501611b7e565b91505092915050565b5f606082019050611bd05f830186611904565b611bdd6020830185611904565b611bea604083018461192c565b949350505050565b611bfb81611802565b8114611c05575f80fd5b50565b5f81519050611c1681611bf2565b92915050565b5f60208284031215611c3157611c30611835565b5b5f611c3e84828501611c08565b91505092915050565b7f546f6b656e207472616e7366657220746f2065786368616e6765206661696c655f8201527f6400000000000000000000000000000000000000000000000000000000000000602082015250565b5f611ca1602183611adf565b9150611cac82611c47565b604082019050919050565b5f6020820190508181035f830152611cce81611c95565b9050919050565b7f4e487b71000000000000000000000000000000000000000000000000000000005f52601160045260245ffd5b5f611d0c82611893565b9150611d1783611893565b9250828202611d2581611893565b91508282048414831517611d3c57611d3b611cd5565b5b5092915050565b5f611d4d82611893565b9150611d5883611893565b9250828203905081811115611d7057611d6f611cd5565b5b92915050565b7f5472616e7366657220746f20746865207a65726f2061646472657373206973205f8201527f6e6f7420616c6c6f776564000000000000000000000000000000000000000000602082015250565b5f611dd0602b83611adf565b9150611ddb82611d76565b604082019050919050565b5f6020820190508181035f830152611dfd81611dc4565b9050919050565b7f4e487b71000000000000000000000000000000000000000000000000000000005f52603260045260245ffd5b5f611e3b82611893565b91505f8203611e4d57611e4c611cd5565b5b600182039050919050565b5f81905092915050565b50565b5f611e705f83611e58565b9150611e7b82611e62565b5f82019050919050565b5f611e8f82611e65565b9150819050919050565b7f4661696c656420746f2073656e642045746865720000000000000000000000005f82015250565b5f611ecd601483611adf565b9150611ed882611e99565b602082019050919050565b5f6020820190508181035f830152611efa81611ec1565b9050919050565b5f604082019050611f145f830185611904565b611f21602083018461192c565b9392505050565b7f546f6b656e207472616e7366657220746f206275796572206661696c656400005f82015250565b5f611f5c601e83611adf565b9150611f6782611f28565b602082019050919050565b5f6020820190508181035f830152611f8981611f50565b9050919050565b5f611f9a82611893565b9150611fa583611893565b9250828201905080821115611fbd57611fbc611cd5565b5b92915050565b611fcc81611a40565b82525050565b5f606082019050611fe55f830186611fc3565b611ff2602083018561192c565b611fff604083018461192c565b949350505050565b7f4e487b71000000000000000000000000000000000000000000000000000000005f52603160045260245ffdfea26469706673582212204858b198be3a02700a3b9d694eba27901dd35149c94da45067931e6b5953065464736f6c63430008190033",
					"opcodes": "PUSH1 0x80 PUSH1 0x40 MSTORE CALLVALUE DUP1 ISZERO PUSH2 0xF JUMPI PUSH0 DUP1 REVERT JUMPDEST POP PUSH1 0x40 MLOAD PUSH2 0x217D CODESIZE SUB DUP1 PUSH2 0x217D DUP4 CODECOPY DUP2 DUP2 ADD PUSH1 0x40 MSTORE DUP2 ADD SWAP1 PUSH2 0x31 SWAP2 SWAP1 PUSH2 0xDB JUMP JUMPDEST DUP1 PUSH0 DUP1 PUSH2 0x100 EXP DUP2 SLOAD DUP2 PUSH20 0xFFFFFFFFFFFFFFFFFFFFFFFFFFFFFFFFFFFFFFFF MUL NOT AND SWAP1 DUP4 PUSH20 0xFFFFFFFFFFFFFFFFFFFFFFFFFFFFFFFFFFFFFFFF AND MUL OR SWAP1 SSTORE POP PUSH0 PUSH1 0x6 DUP2 SWAP1 SSTORE POP POP PUSH2 0x106 JUMP JUMPDEST PUSH0 DUP1 REVERT JUMPDEST PUSH0 PUSH20 0xFFFFFFFFFFFFFFFFFFFFFFFFFFFFFFFFFFFFFFFF DUP3 AND SWAP1 POP SWAP2 SWAP1 POP JUMP JUMPDEST PUSH0 PUSH2 0xAA DUP3 PUSH2 0x81 JUMP JUMPDEST SWAP1 POP SWAP2 SWAP1 POP JUMP JUMPDEST PUSH2 0xBA DUP2 PUSH2 0xA0 JUMP JUMPDEST DUP2 EQ PUSH2 0xC4 JUMPI PUSH0 DUP1 REVERT JUMPDEST POP JUMP JUMPDEST PUSH0 DUP2 MLOAD SWAP1 POP PUSH2 0xD5 DUP2 PUSH2 0xB1 JUMP JUMPDEST SWAP3 SWAP2 POP POP JUMP JUMPDEST PUSH0 PUSH1 0x20 DUP3 DUP5 SUB SLT ISZERO PUSH2 0xF0 JUMPI PUSH2 0xEF PUSH2 0x7D JUMP JUMPDEST JUMPDEST PUSH0 PUSH2 0xFD DUP5 DUP3 DUP6 ADD PUSH2 0xC7 JUMP JUMPDEST SWAP2 POP POP SWAP3 SWAP2 POP POP JUMP JUMPDEST PUSH2 0x206A DUP1 PUSH2 0x113 PUSH0 CODECOPY PUSH0 RETURN INVALID PUSH1 0x80 PUSH1 0x40 MSTORE PUSH1 0x4 CALLDATASIZE LT PUSH2 0x9B JUMPI PUSH0 CALLDATALOAD PUSH1 0xE0 SHR DUP1 PUSH4 0x83588B99 GT PUSH2 0x63 JUMPI DUP1 PUSH4 0x83588B99 EQ PUSH2 0x193 JUMPI DUP1 PUSH4 0xA760E06A EQ PUSH2 0x1CF JUMPI DUP1 PUSH4 0xA843C51F EQ PUSH2 0x1EB JUMPI DUP1 PUSH4 0xA87430BA EQ PUSH2 0x227 JUMPI DUP1 PUSH4 0xC2EB05BA EQ PUSH2 0x263 JUMPI DUP1 PUSH4 0xCE606EE0 EQ PUSH2 0x28D JUMPI PUSH2 0x9B JUMP JUMPDEST DUP1 PUSH4 0x10731A65 EQ PUSH2 0x9F JUMPI DUP1 PUSH4 0x1FB64DA0 EQ PUSH2 0xC9 JUMPI DUP1 PUSH4 0x28B02A8D EQ PUSH2 0x105 JUMPI DUP1 PUSH4 0x4AAA2ACB EQ PUSH2 0x12F JUMPI DUP1 PUSH4 0x73B298E2 EQ PUSH2 0x16B JUMPI JUMPDEST PUSH0 DUP1 REVERT JUMPDEST CALLVALUE DUP1 ISZERO PUSH2 0xAA JUMPI PUSH0 DUP1 REVERT JUMPDEST POP PUSH2 0xB3 PUSH2 0x2B7 JUMP JUMPDEST PUSH1 0x40 MLOAD PUSH2 0xC0 SWAP2 SWAP1 PUSH2 0x181C JUMP JUMPDEST PUSH1 0x40 MLOAD DUP1 SWAP2 SUB SWAP1 RETURN JUMPDEST CALLVALUE DUP1 ISZERO PUSH2 0xD4 JUMPI PUSH0 DUP1 REVERT JUMPDEST POP PUSH2 0xEF PUSH1 0x4 DUP1 CALLDATASIZE SUB DUP2 ADD SWAP1 PUSH2 0xEA SWAP2 SWAP1 PUSH2 0x18C6 JUMP JUMPDEST PUSH2 0x452 JUMP JUMPDEST PUSH1 0x40 MLOAD PUSH2 0xFC SWAP2 SWAP1 PUSH2 0x1913 JUMP JUMPDEST PUSH1 0x40 MLOAD DUP1 SWAP2 SUB SWAP1 RETURN JUMPDEST CALLVALUE DUP1 ISZERO PUSH2 0x110 JUMPI PUSH0 DUP1 REVERT JUMPDEST POP PUSH2 0x119 PUSH2 0x49A JUMP JUMPDEST PUSH1 0x40 MLOAD PUSH2 0x126 SWAP2 SWAP1 PUSH2 0x193B JUMP JUMPDEST PUSH1 0x40 MLOAD DUP1 SWAP2 SUB SWAP1 RETURN JUMPDEST CALLVALUE DUP1 ISZERO PUSH2 0x13A JUMPI PUSH0 DUP1 REVERT JUMPDEST POP PUSH2 0x155 PUSH1 0x4 DUP1 CALLDATASIZE SUB DUP2 ADD SWAP1 PUSH2 0x150 SWAP2 SWAP1 PUSH2 0x18C6 JUMP JUMPDEST PUSH2 0x4A0 JUMP JUMPDEST PUSH1 0x40 MLOAD PUSH2 0x162 SWAP2 SWAP1 PUSH2 0x193B JUMP JUMPDEST PUSH1 0x40 MLOAD DUP1 SWAP2 SUB SWAP1 RETURN JUMPDEST CALLVALUE DUP1 ISZERO PUSH2 0x176 JUMPI PUSH0 DUP1 REVERT JUMPDEST POP PUSH2 0x191 PUSH1 0x4 DUP1 CALLDATASIZE SUB DUP2 ADD SWAP1 PUSH2 0x18C SWAP2 SWAP1 PUSH2 0x1954 JUMP JUMPDEST PUSH2 0x4CB JUMP JUMPDEST STOP JUMPDEST CALLVALUE DUP1 ISZERO PUSH2 0x19E JUMPI PUSH0 DUP1 REVERT JUMPDEST POP PUSH2 0x1B9 PUSH1 0x4 DUP1 CALLDATASIZE SUB DUP2 ADD SWAP1 PUSH2 0x1B4 SWAP2 SWAP1 PUSH2 0x18C6 JUMP JUMPDEST PUSH2 0x790 JUMP JUMPDEST PUSH1 0x40 MLOAD PUSH2 0x1C6 SWAP2 SWAP1 PUSH2 0x1913 JUMP JUMPDEST PUSH1 0x40 MLOAD DUP1 SWAP2 SUB SWAP1 RETURN JUMPDEST PUSH2 0x1E9 PUSH1 0x4 DUP1 CALLDATASIZE SUB DUP2 ADD SWAP1 PUSH2 0x1E4 SWAP2 SWAP1 PUSH2 0x1954 JUMP JUMPDEST PUSH2 0x7D8 JUMP JUMPDEST STOP JUMPDEST CALLVALUE DUP1 ISZERO PUSH2 0x1F6 JUMPI PUSH0 DUP1 REVERT JUMPDEST POP PUSH2 0x211 PUSH1 0x4 DUP1 CALLDATASIZE SUB DUP2 ADD SWAP1 PUSH2 0x20C SWAP2 SWAP1 PUSH2 0x19A4 JUMP JUMPDEST PUSH2 0x928 JUMP JUMPDEST PUSH1 0x40 MLOAD PUSH2 0x21E SWAP2 SWAP1 PUSH2 0x181C JUMP JUMPDEST PUSH1 0x40 MLOAD DUP1 SWAP2 SUB SWAP1 RETURN JUMPDEST CALLVALUE DUP1 ISZERO PUSH2 0x232 JUMPI PUSH0 DUP1 REVERT JUMPDEST POP PUSH2 0x24D PUSH1 0x4 DUP1 CALLDATASIZE SUB DUP2 ADD SWAP1 PUSH2 0x248 SWAP2 SWAP1 PUSH2 0x19A4 JUMP JUMPDEST PUSH2 0xB0C JUMP JUMPDEST PUSH1 0x40 MLOAD PUSH2 0x25A SWAP2 SWAP1 PUSH2 0x1AC6 JUMP JUMPDEST PUSH1 0x40 MLOAD DUP1 SWAP2 SUB SWAP1 RETURN JUMPDEST CALLVALUE DUP1 ISZERO PUSH2 0x26E JUMPI PUSH0 DUP1 REVERT JUMPDEST POP PUSH2 0x277 PUSH2 0xBDC JUMP JUMPDEST PUSH1 0x40 MLOAD PUSH2 0x284 SWAP2 SWAP1 PUSH2 0x1913 JUMP JUMPDEST PUSH1 0x40 MLOAD DUP1 SWAP2 SUB SWAP1 RETURN JUMPDEST CALLVALUE DUP1 ISZERO PUSH2 0x298 JUMPI PUSH0 DUP1 REVERT JUMPDEST POP PUSH2 0x2A1 PUSH2 0xC01 JUMP JUMPDEST PUSH1 0x40 MLOAD PUSH2 0x2AE SWAP2 SWAP1 PUSH2 0x1913 JUMP JUMPDEST PUSH1 0x40 MLOAD DUP1 SWAP2 SUB SWAP1 RETURN JUMPDEST PUSH0 PUSH1 0x1 PUSH0 SWAP1 SLOAD SWAP1 PUSH2 0x100 EXP SWAP1 DIV PUSH20 0xFFFFFFFFFFFFFFFFFFFFFFFFFFFFFFFFFFFFFFFF AND DUP1 PUSH20 0xFFFFFFFFFFFFFFFFFFFFFFFFFFFFFFFFFFFFFFFF AND CALLER PUSH20 0xFFFFFFFFFFFFFFFFFFFFFFFFFFFFFFFFFFFFFFFF AND EQ PUSH2 0x348 JUMPI PUSH1 0x40 MLOAD PUSH32 0x8C379A000000000000000000000000000000000000000000000000000000000 DUP2 MSTORE PUSH1 0x4 ADD PUSH2 0x33F SWAP1 PUSH2 0x1B39 JUMP JUMPDEST PUSH1 0x40 MLOAD DUP1 SWAP2 SUB SWAP1 REVERT JUMPDEST PUSH1 0x1 PUSH0 SWAP1 SLOAD SWAP1 PUSH2 0x100 EXP SWAP1 DIV PUSH20 0xFFFFFFFFFFFFFFFFFFFFFFFFFFFFFFFFFFFFFFFF AND PUSH0 DUP1 PUSH2 0x100 EXP DUP2 SLOAD DUP2 PUSH20 0xFFFFFFFFFFFFFFFFFFFFFFFFFFFFFFFFFFFFFFFF MUL NOT AND SWAP1 DUP4 PUSH20 0xFFFFFFFFFFFFFFFFFFFFFFFFFFFFFFFFFFFFFFFF AND MUL OR SWAP1 SSTORE POP PUSH0 PUSH1 0x1 PUSH0 PUSH2 0x100 EXP DUP2 SLOAD DUP2 PUSH20 0xFFFFFFFFFFFFFFFFFFFFFFFFFFFFFFFFFFFFFFFF MUL NOT AND SWAP1 DUP4 PUSH20 0xFFFFFFFFFFFFFFFFFFFFFFFFFFFFFFFFFFFFFFFF AND MUL OR SWAP1 SSTORE POP PUSH0 DUP1 SLOAD SWAP1 PUSH2 0x100 EXP SWAP1 DIV PUSH20 0xFFFFFFFFFFFFFFFFFFFFFFFFFFFFFFFFFFFFFFFF AND PUSH20 0xFFFFFFFFFFFFFFFFFFFFFFFFFFFFFFFFFFFFFFFF AND PUSH32 0x41E8EE868CB815A7E5CD1A100E6FF024772D79C071718C049AB7D3BC4E1226D PUSH1 0x40 MLOAD PUSH1 0x40 MLOAD DUP1 SWAP2 SUB SWAP1 LOG2 PUSH1 0x1 SWAP2 POP POP SWAP1 JUMP JUMPDEST PUSH1 0x4 PUSH1 0x20 MSTORE DUP2 PUSH0 MSTORE PUSH1 0x40 PUSH0 KECCAK256 DUP2 DUP2 SLOAD DUP2 LT PUSH2 0x46B JUMPI PUSH0 DUP1 REVERT JUMPDEST SWAP1 PUSH0 MSTORE PUSH1 0x20 PUSH0 KECCAK256 ADD PUSH0 SWAP2 POP SWAP2 POP SWAP1 SLOAD SWAP1 PUSH2 0x100 EXP SWAP1 DIV PUSH20 0xFFFFFFFFFFFFFFFFFFFFFFFFFFFFFFFFFFFFFFFF AND DUP2 JUMP JUMPDEST PUSH1 0x6 SLOAD DUP2 JUMP JUMPDEST PUSH1 0x5 PUSH1 0x20 MSTORE DUP2 PUSH0 MSTORE PUSH1 0x40 PUSH0 KECCAK256 DUP2 DUP2 SLOAD DUP2 LT PUSH2 0x4B9 JUMPI PUSH0 DUP1 REVERT JUMPDEST SWAP1 PUSH0 MSTORE PUSH1 0x20 PUSH0 KECCAK256 ADD PUSH0 SWAP2 POP SWAP2 POP POP SLOAD DUP2 JUMP JUMPDEST PUSH0 PUSH1 0x2 DUP2 GT ISZERO PUSH2 0x4DE JUMPI PUSH2 0x4DD PUSH2 0x19ED JUMP JUMPDEST JUMPDEST PUSH1 0x2 PUSH0 CALLER PUSH20 0xFFFFFFFFFFFFFFFFFFFFFFFFFFFFFFFFFFFFFFFF AND PUSH20 0xFFFFFFFFFFFFFFFFFFFFFFFFFFFFFFFFFFFFFFFF AND DUP2 MSTORE PUSH1 0x20 ADD SWAP1 DUP2 MSTORE PUSH1 0x20 ADD PUSH0 KECCAK256 PUSH0 ADD PUSH1 0x4 ADD PUSH0 SWAP1 SLOAD SWAP1 PUSH2 0x100 EXP SWAP1 DIV PUSH1 0xFF AND PUSH1 0x2 DUP2 GT ISZERO PUSH2 0x53F JUMPI PUSH2 0x53E PUSH2 0x19ED JUMP JUMPDEST JUMPDEST EQ PUSH2 0x548 JUMPI PUSH0 DUP1 REVERT JUMPDEST DUP3 DUP3 DUP1 DUP3 PUSH20 0xFFFFFFFFFFFFFFFFFFFFFFFFFFFFFFFFFFFFFFFF AND PUSH4 0xDD62ED3E CALLER ADDRESS PUSH1 0x40 MLOAD DUP4 PUSH4 0xFFFFFFFF AND PUSH1 0xE0 SHL DUP2 MSTORE PUSH1 0x4 ADD PUSH2 0x586 SWAP3 SWAP2 SWAP1 PUSH2 0x1B57 JUMP JUMPDEST PUSH1 0x20 PUSH1 0x40 MLOAD DUP1 DUP4 SUB DUP2 DUP7 GAS STATICCALL ISZERO DUP1 ISZERO PUSH2 0x5A1 JUMPI RETURNDATASIZE PUSH0 DUP1 RETURNDATACOPY RETURNDATASIZE PUSH0 REVERT JUMPDEST POP POP POP POP PUSH1 0x40 MLOAD RETURNDATASIZE PUSH1 0x1F NOT PUSH1 0x1F DUP3 ADD AND DUP3 ADD DUP1 PUSH1 0x40 MSTORE POP DUP2 ADD SWAP1 PUSH2 0x5C5 SWAP2 SWAP1 PUSH2 0x1B92 JUMP JUMPDEST LT ISZERO PUSH2 0x5CF JUMPI PUSH0 DUP1 REVERT JUMPDEST DUP5 DUP5 DUP1 DUP3 PUSH20 0xFFFFFFFFFFFFFFFFFFFFFFFFFFFFFFFFFFFFFFFF AND PUSH4 0x70A08231 CALLER PUSH1 0x40 MLOAD DUP3 PUSH4 0xFFFFFFFF AND PUSH1 0xE0 SHL DUP2 MSTORE PUSH1 0x4 ADD PUSH2 0x60B SWAP2 SWAP1 PUSH2 0x1913 JUMP JUMPDEST PUSH1 0x20 PUSH1 0x40 MLOAD DUP1 DUP4 SUB DUP2 DUP7 GAS STATICCALL ISZERO DUP1 ISZERO PUSH2 0x626 JUMPI RETURNDATASIZE PUSH0 DUP1 RETURNDATACOPY RETURNDATASIZE PUSH0 REVERT JUMPDEST POP POP POP POP PUSH1 0x40 MLOAD RETURNDATASIZE PUSH1 0x1F NOT PUSH1 0x1F DUP3 ADD AND DUP3 ADD DUP1 PUSH1 0x40 MSTORE POP DUP2 ADD SWAP1 PUSH2 0x64A SWAP2 SWAP1 PUSH2 0x1B92 JUMP JUMPDEST LT ISZERO PUSH2 0x654 JUMPI PUSH0 DUP1 REVERT JUMPDEST PUSH1 0x1 PUSH1 0x2 PUSH0 CALLER PUSH20 0xFFFFFFFFFFFFFFFFFFFFFFFFFFFFFFFFFFFFFFFF AND PUSH20 0xFFFFFFFFFFFFFFFFFFFFFFFFFFFFFFFFFFFFFFFF AND DUP2 MSTORE PUSH1 0x20 ADD SWAP1 DUP2 MSTORE PUSH1 0x20 ADD PUSH0 KECCAK256 PUSH0 ADD PUSH1 0x4 ADD PUSH0 PUSH2 0x100 EXP DUP2 SLOAD DUP2 PUSH1 0xFF MUL NOT AND SWAP1 DUP4 PUSH1 0x2 DUP2 GT ISZERO PUSH2 0x6B9 JUMPI PUSH2 0x6B8 PUSH2 0x19ED JUMP JUMPDEST JUMPDEST MUL OR SWAP1 SSTORE POP DUP7 PUSH20 0xFFFFFFFFFFFFFFFFFFFFFFFFFFFFFFFFFFFFFFFF AND PUSH4 0x23B872DD CALLER ADDRESS DUP10 PUSH1 0x40 MLOAD DUP5 PUSH4 0xFFFFFFFF AND PUSH1 0xE0 SHL DUP2 MSTORE PUSH1 0x4 ADD PUSH2 0x6FB SWAP4 SWAP3 SWAP2 SWAP1 PUSH2 0x1BBD JUMP JUMPDEST PUSH1 0x20 PUSH1 0x40 MLOAD DUP1 DUP4 SUB DUP2 PUSH0 DUP8 GAS CALL ISZERO DUP1 ISZERO PUSH2 0x717 JUMPI RETURNDATASIZE PUSH0 DUP1 RETURNDATACOPY RETURNDATASIZE PUSH0 REVERT JUMPDEST POP POP POP POP PUSH1 0x40 MLOAD RETURNDATASIZE PUSH1 0x1F NOT PUSH1 0x1F DUP3 ADD AND DUP3 ADD DUP1 PUSH1 0x40 MSTORE POP DUP2 ADD SWAP1 PUSH2 0x73B SWAP2 SWAP1 PUSH2 0x1C1C JUMP JUMPDEST PUSH2 0x77A JUMPI PUSH1 0x40 MLOAD PUSH32 0x8C379A000000000000000000000000000000000000000000000000000000000 DUP2 MSTORE PUSH1 0x4 ADD PUSH2 0x771 SWAP1 PUSH2 0x1CB7 JUMP JUMPDEST PUSH1 0x40 MLOAD DUP1 SWAP2 SUB SWAP1 REVERT JUMPDEST PUSH2 0x787 DUP8 DUP8 DUP8 PUSH1 0x1 PUSH2 0xC24 JUMP JUMPDEST POP POP POP POP POP POP POP JUMP JUMPDEST PUSH1 0x3 PUSH1 0x20 MSTORE DUP2 PUSH0 MSTORE PUSH1 0x40 PUSH0 KECCAK256 DUP2 DUP2 SLOAD DUP2 LT PUSH2 0x7A9 JUMPI PUSH0 DUP1 REVERT JUMPDEST SWAP1 PUSH0 MSTORE PUSH1 0x20 PUSH0 KECCAK256 ADD PUSH0 SWAP2 POP SWAP2 POP SWAP1 SLOAD SWAP1 PUSH2 0x100 EXP SWAP1 DIV PUSH20 0xFFFFFFFFFFFFFFFFFFFFFFFFFFFFFFFFFFFFFFFF AND DUP2 JUMP JUMPDEST PUSH0 PUSH1 0x2 DUP2 GT ISZERO PUSH2 0x7EB JUMPI PUSH2 0x7EA PUSH2 0x19ED JUMP JUMPDEST JUMPDEST PUSH1 0x2 PUSH0 CALLER PUSH20 0xFFFFFFFFFFFFFFFFFFFFFFFFFFFFFFFFFFFFFFFF AND PUSH20 0xFFFFFFFFFFFFFFFFFFFFFFFFFFFFFFFFFFFFFFFF AND DUP2 MSTORE PUSH1 0x20 ADD SWAP1 DUP2 MSTORE PUSH1 0x20 ADD PUSH0 KECCAK256 PUSH0 ADD PUSH1 0x4 ADD PUSH0 SWAP1 SLOAD SWAP1 PUSH2 0x100 EXP SWAP1 DIV PUSH1 0xFF AND PUSH1 0x2 DUP2 GT ISZERO PUSH2 0x84C JUMPI PUSH2 0x84B PUSH2 0x19ED JUMP JUMPDEST JUMPDEST EQ PUSH2 0x855 JUMPI PUSH0 DUP1 REVERT JUMPDEST DUP1 DUP3 PUSH2 0x861 SWAP2 SWAP1 PUSH2 0x1D02 JUMP JUMPDEST DUP1 CALLVALUE LT ISZERO PUSH2 0x86D JUMPI PUSH0 DUP1 REVERT JUMPDEST PUSH0 DUP3 DUP5 PUSH2 0x87A SWAP2 SWAP1 PUSH2 0x1D02 JUMP JUMPDEST CALLVALUE PUSH2 0x885 SWAP2 SWAP1 PUSH2 0x1D43 JUMP JUMPDEST GT ISZERO PUSH2 0x8AC JUMPI PUSH2 0x8AB CALLER DUP4 DUP6 PUSH2 0x89B SWAP2 SWAP1 PUSH2 0x1D02 JUMP JUMPDEST CALLVALUE PUSH2 0x8A6 SWAP2 SWAP1 PUSH2 0x1D43 JUMP JUMPDEST PUSH2 0xF45 JUMP JUMPDEST JUMPDEST PUSH1 0x2 DUP1 PUSH0 CALLER PUSH20 0xFFFFFFFFFFFFFFFFFFFFFFFFFFFFFFFFFFFFFFFF AND PUSH20 0xFFFFFFFFFFFFFFFFFFFFFFFFFFFFFFFFFFFFFFFF AND DUP2 MSTORE PUSH1 0x20 ADD SWAP1 DUP2 MSTORE PUSH1 0x20 ADD PUSH0 KECCAK256 PUSH0 ADD PUSH1 0x4 ADD PUSH0 PUSH2 0x100 EXP DUP2 SLOAD DUP2 PUSH1 0xFF MUL NOT AND SWAP1 DUP4 PUSH1 0x2 DUP2 GT ISZERO PUSH2 0x910 JUMPI PUSH2 0x90F PUSH2 0x19ED JUMP JUMPDEST JUMPDEST MUL OR SWAP1 SSTORE POP PUSH2 0x922 DUP5 DUP5 DUP5 PUSH1 0x2 PUSH2 0xC24 JUMP JUMPDEST POP POP POP POP JUMP JUMPDEST PUSH0 DUP1 PUSH0 SWAP1 SLOAD SWAP1 PUSH2 0x100 EXP SWAP1 DIV PUSH20 0xFFFFFFFFFFFFFFFFFFFFFFFFFFFFFFFFFFFFFFFF AND DUP1 PUSH20 0xFFFFFFFFFFFFFFFFFFFFFFFFFFFFFFFFFFFFFFFF AND CALLER PUSH20 0xFFFFFFFFFFFFFFFFFFFFFFFFFFFFFFFFFFFFFFFF AND EQ PUSH2 0x9B8 JUMPI PUSH1 0x40 MLOAD PUSH32 0x8C379A000000000000000000000000000000000000000000000000000000000 DUP2 MSTORE PUSH1 0x4 ADD PUSH2 0x9AF SWAP1 PUSH2 0x1B39 JUMP JUMPDEST PUSH1 0x40 MLOAD DUP1 SWAP2 SUB SWAP1 REVERT JUMPDEST DUP3 DUP1 PUSH20 0xFFFFFFFFFFFFFFFFFFFFFFFFFFFFFFFFFFFFFFFF AND PUSH0 PUSH20 0xFFFFFFFFFFFFFFFFFFFFFFFFFFFFFFFFFFFFFFFF AND SUB PUSH2 0xA27 JUMPI PUSH1 0x40 MLOAD PUSH32 0x8C379A000000000000000000000000000000000000000000000000000000000 DUP2 MSTORE PUSH1 0x4 ADD PUSH2 0xA1E SWAP1 PUSH2 0x1DE6 JUMP JUMPDEST PUSH1 0x40 MLOAD DUP1 SWAP2 SUB SWAP1 REVERT JUMPDEST DUP4 PUSH1 0x1 PUSH0 PUSH2 0x100 EXP DUP2 SLOAD DUP2 PUSH20 0xFFFFFFFFFFFFFFFFFFFFFFFFFFFFFFFFFFFFFFFF MUL NOT AND SWAP1 DUP4 PUSH20 0xFFFFFFFFFFFFFFFFFFFFFFFFFFFFFFFFFFFFFFFF AND MUL OR SWAP1 SSTORE POP PUSH1 0x1 PUSH0 SWAP1 SLOAD SWAP1 PUSH2 0x100 EXP SWAP1 DIV PUSH20 0xFFFFFFFFFFFFFFFFFFFFFFFFFFFFFFFFFFFFFFFF AND PUSH20 0xFFFFFFFFFFFFFFFFFFFFFFFFFFFFFFFFFFFFFFFF AND PUSH0 DUP1 SLOAD SWAP1 PUSH2 0x100 EXP SWAP1 DIV PUSH20 0xFFFFFFFFFFFFFFFFFFFFFFFFFFFFFFFFFFFFFFFF AND PUSH20 0xFFFFFFFFFFFFFFFFFFFFFFFFFFFFFFFFFFFFFFFF AND PUSH32 0x3171EF419DFBA51CF3B185FA6EE8071885C38DEB1E1621DF017995E8A5E9254C PUSH1 0x40 MLOAD PUSH1 0x40 MLOAD DUP1 SWAP2 SUB SWAP1 LOG3 PUSH1 0x1 SWAP3 POP POP POP SWAP2 SWAP1 POP JUMP JUMPDEST PUSH1 0x2 PUSH1 0x20 MSTORE DUP1 PUSH0 MSTORE PUSH1 0x40 PUSH0 KECCAK256 PUSH0 SWAP2 POP SWAP1 POP DUP1 PUSH0 ADD PUSH1 0x40 MLOAD DUP1 PUSH1 0xA0 ADD PUSH1 0x40 MSTORE SWAP1 DUP2 PUSH0 DUP3 ADD PUSH0 SWAP1 SLOAD SWAP1 PUSH2 0x100 EXP SWAP1 DIV PUSH20 0xFFFFFFFFFFFFFFFFFFFFFFFFFFFFFFFFFFFFFFFF AND PUSH20 0xFFFFFFFFFFFFFFFFFFFFFFFFFFFFFFFFFFFFFFFF AND PUSH20 0xFFFFFFFFFFFFFFFFFFFFFFFFFFFFFFFFFFFFFFFF AND DUP2 MSTORE PUSH1 0x20 ADD PUSH1 0x1 DUP3 ADD SLOAD DUP2 MSTORE PUSH1 0x20 ADD PUSH1 0x2 DUP3 ADD SLOAD DUP2 MSTORE PUSH1 0x20 ADD PUSH1 0x3 DUP3 ADD SLOAD DUP2 MSTORE PUSH1 0x20 ADD PUSH1 0x4 DUP3 ADD PUSH0 SWAP1 SLOAD SWAP1 PUSH2 0x100 EXP SWAP1 DIV PUSH1 0xFF AND PUSH1 0x2 DUP2 GT ISZERO PUSH2 0xBC1 JUMPI PUSH2 0xBC0 PUSH2 0x19ED JUMP JUMPDEST JUMPDEST PUSH1 0x2 DUP2 GT ISZERO PUSH2 0xBD3 JUMPI PUSH2 0xBD2 PUSH2 0x19ED JUMP JUMPDEST JUMPDEST DUP2 MSTORE POP POP SWAP1 POP DUP2 JUMP JUMPDEST PUSH1 0x1 PUSH0 SWAP1 SLOAD SWAP1 PUSH2 0x100 EXP SWAP1 DIV PUSH20 0xFFFFFFFFFFFFFFFFFFFFFFFFFFFFFFFFFFFFFFFF AND DUP2 JUMP JUMPDEST PUSH0 DUP1 SLOAD SWAP1 PUSH2 0x100 EXP SWAP1 DIV PUSH20 0xFFFFFFFFFFFFFFFFFFFFFFFFFFFFFFFFFFFFFFFF AND DUP2 JUMP JUMPDEST PUSH0 PUSH1 0x1 PUSH1 0x2 DUP2 GT ISZERO PUSH2 0xC39 JUMPI PUSH2 0xC38 PUSH2 0x19ED JUMP JUMPDEST JUMPDEST DUP3 PUSH1 0x2 DUP2 GT ISZERO PUSH2 0xC4C JUMPI PUSH2 0xC4B PUSH2 0x19ED JUMP JUMPDEST JUMPDEST EQ PUSH2 0xC93 JUMPI PUSH1 0x3 PUSH0 DUP7 PUSH20 0xFFFFFFFFFFFFFFFFFFFFFFFFFFFFFFFFFFFFFFFF AND PUSH20 0xFFFFFFFFFFFFFFFFFFFFFFFFFFFFFFFFFFFFFFFF AND DUP2 MSTORE PUSH1 0x20 ADD SWAP1 DUP2 MSTORE PUSH1 0x20 ADD PUSH0 KECCAK256 PUSH2 0xCD1 JUMP JUMPDEST PUSH1 0x4 PUSH0 DUP7 PUSH20 0xFFFFFFFFFFFFFFFFFFFFFFFFFFFFFFFFFFFFFFFF AND PUSH20 0xFFFFFFFFFFFFFFFFFFFFFFFFFFFFFFFFFFFFFFFF AND DUP2 MSTORE PUSH1 0x20 ADD SWAP1 DUP2 MSTORE PUSH1 0x20 ADD PUSH0 KECCAK256 JUMPDEST SWAP1 POP PUSH0 DUP5 SWAP1 POP PUSH0 DUP3 DUP1 SLOAD SWAP1 POP SWAP1 POP JUMPDEST PUSH0 DUP2 GT ISZERO PUSH2 0xEB9 JUMPI PUSH0 PUSH1 0x2 PUSH0 DUP6 PUSH1 0x1 DUP6 PUSH2 0xCFA SWAP2 SWAP1 PUSH2 0x1D43 JUMP JUMPDEST DUP2 SLOAD DUP2 LT PUSH2 0xD0B JUMPI PUSH2 0xD0A PUSH2 0x1E04 JUMP JUMPDEST JUMPDEST SWAP1 PUSH0 MSTORE PUSH1 0x20 PUSH0 KECCAK256 ADD PUSH0 SWAP1 SLOAD SWAP1 PUSH2 0x100 EXP SWAP1 DIV PUSH20 0xFFFFFFFFFFFFFFFFFFFFFFFFFFFFFFFFFFFFFFFF AND PUSH20 0xFFFFFFFFFFFFFFFFFFFFFFFFFFFFFFFFFFFFFFFF AND PUSH20 0xFFFFFFFFFFFFFFFFFFFFFFFFFFFFFFFFFFFFFFFF AND DUP2 MSTORE PUSH1 0x20 ADD SWAP1 DUP2 MSTORE PUSH1 0x20 ADD PUSH0 KECCAK256 PUSH0 ADD SWAP1 POP PUSH2 0xE31 DUP2 PUSH1 0x40 MLOAD DUP1 PUSH1 0xA0 ADD PUSH1 0x40 MSTORE SWAP1 DUP2 PUSH0 DUP3 ADD PUSH0 SWAP1 SLOAD SWAP1 PUSH2 0x100 EXP SWAP1 DIV PUSH20 0xFFFFFFFFFFFFFFFFFFFFFFFFFFFFFFFFFFFFFFFF AND PUSH20 0xFFFFFFFFFFFFFFFFFFFFFFFFFFFFFFFFFFFFFFFF AND PUSH20 0xFFFFFFFFFFFFFFFFFFFFFFFFFFFFFFFFFFFFFFFF AND DUP2 MSTORE PUSH1 0x20 ADD PUSH1 0x1 DUP3 ADD SLOAD DUP2 MSTORE PUSH1 0x20 ADD PUSH1 0x2 DUP3 ADD SLOAD DUP2 MSTORE PUSH1 0x20 ADD PUSH1 0x3 DUP3 ADD SLOAD DUP2 MSTORE PUSH1 0x20 ADD PUSH1 0x4 DUP3 ADD PUSH0 SWAP1 SLOAD SWAP1 PUSH2 0x100 EXP SWAP1 DIV PUSH1 0xFF AND PUSH1 0x2 DUP2 GT ISZERO PUSH2 0xE15 JUMPI PUSH2 0xE14 PUSH2 0x19ED JUMP JUMPDEST JUMPDEST PUSH1 0x2 DUP2 GT ISZERO PUSH2 0xE27 JUMPI PUSH2 0xE26 PUSH2 0x19ED JUMP JUMPDEST JUMPDEST DUP2 MSTORE POP POP DUP8 PUSH2 0xFF2 JUMP JUMPDEST ISZERO PUSH2 0xEA5 JUMPI PUSH2 0xE95 DUP9 DUP6 PUSH1 0x1 DUP6 PUSH2 0xE48 SWAP2 SWAP1 PUSH2 0x1D43 JUMP JUMPDEST DUP2 SLOAD DUP2 LT PUSH2 0xE59 JUMPI PUSH2 0xE58 PUSH2 0x1E04 JUMP JUMPDEST JUMPDEST SWAP1 PUSH0 MSTORE PUSH1 0x20 PUSH0 KECCAK256 ADD PUSH0 SWAP1 SLOAD SWAP1 PUSH2 0x100 EXP SWAP1 DIV PUSH20 0xFFFFFFFFFFFFFFFFFFFFFFFFFFFFFFFFFFFFFFFF AND DUP6 PUSH1 0x1 DUP7 PUSH2 0xE8F SWAP2 SWAP1 PUSH2 0x1D43 JUMP JUMPDEST DUP11 PUSH2 0x105B JUMP JUMPDEST SWAP3 POP PUSH0 DUP4 SUB PUSH2 0xEA4 JUMPI POP PUSH2 0xEB9 JUMP JUMPDEST JUMPDEST POP DUP1 DUP1 PUSH2 0xEB1 SWAP1 PUSH2 0x1E31 JUMP JUMPDEST SWAP2 POP POP PUSH2 0xCE0 JUMP JUMPDEST POP PUSH0 DUP2 GT ISZERO PUSH2 0xED3 JUMPI PUSH2 0xECE DUP7 DUP3 DUP7 DUP7 PUSH2 0x13E8 JUMP JUMPDEST PUSH2 0xF3D JUMP JUMPDEST PUSH0 PUSH1 0x2 PUSH0 CALLER PUSH20 0xFFFFFFFFFFFFFFFFFFFFFFFFFFFFFFFFFFFFFFFF AND PUSH20 0xFFFFFFFFFFFFFFFFFFFFFFFFFFFFFFFFFFFFFFFF AND DUP2 MSTORE PUSH1 0x20 ADD SWAP1 DUP2 MSTORE PUSH1 0x20 ADD PUSH0 KECCAK256 PUSH0 ADD PUSH1 0x4 ADD PUSH0 PUSH2 0x100 EXP DUP2 SLOAD DUP2 PUSH1 0xFF MUL NOT AND SWAP1 DUP4 PUSH1 0x2 DUP2 GT ISZERO PUSH2 0xF37 JUMPI PUSH2 0xF36 PUSH2 0x19ED JUMP JUMPDEST JUMPDEST MUL OR SWAP1 SSTORE POP JUMPDEST POP POP POP POP POP POP JUMP JUMPDEST PUSH0 DUP3 PUSH20 0xFFFFFFFFFFFFFFFFFFFFFFFFFFFFFFFFFFFFFFFF AND DUP3 PUSH1 0x40 MLOAD PUSH2 0xF6A SWAP1 PUSH2 0x1E85 JUMP JUMPDEST PUSH0 PUSH1 0x40 MLOAD DUP1 DUP4 SUB DUP2 DUP6 DUP8 GAS CALL SWAP3 POP POP POP RETURNDATASIZE DUP1 PUSH0 DUP2 EQ PUSH2 0xFA4 JUMPI PUSH1 0x40 MLOAD SWAP2 POP PUSH1 0x1F NOT PUSH1 0x3F RETURNDATASIZE ADD AND DUP3 ADD PUSH1 0x40 MSTORE RETURNDATASIZE DUP3 MSTORE RETURNDATASIZE PUSH0 PUSH1 0x20 DUP5 ADD RETURNDATACOPY PUSH2 0xFA9 JUMP JUMPDEST PUSH1 0x60 SWAP2 POP JUMPDEST POP POP SWAP1 POP DUP1 PUSH2 0xFED JUMPI PUSH1 0x40 MLOAD PUSH32 0x8C379A000000000000000000000000000000000000000000000000000000000 DUP2 MSTORE PUSH1 0x4 ADD PUSH2 0xFE4 SWAP1 PUSH2 0x1EE3 JUMP JUMPDEST PUSH1 0x40 MLOAD DUP1 SWAP2 SUB SWAP1 REVERT JUMPDEST POP POP POP JUMP JUMPDEST PUSH0 PUSH1 0x1 PUSH1 0x2 DUP2 GT ISZERO PUSH2 0x1007 JUMPI PUSH2 0x1006 PUSH2 0x19ED JUMP JUMPDEST JUMPDEST DUP4 PUSH1 0x80 ADD MLOAD PUSH1 0x2 DUP2 GT ISZERO PUSH2 0x101E JUMPI PUSH2 0x101D PUSH2 0x19ED JUMP JUMPDEST JUMPDEST SUB PUSH2 0x103C JUMPI DUP2 DUP4 PUSH1 0x40 ADD MLOAD LT PUSH2 0x1037 JUMPI PUSH1 0x1 SWAP1 POP PUSH2 0x1055 JUMP JUMPDEST PUSH2 0x1051 JUMP JUMPDEST DUP2 DUP4 PUSH1 0x40 ADD MLOAD GT PUSH2 0x1050 JUMPI PUSH1 0x1 SWAP1 POP PUSH2 0x1055 JUMP JUMPDEST JUMPDEST PUSH0 SWAP1 POP JUMPDEST SWAP3 SWAP2 POP POP JUMP JUMPDEST PUSH0 DUP1 PUSH1 0x2 PUSH0 DUP8 PUSH20 0xFFFFFFFFFFFFFFFFFFFFFFFFFFFFFFFFFFFFFFFF AND PUSH20 0xFFFFFFFFFFFFFFFFFFFFFFFFFFFFFFFFFFFFFFFF AND DUP2 MSTORE PUSH1 0x20 ADD SWAP1 DUP2 MSTORE PUSH1 0x20 ADD PUSH0 KECCAK256 PUSH0 ADD SWAP1 POP PUSH0 DUP2 PUSH1 0x1 ADD SLOAD DUP7 LT PUSH2 0x10B4 JUMPI DUP2 PUSH1 0x1 ADD SLOAD PUSH2 0x10B6 JUMP JUMPDEST DUP6 JUMPDEST SWAP1 POP PUSH1 0x2 DUP1 DUP2 GT ISZERO PUSH2 0x10CB JUMPI PUSH2 0x10CA PUSH2 0x19ED JUMP JUMPDEST JUMPDEST DUP3 PUSH1 0x4 ADD PUSH0 SWAP1 SLOAD SWAP1 PUSH2 0x100 EXP SWAP1 DIV PUSH1 0xFF AND PUSH1 0x2 DUP2 GT ISZERO PUSH2 0x10EE JUMPI PUSH2 0x10ED PUSH2 0x19ED JUMP JUMPDEST JUMPDEST SUB PUSH2 0x11FF JUMPI DUP8 PUSH20 0xFFFFFFFFFFFFFFFFFFFFFFFFFFFFFFFFFFFFFFFF AND PUSH4 0xA9059CBB DUP9 DUP4 PUSH1 0x40 MLOAD DUP4 PUSH4 0xFFFFFFFF AND PUSH1 0xE0 SHL DUP2 MSTORE PUSH1 0x4 ADD PUSH2 0x112E SWAP3 SWAP2 SWAP1 PUSH2 0x1F01 JUMP JUMPDEST PUSH1 0x20 PUSH1 0x40 MLOAD DUP1 DUP4 SUB DUP2 PUSH0 DUP8 GAS CALL ISZERO DUP1 ISZERO PUSH2 0x114A JUMPI RETURNDATASIZE PUSH0 DUP1 RETURNDATACOPY RETURNDATASIZE PUSH0 REVERT JUMPDEST POP POP POP POP PUSH1 0x40 MLOAD RETURNDATASIZE PUSH1 0x1F NOT PUSH1 0x1F DUP3 ADD AND DUP3 ADD DUP1 PUSH1 0x40 MSTORE POP DUP2 ADD SWAP1 PUSH2 0x116E SWAP2 SWAP1 PUSH2 0x1C1C JUMP JUMPDEST PUSH2 0x11AD JUMPI PUSH1 0x40 MLOAD PUSH32 0x8C379A000000000000000000000000000000000000000000000000000000000 DUP2 MSTORE PUSH1 0x4 ADD PUSH2 0x11A4 SWAP1 PUSH2 0x1F72 JUMP JUMPDEST PUSH1 0x40 MLOAD DUP1 SWAP2 SUB SWAP1 REVERT JUMPDEST PUSH2 0x11C6 CALLER DUP4 PUSH1 0x2 ADD SLOAD DUP4 PUSH2 0x11C1 SWAP2 SWAP1 PUSH2 0x1D02 JUMP JUMPDEST PUSH2 0xF45 JUMP JUMPDEST DUP4 DUP3 PUSH1 0x2 ADD SLOAD GT ISZERO PUSH2 0x11FA JUMPI DUP4 DUP3 PUSH1 0x2 ADD SLOAD PUSH2 0x11E2 SWAP2 SWAP1 PUSH2 0x1D43 JUMP JUMPDEST PUSH1 0x6 PUSH0 DUP3 DUP3 SLOAD PUSH2 0x11F2 SWAP2 SWAP1 PUSH2 0x1F90 JUMP JUMPDEST SWAP3 POP POP DUP2 SWAP1 SSTORE POP JUMPDEST PUSH2 0x1307 JUMP JUMPDEST DUP8 PUSH20 0xFFFFFFFFFFFFFFFFFFFFFFFFFFFFFFFFFFFFFFFF AND PUSH4 0xA9059CBB CALLER DUP4 PUSH1 0x40 MLOAD DUP4 PUSH4 0xFFFFFFFF AND PUSH1 0xE0 SHL DUP2 MSTORE PUSH1 0x4 ADD PUSH2 0x123A SWAP3 SWAP2 SWAP1 PUSH2 0x1F01 JUMP JUMPDEST PUSH1 0x20 PUSH1 0x40 MLOAD DUP1 DUP4 SUB DUP2 PUSH0 DUP8 GAS CALL ISZERO DUP1 ISZERO PUSH2 0x1256 JUMPI RETURNDATASIZE PUSH0 DUP1 RETURNDATACOPY RETURNDATASIZE PUSH0 REVERT JUMPDEST POP POP POP POP PUSH1 0x40 MLOAD RETURNDATASIZE PUSH1 0x1F NOT PUSH1 0x1F DUP3 ADD AND DUP3 ADD DUP1 PUSH1 0x40 MSTORE POP DUP2 ADD SWAP1 PUSH2 0x127A SWAP2 SWAP1 PUSH2 0x1C1C JUMP JUMPDEST PUSH2 0x12B9 JUMPI PUSH1 0x40 MLOAD PUSH32 0x8C379A000000000000000000000000000000000000000000000000000000000 DUP2 MSTORE PUSH1 0x4 ADD PUSH2 0x12B0 SWAP1 PUSH2 0x1F72 JUMP JUMPDEST PUSH1 0x40 MLOAD DUP1 SWAP2 SUB SWAP1 REVERT JUMPDEST PUSH2 0x12D2 DUP8 DUP4 PUSH1 0x2 ADD SLOAD DUP4 PUSH2 0x12CD SWAP2 SWAP1 PUSH2 0x1D02 JUMP JUMPDEST PUSH2 0xF45 JUMP JUMPDEST DUP4 DUP3 PUSH1 0x2 ADD SLOAD GT ISZERO PUSH2 0x1306 JUMPI DUP4 DUP3 PUSH1 0x2 ADD SLOAD PUSH2 0x12EE SWAP2 SWAP1 PUSH2 0x1D43 JUMP JUMPDEST PUSH1 0x6 PUSH0 DUP3 DUP3 SLOAD PUSH2 0x12FE SWAP2 SWAP1 PUSH2 0x1F90 JUMP JUMPDEST SWAP3 POP POP DUP2 SWAP1 SSTORE POP JUMPDEST JUMPDEST DUP1 DUP3 PUSH1 0x1 ADD PUSH0 DUP3 DUP3 SLOAD PUSH2 0x131A SWAP2 SWAP1 PUSH2 0x1D43 JUMP JUMPDEST SWAP3 POP POP DUP2 SWAP1 SSTORE POP CALLER PUSH20 0xFFFFFFFFFFFFFFFFFFFFFFFFFFFFFFFFFFFFFFFF AND DUP8 PUSH20 0xFFFFFFFFFFFFFFFFFFFFFFFFFFFFFFFFFFFFFFFF AND DUP10 PUSH20 0xFFFFFFFFFFFFFFFFFFFFFFFFFFFFFFFFFFFFFFFF AND PUSH32 0x1CE728F6A2703272EE2E07CF07FD21DDC592575A5B6774A529B595FDF56DD1A6 DUP6 PUSH1 0x4 ADD PUSH0 SWAP1 SLOAD SWAP1 PUSH2 0x100 EXP SWAP1 DIV PUSH1 0xFF AND DUP6 DUP8 PUSH1 0x2 ADD SLOAD PUSH1 0x40 MLOAD PUSH2 0x13AD SWAP4 SWAP3 SWAP2 SWAP1 PUSH2 0x1FD2 JUMP JUMPDEST PUSH1 0x40 MLOAD DUP1 SWAP2 SUB SWAP1 LOG4 PUSH0 DUP3 PUSH1 0x1 ADD SLOAD SUB PUSH2 0x13CC JUMPI PUSH2 0x13CB DUP9 DUP4 DUP8 PUSH2 0x1605 JUMP JUMPDEST JUMPDEST DUP1 DUP7 PUSH2 0x13D8 SWAP2 SWAP1 PUSH2 0x1D43 JUMP JUMPDEST SWAP6 POP DUP6 SWAP3 POP POP POP SWAP6 SWAP5 POP POP POP POP POP JUMP JUMPDEST PUSH0 PUSH1 0x1 PUSH1 0x2 DUP2 GT ISZERO PUSH2 0x13FD JUMPI PUSH2 0x13FC PUSH2 0x19ED JUMP JUMPDEST JUMPDEST DUP3 PUSH1 0x2 DUP2 GT ISZERO PUSH2 0x1410 JUMPI PUSH2 0x140F PUSH2 0x19ED JUMP JUMPDEST JUMPDEST SUB PUSH2 0x1457 JUMPI PUSH1 0x3 PUSH0 DUP7 PUSH20 0xFFFFFFFFFFFFFFFFFFFFFFFFFFFFFFFFFFFFFFFF AND PUSH20 0xFFFFFFFFFFFFFFFFFFFFFFFFFFFFFFFFFFFFFFFF AND DUP2 MSTORE PUSH1 0x20 ADD SWAP1 DUP2 MSTORE PUSH1 0x20 ADD PUSH0 KECCAK256 PUSH2 0x1495 JUMP JUMPDEST PUSH1 0x4 PUSH0 DUP7 PUSH20 0xFFFFFFFFFFFFFFFFFFFFFFFFFFFFFFFFFFFFFFFF AND PUSH20 0xFFFFFFFFFFFFFFFFFFFFFFFFFFFFFFFFFFFFFFFF AND DUP2 MSTORE PUSH1 0x20 ADD SWAP1 DUP2 MSTORE PUSH1 0x20 ADD PUSH0 KECCAK256 JUMPDEST SWAP1 POP DUP1 CALLER SWAP1 DUP1 PUSH1 0x1 DUP2 SLOAD ADD DUP1 DUP3 SSTORE DUP1 SWAP2 POP POP PUSH1 0x1 SWAP1 SUB SWAP1 PUSH0 MSTORE PUSH1 0x20 PUSH0 KECCAK256 ADD PUSH0 SWAP1 SWAP2 SWAP1 SWAP2 SWAP1 SWAP2 PUSH2 0x100 EXP DUP2 SLOAD DUP2 PUSH20 0xFFFFFFFFFFFFFFFFFFFFFFFFFFFFFFFFFFFFFFFF MUL NOT AND SWAP1 DUP4 PUSH20 0xFFFFFFFFFFFFFFFFFFFFFFFFFFFFFFFFFFFFFFFF AND MUL OR SWAP1 SSTORE POP PUSH0 PUSH1 0x2 PUSH0 CALLER PUSH20 0xFFFFFFFFFFFFFFFFFFFFFFFFFFFFFFFFFFFFFFFF AND PUSH20 0xFFFFFFFFFFFFFFFFFFFFFFFFFFFFFFFFFFFFFFFF AND DUP2 MSTORE PUSH1 0x20 ADD SWAP1 DUP2 MSTORE PUSH1 0x20 ADD PUSH0 KECCAK256 PUSH0 ADD SWAP1 POP DUP6 DUP2 PUSH0 ADD PUSH0 PUSH2 0x100 EXP DUP2 SLOAD DUP2 PUSH20 0xFFFFFFFFFFFFFFFFFFFFFFFFFFFFFFFFFFFFFFFF MUL NOT AND SWAP1 DUP4 PUSH20 0xFFFFFFFFFFFFFFFFFFFFFFFFFFFFFFFFFFFFFFFF AND MUL OR SWAP1 SSTORE POP DUP5 DUP2 PUSH1 0x1 ADD DUP2 SWAP1 SSTORE POP DUP4 DUP2 PUSH1 0x2 ADD DUP2 SWAP1 SSTORE POP TIMESTAMP DUP2 PUSH1 0x3 ADD DUP2 SWAP1 SSTORE POP CALLER PUSH20 0xFFFFFFFFFFFFFFFFFFFFFFFFFFFFFFFFFFFFFFFF AND DUP7 PUSH20 0xFFFFFFFFFFFFFFFFFFFFFFFFFFFFFFFFFFFFFFFF AND PUSH32 0xBA9E7B0A1A964FEA173E3888FFBCBE410FCA9A481F92CF8FC8B76A1B70F31D68 DUP6 DUP9 DUP9 PUSH1 0x40 MLOAD PUSH2 0x15F5 SWAP4 SWAP3 SWAP2 SWAP1 PUSH2 0x1FD2 JUMP JUMPDEST PUSH1 0x40 MLOAD DUP1 SWAP2 SUB SWAP1 LOG3 POP POP POP POP POP POP JUMP JUMPDEST PUSH0 PUSH1 0x1 PUSH1 0x2 DUP2 GT ISZERO PUSH2 0x161A JUMPI PUSH2 0x1619 PUSH2 0x19ED JUMP JUMPDEST JUMPDEST DUP4 PUSH1 0x4 ADD PUSH0 SWAP1 SLOAD SWAP1 PUSH2 0x100 EXP SWAP1 DIV PUSH1 0xFF AND PUSH1 0x2 DUP2 GT ISZERO PUSH2 0x163D JUMPI PUSH2 0x163C PUSH2 0x19ED JUMP JUMPDEST JUMPDEST EQ PUSH2 0x1684 JUMPI PUSH1 0x4 PUSH0 DUP6 PUSH20 0xFFFFFFFFFFFFFFFFFFFFFFFFFFFFFFFFFFFFFFFF AND PUSH20 0xFFFFFFFFFFFFFFFFFFFFFFFFFFFFFFFFFFFFFFFF AND DUP2 MSTORE PUSH1 0x20 ADD SWAP1 DUP2 MSTORE PUSH1 0x20 ADD PUSH0 KECCAK256 PUSH2 0x16C2 JUMP JUMPDEST PUSH1 0x3 PUSH0 DUP6 PUSH20 0xFFFFFFFFFFFFFFFFFFFFFFFFFFFFFFFFFFFFFFFF AND PUSH20 0xFFFFFFFFFFFFFFFFFFFFFFFFFFFFFFFFFFFFFFFF AND DUP2 MSTORE PUSH1 0x20 ADD SWAP1 DUP2 MSTORE PUSH1 0x20 ADD PUSH0 KECCAK256 JUMPDEST SWAP1 POP PUSH0 DUP3 SWAP1 POP JUMPDEST PUSH1 0x1 DUP3 DUP1 SLOAD SWAP1 POP PUSH2 0x16DA SWAP2 SWAP1 PUSH2 0x1D43 JUMP JUMPDEST DUP2 LT ISZERO PUSH2 0x178D JUMPI DUP2 PUSH1 0x1 DUP3 PUSH2 0x16EF SWAP2 SWAP1 PUSH2 0x1F90 JUMP JUMPDEST DUP2 SLOAD DUP2 LT PUSH2 0x1700 JUMPI PUSH2 0x16FF PUSH2 0x1E04 JUMP JUMPDEST JUMPDEST SWAP1 PUSH0 MSTORE PUSH1 0x20 PUSH0 KECCAK256 ADD PUSH0 SWAP1 SLOAD SWAP1 PUSH2 0x100 EXP SWAP1 DIV PUSH20 0xFFFFFFFFFFFFFFFFFFFFFFFFFFFFFFFFFFFFFFFF AND DUP3 DUP3 DUP2 SLOAD DUP2 LT PUSH2 0x173B JUMPI PUSH2 0x173A PUSH2 0x1E04 JUMP JUMPDEST JUMPDEST SWAP1 PUSH0 MSTORE PUSH1 0x20 PUSH0 KECCAK256 ADD PUSH0 PUSH2 0x100 EXP DUP2 SLOAD DUP2 PUSH20 0xFFFFFFFFFFFFFFFFFFFFFFFFFFFFFFFFFFFFFFFF MUL NOT AND SWAP1 DUP4 PUSH20 0xFFFFFFFFFFFFFFFFFFFFFFFFFFFFFFFFFFFFFFFF AND MUL OR SWAP1 SSTORE POP DUP1 DUP1 PUSH1 0x1 ADD SWAP2 POP POP PUSH2 0x16C9 JUMP JUMPDEST POP DUP1 DUP1 SLOAD DUP1 PUSH2 0x179F JUMPI PUSH2 0x179E PUSH2 0x2007 JUMP JUMPDEST JUMPDEST PUSH1 0x1 SWAP1 SUB DUP2 DUP2 SWAP1 PUSH0 MSTORE PUSH1 0x20 PUSH0 KECCAK256 ADD PUSH0 PUSH2 0x100 EXP DUP2 SLOAD SWAP1 PUSH20 0xFFFFFFFFFFFFFFFFFFFFFFFFFFFFFFFFFFFFFFFF MUL NOT AND SWAP1 SSTORE SWAP1 SSTORE PUSH0 DUP4 PUSH1 0x4 ADD PUSH0 PUSH2 0x100 EXP DUP2 SLOAD DUP2 PUSH1 0xFF MUL NOT AND SWAP1 DUP4 PUSH1 0x2 DUP2 GT ISZERO PUSH2 0x17F7 JUMPI PUSH2 0x17F6 PUSH2 0x19ED JUMP JUMPDEST JUMPDEST MUL OR SWAP1 SSTORE POP POP POP POP POP JUMP JUMPDEST PUSH0 DUP2 ISZERO ISZERO SWAP1 POP SWAP2 SWAP1 POP JUMP JUMPDEST PUSH2 0x1816 DUP2 PUSH2 0x1802 JUMP JUMPDEST DUP3 MSTORE POP POP JUMP JUMPDEST PUSH0 PUSH1 0x20 DUP3 ADD SWAP1 POP PUSH2 0x182F PUSH0 DUP4 ADD DUP5 PUSH2 0x180D JUMP JUMPDEST SWAP3 SWAP2 POP POP JUMP JUMPDEST PUSH0 DUP1 REVERT JUMPDEST PUSH0 PUSH20 0xFFFFFFFFFFFFFFFFFFFFFFFFFFFFFFFFFFFFFFFF DUP3 AND SWAP1 POP SWAP2 SWAP1 POP JUMP JUMPDEST PUSH0 PUSH2 0x1862 DUP3 PUSH2 0x1839 JUMP JUMPDEST SWAP1 POP SWAP2 SWAP1 POP JUMP JUMPDEST PUSH2 0x1872 DUP2 PUSH2 0x1858 JUMP JUMPDEST DUP2 EQ PUSH2 0x187C JUMPI PUSH0 DUP1 REVERT JUMPDEST POP JUMP JUMPDEST PUSH0 DUP2 CALLDATALOAD SWAP1 POP PUSH2 0x188D DUP2 PUSH2 0x1869 JUMP JUMPDEST SWAP3 SWAP2 POP POP JUMP JUMPDEST PUSH0 DUP2 SWAP1 POP SWAP2 SWAP1 POP JUMP JUMPDEST PUSH2 0x18A5 DUP2 PUSH2 0x1893 JUMP JUMPDEST DUP2 EQ PUSH2 0x18AF JUMPI PUSH0 DUP1 REVERT JUMPDEST POP JUMP JUMPDEST PUSH0 DUP2 CALLDATALOAD SWAP1 POP PUSH2 0x18C0 DUP2 PUSH2 0x189C JUMP JUMPDEST SWAP3 SWAP2 POP POP JUMP JUMPDEST PUSH0 DUP1 PUSH1 0x40 DUP4 DUP6 SUB SLT ISZERO PUSH2 0x18DC JUMPI PUSH2 0x18DB PUSH2 0x1835 JUMP JUMPDEST JUMPDEST PUSH0 PUSH2 0x18E9 DUP6 DUP3 DUP7 ADD PUSH2 0x187F JUMP JUMPDEST SWAP3 POP POP PUSH1 0x20 PUSH2 0x18FA DUP6 DUP3 DUP7 ADD PUSH2 0x18B2 JUMP JUMPDEST SWAP2 POP POP SWAP3 POP SWAP3 SWAP1 POP JUMP JUMPDEST PUSH2 0x190D DUP2 PUSH2 0x1858 JUMP JUMPDEST DUP3 MSTORE POP POP JUMP JUMPDEST PUSH0 PUSH1 0x20 DUP3 ADD SWAP1 POP PUSH2 0x1926 PUSH0 DUP4 ADD DUP5 PUSH2 0x1904 JUMP JUMPDEST SWAP3 SWAP2 POP POP JUMP JUMPDEST PUSH2 0x1935 DUP2 PUSH2 0x1893 JUMP JUMPDEST DUP3 MSTORE POP POP JUMP JUMPDEST PUSH0 PUSH1 0x20 DUP3 ADD SWAP1 POP PUSH2 0x194E PUSH0 DUP4 ADD DUP5 PUSH2 0x192C JUMP JUMPDEST SWAP3 SWAP2 POP POP JUMP JUMPDEST PUSH0 DUP1 PUSH0 PUSH1 0x60 DUP5 DUP7 SUB SLT ISZERO PUSH2 0x196B JUMPI PUSH2 0x196A PUSH2 0x1835 JUMP JUMPDEST JUMPDEST PUSH0 PUSH2 0x1978 DUP7 DUP3 DUP8 ADD PUSH2 0x187F JUMP JUMPDEST SWAP4 POP POP PUSH1 0x20 PUSH2 0x1989 DUP7 DUP3 DUP8 ADD PUSH2 0x18B2 JUMP JUMPDEST SWAP3 POP POP PUSH1 0x40 PUSH2 0x199A DUP7 DUP3 DUP8 ADD PUSH2 0x18B2 JUMP JUMPDEST SWAP2 POP POP SWAP3 POP SWAP3 POP SWAP3 JUMP JUMPDEST PUSH0 PUSH1 0x20 DUP3 DUP5 SUB SLT ISZERO PUSH2 0x19B9 JUMPI PUSH2 0x19B8 PUSH2 0x1835 JUMP JUMPDEST JUMPDEST PUSH0 PUSH2 0x19C6 DUP5 DUP3 DUP6 ADD PUSH2 0x187F JUMP JUMPDEST SWAP2 POP POP SWAP3 SWAP2 POP POP JUMP JUMPDEST PUSH2 0x19D8 DUP2 PUSH2 0x1858 JUMP JUMPDEST DUP3 MSTORE POP POP JUMP JUMPDEST PUSH2 0x19E7 DUP2 PUSH2 0x1893 JUMP JUMPDEST DUP3 MSTORE POP POP JUMP JUMPDEST PUSH32 0x4E487B7100000000000000000000000000000000000000000000000000000000 PUSH0 MSTORE PUSH1 0x21 PUSH1 0x4 MSTORE PUSH1 0x24 PUSH0 REVERT JUMPDEST PUSH1 0x3 DUP2 LT PUSH2 0x1A2B JUMPI PUSH2 0x1A2A PUSH2 0x19ED JUMP JUMPDEST JUMPDEST POP JUMP JUMPDEST PUSH0 DUP2 SWAP1 POP PUSH2 0x1A3B DUP3 PUSH2 0x1A1A JUMP JUMPDEST SWAP2 SWAP1 POP JUMP JUMPDEST PUSH0 PUSH2 0x1A4A DUP3 PUSH2 0x1A2E JUMP JUMPDEST SWAP1 POP SWAP2 SWAP1 POP JUMP JUMPDEST PUSH2 0x1A5A DUP2 PUSH2 0x1A40 JUMP JUMPDEST DUP3 MSTORE POP POP JUMP JUMPDEST PUSH1 0xA0 DUP3 ADD PUSH0 DUP3 ADD MLOAD PUSH2 0x1A74 PUSH0 DUP6 ADD DUP3 PUSH2 0x19CF JUMP JUMPDEST POP PUSH1 0x20 DUP3 ADD MLOAD PUSH2 0x1A87 PUSH1 0x20 DUP6 ADD DUP3 PUSH2 0x19DE JUMP JUMPDEST POP PUSH1 0x40 DUP3 ADD MLOAD PUSH2 0x1A9A PUSH1 0x40 DUP6 ADD DUP3 PUSH2 0x19DE JUMP JUMPDEST POP PUSH1 0x60 DUP3 ADD MLOAD PUSH2 0x1AAD PUSH1 0x60 DUP6 ADD DUP3 PUSH2 0x19DE JUMP JUMPDEST POP PUSH1 0x80 DUP3 ADD MLOAD PUSH2 0x1AC0 PUSH1 0x80 DUP6 ADD DUP3 PUSH2 0x1A51 JUMP JUMPDEST POP POP POP POP JUMP JUMPDEST PUSH0 PUSH1 0xA0 DUP3 ADD SWAP1 POP PUSH2 0x1AD9 PUSH0 DUP4 ADD DUP5 PUSH2 0x1A60 JUMP JUMPDEST SWAP3 SWAP2 POP POP JUMP JUMPDEST PUSH0 DUP3 DUP3 MSTORE PUSH1 0x20 DUP3 ADD SWAP1 POP SWAP3 SWAP2 POP POP JUMP JUMPDEST PUSH32 0x43616C6C6572206973206E6F7420617574686F72697A65640000000000000000 PUSH0 DUP3 ADD MSTORE POP JUMP JUMPDEST PUSH0 PUSH2 0x1B23 PUSH1 0x18 DUP4 PUSH2 0x1ADF JUMP JUMPDEST SWAP2 POP PUSH2 0x1B2E DUP3 PUSH2 0x1AEF JUMP JUMPDEST PUSH1 0x20 DUP3 ADD SWAP1 POP SWAP2 SWAP1 POP JUMP JUMPDEST PUSH0 PUSH1 0x20 DUP3 ADD SWAP1 POP DUP2 DUP2 SUB PUSH0 DUP4 ADD MSTORE PUSH2 0x1B50 DUP2 PUSH2 0x1B17 JUMP JUMPDEST SWAP1 POP SWAP2 SWAP1 POP JUMP JUMPDEST PUSH0 PUSH1 0x40 DUP3 ADD SWAP1 POP PUSH2 0x1B6A PUSH0 DUP4 ADD DUP6 PUSH2 0x1904 JUMP JUMPDEST PUSH2 0x1B77 PUSH1 0x20 DUP4 ADD DUP5 PUSH2 0x1904 JUMP JUMPDEST SWAP4 SWAP3 POP POP POP JUMP JUMPDEST PUSH0 DUP2 MLOAD SWAP1 POP PUSH2 0x1B8C DUP2 PUSH2 0x189C JUMP JUMPDEST SWAP3 SWAP2 POP POP JUMP JUMPDEST PUSH0 PUSH1 0x20 DUP3 DUP5 SUB SLT ISZERO PUSH2 0x1BA7 JUMPI PUSH2 0x1BA6 PUSH2 0x1835 JUMP JUMPDEST JUMPDEST PUSH0 PUSH2 0x1BB4 DUP5 DUP3 DUP6 ADD PUSH2 0x1B7E JUMP JUMPDEST SWAP2 POP POP SWAP3 SWAP2 POP POP JUMP JUMPDEST PUSH0 PUSH1 0x60 DUP3 ADD SWAP1 POP PUSH2 0x1BD0 PUSH0 DUP4 ADD DUP7 PUSH2 0x1904 JUMP JUMPDEST PUSH2 0x1BDD PUSH1 0x20 DUP4 ADD DUP6 PUSH2 0x1904 JUMP JUMPDEST PUSH2 0x1BEA PUSH1 0x40 DUP4 ADD DUP5 PUSH2 0x192C JUMP JUMPDEST SWAP5 SWAP4 POP POP POP POP JUMP JUMPDEST PUSH2 0x1BFB DUP2 PUSH2 0x1802 JUMP JUMPDEST DUP2 EQ PUSH2 0x1C05 JUMPI PUSH0 DUP1 REVERT JUMPDEST POP JUMP JUMPDEST PUSH0 DUP2 MLOAD SWAP1 POP PUSH2 0x1C16 DUP2 PUSH2 0x1BF2 JUMP JUMPDEST SWAP3 SWAP2 POP POP JUMP JUMPDEST PUSH0 PUSH1 0x20 DUP3 DUP5 SUB SLT ISZERO PUSH2 0x1C31 JUMPI PUSH2 0x1C30 PUSH2 0x1835 JUMP JUMPDEST JUMPDEST PUSH0 PUSH2 0x1C3E DUP5 DUP3 DUP6 ADD PUSH2 0x1C08 JUMP JUMPDEST SWAP2 POP POP SWAP3 SWAP2 POP POP JUMP JUMPDEST PUSH32 0x546F6B656E207472616E7366657220746F2065786368616E6765206661696C65 PUSH0 DUP3 ADD MSTORE PUSH32 0x6400000000000000000000000000000000000000000000000000000000000000 PUSH1 0x20 DUP3 ADD MSTORE POP JUMP JUMPDEST PUSH0 PUSH2 0x1CA1 PUSH1 0x21 DUP4 PUSH2 0x1ADF JUMP JUMPDEST SWAP2 POP PUSH2 0x1CAC DUP3 PUSH2 0x1C47 JUMP JUMPDEST PUSH1 0x40 DUP3 ADD SWAP1 POP SWAP2 SWAP1 POP JUMP JUMPDEST PUSH0 PUSH1 0x20 DUP3 ADD SWAP1 POP DUP2 DUP2 SUB PUSH0 DUP4 ADD MSTORE PUSH2 0x1CCE DUP2 PUSH2 0x1C95 JUMP JUMPDEST SWAP1 POP SWAP2 SWAP1 POP JUMP JUMPDEST PUSH32 0x4E487B7100000000000000000000000000000000000000000000000000000000 PUSH0 MSTORE PUSH1 0x11 PUSH1 0x4 MSTORE PUSH1 0x24 PUSH0 REVERT JUMPDEST PUSH0 PUSH2 0x1D0C DUP3 PUSH2 0x1893 JUMP JUMPDEST SWAP2 POP PUSH2 0x1D17 DUP4 PUSH2 0x1893 JUMP JUMPDEST SWAP3 POP DUP3 DUP3 MUL PUSH2 0x1D25 DUP2 PUSH2 0x1893 JUMP JUMPDEST SWAP2 POP DUP3 DUP3 DIV DUP5 EQ DUP4 ISZERO OR PUSH2 0x1D3C JUMPI PUSH2 0x1D3B PUSH2 0x1CD5 JUMP JUMPDEST JUMPDEST POP SWAP3 SWAP2 POP POP JUMP JUMPDEST PUSH0 PUSH2 0x1D4D DUP3 PUSH2 0x1893 JUMP JUMPDEST SWAP2 POP PUSH2 0x1D58 DUP4 PUSH2 0x1893 JUMP JUMPDEST SWAP3 POP DUP3 DUP3 SUB SWAP1 POP DUP2 DUP2 GT ISZERO PUSH2 0x1D70 JUMPI PUSH2 0x1D6F PUSH2 0x1CD5 JUMP JUMPDEST JUMPDEST SWAP3 SWAP2 POP POP JUMP JUMPDEST PUSH32 0x5472616E7366657220746F20746865207A65726F206164647265737320697320 PUSH0 DUP3 ADD MSTORE PUSH32 0x6E6F7420616C6C6F776564000000000000000000000000000000000000000000 PUSH1 0x20 DUP3 ADD MSTORE POP JUMP JUMPDEST PUSH0 PUSH2 0x1DD0 PUSH1 0x2B DUP4 PUSH2 0x1ADF JUMP JUMPDEST SWAP2 POP PUSH2 0x1DDB DUP3 PUSH2 0x1D76 JUMP JUMPDEST PUSH1 0x40 DUP3 ADD SWAP1 POP SWAP2 SWAP1 POP JUMP JUMPDEST PUSH0 PUSH1 0x20 DUP3 ADD SWAP1 POP DUP2 DUP2 SUB PUSH0 DUP4 ADD MSTORE PUSH2 0x1DFD DUP2 PUSH2 0x1DC4 JUMP JUMPDEST SWAP1 POP SWAP2 SWAP1 POP JUMP JUMPDEST PUSH32 0x4E487B7100000000000000000000000000000000000000000000000000000000 PUSH0 MSTORE PUSH1 0x32 PUSH1 0x4 MSTORE PUSH1 0x24 PUSH0 REVERT JUMPDEST PUSH0 PUSH2 0x1E3B DUP3 PUSH2 0x1893 JUMP JUMPDEST SWAP2 POP PUSH0 DUP3 SUB PUSH2 0x1E4D JUMPI PUSH2 0x1E4C PUSH2 0x1CD5 JUMP JUMPDEST JUMPDEST PUSH1 0x1 DUP3 SUB SWAP1 POP SWAP2 SWAP1 POP JUMP JUMPDEST PUSH0 DUP2 SWAP1 POP SWAP3 SWAP2 POP POP JUMP JUMPDEST POP JUMP JUMPDEST PUSH0 PUSH2 0x1E70 PUSH0 DUP4 PUSH2 0x1E58 JUMP JUMPDEST SWAP2 POP PUSH2 0x1E7B DUP3 PUSH2 0x1E62 JUMP JUMPDEST PUSH0 DUP3 ADD SWAP1 POP SWAP2 SWAP1 POP JUMP JUMPDEST PUSH0 PUSH2 0x1E8F DUP3 PUSH2 0x1E65 JUMP JUMPDEST SWAP2 POP DUP2 SWAP1 POP SWAP2 SWAP1 POP JUMP JUMPDEST PUSH32 0x4661696C656420746F2073656E64204574686572000000000000000000000000 PUSH0 DUP3 ADD MSTORE POP JUMP JUMPDEST PUSH0 PUSH2 0x1ECD PUSH1 0x14 DUP4 PUSH2 0x1ADF JUMP JUMPDEST SWAP2 POP PUSH2 0x1ED8 DUP3 PUSH2 0x1E99 JUMP JUMPDEST PUSH1 0x20 DUP3 ADD SWAP1 POP SWAP2 SWAP1 POP JUMP JUMPDEST PUSH0 PUSH1 0x20 DUP3 ADD SWAP1 POP DUP2 DUP2 SUB PUSH0 DUP4 ADD MSTORE PUSH2 0x1EFA DUP2 PUSH2 0x1EC1 JUMP JUMPDEST SWAP1 POP SWAP2 SWAP1 POP JUMP JUMPDEST PUSH0 PUSH1 0x40 DUP3 ADD SWAP1 POP PUSH2 0x1F14 PUSH0 DUP4 ADD DUP6 PUSH2 0x1904 JUMP JUMPDEST PUSH2 0x1F21 PUSH1 0x20 DUP4 ADD DUP5 PUSH2 0x192C JUMP JUMPDEST SWAP4 SWAP3 POP POP POP JUMP JUMPDEST PUSH32 0x546F6B656E207472616E7366657220746F206275796572206661696C65640000 PUSH0 DUP3 ADD MSTORE POP JUMP JUMPDEST PUSH0 PUSH2 0x1F5C PUSH1 0x1E DUP4 PUSH2 0x1ADF JUMP JUMPDEST SWAP2 POP PUSH2 0x1F67 DUP3 PUSH2 0x1F28 JUMP JUMPDEST PUSH1 0x20 DUP3 ADD SWAP1 POP SWAP2 SWAP1 POP JUMP JUMPDEST PUSH0 PUSH1 0x20 DUP3 ADD SWAP1 POP DUP2 DUP2 SUB PUSH0 DUP4 ADD MSTORE PUSH2 0x1F89 DUP2 PUSH2 0x1F50 JUMP JUMPDEST SWAP1 POP SWAP2 SWAP1 POP JUMP JUMPDEST PUSH0 PUSH2 0x1F9A DUP3 PUSH2 0x1893 JUMP JUMPDEST SWAP2 POP PUSH2 0x1FA5 DUP4 PUSH2 0x1893 JUMP JUMPDEST SWAP3 POP DUP3 DUP3 ADD SWAP1 POP DUP1 DUP3 GT ISZERO PUSH2 0x1FBD JUMPI PUSH2 0x1FBC PUSH2 0x1CD5 JUMP JUMPDEST JUMPDEST SWAP3 SWAP2 POP POP JUMP JUMPDEST PUSH2 0x1FCC DUP2 PUSH2 0x1A40 JUMP JUMPDEST DUP3 MSTORE POP POP JUMP JUMPDEST PUSH0 PUSH1 0x60 DUP3 ADD SWAP1 POP PUSH2 0x1FE5 PUSH0 DUP4 ADD DUP7 PUSH2 0x1FC3 JUMP JUMPDEST PUSH2 0x1FF2 PUSH1 0x20 DUP4 ADD DUP6 PUSH2 0x192C JUMP JUMPDEST PUSH2 0x1FFF PUSH1 0x40 DUP4 ADD DUP5 PUSH2 0x192C JUMP JUMPDEST SWAP5 SWAP4 POP POP POP POP JUMP JUMPDEST PUSH32 0x4E487B7100000000000000000000000000000000000000000000000000000000 PUSH0 MSTORE PUSH1 0x31 PUSH1 0x4 MSTORE PUSH1 0x24 PUSH0 REVERT INVALID LOG2 PUSH5 0x6970667358 0x22 SLT KECCAK256 BASEFEE PC 0xB1 SWAP9 0xBE GASPRICE MUL PUSH17 0xA3B9D694EBA27901DD35149C94DA45067 SWAP4 0x1E PUSH12 0x5953065464736F6C63430008 NOT STOP CALLER "
				},
				"gasEstimates": {
					"creation": {
						"codeDepositCost": "1659600",
						"executionCost": "infinite",
						"totalCost": "infinite"
					},
					"external": {
						"buyRequest(address,uint256,uint256)": "infinite",
						"buyRequestants(address,uint256)": "infinite",
						"claimTokenOwnership()": "56472",
						"contractOwner()": "2615",
						"nextContractOwner()": "2596",
						"priceMismatchEthFees()": "2470",
						"priceMismatchTokenFees(address,uint256)": "infinite",
						"sellRequest(address,uint256,uint256)": "infinite",
						"sellRequestants(address,uint256)": "infinite",
						"transferContractOwnership(address)": "32982",
						"users(address)": "infinite"
					},
					"internal": {
						"addRequest(address,uint256,uint256,enum exchange.RequestTypes)": "infinite",
						"executeRequests(address,address,uint256,uint256,uint256)": "infinite",
						"matchRequests(address,uint256,uint256,enum exchange.RequestTypes)": "infinite",
						"priceCheck(struct exchange.UserRequest memory,uint256)": "infinite",
						"removeRequest(address,struct exchange.UserRequest storage pointer,uint256)": "infinite",
						"sendEther(address payable,uint256)": "infinite"
					}
				},
				"methodIdentifiers": {
					"buyRequest(address,uint256,uint256)": "a760e06a",
					"buyRequestants(address,uint256)": "1fb64da0",
					"claimTokenOwnership()": "10731a65",
					"contractOwner()": "ce606ee0",
					"nextContractOwner()": "c2eb05ba",
					"priceMismatchEthFees()": "28b02a8d",
					"priceMismatchTokenFees(address,uint256)": "4aaa2acb",
					"sellRequest(address,uint256,uint256)": "73b298e2",
					"sellRequestants(address,uint256)": "83588b99",
					"transferContractOwnership(address)": "a843c51f",
					"users(address)": "a87430ba"
				}
			},
			"storageLayout": {
				"storage": [
					{
						"astId": 57,
						"contract": "src/exchange.sol:exchange",
						"label": "contractOwner",
						"offset": 0,
						"slot": "0",
						"type": "t_address"
					},
					{
						"astId": 59,
						"contract": "src/exchange.sol:exchange",
						"label": "nextContractOwner",
						"offset": 0,
						"slot": "1",
						"type": "t_address"
					},
					{
						"astId": 64,
						"contract": "src/exchange.sol:exchange",
						"label": "users",
						"offset": 0,
						"slot": "2",
						"type": "t_mapping(t_address,t_struct(User)101_storage)"
					},
					{
						"astId": 69,
						"contract": "src/exchange.sol:exchange",
						"label": "sellRequestants",
						"offset": 0,
						"slot": "3",
						"type": "t_mapping(t_address,t_array(t_address)dyn_storage)"
					},
					{
						"astId": 74,
						"contract": "src/exchange.sol:exchange",
						"label": "buyRequestants",
						"offset": 0,
						"slot": "4",
						"type": "t_mapping(t_address,t_array(t_address)dyn_storage)"
					},
					{
						"astId": 79,
						"contract": "src/exchange.sol:exchange",
						"label": "priceMismatchTokenFees",
						"offset": 0,
						"slot": "5",
						"type": "t_mapping(t_address,t_array(t_uint256)dyn_storage)"
					},
					{
						"astId": 81,
						"contract": "src/exchange.sol:exchange",
						"label": "priceMismatchEthFees",
						"offset": 0,
						"slot": "6",
						"type": "t_uint256"
					}
				],
				"types": {
					"t_address": {
						"encoding": "inplace",
						"label": "address",
						"numberOfBytes": "20"
					},
					"t_array(t_address)dyn_storage": {
						"base": "t_address",
						"encoding": "dynamic_array",
						"label": "address[]",
						"numberOfBytes": "32"
					},
					"t_array(t_uint256)dyn_storage": {
						"base": "t_uint256",
						"encoding": "dynamic_array",
						"label": "uint256[]",
						"numberOfBytes": "32"
					},
					"t_enum(RequestTypes)85": {
						"encoding": "inplace",
						"label": "enum exchange.RequestTypes",
						"numberOfBytes": "1"
					},
					"t_mapping(t_address,t_array(t_address)dyn_storage)": {
						"encoding": "mapping",
						"key": "t_address",
						"label": "mapping(address => address[])",
						"numberOfBytes": "32",
						"value": "t_array(t_address)dyn_storage"
					},
					"t_mapping(t_address,t_array(t_uint256)dyn_storage)": {
						"encoding": "mapping",
						"key": "t_address",
						"label": "mapping(address => uint256[])",
						"numberOfBytes": "32",
						"value": "t_array(t_uint256)dyn_storage"
					},
					"t_mapping(t_address,t_struct(User)101_storage)": {
						"encoding": "mapping",
						"key": "t_address",
						"label": "mapping(address => struct exchange.User)",
						"numberOfBytes": "32",
						"value": "t_struct(User)101_storage"
					},
					"t_struct(User)101_storage": {
						"encoding": "inplace",
						"label": "struct exchange.User",
						"members": [
							{
								"astId": 100,
								"contract": "src/exchange.sol:exchange",
								"label": "Request",
								"offset": 0,
								"slot": "0",
								"type": "t_struct(UserRequest)97_storage"
							}
						],
						"numberOfBytes": "160"
					},
					"t_struct(UserRequest)97_storage": {
						"encoding": "inplace",
						"label": "struct exchange.UserRequest",
						"members": [
							{
								"astId": 87,
								"contract": "src/exchange.sol:exchange",
								"label": "tokenAddress",
								"offset": 0,
								"slot": "0",
								"type": "t_address"
							},
							{
								"astId": 89,
								"contract": "src/exchange.sol:exchange",
								"label": "amount",
								"offset": 0,
								"slot": "1",
								"type": "t_uint256"
							},
							{
								"astId": 91,
								"contract": "src/exchange.sol:exchange",
								"label": "coinPrice",
								"offset": 0,
								"slot": "2",
								"type": "t_uint256"
							},
							{
								"astId": 93,
								"contract": "src/exchange.sol:exchange",
								"label": "time",
								"offset": 0,
								"slot": "3",
								"type": "t_uint256"
							},
							{
								"astId": 96,
								"contract": "src/exchange.sol:exchange",
								"label": "Type",
								"offset": 0,
								"slot": "4",
								"type": "t_enum(RequestTypes)85"
							}
						],
						"numberOfBytes": "160"
					},
					"t_uint256": {
						"encoding": "inplace",
						"label": "uint256",
						"numberOfBytes": "32"
					}
				}
			},
			"userdoc": {
				"kind": "user",
				"methods": {},
				"version": 1
			}
		}
	}
}