{
	"src/ERC20.sol": {
		"ERC20": {
			"abi": [
				{
					"inputs": [
						{
							"internalType": "address",
							"name": "_owner",
							"type": "address"
						},
						{
							"internalType": "string",
							"name": "_name",
							"type": "string"
						},
						{
							"internalType": "string",
							"name": "_symbol",
							"type": "string"
						},
						{
							"internalType": "uint8",
							"name": "_decimals",
							"type": "uint8"
						},
						{
							"internalType": "uint256",
							"name": "_maxSupply",
							"type": "uint256"
						}
					],
					"stateMutability": "nonpayable",
					"type": "constructor"
				},
				{
					"anonymous": false,
					"inputs": [
						{
							"indexed": true,
							"internalType": "address",
							"name": "owner",
							"type": "address"
						},
						{
							"indexed": true,
							"internalType": "address",
							"name": "spender",
							"type": "address"
						},
						{
							"indexed": false,
							"internalType": "uint256",
							"name": "value",
							"type": "uint256"
						}
					],
					"name": "Approval",
					"type": "event"
				},
				{
					"anonymous": false,
					"inputs": [
						{
							"indexed": true,
							"internalType": "address",
							"name": "newTokenOwner",
							"type": "address"
						}
					],
					"name": "TokenOwnershipTransferFinished",
					"type": "event"
				},
				{
					"anonymous": false,
					"inputs": [
						{
							"indexed": true,
							"internalType": "address",
							"name": "from",
							"type": "address"
						},
						{
							"indexed": true,
							"internalType": "address",
							"name": "to",
							"type": "address"
						}
					],
					"name": "TokenOwnershipTransferStarted",
					"type": "event"
				},
				{
					"anonymous": false,
					"inputs": [
						{
							"indexed": true,
							"internalType": "address",
							"name": "from",
							"type": "address"
						},
						{
							"indexed": true,
							"internalType": "address",
							"name": "to",
							"type": "address"
						},
						{
							"indexed": false,
							"internalType": "uint256",
							"name": "value",
							"type": "uint256"
						}
					],
					"name": "Transfer",
					"type": "event"
				},
				{
					"inputs": [],
					"name": "ClaimTokenOwnership",
					"outputs": [
						{
							"internalType": "bool",
							"name": "",
							"type": "bool"
						}
					],
					"stateMutability": "nonpayable",
					"type": "function"
				},
				{
					"inputs": [
						{
							"internalType": "address",
							"name": "_nextTokenOwner",
							"type": "address"
						}
					],
					"name": "TransferTokenOwnership",
					"outputs": [
						{
							"internalType": "bool",
							"name": "",
							"type": "bool"
						}
					],
					"stateMutability": "nonpayable",
					"type": "function"
				},
				{
					"inputs": [
						{
							"internalType": "address",
							"name": "",
							"type": "address"
						},
						{
							"internalType": "address",
							"name": "",
							"type": "address"
						}
					],
					"name": "allowance",
					"outputs": [
						{
							"internalType": "uint256",
							"name": "",
							"type": "uint256"
						}
					],
					"stateMutability": "view",
					"type": "function"
				},
				{
					"inputs": [
						{
							"internalType": "address",
							"name": "spender",
							"type": "address"
						},
						{
							"internalType": "uint256",
							"name": "amount",
							"type": "uint256"
						}
					],
					"name": "approve",
					"outputs": [
						{
							"internalType": "bool",
							"name": "",
							"type": "bool"
						}
					],
					"stateMutability": "nonpayable",
					"type": "function"
				},
				{
					"inputs": [
						{
							"internalType": "address",
							"name": "",
							"type": "address"
						}
					],
					"name": "balanceOf",
					"outputs": [
						{
							"internalType": "uint256",
							"name": "",
							"type": "uint256"
						}
					],
					"stateMutability": "view",
					"type": "function"
				},
				{
					"inputs": [
						{
							"internalType": "address",
							"name": "from",
							"type": "address"
						},
						{
							"internalType": "uint256",
							"name": "amount",
							"type": "uint256"
						}
					],
					"name": "burn",
					"outputs": [],
					"stateMutability": "nonpayable",
					"type": "function"
				},
				{
					"inputs": [],
					"name": "decimals",
					"outputs": [
						{
							"internalType": "uint8",
							"name": "",
							"type": "uint8"
						}
					],
					"stateMutability": "view",
					"type": "function"
				},
				{
					"inputs": [],
					"name": "maxSupply",
					"outputs": [
						{
							"internalType": "uint256",
							"name": "",
							"type": "uint256"
						}
					],
					"stateMutability": "view",
					"type": "function"
				},
				{
					"inputs": [
						{
							"internalType": "address",
							"name": "to",
							"type": "address"
						},
						{
							"internalType": "uint256",
							"name": "amount",
							"type": "uint256"
						}
					],
					"name": "mint",
					"outputs": [],
					"stateMutability": "nonpayable",
					"type": "function"
				},
				{
					"inputs": [],
					"name": "name",
					"outputs": [
						{
							"internalType": "string",
							"name": "",
							"type": "string"
						}
					],
					"stateMutability": "view",
					"type": "function"
				},
				{
					"inputs": [],
					"name": "nextTokenOwner",
					"outputs": [
						{
							"internalType": "address",
							"name": "",
							"type": "address"
						}
					],
					"stateMutability": "view",
					"type": "function"
				},
				{
					"inputs": [],
					"name": "symbol",
					"outputs": [
						{
							"internalType": "string",
							"name": "",
							"type": "string"
						}
					],
					"stateMutability": "view",
					"type": "function"
				},
				{
					"inputs": [],
					"name": "tokenOwner",
					"outputs": [
						{
							"internalType": "address",
							"name": "",
							"type": "address"
						}
					],
					"stateMutability": "view",
					"type": "function"
				},
				{
					"inputs": [],
					"name": "totalSupply",
					"outputs": [
						{
							"internalType": "uint256",
							"name": "",
							"type": "uint256"
						}
					],
					"stateMutability": "view",
					"type": "function"
				},
				{
					"inputs": [
						{
							"internalType": "address",
							"name": "recipient",
							"type": "address"
						},
						{
							"internalType": "uint256",
							"name": "amount",
							"type": "uint256"
						}
					],
					"name": "transfer",
					"outputs": [
						{
							"internalType": "bool",
							"name": "",
							"type": "bool"
						}
					],
					"stateMutability": "nonpayable",
					"type": "function"
				},
				{
					"inputs": [
						{
							"internalType": "address",
							"name": "sender",
							"type": "address"
						},
						{
							"internalType": "address",
							"name": "recipient",
							"type": "address"
						},
						{
							"internalType": "uint256",
							"name": "amount",
							"type": "uint256"
						}
					],
					"name": "transferFrom",
					"outputs": [
						{
							"internalType": "bool",
							"name": "",
							"type": "bool"
						}
					],
					"stateMutability": "nonpayable",
					"type": "function"
				}
			],
			"devdoc": {
				"kind": "dev",
				"methods": {},
				"version": 1
			},
			"evm": {
				"assembly": "    /* \"src/ERC20.sol\":184:5462  contract ERC20 is IERC20{... */\n  mstore(0x40, 0x80)\n    /* \"src/ERC20.sol\":1672:1958  constructor(address _owner, string memory _name, string memory _symbol, uint8 _decimals, uint256 _maxSupply){... */\n  callvalue\n  dup1\n  iszero\n  tag_1\n  jumpi\n  0x00\n  dup1\n  revert\ntag_1:\n  pop\n  mload(0x40)\n  sub(codesize, bytecodeSize)\n  dup1\n  bytecodeSize\n  dup4\n  codecopy\n  dup2\n  dup2\n  add\n  0x40\n  mstore\n  dup2\n  add\n  swap1\n  tag_2\n  swap2\n  swap1\n  tag_3\n  jump\t// in\ntag_2:\n    /* \"src/ERC20.sol\":1804:1810  _owner */\n  dup5\n    /* \"src/ERC20.sol\":1791:1801  tokenOwner */\n  0x05\n  0x00\n    /* \"src/ERC20.sol\":1791:1810  tokenOwner = _owner */\n  0x0100\n  exp\n  dup2\n  sload\n  dup2\n  0xffffffffffffffffffffffffffffffffffffffff\n  mul\n  not\n  and\n  swap1\n  dup4\n  0xffffffffffffffffffffffffffffffffffffffff\n  and\n  mul\n  or\n  swap1\n  sstore\n  pop\n    /* \"src/ERC20.sol\":1828:1833  _name */\n  dup4\n    /* \"src/ERC20.sol\":1821:1825  name */\n  0x00\n    /* \"src/ERC20.sol\":1821:1833  name = _name */\n  swap1\n  dup2\n  tag_6\n  swap2\n  swap1\n  tag_7\n  jump\t// in\ntag_6:\n  pop\n    /* \"src/ERC20.sol\":1853:1860  _symbol */\n  dup3\n    /* \"src/ERC20.sol\":1844:1850  symbol */\n  0x01\n    /* \"src/ERC20.sol\":1844:1860  symbol = _symbol */\n  swap1\n  dup2\n  tag_8\n  swap2\n  swap1\n  tag_7\n  jump\t// in\ntag_8:\n  pop\n    /* \"src/ERC20.sol\":1882:1891  _decimals */\n  dup2\n    /* \"src/ERC20.sol\":1871:1879  decimals */\n  0x02\n  0x00\n    /* \"src/ERC20.sol\":1871:1891  decimals = _decimals */\n  0x0100\n  exp\n  dup2\n  sload\n  dup2\n  0xff\n  mul\n  not\n  and\n  swap1\n  dup4\n  0xff\n  and\n  mul\n  or\n  swap1\n  sstore\n  pop\n    /* \"src/ERC20.sol\":1914:1924  _maxSupply */\n  dup1\n    /* \"src/ERC20.sol\":1902:1911  maxSupply */\n  0x04\n    /* \"src/ERC20.sol\":1902:1924  maxSupply = _maxSupply */\n  dup2\n  swap1\n  sstore\n  pop\n    /* \"src/ERC20.sol\":1949:1950  0 */\n  0x00\n    /* \"src/ERC20.sol\":1935:1946  totalSupply */\n  0x03\n    /* \"src/ERC20.sol\":1935:1950  totalSupply = 0 */\n  dup2\n  swap1\n  sstore\n  pop\n    /* \"src/ERC20.sol\":1672:1958  constructor(address _owner, string memory _name, string memory _symbol, uint8 _decimals, uint256 _maxSupply){... */\n  pop\n  pop\n  pop\n  pop\n  pop\n    /* \"src/ERC20.sol\":184:5462  contract ERC20 is IERC20{... */\n  jump(tag_9)\n    /* \"#utility.yul\":7:82   */\ntag_10:\n    /* \"#utility.yul\":40:46   */\n  0x00\n    /* \"#utility.yul\":73:75   */\n  0x40\n    /* \"#utility.yul\":67:76   */\n  mload\n    /* \"#utility.yul\":57:76   */\n  swap1\n  pop\n    /* \"#utility.yul\":7:82   */\n  swap1\n  jump\t// out\n    /* \"#utility.yul\":88:205   */\ntag_11:\n    /* \"#utility.yul\":197:198   */\n  0x00\n    /* \"#utility.yul\":194:195   */\n  dup1\n    /* \"#utility.yul\":187:199   */\n  revert\n    /* \"#utility.yul\":211:328   */\ntag_12:\n    /* \"#utility.yul\":320:321   */\n  0x00\n    /* \"#utility.yul\":317:318   */\n  dup1\n    /* \"#utility.yul\":310:322   */\n  revert\n    /* \"#utility.yul\":334:460   */\ntag_13:\n    /* \"#utility.yul\":371:378   */\n  0x00\n    /* \"#utility.yul\":411:453   */\n  0xffffffffffffffffffffffffffffffffffffffff\n    /* \"#utility.yul\":404:409   */\n  dup3\n    /* \"#utility.yul\":400:454   */\n  and\n    /* \"#utility.yul\":389:454   */\n  swap1\n  pop\n    /* \"#utility.yul\":334:460   */\n  swap2\n  swap1\n  pop\n  jump\t// out\n    /* \"#utility.yul\":466:562   */\ntag_14:\n    /* \"#utility.yul\":503:510   */\n  0x00\n    /* \"#utility.yul\":532:556   */\n  tag_57\n    /* \"#utility.yul\":550:555   */\n  dup3\n    /* \"#utility.yul\":532:556   */\n  tag_13\n  jump\t// in\ntag_57:\n    /* \"#utility.yul\":521:556   */\n  swap1\n  pop\n    /* \"#utility.yul\":466:562   */\n  swap2\n  swap1\n  pop\n  jump\t// out\n    /* \"#utility.yul\":568:690   */\ntag_15:\n    /* \"#utility.yul\":641:665   */\n  tag_59\n    /* \"#utility.yul\":659:664   */\n  dup2\n    /* \"#utility.yul\":641:665   */\n  tag_14\n  jump\t// in\ntag_59:\n    /* \"#utility.yul\":634:639   */\n  dup2\n    /* \"#utility.yul\":631:666   */\n  eq\n    /* \"#utility.yul\":621:684   */\n  tag_60\n  jumpi\n    /* \"#utility.yul\":680:681   */\n  0x00\n    /* \"#utility.yul\":677:678   */\n  dup1\n    /* \"#utility.yul\":670:682   */\n  revert\n    /* \"#utility.yul\":621:684   */\ntag_60:\n    /* \"#utility.yul\":568:690   */\n  pop\n  jump\t// out\n    /* \"#utility.yul\":696:839   */\ntag_16:\n    /* \"#utility.yul\":753:758   */\n  0x00\n    /* \"#utility.yul\":784:790   */\n  dup2\n    /* \"#utility.yul\":778:791   */\n  mload\n    /* \"#utility.yul\":769:791   */\n  swap1\n  pop\n    /* \"#utility.yul\":800:833   */\n  tag_62\n    /* \"#utility.yul\":827:832   */\n  dup2\n    /* \"#utility.yul\":800:833   */\n  tag_15\n  jump\t// in\ntag_62:\n    /* \"#utility.yul\":696:839   */\n  swap3\n  swap2\n  pop\n  pop\n  jump\t// out\n    /* \"#utility.yul\":845:962   */\ntag_17:\n    /* \"#utility.yul\":954:955   */\n  0x00\n    /* \"#utility.yul\":951:952   */\n  dup1\n    /* \"#utility.yul\":944:956   */\n  revert\n    /* \"#utility.yul\":968:1085   */\ntag_18:\n    /* \"#utility.yul\":1077:1078   */\n  0x00\n    /* \"#utility.yul\":1074:1075   */\n  dup1\n    /* \"#utility.yul\":1067:1079   */\n  revert\n    /* \"#utility.yul\":1091:1193   */\ntag_19:\n    /* \"#utility.yul\":1132:1138   */\n  0x00\n    /* \"#utility.yul\":1183:1185   */\n  0x1f\n    /* \"#utility.yul\":1179:1186   */\n  not\n    /* \"#utility.yul\":1174:1176   */\n  0x1f\n    /* \"#utility.yul\":1167:1172   */\n  dup4\n    /* \"#utility.yul\":1163:1177   */\n  add\n    /* \"#utility.yul\":1159:1187   */\n  and\n    /* \"#utility.yul\":1149:1187   */\n  swap1\n  pop\n    /* \"#utility.yul\":1091:1193   */\n  swap2\n  swap1\n  pop\n  jump\t// out\n    /* \"#utility.yul\":1199:1379   */\ntag_20:\n    /* \"#utility.yul\":1247:1324   */\n  0x4e487b7100000000000000000000000000000000000000000000000000000000\n    /* \"#utility.yul\":1244:1245   */\n  0x00\n    /* \"#utility.yul\":1237:1325   */\n  mstore\n    /* \"#utility.yul\":1344:1348   */\n  0x41\n    /* \"#utility.yul\":1341:1342   */\n  0x04\n    /* \"#utility.yul\":1334:1349   */\n  mstore\n    /* \"#utility.yul\":1368:1372   */\n  0x24\n    /* \"#utility.yul\":1365:1366   */\n  0x00\n    /* \"#utility.yul\":1358:1373   */\n  revert\n    /* \"#utility.yul\":1385:1666   */\ntag_21:\n    /* \"#utility.yul\":1468:1495   */\n  tag_68\n    /* \"#utility.yul\":1490:1494   */\n  dup3\n    /* \"#utility.yul\":1468:1495   */\n  tag_19\n  jump\t// in\ntag_68:\n    /* \"#utility.yul\":1460:1466   */\n  dup2\n    /* \"#utility.yul\":1456:1496   */\n  add\n    /* \"#utility.yul\":1598:1604   */\n  dup2\n    /* \"#utility.yul\":1586:1596   */\n  dup2\n    /* \"#utility.yul\":1583:1605   */\n  lt\n    /* \"#utility.yul\":1562:1580   */\n  0xffffffffffffffff\n    /* \"#utility.yul\":1550:1560   */\n  dup3\n    /* \"#utility.yul\":1547:1581   */\n  gt\n    /* \"#utility.yul\":1544:1606   */\n  or\n    /* \"#utility.yul\":1541:1629   */\n  iszero\n  tag_69\n  jumpi\n    /* \"#utility.yul\":1609:1627   */\n  tag_70\n  tag_20\n  jump\t// in\ntag_70:\n    /* \"#utility.yul\":1541:1629   */\ntag_69:\n    /* \"#utility.yul\":1649:1659   */\n  dup1\n    /* \"#utility.yul\":1645:1647   */\n  0x40\n    /* \"#utility.yul\":1638:1660   */\n  mstore\n    /* \"#utility.yul\":1428:1666   */\n  pop\n    /* \"#utility.yul\":1385:1666   */\n  pop\n  pop\n  jump\t// out\n    /* \"#utility.yul\":1672:1801   */\ntag_22:\n    /* \"#utility.yul\":1706:1712   */\n  0x00\n    /* \"#utility.yul\":1733:1753   */\n  tag_72\n  tag_10\n  jump\t// in\ntag_72:\n    /* \"#utility.yul\":1723:1753   */\n  swap1\n  pop\n    /* \"#utility.yul\":1762:1795   */\n  tag_73\n    /* \"#utility.yul\":1790:1794   */\n  dup3\n    /* \"#utility.yul\":1782:1788   */\n  dup3\n    /* \"#utility.yul\":1762:1795   */\n  tag_21\n  jump\t// in\ntag_73:\n    /* \"#utility.yul\":1672:1801   */\n  swap2\n  swap1\n  pop\n  jump\t// out\n    /* \"#utility.yul\":1807:2115   */\ntag_23:\n    /* \"#utility.yul\":1869:1873   */\n  0x00\n    /* \"#utility.yul\":1959:1977   */\n  0xffffffffffffffff\n    /* \"#utility.yul\":1951:1957   */\n  dup3\n    /* \"#utility.yul\":1948:1978   */\n  gt\n    /* \"#utility.yul\":1945:2001   */\n  iszero\n  tag_75\n  jumpi\n    /* \"#utility.yul\":1981:1999   */\n  tag_76\n  tag_20\n  jump\t// in\ntag_76:\n    /* \"#utility.yul\":1945:2001   */\ntag_75:\n    /* \"#utility.yul\":2019:2048   */\n  tag_77\n    /* \"#utility.yul\":2041:2047   */\n  dup3\n    /* \"#utility.yul\":2019:2048   */\n  tag_19\n  jump\t// in\ntag_77:\n    /* \"#utility.yul\":2011:2048   */\n  swap1\n  pop\n    /* \"#utility.yul\":2103:2107   */\n  0x20\n    /* \"#utility.yul\":2097:2101   */\n  dup2\n    /* \"#utility.yul\":2093:2108   */\n  add\n    /* \"#utility.yul\":2085:2108   */\n  swap1\n  pop\n    /* \"#utility.yul\":1807:2115   */\n  swap2\n  swap1\n  pop\n  jump\t// out\n    /* \"#utility.yul\":2121:2260   */\ntag_24:\n    /* \"#utility.yul\":2210:2216   */\n  dup3\n    /* \"#utility.yul\":2205:2208   */\n  dup2\n    /* \"#utility.yul\":2200:2203   */\n  dup4\n    /* \"#utility.yul\":2194:2217   */\n  mcopy\n    /* \"#utility.yul\":2251:2252   */\n  0x00\n    /* \"#utility.yul\":2242:2248   */\n  dup4\n    /* \"#utility.yul\":2237:2240   */\n  dup4\n    /* \"#utility.yul\":2233:2249   */\n  add\n    /* \"#utility.yul\":2226:2253   */\n  mstore\n    /* \"#utility.yul\":2121:2260   */\n  pop\n  pop\n  pop\n  jump\t// out\n    /* \"#utility.yul\":2266:2700   */\ntag_25:\n    /* \"#utility.yul\":2355:2360   */\n  0x00\n    /* \"#utility.yul\":2380:2446   */\n  tag_80\n    /* \"#utility.yul\":2396:2445   */\n  tag_81\n    /* \"#utility.yul\":2438:2444   */\n  dup5\n    /* \"#utility.yul\":2396:2445   */\n  tag_23\n  jump\t// in\ntag_81:\n    /* \"#utility.yul\":2380:2446   */\n  tag_22\n  jump\t// in\ntag_80:\n    /* \"#utility.yul\":2371:2446   */\n  swap1\n  pop\n    /* \"#utility.yul\":2469:2475   */\n  dup3\n    /* \"#utility.yul\":2462:2467   */\n  dup2\n    /* \"#utility.yul\":2455:2476   */\n  mstore\n    /* \"#utility.yul\":2507:2511   */\n  0x20\n    /* \"#utility.yul\":2500:2505   */\n  dup2\n    /* \"#utility.yul\":2496:2512   */\n  add\n    /* \"#utility.yul\":2545:2548   */\n  dup5\n    /* \"#utility.yul\":2536:2542   */\n  dup5\n    /* \"#utility.yul\":2531:2534   */\n  dup5\n    /* \"#utility.yul\":2527:2543   */\n  add\n    /* \"#utility.yul\":2524:2549   */\n  gt\n    /* \"#utility.yul\":2521:2633   */\n  iszero\n  tag_82\n  jumpi\n    /* \"#utility.yul\":2552:2631   */\n  tag_83\n  tag_18\n  jump\t// in\ntag_83:\n    /* \"#utility.yul\":2521:2633   */\ntag_82:\n    /* \"#utility.yul\":2642:2694   */\n  tag_84\n    /* \"#utility.yul\":2687:2693   */\n  dup5\n    /* \"#utility.yul\":2682:2685   */\n  dup3\n    /* \"#utility.yul\":2677:2680   */\n  dup6\n    /* \"#utility.yul\":2642:2694   */\n  tag_24\n  jump\t// in\ntag_84:\n    /* \"#utility.yul\":2361:2700   */\n  pop\n    /* \"#utility.yul\":2266:2700   */\n  swap4\n  swap3\n  pop\n  pop\n  pop\n  jump\t// out\n    /* \"#utility.yul\":2720:3075   */\ntag_26:\n    /* \"#utility.yul\":2787:2792   */\n  0x00\n    /* \"#utility.yul\":2836:2839   */\n  dup3\n    /* \"#utility.yul\":2829:2833   */\n  0x1f\n    /* \"#utility.yul\":2821:2827   */\n  dup4\n    /* \"#utility.yul\":2817:2834   */\n  add\n    /* \"#utility.yul\":2813:2840   */\n  slt\n    /* \"#utility.yul\":2803:2925   */\n  tag_86\n  jumpi\n    /* \"#utility.yul\":2844:2923   */\n  tag_87\n  tag_17\n  jump\t// in\ntag_87:\n    /* \"#utility.yul\":2803:2925   */\ntag_86:\n    /* \"#utility.yul\":2954:2960   */\n  dup2\n    /* \"#utility.yul\":2948:2961   */\n  mload\n    /* \"#utility.yul\":2979:3069   */\n  tag_88\n    /* \"#utility.yul\":3065:3068   */\n  dup5\n    /* \"#utility.yul\":3057:3063   */\n  dup3\n    /* \"#utility.yul\":3050:3054   */\n  0x20\n    /* \"#utility.yul\":3042:3048   */\n  dup7\n    /* \"#utility.yul\":3038:3055   */\n  add\n    /* \"#utility.yul\":2979:3069   */\n  tag_25\n  jump\t// in\ntag_88:\n    /* \"#utility.yul\":2970:3069   */\n  swap2\n  pop\n    /* \"#utility.yul\":2793:3075   */\n  pop\n    /* \"#utility.yul\":2720:3075   */\n  swap3\n  swap2\n  pop\n  pop\n  jump\t// out\n    /* \"#utility.yul\":3081:3167   */\ntag_27:\n    /* \"#utility.yul\":3116:3123   */\n  0x00\n    /* \"#utility.yul\":3156:3160   */\n  0xff\n    /* \"#utility.yul\":3149:3154   */\n  dup3\n    /* \"#utility.yul\":3145:3161   */\n  and\n    /* \"#utility.yul\":3134:3161   */\n  swap1\n  pop\n    /* \"#utility.yul\":3081:3167   */\n  swap2\n  swap1\n  pop\n  jump\t// out\n    /* \"#utility.yul\":3173:3291   */\ntag_28:\n    /* \"#utility.yul\":3244:3266   */\n  tag_91\n    /* \"#utility.yul\":3260:3265   */\n  dup2\n    /* \"#utility.yul\":3244:3266   */\n  tag_27\n  jump\t// in\ntag_91:\n    /* \"#utility.yul\":3237:3242   */\n  dup2\n    /* \"#utility.yul\":3234:3267   */\n  eq\n    /* \"#utility.yul\":3224:3285   */\n  tag_92\n  jumpi\n    /* \"#utility.yul\":3281:3282   */\n  0x00\n    /* \"#utility.yul\":3278:3279   */\n  dup1\n    /* \"#utility.yul\":3271:3283   */\n  revert\n    /* \"#utility.yul\":3224:3285   */\ntag_92:\n    /* \"#utility.yul\":3173:3291   */\n  pop\n  jump\t// out\n    /* \"#utility.yul\":3297:3436   */\ntag_29:\n    /* \"#utility.yul\":3352:3357   */\n  0x00\n    /* \"#utility.yul\":3383:3389   */\n  dup2\n    /* \"#utility.yul\":3377:3390   */\n  mload\n    /* \"#utility.yul\":3368:3390   */\n  swap1\n  pop\n    /* \"#utility.yul\":3399:3430   */\n  tag_94\n    /* \"#utility.yul\":3424:3429   */\n  dup2\n    /* \"#utility.yul\":3399:3430   */\n  tag_28\n  jump\t// in\ntag_94:\n    /* \"#utility.yul\":3297:3436   */\n  swap3\n  swap2\n  pop\n  pop\n  jump\t// out\n    /* \"#utility.yul\":3442:3519   */\ntag_30:\n    /* \"#utility.yul\":3479:3486   */\n  0x00\n    /* \"#utility.yul\":3508:3513   */\n  dup2\n    /* \"#utility.yul\":3497:3513   */\n  swap1\n  pop\n    /* \"#utility.yul\":3442:3519   */\n  swap2\n  swap1\n  pop\n  jump\t// out\n    /* \"#utility.yul\":3525:3647   */\ntag_31:\n    /* \"#utility.yul\":3598:3622   */\n  tag_97\n    /* \"#utility.yul\":3616:3621   */\n  dup2\n    /* \"#utility.yul\":3598:3622   */\n  tag_30\n  jump\t// in\ntag_97:\n    /* \"#utility.yul\":3591:3596   */\n  dup2\n    /* \"#utility.yul\":3588:3623   */\n  eq\n    /* \"#utility.yul\":3578:3641   */\n  tag_98\n  jumpi\n    /* \"#utility.yul\":3637:3638   */\n  0x00\n    /* \"#utility.yul\":3634:3635   */\n  dup1\n    /* \"#utility.yul\":3627:3639   */\n  revert\n    /* \"#utility.yul\":3578:3641   */\ntag_98:\n    /* \"#utility.yul\":3525:3647   */\n  pop\n  jump\t// out\n    /* \"#utility.yul\":3653:3796   */\ntag_32:\n    /* \"#utility.yul\":3710:3715   */\n  0x00\n    /* \"#utility.yul\":3741:3747   */\n  dup2\n    /* \"#utility.yul\":3735:3748   */\n  mload\n    /* \"#utility.yul\":3726:3748   */\n  swap1\n  pop\n    /* \"#utility.yul\":3757:3790   */\n  tag_100\n    /* \"#utility.yul\":3784:3789   */\n  dup2\n    /* \"#utility.yul\":3757:3790   */\n  tag_31\n  jump\t// in\ntag_100:\n    /* \"#utility.yul\":3653:3796   */\n  swap3\n  swap2\n  pop\n  pop\n  jump\t// out\n    /* \"#utility.yul\":3802:5121   */\ntag_3:\n    /* \"#utility.yul\":3926:3932   */\n  0x00\n    /* \"#utility.yul\":3934:3940   */\n  dup1\n    /* \"#utility.yul\":3942:3948   */\n  0x00\n    /* \"#utility.yul\":3950:3956   */\n  dup1\n    /* \"#utility.yul\":3958:3964   */\n  0x00\n    /* \"#utility.yul\":4007:4010   */\n  0xa0\n    /* \"#utility.yul\":3995:4004   */\n  dup7\n    /* \"#utility.yul\":3986:3993   */\n  dup9\n    /* \"#utility.yul\":3982:4005   */\n  sub\n    /* \"#utility.yul\":3978:4011   */\n  slt\n    /* \"#utility.yul\":3975:4095   */\n  iszero\n  tag_102\n  jumpi\n    /* \"#utility.yul\":4014:4093   */\n  tag_103\n  tag_11\n  jump\t// in\ntag_103:\n    /* \"#utility.yul\":3975:4095   */\ntag_102:\n    /* \"#utility.yul\":4134:4135   */\n  0x00\n    /* \"#utility.yul\":4159:4223   */\n  tag_104\n    /* \"#utility.yul\":4215:4222   */\n  dup9\n    /* \"#utility.yul\":4206:4212   */\n  dup3\n    /* \"#utility.yul\":4195:4204   */\n  dup10\n    /* \"#utility.yul\":4191:4213   */\n  add\n    /* \"#utility.yul\":4159:4223   */\n  tag_16\n  jump\t// in\ntag_104:\n    /* \"#utility.yul\":4149:4223   */\n  swap6\n  pop\n    /* \"#utility.yul\":4105:4233   */\n  pop\n    /* \"#utility.yul\":4293:4295   */\n  0x20\n    /* \"#utility.yul\":4282:4291   */\n  dup7\n    /* \"#utility.yul\":4278:4296   */\n  add\n    /* \"#utility.yul\":4272:4297   */\n  mload\n    /* \"#utility.yul\":4324:4342   */\n  0xffffffffffffffff\n    /* \"#utility.yul\":4316:4322   */\n  dup2\n    /* \"#utility.yul\":4313:4343   */\n  gt\n    /* \"#utility.yul\":4310:4427   */\n  iszero\n  tag_105\n  jumpi\n    /* \"#utility.yul\":4346:4425   */\n  tag_106\n  tag_12\n  jump\t// in\ntag_106:\n    /* \"#utility.yul\":4310:4427   */\ntag_105:\n    /* \"#utility.yul\":4451:4525   */\n  tag_107\n    /* \"#utility.yul\":4517:4524   */\n  dup9\n    /* \"#utility.yul\":4508:4514   */\n  dup3\n    /* \"#utility.yul\":4497:4506   */\n  dup10\n    /* \"#utility.yul\":4493:4515   */\n  add\n    /* \"#utility.yul\":4451:4525   */\n  tag_26\n  jump\t// in\ntag_107:\n    /* \"#utility.yul\":4441:4525   */\n  swap5\n  pop\n    /* \"#utility.yul\":4243:4535   */\n  pop\n    /* \"#utility.yul\":4595:4597   */\n  0x40\n    /* \"#utility.yul\":4584:4593   */\n  dup7\n    /* \"#utility.yul\":4580:4598   */\n  add\n    /* \"#utility.yul\":4574:4599   */\n  mload\n    /* \"#utility.yul\":4626:4644   */\n  0xffffffffffffffff\n    /* \"#utility.yul\":4618:4624   */\n  dup2\n    /* \"#utility.yul\":4615:4645   */\n  gt\n    /* \"#utility.yul\":4612:4729   */\n  iszero\n  tag_108\n  jumpi\n    /* \"#utility.yul\":4648:4727   */\n  tag_109\n  tag_12\n  jump\t// in\ntag_109:\n    /* \"#utility.yul\":4612:4729   */\ntag_108:\n    /* \"#utility.yul\":4753:4827   */\n  tag_110\n    /* \"#utility.yul\":4819:4826   */\n  dup9\n    /* \"#utility.yul\":4810:4816   */\n  dup3\n    /* \"#utility.yul\":4799:4808   */\n  dup10\n    /* \"#utility.yul\":4795:4817   */\n  add\n    /* \"#utility.yul\":4753:4827   */\n  tag_26\n  jump\t// in\ntag_110:\n    /* \"#utility.yul\":4743:4827   */\n  swap4\n  pop\n    /* \"#utility.yul\":4545:4837   */\n  pop\n    /* \"#utility.yul\":4876:4878   */\n  0x60\n    /* \"#utility.yul\":4902:4964   */\n  tag_111\n    /* \"#utility.yul\":4956:4963   */\n  dup9\n    /* \"#utility.yul\":4947:4953   */\n  dup3\n    /* \"#utility.yul\":4936:4945   */\n  dup10\n    /* \"#utility.yul\":4932:4954   */\n  add\n    /* \"#utility.yul\":4902:4964   */\n  tag_29\n  jump\t// in\ntag_111:\n    /* \"#utility.yul\":4892:4964   */\n  swap3\n  pop\n    /* \"#utility.yul\":4847:4974   */\n  pop\n    /* \"#utility.yul\":5013:5016   */\n  0x80\n    /* \"#utility.yul\":5040:5104   */\n  tag_112\n    /* \"#utility.yul\":5096:5103   */\n  dup9\n    /* \"#utility.yul\":5087:5093   */\n  dup3\n    /* \"#utility.yul\":5076:5085   */\n  dup10\n    /* \"#utility.yul\":5072:5094   */\n  add\n    /* \"#utility.yul\":5040:5104   */\n  tag_32\n  jump\t// in\ntag_112:\n    /* \"#utility.yul\":5030:5104   */\n  swap2\n  pop\n    /* \"#utility.yul\":4984:5114   */\n  pop\n    /* \"#utility.yul\":3802:5121   */\n  swap3\n  swap6\n  pop\n  swap3\n  swap6\n  swap1\n  swap4\n  pop\n  jump\t// out\n    /* \"#utility.yul\":5127:5226   */\ntag_33:\n    /* \"#utility.yul\":5179:5185   */\n  0x00\n    /* \"#utility.yul\":5213:5218   */\n  dup2\n    /* \"#utility.yul\":5207:5219   */\n  mload\n    /* \"#utility.yul\":5197:5219   */\n  swap1\n  pop\n    /* \"#utility.yul\":5127:5226   */\n  swap2\n  swap1\n  pop\n  jump\t// out\n    /* \"#utility.yul\":5232:5412   */\ntag_34:\n    /* \"#utility.yul\":5280:5357   */\n  0x4e487b7100000000000000000000000000000000000000000000000000000000\n    /* \"#utility.yul\":5277:5278   */\n  0x00\n    /* \"#utility.yul\":5270:5358   */\n  mstore\n    /* \"#utility.yul\":5377:5381   */\n  0x22\n    /* \"#utility.yul\":5374:5375   */\n  0x04\n    /* \"#utility.yul\":5367:5382   */\n  mstore\n    /* \"#utility.yul\":5401:5405   */\n  0x24\n    /* \"#utility.yul\":5398:5399   */\n  0x00\n    /* \"#utility.yul\":5391:5406   */\n  revert\n    /* \"#utility.yul\":5418:5738   */\ntag_35:\n    /* \"#utility.yul\":5462:5468   */\n  0x00\n    /* \"#utility.yul\":5499:5500   */\n  0x02\n    /* \"#utility.yul\":5493:5497   */\n  dup3\n    /* \"#utility.yul\":5489:5501   */\n  div\n    /* \"#utility.yul\":5479:5501   */\n  swap1\n  pop\n    /* \"#utility.yul\":5546:5547   */\n  0x01\n    /* \"#utility.yul\":5540:5544   */\n  dup3\n    /* \"#utility.yul\":5536:5548   */\n  and\n    /* \"#utility.yul\":5567:5585   */\n  dup1\n    /* \"#utility.yul\":5557:5638   */\n  tag_116\n  jumpi\n    /* \"#utility.yul\":5623:5627   */\n  0x7f\n    /* \"#utility.yul\":5615:5621   */\n  dup3\n    /* \"#utility.yul\":5611:5628   */\n  and\n    /* \"#utility.yul\":5601:5628   */\n  swap2\n  pop\n    /* \"#utility.yul\":5557:5638   */\ntag_116:\n    /* \"#utility.yul\":5685:5687   */\n  0x20\n    /* \"#utility.yul\":5677:5683   */\n  dup3\n    /* \"#utility.yul\":5674:5688   */\n  lt\n    /* \"#utility.yul\":5654:5672   */\n  dup2\n    /* \"#utility.yul\":5651:5689   */\n  sub\n    /* \"#utility.yul\":5648:5732   */\n  tag_117\n  jumpi\n    /* \"#utility.yul\":5704:5722   */\n  tag_118\n  tag_34\n  jump\t// in\ntag_118:\n    /* \"#utility.yul\":5648:5732   */\ntag_117:\n    /* \"#utility.yul\":5469:5738   */\n  pop\n    /* \"#utility.yul\":5418:5738   */\n  swap2\n  swap1\n  pop\n  jump\t// out\n    /* \"#utility.yul\":5744:5885   */\ntag_36:\n    /* \"#utility.yul\":5793:5797   */\n  0x00\n    /* \"#utility.yul\":5816:5819   */\n  dup2\n    /* \"#utility.yul\":5808:5819   */\n  swap1\n  pop\n    /* \"#utility.yul\":5839:5842   */\n  dup2\n    /* \"#utility.yul\":5836:5837   */\n  0x00\n    /* \"#utility.yul\":5829:5843   */\n  mstore\n    /* \"#utility.yul\":5873:5877   */\n  0x20\n    /* \"#utility.yul\":5870:5871   */\n  0x00\n    /* \"#utility.yul\":5860:5878   */\n  keccak256\n    /* \"#utility.yul\":5852:5878   */\n  swap1\n  pop\n    /* \"#utility.yul\":5744:5885   */\n  swap2\n  swap1\n  pop\n  jump\t// out\n    /* \"#utility.yul\":5891:5984   */\ntag_37:\n    /* \"#utility.yul\":5928:5934   */\n  0x00\n    /* \"#utility.yul\":5975:5977   */\n  0x20\n    /* \"#utility.yul\":5970:5972   */\n  0x1f\n    /* \"#utility.yul\":5963:5968   */\n  dup4\n    /* \"#utility.yul\":5959:5973   */\n  add\n    /* \"#utility.yul\":5955:5978   */\n  div\n    /* \"#utility.yul\":5945:5978   */\n  swap1\n  pop\n    /* \"#utility.yul\":5891:5984   */\n  swap2\n  swap1\n  pop\n  jump\t// out\n    /* \"#utility.yul\":5990:6097   */\ntag_38:\n    /* \"#utility.yul\":6034:6042   */\n  0x00\n    /* \"#utility.yul\":6084:6089   */\n  dup3\n    /* \"#utility.yul\":6078:6082   */\n  dup3\n    /* \"#utility.yul\":6074:6090   */\n  shl\n    /* \"#utility.yul\":6053:6090   */\n  swap1\n  pop\n    /* \"#utility.yul\":5990:6097   */\n  swap3\n  swap2\n  pop\n  pop\n  jump\t// out\n    /* \"#utility.yul\":6103:6496   */\ntag_39:\n    /* \"#utility.yul\":6172:6178   */\n  0x00\n    /* \"#utility.yul\":6222:6223   */\n  0x08\n    /* \"#utility.yul\":6210:6220   */\n  dup4\n    /* \"#utility.yul\":6206:6224   */\n  mul\n    /* \"#utility.yul\":6245:6342   */\n  tag_123\n    /* \"#utility.yul\":6275:6341   */\n  0xffffffffffffffffffffffffffffffffffffffffffffffffffffffffffffffff\n    /* \"#utility.yul\":6264:6273   */\n  dup3\n    /* \"#utility.yul\":6245:6342   */\n  tag_38\n  jump\t// in\ntag_123:\n    /* \"#utility.yul\":6363:6402   */\n  tag_124\n    /* \"#utility.yul\":6393:6401   */\n  dup7\n    /* \"#utility.yul\":6382:6391   */\n  dup4\n    /* \"#utility.yul\":6363:6402   */\n  tag_38\n  jump\t// in\ntag_124:\n    /* \"#utility.yul\":6351:6402   */\n  swap6\n  pop\n    /* \"#utility.yul\":6435:6439   */\n  dup1\n    /* \"#utility.yul\":6431:6440   */\n  not\n    /* \"#utility.yul\":6424:6429   */\n  dup5\n    /* \"#utility.yul\":6420:6441   */\n  and\n    /* \"#utility.yul\":6411:6441   */\n  swap4\n  pop\n    /* \"#utility.yul\":6484:6488   */\n  dup1\n    /* \"#utility.yul\":6474:6482   */\n  dup7\n    /* \"#utility.yul\":6470:6489   */\n  and\n    /* \"#utility.yul\":6463:6468   */\n  dup5\n    /* \"#utility.yul\":6460:6490   */\n  or\n    /* \"#utility.yul\":6450:6490   */\n  swap3\n  pop\n    /* \"#utility.yul\":6179:6496   */\n  pop\n  pop\n    /* \"#utility.yul\":6103:6496   */\n  swap4\n  swap3\n  pop\n  pop\n  pop\n  jump\t// out\n    /* \"#utility.yul\":6502:6562   */\ntag_40:\n    /* \"#utility.yul\":6530:6533   */\n  0x00\n    /* \"#utility.yul\":6551:6556   */\n  dup2\n    /* \"#utility.yul\":6544:6556   */\n  swap1\n  pop\n    /* \"#utility.yul\":6502:6562   */\n  swap2\n  swap1\n  pop\n  jump\t// out\n    /* \"#utility.yul\":6568:6710   */\ntag_41:\n    /* \"#utility.yul\":6618:6627   */\n  0x00\n    /* \"#utility.yul\":6651:6704   */\n  tag_127\n    /* \"#utility.yul\":6669:6703   */\n  tag_128\n    /* \"#utility.yul\":6678:6702   */\n  tag_129\n    /* \"#utility.yul\":6696:6701   */\n  dup5\n    /* \"#utility.yul\":6678:6702   */\n  tag_30\n  jump\t// in\ntag_129:\n    /* \"#utility.yul\":6669:6703   */\n  tag_40\n  jump\t// in\ntag_128:\n    /* \"#utility.yul\":6651:6704   */\n  tag_30\n  jump\t// in\ntag_127:\n    /* \"#utility.yul\":6638:6704   */\n  swap1\n  pop\n    /* \"#utility.yul\":6568:6710   */\n  swap2\n  swap1\n  pop\n  jump\t// out\n    /* \"#utility.yul\":6716:6791   */\ntag_42:\n    /* \"#utility.yul\":6759:6762   */\n  0x00\n    /* \"#utility.yul\":6780:6785   */\n  dup2\n    /* \"#utility.yul\":6773:6785   */\n  swap1\n  pop\n    /* \"#utility.yul\":6716:6791   */\n  swap2\n  swap1\n  pop\n  jump\t// out\n    /* \"#utility.yul\":6797:7066   */\ntag_43:\n    /* \"#utility.yul\":6907:6946   */\n  tag_132\n    /* \"#utility.yul\":6938:6945   */\n  dup4\n    /* \"#utility.yul\":6907:6946   */\n  tag_41\n  jump\t// in\ntag_132:\n    /* \"#utility.yul\":6968:7059   */\n  tag_133\n    /* \"#utility.yul\":7017:7058   */\n  tag_134\n    /* \"#utility.yul\":7041:7057   */\n  dup3\n    /* \"#utility.yul\":7017:7058   */\n  tag_42\n  jump\t// in\ntag_134:\n    /* \"#utility.yul\":7009:7015   */\n  dup5\n    /* \"#utility.yul\":7002:7006   */\n  dup5\n    /* \"#utility.yul\":6996:7007   */\n  sload\n    /* \"#utility.yul\":6968:7059   */\n  tag_39\n  jump\t// in\ntag_133:\n    /* \"#utility.yul\":6962:6966   */\n  dup3\n    /* \"#utility.yul\":6955:7060   */\n  sstore\n    /* \"#utility.yul\":6873:7066   */\n  pop\n    /* \"#utility.yul\":6797:7066   */\n  pop\n  pop\n  pop\n  jump\t// out\n    /* \"#utility.yul\":7072:7145   */\ntag_44:\n    /* \"#utility.yul\":7117:7120   */\n  0x00\n    /* \"#utility.yul\":7072:7145   */\n  swap1\n  jump\t// out\n    /* \"#utility.yul\":7151:7340   */\ntag_45:\n    /* \"#utility.yul\":7228:7260   */\n  tag_137\n  tag_44\n  jump\t// in\ntag_137:\n    /* \"#utility.yul\":7269:7334   */\n  tag_138\n    /* \"#utility.yul\":7327:7333   */\n  dup2\n    /* \"#utility.yul\":7319:7325   */\n  dup5\n    /* \"#utility.yul\":7313:7317   */\n  dup5\n    /* \"#utility.yul\":7269:7334   */\n  tag_43\n  jump\t// in\ntag_138:\n    /* \"#utility.yul\":7204:7340   */\n  pop\n    /* \"#utility.yul\":7151:7340   */\n  pop\n  pop\n  jump\t// out\n    /* \"#utility.yul\":7346:7532   */\ntag_46:\n    /* \"#utility.yul\":7406:7526   */\ntag_140:\n    /* \"#utility.yul\":7423:7426   */\n  dup2\n    /* \"#utility.yul\":7416:7421   */\n  dup2\n    /* \"#utility.yul\":7413:7427   */\n  lt\n    /* \"#utility.yul\":7406:7526   */\n  iszero\n  tag_142\n  jumpi\n    /* \"#utility.yul\":7477:7516   */\n  tag_143\n    /* \"#utility.yul\":7514:7515   */\n  0x00\n    /* \"#utility.yul\":7507:7512   */\n  dup3\n    /* \"#utility.yul\":7477:7516   */\n  tag_45\n  jump\t// in\ntag_143:\n    /* \"#utility.yul\":7450:7451   */\n  0x01\n    /* \"#utility.yul\":7443:7448   */\n  dup2\n    /* \"#utility.yul\":7439:7452   */\n  add\n    /* \"#utility.yul\":7430:7452   */\n  swap1\n  pop\n    /* \"#utility.yul\":7406:7526   */\n  jump(tag_140)\ntag_142:\n    /* \"#utility.yul\":7346:7532   */\n  pop\n  pop\n  jump\t// out\n    /* \"#utility.yul\":7538:8081   */\ntag_47:\n    /* \"#utility.yul\":7639:7641   */\n  0x1f\n    /* \"#utility.yul\":7634:7637   */\n  dup3\n    /* \"#utility.yul\":7631:7642   */\n  gt\n    /* \"#utility.yul\":7628:8074   */\n  iszero\n  tag_145\n  jumpi\n    /* \"#utility.yul\":7673:7711   */\n  tag_146\n    /* \"#utility.yul\":7705:7710   */\n  dup2\n    /* \"#utility.yul\":7673:7711   */\n  tag_36\n  jump\t// in\ntag_146:\n    /* \"#utility.yul\":7757:7786   */\n  tag_147\n    /* \"#utility.yul\":7775:7785   */\n  dup5\n    /* \"#utility.yul\":7757:7786   */\n  tag_37\n  jump\t// in\ntag_147:\n    /* \"#utility.yul\":7747:7755   */\n  dup2\n    /* \"#utility.yul\":7743:7787   */\n  add\n    /* \"#utility.yul\":7940:7942   */\n  0x20\n    /* \"#utility.yul\":7928:7938   */\n  dup6\n    /* \"#utility.yul\":7925:7943   */\n  lt\n    /* \"#utility.yul\":7922:7971   */\n  iszero\n  tag_148\n  jumpi\n    /* \"#utility.yul\":7961:7969   */\n  dup2\n    /* \"#utility.yul\":7946:7969   */\n  swap1\n  pop\n    /* \"#utility.yul\":7922:7971   */\ntag_148:\n    /* \"#utility.yul\":7984:8064   */\n  tag_149\n    /* \"#utility.yul\":8040:8062   */\n  tag_150\n    /* \"#utility.yul\":8058:8061   */\n  dup6\n    /* \"#utility.yul\":8040:8062   */\n  tag_37\n  jump\t// in\ntag_150:\n    /* \"#utility.yul\":8030:8038   */\n  dup4\n    /* \"#utility.yul\":8026:8063   */\n  add\n    /* \"#utility.yul\":8013:8024   */\n  dup3\n    /* \"#utility.yul\":7984:8064   */\n  tag_46\n  jump\t// in\ntag_149:\n    /* \"#utility.yul\":7643:8074   */\n  pop\n  pop\n    /* \"#utility.yul\":7628:8074   */\ntag_145:\n    /* \"#utility.yul\":7538:8081   */\n  pop\n  pop\n  pop\n  jump\t// out\n    /* \"#utility.yul\":8087:8204   */\ntag_48:\n    /* \"#utility.yul\":8141:8149   */\n  0x00\n    /* \"#utility.yul\":8191:8196   */\n  dup3\n    /* \"#utility.yul\":8185:8189   */\n  dup3\n    /* \"#utility.yul\":8181:8197   */\n  shr\n    /* \"#utility.yul\":8160:8197   */\n  swap1\n  pop\n    /* \"#utility.yul\":8087:8204   */\n  swap3\n  swap2\n  pop\n  pop\n  jump\t// out\n    /* \"#utility.yul\":8210:8379   */\ntag_49:\n    /* \"#utility.yul\":8254:8260   */\n  0x00\n    /* \"#utility.yul\":8287:8338   */\n  tag_153\n    /* \"#utility.yul\":8335:8336   */\n  0x00\n    /* \"#utility.yul\":8331:8337   */\n  not\n    /* \"#utility.yul\":8323:8328   */\n  dup5\n    /* \"#utility.yul\":8320:8321   */\n  0x08\n    /* \"#utility.yul\":8316:8329   */\n  mul\n    /* \"#utility.yul\":8287:8338   */\n  tag_48\n  jump\t// in\ntag_153:\n    /* \"#utility.yul\":8283:8339   */\n  not\n    /* \"#utility.yul\":8368:8372   */\n  dup1\n    /* \"#utility.yul\":8362:8366   */\n  dup4\n    /* \"#utility.yul\":8358:8373   */\n  and\n    /* \"#utility.yul\":8348:8373   */\n  swap2\n  pop\n    /* \"#utility.yul\":8261:8379   */\n  pop\n    /* \"#utility.yul\":8210:8379   */\n  swap3\n  swap2\n  pop\n  pop\n  jump\t// out\n    /* \"#utility.yul\":8384:8679   */\ntag_50:\n    /* \"#utility.yul\":8460:8464   */\n  0x00\n    /* \"#utility.yul\":8606:8635   */\n  tag_155\n    /* \"#utility.yul\":8631:8634   */\n  dup4\n    /* \"#utility.yul\":8625:8629   */\n  dup4\n    /* \"#utility.yul\":8606:8635   */\n  tag_49\n  jump\t// in\ntag_155:\n    /* \"#utility.yul\":8598:8635   */\n  swap2\n  pop\n    /* \"#utility.yul\":8668:8671   */\n  dup3\n    /* \"#utility.yul\":8665:8666   */\n  0x02\n    /* \"#utility.yul\":8661:8672   */\n  mul\n    /* \"#utility.yul\":8655:8659   */\n  dup3\n    /* \"#utility.yul\":8652:8673   */\n  or\n    /* \"#utility.yul\":8644:8673   */\n  swap1\n  pop\n    /* \"#utility.yul\":8384:8679   */\n  swap3\n  swap2\n  pop\n  pop\n  jump\t// out\n    /* \"#utility.yul\":8684:10079   */\ntag_7:\n    /* \"#utility.yul\":8801:8838   */\n  tag_157\n    /* \"#utility.yul\":8834:8837   */\n  dup3\n    /* \"#utility.yul\":8801:8838   */\n  tag_33\n  jump\t// in\ntag_157:\n    /* \"#utility.yul\":8903:8921   */\n  0xffffffffffffffff\n    /* \"#utility.yul\":8895:8901   */\n  dup2\n    /* \"#utility.yul\":8892:8922   */\n  gt\n    /* \"#utility.yul\":8889:8945   */\n  iszero\n  tag_158\n  jumpi\n    /* \"#utility.yul\":8925:8943   */\n  tag_159\n  tag_20\n  jump\t// in\ntag_159:\n    /* \"#utility.yul\":8889:8945   */\ntag_158:\n    /* \"#utility.yul\":8969:9007   */\n  tag_160\n    /* \"#utility.yul\":9001:9005   */\n  dup3\n    /* \"#utility.yul\":8995:9006   */\n  sload\n    /* \"#utility.yul\":8969:9007   */\n  tag_35\n  jump\t// in\ntag_160:\n    /* \"#utility.yul\":9054:9121   */\n  tag_161\n    /* \"#utility.yul\":9114:9120   */\n  dup3\n    /* \"#utility.yul\":9106:9112   */\n  dup3\n    /* \"#utility.yul\":9100:9104   */\n  dup6\n    /* \"#utility.yul\":9054:9121   */\n  tag_47\n  jump\t// in\ntag_161:\n    /* \"#utility.yul\":9148:9149   */\n  0x00\n    /* \"#utility.yul\":9172:9176   */\n  0x20\n    /* \"#utility.yul\":9159:9176   */\n  swap1\n  pop\n    /* \"#utility.yul\":9204:9206   */\n  0x1f\n    /* \"#utility.yul\":9196:9202   */\n  dup4\n    /* \"#utility.yul\":9193:9207   */\n  gt\n    /* \"#utility.yul\":9221:9222   */\n  0x01\n    /* \"#utility.yul\":9216:9834   */\n  dup2\n  eq\n  tag_163\n  jumpi\n    /* \"#utility.yul\":9878:9879   */\n  0x00\n    /* \"#utility.yul\":9895:9901   */\n  dup5\n    /* \"#utility.yul\":9892:9969   */\n  iszero\n  tag_164\n  jumpi\n    /* \"#utility.yul\":9944:9953   */\n  dup3\n    /* \"#utility.yul\":9939:9942   */\n  dup8\n    /* \"#utility.yul\":9935:9954   */\n  add\n    /* \"#utility.yul\":9929:9955   */\n  mload\n    /* \"#utility.yul\":9920:9955   */\n  swap1\n  pop\n    /* \"#utility.yul\":9892:9969   */\ntag_164:\n    /* \"#utility.yul\":9995:10062   */\n  tag_165\n    /* \"#utility.yul\":10055:10061   */\n  dup6\n    /* \"#utility.yul\":10048:10053   */\n  dup3\n    /* \"#utility.yul\":9995:10062   */\n  tag_50\n  jump\t// in\ntag_165:\n    /* \"#utility.yul\":9989:9993   */\n  dup7\n    /* \"#utility.yul\":9982:10063   */\n  sstore\n    /* \"#utility.yul\":9851:10073   */\n  pop\n    /* \"#utility.yul\":9186:10073   */\n  jump(tag_162)\n    /* \"#utility.yul\":9216:9834   */\ntag_163:\n    /* \"#utility.yul\":9268:9272   */\n  0x1f\n    /* \"#utility.yul\":9264:9273   */\n  not\n    /* \"#utility.yul\":9256:9262   */\n  dup5\n    /* \"#utility.yul\":9252:9274   */\n  and\n    /* \"#utility.yul\":9302:9339   */\n  tag_166\n    /* \"#utility.yul\":9334:9338   */\n  dup7\n    /* \"#utility.yul\":9302:9339   */\n  tag_36\n  jump\t// in\ntag_166:\n    /* \"#utility.yul\":9361:9362   */\n  0x00\n    /* \"#utility.yul\":9375:9583   */\ntag_167:\n    /* \"#utility.yul\":9389:9396   */\n  dup3\n    /* \"#utility.yul\":9386:9387   */\n  dup2\n    /* \"#utility.yul\":9383:9397   */\n  lt\n    /* \"#utility.yul\":9375:9583   */\n  iszero\n  tag_169\n  jumpi\n    /* \"#utility.yul\":9468:9477   */\n  dup5\n    /* \"#utility.yul\":9463:9466   */\n  dup10\n    /* \"#utility.yul\":9459:9478   */\n  add\n    /* \"#utility.yul\":9453:9479   */\n  mload\n    /* \"#utility.yul\":9445:9451   */\n  dup3\n    /* \"#utility.yul\":9438:9480   */\n  sstore\n    /* \"#utility.yul\":9519:9520   */\n  0x01\n    /* \"#utility.yul\":9511:9517   */\n  dup3\n    /* \"#utility.yul\":9507:9521   */\n  add\n    /* \"#utility.yul\":9497:9521   */\n  swap2\n  pop\n    /* \"#utility.yul\":9566:9568   */\n  0x20\n    /* \"#utility.yul\":9555:9564   */\n  dup6\n    /* \"#utility.yul\":9551:9569   */\n  add\n    /* \"#utility.yul\":9538:9569   */\n  swap5\n  pop\n    /* \"#utility.yul\":9412:9416   */\n  0x20\n    /* \"#utility.yul\":9409:9410   */\n  dup2\n    /* \"#utility.yul\":9405:9417   */\n  add\n    /* \"#utility.yul\":9400:9417   */\n  swap1\n  pop\n    /* \"#utility.yul\":9375:9583   */\n  jump(tag_167)\ntag_169:\n    /* \"#utility.yul\":9611:9617   */\n  dup7\n    /* \"#utility.yul\":9602:9609   */\n  dup4\n    /* \"#utility.yul\":9599:9618   */\n  lt\n    /* \"#utility.yul\":9596:9775   */\n  iszero\n  tag_170\n  jumpi\n    /* \"#utility.yul\":9669:9678   */\n  dup5\n    /* \"#utility.yul\":9664:9667   */\n  dup10\n    /* \"#utility.yul\":9660:9679   */\n  add\n    /* \"#utility.yul\":9654:9680   */\n  mload\n    /* \"#utility.yul\":9712:9760   */\n  tag_171\n    /* \"#utility.yul\":9754:9758   */\n  0x1f\n    /* \"#utility.yul\":9746:9752   */\n  dup10\n    /* \"#utility.yul\":9742:9759   */\n  and\n    /* \"#utility.yul\":9731:9740   */\n  dup3\n    /* \"#utility.yul\":9712:9760   */\n  tag_49\n  jump\t// in\ntag_171:\n    /* \"#utility.yul\":9704:9710   */\n  dup4\n    /* \"#utility.yul\":9697:9761   */\n  sstore\n    /* \"#utility.yul\":9619:9775   */\n  pop\n    /* \"#utility.yul\":9596:9775   */\ntag_170:\n    /* \"#utility.yul\":9821:9822   */\n  0x01\n    /* \"#utility.yul\":9817:9818   */\n  0x02\n    /* \"#utility.yul\":9809:9815   */\n  dup9\n    /* \"#utility.yul\":9805:9819   */\n  mul\n    /* \"#utility.yul\":9801:9823   */\n  add\n    /* \"#utility.yul\":9795:9799   */\n  dup9\n    /* \"#utility.yul\":9788:9824   */\n  sstore\n    /* \"#utility.yul\":9223:9834   */\n  pop\n  pop\n  pop\n    /* \"#utility.yul\":9186:10073   */\ntag_162:\n  pop\n    /* \"#utility.yul\":8776:10079   */\n  pop\n  pop\n  pop\n    /* \"#utility.yul\":8684:10079   */\n  pop\n  pop\n  jump\t// out\n    /* \"src/ERC20.sol\":184:5462  contract ERC20 is IERC20{... */\ntag_9:\n  dataSize(sub_0)\n  dup1\n  dataOffset(sub_0)\n  0x00\n  codecopy\n  0x00\n  return\nstop\n\nsub_0: assembly {\n        /* \"src/ERC20.sol\":184:5462  contract ERC20 is IERC20{... */\n      mstore(0x40, 0x80)\n      callvalue\n      dup1\n      iszero\n      tag_1\n      jumpi\n      0x00\n      dup1\n      revert\n    tag_1:\n      pop\n      jumpi(tag_2, lt(calldatasize, 0x04))\n      shr(0xe0, calldataload(0x00))\n      dup1\n      0x95d89b41\n      gt\n      tag_19\n      jumpi\n      dup1\n      0xbbaed518\n      gt\n      tag_20\n      jumpi\n      dup1\n      0xbbaed518\n      eq\n      tag_15\n      jumpi\n      dup1\n      0xc06df1e9\n      eq\n      tag_16\n      jumpi\n      dup1\n      0xd5abeb01\n      eq\n      tag_17\n      jumpi\n      dup1\n      0xdd62ed3e\n      eq\n      tag_18\n      jumpi\n      jump(tag_2)\n    tag_20:\n      dup1\n      0x95d89b41\n      eq\n      tag_11\n      jumpi\n      dup1\n      0x9dc29fac\n      eq\n      tag_12\n      jumpi\n      dup1\n      0xa3e67610\n      eq\n      tag_13\n      jumpi\n      dup1\n      0xa9059cbb\n      eq\n      tag_14\n      jumpi\n      jump(tag_2)\n    tag_19:\n      dup1\n      0x313ce567\n      gt\n      tag_21\n      jumpi\n      dup1\n      0x313ce567\n      eq\n      tag_7\n      jumpi\n      dup1\n      0x40c10f19\n      eq\n      tag_8\n      jumpi\n      dup1\n      0x5b833f1e\n      eq\n      tag_9\n      jumpi\n      dup1\n      0x70a08231\n      eq\n      tag_10\n      jumpi\n      jump(tag_2)\n    tag_21:\n      dup1\n      0x06fdde03\n      eq\n      tag_3\n      jumpi\n      dup1\n      0x095ea7b3\n      eq\n      tag_4\n      jumpi\n      dup1\n      0x18160ddd\n      eq\n      tag_5\n      jumpi\n      dup1\n      0x23b872dd\n      eq\n      tag_6\n      jumpi\n    tag_2:\n      0x00\n      dup1\n      revert\n        /* \"src/ERC20.sol\":221:239  string public name */\n    tag_3:\n      tag_22\n      tag_23\n      jump\t// in\n    tag_22:\n      mload(0x40)\n      tag_24\n      swap2\n      swap1\n      tag_25\n      jump\t// in\n    tag_24:\n      mload(0x40)\n      dup1\n      swap2\n      sub\n      swap1\n      return\n        /* \"src/ERC20.sol\":3940:4274  function approve(address spender, uint256 amount) external ... */\n    tag_4:\n      tag_26\n      0x04\n      dup1\n      calldatasize\n      sub\n      dup2\n      add\n      swap1\n      tag_27\n      swap2\n      swap1\n      tag_28\n      jump\t// in\n    tag_27:\n      tag_29\n      jump\t// in\n    tag_26:\n      mload(0x40)\n      tag_30\n      swap2\n      swap1\n      tag_31\n      jump\t// in\n    tag_30:\n      mload(0x40)\n      dup1\n      swap2\n      sub\n      swap1\n      return\n        /* \"src/ERC20.sol\":301:327  uint256 public totalSupply */\n    tag_5:\n      tag_32\n      tag_33\n      jump\t// in\n    tag_32:\n      mload(0x40)\n      tag_34\n      swap2\n      swap1\n      tag_35\n      jump\t// in\n    tag_34:\n      mload(0x40)\n      dup1\n      swap2\n      sub\n      swap1\n      return\n        /* \"src/ERC20.sol\":3354:3822  function transferFrom(address sender, address recipient, uint256 amount) external... */\n    tag_6:\n      tag_36\n      0x04\n      dup1\n      calldatasize\n      sub\n      dup2\n      add\n      swap1\n      tag_37\n      swap2\n      swap1\n      tag_38\n      jump\t// in\n    tag_37:\n      tag_39\n      jump\t// in\n    tag_36:\n      mload(0x40)\n      tag_40\n      swap2\n      swap1\n      tag_31\n      jump\t// in\n    tag_40:\n      mload(0x40)\n      dup1\n      swap2\n      sub\n      swap1\n      return\n        /* \"src/ERC20.sol\":273:294  uint8 public decimals */\n    tag_7:\n      tag_41\n      tag_42\n      jump\t// in\n    tag_41:\n      mload(0x40)\n      tag_43\n      swap2\n      swap1\n      tag_44\n      jump\t// in\n    tag_43:\n      mload(0x40)\n      dup1\n      swap2\n      sub\n      swap1\n      return\n        /* \"src/ERC20.sol\":4640:4874  function mint(address to, uint256 amount) external ... */\n    tag_8:\n      tag_45\n      0x04\n      dup1\n      calldatasize\n      sub\n      dup2\n      add\n      swap1\n      tag_46\n      swap2\n      swap1\n      tag_28\n      jump\t// in\n    tag_46:\n      tag_47\n      jump\t// in\n    tag_45:\n      stop\n        /* \"src/ERC20.sol\":397:426  address public nextTokenOwner */\n    tag_9:\n      tag_48\n      tag_49\n      jump\t// in\n    tag_48:\n      mload(0x40)\n      tag_50\n      swap2\n      swap1\n      tag_51\n      jump\t// in\n    tag_50:\n      mload(0x40)\n      dup1\n      swap2\n      sub\n      swap1\n      return\n        /* \"src/ERC20.sol\":433:477  mapping(address => uint256) public balanceOf */\n    tag_10:\n      tag_52\n      0x04\n      dup1\n      calldatasize\n      sub\n      dup2\n      add\n      swap1\n      tag_53\n      swap2\n      swap1\n      tag_54\n      jump\t// in\n    tag_53:\n      tag_55\n      jump\t// in\n    tag_52:\n      mload(0x40)\n      tag_56\n      swap2\n      swap1\n      tag_35\n      jump\t// in\n    tag_56:\n      mload(0x40)\n      dup1\n      swap2\n      sub\n      swap1\n      return\n        /* \"src/ERC20.sol\":246:266  string public symbol */\n    tag_11:\n      tag_57\n      tag_58\n      jump\t// in\n    tag_57:\n      mload(0x40)\n      tag_59\n      swap2\n      swap1\n      tag_25\n      jump\t// in\n    tag_59:\n      mload(0x40)\n      dup1\n      swap2\n      sub\n      swap1\n      return\n        /* \"src/ERC20.sol\":5257:5459  function burn(address from, uint256 amount) external ... */\n    tag_12:\n      tag_60\n      0x04\n      dup1\n      calldatasize\n      sub\n      dup2\n      add\n      swap1\n      tag_61\n      swap2\n      swap1\n      tag_28\n      jump\t// in\n    tag_61:\n      tag_62\n      jump\t// in\n    tag_60:\n      stop\n        /* \"src/ERC20.sol\":365:390  address public tokenOwner */\n    tag_13:\n      tag_63\n      tag_64\n      jump\t// in\n    tag_63:\n      mload(0x40)\n      tag_65\n      swap2\n      swap1\n      tag_51\n      jump\t// in\n    tag_65:\n      mload(0x40)\n      dup1\n      swap2\n      sub\n      swap1\n      return\n        /* \"src/ERC20.sol\":2863:3233  function transfer(address recipient, uint256 amount) external ... */\n    tag_14:\n      tag_66\n      0x04\n      dup1\n      calldatasize\n      sub\n      dup2\n      add\n      swap1\n      tag_67\n      swap2\n      swap1\n      tag_28\n      jump\t// in\n    tag_67:\n      tag_68\n      jump\t// in\n    tag_66:\n      mload(0x40)\n      tag_69\n      swap2\n      swap1\n      tag_31\n      jump\t// in\n    tag_69:\n      mload(0x40)\n      dup1\n      swap2\n      sub\n      swap1\n      return\n        /* \"src/ERC20.sol\":2064:2454  function TransferTokenOwnership(address _nextTokenOwner) external ... */\n    tag_15:\n      tag_70\n      0x04\n      dup1\n      calldatasize\n      sub\n      dup2\n      add\n      swap1\n      tag_71\n      swap2\n      swap1\n      tag_54\n      jump\t// in\n    tag_71:\n      tag_72\n      jump\t// in\n    tag_70:\n      mload(0x40)\n      tag_73\n      swap2\n      swap1\n      tag_31\n      jump\t// in\n    tag_73:\n      mload(0x40)\n      dup1\n      swap2\n      sub\n      swap1\n      return\n        /* \"src/ERC20.sol\":2553:2796  function ClaimTokenOwnership() external allowOnly(nextTokenOwner) returns(bool){... */\n    tag_16:\n      tag_74\n      tag_75\n      jump\t// in\n    tag_74:\n      mload(0x40)\n      tag_76\n      swap2\n      swap1\n      tag_31\n      jump\t// in\n    tag_76:\n      mload(0x40)\n      dup1\n      swap2\n      sub\n      swap1\n      return\n        /* \"src/ERC20.sol\":334:358  uint256 public maxSupply */\n    tag_17:\n      tag_77\n      tag_78\n      jump\t// in\n    tag_77:\n      mload(0x40)\n      tag_79\n      swap2\n      swap1\n      tag_35\n      jump\t// in\n    tag_79:\n      mload(0x40)\n      dup1\n      swap2\n      sub\n      swap1\n      return\n        /* \"src/ERC20.sol\":484:548  mapping(address => mapping(address => uint256)) public allowance */\n    tag_18:\n      tag_80\n      0x04\n      dup1\n      calldatasize\n      sub\n      dup2\n      add\n      swap1\n      tag_81\n      swap2\n      swap1\n      tag_82\n      jump\t// in\n    tag_81:\n      tag_83\n      jump\t// in\n    tag_80:\n      mload(0x40)\n      tag_84\n      swap2\n      swap1\n      tag_35\n      jump\t// in\n    tag_84:\n      mload(0x40)\n      dup1\n      swap2\n      sub\n      swap1\n      return\n        /* \"src/ERC20.sol\":221:239  string public name */\n    tag_23:\n      0x00\n      dup1\n      sload\n      tag_85\n      swap1\n      tag_86\n      jump\t// in\n    tag_85:\n      dup1\n      0x1f\n      add\n      0x20\n      dup1\n      swap2\n      div\n      mul\n      0x20\n      add\n      mload(0x40)\n      swap1\n      dup2\n      add\n      0x40\n      mstore\n      dup1\n      swap3\n      swap2\n      swap1\n      dup2\n      dup2\n      mstore\n      0x20\n      add\n      dup3\n      dup1\n      sload\n      tag_87\n      swap1\n      tag_86\n      jump\t// in\n    tag_87:\n      dup1\n      iszero\n      tag_88\n      jumpi\n      dup1\n      0x1f\n      lt\n      tag_89\n      jumpi\n      0x0100\n      dup1\n      dup4\n      sload\n      div\n      mul\n      dup4\n      mstore\n      swap2\n      0x20\n      add\n      swap2\n      jump(tag_88)\n    tag_89:\n      dup3\n      add\n      swap2\n      swap1\n      0x00\n      mstore\n      keccak256(0x00, 0x20)\n      swap1\n    tag_90:\n      dup2\n      sload\n      dup2\n      mstore\n      swap1\n      0x01\n      add\n      swap1\n      0x20\n      add\n      dup1\n      dup4\n      gt\n      tag_90\n      jumpi\n      dup3\n      swap1\n      sub\n      0x1f\n      and\n      dup3\n      add\n      swap2\n    tag_88:\n      pop\n      pop\n      pop\n      pop\n      pop\n      dup2\n      jump\t// out\n        /* \"src/ERC20.sol\":3940:4274  function approve(address spender, uint256 amount) external ... */\n    tag_29:\n        /* \"src/ERC20.sol\":4130:4134  bool */\n      0x00\n        /* \"src/ERC20.sol\":4023:4029  amount */\n      dup2\n        /* \"src/ERC20.sol\":1604:1605  0 */\n      0x00\n        /* \"src/ERC20.sol\":1593:1600  _amount */\n      dup2\n        /* \"src/ERC20.sol\":1593:1605  _amount != 0 */\n      sub\n        /* \"src/ERC20.sol\":1585:1642  require(_amount != 0, \"Amount must be greater than zero\") */\n      tag_92\n      jumpi\n      mload(0x40)\n      0x08c379a000000000000000000000000000000000000000000000000000000000\n      dup2\n      mstore\n      0x04\n      add\n      tag_93\n      swap1\n      tag_94\n      jump\t// in\n    tag_93:\n      mload(0x40)\n      dup1\n      swap2\n      sub\n      swap1\n      revert\n    tag_92:\n        /* \"src/ERC20.sol\":4055:4062  spender */\n      dup4\n        /* \"src/ERC20.sol\":1458:1461  _to */\n      dup1\n        /* \"src/ERC20.sol\":1444:1461  address(0) != _to */\n      0xffffffffffffffffffffffffffffffffffffffff\n      and\n        /* \"src/ERC20.sol\":1452:1453  0 */\n      0x00\n        /* \"src/ERC20.sol\":1444:1461  address(0) != _to */\n      0xffffffffffffffffffffffffffffffffffffffff\n      and\n      sub\n        /* \"src/ERC20.sol\":1436:1509  require(address(0) != _to, \"Transfer to the zero address is not allowed\") */\n      tag_96\n      jumpi\n      mload(0x40)\n      0x08c379a000000000000000000000000000000000000000000000000000000000\n      dup2\n      mstore\n      0x04\n      add\n      tag_97\n      swap1\n      tag_98\n      jump\t// in\n    tag_97:\n      mload(0x40)\n      dup1\n      swap2\n      sub\n      swap1\n      revert\n    tag_96:\n        /* \"src/ERC20.sol\":4092:4102  msg.sender */\n      caller\n        /* \"src/ERC20.sol\":4104:4110  amount */\n      dup5\n        /* \"src/ERC20.sol\":980:987  _amount */\n      dup1\n        /* \"src/ERC20.sol\":958:967  balanceOf */\n      0x07\n        /* \"src/ERC20.sol\":958:976  balanceOf[_sender] */\n      0x00\n        /* \"src/ERC20.sol\":968:975  _sender */\n      dup5\n        /* \"src/ERC20.sol\":958:976  balanceOf[_sender] */\n      0xffffffffffffffffffffffffffffffffffffffff\n      and\n      0xffffffffffffffffffffffffffffffffffffffff\n      and\n      dup2\n      mstore\n      0x20\n      add\n      swap1\n      dup2\n      mstore\n      0x20\n      add\n      0x00\n      keccak256\n      sload\n        /* \"src/ERC20.sol\":958:987  balanceOf[_sender] >= _amount */\n      lt\n      iszero\n        /* \"src/ERC20.sol\":950:1031  require(balanceOf[_sender] >= _amount, \"Caller does not have sufficient balance\") */\n      tag_100\n      jumpi\n      mload(0x40)\n      0x08c379a000000000000000000000000000000000000000000000000000000000\n      dup2\n      mstore\n      0x04\n      add\n      tag_101\n      swap1\n      tag_102\n      jump\t// in\n    tag_101:\n      mload(0x40)\n      dup1\n      swap2\n      sub\n      swap1\n      revert\n    tag_100:\n        /* \"src/ERC20.sol\":4185:4191  amount */\n      dup6\n        /* \"src/ERC20.sol\":4152:4161  allowance */\n      0x08\n        /* \"src/ERC20.sol\":4152:4173  allowance[msg.sender] */\n      0x00\n        /* \"src/ERC20.sol\":4162:4172  msg.sender */\n      caller\n        /* \"src/ERC20.sol\":4152:4173  allowance[msg.sender] */\n      0xffffffffffffffffffffffffffffffffffffffff\n      and\n      0xffffffffffffffffffffffffffffffffffffffff\n      and\n      dup2\n      mstore\n      0x20\n      add\n      swap1\n      dup2\n      mstore\n      0x20\n      add\n      0x00\n      keccak256\n        /* \"src/ERC20.sol\":4152:4182  allowance[msg.sender][spender] */\n      0x00\n        /* \"src/ERC20.sol\":4174:4181  spender */\n      dup10\n        /* \"src/ERC20.sol\":4152:4182  allowance[msg.sender][spender] */\n      0xffffffffffffffffffffffffffffffffffffffff\n      and\n      0xffffffffffffffffffffffffffffffffffffffff\n      and\n      dup2\n      mstore\n      0x20\n      add\n      swap1\n      dup2\n      mstore\n      0x20\n      add\n      0x00\n      keccak256\n        /* \"src/ERC20.sol\":4152:4191  allowance[msg.sender][spender] = amount */\n      dup2\n      swap1\n      sstore\n      pop\n        /* \"src/ERC20.sol\":4228:4235  spender */\n      dup7\n        /* \"src/ERC20.sol\":4207:4244  Approval(msg.sender, spender, amount) */\n      0xffffffffffffffffffffffffffffffffffffffff\n      and\n        /* \"src/ERC20.sol\":4216:4226  msg.sender */\n      caller\n        /* \"src/ERC20.sol\":4207:4244  Approval(msg.sender, spender, amount) */\n      0xffffffffffffffffffffffffffffffffffffffff\n      and\n      0x8c5be1e5ebec7d5bd14f71427d1e84f3dd0314c0f7b2291e5b200ac8c7c3b925\n        /* \"src/ERC20.sol\":4237:4243  amount */\n      dup9\n        /* \"src/ERC20.sol\":4207:4244  Approval(msg.sender, spender, amount) */\n      mload(0x40)\n      tag_104\n      swap2\n      swap1\n      tag_35\n      jump\t// in\n    tag_104:\n      mload(0x40)\n      dup1\n      swap2\n      sub\n      swap1\n      log3\n        /* \"src/ERC20.sol\":4262:4266  true */\n      0x01\n        /* \"src/ERC20.sol\":4255:4266  return true */\n      swap5\n      pop\n        /* \"src/ERC20.sol\":1520:1521  _ */\n      pop\n      pop\n        /* \"src/ERC20.sol\":1653:1654  _ */\n      pop\n        /* \"src/ERC20.sol\":3940:4274  function approve(address spender, uint256 amount) external ... */\n      pop\n      swap3\n      swap2\n      pop\n      pop\n      jump\t// out\n        /* \"src/ERC20.sol\":301:327  uint256 public totalSupply */\n    tag_33:\n      sload(0x03)\n      dup2\n      jump\t// out\n        /* \"src/ERC20.sol\":3354:3822  function transferFrom(address sender, address recipient, uint256 amount) external... */\n    tag_39:\n        /* \"src/ERC20.sol\":3607:3611  bool */\n      0x00\n        /* \"src/ERC20.sol\":3459:3465  amount */\n      dup2\n        /* \"src/ERC20.sol\":1604:1605  0 */\n      0x00\n        /* \"src/ERC20.sol\":1593:1600  _amount */\n      dup2\n        /* \"src/ERC20.sol\":1593:1605  _amount != 0 */\n      sub\n        /* \"src/ERC20.sol\":1585:1642  require(_amount != 0, \"Amount must be greater than zero\") */\n      tag_106\n      jumpi\n      mload(0x40)\n      0x08c379a000000000000000000000000000000000000000000000000000000000\n      dup2\n      mstore\n      0x04\n      add\n      tag_107\n      swap1\n      tag_94\n      jump\t// in\n    tag_107:\n      mload(0x40)\n      dup1\n      swap2\n      sub\n      swap1\n      revert\n    tag_106:\n        /* \"src/ERC20.sol\":3491:3500  recipient */\n      dup4\n        /* \"src/ERC20.sol\":1458:1461  _to */\n      dup1\n        /* \"src/ERC20.sol\":1444:1461  address(0) != _to */\n      0xffffffffffffffffffffffffffffffffffffffff\n      and\n        /* \"src/ERC20.sol\":1452:1453  0 */\n      0x00\n        /* \"src/ERC20.sol\":1444:1461  address(0) != _to */\n      0xffffffffffffffffffffffffffffffffffffffff\n      and\n      sub\n        /* \"src/ERC20.sol\":1436:1509  require(address(0) != _to, \"Transfer to the zero address is not allowed\") */\n      tag_109\n      jumpi\n      mload(0x40)\n      0x08c379a000000000000000000000000000000000000000000000000000000000\n      dup2\n      mstore\n      0x04\n      add\n      tag_110\n      swap1\n      tag_98\n      jump\t// in\n    tag_110:\n      mload(0x40)\n      dup1\n      swap2\n      sub\n      swap1\n      revert\n    tag_109:\n        /* \"src/ERC20.sol\":3529:3535  sender */\n      dup6\n        /* \"src/ERC20.sol\":3537:3543  amount */\n      dup5\n        /* \"src/ERC20.sol\":980:987  _amount */\n      dup1\n        /* \"src/ERC20.sol\":958:967  balanceOf */\n      0x07\n        /* \"src/ERC20.sol\":958:976  balanceOf[_sender] */\n      0x00\n        /* \"src/ERC20.sol\":968:975  _sender */\n      dup5\n        /* \"src/ERC20.sol\":958:976  balanceOf[_sender] */\n      0xffffffffffffffffffffffffffffffffffffffff\n      and\n      0xffffffffffffffffffffffffffffffffffffffff\n      and\n      dup2\n      mstore\n      0x20\n      add\n      swap1\n      dup2\n      mstore\n      0x20\n      add\n      0x00\n      keccak256\n      sload\n        /* \"src/ERC20.sol\":958:987  balanceOf[_sender] >= _amount */\n      lt\n      iszero\n        /* \"src/ERC20.sol\":950:1031  require(balanceOf[_sender] >= _amount, \"Caller does not have sufficient balance\") */\n      tag_112\n      jumpi\n      mload(0x40)\n      0x08c379a000000000000000000000000000000000000000000000000000000000\n      dup2\n      mstore\n      0x04\n      add\n      tag_113\n      swap1\n      tag_102\n      jump\t// in\n    tag_113:\n      mload(0x40)\n      dup1\n      swap2\n      sub\n      swap1\n      revert\n    tag_112:\n        /* \"src/ERC20.sol\":3574:3580  sender */\n      dup8\n        /* \"src/ERC20.sol\":3582:3588  amount */\n      dup7\n        /* \"src/ERC20.sol\":1172:1179  _amount */\n      dup1\n        /* \"src/ERC20.sol\":1138:1147  allowance */\n      0x08\n        /* \"src/ERC20.sol\":1138:1156  allowance[_sender] */\n      0x00\n        /* \"src/ERC20.sol\":1148:1155  _sender */\n      dup5\n        /* \"src/ERC20.sol\":1138:1156  allowance[_sender] */\n      0xffffffffffffffffffffffffffffffffffffffff\n      and\n      0xffffffffffffffffffffffffffffffffffffffff\n      and\n      dup2\n      mstore\n      0x20\n      add\n      swap1\n      dup2\n      mstore\n      0x20\n      add\n      0x00\n      keccak256\n        /* \"src/ERC20.sol\":1138:1168  allowance[_sender][msg.sender] */\n      0x00\n        /* \"src/ERC20.sol\":1157:1167  msg.sender */\n      caller\n        /* \"src/ERC20.sol\":1138:1168  allowance[_sender][msg.sender] */\n      0xffffffffffffffffffffffffffffffffffffffff\n      and\n      0xffffffffffffffffffffffffffffffffffffffff\n      and\n      dup2\n      mstore\n      0x20\n      add\n      swap1\n      dup2\n      mstore\n      0x20\n      add\n      0x00\n      keccak256\n      sload\n        /* \"src/ERC20.sol\":1138:1179  allowance[_sender][msg.sender] >= _amount */\n      lt\n      iszero\n        /* \"src/ERC20.sol\":1130:1225  require(allowance[_sender][msg.sender] >= _amount, \"Caller does not have sufficient allowance\") */\n      tag_115\n      jumpi\n      mload(0x40)\n      0x08c379a000000000000000000000000000000000000000000000000000000000\n      dup2\n      mstore\n      0x04\n      add\n      tag_116\n      swap1\n      tag_117\n      jump\t// in\n    tag_116:\n      mload(0x40)\n      dup1\n      swap2\n      sub\n      swap1\n      revert\n    tag_115:\n        /* \"src/ERC20.sol\":3660:3666  amount */\n      dup8\n        /* \"src/ERC20.sol\":3629:3638  allowance */\n      0x08\n        /* \"src/ERC20.sol\":3629:3646  allowance[sender] */\n      0x00\n        /* \"src/ERC20.sol\":3639:3645  sender */\n      dup13\n        /* \"src/ERC20.sol\":3629:3646  allowance[sender] */\n      0xffffffffffffffffffffffffffffffffffffffff\n      and\n      0xffffffffffffffffffffffffffffffffffffffff\n      and\n      dup2\n      mstore\n      0x20\n      add\n      swap1\n      dup2\n      mstore\n      0x20\n      add\n      0x00\n      keccak256\n        /* \"src/ERC20.sol\":3629:3658  allowance[sender][msg.sender] */\n      0x00\n        /* \"src/ERC20.sol\":3647:3657  msg.sender */\n      caller\n        /* \"src/ERC20.sol\":3629:3658  allowance[sender][msg.sender] */\n      0xffffffffffffffffffffffffffffffffffffffff\n      and\n      0xffffffffffffffffffffffffffffffffffffffff\n      and\n      dup2\n      mstore\n      0x20\n      add\n      swap1\n      dup2\n      mstore\n      0x20\n      add\n      0x00\n      keccak256\n      0x00\n        /* \"src/ERC20.sol\":3629:3666  allowance[sender][msg.sender]-=amount */\n      dup3\n      dup3\n      sload\n      tag_119\n      swap2\n      swap1\n      tag_120\n      jump\t// in\n    tag_119:\n      swap3\n      pop\n      pop\n      dup2\n      swap1\n      sstore\n      pop\n        /* \"src/ERC20.sol\":3696:3702  amount */\n      dup8\n        /* \"src/ERC20.sol\":3677:3686  balanceOf */\n      0x07\n        /* \"src/ERC20.sol\":3677:3694  balanceOf[sender] */\n      0x00\n        /* \"src/ERC20.sol\":3687:3693  sender */\n      dup13\n        /* \"src/ERC20.sol\":3677:3694  balanceOf[sender] */\n      0xffffffffffffffffffffffffffffffffffffffff\n      and\n      0xffffffffffffffffffffffffffffffffffffffff\n      and\n      dup2\n      mstore\n      0x20\n      add\n      swap1\n      dup2\n      mstore\n      0x20\n      add\n      0x00\n      keccak256\n      0x00\n        /* \"src/ERC20.sol\":3677:3702  balanceOf[sender]-=amount */\n      dup3\n      dup3\n      sload\n      tag_121\n      swap2\n      swap1\n      tag_120\n      jump\t// in\n    tag_121:\n      swap3\n      pop\n      pop\n      dup2\n      swap1\n      sstore\n      pop\n        /* \"src/ERC20.sol\":3735:3741  amount */\n      dup8\n        /* \"src/ERC20.sol\":3713:3722  balanceOf */\n      0x07\n        /* \"src/ERC20.sol\":3713:3733  balanceOf[recipient] */\n      0x00\n        /* \"src/ERC20.sol\":3723:3732  recipient */\n      dup12\n        /* \"src/ERC20.sol\":3713:3733  balanceOf[recipient] */\n      0xffffffffffffffffffffffffffffffffffffffff\n      and\n      0xffffffffffffffffffffffffffffffffffffffff\n      and\n      dup2\n      mstore\n      0x20\n      add\n      swap1\n      dup2\n      mstore\n      0x20\n      add\n      0x00\n      keccak256\n      0x00\n        /* \"src/ERC20.sol\":3713:3741  balanceOf[recipient]+=amount */\n      dup3\n      dup3\n      sload\n      tag_122\n      swap2\n      swap1\n      tag_123\n      jump\t// in\n    tag_122:\n      swap3\n      pop\n      pop\n      dup2\n      swap1\n      sstore\n      pop\n        /* \"src/ERC20.sol\":3774:3783  recipient */\n      dup9\n        /* \"src/ERC20.sol\":3757:3792  Transfer(sender, recipient, amount) */\n      0xffffffffffffffffffffffffffffffffffffffff\n      and\n        /* \"src/ERC20.sol\":3766:3772  sender */\n      dup11\n        /* \"src/ERC20.sol\":3757:3792  Transfer(sender, recipient, amount) */\n      0xffffffffffffffffffffffffffffffffffffffff\n      and\n      0xddf252ad1be2c89b69c2b068fc378daa952ba7f163c4a11628f55a4df523b3ef\n        /* \"src/ERC20.sol\":3785:3791  amount */\n      dup11\n        /* \"src/ERC20.sol\":3757:3792  Transfer(sender, recipient, amount) */\n      mload(0x40)\n      tag_124\n      swap2\n      swap1\n      tag_35\n      jump\t// in\n    tag_124:\n      mload(0x40)\n      dup1\n      swap2\n      sub\n      swap1\n      log3\n        /* \"src/ERC20.sol\":3810:3814  true */\n      0x01\n        /* \"src/ERC20.sol\":3803:3814  return true */\n      swap7\n      pop\n        /* \"src/ERC20.sol\":1042:1043  _ */\n      pop\n      pop\n        /* \"src/ERC20.sol\":1520:1521  _ */\n      pop\n      pop\n        /* \"src/ERC20.sol\":1653:1654  _ */\n      pop\n        /* \"src/ERC20.sol\":3354:3822  function transferFrom(address sender, address recipient, uint256 amount) external... */\n      pop\n      swap4\n      swap3\n      pop\n      pop\n      pop\n      jump\t// out\n        /* \"src/ERC20.sol\":273:294  uint8 public decimals */\n    tag_42:\n      0x02\n      0x00\n      swap1\n      sload\n      swap1\n      0x0100\n      exp\n      swap1\n      div\n      0xff\n      and\n      dup2\n      jump\t// out\n        /* \"src/ERC20.sol\":4640:4874  function mint(address to, uint256 amount) external ... */\n    tag_47:\n        /* \"src/ERC20.sol\":4711:4721  tokenOwner */\n      0x05\n      0x00\n      swap1\n      sload\n      swap1\n      0x0100\n      exp\n      swap1\n      div\n      0xffffffffffffffffffffffffffffffffffffffff\n      and\n        /* \"src/ERC20.sol\":1323:1334  _authorized */\n      dup1\n        /* \"src/ERC20.sol\":1309:1334  msg.sender == _authorized */\n      0xffffffffffffffffffffffffffffffffffffffff\n      and\n        /* \"src/ERC20.sol\":1309:1319  msg.sender */\n      caller\n        /* \"src/ERC20.sol\":1309:1334  msg.sender == _authorized */\n      0xffffffffffffffffffffffffffffffffffffffff\n      and\n      eq\n        /* \"src/ERC20.sol\":1301:1363  require(msg.sender == _authorized, \"Caller is not authorized\") */\n      tag_126\n      jumpi\n      mload(0x40)\n      0x08c379a000000000000000000000000000000000000000000000000000000000\n      dup2\n      mstore\n      0x04\n      add\n      tag_127\n      swap1\n      tag_128\n      jump\t// in\n    tag_127:\n      mload(0x40)\n      dup1\n      swap2\n      sub\n      swap1\n      revert\n    tag_126:\n        /* \"src/ERC20.sol\":4746:4752  amount */\n      dup2\n        /* \"src/ERC20.sol\":1604:1605  0 */\n      0x00\n        /* \"src/ERC20.sol\":1593:1600  _amount */\n      dup2\n        /* \"src/ERC20.sol\":1593:1605  _amount != 0 */\n      sub\n        /* \"src/ERC20.sol\":1585:1642  require(_amount != 0, \"Amount must be greater than zero\") */\n      tag_130\n      jumpi\n      mload(0x40)\n      0x08c379a000000000000000000000000000000000000000000000000000000000\n      dup2\n      mstore\n      0x04\n      add\n      tag_131\n      swap1\n      tag_94\n      jump\t// in\n    tag_131:\n      mload(0x40)\n      dup1\n      swap2\n      sub\n      swap1\n      revert\n    tag_130:\n        /* \"src/ERC20.sol\":4778:4780  to */\n      dup4\n        /* \"src/ERC20.sol\":1458:1461  _to */\n      dup1\n        /* \"src/ERC20.sol\":1444:1461  address(0) != _to */\n      0xffffffffffffffffffffffffffffffffffffffff\n      and\n        /* \"src/ERC20.sol\":1452:1453  0 */\n      0x00\n        /* \"src/ERC20.sol\":1444:1461  address(0) != _to */\n      0xffffffffffffffffffffffffffffffffffffffff\n      and\n      sub\n        /* \"src/ERC20.sol\":1436:1509  require(address(0) != _to, \"Transfer to the zero address is not allowed\") */\n      tag_133\n      jumpi\n      mload(0x40)\n      0x08c379a000000000000000000000000000000000000000000000000000000000\n      dup2\n      mstore\n      0x04\n      add\n      tag_134\n      swap1\n      tag_98\n      jump\t// in\n    tag_134:\n      mload(0x40)\n      dup1\n      swap2\n      sub\n      swap1\n      revert\n    tag_133:\n        /* \"src/ERC20.sol\":4828:4837  maxSupply */\n      sload(0x04)\n        /* \"src/ERC20.sol\":4818:4824  amount */\n      dup5\n        /* \"src/ERC20.sol\":4806:4817  totalSupply */\n      sload(0x03)\n        /* \"src/ERC20.sol\":4806:4824  totalSupply+amount */\n      tag_136\n      swap2\n      swap1\n      tag_123\n      jump\t// in\n    tag_136:\n        /* \"src/ERC20.sol\":4806:4837  totalSupply+amount <= maxSupply */\n      gt\n      iszero\n        /* \"src/ERC20.sol\":4798:4838  require(totalSupply+amount <= maxSupply) */\n      tag_137\n      jumpi\n      0x00\n      dup1\n      revert\n    tag_137:\n        /* \"src/ERC20.sol\":4849:4866  _mint(to, amount) */\n      tag_138\n        /* \"src/ERC20.sol\":4855:4857  to */\n      dup6\n        /* \"src/ERC20.sol\":4859:4865  amount */\n      dup6\n        /* \"src/ERC20.sol\":4849:4854  _mint */\n      tag_139\n        /* \"src/ERC20.sol\":4849:4866  _mint(to, amount) */\n      jump\t// in\n    tag_138:\n        /* \"src/ERC20.sol\":1653:1654  _ */\n      pop\n        /* \"src/ERC20.sol\":1374:1375  _ */\n      pop\n        /* \"src/ERC20.sol\":4640:4874  function mint(address to, uint256 amount) external ... */\n      pop\n      pop\n      pop\n      jump\t// out\n        /* \"src/ERC20.sol\":397:426  address public nextTokenOwner */\n    tag_49:\n      0x06\n      0x00\n      swap1\n      sload\n      swap1\n      0x0100\n      exp\n      swap1\n      div\n      0xffffffffffffffffffffffffffffffffffffffff\n      and\n      dup2\n      jump\t// out\n        /* \"src/ERC20.sol\":433:477  mapping(address => uint256) public balanceOf */\n    tag_55:\n      mstore(0x20, 0x07)\n      dup1\n      0x00\n      mstore\n      keccak256(0x00, 0x40)\n      0x00\n      swap2\n      pop\n      swap1\n      pop\n      sload\n      dup2\n      jump\t// out\n        /* \"src/ERC20.sol\":246:266  string public symbol */\n    tag_58:\n      0x01\n      dup1\n      sload\n      tag_140\n      swap1\n      tag_86\n      jump\t// in\n    tag_140:\n      dup1\n      0x1f\n      add\n      0x20\n      dup1\n      swap2\n      div\n      mul\n      0x20\n      add\n      mload(0x40)\n      swap1\n      dup2\n      add\n      0x40\n      mstore\n      dup1\n      swap3\n      swap2\n      swap1\n      dup2\n      dup2\n      mstore\n      0x20\n      add\n      dup3\n      dup1\n      sload\n      tag_141\n      swap1\n      tag_86\n      jump\t// in\n    tag_141:\n      dup1\n      iszero\n      tag_142\n      jumpi\n      dup1\n      0x1f\n      lt\n      tag_143\n      jumpi\n      0x0100\n      dup1\n      dup4\n      sload\n      div\n      mul\n      dup4\n      mstore\n      swap2\n      0x20\n      add\n      swap2\n      jump(tag_142)\n    tag_143:\n      dup3\n      add\n      swap2\n      swap1\n      0x00\n      mstore\n      keccak256(0x00, 0x20)\n      swap1\n    tag_144:\n      dup2\n      sload\n      dup2\n      mstore\n      swap1\n      0x01\n      add\n      swap1\n      0x20\n      add\n      dup1\n      dup4\n      gt\n      tag_144\n      jumpi\n      dup3\n      swap1\n      sub\n      0x1f\n      and\n      dup3\n      add\n      swap2\n    tag_142:\n      pop\n      pop\n      pop\n      pop\n      pop\n      dup2\n      jump\t// out\n        /* \"src/ERC20.sol\":5257:5459  function burn(address from, uint256 amount) external ... */\n    tag_62:\n        /* \"src/ERC20.sol\":5330:5340  tokenOwner */\n      0x05\n      0x00\n      swap1\n      sload\n      swap1\n      0x0100\n      exp\n      swap1\n      div\n      0xffffffffffffffffffffffffffffffffffffffff\n      and\n        /* \"src/ERC20.sol\":1323:1334  _authorized */\n      dup1\n        /* \"src/ERC20.sol\":1309:1334  msg.sender == _authorized */\n      0xffffffffffffffffffffffffffffffffffffffff\n      and\n        /* \"src/ERC20.sol\":1309:1319  msg.sender */\n      caller\n        /* \"src/ERC20.sol\":1309:1334  msg.sender == _authorized */\n      0xffffffffffffffffffffffffffffffffffffffff\n      and\n      eq\n        /* \"src/ERC20.sol\":1301:1363  require(msg.sender == _authorized, \"Caller is not authorized\") */\n      tag_146\n      jumpi\n      mload(0x40)\n      0x08c379a000000000000000000000000000000000000000000000000000000000\n      dup2\n      mstore\n      0x04\n      add\n      tag_147\n      swap1\n      tag_128\n      jump\t// in\n    tag_147:\n      mload(0x40)\n      dup1\n      swap2\n      sub\n      swap1\n      revert\n    tag_146:\n        /* \"src/ERC20.sol\":5366:5372  amount */\n      dup2\n        /* \"src/ERC20.sol\":1604:1605  0 */\n      0x00\n        /* \"src/ERC20.sol\":1593:1600  _amount */\n      dup2\n        /* \"src/ERC20.sol\":1593:1605  _amount != 0 */\n      sub\n        /* \"src/ERC20.sol\":1585:1642  require(_amount != 0, \"Amount must be greater than zero\") */\n      tag_149\n      jumpi\n      mload(0x40)\n      0x08c379a000000000000000000000000000000000000000000000000000000000\n      dup2\n      mstore\n      0x04\n      add\n      tag_150\n      swap1\n      tag_94\n      jump\t// in\n    tag_150:\n      mload(0x40)\n      dup1\n      swap2\n      sub\n      swap1\n      revert\n    tag_149:\n        /* \"src/ERC20.sol\":5401:5405  from */\n      dup4\n        /* \"src/ERC20.sol\":5407:5413  amount */\n      dup4\n        /* \"src/ERC20.sol\":980:987  _amount */\n      dup1\n        /* \"src/ERC20.sol\":958:967  balanceOf */\n      0x07\n        /* \"src/ERC20.sol\":958:976  balanceOf[_sender] */\n      0x00\n        /* \"src/ERC20.sol\":968:975  _sender */\n      dup5\n        /* \"src/ERC20.sol\":958:976  balanceOf[_sender] */\n      0xffffffffffffffffffffffffffffffffffffffff\n      and\n      0xffffffffffffffffffffffffffffffffffffffff\n      and\n      dup2\n      mstore\n      0x20\n      add\n      swap1\n      dup2\n      mstore\n      0x20\n      add\n      0x00\n      keccak256\n      sload\n        /* \"src/ERC20.sol\":958:987  balanceOf[_sender] >= _amount */\n      lt\n      iszero\n        /* \"src/ERC20.sol\":950:1031  require(balanceOf[_sender] >= _amount, \"Caller does not have sufficient balance\") */\n      tag_152\n      jumpi\n      mload(0x40)\n      0x08c379a000000000000000000000000000000000000000000000000000000000\n      dup2\n      mstore\n      0x04\n      add\n      tag_153\n      swap1\n      tag_102\n      jump\t// in\n    tag_153:\n      mload(0x40)\n      dup1\n      swap2\n      sub\n      swap1\n      revert\n    tag_152:\n        /* \"src/ERC20.sol\":5432:5451  _burn(from, amount) */\n      tag_155\n        /* \"src/ERC20.sol\":5438:5442  from */\n      dup7\n        /* \"src/ERC20.sol\":5444:5450  amount */\n      dup7\n        /* \"src/ERC20.sol\":5432:5437  _burn */\n      tag_156\n        /* \"src/ERC20.sol\":5432:5451  _burn(from, amount) */\n      jump\t// in\n    tag_155:\n        /* \"src/ERC20.sol\":1653:1654  _ */\n      pop\n      pop\n        /* \"src/ERC20.sol\":1374:1375  _ */\n      pop\n        /* \"src/ERC20.sol\":5257:5459  function burn(address from, uint256 amount) external ... */\n      pop\n      pop\n      pop\n      jump\t// out\n        /* \"src/ERC20.sol\":365:390  address public tokenOwner */\n    tag_64:\n      0x05\n      0x00\n      swap1\n      sload\n      swap1\n      0x0100\n      exp\n      swap1\n      div\n      0xffffffffffffffffffffffffffffffffffffffff\n      and\n      dup2\n      jump\t// out\n        /* \"src/ERC20.sol\":2863:3233  function transfer(address recipient, uint256 amount) external ... */\n    tag_68:\n        /* \"src/ERC20.sol\":3057:3061  bool */\n      0x00\n        /* \"src/ERC20.sol\":2949:2955  amount */\n      dup2\n        /* \"src/ERC20.sol\":1604:1605  0 */\n      0x00\n        /* \"src/ERC20.sol\":1593:1600  _amount */\n      dup2\n        /* \"src/ERC20.sol\":1593:1605  _amount != 0 */\n      sub\n        /* \"src/ERC20.sol\":1585:1642  require(_amount != 0, \"Amount must be greater than zero\") */\n      tag_158\n      jumpi\n      mload(0x40)\n      0x08c379a000000000000000000000000000000000000000000000000000000000\n      dup2\n      mstore\n      0x04\n      add\n      tag_159\n      swap1\n      tag_94\n      jump\t// in\n    tag_159:\n      mload(0x40)\n      dup1\n      swap2\n      sub\n      swap1\n      revert\n    tag_158:\n        /* \"src/ERC20.sol\":2981:2990  recipient */\n      dup4\n        /* \"src/ERC20.sol\":1458:1461  _to */\n      dup1\n        /* \"src/ERC20.sol\":1444:1461  address(0) != _to */\n      0xffffffffffffffffffffffffffffffffffffffff\n      and\n        /* \"src/ERC20.sol\":1452:1453  0 */\n      0x00\n        /* \"src/ERC20.sol\":1444:1461  address(0) != _to */\n      0xffffffffffffffffffffffffffffffffffffffff\n      and\n      sub\n        /* \"src/ERC20.sol\":1436:1509  require(address(0) != _to, \"Transfer to the zero address is not allowed\") */\n      tag_161\n      jumpi\n      mload(0x40)\n      0x08c379a000000000000000000000000000000000000000000000000000000000\n      dup2\n      mstore\n      0x04\n      add\n      tag_162\n      swap1\n      tag_98\n      jump\t// in\n    tag_162:\n      mload(0x40)\n      dup1\n      swap2\n      sub\n      swap1\n      revert\n    tag_161:\n        /* \"src/ERC20.sol\":3019:3029  msg.sender */\n      caller\n        /* \"src/ERC20.sol\":3031:3037  amount */\n      dup5\n        /* \"src/ERC20.sol\":980:987  _amount */\n      dup1\n        /* \"src/ERC20.sol\":958:967  balanceOf */\n      0x07\n        /* \"src/ERC20.sol\":958:976  balanceOf[_sender] */\n      0x00\n        /* \"src/ERC20.sol\":968:975  _sender */\n      dup5\n        /* \"src/ERC20.sol\":958:976  balanceOf[_sender] */\n      0xffffffffffffffffffffffffffffffffffffffff\n      and\n      0xffffffffffffffffffffffffffffffffffffffff\n      and\n      dup2\n      mstore\n      0x20\n      add\n      swap1\n      dup2\n      mstore\n      0x20\n      add\n      0x00\n      keccak256\n      sload\n        /* \"src/ERC20.sol\":958:987  balanceOf[_sender] >= _amount */\n      lt\n      iszero\n        /* \"src/ERC20.sol\":950:1031  require(balanceOf[_sender] >= _amount, \"Caller does not have sufficient balance\") */\n      tag_164\n      jumpi\n      mload(0x40)\n      0x08c379a000000000000000000000000000000000000000000000000000000000\n      dup2\n      mstore\n      0x04\n      add\n      tag_165\n      swap1\n      tag_102\n      jump\t// in\n    tag_165:\n      mload(0x40)\n      dup1\n      swap2\n      sub\n      swap1\n      revert\n    tag_164:\n        /* \"src/ERC20.sol\":3103:3109  amount */\n      dup6\n        /* \"src/ERC20.sol\":3080:3089  balanceOf */\n      0x07\n        /* \"src/ERC20.sol\":3080:3101  balanceOf[msg.sender] */\n      0x00\n        /* \"src/ERC20.sol\":3090:3100  msg.sender */\n      caller\n        /* \"src/ERC20.sol\":3080:3101  balanceOf[msg.sender] */\n      0xffffffffffffffffffffffffffffffffffffffff\n      and\n      0xffffffffffffffffffffffffffffffffffffffff\n      and\n      dup2\n      mstore\n      0x20\n      add\n      swap1\n      dup2\n      mstore\n      0x20\n      add\n      0x00\n      keccak256\n      0x00\n        /* \"src/ERC20.sol\":3080:3109  balanceOf[msg.sender]-=amount */\n      dup3\n      dup3\n      sload\n      tag_167\n      swap2\n      swap1\n      tag_120\n      jump\t// in\n    tag_167:\n      swap3\n      pop\n      pop\n      dup2\n      swap1\n      sstore\n      pop\n        /* \"src/ERC20.sol\":3142:3148  amount */\n      dup6\n        /* \"src/ERC20.sol\":3120:3129  balanceOf */\n      0x07\n        /* \"src/ERC20.sol\":3120:3140  balanceOf[recipient] */\n      0x00\n        /* \"src/ERC20.sol\":3130:3139  recipient */\n      dup10\n        /* \"src/ERC20.sol\":3120:3140  balanceOf[recipient] */\n      0xffffffffffffffffffffffffffffffffffffffff\n      and\n      0xffffffffffffffffffffffffffffffffffffffff\n      and\n      dup2\n      mstore\n      0x20\n      add\n      swap1\n      dup2\n      mstore\n      0x20\n      add\n      0x00\n      keccak256\n      0x00\n        /* \"src/ERC20.sol\":3120:3148  balanceOf[recipient]+=amount */\n      dup3\n      dup3\n      sload\n      tag_168\n      swap2\n      swap1\n      tag_123\n      jump\t// in\n    tag_168:\n      swap3\n      pop\n      pop\n      dup2\n      swap1\n      sstore\n      pop\n        /* \"src/ERC20.sol\":3185:3194  recipient */\n      dup7\n        /* \"src/ERC20.sol\":3164:3203  Transfer(msg.sender, recipient, amount) */\n      0xffffffffffffffffffffffffffffffffffffffff\n      and\n        /* \"src/ERC20.sol\":3173:3183  msg.sender */\n      caller\n        /* \"src/ERC20.sol\":3164:3203  Transfer(msg.sender, recipient, amount) */\n      0xffffffffffffffffffffffffffffffffffffffff\n      and\n      0xddf252ad1be2c89b69c2b068fc378daa952ba7f163c4a11628f55a4df523b3ef\n        /* \"src/ERC20.sol\":3196:3202  amount */\n      dup9\n        /* \"src/ERC20.sol\":3164:3203  Transfer(msg.sender, recipient, amount) */\n      mload(0x40)\n      tag_169\n      swap2\n      swap1\n      tag_35\n      jump\t// in\n    tag_169:\n      mload(0x40)\n      dup1\n      swap2\n      sub\n      swap1\n      log3\n        /* \"src/ERC20.sol\":3221:3225  true */\n      0x01\n        /* \"src/ERC20.sol\":3214:3225  return true */\n      swap5\n      pop\n        /* \"src/ERC20.sol\":1520:1521  _ */\n      pop\n      pop\n        /* \"src/ERC20.sol\":1653:1654  _ */\n      pop\n        /* \"src/ERC20.sol\":2863:3233  function transfer(address recipient, uint256 amount) external ... */\n      pop\n      swap3\n      swap2\n      pop\n      pop\n      jump\t// out\n        /* \"src/ERC20.sol\":2064:2454  function TransferTokenOwnership(address _nextTokenOwner) external ... */\n    tag_72:\n        /* \"src/ERC20.sol\":2220:2224  bool */\n      0x00\n        /* \"src/ERC20.sol\":2150:2160  tokenOwner */\n      0x05\n      0x00\n      swap1\n      sload\n      swap1\n      0x0100\n      exp\n      swap1\n      div\n      0xffffffffffffffffffffffffffffffffffffffff\n      and\n        /* \"src/ERC20.sol\":1323:1334  _authorized */\n      dup1\n        /* \"src/ERC20.sol\":1309:1334  msg.sender == _authorized */\n      0xffffffffffffffffffffffffffffffffffffffff\n      and\n        /* \"src/ERC20.sol\":1309:1319  msg.sender */\n      caller\n        /* \"src/ERC20.sol\":1309:1334  msg.sender == _authorized */\n      0xffffffffffffffffffffffffffffffffffffffff\n      and\n      eq\n        /* \"src/ERC20.sol\":1301:1363  require(msg.sender == _authorized, \"Caller is not authorized\") */\n      tag_171\n      jumpi\n      mload(0x40)\n      0x08c379a000000000000000000000000000000000000000000000000000000000\n      dup2\n      mstore\n      0x04\n      add\n      tag_172\n      swap1\n      tag_128\n      jump\t// in\n    tag_172:\n      mload(0x40)\n      dup1\n      swap2\n      sub\n      swap1\n      revert\n    tag_171:\n        /* \"src/ERC20.sol\":2186:2201  _nextTokenOwner */\n      dup3\n        /* \"src/ERC20.sol\":1458:1461  _to */\n      dup1\n        /* \"src/ERC20.sol\":1444:1461  address(0) != _to */\n      0xffffffffffffffffffffffffffffffffffffffff\n      and\n        /* \"src/ERC20.sol\":1452:1453  0 */\n      0x00\n        /* \"src/ERC20.sol\":1444:1461  address(0) != _to */\n      0xffffffffffffffffffffffffffffffffffffffff\n      and\n      sub\n        /* \"src/ERC20.sol\":1436:1509  require(address(0) != _to, \"Transfer to the zero address is not allowed\") */\n      tag_174\n      jumpi\n      mload(0x40)\n      0x08c379a000000000000000000000000000000000000000000000000000000000\n      dup2\n      mstore\n      0x04\n      add\n      tag_175\n      swap1\n      tag_98\n      jump\t// in\n    tag_175:\n      mload(0x40)\n      dup1\n      swap2\n      sub\n      swap1\n      revert\n    tag_174:\n        /* \"src/ERC20.sol\":2276:2277  0 */\n      0x00\n        /* \"src/ERC20.sol\":2250:2278  nextTokenOwner != address(0) */\n      0xffffffffffffffffffffffffffffffffffffffff\n      and\n        /* \"src/ERC20.sol\":2250:2264  nextTokenOwner */\n      0x06\n      0x00\n      swap1\n      sload\n      swap1\n      0x0100\n      exp\n      swap1\n      div\n      0xffffffffffffffffffffffffffffffffffffffff\n      and\n        /* \"src/ERC20.sol\":2250:2278  nextTokenOwner != address(0) */\n      0xffffffffffffffffffffffffffffffffffffffff\n      and\n      sub\n        /* \"src/ERC20.sol\":2242:2308  require(nextTokenOwner != address(0), \"Invalid new owner address\") */\n      tag_177\n      jumpi\n      mload(0x40)\n      0x08c379a000000000000000000000000000000000000000000000000000000000\n      dup2\n      mstore\n      0x04\n      add\n      tag_178\n      swap1\n      tag_179\n      jump\t// in\n    tag_178:\n      mload(0x40)\n      dup1\n      swap2\n      sub\n      swap1\n      revert\n    tag_177:\n        /* \"src/ERC20.sol\":2336:2351  _nextTokenOwner */\n      dup4\n        /* \"src/ERC20.sol\":2319:2333  nextTokenOwner */\n      0x06\n      0x00\n        /* \"src/ERC20.sol\":2319:2351  nextTokenOwner = _nextTokenOwner */\n      0x0100\n      exp\n      dup2\n      sload\n      dup2\n      0xffffffffffffffffffffffffffffffffffffffff\n      mul\n      not\n      and\n      swap1\n      dup4\n      0xffffffffffffffffffffffffffffffffffffffff\n      and\n      mul\n      or\n      swap1\n      sstore\n      pop\n        /* \"src/ERC20.sol\":2409:2423  nextTokenOwner */\n      0x06\n      0x00\n      swap1\n      sload\n      swap1\n      0x0100\n      exp\n      swap1\n      div\n      0xffffffffffffffffffffffffffffffffffffffff\n      and\n        /* \"src/ERC20.sol\":2367:2424  TokenOwnershipTransferStarted(tokenOwner, nextTokenOwner) */\n      0xffffffffffffffffffffffffffffffffffffffff\n      and\n        /* \"src/ERC20.sol\":2397:2407  tokenOwner */\n      0x05\n      0x00\n      swap1\n      sload\n      swap1\n      0x0100\n      exp\n      swap1\n      div\n      0xffffffffffffffffffffffffffffffffffffffff\n      and\n        /* \"src/ERC20.sol\":2367:2424  TokenOwnershipTransferStarted(tokenOwner, nextTokenOwner) */\n      0xffffffffffffffffffffffffffffffffffffffff\n      and\n      0x79d2e4ff11f0c38e318513361054112b3865ca4f53b3c97152af0640db000e25\n      mload(0x40)\n      mload(0x40)\n      dup1\n      swap2\n      sub\n      swap1\n      log3\n        /* \"src/ERC20.sol\":2442:2446  true */\n      0x01\n        /* \"src/ERC20.sol\":2435:2446  return true */\n      swap3\n      pop\n        /* \"src/ERC20.sol\":1374:1375  _ */\n      pop\n        /* \"src/ERC20.sol\":2064:2454  function TransferTokenOwnership(address _nextTokenOwner) external ... */\n      pop\n      swap2\n      swap1\n      pop\n      jump\t// out\n        /* \"src/ERC20.sol\":2553:2796  function ClaimTokenOwnership() external allowOnly(nextTokenOwner) returns(bool){... */\n    tag_75:\n        /* \"src/ERC20.sol\":2627:2631  bool */\n      0x00\n        /* \"src/ERC20.sol\":2603:2617  nextTokenOwner */\n      0x06\n      0x00\n      swap1\n      sload\n      swap1\n      0x0100\n      exp\n      swap1\n      div\n      0xffffffffffffffffffffffffffffffffffffffff\n      and\n        /* \"src/ERC20.sol\":1323:1334  _authorized */\n      dup1\n        /* \"src/ERC20.sol\":1309:1334  msg.sender == _authorized */\n      0xffffffffffffffffffffffffffffffffffffffff\n      and\n        /* \"src/ERC20.sol\":1309:1319  msg.sender */\n      caller\n        /* \"src/ERC20.sol\":1309:1334  msg.sender == _authorized */\n      0xffffffffffffffffffffffffffffffffffffffff\n      and\n      eq\n        /* \"src/ERC20.sol\":1301:1363  require(msg.sender == _authorized, \"Caller is not authorized\") */\n      tag_181\n      jumpi\n      mload(0x40)\n      0x08c379a000000000000000000000000000000000000000000000000000000000\n      dup2\n      mstore\n      0x04\n      add\n      tag_182\n      swap1\n      tag_128\n      jump\t// in\n    tag_182:\n      mload(0x40)\n      dup1\n      swap2\n      sub\n      swap1\n      revert\n    tag_181:\n        /* \"src/ERC20.sol\":2656:2670  nextTokenOwner */\n      0x06\n      0x00\n      swap1\n      sload\n      swap1\n      0x0100\n      exp\n      swap1\n      div\n      0xffffffffffffffffffffffffffffffffffffffff\n      and\n        /* \"src/ERC20.sol\":2643:2653  tokenOwner */\n      0x05\n      0x00\n        /* \"src/ERC20.sol\":2643:2670  tokenOwner = nextTokenOwner */\n      0x0100\n      exp\n      dup2\n      sload\n      dup2\n      0xffffffffffffffffffffffffffffffffffffffff\n      mul\n      not\n      and\n      swap1\n      dup4\n      0xffffffffffffffffffffffffffffffffffffffff\n      and\n      mul\n      or\n      swap1\n      sstore\n      pop\n        /* \"src/ERC20.sol\":2706:2707  0 */\n      0x00\n        /* \"src/ERC20.sol\":2681:2695  nextTokenOwner */\n      0x06\n      0x00\n        /* \"src/ERC20.sol\":2681:2708  nextTokenOwner = address(0) */\n      0x0100\n      exp\n      dup2\n      sload\n      dup2\n      0xffffffffffffffffffffffffffffffffffffffff\n      mul\n      not\n      and\n      swap1\n      dup4\n      0xffffffffffffffffffffffffffffffffffffffff\n      and\n      mul\n      or\n      swap1\n      sstore\n      pop\n        /* \"src/ERC20.sol\":2755:2765  tokenOwner */\n      0x05\n      0x00\n      swap1\n      sload\n      swap1\n      0x0100\n      exp\n      swap1\n      div\n      0xffffffffffffffffffffffffffffffffffffffff\n      and\n        /* \"src/ERC20.sol\":2724:2766  TokenOwnershipTransferFinished(tokenOwner) */\n      0xffffffffffffffffffffffffffffffffffffffff\n      and\n      0x96a25b4900cebf93ed691b1c763e37a5a01cd4b9b62e0df10688a47856def7a5\n      mload(0x40)\n      mload(0x40)\n      dup1\n      swap2\n      sub\n      swap1\n      log2\n        /* \"src/ERC20.sol\":2784:2788  true */\n      0x01\n        /* \"src/ERC20.sol\":2777:2788  return true */\n      swap2\n      pop\n        /* \"src/ERC20.sol\":2553:2796  function ClaimTokenOwnership() external allowOnly(nextTokenOwner) returns(bool){... */\n      pop\n      swap1\n      jump\t// out\n        /* \"src/ERC20.sol\":334:358  uint256 public maxSupply */\n    tag_78:\n      sload(0x04)\n      dup2\n      jump\t// out\n        /* \"src/ERC20.sol\":484:548  mapping(address => mapping(address => uint256)) public allowance */\n    tag_83:\n      mstore(0x20, 0x08)\n      dup2\n      0x00\n      mstore\n      mstore(0x20, keccak256(0x00, 0x40))\n      dup1\n      0x00\n      mstore\n      keccak256(0x00, 0x40)\n      0x00\n      swap2\n      pop\n      swap2\n      pop\n      pop\n      sload\n      dup2\n      jump\t// out\n        /* \"src/ERC20.sol\":4362:4536  function _mint(address to, uint256 amount) internal {... */\n    tag_139:\n        /* \"src/ERC20.sol\":4442:4448  amount */\n      dup1\n        /* \"src/ERC20.sol\":4425:4434  balanceOf */\n      0x07\n        /* \"src/ERC20.sol\":4425:4438  balanceOf[to] */\n      0x00\n        /* \"src/ERC20.sol\":4435:4437  to */\n      dup5\n        /* \"src/ERC20.sol\":4425:4438  balanceOf[to] */\n      0xffffffffffffffffffffffffffffffffffffffff\n      and\n      0xffffffffffffffffffffffffffffffffffffffff\n      and\n      dup2\n      mstore\n      0x20\n      add\n      swap1\n      dup2\n      mstore\n      0x20\n      add\n      0x00\n      keccak256\n      0x00\n        /* \"src/ERC20.sol\":4425:4448  balanceOf[to] += amount */\n      dup3\n      dup3\n      sload\n      tag_185\n      swap2\n      swap1\n      tag_123\n      jump\t// in\n    tag_185:\n      swap3\n      pop\n      pop\n      dup2\n      swap1\n      sstore\n      pop\n        /* \"src/ERC20.sol\":4474:4480  amount */\n      dup1\n        /* \"src/ERC20.sol\":4459:4470  totalSupply */\n      0x03\n      0x00\n        /* \"src/ERC20.sol\":4459:4480  totalSupply += amount */\n      dup3\n      dup3\n      sload\n      tag_186\n      swap2\n      swap1\n      tag_123\n      jump\t// in\n    tag_186:\n      swap3\n      pop\n      pop\n      dup2\n      swap1\n      sstore\n      pop\n        /* \"src/ERC20.sol\":4517:4519  to */\n      dup2\n        /* \"src/ERC20.sol\":4496:4528  Transfer(address(0), to, amount) */\n      0xffffffffffffffffffffffffffffffffffffffff\n      and\n        /* \"src/ERC20.sol\":4513:4514  0 */\n      0x00\n        /* \"src/ERC20.sol\":4496:4528  Transfer(address(0), to, amount) */\n      0xffffffffffffffffffffffffffffffffffffffff\n      and\n      0xddf252ad1be2c89b69c2b068fc378daa952ba7f163c4a11628f55a4df523b3ef\n        /* \"src/ERC20.sol\":4521:4527  amount */\n      dup4\n        /* \"src/ERC20.sol\":4496:4528  Transfer(address(0), to, amount) */\n      mload(0x40)\n      tag_187\n      swap2\n      swap1\n      tag_35\n      jump\t// in\n    tag_187:\n      mload(0x40)\n      dup1\n      swap2\n      sub\n      swap1\n      log3\n        /* \"src/ERC20.sol\":4362:4536  function _mint(address to, uint256 amount) internal {... */\n      pop\n      pop\n      jump\t// out\n        /* \"src/ERC20.sol\":4968:5148  function _burn(address from, uint256 amount) internal {... */\n    tag_156:\n        /* \"src/ERC20.sol\":5052:5058  amount */\n      dup1\n        /* \"src/ERC20.sol\":5033:5042  balanceOf */\n      0x07\n        /* \"src/ERC20.sol\":5033:5048  balanceOf[from] */\n      0x00\n        /* \"src/ERC20.sol\":5043:5047  from */\n      dup5\n        /* \"src/ERC20.sol\":5033:5048  balanceOf[from] */\n      0xffffffffffffffffffffffffffffffffffffffff\n      and\n      0xffffffffffffffffffffffffffffffffffffffff\n      and\n      dup2\n      mstore\n      0x20\n      add\n      swap1\n      dup2\n      mstore\n      0x20\n      add\n      0x00\n      keccak256\n      0x00\n        /* \"src/ERC20.sol\":5033:5058  balanceOf[from] -= amount */\n      dup3\n      dup3\n      sload\n      tag_189\n      swap2\n      swap1\n      tag_120\n      jump\t// in\n    tag_189:\n      swap3\n      pop\n      pop\n      dup2\n      swap1\n      sstore\n      pop\n        /* \"src/ERC20.sol\":5084:5090  amount */\n      dup1\n        /* \"src/ERC20.sol\":5069:5080  totalSupply */\n      0x03\n      0x00\n        /* \"src/ERC20.sol\":5069:5090  totalSupply -= amount */\n      dup3\n      dup3\n      sload\n      tag_190\n      swap2\n      swap1\n      tag_120\n      jump\t// in\n    tag_190:\n      swap3\n      pop\n      pop\n      dup2\n      swap1\n      sstore\n      pop\n        /* \"src/ERC20.sol\":5129:5130  0 */\n      0x00\n        /* \"src/ERC20.sol\":5106:5140  Transfer(from, address(0), amount) */\n      0xffffffffffffffffffffffffffffffffffffffff\n      and\n        /* \"src/ERC20.sol\":5115:5119  from */\n      dup3\n        /* \"src/ERC20.sol\":5106:5140  Transfer(from, address(0), amount) */\n      0xffffffffffffffffffffffffffffffffffffffff\n      and\n      0xddf252ad1be2c89b69c2b068fc378daa952ba7f163c4a11628f55a4df523b3ef\n        /* \"src/ERC20.sol\":5133:5139  amount */\n      dup4\n        /* \"src/ERC20.sol\":5106:5140  Transfer(from, address(0), amount) */\n      mload(0x40)\n      tag_191\n      swap2\n      swap1\n      tag_35\n      jump\t// in\n    tag_191:\n      mload(0x40)\n      dup1\n      swap2\n      sub\n      swap1\n      log3\n        /* \"src/ERC20.sol\":4968:5148  function _burn(address from, uint256 amount) internal {... */\n      pop\n      pop\n      jump\t// out\n        /* \"#utility.yul\":7:106   */\n    tag_192:\n        /* \"#utility.yul\":59:65   */\n      0x00\n        /* \"#utility.yul\":93:98   */\n      dup2\n        /* \"#utility.yul\":87:99   */\n      mload\n        /* \"#utility.yul\":77:99   */\n      swap1\n      pop\n        /* \"#utility.yul\":7:106   */\n      swap2\n      swap1\n      pop\n      jump\t// out\n        /* \"#utility.yul\":112:281   */\n    tag_193:\n        /* \"#utility.yul\":196:207   */\n      0x00\n        /* \"#utility.yul\":230:236   */\n      dup3\n        /* \"#utility.yul\":225:228   */\n      dup3\n        /* \"#utility.yul\":218:237   */\n      mstore\n        /* \"#utility.yul\":270:274   */\n      0x20\n        /* \"#utility.yul\":265:268   */\n      dup3\n        /* \"#utility.yul\":261:275   */\n      add\n        /* \"#utility.yul\":246:275   */\n      swap1\n      pop\n        /* \"#utility.yul\":112:281   */\n      swap3\n      swap2\n      pop\n      pop\n      jump\t// out\n        /* \"#utility.yul\":287:426   */\n    tag_194:\n        /* \"#utility.yul\":376:382   */\n      dup3\n        /* \"#utility.yul\":371:374   */\n      dup2\n        /* \"#utility.yul\":366:369   */\n      dup4\n        /* \"#utility.yul\":360:383   */\n      mcopy\n        /* \"#utility.yul\":417:418   */\n      0x00\n        /* \"#utility.yul\":408:414   */\n      dup4\n        /* \"#utility.yul\":403:406   */\n      dup4\n        /* \"#utility.yul\":399:415   */\n      add\n        /* \"#utility.yul\":392:419   */\n      mstore\n        /* \"#utility.yul\":287:426   */\n      pop\n      pop\n      pop\n      jump\t// out\n        /* \"#utility.yul\":432:534   */\n    tag_195:\n        /* \"#utility.yul\":473:479   */\n      0x00\n        /* \"#utility.yul\":524:526   */\n      0x1f\n        /* \"#utility.yul\":520:527   */\n      not\n        /* \"#utility.yul\":515:517   */\n      0x1f\n        /* \"#utility.yul\":508:513   */\n      dup4\n        /* \"#utility.yul\":504:518   */\n      add\n        /* \"#utility.yul\":500:528   */\n      and\n        /* \"#utility.yul\":490:528   */\n      swap1\n      pop\n        /* \"#utility.yul\":432:534   */\n      swap2\n      swap1\n      pop\n      jump\t// out\n        /* \"#utility.yul\":540:917   */\n    tag_196:\n        /* \"#utility.yul\":628:631   */\n      0x00\n        /* \"#utility.yul\":656:695   */\n      tag_233\n        /* \"#utility.yul\":689:694   */\n      dup3\n        /* \"#utility.yul\":656:695   */\n      tag_192\n      jump\t// in\n    tag_233:\n        /* \"#utility.yul\":711:782   */\n      tag_234\n        /* \"#utility.yul\":775:781   */\n      dup2\n        /* \"#utility.yul\":770:773   */\n      dup6\n        /* \"#utility.yul\":711:782   */\n      tag_193\n      jump\t// in\n    tag_234:\n        /* \"#utility.yul\":704:782   */\n      swap4\n      pop\n        /* \"#utility.yul\":791:856   */\n      tag_235\n        /* \"#utility.yul\":849:855   */\n      dup2\n        /* \"#utility.yul\":844:847   */\n      dup6\n        /* \"#utility.yul\":837:841   */\n      0x20\n        /* \"#utility.yul\":830:835   */\n      dup7\n        /* \"#utility.yul\":826:842   */\n      add\n        /* \"#utility.yul\":791:856   */\n      tag_194\n      jump\t// in\n    tag_235:\n        /* \"#utility.yul\":881:910   */\n      tag_236\n        /* \"#utility.yul\":903:909   */\n      dup2\n        /* \"#utility.yul\":881:910   */\n      tag_195\n      jump\t// in\n    tag_236:\n        /* \"#utility.yul\":876:879   */\n      dup5\n        /* \"#utility.yul\":872:911   */\n      add\n        /* \"#utility.yul\":865:911   */\n      swap2\n      pop\n        /* \"#utility.yul\":632:917   */\n      pop\n        /* \"#utility.yul\":540:917   */\n      swap3\n      swap2\n      pop\n      pop\n      jump\t// out\n        /* \"#utility.yul\":923:1236   */\n    tag_25:\n        /* \"#utility.yul\":1036:1040   */\n      0x00\n        /* \"#utility.yul\":1074:1076   */\n      0x20\n        /* \"#utility.yul\":1063:1072   */\n      dup3\n        /* \"#utility.yul\":1059:1077   */\n      add\n        /* \"#utility.yul\":1051:1077   */\n      swap1\n      pop\n        /* \"#utility.yul\":1123:1132   */\n      dup2\n        /* \"#utility.yul\":1117:1121   */\n      dup2\n        /* \"#utility.yul\":1113:1133   */\n      sub\n        /* \"#utility.yul\":1109:1110   */\n      0x00\n        /* \"#utility.yul\":1098:1107   */\n      dup4\n        /* \"#utility.yul\":1094:1111   */\n      add\n        /* \"#utility.yul\":1087:1134   */\n      mstore\n        /* \"#utility.yul\":1151:1229   */\n      tag_238\n        /* \"#utility.yul\":1224:1228   */\n      dup2\n        /* \"#utility.yul\":1215:1221   */\n      dup5\n        /* \"#utility.yul\":1151:1229   */\n      tag_196\n      jump\t// in\n    tag_238:\n        /* \"#utility.yul\":1143:1229   */\n      swap1\n      pop\n        /* \"#utility.yul\":923:1236   */\n      swap3\n      swap2\n      pop\n      pop\n      jump\t// out\n        /* \"#utility.yul\":1323:1440   */\n    tag_198:\n        /* \"#utility.yul\":1432:1433   */\n      0x00\n        /* \"#utility.yul\":1429:1430   */\n      dup1\n        /* \"#utility.yul\":1422:1434   */\n      revert\n        /* \"#utility.yul\":1569:1695   */\n    tag_200:\n        /* \"#utility.yul\":1606:1613   */\n      0x00\n        /* \"#utility.yul\":1646:1688   */\n      0xffffffffffffffffffffffffffffffffffffffff\n        /* \"#utility.yul\":1639:1644   */\n      dup3\n        /* \"#utility.yul\":1635:1689   */\n      and\n        /* \"#utility.yul\":1624:1689   */\n      swap1\n      pop\n        /* \"#utility.yul\":1569:1695   */\n      swap2\n      swap1\n      pop\n      jump\t// out\n        /* \"#utility.yul\":1701:1797   */\n    tag_201:\n        /* \"#utility.yul\":1738:1745   */\n      0x00\n        /* \"#utility.yul\":1767:1791   */\n      tag_244\n        /* \"#utility.yul\":1785:1790   */\n      dup3\n        /* \"#utility.yul\":1767:1791   */\n      tag_200\n      jump\t// in\n    tag_244:\n        /* \"#utility.yul\":1756:1791   */\n      swap1\n      pop\n        /* \"#utility.yul\":1701:1797   */\n      swap2\n      swap1\n      pop\n      jump\t// out\n        /* \"#utility.yul\":1803:1925   */\n    tag_202:\n        /* \"#utility.yul\":1876:1900   */\n      tag_246\n        /* \"#utility.yul\":1894:1899   */\n      dup2\n        /* \"#utility.yul\":1876:1900   */\n      tag_201\n      jump\t// in\n    tag_246:\n        /* \"#utility.yul\":1869:1874   */\n      dup2\n        /* \"#utility.yul\":1866:1901   */\n      eq\n        /* \"#utility.yul\":1856:1919   */\n      tag_247\n      jumpi\n        /* \"#utility.yul\":1915:1916   */\n      0x00\n        /* \"#utility.yul\":1912:1913   */\n      dup1\n        /* \"#utility.yul\":1905:1917   */\n      revert\n        /* \"#utility.yul\":1856:1919   */\n    tag_247:\n        /* \"#utility.yul\":1803:1925   */\n      pop\n      jump\t// out\n        /* \"#utility.yul\":1931:2070   */\n    tag_203:\n        /* \"#utility.yul\":1977:1982   */\n      0x00\n        /* \"#utility.yul\":2015:2021   */\n      dup2\n        /* \"#utility.yul\":2002:2022   */\n      calldataload\n        /* \"#utility.yul\":1993:2022   */\n      swap1\n      pop\n        /* \"#utility.yul\":2031:2064   */\n      tag_249\n        /* \"#utility.yul\":2058:2063   */\n      dup2\n        /* \"#utility.yul\":2031:2064   */\n      tag_202\n      jump\t// in\n    tag_249:\n        /* \"#utility.yul\":1931:2070   */\n      swap3\n      swap2\n      pop\n      pop\n      jump\t// out\n        /* \"#utility.yul\":2076:2153   */\n    tag_204:\n        /* \"#utility.yul\":2113:2120   */\n      0x00\n        /* \"#utility.yul\":2142:2147   */\n      dup2\n        /* \"#utility.yul\":2131:2147   */\n      swap1\n      pop\n        /* \"#utility.yul\":2076:2153   */\n      swap2\n      swap1\n      pop\n      jump\t// out\n        /* \"#utility.yul\":2159:2281   */\n    tag_205:\n        /* \"#utility.yul\":2232:2256   */\n      tag_252\n        /* \"#utility.yul\":2250:2255   */\n      dup2\n        /* \"#utility.yul\":2232:2256   */\n      tag_204\n      jump\t// in\n    tag_252:\n        /* \"#utility.yul\":2225:2230   */\n      dup2\n        /* \"#utility.yul\":2222:2257   */\n      eq\n        /* \"#utility.yul\":2212:2275   */\n      tag_253\n      jumpi\n        /* \"#utility.yul\":2271:2272   */\n      0x00\n        /* \"#utility.yul\":2268:2269   */\n      dup1\n        /* \"#utility.yul\":2261:2273   */\n      revert\n        /* \"#utility.yul\":2212:2275   */\n    tag_253:\n        /* \"#utility.yul\":2159:2281   */\n      pop\n      jump\t// out\n        /* \"#utility.yul\":2287:2426   */\n    tag_206:\n        /* \"#utility.yul\":2333:2338   */\n      0x00\n        /* \"#utility.yul\":2371:2377   */\n      dup2\n        /* \"#utility.yul\":2358:2378   */\n      calldataload\n        /* \"#utility.yul\":2349:2378   */\n      swap1\n      pop\n        /* \"#utility.yul\":2387:2420   */\n      tag_255\n        /* \"#utility.yul\":2414:2419   */\n      dup2\n        /* \"#utility.yul\":2387:2420   */\n      tag_205\n      jump\t// in\n    tag_255:\n        /* \"#utility.yul\":2287:2426   */\n      swap3\n      swap2\n      pop\n      pop\n      jump\t// out\n        /* \"#utility.yul\":2432:2906   */\n    tag_28:\n        /* \"#utility.yul\":2500:2506   */\n      0x00\n        /* \"#utility.yul\":2508:2514   */\n      dup1\n        /* \"#utility.yul\":2557:2559   */\n      0x40\n        /* \"#utility.yul\":2545:2554   */\n      dup4\n        /* \"#utility.yul\":2536:2543   */\n      dup6\n        /* \"#utility.yul\":2532:2555   */\n      sub\n        /* \"#utility.yul\":2528:2560   */\n      slt\n        /* \"#utility.yul\":2525:2644   */\n      iszero\n      tag_257\n      jumpi\n        /* \"#utility.yul\":2563:2642   */\n      tag_258\n      tag_198\n      jump\t// in\n    tag_258:\n        /* \"#utility.yul\":2525:2644   */\n    tag_257:\n        /* \"#utility.yul\":2683:2684   */\n      0x00\n        /* \"#utility.yul\":2708:2761   */\n      tag_259\n        /* \"#utility.yul\":2753:2760   */\n      dup6\n        /* \"#utility.yul\":2744:2750   */\n      dup3\n        /* \"#utility.yul\":2733:2742   */\n      dup7\n        /* \"#utility.yul\":2729:2751   */\n      add\n        /* \"#utility.yul\":2708:2761   */\n      tag_203\n      jump\t// in\n    tag_259:\n        /* \"#utility.yul\":2698:2761   */\n      swap3\n      pop\n        /* \"#utility.yul\":2654:2771   */\n      pop\n        /* \"#utility.yul\":2810:2812   */\n      0x20\n        /* \"#utility.yul\":2836:2889   */\n      tag_260\n        /* \"#utility.yul\":2881:2888   */\n      dup6\n        /* \"#utility.yul\":2872:2878   */\n      dup3\n        /* \"#utility.yul\":2861:2870   */\n      dup7\n        /* \"#utility.yul\":2857:2879   */\n      add\n        /* \"#utility.yul\":2836:2889   */\n      tag_206\n      jump\t// in\n    tag_260:\n        /* \"#utility.yul\":2826:2889   */\n      swap2\n      pop\n        /* \"#utility.yul\":2781:2899   */\n      pop\n        /* \"#utility.yul\":2432:2906   */\n      swap3\n      pop\n      swap3\n      swap1\n      pop\n      jump\t// out\n        /* \"#utility.yul\":2912:3002   */\n    tag_207:\n        /* \"#utility.yul\":2946:2953   */\n      0x00\n        /* \"#utility.yul\":2989:2994   */\n      dup2\n        /* \"#utility.yul\":2982:2995   */\n      iszero\n        /* \"#utility.yul\":2975:2996   */\n      iszero\n        /* \"#utility.yul\":2964:2996   */\n      swap1\n      pop\n        /* \"#utility.yul\":2912:3002   */\n      swap2\n      swap1\n      pop\n      jump\t// out\n        /* \"#utility.yul\":3008:3117   */\n    tag_208:\n        /* \"#utility.yul\":3089:3110   */\n      tag_263\n        /* \"#utility.yul\":3104:3109   */\n      dup2\n        /* \"#utility.yul\":3089:3110   */\n      tag_207\n      jump\t// in\n    tag_263:\n        /* \"#utility.yul\":3084:3087   */\n      dup3\n        /* \"#utility.yul\":3077:3111   */\n      mstore\n        /* \"#utility.yul\":3008:3117   */\n      pop\n      pop\n      jump\t// out\n        /* \"#utility.yul\":3123:3333   */\n    tag_31:\n        /* \"#utility.yul\":3210:3214   */\n      0x00\n        /* \"#utility.yul\":3248:3250   */\n      0x20\n        /* \"#utility.yul\":3237:3246   */\n      dup3\n        /* \"#utility.yul\":3233:3251   */\n      add\n        /* \"#utility.yul\":3225:3251   */\n      swap1\n      pop\n        /* \"#utility.yul\":3261:3326   */\n      tag_265\n        /* \"#utility.yul\":3323:3324   */\n      0x00\n        /* \"#utility.yul\":3312:3321   */\n      dup4\n        /* \"#utility.yul\":3308:3325   */\n      add\n        /* \"#utility.yul\":3299:3305   */\n      dup5\n        /* \"#utility.yul\":3261:3326   */\n      tag_208\n      jump\t// in\n    tag_265:\n        /* \"#utility.yul\":3123:3333   */\n      swap3\n      swap2\n      pop\n      pop\n      jump\t// out\n        /* \"#utility.yul\":3339:3457   */\n    tag_209:\n        /* \"#utility.yul\":3426:3450   */\n      tag_267\n        /* \"#utility.yul\":3444:3449   */\n      dup2\n        /* \"#utility.yul\":3426:3450   */\n      tag_204\n      jump\t// in\n    tag_267:\n        /* \"#utility.yul\":3421:3424   */\n      dup3\n        /* \"#utility.yul\":3414:3451   */\n      mstore\n        /* \"#utility.yul\":3339:3457   */\n      pop\n      pop\n      jump\t// out\n        /* \"#utility.yul\":3463:3685   */\n    tag_35:\n        /* \"#utility.yul\":3556:3560   */\n      0x00\n        /* \"#utility.yul\":3594:3596   */\n      0x20\n        /* \"#utility.yul\":3583:3592   */\n      dup3\n        /* \"#utility.yul\":3579:3597   */\n      add\n        /* \"#utility.yul\":3571:3597   */\n      swap1\n      pop\n        /* \"#utility.yul\":3607:3678   */\n      tag_269\n        /* \"#utility.yul\":3675:3676   */\n      0x00\n        /* \"#utility.yul\":3664:3673   */\n      dup4\n        /* \"#utility.yul\":3660:3677   */\n      add\n        /* \"#utility.yul\":3651:3657   */\n      dup5\n        /* \"#utility.yul\":3607:3678   */\n      tag_209\n      jump\t// in\n    tag_269:\n        /* \"#utility.yul\":3463:3685   */\n      swap3\n      swap2\n      pop\n      pop\n      jump\t// out\n        /* \"#utility.yul\":3691:4310   */\n    tag_38:\n        /* \"#utility.yul\":3768:3774   */\n      0x00\n        /* \"#utility.yul\":3776:3782   */\n      dup1\n        /* \"#utility.yul\":3784:3790   */\n      0x00\n        /* \"#utility.yul\":3833:3835   */\n      0x60\n        /* \"#utility.yul\":3821:3830   */\n      dup5\n        /* \"#utility.yul\":3812:3819   */\n      dup7\n        /* \"#utility.yul\":3808:3831   */\n      sub\n        /* \"#utility.yul\":3804:3836   */\n      slt\n        /* \"#utility.yul\":3801:3920   */\n      iszero\n      tag_271\n      jumpi\n        /* \"#utility.yul\":3839:3918   */\n      tag_272\n      tag_198\n      jump\t// in\n    tag_272:\n        /* \"#utility.yul\":3801:3920   */\n    tag_271:\n        /* \"#utility.yul\":3959:3960   */\n      0x00\n        /* \"#utility.yul\":3984:4037   */\n      tag_273\n        /* \"#utility.yul\":4029:4036   */\n      dup7\n        /* \"#utility.yul\":4020:4026   */\n      dup3\n        /* \"#utility.yul\":4009:4018   */\n      dup8\n        /* \"#utility.yul\":4005:4027   */\n      add\n        /* \"#utility.yul\":3984:4037   */\n      tag_203\n      jump\t// in\n    tag_273:\n        /* \"#utility.yul\":3974:4037   */\n      swap4\n      pop\n        /* \"#utility.yul\":3930:4047   */\n      pop\n        /* \"#utility.yul\":4086:4088   */\n      0x20\n        /* \"#utility.yul\":4112:4165   */\n      tag_274\n        /* \"#utility.yul\":4157:4164   */\n      dup7\n        /* \"#utility.yul\":4148:4154   */\n      dup3\n        /* \"#utility.yul\":4137:4146   */\n      dup8\n        /* \"#utility.yul\":4133:4155   */\n      add\n        /* \"#utility.yul\":4112:4165   */\n      tag_203\n      jump\t// in\n    tag_274:\n        /* \"#utility.yul\":4102:4165   */\n      swap3\n      pop\n        /* \"#utility.yul\":4057:4175   */\n      pop\n        /* \"#utility.yul\":4214:4216   */\n      0x40\n        /* \"#utility.yul\":4240:4293   */\n      tag_275\n        /* \"#utility.yul\":4285:4292   */\n      dup7\n        /* \"#utility.yul\":4276:4282   */\n      dup3\n        /* \"#utility.yul\":4265:4274   */\n      dup8\n        /* \"#utility.yul\":4261:4283   */\n      add\n        /* \"#utility.yul\":4240:4293   */\n      tag_206\n      jump\t// in\n    tag_275:\n        /* \"#utility.yul\":4230:4293   */\n      swap2\n      pop\n        /* \"#utility.yul\":4185:4303   */\n      pop\n        /* \"#utility.yul\":3691:4310   */\n      swap3\n      pop\n      swap3\n      pop\n      swap3\n      jump\t// out\n        /* \"#utility.yul\":4316:4402   */\n    tag_210:\n        /* \"#utility.yul\":4351:4358   */\n      0x00\n        /* \"#utility.yul\":4391:4395   */\n      0xff\n        /* \"#utility.yul\":4384:4389   */\n      dup3\n        /* \"#utility.yul\":4380:4396   */\n      and\n        /* \"#utility.yul\":4369:4396   */\n      swap1\n      pop\n        /* \"#utility.yul\":4316:4402   */\n      swap2\n      swap1\n      pop\n      jump\t// out\n        /* \"#utility.yul\":4408:4520   */\n    tag_211:\n        /* \"#utility.yul\":4491:4513   */\n      tag_278\n        /* \"#utility.yul\":4507:4512   */\n      dup2\n        /* \"#utility.yul\":4491:4513   */\n      tag_210\n      jump\t// in\n    tag_278:\n        /* \"#utility.yul\":4486:4489   */\n      dup3\n        /* \"#utility.yul\":4479:4514   */\n      mstore\n        /* \"#utility.yul\":4408:4520   */\n      pop\n      pop\n      jump\t// out\n        /* \"#utility.yul\":4526:4740   */\n    tag_44:\n        /* \"#utility.yul\":4615:4619   */\n      0x00\n        /* \"#utility.yul\":4653:4655   */\n      0x20\n        /* \"#utility.yul\":4642:4651   */\n      dup3\n        /* \"#utility.yul\":4638:4656   */\n      add\n        /* \"#utility.yul\":4630:4656   */\n      swap1\n      pop\n        /* \"#utility.yul\":4666:4733   */\n      tag_280\n        /* \"#utility.yul\":4730:4731   */\n      0x00\n        /* \"#utility.yul\":4719:4728   */\n      dup4\n        /* \"#utility.yul\":4715:4732   */\n      add\n        /* \"#utility.yul\":4706:4712   */\n      dup5\n        /* \"#utility.yul\":4666:4733   */\n      tag_211\n      jump\t// in\n    tag_280:\n        /* \"#utility.yul\":4526:4740   */\n      swap3\n      swap2\n      pop\n      pop\n      jump\t// out\n        /* \"#utility.yul\":4746:4864   */\n    tag_212:\n        /* \"#utility.yul\":4833:4857   */\n      tag_282\n        /* \"#utility.yul\":4851:4856   */\n      dup2\n        /* \"#utility.yul\":4833:4857   */\n      tag_201\n      jump\t// in\n    tag_282:\n        /* \"#utility.yul\":4828:4831   */\n      dup3\n        /* \"#utility.yul\":4821:4858   */\n      mstore\n        /* \"#utility.yul\":4746:4864   */\n      pop\n      pop\n      jump\t// out\n        /* \"#utility.yul\":4870:5092   */\n    tag_51:\n        /* \"#utility.yul\":4963:4967   */\n      0x00\n        /* \"#utility.yul\":5001:5003   */\n      0x20\n        /* \"#utility.yul\":4990:4999   */\n      dup3\n        /* \"#utility.yul\":4986:5004   */\n      add\n        /* \"#utility.yul\":4978:5004   */\n      swap1\n      pop\n        /* \"#utility.yul\":5014:5085   */\n      tag_284\n        /* \"#utility.yul\":5082:5083   */\n      0x00\n        /* \"#utility.yul\":5071:5080   */\n      dup4\n        /* \"#utility.yul\":5067:5084   */\n      add\n        /* \"#utility.yul\":5058:5064   */\n      dup5\n        /* \"#utility.yul\":5014:5085   */\n      tag_212\n      jump\t// in\n    tag_284:\n        /* \"#utility.yul\":4870:5092   */\n      swap3\n      swap2\n      pop\n      pop\n      jump\t// out\n        /* \"#utility.yul\":5098:5427   */\n    tag_54:\n        /* \"#utility.yul\":5157:5163   */\n      0x00\n        /* \"#utility.yul\":5206:5208   */\n      0x20\n        /* \"#utility.yul\":5194:5203   */\n      dup3\n        /* \"#utility.yul\":5185:5192   */\n      dup5\n        /* \"#utility.yul\":5181:5204   */\n      sub\n        /* \"#utility.yul\":5177:5209   */\n      slt\n        /* \"#utility.yul\":5174:5293   */\n      iszero\n      tag_286\n      jumpi\n        /* \"#utility.yul\":5212:5291   */\n      tag_287\n      tag_198\n      jump\t// in\n    tag_287:\n        /* \"#utility.yul\":5174:5293   */\n    tag_286:\n        /* \"#utility.yul\":5332:5333   */\n      0x00\n        /* \"#utility.yul\":5357:5410   */\n      tag_288\n        /* \"#utility.yul\":5402:5409   */\n      dup5\n        /* \"#utility.yul\":5393:5399   */\n      dup3\n        /* \"#utility.yul\":5382:5391   */\n      dup6\n        /* \"#utility.yul\":5378:5400   */\n      add\n        /* \"#utility.yul\":5357:5410   */\n      tag_203\n      jump\t// in\n    tag_288:\n        /* \"#utility.yul\":5347:5410   */\n      swap2\n      pop\n        /* \"#utility.yul\":5303:5420   */\n      pop\n        /* \"#utility.yul\":5098:5427   */\n      swap3\n      swap2\n      pop\n      pop\n      jump\t// out\n        /* \"#utility.yul\":5433:5907   */\n    tag_82:\n        /* \"#utility.yul\":5501:5507   */\n      0x00\n        /* \"#utility.yul\":5509:5515   */\n      dup1\n        /* \"#utility.yul\":5558:5560   */\n      0x40\n        /* \"#utility.yul\":5546:5555   */\n      dup4\n        /* \"#utility.yul\":5537:5544   */\n      dup6\n        /* \"#utility.yul\":5533:5556   */\n      sub\n        /* \"#utility.yul\":5529:5561   */\n      slt\n        /* \"#utility.yul\":5526:5645   */\n      iszero\n      tag_290\n      jumpi\n        /* \"#utility.yul\":5564:5643   */\n      tag_291\n      tag_198\n      jump\t// in\n    tag_291:\n        /* \"#utility.yul\":5526:5645   */\n    tag_290:\n        /* \"#utility.yul\":5684:5685   */\n      0x00\n        /* \"#utility.yul\":5709:5762   */\n      tag_292\n        /* \"#utility.yul\":5754:5761   */\n      dup6\n        /* \"#utility.yul\":5745:5751   */\n      dup3\n        /* \"#utility.yul\":5734:5743   */\n      dup7\n        /* \"#utility.yul\":5730:5752   */\n      add\n        /* \"#utility.yul\":5709:5762   */\n      tag_203\n      jump\t// in\n    tag_292:\n        /* \"#utility.yul\":5699:5762   */\n      swap3\n      pop\n        /* \"#utility.yul\":5655:5772   */\n      pop\n        /* \"#utility.yul\":5811:5813   */\n      0x20\n        /* \"#utility.yul\":5837:5890   */\n      tag_293\n        /* \"#utility.yul\":5882:5889   */\n      dup6\n        /* \"#utility.yul\":5873:5879   */\n      dup3\n        /* \"#utility.yul\":5862:5871   */\n      dup7\n        /* \"#utility.yul\":5858:5880   */\n      add\n        /* \"#utility.yul\":5837:5890   */\n      tag_203\n      jump\t// in\n    tag_293:\n        /* \"#utility.yul\":5827:5890   */\n      swap2\n      pop\n        /* \"#utility.yul\":5782:5900   */\n      pop\n        /* \"#utility.yul\":5433:5907   */\n      swap3\n      pop\n      swap3\n      swap1\n      pop\n      jump\t// out\n        /* \"#utility.yul\":5913:6093   */\n    tag_213:\n        /* \"#utility.yul\":5961:6038   */\n      0x4e487b7100000000000000000000000000000000000000000000000000000000\n        /* \"#utility.yul\":5958:5959   */\n      0x00\n        /* \"#utility.yul\":5951:6039   */\n      mstore\n        /* \"#utility.yul\":6058:6062   */\n      0x22\n        /* \"#utility.yul\":6055:6056   */\n      0x04\n        /* \"#utility.yul\":6048:6063   */\n      mstore\n        /* \"#utility.yul\":6082:6086   */\n      0x24\n        /* \"#utility.yul\":6079:6080   */\n      0x00\n        /* \"#utility.yul\":6072:6087   */\n      revert\n        /* \"#utility.yul\":6099:6419   */\n    tag_86:\n        /* \"#utility.yul\":6143:6149   */\n      0x00\n        /* \"#utility.yul\":6180:6181   */\n      0x02\n        /* \"#utility.yul\":6174:6178   */\n      dup3\n        /* \"#utility.yul\":6170:6182   */\n      div\n        /* \"#utility.yul\":6160:6182   */\n      swap1\n      pop\n        /* \"#utility.yul\":6227:6228   */\n      0x01\n        /* \"#utility.yul\":6221:6225   */\n      dup3\n        /* \"#utility.yul\":6217:6229   */\n      and\n        /* \"#utility.yul\":6248:6266   */\n      dup1\n        /* \"#utility.yul\":6238:6319   */\n      tag_296\n      jumpi\n        /* \"#utility.yul\":6304:6308   */\n      0x7f\n        /* \"#utility.yul\":6296:6302   */\n      dup3\n        /* \"#utility.yul\":6292:6309   */\n      and\n        /* \"#utility.yul\":6282:6309   */\n      swap2\n      pop\n        /* \"#utility.yul\":6238:6319   */\n    tag_296:\n        /* \"#utility.yul\":6366:6368   */\n      0x20\n        /* \"#utility.yul\":6358:6364   */\n      dup3\n        /* \"#utility.yul\":6355:6369   */\n      lt\n        /* \"#utility.yul\":6335:6353   */\n      dup2\n        /* \"#utility.yul\":6332:6370   */\n      sub\n        /* \"#utility.yul\":6329:6413   */\n      tag_297\n      jumpi\n        /* \"#utility.yul\":6385:6403   */\n      tag_298\n      tag_213\n      jump\t// in\n    tag_298:\n        /* \"#utility.yul\":6329:6413   */\n    tag_297:\n        /* \"#utility.yul\":6150:6419   */\n      pop\n        /* \"#utility.yul\":6099:6419   */\n      swap2\n      swap1\n      pop\n      jump\t// out\n        /* \"#utility.yul\":6425:6607   */\n    tag_214:\n        /* \"#utility.yul\":6565:6599   */\n      0x416d6f756e74206d7573742062652067726561746572207468616e207a65726f\n        /* \"#utility.yul\":6561:6562   */\n      0x00\n        /* \"#utility.yul\":6553:6559   */\n      dup3\n        /* \"#utility.yul\":6549:6563   */\n      add\n        /* \"#utility.yul\":6542:6600   */\n      mstore\n        /* \"#utility.yul\":6425:6607   */\n      pop\n      jump\t// out\n        /* \"#utility.yul\":6613:6979   */\n    tag_215:\n        /* \"#utility.yul\":6755:6758   */\n      0x00\n        /* \"#utility.yul\":6776:6843   */\n      tag_301\n        /* \"#utility.yul\":6840:6842   */\n      0x20\n        /* \"#utility.yul\":6835:6838   */\n      dup4\n        /* \"#utility.yul\":6776:6843   */\n      tag_193\n      jump\t// in\n    tag_301:\n        /* \"#utility.yul\":6769:6843   */\n      swap2\n      pop\n        /* \"#utility.yul\":6852:6945   */\n      tag_302\n        /* \"#utility.yul\":6941:6944   */\n      dup3\n        /* \"#utility.yul\":6852:6945   */\n      tag_214\n      jump\t// in\n    tag_302:\n        /* \"#utility.yul\":6970:6972   */\n      0x20\n        /* \"#utility.yul\":6965:6968   */\n      dup3\n        /* \"#utility.yul\":6961:6973   */\n      add\n        /* \"#utility.yul\":6954:6973   */\n      swap1\n      pop\n        /* \"#utility.yul\":6613:6979   */\n      swap2\n      swap1\n      pop\n      jump\t// out\n        /* \"#utility.yul\":6985:7404   */\n    tag_94:\n        /* \"#utility.yul\":7151:7155   */\n      0x00\n        /* \"#utility.yul\":7189:7191   */\n      0x20\n        /* \"#utility.yul\":7178:7187   */\n      dup3\n        /* \"#utility.yul\":7174:7192   */\n      add\n        /* \"#utility.yul\":7166:7192   */\n      swap1\n      pop\n        /* \"#utility.yul\":7238:7247   */\n      dup2\n        /* \"#utility.yul\":7232:7236   */\n      dup2\n        /* \"#utility.yul\":7228:7248   */\n      sub\n        /* \"#utility.yul\":7224:7225   */\n      0x00\n        /* \"#utility.yul\":7213:7222   */\n      dup4\n        /* \"#utility.yul\":7209:7226   */\n      add\n        /* \"#utility.yul\":7202:7249   */\n      mstore\n        /* \"#utility.yul\":7266:7397   */\n      tag_304\n        /* \"#utility.yul\":7392:7396   */\n      dup2\n        /* \"#utility.yul\":7266:7397   */\n      tag_215\n      jump\t// in\n    tag_304:\n        /* \"#utility.yul\":7258:7397   */\n      swap1\n      pop\n        /* \"#utility.yul\":6985:7404   */\n      swap2\n      swap1\n      pop\n      jump\t// out\n        /* \"#utility.yul\":7410:7640   */\n    tag_216:\n        /* \"#utility.yul\":7550:7584   */\n      0x5472616e7366657220746f20746865207a65726f206164647265737320697320\n        /* \"#utility.yul\":7546:7547   */\n      0x00\n        /* \"#utility.yul\":7538:7544   */\n      dup3\n        /* \"#utility.yul\":7534:7548   */\n      add\n        /* \"#utility.yul\":7527:7585   */\n      mstore\n        /* \"#utility.yul\":7619:7632   */\n      0x6e6f7420616c6c6f776564000000000000000000000000000000000000000000\n        /* \"#utility.yul\":7614:7616   */\n      0x20\n        /* \"#utility.yul\":7606:7612   */\n      dup3\n        /* \"#utility.yul\":7602:7617   */\n      add\n        /* \"#utility.yul\":7595:7633   */\n      mstore\n        /* \"#utility.yul\":7410:7640   */\n      pop\n      jump\t// out\n        /* \"#utility.yul\":7646:8012   */\n    tag_217:\n        /* \"#utility.yul\":7788:7791   */\n      0x00\n        /* \"#utility.yul\":7809:7876   */\n      tag_307\n        /* \"#utility.yul\":7873:7875   */\n      0x2b\n        /* \"#utility.yul\":7868:7871   */\n      dup4\n        /* \"#utility.yul\":7809:7876   */\n      tag_193\n      jump\t// in\n    tag_307:\n        /* \"#utility.yul\":7802:7876   */\n      swap2\n      pop\n        /* \"#utility.yul\":7885:7978   */\n      tag_308\n        /* \"#utility.yul\":7974:7977   */\n      dup3\n        /* \"#utility.yul\":7885:7978   */\n      tag_216\n      jump\t// in\n    tag_308:\n        /* \"#utility.yul\":8003:8005   */\n      0x40\n        /* \"#utility.yul\":7998:8001   */\n      dup3\n        /* \"#utility.yul\":7994:8006   */\n      add\n        /* \"#utility.yul\":7987:8006   */\n      swap1\n      pop\n        /* \"#utility.yul\":7646:8012   */\n      swap2\n      swap1\n      pop\n      jump\t// out\n        /* \"#utility.yul\":8018:8437   */\n    tag_98:\n        /* \"#utility.yul\":8184:8188   */\n      0x00\n        /* \"#utility.yul\":8222:8224   */\n      0x20\n        /* \"#utility.yul\":8211:8220   */\n      dup3\n        /* \"#utility.yul\":8207:8225   */\n      add\n        /* \"#utility.yul\":8199:8225   */\n      swap1\n      pop\n        /* \"#utility.yul\":8271:8280   */\n      dup2\n        /* \"#utility.yul\":8265:8269   */\n      dup2\n        /* \"#utility.yul\":8261:8281   */\n      sub\n        /* \"#utility.yul\":8257:8258   */\n      0x00\n        /* \"#utility.yul\":8246:8255   */\n      dup4\n        /* \"#utility.yul\":8242:8259   */\n      add\n        /* \"#utility.yul\":8235:8282   */\n      mstore\n        /* \"#utility.yul\":8299:8430   */\n      tag_310\n        /* \"#utility.yul\":8425:8429   */\n      dup2\n        /* \"#utility.yul\":8299:8430   */\n      tag_217\n      jump\t// in\n    tag_310:\n        /* \"#utility.yul\":8291:8430   */\n      swap1\n      pop\n        /* \"#utility.yul\":8018:8437   */\n      swap2\n      swap1\n      pop\n      jump\t// out\n        /* \"#utility.yul\":8443:8669   */\n    tag_218:\n        /* \"#utility.yul\":8583:8617   */\n      0x43616c6c657220646f6573206e6f7420686176652073756666696369656e7420\n        /* \"#utility.yul\":8579:8580   */\n      0x00\n        /* \"#utility.yul\":8571:8577   */\n      dup3\n        /* \"#utility.yul\":8567:8581   */\n      add\n        /* \"#utility.yul\":8560:8618   */\n      mstore\n        /* \"#utility.yul\":8652:8661   */\n      0x62616c616e636500000000000000000000000000000000000000000000000000\n        /* \"#utility.yul\":8647:8649   */\n      0x20\n        /* \"#utility.yul\":8639:8645   */\n      dup3\n        /* \"#utility.yul\":8635:8650   */\n      add\n        /* \"#utility.yul\":8628:8662   */\n      mstore\n        /* \"#utility.yul\":8443:8669   */\n      pop\n      jump\t// out\n        /* \"#utility.yul\":8675:9041   */\n    tag_219:\n        /* \"#utility.yul\":8817:8820   */\n      0x00\n        /* \"#utility.yul\":8838:8905   */\n      tag_313\n        /* \"#utility.yul\":8902:8904   */\n      0x27\n        /* \"#utility.yul\":8897:8900   */\n      dup4\n        /* \"#utility.yul\":8838:8905   */\n      tag_193\n      jump\t// in\n    tag_313:\n        /* \"#utility.yul\":8831:8905   */\n      swap2\n      pop\n        /* \"#utility.yul\":8914:9007   */\n      tag_314\n        /* \"#utility.yul\":9003:9006   */\n      dup3\n        /* \"#utility.yul\":8914:9007   */\n      tag_218\n      jump\t// in\n    tag_314:\n        /* \"#utility.yul\":9032:9034   */\n      0x40\n        /* \"#utility.yul\":9027:9030   */\n      dup3\n        /* \"#utility.yul\":9023:9035   */\n      add\n        /* \"#utility.yul\":9016:9035   */\n      swap1\n      pop\n        /* \"#utility.yul\":8675:9041   */\n      swap2\n      swap1\n      pop\n      jump\t// out\n        /* \"#utility.yul\":9047:9466   */\n    tag_102:\n        /* \"#utility.yul\":9213:9217   */\n      0x00\n        /* \"#utility.yul\":9251:9253   */\n      0x20\n        /* \"#utility.yul\":9240:9249   */\n      dup3\n        /* \"#utility.yul\":9236:9254   */\n      add\n        /* \"#utility.yul\":9228:9254   */\n      swap1\n      pop\n        /* \"#utility.yul\":9300:9309   */\n      dup2\n        /* \"#utility.yul\":9294:9298   */\n      dup2\n        /* \"#utility.yul\":9290:9310   */\n      sub\n        /* \"#utility.yul\":9286:9287   */\n      0x00\n        /* \"#utility.yul\":9275:9284   */\n      dup4\n        /* \"#utility.yul\":9271:9288   */\n      add\n        /* \"#utility.yul\":9264:9311   */\n      mstore\n        /* \"#utility.yul\":9328:9459   */\n      tag_316\n        /* \"#utility.yul\":9454:9458   */\n      dup2\n        /* \"#utility.yul\":9328:9459   */\n      tag_219\n      jump\t// in\n    tag_316:\n        /* \"#utility.yul\":9320:9459   */\n      swap1\n      pop\n        /* \"#utility.yul\":9047:9466   */\n      swap2\n      swap1\n      pop\n      jump\t// out\n        /* \"#utility.yul\":9472:9700   */\n    tag_220:\n        /* \"#utility.yul\":9612:9646   */\n      0x43616c6c657220646f6573206e6f7420686176652073756666696369656e7420\n        /* \"#utility.yul\":9608:9609   */\n      0x00\n        /* \"#utility.yul\":9600:9606   */\n      dup3\n        /* \"#utility.yul\":9596:9610   */\n      add\n        /* \"#utility.yul\":9589:9647   */\n      mstore\n        /* \"#utility.yul\":9681:9692   */\n      0x616c6c6f77616e63650000000000000000000000000000000000000000000000\n        /* \"#utility.yul\":9676:9678   */\n      0x20\n        /* \"#utility.yul\":9668:9674   */\n      dup3\n        /* \"#utility.yul\":9664:9679   */\n      add\n        /* \"#utility.yul\":9657:9693   */\n      mstore\n        /* \"#utility.yul\":9472:9700   */\n      pop\n      jump\t// out\n        /* \"#utility.yul\":9706:10072   */\n    tag_221:\n        /* \"#utility.yul\":9848:9851   */\n      0x00\n        /* \"#utility.yul\":9869:9936   */\n      tag_319\n        /* \"#utility.yul\":9933:9935   */\n      0x29\n        /* \"#utility.yul\":9928:9931   */\n      dup4\n        /* \"#utility.yul\":9869:9936   */\n      tag_193\n      jump\t// in\n    tag_319:\n        /* \"#utility.yul\":9862:9936   */\n      swap2\n      pop\n        /* \"#utility.yul\":9945:10038   */\n      tag_320\n        /* \"#utility.yul\":10034:10037   */\n      dup3\n        /* \"#utility.yul\":9945:10038   */\n      tag_220\n      jump\t// in\n    tag_320:\n        /* \"#utility.yul\":10063:10065   */\n      0x40\n        /* \"#utility.yul\":10058:10061   */\n      dup3\n        /* \"#utility.yul\":10054:10066   */\n      add\n        /* \"#utility.yul\":10047:10066   */\n      swap1\n      pop\n        /* \"#utility.yul\":9706:10072   */\n      swap2\n      swap1\n      pop\n      jump\t// out\n        /* \"#utility.yul\":10078:10497   */\n    tag_117:\n        /* \"#utility.yul\":10244:10248   */\n      0x00\n        /* \"#utility.yul\":10282:10284   */\n      0x20\n        /* \"#utility.yul\":10271:10280   */\n      dup3\n        /* \"#utility.yul\":10267:10285   */\n      add\n        /* \"#utility.yul\":10259:10285   */\n      swap1\n      pop\n        /* \"#utility.yul\":10331:10340   */\n      dup2\n        /* \"#utility.yul\":10325:10329   */\n      dup2\n        /* \"#utility.yul\":10321:10341   */\n      sub\n        /* \"#utility.yul\":10317:10318   */\n      0x00\n        /* \"#utility.yul\":10306:10315   */\n      dup4\n        /* \"#utility.yul\":10302:10319   */\n      add\n        /* \"#utility.yul\":10295:10342   */\n      mstore\n        /* \"#utility.yul\":10359:10490   */\n      tag_322\n        /* \"#utility.yul\":10485:10489   */\n      dup2\n        /* \"#utility.yul\":10359:10490   */\n      tag_221\n      jump\t// in\n    tag_322:\n        /* \"#utility.yul\":10351:10490   */\n      swap1\n      pop\n        /* \"#utility.yul\":10078:10497   */\n      swap2\n      swap1\n      pop\n      jump\t// out\n        /* \"#utility.yul\":10503:10683   */\n    tag_222:\n        /* \"#utility.yul\":10551:10628   */\n      0x4e487b7100000000000000000000000000000000000000000000000000000000\n        /* \"#utility.yul\":10548:10549   */\n      0x00\n        /* \"#utility.yul\":10541:10629   */\n      mstore\n        /* \"#utility.yul\":10648:10652   */\n      0x11\n        /* \"#utility.yul\":10645:10646   */\n      0x04\n        /* \"#utility.yul\":10638:10653   */\n      mstore\n        /* \"#utility.yul\":10672:10676   */\n      0x24\n        /* \"#utility.yul\":10669:10670   */\n      0x00\n        /* \"#utility.yul\":10662:10677   */\n      revert\n        /* \"#utility.yul\":10689:10883   */\n    tag_120:\n        /* \"#utility.yul\":10729:10733   */\n      0x00\n        /* \"#utility.yul\":10749:10769   */\n      tag_325\n        /* \"#utility.yul\":10767:10768   */\n      dup3\n        /* \"#utility.yul\":10749:10769   */\n      tag_204\n      jump\t// in\n    tag_325:\n        /* \"#utility.yul\":10744:10769   */\n      swap2\n      pop\n        /* \"#utility.yul\":10783:10803   */\n      tag_326\n        /* \"#utility.yul\":10801:10802   */\n      dup4\n        /* \"#utility.yul\":10783:10803   */\n      tag_204\n      jump\t// in\n    tag_326:\n        /* \"#utility.yul\":10778:10803   */\n      swap3\n      pop\n        /* \"#utility.yul\":10827:10828   */\n      dup3\n        /* \"#utility.yul\":10824:10825   */\n      dup3\n        /* \"#utility.yul\":10820:10829   */\n      sub\n        /* \"#utility.yul\":10812:10829   */\n      swap1\n      pop\n        /* \"#utility.yul\":10851:10852   */\n      dup2\n        /* \"#utility.yul\":10845:10849   */\n      dup2\n        /* \"#utility.yul\":10842:10853   */\n      gt\n        /* \"#utility.yul\":10839:10876   */\n      iszero\n      tag_327\n      jumpi\n        /* \"#utility.yul\":10856:10874   */\n      tag_328\n      tag_222\n      jump\t// in\n    tag_328:\n        /* \"#utility.yul\":10839:10876   */\n    tag_327:\n        /* \"#utility.yul\":10689:10883   */\n      swap3\n      swap2\n      pop\n      pop\n      jump\t// out\n        /* \"#utility.yul\":10889:11080   */\n    tag_123:\n        /* \"#utility.yul\":10929:10932   */\n      0x00\n        /* \"#utility.yul\":10948:10968   */\n      tag_330\n        /* \"#utility.yul\":10966:10967   */\n      dup3\n        /* \"#utility.yul\":10948:10968   */\n      tag_204\n      jump\t// in\n    tag_330:\n        /* \"#utility.yul\":10943:10968   */\n      swap2\n      pop\n        /* \"#utility.yul\":10982:11002   */\n      tag_331\n        /* \"#utility.yul\":11000:11001   */\n      dup4\n        /* \"#utility.yul\":10982:11002   */\n      tag_204\n      jump\t// in\n    tag_331:\n        /* \"#utility.yul\":10977:11002   */\n      swap3\n      pop\n        /* \"#utility.yul\":11025:11026   */\n      dup3\n        /* \"#utility.yul\":11022:11023   */\n      dup3\n        /* \"#utility.yul\":11018:11027   */\n      add\n        /* \"#utility.yul\":11011:11027   */\n      swap1\n      pop\n        /* \"#utility.yul\":11046:11049   */\n      dup1\n        /* \"#utility.yul\":11043:11044   */\n      dup3\n        /* \"#utility.yul\":11040:11050   */\n      gt\n        /* \"#utility.yul\":11037:11073   */\n      iszero\n      tag_332\n      jumpi\n        /* \"#utility.yul\":11053:11071   */\n      tag_333\n      tag_222\n      jump\t// in\n    tag_333:\n        /* \"#utility.yul\":11037:11073   */\n    tag_332:\n        /* \"#utility.yul\":10889:11080   */\n      swap3\n      swap2\n      pop\n      pop\n      jump\t// out\n        /* \"#utility.yul\":11086:11260   */\n    tag_223:\n        /* \"#utility.yul\":11226:11252   */\n      0x43616c6c6572206973206e6f7420617574686f72697a65640000000000000000\n        /* \"#utility.yul\":11222:11223   */\n      0x00\n        /* \"#utility.yul\":11214:11220   */\n      dup3\n        /* \"#utility.yul\":11210:11224   */\n      add\n        /* \"#utility.yul\":11203:11253   */\n      mstore\n        /* \"#utility.yul\":11086:11260   */\n      pop\n      jump\t// out\n        /* \"#utility.yul\":11266:11632   */\n    tag_224:\n        /* \"#utility.yul\":11408:11411   */\n      0x00\n        /* \"#utility.yul\":11429:11496   */\n      tag_336\n        /* \"#utility.yul\":11493:11495   */\n      0x18\n        /* \"#utility.yul\":11488:11491   */\n      dup4\n        /* \"#utility.yul\":11429:11496   */\n      tag_193\n      jump\t// in\n    tag_336:\n        /* \"#utility.yul\":11422:11496   */\n      swap2\n      pop\n        /* \"#utility.yul\":11505:11598   */\n      tag_337\n        /* \"#utility.yul\":11594:11597   */\n      dup3\n        /* \"#utility.yul\":11505:11598   */\n      tag_223\n      jump\t// in\n    tag_337:\n        /* \"#utility.yul\":11623:11625   */\n      0x20\n        /* \"#utility.yul\":11618:11621   */\n      dup3\n        /* \"#utility.yul\":11614:11626   */\n      add\n        /* \"#utility.yul\":11607:11626   */\n      swap1\n      pop\n        /* \"#utility.yul\":11266:11632   */\n      swap2\n      swap1\n      pop\n      jump\t// out\n        /* \"#utility.yul\":11638:12057   */\n    tag_128:\n        /* \"#utility.yul\":11804:11808   */\n      0x00\n        /* \"#utility.yul\":11842:11844   */\n      0x20\n        /* \"#utility.yul\":11831:11840   */\n      dup3\n        /* \"#utility.yul\":11827:11845   */\n      add\n        /* \"#utility.yul\":11819:11845   */\n      swap1\n      pop\n        /* \"#utility.yul\":11891:11900   */\n      dup2\n        /* \"#utility.yul\":11885:11889   */\n      dup2\n        /* \"#utility.yul\":11881:11901   */\n      sub\n        /* \"#utility.yul\":11877:11878   */\n      0x00\n        /* \"#utility.yul\":11866:11875   */\n      dup4\n        /* \"#utility.yul\":11862:11879   */\n      add\n        /* \"#utility.yul\":11855:11902   */\n      mstore\n        /* \"#utility.yul\":11919:12050   */\n      tag_339\n        /* \"#utility.yul\":12045:12049   */\n      dup2\n        /* \"#utility.yul\":11919:12050   */\n      tag_224\n      jump\t// in\n    tag_339:\n        /* \"#utility.yul\":11911:12050   */\n      swap1\n      pop\n        /* \"#utility.yul\":11638:12057   */\n      swap2\n      swap1\n      pop\n      jump\t// out\n        /* \"#utility.yul\":12063:12238   */\n    tag_225:\n        /* \"#utility.yul\":12203:12230   */\n      0x496e76616c6964206e6577206f776e6572206164647265737300000000000000\n        /* \"#utility.yul\":12199:12200   */\n      0x00\n        /* \"#utility.yul\":12191:12197   */\n      dup3\n        /* \"#utility.yul\":12187:12201   */\n      add\n        /* \"#utility.yul\":12180:12231   */\n      mstore\n        /* \"#utility.yul\":12063:12238   */\n      pop\n      jump\t// out\n        /* \"#utility.yul\":12244:12610   */\n    tag_226:\n        /* \"#utility.yul\":12386:12389   */\n      0x00\n        /* \"#utility.yul\":12407:12474   */\n      tag_342\n        /* \"#utility.yul\":12471:12473   */\n      0x19\n        /* \"#utility.yul\":12466:12469   */\n      dup4\n        /* \"#utility.yul\":12407:12474   */\n      tag_193\n      jump\t// in\n    tag_342:\n        /* \"#utility.yul\":12400:12474   */\n      swap2\n      pop\n        /* \"#utility.yul\":12483:12576   */\n      tag_343\n        /* \"#utility.yul\":12572:12575   */\n      dup3\n        /* \"#utility.yul\":12483:12576   */\n      tag_225\n      jump\t// in\n    tag_343:\n        /* \"#utility.yul\":12601:12603   */\n      0x20\n        /* \"#utility.yul\":12596:12599   */\n      dup3\n        /* \"#utility.yul\":12592:12604   */\n      add\n        /* \"#utility.yul\":12585:12604   */\n      swap1\n      pop\n        /* \"#utility.yul\":12244:12610   */\n      swap2\n      swap1\n      pop\n      jump\t// out\n        /* \"#utility.yul\":12616:13035   */\n    tag_179:\n        /* \"#utility.yul\":12782:12786   */\n      0x00\n        /* \"#utility.yul\":12820:12822   */\n      0x20\n        /* \"#utility.yul\":12809:12818   */\n      dup3\n        /* \"#utility.yul\":12805:12823   */\n      add\n        /* \"#utility.yul\":12797:12823   */\n      swap1\n      pop\n        /* \"#utility.yul\":12869:12878   */\n      dup2\n        /* \"#utility.yul\":12863:12867   */\n      dup2\n        /* \"#utility.yul\":12859:12879   */\n      sub\n        /* \"#utility.yul\":12855:12856   */\n      0x00\n        /* \"#utility.yul\":12844:12853   */\n      dup4\n        /* \"#utility.yul\":12840:12857   */\n      add\n        /* \"#utility.yul\":12833:12880   */\n      mstore\n        /* \"#utility.yul\":12897:13028   */\n      tag_345\n        /* \"#utility.yul\":13023:13027   */\n      dup2\n        /* \"#utility.yul\":12897:13028   */\n      tag_226\n      jump\t// in\n    tag_345:\n        /* \"#utility.yul\":12889:13028   */\n      swap1\n      pop\n        /* \"#utility.yul\":12616:13035   */\n      swap2\n      swap1\n      pop\n      jump\t// out\n\n    auxdata: 0xa26469706673582212209fa26c97ba0a5c3351d37d2152f554025050665bed425b685ab5648ddb50909664736f6c63430008190033\n}\n",
				"bytecode": {
					"linkReferences": {},
					"object": "608060405234801561000f575f80fd5b506040516122d63803806122d6833981810160405281019061003191906102d2565b8460055f6101000a81548173ffffffffffffffffffffffffffffffffffffffff021916908373ffffffffffffffffffffffffffffffffffffffff160217905550835f908161007f9190610585565b50826001908161008f9190610585565b508160025f6101000a81548160ff021916908360ff160217905550806004819055505f6003819055505050505050610654565b5f604051905090565b5f80fd5b5f80fd5b5f73ffffffffffffffffffffffffffffffffffffffff82169050919050565b5f6100fc826100d3565b9050919050565b61010c816100f2565b8114610116575f80fd5b50565b5f8151905061012781610103565b92915050565b5f80fd5b5f80fd5b5f601f19601f8301169050919050565b7f4e487b71000000000000000000000000000000000000000000000000000000005f52604160045260245ffd5b61017b82610135565b810181811067ffffffffffffffff8211171561019a57610199610145565b5b80604052505050565b5f6101ac6100c2565b90506101b88282610172565b919050565b5f67ffffffffffffffff8211156101d7576101d6610145565b5b6101e082610135565b9050602081019050919050565b8281835e5f83830152505050565b5f61020d610208846101bd565b6101a3565b90508281526020810184848401111561022957610228610131565b5b6102348482856101ed565b509392505050565b5f82601f8301126102505761024f61012d565b5b81516102608482602086016101fb565b91505092915050565b5f60ff82169050919050565b61027e81610269565b8114610288575f80fd5b50565b5f8151905061029981610275565b92915050565b5f819050919050565b6102b18161029f565b81146102bb575f80fd5b50565b5f815190506102cc816102a8565b92915050565b5f805f805f60a086880312156102eb576102ea6100cb565b5b5f6102f888828901610119565b955050602086015167ffffffffffffffff811115610319576103186100cf565b5b6103258882890161023c565b945050604086015167ffffffffffffffff811115610346576103456100cf565b5b6103528882890161023c565b93505060606103638882890161028b565b9250506080610374888289016102be565b9150509295509295909350565b5f81519050919050565b7f4e487b71000000000000000000000000000000000000000000000000000000005f52602260045260245ffd5b5f60028204905060018216806103cf57607f821691505b6020821081036103e2576103e161038b565b5b50919050565b5f819050815f5260205f209050919050565b5f6020601f8301049050919050565b5f82821b905092915050565b5f600883026104447fffffffffffffffffffffffffffffffffffffffffffffffffffffffffffffffff82610409565b61044e8683610409565b95508019841693508086168417925050509392505050565b5f819050919050565b5f61048961048461047f8461029f565b610466565b61029f565b9050919050565b5f819050919050565b6104a28361046f565b6104b66104ae82610490565b848454610415565b825550505050565b5f90565b6104ca6104be565b6104d5818484610499565b505050565b5b818110156104f8576104ed5f826104c2565b6001810190506104db565b5050565b601f82111561053d5761050e816103e8565b610517846103fa565b81016020851015610526578190505b61053a610532856103fa565b8301826104da565b50505b505050565b5f82821c905092915050565b5f61055d5f1984600802610542565b1980831691505092915050565b5f610575838361054e565b9150826002028217905092915050565b61058e82610381565b67ffffffffffffffff8111156105a7576105a6610145565b5b6105b182546103b8565b6105bc8282856104fc565b5f60209050601f8311600181146105ed575f84156105db578287015190505b6105e5858261056a565b86555061064c565b601f1984166105fb866103e8565b5f5b82811015610622578489015182556001820191506020850194506020810190506105fd565b8683101561063f578489015161063b601f89168261054e565b8355505b6001600288020188555050505b505050505050565b611c75806106615f395ff3fe608060405234801561000f575f80fd5b50600436106100fe575f3560e01c806395d89b4111610095578063bbaed51811610064578063bbaed518146102ae578063c06df1e9146102de578063d5abeb01146102fc578063dd62ed3e1461031a576100fe565b806395d89b41146102265780639dc29fac14610244578063a3e6761014610260578063a9059cbb1461027e576100fe565b8063313ce567116100d1578063313ce5671461019e57806340c10f19146101bc5780635b833f1e146101d857806370a08231146101f6576100fe565b806306fdde0314610102578063095ea7b31461012057806318160ddd1461015057806323b872dd1461016e575b5f80fd5b61010a61034a565b604051610117919061160e565b60405180910390f35b61013a600480360381019061013591906116bf565b6103d5565b6040516101479190611717565b60405180910390f35b6101586105fa565b604051610165919061173f565b60405180910390f35b61018860048036038101906101839190611758565b610600565b6040516101959190611717565b60405180910390f35b6101a661099c565b6040516101b391906117c3565b60405180910390f35b6101d660048036038101906101d191906116bf565b6109ae565b005b6101e0610b1c565b6040516101ed91906117eb565b60405180910390f35b610210600480360381019061020b9190611804565b610b41565b60405161021d919061173f565b60405180910390f35b61022e610b56565b60405161023b919061160e565b60405180910390f35b61025e600480360381019061025991906116bf565b610be2565b005b610268610d49565b60405161027591906117eb565b60405180910390f35b610298600480360381019061029391906116bf565b610d6e565b6040516102a59190611717565b60405180910390f35b6102c860048036038101906102c39190611804565b610fbc565b6040516102d59190611717565b60405180910390f35b6102e6611232565b6040516102f39190611717565b60405180910390f35b6103046113d0565b604051610311919061173f565b60405180910390f35b610334600480360381019061032f919061182f565b6113d6565b604051610341919061173f565b60405180910390f35b5f80546103569061189a565b80601f01602080910402602001604051908101604052809291908181526020018280546103829061189a565b80156103cd5780601f106103a4576101008083540402835291602001916103cd565b820191905f5260205f20905b8154815290600101906020018083116103b057829003601f168201915b505050505081565b5f815f8103610419576040517f08c379a000000000000000000000000000000000000000000000000000000000815260040161041090611914565b60405180910390fd5b838073ffffffffffffffffffffffffffffffffffffffff165f73ffffffffffffffffffffffffffffffffffffffff1603610488576040517f08c379a000000000000000000000000000000000000000000000000000000000815260040161047f906119a2565b60405180910390fd5b33848060075f8473ffffffffffffffffffffffffffffffffffffffff1673ffffffffffffffffffffffffffffffffffffffff1681526020019081526020015f2054101561050a576040517f08c379a000000000000000000000000000000000000000000000000000000000815260040161050190611a30565b60405180910390fd5b8560085f3373ffffffffffffffffffffffffffffffffffffffff1673ffffffffffffffffffffffffffffffffffffffff1681526020019081526020015f205f8973ffffffffffffffffffffffffffffffffffffffff1673ffffffffffffffffffffffffffffffffffffffff1681526020019081526020015f20819055508673ffffffffffffffffffffffffffffffffffffffff163373ffffffffffffffffffffffffffffffffffffffff167f8c5be1e5ebec7d5bd14f71427d1e84f3dd0314c0f7b2291e5b200ac8c7c3b925886040516105e4919061173f565b60405180910390a3600194505050505092915050565b60035481565b5f815f8103610644576040517f08c379a000000000000000000000000000000000000000000000000000000000815260040161063b90611914565b60405180910390fd5b838073ffffffffffffffffffffffffffffffffffffffff165f73ffffffffffffffffffffffffffffffffffffffff16036106b3576040517f08c379a00000000000000000000000000000000000000000000000000000000081526004016106aa906119a2565b60405180910390fd5b85848060075f8473ffffffffffffffffffffffffffffffffffffffff1673ffffffffffffffffffffffffffffffffffffffff1681526020019081526020015f20541015610735576040517f08c379a000000000000000000000000000000000000000000000000000000000815260040161072c90611a30565b60405180910390fd5b87868060085f8473ffffffffffffffffffffffffffffffffffffffff1673ffffffffffffffffffffffffffffffffffffffff1681526020019081526020015f205f3373ffffffffffffffffffffffffffffffffffffffff1673ffffffffffffffffffffffffffffffffffffffff1681526020019081526020015f205410156107f2576040517f08c379a00000000000000000000000000000000000000000000000000000000081526004016107e990611abe565b60405180910390fd5b8760085f8c73ffffffffffffffffffffffffffffffffffffffff1673ffffffffffffffffffffffffffffffffffffffff1681526020019081526020015f205f3373ffffffffffffffffffffffffffffffffffffffff1673ffffffffffffffffffffffffffffffffffffffff1681526020019081526020015f205f8282546108799190611b09565b925050819055508760075f8c73ffffffffffffffffffffffffffffffffffffffff1673ffffffffffffffffffffffffffffffffffffffff1681526020019081526020015f205f8282546108cc9190611b09565b925050819055508760075f8b73ffffffffffffffffffffffffffffffffffffffff1673ffffffffffffffffffffffffffffffffffffffff1681526020019081526020015f205f82825461091f9190611b3c565b925050819055508873ffffffffffffffffffffffffffffffffffffffff168a73ffffffffffffffffffffffffffffffffffffffff167fddf252ad1be2c89b69c2b068fc378daa952ba7f163c4a11628f55a4df523b3ef8a604051610983919061173f565b60405180910390a3600196505050505050509392505050565b60025f9054906101000a900460ff1681565b60055f9054906101000a900473ffffffffffffffffffffffffffffffffffffffff168073ffffffffffffffffffffffffffffffffffffffff163373ffffffffffffffffffffffffffffffffffffffff1614610a3e576040517f08c379a0000000000000000000000000000000000000000000000000000000008152600401610a3590611bb9565b60405180910390fd5b815f8103610a81576040517f08c379a0000000000000000000000000000000000000000000000000000000008152600401610a7890611914565b60405180910390fd5b838073ffffffffffffffffffffffffffffffffffffffff165f73ffffffffffffffffffffffffffffffffffffffff1603610af0576040517f08c379a0000000000000000000000000000000000000000000000000000000008152600401610ae7906119a2565b60405180910390fd5b60045484600354610b019190611b3c565b1115610b0b575f80fd5b610b1585856113f6565b5050505050565b60065f9054906101000a900473ffffffffffffffffffffffffffffffffffffffff1681565b6007602052805f5260405f205f915090505481565b60018054610b639061189a565b80601f0160208091040260200160405190810160405280929190818152602001828054610b8f9061189a565b8015610bda5780601f10610bb157610100808354040283529160200191610bda565b820191905f5260205f20905b815481529060010190602001808311610bbd57829003601f168201915b505050505081565b60055f9054906101000a900473ffffffffffffffffffffffffffffffffffffffff168073ffffffffffffffffffffffffffffffffffffffff163373ffffffffffffffffffffffffffffffffffffffff1614610c72576040517f08c379a0000000000000000000000000000000000000000000000000000000008152600401610c6990611bb9565b60405180910390fd5b815f8103610cb5576040517f08c379a0000000000000000000000000000000000000000000000000000000008152600401610cac90611914565b60405180910390fd5b83838060075f8473ffffffffffffffffffffffffffffffffffffffff1673ffffffffffffffffffffffffffffffffffffffff1681526020019081526020015f20541015610d37576040517f08c379a0000000000000000000000000000000000000000000000000000000008152600401610d2e90611a30565b60405180910390fd5b610d4186866114ca565b505050505050565b60055f9054906101000a900473ffffffffffffffffffffffffffffffffffffffff1681565b5f815f8103610db2576040517f08c379a0000000000000000000000000000000000000000000000000000000008152600401610da990611914565b60405180910390fd5b838073ffffffffffffffffffffffffffffffffffffffff165f73ffffffffffffffffffffffffffffffffffffffff1603610e21576040517f08c379a0000000000000000000000000000000000000000000000000000000008152600401610e18906119a2565b60405180910390fd5b33848060075f8473ffffffffffffffffffffffffffffffffffffffff1673ffffffffffffffffffffffffffffffffffffffff1681526020019081526020015f20541015610ea3576040517f08c379a0000000000000000000000000000000000000000000000000000000008152600401610e9a90611a30565b60405180910390fd5b8560075f3373ffffffffffffffffffffffffffffffffffffffff1673ffffffffffffffffffffffffffffffffffffffff1681526020019081526020015f205f828254610eef9190611b09565b925050819055508560075f8973ffffffffffffffffffffffffffffffffffffffff1673ffffffffffffffffffffffffffffffffffffffff1681526020019081526020015f205f828254610f429190611b3c565b925050819055508673ffffffffffffffffffffffffffffffffffffffff163373ffffffffffffffffffffffffffffffffffffffff167fddf252ad1be2c89b69c2b068fc378daa952ba7f163c4a11628f55a4df523b3ef88604051610fa6919061173f565b60405180910390a3600194505050505092915050565b5f60055f9054906101000a900473ffffffffffffffffffffffffffffffffffffffff168073ffffffffffffffffffffffffffffffffffffffff163373ffffffffffffffffffffffffffffffffffffffff161461104d576040517f08c379a000000000000000000000000000000000000000000000000000000000815260040161104490611bb9565b60405180910390fd5b828073ffffffffffffffffffffffffffffffffffffffff165f73ffffffffffffffffffffffffffffffffffffffff16036110bc576040517f08c379a00000000000000000000000000000000000000000000000000000000081526004016110b3906119a2565b60405180910390fd5b5f73ffffffffffffffffffffffffffffffffffffffff1660065f9054906101000a900473ffffffffffffffffffffffffffffffffffffffff1673ffffffffffffffffffffffffffffffffffffffff160361114b576040517f08c379a000000000000000000000000000000000000000000000000000000000815260040161114290611c21565b60405180910390fd5b8360065f6101000a81548173ffffffffffffffffffffffffffffffffffffffff021916908373ffffffffffffffffffffffffffffffffffffffff16021790555060065f9054906101000a900473ffffffffffffffffffffffffffffffffffffffff1673ffffffffffffffffffffffffffffffffffffffff1660055f9054906101000a900473ffffffffffffffffffffffffffffffffffffffff1673ffffffffffffffffffffffffffffffffffffffff167f79d2e4ff11f0c38e318513361054112b3865ca4f53b3c97152af0640db000e2560405160405180910390a3600192505050919050565b5f60065f9054906101000a900473ffffffffffffffffffffffffffffffffffffffff168073ffffffffffffffffffffffffffffffffffffffff163373ffffffffffffffffffffffffffffffffffffffff16146112c3576040517f08c379a00000000000000000000000000000000000000000000000000000000081526004016112ba90611bb9565b60405180910390fd5b60065f9054906101000a900473ffffffffffffffffffffffffffffffffffffffff1660055f6101000a81548173ffffffffffffffffffffffffffffffffffffffff021916908373ffffffffffffffffffffffffffffffffffffffff1602179055505f60065f6101000a81548173ffffffffffffffffffffffffffffffffffffffff021916908373ffffffffffffffffffffffffffffffffffffffff16021790555060055f9054906101000a900473ffffffffffffffffffffffffffffffffffffffff1673ffffffffffffffffffffffffffffffffffffffff167f96a25b4900cebf93ed691b1c763e37a5a01cd4b9b62e0df10688a47856def7a560405160405180910390a2600191505090565b60045481565b6008602052815f5260405f20602052805f5260405f205f91509150505481565b8060075f8473ffffffffffffffffffffffffffffffffffffffff1673ffffffffffffffffffffffffffffffffffffffff1681526020019081526020015f205f8282546114429190611b3c565b925050819055508060035f82825461145a9190611b3c565b925050819055508173ffffffffffffffffffffffffffffffffffffffff165f73ffffffffffffffffffffffffffffffffffffffff167fddf252ad1be2c89b69c2b068fc378daa952ba7f163c4a11628f55a4df523b3ef836040516114be919061173f565b60405180910390a35050565b8060075f8473ffffffffffffffffffffffffffffffffffffffff1673ffffffffffffffffffffffffffffffffffffffff1681526020019081526020015f205f8282546115169190611b09565b925050819055508060035f82825461152e9190611b09565b925050819055505f73ffffffffffffffffffffffffffffffffffffffff168273ffffffffffffffffffffffffffffffffffffffff167fddf252ad1be2c89b69c2b068fc378daa952ba7f163c4a11628f55a4df523b3ef83604051611592919061173f565b60405180910390a35050565b5f81519050919050565b5f82825260208201905092915050565b8281835e5f83830152505050565b5f601f19601f8301169050919050565b5f6115e08261159e565b6115ea81856115a8565b93506115fa8185602086016115b8565b611603816115c6565b840191505092915050565b5f6020820190508181035f83015261162681846115d6565b905092915050565b5f80fd5b5f73ffffffffffffffffffffffffffffffffffffffff82169050919050565b5f61165b82611632565b9050919050565b61166b81611651565b8114611675575f80fd5b50565b5f8135905061168681611662565b92915050565b5f819050919050565b61169e8161168c565b81146116a8575f80fd5b50565b5f813590506116b981611695565b92915050565b5f80604083850312156116d5576116d461162e565b5b5f6116e285828601611678565b92505060206116f3858286016116ab565b9150509250929050565b5f8115159050919050565b611711816116fd565b82525050565b5f60208201905061172a5f830184611708565b92915050565b6117398161168c565b82525050565b5f6020820190506117525f830184611730565b92915050565b5f805f6060848603121561176f5761176e61162e565b5b5f61177c86828701611678565b935050602061178d86828701611678565b925050604061179e868287016116ab565b9150509250925092565b5f60ff82169050919050565b6117bd816117a8565b82525050565b5f6020820190506117d65f8301846117b4565b92915050565b6117e581611651565b82525050565b5f6020820190506117fe5f8301846117dc565b92915050565b5f602082840312156118195761181861162e565b5b5f61182684828501611678565b91505092915050565b5f80604083850312156118455761184461162e565b5b5f61185285828601611678565b925050602061186385828601611678565b9150509250929050565b7f4e487b71000000000000000000000000000000000000000000000000000000005f52602260045260245ffd5b5f60028204905060018216806118b157607f821691505b6020821081036118c4576118c361186d565b5b50919050565b7f416d6f756e74206d7573742062652067726561746572207468616e207a65726f5f82015250565b5f6118fe6020836115a8565b9150611909826118ca565b602082019050919050565b5f6020820190508181035f83015261192b816118f2565b9050919050565b7f5472616e7366657220746f20746865207a65726f2061646472657373206973205f8201527f6e6f7420616c6c6f776564000000000000000000000000000000000000000000602082015250565b5f61198c602b836115a8565b915061199782611932565b604082019050919050565b5f6020820190508181035f8301526119b981611980565b9050919050565b7f43616c6c657220646f6573206e6f7420686176652073756666696369656e74205f8201527f62616c616e636500000000000000000000000000000000000000000000000000602082015250565b5f611a1a6027836115a8565b9150611a25826119c0565b604082019050919050565b5f6020820190508181035f830152611a4781611a0e565b9050919050565b7f43616c6c657220646f6573206e6f7420686176652073756666696369656e74205f8201527f616c6c6f77616e63650000000000000000000000000000000000000000000000602082015250565b5f611aa86029836115a8565b9150611ab382611a4e565b604082019050919050565b5f6020820190508181035f830152611ad581611a9c565b9050919050565b7f4e487b71000000000000000000000000000000000000000000000000000000005f52601160045260245ffd5b5f611b138261168c565b9150611b1e8361168c565b9250828203905081811115611b3657611b35611adc565b5b92915050565b5f611b468261168c565b9150611b518361168c565b9250828201905080821115611b6957611b68611adc565b5b92915050565b7f43616c6c6572206973206e6f7420617574686f72697a656400000000000000005f82015250565b5f611ba36018836115a8565b9150611bae82611b6f565b602082019050919050565b5f6020820190508181035f830152611bd081611b97565b9050919050565b7f496e76616c6964206e6577206f776e65722061646472657373000000000000005f82015250565b5f611c0b6019836115a8565b9150611c1682611bd7565b602082019050919050565b5f6020820190508181035f830152611c3881611bff565b905091905056fea26469706673582212209fa26c97ba0a5c3351d37d2152f554025050665bed425b685ab5648ddb50909664736f6c63430008190033",
					"opcodes": "PUSH1 0x80 PUSH1 0x40 MSTORE CALLVALUE DUP1 ISZERO PUSH2 0xF JUMPI PUSH0 DUP1 REVERT JUMPDEST POP PUSH1 0x40 MLOAD PUSH2 0x22D6 CODESIZE SUB DUP1 PUSH2 0x22D6 DUP4 CODECOPY DUP2 DUP2 ADD PUSH1 0x40 MSTORE DUP2 ADD SWAP1 PUSH2 0x31 SWAP2 SWAP1 PUSH2 0x2D2 JUMP JUMPDEST DUP5 PUSH1 0x5 PUSH0 PUSH2 0x100 EXP DUP2 SLOAD DUP2 PUSH20 0xFFFFFFFFFFFFFFFFFFFFFFFFFFFFFFFFFFFFFFFF MUL NOT AND SWAP1 DUP4 PUSH20 0xFFFFFFFFFFFFFFFFFFFFFFFFFFFFFFFFFFFFFFFF AND MUL OR SWAP1 SSTORE POP DUP4 PUSH0 SWAP1 DUP2 PUSH2 0x7F SWAP2 SWAP1 PUSH2 0x585 JUMP JUMPDEST POP DUP3 PUSH1 0x1 SWAP1 DUP2 PUSH2 0x8F SWAP2 SWAP1 PUSH2 0x585 JUMP JUMPDEST POP DUP2 PUSH1 0x2 PUSH0 PUSH2 0x100 EXP DUP2 SLOAD DUP2 PUSH1 0xFF MUL NOT AND SWAP1 DUP4 PUSH1 0xFF AND MUL OR SWAP1 SSTORE POP DUP1 PUSH1 0x4 DUP2 SWAP1 SSTORE POP PUSH0 PUSH1 0x3 DUP2 SWAP1 SSTORE POP POP POP POP POP POP PUSH2 0x654 JUMP JUMPDEST PUSH0 PUSH1 0x40 MLOAD SWAP1 POP SWAP1 JUMP JUMPDEST PUSH0 DUP1 REVERT JUMPDEST PUSH0 DUP1 REVERT JUMPDEST PUSH0 PUSH20 0xFFFFFFFFFFFFFFFFFFFFFFFFFFFFFFFFFFFFFFFF DUP3 AND SWAP1 POP SWAP2 SWAP1 POP JUMP JUMPDEST PUSH0 PUSH2 0xFC DUP3 PUSH2 0xD3 JUMP JUMPDEST SWAP1 POP SWAP2 SWAP1 POP JUMP JUMPDEST PUSH2 0x10C DUP2 PUSH2 0xF2 JUMP JUMPDEST DUP2 EQ PUSH2 0x116 JUMPI PUSH0 DUP1 REVERT JUMPDEST POP JUMP JUMPDEST PUSH0 DUP2 MLOAD SWAP1 POP PUSH2 0x127 DUP2 PUSH2 0x103 JUMP JUMPDEST SWAP3 SWAP2 POP POP JUMP JUMPDEST PUSH0 DUP1 REVERT JUMPDEST PUSH0 DUP1 REVERT JUMPDEST PUSH0 PUSH1 0x1F NOT PUSH1 0x1F DUP4 ADD AND SWAP1 POP SWAP2 SWAP1 POP JUMP JUMPDEST PUSH32 0x4E487B7100000000000000000000000000000000000000000000000000000000 PUSH0 MSTORE PUSH1 0x41 PUSH1 0x4 MSTORE PUSH1 0x24 PUSH0 REVERT JUMPDEST PUSH2 0x17B DUP3 PUSH2 0x135 JUMP JUMPDEST DUP2 ADD DUP2 DUP2 LT PUSH8 0xFFFFFFFFFFFFFFFF DUP3 GT OR ISZERO PUSH2 0x19A JUMPI PUSH2 0x199 PUSH2 0x145 JUMP JUMPDEST JUMPDEST DUP1 PUSH1 0x40 MSTORE POP POP POP JUMP JUMPDEST PUSH0 PUSH2 0x1AC PUSH2 0xC2 JUMP JUMPDEST SWAP1 POP PUSH2 0x1B8 DUP3 DUP3 PUSH2 0x172 JUMP JUMPDEST SWAP2 SWAP1 POP JUMP JUMPDEST PUSH0 PUSH8 0xFFFFFFFFFFFFFFFF DUP3 GT ISZERO PUSH2 0x1D7 JUMPI PUSH2 0x1D6 PUSH2 0x145 JUMP JUMPDEST JUMPDEST PUSH2 0x1E0 DUP3 PUSH2 0x135 JUMP JUMPDEST SWAP1 POP PUSH1 0x20 DUP2 ADD SWAP1 POP SWAP2 SWAP1 POP JUMP JUMPDEST DUP3 DUP2 DUP4 MCOPY PUSH0 DUP4 DUP4 ADD MSTORE POP POP POP JUMP JUMPDEST PUSH0 PUSH2 0x20D PUSH2 0x208 DUP5 PUSH2 0x1BD JUMP JUMPDEST PUSH2 0x1A3 JUMP JUMPDEST SWAP1 POP DUP3 DUP2 MSTORE PUSH1 0x20 DUP2 ADD DUP5 DUP5 DUP5 ADD GT ISZERO PUSH2 0x229 JUMPI PUSH2 0x228 PUSH2 0x131 JUMP JUMPDEST JUMPDEST PUSH2 0x234 DUP5 DUP3 DUP6 PUSH2 0x1ED JUMP JUMPDEST POP SWAP4 SWAP3 POP POP POP JUMP JUMPDEST PUSH0 DUP3 PUSH1 0x1F DUP4 ADD SLT PUSH2 0x250 JUMPI PUSH2 0x24F PUSH2 0x12D JUMP JUMPDEST JUMPDEST DUP2 MLOAD PUSH2 0x260 DUP5 DUP3 PUSH1 0x20 DUP7 ADD PUSH2 0x1FB JUMP JUMPDEST SWAP2 POP POP SWAP3 SWAP2 POP POP JUMP JUMPDEST PUSH0 PUSH1 0xFF DUP3 AND SWAP1 POP SWAP2 SWAP1 POP JUMP JUMPDEST PUSH2 0x27E DUP2 PUSH2 0x269 JUMP JUMPDEST DUP2 EQ PUSH2 0x288 JUMPI PUSH0 DUP1 REVERT JUMPDEST POP JUMP JUMPDEST PUSH0 DUP2 MLOAD SWAP1 POP PUSH2 0x299 DUP2 PUSH2 0x275 JUMP JUMPDEST SWAP3 SWAP2 POP POP JUMP JUMPDEST PUSH0 DUP2 SWAP1 POP SWAP2 SWAP1 POP JUMP JUMPDEST PUSH2 0x2B1 DUP2 PUSH2 0x29F JUMP JUMPDEST DUP2 EQ PUSH2 0x2BB JUMPI PUSH0 DUP1 REVERT JUMPDEST POP JUMP JUMPDEST PUSH0 DUP2 MLOAD SWAP1 POP PUSH2 0x2CC DUP2 PUSH2 0x2A8 JUMP JUMPDEST SWAP3 SWAP2 POP POP JUMP JUMPDEST PUSH0 DUP1 PUSH0 DUP1 PUSH0 PUSH1 0xA0 DUP7 DUP9 SUB SLT ISZERO PUSH2 0x2EB JUMPI PUSH2 0x2EA PUSH2 0xCB JUMP JUMPDEST JUMPDEST PUSH0 PUSH2 0x2F8 DUP9 DUP3 DUP10 ADD PUSH2 0x119 JUMP JUMPDEST SWAP6 POP POP PUSH1 0x20 DUP7 ADD MLOAD PUSH8 0xFFFFFFFFFFFFFFFF DUP2 GT ISZERO PUSH2 0x319 JUMPI PUSH2 0x318 PUSH2 0xCF JUMP JUMPDEST JUMPDEST PUSH2 0x325 DUP9 DUP3 DUP10 ADD PUSH2 0x23C JUMP JUMPDEST SWAP5 POP POP PUSH1 0x40 DUP7 ADD MLOAD PUSH8 0xFFFFFFFFFFFFFFFF DUP2 GT ISZERO PUSH2 0x346 JUMPI PUSH2 0x345 PUSH2 0xCF JUMP JUMPDEST JUMPDEST PUSH2 0x352 DUP9 DUP3 DUP10 ADD PUSH2 0x23C JUMP JUMPDEST SWAP4 POP POP PUSH1 0x60 PUSH2 0x363 DUP9 DUP3 DUP10 ADD PUSH2 0x28B JUMP JUMPDEST SWAP3 POP POP PUSH1 0x80 PUSH2 0x374 DUP9 DUP3 DUP10 ADD PUSH2 0x2BE JUMP JUMPDEST SWAP2 POP POP SWAP3 SWAP6 POP SWAP3 SWAP6 SWAP1 SWAP4 POP JUMP JUMPDEST PUSH0 DUP2 MLOAD SWAP1 POP SWAP2 SWAP1 POP JUMP JUMPDEST PUSH32 0x4E487B7100000000000000000000000000000000000000000000000000000000 PUSH0 MSTORE PUSH1 0x22 PUSH1 0x4 MSTORE PUSH1 0x24 PUSH0 REVERT JUMPDEST PUSH0 PUSH1 0x2 DUP3 DIV SWAP1 POP PUSH1 0x1 DUP3 AND DUP1 PUSH2 0x3CF JUMPI PUSH1 0x7F DUP3 AND SWAP2 POP JUMPDEST PUSH1 0x20 DUP3 LT DUP2 SUB PUSH2 0x3E2 JUMPI PUSH2 0x3E1 PUSH2 0x38B JUMP JUMPDEST JUMPDEST POP SWAP2 SWAP1 POP JUMP JUMPDEST PUSH0 DUP2 SWAP1 POP DUP2 PUSH0 MSTORE PUSH1 0x20 PUSH0 KECCAK256 SWAP1 POP SWAP2 SWAP1 POP JUMP JUMPDEST PUSH0 PUSH1 0x20 PUSH1 0x1F DUP4 ADD DIV SWAP1 POP SWAP2 SWAP1 POP JUMP JUMPDEST PUSH0 DUP3 DUP3 SHL SWAP1 POP SWAP3 SWAP2 POP POP JUMP JUMPDEST PUSH0 PUSH1 0x8 DUP4 MUL PUSH2 0x444 PUSH32 0xFFFFFFFFFFFFFFFFFFFFFFFFFFFFFFFFFFFFFFFFFFFFFFFFFFFFFFFFFFFFFFFF DUP3 PUSH2 0x409 JUMP JUMPDEST PUSH2 0x44E DUP7 DUP4 PUSH2 0x409 JUMP JUMPDEST SWAP6 POP DUP1 NOT DUP5 AND SWAP4 POP DUP1 DUP7 AND DUP5 OR SWAP3 POP POP POP SWAP4 SWAP3 POP POP POP JUMP JUMPDEST PUSH0 DUP2 SWAP1 POP SWAP2 SWAP1 POP JUMP JUMPDEST PUSH0 PUSH2 0x489 PUSH2 0x484 PUSH2 0x47F DUP5 PUSH2 0x29F JUMP JUMPDEST PUSH2 0x466 JUMP JUMPDEST PUSH2 0x29F JUMP JUMPDEST SWAP1 POP SWAP2 SWAP1 POP JUMP JUMPDEST PUSH0 DUP2 SWAP1 POP SWAP2 SWAP1 POP JUMP JUMPDEST PUSH2 0x4A2 DUP4 PUSH2 0x46F JUMP JUMPDEST PUSH2 0x4B6 PUSH2 0x4AE DUP3 PUSH2 0x490 JUMP JUMPDEST DUP5 DUP5 SLOAD PUSH2 0x415 JUMP JUMPDEST DUP3 SSTORE POP POP POP POP JUMP JUMPDEST PUSH0 SWAP1 JUMP JUMPDEST PUSH2 0x4CA PUSH2 0x4BE JUMP JUMPDEST PUSH2 0x4D5 DUP2 DUP5 DUP5 PUSH2 0x499 JUMP JUMPDEST POP POP POP JUMP JUMPDEST JUMPDEST DUP2 DUP2 LT ISZERO PUSH2 0x4F8 JUMPI PUSH2 0x4ED PUSH0 DUP3 PUSH2 0x4C2 JUMP JUMPDEST PUSH1 0x1 DUP2 ADD SWAP1 POP PUSH2 0x4DB JUMP JUMPDEST POP POP JUMP JUMPDEST PUSH1 0x1F DUP3 GT ISZERO PUSH2 0x53D JUMPI PUSH2 0x50E DUP2 PUSH2 0x3E8 JUMP JUMPDEST PUSH2 0x517 DUP5 PUSH2 0x3FA JUMP JUMPDEST DUP2 ADD PUSH1 0x20 DUP6 LT ISZERO PUSH2 0x526 JUMPI DUP2 SWAP1 POP JUMPDEST PUSH2 0x53A PUSH2 0x532 DUP6 PUSH2 0x3FA JUMP JUMPDEST DUP4 ADD DUP3 PUSH2 0x4DA JUMP JUMPDEST POP POP JUMPDEST POP POP POP JUMP JUMPDEST PUSH0 DUP3 DUP3 SHR SWAP1 POP SWAP3 SWAP2 POP POP JUMP JUMPDEST PUSH0 PUSH2 0x55D PUSH0 NOT DUP5 PUSH1 0x8 MUL PUSH2 0x542 JUMP JUMPDEST NOT DUP1 DUP4 AND SWAP2 POP POP SWAP3 SWAP2 POP POP JUMP JUMPDEST PUSH0 PUSH2 0x575 DUP4 DUP4 PUSH2 0x54E JUMP JUMPDEST SWAP2 POP DUP3 PUSH1 0x2 MUL DUP3 OR SWAP1 POP SWAP3 SWAP2 POP POP JUMP JUMPDEST PUSH2 0x58E DUP3 PUSH2 0x381 JUMP JUMPDEST PUSH8 0xFFFFFFFFFFFFFFFF DUP2 GT ISZERO PUSH2 0x5A7 JUMPI PUSH2 0x5A6 PUSH2 0x145 JUMP JUMPDEST JUMPDEST PUSH2 0x5B1 DUP3 SLOAD PUSH2 0x3B8 JUMP JUMPDEST PUSH2 0x5BC DUP3 DUP3 DUP6 PUSH2 0x4FC JUMP JUMPDEST PUSH0 PUSH1 0x20 SWAP1 POP PUSH1 0x1F DUP4 GT PUSH1 0x1 DUP2 EQ PUSH2 0x5ED JUMPI PUSH0 DUP5 ISZERO PUSH2 0x5DB JUMPI DUP3 DUP8 ADD MLOAD SWAP1 POP JUMPDEST PUSH2 0x5E5 DUP6 DUP3 PUSH2 0x56A JUMP JUMPDEST DUP7 SSTORE POP PUSH2 0x64C JUMP JUMPDEST PUSH1 0x1F NOT DUP5 AND PUSH2 0x5FB DUP7 PUSH2 0x3E8 JUMP JUMPDEST PUSH0 JUMPDEST DUP3 DUP2 LT ISZERO PUSH2 0x622 JUMPI DUP5 DUP10 ADD MLOAD DUP3 SSTORE PUSH1 0x1 DUP3 ADD SWAP2 POP PUSH1 0x20 DUP6 ADD SWAP5 POP PUSH1 0x20 DUP2 ADD SWAP1 POP PUSH2 0x5FD JUMP JUMPDEST DUP7 DUP4 LT ISZERO PUSH2 0x63F JUMPI DUP5 DUP10 ADD MLOAD PUSH2 0x63B PUSH1 0x1F DUP10 AND DUP3 PUSH2 0x54E JUMP JUMPDEST DUP4 SSTORE POP JUMPDEST PUSH1 0x1 PUSH1 0x2 DUP9 MUL ADD DUP9 SSTORE POP POP POP JUMPDEST POP POP POP POP POP POP JUMP JUMPDEST PUSH2 0x1C75 DUP1 PUSH2 0x661 PUSH0 CODECOPY PUSH0 RETURN INVALID PUSH1 0x80 PUSH1 0x40 MSTORE CALLVALUE DUP1 ISZERO PUSH2 0xF JUMPI PUSH0 DUP1 REVERT JUMPDEST POP PUSH1 0x4 CALLDATASIZE LT PUSH2 0xFE JUMPI PUSH0 CALLDATALOAD PUSH1 0xE0 SHR DUP1 PUSH4 0x95D89B41 GT PUSH2 0x95 JUMPI DUP1 PUSH4 0xBBAED518 GT PUSH2 0x64 JUMPI DUP1 PUSH4 0xBBAED518 EQ PUSH2 0x2AE JUMPI DUP1 PUSH4 0xC06DF1E9 EQ PUSH2 0x2DE JUMPI DUP1 PUSH4 0xD5ABEB01 EQ PUSH2 0x2FC JUMPI DUP1 PUSH4 0xDD62ED3E EQ PUSH2 0x31A JUMPI PUSH2 0xFE JUMP JUMPDEST DUP1 PUSH4 0x95D89B41 EQ PUSH2 0x226 JUMPI DUP1 PUSH4 0x9DC29FAC EQ PUSH2 0x244 JUMPI DUP1 PUSH4 0xA3E67610 EQ PUSH2 0x260 JUMPI DUP1 PUSH4 0xA9059CBB EQ PUSH2 0x27E JUMPI PUSH2 0xFE JUMP JUMPDEST DUP1 PUSH4 0x313CE567 GT PUSH2 0xD1 JUMPI DUP1 PUSH4 0x313CE567 EQ PUSH2 0x19E JUMPI DUP1 PUSH4 0x40C10F19 EQ PUSH2 0x1BC JUMPI DUP1 PUSH4 0x5B833F1E EQ PUSH2 0x1D8 JUMPI DUP1 PUSH4 0x70A08231 EQ PUSH2 0x1F6 JUMPI PUSH2 0xFE JUMP JUMPDEST DUP1 PUSH4 0x6FDDE03 EQ PUSH2 0x102 JUMPI DUP1 PUSH4 0x95EA7B3 EQ PUSH2 0x120 JUMPI DUP1 PUSH4 0x18160DDD EQ PUSH2 0x150 JUMPI DUP1 PUSH4 0x23B872DD EQ PUSH2 0x16E JUMPI JUMPDEST PUSH0 DUP1 REVERT JUMPDEST PUSH2 0x10A PUSH2 0x34A JUMP JUMPDEST PUSH1 0x40 MLOAD PUSH2 0x117 SWAP2 SWAP1 PUSH2 0x160E JUMP JUMPDEST PUSH1 0x40 MLOAD DUP1 SWAP2 SUB SWAP1 RETURN JUMPDEST PUSH2 0x13A PUSH1 0x4 DUP1 CALLDATASIZE SUB DUP2 ADD SWAP1 PUSH2 0x135 SWAP2 SWAP1 PUSH2 0x16BF JUMP JUMPDEST PUSH2 0x3D5 JUMP JUMPDEST PUSH1 0x40 MLOAD PUSH2 0x147 SWAP2 SWAP1 PUSH2 0x1717 JUMP JUMPDEST PUSH1 0x40 MLOAD DUP1 SWAP2 SUB SWAP1 RETURN JUMPDEST PUSH2 0x158 PUSH2 0x5FA JUMP JUMPDEST PUSH1 0x40 MLOAD PUSH2 0x165 SWAP2 SWAP1 PUSH2 0x173F JUMP JUMPDEST PUSH1 0x40 MLOAD DUP1 SWAP2 SUB SWAP1 RETURN JUMPDEST PUSH2 0x188 PUSH1 0x4 DUP1 CALLDATASIZE SUB DUP2 ADD SWAP1 PUSH2 0x183 SWAP2 SWAP1 PUSH2 0x1758 JUMP JUMPDEST PUSH2 0x600 JUMP JUMPDEST PUSH1 0x40 MLOAD PUSH2 0x195 SWAP2 SWAP1 PUSH2 0x1717 JUMP JUMPDEST PUSH1 0x40 MLOAD DUP1 SWAP2 SUB SWAP1 RETURN JUMPDEST PUSH2 0x1A6 PUSH2 0x99C JUMP JUMPDEST PUSH1 0x40 MLOAD PUSH2 0x1B3 SWAP2 SWAP1 PUSH2 0x17C3 JUMP JUMPDEST PUSH1 0x40 MLOAD DUP1 SWAP2 SUB SWAP1 RETURN JUMPDEST PUSH2 0x1D6 PUSH1 0x4 DUP1 CALLDATASIZE SUB DUP2 ADD SWAP1 PUSH2 0x1D1 SWAP2 SWAP1 PUSH2 0x16BF JUMP JUMPDEST PUSH2 0x9AE JUMP JUMPDEST STOP JUMPDEST PUSH2 0x1E0 PUSH2 0xB1C JUMP JUMPDEST PUSH1 0x40 MLOAD PUSH2 0x1ED SWAP2 SWAP1 PUSH2 0x17EB JUMP JUMPDEST PUSH1 0x40 MLOAD DUP1 SWAP2 SUB SWAP1 RETURN JUMPDEST PUSH2 0x210 PUSH1 0x4 DUP1 CALLDATASIZE SUB DUP2 ADD SWAP1 PUSH2 0x20B SWAP2 SWAP1 PUSH2 0x1804 JUMP JUMPDEST PUSH2 0xB41 JUMP JUMPDEST PUSH1 0x40 MLOAD PUSH2 0x21D SWAP2 SWAP1 PUSH2 0x173F JUMP JUMPDEST PUSH1 0x40 MLOAD DUP1 SWAP2 SUB SWAP1 RETURN JUMPDEST PUSH2 0x22E PUSH2 0xB56 JUMP JUMPDEST PUSH1 0x40 MLOAD PUSH2 0x23B SWAP2 SWAP1 PUSH2 0x160E JUMP JUMPDEST PUSH1 0x40 MLOAD DUP1 SWAP2 SUB SWAP1 RETURN JUMPDEST PUSH2 0x25E PUSH1 0x4 DUP1 CALLDATASIZE SUB DUP2 ADD SWAP1 PUSH2 0x259 SWAP2 SWAP1 PUSH2 0x16BF JUMP JUMPDEST PUSH2 0xBE2 JUMP JUMPDEST STOP JUMPDEST PUSH2 0x268 PUSH2 0xD49 JUMP JUMPDEST PUSH1 0x40 MLOAD PUSH2 0x275 SWAP2 SWAP1 PUSH2 0x17EB JUMP JUMPDEST PUSH1 0x40 MLOAD DUP1 SWAP2 SUB SWAP1 RETURN JUMPDEST PUSH2 0x298 PUSH1 0x4 DUP1 CALLDATASIZE SUB DUP2 ADD SWAP1 PUSH2 0x293 SWAP2 SWAP1 PUSH2 0x16BF JUMP JUMPDEST PUSH2 0xD6E JUMP JUMPDEST PUSH1 0x40 MLOAD PUSH2 0x2A5 SWAP2 SWAP1 PUSH2 0x1717 JUMP JUMPDEST PUSH1 0x40 MLOAD DUP1 SWAP2 SUB SWAP1 RETURN JUMPDEST PUSH2 0x2C8 PUSH1 0x4 DUP1 CALLDATASIZE SUB DUP2 ADD SWAP1 PUSH2 0x2C3 SWAP2 SWAP1 PUSH2 0x1804 JUMP JUMPDEST PUSH2 0xFBC JUMP JUMPDEST PUSH1 0x40 MLOAD PUSH2 0x2D5 SWAP2 SWAP1 PUSH2 0x1717 JUMP JUMPDEST PUSH1 0x40 MLOAD DUP1 SWAP2 SUB SWAP1 RETURN JUMPDEST PUSH2 0x2E6 PUSH2 0x1232 JUMP JUMPDEST PUSH1 0x40 MLOAD PUSH2 0x2F3 SWAP2 SWAP1 PUSH2 0x1717 JUMP JUMPDEST PUSH1 0x40 MLOAD DUP1 SWAP2 SUB SWAP1 RETURN JUMPDEST PUSH2 0x304 PUSH2 0x13D0 JUMP JUMPDEST PUSH1 0x40 MLOAD PUSH2 0x311 SWAP2 SWAP1 PUSH2 0x173F JUMP JUMPDEST PUSH1 0x40 MLOAD DUP1 SWAP2 SUB SWAP1 RETURN JUMPDEST PUSH2 0x334 PUSH1 0x4 DUP1 CALLDATASIZE SUB DUP2 ADD SWAP1 PUSH2 0x32F SWAP2 SWAP1 PUSH2 0x182F JUMP JUMPDEST PUSH2 0x13D6 JUMP JUMPDEST PUSH1 0x40 MLOAD PUSH2 0x341 SWAP2 SWAP1 PUSH2 0x173F JUMP JUMPDEST PUSH1 0x40 MLOAD DUP1 SWAP2 SUB SWAP1 RETURN JUMPDEST PUSH0 DUP1 SLOAD PUSH2 0x356 SWAP1 PUSH2 0x189A JUMP JUMPDEST DUP1 PUSH1 0x1F ADD PUSH1 0x20 DUP1 SWAP2 DIV MUL PUSH1 0x20 ADD PUSH1 0x40 MLOAD SWAP1 DUP2 ADD PUSH1 0x40 MSTORE DUP1 SWAP3 SWAP2 SWAP1 DUP2 DUP2 MSTORE PUSH1 0x20 ADD DUP3 DUP1 SLOAD PUSH2 0x382 SWAP1 PUSH2 0x189A JUMP JUMPDEST DUP1 ISZERO PUSH2 0x3CD JUMPI DUP1 PUSH1 0x1F LT PUSH2 0x3A4 JUMPI PUSH2 0x100 DUP1 DUP4 SLOAD DIV MUL DUP4 MSTORE SWAP2 PUSH1 0x20 ADD SWAP2 PUSH2 0x3CD JUMP JUMPDEST DUP3 ADD SWAP2 SWAP1 PUSH0 MSTORE PUSH1 0x20 PUSH0 KECCAK256 SWAP1 JUMPDEST DUP2 SLOAD DUP2 MSTORE SWAP1 PUSH1 0x1 ADD SWAP1 PUSH1 0x20 ADD DUP1 DUP4 GT PUSH2 0x3B0 JUMPI DUP3 SWAP1 SUB PUSH1 0x1F AND DUP3 ADD SWAP2 JUMPDEST POP POP POP POP POP DUP2 JUMP JUMPDEST PUSH0 DUP2 PUSH0 DUP2 SUB PUSH2 0x419 JUMPI PUSH1 0x40 MLOAD PUSH32 0x8C379A000000000000000000000000000000000000000000000000000000000 DUP2 MSTORE PUSH1 0x4 ADD PUSH2 0x410 SWAP1 PUSH2 0x1914 JUMP JUMPDEST PUSH1 0x40 MLOAD DUP1 SWAP2 SUB SWAP1 REVERT JUMPDEST DUP4 DUP1 PUSH20 0xFFFFFFFFFFFFFFFFFFFFFFFFFFFFFFFFFFFFFFFF AND PUSH0 PUSH20 0xFFFFFFFFFFFFFFFFFFFFFFFFFFFFFFFFFFFFFFFF AND SUB PUSH2 0x488 JUMPI PUSH1 0x40 MLOAD PUSH32 0x8C379A000000000000000000000000000000000000000000000000000000000 DUP2 MSTORE PUSH1 0x4 ADD PUSH2 0x47F SWAP1 PUSH2 0x19A2 JUMP JUMPDEST PUSH1 0x40 MLOAD DUP1 SWAP2 SUB SWAP1 REVERT JUMPDEST CALLER DUP5 DUP1 PUSH1 0x7 PUSH0 DUP5 PUSH20 0xFFFFFFFFFFFFFFFFFFFFFFFFFFFFFFFFFFFFFFFF AND PUSH20 0xFFFFFFFFFFFFFFFFFFFFFFFFFFFFFFFFFFFFFFFF AND DUP2 MSTORE PUSH1 0x20 ADD SWAP1 DUP2 MSTORE PUSH1 0x20 ADD PUSH0 KECCAK256 SLOAD LT ISZERO PUSH2 0x50A JUMPI PUSH1 0x40 MLOAD PUSH32 0x8C379A000000000000000000000000000000000000000000000000000000000 DUP2 MSTORE PUSH1 0x4 ADD PUSH2 0x501 SWAP1 PUSH2 0x1A30 JUMP JUMPDEST PUSH1 0x40 MLOAD DUP1 SWAP2 SUB SWAP1 REVERT JUMPDEST DUP6 PUSH1 0x8 PUSH0 CALLER PUSH20 0xFFFFFFFFFFFFFFFFFFFFFFFFFFFFFFFFFFFFFFFF AND PUSH20 0xFFFFFFFFFFFFFFFFFFFFFFFFFFFFFFFFFFFFFFFF AND DUP2 MSTORE PUSH1 0x20 ADD SWAP1 DUP2 MSTORE PUSH1 0x20 ADD PUSH0 KECCAK256 PUSH0 DUP10 PUSH20 0xFFFFFFFFFFFFFFFFFFFFFFFFFFFFFFFFFFFFFFFF AND PUSH20 0xFFFFFFFFFFFFFFFFFFFFFFFFFFFFFFFFFFFFFFFF AND DUP2 MSTORE PUSH1 0x20 ADD SWAP1 DUP2 MSTORE PUSH1 0x20 ADD PUSH0 KECCAK256 DUP2 SWAP1 SSTORE POP DUP7 PUSH20 0xFFFFFFFFFFFFFFFFFFFFFFFFFFFFFFFFFFFFFFFF AND CALLER PUSH20 0xFFFFFFFFFFFFFFFFFFFFFFFFFFFFFFFFFFFFFFFF AND PUSH32 0x8C5BE1E5EBEC7D5BD14F71427D1E84F3DD0314C0F7B2291E5B200AC8C7C3B925 DUP9 PUSH1 0x40 MLOAD PUSH2 0x5E4 SWAP2 SWAP1 PUSH2 0x173F JUMP JUMPDEST PUSH1 0x40 MLOAD DUP1 SWAP2 SUB SWAP1 LOG3 PUSH1 0x1 SWAP5 POP POP POP POP POP SWAP3 SWAP2 POP POP JUMP JUMPDEST PUSH1 0x3 SLOAD DUP2 JUMP JUMPDEST PUSH0 DUP2 PUSH0 DUP2 SUB PUSH2 0x644 JUMPI PUSH1 0x40 MLOAD PUSH32 0x8C379A000000000000000000000000000000000000000000000000000000000 DUP2 MSTORE PUSH1 0x4 ADD PUSH2 0x63B SWAP1 PUSH2 0x1914 JUMP JUMPDEST PUSH1 0x40 MLOAD DUP1 SWAP2 SUB SWAP1 REVERT JUMPDEST DUP4 DUP1 PUSH20 0xFFFFFFFFFFFFFFFFFFFFFFFFFFFFFFFFFFFFFFFF AND PUSH0 PUSH20 0xFFFFFFFFFFFFFFFFFFFFFFFFFFFFFFFFFFFFFFFF AND SUB PUSH2 0x6B3 JUMPI PUSH1 0x40 MLOAD PUSH32 0x8C379A000000000000000000000000000000000000000000000000000000000 DUP2 MSTORE PUSH1 0x4 ADD PUSH2 0x6AA SWAP1 PUSH2 0x19A2 JUMP JUMPDEST PUSH1 0x40 MLOAD DUP1 SWAP2 SUB SWAP1 REVERT JUMPDEST DUP6 DUP5 DUP1 PUSH1 0x7 PUSH0 DUP5 PUSH20 0xFFFFFFFFFFFFFFFFFFFFFFFFFFFFFFFFFFFFFFFF AND PUSH20 0xFFFFFFFFFFFFFFFFFFFFFFFFFFFFFFFFFFFFFFFF AND DUP2 MSTORE PUSH1 0x20 ADD SWAP1 DUP2 MSTORE PUSH1 0x20 ADD PUSH0 KECCAK256 SLOAD LT ISZERO PUSH2 0x735 JUMPI PUSH1 0x40 MLOAD PUSH32 0x8C379A000000000000000000000000000000000000000000000000000000000 DUP2 MSTORE PUSH1 0x4 ADD PUSH2 0x72C SWAP1 PUSH2 0x1A30 JUMP JUMPDEST PUSH1 0x40 MLOAD DUP1 SWAP2 SUB SWAP1 REVERT JUMPDEST DUP8 DUP7 DUP1 PUSH1 0x8 PUSH0 DUP5 PUSH20 0xFFFFFFFFFFFFFFFFFFFFFFFFFFFFFFFFFFFFFFFF AND PUSH20 0xFFFFFFFFFFFFFFFFFFFFFFFFFFFFFFFFFFFFFFFF AND DUP2 MSTORE PUSH1 0x20 ADD SWAP1 DUP2 MSTORE PUSH1 0x20 ADD PUSH0 KECCAK256 PUSH0 CALLER PUSH20 0xFFFFFFFFFFFFFFFFFFFFFFFFFFFFFFFFFFFFFFFF AND PUSH20 0xFFFFFFFFFFFFFFFFFFFFFFFFFFFFFFFFFFFFFFFF AND DUP2 MSTORE PUSH1 0x20 ADD SWAP1 DUP2 MSTORE PUSH1 0x20 ADD PUSH0 KECCAK256 SLOAD LT ISZERO PUSH2 0x7F2 JUMPI PUSH1 0x40 MLOAD PUSH32 0x8C379A000000000000000000000000000000000000000000000000000000000 DUP2 MSTORE PUSH1 0x4 ADD PUSH2 0x7E9 SWAP1 PUSH2 0x1ABE JUMP JUMPDEST PUSH1 0x40 MLOAD DUP1 SWAP2 SUB SWAP1 REVERT JUMPDEST DUP8 PUSH1 0x8 PUSH0 DUP13 PUSH20 0xFFFFFFFFFFFFFFFFFFFFFFFFFFFFFFFFFFFFFFFF AND PUSH20 0xFFFFFFFFFFFFFFFFFFFFFFFFFFFFFFFFFFFFFFFF AND DUP2 MSTORE PUSH1 0x20 ADD SWAP1 DUP2 MSTORE PUSH1 0x20 ADD PUSH0 KECCAK256 PUSH0 CALLER PUSH20 0xFFFFFFFFFFFFFFFFFFFFFFFFFFFFFFFFFFFFFFFF AND PUSH20 0xFFFFFFFFFFFFFFFFFFFFFFFFFFFFFFFFFFFFFFFF AND DUP2 MSTORE PUSH1 0x20 ADD SWAP1 DUP2 MSTORE PUSH1 0x20 ADD PUSH0 KECCAK256 PUSH0 DUP3 DUP3 SLOAD PUSH2 0x879 SWAP2 SWAP1 PUSH2 0x1B09 JUMP JUMPDEST SWAP3 POP POP DUP2 SWAP1 SSTORE POP DUP8 PUSH1 0x7 PUSH0 DUP13 PUSH20 0xFFFFFFFFFFFFFFFFFFFFFFFFFFFFFFFFFFFFFFFF AND PUSH20 0xFFFFFFFFFFFFFFFFFFFFFFFFFFFFFFFFFFFFFFFF AND DUP2 MSTORE PUSH1 0x20 ADD SWAP1 DUP2 MSTORE PUSH1 0x20 ADD PUSH0 KECCAK256 PUSH0 DUP3 DUP3 SLOAD PUSH2 0x8CC SWAP2 SWAP1 PUSH2 0x1B09 JUMP JUMPDEST SWAP3 POP POP DUP2 SWAP1 SSTORE POP DUP8 PUSH1 0x7 PUSH0 DUP12 PUSH20 0xFFFFFFFFFFFFFFFFFFFFFFFFFFFFFFFFFFFFFFFF AND PUSH20 0xFFFFFFFFFFFFFFFFFFFFFFFFFFFFFFFFFFFFFFFF AND DUP2 MSTORE PUSH1 0x20 ADD SWAP1 DUP2 MSTORE PUSH1 0x20 ADD PUSH0 KECCAK256 PUSH0 DUP3 DUP3 SLOAD PUSH2 0x91F SWAP2 SWAP1 PUSH2 0x1B3C JUMP JUMPDEST SWAP3 POP POP DUP2 SWAP1 SSTORE POP DUP9 PUSH20 0xFFFFFFFFFFFFFFFFFFFFFFFFFFFFFFFFFFFFFFFF AND DUP11 PUSH20 0xFFFFFFFFFFFFFFFFFFFFFFFFFFFFFFFFFFFFFFFF AND PUSH32 0xDDF252AD1BE2C89B69C2B068FC378DAA952BA7F163C4A11628F55A4DF523B3EF DUP11 PUSH1 0x40 MLOAD PUSH2 0x983 SWAP2 SWAP1 PUSH2 0x173F JUMP JUMPDEST PUSH1 0x40 MLOAD DUP1 SWAP2 SUB SWAP1 LOG3 PUSH1 0x1 SWAP7 POP POP POP POP POP POP POP SWAP4 SWAP3 POP POP POP JUMP JUMPDEST PUSH1 0x2 PUSH0 SWAP1 SLOAD SWAP1 PUSH2 0x100 EXP SWAP1 DIV PUSH1 0xFF AND DUP2 JUMP JUMPDEST PUSH1 0x5 PUSH0 SWAP1 SLOAD SWAP1 PUSH2 0x100 EXP SWAP1 DIV PUSH20 0xFFFFFFFFFFFFFFFFFFFFFFFFFFFFFFFFFFFFFFFF AND DUP1 PUSH20 0xFFFFFFFFFFFFFFFFFFFFFFFFFFFFFFFFFFFFFFFF AND CALLER PUSH20 0xFFFFFFFFFFFFFFFFFFFFFFFFFFFFFFFFFFFFFFFF AND EQ PUSH2 0xA3E JUMPI PUSH1 0x40 MLOAD PUSH32 0x8C379A000000000000000000000000000000000000000000000000000000000 DUP2 MSTORE PUSH1 0x4 ADD PUSH2 0xA35 SWAP1 PUSH2 0x1BB9 JUMP JUMPDEST PUSH1 0x40 MLOAD DUP1 SWAP2 SUB SWAP1 REVERT JUMPDEST DUP2 PUSH0 DUP2 SUB PUSH2 0xA81 JUMPI PUSH1 0x40 MLOAD PUSH32 0x8C379A000000000000000000000000000000000000000000000000000000000 DUP2 MSTORE PUSH1 0x4 ADD PUSH2 0xA78 SWAP1 PUSH2 0x1914 JUMP JUMPDEST PUSH1 0x40 MLOAD DUP1 SWAP2 SUB SWAP1 REVERT JUMPDEST DUP4 DUP1 PUSH20 0xFFFFFFFFFFFFFFFFFFFFFFFFFFFFFFFFFFFFFFFF AND PUSH0 PUSH20 0xFFFFFFFFFFFFFFFFFFFFFFFFFFFFFFFFFFFFFFFF AND SUB PUSH2 0xAF0 JUMPI PUSH1 0x40 MLOAD PUSH32 0x8C379A000000000000000000000000000000000000000000000000000000000 DUP2 MSTORE PUSH1 0x4 ADD PUSH2 0xAE7 SWAP1 PUSH2 0x19A2 JUMP JUMPDEST PUSH1 0x40 MLOAD DUP1 SWAP2 SUB SWAP1 REVERT JUMPDEST PUSH1 0x4 SLOAD DUP5 PUSH1 0x3 SLOAD PUSH2 0xB01 SWAP2 SWAP1 PUSH2 0x1B3C JUMP JUMPDEST GT ISZERO PUSH2 0xB0B JUMPI PUSH0 DUP1 REVERT JUMPDEST PUSH2 0xB15 DUP6 DUP6 PUSH2 0x13F6 JUMP JUMPDEST POP POP POP POP POP JUMP JUMPDEST PUSH1 0x6 PUSH0 SWAP1 SLOAD SWAP1 PUSH2 0x100 EXP SWAP1 DIV PUSH20 0xFFFFFFFFFFFFFFFFFFFFFFFFFFFFFFFFFFFFFFFF AND DUP2 JUMP JUMPDEST PUSH1 0x7 PUSH1 0x20 MSTORE DUP1 PUSH0 MSTORE PUSH1 0x40 PUSH0 KECCAK256 PUSH0 SWAP2 POP SWAP1 POP SLOAD DUP2 JUMP JUMPDEST PUSH1 0x1 DUP1 SLOAD PUSH2 0xB63 SWAP1 PUSH2 0x189A JUMP JUMPDEST DUP1 PUSH1 0x1F ADD PUSH1 0x20 DUP1 SWAP2 DIV MUL PUSH1 0x20 ADD PUSH1 0x40 MLOAD SWAP1 DUP2 ADD PUSH1 0x40 MSTORE DUP1 SWAP3 SWAP2 SWAP1 DUP2 DUP2 MSTORE PUSH1 0x20 ADD DUP3 DUP1 SLOAD PUSH2 0xB8F SWAP1 PUSH2 0x189A JUMP JUMPDEST DUP1 ISZERO PUSH2 0xBDA JUMPI DUP1 PUSH1 0x1F LT PUSH2 0xBB1 JUMPI PUSH2 0x100 DUP1 DUP4 SLOAD DIV MUL DUP4 MSTORE SWAP2 PUSH1 0x20 ADD SWAP2 PUSH2 0xBDA JUMP JUMPDEST DUP3 ADD SWAP2 SWAP1 PUSH0 MSTORE PUSH1 0x20 PUSH0 KECCAK256 SWAP1 JUMPDEST DUP2 SLOAD DUP2 MSTORE SWAP1 PUSH1 0x1 ADD SWAP1 PUSH1 0x20 ADD DUP1 DUP4 GT PUSH2 0xBBD JUMPI DUP3 SWAP1 SUB PUSH1 0x1F AND DUP3 ADD SWAP2 JUMPDEST POP POP POP POP POP DUP2 JUMP JUMPDEST PUSH1 0x5 PUSH0 SWAP1 SLOAD SWAP1 PUSH2 0x100 EXP SWAP1 DIV PUSH20 0xFFFFFFFFFFFFFFFFFFFFFFFFFFFFFFFFFFFFFFFF AND DUP1 PUSH20 0xFFFFFFFFFFFFFFFFFFFFFFFFFFFFFFFFFFFFFFFF AND CALLER PUSH20 0xFFFFFFFFFFFFFFFFFFFFFFFFFFFFFFFFFFFFFFFF AND EQ PUSH2 0xC72 JUMPI PUSH1 0x40 MLOAD PUSH32 0x8C379A000000000000000000000000000000000000000000000000000000000 DUP2 MSTORE PUSH1 0x4 ADD PUSH2 0xC69 SWAP1 PUSH2 0x1BB9 JUMP JUMPDEST PUSH1 0x40 MLOAD DUP1 SWAP2 SUB SWAP1 REVERT JUMPDEST DUP2 PUSH0 DUP2 SUB PUSH2 0xCB5 JUMPI PUSH1 0x40 MLOAD PUSH32 0x8C379A000000000000000000000000000000000000000000000000000000000 DUP2 MSTORE PUSH1 0x4 ADD PUSH2 0xCAC SWAP1 PUSH2 0x1914 JUMP JUMPDEST PUSH1 0x40 MLOAD DUP1 SWAP2 SUB SWAP1 REVERT JUMPDEST DUP4 DUP4 DUP1 PUSH1 0x7 PUSH0 DUP5 PUSH20 0xFFFFFFFFFFFFFFFFFFFFFFFFFFFFFFFFFFFFFFFF AND PUSH20 0xFFFFFFFFFFFFFFFFFFFFFFFFFFFFFFFFFFFFFFFF AND DUP2 MSTORE PUSH1 0x20 ADD SWAP1 DUP2 MSTORE PUSH1 0x20 ADD PUSH0 KECCAK256 SLOAD LT ISZERO PUSH2 0xD37 JUMPI PUSH1 0x40 MLOAD PUSH32 0x8C379A000000000000000000000000000000000000000000000000000000000 DUP2 MSTORE PUSH1 0x4 ADD PUSH2 0xD2E SWAP1 PUSH2 0x1A30 JUMP JUMPDEST PUSH1 0x40 MLOAD DUP1 SWAP2 SUB SWAP1 REVERT JUMPDEST PUSH2 0xD41 DUP7 DUP7 PUSH2 0x14CA JUMP JUMPDEST POP POP POP POP POP POP JUMP JUMPDEST PUSH1 0x5 PUSH0 SWAP1 SLOAD SWAP1 PUSH2 0x100 EXP SWAP1 DIV PUSH20 0xFFFFFFFFFFFFFFFFFFFFFFFFFFFFFFFFFFFFFFFF AND DUP2 JUMP JUMPDEST PUSH0 DUP2 PUSH0 DUP2 SUB PUSH2 0xDB2 JUMPI PUSH1 0x40 MLOAD PUSH32 0x8C379A000000000000000000000000000000000000000000000000000000000 DUP2 MSTORE PUSH1 0x4 ADD PUSH2 0xDA9 SWAP1 PUSH2 0x1914 JUMP JUMPDEST PUSH1 0x40 MLOAD DUP1 SWAP2 SUB SWAP1 REVERT JUMPDEST DUP4 DUP1 PUSH20 0xFFFFFFFFFFFFFFFFFFFFFFFFFFFFFFFFFFFFFFFF AND PUSH0 PUSH20 0xFFFFFFFFFFFFFFFFFFFFFFFFFFFFFFFFFFFFFFFF AND SUB PUSH2 0xE21 JUMPI PUSH1 0x40 MLOAD PUSH32 0x8C379A000000000000000000000000000000000000000000000000000000000 DUP2 MSTORE PUSH1 0x4 ADD PUSH2 0xE18 SWAP1 PUSH2 0x19A2 JUMP JUMPDEST PUSH1 0x40 MLOAD DUP1 SWAP2 SUB SWAP1 REVERT JUMPDEST CALLER DUP5 DUP1 PUSH1 0x7 PUSH0 DUP5 PUSH20 0xFFFFFFFFFFFFFFFFFFFFFFFFFFFFFFFFFFFFFFFF AND PUSH20 0xFFFFFFFFFFFFFFFFFFFFFFFFFFFFFFFFFFFFFFFF AND DUP2 MSTORE PUSH1 0x20 ADD SWAP1 DUP2 MSTORE PUSH1 0x20 ADD PUSH0 KECCAK256 SLOAD LT ISZERO PUSH2 0xEA3 JUMPI PUSH1 0x40 MLOAD PUSH32 0x8C379A000000000000000000000000000000000000000000000000000000000 DUP2 MSTORE PUSH1 0x4 ADD PUSH2 0xE9A SWAP1 PUSH2 0x1A30 JUMP JUMPDEST PUSH1 0x40 MLOAD DUP1 SWAP2 SUB SWAP1 REVERT JUMPDEST DUP6 PUSH1 0x7 PUSH0 CALLER PUSH20 0xFFFFFFFFFFFFFFFFFFFFFFFFFFFFFFFFFFFFFFFF AND PUSH20 0xFFFFFFFFFFFFFFFFFFFFFFFFFFFFFFFFFFFFFFFF AND DUP2 MSTORE PUSH1 0x20 ADD SWAP1 DUP2 MSTORE PUSH1 0x20 ADD PUSH0 KECCAK256 PUSH0 DUP3 DUP3 SLOAD PUSH2 0xEEF SWAP2 SWAP1 PUSH2 0x1B09 JUMP JUMPDEST SWAP3 POP POP DUP2 SWAP1 SSTORE POP DUP6 PUSH1 0x7 PUSH0 DUP10 PUSH20 0xFFFFFFFFFFFFFFFFFFFFFFFFFFFFFFFFFFFFFFFF AND PUSH20 0xFFFFFFFFFFFFFFFFFFFFFFFFFFFFFFFFFFFFFFFF AND DUP2 MSTORE PUSH1 0x20 ADD SWAP1 DUP2 MSTORE PUSH1 0x20 ADD PUSH0 KECCAK256 PUSH0 DUP3 DUP3 SLOAD PUSH2 0xF42 SWAP2 SWAP1 PUSH2 0x1B3C JUMP JUMPDEST SWAP3 POP POP DUP2 SWAP1 SSTORE POP DUP7 PUSH20 0xFFFFFFFFFFFFFFFFFFFFFFFFFFFFFFFFFFFFFFFF AND CALLER PUSH20 0xFFFFFFFFFFFFFFFFFFFFFFFFFFFFFFFFFFFFFFFF AND PUSH32 0xDDF252AD1BE2C89B69C2B068FC378DAA952BA7F163C4A11628F55A4DF523B3EF DUP9 PUSH1 0x40 MLOAD PUSH2 0xFA6 SWAP2 SWAP1 PUSH2 0x173F JUMP JUMPDEST PUSH1 0x40 MLOAD DUP1 SWAP2 SUB SWAP1 LOG3 PUSH1 0x1 SWAP5 POP POP POP POP POP SWAP3 SWAP2 POP POP JUMP JUMPDEST PUSH0 PUSH1 0x5 PUSH0 SWAP1 SLOAD SWAP1 PUSH2 0x100 EXP SWAP1 DIV PUSH20 0xFFFFFFFFFFFFFFFFFFFFFFFFFFFFFFFFFFFFFFFF AND DUP1 PUSH20 0xFFFFFFFFFFFFFFFFFFFFFFFFFFFFFFFFFFFFFFFF AND CALLER PUSH20 0xFFFFFFFFFFFFFFFFFFFFFFFFFFFFFFFFFFFFFFFF AND EQ PUSH2 0x104D JUMPI PUSH1 0x40 MLOAD PUSH32 0x8C379A000000000000000000000000000000000000000000000000000000000 DUP2 MSTORE PUSH1 0x4 ADD PUSH2 0x1044 SWAP1 PUSH2 0x1BB9 JUMP JUMPDEST PUSH1 0x40 MLOAD DUP1 SWAP2 SUB SWAP1 REVERT JUMPDEST DUP3 DUP1 PUSH20 0xFFFFFFFFFFFFFFFFFFFFFFFFFFFFFFFFFFFFFFFF AND PUSH0 PUSH20 0xFFFFFFFFFFFFFFFFFFFFFFFFFFFFFFFFFFFFFFFF AND SUB PUSH2 0x10BC JUMPI PUSH1 0x40 MLOAD PUSH32 0x8C379A000000000000000000000000000000000000000000000000000000000 DUP2 MSTORE PUSH1 0x4 ADD PUSH2 0x10B3 SWAP1 PUSH2 0x19A2 JUMP JUMPDEST PUSH1 0x40 MLOAD DUP1 SWAP2 SUB SWAP1 REVERT JUMPDEST PUSH0 PUSH20 0xFFFFFFFFFFFFFFFFFFFFFFFFFFFFFFFFFFFFFFFF AND PUSH1 0x6 PUSH0 SWAP1 SLOAD SWAP1 PUSH2 0x100 EXP SWAP1 DIV PUSH20 0xFFFFFFFFFFFFFFFFFFFFFFFFFFFFFFFFFFFFFFFF AND PUSH20 0xFFFFFFFFFFFFFFFFFFFFFFFFFFFFFFFFFFFFFFFF AND SUB PUSH2 0x114B JUMPI PUSH1 0x40 MLOAD PUSH32 0x8C379A000000000000000000000000000000000000000000000000000000000 DUP2 MSTORE PUSH1 0x4 ADD PUSH2 0x1142 SWAP1 PUSH2 0x1C21 JUMP JUMPDEST PUSH1 0x40 MLOAD DUP1 SWAP2 SUB SWAP1 REVERT JUMPDEST DUP4 PUSH1 0x6 PUSH0 PUSH2 0x100 EXP DUP2 SLOAD DUP2 PUSH20 0xFFFFFFFFFFFFFFFFFFFFFFFFFFFFFFFFFFFFFFFF MUL NOT AND SWAP1 DUP4 PUSH20 0xFFFFFFFFFFFFFFFFFFFFFFFFFFFFFFFFFFFFFFFF AND MUL OR SWAP1 SSTORE POP PUSH1 0x6 PUSH0 SWAP1 SLOAD SWAP1 PUSH2 0x100 EXP SWAP1 DIV PUSH20 0xFFFFFFFFFFFFFFFFFFFFFFFFFFFFFFFFFFFFFFFF AND PUSH20 0xFFFFFFFFFFFFFFFFFFFFFFFFFFFFFFFFFFFFFFFF AND PUSH1 0x5 PUSH0 SWAP1 SLOAD SWAP1 PUSH2 0x100 EXP SWAP1 DIV PUSH20 0xFFFFFFFFFFFFFFFFFFFFFFFFFFFFFFFFFFFFFFFF AND PUSH20 0xFFFFFFFFFFFFFFFFFFFFFFFFFFFFFFFFFFFFFFFF AND PUSH32 0x79D2E4FF11F0C38E318513361054112B3865CA4F53B3C97152AF0640DB000E25 PUSH1 0x40 MLOAD PUSH1 0x40 MLOAD DUP1 SWAP2 SUB SWAP1 LOG3 PUSH1 0x1 SWAP3 POP POP POP SWAP2 SWAP1 POP JUMP JUMPDEST PUSH0 PUSH1 0x6 PUSH0 SWAP1 SLOAD SWAP1 PUSH2 0x100 EXP SWAP1 DIV PUSH20 0xFFFFFFFFFFFFFFFFFFFFFFFFFFFFFFFFFFFFFFFF AND DUP1 PUSH20 0xFFFFFFFFFFFFFFFFFFFFFFFFFFFFFFFFFFFFFFFF AND CALLER PUSH20 0xFFFFFFFFFFFFFFFFFFFFFFFFFFFFFFFFFFFFFFFF AND EQ PUSH2 0x12C3 JUMPI PUSH1 0x40 MLOAD PUSH32 0x8C379A000000000000000000000000000000000000000000000000000000000 DUP2 MSTORE PUSH1 0x4 ADD PUSH2 0x12BA SWAP1 PUSH2 0x1BB9 JUMP JUMPDEST PUSH1 0x40 MLOAD DUP1 SWAP2 SUB SWAP1 REVERT JUMPDEST PUSH1 0x6 PUSH0 SWAP1 SLOAD SWAP1 PUSH2 0x100 EXP SWAP1 DIV PUSH20 0xFFFFFFFFFFFFFFFFFFFFFFFFFFFFFFFFFFFFFFFF AND PUSH1 0x5 PUSH0 PUSH2 0x100 EXP DUP2 SLOAD DUP2 PUSH20 0xFFFFFFFFFFFFFFFFFFFFFFFFFFFFFFFFFFFFFFFF MUL NOT AND SWAP1 DUP4 PUSH20 0xFFFFFFFFFFFFFFFFFFFFFFFFFFFFFFFFFFFFFFFF AND MUL OR SWAP1 SSTORE POP PUSH0 PUSH1 0x6 PUSH0 PUSH2 0x100 EXP DUP2 SLOAD DUP2 PUSH20 0xFFFFFFFFFFFFFFFFFFFFFFFFFFFFFFFFFFFFFFFF MUL NOT AND SWAP1 DUP4 PUSH20 0xFFFFFFFFFFFFFFFFFFFFFFFFFFFFFFFFFFFFFFFF AND MUL OR SWAP1 SSTORE POP PUSH1 0x5 PUSH0 SWAP1 SLOAD SWAP1 PUSH2 0x100 EXP SWAP1 DIV PUSH20 0xFFFFFFFFFFFFFFFFFFFFFFFFFFFFFFFFFFFFFFFF AND PUSH20 0xFFFFFFFFFFFFFFFFFFFFFFFFFFFFFFFFFFFFFFFF AND PUSH32 0x96A25B4900CEBF93ED691B1C763E37A5A01CD4B9B62E0DF10688A47856DEF7A5 PUSH1 0x40 MLOAD PUSH1 0x40 MLOAD DUP1 SWAP2 SUB SWAP1 LOG2 PUSH1 0x1 SWAP2 POP POP SWAP1 JUMP JUMPDEST PUSH1 0x4 SLOAD DUP2 JUMP JUMPDEST PUSH1 0x8 PUSH1 0x20 MSTORE DUP2 PUSH0 MSTORE PUSH1 0x40 PUSH0 KECCAK256 PUSH1 0x20 MSTORE DUP1 PUSH0 MSTORE PUSH1 0x40 PUSH0 KECCAK256 PUSH0 SWAP2 POP SWAP2 POP POP SLOAD DUP2 JUMP JUMPDEST DUP1 PUSH1 0x7 PUSH0 DUP5 PUSH20 0xFFFFFFFFFFFFFFFFFFFFFFFFFFFFFFFFFFFFFFFF AND PUSH20 0xFFFFFFFFFFFFFFFFFFFFFFFFFFFFFFFFFFFFFFFF AND DUP2 MSTORE PUSH1 0x20 ADD SWAP1 DUP2 MSTORE PUSH1 0x20 ADD PUSH0 KECCAK256 PUSH0 DUP3 DUP3 SLOAD PUSH2 0x1442 SWAP2 SWAP1 PUSH2 0x1B3C JUMP JUMPDEST SWAP3 POP POP DUP2 SWAP1 SSTORE POP DUP1 PUSH1 0x3 PUSH0 DUP3 DUP3 SLOAD PUSH2 0x145A SWAP2 SWAP1 PUSH2 0x1B3C JUMP JUMPDEST SWAP3 POP POP DUP2 SWAP1 SSTORE POP DUP2 PUSH20 0xFFFFFFFFFFFFFFFFFFFFFFFFFFFFFFFFFFFFFFFF AND PUSH0 PUSH20 0xFFFFFFFFFFFFFFFFFFFFFFFFFFFFFFFFFFFFFFFF AND PUSH32 0xDDF252AD1BE2C89B69C2B068FC378DAA952BA7F163C4A11628F55A4DF523B3EF DUP4 PUSH1 0x40 MLOAD PUSH2 0x14BE SWAP2 SWAP1 PUSH2 0x173F JUMP JUMPDEST PUSH1 0x40 MLOAD DUP1 SWAP2 SUB SWAP1 LOG3 POP POP JUMP JUMPDEST DUP1 PUSH1 0x7 PUSH0 DUP5 PUSH20 0xFFFFFFFFFFFFFFFFFFFFFFFFFFFFFFFFFFFFFFFF AND PUSH20 0xFFFFFFFFFFFFFFFFFFFFFFFFFFFFFFFFFFFFFFFF AND DUP2 MSTORE PUSH1 0x20 ADD SWAP1 DUP2 MSTORE PUSH1 0x20 ADD PUSH0 KECCAK256 PUSH0 DUP3 DUP3 SLOAD PUSH2 0x1516 SWAP2 SWAP1 PUSH2 0x1B09 JUMP JUMPDEST SWAP3 POP POP DUP2 SWAP1 SSTORE POP DUP1 PUSH1 0x3 PUSH0 DUP3 DUP3 SLOAD PUSH2 0x152E SWAP2 SWAP1 PUSH2 0x1B09 JUMP JUMPDEST SWAP3 POP POP DUP2 SWAP1 SSTORE POP PUSH0 PUSH20 0xFFFFFFFFFFFFFFFFFFFFFFFFFFFFFFFFFFFFFFFF AND DUP3 PUSH20 0xFFFFFFFFFFFFFFFFFFFFFFFFFFFFFFFFFFFFFFFF AND PUSH32 0xDDF252AD1BE2C89B69C2B068FC378DAA952BA7F163C4A11628F55A4DF523B3EF DUP4 PUSH1 0x40 MLOAD PUSH2 0x1592 SWAP2 SWAP1 PUSH2 0x173F JUMP JUMPDEST PUSH1 0x40 MLOAD DUP1 SWAP2 SUB SWAP1 LOG3 POP POP JUMP JUMPDEST PUSH0 DUP2 MLOAD SWAP1 POP SWAP2 SWAP1 POP JUMP JUMPDEST PUSH0 DUP3 DUP3 MSTORE PUSH1 0x20 DUP3 ADD SWAP1 POP SWAP3 SWAP2 POP POP JUMP JUMPDEST DUP3 DUP2 DUP4 MCOPY PUSH0 DUP4 DUP4 ADD MSTORE POP POP POP JUMP JUMPDEST PUSH0 PUSH1 0x1F NOT PUSH1 0x1F DUP4 ADD AND SWAP1 POP SWAP2 SWAP1 POP JUMP JUMPDEST PUSH0 PUSH2 0x15E0 DUP3 PUSH2 0x159E JUMP JUMPDEST PUSH2 0x15EA DUP2 DUP6 PUSH2 0x15A8 JUMP JUMPDEST SWAP4 POP PUSH2 0x15FA DUP2 DUP6 PUSH1 0x20 DUP7 ADD PUSH2 0x15B8 JUMP JUMPDEST PUSH2 0x1603 DUP2 PUSH2 0x15C6 JUMP JUMPDEST DUP5 ADD SWAP2 POP POP SWAP3 SWAP2 POP POP JUMP JUMPDEST PUSH0 PUSH1 0x20 DUP3 ADD SWAP1 POP DUP2 DUP2 SUB PUSH0 DUP4 ADD MSTORE PUSH2 0x1626 DUP2 DUP5 PUSH2 0x15D6 JUMP JUMPDEST SWAP1 POP SWAP3 SWAP2 POP POP JUMP JUMPDEST PUSH0 DUP1 REVERT JUMPDEST PUSH0 PUSH20 0xFFFFFFFFFFFFFFFFFFFFFFFFFFFFFFFFFFFFFFFF DUP3 AND SWAP1 POP SWAP2 SWAP1 POP JUMP JUMPDEST PUSH0 PUSH2 0x165B DUP3 PUSH2 0x1632 JUMP JUMPDEST SWAP1 POP SWAP2 SWAP1 POP JUMP JUMPDEST PUSH2 0x166B DUP2 PUSH2 0x1651 JUMP JUMPDEST DUP2 EQ PUSH2 0x1675 JUMPI PUSH0 DUP1 REVERT JUMPDEST POP JUMP JUMPDEST PUSH0 DUP2 CALLDATALOAD SWAP1 POP PUSH2 0x1686 DUP2 PUSH2 0x1662 JUMP JUMPDEST SWAP3 SWAP2 POP POP JUMP JUMPDEST PUSH0 DUP2 SWAP1 POP SWAP2 SWAP1 POP JUMP JUMPDEST PUSH2 0x169E DUP2 PUSH2 0x168C JUMP JUMPDEST DUP2 EQ PUSH2 0x16A8 JUMPI PUSH0 DUP1 REVERT JUMPDEST POP JUMP JUMPDEST PUSH0 DUP2 CALLDATALOAD SWAP1 POP PUSH2 0x16B9 DUP2 PUSH2 0x1695 JUMP JUMPDEST SWAP3 SWAP2 POP POP JUMP JUMPDEST PUSH0 DUP1 PUSH1 0x40 DUP4 DUP6 SUB SLT ISZERO PUSH2 0x16D5 JUMPI PUSH2 0x16D4 PUSH2 0x162E JUMP JUMPDEST JUMPDEST PUSH0 PUSH2 0x16E2 DUP6 DUP3 DUP7 ADD PUSH2 0x1678 JUMP JUMPDEST SWAP3 POP POP PUSH1 0x20 PUSH2 0x16F3 DUP6 DUP3 DUP7 ADD PUSH2 0x16AB JUMP JUMPDEST SWAP2 POP POP SWAP3 POP SWAP3 SWAP1 POP JUMP JUMPDEST PUSH0 DUP2 ISZERO ISZERO SWAP1 POP SWAP2 SWAP1 POP JUMP JUMPDEST PUSH2 0x1711 DUP2 PUSH2 0x16FD JUMP JUMPDEST DUP3 MSTORE POP POP JUMP JUMPDEST PUSH0 PUSH1 0x20 DUP3 ADD SWAP1 POP PUSH2 0x172A PUSH0 DUP4 ADD DUP5 PUSH2 0x1708 JUMP JUMPDEST SWAP3 SWAP2 POP POP JUMP JUMPDEST PUSH2 0x1739 DUP2 PUSH2 0x168C JUMP JUMPDEST DUP3 MSTORE POP POP JUMP JUMPDEST PUSH0 PUSH1 0x20 DUP3 ADD SWAP1 POP PUSH2 0x1752 PUSH0 DUP4 ADD DUP5 PUSH2 0x1730 JUMP JUMPDEST SWAP3 SWAP2 POP POP JUMP JUMPDEST PUSH0 DUP1 PUSH0 PUSH1 0x60 DUP5 DUP7 SUB SLT ISZERO PUSH2 0x176F JUMPI PUSH2 0x176E PUSH2 0x162E JUMP JUMPDEST JUMPDEST PUSH0 PUSH2 0x177C DUP7 DUP3 DUP8 ADD PUSH2 0x1678 JUMP JUMPDEST SWAP4 POP POP PUSH1 0x20 PUSH2 0x178D DUP7 DUP3 DUP8 ADD PUSH2 0x1678 JUMP JUMPDEST SWAP3 POP POP PUSH1 0x40 PUSH2 0x179E DUP7 DUP3 DUP8 ADD PUSH2 0x16AB JUMP JUMPDEST SWAP2 POP POP SWAP3 POP SWAP3 POP SWAP3 JUMP JUMPDEST PUSH0 PUSH1 0xFF DUP3 AND SWAP1 POP SWAP2 SWAP1 POP JUMP JUMPDEST PUSH2 0x17BD DUP2 PUSH2 0x17A8 JUMP JUMPDEST DUP3 MSTORE POP POP JUMP JUMPDEST PUSH0 PUSH1 0x20 DUP3 ADD SWAP1 POP PUSH2 0x17D6 PUSH0 DUP4 ADD DUP5 PUSH2 0x17B4 JUMP JUMPDEST SWAP3 SWAP2 POP POP JUMP JUMPDEST PUSH2 0x17E5 DUP2 PUSH2 0x1651 JUMP JUMPDEST DUP3 MSTORE POP POP JUMP JUMPDEST PUSH0 PUSH1 0x20 DUP3 ADD SWAP1 POP PUSH2 0x17FE PUSH0 DUP4 ADD DUP5 PUSH2 0x17DC JUMP JUMPDEST SWAP3 SWAP2 POP POP JUMP JUMPDEST PUSH0 PUSH1 0x20 DUP3 DUP5 SUB SLT ISZERO PUSH2 0x1819 JUMPI PUSH2 0x1818 PUSH2 0x162E JUMP JUMPDEST JUMPDEST PUSH0 PUSH2 0x1826 DUP5 DUP3 DUP6 ADD PUSH2 0x1678 JUMP JUMPDEST SWAP2 POP POP SWAP3 SWAP2 POP POP JUMP JUMPDEST PUSH0 DUP1 PUSH1 0x40 DUP4 DUP6 SUB SLT ISZERO PUSH2 0x1845 JUMPI PUSH2 0x1844 PUSH2 0x162E JUMP JUMPDEST JUMPDEST PUSH0 PUSH2 0x1852 DUP6 DUP3 DUP7 ADD PUSH2 0x1678 JUMP JUMPDEST SWAP3 POP POP PUSH1 0x20 PUSH2 0x1863 DUP6 DUP3 DUP7 ADD PUSH2 0x1678 JUMP JUMPDEST SWAP2 POP POP SWAP3 POP SWAP3 SWAP1 POP JUMP JUMPDEST PUSH32 0x4E487B7100000000000000000000000000000000000000000000000000000000 PUSH0 MSTORE PUSH1 0x22 PUSH1 0x4 MSTORE PUSH1 0x24 PUSH0 REVERT JUMPDEST PUSH0 PUSH1 0x2 DUP3 DIV SWAP1 POP PUSH1 0x1 DUP3 AND DUP1 PUSH2 0x18B1 JUMPI PUSH1 0x7F DUP3 AND SWAP2 POP JUMPDEST PUSH1 0x20 DUP3 LT DUP2 SUB PUSH2 0x18C4 JUMPI PUSH2 0x18C3 PUSH2 0x186D JUMP JUMPDEST JUMPDEST POP SWAP2 SWAP1 POP JUMP JUMPDEST PUSH32 0x416D6F756E74206D7573742062652067726561746572207468616E207A65726F PUSH0 DUP3 ADD MSTORE POP JUMP JUMPDEST PUSH0 PUSH2 0x18FE PUSH1 0x20 DUP4 PUSH2 0x15A8 JUMP JUMPDEST SWAP2 POP PUSH2 0x1909 DUP3 PUSH2 0x18CA JUMP JUMPDEST PUSH1 0x20 DUP3 ADD SWAP1 POP SWAP2 SWAP1 POP JUMP JUMPDEST PUSH0 PUSH1 0x20 DUP3 ADD SWAP1 POP DUP2 DUP2 SUB PUSH0 DUP4 ADD MSTORE PUSH2 0x192B DUP2 PUSH2 0x18F2 JUMP JUMPDEST SWAP1 POP SWAP2 SWAP1 POP JUMP JUMPDEST PUSH32 0x5472616E7366657220746F20746865207A65726F206164647265737320697320 PUSH0 DUP3 ADD MSTORE PUSH32 0x6E6F7420616C6C6F776564000000000000000000000000000000000000000000 PUSH1 0x20 DUP3 ADD MSTORE POP JUMP JUMPDEST PUSH0 PUSH2 0x198C PUSH1 0x2B DUP4 PUSH2 0x15A8 JUMP JUMPDEST SWAP2 POP PUSH2 0x1997 DUP3 PUSH2 0x1932 JUMP JUMPDEST PUSH1 0x40 DUP3 ADD SWAP1 POP SWAP2 SWAP1 POP JUMP JUMPDEST PUSH0 PUSH1 0x20 DUP3 ADD SWAP1 POP DUP2 DUP2 SUB PUSH0 DUP4 ADD MSTORE PUSH2 0x19B9 DUP2 PUSH2 0x1980 JUMP JUMPDEST SWAP1 POP SWAP2 SWAP1 POP JUMP JUMPDEST PUSH32 0x43616C6C657220646F6573206E6F7420686176652073756666696369656E7420 PUSH0 DUP3 ADD MSTORE PUSH32 0x62616C616E636500000000000000000000000000000000000000000000000000 PUSH1 0x20 DUP3 ADD MSTORE POP JUMP JUMPDEST PUSH0 PUSH2 0x1A1A PUSH1 0x27 DUP4 PUSH2 0x15A8 JUMP JUMPDEST SWAP2 POP PUSH2 0x1A25 DUP3 PUSH2 0x19C0 JUMP JUMPDEST PUSH1 0x40 DUP3 ADD SWAP1 POP SWAP2 SWAP1 POP JUMP JUMPDEST PUSH0 PUSH1 0x20 DUP3 ADD SWAP1 POP DUP2 DUP2 SUB PUSH0 DUP4 ADD MSTORE PUSH2 0x1A47 DUP2 PUSH2 0x1A0E JUMP JUMPDEST SWAP1 POP SWAP2 SWAP1 POP JUMP JUMPDEST PUSH32 0x43616C6C657220646F6573206E6F7420686176652073756666696369656E7420 PUSH0 DUP3 ADD MSTORE PUSH32 0x616C6C6F77616E63650000000000000000000000000000000000000000000000 PUSH1 0x20 DUP3 ADD MSTORE POP JUMP JUMPDEST PUSH0 PUSH2 0x1AA8 PUSH1 0x29 DUP4 PUSH2 0x15A8 JUMP JUMPDEST SWAP2 POP PUSH2 0x1AB3 DUP3 PUSH2 0x1A4E JUMP JUMPDEST PUSH1 0x40 DUP3 ADD SWAP1 POP SWAP2 SWAP1 POP JUMP JUMPDEST PUSH0 PUSH1 0x20 DUP3 ADD SWAP1 POP DUP2 DUP2 SUB PUSH0 DUP4 ADD MSTORE PUSH2 0x1AD5 DUP2 PUSH2 0x1A9C JUMP JUMPDEST SWAP1 POP SWAP2 SWAP1 POP JUMP JUMPDEST PUSH32 0x4E487B7100000000000000000000000000000000000000000000000000000000 PUSH0 MSTORE PUSH1 0x11 PUSH1 0x4 MSTORE PUSH1 0x24 PUSH0 REVERT JUMPDEST PUSH0 PUSH2 0x1B13 DUP3 PUSH2 0x168C JUMP JUMPDEST SWAP2 POP PUSH2 0x1B1E DUP4 PUSH2 0x168C JUMP JUMPDEST SWAP3 POP DUP3 DUP3 SUB SWAP1 POP DUP2 DUP2 GT ISZERO PUSH2 0x1B36 JUMPI PUSH2 0x1B35 PUSH2 0x1ADC JUMP JUMPDEST JUMPDEST SWAP3 SWAP2 POP POP JUMP JUMPDEST PUSH0 PUSH2 0x1B46 DUP3 PUSH2 0x168C JUMP JUMPDEST SWAP2 POP PUSH2 0x1B51 DUP4 PUSH2 0x168C JUMP JUMPDEST SWAP3 POP DUP3 DUP3 ADD SWAP1 POP DUP1 DUP3 GT ISZERO PUSH2 0x1B69 JUMPI PUSH2 0x1B68 PUSH2 0x1ADC JUMP JUMPDEST JUMPDEST SWAP3 SWAP2 POP POP JUMP JUMPDEST PUSH32 0x43616C6C6572206973206E6F7420617574686F72697A65640000000000000000 PUSH0 DUP3 ADD MSTORE POP JUMP JUMPDEST PUSH0 PUSH2 0x1BA3 PUSH1 0x18 DUP4 PUSH2 0x15A8 JUMP JUMPDEST SWAP2 POP PUSH2 0x1BAE DUP3 PUSH2 0x1B6F JUMP JUMPDEST PUSH1 0x20 DUP3 ADD SWAP1 POP SWAP2 SWAP1 POP JUMP JUMPDEST PUSH0 PUSH1 0x20 DUP3 ADD SWAP1 POP DUP2 DUP2 SUB PUSH0 DUP4 ADD MSTORE PUSH2 0x1BD0 DUP2 PUSH2 0x1B97 JUMP JUMPDEST SWAP1 POP SWAP2 SWAP1 POP JUMP JUMPDEST PUSH32 0x496E76616C6964206E6577206F776E6572206164647265737300000000000000 PUSH0 DUP3 ADD MSTORE POP JUMP JUMPDEST PUSH0 PUSH2 0x1C0B PUSH1 0x19 DUP4 PUSH2 0x15A8 JUMP JUMPDEST SWAP2 POP PUSH2 0x1C16 DUP3 PUSH2 0x1BD7 JUMP JUMPDEST PUSH1 0x20 DUP3 ADD SWAP1 POP SWAP2 SWAP1 POP JUMP JUMPDEST PUSH0 PUSH1 0x20 DUP3 ADD SWAP1 POP DUP2 DUP2 SUB PUSH0 DUP4 ADD MSTORE PUSH2 0x1C38 DUP2 PUSH2 0x1BFF JUMP JUMPDEST SWAP1 POP SWAP2 SWAP1 POP JUMP INVALID LOG2 PUSH5 0x6970667358 0x22 SLT KECCAK256 SWAP16 LOG2 PUSH13 0x97BA0A5C3351D37D2152F55402 POP POP PUSH7 0x5BED425B685AB5 PUSH5 0x8DDB509096 PUSH5 0x736F6C6343 STOP ADDMOD NOT STOP CALLER "
				},
				"gasEstimates": {
					"creation": {
						"codeDepositCost": "1457000",
						"executionCost": "infinite",
						"totalCost": "infinite"
					},
					"external": {
						"ClaimTokenOwnership()": "56518",
						"TransferTokenOwnership(address)": "35132",
						"allowance(address,address)": "infinite",
						"approve(address,uint256)": "infinite",
						"balanceOf(address)": "2891",
						"burn(address,uint256)": "infinite",
						"decimals()": "2489",
						"maxSupply()": "2491",
						"mint(address,uint256)": "infinite",
						"name()": "infinite",
						"nextTokenOwner()": "2575",
						"symbol()": "infinite",
						"tokenOwner()": "2575",
						"totalSupply()": "2493",
						"transfer(address,uint256)": "infinite",
						"transferFrom(address,address,uint256)": "infinite"
					},
					"internal": {
						"_burn(address,uint256)": "infinite",
						"_mint(address,uint256)": "infinite"
					}
				},
				"methodIdentifiers": {
					"ClaimTokenOwnership()": "c06df1e9",
					"TransferTokenOwnership(address)": "bbaed518",
					"allowance(address,address)": "dd62ed3e",
					"approve(address,uint256)": "095ea7b3",
					"balanceOf(address)": "70a08231",
					"burn(address,uint256)": "9dc29fac",
					"decimals()": "313ce567",
					"maxSupply()": "d5abeb01",
					"mint(address,uint256)": "40c10f19",
					"name()": "06fdde03",
					"nextTokenOwner()": "5b833f1e",
					"symbol()": "95d89b41",
					"tokenOwner()": "a3e67610",
					"totalSupply()": "18160ddd",
					"transfer(address,uint256)": "a9059cbb",
					"transferFrom(address,address,uint256)": "23b872dd"
				}
			},
			"storageLayout": {
				"storage": [
					{
						"astId": 6,
						"contract": "src/ERC20.sol:ERC20",
						"label": "name",
						"offset": 0,
						"slot": "0",
						"type": "t_string_storage"
					},
					{
						"astId": 8,
						"contract": "src/ERC20.sol:ERC20",
						"label": "symbol",
						"offset": 0,
						"slot": "1",
						"type": "t_string_storage"
					},
					{
						"astId": 10,
						"contract": "src/ERC20.sol:ERC20",
						"label": "decimals",
						"offset": 0,
						"slot": "2",
						"type": "t_uint8"
					},
					{
						"astId": 12,
						"contract": "src/ERC20.sol:ERC20",
						"label": "totalSupply",
						"offset": 0,
						"slot": "3",
						"type": "t_uint256"
					},
					{
						"astId": 14,
						"contract": "src/ERC20.sol:ERC20",
						"label": "maxSupply",
						"offset": 0,
						"slot": "4",
						"type": "t_uint256"
					},
					{
						"astId": 16,
						"contract": "src/ERC20.sol:ERC20",
						"label": "tokenOwner",
						"offset": 0,
						"slot": "5",
						"type": "t_address"
					},
					{
						"astId": 18,
						"contract": "src/ERC20.sol:ERC20",
						"label": "nextTokenOwner",
						"offset": 0,
						"slot": "6",
						"type": "t_address"
					},
					{
						"astId": 22,
						"contract": "src/ERC20.sol:ERC20",
						"label": "balanceOf",
						"offset": 0,
						"slot": "7",
						"type": "t_mapping(t_address,t_uint256)"
					},
					{
						"astId": 28,
						"contract": "src/ERC20.sol:ERC20",
						"label": "allowance",
						"offset": 0,
						"slot": "8",
						"type": "t_mapping(t_address,t_mapping(t_address,t_uint256))"
					}
				],
				"types": {
					"t_address": {
						"encoding": "inplace",
						"label": "address",
						"numberOfBytes": "20"
					},
					"t_mapping(t_address,t_mapping(t_address,t_uint256))": {
						"encoding": "mapping",
						"key": "t_address",
						"label": "mapping(address => mapping(address => uint256))",
						"numberOfBytes": "32",
						"value": "t_mapping(t_address,t_uint256)"
					},
					"t_mapping(t_address,t_uint256)": {
						"encoding": "mapping",
						"key": "t_address",
						"label": "mapping(address => uint256)",
						"numberOfBytes": "32",
						"value": "t_uint256"
					},
					"t_string_storage": {
						"encoding": "bytes",
						"label": "string",
						"numberOfBytes": "32"
					},
					"t_uint256": {
						"encoding": "inplace",
						"label": "uint256",
						"numberOfBytes": "32"
					},
					"t_uint8": {
						"encoding": "inplace",
						"label": "uint8",
						"numberOfBytes": "1"
					}
				}
			},
			"userdoc": {
				"kind": "user",
				"methods": {},
				"version": 1
			}
		}
	}
}