{
	"src/solt.sol": {
		"solt": {
			"abi": [
				{
					"inputs": [
						{
							"internalType": "address",
							"name": "_owner",
							"type": "address"
						},
						{
							"internalType": "string",
							"name": "_name",
							"type": "string"
						},
						{
							"internalType": "string",
							"name": "_symbol",
							"type": "string"
						},
						{
							"internalType": "uint8",
							"name": "_decimals",
							"type": "uint8"
						},
						{
							"internalType": "uint256",
							"name": "_maxSupply",
							"type": "uint256"
						}
					],
					"stateMutability": "nonpayable",
					"type": "constructor"
				},
				{
					"anonymous": false,
					"inputs": [
						{
							"indexed": true,
							"internalType": "address",
							"name": "owner",
							"type": "address"
						},
						{
							"indexed": true,
							"internalType": "address",
							"name": "spender",
							"type": "address"
						},
						{
							"indexed": false,
							"internalType": "uint256",
							"name": "value",
							"type": "uint256"
						}
					],
					"name": "Approval",
					"type": "event"
				},
				{
					"anonymous": false,
					"inputs": [
						{
							"indexed": true,
							"internalType": "address",
							"name": "newTokenOwner",
							"type": "address"
						}
					],
					"name": "TokenOwnershipTransferFinished",
					"type": "event"
				},
				{
					"anonymous": false,
					"inputs": [
						{
							"indexed": true,
							"internalType": "address",
							"name": "from",
							"type": "address"
						},
						{
							"indexed": true,
							"internalType": "address",
							"name": "to",
							"type": "address"
						}
					],
					"name": "TokenOwnershipTransferStarted",
					"type": "event"
				},
				{
					"anonymous": false,
					"inputs": [
						{
							"indexed": true,
							"internalType": "address",
							"name": "from",
							"type": "address"
						},
						{
							"indexed": true,
							"internalType": "address",
							"name": "to",
							"type": "address"
						},
						{
							"indexed": false,
							"internalType": "uint256",
							"name": "value",
							"type": "uint256"
						}
					],
					"name": "Transfer",
					"type": "event"
				},
				{
					"inputs": [
						{
							"internalType": "address",
							"name": "",
							"type": "address"
						},
						{
							"internalType": "address",
							"name": "",
							"type": "address"
						}
					],
					"name": "allowance",
					"outputs": [
						{
							"internalType": "uint256",
							"name": "",
							"type": "uint256"
						}
					],
					"stateMutability": "view",
					"type": "function"
				},
				{
					"inputs": [
						{
							"internalType": "address",
							"name": "spender",
							"type": "address"
						},
						{
							"internalType": "uint256",
							"name": "amount",
							"type": "uint256"
						}
					],
					"name": "approve",
					"outputs": [
						{
							"internalType": "bool",
							"name": "",
							"type": "bool"
						}
					],
					"stateMutability": "nonpayable",
					"type": "function"
				},
				{
					"inputs": [
						{
							"internalType": "address",
							"name": "",
							"type": "address"
						}
					],
					"name": "balanceOf",
					"outputs": [
						{
							"internalType": "uint256",
							"name": "",
							"type": "uint256"
						}
					],
					"stateMutability": "view",
					"type": "function"
				},
				{
					"inputs": [
						{
							"internalType": "address",
							"name": "from",
							"type": "address"
						},
						{
							"internalType": "uint256",
							"name": "amount",
							"type": "uint256"
						}
					],
					"name": "burn",
					"outputs": [],
					"stateMutability": "nonpayable",
					"type": "function"
				},
				{
					"inputs": [],
					"name": "claimTokenOwnership",
					"outputs": [
						{
							"internalType": "bool",
							"name": "",
							"type": "bool"
						}
					],
					"stateMutability": "nonpayable",
					"type": "function"
				},
				{
					"inputs": [],
					"name": "decimals",
					"outputs": [
						{
							"internalType": "uint8",
							"name": "",
							"type": "uint8"
						}
					],
					"stateMutability": "view",
					"type": "function"
				},
				{
					"inputs": [],
					"name": "maxSupply",
					"outputs": [
						{
							"internalType": "uint256",
							"name": "",
							"type": "uint256"
						}
					],
					"stateMutability": "view",
					"type": "function"
				},
				{
					"inputs": [
						{
							"internalType": "address",
							"name": "to",
							"type": "address"
						},
						{
							"internalType": "uint256",
							"name": "amount",
							"type": "uint256"
						}
					],
					"name": "mint",
					"outputs": [],
					"stateMutability": "nonpayable",
					"type": "function"
				},
				{
					"inputs": [],
					"name": "name",
					"outputs": [
						{
							"internalType": "string",
							"name": "",
							"type": "string"
						}
					],
					"stateMutability": "view",
					"type": "function"
				},
				{
					"inputs": [],
					"name": "nextTokenOwner",
					"outputs": [
						{
							"internalType": "address",
							"name": "",
							"type": "address"
						}
					],
					"stateMutability": "view",
					"type": "function"
				},
				{
					"inputs": [],
					"name": "symbol",
					"outputs": [
						{
							"internalType": "string",
							"name": "",
							"type": "string"
						}
					],
					"stateMutability": "view",
					"type": "function"
				},
				{
					"inputs": [],
					"name": "tokenOwner",
					"outputs": [
						{
							"internalType": "address",
							"name": "",
							"type": "address"
						}
					],
					"stateMutability": "view",
					"type": "function"
				},
				{
					"inputs": [],
					"name": "totalSupply",
					"outputs": [
						{
							"internalType": "uint256",
							"name": "",
							"type": "uint256"
						}
					],
					"stateMutability": "view",
					"type": "function"
				},
				{
					"inputs": [
						{
							"internalType": "address",
							"name": "recipient",
							"type": "address"
						},
						{
							"internalType": "uint256",
							"name": "amount",
							"type": "uint256"
						}
					],
					"name": "transfer",
					"outputs": [
						{
							"internalType": "bool",
							"name": "",
							"type": "bool"
						}
					],
					"stateMutability": "nonpayable",
					"type": "function"
				},
				{
					"inputs": [
						{
							"internalType": "address",
							"name": "sender",
							"type": "address"
						},
						{
							"internalType": "address",
							"name": "recipient",
							"type": "address"
						},
						{
							"internalType": "uint256",
							"name": "amount",
							"type": "uint256"
						}
					],
					"name": "transferFrom",
					"outputs": [
						{
							"internalType": "bool",
							"name": "",
							"type": "bool"
						}
					],
					"stateMutability": "nonpayable",
					"type": "function"
				},
				{
					"inputs": [
						{
							"internalType": "address",
							"name": "_nextTokenOwner",
							"type": "address"
						}
					],
					"name": "transferTokenOwnership",
					"outputs": [
						{
							"internalType": "bool",
							"name": "",
							"type": "bool"
						}
					],
					"stateMutability": "nonpayable",
					"type": "function"
				}
			],
			"devdoc": {
				"kind": "dev",
				"methods": {},
				"version": 1
			},
			"evm": {
				"assembly": "    /* \"src/solt.sol\":125:383  contract solt is ERC20 {... */\n  mstore(0x40, 0x80)\n    /* \"src/solt.sol\":158:381  constructor(address _owner, string memory _name, string memory _symbol, uint8 _decimals, uint256 _maxSupply)... */\n  callvalue\n  dup1\n  iszero\n  tag_1\n  jumpi\n  0x00\n  dup1\n  revert\ntag_1:\n  pop\n  mload(0x40)\n  sub(codesize, bytecodeSize)\n  dup1\n  bytecodeSize\n  dup4\n  codecopy\n  dup2\n  dup2\n  add\n  0x40\n  mstore\n  dup2\n  add\n  swap1\n  tag_2\n  swap2\n  swap1\n  tag_3\n  jump\t// in\ntag_2:\n    /* \"src/solt.sol\":281:287  _owner */\n  dup5\n    /* \"src/solt.sol\":289:294  _name */\n  dup5\n    /* \"src/solt.sol\":296:303  _symbol */\n  dup5\n    /* \"src/solt.sol\":305:314  _decimals */\n  dup5\n    /* \"src/solt.sol\":316:326  _maxSupply */\n  dup5\n    /* \"src/ERC20.sol\":1804:1810  _owner */\n  dup5\n    /* \"src/ERC20.sol\":1791:1801  tokenOwner */\n  0x05\n  0x00\n    /* \"src/ERC20.sol\":1791:1810  tokenOwner = _owner */\n  0x0100\n  exp\n  dup2\n  sload\n  dup2\n  0xffffffffffffffffffffffffffffffffffffffff\n  mul\n  not\n  and\n  swap1\n  dup4\n  0xffffffffffffffffffffffffffffffffffffffff\n  and\n  mul\n  or\n  swap1\n  sstore\n  pop\n    /* \"src/ERC20.sol\":1828:1833  _name */\n  dup4\n    /* \"src/ERC20.sol\":1821:1825  name */\n  0x00\n    /* \"src/ERC20.sol\":1821:1833  name = _name */\n  swap1\n  dup2\n  tag_7\n  swap2\n  swap1\n  tag_8\n  jump\t// in\ntag_7:\n  pop\n    /* \"src/ERC20.sol\":1853:1860  _symbol */\n  dup3\n    /* \"src/ERC20.sol\":1844:1850  symbol */\n  0x01\n    /* \"src/ERC20.sol\":1844:1860  symbol = _symbol */\n  swap1\n  dup2\n  tag_9\n  swap2\n  swap1\n  tag_8\n  jump\t// in\ntag_9:\n  pop\n    /* \"src/ERC20.sol\":1882:1891  _decimals */\n  dup2\n    /* \"src/ERC20.sol\":1871:1879  decimals */\n  0x02\n  0x00\n    /* \"src/ERC20.sol\":1871:1891  decimals = _decimals */\n  0x0100\n  exp\n  dup2\n  sload\n  dup2\n  0xff\n  mul\n  not\n  and\n  swap1\n  dup4\n  0xff\n  and\n  mul\n  or\n  swap1\n  sstore\n  pop\n    /* \"src/ERC20.sol\":1914:1924  _maxSupply */\n  dup1\n    /* \"src/ERC20.sol\":1902:1911  maxSupply */\n  0x04\n    /* \"src/ERC20.sol\":1902:1924  maxSupply = _maxSupply */\n  dup2\n  swap1\n  sstore\n  pop\n    /* \"src/ERC20.sol\":1949:1950  0 */\n  0x00\n    /* \"src/ERC20.sol\":1935:1946  totalSupply */\n  0x03\n    /* \"src/ERC20.sol\":1935:1950  totalSupply = 0 */\n  dup2\n  swap1\n  sstore\n  pop\n    /* \"src/ERC20.sol\":1672:1958  constructor(address _owner, string memory _name, string memory _symbol, uint8 _decimals, uint256 _maxSupply){... */\n  pop\n  pop\n  pop\n  pop\n  pop\n    /* \"src/solt.sol\":342:374  _mint(_owner, 100*10**_decimals) */\n  tag_11\n    /* \"src/solt.sol\":348:354  _owner */\n  dup6\n    /* \"src/solt.sol\":364:373  _decimals */\n  dup4\n    /* \"src/solt.sol\":360:362  10 */\n  0x0a\n    /* \"src/solt.sol\":360:373  10**_decimals */\n  tag_12\n  swap2\n  swap1\n  tag_13\n  jump\t// in\ntag_12:\n    /* \"src/solt.sol\":356:359  100 */\n  0x64\n    /* \"src/solt.sol\":356:373  100*10**_decimals */\n  tag_14\n  swap2\n  swap1\n  tag_15\n  jump\t// in\ntag_14:\n    /* \"src/solt.sol\":342:347  _mint */\n  shl(0x20, tag_16)\n    /* \"src/solt.sol\":342:374  _mint(_owner, 100*10**_decimals) */\n  0x20\n  shr\n  jump\t// in\ntag_11:\n    /* \"src/solt.sol\":158:381  constructor(address _owner, string memory _name, string memory _symbol, uint8 _decimals, uint256 _maxSupply)... */\n  pop\n  pop\n  pop\n  pop\n  pop\n    /* \"src/solt.sol\":125:383  contract solt is ERC20 {... */\n  jump(tag_17)\n    /* \"src/ERC20.sol\":4889:5062  function _mint(address to, uint256 amount) internal{... */\ntag_16:\n    /* \"src/ERC20.sol\":4968:4974  amount */\n  dup1\n    /* \"src/ERC20.sol\":4951:4960  balanceOf */\n  0x07\n    /* \"src/ERC20.sol\":4951:4964  balanceOf[to] */\n  0x00\n    /* \"src/ERC20.sol\":4961:4963  to */\n  dup5\n    /* \"src/ERC20.sol\":4951:4964  balanceOf[to] */\n  0xffffffffffffffffffffffffffffffffffffffff\n  and\n  0xffffffffffffffffffffffffffffffffffffffff\n  and\n  dup2\n  mstore\n  0x20\n  add\n  swap1\n  dup2\n  mstore\n  0x20\n  add\n  0x00\n  keccak256\n  0x00\n    /* \"src/ERC20.sol\":4951:4974  balanceOf[to] += amount */\n  dup3\n  dup3\n  sload\n  tag_19\n  swap2\n  swap1\n  tag_20\n  jump\t// in\ntag_19:\n  swap3\n  pop\n  pop\n  dup2\n  swap1\n  sstore\n  pop\n    /* \"src/ERC20.sol\":5000:5006  amount */\n  dup1\n    /* \"src/ERC20.sol\":4985:4996  totalSupply */\n  0x03\n  0x00\n    /* \"src/ERC20.sol\":4985:5006  totalSupply += amount */\n  dup3\n  dup3\n  sload\n  tag_21\n  swap2\n  swap1\n  tag_20\n  jump\t// in\ntag_21:\n  swap3\n  pop\n  pop\n  dup2\n  swap1\n  sstore\n  pop\n    /* \"src/ERC20.sol\":5043:5045  to */\n  dup2\n    /* \"src/ERC20.sol\":5022:5054  Transfer(address(0), to, amount) */\n  0xffffffffffffffffffffffffffffffffffffffff\n  and\n    /* \"src/ERC20.sol\":5039:5040  0 */\n  0x00\n    /* \"src/ERC20.sol\":5022:5054  Transfer(address(0), to, amount) */\n  0xffffffffffffffffffffffffffffffffffffffff\n  and\n  0xddf252ad1be2c89b69c2b068fc378daa952ba7f163c4a11628f55a4df523b3ef\n    /* \"src/ERC20.sol\":5047:5053  amount */\n  dup4\n    /* \"src/ERC20.sol\":5022:5054  Transfer(address(0), to, amount) */\n  mload(0x40)\n  tag_22\n  swap2\n  swap1\n  tag_23\n  jump\t// in\ntag_22:\n  mload(0x40)\n  dup1\n  swap2\n  sub\n  swap1\n  log3\n    /* \"src/ERC20.sol\":4889:5062  function _mint(address to, uint256 amount) internal{... */\n  pop\n  pop\n  jump\t// out\n    /* \"#utility.yul\":7:82   */\ntag_24:\n    /* \"#utility.yul\":40:46   */\n  0x00\n    /* \"#utility.yul\":73:75   */\n  0x40\n    /* \"#utility.yul\":67:76   */\n  mload\n    /* \"#utility.yul\":57:76   */\n  swap1\n  pop\n    /* \"#utility.yul\":7:82   */\n  swap1\n  jump\t// out\n    /* \"#utility.yul\":88:205   */\ntag_25:\n    /* \"#utility.yul\":197:198   */\n  0x00\n    /* \"#utility.yul\":194:195   */\n  dup1\n    /* \"#utility.yul\":187:199   */\n  revert\n    /* \"#utility.yul\":211:328   */\ntag_26:\n    /* \"#utility.yul\":320:321   */\n  0x00\n    /* \"#utility.yul\":317:318   */\n  dup1\n    /* \"#utility.yul\":310:322   */\n  revert\n    /* \"#utility.yul\":334:460   */\ntag_27:\n    /* \"#utility.yul\":371:378   */\n  0x00\n    /* \"#utility.yul\":411:453   */\n  0xffffffffffffffffffffffffffffffffffffffff\n    /* \"#utility.yul\":404:409   */\n  dup3\n    /* \"#utility.yul\":400:454   */\n  and\n    /* \"#utility.yul\":389:454   */\n  swap1\n  pop\n    /* \"#utility.yul\":334:460   */\n  swap2\n  swap1\n  pop\n  jump\t// out\n    /* \"#utility.yul\":466:562   */\ntag_28:\n    /* \"#utility.yul\":503:510   */\n  0x00\n    /* \"#utility.yul\":532:556   */\n  tag_76\n    /* \"#utility.yul\":550:555   */\n  dup3\n    /* \"#utility.yul\":532:556   */\n  tag_27\n  jump\t// in\ntag_76:\n    /* \"#utility.yul\":521:556   */\n  swap1\n  pop\n    /* \"#utility.yul\":466:562   */\n  swap2\n  swap1\n  pop\n  jump\t// out\n    /* \"#utility.yul\":568:690   */\ntag_29:\n    /* \"#utility.yul\":641:665   */\n  tag_78\n    /* \"#utility.yul\":659:664   */\n  dup2\n    /* \"#utility.yul\":641:665   */\n  tag_28\n  jump\t// in\ntag_78:\n    /* \"#utility.yul\":634:639   */\n  dup2\n    /* \"#utility.yul\":631:666   */\n  eq\n    /* \"#utility.yul\":621:684   */\n  tag_79\n  jumpi\n    /* \"#utility.yul\":680:681   */\n  0x00\n    /* \"#utility.yul\":677:678   */\n  dup1\n    /* \"#utility.yul\":670:682   */\n  revert\n    /* \"#utility.yul\":621:684   */\ntag_79:\n    /* \"#utility.yul\":568:690   */\n  pop\n  jump\t// out\n    /* \"#utility.yul\":696:839   */\ntag_30:\n    /* \"#utility.yul\":753:758   */\n  0x00\n    /* \"#utility.yul\":784:790   */\n  dup2\n    /* \"#utility.yul\":778:791   */\n  mload\n    /* \"#utility.yul\":769:791   */\n  swap1\n  pop\n    /* \"#utility.yul\":800:833   */\n  tag_81\n    /* \"#utility.yul\":827:832   */\n  dup2\n    /* \"#utility.yul\":800:833   */\n  tag_29\n  jump\t// in\ntag_81:\n    /* \"#utility.yul\":696:839   */\n  swap3\n  swap2\n  pop\n  pop\n  jump\t// out\n    /* \"#utility.yul\":845:962   */\ntag_31:\n    /* \"#utility.yul\":954:955   */\n  0x00\n    /* \"#utility.yul\":951:952   */\n  dup1\n    /* \"#utility.yul\":944:956   */\n  revert\n    /* \"#utility.yul\":968:1085   */\ntag_32:\n    /* \"#utility.yul\":1077:1078   */\n  0x00\n    /* \"#utility.yul\":1074:1075   */\n  dup1\n    /* \"#utility.yul\":1067:1079   */\n  revert\n    /* \"#utility.yul\":1091:1193   */\ntag_33:\n    /* \"#utility.yul\":1132:1138   */\n  0x00\n    /* \"#utility.yul\":1183:1185   */\n  0x1f\n    /* \"#utility.yul\":1179:1186   */\n  not\n    /* \"#utility.yul\":1174:1176   */\n  0x1f\n    /* \"#utility.yul\":1167:1172   */\n  dup4\n    /* \"#utility.yul\":1163:1177   */\n  add\n    /* \"#utility.yul\":1159:1187   */\n  and\n    /* \"#utility.yul\":1149:1187   */\n  swap1\n  pop\n    /* \"#utility.yul\":1091:1193   */\n  swap2\n  swap1\n  pop\n  jump\t// out\n    /* \"#utility.yul\":1199:1379   */\ntag_34:\n    /* \"#utility.yul\":1247:1324   */\n  0x4e487b7100000000000000000000000000000000000000000000000000000000\n    /* \"#utility.yul\":1244:1245   */\n  0x00\n    /* \"#utility.yul\":1237:1325   */\n  mstore\n    /* \"#utility.yul\":1344:1348   */\n  0x41\n    /* \"#utility.yul\":1341:1342   */\n  0x04\n    /* \"#utility.yul\":1334:1349   */\n  mstore\n    /* \"#utility.yul\":1368:1372   */\n  0x24\n    /* \"#utility.yul\":1365:1366   */\n  0x00\n    /* \"#utility.yul\":1358:1373   */\n  revert\n    /* \"#utility.yul\":1385:1666   */\ntag_35:\n    /* \"#utility.yul\":1468:1495   */\n  tag_87\n    /* \"#utility.yul\":1490:1494   */\n  dup3\n    /* \"#utility.yul\":1468:1495   */\n  tag_33\n  jump\t// in\ntag_87:\n    /* \"#utility.yul\":1460:1466   */\n  dup2\n    /* \"#utility.yul\":1456:1496   */\n  add\n    /* \"#utility.yul\":1598:1604   */\n  dup2\n    /* \"#utility.yul\":1586:1596   */\n  dup2\n    /* \"#utility.yul\":1583:1605   */\n  lt\n    /* \"#utility.yul\":1562:1580   */\n  0xffffffffffffffff\n    /* \"#utility.yul\":1550:1560   */\n  dup3\n    /* \"#utility.yul\":1547:1581   */\n  gt\n    /* \"#utility.yul\":1544:1606   */\n  or\n    /* \"#utility.yul\":1541:1629   */\n  iszero\n  tag_88\n  jumpi\n    /* \"#utility.yul\":1609:1627   */\n  tag_89\n  tag_34\n  jump\t// in\ntag_89:\n    /* \"#utility.yul\":1541:1629   */\ntag_88:\n    /* \"#utility.yul\":1649:1659   */\n  dup1\n    /* \"#utility.yul\":1645:1647   */\n  0x40\n    /* \"#utility.yul\":1638:1660   */\n  mstore\n    /* \"#utility.yul\":1428:1666   */\n  pop\n    /* \"#utility.yul\":1385:1666   */\n  pop\n  pop\n  jump\t// out\n    /* \"#utility.yul\":1672:1801   */\ntag_36:\n    /* \"#utility.yul\":1706:1712   */\n  0x00\n    /* \"#utility.yul\":1733:1753   */\n  tag_91\n  tag_24\n  jump\t// in\ntag_91:\n    /* \"#utility.yul\":1723:1753   */\n  swap1\n  pop\n    /* \"#utility.yul\":1762:1795   */\n  tag_92\n    /* \"#utility.yul\":1790:1794   */\n  dup3\n    /* \"#utility.yul\":1782:1788   */\n  dup3\n    /* \"#utility.yul\":1762:1795   */\n  tag_35\n  jump\t// in\ntag_92:\n    /* \"#utility.yul\":1672:1801   */\n  swap2\n  swap1\n  pop\n  jump\t// out\n    /* \"#utility.yul\":1807:2115   */\ntag_37:\n    /* \"#utility.yul\":1869:1873   */\n  0x00\n    /* \"#utility.yul\":1959:1977   */\n  0xffffffffffffffff\n    /* \"#utility.yul\":1951:1957   */\n  dup3\n    /* \"#utility.yul\":1948:1978   */\n  gt\n    /* \"#utility.yul\":1945:2001   */\n  iszero\n  tag_94\n  jumpi\n    /* \"#utility.yul\":1981:1999   */\n  tag_95\n  tag_34\n  jump\t// in\ntag_95:\n    /* \"#utility.yul\":1945:2001   */\ntag_94:\n    /* \"#utility.yul\":2019:2048   */\n  tag_96\n    /* \"#utility.yul\":2041:2047   */\n  dup3\n    /* \"#utility.yul\":2019:2048   */\n  tag_33\n  jump\t// in\ntag_96:\n    /* \"#utility.yul\":2011:2048   */\n  swap1\n  pop\n    /* \"#utility.yul\":2103:2107   */\n  0x20\n    /* \"#utility.yul\":2097:2101   */\n  dup2\n    /* \"#utility.yul\":2093:2108   */\n  add\n    /* \"#utility.yul\":2085:2108   */\n  swap1\n  pop\n    /* \"#utility.yul\":1807:2115   */\n  swap2\n  swap1\n  pop\n  jump\t// out\n    /* \"#utility.yul\":2121:2260   */\ntag_38:\n    /* \"#utility.yul\":2210:2216   */\n  dup3\n    /* \"#utility.yul\":2205:2208   */\n  dup2\n    /* \"#utility.yul\":2200:2203   */\n  dup4\n    /* \"#utility.yul\":2194:2217   */\n  mcopy\n    /* \"#utility.yul\":2251:2252   */\n  0x00\n    /* \"#utility.yul\":2242:2248   */\n  dup4\n    /* \"#utility.yul\":2237:2240   */\n  dup4\n    /* \"#utility.yul\":2233:2249   */\n  add\n    /* \"#utility.yul\":2226:2253   */\n  mstore\n    /* \"#utility.yul\":2121:2260   */\n  pop\n  pop\n  pop\n  jump\t// out\n    /* \"#utility.yul\":2266:2700   */\ntag_39:\n    /* \"#utility.yul\":2355:2360   */\n  0x00\n    /* \"#utility.yul\":2380:2446   */\n  tag_99\n    /* \"#utility.yul\":2396:2445   */\n  tag_100\n    /* \"#utility.yul\":2438:2444   */\n  dup5\n    /* \"#utility.yul\":2396:2445   */\n  tag_37\n  jump\t// in\ntag_100:\n    /* \"#utility.yul\":2380:2446   */\n  tag_36\n  jump\t// in\ntag_99:\n    /* \"#utility.yul\":2371:2446   */\n  swap1\n  pop\n    /* \"#utility.yul\":2469:2475   */\n  dup3\n    /* \"#utility.yul\":2462:2467   */\n  dup2\n    /* \"#utility.yul\":2455:2476   */\n  mstore\n    /* \"#utility.yul\":2507:2511   */\n  0x20\n    /* \"#utility.yul\":2500:2505   */\n  dup2\n    /* \"#utility.yul\":2496:2512   */\n  add\n    /* \"#utility.yul\":2545:2548   */\n  dup5\n    /* \"#utility.yul\":2536:2542   */\n  dup5\n    /* \"#utility.yul\":2531:2534   */\n  dup5\n    /* \"#utility.yul\":2527:2543   */\n  add\n    /* \"#utility.yul\":2524:2549   */\n  gt\n    /* \"#utility.yul\":2521:2633   */\n  iszero\n  tag_101\n  jumpi\n    /* \"#utility.yul\":2552:2631   */\n  tag_102\n  tag_32\n  jump\t// in\ntag_102:\n    /* \"#utility.yul\":2521:2633   */\ntag_101:\n    /* \"#utility.yul\":2642:2694   */\n  tag_103\n    /* \"#utility.yul\":2687:2693   */\n  dup5\n    /* \"#utility.yul\":2682:2685   */\n  dup3\n    /* \"#utility.yul\":2677:2680   */\n  dup6\n    /* \"#utility.yul\":2642:2694   */\n  tag_38\n  jump\t// in\ntag_103:\n    /* \"#utility.yul\":2361:2700   */\n  pop\n    /* \"#utility.yul\":2266:2700   */\n  swap4\n  swap3\n  pop\n  pop\n  pop\n  jump\t// out\n    /* \"#utility.yul\":2720:3075   */\ntag_40:\n    /* \"#utility.yul\":2787:2792   */\n  0x00\n    /* \"#utility.yul\":2836:2839   */\n  dup3\n    /* \"#utility.yul\":2829:2833   */\n  0x1f\n    /* \"#utility.yul\":2821:2827   */\n  dup4\n    /* \"#utility.yul\":2817:2834   */\n  add\n    /* \"#utility.yul\":2813:2840   */\n  slt\n    /* \"#utility.yul\":2803:2925   */\n  tag_105\n  jumpi\n    /* \"#utility.yul\":2844:2923   */\n  tag_106\n  tag_31\n  jump\t// in\ntag_106:\n    /* \"#utility.yul\":2803:2925   */\ntag_105:\n    /* \"#utility.yul\":2954:2960   */\n  dup2\n    /* \"#utility.yul\":2948:2961   */\n  mload\n    /* \"#utility.yul\":2979:3069   */\n  tag_107\n    /* \"#utility.yul\":3065:3068   */\n  dup5\n    /* \"#utility.yul\":3057:3063   */\n  dup3\n    /* \"#utility.yul\":3050:3054   */\n  0x20\n    /* \"#utility.yul\":3042:3048   */\n  dup7\n    /* \"#utility.yul\":3038:3055   */\n  add\n    /* \"#utility.yul\":2979:3069   */\n  tag_39\n  jump\t// in\ntag_107:\n    /* \"#utility.yul\":2970:3069   */\n  swap2\n  pop\n    /* \"#utility.yul\":2793:3075   */\n  pop\n    /* \"#utility.yul\":2720:3075   */\n  swap3\n  swap2\n  pop\n  pop\n  jump\t// out\n    /* \"#utility.yul\":3081:3167   */\ntag_41:\n    /* \"#utility.yul\":3116:3123   */\n  0x00\n    /* \"#utility.yul\":3156:3160   */\n  0xff\n    /* \"#utility.yul\":3149:3154   */\n  dup3\n    /* \"#utility.yul\":3145:3161   */\n  and\n    /* \"#utility.yul\":3134:3161   */\n  swap1\n  pop\n    /* \"#utility.yul\":3081:3167   */\n  swap2\n  swap1\n  pop\n  jump\t// out\n    /* \"#utility.yul\":3173:3291   */\ntag_42:\n    /* \"#utility.yul\":3244:3266   */\n  tag_110\n    /* \"#utility.yul\":3260:3265   */\n  dup2\n    /* \"#utility.yul\":3244:3266   */\n  tag_41\n  jump\t// in\ntag_110:\n    /* \"#utility.yul\":3237:3242   */\n  dup2\n    /* \"#utility.yul\":3234:3267   */\n  eq\n    /* \"#utility.yul\":3224:3285   */\n  tag_111\n  jumpi\n    /* \"#utility.yul\":3281:3282   */\n  0x00\n    /* \"#utility.yul\":3278:3279   */\n  dup1\n    /* \"#utility.yul\":3271:3283   */\n  revert\n    /* \"#utility.yul\":3224:3285   */\ntag_111:\n    /* \"#utility.yul\":3173:3291   */\n  pop\n  jump\t// out\n    /* \"#utility.yul\":3297:3436   */\ntag_43:\n    /* \"#utility.yul\":3352:3357   */\n  0x00\n    /* \"#utility.yul\":3383:3389   */\n  dup2\n    /* \"#utility.yul\":3377:3390   */\n  mload\n    /* \"#utility.yul\":3368:3390   */\n  swap1\n  pop\n    /* \"#utility.yul\":3399:3430   */\n  tag_113\n    /* \"#utility.yul\":3424:3429   */\n  dup2\n    /* \"#utility.yul\":3399:3430   */\n  tag_42\n  jump\t// in\ntag_113:\n    /* \"#utility.yul\":3297:3436   */\n  swap3\n  swap2\n  pop\n  pop\n  jump\t// out\n    /* \"#utility.yul\":3442:3519   */\ntag_44:\n    /* \"#utility.yul\":3479:3486   */\n  0x00\n    /* \"#utility.yul\":3508:3513   */\n  dup2\n    /* \"#utility.yul\":3497:3513   */\n  swap1\n  pop\n    /* \"#utility.yul\":3442:3519   */\n  swap2\n  swap1\n  pop\n  jump\t// out\n    /* \"#utility.yul\":3525:3647   */\ntag_45:\n    /* \"#utility.yul\":3598:3622   */\n  tag_116\n    /* \"#utility.yul\":3616:3621   */\n  dup2\n    /* \"#utility.yul\":3598:3622   */\n  tag_44\n  jump\t// in\ntag_116:\n    /* \"#utility.yul\":3591:3596   */\n  dup2\n    /* \"#utility.yul\":3588:3623   */\n  eq\n    /* \"#utility.yul\":3578:3641   */\n  tag_117\n  jumpi\n    /* \"#utility.yul\":3637:3638   */\n  0x00\n    /* \"#utility.yul\":3634:3635   */\n  dup1\n    /* \"#utility.yul\":3627:3639   */\n  revert\n    /* \"#utility.yul\":3578:3641   */\ntag_117:\n    /* \"#utility.yul\":3525:3647   */\n  pop\n  jump\t// out\n    /* \"#utility.yul\":3653:3796   */\ntag_46:\n    /* \"#utility.yul\":3710:3715   */\n  0x00\n    /* \"#utility.yul\":3741:3747   */\n  dup2\n    /* \"#utility.yul\":3735:3748   */\n  mload\n    /* \"#utility.yul\":3726:3748   */\n  swap1\n  pop\n    /* \"#utility.yul\":3757:3790   */\n  tag_119\n    /* \"#utility.yul\":3784:3789   */\n  dup2\n    /* \"#utility.yul\":3757:3790   */\n  tag_45\n  jump\t// in\ntag_119:\n    /* \"#utility.yul\":3653:3796   */\n  swap3\n  swap2\n  pop\n  pop\n  jump\t// out\n    /* \"#utility.yul\":3802:5121   */\ntag_3:\n    /* \"#utility.yul\":3926:3932   */\n  0x00\n    /* \"#utility.yul\":3934:3940   */\n  dup1\n    /* \"#utility.yul\":3942:3948   */\n  0x00\n    /* \"#utility.yul\":3950:3956   */\n  dup1\n    /* \"#utility.yul\":3958:3964   */\n  0x00\n    /* \"#utility.yul\":4007:4010   */\n  0xa0\n    /* \"#utility.yul\":3995:4004   */\n  dup7\n    /* \"#utility.yul\":3986:3993   */\n  dup9\n    /* \"#utility.yul\":3982:4005   */\n  sub\n    /* \"#utility.yul\":3978:4011   */\n  slt\n    /* \"#utility.yul\":3975:4095   */\n  iszero\n  tag_121\n  jumpi\n    /* \"#utility.yul\":4014:4093   */\n  tag_122\n  tag_25\n  jump\t// in\ntag_122:\n    /* \"#utility.yul\":3975:4095   */\ntag_121:\n    /* \"#utility.yul\":4134:4135   */\n  0x00\n    /* \"#utility.yul\":4159:4223   */\n  tag_123\n    /* \"#utility.yul\":4215:4222   */\n  dup9\n    /* \"#utility.yul\":4206:4212   */\n  dup3\n    /* \"#utility.yul\":4195:4204   */\n  dup10\n    /* \"#utility.yul\":4191:4213   */\n  add\n    /* \"#utility.yul\":4159:4223   */\n  tag_30\n  jump\t// in\ntag_123:\n    /* \"#utility.yul\":4149:4223   */\n  swap6\n  pop\n    /* \"#utility.yul\":4105:4233   */\n  pop\n    /* \"#utility.yul\":4293:4295   */\n  0x20\n    /* \"#utility.yul\":4282:4291   */\n  dup7\n    /* \"#utility.yul\":4278:4296   */\n  add\n    /* \"#utility.yul\":4272:4297   */\n  mload\n    /* \"#utility.yul\":4324:4342   */\n  0xffffffffffffffff\n    /* \"#utility.yul\":4316:4322   */\n  dup2\n    /* \"#utility.yul\":4313:4343   */\n  gt\n    /* \"#utility.yul\":4310:4427   */\n  iszero\n  tag_124\n  jumpi\n    /* \"#utility.yul\":4346:4425   */\n  tag_125\n  tag_26\n  jump\t// in\ntag_125:\n    /* \"#utility.yul\":4310:4427   */\ntag_124:\n    /* \"#utility.yul\":4451:4525   */\n  tag_126\n    /* \"#utility.yul\":4517:4524   */\n  dup9\n    /* \"#utility.yul\":4508:4514   */\n  dup3\n    /* \"#utility.yul\":4497:4506   */\n  dup10\n    /* \"#utility.yul\":4493:4515   */\n  add\n    /* \"#utility.yul\":4451:4525   */\n  tag_40\n  jump\t// in\ntag_126:\n    /* \"#utility.yul\":4441:4525   */\n  swap5\n  pop\n    /* \"#utility.yul\":4243:4535   */\n  pop\n    /* \"#utility.yul\":4595:4597   */\n  0x40\n    /* \"#utility.yul\":4584:4593   */\n  dup7\n    /* \"#utility.yul\":4580:4598   */\n  add\n    /* \"#utility.yul\":4574:4599   */\n  mload\n    /* \"#utility.yul\":4626:4644   */\n  0xffffffffffffffff\n    /* \"#utility.yul\":4618:4624   */\n  dup2\n    /* \"#utility.yul\":4615:4645   */\n  gt\n    /* \"#utility.yul\":4612:4729   */\n  iszero\n  tag_127\n  jumpi\n    /* \"#utility.yul\":4648:4727   */\n  tag_128\n  tag_26\n  jump\t// in\ntag_128:\n    /* \"#utility.yul\":4612:4729   */\ntag_127:\n    /* \"#utility.yul\":4753:4827   */\n  tag_129\n    /* \"#utility.yul\":4819:4826   */\n  dup9\n    /* \"#utility.yul\":4810:4816   */\n  dup3\n    /* \"#utility.yul\":4799:4808   */\n  dup10\n    /* \"#utility.yul\":4795:4817   */\n  add\n    /* \"#utility.yul\":4753:4827   */\n  tag_40\n  jump\t// in\ntag_129:\n    /* \"#utility.yul\":4743:4827   */\n  swap4\n  pop\n    /* \"#utility.yul\":4545:4837   */\n  pop\n    /* \"#utility.yul\":4876:4878   */\n  0x60\n    /* \"#utility.yul\":4902:4964   */\n  tag_130\n    /* \"#utility.yul\":4956:4963   */\n  dup9\n    /* \"#utility.yul\":4947:4953   */\n  dup3\n    /* \"#utility.yul\":4936:4945   */\n  dup10\n    /* \"#utility.yul\":4932:4954   */\n  add\n    /* \"#utility.yul\":4902:4964   */\n  tag_43\n  jump\t// in\ntag_130:\n    /* \"#utility.yul\":4892:4964   */\n  swap3\n  pop\n    /* \"#utility.yul\":4847:4974   */\n  pop\n    /* \"#utility.yul\":5013:5016   */\n  0x80\n    /* \"#utility.yul\":5040:5104   */\n  tag_131\n    /* \"#utility.yul\":5096:5103   */\n  dup9\n    /* \"#utility.yul\":5087:5093   */\n  dup3\n    /* \"#utility.yul\":5076:5085   */\n  dup10\n    /* \"#utility.yul\":5072:5094   */\n  add\n    /* \"#utility.yul\":5040:5104   */\n  tag_46\n  jump\t// in\ntag_131:\n    /* \"#utility.yul\":5030:5104   */\n  swap2\n  pop\n    /* \"#utility.yul\":4984:5114   */\n  pop\n    /* \"#utility.yul\":3802:5121   */\n  swap3\n  swap6\n  pop\n  swap3\n  swap6\n  swap1\n  swap4\n  pop\n  jump\t// out\n    /* \"#utility.yul\":5127:5226   */\ntag_47:\n    /* \"#utility.yul\":5179:5185   */\n  0x00\n    /* \"#utility.yul\":5213:5218   */\n  dup2\n    /* \"#utility.yul\":5207:5219   */\n  mload\n    /* \"#utility.yul\":5197:5219   */\n  swap1\n  pop\n    /* \"#utility.yul\":5127:5226   */\n  swap2\n  swap1\n  pop\n  jump\t// out\n    /* \"#utility.yul\":5232:5412   */\ntag_48:\n    /* \"#utility.yul\":5280:5357   */\n  0x4e487b7100000000000000000000000000000000000000000000000000000000\n    /* \"#utility.yul\":5277:5278   */\n  0x00\n    /* \"#utility.yul\":5270:5358   */\n  mstore\n    /* \"#utility.yul\":5377:5381   */\n  0x22\n    /* \"#utility.yul\":5374:5375   */\n  0x04\n    /* \"#utility.yul\":5367:5382   */\n  mstore\n    /* \"#utility.yul\":5401:5405   */\n  0x24\n    /* \"#utility.yul\":5398:5399   */\n  0x00\n    /* \"#utility.yul\":5391:5406   */\n  revert\n    /* \"#utility.yul\":5418:5738   */\ntag_49:\n    /* \"#utility.yul\":5462:5468   */\n  0x00\n    /* \"#utility.yul\":5499:5500   */\n  0x02\n    /* \"#utility.yul\":5493:5497   */\n  dup3\n    /* \"#utility.yul\":5489:5501   */\n  div\n    /* \"#utility.yul\":5479:5501   */\n  swap1\n  pop\n    /* \"#utility.yul\":5546:5547   */\n  0x01\n    /* \"#utility.yul\":5540:5544   */\n  dup3\n    /* \"#utility.yul\":5536:5548   */\n  and\n    /* \"#utility.yul\":5567:5585   */\n  dup1\n    /* \"#utility.yul\":5557:5638   */\n  tag_135\n  jumpi\n    /* \"#utility.yul\":5623:5627   */\n  0x7f\n    /* \"#utility.yul\":5615:5621   */\n  dup3\n    /* \"#utility.yul\":5611:5628   */\n  and\n    /* \"#utility.yul\":5601:5628   */\n  swap2\n  pop\n    /* \"#utility.yul\":5557:5638   */\ntag_135:\n    /* \"#utility.yul\":5685:5687   */\n  0x20\n    /* \"#utility.yul\":5677:5683   */\n  dup3\n    /* \"#utility.yul\":5674:5688   */\n  lt\n    /* \"#utility.yul\":5654:5672   */\n  dup2\n    /* \"#utility.yul\":5651:5689   */\n  sub\n    /* \"#utility.yul\":5648:5732   */\n  tag_136\n  jumpi\n    /* \"#utility.yul\":5704:5722   */\n  tag_137\n  tag_48\n  jump\t// in\ntag_137:\n    /* \"#utility.yul\":5648:5732   */\ntag_136:\n    /* \"#utility.yul\":5469:5738   */\n  pop\n    /* \"#utility.yul\":5418:5738   */\n  swap2\n  swap1\n  pop\n  jump\t// out\n    /* \"#utility.yul\":5744:5885   */\ntag_50:\n    /* \"#utility.yul\":5793:5797   */\n  0x00\n    /* \"#utility.yul\":5816:5819   */\n  dup2\n    /* \"#utility.yul\":5808:5819   */\n  swap1\n  pop\n    /* \"#utility.yul\":5839:5842   */\n  dup2\n    /* \"#utility.yul\":5836:5837   */\n  0x00\n    /* \"#utility.yul\":5829:5843   */\n  mstore\n    /* \"#utility.yul\":5873:5877   */\n  0x20\n    /* \"#utility.yul\":5870:5871   */\n  0x00\n    /* \"#utility.yul\":5860:5878   */\n  keccak256\n    /* \"#utility.yul\":5852:5878   */\n  swap1\n  pop\n    /* \"#utility.yul\":5744:5885   */\n  swap2\n  swap1\n  pop\n  jump\t// out\n    /* \"#utility.yul\":5891:5984   */\ntag_51:\n    /* \"#utility.yul\":5928:5934   */\n  0x00\n    /* \"#utility.yul\":5975:5977   */\n  0x20\n    /* \"#utility.yul\":5970:5972   */\n  0x1f\n    /* \"#utility.yul\":5963:5968   */\n  dup4\n    /* \"#utility.yul\":5959:5973   */\n  add\n    /* \"#utility.yul\":5955:5978   */\n  div\n    /* \"#utility.yul\":5945:5978   */\n  swap1\n  pop\n    /* \"#utility.yul\":5891:5984   */\n  swap2\n  swap1\n  pop\n  jump\t// out\n    /* \"#utility.yul\":5990:6097   */\ntag_52:\n    /* \"#utility.yul\":6034:6042   */\n  0x00\n    /* \"#utility.yul\":6084:6089   */\n  dup3\n    /* \"#utility.yul\":6078:6082   */\n  dup3\n    /* \"#utility.yul\":6074:6090   */\n  shl\n    /* \"#utility.yul\":6053:6090   */\n  swap1\n  pop\n    /* \"#utility.yul\":5990:6097   */\n  swap3\n  swap2\n  pop\n  pop\n  jump\t// out\n    /* \"#utility.yul\":6103:6496   */\ntag_53:\n    /* \"#utility.yul\":6172:6178   */\n  0x00\n    /* \"#utility.yul\":6222:6223   */\n  0x08\n    /* \"#utility.yul\":6210:6220   */\n  dup4\n    /* \"#utility.yul\":6206:6224   */\n  mul\n    /* \"#utility.yul\":6245:6342   */\n  tag_142\n    /* \"#utility.yul\":6275:6341   */\n  0xffffffffffffffffffffffffffffffffffffffffffffffffffffffffffffffff\n    /* \"#utility.yul\":6264:6273   */\n  dup3\n    /* \"#utility.yul\":6245:6342   */\n  tag_52\n  jump\t// in\ntag_142:\n    /* \"#utility.yul\":6363:6402   */\n  tag_143\n    /* \"#utility.yul\":6393:6401   */\n  dup7\n    /* \"#utility.yul\":6382:6391   */\n  dup4\n    /* \"#utility.yul\":6363:6402   */\n  tag_52\n  jump\t// in\ntag_143:\n    /* \"#utility.yul\":6351:6402   */\n  swap6\n  pop\n    /* \"#utility.yul\":6435:6439   */\n  dup1\n    /* \"#utility.yul\":6431:6440   */\n  not\n    /* \"#utility.yul\":6424:6429   */\n  dup5\n    /* \"#utility.yul\":6420:6441   */\n  and\n    /* \"#utility.yul\":6411:6441   */\n  swap4\n  pop\n    /* \"#utility.yul\":6484:6488   */\n  dup1\n    /* \"#utility.yul\":6474:6482   */\n  dup7\n    /* \"#utility.yul\":6470:6489   */\n  and\n    /* \"#utility.yul\":6463:6468   */\n  dup5\n    /* \"#utility.yul\":6460:6490   */\n  or\n    /* \"#utility.yul\":6450:6490   */\n  swap3\n  pop\n    /* \"#utility.yul\":6179:6496   */\n  pop\n  pop\n    /* \"#utility.yul\":6103:6496   */\n  swap4\n  swap3\n  pop\n  pop\n  pop\n  jump\t// out\n    /* \"#utility.yul\":6502:6562   */\ntag_54:\n    /* \"#utility.yul\":6530:6533   */\n  0x00\n    /* \"#utility.yul\":6551:6556   */\n  dup2\n    /* \"#utility.yul\":6544:6556   */\n  swap1\n  pop\n    /* \"#utility.yul\":6502:6562   */\n  swap2\n  swap1\n  pop\n  jump\t// out\n    /* \"#utility.yul\":6568:6710   */\ntag_55:\n    /* \"#utility.yul\":6618:6627   */\n  0x00\n    /* \"#utility.yul\":6651:6704   */\n  tag_146\n    /* \"#utility.yul\":6669:6703   */\n  tag_147\n    /* \"#utility.yul\":6678:6702   */\n  tag_148\n    /* \"#utility.yul\":6696:6701   */\n  dup5\n    /* \"#utility.yul\":6678:6702   */\n  tag_44\n  jump\t// in\ntag_148:\n    /* \"#utility.yul\":6669:6703   */\n  tag_54\n  jump\t// in\ntag_147:\n    /* \"#utility.yul\":6651:6704   */\n  tag_44\n  jump\t// in\ntag_146:\n    /* \"#utility.yul\":6638:6704   */\n  swap1\n  pop\n    /* \"#utility.yul\":6568:6710   */\n  swap2\n  swap1\n  pop\n  jump\t// out\n    /* \"#utility.yul\":6716:6791   */\ntag_56:\n    /* \"#utility.yul\":6759:6762   */\n  0x00\n    /* \"#utility.yul\":6780:6785   */\n  dup2\n    /* \"#utility.yul\":6773:6785   */\n  swap1\n  pop\n    /* \"#utility.yul\":6716:6791   */\n  swap2\n  swap1\n  pop\n  jump\t// out\n    /* \"#utility.yul\":6797:7066   */\ntag_57:\n    /* \"#utility.yul\":6907:6946   */\n  tag_151\n    /* \"#utility.yul\":6938:6945   */\n  dup4\n    /* \"#utility.yul\":6907:6946   */\n  tag_55\n  jump\t// in\ntag_151:\n    /* \"#utility.yul\":6968:7059   */\n  tag_152\n    /* \"#utility.yul\":7017:7058   */\n  tag_153\n    /* \"#utility.yul\":7041:7057   */\n  dup3\n    /* \"#utility.yul\":7017:7058   */\n  tag_56\n  jump\t// in\ntag_153:\n    /* \"#utility.yul\":7009:7015   */\n  dup5\n    /* \"#utility.yul\":7002:7006   */\n  dup5\n    /* \"#utility.yul\":6996:7007   */\n  sload\n    /* \"#utility.yul\":6968:7059   */\n  tag_53\n  jump\t// in\ntag_152:\n    /* \"#utility.yul\":6962:6966   */\n  dup3\n    /* \"#utility.yul\":6955:7060   */\n  sstore\n    /* \"#utility.yul\":6873:7066   */\n  pop\n    /* \"#utility.yul\":6797:7066   */\n  pop\n  pop\n  pop\n  jump\t// out\n    /* \"#utility.yul\":7072:7145   */\ntag_58:\n    /* \"#utility.yul\":7117:7120   */\n  0x00\n    /* \"#utility.yul\":7072:7145   */\n  swap1\n  jump\t// out\n    /* \"#utility.yul\":7151:7340   */\ntag_59:\n    /* \"#utility.yul\":7228:7260   */\n  tag_156\n  tag_58\n  jump\t// in\ntag_156:\n    /* \"#utility.yul\":7269:7334   */\n  tag_157\n    /* \"#utility.yul\":7327:7333   */\n  dup2\n    /* \"#utility.yul\":7319:7325   */\n  dup5\n    /* \"#utility.yul\":7313:7317   */\n  dup5\n    /* \"#utility.yul\":7269:7334   */\n  tag_57\n  jump\t// in\ntag_157:\n    /* \"#utility.yul\":7204:7340   */\n  pop\n    /* \"#utility.yul\":7151:7340   */\n  pop\n  pop\n  jump\t// out\n    /* \"#utility.yul\":7346:7532   */\ntag_60:\n    /* \"#utility.yul\":7406:7526   */\ntag_159:\n    /* \"#utility.yul\":7423:7426   */\n  dup2\n    /* \"#utility.yul\":7416:7421   */\n  dup2\n    /* \"#utility.yul\":7413:7427   */\n  lt\n    /* \"#utility.yul\":7406:7526   */\n  iszero\n  tag_161\n  jumpi\n    /* \"#utility.yul\":7477:7516   */\n  tag_162\n    /* \"#utility.yul\":7514:7515   */\n  0x00\n    /* \"#utility.yul\":7507:7512   */\n  dup3\n    /* \"#utility.yul\":7477:7516   */\n  tag_59\n  jump\t// in\ntag_162:\n    /* \"#utility.yul\":7450:7451   */\n  0x01\n    /* \"#utility.yul\":7443:7448   */\n  dup2\n    /* \"#utility.yul\":7439:7452   */\n  add\n    /* \"#utility.yul\":7430:7452   */\n  swap1\n  pop\n    /* \"#utility.yul\":7406:7526   */\n  jump(tag_159)\ntag_161:\n    /* \"#utility.yul\":7346:7532   */\n  pop\n  pop\n  jump\t// out\n    /* \"#utility.yul\":7538:8081   */\ntag_61:\n    /* \"#utility.yul\":7639:7641   */\n  0x1f\n    /* \"#utility.yul\":7634:7637   */\n  dup3\n    /* \"#utility.yul\":7631:7642   */\n  gt\n    /* \"#utility.yul\":7628:8074   */\n  iszero\n  tag_164\n  jumpi\n    /* \"#utility.yul\":7673:7711   */\n  tag_165\n    /* \"#utility.yul\":7705:7710   */\n  dup2\n    /* \"#utility.yul\":7673:7711   */\n  tag_50\n  jump\t// in\ntag_165:\n    /* \"#utility.yul\":7757:7786   */\n  tag_166\n    /* \"#utility.yul\":7775:7785   */\n  dup5\n    /* \"#utility.yul\":7757:7786   */\n  tag_51\n  jump\t// in\ntag_166:\n    /* \"#utility.yul\":7747:7755   */\n  dup2\n    /* \"#utility.yul\":7743:7787   */\n  add\n    /* \"#utility.yul\":7940:7942   */\n  0x20\n    /* \"#utility.yul\":7928:7938   */\n  dup6\n    /* \"#utility.yul\":7925:7943   */\n  lt\n    /* \"#utility.yul\":7922:7971   */\n  iszero\n  tag_167\n  jumpi\n    /* \"#utility.yul\":7961:7969   */\n  dup2\n    /* \"#utility.yul\":7946:7969   */\n  swap1\n  pop\n    /* \"#utility.yul\":7922:7971   */\ntag_167:\n    /* \"#utility.yul\":7984:8064   */\n  tag_168\n    /* \"#utility.yul\":8040:8062   */\n  tag_169\n    /* \"#utility.yul\":8058:8061   */\n  dup6\n    /* \"#utility.yul\":8040:8062   */\n  tag_51\n  jump\t// in\ntag_169:\n    /* \"#utility.yul\":8030:8038   */\n  dup4\n    /* \"#utility.yul\":8026:8063   */\n  add\n    /* \"#utility.yul\":8013:8024   */\n  dup3\n    /* \"#utility.yul\":7984:8064   */\n  tag_60\n  jump\t// in\ntag_168:\n    /* \"#utility.yul\":7643:8074   */\n  pop\n  pop\n    /* \"#utility.yul\":7628:8074   */\ntag_164:\n    /* \"#utility.yul\":7538:8081   */\n  pop\n  pop\n  pop\n  jump\t// out\n    /* \"#utility.yul\":8087:8204   */\ntag_62:\n    /* \"#utility.yul\":8141:8149   */\n  0x00\n    /* \"#utility.yul\":8191:8196   */\n  dup3\n    /* \"#utility.yul\":8185:8189   */\n  dup3\n    /* \"#utility.yul\":8181:8197   */\n  shr\n    /* \"#utility.yul\":8160:8197   */\n  swap1\n  pop\n    /* \"#utility.yul\":8087:8204   */\n  swap3\n  swap2\n  pop\n  pop\n  jump\t// out\n    /* \"#utility.yul\":8210:8379   */\ntag_63:\n    /* \"#utility.yul\":8254:8260   */\n  0x00\n    /* \"#utility.yul\":8287:8338   */\n  tag_172\n    /* \"#utility.yul\":8335:8336   */\n  0x00\n    /* \"#utility.yul\":8331:8337   */\n  not\n    /* \"#utility.yul\":8323:8328   */\n  dup5\n    /* \"#utility.yul\":8320:8321   */\n  0x08\n    /* \"#utility.yul\":8316:8329   */\n  mul\n    /* \"#utility.yul\":8287:8338   */\n  tag_62\n  jump\t// in\ntag_172:\n    /* \"#utility.yul\":8283:8339   */\n  not\n    /* \"#utility.yul\":8368:8372   */\n  dup1\n    /* \"#utility.yul\":8362:8366   */\n  dup4\n    /* \"#utility.yul\":8358:8373   */\n  and\n    /* \"#utility.yul\":8348:8373   */\n  swap2\n  pop\n    /* \"#utility.yul\":8261:8379   */\n  pop\n    /* \"#utility.yul\":8210:8379   */\n  swap3\n  swap2\n  pop\n  pop\n  jump\t// out\n    /* \"#utility.yul\":8384:8679   */\ntag_64:\n    /* \"#utility.yul\":8460:8464   */\n  0x00\n    /* \"#utility.yul\":8606:8635   */\n  tag_174\n    /* \"#utility.yul\":8631:8634   */\n  dup4\n    /* \"#utility.yul\":8625:8629   */\n  dup4\n    /* \"#utility.yul\":8606:8635   */\n  tag_63\n  jump\t// in\ntag_174:\n    /* \"#utility.yul\":8598:8635   */\n  swap2\n  pop\n    /* \"#utility.yul\":8668:8671   */\n  dup3\n    /* \"#utility.yul\":8665:8666   */\n  0x02\n    /* \"#utility.yul\":8661:8672   */\n  mul\n    /* \"#utility.yul\":8655:8659   */\n  dup3\n    /* \"#utility.yul\":8652:8673   */\n  or\n    /* \"#utility.yul\":8644:8673   */\n  swap1\n  pop\n    /* \"#utility.yul\":8384:8679   */\n  swap3\n  swap2\n  pop\n  pop\n  jump\t// out\n    /* \"#utility.yul\":8684:10079   */\ntag_8:\n    /* \"#utility.yul\":8801:8838   */\n  tag_176\n    /* \"#utility.yul\":8834:8837   */\n  dup3\n    /* \"#utility.yul\":8801:8838   */\n  tag_47\n  jump\t// in\ntag_176:\n    /* \"#utility.yul\":8903:8921   */\n  0xffffffffffffffff\n    /* \"#utility.yul\":8895:8901   */\n  dup2\n    /* \"#utility.yul\":8892:8922   */\n  gt\n    /* \"#utility.yul\":8889:8945   */\n  iszero\n  tag_177\n  jumpi\n    /* \"#utility.yul\":8925:8943   */\n  tag_178\n  tag_34\n  jump\t// in\ntag_178:\n    /* \"#utility.yul\":8889:8945   */\ntag_177:\n    /* \"#utility.yul\":8969:9007   */\n  tag_179\n    /* \"#utility.yul\":9001:9005   */\n  dup3\n    /* \"#utility.yul\":8995:9006   */\n  sload\n    /* \"#utility.yul\":8969:9007   */\n  tag_49\n  jump\t// in\ntag_179:\n    /* \"#utility.yul\":9054:9121   */\n  tag_180\n    /* \"#utility.yul\":9114:9120   */\n  dup3\n    /* \"#utility.yul\":9106:9112   */\n  dup3\n    /* \"#utility.yul\":9100:9104   */\n  dup6\n    /* \"#utility.yul\":9054:9121   */\n  tag_61\n  jump\t// in\ntag_180:\n    /* \"#utility.yul\":9148:9149   */\n  0x00\n    /* \"#utility.yul\":9172:9176   */\n  0x20\n    /* \"#utility.yul\":9159:9176   */\n  swap1\n  pop\n    /* \"#utility.yul\":9204:9206   */\n  0x1f\n    /* \"#utility.yul\":9196:9202   */\n  dup4\n    /* \"#utility.yul\":9193:9207   */\n  gt\n    /* \"#utility.yul\":9221:9222   */\n  0x01\n    /* \"#utility.yul\":9216:9834   */\n  dup2\n  eq\n  tag_182\n  jumpi\n    /* \"#utility.yul\":9878:9879   */\n  0x00\n    /* \"#utility.yul\":9895:9901   */\n  dup5\n    /* \"#utility.yul\":9892:9969   */\n  iszero\n  tag_183\n  jumpi\n    /* \"#utility.yul\":9944:9953   */\n  dup3\n    /* \"#utility.yul\":9939:9942   */\n  dup8\n    /* \"#utility.yul\":9935:9954   */\n  add\n    /* \"#utility.yul\":9929:9955   */\n  mload\n    /* \"#utility.yul\":9920:9955   */\n  swap1\n  pop\n    /* \"#utility.yul\":9892:9969   */\ntag_183:\n    /* \"#utility.yul\":9995:10062   */\n  tag_184\n    /* \"#utility.yul\":10055:10061   */\n  dup6\n    /* \"#utility.yul\":10048:10053   */\n  dup3\n    /* \"#utility.yul\":9995:10062   */\n  tag_64\n  jump\t// in\ntag_184:\n    /* \"#utility.yul\":9989:9993   */\n  dup7\n    /* \"#utility.yul\":9982:10063   */\n  sstore\n    /* \"#utility.yul\":9851:10073   */\n  pop\n    /* \"#utility.yul\":9186:10073   */\n  jump(tag_181)\n    /* \"#utility.yul\":9216:9834   */\ntag_182:\n    /* \"#utility.yul\":9268:9272   */\n  0x1f\n    /* \"#utility.yul\":9264:9273   */\n  not\n    /* \"#utility.yul\":9256:9262   */\n  dup5\n    /* \"#utility.yul\":9252:9274   */\n  and\n    /* \"#utility.yul\":9302:9339   */\n  tag_185\n    /* \"#utility.yul\":9334:9338   */\n  dup7\n    /* \"#utility.yul\":9302:9339   */\n  tag_50\n  jump\t// in\ntag_185:\n    /* \"#utility.yul\":9361:9362   */\n  0x00\n    /* \"#utility.yul\":9375:9583   */\ntag_186:\n    /* \"#utility.yul\":9389:9396   */\n  dup3\n    /* \"#utility.yul\":9386:9387   */\n  dup2\n    /* \"#utility.yul\":9383:9397   */\n  lt\n    /* \"#utility.yul\":9375:9583   */\n  iszero\n  tag_188\n  jumpi\n    /* \"#utility.yul\":9468:9477   */\n  dup5\n    /* \"#utility.yul\":9463:9466   */\n  dup10\n    /* \"#utility.yul\":9459:9478   */\n  add\n    /* \"#utility.yul\":9453:9479   */\n  mload\n    /* \"#utility.yul\":9445:9451   */\n  dup3\n    /* \"#utility.yul\":9438:9480   */\n  sstore\n    /* \"#utility.yul\":9519:9520   */\n  0x01\n    /* \"#utility.yul\":9511:9517   */\n  dup3\n    /* \"#utility.yul\":9507:9521   */\n  add\n    /* \"#utility.yul\":9497:9521   */\n  swap2\n  pop\n    /* \"#utility.yul\":9566:9568   */\n  0x20\n    /* \"#utility.yul\":9555:9564   */\n  dup6\n    /* \"#utility.yul\":9551:9569   */\n  add\n    /* \"#utility.yul\":9538:9569   */\n  swap5\n  pop\n    /* \"#utility.yul\":9412:9416   */\n  0x20\n    /* \"#utility.yul\":9409:9410   */\n  dup2\n    /* \"#utility.yul\":9405:9417   */\n  add\n    /* \"#utility.yul\":9400:9417   */\n  swap1\n  pop\n    /* \"#utility.yul\":9375:9583   */\n  jump(tag_186)\ntag_188:\n    /* \"#utility.yul\":9611:9617   */\n  dup7\n    /* \"#utility.yul\":9602:9609   */\n  dup4\n    /* \"#utility.yul\":9599:9618   */\n  lt\n    /* \"#utility.yul\":9596:9775   */\n  iszero\n  tag_189\n  jumpi\n    /* \"#utility.yul\":9669:9678   */\n  dup5\n    /* \"#utility.yul\":9664:9667   */\n  dup10\n    /* \"#utility.yul\":9660:9679   */\n  add\n    /* \"#utility.yul\":9654:9680   */\n  mload\n    /* \"#utility.yul\":9712:9760   */\n  tag_190\n    /* \"#utility.yul\":9754:9758   */\n  0x1f\n    /* \"#utility.yul\":9746:9752   */\n  dup10\n    /* \"#utility.yul\":9742:9759   */\n  and\n    /* \"#utility.yul\":9731:9740   */\n  dup3\n    /* \"#utility.yul\":9712:9760   */\n  tag_63\n  jump\t// in\ntag_190:\n    /* \"#utility.yul\":9704:9710   */\n  dup4\n    /* \"#utility.yul\":9697:9761   */\n  sstore\n    /* \"#utility.yul\":9619:9775   */\n  pop\n    /* \"#utility.yul\":9596:9775   */\ntag_189:\n    /* \"#utility.yul\":9821:9822   */\n  0x01\n    /* \"#utility.yul\":9817:9818   */\n  0x02\n    /* \"#utility.yul\":9809:9815   */\n  dup9\n    /* \"#utility.yul\":9805:9819   */\n  mul\n    /* \"#utility.yul\":9801:9823   */\n  add\n    /* \"#utility.yul\":9795:9799   */\n  dup9\n    /* \"#utility.yul\":9788:9824   */\n  sstore\n    /* \"#utility.yul\":9223:9834   */\n  pop\n  pop\n  pop\n    /* \"#utility.yul\":9186:10073   */\ntag_181:\n  pop\n    /* \"#utility.yul\":8776:10079   */\n  pop\n  pop\n  pop\n    /* \"#utility.yul\":8684:10079   */\n  pop\n  pop\n  jump\t// out\n    /* \"#utility.yul\":10085:10265   */\ntag_65:\n    /* \"#utility.yul\":10133:10210   */\n  0x4e487b7100000000000000000000000000000000000000000000000000000000\n    /* \"#utility.yul\":10130:10131   */\n  0x00\n    /* \"#utility.yul\":10123:10211   */\n  mstore\n    /* \"#utility.yul\":10230:10234   */\n  0x11\n    /* \"#utility.yul\":10227:10228   */\n  0x04\n    /* \"#utility.yul\":10220:10235   */\n  mstore\n    /* \"#utility.yul\":10254:10258   */\n  0x24\n    /* \"#utility.yul\":10251:10252   */\n  0x00\n    /* \"#utility.yul\":10244:10259   */\n  revert\n    /* \"#utility.yul\":10271:10373   */\ntag_66:\n    /* \"#utility.yul\":10313:10321   */\n  0x00\n    /* \"#utility.yul\":10360:10365   */\n  dup2\n    /* \"#utility.yul\":10357:10358   */\n  0x01\n    /* \"#utility.yul\":10353:10366   */\n  shr\n    /* \"#utility.yul\":10332:10366   */\n  swap1\n  pop\n    /* \"#utility.yul\":10271:10373   */\n  swap2\n  swap1\n  pop\n  jump\t// out\n    /* \"#utility.yul\":10379:11227   */\ntag_67:\n    /* \"#utility.yul\":10440:10445   */\n  0x00\n    /* \"#utility.yul\":10447:10451   */\n  dup1\n    /* \"#utility.yul\":10471:10477   */\n  dup3\n    /* \"#utility.yul\":10462:10477   */\n  swap2\n  pop\n    /* \"#utility.yul\":10495:10500   */\n  dup4\n    /* \"#utility.yul\":10486:10500   */\n  swap1\n  pop\n    /* \"#utility.yul\":10509:11221   */\ntag_194:\n    /* \"#utility.yul\":10530:10531   */\n  0x01\n    /* \"#utility.yul\":10520:10528   */\n  dup6\n    /* \"#utility.yul\":10517:10532   */\n  gt\n    /* \"#utility.yul\":10509:11221   */\n  iszero\n  tag_196\n  jumpi\n    /* \"#utility.yul\":10625:10629   */\n  dup1\n    /* \"#utility.yul\":10620:10623   */\n  dup7\n    /* \"#utility.yul\":10616:10630   */\n  div\n    /* \"#utility.yul\":10610:10614   */\n  dup2\n    /* \"#utility.yul\":10607:10631   */\n  gt\n    /* \"#utility.yul\":10604:10654   */\n  iszero\n  tag_197\n  jumpi\n    /* \"#utility.yul\":10634:10652   */\n  tag_198\n  tag_65\n  jump\t// in\ntag_198:\n    /* \"#utility.yul\":10604:10654   */\ntag_197:\n    /* \"#utility.yul\":10684:10685   */\n  0x01\n    /* \"#utility.yul\":10674:10682   */\n  dup6\n    /* \"#utility.yul\":10670:10686   */\n  and\n    /* \"#utility.yul\":10667:11118   */\n  iszero\n  tag_199\n  jumpi\n    /* \"#utility.yul\":11099:11103   */\n  dup1\n    /* \"#utility.yul\":11092:11097   */\n  dup3\n    /* \"#utility.yul\":11088:11104   */\n  mul\n    /* \"#utility.yul\":11079:11104   */\n  swap2\n  pop\n    /* \"#utility.yul\":10667:11118   */\ntag_199:\n    /* \"#utility.yul\":11149:11153   */\n  dup1\n    /* \"#utility.yul\":11143:11147   */\n  dup2\n    /* \"#utility.yul\":11139:11154   */\n  mul\n    /* \"#utility.yul\":11131:11154   */\n  swap1\n  pop\n    /* \"#utility.yul\":11179:11211   */\n  tag_200\n    /* \"#utility.yul\":11202:11210   */\n  dup6\n    /* \"#utility.yul\":11179:11211   */\n  tag_66\n  jump\t// in\ntag_200:\n    /* \"#utility.yul\":11167:11211   */\n  swap5\n  pop\n    /* \"#utility.yul\":10509:11221   */\n  jump(tag_194)\ntag_196:\n    /* \"#utility.yul\":10379:11227   */\n  swap5\n  pop\n  swap5\n  swap3\n  pop\n  pop\n  pop\n  jump\t// out\n    /* \"#utility.yul\":11233:12306   */\ntag_68:\n    /* \"#utility.yul\":11287:11292   */\n  0x00\n    /* \"#utility.yul\":11478:11486   */\n  dup3\n    /* \"#utility.yul\":11468:11508   */\n  tag_202\n  jumpi\n    /* \"#utility.yul\":11499:11500   */\n  0x01\n    /* \"#utility.yul\":11490:11500   */\n  swap1\n  pop\n    /* \"#utility.yul\":11501:11506   */\n  jump(tag_201)\n    /* \"#utility.yul\":11468:11508   */\ntag_202:\n    /* \"#utility.yul\":11527:11531   */\n  dup2\n    /* \"#utility.yul\":11517:11553   */\n  tag_203\n  jumpi\n    /* \"#utility.yul\":11544:11545   */\n  0x00\n    /* \"#utility.yul\":11535:11545   */\n  swap1\n  pop\n    /* \"#utility.yul\":11546:11551   */\n  jump(tag_201)\n    /* \"#utility.yul\":11517:11553   */\ntag_203:\n    /* \"#utility.yul\":11613:11617   */\n  dup2\n    /* \"#utility.yul\":11661:11662   */\n  0x01\n    /* \"#utility.yul\":11656:11683   */\n  dup2\n  eq\n  tag_205\n  jumpi\n    /* \"#utility.yul\":11697:11698   */\n  0x02\n    /* \"#utility.yul\":11692:11883   */\n  dup2\n  eq\n  tag_206\n  jumpi\n    /* \"#utility.yul\":11606:11883   */\n  jump(tag_204)\n    /* \"#utility.yul\":11656:11683   */\ntag_205:\n    /* \"#utility.yul\":11674:11675   */\n  0x01\n    /* \"#utility.yul\":11665:11675   */\n  swap2\n  pop\n    /* \"#utility.yul\":11676:11681   */\n  pop\n  jump(tag_201)\n    /* \"#utility.yul\":11692:11883   */\ntag_206:\n    /* \"#utility.yul\":11737:11740   */\n  0xff\n    /* \"#utility.yul\":11727:11735   */\n  dup5\n    /* \"#utility.yul\":11724:11741   */\n  gt\n    /* \"#utility.yul\":11721:11764   */\n  iszero\n  tag_207\n  jumpi\n    /* \"#utility.yul\":11744:11762   */\n  tag_208\n  tag_65\n  jump\t// in\ntag_208:\n    /* \"#utility.yul\":11721:11764   */\ntag_207:\n    /* \"#utility.yul\":11793:11801   */\n  dup4\n    /* \"#utility.yul\":11790:11791   */\n  0x02\n    /* \"#utility.yul\":11786:11802   */\n  exp\n    /* \"#utility.yul\":11777:11802   */\n  swap2\n  pop\n    /* \"#utility.yul\":11828:11831   */\n  dup5\n    /* \"#utility.yul\":11821:11826   */\n  dup3\n    /* \"#utility.yul\":11818:11832   */\n  gt\n    /* \"#utility.yul\":11815:11855   */\n  iszero\n  tag_209\n  jumpi\n    /* \"#utility.yul\":11835:11853   */\n  tag_210\n  tag_65\n  jump\t// in\ntag_210:\n    /* \"#utility.yul\":11815:11855   */\ntag_209:\n    /* \"#utility.yul\":11868:11873   */\n  pop\n  jump(tag_201)\n    /* \"#utility.yul\":11606:11883   */\ntag_204:\n  pop\n    /* \"#utility.yul\":11992:11994   */\n  0x20\n    /* \"#utility.yul\":11982:11990   */\n  dup4\n    /* \"#utility.yul\":11979:11995   */\n  lt\n    /* \"#utility.yul\":11973:11976   */\n  0x0133\n    /* \"#utility.yul\":11967:11971   */\n  dup4\n    /* \"#utility.yul\":11964:11977   */\n  lt\n    /* \"#utility.yul\":11960:11996   */\n  and\n    /* \"#utility.yul\":11942:11944   */\n  0x4e\n    /* \"#utility.yul\":11932:11940   */\n  dup5\n    /* \"#utility.yul\":11929:11945   */\n  lt\n    /* \"#utility.yul\":11924:11926   */\n  0x0b\n    /* \"#utility.yul\":11918:11922   */\n  dup5\n    /* \"#utility.yul\":11915:11927   */\n  lt\n    /* \"#utility.yul\":11911:11946   */\n  and\n    /* \"#utility.yul\":11895:12006   */\n  or\n    /* \"#utility.yul\":11892:12138   */\n  iszero\n  tag_211\n  jumpi\n    /* \"#utility.yul\":12048:12056   */\n  dup3\n    /* \"#utility.yul\":12042:12046   */\n  dup3\n    /* \"#utility.yul\":12038:12057   */\n  exp\n    /* \"#utility.yul\":12029:12057   */\n  swap1\n  pop\n    /* \"#utility.yul\":12083:12086   */\n  dup4\n    /* \"#utility.yul\":12076:12081   */\n  dup2\n    /* \"#utility.yul\":12073:12087   */\n  gt\n    /* \"#utility.yul\":12070:12110   */\n  iszero\n  tag_212\n  jumpi\n    /* \"#utility.yul\":12090:12108   */\n  tag_213\n  tag_65\n  jump\t// in\ntag_213:\n    /* \"#utility.yul\":12070:12110   */\ntag_212:\n    /* \"#utility.yul\":12123:12128   */\n  jump(tag_201)\n    /* \"#utility.yul\":11892:12138   */\ntag_211:\n    /* \"#utility.yul\":12163:12205   */\n  tag_214\n    /* \"#utility.yul\":12201:12204   */\n  dup5\n    /* \"#utility.yul\":12191:12199   */\n  dup5\n    /* \"#utility.yul\":12185:12189   */\n  dup5\n    /* \"#utility.yul\":12182:12183   */\n  0x01\n    /* \"#utility.yul\":12163:12205   */\n  tag_67\n  jump\t// in\ntag_214:\n    /* \"#utility.yul\":12148:12205   */\n  swap3\n  pop\n  swap1\n  pop\n    /* \"#utility.yul\":12237:12241   */\n  dup2\n    /* \"#utility.yul\":12232:12235   */\n  dup5\n    /* \"#utility.yul\":12228:12242   */\n  div\n    /* \"#utility.yul\":12221:12226   */\n  dup2\n    /* \"#utility.yul\":12218:12243   */\n  gt\n    /* \"#utility.yul\":12215:12266   */\n  iszero\n  tag_215\n  jumpi\n    /* \"#utility.yul\":12246:12264   */\n  tag_216\n  tag_65\n  jump\t// in\ntag_216:\n    /* \"#utility.yul\":12215:12266   */\ntag_215:\n    /* \"#utility.yul\":12295:12299   */\n  dup2\n    /* \"#utility.yul\":12288:12293   */\n  dup2\n    /* \"#utility.yul\":12284:12300   */\n  mul\n    /* \"#utility.yul\":12275:12300   */\n  swap1\n  pop\n    /* \"#utility.yul\":11233:12306   */\ntag_201:\n  swap4\n  swap3\n  pop\n  pop\n  pop\n  jump\t// out\n    /* \"#utility.yul\":12312:12593   */\ntag_13:\n    /* \"#utility.yul\":12370:12375   */\n  0x00\n    /* \"#utility.yul\":12394:12417   */\n  tag_218\n    /* \"#utility.yul\":12412:12416   */\n  dup3\n    /* \"#utility.yul\":12394:12417   */\n  tag_44\n  jump\t// in\ntag_218:\n    /* \"#utility.yul\":12386:12417   */\n  swap2\n  pop\n    /* \"#utility.yul\":12438:12463   */\n  tag_219\n    /* \"#utility.yul\":12454:12462   */\n  dup4\n    /* \"#utility.yul\":12438:12463   */\n  tag_41\n  jump\t// in\ntag_219:\n    /* \"#utility.yul\":12426:12463   */\n  swap3\n  pop\n    /* \"#utility.yul\":12482:12586   */\n  tag_220\n    /* \"#utility.yul\":12519:12585   */\n  0xffffffffffffffffffffffffffffffffffffffffffffffffffffffffffffffff\n    /* \"#utility.yul\":12509:12517   */\n  dup5\n    /* \"#utility.yul\":12503:12507   */\n  dup5\n    /* \"#utility.yul\":12482:12586   */\n  tag_68\n  jump\t// in\ntag_220:\n    /* \"#utility.yul\":12473:12586   */\n  swap1\n  pop\n    /* \"#utility.yul\":12312:12593   */\n  swap3\n  swap2\n  pop\n  pop\n  jump\t// out\n    /* \"#utility.yul\":12599:13009   */\ntag_15:\n    /* \"#utility.yul\":12639:12646   */\n  0x00\n    /* \"#utility.yul\":12662:12682   */\n  tag_222\n    /* \"#utility.yul\":12680:12681   */\n  dup3\n    /* \"#utility.yul\":12662:12682   */\n  tag_44\n  jump\t// in\ntag_222:\n    /* \"#utility.yul\":12657:12682   */\n  swap2\n  pop\n    /* \"#utility.yul\":12696:12716   */\n  tag_223\n    /* \"#utility.yul\":12714:12715   */\n  dup4\n    /* \"#utility.yul\":12696:12716   */\n  tag_44\n  jump\t// in\ntag_223:\n    /* \"#utility.yul\":12691:12716   */\n  swap3\n  pop\n    /* \"#utility.yul\":12751:12752   */\n  dup3\n    /* \"#utility.yul\":12748:12749   */\n  dup3\n    /* \"#utility.yul\":12744:12753   */\n  mul\n    /* \"#utility.yul\":12773:12803   */\n  tag_224\n    /* \"#utility.yul\":12791:12802   */\n  dup2\n    /* \"#utility.yul\":12773:12803   */\n  tag_44\n  jump\t// in\ntag_224:\n    /* \"#utility.yul\":12762:12803   */\n  swap2\n  pop\n    /* \"#utility.yul\":12952:12953   */\n  dup3\n    /* \"#utility.yul\":12943:12950   */\n  dup3\n    /* \"#utility.yul\":12939:12954   */\n  div\n    /* \"#utility.yul\":12936:12937   */\n  dup5\n    /* \"#utility.yul\":12933:12955   */\n  eq\n    /* \"#utility.yul\":12913:12914   */\n  dup4\n    /* \"#utility.yul\":12906:12915   */\n  iszero\n    /* \"#utility.yul\":12886:12969   */\n  or\n    /* \"#utility.yul\":12863:13002   */\n  tag_225\n  jumpi\n    /* \"#utility.yul\":12982:13000   */\n  tag_226\n  tag_65\n  jump\t// in\ntag_226:\n    /* \"#utility.yul\":12863:13002   */\ntag_225:\n    /* \"#utility.yul\":12647:13009   */\n  pop\n    /* \"#utility.yul\":12599:13009   */\n  swap3\n  swap2\n  pop\n  pop\n  jump\t// out\n    /* \"#utility.yul\":13015:13206   */\ntag_20:\n    /* \"#utility.yul\":13055:13058   */\n  0x00\n    /* \"#utility.yul\":13074:13094   */\n  tag_228\n    /* \"#utility.yul\":13092:13093   */\n  dup3\n    /* \"#utility.yul\":13074:13094   */\n  tag_44\n  jump\t// in\ntag_228:\n    /* \"#utility.yul\":13069:13094   */\n  swap2\n  pop\n    /* \"#utility.yul\":13108:13128   */\n  tag_229\n    /* \"#utility.yul\":13126:13127   */\n  dup4\n    /* \"#utility.yul\":13108:13128   */\n  tag_44\n  jump\t// in\ntag_229:\n    /* \"#utility.yul\":13103:13128   */\n  swap3\n  pop\n    /* \"#utility.yul\":13151:13152   */\n  dup3\n    /* \"#utility.yul\":13148:13149   */\n  dup3\n    /* \"#utility.yul\":13144:13153   */\n  add\n    /* \"#utility.yul\":13137:13153   */\n  swap1\n  pop\n    /* \"#utility.yul\":13172:13175   */\n  dup1\n    /* \"#utility.yul\":13169:13170   */\n  dup3\n    /* \"#utility.yul\":13166:13176   */\n  gt\n    /* \"#utility.yul\":13163:13199   */\n  iszero\n  tag_230\n  jumpi\n    /* \"#utility.yul\":13179:13197   */\n  tag_231\n  tag_65\n  jump\t// in\ntag_231:\n    /* \"#utility.yul\":13163:13199   */\ntag_230:\n    /* \"#utility.yul\":13015:13206   */\n  swap3\n  swap2\n  pop\n  pop\n  jump\t// out\n    /* \"#utility.yul\":13212:13330   */\ntag_69:\n    /* \"#utility.yul\":13299:13323   */\n  tag_233\n    /* \"#utility.yul\":13317:13322   */\n  dup2\n    /* \"#utility.yul\":13299:13323   */\n  tag_44\n  jump\t// in\ntag_233:\n    /* \"#utility.yul\":13294:13297   */\n  dup3\n    /* \"#utility.yul\":13287:13324   */\n  mstore\n    /* \"#utility.yul\":13212:13330   */\n  pop\n  pop\n  jump\t// out\n    /* \"#utility.yul\":13336:13558   */\ntag_23:\n    /* \"#utility.yul\":13429:13433   */\n  0x00\n    /* \"#utility.yul\":13467:13469   */\n  0x20\n    /* \"#utility.yul\":13456:13465   */\n  dup3\n    /* \"#utility.yul\":13452:13470   */\n  add\n    /* \"#utility.yul\":13444:13470   */\n  swap1\n  pop\n    /* \"#utility.yul\":13480:13551   */\n  tag_235\n    /* \"#utility.yul\":13548:13549   */\n  0x00\n    /* \"#utility.yul\":13537:13546   */\n  dup4\n    /* \"#utility.yul\":13533:13550   */\n  add\n    /* \"#utility.yul\":13524:13530   */\n  dup5\n    /* \"#utility.yul\":13480:13551   */\n  tag_69\n  jump\t// in\ntag_235:\n    /* \"#utility.yul\":13336:13558   */\n  swap3\n  swap2\n  pop\n  pop\n  jump\t// out\n    /* \"src/solt.sol\":125:383  contract solt is ERC20 {... */\ntag_17:\n  dataSize(sub_0)\n  dup1\n  dataOffset(sub_0)\n  0x00\n  codecopy\n  0x00\n  return\nstop\n\nsub_0: assembly {\n        /* \"src/solt.sol\":125:383  contract solt is ERC20 {... */\n      mstore(0x40, 0x80)\n      callvalue\n      dup1\n      iszero\n      tag_1\n      jumpi\n      0x00\n      dup1\n      revert\n    tag_1:\n      pop\n      jumpi(tag_2, lt(calldatasize, 0x04))\n      shr(0xe0, calldataload(0x00))\n      dup1\n      0x5b833f1e\n      gt\n      tag_19\n      jumpi\n      dup1\n      0xa3e67610\n      gt\n      tag_20\n      jumpi\n      dup1\n      0xa3e67610\n      eq\n      tag_15\n      jumpi\n      dup1\n      0xa9059cbb\n      eq\n      tag_16\n      jumpi\n      dup1\n      0xd5abeb01\n      eq\n      tag_17\n      jumpi\n      dup1\n      0xdd62ed3e\n      eq\n      tag_18\n      jumpi\n      jump(tag_2)\n    tag_20:\n      dup1\n      0x5b833f1e\n      eq\n      tag_11\n      jumpi\n      dup1\n      0x70a08231\n      eq\n      tag_12\n      jumpi\n      dup1\n      0x95d89b41\n      eq\n      tag_13\n      jumpi\n      dup1\n      0x9dc29fac\n      eq\n      tag_14\n      jumpi\n      jump(tag_2)\n    tag_19:\n      dup1\n      0x21e6b53d\n      gt\n      tag_21\n      jumpi\n      dup1\n      0x21e6b53d\n      eq\n      tag_7\n      jumpi\n      dup1\n      0x23b872dd\n      eq\n      tag_8\n      jumpi\n      dup1\n      0x313ce567\n      eq\n      tag_9\n      jumpi\n      dup1\n      0x40c10f19\n      eq\n      tag_10\n      jumpi\n      jump(tag_2)\n    tag_21:\n      dup1\n      0x06fdde03\n      eq\n      tag_3\n      jumpi\n      dup1\n      0x095ea7b3\n      eq\n      tag_4\n      jumpi\n      dup1\n      0x10731a65\n      eq\n      tag_5\n      jumpi\n      dup1\n      0x18160ddd\n      eq\n      tag_6\n      jumpi\n    tag_2:\n      0x00\n      dup1\n      revert\n        /* \"src/ERC20.sol\":221:239  string public name */\n    tag_3:\n      tag_22\n      tag_23\n      jump\t// in\n    tag_22:\n      mload(0x40)\n      tag_24\n      swap2\n      swap1\n      tag_25\n      jump\t// in\n    tag_24:\n      mload(0x40)\n      dup1\n      swap2\n      sub\n      swap1\n      return\n        /* \"src/ERC20.sol\":3842:4152  function approve(address spender, uint256 amount) external returns(bool)... */\n    tag_4:\n      tag_26\n      0x04\n      dup1\n      calldatasize\n      sub\n      dup2\n      add\n      swap1\n      tag_27\n      swap2\n      swap1\n      tag_28\n      jump\t// in\n    tag_27:\n      tag_29\n      jump\t// in\n    tag_26:\n      mload(0x40)\n      tag_30\n      swap2\n      swap1\n      tag_31\n      jump\t// in\n    tag_30:\n      mload(0x40)\n      dup1\n      swap2\n      sub\n      swap1\n      return\n        /* \"src/ERC20.sol\":2476:2745  function claimTokenOwnership() external ... */\n    tag_5:\n      tag_32\n      tag_33\n      jump\t// in\n    tag_32:\n      mload(0x40)\n      tag_34\n      swap2\n      swap1\n      tag_31\n      jump\t// in\n    tag_34:\n      mload(0x40)\n      dup1\n      swap2\n      sub\n      swap1\n      return\n        /* \"src/ERC20.sol\":301:327  uint256 public totalSupply */\n    tag_6:\n      tag_35\n      tag_36\n      jump\t// in\n    tag_35:\n      mload(0x40)\n      tag_37\n      swap2\n      swap1\n      tag_38\n      jump\t// in\n    tag_37:\n      mload(0x40)\n      dup1\n      swap2\n      sub\n      swap1\n      return\n        /* \"src/ERC20.sol\":2064:2377  function transferTokenOwnership(address _nextTokenOwner) external ... */\n    tag_7:\n      tag_39\n      0x04\n      dup1\n      calldatasize\n      sub\n      dup2\n      add\n      swap1\n      tag_40\n      swap2\n      swap1\n      tag_41\n      jump\t// in\n    tag_40:\n      tag_42\n      jump\t// in\n    tag_39:\n      mload(0x40)\n      tag_43\n      swap2\n      swap1\n      tag_31\n      jump\t// in\n    tag_43:\n      mload(0x40)\n      dup1\n      swap2\n      sub\n      swap1\n      return\n        /* \"src/ERC20.sol\":3280:3724  function transferFrom(address sender, address recipient, uint256 amount) external returns(bool)... */\n    tag_8:\n      tag_44\n      0x04\n      dup1\n      calldatasize\n      sub\n      dup2\n      add\n      swap1\n      tag_45\n      swap2\n      swap1\n      tag_46\n      jump\t// in\n    tag_45:\n      tag_47\n      jump\t// in\n    tag_44:\n      mload(0x40)\n      tag_48\n      swap2\n      swap1\n      tag_31\n      jump\t// in\n    tag_48:\n      mload(0x40)\n      dup1\n      swap2\n      sub\n      swap1\n      return\n        /* \"src/ERC20.sol\":273:294  uint8 public decimals */\n    tag_9:\n      tag_49\n      tag_50\n      jump\t// in\n    tag_49:\n      mload(0x40)\n      tag_51\n      swap2\n      swap1\n      tag_52\n      jump\t// in\n    tag_51:\n      mload(0x40)\n      dup1\n      swap2\n      sub\n      swap1\n      return\n        /* \"src/ERC20.sol\":4256:4490  function mint(address to, uint256 amount) external ... */\n    tag_10:\n      tag_53\n      0x04\n      dup1\n      calldatasize\n      sub\n      dup2\n      add\n      swap1\n      tag_54\n      swap2\n      swap1\n      tag_28\n      jump\t// in\n    tag_54:\n      tag_55\n      jump\t// in\n    tag_53:\n      stop\n        /* \"src/ERC20.sol\":397:426  address public nextTokenOwner */\n    tag_11:\n      tag_56\n      tag_57\n      jump\t// in\n    tag_56:\n      mload(0x40)\n      tag_58\n      swap2\n      swap1\n      tag_59\n      jump\t// in\n    tag_58:\n      mload(0x40)\n      dup1\n      swap2\n      sub\n      swap1\n      return\n        /* \"src/ERC20.sol\":433:477  mapping(address => uint256) public balanceOf */\n    tag_12:\n      tag_60\n      0x04\n      dup1\n      calldatasize\n      sub\n      dup2\n      add\n      swap1\n      tag_61\n      swap2\n      swap1\n      tag_41\n      jump\t// in\n    tag_61:\n      tag_62\n      jump\t// in\n    tag_60:\n      mload(0x40)\n      tag_63\n      swap2\n      swap1\n      tag_38\n      jump\t// in\n    tag_63:\n      mload(0x40)\n      dup1\n      swap2\n      sub\n      swap1\n      return\n        /* \"src/ERC20.sol\":246:266  string public symbol */\n    tag_13:\n      tag_64\n      tag_65\n      jump\t// in\n    tag_64:\n      mload(0x40)\n      tag_66\n      swap2\n      swap1\n      tag_25\n      jump\t// in\n    tag_66:\n      mload(0x40)\n      dup1\n      swap2\n      sub\n      swap1\n      return\n        /* \"src/ERC20.sol\":4599:4801  function burn(address from, uint256 amount) external ... */\n    tag_14:\n      tag_67\n      0x04\n      dup1\n      calldatasize\n      sub\n      dup2\n      add\n      swap1\n      tag_68\n      swap2\n      swap1\n      tag_28\n      jump\t// in\n    tag_68:\n      tag_69\n      jump\t// in\n    tag_67:\n      stop\n        /* \"src/ERC20.sol\":365:390  address public tokenOwner */\n    tag_15:\n      tag_70\n      tag_71\n      jump\t// in\n    tag_70:\n      mload(0x40)\n      tag_72\n      swap2\n      swap1\n      tag_59\n      jump\t// in\n    tag_72:\n      mload(0x40)\n      dup1\n      swap2\n      sub\n      swap1\n      return\n        /* \"src/ERC20.sol\":2812:3159  function transfer(address recipient, uint256 amount) external returns(bool) ... */\n    tag_16:\n      tag_73\n      0x04\n      dup1\n      calldatasize\n      sub\n      dup2\n      add\n      swap1\n      tag_74\n      swap2\n      swap1\n      tag_28\n      jump\t// in\n    tag_74:\n      tag_75\n      jump\t// in\n    tag_73:\n      mload(0x40)\n      tag_76\n      swap2\n      swap1\n      tag_31\n      jump\t// in\n    tag_76:\n      mload(0x40)\n      dup1\n      swap2\n      sub\n      swap1\n      return\n        /* \"src/ERC20.sol\":334:358  uint256 public maxSupply */\n    tag_17:\n      tag_77\n      tag_78\n      jump\t// in\n    tag_77:\n      mload(0x40)\n      tag_79\n      swap2\n      swap1\n      tag_38\n      jump\t// in\n    tag_79:\n      mload(0x40)\n      dup1\n      swap2\n      sub\n      swap1\n      return\n        /* \"src/ERC20.sol\":484:548  mapping(address => mapping(address => uint256)) public allowance */\n    tag_18:\n      tag_80\n      0x04\n      dup1\n      calldatasize\n      sub\n      dup2\n      add\n      swap1\n      tag_81\n      swap2\n      swap1\n      tag_82\n      jump\t// in\n    tag_81:\n      tag_83\n      jump\t// in\n    tag_80:\n      mload(0x40)\n      tag_84\n      swap2\n      swap1\n      tag_38\n      jump\t// in\n    tag_84:\n      mload(0x40)\n      dup1\n      swap2\n      sub\n      swap1\n      return\n        /* \"src/ERC20.sol\":221:239  string public name */\n    tag_23:\n      0x00\n      dup1\n      sload\n      tag_85\n      swap1\n      tag_86\n      jump\t// in\n    tag_85:\n      dup1\n      0x1f\n      add\n      0x20\n      dup1\n      swap2\n      div\n      mul\n      0x20\n      add\n      mload(0x40)\n      swap1\n      dup2\n      add\n      0x40\n      mstore\n      dup1\n      swap3\n      swap2\n      swap1\n      dup2\n      dup2\n      mstore\n      0x20\n      add\n      dup3\n      dup1\n      sload\n      tag_87\n      swap1\n      tag_86\n      jump\t// in\n    tag_87:\n      dup1\n      iszero\n      tag_88\n      jumpi\n      dup1\n      0x1f\n      lt\n      tag_89\n      jumpi\n      0x0100\n      dup1\n      dup4\n      sload\n      div\n      mul\n      dup4\n      mstore\n      swap2\n      0x20\n      add\n      swap2\n      jump(tag_88)\n    tag_89:\n      dup3\n      add\n      swap2\n      swap1\n      0x00\n      mstore\n      keccak256(0x00, 0x20)\n      swap1\n    tag_90:\n      dup2\n      sload\n      dup2\n      mstore\n      swap1\n      0x01\n      add\n      swap1\n      0x20\n      add\n      dup1\n      dup4\n      gt\n      tag_90\n      jumpi\n      dup3\n      swap1\n      sub\n      0x1f\n      and\n      dup3\n      add\n      swap2\n    tag_88:\n      pop\n      pop\n      pop\n      pop\n      pop\n      dup2\n      jump\t// out\n        /* \"src/ERC20.sol\":3842:4152  function approve(address spender, uint256 amount) external returns(bool)... */\n    tag_29:\n        /* \"src/ERC20.sol\":3909:3913  bool */\n      0x00\n        /* \"src/ERC20.sol\":3945:3946  0 */\n      dup1\n        /* \"src/ERC20.sol\":3935:3941  amount */\n      dup3\n        /* \"src/ERC20.sol\":3935:3946  amount == 0 */\n      eq\n        /* \"src/ERC20.sol\":3935:3971  amount == 0 || spender == address(0) */\n      dup1\n      tag_92\n      jumpi\n      pop\n        /* \"src/ERC20.sol\":3969:3970  0 */\n      0x00\n        /* \"src/ERC20.sol\":3950:3971  spender == address(0) */\n      0xffffffffffffffffffffffffffffffffffffffff\n      and\n        /* \"src/ERC20.sol\":3950:3957  spender */\n      dup4\n        /* \"src/ERC20.sol\":3950:3971  spender == address(0) */\n      0xffffffffffffffffffffffffffffffffffffffff\n      and\n      eq\n        /* \"src/ERC20.sol\":3935:3971  amount == 0 || spender == address(0) */\n    tag_92:\n        /* \"src/ERC20.sol\":3935:4005  amount == 0 || spender == address(0) || balanceOf[msg.sender] < amount */\n      dup1\n      tag_93\n      jumpi\n      pop\n        /* \"src/ERC20.sol\":3999:4005  amount */\n      dup2\n        /* \"src/ERC20.sol\":3975:3984  balanceOf */\n      0x07\n        /* \"src/ERC20.sol\":3975:3996  balanceOf[msg.sender] */\n      0x00\n        /* \"src/ERC20.sol\":3985:3995  msg.sender */\n      caller\n        /* \"src/ERC20.sol\":3975:3996  balanceOf[msg.sender] */\n      0xffffffffffffffffffffffffffffffffffffffff\n      and\n      0xffffffffffffffffffffffffffffffffffffffff\n      and\n      dup2\n      mstore\n      0x20\n      add\n      swap1\n      dup2\n      mstore\n      0x20\n      add\n      0x00\n      keccak256\n      sload\n        /* \"src/ERC20.sol\":3975:4005  balanceOf[msg.sender] < amount */\n      lt\n        /* \"src/ERC20.sol\":3935:4005  amount == 0 || spender == address(0) || balanceOf[msg.sender] < amount */\n    tag_93:\n        /* \"src/ERC20.sol\":3931:4019  if (amount == 0 || spender == address(0) || balanceOf[msg.sender] < amount) return false */\n      iszero\n      tag_94\n      jumpi\n        /* \"src/ERC20.sol\":4014:4019  false */\n      0x00\n        /* \"src/ERC20.sol\":4007:4019  return false */\n      swap1\n      pop\n      jump(tag_91)\n        /* \"src/ERC20.sol\":3931:4019  if (amount == 0 || spender == address(0) || balanceOf[msg.sender] < amount) return false */\n    tag_94:\n        /* \"src/ERC20.sol\":4063:4069  amount */\n      dup2\n        /* \"src/ERC20.sol\":4030:4039  allowance */\n      0x08\n        /* \"src/ERC20.sol\":4030:4051  allowance[msg.sender] */\n      0x00\n        /* \"src/ERC20.sol\":4040:4050  msg.sender */\n      caller\n        /* \"src/ERC20.sol\":4030:4051  allowance[msg.sender] */\n      0xffffffffffffffffffffffffffffffffffffffff\n      and\n      0xffffffffffffffffffffffffffffffffffffffff\n      and\n      dup2\n      mstore\n      0x20\n      add\n      swap1\n      dup2\n      mstore\n      0x20\n      add\n      0x00\n      keccak256\n        /* \"src/ERC20.sol\":4030:4060  allowance[msg.sender][spender] */\n      0x00\n        /* \"src/ERC20.sol\":4052:4059  spender */\n      dup6\n        /* \"src/ERC20.sol\":4030:4060  allowance[msg.sender][spender] */\n      0xffffffffffffffffffffffffffffffffffffffff\n      and\n      0xffffffffffffffffffffffffffffffffffffffff\n      and\n      dup2\n      mstore\n      0x20\n      add\n      swap1\n      dup2\n      mstore\n      0x20\n      add\n      0x00\n      keccak256\n        /* \"src/ERC20.sol\":4030:4069  allowance[msg.sender][spender] = amount */\n      dup2\n      swap1\n      sstore\n      pop\n        /* \"src/ERC20.sol\":4106:4113  spender */\n      dup3\n        /* \"src/ERC20.sol\":4085:4122  Approval(msg.sender, spender, amount) */\n      0xffffffffffffffffffffffffffffffffffffffff\n      and\n        /* \"src/ERC20.sol\":4094:4104  msg.sender */\n      caller\n        /* \"src/ERC20.sol\":4085:4122  Approval(msg.sender, spender, amount) */\n      0xffffffffffffffffffffffffffffffffffffffff\n      and\n      0x8c5be1e5ebec7d5bd14f71427d1e84f3dd0314c0f7b2291e5b200ac8c7c3b925\n        /* \"src/ERC20.sol\":4115:4121  amount */\n      dup5\n        /* \"src/ERC20.sol\":4085:4122  Approval(msg.sender, spender, amount) */\n      mload(0x40)\n      tag_95\n      swap2\n      swap1\n      tag_38\n      jump\t// in\n    tag_95:\n      mload(0x40)\n      dup1\n      swap2\n      sub\n      swap1\n      log3\n        /* \"src/ERC20.sol\":4140:4144  true */\n      0x01\n        /* \"src/ERC20.sol\":4133:4144  return true */\n      swap1\n      pop\n        /* \"src/ERC20.sol\":3842:4152  function approve(address spender, uint256 amount) external returns(bool)... */\n    tag_91:\n      swap3\n      swap2\n      pop\n      pop\n      jump\t// out\n        /* \"src/ERC20.sol\":2476:2745  function claimTokenOwnership() external ... */\n    tag_33:\n        /* \"src/ERC20.sol\":2570:2574  bool */\n      0x00\n        /* \"src/ERC20.sol\":2536:2550  nextTokenOwner */\n      0x06\n      0x00\n      swap1\n      sload\n      swap1\n      0x0100\n      exp\n      swap1\n      div\n      0xffffffffffffffffffffffffffffffffffffffff\n      and\n        /* \"src/ERC20.sol\":1323:1334  _authorized */\n      dup1\n        /* \"src/ERC20.sol\":1309:1334  msg.sender == _authorized */\n      0xffffffffffffffffffffffffffffffffffffffff\n      and\n        /* \"src/ERC20.sol\":1309:1319  msg.sender */\n      caller\n        /* \"src/ERC20.sol\":1309:1334  msg.sender == _authorized */\n      0xffffffffffffffffffffffffffffffffffffffff\n      and\n      eq\n        /* \"src/ERC20.sol\":1301:1363  require(msg.sender == _authorized, \"Caller is not authorized\") */\n      tag_97\n      jumpi\n      mload(0x40)\n      0x08c379a000000000000000000000000000000000000000000000000000000000\n      dup2\n      mstore\n      0x04\n      add\n      tag_98\n      swap1\n      tag_99\n      jump\t// in\n    tag_98:\n      mload(0x40)\n      dup1\n      swap2\n      sub\n      swap1\n      revert\n    tag_97:\n        /* \"src/ERC20.sol\":2605:2619  nextTokenOwner */\n      0x06\n      0x00\n      swap1\n      sload\n      swap1\n      0x0100\n      exp\n      swap1\n      div\n      0xffffffffffffffffffffffffffffffffffffffff\n      and\n        /* \"src/ERC20.sol\":2592:2602  tokenOwner */\n      0x05\n      0x00\n        /* \"src/ERC20.sol\":2592:2619  tokenOwner = nextTokenOwner */\n      0x0100\n      exp\n      dup2\n      sload\n      dup2\n      0xffffffffffffffffffffffffffffffffffffffff\n      mul\n      not\n      and\n      swap1\n      dup4\n      0xffffffffffffffffffffffffffffffffffffffff\n      and\n      mul\n      or\n      swap1\n      sstore\n      pop\n        /* \"src/ERC20.sol\":2655:2656  0 */\n      0x00\n        /* \"src/ERC20.sol\":2630:2644  nextTokenOwner */\n      0x06\n      0x00\n        /* \"src/ERC20.sol\":2630:2657  nextTokenOwner = address(0) */\n      0x0100\n      exp\n      dup2\n      sload\n      dup2\n      0xffffffffffffffffffffffffffffffffffffffff\n      mul\n      not\n      and\n      swap1\n      dup4\n      0xffffffffffffffffffffffffffffffffffffffff\n      and\n      mul\n      or\n      swap1\n      sstore\n      pop\n        /* \"src/ERC20.sol\":2704:2714  tokenOwner */\n      0x05\n      0x00\n      swap1\n      sload\n      swap1\n      0x0100\n      exp\n      swap1\n      div\n      0xffffffffffffffffffffffffffffffffffffffff\n      and\n        /* \"src/ERC20.sol\":2673:2715  TokenOwnershipTransferFinished(tokenOwner) */\n      0xffffffffffffffffffffffffffffffffffffffff\n      and\n      0x96a25b4900cebf93ed691b1c763e37a5a01cd4b9b62e0df10688a47856def7a5\n      mload(0x40)\n      mload(0x40)\n      dup1\n      swap2\n      sub\n      swap1\n      log2\n        /* \"src/ERC20.sol\":2733:2737  true */\n      0x01\n        /* \"src/ERC20.sol\":2726:2737  return true */\n      swap2\n      pop\n        /* \"src/ERC20.sol\":2476:2745  function claimTokenOwnership() external ... */\n      pop\n      swap1\n      jump\t// out\n        /* \"src/ERC20.sol\":301:327  uint256 public totalSupply */\n    tag_36:\n      sload(0x03)\n      dup2\n      jump\t// out\n        /* \"src/ERC20.sol\":2064:2377  function transferTokenOwnership(address _nextTokenOwner) external ... */\n    tag_42:\n        /* \"src/ERC20.sol\":2220:2224  bool */\n      0x00\n        /* \"src/ERC20.sol\":2150:2160  tokenOwner */\n      0x05\n      0x00\n      swap1\n      sload\n      swap1\n      0x0100\n      exp\n      swap1\n      div\n      0xffffffffffffffffffffffffffffffffffffffff\n      and\n        /* \"src/ERC20.sol\":1323:1334  _authorized */\n      dup1\n        /* \"src/ERC20.sol\":1309:1334  msg.sender == _authorized */\n      0xffffffffffffffffffffffffffffffffffffffff\n      and\n        /* \"src/ERC20.sol\":1309:1319  msg.sender */\n      caller\n        /* \"src/ERC20.sol\":1309:1334  msg.sender == _authorized */\n      0xffffffffffffffffffffffffffffffffffffffff\n      and\n      eq\n        /* \"src/ERC20.sol\":1301:1363  require(msg.sender == _authorized, \"Caller is not authorized\") */\n      tag_102\n      jumpi\n      mload(0x40)\n      0x08c379a000000000000000000000000000000000000000000000000000000000\n      dup2\n      mstore\n      0x04\n      add\n      tag_103\n      swap1\n      tag_99\n      jump\t// in\n    tag_103:\n      mload(0x40)\n      dup1\n      swap2\n      sub\n      swap1\n      revert\n    tag_102:\n        /* \"src/ERC20.sol\":2186:2201  _nextTokenOwner */\n      dup3\n        /* \"src/ERC20.sol\":1458:1461  _to */\n      dup1\n        /* \"src/ERC20.sol\":1444:1461  address(0) != _to */\n      0xffffffffffffffffffffffffffffffffffffffff\n      and\n        /* \"src/ERC20.sol\":1452:1453  0 */\n      0x00\n        /* \"src/ERC20.sol\":1444:1461  address(0) != _to */\n      0xffffffffffffffffffffffffffffffffffffffff\n      and\n      sub\n        /* \"src/ERC20.sol\":1436:1509  require(address(0) != _to, \"Transfer to the zero address is not allowed\") */\n      tag_105\n      jumpi\n      mload(0x40)\n      0x08c379a000000000000000000000000000000000000000000000000000000000\n      dup2\n      mstore\n      0x04\n      add\n      tag_106\n      swap1\n      tag_107\n      jump\t// in\n    tag_106:\n      mload(0x40)\n      dup1\n      swap2\n      sub\n      swap1\n      revert\n    tag_105:\n        /* \"src/ERC20.sol\":2259:2274  _nextTokenOwner */\n      dup4\n        /* \"src/ERC20.sol\":2242:2256  nextTokenOwner */\n      0x06\n      0x00\n        /* \"src/ERC20.sol\":2242:2274  nextTokenOwner = _nextTokenOwner */\n      0x0100\n      exp\n      dup2\n      sload\n      dup2\n      0xffffffffffffffffffffffffffffffffffffffff\n      mul\n      not\n      and\n      swap1\n      dup4\n      0xffffffffffffffffffffffffffffffffffffffff\n      and\n      mul\n      or\n      swap1\n      sstore\n      pop\n        /* \"src/ERC20.sol\":2332:2346  nextTokenOwner */\n      0x06\n      0x00\n      swap1\n      sload\n      swap1\n      0x0100\n      exp\n      swap1\n      div\n      0xffffffffffffffffffffffffffffffffffffffff\n      and\n        /* \"src/ERC20.sol\":2290:2347  TokenOwnershipTransferStarted(tokenOwner, nextTokenOwner) */\n      0xffffffffffffffffffffffffffffffffffffffff\n      and\n        /* \"src/ERC20.sol\":2320:2330  tokenOwner */\n      0x05\n      0x00\n      swap1\n      sload\n      swap1\n      0x0100\n      exp\n      swap1\n      div\n      0xffffffffffffffffffffffffffffffffffffffff\n      and\n        /* \"src/ERC20.sol\":2290:2347  TokenOwnershipTransferStarted(tokenOwner, nextTokenOwner) */\n      0xffffffffffffffffffffffffffffffffffffffff\n      and\n      0x79d2e4ff11f0c38e318513361054112b3865ca4f53b3c97152af0640db000e25\n      mload(0x40)\n      mload(0x40)\n      dup1\n      swap2\n      sub\n      swap1\n      log3\n        /* \"src/ERC20.sol\":2365:2369  true */\n      0x01\n        /* \"src/ERC20.sol\":2358:2369  return true */\n      swap3\n      pop\n        /* \"src/ERC20.sol\":1374:1375  _ */\n      pop\n        /* \"src/ERC20.sol\":2064:2377  function transferTokenOwnership(address _nextTokenOwner) external ... */\n      pop\n      swap2\n      swap1\n      pop\n      jump\t// out\n        /* \"src/ERC20.sol\":3280:3724  function transferFrom(address sender, address recipient, uint256 amount) external returns(bool)... */\n    tag_47:\n        /* \"src/ERC20.sol\":3370:3374  bool */\n      0x00\n        /* \"src/ERC20.sol\":3406:3407  0 */\n      dup1\n        /* \"src/ERC20.sol\":3396:3402  amount */\n      dup3\n        /* \"src/ERC20.sol\":3396:3407  amount == 0 */\n      eq\n        /* \"src/ERC20.sol\":3396:3434  amount == 0 || recipient == address(0) */\n      dup1\n      tag_110\n      jumpi\n      pop\n        /* \"src/ERC20.sol\":3432:3433  0 */\n      0x00\n        /* \"src/ERC20.sol\":3411:3434  recipient == address(0) */\n      0xffffffffffffffffffffffffffffffffffffffff\n      and\n        /* \"src/ERC20.sol\":3411:3420  recipient */\n      dup4\n        /* \"src/ERC20.sol\":3411:3434  recipient == address(0) */\n      0xffffffffffffffffffffffffffffffffffffffff\n      and\n      eq\n        /* \"src/ERC20.sol\":3396:3434  amount == 0 || recipient == address(0) */\n    tag_110:\n        /* \"src/ERC20.sol\":3396:3464  amount == 0 || recipient == address(0) || balanceOf[sender] < amount */\n      dup1\n      tag_111\n      jumpi\n      pop\n        /* \"src/ERC20.sol\":3458:3464  amount */\n      dup2\n        /* \"src/ERC20.sol\":3438:3447  balanceOf */\n      0x07\n        /* \"src/ERC20.sol\":3438:3455  balanceOf[sender] */\n      0x00\n        /* \"src/ERC20.sol\":3448:3454  sender */\n      dup7\n        /* \"src/ERC20.sol\":3438:3455  balanceOf[sender] */\n      0xffffffffffffffffffffffffffffffffffffffff\n      and\n      0xffffffffffffffffffffffffffffffffffffffff\n      and\n      dup2\n      mstore\n      0x20\n      add\n      swap1\n      dup2\n      mstore\n      0x20\n      add\n      0x00\n      keccak256\n      sload\n        /* \"src/ERC20.sol\":3438:3464  balanceOf[sender] < amount */\n      lt\n        /* \"src/ERC20.sol\":3396:3464  amount == 0 || recipient == address(0) || balanceOf[sender] < amount */\n    tag_111:\n        /* \"src/ERC20.sol\":3396:3506  amount == 0 || recipient == address(0) || balanceOf[sender] < amount || allowance[sender][msg.sender] < amount */\n      dup1\n      tag_112\n      jumpi\n      pop\n        /* \"src/ERC20.sol\":3500:3506  amount */\n      dup2\n        /* \"src/ERC20.sol\":3468:3477  allowance */\n      0x08\n        /* \"src/ERC20.sol\":3468:3485  allowance[sender] */\n      0x00\n        /* \"src/ERC20.sol\":3478:3484  sender */\n      dup7\n        /* \"src/ERC20.sol\":3468:3485  allowance[sender] */\n      0xffffffffffffffffffffffffffffffffffffffff\n      and\n      0xffffffffffffffffffffffffffffffffffffffff\n      and\n      dup2\n      mstore\n      0x20\n      add\n      swap1\n      dup2\n      mstore\n      0x20\n      add\n      0x00\n      keccak256\n        /* \"src/ERC20.sol\":3468:3497  allowance[sender][msg.sender] */\n      0x00\n        /* \"src/ERC20.sol\":3486:3496  msg.sender */\n      caller\n        /* \"src/ERC20.sol\":3468:3497  allowance[sender][msg.sender] */\n      0xffffffffffffffffffffffffffffffffffffffff\n      and\n      0xffffffffffffffffffffffffffffffffffffffff\n      and\n      dup2\n      mstore\n      0x20\n      add\n      swap1\n      dup2\n      mstore\n      0x20\n      add\n      0x00\n      keccak256\n      sload\n        /* \"src/ERC20.sol\":3468:3506  allowance[sender][msg.sender] < amount */\n      lt\n        /* \"src/ERC20.sol\":3396:3506  amount == 0 || recipient == address(0) || balanceOf[sender] < amount || allowance[sender][msg.sender] < amount */\n    tag_112:\n        /* \"src/ERC20.sol\":3392:3520  if (amount == 0 || recipient == address(0) || balanceOf[sender] < amount || allowance[sender][msg.sender] < amount) return false */\n      iszero\n      tag_113\n      jumpi\n        /* \"src/ERC20.sol\":3515:3520  false */\n      0x00\n        /* \"src/ERC20.sol\":3508:3520  return false */\n      swap1\n      pop\n      jump(tag_109)\n        /* \"src/ERC20.sol\":3392:3520  if (amount == 0 || recipient == address(0) || balanceOf[sender] < amount || allowance[sender][msg.sender] < amount) return false */\n    tag_113:\n        /* \"src/ERC20.sol\":3562:3568  amount */\n      dup2\n        /* \"src/ERC20.sol\":3531:3540  allowance */\n      0x08\n        /* \"src/ERC20.sol\":3531:3548  allowance[sender] */\n      0x00\n        /* \"src/ERC20.sol\":3541:3547  sender */\n      dup7\n        /* \"src/ERC20.sol\":3531:3548  allowance[sender] */\n      0xffffffffffffffffffffffffffffffffffffffff\n      and\n      0xffffffffffffffffffffffffffffffffffffffff\n      and\n      dup2\n      mstore\n      0x20\n      add\n      swap1\n      dup2\n      mstore\n      0x20\n      add\n      0x00\n      keccak256\n        /* \"src/ERC20.sol\":3531:3560  allowance[sender][msg.sender] */\n      0x00\n        /* \"src/ERC20.sol\":3549:3559  msg.sender */\n      caller\n        /* \"src/ERC20.sol\":3531:3560  allowance[sender][msg.sender] */\n      0xffffffffffffffffffffffffffffffffffffffff\n      and\n      0xffffffffffffffffffffffffffffffffffffffff\n      and\n      dup2\n      mstore\n      0x20\n      add\n      swap1\n      dup2\n      mstore\n      0x20\n      add\n      0x00\n      keccak256\n      0x00\n        /* \"src/ERC20.sol\":3531:3568  allowance[sender][msg.sender]-=amount */\n      dup3\n      dup3\n      sload\n      tag_114\n      swap2\n      swap1\n      tag_115\n      jump\t// in\n    tag_114:\n      swap3\n      pop\n      pop\n      dup2\n      swap1\n      sstore\n      pop\n        /* \"src/ERC20.sol\":3598:3604  amount */\n      dup2\n        /* \"src/ERC20.sol\":3579:3588  balanceOf */\n      0x07\n        /* \"src/ERC20.sol\":3579:3596  balanceOf[sender] */\n      0x00\n        /* \"src/ERC20.sol\":3589:3595  sender */\n      dup7\n        /* \"src/ERC20.sol\":3579:3596  balanceOf[sender] */\n      0xffffffffffffffffffffffffffffffffffffffff\n      and\n      0xffffffffffffffffffffffffffffffffffffffff\n      and\n      dup2\n      mstore\n      0x20\n      add\n      swap1\n      dup2\n      mstore\n      0x20\n      add\n      0x00\n      keccak256\n      0x00\n        /* \"src/ERC20.sol\":3579:3604  balanceOf[sender]-=amount */\n      dup3\n      dup3\n      sload\n      tag_116\n      swap2\n      swap1\n      tag_115\n      jump\t// in\n    tag_116:\n      swap3\n      pop\n      pop\n      dup2\n      swap1\n      sstore\n      pop\n        /* \"src/ERC20.sol\":3637:3643  amount */\n      dup2\n        /* \"src/ERC20.sol\":3615:3624  balanceOf */\n      0x07\n        /* \"src/ERC20.sol\":3615:3635  balanceOf[recipient] */\n      0x00\n        /* \"src/ERC20.sol\":3625:3634  recipient */\n      dup6\n        /* \"src/ERC20.sol\":3615:3635  balanceOf[recipient] */\n      0xffffffffffffffffffffffffffffffffffffffff\n      and\n      0xffffffffffffffffffffffffffffffffffffffff\n      and\n      dup2\n      mstore\n      0x20\n      add\n      swap1\n      dup2\n      mstore\n      0x20\n      add\n      0x00\n      keccak256\n      0x00\n        /* \"src/ERC20.sol\":3615:3643  balanceOf[recipient]+=amount */\n      dup3\n      dup3\n      sload\n      tag_117\n      swap2\n      swap1\n      tag_118\n      jump\t// in\n    tag_117:\n      swap3\n      pop\n      pop\n      dup2\n      swap1\n      sstore\n      pop\n        /* \"src/ERC20.sol\":3676:3685  recipient */\n      dup3\n        /* \"src/ERC20.sol\":3659:3694  Transfer(sender, recipient, amount) */\n      0xffffffffffffffffffffffffffffffffffffffff\n      and\n        /* \"src/ERC20.sol\":3668:3674  sender */\n      dup5\n        /* \"src/ERC20.sol\":3659:3694  Transfer(sender, recipient, amount) */\n      0xffffffffffffffffffffffffffffffffffffffff\n      and\n      0xddf252ad1be2c89b69c2b068fc378daa952ba7f163c4a11628f55a4df523b3ef\n        /* \"src/ERC20.sol\":3687:3693  amount */\n      dup5\n        /* \"src/ERC20.sol\":3659:3694  Transfer(sender, recipient, amount) */\n      mload(0x40)\n      tag_119\n      swap2\n      swap1\n      tag_38\n      jump\t// in\n    tag_119:\n      mload(0x40)\n      dup1\n      swap2\n      sub\n      swap1\n      log3\n        /* \"src/ERC20.sol\":3712:3716  true */\n      0x01\n        /* \"src/ERC20.sol\":3705:3716  return true */\n      swap1\n      pop\n        /* \"src/ERC20.sol\":3280:3724  function transferFrom(address sender, address recipient, uint256 amount) external returns(bool)... */\n    tag_109:\n      swap4\n      swap3\n      pop\n      pop\n      pop\n      jump\t// out\n        /* \"src/ERC20.sol\":273:294  uint8 public decimals */\n    tag_50:\n      0x02\n      0x00\n      swap1\n      sload\n      swap1\n      0x0100\n      exp\n      swap1\n      div\n      0xff\n      and\n      dup2\n      jump\t// out\n        /* \"src/ERC20.sol\":4256:4490  function mint(address to, uint256 amount) external ... */\n    tag_55:\n        /* \"src/ERC20.sol\":4327:4337  tokenOwner */\n      0x05\n      0x00\n      swap1\n      sload\n      swap1\n      0x0100\n      exp\n      swap1\n      div\n      0xffffffffffffffffffffffffffffffffffffffff\n      and\n        /* \"src/ERC20.sol\":1323:1334  _authorized */\n      dup1\n        /* \"src/ERC20.sol\":1309:1334  msg.sender == _authorized */\n      0xffffffffffffffffffffffffffffffffffffffff\n      and\n        /* \"src/ERC20.sol\":1309:1319  msg.sender */\n      caller\n        /* \"src/ERC20.sol\":1309:1334  msg.sender == _authorized */\n      0xffffffffffffffffffffffffffffffffffffffff\n      and\n      eq\n        /* \"src/ERC20.sol\":1301:1363  require(msg.sender == _authorized, \"Caller is not authorized\") */\n      tag_121\n      jumpi\n      mload(0x40)\n      0x08c379a000000000000000000000000000000000000000000000000000000000\n      dup2\n      mstore\n      0x04\n      add\n      tag_122\n      swap1\n      tag_99\n      jump\t// in\n    tag_122:\n      mload(0x40)\n      dup1\n      swap2\n      sub\n      swap1\n      revert\n    tag_121:\n        /* \"src/ERC20.sol\":4362:4368  amount */\n      dup2\n        /* \"src/ERC20.sol\":1604:1605  0 */\n      0x00\n        /* \"src/ERC20.sol\":1593:1600  _amount */\n      dup2\n        /* \"src/ERC20.sol\":1593:1605  _amount != 0 */\n      sub\n        /* \"src/ERC20.sol\":1585:1642  require(_amount != 0, \"Amount must be greater than zero\") */\n      tag_124\n      jumpi\n      mload(0x40)\n      0x08c379a000000000000000000000000000000000000000000000000000000000\n      dup2\n      mstore\n      0x04\n      add\n      tag_125\n      swap1\n      tag_126\n      jump\t// in\n    tag_125:\n      mload(0x40)\n      dup1\n      swap2\n      sub\n      swap1\n      revert\n    tag_124:\n        /* \"src/ERC20.sol\":4394:4396  to */\n      dup4\n        /* \"src/ERC20.sol\":1458:1461  _to */\n      dup1\n        /* \"src/ERC20.sol\":1444:1461  address(0) != _to */\n      0xffffffffffffffffffffffffffffffffffffffff\n      and\n        /* \"src/ERC20.sol\":1452:1453  0 */\n      0x00\n        /* \"src/ERC20.sol\":1444:1461  address(0) != _to */\n      0xffffffffffffffffffffffffffffffffffffffff\n      and\n      sub\n        /* \"src/ERC20.sol\":1436:1509  require(address(0) != _to, \"Transfer to the zero address is not allowed\") */\n      tag_128\n      jumpi\n      mload(0x40)\n      0x08c379a000000000000000000000000000000000000000000000000000000000\n      dup2\n      mstore\n      0x04\n      add\n      tag_129\n      swap1\n      tag_107\n      jump\t// in\n    tag_129:\n      mload(0x40)\n      dup1\n      swap2\n      sub\n      swap1\n      revert\n    tag_128:\n        /* \"src/ERC20.sol\":4444:4453  maxSupply */\n      sload(0x04)\n        /* \"src/ERC20.sol\":4434:4440  amount */\n      dup5\n        /* \"src/ERC20.sol\":4422:4433  totalSupply */\n      sload(0x03)\n        /* \"src/ERC20.sol\":4422:4440  totalSupply+amount */\n      tag_131\n      swap2\n      swap1\n      tag_118\n      jump\t// in\n    tag_131:\n        /* \"src/ERC20.sol\":4422:4453  totalSupply+amount <= maxSupply */\n      gt\n      iszero\n        /* \"src/ERC20.sol\":4414:4454  require(totalSupply+amount <= maxSupply) */\n      tag_132\n      jumpi\n      0x00\n      dup1\n      revert\n    tag_132:\n        /* \"src/ERC20.sol\":4465:4482  _mint(to, amount) */\n      tag_133\n        /* \"src/ERC20.sol\":4471:4473  to */\n      dup6\n        /* \"src/ERC20.sol\":4475:4481  amount */\n      dup6\n        /* \"src/ERC20.sol\":4465:4470  _mint */\n      tag_134\n        /* \"src/ERC20.sol\":4465:4482  _mint(to, amount) */\n      jump\t// in\n    tag_133:\n        /* \"src/ERC20.sol\":1653:1654  _ */\n      pop\n        /* \"src/ERC20.sol\":1374:1375  _ */\n      pop\n        /* \"src/ERC20.sol\":4256:4490  function mint(address to, uint256 amount) external ... */\n      pop\n      pop\n      pop\n      jump\t// out\n        /* \"src/ERC20.sol\":397:426  address public nextTokenOwner */\n    tag_57:\n      0x06\n      0x00\n      swap1\n      sload\n      swap1\n      0x0100\n      exp\n      swap1\n      div\n      0xffffffffffffffffffffffffffffffffffffffff\n      and\n      dup2\n      jump\t// out\n        /* \"src/ERC20.sol\":433:477  mapping(address => uint256) public balanceOf */\n    tag_62:\n      mstore(0x20, 0x07)\n      dup1\n      0x00\n      mstore\n      keccak256(0x00, 0x40)\n      0x00\n      swap2\n      pop\n      swap1\n      pop\n      sload\n      dup2\n      jump\t// out\n        /* \"src/ERC20.sol\":246:266  string public symbol */\n    tag_65:\n      0x01\n      dup1\n      sload\n      tag_135\n      swap1\n      tag_86\n      jump\t// in\n    tag_135:\n      dup1\n      0x1f\n      add\n      0x20\n      dup1\n      swap2\n      div\n      mul\n      0x20\n      add\n      mload(0x40)\n      swap1\n      dup2\n      add\n      0x40\n      mstore\n      dup1\n      swap3\n      swap2\n      swap1\n      dup2\n      dup2\n      mstore\n      0x20\n      add\n      dup3\n      dup1\n      sload\n      tag_136\n      swap1\n      tag_86\n      jump\t// in\n    tag_136:\n      dup1\n      iszero\n      tag_137\n      jumpi\n      dup1\n      0x1f\n      lt\n      tag_138\n      jumpi\n      0x0100\n      dup1\n      dup4\n      sload\n      div\n      mul\n      dup4\n      mstore\n      swap2\n      0x20\n      add\n      swap2\n      jump(tag_137)\n    tag_138:\n      dup3\n      add\n      swap2\n      swap1\n      0x00\n      mstore\n      keccak256(0x00, 0x20)\n      swap1\n    tag_139:\n      dup2\n      sload\n      dup2\n      mstore\n      swap1\n      0x01\n      add\n      swap1\n      0x20\n      add\n      dup1\n      dup4\n      gt\n      tag_139\n      jumpi\n      dup3\n      swap1\n      sub\n      0x1f\n      and\n      dup3\n      add\n      swap2\n    tag_137:\n      pop\n      pop\n      pop\n      pop\n      pop\n      dup2\n      jump\t// out\n        /* \"src/ERC20.sol\":4599:4801  function burn(address from, uint256 amount) external ... */\n    tag_69:\n        /* \"src/ERC20.sol\":4672:4682  tokenOwner */\n      0x05\n      0x00\n      swap1\n      sload\n      swap1\n      0x0100\n      exp\n      swap1\n      div\n      0xffffffffffffffffffffffffffffffffffffffff\n      and\n        /* \"src/ERC20.sol\":1323:1334  _authorized */\n      dup1\n        /* \"src/ERC20.sol\":1309:1334  msg.sender == _authorized */\n      0xffffffffffffffffffffffffffffffffffffffff\n      and\n        /* \"src/ERC20.sol\":1309:1319  msg.sender */\n      caller\n        /* \"src/ERC20.sol\":1309:1334  msg.sender == _authorized */\n      0xffffffffffffffffffffffffffffffffffffffff\n      and\n      eq\n        /* \"src/ERC20.sol\":1301:1363  require(msg.sender == _authorized, \"Caller is not authorized\") */\n      tag_141\n      jumpi\n      mload(0x40)\n      0x08c379a000000000000000000000000000000000000000000000000000000000\n      dup2\n      mstore\n      0x04\n      add\n      tag_142\n      swap1\n      tag_99\n      jump\t// in\n    tag_142:\n      mload(0x40)\n      dup1\n      swap2\n      sub\n      swap1\n      revert\n    tag_141:\n        /* \"src/ERC20.sol\":4708:4714  amount */\n      dup2\n        /* \"src/ERC20.sol\":1604:1605  0 */\n      0x00\n        /* \"src/ERC20.sol\":1593:1600  _amount */\n      dup2\n        /* \"src/ERC20.sol\":1593:1605  _amount != 0 */\n      sub\n        /* \"src/ERC20.sol\":1585:1642  require(_amount != 0, \"Amount must be greater than zero\") */\n      tag_144\n      jumpi\n      mload(0x40)\n      0x08c379a000000000000000000000000000000000000000000000000000000000\n      dup2\n      mstore\n      0x04\n      add\n      tag_145\n      swap1\n      tag_126\n      jump\t// in\n    tag_145:\n      mload(0x40)\n      dup1\n      swap2\n      sub\n      swap1\n      revert\n    tag_144:\n        /* \"src/ERC20.sol\":4743:4747  from */\n      dup4\n        /* \"src/ERC20.sol\":4749:4755  amount */\n      dup4\n        /* \"src/ERC20.sol\":980:987  _amount */\n      dup1\n        /* \"src/ERC20.sol\":958:967  balanceOf */\n      0x07\n        /* \"src/ERC20.sol\":958:976  balanceOf[_sender] */\n      0x00\n        /* \"src/ERC20.sol\":968:975  _sender */\n      dup5\n        /* \"src/ERC20.sol\":958:976  balanceOf[_sender] */\n      0xffffffffffffffffffffffffffffffffffffffff\n      and\n      0xffffffffffffffffffffffffffffffffffffffff\n      and\n      dup2\n      mstore\n      0x20\n      add\n      swap1\n      dup2\n      mstore\n      0x20\n      add\n      0x00\n      keccak256\n      sload\n        /* \"src/ERC20.sol\":958:987  balanceOf[_sender] >= _amount */\n      lt\n      iszero\n        /* \"src/ERC20.sol\":950:1031  require(balanceOf[_sender] >= _amount, \"Caller does not have sufficient balance\") */\n      tag_147\n      jumpi\n      mload(0x40)\n      0x08c379a000000000000000000000000000000000000000000000000000000000\n      dup2\n      mstore\n      0x04\n      add\n      tag_148\n      swap1\n      tag_149\n      jump\t// in\n    tag_148:\n      mload(0x40)\n      dup1\n      swap2\n      sub\n      swap1\n      revert\n    tag_147:\n        /* \"src/ERC20.sol\":4774:4793  _burn(from, amount) */\n      tag_151\n        /* \"src/ERC20.sol\":4780:4784  from */\n      dup7\n        /* \"src/ERC20.sol\":4786:4792  amount */\n      dup7\n        /* \"src/ERC20.sol\":4774:4779  _burn */\n      tag_152\n        /* \"src/ERC20.sol\":4774:4793  _burn(from, amount) */\n      jump\t// in\n    tag_151:\n        /* \"src/ERC20.sol\":1653:1654  _ */\n      pop\n      pop\n        /* \"src/ERC20.sol\":1374:1375  _ */\n      pop\n        /* \"src/ERC20.sol\":4599:4801  function burn(address from, uint256 amount) external ... */\n      pop\n      pop\n      pop\n      jump\t// out\n        /* \"src/ERC20.sol\":365:390  address public tokenOwner */\n    tag_71:\n      0x05\n      0x00\n      swap1\n      sload\n      swap1\n      0x0100\n      exp\n      swap1\n      div\n      0xffffffffffffffffffffffffffffffffffffffff\n      and\n      dup2\n      jump\t// out\n        /* \"src/ERC20.sol\":2812:3159  function transfer(address recipient, uint256 amount) external returns(bool) ... */\n    tag_75:\n        /* \"src/ERC20.sol\":2882:2886  bool */\n      0x00\n        /* \"src/ERC20.sol\":2919:2920  0 */\n      dup1\n        /* \"src/ERC20.sol\":2909:2915  amount */\n      dup3\n        /* \"src/ERC20.sol\":2909:2920  amount == 0 */\n      eq\n        /* \"src/ERC20.sol\":2909:2947  amount == 0 || recipient == address(0) */\n      dup1\n      tag_154\n      jumpi\n      pop\n        /* \"src/ERC20.sol\":2945:2946  0 */\n      0x00\n        /* \"src/ERC20.sol\":2924:2947  recipient == address(0) */\n      0xffffffffffffffffffffffffffffffffffffffff\n      and\n        /* \"src/ERC20.sol\":2924:2933  recipient */\n      dup4\n        /* \"src/ERC20.sol\":2924:2947  recipient == address(0) */\n      0xffffffffffffffffffffffffffffffffffffffff\n      and\n      eq\n        /* \"src/ERC20.sol\":2909:2947  amount == 0 || recipient == address(0) */\n    tag_154:\n        /* \"src/ERC20.sol\":2909:2981  amount == 0 || recipient == address(0) || balanceOf[msg.sender] < amount */\n      dup1\n      tag_155\n      jumpi\n      pop\n        /* \"src/ERC20.sol\":2975:2981  amount */\n      dup2\n        /* \"src/ERC20.sol\":2951:2960  balanceOf */\n      0x07\n        /* \"src/ERC20.sol\":2951:2972  balanceOf[msg.sender] */\n      0x00\n        /* \"src/ERC20.sol\":2961:2971  msg.sender */\n      caller\n        /* \"src/ERC20.sol\":2951:2972  balanceOf[msg.sender] */\n      0xffffffffffffffffffffffffffffffffffffffff\n      and\n      0xffffffffffffffffffffffffffffffffffffffff\n      and\n      dup2\n      mstore\n      0x20\n      add\n      swap1\n      dup2\n      mstore\n      0x20\n      add\n      0x00\n      keccak256\n      sload\n        /* \"src/ERC20.sol\":2951:2981  balanceOf[msg.sender] < amount */\n      lt\n        /* \"src/ERC20.sol\":2909:2981  amount == 0 || recipient == address(0) || balanceOf[msg.sender] < amount */\n    tag_155:\n        /* \"src/ERC20.sol\":2905:2995  if (amount == 0 || recipient == address(0) || balanceOf[msg.sender] < amount) return false */\n      iszero\n      tag_156\n      jumpi\n        /* \"src/ERC20.sol\":2990:2995  false */\n      0x00\n        /* \"src/ERC20.sol\":2983:2995  return false */\n      swap1\n      pop\n      jump(tag_153)\n        /* \"src/ERC20.sol\":2905:2995  if (amount == 0 || recipient == address(0) || balanceOf[msg.sender] < amount) return false */\n    tag_156:\n        /* \"src/ERC20.sol\":3029:3035  amount */\n      dup2\n        /* \"src/ERC20.sol\":3006:3015  balanceOf */\n      0x07\n        /* \"src/ERC20.sol\":3006:3027  balanceOf[msg.sender] */\n      0x00\n        /* \"src/ERC20.sol\":3016:3026  msg.sender */\n      caller\n        /* \"src/ERC20.sol\":3006:3027  balanceOf[msg.sender] */\n      0xffffffffffffffffffffffffffffffffffffffff\n      and\n      0xffffffffffffffffffffffffffffffffffffffff\n      and\n      dup2\n      mstore\n      0x20\n      add\n      swap1\n      dup2\n      mstore\n      0x20\n      add\n      0x00\n      keccak256\n      0x00\n        /* \"src/ERC20.sol\":3006:3035  balanceOf[msg.sender]-=amount */\n      dup3\n      dup3\n      sload\n      tag_157\n      swap2\n      swap1\n      tag_115\n      jump\t// in\n    tag_157:\n      swap3\n      pop\n      pop\n      dup2\n      swap1\n      sstore\n      pop\n        /* \"src/ERC20.sol\":3068:3074  amount */\n      dup2\n        /* \"src/ERC20.sol\":3046:3055  balanceOf */\n      0x07\n        /* \"src/ERC20.sol\":3046:3066  balanceOf[recipient] */\n      0x00\n        /* \"src/ERC20.sol\":3056:3065  recipient */\n      dup6\n        /* \"src/ERC20.sol\":3046:3066  balanceOf[recipient] */\n      0xffffffffffffffffffffffffffffffffffffffff\n      and\n      0xffffffffffffffffffffffffffffffffffffffff\n      and\n      dup2\n      mstore\n      0x20\n      add\n      swap1\n      dup2\n      mstore\n      0x20\n      add\n      0x00\n      keccak256\n      0x00\n        /* \"src/ERC20.sol\":3046:3074  balanceOf[recipient]+=amount */\n      dup3\n      dup3\n      sload\n      tag_158\n      swap2\n      swap1\n      tag_118\n      jump\t// in\n    tag_158:\n      swap3\n      pop\n      pop\n      dup2\n      swap1\n      sstore\n      pop\n        /* \"src/ERC20.sol\":3111:3120  recipient */\n      dup3\n        /* \"src/ERC20.sol\":3090:3129  Transfer(msg.sender, recipient, amount) */\n      0xffffffffffffffffffffffffffffffffffffffff\n      and\n        /* \"src/ERC20.sol\":3099:3109  msg.sender */\n      caller\n        /* \"src/ERC20.sol\":3090:3129  Transfer(msg.sender, recipient, amount) */\n      0xffffffffffffffffffffffffffffffffffffffff\n      and\n      0xddf252ad1be2c89b69c2b068fc378daa952ba7f163c4a11628f55a4df523b3ef\n        /* \"src/ERC20.sol\":3122:3128  amount */\n      dup5\n        /* \"src/ERC20.sol\":3090:3129  Transfer(msg.sender, recipient, amount) */\n      mload(0x40)\n      tag_159\n      swap2\n      swap1\n      tag_38\n      jump\t// in\n    tag_159:\n      mload(0x40)\n      dup1\n      swap2\n      sub\n      swap1\n      log3\n        /* \"src/ERC20.sol\":3147:3151  true */\n      0x01\n        /* \"src/ERC20.sol\":3140:3151  return true */\n      swap1\n      pop\n        /* \"src/ERC20.sol\":2812:3159  function transfer(address recipient, uint256 amount) external returns(bool) ... */\n    tag_153:\n      swap3\n      swap2\n      pop\n      pop\n      jump\t// out\n        /* \"src/ERC20.sol\":334:358  uint256 public maxSupply */\n    tag_78:\n      sload(0x04)\n      dup2\n      jump\t// out\n        /* \"src/ERC20.sol\":484:548  mapping(address => mapping(address => uint256)) public allowance */\n    tag_83:\n      mstore(0x20, 0x08)\n      dup2\n      0x00\n      mstore\n      mstore(0x20, keccak256(0x00, 0x40))\n      dup1\n      0x00\n      mstore\n      keccak256(0x00, 0x40)\n      0x00\n      swap2\n      pop\n      swap2\n      pop\n      pop\n      sload\n      dup2\n      jump\t// out\n        /* \"src/ERC20.sol\":4889:5062  function _mint(address to, uint256 amount) internal{... */\n    tag_134:\n        /* \"src/ERC20.sol\":4968:4974  amount */\n      dup1\n        /* \"src/ERC20.sol\":4951:4960  balanceOf */\n      0x07\n        /* \"src/ERC20.sol\":4951:4964  balanceOf[to] */\n      0x00\n        /* \"src/ERC20.sol\":4961:4963  to */\n      dup5\n        /* \"src/ERC20.sol\":4951:4964  balanceOf[to] */\n      0xffffffffffffffffffffffffffffffffffffffff\n      and\n      0xffffffffffffffffffffffffffffffffffffffff\n      and\n      dup2\n      mstore\n      0x20\n      add\n      swap1\n      dup2\n      mstore\n      0x20\n      add\n      0x00\n      keccak256\n      0x00\n        /* \"src/ERC20.sol\":4951:4974  balanceOf[to] += amount */\n      dup3\n      dup3\n      sload\n      tag_161\n      swap2\n      swap1\n      tag_118\n      jump\t// in\n    tag_161:\n      swap3\n      pop\n      pop\n      dup2\n      swap1\n      sstore\n      pop\n        /* \"src/ERC20.sol\":5000:5006  amount */\n      dup1\n        /* \"src/ERC20.sol\":4985:4996  totalSupply */\n      0x03\n      0x00\n        /* \"src/ERC20.sol\":4985:5006  totalSupply += amount */\n      dup3\n      dup3\n      sload\n      tag_162\n      swap2\n      swap1\n      tag_118\n      jump\t// in\n    tag_162:\n      swap3\n      pop\n      pop\n      dup2\n      swap1\n      sstore\n      pop\n        /* \"src/ERC20.sol\":5043:5045  to */\n      dup2\n        /* \"src/ERC20.sol\":5022:5054  Transfer(address(0), to, amount) */\n      0xffffffffffffffffffffffffffffffffffffffff\n      and\n        /* \"src/ERC20.sol\":5039:5040  0 */\n      0x00\n        /* \"src/ERC20.sol\":5022:5054  Transfer(address(0), to, amount) */\n      0xffffffffffffffffffffffffffffffffffffffff\n      and\n      0xddf252ad1be2c89b69c2b068fc378daa952ba7f163c4a11628f55a4df523b3ef\n        /* \"src/ERC20.sol\":5047:5053  amount */\n      dup4\n        /* \"src/ERC20.sol\":5022:5054  Transfer(address(0), to, amount) */\n      mload(0x40)\n      tag_163\n      swap2\n      swap1\n      tag_38\n      jump\t// in\n    tag_163:\n      mload(0x40)\n      dup1\n      swap2\n      sub\n      swap1\n      log3\n        /* \"src/ERC20.sol\":4889:5062  function _mint(address to, uint256 amount) internal{... */\n      pop\n      pop\n      jump\t// out\n        /* \"src/ERC20.sol\":5156:5335  function _burn(address from, uint256 amount) internal{... */\n    tag_152:\n        /* \"src/ERC20.sol\":5239:5245  amount */\n      dup1\n        /* \"src/ERC20.sol\":5220:5229  balanceOf */\n      0x07\n        /* \"src/ERC20.sol\":5220:5235  balanceOf[from] */\n      0x00\n        /* \"src/ERC20.sol\":5230:5234  from */\n      dup5\n        /* \"src/ERC20.sol\":5220:5235  balanceOf[from] */\n      0xffffffffffffffffffffffffffffffffffffffff\n      and\n      0xffffffffffffffffffffffffffffffffffffffff\n      and\n      dup2\n      mstore\n      0x20\n      add\n      swap1\n      dup2\n      mstore\n      0x20\n      add\n      0x00\n      keccak256\n      0x00\n        /* \"src/ERC20.sol\":5220:5245  balanceOf[from] -= amount */\n      dup3\n      dup3\n      sload\n      tag_165\n      swap2\n      swap1\n      tag_115\n      jump\t// in\n    tag_165:\n      swap3\n      pop\n      pop\n      dup2\n      swap1\n      sstore\n      pop\n        /* \"src/ERC20.sol\":5271:5277  amount */\n      dup1\n        /* \"src/ERC20.sol\":5256:5267  totalSupply */\n      0x03\n      0x00\n        /* \"src/ERC20.sol\":5256:5277  totalSupply -= amount */\n      dup3\n      dup3\n      sload\n      tag_166\n      swap2\n      swap1\n      tag_115\n      jump\t// in\n    tag_166:\n      swap3\n      pop\n      pop\n      dup2\n      swap1\n      sstore\n      pop\n        /* \"src/ERC20.sol\":5316:5317  0 */\n      0x00\n        /* \"src/ERC20.sol\":5293:5327  Transfer(from, address(0), amount) */\n      0xffffffffffffffffffffffffffffffffffffffff\n      and\n        /* \"src/ERC20.sol\":5302:5306  from */\n      dup3\n        /* \"src/ERC20.sol\":5293:5327  Transfer(from, address(0), amount) */\n      0xffffffffffffffffffffffffffffffffffffffff\n      and\n      0xddf252ad1be2c89b69c2b068fc378daa952ba7f163c4a11628f55a4df523b3ef\n        /* \"src/ERC20.sol\":5320:5326  amount */\n      dup4\n        /* \"src/ERC20.sol\":5293:5327  Transfer(from, address(0), amount) */\n      mload(0x40)\n      tag_167\n      swap2\n      swap1\n      tag_38\n      jump\t// in\n    tag_167:\n      mload(0x40)\n      dup1\n      swap2\n      sub\n      swap1\n      log3\n        /* \"src/ERC20.sol\":5156:5335  function _burn(address from, uint256 amount) internal{... */\n      pop\n      pop\n      jump\t// out\n        /* \"#utility.yul\":7:106   */\n    tag_168:\n        /* \"#utility.yul\":59:65   */\n      0x00\n        /* \"#utility.yul\":93:98   */\n      dup2\n        /* \"#utility.yul\":87:99   */\n      mload\n        /* \"#utility.yul\":77:99   */\n      swap1\n      pop\n        /* \"#utility.yul\":7:106   */\n      swap2\n      swap1\n      pop\n      jump\t// out\n        /* \"#utility.yul\":112:281   */\n    tag_169:\n        /* \"#utility.yul\":196:207   */\n      0x00\n        /* \"#utility.yul\":230:236   */\n      dup3\n        /* \"#utility.yul\":225:228   */\n      dup3\n        /* \"#utility.yul\":218:237   */\n      mstore\n        /* \"#utility.yul\":270:274   */\n      0x20\n        /* \"#utility.yul\":265:268   */\n      dup3\n        /* \"#utility.yul\":261:275   */\n      add\n        /* \"#utility.yul\":246:275   */\n      swap1\n      pop\n        /* \"#utility.yul\":112:281   */\n      swap3\n      swap2\n      pop\n      pop\n      jump\t// out\n        /* \"#utility.yul\":287:426   */\n    tag_170:\n        /* \"#utility.yul\":376:382   */\n      dup3\n        /* \"#utility.yul\":371:374   */\n      dup2\n        /* \"#utility.yul\":366:369   */\n      dup4\n        /* \"#utility.yul\":360:383   */\n      mcopy\n        /* \"#utility.yul\":417:418   */\n      0x00\n        /* \"#utility.yul\":408:414   */\n      dup4\n        /* \"#utility.yul\":403:406   */\n      dup4\n        /* \"#utility.yul\":399:415   */\n      add\n        /* \"#utility.yul\":392:419   */\n      mstore\n        /* \"#utility.yul\":287:426   */\n      pop\n      pop\n      pop\n      jump\t// out\n        /* \"#utility.yul\":432:534   */\n    tag_171:\n        /* \"#utility.yul\":473:479   */\n      0x00\n        /* \"#utility.yul\":524:526   */\n      0x1f\n        /* \"#utility.yul\":520:527   */\n      not\n        /* \"#utility.yul\":515:517   */\n      0x1f\n        /* \"#utility.yul\":508:513   */\n      dup4\n        /* \"#utility.yul\":504:518   */\n      add\n        /* \"#utility.yul\":500:528   */\n      and\n        /* \"#utility.yul\":490:528   */\n      swap1\n      pop\n        /* \"#utility.yul\":432:534   */\n      swap2\n      swap1\n      pop\n      jump\t// out\n        /* \"#utility.yul\":540:917   */\n    tag_172:\n        /* \"#utility.yul\":628:631   */\n      0x00\n        /* \"#utility.yul\":656:695   */\n      tag_205\n        /* \"#utility.yul\":689:694   */\n      dup3\n        /* \"#utility.yul\":656:695   */\n      tag_168\n      jump\t// in\n    tag_205:\n        /* \"#utility.yul\":711:782   */\n      tag_206\n        /* \"#utility.yul\":775:781   */\n      dup2\n        /* \"#utility.yul\":770:773   */\n      dup6\n        /* \"#utility.yul\":711:782   */\n      tag_169\n      jump\t// in\n    tag_206:\n        /* \"#utility.yul\":704:782   */\n      swap4\n      pop\n        /* \"#utility.yul\":791:856   */\n      tag_207\n        /* \"#utility.yul\":849:855   */\n      dup2\n        /* \"#utility.yul\":844:847   */\n      dup6\n        /* \"#utility.yul\":837:841   */\n      0x20\n        /* \"#utility.yul\":830:835   */\n      dup7\n        /* \"#utility.yul\":826:842   */\n      add\n        /* \"#utility.yul\":791:856   */\n      tag_170\n      jump\t// in\n    tag_207:\n        /* \"#utility.yul\":881:910   */\n      tag_208\n        /* \"#utility.yul\":903:909   */\n      dup2\n        /* \"#utility.yul\":881:910   */\n      tag_171\n      jump\t// in\n    tag_208:\n        /* \"#utility.yul\":876:879   */\n      dup5\n        /* \"#utility.yul\":872:911   */\n      add\n        /* \"#utility.yul\":865:911   */\n      swap2\n      pop\n        /* \"#utility.yul\":632:917   */\n      pop\n        /* \"#utility.yul\":540:917   */\n      swap3\n      swap2\n      pop\n      pop\n      jump\t// out\n        /* \"#utility.yul\":923:1236   */\n    tag_25:\n        /* \"#utility.yul\":1036:1040   */\n      0x00\n        /* \"#utility.yul\":1074:1076   */\n      0x20\n        /* \"#utility.yul\":1063:1072   */\n      dup3\n        /* \"#utility.yul\":1059:1077   */\n      add\n        /* \"#utility.yul\":1051:1077   */\n      swap1\n      pop\n        /* \"#utility.yul\":1123:1132   */\n      dup2\n        /* \"#utility.yul\":1117:1121   */\n      dup2\n        /* \"#utility.yul\":1113:1133   */\n      sub\n        /* \"#utility.yul\":1109:1110   */\n      0x00\n        /* \"#utility.yul\":1098:1107   */\n      dup4\n        /* \"#utility.yul\":1094:1111   */\n      add\n        /* \"#utility.yul\":1087:1134   */\n      mstore\n        /* \"#utility.yul\":1151:1229   */\n      tag_210\n        /* \"#utility.yul\":1224:1228   */\n      dup2\n        /* \"#utility.yul\":1215:1221   */\n      dup5\n        /* \"#utility.yul\":1151:1229   */\n      tag_172\n      jump\t// in\n    tag_210:\n        /* \"#utility.yul\":1143:1229   */\n      swap1\n      pop\n        /* \"#utility.yul\":923:1236   */\n      swap3\n      swap2\n      pop\n      pop\n      jump\t// out\n        /* \"#utility.yul\":1323:1440   */\n    tag_174:\n        /* \"#utility.yul\":1432:1433   */\n      0x00\n        /* \"#utility.yul\":1429:1430   */\n      dup1\n        /* \"#utility.yul\":1422:1434   */\n      revert\n        /* \"#utility.yul\":1569:1695   */\n    tag_176:\n        /* \"#utility.yul\":1606:1613   */\n      0x00\n        /* \"#utility.yul\":1646:1688   */\n      0xffffffffffffffffffffffffffffffffffffffff\n        /* \"#utility.yul\":1639:1644   */\n      dup3\n        /* \"#utility.yul\":1635:1689   */\n      and\n        /* \"#utility.yul\":1624:1689   */\n      swap1\n      pop\n        /* \"#utility.yul\":1569:1695   */\n      swap2\n      swap1\n      pop\n      jump\t// out\n        /* \"#utility.yul\":1701:1797   */\n    tag_177:\n        /* \"#utility.yul\":1738:1745   */\n      0x00\n        /* \"#utility.yul\":1767:1791   */\n      tag_216\n        /* \"#utility.yul\":1785:1790   */\n      dup3\n        /* \"#utility.yul\":1767:1791   */\n      tag_176\n      jump\t// in\n    tag_216:\n        /* \"#utility.yul\":1756:1791   */\n      swap1\n      pop\n        /* \"#utility.yul\":1701:1797   */\n      swap2\n      swap1\n      pop\n      jump\t// out\n        /* \"#utility.yul\":1803:1925   */\n    tag_178:\n        /* \"#utility.yul\":1876:1900   */\n      tag_218\n        /* \"#utility.yul\":1894:1899   */\n      dup2\n        /* \"#utility.yul\":1876:1900   */\n      tag_177\n      jump\t// in\n    tag_218:\n        /* \"#utility.yul\":1869:1874   */\n      dup2\n        /* \"#utility.yul\":1866:1901   */\n      eq\n        /* \"#utility.yul\":1856:1919   */\n      tag_219\n      jumpi\n        /* \"#utility.yul\":1915:1916   */\n      0x00\n        /* \"#utility.yul\":1912:1913   */\n      dup1\n        /* \"#utility.yul\":1905:1917   */\n      revert\n        /* \"#utility.yul\":1856:1919   */\n    tag_219:\n        /* \"#utility.yul\":1803:1925   */\n      pop\n      jump\t// out\n        /* \"#utility.yul\":1931:2070   */\n    tag_179:\n        /* \"#utility.yul\":1977:1982   */\n      0x00\n        /* \"#utility.yul\":2015:2021   */\n      dup2\n        /* \"#utility.yul\":2002:2022   */\n      calldataload\n        /* \"#utility.yul\":1993:2022   */\n      swap1\n      pop\n        /* \"#utility.yul\":2031:2064   */\n      tag_221\n        /* \"#utility.yul\":2058:2063   */\n      dup2\n        /* \"#utility.yul\":2031:2064   */\n      tag_178\n      jump\t// in\n    tag_221:\n        /* \"#utility.yul\":1931:2070   */\n      swap3\n      swap2\n      pop\n      pop\n      jump\t// out\n        /* \"#utility.yul\":2076:2153   */\n    tag_180:\n        /* \"#utility.yul\":2113:2120   */\n      0x00\n        /* \"#utility.yul\":2142:2147   */\n      dup2\n        /* \"#utility.yul\":2131:2147   */\n      swap1\n      pop\n        /* \"#utility.yul\":2076:2153   */\n      swap2\n      swap1\n      pop\n      jump\t// out\n        /* \"#utility.yul\":2159:2281   */\n    tag_181:\n        /* \"#utility.yul\":2232:2256   */\n      tag_224\n        /* \"#utility.yul\":2250:2255   */\n      dup2\n        /* \"#utility.yul\":2232:2256   */\n      tag_180\n      jump\t// in\n    tag_224:\n        /* \"#utility.yul\":2225:2230   */\n      dup2\n        /* \"#utility.yul\":2222:2257   */\n      eq\n        /* \"#utility.yul\":2212:2275   */\n      tag_225\n      jumpi\n        /* \"#utility.yul\":2271:2272   */\n      0x00\n        /* \"#utility.yul\":2268:2269   */\n      dup1\n        /* \"#utility.yul\":2261:2273   */\n      revert\n        /* \"#utility.yul\":2212:2275   */\n    tag_225:\n        /* \"#utility.yul\":2159:2281   */\n      pop\n      jump\t// out\n        /* \"#utility.yul\":2287:2426   */\n    tag_182:\n        /* \"#utility.yul\":2333:2338   */\n      0x00\n        /* \"#utility.yul\":2371:2377   */\n      dup2\n        /* \"#utility.yul\":2358:2378   */\n      calldataload\n        /* \"#utility.yul\":2349:2378   */\n      swap1\n      pop\n        /* \"#utility.yul\":2387:2420   */\n      tag_227\n        /* \"#utility.yul\":2414:2419   */\n      dup2\n        /* \"#utility.yul\":2387:2420   */\n      tag_181\n      jump\t// in\n    tag_227:\n        /* \"#utility.yul\":2287:2426   */\n      swap3\n      swap2\n      pop\n      pop\n      jump\t// out\n        /* \"#utility.yul\":2432:2906   */\n    tag_28:\n        /* \"#utility.yul\":2500:2506   */\n      0x00\n        /* \"#utility.yul\":2508:2514   */\n      dup1\n        /* \"#utility.yul\":2557:2559   */\n      0x40\n        /* \"#utility.yul\":2545:2554   */\n      dup4\n        /* \"#utility.yul\":2536:2543   */\n      dup6\n        /* \"#utility.yul\":2532:2555   */\n      sub\n        /* \"#utility.yul\":2528:2560   */\n      slt\n        /* \"#utility.yul\":2525:2644   */\n      iszero\n      tag_229\n      jumpi\n        /* \"#utility.yul\":2563:2642   */\n      tag_230\n      tag_174\n      jump\t// in\n    tag_230:\n        /* \"#utility.yul\":2525:2644   */\n    tag_229:\n        /* \"#utility.yul\":2683:2684   */\n      0x00\n        /* \"#utility.yul\":2708:2761   */\n      tag_231\n        /* \"#utility.yul\":2753:2760   */\n      dup6\n        /* \"#utility.yul\":2744:2750   */\n      dup3\n        /* \"#utility.yul\":2733:2742   */\n      dup7\n        /* \"#utility.yul\":2729:2751   */\n      add\n        /* \"#utility.yul\":2708:2761   */\n      tag_179\n      jump\t// in\n    tag_231:\n        /* \"#utility.yul\":2698:2761   */\n      swap3\n      pop\n        /* \"#utility.yul\":2654:2771   */\n      pop\n        /* \"#utility.yul\":2810:2812   */\n      0x20\n        /* \"#utility.yul\":2836:2889   */\n      tag_232\n        /* \"#utility.yul\":2881:2888   */\n      dup6\n        /* \"#utility.yul\":2872:2878   */\n      dup3\n        /* \"#utility.yul\":2861:2870   */\n      dup7\n        /* \"#utility.yul\":2857:2879   */\n      add\n        /* \"#utility.yul\":2836:2889   */\n      tag_182\n      jump\t// in\n    tag_232:\n        /* \"#utility.yul\":2826:2889   */\n      swap2\n      pop\n        /* \"#utility.yul\":2781:2899   */\n      pop\n        /* \"#utility.yul\":2432:2906   */\n      swap3\n      pop\n      swap3\n      swap1\n      pop\n      jump\t// out\n        /* \"#utility.yul\":2912:3002   */\n    tag_183:\n        /* \"#utility.yul\":2946:2953   */\n      0x00\n        /* \"#utility.yul\":2989:2994   */\n      dup2\n        /* \"#utility.yul\":2982:2995   */\n      iszero\n        /* \"#utility.yul\":2975:2996   */\n      iszero\n        /* \"#utility.yul\":2964:2996   */\n      swap1\n      pop\n        /* \"#utility.yul\":2912:3002   */\n      swap2\n      swap1\n      pop\n      jump\t// out\n        /* \"#utility.yul\":3008:3117   */\n    tag_184:\n        /* \"#utility.yul\":3089:3110   */\n      tag_235\n        /* \"#utility.yul\":3104:3109   */\n      dup2\n        /* \"#utility.yul\":3089:3110   */\n      tag_183\n      jump\t// in\n    tag_235:\n        /* \"#utility.yul\":3084:3087   */\n      dup3\n        /* \"#utility.yul\":3077:3111   */\n      mstore\n        /* \"#utility.yul\":3008:3117   */\n      pop\n      pop\n      jump\t// out\n        /* \"#utility.yul\":3123:3333   */\n    tag_31:\n        /* \"#utility.yul\":3210:3214   */\n      0x00\n        /* \"#utility.yul\":3248:3250   */\n      0x20\n        /* \"#utility.yul\":3237:3246   */\n      dup3\n        /* \"#utility.yul\":3233:3251   */\n      add\n        /* \"#utility.yul\":3225:3251   */\n      swap1\n      pop\n        /* \"#utility.yul\":3261:3326   */\n      tag_237\n        /* \"#utility.yul\":3323:3324   */\n      0x00\n        /* \"#utility.yul\":3312:3321   */\n      dup4\n        /* \"#utility.yul\":3308:3325   */\n      add\n        /* \"#utility.yul\":3299:3305   */\n      dup5\n        /* \"#utility.yul\":3261:3326   */\n      tag_184\n      jump\t// in\n    tag_237:\n        /* \"#utility.yul\":3123:3333   */\n      swap3\n      swap2\n      pop\n      pop\n      jump\t// out\n        /* \"#utility.yul\":3339:3457   */\n    tag_185:\n        /* \"#utility.yul\":3426:3450   */\n      tag_239\n        /* \"#utility.yul\":3444:3449   */\n      dup2\n        /* \"#utility.yul\":3426:3450   */\n      tag_180\n      jump\t// in\n    tag_239:\n        /* \"#utility.yul\":3421:3424   */\n      dup3\n        /* \"#utility.yul\":3414:3451   */\n      mstore\n        /* \"#utility.yul\":3339:3457   */\n      pop\n      pop\n      jump\t// out\n        /* \"#utility.yul\":3463:3685   */\n    tag_38:\n        /* \"#utility.yul\":3556:3560   */\n      0x00\n        /* \"#utility.yul\":3594:3596   */\n      0x20\n        /* \"#utility.yul\":3583:3592   */\n      dup3\n        /* \"#utility.yul\":3579:3597   */\n      add\n        /* \"#utility.yul\":3571:3597   */\n      swap1\n      pop\n        /* \"#utility.yul\":3607:3678   */\n      tag_241\n        /* \"#utility.yul\":3675:3676   */\n      0x00\n        /* \"#utility.yul\":3664:3673   */\n      dup4\n        /* \"#utility.yul\":3660:3677   */\n      add\n        /* \"#utility.yul\":3651:3657   */\n      dup5\n        /* \"#utility.yul\":3607:3678   */\n      tag_185\n      jump\t// in\n    tag_241:\n        /* \"#utility.yul\":3463:3685   */\n      swap3\n      swap2\n      pop\n      pop\n      jump\t// out\n        /* \"#utility.yul\":3691:4020   */\n    tag_41:\n        /* \"#utility.yul\":3750:3756   */\n      0x00\n        /* \"#utility.yul\":3799:3801   */\n      0x20\n        /* \"#utility.yul\":3787:3796   */\n      dup3\n        /* \"#utility.yul\":3778:3785   */\n      dup5\n        /* \"#utility.yul\":3774:3797   */\n      sub\n        /* \"#utility.yul\":3770:3802   */\n      slt\n        /* \"#utility.yul\":3767:3886   */\n      iszero\n      tag_243\n      jumpi\n        /* \"#utility.yul\":3805:3884   */\n      tag_244\n      tag_174\n      jump\t// in\n    tag_244:\n        /* \"#utility.yul\":3767:3886   */\n    tag_243:\n        /* \"#utility.yul\":3925:3926   */\n      0x00\n        /* \"#utility.yul\":3950:4003   */\n      tag_245\n        /* \"#utility.yul\":3995:4002   */\n      dup5\n        /* \"#utility.yul\":3986:3992   */\n      dup3\n        /* \"#utility.yul\":3975:3984   */\n      dup6\n        /* \"#utility.yul\":3971:3993   */\n      add\n        /* \"#utility.yul\":3950:4003   */\n      tag_179\n      jump\t// in\n    tag_245:\n        /* \"#utility.yul\":3940:4003   */\n      swap2\n      pop\n        /* \"#utility.yul\":3896:4013   */\n      pop\n        /* \"#utility.yul\":3691:4020   */\n      swap3\n      swap2\n      pop\n      pop\n      jump\t// out\n        /* \"#utility.yul\":4026:4645   */\n    tag_46:\n        /* \"#utility.yul\":4103:4109   */\n      0x00\n        /* \"#utility.yul\":4111:4117   */\n      dup1\n        /* \"#utility.yul\":4119:4125   */\n      0x00\n        /* \"#utility.yul\":4168:4170   */\n      0x60\n        /* \"#utility.yul\":4156:4165   */\n      dup5\n        /* \"#utility.yul\":4147:4154   */\n      dup7\n        /* \"#utility.yul\":4143:4166   */\n      sub\n        /* \"#utility.yul\":4139:4171   */\n      slt\n        /* \"#utility.yul\":4136:4255   */\n      iszero\n      tag_247\n      jumpi\n        /* \"#utility.yul\":4174:4253   */\n      tag_248\n      tag_174\n      jump\t// in\n    tag_248:\n        /* \"#utility.yul\":4136:4255   */\n    tag_247:\n        /* \"#utility.yul\":4294:4295   */\n      0x00\n        /* \"#utility.yul\":4319:4372   */\n      tag_249\n        /* \"#utility.yul\":4364:4371   */\n      dup7\n        /* \"#utility.yul\":4355:4361   */\n      dup3\n        /* \"#utility.yul\":4344:4353   */\n      dup8\n        /* \"#utility.yul\":4340:4362   */\n      add\n        /* \"#utility.yul\":4319:4372   */\n      tag_179\n      jump\t// in\n    tag_249:\n        /* \"#utility.yul\":4309:4372   */\n      swap4\n      pop\n        /* \"#utility.yul\":4265:4382   */\n      pop\n        /* \"#utility.yul\":4421:4423   */\n      0x20\n        /* \"#utility.yul\":4447:4500   */\n      tag_250\n        /* \"#utility.yul\":4492:4499   */\n      dup7\n        /* \"#utility.yul\":4483:4489   */\n      dup3\n        /* \"#utility.yul\":4472:4481   */\n      dup8\n        /* \"#utility.yul\":4468:4490   */\n      add\n        /* \"#utility.yul\":4447:4500   */\n      tag_179\n      jump\t// in\n    tag_250:\n        /* \"#utility.yul\":4437:4500   */\n      swap3\n      pop\n        /* \"#utility.yul\":4392:4510   */\n      pop\n        /* \"#utility.yul\":4549:4551   */\n      0x40\n        /* \"#utility.yul\":4575:4628   */\n      tag_251\n        /* \"#utility.yul\":4620:4627   */\n      dup7\n        /* \"#utility.yul\":4611:4617   */\n      dup3\n        /* \"#utility.yul\":4600:4609   */\n      dup8\n        /* \"#utility.yul\":4596:4618   */\n      add\n        /* \"#utility.yul\":4575:4628   */\n      tag_182\n      jump\t// in\n    tag_251:\n        /* \"#utility.yul\":4565:4628   */\n      swap2\n      pop\n        /* \"#utility.yul\":4520:4638   */\n      pop\n        /* \"#utility.yul\":4026:4645   */\n      swap3\n      pop\n      swap3\n      pop\n      swap3\n      jump\t// out\n        /* \"#utility.yul\":4651:4737   */\n    tag_186:\n        /* \"#utility.yul\":4686:4693   */\n      0x00\n        /* \"#utility.yul\":4726:4730   */\n      0xff\n        /* \"#utility.yul\":4719:4724   */\n      dup3\n        /* \"#utility.yul\":4715:4731   */\n      and\n        /* \"#utility.yul\":4704:4731   */\n      swap1\n      pop\n        /* \"#utility.yul\":4651:4737   */\n      swap2\n      swap1\n      pop\n      jump\t// out\n        /* \"#utility.yul\":4743:4855   */\n    tag_187:\n        /* \"#utility.yul\":4826:4848   */\n      tag_254\n        /* \"#utility.yul\":4842:4847   */\n      dup2\n        /* \"#utility.yul\":4826:4848   */\n      tag_186\n      jump\t// in\n    tag_254:\n        /* \"#utility.yul\":4821:4824   */\n      dup3\n        /* \"#utility.yul\":4814:4849   */\n      mstore\n        /* \"#utility.yul\":4743:4855   */\n      pop\n      pop\n      jump\t// out\n        /* \"#utility.yul\":4861:5075   */\n    tag_52:\n        /* \"#utility.yul\":4950:4954   */\n      0x00\n        /* \"#utility.yul\":4988:4990   */\n      0x20\n        /* \"#utility.yul\":4977:4986   */\n      dup3\n        /* \"#utility.yul\":4973:4991   */\n      add\n        /* \"#utility.yul\":4965:4991   */\n      swap1\n      pop\n        /* \"#utility.yul\":5001:5068   */\n      tag_256\n        /* \"#utility.yul\":5065:5066   */\n      0x00\n        /* \"#utility.yul\":5054:5063   */\n      dup4\n        /* \"#utility.yul\":5050:5067   */\n      add\n        /* \"#utility.yul\":5041:5047   */\n      dup5\n        /* \"#utility.yul\":5001:5068   */\n      tag_187\n      jump\t// in\n    tag_256:\n        /* \"#utility.yul\":4861:5075   */\n      swap3\n      swap2\n      pop\n      pop\n      jump\t// out\n        /* \"#utility.yul\":5081:5199   */\n    tag_188:\n        /* \"#utility.yul\":5168:5192   */\n      tag_258\n        /* \"#utility.yul\":5186:5191   */\n      dup2\n        /* \"#utility.yul\":5168:5192   */\n      tag_177\n      jump\t// in\n    tag_258:\n        /* \"#utility.yul\":5163:5166   */\n      dup3\n        /* \"#utility.yul\":5156:5193   */\n      mstore\n        /* \"#utility.yul\":5081:5199   */\n      pop\n      pop\n      jump\t// out\n        /* \"#utility.yul\":5205:5427   */\n    tag_59:\n        /* \"#utility.yul\":5298:5302   */\n      0x00\n        /* \"#utility.yul\":5336:5338   */\n      0x20\n        /* \"#utility.yul\":5325:5334   */\n      dup3\n        /* \"#utility.yul\":5321:5339   */\n      add\n        /* \"#utility.yul\":5313:5339   */\n      swap1\n      pop\n        /* \"#utility.yul\":5349:5420   */\n      tag_260\n        /* \"#utility.yul\":5417:5418   */\n      0x00\n        /* \"#utility.yul\":5406:5415   */\n      dup4\n        /* \"#utility.yul\":5402:5419   */\n      add\n        /* \"#utility.yul\":5393:5399   */\n      dup5\n        /* \"#utility.yul\":5349:5420   */\n      tag_188\n      jump\t// in\n    tag_260:\n        /* \"#utility.yul\":5205:5427   */\n      swap3\n      swap2\n      pop\n      pop\n      jump\t// out\n        /* \"#utility.yul\":5433:5907   */\n    tag_82:\n        /* \"#utility.yul\":5501:5507   */\n      0x00\n        /* \"#utility.yul\":5509:5515   */\n      dup1\n        /* \"#utility.yul\":5558:5560   */\n      0x40\n        /* \"#utility.yul\":5546:5555   */\n      dup4\n        /* \"#utility.yul\":5537:5544   */\n      dup6\n        /* \"#utility.yul\":5533:5556   */\n      sub\n        /* \"#utility.yul\":5529:5561   */\n      slt\n        /* \"#utility.yul\":5526:5645   */\n      iszero\n      tag_262\n      jumpi\n        /* \"#utility.yul\":5564:5643   */\n      tag_263\n      tag_174\n      jump\t// in\n    tag_263:\n        /* \"#utility.yul\":5526:5645   */\n    tag_262:\n        /* \"#utility.yul\":5684:5685   */\n      0x00\n        /* \"#utility.yul\":5709:5762   */\n      tag_264\n        /* \"#utility.yul\":5754:5761   */\n      dup6\n        /* \"#utility.yul\":5745:5751   */\n      dup3\n        /* \"#utility.yul\":5734:5743   */\n      dup7\n        /* \"#utility.yul\":5730:5752   */\n      add\n        /* \"#utility.yul\":5709:5762   */\n      tag_179\n      jump\t// in\n    tag_264:\n        /* \"#utility.yul\":5699:5762   */\n      swap3\n      pop\n        /* \"#utility.yul\":5655:5772   */\n      pop\n        /* \"#utility.yul\":5811:5813   */\n      0x20\n        /* \"#utility.yul\":5837:5890   */\n      tag_265\n        /* \"#utility.yul\":5882:5889   */\n      dup6\n        /* \"#utility.yul\":5873:5879   */\n      dup3\n        /* \"#utility.yul\":5862:5871   */\n      dup7\n        /* \"#utility.yul\":5858:5880   */\n      add\n        /* \"#utility.yul\":5837:5890   */\n      tag_179\n      jump\t// in\n    tag_265:\n        /* \"#utility.yul\":5827:5890   */\n      swap2\n      pop\n        /* \"#utility.yul\":5782:5900   */\n      pop\n        /* \"#utility.yul\":5433:5907   */\n      swap3\n      pop\n      swap3\n      swap1\n      pop\n      jump\t// out\n        /* \"#utility.yul\":5913:6093   */\n    tag_189:\n        /* \"#utility.yul\":5961:6038   */\n      0x4e487b7100000000000000000000000000000000000000000000000000000000\n        /* \"#utility.yul\":5958:5959   */\n      0x00\n        /* \"#utility.yul\":5951:6039   */\n      mstore\n        /* \"#utility.yul\":6058:6062   */\n      0x22\n        /* \"#utility.yul\":6055:6056   */\n      0x04\n        /* \"#utility.yul\":6048:6063   */\n      mstore\n        /* \"#utility.yul\":6082:6086   */\n      0x24\n        /* \"#utility.yul\":6079:6080   */\n      0x00\n        /* \"#utility.yul\":6072:6087   */\n      revert\n        /* \"#utility.yul\":6099:6419   */\n    tag_86:\n        /* \"#utility.yul\":6143:6149   */\n      0x00\n        /* \"#utility.yul\":6180:6181   */\n      0x02\n        /* \"#utility.yul\":6174:6178   */\n      dup3\n        /* \"#utility.yul\":6170:6182   */\n      div\n        /* \"#utility.yul\":6160:6182   */\n      swap1\n      pop\n        /* \"#utility.yul\":6227:6228   */\n      0x01\n        /* \"#utility.yul\":6221:6225   */\n      dup3\n        /* \"#utility.yul\":6217:6229   */\n      and\n        /* \"#utility.yul\":6248:6266   */\n      dup1\n        /* \"#utility.yul\":6238:6319   */\n      tag_268\n      jumpi\n        /* \"#utility.yul\":6304:6308   */\n      0x7f\n        /* \"#utility.yul\":6296:6302   */\n      dup3\n        /* \"#utility.yul\":6292:6309   */\n      and\n        /* \"#utility.yul\":6282:6309   */\n      swap2\n      pop\n        /* \"#utility.yul\":6238:6319   */\n    tag_268:\n        /* \"#utility.yul\":6366:6368   */\n      0x20\n        /* \"#utility.yul\":6358:6364   */\n      dup3\n        /* \"#utility.yul\":6355:6369   */\n      lt\n        /* \"#utility.yul\":6335:6353   */\n      dup2\n        /* \"#utility.yul\":6332:6370   */\n      sub\n        /* \"#utility.yul\":6329:6413   */\n      tag_269\n      jumpi\n        /* \"#utility.yul\":6385:6403   */\n      tag_270\n      tag_189\n      jump\t// in\n    tag_270:\n        /* \"#utility.yul\":6329:6413   */\n    tag_269:\n        /* \"#utility.yul\":6150:6419   */\n      pop\n        /* \"#utility.yul\":6099:6419   */\n      swap2\n      swap1\n      pop\n      jump\t// out\n        /* \"#utility.yul\":6425:6599   */\n    tag_190:\n        /* \"#utility.yul\":6565:6591   */\n      0x43616c6c6572206973206e6f7420617574686f72697a65640000000000000000\n        /* \"#utility.yul\":6561:6562   */\n      0x00\n        /* \"#utility.yul\":6553:6559   */\n      dup3\n        /* \"#utility.yul\":6549:6563   */\n      add\n        /* \"#utility.yul\":6542:6592   */\n      mstore\n        /* \"#utility.yul\":6425:6599   */\n      pop\n      jump\t// out\n        /* \"#utility.yul\":6605:6971   */\n    tag_191:\n        /* \"#utility.yul\":6747:6750   */\n      0x00\n        /* \"#utility.yul\":6768:6835   */\n      tag_273\n        /* \"#utility.yul\":6832:6834   */\n      0x18\n        /* \"#utility.yul\":6827:6830   */\n      dup4\n        /* \"#utility.yul\":6768:6835   */\n      tag_169\n      jump\t// in\n    tag_273:\n        /* \"#utility.yul\":6761:6835   */\n      swap2\n      pop\n        /* \"#utility.yul\":6844:6937   */\n      tag_274\n        /* \"#utility.yul\":6933:6936   */\n      dup3\n        /* \"#utility.yul\":6844:6937   */\n      tag_190\n      jump\t// in\n    tag_274:\n        /* \"#utility.yul\":6962:6964   */\n      0x20\n        /* \"#utility.yul\":6957:6960   */\n      dup3\n        /* \"#utility.yul\":6953:6965   */\n      add\n        /* \"#utility.yul\":6946:6965   */\n      swap1\n      pop\n        /* \"#utility.yul\":6605:6971   */\n      swap2\n      swap1\n      pop\n      jump\t// out\n        /* \"#utility.yul\":6977:7396   */\n    tag_99:\n        /* \"#utility.yul\":7143:7147   */\n      0x00\n        /* \"#utility.yul\":7181:7183   */\n      0x20\n        /* \"#utility.yul\":7170:7179   */\n      dup3\n        /* \"#utility.yul\":7166:7184   */\n      add\n        /* \"#utility.yul\":7158:7184   */\n      swap1\n      pop\n        /* \"#utility.yul\":7230:7239   */\n      dup2\n        /* \"#utility.yul\":7224:7228   */\n      dup2\n        /* \"#utility.yul\":7220:7240   */\n      sub\n        /* \"#utility.yul\":7216:7217   */\n      0x00\n        /* \"#utility.yul\":7205:7214   */\n      dup4\n        /* \"#utility.yul\":7201:7218   */\n      add\n        /* \"#utility.yul\":7194:7241   */\n      mstore\n        /* \"#utility.yul\":7258:7389   */\n      tag_276\n        /* \"#utility.yul\":7384:7388   */\n      dup2\n        /* \"#utility.yul\":7258:7389   */\n      tag_191\n      jump\t// in\n    tag_276:\n        /* \"#utility.yul\":7250:7389   */\n      swap1\n      pop\n        /* \"#utility.yul\":6977:7396   */\n      swap2\n      swap1\n      pop\n      jump\t// out\n        /* \"#utility.yul\":7402:7632   */\n    tag_192:\n        /* \"#utility.yul\":7542:7576   */\n      0x5472616e7366657220746f20746865207a65726f206164647265737320697320\n        /* \"#utility.yul\":7538:7539   */\n      0x00\n        /* \"#utility.yul\":7530:7536   */\n      dup3\n        /* \"#utility.yul\":7526:7540   */\n      add\n        /* \"#utility.yul\":7519:7577   */\n      mstore\n        /* \"#utility.yul\":7611:7624   */\n      0x6e6f7420616c6c6f776564000000000000000000000000000000000000000000\n        /* \"#utility.yul\":7606:7608   */\n      0x20\n        /* \"#utility.yul\":7598:7604   */\n      dup3\n        /* \"#utility.yul\":7594:7609   */\n      add\n        /* \"#utility.yul\":7587:7625   */\n      mstore\n        /* \"#utility.yul\":7402:7632   */\n      pop\n      jump\t// out\n        /* \"#utility.yul\":7638:8004   */\n    tag_193:\n        /* \"#utility.yul\":7780:7783   */\n      0x00\n        /* \"#utility.yul\":7801:7868   */\n      tag_279\n        /* \"#utility.yul\":7865:7867   */\n      0x2b\n        /* \"#utility.yul\":7860:7863   */\n      dup4\n        /* \"#utility.yul\":7801:7868   */\n      tag_169\n      jump\t// in\n    tag_279:\n        /* \"#utility.yul\":7794:7868   */\n      swap2\n      pop\n        /* \"#utility.yul\":7877:7970   */\n      tag_280\n        /* \"#utility.yul\":7966:7969   */\n      dup3\n        /* \"#utility.yul\":7877:7970   */\n      tag_192\n      jump\t// in\n    tag_280:\n        /* \"#utility.yul\":7995:7997   */\n      0x40\n        /* \"#utility.yul\":7990:7993   */\n      dup3\n        /* \"#utility.yul\":7986:7998   */\n      add\n        /* \"#utility.yul\":7979:7998   */\n      swap1\n      pop\n        /* \"#utility.yul\":7638:8004   */\n      swap2\n      swap1\n      pop\n      jump\t// out\n        /* \"#utility.yul\":8010:8429   */\n    tag_107:\n        /* \"#utility.yul\":8176:8180   */\n      0x00\n        /* \"#utility.yul\":8214:8216   */\n      0x20\n        /* \"#utility.yul\":8203:8212   */\n      dup3\n        /* \"#utility.yul\":8199:8217   */\n      add\n        /* \"#utility.yul\":8191:8217   */\n      swap1\n      pop\n        /* \"#utility.yul\":8263:8272   */\n      dup2\n        /* \"#utility.yul\":8257:8261   */\n      dup2\n        /* \"#utility.yul\":8253:8273   */\n      sub\n        /* \"#utility.yul\":8249:8250   */\n      0x00\n        /* \"#utility.yul\":8238:8247   */\n      dup4\n        /* \"#utility.yul\":8234:8251   */\n      add\n        /* \"#utility.yul\":8227:8274   */\n      mstore\n        /* \"#utility.yul\":8291:8422   */\n      tag_282\n        /* \"#utility.yul\":8417:8421   */\n      dup2\n        /* \"#utility.yul\":8291:8422   */\n      tag_193\n      jump\t// in\n    tag_282:\n        /* \"#utility.yul\":8283:8422   */\n      swap1\n      pop\n        /* \"#utility.yul\":8010:8429   */\n      swap2\n      swap1\n      pop\n      jump\t// out\n        /* \"#utility.yul\":8435:8615   */\n    tag_194:\n        /* \"#utility.yul\":8483:8560   */\n      0x4e487b7100000000000000000000000000000000000000000000000000000000\n        /* \"#utility.yul\":8480:8481   */\n      0x00\n        /* \"#utility.yul\":8473:8561   */\n      mstore\n        /* \"#utility.yul\":8580:8584   */\n      0x11\n        /* \"#utility.yul\":8577:8578   */\n      0x04\n        /* \"#utility.yul\":8570:8585   */\n      mstore\n        /* \"#utility.yul\":8604:8608   */\n      0x24\n        /* \"#utility.yul\":8601:8602   */\n      0x00\n        /* \"#utility.yul\":8594:8609   */\n      revert\n        /* \"#utility.yul\":8621:8815   */\n    tag_115:\n        /* \"#utility.yul\":8661:8665   */\n      0x00\n        /* \"#utility.yul\":8681:8701   */\n      tag_285\n        /* \"#utility.yul\":8699:8700   */\n      dup3\n        /* \"#utility.yul\":8681:8701   */\n      tag_180\n      jump\t// in\n    tag_285:\n        /* \"#utility.yul\":8676:8701   */\n      swap2\n      pop\n        /* \"#utility.yul\":8715:8735   */\n      tag_286\n        /* \"#utility.yul\":8733:8734   */\n      dup4\n        /* \"#utility.yul\":8715:8735   */\n      tag_180\n      jump\t// in\n    tag_286:\n        /* \"#utility.yul\":8710:8735   */\n      swap3\n      pop\n        /* \"#utility.yul\":8759:8760   */\n      dup3\n        /* \"#utility.yul\":8756:8757   */\n      dup3\n        /* \"#utility.yul\":8752:8761   */\n      sub\n        /* \"#utility.yul\":8744:8761   */\n      swap1\n      pop\n        /* \"#utility.yul\":8783:8784   */\n      dup2\n        /* \"#utility.yul\":8777:8781   */\n      dup2\n        /* \"#utility.yul\":8774:8785   */\n      gt\n        /* \"#utility.yul\":8771:8808   */\n      iszero\n      tag_287\n      jumpi\n        /* \"#utility.yul\":8788:8806   */\n      tag_288\n      tag_194\n      jump\t// in\n    tag_288:\n        /* \"#utility.yul\":8771:8808   */\n    tag_287:\n        /* \"#utility.yul\":8621:8815   */\n      swap3\n      swap2\n      pop\n      pop\n      jump\t// out\n        /* \"#utility.yul\":8821:9012   */\n    tag_118:\n        /* \"#utility.yul\":8861:8864   */\n      0x00\n        /* \"#utility.yul\":8880:8900   */\n      tag_290\n        /* \"#utility.yul\":8898:8899   */\n      dup3\n        /* \"#utility.yul\":8880:8900   */\n      tag_180\n      jump\t// in\n    tag_290:\n        /* \"#utility.yul\":8875:8900   */\n      swap2\n      pop\n        /* \"#utility.yul\":8914:8934   */\n      tag_291\n        /* \"#utility.yul\":8932:8933   */\n      dup4\n        /* \"#utility.yul\":8914:8934   */\n      tag_180\n      jump\t// in\n    tag_291:\n        /* \"#utility.yul\":8909:8934   */\n      swap3\n      pop\n        /* \"#utility.yul\":8957:8958   */\n      dup3\n        /* \"#utility.yul\":8954:8955   */\n      dup3\n        /* \"#utility.yul\":8950:8959   */\n      add\n        /* \"#utility.yul\":8943:8959   */\n      swap1\n      pop\n        /* \"#utility.yul\":8978:8981   */\n      dup1\n        /* \"#utility.yul\":8975:8976   */\n      dup3\n        /* \"#utility.yul\":8972:8982   */\n      gt\n        /* \"#utility.yul\":8969:9005   */\n      iszero\n      tag_292\n      jumpi\n        /* \"#utility.yul\":8985:9003   */\n      tag_293\n      tag_194\n      jump\t// in\n    tag_293:\n        /* \"#utility.yul\":8969:9005   */\n    tag_292:\n        /* \"#utility.yul\":8821:9012   */\n      swap3\n      swap2\n      pop\n      pop\n      jump\t// out\n        /* \"#utility.yul\":9018:9200   */\n    tag_195:\n        /* \"#utility.yul\":9158:9192   */\n      0x416d6f756e74206d7573742062652067726561746572207468616e207a65726f\n        /* \"#utility.yul\":9154:9155   */\n      0x00\n        /* \"#utility.yul\":9146:9152   */\n      dup3\n        /* \"#utility.yul\":9142:9156   */\n      add\n        /* \"#utility.yul\":9135:9193   */\n      mstore\n        /* \"#utility.yul\":9018:9200   */\n      pop\n      jump\t// out\n        /* \"#utility.yul\":9206:9572   */\n    tag_196:\n        /* \"#utility.yul\":9348:9351   */\n      0x00\n        /* \"#utility.yul\":9369:9436   */\n      tag_296\n        /* \"#utility.yul\":9433:9435   */\n      0x20\n        /* \"#utility.yul\":9428:9431   */\n      dup4\n        /* \"#utility.yul\":9369:9436   */\n      tag_169\n      jump\t// in\n    tag_296:\n        /* \"#utility.yul\":9362:9436   */\n      swap2\n      pop\n        /* \"#utility.yul\":9445:9538   */\n      tag_297\n        /* \"#utility.yul\":9534:9537   */\n      dup3\n        /* \"#utility.yul\":9445:9538   */\n      tag_195\n      jump\t// in\n    tag_297:\n        /* \"#utility.yul\":9563:9565   */\n      0x20\n        /* \"#utility.yul\":9558:9561   */\n      dup3\n        /* \"#utility.yul\":9554:9566   */\n      add\n        /* \"#utility.yul\":9547:9566   */\n      swap1\n      pop\n        /* \"#utility.yul\":9206:9572   */\n      swap2\n      swap1\n      pop\n      jump\t// out\n        /* \"#utility.yul\":9578:9997   */\n    tag_126:\n        /* \"#utility.yul\":9744:9748   */\n      0x00\n        /* \"#utility.yul\":9782:9784   */\n      0x20\n        /* \"#utility.yul\":9771:9780   */\n      dup3\n        /* \"#utility.yul\":9767:9785   */\n      add\n        /* \"#utility.yul\":9759:9785   */\n      swap1\n      pop\n        /* \"#utility.yul\":9831:9840   */\n      dup2\n        /* \"#utility.yul\":9825:9829   */\n      dup2\n        /* \"#utility.yul\":9821:9841   */\n      sub\n        /* \"#utility.yul\":9817:9818   */\n      0x00\n        /* \"#utility.yul\":9806:9815   */\n      dup4\n        /* \"#utility.yul\":9802:9819   */\n      add\n        /* \"#utility.yul\":9795:9842   */\n      mstore\n        /* \"#utility.yul\":9859:9990   */\n      tag_299\n        /* \"#utility.yul\":9985:9989   */\n      dup2\n        /* \"#utility.yul\":9859:9990   */\n      tag_196\n      jump\t// in\n    tag_299:\n        /* \"#utility.yul\":9851:9990   */\n      swap1\n      pop\n        /* \"#utility.yul\":9578:9997   */\n      swap2\n      swap1\n      pop\n      jump\t// out\n        /* \"#utility.yul\":10003:10229   */\n    tag_197:\n        /* \"#utility.yul\":10143:10177   */\n      0x43616c6c657220646f6573206e6f7420686176652073756666696369656e7420\n        /* \"#utility.yul\":10139:10140   */\n      0x00\n        /* \"#utility.yul\":10131:10137   */\n      dup3\n        /* \"#utility.yul\":10127:10141   */\n      add\n        /* \"#utility.yul\":10120:10178   */\n      mstore\n        /* \"#utility.yul\":10212:10221   */\n      0x62616c616e636500000000000000000000000000000000000000000000000000\n        /* \"#utility.yul\":10207:10209   */\n      0x20\n        /* \"#utility.yul\":10199:10205   */\n      dup3\n        /* \"#utility.yul\":10195:10210   */\n      add\n        /* \"#utility.yul\":10188:10222   */\n      mstore\n        /* \"#utility.yul\":10003:10229   */\n      pop\n      jump\t// out\n        /* \"#utility.yul\":10235:10601   */\n    tag_198:\n        /* \"#utility.yul\":10377:10380   */\n      0x00\n        /* \"#utility.yul\":10398:10465   */\n      tag_302\n        /* \"#utility.yul\":10462:10464   */\n      0x27\n        /* \"#utility.yul\":10457:10460   */\n      dup4\n        /* \"#utility.yul\":10398:10465   */\n      tag_169\n      jump\t// in\n    tag_302:\n        /* \"#utility.yul\":10391:10465   */\n      swap2\n      pop\n        /* \"#utility.yul\":10474:10567   */\n      tag_303\n        /* \"#utility.yul\":10563:10566   */\n      dup3\n        /* \"#utility.yul\":10474:10567   */\n      tag_197\n      jump\t// in\n    tag_303:\n        /* \"#utility.yul\":10592:10594   */\n      0x40\n        /* \"#utility.yul\":10587:10590   */\n      dup3\n        /* \"#utility.yul\":10583:10595   */\n      add\n        /* \"#utility.yul\":10576:10595   */\n      swap1\n      pop\n        /* \"#utility.yul\":10235:10601   */\n      swap2\n      swap1\n      pop\n      jump\t// out\n        /* \"#utility.yul\":10607:11026   */\n    tag_149:\n        /* \"#utility.yul\":10773:10777   */\n      0x00\n        /* \"#utility.yul\":10811:10813   */\n      0x20\n        /* \"#utility.yul\":10800:10809   */\n      dup3\n        /* \"#utility.yul\":10796:10814   */\n      add\n        /* \"#utility.yul\":10788:10814   */\n      swap1\n      pop\n        /* \"#utility.yul\":10860:10869   */\n      dup2\n        /* \"#utility.yul\":10854:10858   */\n      dup2\n        /* \"#utility.yul\":10850:10870   */\n      sub\n        /* \"#utility.yul\":10846:10847   */\n      0x00\n        /* \"#utility.yul\":10835:10844   */\n      dup4\n        /* \"#utility.yul\":10831:10848   */\n      add\n        /* \"#utility.yul\":10824:10871   */\n      mstore\n        /* \"#utility.yul\":10888:11019   */\n      tag_305\n        /* \"#utility.yul\":11014:11018   */\n      dup2\n        /* \"#utility.yul\":10888:11019   */\n      tag_198\n      jump\t// in\n    tag_305:\n        /* \"#utility.yul\":10880:11019   */\n      swap1\n      pop\n        /* \"#utility.yul\":10607:11026   */\n      swap2\n      swap1\n      pop\n      jump\t// out\n\n    auxdata: 0xa26469706673582212209f1b45b0805454e6d0d24148ecedeac0f384e1ab9ce0120f236254166f0f858b64736f6c63430008190033\n}\n",
				"bytecode": {
					"linkReferences": {},
					"object": "608060405234801561000f575f80fd5b5060405161225e38038061225e833981810160405281019061003191906103d8565b84848484848460055f6101000a81548173ffffffffffffffffffffffffffffffffffffffff021916908373ffffffffffffffffffffffffffffffffffffffff160217905550835f9081610084919061068b565b508260019081610094919061068b565b508160025f6101000a81548160ff021916908360ff160217905550806004819055505f60038190555050505050506100ea8583600a6100d391906108b6565b60646100df9190610900565b6100f460201b60201c565b505050505061099c565b8060075f8473ffffffffffffffffffffffffffffffffffffffff1673ffffffffffffffffffffffffffffffffffffffff1681526020019081526020015f205f8282546101409190610941565b925050819055508060035f8282546101589190610941565b925050819055508173ffffffffffffffffffffffffffffffffffffffff165f73ffffffffffffffffffffffffffffffffffffffff167fddf252ad1be2c89b69c2b068fc378daa952ba7f163c4a11628f55a4df523b3ef836040516101bc9190610983565b60405180910390a35050565b5f604051905090565b5f80fd5b5f80fd5b5f73ffffffffffffffffffffffffffffffffffffffff82169050919050565b5f610202826101d9565b9050919050565b610212816101f8565b811461021c575f80fd5b50565b5f8151905061022d81610209565b92915050565b5f80fd5b5f80fd5b5f601f19601f8301169050919050565b7f4e487b71000000000000000000000000000000000000000000000000000000005f52604160045260245ffd5b6102818261023b565b810181811067ffffffffffffffff821117156102a05761029f61024b565b5b80604052505050565b5f6102b26101c8565b90506102be8282610278565b919050565b5f67ffffffffffffffff8211156102dd576102dc61024b565b5b6102e68261023b565b9050602081019050919050565b8281835e5f83830152505050565b5f61031361030e846102c3565b6102a9565b90508281526020810184848401111561032f5761032e610237565b5b61033a8482856102f3565b509392505050565b5f82601f83011261035657610355610233565b5b8151610366848260208601610301565b91505092915050565b5f60ff82169050919050565b6103848161036f565b811461038e575f80fd5b50565b5f8151905061039f8161037b565b92915050565b5f819050919050565b6103b7816103a5565b81146103c1575f80fd5b50565b5f815190506103d2816103ae565b92915050565b5f805f805f60a086880312156103f1576103f06101d1565b5b5f6103fe8882890161021f565b955050602086015167ffffffffffffffff81111561041f5761041e6101d5565b5b61042b88828901610342565b945050604086015167ffffffffffffffff81111561044c5761044b6101d5565b5b61045888828901610342565b935050606061046988828901610391565b925050608061047a888289016103c4565b9150509295509295909350565b5f81519050919050565b7f4e487b71000000000000000000000000000000000000000000000000000000005f52602260045260245ffd5b5f60028204905060018216806104d557607f821691505b6020821081036104e8576104e7610491565b5b50919050565b5f819050815f5260205f209050919050565b5f6020601f8301049050919050565b5f82821b905092915050565b5f6008830261054a7fffffffffffffffffffffffffffffffffffffffffffffffffffffffffffffffff8261050f565b610554868361050f565b95508019841693508086168417925050509392505050565b5f819050919050565b5f61058f61058a610585846103a5565b61056c565b6103a5565b9050919050565b5f819050919050565b6105a883610575565b6105bc6105b482610596565b84845461051b565b825550505050565b5f90565b6105d06105c4565b6105db81848461059f565b505050565b5b818110156105fe576105f35f826105c8565b6001810190506105e1565b5050565b601f82111561064357610614816104ee565b61061d84610500565b8101602085101561062c578190505b61064061063885610500565b8301826105e0565b50505b505050565b5f82821c905092915050565b5f6106635f1984600802610648565b1980831691505092915050565b5f61067b8383610654565b9150826002028217905092915050565b61069482610487565b67ffffffffffffffff8111156106ad576106ac61024b565b5b6106b782546104be565b6106c2828285610602565b5f60209050601f8311600181146106f3575f84156106e1578287015190505b6106eb8582610670565b865550610752565b601f198416610701866104ee565b5f5b8281101561072857848901518255600182019150602085019450602081019050610703565b868310156107455784890151610741601f891682610654565b8355505b6001600288020188555050505b505050505050565b7f4e487b71000000000000000000000000000000000000000000000000000000005f52601160045260245ffd5b5f8160011c9050919050565b5f808291508390505b60018511156107dc578086048111156107b8576107b761075a565b5b60018516156107c75780820291505b80810290506107d585610787565b945061079c565b94509492505050565b5f826107f457600190506108af565b81610801575f90506108af565b8160018114610817576002811461082157610850565b60019150506108af565b60ff8411156108335761083261075a565b5b8360020a91508482111561084a5761084961075a565b5b506108af565b5060208310610133831016604e8410600b84101617156108855782820a9050838111156108805761087f61075a565b5b6108af565b6108928484846001610793565b925090508184048111156108a9576108a861075a565b5b81810290505b9392505050565b5f6108c0826103a5565b91506108cb8361036f565b92506108f87fffffffffffffffffffffffffffffffffffffffffffffffffffffffffffffffff84846107e5565b905092915050565b5f61090a826103a5565b9150610915836103a5565b9250828202610923816103a5565b9150828204841483151761093a5761093961075a565b5b5092915050565b5f61094b826103a5565b9150610956836103a5565b925082820190508082111561096e5761096d61075a565b5b92915050565b61097d816103a5565b82525050565b5f6020820190506109965f830184610974565b92915050565b6118b5806109a95f395ff3fe608060405234801561000f575f80fd5b50600436106100fe575f3560e01c80635b833f1e11610095578063a3e6761011610064578063a3e67610146102ae578063a9059cbb146102cc578063d5abeb01146102fc578063dd62ed3e1461031a576100fe565b80635b833f1e1461022657806370a082311461024457806395d89b41146102745780639dc29fac14610292576100fe565b806321e6b53d116100d157806321e6b53d1461018c57806323b872dd146101bc578063313ce567146101ec57806340c10f191461020a576100fe565b806306fdde0314610102578063095ea7b31461012057806310731a651461015057806318160ddd1461016e575b5f80fd5b61010a61034a565b6040516101179190611344565b60405180910390f35b61013a600480360381019061013591906113f5565b6103d5565b604051610147919061144d565b60405180910390f35b610158610550565b604051610165919061144d565b60405180910390f35b6101766106ee565b6040516101839190611475565b60405180910390f35b6101a660048036038101906101a1919061148e565b6106f4565b6040516101b3919061144d565b60405180910390f35b6101d660048036038101906101d191906114b9565b6108db565b6040516101e3919061144d565b60405180910390f35b6101f4610b90565b6040516102019190611524565b60405180910390f35b610224600480360381019061021f91906113f5565b610ba2565b005b61022e610d10565b60405161023b919061154c565b60405180910390f35b61025e6004803603810190610259919061148e565b610d35565b60405161026b9190611475565b60405180910390f35b61027c610d4a565b6040516102899190611344565b60405180910390f35b6102ac60048036038101906102a791906113f5565b610dd6565b005b6102b6610f3d565b6040516102c3919061154c565b60405180910390f35b6102e660048036038101906102e191906113f5565b610f62565b6040516102f3919061144d565b60405180910390f35b610304611106565b6040516103119190611475565b60405180910390f35b610334600480360381019061032f9190611565565b61110c565b6040516103419190611475565b60405180910390f35b5f8054610356906115d0565b80601f0160208091040260200160405190810160405280929190818152602001828054610382906115d0565b80156103cd5780601f106103a4576101008083540402835291602001916103cd565b820191905f5260205f20905b8154815290600101906020018083116103b057829003601f168201915b505050505081565b5f8082148061040f57505f73ffffffffffffffffffffffffffffffffffffffff168373ffffffffffffffffffffffffffffffffffffffff16145b8061045657508160075f3373ffffffffffffffffffffffffffffffffffffffff1673ffffffffffffffffffffffffffffffffffffffff1681526020019081526020015f2054105b15610463575f905061054a565b8160085f3373ffffffffffffffffffffffffffffffffffffffff1673ffffffffffffffffffffffffffffffffffffffff1681526020019081526020015f205f8573ffffffffffffffffffffffffffffffffffffffff1673ffffffffffffffffffffffffffffffffffffffff1681526020019081526020015f20819055508273ffffffffffffffffffffffffffffffffffffffff163373ffffffffffffffffffffffffffffffffffffffff167f8c5be1e5ebec7d5bd14f71427d1e84f3dd0314c0f7b2291e5b200ac8c7c3b9258460405161053d9190611475565b60405180910390a3600190505b92915050565b5f60065f9054906101000a900473ffffffffffffffffffffffffffffffffffffffff168073ffffffffffffffffffffffffffffffffffffffff163373ffffffffffffffffffffffffffffffffffffffff16146105e1576040517f08c379a00000000000000000000000000000000000000000000000000000000081526004016105d89061164a565b60405180910390fd5b60065f9054906101000a900473ffffffffffffffffffffffffffffffffffffffff1660055f6101000a81548173ffffffffffffffffffffffffffffffffffffffff021916908373ffffffffffffffffffffffffffffffffffffffff1602179055505f60065f6101000a81548173ffffffffffffffffffffffffffffffffffffffff021916908373ffffffffffffffffffffffffffffffffffffffff16021790555060055f9054906101000a900473ffffffffffffffffffffffffffffffffffffffff1673ffffffffffffffffffffffffffffffffffffffff167f96a25b4900cebf93ed691b1c763e37a5a01cd4b9b62e0df10688a47856def7a560405160405180910390a2600191505090565b60035481565b5f60055f9054906101000a900473ffffffffffffffffffffffffffffffffffffffff168073ffffffffffffffffffffffffffffffffffffffff163373ffffffffffffffffffffffffffffffffffffffff1614610785576040517f08c379a000000000000000000000000000000000000000000000000000000000815260040161077c9061164a565b60405180910390fd5b828073ffffffffffffffffffffffffffffffffffffffff165f73ffffffffffffffffffffffffffffffffffffffff16036107f4576040517f08c379a00000000000000000000000000000000000000000000000000000000081526004016107eb906116d8565b60405180910390fd5b8360065f6101000a81548173ffffffffffffffffffffffffffffffffffffffff021916908373ffffffffffffffffffffffffffffffffffffffff16021790555060065f9054906101000a900473ffffffffffffffffffffffffffffffffffffffff1673ffffffffffffffffffffffffffffffffffffffff1660055f9054906101000a900473ffffffffffffffffffffffffffffffffffffffff1673ffffffffffffffffffffffffffffffffffffffff167f79d2e4ff11f0c38e318513361054112b3865ca4f53b3c97152af0640db000e2560405160405180910390a3600192505050919050565b5f8082148061091557505f73ffffffffffffffffffffffffffffffffffffffff168373ffffffffffffffffffffffffffffffffffffffff16145b8061095c57508160075f8673ffffffffffffffffffffffffffffffffffffffff1673ffffffffffffffffffffffffffffffffffffffff1681526020019081526020015f2054105b806109de57508160085f8673ffffffffffffffffffffffffffffffffffffffff1673ffffffffffffffffffffffffffffffffffffffff1681526020019081526020015f205f3373ffffffffffffffffffffffffffffffffffffffff1673ffffffffffffffffffffffffffffffffffffffff1681526020019081526020015f2054105b156109eb575f9050610b89565b8160085f8673ffffffffffffffffffffffffffffffffffffffff1673ffffffffffffffffffffffffffffffffffffffff1681526020019081526020015f205f3373ffffffffffffffffffffffffffffffffffffffff1673ffffffffffffffffffffffffffffffffffffffff1681526020019081526020015f205f828254610a729190611723565b925050819055508160075f8673ffffffffffffffffffffffffffffffffffffffff1673ffffffffffffffffffffffffffffffffffffffff1681526020019081526020015f205f828254610ac59190611723565b925050819055508160075f8573ffffffffffffffffffffffffffffffffffffffff1673ffffffffffffffffffffffffffffffffffffffff1681526020019081526020015f205f828254610b189190611756565b925050819055508273ffffffffffffffffffffffffffffffffffffffff168473ffffffffffffffffffffffffffffffffffffffff167fddf252ad1be2c89b69c2b068fc378daa952ba7f163c4a11628f55a4df523b3ef84604051610b7c9190611475565b60405180910390a3600190505b9392505050565b60025f9054906101000a900460ff1681565b60055f9054906101000a900473ffffffffffffffffffffffffffffffffffffffff168073ffffffffffffffffffffffffffffffffffffffff163373ffffffffffffffffffffffffffffffffffffffff1614610c32576040517f08c379a0000000000000000000000000000000000000000000000000000000008152600401610c299061164a565b60405180910390fd5b815f8103610c75576040517f08c379a0000000000000000000000000000000000000000000000000000000008152600401610c6c906117d3565b60405180910390fd5b838073ffffffffffffffffffffffffffffffffffffffff165f73ffffffffffffffffffffffffffffffffffffffff1603610ce4576040517f08c379a0000000000000000000000000000000000000000000000000000000008152600401610cdb906116d8565b60405180910390fd5b60045484600354610cf59190611756565b1115610cff575f80fd5b610d09858561112c565b5050505050565b60065f9054906101000a900473ffffffffffffffffffffffffffffffffffffffff1681565b6007602052805f5260405f205f915090505481565b60018054610d57906115d0565b80601f0160208091040260200160405190810160405280929190818152602001828054610d83906115d0565b8015610dce5780601f10610da557610100808354040283529160200191610dce565b820191905f5260205f20905b815481529060010190602001808311610db157829003601f168201915b505050505081565b60055f9054906101000a900473ffffffffffffffffffffffffffffffffffffffff168073ffffffffffffffffffffffffffffffffffffffff163373ffffffffffffffffffffffffffffffffffffffff1614610e66576040517f08c379a0000000000000000000000000000000000000000000000000000000008152600401610e5d9061164a565b60405180910390fd5b815f8103610ea9576040517f08c379a0000000000000000000000000000000000000000000000000000000008152600401610ea0906117d3565b60405180910390fd5b83838060075f8473ffffffffffffffffffffffffffffffffffffffff1673ffffffffffffffffffffffffffffffffffffffff1681526020019081526020015f20541015610f2b576040517f08c379a0000000000000000000000000000000000000000000000000000000008152600401610f2290611861565b60405180910390fd5b610f358686611200565b505050505050565b60055f9054906101000a900473ffffffffffffffffffffffffffffffffffffffff1681565b5f80821480610f9c57505f73ffffffffffffffffffffffffffffffffffffffff168373ffffffffffffffffffffffffffffffffffffffff16145b80610fe357508160075f3373ffffffffffffffffffffffffffffffffffffffff1673ffffffffffffffffffffffffffffffffffffffff1681526020019081526020015f2054105b15610ff0575f9050611100565b8160075f3373ffffffffffffffffffffffffffffffffffffffff1673ffffffffffffffffffffffffffffffffffffffff1681526020019081526020015f205f82825461103c9190611723565b925050819055508160075f8573ffffffffffffffffffffffffffffffffffffffff1673ffffffffffffffffffffffffffffffffffffffff1681526020019081526020015f205f82825461108f9190611756565b925050819055508273ffffffffffffffffffffffffffffffffffffffff163373ffffffffffffffffffffffffffffffffffffffff167fddf252ad1be2c89b69c2b068fc378daa952ba7f163c4a11628f55a4df523b3ef846040516110f39190611475565b60405180910390a3600190505b92915050565b60045481565b6008602052815f5260405f20602052805f5260405f205f91509150505481565b8060075f8473ffffffffffffffffffffffffffffffffffffffff1673ffffffffffffffffffffffffffffffffffffffff1681526020019081526020015f205f8282546111789190611756565b925050819055508060035f8282546111909190611756565b925050819055508173ffffffffffffffffffffffffffffffffffffffff165f73ffffffffffffffffffffffffffffffffffffffff167fddf252ad1be2c89b69c2b068fc378daa952ba7f163c4a11628f55a4df523b3ef836040516111f49190611475565b60405180910390a35050565b8060075f8473ffffffffffffffffffffffffffffffffffffffff1673ffffffffffffffffffffffffffffffffffffffff1681526020019081526020015f205f82825461124c9190611723565b925050819055508060035f8282546112649190611723565b925050819055505f73ffffffffffffffffffffffffffffffffffffffff168273ffffffffffffffffffffffffffffffffffffffff167fddf252ad1be2c89b69c2b068fc378daa952ba7f163c4a11628f55a4df523b3ef836040516112c89190611475565b60405180910390a35050565b5f81519050919050565b5f82825260208201905092915050565b8281835e5f83830152505050565b5f601f19601f8301169050919050565b5f611316826112d4565b61132081856112de565b93506113308185602086016112ee565b611339816112fc565b840191505092915050565b5f6020820190508181035f83015261135c818461130c565b905092915050565b5f80fd5b5f73ffffffffffffffffffffffffffffffffffffffff82169050919050565b5f61139182611368565b9050919050565b6113a181611387565b81146113ab575f80fd5b50565b5f813590506113bc81611398565b92915050565b5f819050919050565b6113d4816113c2565b81146113de575f80fd5b50565b5f813590506113ef816113cb565b92915050565b5f806040838503121561140b5761140a611364565b5b5f611418858286016113ae565b9250506020611429858286016113e1565b9150509250929050565b5f8115159050919050565b61144781611433565b82525050565b5f6020820190506114605f83018461143e565b92915050565b61146f816113c2565b82525050565b5f6020820190506114885f830184611466565b92915050565b5f602082840312156114a3576114a2611364565b5b5f6114b0848285016113ae565b91505092915050565b5f805f606084860312156114d0576114cf611364565b5b5f6114dd868287016113ae565b93505060206114ee868287016113ae565b92505060406114ff868287016113e1565b9150509250925092565b5f60ff82169050919050565b61151e81611509565b82525050565b5f6020820190506115375f830184611515565b92915050565b61154681611387565b82525050565b5f60208201905061155f5f83018461153d565b92915050565b5f806040838503121561157b5761157a611364565b5b5f611588858286016113ae565b9250506020611599858286016113ae565b9150509250929050565b7f4e487b71000000000000000000000000000000000000000000000000000000005f52602260045260245ffd5b5f60028204905060018216806115e757607f821691505b6020821081036115fa576115f96115a3565b5b50919050565b7f43616c6c6572206973206e6f7420617574686f72697a656400000000000000005f82015250565b5f6116346018836112de565b915061163f82611600565b602082019050919050565b5f6020820190508181035f83015261166181611628565b9050919050565b7f5472616e7366657220746f20746865207a65726f2061646472657373206973205f8201527f6e6f7420616c6c6f776564000000000000000000000000000000000000000000602082015250565b5f6116c2602b836112de565b91506116cd82611668565b604082019050919050565b5f6020820190508181035f8301526116ef816116b6565b9050919050565b7f4e487b71000000000000000000000000000000000000000000000000000000005f52601160045260245ffd5b5f61172d826113c2565b9150611738836113c2565b92508282039050818111156117505761174f6116f6565b5b92915050565b5f611760826113c2565b915061176b836113c2565b9250828201905080821115611783576117826116f6565b5b92915050565b7f416d6f756e74206d7573742062652067726561746572207468616e207a65726f5f82015250565b5f6117bd6020836112de565b91506117c882611789565b602082019050919050565b5f6020820190508181035f8301526117ea816117b1565b9050919050565b7f43616c6c657220646f6573206e6f7420686176652073756666696369656e74205f8201527f62616c616e636500000000000000000000000000000000000000000000000000602082015250565b5f61184b6027836112de565b9150611856826117f1565b604082019050919050565b5f6020820190508181035f8301526118788161183f565b905091905056fea26469706673582212209f1b45b0805454e6d0d24148ecedeac0f384e1ab9ce0120f236254166f0f858b64736f6c63430008190033",
					"opcodes": "PUSH1 0x80 PUSH1 0x40 MSTORE CALLVALUE DUP1 ISZERO PUSH2 0xF JUMPI PUSH0 DUP1 REVERT JUMPDEST POP PUSH1 0x40 MLOAD PUSH2 0x225E CODESIZE SUB DUP1 PUSH2 0x225E DUP4 CODECOPY DUP2 DUP2 ADD PUSH1 0x40 MSTORE DUP2 ADD SWAP1 PUSH2 0x31 SWAP2 SWAP1 PUSH2 0x3D8 JUMP JUMPDEST DUP5 DUP5 DUP5 DUP5 DUP5 DUP5 PUSH1 0x5 PUSH0 PUSH2 0x100 EXP DUP2 SLOAD DUP2 PUSH20 0xFFFFFFFFFFFFFFFFFFFFFFFFFFFFFFFFFFFFFFFF MUL NOT AND SWAP1 DUP4 PUSH20 0xFFFFFFFFFFFFFFFFFFFFFFFFFFFFFFFFFFFFFFFF AND MUL OR SWAP1 SSTORE POP DUP4 PUSH0 SWAP1 DUP2 PUSH2 0x84 SWAP2 SWAP1 PUSH2 0x68B JUMP JUMPDEST POP DUP3 PUSH1 0x1 SWAP1 DUP2 PUSH2 0x94 SWAP2 SWAP1 PUSH2 0x68B JUMP JUMPDEST POP DUP2 PUSH1 0x2 PUSH0 PUSH2 0x100 EXP DUP2 SLOAD DUP2 PUSH1 0xFF MUL NOT AND SWAP1 DUP4 PUSH1 0xFF AND MUL OR SWAP1 SSTORE POP DUP1 PUSH1 0x4 DUP2 SWAP1 SSTORE POP PUSH0 PUSH1 0x3 DUP2 SWAP1 SSTORE POP POP POP POP POP POP PUSH2 0xEA DUP6 DUP4 PUSH1 0xA PUSH2 0xD3 SWAP2 SWAP1 PUSH2 0x8B6 JUMP JUMPDEST PUSH1 0x64 PUSH2 0xDF SWAP2 SWAP1 PUSH2 0x900 JUMP JUMPDEST PUSH2 0xF4 PUSH1 0x20 SHL PUSH1 0x20 SHR JUMP JUMPDEST POP POP POP POP POP PUSH2 0x99C JUMP JUMPDEST DUP1 PUSH1 0x7 PUSH0 DUP5 PUSH20 0xFFFFFFFFFFFFFFFFFFFFFFFFFFFFFFFFFFFFFFFF AND PUSH20 0xFFFFFFFFFFFFFFFFFFFFFFFFFFFFFFFFFFFFFFFF AND DUP2 MSTORE PUSH1 0x20 ADD SWAP1 DUP2 MSTORE PUSH1 0x20 ADD PUSH0 KECCAK256 PUSH0 DUP3 DUP3 SLOAD PUSH2 0x140 SWAP2 SWAP1 PUSH2 0x941 JUMP JUMPDEST SWAP3 POP POP DUP2 SWAP1 SSTORE POP DUP1 PUSH1 0x3 PUSH0 DUP3 DUP3 SLOAD PUSH2 0x158 SWAP2 SWAP1 PUSH2 0x941 JUMP JUMPDEST SWAP3 POP POP DUP2 SWAP1 SSTORE POP DUP2 PUSH20 0xFFFFFFFFFFFFFFFFFFFFFFFFFFFFFFFFFFFFFFFF AND PUSH0 PUSH20 0xFFFFFFFFFFFFFFFFFFFFFFFFFFFFFFFFFFFFFFFF AND PUSH32 0xDDF252AD1BE2C89B69C2B068FC378DAA952BA7F163C4A11628F55A4DF523B3EF DUP4 PUSH1 0x40 MLOAD PUSH2 0x1BC SWAP2 SWAP1 PUSH2 0x983 JUMP JUMPDEST PUSH1 0x40 MLOAD DUP1 SWAP2 SUB SWAP1 LOG3 POP POP JUMP JUMPDEST PUSH0 PUSH1 0x40 MLOAD SWAP1 POP SWAP1 JUMP JUMPDEST PUSH0 DUP1 REVERT JUMPDEST PUSH0 DUP1 REVERT JUMPDEST PUSH0 PUSH20 0xFFFFFFFFFFFFFFFFFFFFFFFFFFFFFFFFFFFFFFFF DUP3 AND SWAP1 POP SWAP2 SWAP1 POP JUMP JUMPDEST PUSH0 PUSH2 0x202 DUP3 PUSH2 0x1D9 JUMP JUMPDEST SWAP1 POP SWAP2 SWAP1 POP JUMP JUMPDEST PUSH2 0x212 DUP2 PUSH2 0x1F8 JUMP JUMPDEST DUP2 EQ PUSH2 0x21C JUMPI PUSH0 DUP1 REVERT JUMPDEST POP JUMP JUMPDEST PUSH0 DUP2 MLOAD SWAP1 POP PUSH2 0x22D DUP2 PUSH2 0x209 JUMP JUMPDEST SWAP3 SWAP2 POP POP JUMP JUMPDEST PUSH0 DUP1 REVERT JUMPDEST PUSH0 DUP1 REVERT JUMPDEST PUSH0 PUSH1 0x1F NOT PUSH1 0x1F DUP4 ADD AND SWAP1 POP SWAP2 SWAP1 POP JUMP JUMPDEST PUSH32 0x4E487B7100000000000000000000000000000000000000000000000000000000 PUSH0 MSTORE PUSH1 0x41 PUSH1 0x4 MSTORE PUSH1 0x24 PUSH0 REVERT JUMPDEST PUSH2 0x281 DUP3 PUSH2 0x23B JUMP JUMPDEST DUP2 ADD DUP2 DUP2 LT PUSH8 0xFFFFFFFFFFFFFFFF DUP3 GT OR ISZERO PUSH2 0x2A0 JUMPI PUSH2 0x29F PUSH2 0x24B JUMP JUMPDEST JUMPDEST DUP1 PUSH1 0x40 MSTORE POP POP POP JUMP JUMPDEST PUSH0 PUSH2 0x2B2 PUSH2 0x1C8 JUMP JUMPDEST SWAP1 POP PUSH2 0x2BE DUP3 DUP3 PUSH2 0x278 JUMP JUMPDEST SWAP2 SWAP1 POP JUMP JUMPDEST PUSH0 PUSH8 0xFFFFFFFFFFFFFFFF DUP3 GT ISZERO PUSH2 0x2DD JUMPI PUSH2 0x2DC PUSH2 0x24B JUMP JUMPDEST JUMPDEST PUSH2 0x2E6 DUP3 PUSH2 0x23B JUMP JUMPDEST SWAP1 POP PUSH1 0x20 DUP2 ADD SWAP1 POP SWAP2 SWAP1 POP JUMP JUMPDEST DUP3 DUP2 DUP4 MCOPY PUSH0 DUP4 DUP4 ADD MSTORE POP POP POP JUMP JUMPDEST PUSH0 PUSH2 0x313 PUSH2 0x30E DUP5 PUSH2 0x2C3 JUMP JUMPDEST PUSH2 0x2A9 JUMP JUMPDEST SWAP1 POP DUP3 DUP2 MSTORE PUSH1 0x20 DUP2 ADD DUP5 DUP5 DUP5 ADD GT ISZERO PUSH2 0x32F JUMPI PUSH2 0x32E PUSH2 0x237 JUMP JUMPDEST JUMPDEST PUSH2 0x33A DUP5 DUP3 DUP6 PUSH2 0x2F3 JUMP JUMPDEST POP SWAP4 SWAP3 POP POP POP JUMP JUMPDEST PUSH0 DUP3 PUSH1 0x1F DUP4 ADD SLT PUSH2 0x356 JUMPI PUSH2 0x355 PUSH2 0x233 JUMP JUMPDEST JUMPDEST DUP2 MLOAD PUSH2 0x366 DUP5 DUP3 PUSH1 0x20 DUP7 ADD PUSH2 0x301 JUMP JUMPDEST SWAP2 POP POP SWAP3 SWAP2 POP POP JUMP JUMPDEST PUSH0 PUSH1 0xFF DUP3 AND SWAP1 POP SWAP2 SWAP1 POP JUMP JUMPDEST PUSH2 0x384 DUP2 PUSH2 0x36F JUMP JUMPDEST DUP2 EQ PUSH2 0x38E JUMPI PUSH0 DUP1 REVERT JUMPDEST POP JUMP JUMPDEST PUSH0 DUP2 MLOAD SWAP1 POP PUSH2 0x39F DUP2 PUSH2 0x37B JUMP JUMPDEST SWAP3 SWAP2 POP POP JUMP JUMPDEST PUSH0 DUP2 SWAP1 POP SWAP2 SWAP1 POP JUMP JUMPDEST PUSH2 0x3B7 DUP2 PUSH2 0x3A5 JUMP JUMPDEST DUP2 EQ PUSH2 0x3C1 JUMPI PUSH0 DUP1 REVERT JUMPDEST POP JUMP JUMPDEST PUSH0 DUP2 MLOAD SWAP1 POP PUSH2 0x3D2 DUP2 PUSH2 0x3AE JUMP JUMPDEST SWAP3 SWAP2 POP POP JUMP JUMPDEST PUSH0 DUP1 PUSH0 DUP1 PUSH0 PUSH1 0xA0 DUP7 DUP9 SUB SLT ISZERO PUSH2 0x3F1 JUMPI PUSH2 0x3F0 PUSH2 0x1D1 JUMP JUMPDEST JUMPDEST PUSH0 PUSH2 0x3FE DUP9 DUP3 DUP10 ADD PUSH2 0x21F JUMP JUMPDEST SWAP6 POP POP PUSH1 0x20 DUP7 ADD MLOAD PUSH8 0xFFFFFFFFFFFFFFFF DUP2 GT ISZERO PUSH2 0x41F JUMPI PUSH2 0x41E PUSH2 0x1D5 JUMP JUMPDEST JUMPDEST PUSH2 0x42B DUP9 DUP3 DUP10 ADD PUSH2 0x342 JUMP JUMPDEST SWAP5 POP POP PUSH1 0x40 DUP7 ADD MLOAD PUSH8 0xFFFFFFFFFFFFFFFF DUP2 GT ISZERO PUSH2 0x44C JUMPI PUSH2 0x44B PUSH2 0x1D5 JUMP JUMPDEST JUMPDEST PUSH2 0x458 DUP9 DUP3 DUP10 ADD PUSH2 0x342 JUMP JUMPDEST SWAP4 POP POP PUSH1 0x60 PUSH2 0x469 DUP9 DUP3 DUP10 ADD PUSH2 0x391 JUMP JUMPDEST SWAP3 POP POP PUSH1 0x80 PUSH2 0x47A DUP9 DUP3 DUP10 ADD PUSH2 0x3C4 JUMP JUMPDEST SWAP2 POP POP SWAP3 SWAP6 POP SWAP3 SWAP6 SWAP1 SWAP4 POP JUMP JUMPDEST PUSH0 DUP2 MLOAD SWAP1 POP SWAP2 SWAP1 POP JUMP JUMPDEST PUSH32 0x4E487B7100000000000000000000000000000000000000000000000000000000 PUSH0 MSTORE PUSH1 0x22 PUSH1 0x4 MSTORE PUSH1 0x24 PUSH0 REVERT JUMPDEST PUSH0 PUSH1 0x2 DUP3 DIV SWAP1 POP PUSH1 0x1 DUP3 AND DUP1 PUSH2 0x4D5 JUMPI PUSH1 0x7F DUP3 AND SWAP2 POP JUMPDEST PUSH1 0x20 DUP3 LT DUP2 SUB PUSH2 0x4E8 JUMPI PUSH2 0x4E7 PUSH2 0x491 JUMP JUMPDEST JUMPDEST POP SWAP2 SWAP1 POP JUMP JUMPDEST PUSH0 DUP2 SWAP1 POP DUP2 PUSH0 MSTORE PUSH1 0x20 PUSH0 KECCAK256 SWAP1 POP SWAP2 SWAP1 POP JUMP JUMPDEST PUSH0 PUSH1 0x20 PUSH1 0x1F DUP4 ADD DIV SWAP1 POP SWAP2 SWAP1 POP JUMP JUMPDEST PUSH0 DUP3 DUP3 SHL SWAP1 POP SWAP3 SWAP2 POP POP JUMP JUMPDEST PUSH0 PUSH1 0x8 DUP4 MUL PUSH2 0x54A PUSH32 0xFFFFFFFFFFFFFFFFFFFFFFFFFFFFFFFFFFFFFFFFFFFFFFFFFFFFFFFFFFFFFFFF DUP3 PUSH2 0x50F JUMP JUMPDEST PUSH2 0x554 DUP7 DUP4 PUSH2 0x50F JUMP JUMPDEST SWAP6 POP DUP1 NOT DUP5 AND SWAP4 POP DUP1 DUP7 AND DUP5 OR SWAP3 POP POP POP SWAP4 SWAP3 POP POP POP JUMP JUMPDEST PUSH0 DUP2 SWAP1 POP SWAP2 SWAP1 POP JUMP JUMPDEST PUSH0 PUSH2 0x58F PUSH2 0x58A PUSH2 0x585 DUP5 PUSH2 0x3A5 JUMP JUMPDEST PUSH2 0x56C JUMP JUMPDEST PUSH2 0x3A5 JUMP JUMPDEST SWAP1 POP SWAP2 SWAP1 POP JUMP JUMPDEST PUSH0 DUP2 SWAP1 POP SWAP2 SWAP1 POP JUMP JUMPDEST PUSH2 0x5A8 DUP4 PUSH2 0x575 JUMP JUMPDEST PUSH2 0x5BC PUSH2 0x5B4 DUP3 PUSH2 0x596 JUMP JUMPDEST DUP5 DUP5 SLOAD PUSH2 0x51B JUMP JUMPDEST DUP3 SSTORE POP POP POP POP JUMP JUMPDEST PUSH0 SWAP1 JUMP JUMPDEST PUSH2 0x5D0 PUSH2 0x5C4 JUMP JUMPDEST PUSH2 0x5DB DUP2 DUP5 DUP5 PUSH2 0x59F JUMP JUMPDEST POP POP POP JUMP JUMPDEST JUMPDEST DUP2 DUP2 LT ISZERO PUSH2 0x5FE JUMPI PUSH2 0x5F3 PUSH0 DUP3 PUSH2 0x5C8 JUMP JUMPDEST PUSH1 0x1 DUP2 ADD SWAP1 POP PUSH2 0x5E1 JUMP JUMPDEST POP POP JUMP JUMPDEST PUSH1 0x1F DUP3 GT ISZERO PUSH2 0x643 JUMPI PUSH2 0x614 DUP2 PUSH2 0x4EE JUMP JUMPDEST PUSH2 0x61D DUP5 PUSH2 0x500 JUMP JUMPDEST DUP2 ADD PUSH1 0x20 DUP6 LT ISZERO PUSH2 0x62C JUMPI DUP2 SWAP1 POP JUMPDEST PUSH2 0x640 PUSH2 0x638 DUP6 PUSH2 0x500 JUMP JUMPDEST DUP4 ADD DUP3 PUSH2 0x5E0 JUMP JUMPDEST POP POP JUMPDEST POP POP POP JUMP JUMPDEST PUSH0 DUP3 DUP3 SHR SWAP1 POP SWAP3 SWAP2 POP POP JUMP JUMPDEST PUSH0 PUSH2 0x663 PUSH0 NOT DUP5 PUSH1 0x8 MUL PUSH2 0x648 JUMP JUMPDEST NOT DUP1 DUP4 AND SWAP2 POP POP SWAP3 SWAP2 POP POP JUMP JUMPDEST PUSH0 PUSH2 0x67B DUP4 DUP4 PUSH2 0x654 JUMP JUMPDEST SWAP2 POP DUP3 PUSH1 0x2 MUL DUP3 OR SWAP1 POP SWAP3 SWAP2 POP POP JUMP JUMPDEST PUSH2 0x694 DUP3 PUSH2 0x487 JUMP JUMPDEST PUSH8 0xFFFFFFFFFFFFFFFF DUP2 GT ISZERO PUSH2 0x6AD JUMPI PUSH2 0x6AC PUSH2 0x24B JUMP JUMPDEST JUMPDEST PUSH2 0x6B7 DUP3 SLOAD PUSH2 0x4BE JUMP JUMPDEST PUSH2 0x6C2 DUP3 DUP3 DUP6 PUSH2 0x602 JUMP JUMPDEST PUSH0 PUSH1 0x20 SWAP1 POP PUSH1 0x1F DUP4 GT PUSH1 0x1 DUP2 EQ PUSH2 0x6F3 JUMPI PUSH0 DUP5 ISZERO PUSH2 0x6E1 JUMPI DUP3 DUP8 ADD MLOAD SWAP1 POP JUMPDEST PUSH2 0x6EB DUP6 DUP3 PUSH2 0x670 JUMP JUMPDEST DUP7 SSTORE POP PUSH2 0x752 JUMP JUMPDEST PUSH1 0x1F NOT DUP5 AND PUSH2 0x701 DUP7 PUSH2 0x4EE JUMP JUMPDEST PUSH0 JUMPDEST DUP3 DUP2 LT ISZERO PUSH2 0x728 JUMPI DUP5 DUP10 ADD MLOAD DUP3 SSTORE PUSH1 0x1 DUP3 ADD SWAP2 POP PUSH1 0x20 DUP6 ADD SWAP5 POP PUSH1 0x20 DUP2 ADD SWAP1 POP PUSH2 0x703 JUMP JUMPDEST DUP7 DUP4 LT ISZERO PUSH2 0x745 JUMPI DUP5 DUP10 ADD MLOAD PUSH2 0x741 PUSH1 0x1F DUP10 AND DUP3 PUSH2 0x654 JUMP JUMPDEST DUP4 SSTORE POP JUMPDEST PUSH1 0x1 PUSH1 0x2 DUP9 MUL ADD DUP9 SSTORE POP POP POP JUMPDEST POP POP POP POP POP POP JUMP JUMPDEST PUSH32 0x4E487B7100000000000000000000000000000000000000000000000000000000 PUSH0 MSTORE PUSH1 0x11 PUSH1 0x4 MSTORE PUSH1 0x24 PUSH0 REVERT JUMPDEST PUSH0 DUP2 PUSH1 0x1 SHR SWAP1 POP SWAP2 SWAP1 POP JUMP JUMPDEST PUSH0 DUP1 DUP3 SWAP2 POP DUP4 SWAP1 POP JUMPDEST PUSH1 0x1 DUP6 GT ISZERO PUSH2 0x7DC JUMPI DUP1 DUP7 DIV DUP2 GT ISZERO PUSH2 0x7B8 JUMPI PUSH2 0x7B7 PUSH2 0x75A JUMP JUMPDEST JUMPDEST PUSH1 0x1 DUP6 AND ISZERO PUSH2 0x7C7 JUMPI DUP1 DUP3 MUL SWAP2 POP JUMPDEST DUP1 DUP2 MUL SWAP1 POP PUSH2 0x7D5 DUP6 PUSH2 0x787 JUMP JUMPDEST SWAP5 POP PUSH2 0x79C JUMP JUMPDEST SWAP5 POP SWAP5 SWAP3 POP POP POP JUMP JUMPDEST PUSH0 DUP3 PUSH2 0x7F4 JUMPI PUSH1 0x1 SWAP1 POP PUSH2 0x8AF JUMP JUMPDEST DUP2 PUSH2 0x801 JUMPI PUSH0 SWAP1 POP PUSH2 0x8AF JUMP JUMPDEST DUP2 PUSH1 0x1 DUP2 EQ PUSH2 0x817 JUMPI PUSH1 0x2 DUP2 EQ PUSH2 0x821 JUMPI PUSH2 0x850 JUMP JUMPDEST PUSH1 0x1 SWAP2 POP POP PUSH2 0x8AF JUMP JUMPDEST PUSH1 0xFF DUP5 GT ISZERO PUSH2 0x833 JUMPI PUSH2 0x832 PUSH2 0x75A JUMP JUMPDEST JUMPDEST DUP4 PUSH1 0x2 EXP SWAP2 POP DUP5 DUP3 GT ISZERO PUSH2 0x84A JUMPI PUSH2 0x849 PUSH2 0x75A JUMP JUMPDEST JUMPDEST POP PUSH2 0x8AF JUMP JUMPDEST POP PUSH1 0x20 DUP4 LT PUSH2 0x133 DUP4 LT AND PUSH1 0x4E DUP5 LT PUSH1 0xB DUP5 LT AND OR ISZERO PUSH2 0x885 JUMPI DUP3 DUP3 EXP SWAP1 POP DUP4 DUP2 GT ISZERO PUSH2 0x880 JUMPI PUSH2 0x87F PUSH2 0x75A JUMP JUMPDEST JUMPDEST PUSH2 0x8AF JUMP JUMPDEST PUSH2 0x892 DUP5 DUP5 DUP5 PUSH1 0x1 PUSH2 0x793 JUMP JUMPDEST SWAP3 POP SWAP1 POP DUP2 DUP5 DIV DUP2 GT ISZERO PUSH2 0x8A9 JUMPI PUSH2 0x8A8 PUSH2 0x75A JUMP JUMPDEST JUMPDEST DUP2 DUP2 MUL SWAP1 POP JUMPDEST SWAP4 SWAP3 POP POP POP JUMP JUMPDEST PUSH0 PUSH2 0x8C0 DUP3 PUSH2 0x3A5 JUMP JUMPDEST SWAP2 POP PUSH2 0x8CB DUP4 PUSH2 0x36F JUMP JUMPDEST SWAP3 POP PUSH2 0x8F8 PUSH32 0xFFFFFFFFFFFFFFFFFFFFFFFFFFFFFFFFFFFFFFFFFFFFFFFFFFFFFFFFFFFFFFFF DUP5 DUP5 PUSH2 0x7E5 JUMP JUMPDEST SWAP1 POP SWAP3 SWAP2 POP POP JUMP JUMPDEST PUSH0 PUSH2 0x90A DUP3 PUSH2 0x3A5 JUMP JUMPDEST SWAP2 POP PUSH2 0x915 DUP4 PUSH2 0x3A5 JUMP JUMPDEST SWAP3 POP DUP3 DUP3 MUL PUSH2 0x923 DUP2 PUSH2 0x3A5 JUMP JUMPDEST SWAP2 POP DUP3 DUP3 DIV DUP5 EQ DUP4 ISZERO OR PUSH2 0x93A JUMPI PUSH2 0x939 PUSH2 0x75A JUMP JUMPDEST JUMPDEST POP SWAP3 SWAP2 POP POP JUMP JUMPDEST PUSH0 PUSH2 0x94B DUP3 PUSH2 0x3A5 JUMP JUMPDEST SWAP2 POP PUSH2 0x956 DUP4 PUSH2 0x3A5 JUMP JUMPDEST SWAP3 POP DUP3 DUP3 ADD SWAP1 POP DUP1 DUP3 GT ISZERO PUSH2 0x96E JUMPI PUSH2 0x96D PUSH2 0x75A JUMP JUMPDEST JUMPDEST SWAP3 SWAP2 POP POP JUMP JUMPDEST PUSH2 0x97D DUP2 PUSH2 0x3A5 JUMP JUMPDEST DUP3 MSTORE POP POP JUMP JUMPDEST PUSH0 PUSH1 0x20 DUP3 ADD SWAP1 POP PUSH2 0x996 PUSH0 DUP4 ADD DUP5 PUSH2 0x974 JUMP JUMPDEST SWAP3 SWAP2 POP POP JUMP JUMPDEST PUSH2 0x18B5 DUP1 PUSH2 0x9A9 PUSH0 CODECOPY PUSH0 RETURN INVALID PUSH1 0x80 PUSH1 0x40 MSTORE CALLVALUE DUP1 ISZERO PUSH2 0xF JUMPI PUSH0 DUP1 REVERT JUMPDEST POP PUSH1 0x4 CALLDATASIZE LT PUSH2 0xFE JUMPI PUSH0 CALLDATALOAD PUSH1 0xE0 SHR DUP1 PUSH4 0x5B833F1E GT PUSH2 0x95 JUMPI DUP1 PUSH4 0xA3E67610 GT PUSH2 0x64 JUMPI DUP1 PUSH4 0xA3E67610 EQ PUSH2 0x2AE JUMPI DUP1 PUSH4 0xA9059CBB EQ PUSH2 0x2CC JUMPI DUP1 PUSH4 0xD5ABEB01 EQ PUSH2 0x2FC JUMPI DUP1 PUSH4 0xDD62ED3E EQ PUSH2 0x31A JUMPI PUSH2 0xFE JUMP JUMPDEST DUP1 PUSH4 0x5B833F1E EQ PUSH2 0x226 JUMPI DUP1 PUSH4 0x70A08231 EQ PUSH2 0x244 JUMPI DUP1 PUSH4 0x95D89B41 EQ PUSH2 0x274 JUMPI DUP1 PUSH4 0x9DC29FAC EQ PUSH2 0x292 JUMPI PUSH2 0xFE JUMP JUMPDEST DUP1 PUSH4 0x21E6B53D GT PUSH2 0xD1 JUMPI DUP1 PUSH4 0x21E6B53D EQ PUSH2 0x18C JUMPI DUP1 PUSH4 0x23B872DD EQ PUSH2 0x1BC JUMPI DUP1 PUSH4 0x313CE567 EQ PUSH2 0x1EC JUMPI DUP1 PUSH4 0x40C10F19 EQ PUSH2 0x20A JUMPI PUSH2 0xFE JUMP JUMPDEST DUP1 PUSH4 0x6FDDE03 EQ PUSH2 0x102 JUMPI DUP1 PUSH4 0x95EA7B3 EQ PUSH2 0x120 JUMPI DUP1 PUSH4 0x10731A65 EQ PUSH2 0x150 JUMPI DUP1 PUSH4 0x18160DDD EQ PUSH2 0x16E JUMPI JUMPDEST PUSH0 DUP1 REVERT JUMPDEST PUSH2 0x10A PUSH2 0x34A JUMP JUMPDEST PUSH1 0x40 MLOAD PUSH2 0x117 SWAP2 SWAP1 PUSH2 0x1344 JUMP JUMPDEST PUSH1 0x40 MLOAD DUP1 SWAP2 SUB SWAP1 RETURN JUMPDEST PUSH2 0x13A PUSH1 0x4 DUP1 CALLDATASIZE SUB DUP2 ADD SWAP1 PUSH2 0x135 SWAP2 SWAP1 PUSH2 0x13F5 JUMP JUMPDEST PUSH2 0x3D5 JUMP JUMPDEST PUSH1 0x40 MLOAD PUSH2 0x147 SWAP2 SWAP1 PUSH2 0x144D JUMP JUMPDEST PUSH1 0x40 MLOAD DUP1 SWAP2 SUB SWAP1 RETURN JUMPDEST PUSH2 0x158 PUSH2 0x550 JUMP JUMPDEST PUSH1 0x40 MLOAD PUSH2 0x165 SWAP2 SWAP1 PUSH2 0x144D JUMP JUMPDEST PUSH1 0x40 MLOAD DUP1 SWAP2 SUB SWAP1 RETURN JUMPDEST PUSH2 0x176 PUSH2 0x6EE JUMP JUMPDEST PUSH1 0x40 MLOAD PUSH2 0x183 SWAP2 SWAP1 PUSH2 0x1475 JUMP JUMPDEST PUSH1 0x40 MLOAD DUP1 SWAP2 SUB SWAP1 RETURN JUMPDEST PUSH2 0x1A6 PUSH1 0x4 DUP1 CALLDATASIZE SUB DUP2 ADD SWAP1 PUSH2 0x1A1 SWAP2 SWAP1 PUSH2 0x148E JUMP JUMPDEST PUSH2 0x6F4 JUMP JUMPDEST PUSH1 0x40 MLOAD PUSH2 0x1B3 SWAP2 SWAP1 PUSH2 0x144D JUMP JUMPDEST PUSH1 0x40 MLOAD DUP1 SWAP2 SUB SWAP1 RETURN JUMPDEST PUSH2 0x1D6 PUSH1 0x4 DUP1 CALLDATASIZE SUB DUP2 ADD SWAP1 PUSH2 0x1D1 SWAP2 SWAP1 PUSH2 0x14B9 JUMP JUMPDEST PUSH2 0x8DB JUMP JUMPDEST PUSH1 0x40 MLOAD PUSH2 0x1E3 SWAP2 SWAP1 PUSH2 0x144D JUMP JUMPDEST PUSH1 0x40 MLOAD DUP1 SWAP2 SUB SWAP1 RETURN JUMPDEST PUSH2 0x1F4 PUSH2 0xB90 JUMP JUMPDEST PUSH1 0x40 MLOAD PUSH2 0x201 SWAP2 SWAP1 PUSH2 0x1524 JUMP JUMPDEST PUSH1 0x40 MLOAD DUP1 SWAP2 SUB SWAP1 RETURN JUMPDEST PUSH2 0x224 PUSH1 0x4 DUP1 CALLDATASIZE SUB DUP2 ADD SWAP1 PUSH2 0x21F SWAP2 SWAP1 PUSH2 0x13F5 JUMP JUMPDEST PUSH2 0xBA2 JUMP JUMPDEST STOP JUMPDEST PUSH2 0x22E PUSH2 0xD10 JUMP JUMPDEST PUSH1 0x40 MLOAD PUSH2 0x23B SWAP2 SWAP1 PUSH2 0x154C JUMP JUMPDEST PUSH1 0x40 MLOAD DUP1 SWAP2 SUB SWAP1 RETURN JUMPDEST PUSH2 0x25E PUSH1 0x4 DUP1 CALLDATASIZE SUB DUP2 ADD SWAP1 PUSH2 0x259 SWAP2 SWAP1 PUSH2 0x148E JUMP JUMPDEST PUSH2 0xD35 JUMP JUMPDEST PUSH1 0x40 MLOAD PUSH2 0x26B SWAP2 SWAP1 PUSH2 0x1475 JUMP JUMPDEST PUSH1 0x40 MLOAD DUP1 SWAP2 SUB SWAP1 RETURN JUMPDEST PUSH2 0x27C PUSH2 0xD4A JUMP JUMPDEST PUSH1 0x40 MLOAD PUSH2 0x289 SWAP2 SWAP1 PUSH2 0x1344 JUMP JUMPDEST PUSH1 0x40 MLOAD DUP1 SWAP2 SUB SWAP1 RETURN JUMPDEST PUSH2 0x2AC PUSH1 0x4 DUP1 CALLDATASIZE SUB DUP2 ADD SWAP1 PUSH2 0x2A7 SWAP2 SWAP1 PUSH2 0x13F5 JUMP JUMPDEST PUSH2 0xDD6 JUMP JUMPDEST STOP JUMPDEST PUSH2 0x2B6 PUSH2 0xF3D JUMP JUMPDEST PUSH1 0x40 MLOAD PUSH2 0x2C3 SWAP2 SWAP1 PUSH2 0x154C JUMP JUMPDEST PUSH1 0x40 MLOAD DUP1 SWAP2 SUB SWAP1 RETURN JUMPDEST PUSH2 0x2E6 PUSH1 0x4 DUP1 CALLDATASIZE SUB DUP2 ADD SWAP1 PUSH2 0x2E1 SWAP2 SWAP1 PUSH2 0x13F5 JUMP JUMPDEST PUSH2 0xF62 JUMP JUMPDEST PUSH1 0x40 MLOAD PUSH2 0x2F3 SWAP2 SWAP1 PUSH2 0x144D JUMP JUMPDEST PUSH1 0x40 MLOAD DUP1 SWAP2 SUB SWAP1 RETURN JUMPDEST PUSH2 0x304 PUSH2 0x1106 JUMP JUMPDEST PUSH1 0x40 MLOAD PUSH2 0x311 SWAP2 SWAP1 PUSH2 0x1475 JUMP JUMPDEST PUSH1 0x40 MLOAD DUP1 SWAP2 SUB SWAP1 RETURN JUMPDEST PUSH2 0x334 PUSH1 0x4 DUP1 CALLDATASIZE SUB DUP2 ADD SWAP1 PUSH2 0x32F SWAP2 SWAP1 PUSH2 0x1565 JUMP JUMPDEST PUSH2 0x110C JUMP JUMPDEST PUSH1 0x40 MLOAD PUSH2 0x341 SWAP2 SWAP1 PUSH2 0x1475 JUMP JUMPDEST PUSH1 0x40 MLOAD DUP1 SWAP2 SUB SWAP1 RETURN JUMPDEST PUSH0 DUP1 SLOAD PUSH2 0x356 SWAP1 PUSH2 0x15D0 JUMP JUMPDEST DUP1 PUSH1 0x1F ADD PUSH1 0x20 DUP1 SWAP2 DIV MUL PUSH1 0x20 ADD PUSH1 0x40 MLOAD SWAP1 DUP2 ADD PUSH1 0x40 MSTORE DUP1 SWAP3 SWAP2 SWAP1 DUP2 DUP2 MSTORE PUSH1 0x20 ADD DUP3 DUP1 SLOAD PUSH2 0x382 SWAP1 PUSH2 0x15D0 JUMP JUMPDEST DUP1 ISZERO PUSH2 0x3CD JUMPI DUP1 PUSH1 0x1F LT PUSH2 0x3A4 JUMPI PUSH2 0x100 DUP1 DUP4 SLOAD DIV MUL DUP4 MSTORE SWAP2 PUSH1 0x20 ADD SWAP2 PUSH2 0x3CD JUMP JUMPDEST DUP3 ADD SWAP2 SWAP1 PUSH0 MSTORE PUSH1 0x20 PUSH0 KECCAK256 SWAP1 JUMPDEST DUP2 SLOAD DUP2 MSTORE SWAP1 PUSH1 0x1 ADD SWAP1 PUSH1 0x20 ADD DUP1 DUP4 GT PUSH2 0x3B0 JUMPI DUP3 SWAP1 SUB PUSH1 0x1F AND DUP3 ADD SWAP2 JUMPDEST POP POP POP POP POP DUP2 JUMP JUMPDEST PUSH0 DUP1 DUP3 EQ DUP1 PUSH2 0x40F JUMPI POP PUSH0 PUSH20 0xFFFFFFFFFFFFFFFFFFFFFFFFFFFFFFFFFFFFFFFF AND DUP4 PUSH20 0xFFFFFFFFFFFFFFFFFFFFFFFFFFFFFFFFFFFFFFFF AND EQ JUMPDEST DUP1 PUSH2 0x456 JUMPI POP DUP2 PUSH1 0x7 PUSH0 CALLER PUSH20 0xFFFFFFFFFFFFFFFFFFFFFFFFFFFFFFFFFFFFFFFF AND PUSH20 0xFFFFFFFFFFFFFFFFFFFFFFFFFFFFFFFFFFFFFFFF AND DUP2 MSTORE PUSH1 0x20 ADD SWAP1 DUP2 MSTORE PUSH1 0x20 ADD PUSH0 KECCAK256 SLOAD LT JUMPDEST ISZERO PUSH2 0x463 JUMPI PUSH0 SWAP1 POP PUSH2 0x54A JUMP JUMPDEST DUP2 PUSH1 0x8 PUSH0 CALLER PUSH20 0xFFFFFFFFFFFFFFFFFFFFFFFFFFFFFFFFFFFFFFFF AND PUSH20 0xFFFFFFFFFFFFFFFFFFFFFFFFFFFFFFFFFFFFFFFF AND DUP2 MSTORE PUSH1 0x20 ADD SWAP1 DUP2 MSTORE PUSH1 0x20 ADD PUSH0 KECCAK256 PUSH0 DUP6 PUSH20 0xFFFFFFFFFFFFFFFFFFFFFFFFFFFFFFFFFFFFFFFF AND PUSH20 0xFFFFFFFFFFFFFFFFFFFFFFFFFFFFFFFFFFFFFFFF AND DUP2 MSTORE PUSH1 0x20 ADD SWAP1 DUP2 MSTORE PUSH1 0x20 ADD PUSH0 KECCAK256 DUP2 SWAP1 SSTORE POP DUP3 PUSH20 0xFFFFFFFFFFFFFFFFFFFFFFFFFFFFFFFFFFFFFFFF AND CALLER PUSH20 0xFFFFFFFFFFFFFFFFFFFFFFFFFFFFFFFFFFFFFFFF AND PUSH32 0x8C5BE1E5EBEC7D5BD14F71427D1E84F3DD0314C0F7B2291E5B200AC8C7C3B925 DUP5 PUSH1 0x40 MLOAD PUSH2 0x53D SWAP2 SWAP1 PUSH2 0x1475 JUMP JUMPDEST PUSH1 0x40 MLOAD DUP1 SWAP2 SUB SWAP1 LOG3 PUSH1 0x1 SWAP1 POP JUMPDEST SWAP3 SWAP2 POP POP JUMP JUMPDEST PUSH0 PUSH1 0x6 PUSH0 SWAP1 SLOAD SWAP1 PUSH2 0x100 EXP SWAP1 DIV PUSH20 0xFFFFFFFFFFFFFFFFFFFFFFFFFFFFFFFFFFFFFFFF AND DUP1 PUSH20 0xFFFFFFFFFFFFFFFFFFFFFFFFFFFFFFFFFFFFFFFF AND CALLER PUSH20 0xFFFFFFFFFFFFFFFFFFFFFFFFFFFFFFFFFFFFFFFF AND EQ PUSH2 0x5E1 JUMPI PUSH1 0x40 MLOAD PUSH32 0x8C379A000000000000000000000000000000000000000000000000000000000 DUP2 MSTORE PUSH1 0x4 ADD PUSH2 0x5D8 SWAP1 PUSH2 0x164A JUMP JUMPDEST PUSH1 0x40 MLOAD DUP1 SWAP2 SUB SWAP1 REVERT JUMPDEST PUSH1 0x6 PUSH0 SWAP1 SLOAD SWAP1 PUSH2 0x100 EXP SWAP1 DIV PUSH20 0xFFFFFFFFFFFFFFFFFFFFFFFFFFFFFFFFFFFFFFFF AND PUSH1 0x5 PUSH0 PUSH2 0x100 EXP DUP2 SLOAD DUP2 PUSH20 0xFFFFFFFFFFFFFFFFFFFFFFFFFFFFFFFFFFFFFFFF MUL NOT AND SWAP1 DUP4 PUSH20 0xFFFFFFFFFFFFFFFFFFFFFFFFFFFFFFFFFFFFFFFF AND MUL OR SWAP1 SSTORE POP PUSH0 PUSH1 0x6 PUSH0 PUSH2 0x100 EXP DUP2 SLOAD DUP2 PUSH20 0xFFFFFFFFFFFFFFFFFFFFFFFFFFFFFFFFFFFFFFFF MUL NOT AND SWAP1 DUP4 PUSH20 0xFFFFFFFFFFFFFFFFFFFFFFFFFFFFFFFFFFFFFFFF AND MUL OR SWAP1 SSTORE POP PUSH1 0x5 PUSH0 SWAP1 SLOAD SWAP1 PUSH2 0x100 EXP SWAP1 DIV PUSH20 0xFFFFFFFFFFFFFFFFFFFFFFFFFFFFFFFFFFFFFFFF AND PUSH20 0xFFFFFFFFFFFFFFFFFFFFFFFFFFFFFFFFFFFFFFFF AND PUSH32 0x96A25B4900CEBF93ED691B1C763E37A5A01CD4B9B62E0DF10688A47856DEF7A5 PUSH1 0x40 MLOAD PUSH1 0x40 MLOAD DUP1 SWAP2 SUB SWAP1 LOG2 PUSH1 0x1 SWAP2 POP POP SWAP1 JUMP JUMPDEST PUSH1 0x3 SLOAD DUP2 JUMP JUMPDEST PUSH0 PUSH1 0x5 PUSH0 SWAP1 SLOAD SWAP1 PUSH2 0x100 EXP SWAP1 DIV PUSH20 0xFFFFFFFFFFFFFFFFFFFFFFFFFFFFFFFFFFFFFFFF AND DUP1 PUSH20 0xFFFFFFFFFFFFFFFFFFFFFFFFFFFFFFFFFFFFFFFF AND CALLER PUSH20 0xFFFFFFFFFFFFFFFFFFFFFFFFFFFFFFFFFFFFFFFF AND EQ PUSH2 0x785 JUMPI PUSH1 0x40 MLOAD PUSH32 0x8C379A000000000000000000000000000000000000000000000000000000000 DUP2 MSTORE PUSH1 0x4 ADD PUSH2 0x77C SWAP1 PUSH2 0x164A JUMP JUMPDEST PUSH1 0x40 MLOAD DUP1 SWAP2 SUB SWAP1 REVERT JUMPDEST DUP3 DUP1 PUSH20 0xFFFFFFFFFFFFFFFFFFFFFFFFFFFFFFFFFFFFFFFF AND PUSH0 PUSH20 0xFFFFFFFFFFFFFFFFFFFFFFFFFFFFFFFFFFFFFFFF AND SUB PUSH2 0x7F4 JUMPI PUSH1 0x40 MLOAD PUSH32 0x8C379A000000000000000000000000000000000000000000000000000000000 DUP2 MSTORE PUSH1 0x4 ADD PUSH2 0x7EB SWAP1 PUSH2 0x16D8 JUMP JUMPDEST PUSH1 0x40 MLOAD DUP1 SWAP2 SUB SWAP1 REVERT JUMPDEST DUP4 PUSH1 0x6 PUSH0 PUSH2 0x100 EXP DUP2 SLOAD DUP2 PUSH20 0xFFFFFFFFFFFFFFFFFFFFFFFFFFFFFFFFFFFFFFFF MUL NOT AND SWAP1 DUP4 PUSH20 0xFFFFFFFFFFFFFFFFFFFFFFFFFFFFFFFFFFFFFFFF AND MUL OR SWAP1 SSTORE POP PUSH1 0x6 PUSH0 SWAP1 SLOAD SWAP1 PUSH2 0x100 EXP SWAP1 DIV PUSH20 0xFFFFFFFFFFFFFFFFFFFFFFFFFFFFFFFFFFFFFFFF AND PUSH20 0xFFFFFFFFFFFFFFFFFFFFFFFFFFFFFFFFFFFFFFFF AND PUSH1 0x5 PUSH0 SWAP1 SLOAD SWAP1 PUSH2 0x100 EXP SWAP1 DIV PUSH20 0xFFFFFFFFFFFFFFFFFFFFFFFFFFFFFFFFFFFFFFFF AND PUSH20 0xFFFFFFFFFFFFFFFFFFFFFFFFFFFFFFFFFFFFFFFF AND PUSH32 0x79D2E4FF11F0C38E318513361054112B3865CA4F53B3C97152AF0640DB000E25 PUSH1 0x40 MLOAD PUSH1 0x40 MLOAD DUP1 SWAP2 SUB SWAP1 LOG3 PUSH1 0x1 SWAP3 POP POP POP SWAP2 SWAP1 POP JUMP JUMPDEST PUSH0 DUP1 DUP3 EQ DUP1 PUSH2 0x915 JUMPI POP PUSH0 PUSH20 0xFFFFFFFFFFFFFFFFFFFFFFFFFFFFFFFFFFFFFFFF AND DUP4 PUSH20 0xFFFFFFFFFFFFFFFFFFFFFFFFFFFFFFFFFFFFFFFF AND EQ JUMPDEST DUP1 PUSH2 0x95C JUMPI POP DUP2 PUSH1 0x7 PUSH0 DUP7 PUSH20 0xFFFFFFFFFFFFFFFFFFFFFFFFFFFFFFFFFFFFFFFF AND PUSH20 0xFFFFFFFFFFFFFFFFFFFFFFFFFFFFFFFFFFFFFFFF AND DUP2 MSTORE PUSH1 0x20 ADD SWAP1 DUP2 MSTORE PUSH1 0x20 ADD PUSH0 KECCAK256 SLOAD LT JUMPDEST DUP1 PUSH2 0x9DE JUMPI POP DUP2 PUSH1 0x8 PUSH0 DUP7 PUSH20 0xFFFFFFFFFFFFFFFFFFFFFFFFFFFFFFFFFFFFFFFF AND PUSH20 0xFFFFFFFFFFFFFFFFFFFFFFFFFFFFFFFFFFFFFFFF AND DUP2 MSTORE PUSH1 0x20 ADD SWAP1 DUP2 MSTORE PUSH1 0x20 ADD PUSH0 KECCAK256 PUSH0 CALLER PUSH20 0xFFFFFFFFFFFFFFFFFFFFFFFFFFFFFFFFFFFFFFFF AND PUSH20 0xFFFFFFFFFFFFFFFFFFFFFFFFFFFFFFFFFFFFFFFF AND DUP2 MSTORE PUSH1 0x20 ADD SWAP1 DUP2 MSTORE PUSH1 0x20 ADD PUSH0 KECCAK256 SLOAD LT JUMPDEST ISZERO PUSH2 0x9EB JUMPI PUSH0 SWAP1 POP PUSH2 0xB89 JUMP JUMPDEST DUP2 PUSH1 0x8 PUSH0 DUP7 PUSH20 0xFFFFFFFFFFFFFFFFFFFFFFFFFFFFFFFFFFFFFFFF AND PUSH20 0xFFFFFFFFFFFFFFFFFFFFFFFFFFFFFFFFFFFFFFFF AND DUP2 MSTORE PUSH1 0x20 ADD SWAP1 DUP2 MSTORE PUSH1 0x20 ADD PUSH0 KECCAK256 PUSH0 CALLER PUSH20 0xFFFFFFFFFFFFFFFFFFFFFFFFFFFFFFFFFFFFFFFF AND PUSH20 0xFFFFFFFFFFFFFFFFFFFFFFFFFFFFFFFFFFFFFFFF AND DUP2 MSTORE PUSH1 0x20 ADD SWAP1 DUP2 MSTORE PUSH1 0x20 ADD PUSH0 KECCAK256 PUSH0 DUP3 DUP3 SLOAD PUSH2 0xA72 SWAP2 SWAP1 PUSH2 0x1723 JUMP JUMPDEST SWAP3 POP POP DUP2 SWAP1 SSTORE POP DUP2 PUSH1 0x7 PUSH0 DUP7 PUSH20 0xFFFFFFFFFFFFFFFFFFFFFFFFFFFFFFFFFFFFFFFF AND PUSH20 0xFFFFFFFFFFFFFFFFFFFFFFFFFFFFFFFFFFFFFFFF AND DUP2 MSTORE PUSH1 0x20 ADD SWAP1 DUP2 MSTORE PUSH1 0x20 ADD PUSH0 KECCAK256 PUSH0 DUP3 DUP3 SLOAD PUSH2 0xAC5 SWAP2 SWAP1 PUSH2 0x1723 JUMP JUMPDEST SWAP3 POP POP DUP2 SWAP1 SSTORE POP DUP2 PUSH1 0x7 PUSH0 DUP6 PUSH20 0xFFFFFFFFFFFFFFFFFFFFFFFFFFFFFFFFFFFFFFFF AND PUSH20 0xFFFFFFFFFFFFFFFFFFFFFFFFFFFFFFFFFFFFFFFF AND DUP2 MSTORE PUSH1 0x20 ADD SWAP1 DUP2 MSTORE PUSH1 0x20 ADD PUSH0 KECCAK256 PUSH0 DUP3 DUP3 SLOAD PUSH2 0xB18 SWAP2 SWAP1 PUSH2 0x1756 JUMP JUMPDEST SWAP3 POP POP DUP2 SWAP1 SSTORE POP DUP3 PUSH20 0xFFFFFFFFFFFFFFFFFFFFFFFFFFFFFFFFFFFFFFFF AND DUP5 PUSH20 0xFFFFFFFFFFFFFFFFFFFFFFFFFFFFFFFFFFFFFFFF AND PUSH32 0xDDF252AD1BE2C89B69C2B068FC378DAA952BA7F163C4A11628F55A4DF523B3EF DUP5 PUSH1 0x40 MLOAD PUSH2 0xB7C SWAP2 SWAP1 PUSH2 0x1475 JUMP JUMPDEST PUSH1 0x40 MLOAD DUP1 SWAP2 SUB SWAP1 LOG3 PUSH1 0x1 SWAP1 POP JUMPDEST SWAP4 SWAP3 POP POP POP JUMP JUMPDEST PUSH1 0x2 PUSH0 SWAP1 SLOAD SWAP1 PUSH2 0x100 EXP SWAP1 DIV PUSH1 0xFF AND DUP2 JUMP JUMPDEST PUSH1 0x5 PUSH0 SWAP1 SLOAD SWAP1 PUSH2 0x100 EXP SWAP1 DIV PUSH20 0xFFFFFFFFFFFFFFFFFFFFFFFFFFFFFFFFFFFFFFFF AND DUP1 PUSH20 0xFFFFFFFFFFFFFFFFFFFFFFFFFFFFFFFFFFFFFFFF AND CALLER PUSH20 0xFFFFFFFFFFFFFFFFFFFFFFFFFFFFFFFFFFFFFFFF AND EQ PUSH2 0xC32 JUMPI PUSH1 0x40 MLOAD PUSH32 0x8C379A000000000000000000000000000000000000000000000000000000000 DUP2 MSTORE PUSH1 0x4 ADD PUSH2 0xC29 SWAP1 PUSH2 0x164A JUMP JUMPDEST PUSH1 0x40 MLOAD DUP1 SWAP2 SUB SWAP1 REVERT JUMPDEST DUP2 PUSH0 DUP2 SUB PUSH2 0xC75 JUMPI PUSH1 0x40 MLOAD PUSH32 0x8C379A000000000000000000000000000000000000000000000000000000000 DUP2 MSTORE PUSH1 0x4 ADD PUSH2 0xC6C SWAP1 PUSH2 0x17D3 JUMP JUMPDEST PUSH1 0x40 MLOAD DUP1 SWAP2 SUB SWAP1 REVERT JUMPDEST DUP4 DUP1 PUSH20 0xFFFFFFFFFFFFFFFFFFFFFFFFFFFFFFFFFFFFFFFF AND PUSH0 PUSH20 0xFFFFFFFFFFFFFFFFFFFFFFFFFFFFFFFFFFFFFFFF AND SUB PUSH2 0xCE4 JUMPI PUSH1 0x40 MLOAD PUSH32 0x8C379A000000000000000000000000000000000000000000000000000000000 DUP2 MSTORE PUSH1 0x4 ADD PUSH2 0xCDB SWAP1 PUSH2 0x16D8 JUMP JUMPDEST PUSH1 0x40 MLOAD DUP1 SWAP2 SUB SWAP1 REVERT JUMPDEST PUSH1 0x4 SLOAD DUP5 PUSH1 0x3 SLOAD PUSH2 0xCF5 SWAP2 SWAP1 PUSH2 0x1756 JUMP JUMPDEST GT ISZERO PUSH2 0xCFF JUMPI PUSH0 DUP1 REVERT JUMPDEST PUSH2 0xD09 DUP6 DUP6 PUSH2 0x112C JUMP JUMPDEST POP POP POP POP POP JUMP JUMPDEST PUSH1 0x6 PUSH0 SWAP1 SLOAD SWAP1 PUSH2 0x100 EXP SWAP1 DIV PUSH20 0xFFFFFFFFFFFFFFFFFFFFFFFFFFFFFFFFFFFFFFFF AND DUP2 JUMP JUMPDEST PUSH1 0x7 PUSH1 0x20 MSTORE DUP1 PUSH0 MSTORE PUSH1 0x40 PUSH0 KECCAK256 PUSH0 SWAP2 POP SWAP1 POP SLOAD DUP2 JUMP JUMPDEST PUSH1 0x1 DUP1 SLOAD PUSH2 0xD57 SWAP1 PUSH2 0x15D0 JUMP JUMPDEST DUP1 PUSH1 0x1F ADD PUSH1 0x20 DUP1 SWAP2 DIV MUL PUSH1 0x20 ADD PUSH1 0x40 MLOAD SWAP1 DUP2 ADD PUSH1 0x40 MSTORE DUP1 SWAP3 SWAP2 SWAP1 DUP2 DUP2 MSTORE PUSH1 0x20 ADD DUP3 DUP1 SLOAD PUSH2 0xD83 SWAP1 PUSH2 0x15D0 JUMP JUMPDEST DUP1 ISZERO PUSH2 0xDCE JUMPI DUP1 PUSH1 0x1F LT PUSH2 0xDA5 JUMPI PUSH2 0x100 DUP1 DUP4 SLOAD DIV MUL DUP4 MSTORE SWAP2 PUSH1 0x20 ADD SWAP2 PUSH2 0xDCE JUMP JUMPDEST DUP3 ADD SWAP2 SWAP1 PUSH0 MSTORE PUSH1 0x20 PUSH0 KECCAK256 SWAP1 JUMPDEST DUP2 SLOAD DUP2 MSTORE SWAP1 PUSH1 0x1 ADD SWAP1 PUSH1 0x20 ADD DUP1 DUP4 GT PUSH2 0xDB1 JUMPI DUP3 SWAP1 SUB PUSH1 0x1F AND DUP3 ADD SWAP2 JUMPDEST POP POP POP POP POP DUP2 JUMP JUMPDEST PUSH1 0x5 PUSH0 SWAP1 SLOAD SWAP1 PUSH2 0x100 EXP SWAP1 DIV PUSH20 0xFFFFFFFFFFFFFFFFFFFFFFFFFFFFFFFFFFFFFFFF AND DUP1 PUSH20 0xFFFFFFFFFFFFFFFFFFFFFFFFFFFFFFFFFFFFFFFF AND CALLER PUSH20 0xFFFFFFFFFFFFFFFFFFFFFFFFFFFFFFFFFFFFFFFF AND EQ PUSH2 0xE66 JUMPI PUSH1 0x40 MLOAD PUSH32 0x8C379A000000000000000000000000000000000000000000000000000000000 DUP2 MSTORE PUSH1 0x4 ADD PUSH2 0xE5D SWAP1 PUSH2 0x164A JUMP JUMPDEST PUSH1 0x40 MLOAD DUP1 SWAP2 SUB SWAP1 REVERT JUMPDEST DUP2 PUSH0 DUP2 SUB PUSH2 0xEA9 JUMPI PUSH1 0x40 MLOAD PUSH32 0x8C379A000000000000000000000000000000000000000000000000000000000 DUP2 MSTORE PUSH1 0x4 ADD PUSH2 0xEA0 SWAP1 PUSH2 0x17D3 JUMP JUMPDEST PUSH1 0x40 MLOAD DUP1 SWAP2 SUB SWAP1 REVERT JUMPDEST DUP4 DUP4 DUP1 PUSH1 0x7 PUSH0 DUP5 PUSH20 0xFFFFFFFFFFFFFFFFFFFFFFFFFFFFFFFFFFFFFFFF AND PUSH20 0xFFFFFFFFFFFFFFFFFFFFFFFFFFFFFFFFFFFFFFFF AND DUP2 MSTORE PUSH1 0x20 ADD SWAP1 DUP2 MSTORE PUSH1 0x20 ADD PUSH0 KECCAK256 SLOAD LT ISZERO PUSH2 0xF2B JUMPI PUSH1 0x40 MLOAD PUSH32 0x8C379A000000000000000000000000000000000000000000000000000000000 DUP2 MSTORE PUSH1 0x4 ADD PUSH2 0xF22 SWAP1 PUSH2 0x1861 JUMP JUMPDEST PUSH1 0x40 MLOAD DUP1 SWAP2 SUB SWAP1 REVERT JUMPDEST PUSH2 0xF35 DUP7 DUP7 PUSH2 0x1200 JUMP JUMPDEST POP POP POP POP POP POP JUMP JUMPDEST PUSH1 0x5 PUSH0 SWAP1 SLOAD SWAP1 PUSH2 0x100 EXP SWAP1 DIV PUSH20 0xFFFFFFFFFFFFFFFFFFFFFFFFFFFFFFFFFFFFFFFF AND DUP2 JUMP JUMPDEST PUSH0 DUP1 DUP3 EQ DUP1 PUSH2 0xF9C JUMPI POP PUSH0 PUSH20 0xFFFFFFFFFFFFFFFFFFFFFFFFFFFFFFFFFFFFFFFF AND DUP4 PUSH20 0xFFFFFFFFFFFFFFFFFFFFFFFFFFFFFFFFFFFFFFFF AND EQ JUMPDEST DUP1 PUSH2 0xFE3 JUMPI POP DUP2 PUSH1 0x7 PUSH0 CALLER PUSH20 0xFFFFFFFFFFFFFFFFFFFFFFFFFFFFFFFFFFFFFFFF AND PUSH20 0xFFFFFFFFFFFFFFFFFFFFFFFFFFFFFFFFFFFFFFFF AND DUP2 MSTORE PUSH1 0x20 ADD SWAP1 DUP2 MSTORE PUSH1 0x20 ADD PUSH0 KECCAK256 SLOAD LT JUMPDEST ISZERO PUSH2 0xFF0 JUMPI PUSH0 SWAP1 POP PUSH2 0x1100 JUMP JUMPDEST DUP2 PUSH1 0x7 PUSH0 CALLER PUSH20 0xFFFFFFFFFFFFFFFFFFFFFFFFFFFFFFFFFFFFFFFF AND PUSH20 0xFFFFFFFFFFFFFFFFFFFFFFFFFFFFFFFFFFFFFFFF AND DUP2 MSTORE PUSH1 0x20 ADD SWAP1 DUP2 MSTORE PUSH1 0x20 ADD PUSH0 KECCAK256 PUSH0 DUP3 DUP3 SLOAD PUSH2 0x103C SWAP2 SWAP1 PUSH2 0x1723 JUMP JUMPDEST SWAP3 POP POP DUP2 SWAP1 SSTORE POP DUP2 PUSH1 0x7 PUSH0 DUP6 PUSH20 0xFFFFFFFFFFFFFFFFFFFFFFFFFFFFFFFFFFFFFFFF AND PUSH20 0xFFFFFFFFFFFFFFFFFFFFFFFFFFFFFFFFFFFFFFFF AND DUP2 MSTORE PUSH1 0x20 ADD SWAP1 DUP2 MSTORE PUSH1 0x20 ADD PUSH0 KECCAK256 PUSH0 DUP3 DUP3 SLOAD PUSH2 0x108F SWAP2 SWAP1 PUSH2 0x1756 JUMP JUMPDEST SWAP3 POP POP DUP2 SWAP1 SSTORE POP DUP3 PUSH20 0xFFFFFFFFFFFFFFFFFFFFFFFFFFFFFFFFFFFFFFFF AND CALLER PUSH20 0xFFFFFFFFFFFFFFFFFFFFFFFFFFFFFFFFFFFFFFFF AND PUSH32 0xDDF252AD1BE2C89B69C2B068FC378DAA952BA7F163C4A11628F55A4DF523B3EF DUP5 PUSH1 0x40 MLOAD PUSH2 0x10F3 SWAP2 SWAP1 PUSH2 0x1475 JUMP JUMPDEST PUSH1 0x40 MLOAD DUP1 SWAP2 SUB SWAP1 LOG3 PUSH1 0x1 SWAP1 POP JUMPDEST SWAP3 SWAP2 POP POP JUMP JUMPDEST PUSH1 0x4 SLOAD DUP2 JUMP JUMPDEST PUSH1 0x8 PUSH1 0x20 MSTORE DUP2 PUSH0 MSTORE PUSH1 0x40 PUSH0 KECCAK256 PUSH1 0x20 MSTORE DUP1 PUSH0 MSTORE PUSH1 0x40 PUSH0 KECCAK256 PUSH0 SWAP2 POP SWAP2 POP POP SLOAD DUP2 JUMP JUMPDEST DUP1 PUSH1 0x7 PUSH0 DUP5 PUSH20 0xFFFFFFFFFFFFFFFFFFFFFFFFFFFFFFFFFFFFFFFF AND PUSH20 0xFFFFFFFFFFFFFFFFFFFFFFFFFFFFFFFFFFFFFFFF AND DUP2 MSTORE PUSH1 0x20 ADD SWAP1 DUP2 MSTORE PUSH1 0x20 ADD PUSH0 KECCAK256 PUSH0 DUP3 DUP3 SLOAD PUSH2 0x1178 SWAP2 SWAP1 PUSH2 0x1756 JUMP JUMPDEST SWAP3 POP POP DUP2 SWAP1 SSTORE POP DUP1 PUSH1 0x3 PUSH0 DUP3 DUP3 SLOAD PUSH2 0x1190 SWAP2 SWAP1 PUSH2 0x1756 JUMP JUMPDEST SWAP3 POP POP DUP2 SWAP1 SSTORE POP DUP2 PUSH20 0xFFFFFFFFFFFFFFFFFFFFFFFFFFFFFFFFFFFFFFFF AND PUSH0 PUSH20 0xFFFFFFFFFFFFFFFFFFFFFFFFFFFFFFFFFFFFFFFF AND PUSH32 0xDDF252AD1BE2C89B69C2B068FC378DAA952BA7F163C4A11628F55A4DF523B3EF DUP4 PUSH1 0x40 MLOAD PUSH2 0x11F4 SWAP2 SWAP1 PUSH2 0x1475 JUMP JUMPDEST PUSH1 0x40 MLOAD DUP1 SWAP2 SUB SWAP1 LOG3 POP POP JUMP JUMPDEST DUP1 PUSH1 0x7 PUSH0 DUP5 PUSH20 0xFFFFFFFFFFFFFFFFFFFFFFFFFFFFFFFFFFFFFFFF AND PUSH20 0xFFFFFFFFFFFFFFFFFFFFFFFFFFFFFFFFFFFFFFFF AND DUP2 MSTORE PUSH1 0x20 ADD SWAP1 DUP2 MSTORE PUSH1 0x20 ADD PUSH0 KECCAK256 PUSH0 DUP3 DUP3 SLOAD PUSH2 0x124C SWAP2 SWAP1 PUSH2 0x1723 JUMP JUMPDEST SWAP3 POP POP DUP2 SWAP1 SSTORE POP DUP1 PUSH1 0x3 PUSH0 DUP3 DUP3 SLOAD PUSH2 0x1264 SWAP2 SWAP1 PUSH2 0x1723 JUMP JUMPDEST SWAP3 POP POP DUP2 SWAP1 SSTORE POP PUSH0 PUSH20 0xFFFFFFFFFFFFFFFFFFFFFFFFFFFFFFFFFFFFFFFF AND DUP3 PUSH20 0xFFFFFFFFFFFFFFFFFFFFFFFFFFFFFFFFFFFFFFFF AND PUSH32 0xDDF252AD1BE2C89B69C2B068FC378DAA952BA7F163C4A11628F55A4DF523B3EF DUP4 PUSH1 0x40 MLOAD PUSH2 0x12C8 SWAP2 SWAP1 PUSH2 0x1475 JUMP JUMPDEST PUSH1 0x40 MLOAD DUP1 SWAP2 SUB SWAP1 LOG3 POP POP JUMP JUMPDEST PUSH0 DUP2 MLOAD SWAP1 POP SWAP2 SWAP1 POP JUMP JUMPDEST PUSH0 DUP3 DUP3 MSTORE PUSH1 0x20 DUP3 ADD SWAP1 POP SWAP3 SWAP2 POP POP JUMP JUMPDEST DUP3 DUP2 DUP4 MCOPY PUSH0 DUP4 DUP4 ADD MSTORE POP POP POP JUMP JUMPDEST PUSH0 PUSH1 0x1F NOT PUSH1 0x1F DUP4 ADD AND SWAP1 POP SWAP2 SWAP1 POP JUMP JUMPDEST PUSH0 PUSH2 0x1316 DUP3 PUSH2 0x12D4 JUMP JUMPDEST PUSH2 0x1320 DUP2 DUP6 PUSH2 0x12DE JUMP JUMPDEST SWAP4 POP PUSH2 0x1330 DUP2 DUP6 PUSH1 0x20 DUP7 ADD PUSH2 0x12EE JUMP JUMPDEST PUSH2 0x1339 DUP2 PUSH2 0x12FC JUMP JUMPDEST DUP5 ADD SWAP2 POP POP SWAP3 SWAP2 POP POP JUMP JUMPDEST PUSH0 PUSH1 0x20 DUP3 ADD SWAP1 POP DUP2 DUP2 SUB PUSH0 DUP4 ADD MSTORE PUSH2 0x135C DUP2 DUP5 PUSH2 0x130C JUMP JUMPDEST SWAP1 POP SWAP3 SWAP2 POP POP JUMP JUMPDEST PUSH0 DUP1 REVERT JUMPDEST PUSH0 PUSH20 0xFFFFFFFFFFFFFFFFFFFFFFFFFFFFFFFFFFFFFFFF DUP3 AND SWAP1 POP SWAP2 SWAP1 POP JUMP JUMPDEST PUSH0 PUSH2 0x1391 DUP3 PUSH2 0x1368 JUMP JUMPDEST SWAP1 POP SWAP2 SWAP1 POP JUMP JUMPDEST PUSH2 0x13A1 DUP2 PUSH2 0x1387 JUMP JUMPDEST DUP2 EQ PUSH2 0x13AB JUMPI PUSH0 DUP1 REVERT JUMPDEST POP JUMP JUMPDEST PUSH0 DUP2 CALLDATALOAD SWAP1 POP PUSH2 0x13BC DUP2 PUSH2 0x1398 JUMP JUMPDEST SWAP3 SWAP2 POP POP JUMP JUMPDEST PUSH0 DUP2 SWAP1 POP SWAP2 SWAP1 POP JUMP JUMPDEST PUSH2 0x13D4 DUP2 PUSH2 0x13C2 JUMP JUMPDEST DUP2 EQ PUSH2 0x13DE JUMPI PUSH0 DUP1 REVERT JUMPDEST POP JUMP JUMPDEST PUSH0 DUP2 CALLDATALOAD SWAP1 POP PUSH2 0x13EF DUP2 PUSH2 0x13CB JUMP JUMPDEST SWAP3 SWAP2 POP POP JUMP JUMPDEST PUSH0 DUP1 PUSH1 0x40 DUP4 DUP6 SUB SLT ISZERO PUSH2 0x140B JUMPI PUSH2 0x140A PUSH2 0x1364 JUMP JUMPDEST JUMPDEST PUSH0 PUSH2 0x1418 DUP6 DUP3 DUP7 ADD PUSH2 0x13AE JUMP JUMPDEST SWAP3 POP POP PUSH1 0x20 PUSH2 0x1429 DUP6 DUP3 DUP7 ADD PUSH2 0x13E1 JUMP JUMPDEST SWAP2 POP POP SWAP3 POP SWAP3 SWAP1 POP JUMP JUMPDEST PUSH0 DUP2 ISZERO ISZERO SWAP1 POP SWAP2 SWAP1 POP JUMP JUMPDEST PUSH2 0x1447 DUP2 PUSH2 0x1433 JUMP JUMPDEST DUP3 MSTORE POP POP JUMP JUMPDEST PUSH0 PUSH1 0x20 DUP3 ADD SWAP1 POP PUSH2 0x1460 PUSH0 DUP4 ADD DUP5 PUSH2 0x143E JUMP JUMPDEST SWAP3 SWAP2 POP POP JUMP JUMPDEST PUSH2 0x146F DUP2 PUSH2 0x13C2 JUMP JUMPDEST DUP3 MSTORE POP POP JUMP JUMPDEST PUSH0 PUSH1 0x20 DUP3 ADD SWAP1 POP PUSH2 0x1488 PUSH0 DUP4 ADD DUP5 PUSH2 0x1466 JUMP JUMPDEST SWAP3 SWAP2 POP POP JUMP JUMPDEST PUSH0 PUSH1 0x20 DUP3 DUP5 SUB SLT ISZERO PUSH2 0x14A3 JUMPI PUSH2 0x14A2 PUSH2 0x1364 JUMP JUMPDEST JUMPDEST PUSH0 PUSH2 0x14B0 DUP5 DUP3 DUP6 ADD PUSH2 0x13AE JUMP JUMPDEST SWAP2 POP POP SWAP3 SWAP2 POP POP JUMP JUMPDEST PUSH0 DUP1 PUSH0 PUSH1 0x60 DUP5 DUP7 SUB SLT ISZERO PUSH2 0x14D0 JUMPI PUSH2 0x14CF PUSH2 0x1364 JUMP JUMPDEST JUMPDEST PUSH0 PUSH2 0x14DD DUP7 DUP3 DUP8 ADD PUSH2 0x13AE JUMP JUMPDEST SWAP4 POP POP PUSH1 0x20 PUSH2 0x14EE DUP7 DUP3 DUP8 ADD PUSH2 0x13AE JUMP JUMPDEST SWAP3 POP POP PUSH1 0x40 PUSH2 0x14FF DUP7 DUP3 DUP8 ADD PUSH2 0x13E1 JUMP JUMPDEST SWAP2 POP POP SWAP3 POP SWAP3 POP SWAP3 JUMP JUMPDEST PUSH0 PUSH1 0xFF DUP3 AND SWAP1 POP SWAP2 SWAP1 POP JUMP JUMPDEST PUSH2 0x151E DUP2 PUSH2 0x1509 JUMP JUMPDEST DUP3 MSTORE POP POP JUMP JUMPDEST PUSH0 PUSH1 0x20 DUP3 ADD SWAP1 POP PUSH2 0x1537 PUSH0 DUP4 ADD DUP5 PUSH2 0x1515 JUMP JUMPDEST SWAP3 SWAP2 POP POP JUMP JUMPDEST PUSH2 0x1546 DUP2 PUSH2 0x1387 JUMP JUMPDEST DUP3 MSTORE POP POP JUMP JUMPDEST PUSH0 PUSH1 0x20 DUP3 ADD SWAP1 POP PUSH2 0x155F PUSH0 DUP4 ADD DUP5 PUSH2 0x153D JUMP JUMPDEST SWAP3 SWAP2 POP POP JUMP JUMPDEST PUSH0 DUP1 PUSH1 0x40 DUP4 DUP6 SUB SLT ISZERO PUSH2 0x157B JUMPI PUSH2 0x157A PUSH2 0x1364 JUMP JUMPDEST JUMPDEST PUSH0 PUSH2 0x1588 DUP6 DUP3 DUP7 ADD PUSH2 0x13AE JUMP JUMPDEST SWAP3 POP POP PUSH1 0x20 PUSH2 0x1599 DUP6 DUP3 DUP7 ADD PUSH2 0x13AE JUMP JUMPDEST SWAP2 POP POP SWAP3 POP SWAP3 SWAP1 POP JUMP JUMPDEST PUSH32 0x4E487B7100000000000000000000000000000000000000000000000000000000 PUSH0 MSTORE PUSH1 0x22 PUSH1 0x4 MSTORE PUSH1 0x24 PUSH0 REVERT JUMPDEST PUSH0 PUSH1 0x2 DUP3 DIV SWAP1 POP PUSH1 0x1 DUP3 AND DUP1 PUSH2 0x15E7 JUMPI PUSH1 0x7F DUP3 AND SWAP2 POP JUMPDEST PUSH1 0x20 DUP3 LT DUP2 SUB PUSH2 0x15FA JUMPI PUSH2 0x15F9 PUSH2 0x15A3 JUMP JUMPDEST JUMPDEST POP SWAP2 SWAP1 POP JUMP JUMPDEST PUSH32 0x43616C6C6572206973206E6F7420617574686F72697A65640000000000000000 PUSH0 DUP3 ADD MSTORE POP JUMP JUMPDEST PUSH0 PUSH2 0x1634 PUSH1 0x18 DUP4 PUSH2 0x12DE JUMP JUMPDEST SWAP2 POP PUSH2 0x163F DUP3 PUSH2 0x1600 JUMP JUMPDEST PUSH1 0x20 DUP3 ADD SWAP1 POP SWAP2 SWAP1 POP JUMP JUMPDEST PUSH0 PUSH1 0x20 DUP3 ADD SWAP1 POP DUP2 DUP2 SUB PUSH0 DUP4 ADD MSTORE PUSH2 0x1661 DUP2 PUSH2 0x1628 JUMP JUMPDEST SWAP1 POP SWAP2 SWAP1 POP JUMP JUMPDEST PUSH32 0x5472616E7366657220746F20746865207A65726F206164647265737320697320 PUSH0 DUP3 ADD MSTORE PUSH32 0x6E6F7420616C6C6F776564000000000000000000000000000000000000000000 PUSH1 0x20 DUP3 ADD MSTORE POP JUMP JUMPDEST PUSH0 PUSH2 0x16C2 PUSH1 0x2B DUP4 PUSH2 0x12DE JUMP JUMPDEST SWAP2 POP PUSH2 0x16CD DUP3 PUSH2 0x1668 JUMP JUMPDEST PUSH1 0x40 DUP3 ADD SWAP1 POP SWAP2 SWAP1 POP JUMP JUMPDEST PUSH0 PUSH1 0x20 DUP3 ADD SWAP1 POP DUP2 DUP2 SUB PUSH0 DUP4 ADD MSTORE PUSH2 0x16EF DUP2 PUSH2 0x16B6 JUMP JUMPDEST SWAP1 POP SWAP2 SWAP1 POP JUMP JUMPDEST PUSH32 0x4E487B7100000000000000000000000000000000000000000000000000000000 PUSH0 MSTORE PUSH1 0x11 PUSH1 0x4 MSTORE PUSH1 0x24 PUSH0 REVERT JUMPDEST PUSH0 PUSH2 0x172D DUP3 PUSH2 0x13C2 JUMP JUMPDEST SWAP2 POP PUSH2 0x1738 DUP4 PUSH2 0x13C2 JUMP JUMPDEST SWAP3 POP DUP3 DUP3 SUB SWAP1 POP DUP2 DUP2 GT ISZERO PUSH2 0x1750 JUMPI PUSH2 0x174F PUSH2 0x16F6 JUMP JUMPDEST JUMPDEST SWAP3 SWAP2 POP POP JUMP JUMPDEST PUSH0 PUSH2 0x1760 DUP3 PUSH2 0x13C2 JUMP JUMPDEST SWAP2 POP PUSH2 0x176B DUP4 PUSH2 0x13C2 JUMP JUMPDEST SWAP3 POP DUP3 DUP3 ADD SWAP1 POP DUP1 DUP3 GT ISZERO PUSH2 0x1783 JUMPI PUSH2 0x1782 PUSH2 0x16F6 JUMP JUMPDEST JUMPDEST SWAP3 SWAP2 POP POP JUMP JUMPDEST PUSH32 0x416D6F756E74206D7573742062652067726561746572207468616E207A65726F PUSH0 DUP3 ADD MSTORE POP JUMP JUMPDEST PUSH0 PUSH2 0x17BD PUSH1 0x20 DUP4 PUSH2 0x12DE JUMP JUMPDEST SWAP2 POP PUSH2 0x17C8 DUP3 PUSH2 0x1789 JUMP JUMPDEST PUSH1 0x20 DUP3 ADD SWAP1 POP SWAP2 SWAP1 POP JUMP JUMPDEST PUSH0 PUSH1 0x20 DUP3 ADD SWAP1 POP DUP2 DUP2 SUB PUSH0 DUP4 ADD MSTORE PUSH2 0x17EA DUP2 PUSH2 0x17B1 JUMP JUMPDEST SWAP1 POP SWAP2 SWAP1 POP JUMP JUMPDEST PUSH32 0x43616C6C657220646F6573206E6F7420686176652073756666696369656E7420 PUSH0 DUP3 ADD MSTORE PUSH32 0x62616C616E636500000000000000000000000000000000000000000000000000 PUSH1 0x20 DUP3 ADD MSTORE POP JUMP JUMPDEST PUSH0 PUSH2 0x184B PUSH1 0x27 DUP4 PUSH2 0x12DE JUMP JUMPDEST SWAP2 POP PUSH2 0x1856 DUP3 PUSH2 0x17F1 JUMP JUMPDEST PUSH1 0x40 DUP3 ADD SWAP1 POP SWAP2 SWAP1 POP JUMP JUMPDEST PUSH0 PUSH1 0x20 DUP3 ADD SWAP1 POP DUP2 DUP2 SUB PUSH0 DUP4 ADD MSTORE PUSH2 0x1878 DUP2 PUSH2 0x183F JUMP JUMPDEST SWAP1 POP SWAP2 SWAP1 POP JUMP INVALID LOG2 PUSH5 0x6970667358 0x22 SLT KECCAK256 SWAP16 SHL GASLIMIT 0xB0 DUP1 SLOAD SLOAD 0xE6 0xD0 0xD2 COINBASE BASEFEE 0xEC 0xED 0xEA 0xC0 RETURN DUP5 0xE1 0xAB SWAP13 0xE0 SLT 0xF 0x23 PUSH3 0x54166F 0xF DUP6 DUP12 PUSH5 0x736F6C6343 STOP ADDMOD NOT STOP CALLER "
				},
				"gasEstimates": {
					"creation": {
						"codeDepositCost": "1265000",
						"executionCost": "infinite",
						"totalCost": "infinite"
					},
					"external": {
						"allowance(address,address)": "infinite",
						"approve(address,uint256)": "infinite",
						"balanceOf(address)": "2847",
						"burn(address,uint256)": "infinite",
						"claimTokenOwnership()": "56542",
						"decimals()": "2533",
						"maxSupply()": "2491",
						"mint(address,uint256)": "infinite",
						"name()": "infinite",
						"nextTokenOwner()": "2531",
						"symbol()": "infinite",
						"tokenOwner()": "2530",
						"totalSupply()": "2515",
						"transfer(address,uint256)": "infinite",
						"transferFrom(address,address,uint256)": "infinite",
						"transferTokenOwnership(address)": "32964"
					}
				},
				"methodIdentifiers": {
					"allowance(address,address)": "dd62ed3e",
					"approve(address,uint256)": "095ea7b3",
					"balanceOf(address)": "70a08231",
					"burn(address,uint256)": "9dc29fac",
					"claimTokenOwnership()": "10731a65",
					"decimals()": "313ce567",
					"maxSupply()": "d5abeb01",
					"mint(address,uint256)": "40c10f19",
					"name()": "06fdde03",
					"nextTokenOwner()": "5b833f1e",
					"symbol()": "95d89b41",
					"tokenOwner()": "a3e67610",
					"totalSupply()": "18160ddd",
					"transfer(address,uint256)": "a9059cbb",
					"transferFrom(address,address,uint256)": "23b872dd",
					"transferTokenOwnership(address)": "21e6b53d"
				}
			},
			"storageLayout": {
				"storage": [
					{
						"astId": 6,
						"contract": "src/solt.sol:solt",
						"label": "name",
						"offset": 0,
						"slot": "0",
						"type": "t_string_storage"
					},
					{
						"astId": 8,
						"contract": "src/solt.sol:solt",
						"label": "symbol",
						"offset": 0,
						"slot": "1",
						"type": "t_string_storage"
					},
					{
						"astId": 10,
						"contract": "src/solt.sol:solt",
						"label": "decimals",
						"offset": 0,
						"slot": "2",
						"type": "t_uint8"
					},
					{
						"astId": 12,
						"contract": "src/solt.sol:solt",
						"label": "totalSupply",
						"offset": 0,
						"slot": "3",
						"type": "t_uint256"
					},
					{
						"astId": 14,
						"contract": "src/solt.sol:solt",
						"label": "maxSupply",
						"offset": 0,
						"slot": "4",
						"type": "t_uint256"
					},
					{
						"astId": 16,
						"contract": "src/solt.sol:solt",
						"label": "tokenOwner",
						"offset": 0,
						"slot": "5",
						"type": "t_address"
					},
					{
						"astId": 18,
						"contract": "src/solt.sol:solt",
						"label": "nextTokenOwner",
						"offset": 0,
						"slot": "6",
						"type": "t_address"
					},
					{
						"astId": 22,
						"contract": "src/solt.sol:solt",
						"label": "balanceOf",
						"offset": 0,
						"slot": "7",
						"type": "t_mapping(t_address,t_uint256)"
					},
					{
						"astId": 28,
						"contract": "src/solt.sol:solt",
						"label": "allowance",
						"offset": 0,
						"slot": "8",
						"type": "t_mapping(t_address,t_mapping(t_address,t_uint256))"
					}
				],
				"types": {
					"t_address": {
						"encoding": "inplace",
						"label": "address",
						"numberOfBytes": "20"
					},
					"t_mapping(t_address,t_mapping(t_address,t_uint256))": {
						"encoding": "mapping",
						"key": "t_address",
						"label": "mapping(address => mapping(address => uint256))",
						"numberOfBytes": "32",
						"value": "t_mapping(t_address,t_uint256)"
					},
					"t_mapping(t_address,t_uint256)": {
						"encoding": "mapping",
						"key": "t_address",
						"label": "mapping(address => uint256)",
						"numberOfBytes": "32",
						"value": "t_uint256"
					},
					"t_string_storage": {
						"encoding": "bytes",
						"label": "string",
						"numberOfBytes": "32"
					},
					"t_uint256": {
						"encoding": "inplace",
						"label": "uint256",
						"numberOfBytes": "32"
					},
					"t_uint8": {
						"encoding": "inplace",
						"label": "uint8",
						"numberOfBytes": "1"
					}
				}
			},
			"userdoc": {
				"kind": "user",
				"methods": {},
				"version": 1
			}
		}
	}
}