{
	"src/ERC20.sol": {
		"ERC20": {
			"abi": [
				{
					"inputs": [
						{
							"internalType": "address",
							"name": "_owner",
							"type": "address"
						},
						{
							"internalType": "string",
							"name": "_name",
							"type": "string"
						},
						{
							"internalType": "string",
							"name": "_symbol",
							"type": "string"
						},
						{
							"internalType": "uint8",
							"name": "_decimals",
							"type": "uint8"
						},
						{
							"internalType": "uint256",
							"name": "_maxSupply",
							"type": "uint256"
						}
					],
					"stateMutability": "nonpayable",
					"type": "constructor"
				},
				{
					"anonymous": false,
					"inputs": [
						{
							"indexed": true,
							"internalType": "address",
							"name": "owner",
							"type": "address"
						},
						{
							"indexed": true,
							"internalType": "address",
							"name": "spender",
							"type": "address"
						},
						{
							"indexed": false,
							"internalType": "uint256",
							"name": "value",
							"type": "uint256"
						}
					],
					"name": "Approval",
					"type": "event"
				},
				{
					"anonymous": false,
					"inputs": [
						{
							"indexed": true,
							"internalType": "address",
							"name": "newTokenOwner",
							"type": "address"
						}
					],
					"name": "TokenOwnershipTransferFinished",
					"type": "event"
				},
				{
					"anonymous": false,
					"inputs": [
						{
							"indexed": true,
							"internalType": "address",
							"name": "from",
							"type": "address"
						},
						{
							"indexed": true,
							"internalType": "address",
							"name": "to",
							"type": "address"
						}
					],
					"name": "TokenOwnershipTransferStarted",
					"type": "event"
				},
				{
					"anonymous": false,
					"inputs": [
						{
							"indexed": true,
							"internalType": "address",
							"name": "from",
							"type": "address"
						},
						{
							"indexed": true,
							"internalType": "address",
							"name": "to",
							"type": "address"
						},
						{
							"indexed": false,
							"internalType": "uint256",
							"name": "value",
							"type": "uint256"
						}
					],
					"name": "Transfer",
					"type": "event"
				},
				{
					"inputs": [
						{
							"internalType": "address",
							"name": "",
							"type": "address"
						},
						{
							"internalType": "address",
							"name": "",
							"type": "address"
						}
					],
					"name": "allowance",
					"outputs": [
						{
							"internalType": "uint256",
							"name": "",
							"type": "uint256"
						}
					],
					"stateMutability": "view",
					"type": "function"
				},
				{
					"inputs": [
						{
							"internalType": "address",
							"name": "spender",
							"type": "address"
						},
						{
							"internalType": "uint256",
							"name": "amount",
							"type": "uint256"
						}
					],
					"name": "approve",
					"outputs": [
						{
							"internalType": "bool",
							"name": "",
							"type": "bool"
						}
					],
					"stateMutability": "nonpayable",
					"type": "function"
				},
				{
					"inputs": [
						{
							"internalType": "address",
							"name": "",
							"type": "address"
						}
					],
					"name": "balanceOf",
					"outputs": [
						{
							"internalType": "uint256",
							"name": "",
							"type": "uint256"
						}
					],
					"stateMutability": "view",
					"type": "function"
				},
				{
					"inputs": [
						{
							"internalType": "address",
							"name": "from",
							"type": "address"
						},
						{
							"internalType": "uint256",
							"name": "amount",
							"type": "uint256"
						}
					],
					"name": "burn",
					"outputs": [],
					"stateMutability": "nonpayable",
					"type": "function"
				},
				{
					"inputs": [],
					"name": "claimTokenOwnership",
					"outputs": [
						{
							"internalType": "bool",
							"name": "",
							"type": "bool"
						}
					],
					"stateMutability": "nonpayable",
					"type": "function"
				},
				{
					"inputs": [],
					"name": "decimals",
					"outputs": [
						{
							"internalType": "uint8",
							"name": "",
							"type": "uint8"
						}
					],
					"stateMutability": "view",
					"type": "function"
				},
				{
					"inputs": [],
					"name": "maxSupply",
					"outputs": [
						{
							"internalType": "uint256",
							"name": "",
							"type": "uint256"
						}
					],
					"stateMutability": "view",
					"type": "function"
				},
				{
					"inputs": [
						{
							"internalType": "address",
							"name": "to",
							"type": "address"
						},
						{
							"internalType": "uint256",
							"name": "amount",
							"type": "uint256"
						}
					],
					"name": "mint",
					"outputs": [],
					"stateMutability": "nonpayable",
					"type": "function"
				},
				{
					"inputs": [],
					"name": "name",
					"outputs": [
						{
							"internalType": "string",
							"name": "",
							"type": "string"
						}
					],
					"stateMutability": "view",
					"type": "function"
				},
				{
					"inputs": [],
					"name": "nextTokenOwner",
					"outputs": [
						{
							"internalType": "address",
							"name": "",
							"type": "address"
						}
					],
					"stateMutability": "view",
					"type": "function"
				},
				{
					"inputs": [],
					"name": "symbol",
					"outputs": [
						{
							"internalType": "string",
							"name": "",
							"type": "string"
						}
					],
					"stateMutability": "view",
					"type": "function"
				},
				{
					"inputs": [],
					"name": "tokenOwner",
					"outputs": [
						{
							"internalType": "address",
							"name": "",
							"type": "address"
						}
					],
					"stateMutability": "view",
					"type": "function"
				},
				{
					"inputs": [],
					"name": "totalSupply",
					"outputs": [
						{
							"internalType": "uint256",
							"name": "",
							"type": "uint256"
						}
					],
					"stateMutability": "view",
					"type": "function"
				},
				{
					"inputs": [
						{
							"internalType": "address",
							"name": "recipient",
							"type": "address"
						},
						{
							"internalType": "uint256",
							"name": "amount",
							"type": "uint256"
						}
					],
					"name": "transfer",
					"outputs": [
						{
							"internalType": "bool",
							"name": "",
							"type": "bool"
						}
					],
					"stateMutability": "nonpayable",
					"type": "function"
				},
				{
					"inputs": [
						{
							"internalType": "address",
							"name": "sender",
							"type": "address"
						},
						{
							"internalType": "address",
							"name": "recipient",
							"type": "address"
						},
						{
							"internalType": "uint256",
							"name": "amount",
							"type": "uint256"
						}
					],
					"name": "transferFrom",
					"outputs": [
						{
							"internalType": "bool",
							"name": "",
							"type": "bool"
						}
					],
					"stateMutability": "nonpayable",
					"type": "function"
				},
				{
					"inputs": [
						{
							"internalType": "address",
							"name": "_nextTokenOwner",
							"type": "address"
						}
					],
					"name": "transferTokenOwnership",
					"outputs": [
						{
							"internalType": "bool",
							"name": "",
							"type": "bool"
						}
					],
					"stateMutability": "nonpayable",
					"type": "function"
				}
			],
			"devdoc": {
				"kind": "dev",
				"methods": {},
				"version": 1
			},
			"evm": {
				"assembly": "    /* \"src/ERC20.sol\":185:5392  contract ERC20 is IERC20{... */\n  mstore(0x40, 0xc0)\n    /* \"src/ERC20.sol\":1693:2012  constructor(address _owner, string memory _name, string memory _symbol, uint8 _decimals, uint256 _maxSupply) nonZeroAddress(_owner){... */\n  callvalue\n  dup1\n  iszero\n  tag_1\n  jumpi\n  0x00\n  dup1\n  revert\ntag_1:\n  pop\n  mload(0x40)\n  sub(codesize, bytecodeSize)\n  dup1\n  bytecodeSize\n  dup4\n  codecopy\n  dup2\n  dup2\n  add\n  0x40\n  mstore\n  dup2\n  add\n  swap1\n  tag_2\n  swap2\n  swap1\n  tag_3\n  jump\t// in\ntag_2:\n    /* \"src/ERC20.sol\":1817:1823  _owner */\n  dup5\n    /* \"src/ERC20.sol\":1479:1482  _to */\n  dup1\n    /* \"src/ERC20.sol\":1465:1482  address(0) != _to */\n  0xffffffffffffffffffffffffffffffffffffffff\n  and\n    /* \"src/ERC20.sol\":1473:1474  0 */\n  0x00\n    /* \"src/ERC20.sol\":1465:1482  address(0) != _to */\n  0xffffffffffffffffffffffffffffffffffffffff\n  and\n  sub\n    /* \"src/ERC20.sol\":1457:1530  require(address(0) != _to, \"Transfer to the zero address is not allowed\") */\n  tag_6\n  jumpi\n  mload(0x40)\n  0x08c379a000000000000000000000000000000000000000000000000000000000\n  dup2\n  mstore\n  0x04\n  add\n  tag_7\n  swap1\n  tag_8\n  jump\t// in\ntag_7:\n  mload(0x40)\n  dup1\n  swap2\n  sub\n  swap1\n  revert\ntag_6:\n    /* \"src/ERC20.sol\":1858:1864  _owner */\n  dup6\n    /* \"src/ERC20.sol\":1845:1855  tokenOwner */\n  0x03\n  0x00\n    /* \"src/ERC20.sol\":1845:1864  tokenOwner = _owner */\n  0x0100\n  exp\n  dup2\n  sload\n  dup2\n  0xffffffffffffffffffffffffffffffffffffffff\n  mul\n  not\n  and\n  swap1\n  dup4\n  0xffffffffffffffffffffffffffffffffffffffff\n  and\n  mul\n  or\n  swap1\n  sstore\n  pop\n    /* \"src/ERC20.sol\":1882:1887  _name */\n  dup5\n    /* \"src/ERC20.sol\":1875:1879  name */\n  0x00\n    /* \"src/ERC20.sol\":1875:1887  name = _name */\n  swap1\n  dup2\n  tag_10\n  swap2\n  swap1\n  tag_11\n  jump\t// in\ntag_10:\n  pop\n    /* \"src/ERC20.sol\":1907:1914  _symbol */\n  dup4\n    /* \"src/ERC20.sol\":1898:1904  symbol */\n  0x01\n    /* \"src/ERC20.sol\":1898:1914  symbol = _symbol */\n  swap1\n  dup2\n  tag_12\n  swap2\n  swap1\n  tag_11\n  jump\t// in\ntag_12:\n  pop\n    /* \"src/ERC20.sol\":1936:1945  _decimals */\n  dup3\n    /* \"src/ERC20.sol\":1925:1945  decimals = _decimals */\n  0xff\n  and\n  0x80\n  dup2\n  0xff\n  and\n  dup2\n  mstore\n  pop\n  pop\n    /* \"src/ERC20.sol\":1968:1978  _maxSupply */\n  dup2\n    /* \"src/ERC20.sol\":1956:1978  maxSupply = _maxSupply */\n  0xa0\n  dup2\n  dup2\n  mstore\n  pop\n  pop\n    /* \"src/ERC20.sol\":2003:2004  0 */\n  0x00\n    /* \"src/ERC20.sol\":1989:2000  totalSupply */\n  0x02\n    /* \"src/ERC20.sol\":1989:2004  totalSupply = 0 */\n  dup2\n  swap1\n  sstore\n  pop\n    /* \"src/ERC20.sol\":1693:2012  constructor(address _owner, string memory _name, string memory _symbol, uint8 _decimals, uint256 _maxSupply) nonZeroAddress(_owner){... */\n  pop\n  pop\n  pop\n  pop\n  pop\n  pop\n    /* \"src/ERC20.sol\":185:5392  contract ERC20 is IERC20{... */\n  jump(tag_13)\n    /* \"#utility.yul\":7:82   */\ntag_14:\n    /* \"#utility.yul\":40:46   */\n  0x00\n    /* \"#utility.yul\":73:75   */\n  0x40\n    /* \"#utility.yul\":67:76   */\n  mload\n    /* \"#utility.yul\":57:76   */\n  swap1\n  pop\n    /* \"#utility.yul\":7:82   */\n  swap1\n  jump\t// out\n    /* \"#utility.yul\":88:205   */\ntag_15:\n    /* \"#utility.yul\":197:198   */\n  0x00\n    /* \"#utility.yul\":194:195   */\n  dup1\n    /* \"#utility.yul\":187:199   */\n  revert\n    /* \"#utility.yul\":211:328   */\ntag_16:\n    /* \"#utility.yul\":320:321   */\n  0x00\n    /* \"#utility.yul\":317:318   */\n  dup1\n    /* \"#utility.yul\":310:322   */\n  revert\n    /* \"#utility.yul\":334:460   */\ntag_17:\n    /* \"#utility.yul\":371:378   */\n  0x00\n    /* \"#utility.yul\":411:453   */\n  0xffffffffffffffffffffffffffffffffffffffff\n    /* \"#utility.yul\":404:409   */\n  dup3\n    /* \"#utility.yul\":400:454   */\n  and\n    /* \"#utility.yul\":389:454   */\n  swap1\n  pop\n    /* \"#utility.yul\":334:460   */\n  swap2\n  swap1\n  pop\n  jump\t// out\n    /* \"#utility.yul\":466:562   */\ntag_18:\n    /* \"#utility.yul\":503:510   */\n  0x00\n    /* \"#utility.yul\":532:556   */\n  tag_64\n    /* \"#utility.yul\":550:555   */\n  dup3\n    /* \"#utility.yul\":532:556   */\n  tag_17\n  jump\t// in\ntag_64:\n    /* \"#utility.yul\":521:556   */\n  swap1\n  pop\n    /* \"#utility.yul\":466:562   */\n  swap2\n  swap1\n  pop\n  jump\t// out\n    /* \"#utility.yul\":568:690   */\ntag_19:\n    /* \"#utility.yul\":641:665   */\n  tag_66\n    /* \"#utility.yul\":659:664   */\n  dup2\n    /* \"#utility.yul\":641:665   */\n  tag_18\n  jump\t// in\ntag_66:\n    /* \"#utility.yul\":634:639   */\n  dup2\n    /* \"#utility.yul\":631:666   */\n  eq\n    /* \"#utility.yul\":621:684   */\n  tag_67\n  jumpi\n    /* \"#utility.yul\":680:681   */\n  0x00\n    /* \"#utility.yul\":677:678   */\n  dup1\n    /* \"#utility.yul\":670:682   */\n  revert\n    /* \"#utility.yul\":621:684   */\ntag_67:\n    /* \"#utility.yul\":568:690   */\n  pop\n  jump\t// out\n    /* \"#utility.yul\":696:839   */\ntag_20:\n    /* \"#utility.yul\":753:758   */\n  0x00\n    /* \"#utility.yul\":784:790   */\n  dup2\n    /* \"#utility.yul\":778:791   */\n  mload\n    /* \"#utility.yul\":769:791   */\n  swap1\n  pop\n    /* \"#utility.yul\":800:833   */\n  tag_69\n    /* \"#utility.yul\":827:832   */\n  dup2\n    /* \"#utility.yul\":800:833   */\n  tag_19\n  jump\t// in\ntag_69:\n    /* \"#utility.yul\":696:839   */\n  swap3\n  swap2\n  pop\n  pop\n  jump\t// out\n    /* \"#utility.yul\":845:962   */\ntag_21:\n    /* \"#utility.yul\":954:955   */\n  0x00\n    /* \"#utility.yul\":951:952   */\n  dup1\n    /* \"#utility.yul\":944:956   */\n  revert\n    /* \"#utility.yul\":968:1085   */\ntag_22:\n    /* \"#utility.yul\":1077:1078   */\n  0x00\n    /* \"#utility.yul\":1074:1075   */\n  dup1\n    /* \"#utility.yul\":1067:1079   */\n  revert\n    /* \"#utility.yul\":1091:1193   */\ntag_23:\n    /* \"#utility.yul\":1132:1138   */\n  0x00\n    /* \"#utility.yul\":1183:1185   */\n  0x1f\n    /* \"#utility.yul\":1179:1186   */\n  not\n    /* \"#utility.yul\":1174:1176   */\n  0x1f\n    /* \"#utility.yul\":1167:1172   */\n  dup4\n    /* \"#utility.yul\":1163:1177   */\n  add\n    /* \"#utility.yul\":1159:1187   */\n  and\n    /* \"#utility.yul\":1149:1187   */\n  swap1\n  pop\n    /* \"#utility.yul\":1091:1193   */\n  swap2\n  swap1\n  pop\n  jump\t// out\n    /* \"#utility.yul\":1199:1379   */\ntag_24:\n    /* \"#utility.yul\":1247:1324   */\n  0x4e487b7100000000000000000000000000000000000000000000000000000000\n    /* \"#utility.yul\":1244:1245   */\n  0x00\n    /* \"#utility.yul\":1237:1325   */\n  mstore\n    /* \"#utility.yul\":1344:1348   */\n  0x41\n    /* \"#utility.yul\":1341:1342   */\n  0x04\n    /* \"#utility.yul\":1334:1349   */\n  mstore\n    /* \"#utility.yul\":1368:1372   */\n  0x24\n    /* \"#utility.yul\":1365:1366   */\n  0x00\n    /* \"#utility.yul\":1358:1373   */\n  revert\n    /* \"#utility.yul\":1385:1666   */\ntag_25:\n    /* \"#utility.yul\":1468:1495   */\n  tag_75\n    /* \"#utility.yul\":1490:1494   */\n  dup3\n    /* \"#utility.yul\":1468:1495   */\n  tag_23\n  jump\t// in\ntag_75:\n    /* \"#utility.yul\":1460:1466   */\n  dup2\n    /* \"#utility.yul\":1456:1496   */\n  add\n    /* \"#utility.yul\":1598:1604   */\n  dup2\n    /* \"#utility.yul\":1586:1596   */\n  dup2\n    /* \"#utility.yul\":1583:1605   */\n  lt\n    /* \"#utility.yul\":1562:1580   */\n  0xffffffffffffffff\n    /* \"#utility.yul\":1550:1560   */\n  dup3\n    /* \"#utility.yul\":1547:1581   */\n  gt\n    /* \"#utility.yul\":1544:1606   */\n  or\n    /* \"#utility.yul\":1541:1629   */\n  iszero\n  tag_76\n  jumpi\n    /* \"#utility.yul\":1609:1627   */\n  tag_77\n  tag_24\n  jump\t// in\ntag_77:\n    /* \"#utility.yul\":1541:1629   */\ntag_76:\n    /* \"#utility.yul\":1649:1659   */\n  dup1\n    /* \"#utility.yul\":1645:1647   */\n  0x40\n    /* \"#utility.yul\":1638:1660   */\n  mstore\n    /* \"#utility.yul\":1428:1666   */\n  pop\n    /* \"#utility.yul\":1385:1666   */\n  pop\n  pop\n  jump\t// out\n    /* \"#utility.yul\":1672:1801   */\ntag_26:\n    /* \"#utility.yul\":1706:1712   */\n  0x00\n    /* \"#utility.yul\":1733:1753   */\n  tag_79\n  tag_14\n  jump\t// in\ntag_79:\n    /* \"#utility.yul\":1723:1753   */\n  swap1\n  pop\n    /* \"#utility.yul\":1762:1795   */\n  tag_80\n    /* \"#utility.yul\":1790:1794   */\n  dup3\n    /* \"#utility.yul\":1782:1788   */\n  dup3\n    /* \"#utility.yul\":1762:1795   */\n  tag_25\n  jump\t// in\ntag_80:\n    /* \"#utility.yul\":1672:1801   */\n  swap2\n  swap1\n  pop\n  jump\t// out\n    /* \"#utility.yul\":1807:2115   */\ntag_27:\n    /* \"#utility.yul\":1869:1873   */\n  0x00\n    /* \"#utility.yul\":1959:1977   */\n  0xffffffffffffffff\n    /* \"#utility.yul\":1951:1957   */\n  dup3\n    /* \"#utility.yul\":1948:1978   */\n  gt\n    /* \"#utility.yul\":1945:2001   */\n  iszero\n  tag_82\n  jumpi\n    /* \"#utility.yul\":1981:1999   */\n  tag_83\n  tag_24\n  jump\t// in\ntag_83:\n    /* \"#utility.yul\":1945:2001   */\ntag_82:\n    /* \"#utility.yul\":2019:2048   */\n  tag_84\n    /* \"#utility.yul\":2041:2047   */\n  dup3\n    /* \"#utility.yul\":2019:2048   */\n  tag_23\n  jump\t// in\ntag_84:\n    /* \"#utility.yul\":2011:2048   */\n  swap1\n  pop\n    /* \"#utility.yul\":2103:2107   */\n  0x20\n    /* \"#utility.yul\":2097:2101   */\n  dup2\n    /* \"#utility.yul\":2093:2108   */\n  add\n    /* \"#utility.yul\":2085:2108   */\n  swap1\n  pop\n    /* \"#utility.yul\":1807:2115   */\n  swap2\n  swap1\n  pop\n  jump\t// out\n    /* \"#utility.yul\":2121:2260   */\ntag_28:\n    /* \"#utility.yul\":2210:2216   */\n  dup3\n    /* \"#utility.yul\":2205:2208   */\n  dup2\n    /* \"#utility.yul\":2200:2203   */\n  dup4\n    /* \"#utility.yul\":2194:2217   */\n  mcopy\n    /* \"#utility.yul\":2251:2252   */\n  0x00\n    /* \"#utility.yul\":2242:2248   */\n  dup4\n    /* \"#utility.yul\":2237:2240   */\n  dup4\n    /* \"#utility.yul\":2233:2249   */\n  add\n    /* \"#utility.yul\":2226:2253   */\n  mstore\n    /* \"#utility.yul\":2121:2260   */\n  pop\n  pop\n  pop\n  jump\t// out\n    /* \"#utility.yul\":2266:2700   */\ntag_29:\n    /* \"#utility.yul\":2355:2360   */\n  0x00\n    /* \"#utility.yul\":2380:2446   */\n  tag_87\n    /* \"#utility.yul\":2396:2445   */\n  tag_88\n    /* \"#utility.yul\":2438:2444   */\n  dup5\n    /* \"#utility.yul\":2396:2445   */\n  tag_27\n  jump\t// in\ntag_88:\n    /* \"#utility.yul\":2380:2446   */\n  tag_26\n  jump\t// in\ntag_87:\n    /* \"#utility.yul\":2371:2446   */\n  swap1\n  pop\n    /* \"#utility.yul\":2469:2475   */\n  dup3\n    /* \"#utility.yul\":2462:2467   */\n  dup2\n    /* \"#utility.yul\":2455:2476   */\n  mstore\n    /* \"#utility.yul\":2507:2511   */\n  0x20\n    /* \"#utility.yul\":2500:2505   */\n  dup2\n    /* \"#utility.yul\":2496:2512   */\n  add\n    /* \"#utility.yul\":2545:2548   */\n  dup5\n    /* \"#utility.yul\":2536:2542   */\n  dup5\n    /* \"#utility.yul\":2531:2534   */\n  dup5\n    /* \"#utility.yul\":2527:2543   */\n  add\n    /* \"#utility.yul\":2524:2549   */\n  gt\n    /* \"#utility.yul\":2521:2633   */\n  iszero\n  tag_89\n  jumpi\n    /* \"#utility.yul\":2552:2631   */\n  tag_90\n  tag_22\n  jump\t// in\ntag_90:\n    /* \"#utility.yul\":2521:2633   */\ntag_89:\n    /* \"#utility.yul\":2642:2694   */\n  tag_91\n    /* \"#utility.yul\":2687:2693   */\n  dup5\n    /* \"#utility.yul\":2682:2685   */\n  dup3\n    /* \"#utility.yul\":2677:2680   */\n  dup6\n    /* \"#utility.yul\":2642:2694   */\n  tag_28\n  jump\t// in\ntag_91:\n    /* \"#utility.yul\":2361:2700   */\n  pop\n    /* \"#utility.yul\":2266:2700   */\n  swap4\n  swap3\n  pop\n  pop\n  pop\n  jump\t// out\n    /* \"#utility.yul\":2720:3075   */\ntag_30:\n    /* \"#utility.yul\":2787:2792   */\n  0x00\n    /* \"#utility.yul\":2836:2839   */\n  dup3\n    /* \"#utility.yul\":2829:2833   */\n  0x1f\n    /* \"#utility.yul\":2821:2827   */\n  dup4\n    /* \"#utility.yul\":2817:2834   */\n  add\n    /* \"#utility.yul\":2813:2840   */\n  slt\n    /* \"#utility.yul\":2803:2925   */\n  tag_93\n  jumpi\n    /* \"#utility.yul\":2844:2923   */\n  tag_94\n  tag_21\n  jump\t// in\ntag_94:\n    /* \"#utility.yul\":2803:2925   */\ntag_93:\n    /* \"#utility.yul\":2954:2960   */\n  dup2\n    /* \"#utility.yul\":2948:2961   */\n  mload\n    /* \"#utility.yul\":2979:3069   */\n  tag_95\n    /* \"#utility.yul\":3065:3068   */\n  dup5\n    /* \"#utility.yul\":3057:3063   */\n  dup3\n    /* \"#utility.yul\":3050:3054   */\n  0x20\n    /* \"#utility.yul\":3042:3048   */\n  dup7\n    /* \"#utility.yul\":3038:3055   */\n  add\n    /* \"#utility.yul\":2979:3069   */\n  tag_29\n  jump\t// in\ntag_95:\n    /* \"#utility.yul\":2970:3069   */\n  swap2\n  pop\n    /* \"#utility.yul\":2793:3075   */\n  pop\n    /* \"#utility.yul\":2720:3075   */\n  swap3\n  swap2\n  pop\n  pop\n  jump\t// out\n    /* \"#utility.yul\":3081:3167   */\ntag_31:\n    /* \"#utility.yul\":3116:3123   */\n  0x00\n    /* \"#utility.yul\":3156:3160   */\n  0xff\n    /* \"#utility.yul\":3149:3154   */\n  dup3\n    /* \"#utility.yul\":3145:3161   */\n  and\n    /* \"#utility.yul\":3134:3161   */\n  swap1\n  pop\n    /* \"#utility.yul\":3081:3167   */\n  swap2\n  swap1\n  pop\n  jump\t// out\n    /* \"#utility.yul\":3173:3291   */\ntag_32:\n    /* \"#utility.yul\":3244:3266   */\n  tag_98\n    /* \"#utility.yul\":3260:3265   */\n  dup2\n    /* \"#utility.yul\":3244:3266   */\n  tag_31\n  jump\t// in\ntag_98:\n    /* \"#utility.yul\":3237:3242   */\n  dup2\n    /* \"#utility.yul\":3234:3267   */\n  eq\n    /* \"#utility.yul\":3224:3285   */\n  tag_99\n  jumpi\n    /* \"#utility.yul\":3281:3282   */\n  0x00\n    /* \"#utility.yul\":3278:3279   */\n  dup1\n    /* \"#utility.yul\":3271:3283   */\n  revert\n    /* \"#utility.yul\":3224:3285   */\ntag_99:\n    /* \"#utility.yul\":3173:3291   */\n  pop\n  jump\t// out\n    /* \"#utility.yul\":3297:3436   */\ntag_33:\n    /* \"#utility.yul\":3352:3357   */\n  0x00\n    /* \"#utility.yul\":3383:3389   */\n  dup2\n    /* \"#utility.yul\":3377:3390   */\n  mload\n    /* \"#utility.yul\":3368:3390   */\n  swap1\n  pop\n    /* \"#utility.yul\":3399:3430   */\n  tag_101\n    /* \"#utility.yul\":3424:3429   */\n  dup2\n    /* \"#utility.yul\":3399:3430   */\n  tag_32\n  jump\t// in\ntag_101:\n    /* \"#utility.yul\":3297:3436   */\n  swap3\n  swap2\n  pop\n  pop\n  jump\t// out\n    /* \"#utility.yul\":3442:3519   */\ntag_34:\n    /* \"#utility.yul\":3479:3486   */\n  0x00\n    /* \"#utility.yul\":3508:3513   */\n  dup2\n    /* \"#utility.yul\":3497:3513   */\n  swap1\n  pop\n    /* \"#utility.yul\":3442:3519   */\n  swap2\n  swap1\n  pop\n  jump\t// out\n    /* \"#utility.yul\":3525:3647   */\ntag_35:\n    /* \"#utility.yul\":3598:3622   */\n  tag_104\n    /* \"#utility.yul\":3616:3621   */\n  dup2\n    /* \"#utility.yul\":3598:3622   */\n  tag_34\n  jump\t// in\ntag_104:\n    /* \"#utility.yul\":3591:3596   */\n  dup2\n    /* \"#utility.yul\":3588:3623   */\n  eq\n    /* \"#utility.yul\":3578:3641   */\n  tag_105\n  jumpi\n    /* \"#utility.yul\":3637:3638   */\n  0x00\n    /* \"#utility.yul\":3634:3635   */\n  dup1\n    /* \"#utility.yul\":3627:3639   */\n  revert\n    /* \"#utility.yul\":3578:3641   */\ntag_105:\n    /* \"#utility.yul\":3525:3647   */\n  pop\n  jump\t// out\n    /* \"#utility.yul\":3653:3796   */\ntag_36:\n    /* \"#utility.yul\":3710:3715   */\n  0x00\n    /* \"#utility.yul\":3741:3747   */\n  dup2\n    /* \"#utility.yul\":3735:3748   */\n  mload\n    /* \"#utility.yul\":3726:3748   */\n  swap1\n  pop\n    /* \"#utility.yul\":3757:3790   */\n  tag_107\n    /* \"#utility.yul\":3784:3789   */\n  dup2\n    /* \"#utility.yul\":3757:3790   */\n  tag_35\n  jump\t// in\ntag_107:\n    /* \"#utility.yul\":3653:3796   */\n  swap3\n  swap2\n  pop\n  pop\n  jump\t// out\n    /* \"#utility.yul\":3802:5121   */\ntag_3:\n    /* \"#utility.yul\":3926:3932   */\n  0x00\n    /* \"#utility.yul\":3934:3940   */\n  dup1\n    /* \"#utility.yul\":3942:3948   */\n  0x00\n    /* \"#utility.yul\":3950:3956   */\n  dup1\n    /* \"#utility.yul\":3958:3964   */\n  0x00\n    /* \"#utility.yul\":4007:4010   */\n  0xa0\n    /* \"#utility.yul\":3995:4004   */\n  dup7\n    /* \"#utility.yul\":3986:3993   */\n  dup9\n    /* \"#utility.yul\":3982:4005   */\n  sub\n    /* \"#utility.yul\":3978:4011   */\n  slt\n    /* \"#utility.yul\":3975:4095   */\n  iszero\n  tag_109\n  jumpi\n    /* \"#utility.yul\":4014:4093   */\n  tag_110\n  tag_15\n  jump\t// in\ntag_110:\n    /* \"#utility.yul\":3975:4095   */\ntag_109:\n    /* \"#utility.yul\":4134:4135   */\n  0x00\n    /* \"#utility.yul\":4159:4223   */\n  tag_111\n    /* \"#utility.yul\":4215:4222   */\n  dup9\n    /* \"#utility.yul\":4206:4212   */\n  dup3\n    /* \"#utility.yul\":4195:4204   */\n  dup10\n    /* \"#utility.yul\":4191:4213   */\n  add\n    /* \"#utility.yul\":4159:4223   */\n  tag_20\n  jump\t// in\ntag_111:\n    /* \"#utility.yul\":4149:4223   */\n  swap6\n  pop\n    /* \"#utility.yul\":4105:4233   */\n  pop\n    /* \"#utility.yul\":4293:4295   */\n  0x20\n    /* \"#utility.yul\":4282:4291   */\n  dup7\n    /* \"#utility.yul\":4278:4296   */\n  add\n    /* \"#utility.yul\":4272:4297   */\n  mload\n    /* \"#utility.yul\":4324:4342   */\n  0xffffffffffffffff\n    /* \"#utility.yul\":4316:4322   */\n  dup2\n    /* \"#utility.yul\":4313:4343   */\n  gt\n    /* \"#utility.yul\":4310:4427   */\n  iszero\n  tag_112\n  jumpi\n    /* \"#utility.yul\":4346:4425   */\n  tag_113\n  tag_16\n  jump\t// in\ntag_113:\n    /* \"#utility.yul\":4310:4427   */\ntag_112:\n    /* \"#utility.yul\":4451:4525   */\n  tag_114\n    /* \"#utility.yul\":4517:4524   */\n  dup9\n    /* \"#utility.yul\":4508:4514   */\n  dup3\n    /* \"#utility.yul\":4497:4506   */\n  dup10\n    /* \"#utility.yul\":4493:4515   */\n  add\n    /* \"#utility.yul\":4451:4525   */\n  tag_30\n  jump\t// in\ntag_114:\n    /* \"#utility.yul\":4441:4525   */\n  swap5\n  pop\n    /* \"#utility.yul\":4243:4535   */\n  pop\n    /* \"#utility.yul\":4595:4597   */\n  0x40\n    /* \"#utility.yul\":4584:4593   */\n  dup7\n    /* \"#utility.yul\":4580:4598   */\n  add\n    /* \"#utility.yul\":4574:4599   */\n  mload\n    /* \"#utility.yul\":4626:4644   */\n  0xffffffffffffffff\n    /* \"#utility.yul\":4618:4624   */\n  dup2\n    /* \"#utility.yul\":4615:4645   */\n  gt\n    /* \"#utility.yul\":4612:4729   */\n  iszero\n  tag_115\n  jumpi\n    /* \"#utility.yul\":4648:4727   */\n  tag_116\n  tag_16\n  jump\t// in\ntag_116:\n    /* \"#utility.yul\":4612:4729   */\ntag_115:\n    /* \"#utility.yul\":4753:4827   */\n  tag_117\n    /* \"#utility.yul\":4819:4826   */\n  dup9\n    /* \"#utility.yul\":4810:4816   */\n  dup3\n    /* \"#utility.yul\":4799:4808   */\n  dup10\n    /* \"#utility.yul\":4795:4817   */\n  add\n    /* \"#utility.yul\":4753:4827   */\n  tag_30\n  jump\t// in\ntag_117:\n    /* \"#utility.yul\":4743:4827   */\n  swap4\n  pop\n    /* \"#utility.yul\":4545:4837   */\n  pop\n    /* \"#utility.yul\":4876:4878   */\n  0x60\n    /* \"#utility.yul\":4902:4964   */\n  tag_118\n    /* \"#utility.yul\":4956:4963   */\n  dup9\n    /* \"#utility.yul\":4947:4953   */\n  dup3\n    /* \"#utility.yul\":4936:4945   */\n  dup10\n    /* \"#utility.yul\":4932:4954   */\n  add\n    /* \"#utility.yul\":4902:4964   */\n  tag_33\n  jump\t// in\ntag_118:\n    /* \"#utility.yul\":4892:4964   */\n  swap3\n  pop\n    /* \"#utility.yul\":4847:4974   */\n  pop\n    /* \"#utility.yul\":5013:5016   */\n  0x80\n    /* \"#utility.yul\":5040:5104   */\n  tag_119\n    /* \"#utility.yul\":5096:5103   */\n  dup9\n    /* \"#utility.yul\":5087:5093   */\n  dup3\n    /* \"#utility.yul\":5076:5085   */\n  dup10\n    /* \"#utility.yul\":5072:5094   */\n  add\n    /* \"#utility.yul\":5040:5104   */\n  tag_36\n  jump\t// in\ntag_119:\n    /* \"#utility.yul\":5030:5104   */\n  swap2\n  pop\n    /* \"#utility.yul\":4984:5114   */\n  pop\n    /* \"#utility.yul\":3802:5121   */\n  swap3\n  swap6\n  pop\n  swap3\n  swap6\n  swap1\n  swap4\n  pop\n  jump\t// out\n    /* \"#utility.yul\":5127:5296   */\ntag_37:\n    /* \"#utility.yul\":5211:5222   */\n  0x00\n    /* \"#utility.yul\":5245:5251   */\n  dup3\n    /* \"#utility.yul\":5240:5243   */\n  dup3\n    /* \"#utility.yul\":5233:5252   */\n  mstore\n    /* \"#utility.yul\":5285:5289   */\n  0x20\n    /* \"#utility.yul\":5280:5283   */\n  dup3\n    /* \"#utility.yul\":5276:5290   */\n  add\n    /* \"#utility.yul\":5261:5290   */\n  swap1\n  pop\n    /* \"#utility.yul\":5127:5296   */\n  swap3\n  swap2\n  pop\n  pop\n  jump\t// out\n    /* \"#utility.yul\":5302:5532   */\ntag_38:\n    /* \"#utility.yul\":5442:5476   */\n  0x5472616e7366657220746f20746865207a65726f206164647265737320697320\n    /* \"#utility.yul\":5438:5439   */\n  0x00\n    /* \"#utility.yul\":5430:5436   */\n  dup3\n    /* \"#utility.yul\":5426:5440   */\n  add\n    /* \"#utility.yul\":5419:5477   */\n  mstore\n    /* \"#utility.yul\":5511:5524   */\n  0x6e6f7420616c6c6f776564000000000000000000000000000000000000000000\n    /* \"#utility.yul\":5506:5508   */\n  0x20\n    /* \"#utility.yul\":5498:5504   */\n  dup3\n    /* \"#utility.yul\":5494:5509   */\n  add\n    /* \"#utility.yul\":5487:5525   */\n  mstore\n    /* \"#utility.yul\":5302:5532   */\n  pop\n  jump\t// out\n    /* \"#utility.yul\":5538:5904   */\ntag_39:\n    /* \"#utility.yul\":5680:5683   */\n  0x00\n    /* \"#utility.yul\":5701:5768   */\n  tag_123\n    /* \"#utility.yul\":5765:5767   */\n  0x2b\n    /* \"#utility.yul\":5760:5763   */\n  dup4\n    /* \"#utility.yul\":5701:5768   */\n  tag_37\n  jump\t// in\ntag_123:\n    /* \"#utility.yul\":5694:5768   */\n  swap2\n  pop\n    /* \"#utility.yul\":5777:5870   */\n  tag_124\n    /* \"#utility.yul\":5866:5869   */\n  dup3\n    /* \"#utility.yul\":5777:5870   */\n  tag_38\n  jump\t// in\ntag_124:\n    /* \"#utility.yul\":5895:5897   */\n  0x40\n    /* \"#utility.yul\":5890:5893   */\n  dup3\n    /* \"#utility.yul\":5886:5898   */\n  add\n    /* \"#utility.yul\":5879:5898   */\n  swap1\n  pop\n    /* \"#utility.yul\":5538:5904   */\n  swap2\n  swap1\n  pop\n  jump\t// out\n    /* \"#utility.yul\":5910:6329   */\ntag_8:\n    /* \"#utility.yul\":6076:6080   */\n  0x00\n    /* \"#utility.yul\":6114:6116   */\n  0x20\n    /* \"#utility.yul\":6103:6112   */\n  dup3\n    /* \"#utility.yul\":6099:6117   */\n  add\n    /* \"#utility.yul\":6091:6117   */\n  swap1\n  pop\n    /* \"#utility.yul\":6163:6172   */\n  dup2\n    /* \"#utility.yul\":6157:6161   */\n  dup2\n    /* \"#utility.yul\":6153:6173   */\n  sub\n    /* \"#utility.yul\":6149:6150   */\n  0x00\n    /* \"#utility.yul\":6138:6147   */\n  dup4\n    /* \"#utility.yul\":6134:6151   */\n  add\n    /* \"#utility.yul\":6127:6174   */\n  mstore\n    /* \"#utility.yul\":6191:6322   */\n  tag_126\n    /* \"#utility.yul\":6317:6321   */\n  dup2\n    /* \"#utility.yul\":6191:6322   */\n  tag_39\n  jump\t// in\ntag_126:\n    /* \"#utility.yul\":6183:6322   */\n  swap1\n  pop\n    /* \"#utility.yul\":5910:6329   */\n  swap2\n  swap1\n  pop\n  jump\t// out\n    /* \"#utility.yul\":6335:6434   */\ntag_40:\n    /* \"#utility.yul\":6387:6393   */\n  0x00\n    /* \"#utility.yul\":6421:6426   */\n  dup2\n    /* \"#utility.yul\":6415:6427   */\n  mload\n    /* \"#utility.yul\":6405:6427   */\n  swap1\n  pop\n    /* \"#utility.yul\":6335:6434   */\n  swap2\n  swap1\n  pop\n  jump\t// out\n    /* \"#utility.yul\":6440:6620   */\ntag_41:\n    /* \"#utility.yul\":6488:6565   */\n  0x4e487b7100000000000000000000000000000000000000000000000000000000\n    /* \"#utility.yul\":6485:6486   */\n  0x00\n    /* \"#utility.yul\":6478:6566   */\n  mstore\n    /* \"#utility.yul\":6585:6589   */\n  0x22\n    /* \"#utility.yul\":6582:6583   */\n  0x04\n    /* \"#utility.yul\":6575:6590   */\n  mstore\n    /* \"#utility.yul\":6609:6613   */\n  0x24\n    /* \"#utility.yul\":6606:6607   */\n  0x00\n    /* \"#utility.yul\":6599:6614   */\n  revert\n    /* \"#utility.yul\":6626:6946   */\ntag_42:\n    /* \"#utility.yul\":6670:6676   */\n  0x00\n    /* \"#utility.yul\":6707:6708   */\n  0x02\n    /* \"#utility.yul\":6701:6705   */\n  dup3\n    /* \"#utility.yul\":6697:6709   */\n  div\n    /* \"#utility.yul\":6687:6709   */\n  swap1\n  pop\n    /* \"#utility.yul\":6754:6755   */\n  0x01\n    /* \"#utility.yul\":6748:6752   */\n  dup3\n    /* \"#utility.yul\":6744:6756   */\n  and\n    /* \"#utility.yul\":6775:6793   */\n  dup1\n    /* \"#utility.yul\":6765:6846   */\n  tag_130\n  jumpi\n    /* \"#utility.yul\":6831:6835   */\n  0x7f\n    /* \"#utility.yul\":6823:6829   */\n  dup3\n    /* \"#utility.yul\":6819:6836   */\n  and\n    /* \"#utility.yul\":6809:6836   */\n  swap2\n  pop\n    /* \"#utility.yul\":6765:6846   */\ntag_130:\n    /* \"#utility.yul\":6893:6895   */\n  0x20\n    /* \"#utility.yul\":6885:6891   */\n  dup3\n    /* \"#utility.yul\":6882:6896   */\n  lt\n    /* \"#utility.yul\":6862:6880   */\n  dup2\n    /* \"#utility.yul\":6859:6897   */\n  sub\n    /* \"#utility.yul\":6856:6940   */\n  tag_131\n  jumpi\n    /* \"#utility.yul\":6912:6930   */\n  tag_132\n  tag_41\n  jump\t// in\ntag_132:\n    /* \"#utility.yul\":6856:6940   */\ntag_131:\n    /* \"#utility.yul\":6677:6946   */\n  pop\n    /* \"#utility.yul\":6626:6946   */\n  swap2\n  swap1\n  pop\n  jump\t// out\n    /* \"#utility.yul\":6952:7093   */\ntag_43:\n    /* \"#utility.yul\":7001:7005   */\n  0x00\n    /* \"#utility.yul\":7024:7027   */\n  dup2\n    /* \"#utility.yul\":7016:7027   */\n  swap1\n  pop\n    /* \"#utility.yul\":7047:7050   */\n  dup2\n    /* \"#utility.yul\":7044:7045   */\n  0x00\n    /* \"#utility.yul\":7037:7051   */\n  mstore\n    /* \"#utility.yul\":7081:7085   */\n  0x20\n    /* \"#utility.yul\":7078:7079   */\n  0x00\n    /* \"#utility.yul\":7068:7086   */\n  keccak256\n    /* \"#utility.yul\":7060:7086   */\n  swap1\n  pop\n    /* \"#utility.yul\":6952:7093   */\n  swap2\n  swap1\n  pop\n  jump\t// out\n    /* \"#utility.yul\":7099:7192   */\ntag_44:\n    /* \"#utility.yul\":7136:7142   */\n  0x00\n    /* \"#utility.yul\":7183:7185   */\n  0x20\n    /* \"#utility.yul\":7178:7180   */\n  0x1f\n    /* \"#utility.yul\":7171:7176   */\n  dup4\n    /* \"#utility.yul\":7167:7181   */\n  add\n    /* \"#utility.yul\":7163:7186   */\n  div\n    /* \"#utility.yul\":7153:7186   */\n  swap1\n  pop\n    /* \"#utility.yul\":7099:7192   */\n  swap2\n  swap1\n  pop\n  jump\t// out\n    /* \"#utility.yul\":7198:7305   */\ntag_45:\n    /* \"#utility.yul\":7242:7250   */\n  0x00\n    /* \"#utility.yul\":7292:7297   */\n  dup3\n    /* \"#utility.yul\":7286:7290   */\n  dup3\n    /* \"#utility.yul\":7282:7298   */\n  shl\n    /* \"#utility.yul\":7261:7298   */\n  swap1\n  pop\n    /* \"#utility.yul\":7198:7305   */\n  swap3\n  swap2\n  pop\n  pop\n  jump\t// out\n    /* \"#utility.yul\":7311:7704   */\ntag_46:\n    /* \"#utility.yul\":7380:7386   */\n  0x00\n    /* \"#utility.yul\":7430:7431   */\n  0x08\n    /* \"#utility.yul\":7418:7428   */\n  dup4\n    /* \"#utility.yul\":7414:7432   */\n  mul\n    /* \"#utility.yul\":7453:7550   */\n  tag_137\n    /* \"#utility.yul\":7483:7549   */\n  0xffffffffffffffffffffffffffffffffffffffffffffffffffffffffffffffff\n    /* \"#utility.yul\":7472:7481   */\n  dup3\n    /* \"#utility.yul\":7453:7550   */\n  tag_45\n  jump\t// in\ntag_137:\n    /* \"#utility.yul\":7571:7610   */\n  tag_138\n    /* \"#utility.yul\":7601:7609   */\n  dup7\n    /* \"#utility.yul\":7590:7599   */\n  dup4\n    /* \"#utility.yul\":7571:7610   */\n  tag_45\n  jump\t// in\ntag_138:\n    /* \"#utility.yul\":7559:7610   */\n  swap6\n  pop\n    /* \"#utility.yul\":7643:7647   */\n  dup1\n    /* \"#utility.yul\":7639:7648   */\n  not\n    /* \"#utility.yul\":7632:7637   */\n  dup5\n    /* \"#utility.yul\":7628:7649   */\n  and\n    /* \"#utility.yul\":7619:7649   */\n  swap4\n  pop\n    /* \"#utility.yul\":7692:7696   */\n  dup1\n    /* \"#utility.yul\":7682:7690   */\n  dup7\n    /* \"#utility.yul\":7678:7697   */\n  and\n    /* \"#utility.yul\":7671:7676   */\n  dup5\n    /* \"#utility.yul\":7668:7698   */\n  or\n    /* \"#utility.yul\":7658:7698   */\n  swap3\n  pop\n    /* \"#utility.yul\":7387:7704   */\n  pop\n  pop\n    /* \"#utility.yul\":7311:7704   */\n  swap4\n  swap3\n  pop\n  pop\n  pop\n  jump\t// out\n    /* \"#utility.yul\":7710:7770   */\ntag_47:\n    /* \"#utility.yul\":7738:7741   */\n  0x00\n    /* \"#utility.yul\":7759:7764   */\n  dup2\n    /* \"#utility.yul\":7752:7764   */\n  swap1\n  pop\n    /* \"#utility.yul\":7710:7770   */\n  swap2\n  swap1\n  pop\n  jump\t// out\n    /* \"#utility.yul\":7776:7918   */\ntag_48:\n    /* \"#utility.yul\":7826:7835   */\n  0x00\n    /* \"#utility.yul\":7859:7912   */\n  tag_141\n    /* \"#utility.yul\":7877:7911   */\n  tag_142\n    /* \"#utility.yul\":7886:7910   */\n  tag_143\n    /* \"#utility.yul\":7904:7909   */\n  dup5\n    /* \"#utility.yul\":7886:7910   */\n  tag_34\n  jump\t// in\ntag_143:\n    /* \"#utility.yul\":7877:7911   */\n  tag_47\n  jump\t// in\ntag_142:\n    /* \"#utility.yul\":7859:7912   */\n  tag_34\n  jump\t// in\ntag_141:\n    /* \"#utility.yul\":7846:7912   */\n  swap1\n  pop\n    /* \"#utility.yul\":7776:7918   */\n  swap2\n  swap1\n  pop\n  jump\t// out\n    /* \"#utility.yul\":7924:7999   */\ntag_49:\n    /* \"#utility.yul\":7967:7970   */\n  0x00\n    /* \"#utility.yul\":7988:7993   */\n  dup2\n    /* \"#utility.yul\":7981:7993   */\n  swap1\n  pop\n    /* \"#utility.yul\":7924:7999   */\n  swap2\n  swap1\n  pop\n  jump\t// out\n    /* \"#utility.yul\":8005:8274   */\ntag_50:\n    /* \"#utility.yul\":8115:8154   */\n  tag_146\n    /* \"#utility.yul\":8146:8153   */\n  dup4\n    /* \"#utility.yul\":8115:8154   */\n  tag_48\n  jump\t// in\ntag_146:\n    /* \"#utility.yul\":8176:8267   */\n  tag_147\n    /* \"#utility.yul\":8225:8266   */\n  tag_148\n    /* \"#utility.yul\":8249:8265   */\n  dup3\n    /* \"#utility.yul\":8225:8266   */\n  tag_49\n  jump\t// in\ntag_148:\n    /* \"#utility.yul\":8217:8223   */\n  dup5\n    /* \"#utility.yul\":8210:8214   */\n  dup5\n    /* \"#utility.yul\":8204:8215   */\n  sload\n    /* \"#utility.yul\":8176:8267   */\n  tag_46\n  jump\t// in\ntag_147:\n    /* \"#utility.yul\":8170:8174   */\n  dup3\n    /* \"#utility.yul\":8163:8268   */\n  sstore\n    /* \"#utility.yul\":8081:8274   */\n  pop\n    /* \"#utility.yul\":8005:8274   */\n  pop\n  pop\n  pop\n  jump\t// out\n    /* \"#utility.yul\":8280:8353   */\ntag_51:\n    /* \"#utility.yul\":8325:8328   */\n  0x00\n    /* \"#utility.yul\":8280:8353   */\n  swap1\n  jump\t// out\n    /* \"#utility.yul\":8359:8548   */\ntag_52:\n    /* \"#utility.yul\":8436:8468   */\n  tag_151\n  tag_51\n  jump\t// in\ntag_151:\n    /* \"#utility.yul\":8477:8542   */\n  tag_152\n    /* \"#utility.yul\":8535:8541   */\n  dup2\n    /* \"#utility.yul\":8527:8533   */\n  dup5\n    /* \"#utility.yul\":8521:8525   */\n  dup5\n    /* \"#utility.yul\":8477:8542   */\n  tag_50\n  jump\t// in\ntag_152:\n    /* \"#utility.yul\":8412:8548   */\n  pop\n    /* \"#utility.yul\":8359:8548   */\n  pop\n  pop\n  jump\t// out\n    /* \"#utility.yul\":8554:8740   */\ntag_53:\n    /* \"#utility.yul\":8614:8734   */\ntag_154:\n    /* \"#utility.yul\":8631:8634   */\n  dup2\n    /* \"#utility.yul\":8624:8629   */\n  dup2\n    /* \"#utility.yul\":8621:8635   */\n  lt\n    /* \"#utility.yul\":8614:8734   */\n  iszero\n  tag_156\n  jumpi\n    /* \"#utility.yul\":8685:8724   */\n  tag_157\n    /* \"#utility.yul\":8722:8723   */\n  0x00\n    /* \"#utility.yul\":8715:8720   */\n  dup3\n    /* \"#utility.yul\":8685:8724   */\n  tag_52\n  jump\t// in\ntag_157:\n    /* \"#utility.yul\":8658:8659   */\n  0x01\n    /* \"#utility.yul\":8651:8656   */\n  dup2\n    /* \"#utility.yul\":8647:8660   */\n  add\n    /* \"#utility.yul\":8638:8660   */\n  swap1\n  pop\n    /* \"#utility.yul\":8614:8734   */\n  jump(tag_154)\ntag_156:\n    /* \"#utility.yul\":8554:8740   */\n  pop\n  pop\n  jump\t// out\n    /* \"#utility.yul\":8746:9289   */\ntag_54:\n    /* \"#utility.yul\":8847:8849   */\n  0x1f\n    /* \"#utility.yul\":8842:8845   */\n  dup3\n    /* \"#utility.yul\":8839:8850   */\n  gt\n    /* \"#utility.yul\":8836:9282   */\n  iszero\n  tag_159\n  jumpi\n    /* \"#utility.yul\":8881:8919   */\n  tag_160\n    /* \"#utility.yul\":8913:8918   */\n  dup2\n    /* \"#utility.yul\":8881:8919   */\n  tag_43\n  jump\t// in\ntag_160:\n    /* \"#utility.yul\":8965:8994   */\n  tag_161\n    /* \"#utility.yul\":8983:8993   */\n  dup5\n    /* \"#utility.yul\":8965:8994   */\n  tag_44\n  jump\t// in\ntag_161:\n    /* \"#utility.yul\":8955:8963   */\n  dup2\n    /* \"#utility.yul\":8951:8995   */\n  add\n    /* \"#utility.yul\":9148:9150   */\n  0x20\n    /* \"#utility.yul\":9136:9146   */\n  dup6\n    /* \"#utility.yul\":9133:9151   */\n  lt\n    /* \"#utility.yul\":9130:9179   */\n  iszero\n  tag_162\n  jumpi\n    /* \"#utility.yul\":9169:9177   */\n  dup2\n    /* \"#utility.yul\":9154:9177   */\n  swap1\n  pop\n    /* \"#utility.yul\":9130:9179   */\ntag_162:\n    /* \"#utility.yul\":9192:9272   */\n  tag_163\n    /* \"#utility.yul\":9248:9270   */\n  tag_164\n    /* \"#utility.yul\":9266:9269   */\n  dup6\n    /* \"#utility.yul\":9248:9270   */\n  tag_44\n  jump\t// in\ntag_164:\n    /* \"#utility.yul\":9238:9246   */\n  dup4\n    /* \"#utility.yul\":9234:9271   */\n  add\n    /* \"#utility.yul\":9221:9232   */\n  dup3\n    /* \"#utility.yul\":9192:9272   */\n  tag_53\n  jump\t// in\ntag_163:\n    /* \"#utility.yul\":8851:9282   */\n  pop\n  pop\n    /* \"#utility.yul\":8836:9282   */\ntag_159:\n    /* \"#utility.yul\":8746:9289   */\n  pop\n  pop\n  pop\n  jump\t// out\n    /* \"#utility.yul\":9295:9412   */\ntag_55:\n    /* \"#utility.yul\":9349:9357   */\n  0x00\n    /* \"#utility.yul\":9399:9404   */\n  dup3\n    /* \"#utility.yul\":9393:9397   */\n  dup3\n    /* \"#utility.yul\":9389:9405   */\n  shr\n    /* \"#utility.yul\":9368:9405   */\n  swap1\n  pop\n    /* \"#utility.yul\":9295:9412   */\n  swap3\n  swap2\n  pop\n  pop\n  jump\t// out\n    /* \"#utility.yul\":9418:9587   */\ntag_56:\n    /* \"#utility.yul\":9462:9468   */\n  0x00\n    /* \"#utility.yul\":9495:9546   */\n  tag_167\n    /* \"#utility.yul\":9543:9544   */\n  0x00\n    /* \"#utility.yul\":9539:9545   */\n  not\n    /* \"#utility.yul\":9531:9536   */\n  dup5\n    /* \"#utility.yul\":9528:9529   */\n  0x08\n    /* \"#utility.yul\":9524:9537   */\n  mul\n    /* \"#utility.yul\":9495:9546   */\n  tag_55\n  jump\t// in\ntag_167:\n    /* \"#utility.yul\":9491:9547   */\n  not\n    /* \"#utility.yul\":9576:9580   */\n  dup1\n    /* \"#utility.yul\":9570:9574   */\n  dup4\n    /* \"#utility.yul\":9566:9581   */\n  and\n    /* \"#utility.yul\":9556:9581   */\n  swap2\n  pop\n    /* \"#utility.yul\":9469:9587   */\n  pop\n    /* \"#utility.yul\":9418:9587   */\n  swap3\n  swap2\n  pop\n  pop\n  jump\t// out\n    /* \"#utility.yul\":9592:9887   */\ntag_57:\n    /* \"#utility.yul\":9668:9672   */\n  0x00\n    /* \"#utility.yul\":9814:9843   */\n  tag_169\n    /* \"#utility.yul\":9839:9842   */\n  dup4\n    /* \"#utility.yul\":9833:9837   */\n  dup4\n    /* \"#utility.yul\":9814:9843   */\n  tag_56\n  jump\t// in\ntag_169:\n    /* \"#utility.yul\":9806:9843   */\n  swap2\n  pop\n    /* \"#utility.yul\":9876:9879   */\n  dup3\n    /* \"#utility.yul\":9873:9874   */\n  0x02\n    /* \"#utility.yul\":9869:9880   */\n  mul\n    /* \"#utility.yul\":9863:9867   */\n  dup3\n    /* \"#utility.yul\":9860:9881   */\n  or\n    /* \"#utility.yul\":9852:9881   */\n  swap1\n  pop\n    /* \"#utility.yul\":9592:9887   */\n  swap3\n  swap2\n  pop\n  pop\n  jump\t// out\n    /* \"#utility.yul\":9892:11287   */\ntag_11:\n    /* \"#utility.yul\":10009:10046   */\n  tag_171\n    /* \"#utility.yul\":10042:10045   */\n  dup3\n    /* \"#utility.yul\":10009:10046   */\n  tag_40\n  jump\t// in\ntag_171:\n    /* \"#utility.yul\":10111:10129   */\n  0xffffffffffffffff\n    /* \"#utility.yul\":10103:10109   */\n  dup2\n    /* \"#utility.yul\":10100:10130   */\n  gt\n    /* \"#utility.yul\":10097:10153   */\n  iszero\n  tag_172\n  jumpi\n    /* \"#utility.yul\":10133:10151   */\n  tag_173\n  tag_24\n  jump\t// in\ntag_173:\n    /* \"#utility.yul\":10097:10153   */\ntag_172:\n    /* \"#utility.yul\":10177:10215   */\n  tag_174\n    /* \"#utility.yul\":10209:10213   */\n  dup3\n    /* \"#utility.yul\":10203:10214   */\n  sload\n    /* \"#utility.yul\":10177:10215   */\n  tag_42\n  jump\t// in\ntag_174:\n    /* \"#utility.yul\":10262:10329   */\n  tag_175\n    /* \"#utility.yul\":10322:10328   */\n  dup3\n    /* \"#utility.yul\":10314:10320   */\n  dup3\n    /* \"#utility.yul\":10308:10312   */\n  dup6\n    /* \"#utility.yul\":10262:10329   */\n  tag_54\n  jump\t// in\ntag_175:\n    /* \"#utility.yul\":10356:10357   */\n  0x00\n    /* \"#utility.yul\":10380:10384   */\n  0x20\n    /* \"#utility.yul\":10367:10384   */\n  swap1\n  pop\n    /* \"#utility.yul\":10412:10414   */\n  0x1f\n    /* \"#utility.yul\":10404:10410   */\n  dup4\n    /* \"#utility.yul\":10401:10415   */\n  gt\n    /* \"#utility.yul\":10429:10430   */\n  0x01\n    /* \"#utility.yul\":10424:11042   */\n  dup2\n  eq\n  tag_177\n  jumpi\n    /* \"#utility.yul\":11086:11087   */\n  0x00\n    /* \"#utility.yul\":11103:11109   */\n  dup5\n    /* \"#utility.yul\":11100:11177   */\n  iszero\n  tag_178\n  jumpi\n    /* \"#utility.yul\":11152:11161   */\n  dup3\n    /* \"#utility.yul\":11147:11150   */\n  dup8\n    /* \"#utility.yul\":11143:11162   */\n  add\n    /* \"#utility.yul\":11137:11163   */\n  mload\n    /* \"#utility.yul\":11128:11163   */\n  swap1\n  pop\n    /* \"#utility.yul\":11100:11177   */\ntag_178:\n    /* \"#utility.yul\":11203:11270   */\n  tag_179\n    /* \"#utility.yul\":11263:11269   */\n  dup6\n    /* \"#utility.yul\":11256:11261   */\n  dup3\n    /* \"#utility.yul\":11203:11270   */\n  tag_57\n  jump\t// in\ntag_179:\n    /* \"#utility.yul\":11197:11201   */\n  dup7\n    /* \"#utility.yul\":11190:11271   */\n  sstore\n    /* \"#utility.yul\":11059:11281   */\n  pop\n    /* \"#utility.yul\":10394:11281   */\n  jump(tag_176)\n    /* \"#utility.yul\":10424:11042   */\ntag_177:\n    /* \"#utility.yul\":10476:10480   */\n  0x1f\n    /* \"#utility.yul\":10472:10481   */\n  not\n    /* \"#utility.yul\":10464:10470   */\n  dup5\n    /* \"#utility.yul\":10460:10482   */\n  and\n    /* \"#utility.yul\":10510:10547   */\n  tag_180\n    /* \"#utility.yul\":10542:10546   */\n  dup7\n    /* \"#utility.yul\":10510:10547   */\n  tag_43\n  jump\t// in\ntag_180:\n    /* \"#utility.yul\":10569:10570   */\n  0x00\n    /* \"#utility.yul\":10583:10791   */\ntag_181:\n    /* \"#utility.yul\":10597:10604   */\n  dup3\n    /* \"#utility.yul\":10594:10595   */\n  dup2\n    /* \"#utility.yul\":10591:10605   */\n  lt\n    /* \"#utility.yul\":10583:10791   */\n  iszero\n  tag_183\n  jumpi\n    /* \"#utility.yul\":10676:10685   */\n  dup5\n    /* \"#utility.yul\":10671:10674   */\n  dup10\n    /* \"#utility.yul\":10667:10686   */\n  add\n    /* \"#utility.yul\":10661:10687   */\n  mload\n    /* \"#utility.yul\":10653:10659   */\n  dup3\n    /* \"#utility.yul\":10646:10688   */\n  sstore\n    /* \"#utility.yul\":10727:10728   */\n  0x01\n    /* \"#utility.yul\":10719:10725   */\n  dup3\n    /* \"#utility.yul\":10715:10729   */\n  add\n    /* \"#utility.yul\":10705:10729   */\n  swap2\n  pop\n    /* \"#utility.yul\":10774:10776   */\n  0x20\n    /* \"#utility.yul\":10763:10772   */\n  dup6\n    /* \"#utility.yul\":10759:10777   */\n  add\n    /* \"#utility.yul\":10746:10777   */\n  swap5\n  pop\n    /* \"#utility.yul\":10620:10624   */\n  0x20\n    /* \"#utility.yul\":10617:10618   */\n  dup2\n    /* \"#utility.yul\":10613:10625   */\n  add\n    /* \"#utility.yul\":10608:10625   */\n  swap1\n  pop\n    /* \"#utility.yul\":10583:10791   */\n  jump(tag_181)\ntag_183:\n    /* \"#utility.yul\":10819:10825   */\n  dup7\n    /* \"#utility.yul\":10810:10817   */\n  dup4\n    /* \"#utility.yul\":10807:10826   */\n  lt\n    /* \"#utility.yul\":10804:10983   */\n  iszero\n  tag_184\n  jumpi\n    /* \"#utility.yul\":10877:10886   */\n  dup5\n    /* \"#utility.yul\":10872:10875   */\n  dup10\n    /* \"#utility.yul\":10868:10887   */\n  add\n    /* \"#utility.yul\":10862:10888   */\n  mload\n    /* \"#utility.yul\":10920:10968   */\n  tag_185\n    /* \"#utility.yul\":10962:10966   */\n  0x1f\n    /* \"#utility.yul\":10954:10960   */\n  dup10\n    /* \"#utility.yul\":10950:10967   */\n  and\n    /* \"#utility.yul\":10939:10948   */\n  dup3\n    /* \"#utility.yul\":10920:10968   */\n  tag_56\n  jump\t// in\ntag_185:\n    /* \"#utility.yul\":10912:10918   */\n  dup4\n    /* \"#utility.yul\":10905:10969   */\n  sstore\n    /* \"#utility.yul\":10827:10983   */\n  pop\n    /* \"#utility.yul\":10804:10983   */\ntag_184:\n    /* \"#utility.yul\":11029:11030   */\n  0x01\n    /* \"#utility.yul\":11025:11026   */\n  0x02\n    /* \"#utility.yul\":11017:11023   */\n  dup9\n    /* \"#utility.yul\":11013:11027   */\n  mul\n    /* \"#utility.yul\":11009:11031   */\n  add\n    /* \"#utility.yul\":11003:11007   */\n  dup9\n    /* \"#utility.yul\":10996:11032   */\n  sstore\n    /* \"#utility.yul\":10431:11042   */\n  pop\n  pop\n  pop\n    /* \"#utility.yul\":10394:11281   */\ntag_176:\n  pop\n    /* \"#utility.yul\":9984:11287   */\n  pop\n  pop\n  pop\n    /* \"#utility.yul\":9892:11287   */\n  pop\n  pop\n  jump\t// out\n    /* \"src/ERC20.sol\":185:5392  contract ERC20 is IERC20{... */\ntag_13:\n  mload(0x80)\n  mload(0xa0)\n  codecopy(0x00, dataOffset(sub_0), dataSize(sub_0))\n  0x00\n  assignImmutable(\"0x5c4c6aa067b6f8e6cb38e6ab843832a94d1712d661a04d73c517d6a1931a9e5d\")\n  0x00\n  assignImmutable(\"0x1a192fabce13988b84994d4296e6cdc418d55e2f1d7f942188d4040b94fc57ac\")\n  return(0x00, dataSize(sub_0))\nstop\n\nsub_0: assembly {\n        /* \"src/ERC20.sol\":185:5392  contract ERC20 is IERC20{... */\n      mstore(0x40, 0x80)\n      callvalue\n      dup1\n      iszero\n      tag_1\n      jumpi\n      0x00\n      dup1\n      revert\n    tag_1:\n      pop\n      jumpi(tag_2, lt(calldatasize, 0x04))\n      shr(0xe0, calldataload(0x00))\n      dup1\n      0x5b833f1e\n      gt\n      tag_19\n      jumpi\n      dup1\n      0xa3e67610\n      gt\n      tag_20\n      jumpi\n      dup1\n      0xa3e67610\n      eq\n      tag_15\n      jumpi\n      dup1\n      0xa9059cbb\n      eq\n      tag_16\n      jumpi\n      dup1\n      0xd5abeb01\n      eq\n      tag_17\n      jumpi\n      dup1\n      0xdd62ed3e\n      eq\n      tag_18\n      jumpi\n      jump(tag_2)\n    tag_20:\n      dup1\n      0x5b833f1e\n      eq\n      tag_11\n      jumpi\n      dup1\n      0x70a08231\n      eq\n      tag_12\n      jumpi\n      dup1\n      0x95d89b41\n      eq\n      tag_13\n      jumpi\n      dup1\n      0x9dc29fac\n      eq\n      tag_14\n      jumpi\n      jump(tag_2)\n    tag_19:\n      dup1\n      0x21e6b53d\n      gt\n      tag_21\n      jumpi\n      dup1\n      0x21e6b53d\n      eq\n      tag_7\n      jumpi\n      dup1\n      0x23b872dd\n      eq\n      tag_8\n      jumpi\n      dup1\n      0x313ce567\n      eq\n      tag_9\n      jumpi\n      dup1\n      0x40c10f19\n      eq\n      tag_10\n      jumpi\n      jump(tag_2)\n    tag_21:\n      dup1\n      0x06fdde03\n      eq\n      tag_3\n      jumpi\n      dup1\n      0x095ea7b3\n      eq\n      tag_4\n      jumpi\n      dup1\n      0x10731a65\n      eq\n      tag_5\n      jumpi\n      dup1\n      0x18160ddd\n      eq\n      tag_6\n      jumpi\n    tag_2:\n      0x00\n      dup1\n      revert\n        /* \"src/ERC20.sol\":222:240  string public name */\n    tag_3:\n      tag_22\n      tag_23\n      jump\t// in\n    tag_22:\n      mload(0x40)\n      tag_24\n      swap2\n      swap1\n      tag_25\n      jump\t// in\n    tag_24:\n      mload(0x40)\n      dup1\n      swap2\n      sub\n      swap1\n      return\n        /* \"src/ERC20.sol\":3896:4206  function approve(address spender, uint256 amount) external returns(bool)... */\n    tag_4:\n      tag_26\n      0x04\n      dup1\n      calldatasize\n      sub\n      dup2\n      add\n      swap1\n      tag_27\n      swap2\n      swap1\n      tag_28\n      jump\t// in\n    tag_27:\n      tag_29\n      jump\t// in\n    tag_26:\n      mload(0x40)\n      tag_30\n      swap2\n      swap1\n      tag_31\n      jump\t// in\n    tag_30:\n      mload(0x40)\n      dup1\n      swap2\n      sub\n      swap1\n      return\n        /* \"src/ERC20.sol\":2530:2799  function claimTokenOwnership() external ... */\n    tag_5:\n      tag_32\n      tag_33\n      jump\t// in\n    tag_32:\n      mload(0x40)\n      tag_34\n      swap2\n      swap1\n      tag_31\n      jump\t// in\n    tag_34:\n      mload(0x40)\n      dup1\n      swap2\n      sub\n      swap1\n      return\n        /* \"src/ERC20.sol\":312:338  uint256 public totalSupply */\n    tag_6:\n      tag_35\n      tag_36\n      jump\t// in\n    tag_35:\n      mload(0x40)\n      tag_37\n      swap2\n      swap1\n      tag_38\n      jump\t// in\n    tag_37:\n      mload(0x40)\n      dup1\n      swap2\n      sub\n      swap1\n      return\n        /* \"src/ERC20.sol\":2118:2431  function transferTokenOwnership(address _nextTokenOwner) external ... */\n    tag_7:\n      tag_39\n      0x04\n      dup1\n      calldatasize\n      sub\n      dup2\n      add\n      swap1\n      tag_40\n      swap2\n      swap1\n      tag_41\n      jump\t// in\n    tag_40:\n      tag_42\n      jump\t// in\n    tag_39:\n      mload(0x40)\n      tag_43\n      swap2\n      swap1\n      tag_31\n      jump\t// in\n    tag_43:\n      mload(0x40)\n      dup1\n      swap2\n      sub\n      swap1\n      return\n        /* \"src/ERC20.sol\":3334:3778  function transferFrom(address sender, address recipient, uint256 amount) external returns(bool)... */\n    tag_8:\n      tag_44\n      0x04\n      dup1\n      calldatasize\n      sub\n      dup2\n      add\n      swap1\n      tag_45\n      swap2\n      swap1\n      tag_46\n      jump\t// in\n    tag_45:\n      tag_47\n      jump\t// in\n    tag_44:\n      mload(0x40)\n      tag_48\n      swap2\n      swap1\n      tag_31\n      jump\t// in\n    tag_48:\n      mload(0x40)\n      dup1\n      swap2\n      sub\n      swap1\n      return\n        /* \"src/ERC20.sol\":274:305  uint8 immutable public decimals */\n    tag_9:\n      tag_49\n      tag_50\n      jump\t// in\n    tag_49:\n      mload(0x40)\n      tag_51\n      swap2\n      swap1\n      tag_52\n      jump\t// in\n    tag_51:\n      mload(0x40)\n      dup1\n      swap2\n      sub\n      swap1\n      return\n        /* \"src/ERC20.sol\":4310:4544  function mint(address to, uint256 amount) external ... */\n    tag_10:\n      tag_53\n      0x04\n      dup1\n      calldatasize\n      sub\n      dup2\n      add\n      swap1\n      tag_54\n      swap2\n      swap1\n      tag_28\n      jump\t// in\n    tag_54:\n      tag_55\n      jump\t// in\n    tag_53:\n      stop\n        /* \"src/ERC20.sol\":418:447  address public nextTokenOwner */\n    tag_11:\n      tag_56\n      tag_57\n      jump\t// in\n    tag_56:\n      mload(0x40)\n      tag_58\n      swap2\n      swap1\n      tag_59\n      jump\t// in\n    tag_58:\n      mload(0x40)\n      dup1\n      swap2\n      sub\n      swap1\n      return\n        /* \"src/ERC20.sol\":454:498  mapping(address => uint256) public balanceOf */\n    tag_12:\n      tag_60\n      0x04\n      dup1\n      calldatasize\n      sub\n      dup2\n      add\n      swap1\n      tag_61\n      swap2\n      swap1\n      tag_41\n      jump\t// in\n    tag_61:\n      tag_62\n      jump\t// in\n    tag_60:\n      mload(0x40)\n      tag_63\n      swap2\n      swap1\n      tag_38\n      jump\t// in\n    tag_63:\n      mload(0x40)\n      dup1\n      swap2\n      sub\n      swap1\n      return\n        /* \"src/ERC20.sol\":247:267  string public symbol */\n    tag_13:\n      tag_64\n      tag_65\n      jump\t// in\n    tag_64:\n      mload(0x40)\n      tag_66\n      swap2\n      swap1\n      tag_25\n      jump\t// in\n    tag_66:\n      mload(0x40)\n      dup1\n      swap2\n      sub\n      swap1\n      return\n        /* \"src/ERC20.sol\":4653:4855  function burn(address from, uint256 amount) external ... */\n    tag_14:\n      tag_67\n      0x04\n      dup1\n      calldatasize\n      sub\n      dup2\n      add\n      swap1\n      tag_68\n      swap2\n      swap1\n      tag_28\n      jump\t// in\n    tag_68:\n      tag_69\n      jump\t// in\n    tag_67:\n      stop\n        /* \"src/ERC20.sol\":386:411  address public tokenOwner */\n    tag_15:\n      tag_70\n      tag_71\n      jump\t// in\n    tag_70:\n      mload(0x40)\n      tag_72\n      swap2\n      swap1\n      tag_59\n      jump\t// in\n    tag_72:\n      mload(0x40)\n      dup1\n      swap2\n      sub\n      swap1\n      return\n        /* \"src/ERC20.sol\":2866:3213  function transfer(address recipient, uint256 amount) external returns(bool) ... */\n    tag_16:\n      tag_73\n      0x04\n      dup1\n      calldatasize\n      sub\n      dup2\n      add\n      swap1\n      tag_74\n      swap2\n      swap1\n      tag_28\n      jump\t// in\n    tag_74:\n      tag_75\n      jump\t// in\n    tag_73:\n      mload(0x40)\n      tag_76\n      swap2\n      swap1\n      tag_31\n      jump\t// in\n    tag_76:\n      mload(0x40)\n      dup1\n      swap2\n      sub\n      swap1\n      return\n        /* \"src/ERC20.sol\":345:379  uint256 immutable public maxSupply */\n    tag_17:\n      tag_77\n      tag_78\n      jump\t// in\n    tag_77:\n      mload(0x40)\n      tag_79\n      swap2\n      swap1\n      tag_38\n      jump\t// in\n    tag_79:\n      mload(0x40)\n      dup1\n      swap2\n      sub\n      swap1\n      return\n        /* \"src/ERC20.sol\":505:569  mapping(address => mapping(address => uint256)) public allowance */\n    tag_18:\n      tag_80\n      0x04\n      dup1\n      calldatasize\n      sub\n      dup2\n      add\n      swap1\n      tag_81\n      swap2\n      swap1\n      tag_82\n      jump\t// in\n    tag_81:\n      tag_83\n      jump\t// in\n    tag_80:\n      mload(0x40)\n      tag_84\n      swap2\n      swap1\n      tag_38\n      jump\t// in\n    tag_84:\n      mload(0x40)\n      dup1\n      swap2\n      sub\n      swap1\n      return\n        /* \"src/ERC20.sol\":222:240  string public name */\n    tag_23:\n      0x00\n      dup1\n      sload\n      tag_85\n      swap1\n      tag_86\n      jump\t// in\n    tag_85:\n      dup1\n      0x1f\n      add\n      0x20\n      dup1\n      swap2\n      div\n      mul\n      0x20\n      add\n      mload(0x40)\n      swap1\n      dup2\n      add\n      0x40\n      mstore\n      dup1\n      swap3\n      swap2\n      swap1\n      dup2\n      dup2\n      mstore\n      0x20\n      add\n      dup3\n      dup1\n      sload\n      tag_87\n      swap1\n      tag_86\n      jump\t// in\n    tag_87:\n      dup1\n      iszero\n      tag_88\n      jumpi\n      dup1\n      0x1f\n      lt\n      tag_89\n      jumpi\n      0x0100\n      dup1\n      dup4\n      sload\n      div\n      mul\n      dup4\n      mstore\n      swap2\n      0x20\n      add\n      swap2\n      jump(tag_88)\n    tag_89:\n      dup3\n      add\n      swap2\n      swap1\n      0x00\n      mstore\n      keccak256(0x00, 0x20)\n      swap1\n    tag_90:\n      dup2\n      sload\n      dup2\n      mstore\n      swap1\n      0x01\n      add\n      swap1\n      0x20\n      add\n      dup1\n      dup4\n      gt\n      tag_90\n      jumpi\n      dup3\n      swap1\n      sub\n      0x1f\n      and\n      dup3\n      add\n      swap2\n    tag_88:\n      pop\n      pop\n      pop\n      pop\n      pop\n      dup2\n      jump\t// out\n        /* \"src/ERC20.sol\":3896:4206  function approve(address spender, uint256 amount) external returns(bool)... */\n    tag_29:\n        /* \"src/ERC20.sol\":3963:3967  bool */\n      0x00\n        /* \"src/ERC20.sol\":3999:4000  0 */\n      dup1\n        /* \"src/ERC20.sol\":3989:3995  amount */\n      dup3\n        /* \"src/ERC20.sol\":3989:4000  amount == 0 */\n      eq\n        /* \"src/ERC20.sol\":3989:4025  amount == 0 || spender == address(0) */\n      dup1\n      tag_92\n      jumpi\n      pop\n        /* \"src/ERC20.sol\":4023:4024  0 */\n      0x00\n        /* \"src/ERC20.sol\":4004:4025  spender == address(0) */\n      0xffffffffffffffffffffffffffffffffffffffff\n      and\n        /* \"src/ERC20.sol\":4004:4011  spender */\n      dup4\n        /* \"src/ERC20.sol\":4004:4025  spender == address(0) */\n      0xffffffffffffffffffffffffffffffffffffffff\n      and\n      eq\n        /* \"src/ERC20.sol\":3989:4025  amount == 0 || spender == address(0) */\n    tag_92:\n        /* \"src/ERC20.sol\":3989:4059  amount == 0 || spender == address(0) || balanceOf[msg.sender] < amount */\n      dup1\n      tag_93\n      jumpi\n      pop\n        /* \"src/ERC20.sol\":4053:4059  amount */\n      dup2\n        /* \"src/ERC20.sol\":4029:4038  balanceOf */\n      0x05\n        /* \"src/ERC20.sol\":4029:4050  balanceOf[msg.sender] */\n      0x00\n        /* \"src/ERC20.sol\":4039:4049  msg.sender */\n      caller\n        /* \"src/ERC20.sol\":4029:4050  balanceOf[msg.sender] */\n      0xffffffffffffffffffffffffffffffffffffffff\n      and\n      0xffffffffffffffffffffffffffffffffffffffff\n      and\n      dup2\n      mstore\n      0x20\n      add\n      swap1\n      dup2\n      mstore\n      0x20\n      add\n      0x00\n      keccak256\n      sload\n        /* \"src/ERC20.sol\":4029:4059  balanceOf[msg.sender] < amount */\n      lt\n        /* \"src/ERC20.sol\":3989:4059  amount == 0 || spender == address(0) || balanceOf[msg.sender] < amount */\n    tag_93:\n        /* \"src/ERC20.sol\":3985:4073  if (amount == 0 || spender == address(0) || balanceOf[msg.sender] < amount) return false */\n      iszero\n      tag_94\n      jumpi\n        /* \"src/ERC20.sol\":4068:4073  false */\n      0x00\n        /* \"src/ERC20.sol\":4061:4073  return false */\n      swap1\n      pop\n      jump(tag_91)\n        /* \"src/ERC20.sol\":3985:4073  if (amount == 0 || spender == address(0) || balanceOf[msg.sender] < amount) return false */\n    tag_94:\n        /* \"src/ERC20.sol\":4117:4123  amount */\n      dup2\n        /* \"src/ERC20.sol\":4084:4093  allowance */\n      0x06\n        /* \"src/ERC20.sol\":4084:4105  allowance[msg.sender] */\n      0x00\n        /* \"src/ERC20.sol\":4094:4104  msg.sender */\n      caller\n        /* \"src/ERC20.sol\":4084:4105  allowance[msg.sender] */\n      0xffffffffffffffffffffffffffffffffffffffff\n      and\n      0xffffffffffffffffffffffffffffffffffffffff\n      and\n      dup2\n      mstore\n      0x20\n      add\n      swap1\n      dup2\n      mstore\n      0x20\n      add\n      0x00\n      keccak256\n        /* \"src/ERC20.sol\":4084:4114  allowance[msg.sender][spender] */\n      0x00\n        /* \"src/ERC20.sol\":4106:4113  spender */\n      dup6\n        /* \"src/ERC20.sol\":4084:4114  allowance[msg.sender][spender] */\n      0xffffffffffffffffffffffffffffffffffffffff\n      and\n      0xffffffffffffffffffffffffffffffffffffffff\n      and\n      dup2\n      mstore\n      0x20\n      add\n      swap1\n      dup2\n      mstore\n      0x20\n      add\n      0x00\n      keccak256\n        /* \"src/ERC20.sol\":4084:4123  allowance[msg.sender][spender] = amount */\n      dup2\n      swap1\n      sstore\n      pop\n        /* \"src/ERC20.sol\":4160:4167  spender */\n      dup3\n        /* \"src/ERC20.sol\":4139:4176  Approval(msg.sender, spender, amount) */\n      0xffffffffffffffffffffffffffffffffffffffff\n      and\n        /* \"src/ERC20.sol\":4148:4158  msg.sender */\n      caller\n        /* \"src/ERC20.sol\":4139:4176  Approval(msg.sender, spender, amount) */\n      0xffffffffffffffffffffffffffffffffffffffff\n      and\n      0x8c5be1e5ebec7d5bd14f71427d1e84f3dd0314c0f7b2291e5b200ac8c7c3b925\n        /* \"src/ERC20.sol\":4169:4175  amount */\n      dup5\n        /* \"src/ERC20.sol\":4139:4176  Approval(msg.sender, spender, amount) */\n      mload(0x40)\n      tag_95\n      swap2\n      swap1\n      tag_38\n      jump\t// in\n    tag_95:\n      mload(0x40)\n      dup1\n      swap2\n      sub\n      swap1\n      log3\n        /* \"src/ERC20.sol\":4194:4198  true */\n      0x01\n        /* \"src/ERC20.sol\":4187:4198  return true */\n      swap1\n      pop\n        /* \"src/ERC20.sol\":3896:4206  function approve(address spender, uint256 amount) external returns(bool)... */\n    tag_91:\n      swap3\n      swap2\n      pop\n      pop\n      jump\t// out\n        /* \"src/ERC20.sol\":2530:2799  function claimTokenOwnership() external ... */\n    tag_33:\n        /* \"src/ERC20.sol\":2624:2628  bool */\n      0x00\n        /* \"src/ERC20.sol\":2590:2604  nextTokenOwner */\n      0x04\n      0x00\n      swap1\n      sload\n      swap1\n      0x0100\n      exp\n      swap1\n      div\n      0xffffffffffffffffffffffffffffffffffffffff\n      and\n        /* \"src/ERC20.sol\":1344:1355  _authorized */\n      dup1\n        /* \"src/ERC20.sol\":1330:1355  msg.sender == _authorized */\n      0xffffffffffffffffffffffffffffffffffffffff\n      and\n        /* \"src/ERC20.sol\":1330:1340  msg.sender */\n      caller\n        /* \"src/ERC20.sol\":1330:1355  msg.sender == _authorized */\n      0xffffffffffffffffffffffffffffffffffffffff\n      and\n      eq\n        /* \"src/ERC20.sol\":1322:1384  require(msg.sender == _authorized, \"Caller is not authorized\") */\n      tag_97\n      jumpi\n      mload(0x40)\n      0x08c379a000000000000000000000000000000000000000000000000000000000\n      dup2\n      mstore\n      0x04\n      add\n      tag_98\n      swap1\n      tag_99\n      jump\t// in\n    tag_98:\n      mload(0x40)\n      dup1\n      swap2\n      sub\n      swap1\n      revert\n    tag_97:\n        /* \"src/ERC20.sol\":2659:2673  nextTokenOwner */\n      0x04\n      0x00\n      swap1\n      sload\n      swap1\n      0x0100\n      exp\n      swap1\n      div\n      0xffffffffffffffffffffffffffffffffffffffff\n      and\n        /* \"src/ERC20.sol\":2646:2656  tokenOwner */\n      0x03\n      0x00\n        /* \"src/ERC20.sol\":2646:2673  tokenOwner = nextTokenOwner */\n      0x0100\n      exp\n      dup2\n      sload\n      dup2\n      0xffffffffffffffffffffffffffffffffffffffff\n      mul\n      not\n      and\n      swap1\n      dup4\n      0xffffffffffffffffffffffffffffffffffffffff\n      and\n      mul\n      or\n      swap1\n      sstore\n      pop\n        /* \"src/ERC20.sol\":2709:2710  0 */\n      0x00\n        /* \"src/ERC20.sol\":2684:2698  nextTokenOwner */\n      0x04\n      0x00\n        /* \"src/ERC20.sol\":2684:2711  nextTokenOwner = address(0) */\n      0x0100\n      exp\n      dup2\n      sload\n      dup2\n      0xffffffffffffffffffffffffffffffffffffffff\n      mul\n      not\n      and\n      swap1\n      dup4\n      0xffffffffffffffffffffffffffffffffffffffff\n      and\n      mul\n      or\n      swap1\n      sstore\n      pop\n        /* \"src/ERC20.sol\":2758:2768  tokenOwner */\n      0x03\n      0x00\n      swap1\n      sload\n      swap1\n      0x0100\n      exp\n      swap1\n      div\n      0xffffffffffffffffffffffffffffffffffffffff\n      and\n        /* \"src/ERC20.sol\":2727:2769  TokenOwnershipTransferFinished(tokenOwner) */\n      0xffffffffffffffffffffffffffffffffffffffff\n      and\n      0x96a25b4900cebf93ed691b1c763e37a5a01cd4b9b62e0df10688a47856def7a5\n      mload(0x40)\n      mload(0x40)\n      dup1\n      swap2\n      sub\n      swap1\n      log2\n        /* \"src/ERC20.sol\":2787:2791  true */\n      0x01\n        /* \"src/ERC20.sol\":2780:2791  return true */\n      swap2\n      pop\n        /* \"src/ERC20.sol\":2530:2799  function claimTokenOwnership() external ... */\n      pop\n      swap1\n      jump\t// out\n        /* \"src/ERC20.sol\":312:338  uint256 public totalSupply */\n    tag_36:\n      sload(0x02)\n      dup2\n      jump\t// out\n        /* \"src/ERC20.sol\":2118:2431  function transferTokenOwnership(address _nextTokenOwner) external ... */\n    tag_42:\n        /* \"src/ERC20.sol\":2274:2278  bool */\n      0x00\n        /* \"src/ERC20.sol\":2204:2214  tokenOwner */\n      0x03\n      0x00\n      swap1\n      sload\n      swap1\n      0x0100\n      exp\n      swap1\n      div\n      0xffffffffffffffffffffffffffffffffffffffff\n      and\n        /* \"src/ERC20.sol\":1344:1355  _authorized */\n      dup1\n        /* \"src/ERC20.sol\":1330:1355  msg.sender == _authorized */\n      0xffffffffffffffffffffffffffffffffffffffff\n      and\n        /* \"src/ERC20.sol\":1330:1340  msg.sender */\n      caller\n        /* \"src/ERC20.sol\":1330:1355  msg.sender == _authorized */\n      0xffffffffffffffffffffffffffffffffffffffff\n      and\n      eq\n        /* \"src/ERC20.sol\":1322:1384  require(msg.sender == _authorized, \"Caller is not authorized\") */\n      tag_102\n      jumpi\n      mload(0x40)\n      0x08c379a000000000000000000000000000000000000000000000000000000000\n      dup2\n      mstore\n      0x04\n      add\n      tag_103\n      swap1\n      tag_99\n      jump\t// in\n    tag_103:\n      mload(0x40)\n      dup1\n      swap2\n      sub\n      swap1\n      revert\n    tag_102:\n        /* \"src/ERC20.sol\":2240:2255  _nextTokenOwner */\n      dup3\n        /* \"src/ERC20.sol\":1479:1482  _to */\n      dup1\n        /* \"src/ERC20.sol\":1465:1482  address(0) != _to */\n      0xffffffffffffffffffffffffffffffffffffffff\n      and\n        /* \"src/ERC20.sol\":1473:1474  0 */\n      0x00\n        /* \"src/ERC20.sol\":1465:1482  address(0) != _to */\n      0xffffffffffffffffffffffffffffffffffffffff\n      and\n      sub\n        /* \"src/ERC20.sol\":1457:1530  require(address(0) != _to, \"Transfer to the zero address is not allowed\") */\n      tag_105\n      jumpi\n      mload(0x40)\n      0x08c379a000000000000000000000000000000000000000000000000000000000\n      dup2\n      mstore\n      0x04\n      add\n      tag_106\n      swap1\n      tag_107\n      jump\t// in\n    tag_106:\n      mload(0x40)\n      dup1\n      swap2\n      sub\n      swap1\n      revert\n    tag_105:\n        /* \"src/ERC20.sol\":2313:2328  _nextTokenOwner */\n      dup4\n        /* \"src/ERC20.sol\":2296:2310  nextTokenOwner */\n      0x04\n      0x00\n        /* \"src/ERC20.sol\":2296:2328  nextTokenOwner = _nextTokenOwner */\n      0x0100\n      exp\n      dup2\n      sload\n      dup2\n      0xffffffffffffffffffffffffffffffffffffffff\n      mul\n      not\n      and\n      swap1\n      dup4\n      0xffffffffffffffffffffffffffffffffffffffff\n      and\n      mul\n      or\n      swap1\n      sstore\n      pop\n        /* \"src/ERC20.sol\":2386:2400  nextTokenOwner */\n      0x04\n      0x00\n      swap1\n      sload\n      swap1\n      0x0100\n      exp\n      swap1\n      div\n      0xffffffffffffffffffffffffffffffffffffffff\n      and\n        /* \"src/ERC20.sol\":2344:2401  TokenOwnershipTransferStarted(tokenOwner, nextTokenOwner) */\n      0xffffffffffffffffffffffffffffffffffffffff\n      and\n        /* \"src/ERC20.sol\":2374:2384  tokenOwner */\n      0x03\n      0x00\n      swap1\n      sload\n      swap1\n      0x0100\n      exp\n      swap1\n      div\n      0xffffffffffffffffffffffffffffffffffffffff\n      and\n        /* \"src/ERC20.sol\":2344:2401  TokenOwnershipTransferStarted(tokenOwner, nextTokenOwner) */\n      0xffffffffffffffffffffffffffffffffffffffff\n      and\n      0x79d2e4ff11f0c38e318513361054112b3865ca4f53b3c97152af0640db000e25\n      mload(0x40)\n      mload(0x40)\n      dup1\n      swap2\n      sub\n      swap1\n      log3\n        /* \"src/ERC20.sol\":2419:2423  true */\n      0x01\n        /* \"src/ERC20.sol\":2412:2423  return true */\n      swap3\n      pop\n        /* \"src/ERC20.sol\":1395:1396  _ */\n      pop\n        /* \"src/ERC20.sol\":2118:2431  function transferTokenOwnership(address _nextTokenOwner) external ... */\n      pop\n      swap2\n      swap1\n      pop\n      jump\t// out\n        /* \"src/ERC20.sol\":3334:3778  function transferFrom(address sender, address recipient, uint256 amount) external returns(bool)... */\n    tag_47:\n        /* \"src/ERC20.sol\":3424:3428  bool */\n      0x00\n        /* \"src/ERC20.sol\":3460:3461  0 */\n      dup1\n        /* \"src/ERC20.sol\":3450:3456  amount */\n      dup3\n        /* \"src/ERC20.sol\":3450:3461  amount == 0 */\n      eq\n        /* \"src/ERC20.sol\":3450:3488  amount == 0 || recipient == address(0) */\n      dup1\n      tag_110\n      jumpi\n      pop\n        /* \"src/ERC20.sol\":3486:3487  0 */\n      0x00\n        /* \"src/ERC20.sol\":3465:3488  recipient == address(0) */\n      0xffffffffffffffffffffffffffffffffffffffff\n      and\n        /* \"src/ERC20.sol\":3465:3474  recipient */\n      dup4\n        /* \"src/ERC20.sol\":3465:3488  recipient == address(0) */\n      0xffffffffffffffffffffffffffffffffffffffff\n      and\n      eq\n        /* \"src/ERC20.sol\":3450:3488  amount == 0 || recipient == address(0) */\n    tag_110:\n        /* \"src/ERC20.sol\":3450:3518  amount == 0 || recipient == address(0) || balanceOf[sender] < amount */\n      dup1\n      tag_111\n      jumpi\n      pop\n        /* \"src/ERC20.sol\":3512:3518  amount */\n      dup2\n        /* \"src/ERC20.sol\":3492:3501  balanceOf */\n      0x05\n        /* \"src/ERC20.sol\":3492:3509  balanceOf[sender] */\n      0x00\n        /* \"src/ERC20.sol\":3502:3508  sender */\n      dup7\n        /* \"src/ERC20.sol\":3492:3509  balanceOf[sender] */\n      0xffffffffffffffffffffffffffffffffffffffff\n      and\n      0xffffffffffffffffffffffffffffffffffffffff\n      and\n      dup2\n      mstore\n      0x20\n      add\n      swap1\n      dup2\n      mstore\n      0x20\n      add\n      0x00\n      keccak256\n      sload\n        /* \"src/ERC20.sol\":3492:3518  balanceOf[sender] < amount */\n      lt\n        /* \"src/ERC20.sol\":3450:3518  amount == 0 || recipient == address(0) || balanceOf[sender] < amount */\n    tag_111:\n        /* \"src/ERC20.sol\":3450:3560  amount == 0 || recipient == address(0) || balanceOf[sender] < amount || allowance[sender][msg.sender] < amount */\n      dup1\n      tag_112\n      jumpi\n      pop\n        /* \"src/ERC20.sol\":3554:3560  amount */\n      dup2\n        /* \"src/ERC20.sol\":3522:3531  allowance */\n      0x06\n        /* \"src/ERC20.sol\":3522:3539  allowance[sender] */\n      0x00\n        /* \"src/ERC20.sol\":3532:3538  sender */\n      dup7\n        /* \"src/ERC20.sol\":3522:3539  allowance[sender] */\n      0xffffffffffffffffffffffffffffffffffffffff\n      and\n      0xffffffffffffffffffffffffffffffffffffffff\n      and\n      dup2\n      mstore\n      0x20\n      add\n      swap1\n      dup2\n      mstore\n      0x20\n      add\n      0x00\n      keccak256\n        /* \"src/ERC20.sol\":3522:3551  allowance[sender][msg.sender] */\n      0x00\n        /* \"src/ERC20.sol\":3540:3550  msg.sender */\n      caller\n        /* \"src/ERC20.sol\":3522:3551  allowance[sender][msg.sender] */\n      0xffffffffffffffffffffffffffffffffffffffff\n      and\n      0xffffffffffffffffffffffffffffffffffffffff\n      and\n      dup2\n      mstore\n      0x20\n      add\n      swap1\n      dup2\n      mstore\n      0x20\n      add\n      0x00\n      keccak256\n      sload\n        /* \"src/ERC20.sol\":3522:3560  allowance[sender][msg.sender] < amount */\n      lt\n        /* \"src/ERC20.sol\":3450:3560  amount == 0 || recipient == address(0) || balanceOf[sender] < amount || allowance[sender][msg.sender] < amount */\n    tag_112:\n        /* \"src/ERC20.sol\":3446:3574  if (amount == 0 || recipient == address(0) || balanceOf[sender] < amount || allowance[sender][msg.sender] < amount) return false */\n      iszero\n      tag_113\n      jumpi\n        /* \"src/ERC20.sol\":3569:3574  false */\n      0x00\n        /* \"src/ERC20.sol\":3562:3574  return false */\n      swap1\n      pop\n      jump(tag_109)\n        /* \"src/ERC20.sol\":3446:3574  if (amount == 0 || recipient == address(0) || balanceOf[sender] < amount || allowance[sender][msg.sender] < amount) return false */\n    tag_113:\n        /* \"src/ERC20.sol\":3616:3622  amount */\n      dup2\n        /* \"src/ERC20.sol\":3585:3594  allowance */\n      0x06\n        /* \"src/ERC20.sol\":3585:3602  allowance[sender] */\n      0x00\n        /* \"src/ERC20.sol\":3595:3601  sender */\n      dup7\n        /* \"src/ERC20.sol\":3585:3602  allowance[sender] */\n      0xffffffffffffffffffffffffffffffffffffffff\n      and\n      0xffffffffffffffffffffffffffffffffffffffff\n      and\n      dup2\n      mstore\n      0x20\n      add\n      swap1\n      dup2\n      mstore\n      0x20\n      add\n      0x00\n      keccak256\n        /* \"src/ERC20.sol\":3585:3614  allowance[sender][msg.sender] */\n      0x00\n        /* \"src/ERC20.sol\":3603:3613  msg.sender */\n      caller\n        /* \"src/ERC20.sol\":3585:3614  allowance[sender][msg.sender] */\n      0xffffffffffffffffffffffffffffffffffffffff\n      and\n      0xffffffffffffffffffffffffffffffffffffffff\n      and\n      dup2\n      mstore\n      0x20\n      add\n      swap1\n      dup2\n      mstore\n      0x20\n      add\n      0x00\n      keccak256\n      0x00\n        /* \"src/ERC20.sol\":3585:3622  allowance[sender][msg.sender]-=amount */\n      dup3\n      dup3\n      sload\n      tag_114\n      swap2\n      swap1\n      tag_115\n      jump\t// in\n    tag_114:\n      swap3\n      pop\n      pop\n      dup2\n      swap1\n      sstore\n      pop\n        /* \"src/ERC20.sol\":3652:3658  amount */\n      dup2\n        /* \"src/ERC20.sol\":3633:3642  balanceOf */\n      0x05\n        /* \"src/ERC20.sol\":3633:3650  balanceOf[sender] */\n      0x00\n        /* \"src/ERC20.sol\":3643:3649  sender */\n      dup7\n        /* \"src/ERC20.sol\":3633:3650  balanceOf[sender] */\n      0xffffffffffffffffffffffffffffffffffffffff\n      and\n      0xffffffffffffffffffffffffffffffffffffffff\n      and\n      dup2\n      mstore\n      0x20\n      add\n      swap1\n      dup2\n      mstore\n      0x20\n      add\n      0x00\n      keccak256\n      0x00\n        /* \"src/ERC20.sol\":3633:3658  balanceOf[sender]-=amount */\n      dup3\n      dup3\n      sload\n      tag_116\n      swap2\n      swap1\n      tag_115\n      jump\t// in\n    tag_116:\n      swap3\n      pop\n      pop\n      dup2\n      swap1\n      sstore\n      pop\n        /* \"src/ERC20.sol\":3691:3697  amount */\n      dup2\n        /* \"src/ERC20.sol\":3669:3678  balanceOf */\n      0x05\n        /* \"src/ERC20.sol\":3669:3689  balanceOf[recipient] */\n      0x00\n        /* \"src/ERC20.sol\":3679:3688  recipient */\n      dup6\n        /* \"src/ERC20.sol\":3669:3689  balanceOf[recipient] */\n      0xffffffffffffffffffffffffffffffffffffffff\n      and\n      0xffffffffffffffffffffffffffffffffffffffff\n      and\n      dup2\n      mstore\n      0x20\n      add\n      swap1\n      dup2\n      mstore\n      0x20\n      add\n      0x00\n      keccak256\n      0x00\n        /* \"src/ERC20.sol\":3669:3697  balanceOf[recipient]+=amount */\n      dup3\n      dup3\n      sload\n      tag_117\n      swap2\n      swap1\n      tag_118\n      jump\t// in\n    tag_117:\n      swap3\n      pop\n      pop\n      dup2\n      swap1\n      sstore\n      pop\n        /* \"src/ERC20.sol\":3730:3739  recipient */\n      dup3\n        /* \"src/ERC20.sol\":3713:3748  Transfer(sender, recipient, amount) */\n      0xffffffffffffffffffffffffffffffffffffffff\n      and\n        /* \"src/ERC20.sol\":3722:3728  sender */\n      dup5\n        /* \"src/ERC20.sol\":3713:3748  Transfer(sender, recipient, amount) */\n      0xffffffffffffffffffffffffffffffffffffffff\n      and\n      0xddf252ad1be2c89b69c2b068fc378daa952ba7f163c4a11628f55a4df523b3ef\n        /* \"src/ERC20.sol\":3741:3747  amount */\n      dup5\n        /* \"src/ERC20.sol\":3713:3748  Transfer(sender, recipient, amount) */\n      mload(0x40)\n      tag_119\n      swap2\n      swap1\n      tag_38\n      jump\t// in\n    tag_119:\n      mload(0x40)\n      dup1\n      swap2\n      sub\n      swap1\n      log3\n        /* \"src/ERC20.sol\":3766:3770  true */\n      0x01\n        /* \"src/ERC20.sol\":3759:3770  return true */\n      swap1\n      pop\n        /* \"src/ERC20.sol\":3334:3778  function transferFrom(address sender, address recipient, uint256 amount) external returns(bool)... */\n    tag_109:\n      swap4\n      swap3\n      pop\n      pop\n      pop\n      jump\t// out\n        /* \"src/ERC20.sol\":274:305  uint8 immutable public decimals */\n    tag_50:\n      immutable(\"0x1a192fabce13988b84994d4296e6cdc418d55e2f1d7f942188d4040b94fc57ac\")\n      dup2\n      jump\t// out\n        /* \"src/ERC20.sol\":4310:4544  function mint(address to, uint256 amount) external ... */\n    tag_55:\n        /* \"src/ERC20.sol\":4381:4391  tokenOwner */\n      0x03\n      0x00\n      swap1\n      sload\n      swap1\n      0x0100\n      exp\n      swap1\n      div\n      0xffffffffffffffffffffffffffffffffffffffff\n      and\n        /* \"src/ERC20.sol\":1344:1355  _authorized */\n      dup1\n        /* \"src/ERC20.sol\":1330:1355  msg.sender == _authorized */\n      0xffffffffffffffffffffffffffffffffffffffff\n      and\n        /* \"src/ERC20.sol\":1330:1340  msg.sender */\n      caller\n        /* \"src/ERC20.sol\":1330:1355  msg.sender == _authorized */\n      0xffffffffffffffffffffffffffffffffffffffff\n      and\n      eq\n        /* \"src/ERC20.sol\":1322:1384  require(msg.sender == _authorized, \"Caller is not authorized\") */\n      tag_121\n      jumpi\n      mload(0x40)\n      0x08c379a000000000000000000000000000000000000000000000000000000000\n      dup2\n      mstore\n      0x04\n      add\n      tag_122\n      swap1\n      tag_99\n      jump\t// in\n    tag_122:\n      mload(0x40)\n      dup1\n      swap2\n      sub\n      swap1\n      revert\n    tag_121:\n        /* \"src/ERC20.sol\":4416:4422  amount */\n      dup2\n        /* \"src/ERC20.sol\":1625:1626  0 */\n      0x00\n        /* \"src/ERC20.sol\":1614:1621  _amount */\n      dup2\n        /* \"src/ERC20.sol\":1614:1626  _amount != 0 */\n      sub\n        /* \"src/ERC20.sol\":1606:1663  require(_amount != 0, \"Amount must be greater than zero\") */\n      tag_124\n      jumpi\n      mload(0x40)\n      0x08c379a000000000000000000000000000000000000000000000000000000000\n      dup2\n      mstore\n      0x04\n      add\n      tag_125\n      swap1\n      tag_126\n      jump\t// in\n    tag_125:\n      mload(0x40)\n      dup1\n      swap2\n      sub\n      swap1\n      revert\n    tag_124:\n        /* \"src/ERC20.sol\":4448:4450  to */\n      dup4\n        /* \"src/ERC20.sol\":1479:1482  _to */\n      dup1\n        /* \"src/ERC20.sol\":1465:1482  address(0) != _to */\n      0xffffffffffffffffffffffffffffffffffffffff\n      and\n        /* \"src/ERC20.sol\":1473:1474  0 */\n      0x00\n        /* \"src/ERC20.sol\":1465:1482  address(0) != _to */\n      0xffffffffffffffffffffffffffffffffffffffff\n      and\n      sub\n        /* \"src/ERC20.sol\":1457:1530  require(address(0) != _to, \"Transfer to the zero address is not allowed\") */\n      tag_128\n      jumpi\n      mload(0x40)\n      0x08c379a000000000000000000000000000000000000000000000000000000000\n      dup2\n      mstore\n      0x04\n      add\n      tag_129\n      swap1\n      tag_107\n      jump\t// in\n    tag_129:\n      mload(0x40)\n      dup1\n      swap2\n      sub\n      swap1\n      revert\n    tag_128:\n        /* \"src/ERC20.sol\":4498:4507  maxSupply */\n      immutable(\"0x5c4c6aa067b6f8e6cb38e6ab843832a94d1712d661a04d73c517d6a1931a9e5d\")\n        /* \"src/ERC20.sol\":4488:4494  amount */\n      dup5\n        /* \"src/ERC20.sol\":4476:4487  totalSupply */\n      sload(0x02)\n        /* \"src/ERC20.sol\":4476:4494  totalSupply+amount */\n      tag_131\n      swap2\n      swap1\n      tag_118\n      jump\t// in\n    tag_131:\n        /* \"src/ERC20.sol\":4476:4507  totalSupply+amount <= maxSupply */\n      gt\n      iszero\n        /* \"src/ERC20.sol\":4468:4508  require(totalSupply+amount <= maxSupply) */\n      tag_132\n      jumpi\n      0x00\n      dup1\n      revert\n    tag_132:\n        /* \"src/ERC20.sol\":4519:4536  _mint(to, amount) */\n      tag_133\n        /* \"src/ERC20.sol\":4525:4527  to */\n      dup6\n        /* \"src/ERC20.sol\":4529:4535  amount */\n      dup6\n        /* \"src/ERC20.sol\":4519:4524  _mint */\n      tag_134\n        /* \"src/ERC20.sol\":4519:4536  _mint(to, amount) */\n      jump\t// in\n    tag_133:\n        /* \"src/ERC20.sol\":1674:1675  _ */\n      pop\n        /* \"src/ERC20.sol\":1395:1396  _ */\n      pop\n        /* \"src/ERC20.sol\":4310:4544  function mint(address to, uint256 amount) external ... */\n      pop\n      pop\n      pop\n      jump\t// out\n        /* \"src/ERC20.sol\":418:447  address public nextTokenOwner */\n    tag_57:\n      0x04\n      0x00\n      swap1\n      sload\n      swap1\n      0x0100\n      exp\n      swap1\n      div\n      0xffffffffffffffffffffffffffffffffffffffff\n      and\n      dup2\n      jump\t// out\n        /* \"src/ERC20.sol\":454:498  mapping(address => uint256) public balanceOf */\n    tag_62:\n      mstore(0x20, 0x05)\n      dup1\n      0x00\n      mstore\n      keccak256(0x00, 0x40)\n      0x00\n      swap2\n      pop\n      swap1\n      pop\n      sload\n      dup2\n      jump\t// out\n        /* \"src/ERC20.sol\":247:267  string public symbol */\n    tag_65:\n      0x01\n      dup1\n      sload\n      tag_135\n      swap1\n      tag_86\n      jump\t// in\n    tag_135:\n      dup1\n      0x1f\n      add\n      0x20\n      dup1\n      swap2\n      div\n      mul\n      0x20\n      add\n      mload(0x40)\n      swap1\n      dup2\n      add\n      0x40\n      mstore\n      dup1\n      swap3\n      swap2\n      swap1\n      dup2\n      dup2\n      mstore\n      0x20\n      add\n      dup3\n      dup1\n      sload\n      tag_136\n      swap1\n      tag_86\n      jump\t// in\n    tag_136:\n      dup1\n      iszero\n      tag_137\n      jumpi\n      dup1\n      0x1f\n      lt\n      tag_138\n      jumpi\n      0x0100\n      dup1\n      dup4\n      sload\n      div\n      mul\n      dup4\n      mstore\n      swap2\n      0x20\n      add\n      swap2\n      jump(tag_137)\n    tag_138:\n      dup3\n      add\n      swap2\n      swap1\n      0x00\n      mstore\n      keccak256(0x00, 0x20)\n      swap1\n    tag_139:\n      dup2\n      sload\n      dup2\n      mstore\n      swap1\n      0x01\n      add\n      swap1\n      0x20\n      add\n      dup1\n      dup4\n      gt\n      tag_139\n      jumpi\n      dup3\n      swap1\n      sub\n      0x1f\n      and\n      dup3\n      add\n      swap2\n    tag_137:\n      pop\n      pop\n      pop\n      pop\n      pop\n      dup2\n      jump\t// out\n        /* \"src/ERC20.sol\":4653:4855  function burn(address from, uint256 amount) external ... */\n    tag_69:\n        /* \"src/ERC20.sol\":4726:4736  tokenOwner */\n      0x03\n      0x00\n      swap1\n      sload\n      swap1\n      0x0100\n      exp\n      swap1\n      div\n      0xffffffffffffffffffffffffffffffffffffffff\n      and\n        /* \"src/ERC20.sol\":1344:1355  _authorized */\n      dup1\n        /* \"src/ERC20.sol\":1330:1355  msg.sender == _authorized */\n      0xffffffffffffffffffffffffffffffffffffffff\n      and\n        /* \"src/ERC20.sol\":1330:1340  msg.sender */\n      caller\n        /* \"src/ERC20.sol\":1330:1355  msg.sender == _authorized */\n      0xffffffffffffffffffffffffffffffffffffffff\n      and\n      eq\n        /* \"src/ERC20.sol\":1322:1384  require(msg.sender == _authorized, \"Caller is not authorized\") */\n      tag_141\n      jumpi\n      mload(0x40)\n      0x08c379a000000000000000000000000000000000000000000000000000000000\n      dup2\n      mstore\n      0x04\n      add\n      tag_142\n      swap1\n      tag_99\n      jump\t// in\n    tag_142:\n      mload(0x40)\n      dup1\n      swap2\n      sub\n      swap1\n      revert\n    tag_141:\n        /* \"src/ERC20.sol\":4762:4768  amount */\n      dup2\n        /* \"src/ERC20.sol\":1625:1626  0 */\n      0x00\n        /* \"src/ERC20.sol\":1614:1621  _amount */\n      dup2\n        /* \"src/ERC20.sol\":1614:1626  _amount != 0 */\n      sub\n        /* \"src/ERC20.sol\":1606:1663  require(_amount != 0, \"Amount must be greater than zero\") */\n      tag_144\n      jumpi\n      mload(0x40)\n      0x08c379a000000000000000000000000000000000000000000000000000000000\n      dup2\n      mstore\n      0x04\n      add\n      tag_145\n      swap1\n      tag_126\n      jump\t// in\n    tag_145:\n      mload(0x40)\n      dup1\n      swap2\n      sub\n      swap1\n      revert\n    tag_144:\n        /* \"src/ERC20.sol\":4797:4801  from */\n      dup4\n        /* \"src/ERC20.sol\":4803:4809  amount */\n      dup4\n        /* \"src/ERC20.sol\":1001:1008  _amount */\n      dup1\n        /* \"src/ERC20.sol\":979:988  balanceOf */\n      0x05\n        /* \"src/ERC20.sol\":979:997  balanceOf[_sender] */\n      0x00\n        /* \"src/ERC20.sol\":989:996  _sender */\n      dup5\n        /* \"src/ERC20.sol\":979:997  balanceOf[_sender] */\n      0xffffffffffffffffffffffffffffffffffffffff\n      and\n      0xffffffffffffffffffffffffffffffffffffffff\n      and\n      dup2\n      mstore\n      0x20\n      add\n      swap1\n      dup2\n      mstore\n      0x20\n      add\n      0x00\n      keccak256\n      sload\n        /* \"src/ERC20.sol\":979:1008  balanceOf[_sender] >= _amount */\n      lt\n      iszero\n        /* \"src/ERC20.sol\":971:1052  require(balanceOf[_sender] >= _amount, \"Caller does not have sufficient balance\") */\n      tag_147\n      jumpi\n      mload(0x40)\n      0x08c379a000000000000000000000000000000000000000000000000000000000\n      dup2\n      mstore\n      0x04\n      add\n      tag_148\n      swap1\n      tag_149\n      jump\t// in\n    tag_148:\n      mload(0x40)\n      dup1\n      swap2\n      sub\n      swap1\n      revert\n    tag_147:\n        /* \"src/ERC20.sol\":4828:4847  _burn(from, amount) */\n      tag_151\n        /* \"src/ERC20.sol\":4834:4838  from */\n      dup7\n        /* \"src/ERC20.sol\":4840:4846  amount */\n      dup7\n        /* \"src/ERC20.sol\":4828:4833  _burn */\n      tag_152\n        /* \"src/ERC20.sol\":4828:4847  _burn(from, amount) */\n      jump\t// in\n    tag_151:\n        /* \"src/ERC20.sol\":1674:1675  _ */\n      pop\n      pop\n        /* \"src/ERC20.sol\":1395:1396  _ */\n      pop\n        /* \"src/ERC20.sol\":4653:4855  function burn(address from, uint256 amount) external ... */\n      pop\n      pop\n      pop\n      jump\t// out\n        /* \"src/ERC20.sol\":386:411  address public tokenOwner */\n    tag_71:\n      0x03\n      0x00\n      swap1\n      sload\n      swap1\n      0x0100\n      exp\n      swap1\n      div\n      0xffffffffffffffffffffffffffffffffffffffff\n      and\n      dup2\n      jump\t// out\n        /* \"src/ERC20.sol\":2866:3213  function transfer(address recipient, uint256 amount) external returns(bool) ... */\n    tag_75:\n        /* \"src/ERC20.sol\":2936:2940  bool */\n      0x00\n        /* \"src/ERC20.sol\":2973:2974  0 */\n      dup1\n        /* \"src/ERC20.sol\":2963:2969  amount */\n      dup3\n        /* \"src/ERC20.sol\":2963:2974  amount == 0 */\n      eq\n        /* \"src/ERC20.sol\":2963:3001  amount == 0 || recipient == address(0) */\n      dup1\n      tag_154\n      jumpi\n      pop\n        /* \"src/ERC20.sol\":2999:3000  0 */\n      0x00\n        /* \"src/ERC20.sol\":2978:3001  recipient == address(0) */\n      0xffffffffffffffffffffffffffffffffffffffff\n      and\n        /* \"src/ERC20.sol\":2978:2987  recipient */\n      dup4\n        /* \"src/ERC20.sol\":2978:3001  recipient == address(0) */\n      0xffffffffffffffffffffffffffffffffffffffff\n      and\n      eq\n        /* \"src/ERC20.sol\":2963:3001  amount == 0 || recipient == address(0) */\n    tag_154:\n        /* \"src/ERC20.sol\":2963:3035  amount == 0 || recipient == address(0) || balanceOf[msg.sender] < amount */\n      dup1\n      tag_155\n      jumpi\n      pop\n        /* \"src/ERC20.sol\":3029:3035  amount */\n      dup2\n        /* \"src/ERC20.sol\":3005:3014  balanceOf */\n      0x05\n        /* \"src/ERC20.sol\":3005:3026  balanceOf[msg.sender] */\n      0x00\n        /* \"src/ERC20.sol\":3015:3025  msg.sender */\n      caller\n        /* \"src/ERC20.sol\":3005:3026  balanceOf[msg.sender] */\n      0xffffffffffffffffffffffffffffffffffffffff\n      and\n      0xffffffffffffffffffffffffffffffffffffffff\n      and\n      dup2\n      mstore\n      0x20\n      add\n      swap1\n      dup2\n      mstore\n      0x20\n      add\n      0x00\n      keccak256\n      sload\n        /* \"src/ERC20.sol\":3005:3035  balanceOf[msg.sender] < amount */\n      lt\n        /* \"src/ERC20.sol\":2963:3035  amount == 0 || recipient == address(0) || balanceOf[msg.sender] < amount */\n    tag_155:\n        /* \"src/ERC20.sol\":2959:3049  if (amount == 0 || recipient == address(0) || balanceOf[msg.sender] < amount) return false */\n      iszero\n      tag_156\n      jumpi\n        /* \"src/ERC20.sol\":3044:3049  false */\n      0x00\n        /* \"src/ERC20.sol\":3037:3049  return false */\n      swap1\n      pop\n      jump(tag_153)\n        /* \"src/ERC20.sol\":2959:3049  if (amount == 0 || recipient == address(0) || balanceOf[msg.sender] < amount) return false */\n    tag_156:\n        /* \"src/ERC20.sol\":3083:3089  amount */\n      dup2\n        /* \"src/ERC20.sol\":3060:3069  balanceOf */\n      0x05\n        /* \"src/ERC20.sol\":3060:3081  balanceOf[msg.sender] */\n      0x00\n        /* \"src/ERC20.sol\":3070:3080  msg.sender */\n      caller\n        /* \"src/ERC20.sol\":3060:3081  balanceOf[msg.sender] */\n      0xffffffffffffffffffffffffffffffffffffffff\n      and\n      0xffffffffffffffffffffffffffffffffffffffff\n      and\n      dup2\n      mstore\n      0x20\n      add\n      swap1\n      dup2\n      mstore\n      0x20\n      add\n      0x00\n      keccak256\n      0x00\n        /* \"src/ERC20.sol\":3060:3089  balanceOf[msg.sender]-=amount */\n      dup3\n      dup3\n      sload\n      tag_157\n      swap2\n      swap1\n      tag_115\n      jump\t// in\n    tag_157:\n      swap3\n      pop\n      pop\n      dup2\n      swap1\n      sstore\n      pop\n        /* \"src/ERC20.sol\":3122:3128  amount */\n      dup2\n        /* \"src/ERC20.sol\":3100:3109  balanceOf */\n      0x05\n        /* \"src/ERC20.sol\":3100:3120  balanceOf[recipient] */\n      0x00\n        /* \"src/ERC20.sol\":3110:3119  recipient */\n      dup6\n        /* \"src/ERC20.sol\":3100:3120  balanceOf[recipient] */\n      0xffffffffffffffffffffffffffffffffffffffff\n      and\n      0xffffffffffffffffffffffffffffffffffffffff\n      and\n      dup2\n      mstore\n      0x20\n      add\n      swap1\n      dup2\n      mstore\n      0x20\n      add\n      0x00\n      keccak256\n      0x00\n        /* \"src/ERC20.sol\":3100:3128  balanceOf[recipient]+=amount */\n      dup3\n      dup3\n      sload\n      tag_158\n      swap2\n      swap1\n      tag_118\n      jump\t// in\n    tag_158:\n      swap3\n      pop\n      pop\n      dup2\n      swap1\n      sstore\n      pop\n        /* \"src/ERC20.sol\":3165:3174  recipient */\n      dup3\n        /* \"src/ERC20.sol\":3144:3183  Transfer(msg.sender, recipient, amount) */\n      0xffffffffffffffffffffffffffffffffffffffff\n      and\n        /* \"src/ERC20.sol\":3153:3163  msg.sender */\n      caller\n        /* \"src/ERC20.sol\":3144:3183  Transfer(msg.sender, recipient, amount) */\n      0xffffffffffffffffffffffffffffffffffffffff\n      and\n      0xddf252ad1be2c89b69c2b068fc378daa952ba7f163c4a11628f55a4df523b3ef\n        /* \"src/ERC20.sol\":3176:3182  amount */\n      dup5\n        /* \"src/ERC20.sol\":3144:3183  Transfer(msg.sender, recipient, amount) */\n      mload(0x40)\n      tag_159\n      swap2\n      swap1\n      tag_38\n      jump\t// in\n    tag_159:\n      mload(0x40)\n      dup1\n      swap2\n      sub\n      swap1\n      log3\n        /* \"src/ERC20.sol\":3201:3205  true */\n      0x01\n        /* \"src/ERC20.sol\":3194:3205  return true */\n      swap1\n      pop\n        /* \"src/ERC20.sol\":2866:3213  function transfer(address recipient, uint256 amount) external returns(bool) ... */\n    tag_153:\n      swap3\n      swap2\n      pop\n      pop\n      jump\t// out\n        /* \"src/ERC20.sol\":345:379  uint256 immutable public maxSupply */\n    tag_78:\n      immutable(\"0x5c4c6aa067b6f8e6cb38e6ab843832a94d1712d661a04d73c517d6a1931a9e5d\")\n      dup2\n      jump\t// out\n        /* \"src/ERC20.sol\":505:569  mapping(address => mapping(address => uint256)) public allowance */\n    tag_83:\n      mstore(0x20, 0x06)\n      dup2\n      0x00\n      mstore\n      mstore(0x20, keccak256(0x00, 0x40))\n      dup1\n      0x00\n      mstore\n      keccak256(0x00, 0x40)\n      0x00\n      swap2\n      pop\n      swap2\n      pop\n      pop\n      sload\n      dup2\n      jump\t// out\n        /* \"src/ERC20.sol\":4943:5116  function _mint(address to, uint256 amount) internal{... */\n    tag_134:\n        /* \"src/ERC20.sol\":5022:5028  amount */\n      dup1\n        /* \"src/ERC20.sol\":5005:5014  balanceOf */\n      0x05\n        /* \"src/ERC20.sol\":5005:5018  balanceOf[to] */\n      0x00\n        /* \"src/ERC20.sol\":5015:5017  to */\n      dup5\n        /* \"src/ERC20.sol\":5005:5018  balanceOf[to] */\n      0xffffffffffffffffffffffffffffffffffffffff\n      and\n      0xffffffffffffffffffffffffffffffffffffffff\n      and\n      dup2\n      mstore\n      0x20\n      add\n      swap1\n      dup2\n      mstore\n      0x20\n      add\n      0x00\n      keccak256\n      0x00\n        /* \"src/ERC20.sol\":5005:5028  balanceOf[to] += amount */\n      dup3\n      dup3\n      sload\n      tag_161\n      swap2\n      swap1\n      tag_118\n      jump\t// in\n    tag_161:\n      swap3\n      pop\n      pop\n      dup2\n      swap1\n      sstore\n      pop\n        /* \"src/ERC20.sol\":5054:5060  amount */\n      dup1\n        /* \"src/ERC20.sol\":5039:5050  totalSupply */\n      0x02\n      0x00\n        /* \"src/ERC20.sol\":5039:5060  totalSupply += amount */\n      dup3\n      dup3\n      sload\n      tag_162\n      swap2\n      swap1\n      tag_118\n      jump\t// in\n    tag_162:\n      swap3\n      pop\n      pop\n      dup2\n      swap1\n      sstore\n      pop\n        /* \"src/ERC20.sol\":5097:5099  to */\n      dup2\n        /* \"src/ERC20.sol\":5076:5108  Transfer(address(0), to, amount) */\n      0xffffffffffffffffffffffffffffffffffffffff\n      and\n        /* \"src/ERC20.sol\":5093:5094  0 */\n      0x00\n        /* \"src/ERC20.sol\":5076:5108  Transfer(address(0), to, amount) */\n      0xffffffffffffffffffffffffffffffffffffffff\n      and\n      0xddf252ad1be2c89b69c2b068fc378daa952ba7f163c4a11628f55a4df523b3ef\n        /* \"src/ERC20.sol\":5101:5107  amount */\n      dup4\n        /* \"src/ERC20.sol\":5076:5108  Transfer(address(0), to, amount) */\n      mload(0x40)\n      tag_163\n      swap2\n      swap1\n      tag_38\n      jump\t// in\n    tag_163:\n      mload(0x40)\n      dup1\n      swap2\n      sub\n      swap1\n      log3\n        /* \"src/ERC20.sol\":4943:5116  function _mint(address to, uint256 amount) internal{... */\n      pop\n      pop\n      jump\t// out\n        /* \"src/ERC20.sol\":5210:5389  function _burn(address from, uint256 amount) internal{... */\n    tag_152:\n        /* \"src/ERC20.sol\":5293:5299  amount */\n      dup1\n        /* \"src/ERC20.sol\":5274:5283  balanceOf */\n      0x05\n        /* \"src/ERC20.sol\":5274:5289  balanceOf[from] */\n      0x00\n        /* \"src/ERC20.sol\":5284:5288  from */\n      dup5\n        /* \"src/ERC20.sol\":5274:5289  balanceOf[from] */\n      0xffffffffffffffffffffffffffffffffffffffff\n      and\n      0xffffffffffffffffffffffffffffffffffffffff\n      and\n      dup2\n      mstore\n      0x20\n      add\n      swap1\n      dup2\n      mstore\n      0x20\n      add\n      0x00\n      keccak256\n      0x00\n        /* \"src/ERC20.sol\":5274:5299  balanceOf[from] -= amount */\n      dup3\n      dup3\n      sload\n      tag_165\n      swap2\n      swap1\n      tag_115\n      jump\t// in\n    tag_165:\n      swap3\n      pop\n      pop\n      dup2\n      swap1\n      sstore\n      pop\n        /* \"src/ERC20.sol\":5325:5331  amount */\n      dup1\n        /* \"src/ERC20.sol\":5310:5321  totalSupply */\n      0x02\n      0x00\n        /* \"src/ERC20.sol\":5310:5331  totalSupply -= amount */\n      dup3\n      dup3\n      sload\n      tag_166\n      swap2\n      swap1\n      tag_115\n      jump\t// in\n    tag_166:\n      swap3\n      pop\n      pop\n      dup2\n      swap1\n      sstore\n      pop\n        /* \"src/ERC20.sol\":5370:5371  0 */\n      0x00\n        /* \"src/ERC20.sol\":5347:5381  Transfer(from, address(0), amount) */\n      0xffffffffffffffffffffffffffffffffffffffff\n      and\n        /* \"src/ERC20.sol\":5356:5360  from */\n      dup3\n        /* \"src/ERC20.sol\":5347:5381  Transfer(from, address(0), amount) */\n      0xffffffffffffffffffffffffffffffffffffffff\n      and\n      0xddf252ad1be2c89b69c2b068fc378daa952ba7f163c4a11628f55a4df523b3ef\n        /* \"src/ERC20.sol\":5374:5380  amount */\n      dup4\n        /* \"src/ERC20.sol\":5347:5381  Transfer(from, address(0), amount) */\n      mload(0x40)\n      tag_167\n      swap2\n      swap1\n      tag_38\n      jump\t// in\n    tag_167:\n      mload(0x40)\n      dup1\n      swap2\n      sub\n      swap1\n      log3\n        /* \"src/ERC20.sol\":5210:5389  function _burn(address from, uint256 amount) internal{... */\n      pop\n      pop\n      jump\t// out\n        /* \"#utility.yul\":7:106   */\n    tag_168:\n        /* \"#utility.yul\":59:65   */\n      0x00\n        /* \"#utility.yul\":93:98   */\n      dup2\n        /* \"#utility.yul\":87:99   */\n      mload\n        /* \"#utility.yul\":77:99   */\n      swap1\n      pop\n        /* \"#utility.yul\":7:106   */\n      swap2\n      swap1\n      pop\n      jump\t// out\n        /* \"#utility.yul\":112:281   */\n    tag_169:\n        /* \"#utility.yul\":196:207   */\n      0x00\n        /* \"#utility.yul\":230:236   */\n      dup3\n        /* \"#utility.yul\":225:228   */\n      dup3\n        /* \"#utility.yul\":218:237   */\n      mstore\n        /* \"#utility.yul\":270:274   */\n      0x20\n        /* \"#utility.yul\":265:268   */\n      dup3\n        /* \"#utility.yul\":261:275   */\n      add\n        /* \"#utility.yul\":246:275   */\n      swap1\n      pop\n        /* \"#utility.yul\":112:281   */\n      swap3\n      swap2\n      pop\n      pop\n      jump\t// out\n        /* \"#utility.yul\":287:426   */\n    tag_170:\n        /* \"#utility.yul\":376:382   */\n      dup3\n        /* \"#utility.yul\":371:374   */\n      dup2\n        /* \"#utility.yul\":366:369   */\n      dup4\n        /* \"#utility.yul\":360:383   */\n      mcopy\n        /* \"#utility.yul\":417:418   */\n      0x00\n        /* \"#utility.yul\":408:414   */\n      dup4\n        /* \"#utility.yul\":403:406   */\n      dup4\n        /* \"#utility.yul\":399:415   */\n      add\n        /* \"#utility.yul\":392:419   */\n      mstore\n        /* \"#utility.yul\":287:426   */\n      pop\n      pop\n      pop\n      jump\t// out\n        /* \"#utility.yul\":432:534   */\n    tag_171:\n        /* \"#utility.yul\":473:479   */\n      0x00\n        /* \"#utility.yul\":524:526   */\n      0x1f\n        /* \"#utility.yul\":520:527   */\n      not\n        /* \"#utility.yul\":515:517   */\n      0x1f\n        /* \"#utility.yul\":508:513   */\n      dup4\n        /* \"#utility.yul\":504:518   */\n      add\n        /* \"#utility.yul\":500:528   */\n      and\n        /* \"#utility.yul\":490:528   */\n      swap1\n      pop\n        /* \"#utility.yul\":432:534   */\n      swap2\n      swap1\n      pop\n      jump\t// out\n        /* \"#utility.yul\":540:917   */\n    tag_172:\n        /* \"#utility.yul\":628:631   */\n      0x00\n        /* \"#utility.yul\":656:695   */\n      tag_205\n        /* \"#utility.yul\":689:694   */\n      dup3\n        /* \"#utility.yul\":656:695   */\n      tag_168\n      jump\t// in\n    tag_205:\n        /* \"#utility.yul\":711:782   */\n      tag_206\n        /* \"#utility.yul\":775:781   */\n      dup2\n        /* \"#utility.yul\":770:773   */\n      dup6\n        /* \"#utility.yul\":711:782   */\n      tag_169\n      jump\t// in\n    tag_206:\n        /* \"#utility.yul\":704:782   */\n      swap4\n      pop\n        /* \"#utility.yul\":791:856   */\n      tag_207\n        /* \"#utility.yul\":849:855   */\n      dup2\n        /* \"#utility.yul\":844:847   */\n      dup6\n        /* \"#utility.yul\":837:841   */\n      0x20\n        /* \"#utility.yul\":830:835   */\n      dup7\n        /* \"#utility.yul\":826:842   */\n      add\n        /* \"#utility.yul\":791:856   */\n      tag_170\n      jump\t// in\n    tag_207:\n        /* \"#utility.yul\":881:910   */\n      tag_208\n        /* \"#utility.yul\":903:909   */\n      dup2\n        /* \"#utility.yul\":881:910   */\n      tag_171\n      jump\t// in\n    tag_208:\n        /* \"#utility.yul\":876:879   */\n      dup5\n        /* \"#utility.yul\":872:911   */\n      add\n        /* \"#utility.yul\":865:911   */\n      swap2\n      pop\n        /* \"#utility.yul\":632:917   */\n      pop\n        /* \"#utility.yul\":540:917   */\n      swap3\n      swap2\n      pop\n      pop\n      jump\t// out\n        /* \"#utility.yul\":923:1236   */\n    tag_25:\n        /* \"#utility.yul\":1036:1040   */\n      0x00\n        /* \"#utility.yul\":1074:1076   */\n      0x20\n        /* \"#utility.yul\":1063:1072   */\n      dup3\n        /* \"#utility.yul\":1059:1077   */\n      add\n        /* \"#utility.yul\":1051:1077   */\n      swap1\n      pop\n        /* \"#utility.yul\":1123:1132   */\n      dup2\n        /* \"#utility.yul\":1117:1121   */\n      dup2\n        /* \"#utility.yul\":1113:1133   */\n      sub\n        /* \"#utility.yul\":1109:1110   */\n      0x00\n        /* \"#utility.yul\":1098:1107   */\n      dup4\n        /* \"#utility.yul\":1094:1111   */\n      add\n        /* \"#utility.yul\":1087:1134   */\n      mstore\n        /* \"#utility.yul\":1151:1229   */\n      tag_210\n        /* \"#utility.yul\":1224:1228   */\n      dup2\n        /* \"#utility.yul\":1215:1221   */\n      dup5\n        /* \"#utility.yul\":1151:1229   */\n      tag_172\n      jump\t// in\n    tag_210:\n        /* \"#utility.yul\":1143:1229   */\n      swap1\n      pop\n        /* \"#utility.yul\":923:1236   */\n      swap3\n      swap2\n      pop\n      pop\n      jump\t// out\n        /* \"#utility.yul\":1323:1440   */\n    tag_174:\n        /* \"#utility.yul\":1432:1433   */\n      0x00\n        /* \"#utility.yul\":1429:1430   */\n      dup1\n        /* \"#utility.yul\":1422:1434   */\n      revert\n        /* \"#utility.yul\":1569:1695   */\n    tag_176:\n        /* \"#utility.yul\":1606:1613   */\n      0x00\n        /* \"#utility.yul\":1646:1688   */\n      0xffffffffffffffffffffffffffffffffffffffff\n        /* \"#utility.yul\":1639:1644   */\n      dup3\n        /* \"#utility.yul\":1635:1689   */\n      and\n        /* \"#utility.yul\":1624:1689   */\n      swap1\n      pop\n        /* \"#utility.yul\":1569:1695   */\n      swap2\n      swap1\n      pop\n      jump\t// out\n        /* \"#utility.yul\":1701:1797   */\n    tag_177:\n        /* \"#utility.yul\":1738:1745   */\n      0x00\n        /* \"#utility.yul\":1767:1791   */\n      tag_216\n        /* \"#utility.yul\":1785:1790   */\n      dup3\n        /* \"#utility.yul\":1767:1791   */\n      tag_176\n      jump\t// in\n    tag_216:\n        /* \"#utility.yul\":1756:1791   */\n      swap1\n      pop\n        /* \"#utility.yul\":1701:1797   */\n      swap2\n      swap1\n      pop\n      jump\t// out\n        /* \"#utility.yul\":1803:1925   */\n    tag_178:\n        /* \"#utility.yul\":1876:1900   */\n      tag_218\n        /* \"#utility.yul\":1894:1899   */\n      dup2\n        /* \"#utility.yul\":1876:1900   */\n      tag_177\n      jump\t// in\n    tag_218:\n        /* \"#utility.yul\":1869:1874   */\n      dup2\n        /* \"#utility.yul\":1866:1901   */\n      eq\n        /* \"#utility.yul\":1856:1919   */\n      tag_219\n      jumpi\n        /* \"#utility.yul\":1915:1916   */\n      0x00\n        /* \"#utility.yul\":1912:1913   */\n      dup1\n        /* \"#utility.yul\":1905:1917   */\n      revert\n        /* \"#utility.yul\":1856:1919   */\n    tag_219:\n        /* \"#utility.yul\":1803:1925   */\n      pop\n      jump\t// out\n        /* \"#utility.yul\":1931:2070   */\n    tag_179:\n        /* \"#utility.yul\":1977:1982   */\n      0x00\n        /* \"#utility.yul\":2015:2021   */\n      dup2\n        /* \"#utility.yul\":2002:2022   */\n      calldataload\n        /* \"#utility.yul\":1993:2022   */\n      swap1\n      pop\n        /* \"#utility.yul\":2031:2064   */\n      tag_221\n        /* \"#utility.yul\":2058:2063   */\n      dup2\n        /* \"#utility.yul\":2031:2064   */\n      tag_178\n      jump\t// in\n    tag_221:\n        /* \"#utility.yul\":1931:2070   */\n      swap3\n      swap2\n      pop\n      pop\n      jump\t// out\n        /* \"#utility.yul\":2076:2153   */\n    tag_180:\n        /* \"#utility.yul\":2113:2120   */\n      0x00\n        /* \"#utility.yul\":2142:2147   */\n      dup2\n        /* \"#utility.yul\":2131:2147   */\n      swap1\n      pop\n        /* \"#utility.yul\":2076:2153   */\n      swap2\n      swap1\n      pop\n      jump\t// out\n        /* \"#utility.yul\":2159:2281   */\n    tag_181:\n        /* \"#utility.yul\":2232:2256   */\n      tag_224\n        /* \"#utility.yul\":2250:2255   */\n      dup2\n        /* \"#utility.yul\":2232:2256   */\n      tag_180\n      jump\t// in\n    tag_224:\n        /* \"#utility.yul\":2225:2230   */\n      dup2\n        /* \"#utility.yul\":2222:2257   */\n      eq\n        /* \"#utility.yul\":2212:2275   */\n      tag_225\n      jumpi\n        /* \"#utility.yul\":2271:2272   */\n      0x00\n        /* \"#utility.yul\":2268:2269   */\n      dup1\n        /* \"#utility.yul\":2261:2273   */\n      revert\n        /* \"#utility.yul\":2212:2275   */\n    tag_225:\n        /* \"#utility.yul\":2159:2281   */\n      pop\n      jump\t// out\n        /* \"#utility.yul\":2287:2426   */\n    tag_182:\n        /* \"#utility.yul\":2333:2338   */\n      0x00\n        /* \"#utility.yul\":2371:2377   */\n      dup2\n        /* \"#utility.yul\":2358:2378   */\n      calldataload\n        /* \"#utility.yul\":2349:2378   */\n      swap1\n      pop\n        /* \"#utility.yul\":2387:2420   */\n      tag_227\n        /* \"#utility.yul\":2414:2419   */\n      dup2\n        /* \"#utility.yul\":2387:2420   */\n      tag_181\n      jump\t// in\n    tag_227:\n        /* \"#utility.yul\":2287:2426   */\n      swap3\n      swap2\n      pop\n      pop\n      jump\t// out\n        /* \"#utility.yul\":2432:2906   */\n    tag_28:\n        /* \"#utility.yul\":2500:2506   */\n      0x00\n        /* \"#utility.yul\":2508:2514   */\n      dup1\n        /* \"#utility.yul\":2557:2559   */\n      0x40\n        /* \"#utility.yul\":2545:2554   */\n      dup4\n        /* \"#utility.yul\":2536:2543   */\n      dup6\n        /* \"#utility.yul\":2532:2555   */\n      sub\n        /* \"#utility.yul\":2528:2560   */\n      slt\n        /* \"#utility.yul\":2525:2644   */\n      iszero\n      tag_229\n      jumpi\n        /* \"#utility.yul\":2563:2642   */\n      tag_230\n      tag_174\n      jump\t// in\n    tag_230:\n        /* \"#utility.yul\":2525:2644   */\n    tag_229:\n        /* \"#utility.yul\":2683:2684   */\n      0x00\n        /* \"#utility.yul\":2708:2761   */\n      tag_231\n        /* \"#utility.yul\":2753:2760   */\n      dup6\n        /* \"#utility.yul\":2744:2750   */\n      dup3\n        /* \"#utility.yul\":2733:2742   */\n      dup7\n        /* \"#utility.yul\":2729:2751   */\n      add\n        /* \"#utility.yul\":2708:2761   */\n      tag_179\n      jump\t// in\n    tag_231:\n        /* \"#utility.yul\":2698:2761   */\n      swap3\n      pop\n        /* \"#utility.yul\":2654:2771   */\n      pop\n        /* \"#utility.yul\":2810:2812   */\n      0x20\n        /* \"#utility.yul\":2836:2889   */\n      tag_232\n        /* \"#utility.yul\":2881:2888   */\n      dup6\n        /* \"#utility.yul\":2872:2878   */\n      dup3\n        /* \"#utility.yul\":2861:2870   */\n      dup7\n        /* \"#utility.yul\":2857:2879   */\n      add\n        /* \"#utility.yul\":2836:2889   */\n      tag_182\n      jump\t// in\n    tag_232:\n        /* \"#utility.yul\":2826:2889   */\n      swap2\n      pop\n        /* \"#utility.yul\":2781:2899   */\n      pop\n        /* \"#utility.yul\":2432:2906   */\n      swap3\n      pop\n      swap3\n      swap1\n      pop\n      jump\t// out\n        /* \"#utility.yul\":2912:3002   */\n    tag_183:\n        /* \"#utility.yul\":2946:2953   */\n      0x00\n        /* \"#utility.yul\":2989:2994   */\n      dup2\n        /* \"#utility.yul\":2982:2995   */\n      iszero\n        /* \"#utility.yul\":2975:2996   */\n      iszero\n        /* \"#utility.yul\":2964:2996   */\n      swap1\n      pop\n        /* \"#utility.yul\":2912:3002   */\n      swap2\n      swap1\n      pop\n      jump\t// out\n        /* \"#utility.yul\":3008:3117   */\n    tag_184:\n        /* \"#utility.yul\":3089:3110   */\n      tag_235\n        /* \"#utility.yul\":3104:3109   */\n      dup2\n        /* \"#utility.yul\":3089:3110   */\n      tag_183\n      jump\t// in\n    tag_235:\n        /* \"#utility.yul\":3084:3087   */\n      dup3\n        /* \"#utility.yul\":3077:3111   */\n      mstore\n        /* \"#utility.yul\":3008:3117   */\n      pop\n      pop\n      jump\t// out\n        /* \"#utility.yul\":3123:3333   */\n    tag_31:\n        /* \"#utility.yul\":3210:3214   */\n      0x00\n        /* \"#utility.yul\":3248:3250   */\n      0x20\n        /* \"#utility.yul\":3237:3246   */\n      dup3\n        /* \"#utility.yul\":3233:3251   */\n      add\n        /* \"#utility.yul\":3225:3251   */\n      swap1\n      pop\n        /* \"#utility.yul\":3261:3326   */\n      tag_237\n        /* \"#utility.yul\":3323:3324   */\n      0x00\n        /* \"#utility.yul\":3312:3321   */\n      dup4\n        /* \"#utility.yul\":3308:3325   */\n      add\n        /* \"#utility.yul\":3299:3305   */\n      dup5\n        /* \"#utility.yul\":3261:3326   */\n      tag_184\n      jump\t// in\n    tag_237:\n        /* \"#utility.yul\":3123:3333   */\n      swap3\n      swap2\n      pop\n      pop\n      jump\t// out\n        /* \"#utility.yul\":3339:3457   */\n    tag_185:\n        /* \"#utility.yul\":3426:3450   */\n      tag_239\n        /* \"#utility.yul\":3444:3449   */\n      dup2\n        /* \"#utility.yul\":3426:3450   */\n      tag_180\n      jump\t// in\n    tag_239:\n        /* \"#utility.yul\":3421:3424   */\n      dup3\n        /* \"#utility.yul\":3414:3451   */\n      mstore\n        /* \"#utility.yul\":3339:3457   */\n      pop\n      pop\n      jump\t// out\n        /* \"#utility.yul\":3463:3685   */\n    tag_38:\n        /* \"#utility.yul\":3556:3560   */\n      0x00\n        /* \"#utility.yul\":3594:3596   */\n      0x20\n        /* \"#utility.yul\":3583:3592   */\n      dup3\n        /* \"#utility.yul\":3579:3597   */\n      add\n        /* \"#utility.yul\":3571:3597   */\n      swap1\n      pop\n        /* \"#utility.yul\":3607:3678   */\n      tag_241\n        /* \"#utility.yul\":3675:3676   */\n      0x00\n        /* \"#utility.yul\":3664:3673   */\n      dup4\n        /* \"#utility.yul\":3660:3677   */\n      add\n        /* \"#utility.yul\":3651:3657   */\n      dup5\n        /* \"#utility.yul\":3607:3678   */\n      tag_185\n      jump\t// in\n    tag_241:\n        /* \"#utility.yul\":3463:3685   */\n      swap3\n      swap2\n      pop\n      pop\n      jump\t// out\n        /* \"#utility.yul\":3691:4020   */\n    tag_41:\n        /* \"#utility.yul\":3750:3756   */\n      0x00\n        /* \"#utility.yul\":3799:3801   */\n      0x20\n        /* \"#utility.yul\":3787:3796   */\n      dup3\n        /* \"#utility.yul\":3778:3785   */\n      dup5\n        /* \"#utility.yul\":3774:3797   */\n      sub\n        /* \"#utility.yul\":3770:3802   */\n      slt\n        /* \"#utility.yul\":3767:3886   */\n      iszero\n      tag_243\n      jumpi\n        /* \"#utility.yul\":3805:3884   */\n      tag_244\n      tag_174\n      jump\t// in\n    tag_244:\n        /* \"#utility.yul\":3767:3886   */\n    tag_243:\n        /* \"#utility.yul\":3925:3926   */\n      0x00\n        /* \"#utility.yul\":3950:4003   */\n      tag_245\n        /* \"#utility.yul\":3995:4002   */\n      dup5\n        /* \"#utility.yul\":3986:3992   */\n      dup3\n        /* \"#utility.yul\":3975:3984   */\n      dup6\n        /* \"#utility.yul\":3971:3993   */\n      add\n        /* \"#utility.yul\":3950:4003   */\n      tag_179\n      jump\t// in\n    tag_245:\n        /* \"#utility.yul\":3940:4003   */\n      swap2\n      pop\n        /* \"#utility.yul\":3896:4013   */\n      pop\n        /* \"#utility.yul\":3691:4020   */\n      swap3\n      swap2\n      pop\n      pop\n      jump\t// out\n        /* \"#utility.yul\":4026:4645   */\n    tag_46:\n        /* \"#utility.yul\":4103:4109   */\n      0x00\n        /* \"#utility.yul\":4111:4117   */\n      dup1\n        /* \"#utility.yul\":4119:4125   */\n      0x00\n        /* \"#utility.yul\":4168:4170   */\n      0x60\n        /* \"#utility.yul\":4156:4165   */\n      dup5\n        /* \"#utility.yul\":4147:4154   */\n      dup7\n        /* \"#utility.yul\":4143:4166   */\n      sub\n        /* \"#utility.yul\":4139:4171   */\n      slt\n        /* \"#utility.yul\":4136:4255   */\n      iszero\n      tag_247\n      jumpi\n        /* \"#utility.yul\":4174:4253   */\n      tag_248\n      tag_174\n      jump\t// in\n    tag_248:\n        /* \"#utility.yul\":4136:4255   */\n    tag_247:\n        /* \"#utility.yul\":4294:4295   */\n      0x00\n        /* \"#utility.yul\":4319:4372   */\n      tag_249\n        /* \"#utility.yul\":4364:4371   */\n      dup7\n        /* \"#utility.yul\":4355:4361   */\n      dup3\n        /* \"#utility.yul\":4344:4353   */\n      dup8\n        /* \"#utility.yul\":4340:4362   */\n      add\n        /* \"#utility.yul\":4319:4372   */\n      tag_179\n      jump\t// in\n    tag_249:\n        /* \"#utility.yul\":4309:4372   */\n      swap4\n      pop\n        /* \"#utility.yul\":4265:4382   */\n      pop\n        /* \"#utility.yul\":4421:4423   */\n      0x20\n        /* \"#utility.yul\":4447:4500   */\n      tag_250\n        /* \"#utility.yul\":4492:4499   */\n      dup7\n        /* \"#utility.yul\":4483:4489   */\n      dup3\n        /* \"#utility.yul\":4472:4481   */\n      dup8\n        /* \"#utility.yul\":4468:4490   */\n      add\n        /* \"#utility.yul\":4447:4500   */\n      tag_179\n      jump\t// in\n    tag_250:\n        /* \"#utility.yul\":4437:4500   */\n      swap3\n      pop\n        /* \"#utility.yul\":4392:4510   */\n      pop\n        /* \"#utility.yul\":4549:4551   */\n      0x40\n        /* \"#utility.yul\":4575:4628   */\n      tag_251\n        /* \"#utility.yul\":4620:4627   */\n      dup7\n        /* \"#utility.yul\":4611:4617   */\n      dup3\n        /* \"#utility.yul\":4600:4609   */\n      dup8\n        /* \"#utility.yul\":4596:4618   */\n      add\n        /* \"#utility.yul\":4575:4628   */\n      tag_182\n      jump\t// in\n    tag_251:\n        /* \"#utility.yul\":4565:4628   */\n      swap2\n      pop\n        /* \"#utility.yul\":4520:4638   */\n      pop\n        /* \"#utility.yul\":4026:4645   */\n      swap3\n      pop\n      swap3\n      pop\n      swap3\n      jump\t// out\n        /* \"#utility.yul\":4651:4737   */\n    tag_186:\n        /* \"#utility.yul\":4686:4693   */\n      0x00\n        /* \"#utility.yul\":4726:4730   */\n      0xff\n        /* \"#utility.yul\":4719:4724   */\n      dup3\n        /* \"#utility.yul\":4715:4731   */\n      and\n        /* \"#utility.yul\":4704:4731   */\n      swap1\n      pop\n        /* \"#utility.yul\":4651:4737   */\n      swap2\n      swap1\n      pop\n      jump\t// out\n        /* \"#utility.yul\":4743:4855   */\n    tag_187:\n        /* \"#utility.yul\":4826:4848   */\n      tag_254\n        /* \"#utility.yul\":4842:4847   */\n      dup2\n        /* \"#utility.yul\":4826:4848   */\n      tag_186\n      jump\t// in\n    tag_254:\n        /* \"#utility.yul\":4821:4824   */\n      dup3\n        /* \"#utility.yul\":4814:4849   */\n      mstore\n        /* \"#utility.yul\":4743:4855   */\n      pop\n      pop\n      jump\t// out\n        /* \"#utility.yul\":4861:5075   */\n    tag_52:\n        /* \"#utility.yul\":4950:4954   */\n      0x00\n        /* \"#utility.yul\":4988:4990   */\n      0x20\n        /* \"#utility.yul\":4977:4986   */\n      dup3\n        /* \"#utility.yul\":4973:4991   */\n      add\n        /* \"#utility.yul\":4965:4991   */\n      swap1\n      pop\n        /* \"#utility.yul\":5001:5068   */\n      tag_256\n        /* \"#utility.yul\":5065:5066   */\n      0x00\n        /* \"#utility.yul\":5054:5063   */\n      dup4\n        /* \"#utility.yul\":5050:5067   */\n      add\n        /* \"#utility.yul\":5041:5047   */\n      dup5\n        /* \"#utility.yul\":5001:5068   */\n      tag_187\n      jump\t// in\n    tag_256:\n        /* \"#utility.yul\":4861:5075   */\n      swap3\n      swap2\n      pop\n      pop\n      jump\t// out\n        /* \"#utility.yul\":5081:5199   */\n    tag_188:\n        /* \"#utility.yul\":5168:5192   */\n      tag_258\n        /* \"#utility.yul\":5186:5191   */\n      dup2\n        /* \"#utility.yul\":5168:5192   */\n      tag_177\n      jump\t// in\n    tag_258:\n        /* \"#utility.yul\":5163:5166   */\n      dup3\n        /* \"#utility.yul\":5156:5193   */\n      mstore\n        /* \"#utility.yul\":5081:5199   */\n      pop\n      pop\n      jump\t// out\n        /* \"#utility.yul\":5205:5427   */\n    tag_59:\n        /* \"#utility.yul\":5298:5302   */\n      0x00\n        /* \"#utility.yul\":5336:5338   */\n      0x20\n        /* \"#utility.yul\":5325:5334   */\n      dup3\n        /* \"#utility.yul\":5321:5339   */\n      add\n        /* \"#utility.yul\":5313:5339   */\n      swap1\n      pop\n        /* \"#utility.yul\":5349:5420   */\n      tag_260\n        /* \"#utility.yul\":5417:5418   */\n      0x00\n        /* \"#utility.yul\":5406:5415   */\n      dup4\n        /* \"#utility.yul\":5402:5419   */\n      add\n        /* \"#utility.yul\":5393:5399   */\n      dup5\n        /* \"#utility.yul\":5349:5420   */\n      tag_188\n      jump\t// in\n    tag_260:\n        /* \"#utility.yul\":5205:5427   */\n      swap3\n      swap2\n      pop\n      pop\n      jump\t// out\n        /* \"#utility.yul\":5433:5907   */\n    tag_82:\n        /* \"#utility.yul\":5501:5507   */\n      0x00\n        /* \"#utility.yul\":5509:5515   */\n      dup1\n        /* \"#utility.yul\":5558:5560   */\n      0x40\n        /* \"#utility.yul\":5546:5555   */\n      dup4\n        /* \"#utility.yul\":5537:5544   */\n      dup6\n        /* \"#utility.yul\":5533:5556   */\n      sub\n        /* \"#utility.yul\":5529:5561   */\n      slt\n        /* \"#utility.yul\":5526:5645   */\n      iszero\n      tag_262\n      jumpi\n        /* \"#utility.yul\":5564:5643   */\n      tag_263\n      tag_174\n      jump\t// in\n    tag_263:\n        /* \"#utility.yul\":5526:5645   */\n    tag_262:\n        /* \"#utility.yul\":5684:5685   */\n      0x00\n        /* \"#utility.yul\":5709:5762   */\n      tag_264\n        /* \"#utility.yul\":5754:5761   */\n      dup6\n        /* \"#utility.yul\":5745:5751   */\n      dup3\n        /* \"#utility.yul\":5734:5743   */\n      dup7\n        /* \"#utility.yul\":5730:5752   */\n      add\n        /* \"#utility.yul\":5709:5762   */\n      tag_179\n      jump\t// in\n    tag_264:\n        /* \"#utility.yul\":5699:5762   */\n      swap3\n      pop\n        /* \"#utility.yul\":5655:5772   */\n      pop\n        /* \"#utility.yul\":5811:5813   */\n      0x20\n        /* \"#utility.yul\":5837:5890   */\n      tag_265\n        /* \"#utility.yul\":5882:5889   */\n      dup6\n        /* \"#utility.yul\":5873:5879   */\n      dup3\n        /* \"#utility.yul\":5862:5871   */\n      dup7\n        /* \"#utility.yul\":5858:5880   */\n      add\n        /* \"#utility.yul\":5837:5890   */\n      tag_179\n      jump\t// in\n    tag_265:\n        /* \"#utility.yul\":5827:5890   */\n      swap2\n      pop\n        /* \"#utility.yul\":5782:5900   */\n      pop\n        /* \"#utility.yul\":5433:5907   */\n      swap3\n      pop\n      swap3\n      swap1\n      pop\n      jump\t// out\n        /* \"#utility.yul\":5913:6093   */\n    tag_189:\n        /* \"#utility.yul\":5961:6038   */\n      0x4e487b7100000000000000000000000000000000000000000000000000000000\n        /* \"#utility.yul\":5958:5959   */\n      0x00\n        /* \"#utility.yul\":5951:6039   */\n      mstore\n        /* \"#utility.yul\":6058:6062   */\n      0x22\n        /* \"#utility.yul\":6055:6056   */\n      0x04\n        /* \"#utility.yul\":6048:6063   */\n      mstore\n        /* \"#utility.yul\":6082:6086   */\n      0x24\n        /* \"#utility.yul\":6079:6080   */\n      0x00\n        /* \"#utility.yul\":6072:6087   */\n      revert\n        /* \"#utility.yul\":6099:6419   */\n    tag_86:\n        /* \"#utility.yul\":6143:6149   */\n      0x00\n        /* \"#utility.yul\":6180:6181   */\n      0x02\n        /* \"#utility.yul\":6174:6178   */\n      dup3\n        /* \"#utility.yul\":6170:6182   */\n      div\n        /* \"#utility.yul\":6160:6182   */\n      swap1\n      pop\n        /* \"#utility.yul\":6227:6228   */\n      0x01\n        /* \"#utility.yul\":6221:6225   */\n      dup3\n        /* \"#utility.yul\":6217:6229   */\n      and\n        /* \"#utility.yul\":6248:6266   */\n      dup1\n        /* \"#utility.yul\":6238:6319   */\n      tag_268\n      jumpi\n        /* \"#utility.yul\":6304:6308   */\n      0x7f\n        /* \"#utility.yul\":6296:6302   */\n      dup3\n        /* \"#utility.yul\":6292:6309   */\n      and\n        /* \"#utility.yul\":6282:6309   */\n      swap2\n      pop\n        /* \"#utility.yul\":6238:6319   */\n    tag_268:\n        /* \"#utility.yul\":6366:6368   */\n      0x20\n        /* \"#utility.yul\":6358:6364   */\n      dup3\n        /* \"#utility.yul\":6355:6369   */\n      lt\n        /* \"#utility.yul\":6335:6353   */\n      dup2\n        /* \"#utility.yul\":6332:6370   */\n      sub\n        /* \"#utility.yul\":6329:6413   */\n      tag_269\n      jumpi\n        /* \"#utility.yul\":6385:6403   */\n      tag_270\n      tag_189\n      jump\t// in\n    tag_270:\n        /* \"#utility.yul\":6329:6413   */\n    tag_269:\n        /* \"#utility.yul\":6150:6419   */\n      pop\n        /* \"#utility.yul\":6099:6419   */\n      swap2\n      swap1\n      pop\n      jump\t// out\n        /* \"#utility.yul\":6425:6599   */\n    tag_190:\n        /* \"#utility.yul\":6565:6591   */\n      0x43616c6c6572206973206e6f7420617574686f72697a65640000000000000000\n        /* \"#utility.yul\":6561:6562   */\n      0x00\n        /* \"#utility.yul\":6553:6559   */\n      dup3\n        /* \"#utility.yul\":6549:6563   */\n      add\n        /* \"#utility.yul\":6542:6592   */\n      mstore\n        /* \"#utility.yul\":6425:6599   */\n      pop\n      jump\t// out\n        /* \"#utility.yul\":6605:6971   */\n    tag_191:\n        /* \"#utility.yul\":6747:6750   */\n      0x00\n        /* \"#utility.yul\":6768:6835   */\n      tag_273\n        /* \"#utility.yul\":6832:6834   */\n      0x18\n        /* \"#utility.yul\":6827:6830   */\n      dup4\n        /* \"#utility.yul\":6768:6835   */\n      tag_169\n      jump\t// in\n    tag_273:\n        /* \"#utility.yul\":6761:6835   */\n      swap2\n      pop\n        /* \"#utility.yul\":6844:6937   */\n      tag_274\n        /* \"#utility.yul\":6933:6936   */\n      dup3\n        /* \"#utility.yul\":6844:6937   */\n      tag_190\n      jump\t// in\n    tag_274:\n        /* \"#utility.yul\":6962:6964   */\n      0x20\n        /* \"#utility.yul\":6957:6960   */\n      dup3\n        /* \"#utility.yul\":6953:6965   */\n      add\n        /* \"#utility.yul\":6946:6965   */\n      swap1\n      pop\n        /* \"#utility.yul\":6605:6971   */\n      swap2\n      swap1\n      pop\n      jump\t// out\n        /* \"#utility.yul\":6977:7396   */\n    tag_99:\n        /* \"#utility.yul\":7143:7147   */\n      0x00\n        /* \"#utility.yul\":7181:7183   */\n      0x20\n        /* \"#utility.yul\":7170:7179   */\n      dup3\n        /* \"#utility.yul\":7166:7184   */\n      add\n        /* \"#utility.yul\":7158:7184   */\n      swap1\n      pop\n        /* \"#utility.yul\":7230:7239   */\n      dup2\n        /* \"#utility.yul\":7224:7228   */\n      dup2\n        /* \"#utility.yul\":7220:7240   */\n      sub\n        /* \"#utility.yul\":7216:7217   */\n      0x00\n        /* \"#utility.yul\":7205:7214   */\n      dup4\n        /* \"#utility.yul\":7201:7218   */\n      add\n        /* \"#utility.yul\":7194:7241   */\n      mstore\n        /* \"#utility.yul\":7258:7389   */\n      tag_276\n        /* \"#utility.yul\":7384:7388   */\n      dup2\n        /* \"#utility.yul\":7258:7389   */\n      tag_191\n      jump\t// in\n    tag_276:\n        /* \"#utility.yul\":7250:7389   */\n      swap1\n      pop\n        /* \"#utility.yul\":6977:7396   */\n      swap2\n      swap1\n      pop\n      jump\t// out\n        /* \"#utility.yul\":7402:7632   */\n    tag_192:\n        /* \"#utility.yul\":7542:7576   */\n      0x5472616e7366657220746f20746865207a65726f206164647265737320697320\n        /* \"#utility.yul\":7538:7539   */\n      0x00\n        /* \"#utility.yul\":7530:7536   */\n      dup3\n        /* \"#utility.yul\":7526:7540   */\n      add\n        /* \"#utility.yul\":7519:7577   */\n      mstore\n        /* \"#utility.yul\":7611:7624   */\n      0x6e6f7420616c6c6f776564000000000000000000000000000000000000000000\n        /* \"#utility.yul\":7606:7608   */\n      0x20\n        /* \"#utility.yul\":7598:7604   */\n      dup3\n        /* \"#utility.yul\":7594:7609   */\n      add\n        /* \"#utility.yul\":7587:7625   */\n      mstore\n        /* \"#utility.yul\":7402:7632   */\n      pop\n      jump\t// out\n        /* \"#utility.yul\":7638:8004   */\n    tag_193:\n        /* \"#utility.yul\":7780:7783   */\n      0x00\n        /* \"#utility.yul\":7801:7868   */\n      tag_279\n        /* \"#utility.yul\":7865:7867   */\n      0x2b\n        /* \"#utility.yul\":7860:7863   */\n      dup4\n        /* \"#utility.yul\":7801:7868   */\n      tag_169\n      jump\t// in\n    tag_279:\n        /* \"#utility.yul\":7794:7868   */\n      swap2\n      pop\n        /* \"#utility.yul\":7877:7970   */\n      tag_280\n        /* \"#utility.yul\":7966:7969   */\n      dup3\n        /* \"#utility.yul\":7877:7970   */\n      tag_192\n      jump\t// in\n    tag_280:\n        /* \"#utility.yul\":7995:7997   */\n      0x40\n        /* \"#utility.yul\":7990:7993   */\n      dup3\n        /* \"#utility.yul\":7986:7998   */\n      add\n        /* \"#utility.yul\":7979:7998   */\n      swap1\n      pop\n        /* \"#utility.yul\":7638:8004   */\n      swap2\n      swap1\n      pop\n      jump\t// out\n        /* \"#utility.yul\":8010:8429   */\n    tag_107:\n        /* \"#utility.yul\":8176:8180   */\n      0x00\n        /* \"#utility.yul\":8214:8216   */\n      0x20\n        /* \"#utility.yul\":8203:8212   */\n      dup3\n        /* \"#utility.yul\":8199:8217   */\n      add\n        /* \"#utility.yul\":8191:8217   */\n      swap1\n      pop\n        /* \"#utility.yul\":8263:8272   */\n      dup2\n        /* \"#utility.yul\":8257:8261   */\n      dup2\n        /* \"#utility.yul\":8253:8273   */\n      sub\n        /* \"#utility.yul\":8249:8250   */\n      0x00\n        /* \"#utility.yul\":8238:8247   */\n      dup4\n        /* \"#utility.yul\":8234:8251   */\n      add\n        /* \"#utility.yul\":8227:8274   */\n      mstore\n        /* \"#utility.yul\":8291:8422   */\n      tag_282\n        /* \"#utility.yul\":8417:8421   */\n      dup2\n        /* \"#utility.yul\":8291:8422   */\n      tag_193\n      jump\t// in\n    tag_282:\n        /* \"#utility.yul\":8283:8422   */\n      swap1\n      pop\n        /* \"#utility.yul\":8010:8429   */\n      swap2\n      swap1\n      pop\n      jump\t// out\n        /* \"#utility.yul\":8435:8615   */\n    tag_194:\n        /* \"#utility.yul\":8483:8560   */\n      0x4e487b7100000000000000000000000000000000000000000000000000000000\n        /* \"#utility.yul\":8480:8481   */\n      0x00\n        /* \"#utility.yul\":8473:8561   */\n      mstore\n        /* \"#utility.yul\":8580:8584   */\n      0x11\n        /* \"#utility.yul\":8577:8578   */\n      0x04\n        /* \"#utility.yul\":8570:8585   */\n      mstore\n        /* \"#utility.yul\":8604:8608   */\n      0x24\n        /* \"#utility.yul\":8601:8602   */\n      0x00\n        /* \"#utility.yul\":8594:8609   */\n      revert\n        /* \"#utility.yul\":8621:8815   */\n    tag_115:\n        /* \"#utility.yul\":8661:8665   */\n      0x00\n        /* \"#utility.yul\":8681:8701   */\n      tag_285\n        /* \"#utility.yul\":8699:8700   */\n      dup3\n        /* \"#utility.yul\":8681:8701   */\n      tag_180\n      jump\t// in\n    tag_285:\n        /* \"#utility.yul\":8676:8701   */\n      swap2\n      pop\n        /* \"#utility.yul\":8715:8735   */\n      tag_286\n        /* \"#utility.yul\":8733:8734   */\n      dup4\n        /* \"#utility.yul\":8715:8735   */\n      tag_180\n      jump\t// in\n    tag_286:\n        /* \"#utility.yul\":8710:8735   */\n      swap3\n      pop\n        /* \"#utility.yul\":8759:8760   */\n      dup3\n        /* \"#utility.yul\":8756:8757   */\n      dup3\n        /* \"#utility.yul\":8752:8761   */\n      sub\n        /* \"#utility.yul\":8744:8761   */\n      swap1\n      pop\n        /* \"#utility.yul\":8783:8784   */\n      dup2\n        /* \"#utility.yul\":8777:8781   */\n      dup2\n        /* \"#utility.yul\":8774:8785   */\n      gt\n        /* \"#utility.yul\":8771:8808   */\n      iszero\n      tag_287\n      jumpi\n        /* \"#utility.yul\":8788:8806   */\n      tag_288\n      tag_194\n      jump\t// in\n    tag_288:\n        /* \"#utility.yul\":8771:8808   */\n    tag_287:\n        /* \"#utility.yul\":8621:8815   */\n      swap3\n      swap2\n      pop\n      pop\n      jump\t// out\n        /* \"#utility.yul\":8821:9012   */\n    tag_118:\n        /* \"#utility.yul\":8861:8864   */\n      0x00\n        /* \"#utility.yul\":8880:8900   */\n      tag_290\n        /* \"#utility.yul\":8898:8899   */\n      dup3\n        /* \"#utility.yul\":8880:8900   */\n      tag_180\n      jump\t// in\n    tag_290:\n        /* \"#utility.yul\":8875:8900   */\n      swap2\n      pop\n        /* \"#utility.yul\":8914:8934   */\n      tag_291\n        /* \"#utility.yul\":8932:8933   */\n      dup4\n        /* \"#utility.yul\":8914:8934   */\n      tag_180\n      jump\t// in\n    tag_291:\n        /* \"#utility.yul\":8909:8934   */\n      swap3\n      pop\n        /* \"#utility.yul\":8957:8958   */\n      dup3\n        /* \"#utility.yul\":8954:8955   */\n      dup3\n        /* \"#utility.yul\":8950:8959   */\n      add\n        /* \"#utility.yul\":8943:8959   */\n      swap1\n      pop\n        /* \"#utility.yul\":8978:8981   */\n      dup1\n        /* \"#utility.yul\":8975:8976   */\n      dup3\n        /* \"#utility.yul\":8972:8982   */\n      gt\n        /* \"#utility.yul\":8969:9005   */\n      iszero\n      tag_292\n      jumpi\n        /* \"#utility.yul\":8985:9003   */\n      tag_293\n      tag_194\n      jump\t// in\n    tag_293:\n        /* \"#utility.yul\":8969:9005   */\n    tag_292:\n        /* \"#utility.yul\":8821:9012   */\n      swap3\n      swap2\n      pop\n      pop\n      jump\t// out\n        /* \"#utility.yul\":9018:9200   */\n    tag_195:\n        /* \"#utility.yul\":9158:9192   */\n      0x416d6f756e74206d7573742062652067726561746572207468616e207a65726f\n        /* \"#utility.yul\":9154:9155   */\n      0x00\n        /* \"#utility.yul\":9146:9152   */\n      dup3\n        /* \"#utility.yul\":9142:9156   */\n      add\n        /* \"#utility.yul\":9135:9193   */\n      mstore\n        /* \"#utility.yul\":9018:9200   */\n      pop\n      jump\t// out\n        /* \"#utility.yul\":9206:9572   */\n    tag_196:\n        /* \"#utility.yul\":9348:9351   */\n      0x00\n        /* \"#utility.yul\":9369:9436   */\n      tag_296\n        /* \"#utility.yul\":9433:9435   */\n      0x20\n        /* \"#utility.yul\":9428:9431   */\n      dup4\n        /* \"#utility.yul\":9369:9436   */\n      tag_169\n      jump\t// in\n    tag_296:\n        /* \"#utility.yul\":9362:9436   */\n      swap2\n      pop\n        /* \"#utility.yul\":9445:9538   */\n      tag_297\n        /* \"#utility.yul\":9534:9537   */\n      dup3\n        /* \"#utility.yul\":9445:9538   */\n      tag_195\n      jump\t// in\n    tag_297:\n        /* \"#utility.yul\":9563:9565   */\n      0x20\n        /* \"#utility.yul\":9558:9561   */\n      dup3\n        /* \"#utility.yul\":9554:9566   */\n      add\n        /* \"#utility.yul\":9547:9566   */\n      swap1\n      pop\n        /* \"#utility.yul\":9206:9572   */\n      swap2\n      swap1\n      pop\n      jump\t// out\n        /* \"#utility.yul\":9578:9997   */\n    tag_126:\n        /* \"#utility.yul\":9744:9748   */\n      0x00\n        /* \"#utility.yul\":9782:9784   */\n      0x20\n        /* \"#utility.yul\":9771:9780   */\n      dup3\n        /* \"#utility.yul\":9767:9785   */\n      add\n        /* \"#utility.yul\":9759:9785   */\n      swap1\n      pop\n        /* \"#utility.yul\":9831:9840   */\n      dup2\n        /* \"#utility.yul\":9825:9829   */\n      dup2\n        /* \"#utility.yul\":9821:9841   */\n      sub\n        /* \"#utility.yul\":9817:9818   */\n      0x00\n        /* \"#utility.yul\":9806:9815   */\n      dup4\n        /* \"#utility.yul\":9802:9819   */\n      add\n        /* \"#utility.yul\":9795:9842   */\n      mstore\n        /* \"#utility.yul\":9859:9990   */\n      tag_299\n        /* \"#utility.yul\":9985:9989   */\n      dup2\n        /* \"#utility.yul\":9859:9990   */\n      tag_196\n      jump\t// in\n    tag_299:\n        /* \"#utility.yul\":9851:9990   */\n      swap1\n      pop\n        /* \"#utility.yul\":9578:9997   */\n      swap2\n      swap1\n      pop\n      jump\t// out\n        /* \"#utility.yul\":10003:10229   */\n    tag_197:\n        /* \"#utility.yul\":10143:10177   */\n      0x43616c6c657220646f6573206e6f7420686176652073756666696369656e7420\n        /* \"#utility.yul\":10139:10140   */\n      0x00\n        /* \"#utility.yul\":10131:10137   */\n      dup3\n        /* \"#utility.yul\":10127:10141   */\n      add\n        /* \"#utility.yul\":10120:10178   */\n      mstore\n        /* \"#utility.yul\":10212:10221   */\n      0x62616c616e636500000000000000000000000000000000000000000000000000\n        /* \"#utility.yul\":10207:10209   */\n      0x20\n        /* \"#utility.yul\":10199:10205   */\n      dup3\n        /* \"#utility.yul\":10195:10210   */\n      add\n        /* \"#utility.yul\":10188:10222   */\n      mstore\n        /* \"#utility.yul\":10003:10229   */\n      pop\n      jump\t// out\n        /* \"#utility.yul\":10235:10601   */\n    tag_198:\n        /* \"#utility.yul\":10377:10380   */\n      0x00\n        /* \"#utility.yul\":10398:10465   */\n      tag_302\n        /* \"#utility.yul\":10462:10464   */\n      0x27\n        /* \"#utility.yul\":10457:10460   */\n      dup4\n        /* \"#utility.yul\":10398:10465   */\n      tag_169\n      jump\t// in\n    tag_302:\n        /* \"#utility.yul\":10391:10465   */\n      swap2\n      pop\n        /* \"#utility.yul\":10474:10567   */\n      tag_303\n        /* \"#utility.yul\":10563:10566   */\n      dup3\n        /* \"#utility.yul\":10474:10567   */\n      tag_197\n      jump\t// in\n    tag_303:\n        /* \"#utility.yul\":10592:10594   */\n      0x40\n        /* \"#utility.yul\":10587:10590   */\n      dup3\n        /* \"#utility.yul\":10583:10595   */\n      add\n        /* \"#utility.yul\":10576:10595   */\n      swap1\n      pop\n        /* \"#utility.yul\":10235:10601   */\n      swap2\n      swap1\n      pop\n      jump\t// out\n        /* \"#utility.yul\":10607:11026   */\n    tag_149:\n        /* \"#utility.yul\":10773:10777   */\n      0x00\n        /* \"#utility.yul\":10811:10813   */\n      0x20\n        /* \"#utility.yul\":10800:10809   */\n      dup3\n        /* \"#utility.yul\":10796:10814   */\n      add\n        /* \"#utility.yul\":10788:10814   */\n      swap1\n      pop\n        /* \"#utility.yul\":10860:10869   */\n      dup2\n        /* \"#utility.yul\":10854:10858   */\n      dup2\n        /* \"#utility.yul\":10850:10870   */\n      sub\n        /* \"#utility.yul\":10846:10847   */\n      0x00\n        /* \"#utility.yul\":10835:10844   */\n      dup4\n        /* \"#utility.yul\":10831:10848   */\n      add\n        /* \"#utility.yul\":10824:10871   */\n      mstore\n        /* \"#utility.yul\":10888:11019   */\n      tag_305\n        /* \"#utility.yul\":11014:11018   */\n      dup2\n        /* \"#utility.yul\":10888:11019   */\n      tag_198\n      jump\t// in\n    tag_305:\n        /* \"#utility.yul\":10880:11019   */\n      swap1\n      pop\n        /* \"#utility.yul\":10607:11026   */\n      swap2\n      swap1\n      pop\n      jump\t// out\n\n    auxdata: 0xa2646970667358221220a32720348d6cbf406af9e84b53320c4d8c6a6d5e0873ed991fccabd1fd3e68d564736f6c63430008190033\n}\n",
				"bytecode": {
					"linkReferences": {},
					"object": "60c060405234801561000f575f80fd5b5060405161208238038061208283398181016040528101906100319190610337565b848073ffffffffffffffffffffffffffffffffffffffff165f73ffffffffffffffffffffffffffffffffffffffff16036100a0576040517f08c379a000000000000000000000000000000000000000000000000000000000815260040161009790610466565b60405180910390fd5b8560035f6101000a81548173ffffffffffffffffffffffffffffffffffffffff021916908373ffffffffffffffffffffffffffffffffffffffff160217905550845f90816100ee9190610688565b5083600190816100fe9190610688565b508260ff1660808160ff16815250508160a081815250505f600281905550505050505050610757565b5f604051905090565b5f80fd5b5f80fd5b5f73ffffffffffffffffffffffffffffffffffffffff82169050919050565b5f61016182610138565b9050919050565b61017181610157565b811461017b575f80fd5b50565b5f8151905061018c81610168565b92915050565b5f80fd5b5f80fd5b5f601f19601f8301169050919050565b7f4e487b71000000000000000000000000000000000000000000000000000000005f52604160045260245ffd5b6101e08261019a565b810181811067ffffffffffffffff821117156101ff576101fe6101aa565b5b80604052505050565b5f610211610127565b905061021d82826101d7565b919050565b5f67ffffffffffffffff82111561023c5761023b6101aa565b5b6102458261019a565b9050602081019050919050565b8281835e5f83830152505050565b5f61027261026d84610222565b610208565b90508281526020810184848401111561028e5761028d610196565b5b610299848285610252565b509392505050565b5f82601f8301126102b5576102b4610192565b5b81516102c5848260208601610260565b91505092915050565b5f60ff82169050919050565b6102e3816102ce565b81146102ed575f80fd5b50565b5f815190506102fe816102da565b92915050565b5f819050919050565b61031681610304565b8114610320575f80fd5b50565b5f815190506103318161030d565b92915050565b5f805f805f60a086880312156103505761034f610130565b5b5f61035d8882890161017e565b955050602086015167ffffffffffffffff81111561037e5761037d610134565b5b61038a888289016102a1565b945050604086015167ffffffffffffffff8111156103ab576103aa610134565b5b6103b7888289016102a1565b93505060606103c8888289016102f0565b92505060806103d988828901610323565b9150509295509295909350565b5f82825260208201905092915050565b7f5472616e7366657220746f20746865207a65726f2061646472657373206973205f8201527f6e6f7420616c6c6f776564000000000000000000000000000000000000000000602082015250565b5f610450602b836103e6565b915061045b826103f6565b604082019050919050565b5f6020820190508181035f83015261047d81610444565b9050919050565b5f81519050919050565b7f4e487b71000000000000000000000000000000000000000000000000000000005f52602260045260245ffd5b5f60028204905060018216806104d257607f821691505b6020821081036104e5576104e461048e565b5b50919050565b5f819050815f5260205f209050919050565b5f6020601f8301049050919050565b5f82821b905092915050565b5f600883026105477fffffffffffffffffffffffffffffffffffffffffffffffffffffffffffffffff8261050c565b610551868361050c565b95508019841693508086168417925050509392505050565b5f819050919050565b5f61058c61058761058284610304565b610569565b610304565b9050919050565b5f819050919050565b6105a583610572565b6105b96105b182610593565b848454610518565b825550505050565b5f90565b6105cd6105c1565b6105d881848461059c565b505050565b5b818110156105fb576105f05f826105c5565b6001810190506105de565b5050565b601f82111561064057610611816104eb565b61061a846104fd565b81016020851015610629578190505b61063d610635856104fd565b8301826105dd565b50505b505050565b5f82821c905092915050565b5f6106605f1984600802610645565b1980831691505092915050565b5f6106788383610651565b9150826002028217905092915050565b61069182610484565b67ffffffffffffffff8111156106aa576106a96101aa565b5b6106b482546104bb565b6106bf8282856105ff565b5f60209050601f8311600181146106f0575f84156106de578287015190505b6106e8858261066d565b86555061074f565b601f1984166106fe866104eb565b5f5b8281101561072557848901518255600182019150602085019450602081019050610700565b86831015610742578489015161073e601f891682610651565b8355505b6001600288020188555050505b505050505050565b60805160a05161190361077f5f395f8181610cf8015261113801525f610b9201526119035ff3fe608060405234801561000f575f80fd5b50600436106100fe575f3560e01c80635b833f1e11610095578063a3e6761011610064578063a3e67610146102ae578063a9059cbb146102cc578063d5abeb01146102fc578063dd62ed3e1461031a576100fe565b80635b833f1e1461022657806370a082311461024457806395d89b41146102745780639dc29fac14610292576100fe565b806321e6b53d116100d157806321e6b53d1461018c57806323b872dd146101bc578063313ce567146101ec57806340c10f191461020a576100fe565b806306fdde0314610102578063095ea7b31461012057806310731a651461015057806318160ddd1461016e575b5f80fd5b61010a61034a565b6040516101179190611392565b60405180910390f35b61013a60048036038101906101359190611443565b6103d5565b604051610147919061149b565b60405180910390f35b610158610550565b604051610165919061149b565b60405180910390f35b6101766106ee565b60405161018391906114c3565b60405180910390f35b6101a660048036038101906101a191906114dc565b6106f4565b6040516101b3919061149b565b60405180910390f35b6101d660048036038101906101d19190611507565b6108db565b6040516101e3919061149b565b60405180910390f35b6101f4610b90565b6040516102019190611572565b60405180910390f35b610224600480360381019061021f9190611443565b610bb4565b005b61022e610d40565b60405161023b919061159a565b60405180910390f35b61025e600480360381019061025991906114dc565b610d65565b60405161026b91906114c3565b60405180910390f35b61027c610d7a565b6040516102899190611392565b60405180910390f35b6102ac60048036038101906102a79190611443565b610e06565b005b6102b6610f6d565b6040516102c3919061159a565b60405180910390f35b6102e660048036038101906102e19190611443565b610f92565b6040516102f3919061149b565b60405180910390f35b610304611136565b60405161031191906114c3565b60405180910390f35b610334600480360381019061032f91906115b3565b61115a565b60405161034191906114c3565b60405180910390f35b5f80546103569061161e565b80601f01602080910402602001604051908101604052809291908181526020018280546103829061161e565b80156103cd5780601f106103a4576101008083540402835291602001916103cd565b820191905f5260205f20905b8154815290600101906020018083116103b057829003601f168201915b505050505081565b5f8082148061040f57505f73ffffffffffffffffffffffffffffffffffffffff168373ffffffffffffffffffffffffffffffffffffffff16145b8061045657508160055f3373ffffffffffffffffffffffffffffffffffffffff1673ffffffffffffffffffffffffffffffffffffffff1681526020019081526020015f2054105b15610463575f905061054a565b8160065f3373ffffffffffffffffffffffffffffffffffffffff1673ffffffffffffffffffffffffffffffffffffffff1681526020019081526020015f205f8573ffffffffffffffffffffffffffffffffffffffff1673ffffffffffffffffffffffffffffffffffffffff1681526020019081526020015f20819055508273ffffffffffffffffffffffffffffffffffffffff163373ffffffffffffffffffffffffffffffffffffffff167f8c5be1e5ebec7d5bd14f71427d1e84f3dd0314c0f7b2291e5b200ac8c7c3b9258460405161053d91906114c3565b60405180910390a3600190505b92915050565b5f60045f9054906101000a900473ffffffffffffffffffffffffffffffffffffffff168073ffffffffffffffffffffffffffffffffffffffff163373ffffffffffffffffffffffffffffffffffffffff16146105e1576040517f08c379a00000000000000000000000000000000000000000000000000000000081526004016105d890611698565b60405180910390fd5b60045f9054906101000a900473ffffffffffffffffffffffffffffffffffffffff1660035f6101000a81548173ffffffffffffffffffffffffffffffffffffffff021916908373ffffffffffffffffffffffffffffffffffffffff1602179055505f60045f6101000a81548173ffffffffffffffffffffffffffffffffffffffff021916908373ffffffffffffffffffffffffffffffffffffffff16021790555060035f9054906101000a900473ffffffffffffffffffffffffffffffffffffffff1673ffffffffffffffffffffffffffffffffffffffff167f96a25b4900cebf93ed691b1c763e37a5a01cd4b9b62e0df10688a47856def7a560405160405180910390a2600191505090565b60025481565b5f60035f9054906101000a900473ffffffffffffffffffffffffffffffffffffffff168073ffffffffffffffffffffffffffffffffffffffff163373ffffffffffffffffffffffffffffffffffffffff1614610785576040517f08c379a000000000000000000000000000000000000000000000000000000000815260040161077c90611698565b60405180910390fd5b828073ffffffffffffffffffffffffffffffffffffffff165f73ffffffffffffffffffffffffffffffffffffffff16036107f4576040517f08c379a00000000000000000000000000000000000000000000000000000000081526004016107eb90611726565b60405180910390fd5b8360045f6101000a81548173ffffffffffffffffffffffffffffffffffffffff021916908373ffffffffffffffffffffffffffffffffffffffff16021790555060045f9054906101000a900473ffffffffffffffffffffffffffffffffffffffff1673ffffffffffffffffffffffffffffffffffffffff1660035f9054906101000a900473ffffffffffffffffffffffffffffffffffffffff1673ffffffffffffffffffffffffffffffffffffffff167f79d2e4ff11f0c38e318513361054112b3865ca4f53b3c97152af0640db000e2560405160405180910390a3600192505050919050565b5f8082148061091557505f73ffffffffffffffffffffffffffffffffffffffff168373ffffffffffffffffffffffffffffffffffffffff16145b8061095c57508160055f8673ffffffffffffffffffffffffffffffffffffffff1673ffffffffffffffffffffffffffffffffffffffff1681526020019081526020015f2054105b806109de57508160065f8673ffffffffffffffffffffffffffffffffffffffff1673ffffffffffffffffffffffffffffffffffffffff1681526020019081526020015f205f3373ffffffffffffffffffffffffffffffffffffffff1673ffffffffffffffffffffffffffffffffffffffff1681526020019081526020015f2054105b156109eb575f9050610b89565b8160065f8673ffffffffffffffffffffffffffffffffffffffff1673ffffffffffffffffffffffffffffffffffffffff1681526020019081526020015f205f3373ffffffffffffffffffffffffffffffffffffffff1673ffffffffffffffffffffffffffffffffffffffff1681526020019081526020015f205f828254610a729190611771565b925050819055508160055f8673ffffffffffffffffffffffffffffffffffffffff1673ffffffffffffffffffffffffffffffffffffffff1681526020019081526020015f205f828254610ac59190611771565b925050819055508160055f8573ffffffffffffffffffffffffffffffffffffffff1673ffffffffffffffffffffffffffffffffffffffff1681526020019081526020015f205f828254610b1891906117a4565b925050819055508273ffffffffffffffffffffffffffffffffffffffff168473ffffffffffffffffffffffffffffffffffffffff167fddf252ad1be2c89b69c2b068fc378daa952ba7f163c4a11628f55a4df523b3ef84604051610b7c91906114c3565b60405180910390a3600190505b9392505050565b7f000000000000000000000000000000000000000000000000000000000000000081565b60035f9054906101000a900473ffffffffffffffffffffffffffffffffffffffff168073ffffffffffffffffffffffffffffffffffffffff163373ffffffffffffffffffffffffffffffffffffffff1614610c44576040517f08c379a0000000000000000000000000000000000000000000000000000000008152600401610c3b90611698565b60405180910390fd5b815f8103610c87576040517f08c379a0000000000000000000000000000000000000000000000000000000008152600401610c7e90611821565b60405180910390fd5b838073ffffffffffffffffffffffffffffffffffffffff165f73ffffffffffffffffffffffffffffffffffffffff1603610cf6576040517f08c379a0000000000000000000000000000000000000000000000000000000008152600401610ced90611726565b60405180910390fd5b7f000000000000000000000000000000000000000000000000000000000000000084600254610d2591906117a4565b1115610d2f575f80fd5b610d39858561117a565b5050505050565b60045f9054906101000a900473ffffffffffffffffffffffffffffffffffffffff1681565b6005602052805f5260405f205f915090505481565b60018054610d879061161e565b80601f0160208091040260200160405190810160405280929190818152602001828054610db39061161e565b8015610dfe5780601f10610dd557610100808354040283529160200191610dfe565b820191905f5260205f20905b815481529060010190602001808311610de157829003601f168201915b505050505081565b60035f9054906101000a900473ffffffffffffffffffffffffffffffffffffffff168073ffffffffffffffffffffffffffffffffffffffff163373ffffffffffffffffffffffffffffffffffffffff1614610e96576040517f08c379a0000000000000000000000000000000000000000000000000000000008152600401610e8d90611698565b60405180910390fd5b815f8103610ed9576040517f08c379a0000000000000000000000000000000000000000000000000000000008152600401610ed090611821565b60405180910390fd5b83838060055f8473ffffffffffffffffffffffffffffffffffffffff1673ffffffffffffffffffffffffffffffffffffffff1681526020019081526020015f20541015610f5b576040517f08c379a0000000000000000000000000000000000000000000000000000000008152600401610f52906118af565b60405180910390fd5b610f65868661124e565b505050505050565b60035f9054906101000a900473ffffffffffffffffffffffffffffffffffffffff1681565b5f80821480610fcc57505f73ffffffffffffffffffffffffffffffffffffffff168373ffffffffffffffffffffffffffffffffffffffff16145b8061101357508160055f3373ffffffffffffffffffffffffffffffffffffffff1673ffffffffffffffffffffffffffffffffffffffff1681526020019081526020015f2054105b15611020575f9050611130565b8160055f3373ffffffffffffffffffffffffffffffffffffffff1673ffffffffffffffffffffffffffffffffffffffff1681526020019081526020015f205f82825461106c9190611771565b925050819055508160055f8573ffffffffffffffffffffffffffffffffffffffff1673ffffffffffffffffffffffffffffffffffffffff1681526020019081526020015f205f8282546110bf91906117a4565b925050819055508273ffffffffffffffffffffffffffffffffffffffff163373ffffffffffffffffffffffffffffffffffffffff167fddf252ad1be2c89b69c2b068fc378daa952ba7f163c4a11628f55a4df523b3ef8460405161112391906114c3565b60405180910390a3600190505b92915050565b7f000000000000000000000000000000000000000000000000000000000000000081565b6006602052815f5260405f20602052805f5260405f205f91509150505481565b8060055f8473ffffffffffffffffffffffffffffffffffffffff1673ffffffffffffffffffffffffffffffffffffffff1681526020019081526020015f205f8282546111c691906117a4565b925050819055508060025f8282546111de91906117a4565b925050819055508173ffffffffffffffffffffffffffffffffffffffff165f73ffffffffffffffffffffffffffffffffffffffff167fddf252ad1be2c89b69c2b068fc378daa952ba7f163c4a11628f55a4df523b3ef8360405161124291906114c3565b60405180910390a35050565b8060055f8473ffffffffffffffffffffffffffffffffffffffff1673ffffffffffffffffffffffffffffffffffffffff1681526020019081526020015f205f82825461129a9190611771565b925050819055508060025f8282546112b29190611771565b925050819055505f73ffffffffffffffffffffffffffffffffffffffff168273ffffffffffffffffffffffffffffffffffffffff167fddf252ad1be2c89b69c2b068fc378daa952ba7f163c4a11628f55a4df523b3ef8360405161131691906114c3565b60405180910390a35050565b5f81519050919050565b5f82825260208201905092915050565b8281835e5f83830152505050565b5f601f19601f8301169050919050565b5f61136482611322565b61136e818561132c565b935061137e81856020860161133c565b6113878161134a565b840191505092915050565b5f6020820190508181035f8301526113aa818461135a565b905092915050565b5f80fd5b5f73ffffffffffffffffffffffffffffffffffffffff82169050919050565b5f6113df826113b6565b9050919050565b6113ef816113d5565b81146113f9575f80fd5b50565b5f8135905061140a816113e6565b92915050565b5f819050919050565b61142281611410565b811461142c575f80fd5b50565b5f8135905061143d81611419565b92915050565b5f8060408385031215611459576114586113b2565b5b5f611466858286016113fc565b92505060206114778582860161142f565b9150509250929050565b5f8115159050919050565b61149581611481565b82525050565b5f6020820190506114ae5f83018461148c565b92915050565b6114bd81611410565b82525050565b5f6020820190506114d65f8301846114b4565b92915050565b5f602082840312156114f1576114f06113b2565b5b5f6114fe848285016113fc565b91505092915050565b5f805f6060848603121561151e5761151d6113b2565b5b5f61152b868287016113fc565b935050602061153c868287016113fc565b925050604061154d8682870161142f565b9150509250925092565b5f60ff82169050919050565b61156c81611557565b82525050565b5f6020820190506115855f830184611563565b92915050565b611594816113d5565b82525050565b5f6020820190506115ad5f83018461158b565b92915050565b5f80604083850312156115c9576115c86113b2565b5b5f6115d6858286016113fc565b92505060206115e7858286016113fc565b9150509250929050565b7f4e487b71000000000000000000000000000000000000000000000000000000005f52602260045260245ffd5b5f600282049050600182168061163557607f821691505b602082108103611648576116476115f1565b5b50919050565b7f43616c6c6572206973206e6f7420617574686f72697a656400000000000000005f82015250565b5f61168260188361132c565b915061168d8261164e565b602082019050919050565b5f6020820190508181035f8301526116af81611676565b9050919050565b7f5472616e7366657220746f20746865207a65726f2061646472657373206973205f8201527f6e6f7420616c6c6f776564000000000000000000000000000000000000000000602082015250565b5f611710602b8361132c565b915061171b826116b6565b604082019050919050565b5f6020820190508181035f83015261173d81611704565b9050919050565b7f4e487b71000000000000000000000000000000000000000000000000000000005f52601160045260245ffd5b5f61177b82611410565b915061178683611410565b925082820390508181111561179e5761179d611744565b5b92915050565b5f6117ae82611410565b91506117b983611410565b92508282019050808211156117d1576117d0611744565b5b92915050565b7f416d6f756e74206d7573742062652067726561746572207468616e207a65726f5f82015250565b5f61180b60208361132c565b9150611816826117d7565b602082019050919050565b5f6020820190508181035f830152611838816117ff565b9050919050565b7f43616c6c657220646f6573206e6f7420686176652073756666696369656e74205f8201527f62616c616e636500000000000000000000000000000000000000000000000000602082015250565b5f61189960278361132c565b91506118a48261183f565b604082019050919050565b5f6020820190508181035f8301526118c68161188d565b905091905056fea2646970667358221220a32720348d6cbf406af9e84b53320c4d8c6a6d5e0873ed991fccabd1fd3e68d564736f6c63430008190033",
					"opcodes": "PUSH1 0xC0 PUSH1 0x40 MSTORE CALLVALUE DUP1 ISZERO PUSH2 0xF JUMPI PUSH0 DUP1 REVERT JUMPDEST POP PUSH1 0x40 MLOAD PUSH2 0x2082 CODESIZE SUB DUP1 PUSH2 0x2082 DUP4 CODECOPY DUP2 DUP2 ADD PUSH1 0x40 MSTORE DUP2 ADD SWAP1 PUSH2 0x31 SWAP2 SWAP1 PUSH2 0x337 JUMP JUMPDEST DUP5 DUP1 PUSH20 0xFFFFFFFFFFFFFFFFFFFFFFFFFFFFFFFFFFFFFFFF AND PUSH0 PUSH20 0xFFFFFFFFFFFFFFFFFFFFFFFFFFFFFFFFFFFFFFFF AND SUB PUSH2 0xA0 JUMPI PUSH1 0x40 MLOAD PUSH32 0x8C379A000000000000000000000000000000000000000000000000000000000 DUP2 MSTORE PUSH1 0x4 ADD PUSH2 0x97 SWAP1 PUSH2 0x466 JUMP JUMPDEST PUSH1 0x40 MLOAD DUP1 SWAP2 SUB SWAP1 REVERT JUMPDEST DUP6 PUSH1 0x3 PUSH0 PUSH2 0x100 EXP DUP2 SLOAD DUP2 PUSH20 0xFFFFFFFFFFFFFFFFFFFFFFFFFFFFFFFFFFFFFFFF MUL NOT AND SWAP1 DUP4 PUSH20 0xFFFFFFFFFFFFFFFFFFFFFFFFFFFFFFFFFFFFFFFF AND MUL OR SWAP1 SSTORE POP DUP5 PUSH0 SWAP1 DUP2 PUSH2 0xEE SWAP2 SWAP1 PUSH2 0x688 JUMP JUMPDEST POP DUP4 PUSH1 0x1 SWAP1 DUP2 PUSH2 0xFE SWAP2 SWAP1 PUSH2 0x688 JUMP JUMPDEST POP DUP3 PUSH1 0xFF AND PUSH1 0x80 DUP2 PUSH1 0xFF AND DUP2 MSTORE POP POP DUP2 PUSH1 0xA0 DUP2 DUP2 MSTORE POP POP PUSH0 PUSH1 0x2 DUP2 SWAP1 SSTORE POP POP POP POP POP POP POP PUSH2 0x757 JUMP JUMPDEST PUSH0 PUSH1 0x40 MLOAD SWAP1 POP SWAP1 JUMP JUMPDEST PUSH0 DUP1 REVERT JUMPDEST PUSH0 DUP1 REVERT JUMPDEST PUSH0 PUSH20 0xFFFFFFFFFFFFFFFFFFFFFFFFFFFFFFFFFFFFFFFF DUP3 AND SWAP1 POP SWAP2 SWAP1 POP JUMP JUMPDEST PUSH0 PUSH2 0x161 DUP3 PUSH2 0x138 JUMP JUMPDEST SWAP1 POP SWAP2 SWAP1 POP JUMP JUMPDEST PUSH2 0x171 DUP2 PUSH2 0x157 JUMP JUMPDEST DUP2 EQ PUSH2 0x17B JUMPI PUSH0 DUP1 REVERT JUMPDEST POP JUMP JUMPDEST PUSH0 DUP2 MLOAD SWAP1 POP PUSH2 0x18C DUP2 PUSH2 0x168 JUMP JUMPDEST SWAP3 SWAP2 POP POP JUMP JUMPDEST PUSH0 DUP1 REVERT JUMPDEST PUSH0 DUP1 REVERT JUMPDEST PUSH0 PUSH1 0x1F NOT PUSH1 0x1F DUP4 ADD AND SWAP1 POP SWAP2 SWAP1 POP JUMP JUMPDEST PUSH32 0x4E487B7100000000000000000000000000000000000000000000000000000000 PUSH0 MSTORE PUSH1 0x41 PUSH1 0x4 MSTORE PUSH1 0x24 PUSH0 REVERT JUMPDEST PUSH2 0x1E0 DUP3 PUSH2 0x19A JUMP JUMPDEST DUP2 ADD DUP2 DUP2 LT PUSH8 0xFFFFFFFFFFFFFFFF DUP3 GT OR ISZERO PUSH2 0x1FF JUMPI PUSH2 0x1FE PUSH2 0x1AA JUMP JUMPDEST JUMPDEST DUP1 PUSH1 0x40 MSTORE POP POP POP JUMP JUMPDEST PUSH0 PUSH2 0x211 PUSH2 0x127 JUMP JUMPDEST SWAP1 POP PUSH2 0x21D DUP3 DUP3 PUSH2 0x1D7 JUMP JUMPDEST SWAP2 SWAP1 POP JUMP JUMPDEST PUSH0 PUSH8 0xFFFFFFFFFFFFFFFF DUP3 GT ISZERO PUSH2 0x23C JUMPI PUSH2 0x23B PUSH2 0x1AA JUMP JUMPDEST JUMPDEST PUSH2 0x245 DUP3 PUSH2 0x19A JUMP JUMPDEST SWAP1 POP PUSH1 0x20 DUP2 ADD SWAP1 POP SWAP2 SWAP1 POP JUMP JUMPDEST DUP3 DUP2 DUP4 MCOPY PUSH0 DUP4 DUP4 ADD MSTORE POP POP POP JUMP JUMPDEST PUSH0 PUSH2 0x272 PUSH2 0x26D DUP5 PUSH2 0x222 JUMP JUMPDEST PUSH2 0x208 JUMP JUMPDEST SWAP1 POP DUP3 DUP2 MSTORE PUSH1 0x20 DUP2 ADD DUP5 DUP5 DUP5 ADD GT ISZERO PUSH2 0x28E JUMPI PUSH2 0x28D PUSH2 0x196 JUMP JUMPDEST JUMPDEST PUSH2 0x299 DUP5 DUP3 DUP6 PUSH2 0x252 JUMP JUMPDEST POP SWAP4 SWAP3 POP POP POP JUMP JUMPDEST PUSH0 DUP3 PUSH1 0x1F DUP4 ADD SLT PUSH2 0x2B5 JUMPI PUSH2 0x2B4 PUSH2 0x192 JUMP JUMPDEST JUMPDEST DUP2 MLOAD PUSH2 0x2C5 DUP5 DUP3 PUSH1 0x20 DUP7 ADD PUSH2 0x260 JUMP JUMPDEST SWAP2 POP POP SWAP3 SWAP2 POP POP JUMP JUMPDEST PUSH0 PUSH1 0xFF DUP3 AND SWAP1 POP SWAP2 SWAP1 POP JUMP JUMPDEST PUSH2 0x2E3 DUP2 PUSH2 0x2CE JUMP JUMPDEST DUP2 EQ PUSH2 0x2ED JUMPI PUSH0 DUP1 REVERT JUMPDEST POP JUMP JUMPDEST PUSH0 DUP2 MLOAD SWAP1 POP PUSH2 0x2FE DUP2 PUSH2 0x2DA JUMP JUMPDEST SWAP3 SWAP2 POP POP JUMP JUMPDEST PUSH0 DUP2 SWAP1 POP SWAP2 SWAP1 POP JUMP JUMPDEST PUSH2 0x316 DUP2 PUSH2 0x304 JUMP JUMPDEST DUP2 EQ PUSH2 0x320 JUMPI PUSH0 DUP1 REVERT JUMPDEST POP JUMP JUMPDEST PUSH0 DUP2 MLOAD SWAP1 POP PUSH2 0x331 DUP2 PUSH2 0x30D JUMP JUMPDEST SWAP3 SWAP2 POP POP JUMP JUMPDEST PUSH0 DUP1 PUSH0 DUP1 PUSH0 PUSH1 0xA0 DUP7 DUP9 SUB SLT ISZERO PUSH2 0x350 JUMPI PUSH2 0x34F PUSH2 0x130 JUMP JUMPDEST JUMPDEST PUSH0 PUSH2 0x35D DUP9 DUP3 DUP10 ADD PUSH2 0x17E JUMP JUMPDEST SWAP6 POP POP PUSH1 0x20 DUP7 ADD MLOAD PUSH8 0xFFFFFFFFFFFFFFFF DUP2 GT ISZERO PUSH2 0x37E JUMPI PUSH2 0x37D PUSH2 0x134 JUMP JUMPDEST JUMPDEST PUSH2 0x38A DUP9 DUP3 DUP10 ADD PUSH2 0x2A1 JUMP JUMPDEST SWAP5 POP POP PUSH1 0x40 DUP7 ADD MLOAD PUSH8 0xFFFFFFFFFFFFFFFF DUP2 GT ISZERO PUSH2 0x3AB JUMPI PUSH2 0x3AA PUSH2 0x134 JUMP JUMPDEST JUMPDEST PUSH2 0x3B7 DUP9 DUP3 DUP10 ADD PUSH2 0x2A1 JUMP JUMPDEST SWAP4 POP POP PUSH1 0x60 PUSH2 0x3C8 DUP9 DUP3 DUP10 ADD PUSH2 0x2F0 JUMP JUMPDEST SWAP3 POP POP PUSH1 0x80 PUSH2 0x3D9 DUP9 DUP3 DUP10 ADD PUSH2 0x323 JUMP JUMPDEST SWAP2 POP POP SWAP3 SWAP6 POP SWAP3 SWAP6 SWAP1 SWAP4 POP JUMP JUMPDEST PUSH0 DUP3 DUP3 MSTORE PUSH1 0x20 DUP3 ADD SWAP1 POP SWAP3 SWAP2 POP POP JUMP JUMPDEST PUSH32 0x5472616E7366657220746F20746865207A65726F206164647265737320697320 PUSH0 DUP3 ADD MSTORE PUSH32 0x6E6F7420616C6C6F776564000000000000000000000000000000000000000000 PUSH1 0x20 DUP3 ADD MSTORE POP JUMP JUMPDEST PUSH0 PUSH2 0x450 PUSH1 0x2B DUP4 PUSH2 0x3E6 JUMP JUMPDEST SWAP2 POP PUSH2 0x45B DUP3 PUSH2 0x3F6 JUMP JUMPDEST PUSH1 0x40 DUP3 ADD SWAP1 POP SWAP2 SWAP1 POP JUMP JUMPDEST PUSH0 PUSH1 0x20 DUP3 ADD SWAP1 POP DUP2 DUP2 SUB PUSH0 DUP4 ADD MSTORE PUSH2 0x47D DUP2 PUSH2 0x444 JUMP JUMPDEST SWAP1 POP SWAP2 SWAP1 POP JUMP JUMPDEST PUSH0 DUP2 MLOAD SWAP1 POP SWAP2 SWAP1 POP JUMP JUMPDEST PUSH32 0x4E487B7100000000000000000000000000000000000000000000000000000000 PUSH0 MSTORE PUSH1 0x22 PUSH1 0x4 MSTORE PUSH1 0x24 PUSH0 REVERT JUMPDEST PUSH0 PUSH1 0x2 DUP3 DIV SWAP1 POP PUSH1 0x1 DUP3 AND DUP1 PUSH2 0x4D2 JUMPI PUSH1 0x7F DUP3 AND SWAP2 POP JUMPDEST PUSH1 0x20 DUP3 LT DUP2 SUB PUSH2 0x4E5 JUMPI PUSH2 0x4E4 PUSH2 0x48E JUMP JUMPDEST JUMPDEST POP SWAP2 SWAP1 POP JUMP JUMPDEST PUSH0 DUP2 SWAP1 POP DUP2 PUSH0 MSTORE PUSH1 0x20 PUSH0 KECCAK256 SWAP1 POP SWAP2 SWAP1 POP JUMP JUMPDEST PUSH0 PUSH1 0x20 PUSH1 0x1F DUP4 ADD DIV SWAP1 POP SWAP2 SWAP1 POP JUMP JUMPDEST PUSH0 DUP3 DUP3 SHL SWAP1 POP SWAP3 SWAP2 POP POP JUMP JUMPDEST PUSH0 PUSH1 0x8 DUP4 MUL PUSH2 0x547 PUSH32 0xFFFFFFFFFFFFFFFFFFFFFFFFFFFFFFFFFFFFFFFFFFFFFFFFFFFFFFFFFFFFFFFF DUP3 PUSH2 0x50C JUMP JUMPDEST PUSH2 0x551 DUP7 DUP4 PUSH2 0x50C JUMP JUMPDEST SWAP6 POP DUP1 NOT DUP5 AND SWAP4 POP DUP1 DUP7 AND DUP5 OR SWAP3 POP POP POP SWAP4 SWAP3 POP POP POP JUMP JUMPDEST PUSH0 DUP2 SWAP1 POP SWAP2 SWAP1 POP JUMP JUMPDEST PUSH0 PUSH2 0x58C PUSH2 0x587 PUSH2 0x582 DUP5 PUSH2 0x304 JUMP JUMPDEST PUSH2 0x569 JUMP JUMPDEST PUSH2 0x304 JUMP JUMPDEST SWAP1 POP SWAP2 SWAP1 POP JUMP JUMPDEST PUSH0 DUP2 SWAP1 POP SWAP2 SWAP1 POP JUMP JUMPDEST PUSH2 0x5A5 DUP4 PUSH2 0x572 JUMP JUMPDEST PUSH2 0x5B9 PUSH2 0x5B1 DUP3 PUSH2 0x593 JUMP JUMPDEST DUP5 DUP5 SLOAD PUSH2 0x518 JUMP JUMPDEST DUP3 SSTORE POP POP POP POP JUMP JUMPDEST PUSH0 SWAP1 JUMP JUMPDEST PUSH2 0x5CD PUSH2 0x5C1 JUMP JUMPDEST PUSH2 0x5D8 DUP2 DUP5 DUP5 PUSH2 0x59C JUMP JUMPDEST POP POP POP JUMP JUMPDEST JUMPDEST DUP2 DUP2 LT ISZERO PUSH2 0x5FB JUMPI PUSH2 0x5F0 PUSH0 DUP3 PUSH2 0x5C5 JUMP JUMPDEST PUSH1 0x1 DUP2 ADD SWAP1 POP PUSH2 0x5DE JUMP JUMPDEST POP POP JUMP JUMPDEST PUSH1 0x1F DUP3 GT ISZERO PUSH2 0x640 JUMPI PUSH2 0x611 DUP2 PUSH2 0x4EB JUMP JUMPDEST PUSH2 0x61A DUP5 PUSH2 0x4FD JUMP JUMPDEST DUP2 ADD PUSH1 0x20 DUP6 LT ISZERO PUSH2 0x629 JUMPI DUP2 SWAP1 POP JUMPDEST PUSH2 0x63D PUSH2 0x635 DUP6 PUSH2 0x4FD JUMP JUMPDEST DUP4 ADD DUP3 PUSH2 0x5DD JUMP JUMPDEST POP POP JUMPDEST POP POP POP JUMP JUMPDEST PUSH0 DUP3 DUP3 SHR SWAP1 POP SWAP3 SWAP2 POP POP JUMP JUMPDEST PUSH0 PUSH2 0x660 PUSH0 NOT DUP5 PUSH1 0x8 MUL PUSH2 0x645 JUMP JUMPDEST NOT DUP1 DUP4 AND SWAP2 POP POP SWAP3 SWAP2 POP POP JUMP JUMPDEST PUSH0 PUSH2 0x678 DUP4 DUP4 PUSH2 0x651 JUMP JUMPDEST SWAP2 POP DUP3 PUSH1 0x2 MUL DUP3 OR SWAP1 POP SWAP3 SWAP2 POP POP JUMP JUMPDEST PUSH2 0x691 DUP3 PUSH2 0x484 JUMP JUMPDEST PUSH8 0xFFFFFFFFFFFFFFFF DUP2 GT ISZERO PUSH2 0x6AA JUMPI PUSH2 0x6A9 PUSH2 0x1AA JUMP JUMPDEST JUMPDEST PUSH2 0x6B4 DUP3 SLOAD PUSH2 0x4BB JUMP JUMPDEST PUSH2 0x6BF DUP3 DUP3 DUP6 PUSH2 0x5FF JUMP JUMPDEST PUSH0 PUSH1 0x20 SWAP1 POP PUSH1 0x1F DUP4 GT PUSH1 0x1 DUP2 EQ PUSH2 0x6F0 JUMPI PUSH0 DUP5 ISZERO PUSH2 0x6DE JUMPI DUP3 DUP8 ADD MLOAD SWAP1 POP JUMPDEST PUSH2 0x6E8 DUP6 DUP3 PUSH2 0x66D JUMP JUMPDEST DUP7 SSTORE POP PUSH2 0x74F JUMP JUMPDEST PUSH1 0x1F NOT DUP5 AND PUSH2 0x6FE DUP7 PUSH2 0x4EB JUMP JUMPDEST PUSH0 JUMPDEST DUP3 DUP2 LT ISZERO PUSH2 0x725 JUMPI DUP5 DUP10 ADD MLOAD DUP3 SSTORE PUSH1 0x1 DUP3 ADD SWAP2 POP PUSH1 0x20 DUP6 ADD SWAP5 POP PUSH1 0x20 DUP2 ADD SWAP1 POP PUSH2 0x700 JUMP JUMPDEST DUP7 DUP4 LT ISZERO PUSH2 0x742 JUMPI DUP5 DUP10 ADD MLOAD PUSH2 0x73E PUSH1 0x1F DUP10 AND DUP3 PUSH2 0x651 JUMP JUMPDEST DUP4 SSTORE POP JUMPDEST PUSH1 0x1 PUSH1 0x2 DUP9 MUL ADD DUP9 SSTORE POP POP POP JUMPDEST POP POP POP POP POP POP JUMP JUMPDEST PUSH1 0x80 MLOAD PUSH1 0xA0 MLOAD PUSH2 0x1903 PUSH2 0x77F PUSH0 CODECOPY PUSH0 DUP2 DUP2 PUSH2 0xCF8 ADD MSTORE PUSH2 0x1138 ADD MSTORE PUSH0 PUSH2 0xB92 ADD MSTORE PUSH2 0x1903 PUSH0 RETURN INVALID PUSH1 0x80 PUSH1 0x40 MSTORE CALLVALUE DUP1 ISZERO PUSH2 0xF JUMPI PUSH0 DUP1 REVERT JUMPDEST POP PUSH1 0x4 CALLDATASIZE LT PUSH2 0xFE JUMPI PUSH0 CALLDATALOAD PUSH1 0xE0 SHR DUP1 PUSH4 0x5B833F1E GT PUSH2 0x95 JUMPI DUP1 PUSH4 0xA3E67610 GT PUSH2 0x64 JUMPI DUP1 PUSH4 0xA3E67610 EQ PUSH2 0x2AE JUMPI DUP1 PUSH4 0xA9059CBB EQ PUSH2 0x2CC JUMPI DUP1 PUSH4 0xD5ABEB01 EQ PUSH2 0x2FC JUMPI DUP1 PUSH4 0xDD62ED3E EQ PUSH2 0x31A JUMPI PUSH2 0xFE JUMP JUMPDEST DUP1 PUSH4 0x5B833F1E EQ PUSH2 0x226 JUMPI DUP1 PUSH4 0x70A08231 EQ PUSH2 0x244 JUMPI DUP1 PUSH4 0x95D89B41 EQ PUSH2 0x274 JUMPI DUP1 PUSH4 0x9DC29FAC EQ PUSH2 0x292 JUMPI PUSH2 0xFE JUMP JUMPDEST DUP1 PUSH4 0x21E6B53D GT PUSH2 0xD1 JUMPI DUP1 PUSH4 0x21E6B53D EQ PUSH2 0x18C JUMPI DUP1 PUSH4 0x23B872DD EQ PUSH2 0x1BC JUMPI DUP1 PUSH4 0x313CE567 EQ PUSH2 0x1EC JUMPI DUP1 PUSH4 0x40C10F19 EQ PUSH2 0x20A JUMPI PUSH2 0xFE JUMP JUMPDEST DUP1 PUSH4 0x6FDDE03 EQ PUSH2 0x102 JUMPI DUP1 PUSH4 0x95EA7B3 EQ PUSH2 0x120 JUMPI DUP1 PUSH4 0x10731A65 EQ PUSH2 0x150 JUMPI DUP1 PUSH4 0x18160DDD EQ PUSH2 0x16E JUMPI JUMPDEST PUSH0 DUP1 REVERT JUMPDEST PUSH2 0x10A PUSH2 0x34A JUMP JUMPDEST PUSH1 0x40 MLOAD PUSH2 0x117 SWAP2 SWAP1 PUSH2 0x1392 JUMP JUMPDEST PUSH1 0x40 MLOAD DUP1 SWAP2 SUB SWAP1 RETURN JUMPDEST PUSH2 0x13A PUSH1 0x4 DUP1 CALLDATASIZE SUB DUP2 ADD SWAP1 PUSH2 0x135 SWAP2 SWAP1 PUSH2 0x1443 JUMP JUMPDEST PUSH2 0x3D5 JUMP JUMPDEST PUSH1 0x40 MLOAD PUSH2 0x147 SWAP2 SWAP1 PUSH2 0x149B JUMP JUMPDEST PUSH1 0x40 MLOAD DUP1 SWAP2 SUB SWAP1 RETURN JUMPDEST PUSH2 0x158 PUSH2 0x550 JUMP JUMPDEST PUSH1 0x40 MLOAD PUSH2 0x165 SWAP2 SWAP1 PUSH2 0x149B JUMP JUMPDEST PUSH1 0x40 MLOAD DUP1 SWAP2 SUB SWAP1 RETURN JUMPDEST PUSH2 0x176 PUSH2 0x6EE JUMP JUMPDEST PUSH1 0x40 MLOAD PUSH2 0x183 SWAP2 SWAP1 PUSH2 0x14C3 JUMP JUMPDEST PUSH1 0x40 MLOAD DUP1 SWAP2 SUB SWAP1 RETURN JUMPDEST PUSH2 0x1A6 PUSH1 0x4 DUP1 CALLDATASIZE SUB DUP2 ADD SWAP1 PUSH2 0x1A1 SWAP2 SWAP1 PUSH2 0x14DC JUMP JUMPDEST PUSH2 0x6F4 JUMP JUMPDEST PUSH1 0x40 MLOAD PUSH2 0x1B3 SWAP2 SWAP1 PUSH2 0x149B JUMP JUMPDEST PUSH1 0x40 MLOAD DUP1 SWAP2 SUB SWAP1 RETURN JUMPDEST PUSH2 0x1D6 PUSH1 0x4 DUP1 CALLDATASIZE SUB DUP2 ADD SWAP1 PUSH2 0x1D1 SWAP2 SWAP1 PUSH2 0x1507 JUMP JUMPDEST PUSH2 0x8DB JUMP JUMPDEST PUSH1 0x40 MLOAD PUSH2 0x1E3 SWAP2 SWAP1 PUSH2 0x149B JUMP JUMPDEST PUSH1 0x40 MLOAD DUP1 SWAP2 SUB SWAP1 RETURN JUMPDEST PUSH2 0x1F4 PUSH2 0xB90 JUMP JUMPDEST PUSH1 0x40 MLOAD PUSH2 0x201 SWAP2 SWAP1 PUSH2 0x1572 JUMP JUMPDEST PUSH1 0x40 MLOAD DUP1 SWAP2 SUB SWAP1 RETURN JUMPDEST PUSH2 0x224 PUSH1 0x4 DUP1 CALLDATASIZE SUB DUP2 ADD SWAP1 PUSH2 0x21F SWAP2 SWAP1 PUSH2 0x1443 JUMP JUMPDEST PUSH2 0xBB4 JUMP JUMPDEST STOP JUMPDEST PUSH2 0x22E PUSH2 0xD40 JUMP JUMPDEST PUSH1 0x40 MLOAD PUSH2 0x23B SWAP2 SWAP1 PUSH2 0x159A JUMP JUMPDEST PUSH1 0x40 MLOAD DUP1 SWAP2 SUB SWAP1 RETURN JUMPDEST PUSH2 0x25E PUSH1 0x4 DUP1 CALLDATASIZE SUB DUP2 ADD SWAP1 PUSH2 0x259 SWAP2 SWAP1 PUSH2 0x14DC JUMP JUMPDEST PUSH2 0xD65 JUMP JUMPDEST PUSH1 0x40 MLOAD PUSH2 0x26B SWAP2 SWAP1 PUSH2 0x14C3 JUMP JUMPDEST PUSH1 0x40 MLOAD DUP1 SWAP2 SUB SWAP1 RETURN JUMPDEST PUSH2 0x27C PUSH2 0xD7A JUMP JUMPDEST PUSH1 0x40 MLOAD PUSH2 0x289 SWAP2 SWAP1 PUSH2 0x1392 JUMP JUMPDEST PUSH1 0x40 MLOAD DUP1 SWAP2 SUB SWAP1 RETURN JUMPDEST PUSH2 0x2AC PUSH1 0x4 DUP1 CALLDATASIZE SUB DUP2 ADD SWAP1 PUSH2 0x2A7 SWAP2 SWAP1 PUSH2 0x1443 JUMP JUMPDEST PUSH2 0xE06 JUMP JUMPDEST STOP JUMPDEST PUSH2 0x2B6 PUSH2 0xF6D JUMP JUMPDEST PUSH1 0x40 MLOAD PUSH2 0x2C3 SWAP2 SWAP1 PUSH2 0x159A JUMP JUMPDEST PUSH1 0x40 MLOAD DUP1 SWAP2 SUB SWAP1 RETURN JUMPDEST PUSH2 0x2E6 PUSH1 0x4 DUP1 CALLDATASIZE SUB DUP2 ADD SWAP1 PUSH2 0x2E1 SWAP2 SWAP1 PUSH2 0x1443 JUMP JUMPDEST PUSH2 0xF92 JUMP JUMPDEST PUSH1 0x40 MLOAD PUSH2 0x2F3 SWAP2 SWAP1 PUSH2 0x149B JUMP JUMPDEST PUSH1 0x40 MLOAD DUP1 SWAP2 SUB SWAP1 RETURN JUMPDEST PUSH2 0x304 PUSH2 0x1136 JUMP JUMPDEST PUSH1 0x40 MLOAD PUSH2 0x311 SWAP2 SWAP1 PUSH2 0x14C3 JUMP JUMPDEST PUSH1 0x40 MLOAD DUP1 SWAP2 SUB SWAP1 RETURN JUMPDEST PUSH2 0x334 PUSH1 0x4 DUP1 CALLDATASIZE SUB DUP2 ADD SWAP1 PUSH2 0x32F SWAP2 SWAP1 PUSH2 0x15B3 JUMP JUMPDEST PUSH2 0x115A JUMP JUMPDEST PUSH1 0x40 MLOAD PUSH2 0x341 SWAP2 SWAP1 PUSH2 0x14C3 JUMP JUMPDEST PUSH1 0x40 MLOAD DUP1 SWAP2 SUB SWAP1 RETURN JUMPDEST PUSH0 DUP1 SLOAD PUSH2 0x356 SWAP1 PUSH2 0x161E JUMP JUMPDEST DUP1 PUSH1 0x1F ADD PUSH1 0x20 DUP1 SWAP2 DIV MUL PUSH1 0x20 ADD PUSH1 0x40 MLOAD SWAP1 DUP2 ADD PUSH1 0x40 MSTORE DUP1 SWAP3 SWAP2 SWAP1 DUP2 DUP2 MSTORE PUSH1 0x20 ADD DUP3 DUP1 SLOAD PUSH2 0x382 SWAP1 PUSH2 0x161E JUMP JUMPDEST DUP1 ISZERO PUSH2 0x3CD JUMPI DUP1 PUSH1 0x1F LT PUSH2 0x3A4 JUMPI PUSH2 0x100 DUP1 DUP4 SLOAD DIV MUL DUP4 MSTORE SWAP2 PUSH1 0x20 ADD SWAP2 PUSH2 0x3CD JUMP JUMPDEST DUP3 ADD SWAP2 SWAP1 PUSH0 MSTORE PUSH1 0x20 PUSH0 KECCAK256 SWAP1 JUMPDEST DUP2 SLOAD DUP2 MSTORE SWAP1 PUSH1 0x1 ADD SWAP1 PUSH1 0x20 ADD DUP1 DUP4 GT PUSH2 0x3B0 JUMPI DUP3 SWAP1 SUB PUSH1 0x1F AND DUP3 ADD SWAP2 JUMPDEST POP POP POP POP POP DUP2 JUMP JUMPDEST PUSH0 DUP1 DUP3 EQ DUP1 PUSH2 0x40F JUMPI POP PUSH0 PUSH20 0xFFFFFFFFFFFFFFFFFFFFFFFFFFFFFFFFFFFFFFFF AND DUP4 PUSH20 0xFFFFFFFFFFFFFFFFFFFFFFFFFFFFFFFFFFFFFFFF AND EQ JUMPDEST DUP1 PUSH2 0x456 JUMPI POP DUP2 PUSH1 0x5 PUSH0 CALLER PUSH20 0xFFFFFFFFFFFFFFFFFFFFFFFFFFFFFFFFFFFFFFFF AND PUSH20 0xFFFFFFFFFFFFFFFFFFFFFFFFFFFFFFFFFFFFFFFF AND DUP2 MSTORE PUSH1 0x20 ADD SWAP1 DUP2 MSTORE PUSH1 0x20 ADD PUSH0 KECCAK256 SLOAD LT JUMPDEST ISZERO PUSH2 0x463 JUMPI PUSH0 SWAP1 POP PUSH2 0x54A JUMP JUMPDEST DUP2 PUSH1 0x6 PUSH0 CALLER PUSH20 0xFFFFFFFFFFFFFFFFFFFFFFFFFFFFFFFFFFFFFFFF AND PUSH20 0xFFFFFFFFFFFFFFFFFFFFFFFFFFFFFFFFFFFFFFFF AND DUP2 MSTORE PUSH1 0x20 ADD SWAP1 DUP2 MSTORE PUSH1 0x20 ADD PUSH0 KECCAK256 PUSH0 DUP6 PUSH20 0xFFFFFFFFFFFFFFFFFFFFFFFFFFFFFFFFFFFFFFFF AND PUSH20 0xFFFFFFFFFFFFFFFFFFFFFFFFFFFFFFFFFFFFFFFF AND DUP2 MSTORE PUSH1 0x20 ADD SWAP1 DUP2 MSTORE PUSH1 0x20 ADD PUSH0 KECCAK256 DUP2 SWAP1 SSTORE POP DUP3 PUSH20 0xFFFFFFFFFFFFFFFFFFFFFFFFFFFFFFFFFFFFFFFF AND CALLER PUSH20 0xFFFFFFFFFFFFFFFFFFFFFFFFFFFFFFFFFFFFFFFF AND PUSH32 0x8C5BE1E5EBEC7D5BD14F71427D1E84F3DD0314C0F7B2291E5B200AC8C7C3B925 DUP5 PUSH1 0x40 MLOAD PUSH2 0x53D SWAP2 SWAP1 PUSH2 0x14C3 JUMP JUMPDEST PUSH1 0x40 MLOAD DUP1 SWAP2 SUB SWAP1 LOG3 PUSH1 0x1 SWAP1 POP JUMPDEST SWAP3 SWAP2 POP POP JUMP JUMPDEST PUSH0 PUSH1 0x4 PUSH0 SWAP1 SLOAD SWAP1 PUSH2 0x100 EXP SWAP1 DIV PUSH20 0xFFFFFFFFFFFFFFFFFFFFFFFFFFFFFFFFFFFFFFFF AND DUP1 PUSH20 0xFFFFFFFFFFFFFFFFFFFFFFFFFFFFFFFFFFFFFFFF AND CALLER PUSH20 0xFFFFFFFFFFFFFFFFFFFFFFFFFFFFFFFFFFFFFFFF AND EQ PUSH2 0x5E1 JUMPI PUSH1 0x40 MLOAD PUSH32 0x8C379A000000000000000000000000000000000000000000000000000000000 DUP2 MSTORE PUSH1 0x4 ADD PUSH2 0x5D8 SWAP1 PUSH2 0x1698 JUMP JUMPDEST PUSH1 0x40 MLOAD DUP1 SWAP2 SUB SWAP1 REVERT JUMPDEST PUSH1 0x4 PUSH0 SWAP1 SLOAD SWAP1 PUSH2 0x100 EXP SWAP1 DIV PUSH20 0xFFFFFFFFFFFFFFFFFFFFFFFFFFFFFFFFFFFFFFFF AND PUSH1 0x3 PUSH0 PUSH2 0x100 EXP DUP2 SLOAD DUP2 PUSH20 0xFFFFFFFFFFFFFFFFFFFFFFFFFFFFFFFFFFFFFFFF MUL NOT AND SWAP1 DUP4 PUSH20 0xFFFFFFFFFFFFFFFFFFFFFFFFFFFFFFFFFFFFFFFF AND MUL OR SWAP1 SSTORE POP PUSH0 PUSH1 0x4 PUSH0 PUSH2 0x100 EXP DUP2 SLOAD DUP2 PUSH20 0xFFFFFFFFFFFFFFFFFFFFFFFFFFFFFFFFFFFFFFFF MUL NOT AND SWAP1 DUP4 PUSH20 0xFFFFFFFFFFFFFFFFFFFFFFFFFFFFFFFFFFFFFFFF AND MUL OR SWAP1 SSTORE POP PUSH1 0x3 PUSH0 SWAP1 SLOAD SWAP1 PUSH2 0x100 EXP SWAP1 DIV PUSH20 0xFFFFFFFFFFFFFFFFFFFFFFFFFFFFFFFFFFFFFFFF AND PUSH20 0xFFFFFFFFFFFFFFFFFFFFFFFFFFFFFFFFFFFFFFFF AND PUSH32 0x96A25B4900CEBF93ED691B1C763E37A5A01CD4B9B62E0DF10688A47856DEF7A5 PUSH1 0x40 MLOAD PUSH1 0x40 MLOAD DUP1 SWAP2 SUB SWAP1 LOG2 PUSH1 0x1 SWAP2 POP POP SWAP1 JUMP JUMPDEST PUSH1 0x2 SLOAD DUP2 JUMP JUMPDEST PUSH0 PUSH1 0x3 PUSH0 SWAP1 SLOAD SWAP1 PUSH2 0x100 EXP SWAP1 DIV PUSH20 0xFFFFFFFFFFFFFFFFFFFFFFFFFFFFFFFFFFFFFFFF AND DUP1 PUSH20 0xFFFFFFFFFFFFFFFFFFFFFFFFFFFFFFFFFFFFFFFF AND CALLER PUSH20 0xFFFFFFFFFFFFFFFFFFFFFFFFFFFFFFFFFFFFFFFF AND EQ PUSH2 0x785 JUMPI PUSH1 0x40 MLOAD PUSH32 0x8C379A000000000000000000000000000000000000000000000000000000000 DUP2 MSTORE PUSH1 0x4 ADD PUSH2 0x77C SWAP1 PUSH2 0x1698 JUMP JUMPDEST PUSH1 0x40 MLOAD DUP1 SWAP2 SUB SWAP1 REVERT JUMPDEST DUP3 DUP1 PUSH20 0xFFFFFFFFFFFFFFFFFFFFFFFFFFFFFFFFFFFFFFFF AND PUSH0 PUSH20 0xFFFFFFFFFFFFFFFFFFFFFFFFFFFFFFFFFFFFFFFF AND SUB PUSH2 0x7F4 JUMPI PUSH1 0x40 MLOAD PUSH32 0x8C379A000000000000000000000000000000000000000000000000000000000 DUP2 MSTORE PUSH1 0x4 ADD PUSH2 0x7EB SWAP1 PUSH2 0x1726 JUMP JUMPDEST PUSH1 0x40 MLOAD DUP1 SWAP2 SUB SWAP1 REVERT JUMPDEST DUP4 PUSH1 0x4 PUSH0 PUSH2 0x100 EXP DUP2 SLOAD DUP2 PUSH20 0xFFFFFFFFFFFFFFFFFFFFFFFFFFFFFFFFFFFFFFFF MUL NOT AND SWAP1 DUP4 PUSH20 0xFFFFFFFFFFFFFFFFFFFFFFFFFFFFFFFFFFFFFFFF AND MUL OR SWAP1 SSTORE POP PUSH1 0x4 PUSH0 SWAP1 SLOAD SWAP1 PUSH2 0x100 EXP SWAP1 DIV PUSH20 0xFFFFFFFFFFFFFFFFFFFFFFFFFFFFFFFFFFFFFFFF AND PUSH20 0xFFFFFFFFFFFFFFFFFFFFFFFFFFFFFFFFFFFFFFFF AND PUSH1 0x3 PUSH0 SWAP1 SLOAD SWAP1 PUSH2 0x100 EXP SWAP1 DIV PUSH20 0xFFFFFFFFFFFFFFFFFFFFFFFFFFFFFFFFFFFFFFFF AND PUSH20 0xFFFFFFFFFFFFFFFFFFFFFFFFFFFFFFFFFFFFFFFF AND PUSH32 0x79D2E4FF11F0C38E318513361054112B3865CA4F53B3C97152AF0640DB000E25 PUSH1 0x40 MLOAD PUSH1 0x40 MLOAD DUP1 SWAP2 SUB SWAP1 LOG3 PUSH1 0x1 SWAP3 POP POP POP SWAP2 SWAP1 POP JUMP JUMPDEST PUSH0 DUP1 DUP3 EQ DUP1 PUSH2 0x915 JUMPI POP PUSH0 PUSH20 0xFFFFFFFFFFFFFFFFFFFFFFFFFFFFFFFFFFFFFFFF AND DUP4 PUSH20 0xFFFFFFFFFFFFFFFFFFFFFFFFFFFFFFFFFFFFFFFF AND EQ JUMPDEST DUP1 PUSH2 0x95C JUMPI POP DUP2 PUSH1 0x5 PUSH0 DUP7 PUSH20 0xFFFFFFFFFFFFFFFFFFFFFFFFFFFFFFFFFFFFFFFF AND PUSH20 0xFFFFFFFFFFFFFFFFFFFFFFFFFFFFFFFFFFFFFFFF AND DUP2 MSTORE PUSH1 0x20 ADD SWAP1 DUP2 MSTORE PUSH1 0x20 ADD PUSH0 KECCAK256 SLOAD LT JUMPDEST DUP1 PUSH2 0x9DE JUMPI POP DUP2 PUSH1 0x6 PUSH0 DUP7 PUSH20 0xFFFFFFFFFFFFFFFFFFFFFFFFFFFFFFFFFFFFFFFF AND PUSH20 0xFFFFFFFFFFFFFFFFFFFFFFFFFFFFFFFFFFFFFFFF AND DUP2 MSTORE PUSH1 0x20 ADD SWAP1 DUP2 MSTORE PUSH1 0x20 ADD PUSH0 KECCAK256 PUSH0 CALLER PUSH20 0xFFFFFFFFFFFFFFFFFFFFFFFFFFFFFFFFFFFFFFFF AND PUSH20 0xFFFFFFFFFFFFFFFFFFFFFFFFFFFFFFFFFFFFFFFF AND DUP2 MSTORE PUSH1 0x20 ADD SWAP1 DUP2 MSTORE PUSH1 0x20 ADD PUSH0 KECCAK256 SLOAD LT JUMPDEST ISZERO PUSH2 0x9EB JUMPI PUSH0 SWAP1 POP PUSH2 0xB89 JUMP JUMPDEST DUP2 PUSH1 0x6 PUSH0 DUP7 PUSH20 0xFFFFFFFFFFFFFFFFFFFFFFFFFFFFFFFFFFFFFFFF AND PUSH20 0xFFFFFFFFFFFFFFFFFFFFFFFFFFFFFFFFFFFFFFFF AND DUP2 MSTORE PUSH1 0x20 ADD SWAP1 DUP2 MSTORE PUSH1 0x20 ADD PUSH0 KECCAK256 PUSH0 CALLER PUSH20 0xFFFFFFFFFFFFFFFFFFFFFFFFFFFFFFFFFFFFFFFF AND PUSH20 0xFFFFFFFFFFFFFFFFFFFFFFFFFFFFFFFFFFFFFFFF AND DUP2 MSTORE PUSH1 0x20 ADD SWAP1 DUP2 MSTORE PUSH1 0x20 ADD PUSH0 KECCAK256 PUSH0 DUP3 DUP3 SLOAD PUSH2 0xA72 SWAP2 SWAP1 PUSH2 0x1771 JUMP JUMPDEST SWAP3 POP POP DUP2 SWAP1 SSTORE POP DUP2 PUSH1 0x5 PUSH0 DUP7 PUSH20 0xFFFFFFFFFFFFFFFFFFFFFFFFFFFFFFFFFFFFFFFF AND PUSH20 0xFFFFFFFFFFFFFFFFFFFFFFFFFFFFFFFFFFFFFFFF AND DUP2 MSTORE PUSH1 0x20 ADD SWAP1 DUP2 MSTORE PUSH1 0x20 ADD PUSH0 KECCAK256 PUSH0 DUP3 DUP3 SLOAD PUSH2 0xAC5 SWAP2 SWAP1 PUSH2 0x1771 JUMP JUMPDEST SWAP3 POP POP DUP2 SWAP1 SSTORE POP DUP2 PUSH1 0x5 PUSH0 DUP6 PUSH20 0xFFFFFFFFFFFFFFFFFFFFFFFFFFFFFFFFFFFFFFFF AND PUSH20 0xFFFFFFFFFFFFFFFFFFFFFFFFFFFFFFFFFFFFFFFF AND DUP2 MSTORE PUSH1 0x20 ADD SWAP1 DUP2 MSTORE PUSH1 0x20 ADD PUSH0 KECCAK256 PUSH0 DUP3 DUP3 SLOAD PUSH2 0xB18 SWAP2 SWAP1 PUSH2 0x17A4 JUMP JUMPDEST SWAP3 POP POP DUP2 SWAP1 SSTORE POP DUP3 PUSH20 0xFFFFFFFFFFFFFFFFFFFFFFFFFFFFFFFFFFFFFFFF AND DUP5 PUSH20 0xFFFFFFFFFFFFFFFFFFFFFFFFFFFFFFFFFFFFFFFF AND PUSH32 0xDDF252AD1BE2C89B69C2B068FC378DAA952BA7F163C4A11628F55A4DF523B3EF DUP5 PUSH1 0x40 MLOAD PUSH2 0xB7C SWAP2 SWAP1 PUSH2 0x14C3 JUMP JUMPDEST PUSH1 0x40 MLOAD DUP1 SWAP2 SUB SWAP1 LOG3 PUSH1 0x1 SWAP1 POP JUMPDEST SWAP4 SWAP3 POP POP POP JUMP JUMPDEST PUSH32 0x0 DUP2 JUMP JUMPDEST PUSH1 0x3 PUSH0 SWAP1 SLOAD SWAP1 PUSH2 0x100 EXP SWAP1 DIV PUSH20 0xFFFFFFFFFFFFFFFFFFFFFFFFFFFFFFFFFFFFFFFF AND DUP1 PUSH20 0xFFFFFFFFFFFFFFFFFFFFFFFFFFFFFFFFFFFFFFFF AND CALLER PUSH20 0xFFFFFFFFFFFFFFFFFFFFFFFFFFFFFFFFFFFFFFFF AND EQ PUSH2 0xC44 JUMPI PUSH1 0x40 MLOAD PUSH32 0x8C379A000000000000000000000000000000000000000000000000000000000 DUP2 MSTORE PUSH1 0x4 ADD PUSH2 0xC3B SWAP1 PUSH2 0x1698 JUMP JUMPDEST PUSH1 0x40 MLOAD DUP1 SWAP2 SUB SWAP1 REVERT JUMPDEST DUP2 PUSH0 DUP2 SUB PUSH2 0xC87 JUMPI PUSH1 0x40 MLOAD PUSH32 0x8C379A000000000000000000000000000000000000000000000000000000000 DUP2 MSTORE PUSH1 0x4 ADD PUSH2 0xC7E SWAP1 PUSH2 0x1821 JUMP JUMPDEST PUSH1 0x40 MLOAD DUP1 SWAP2 SUB SWAP1 REVERT JUMPDEST DUP4 DUP1 PUSH20 0xFFFFFFFFFFFFFFFFFFFFFFFFFFFFFFFFFFFFFFFF AND PUSH0 PUSH20 0xFFFFFFFFFFFFFFFFFFFFFFFFFFFFFFFFFFFFFFFF AND SUB PUSH2 0xCF6 JUMPI PUSH1 0x40 MLOAD PUSH32 0x8C379A000000000000000000000000000000000000000000000000000000000 DUP2 MSTORE PUSH1 0x4 ADD PUSH2 0xCED SWAP1 PUSH2 0x1726 JUMP JUMPDEST PUSH1 0x40 MLOAD DUP1 SWAP2 SUB SWAP1 REVERT JUMPDEST PUSH32 0x0 DUP5 PUSH1 0x2 SLOAD PUSH2 0xD25 SWAP2 SWAP1 PUSH2 0x17A4 JUMP JUMPDEST GT ISZERO PUSH2 0xD2F JUMPI PUSH0 DUP1 REVERT JUMPDEST PUSH2 0xD39 DUP6 DUP6 PUSH2 0x117A JUMP JUMPDEST POP POP POP POP POP JUMP JUMPDEST PUSH1 0x4 PUSH0 SWAP1 SLOAD SWAP1 PUSH2 0x100 EXP SWAP1 DIV PUSH20 0xFFFFFFFFFFFFFFFFFFFFFFFFFFFFFFFFFFFFFFFF AND DUP2 JUMP JUMPDEST PUSH1 0x5 PUSH1 0x20 MSTORE DUP1 PUSH0 MSTORE PUSH1 0x40 PUSH0 KECCAK256 PUSH0 SWAP2 POP SWAP1 POP SLOAD DUP2 JUMP JUMPDEST PUSH1 0x1 DUP1 SLOAD PUSH2 0xD87 SWAP1 PUSH2 0x161E JUMP JUMPDEST DUP1 PUSH1 0x1F ADD PUSH1 0x20 DUP1 SWAP2 DIV MUL PUSH1 0x20 ADD PUSH1 0x40 MLOAD SWAP1 DUP2 ADD PUSH1 0x40 MSTORE DUP1 SWAP3 SWAP2 SWAP1 DUP2 DUP2 MSTORE PUSH1 0x20 ADD DUP3 DUP1 SLOAD PUSH2 0xDB3 SWAP1 PUSH2 0x161E JUMP JUMPDEST DUP1 ISZERO PUSH2 0xDFE JUMPI DUP1 PUSH1 0x1F LT PUSH2 0xDD5 JUMPI PUSH2 0x100 DUP1 DUP4 SLOAD DIV MUL DUP4 MSTORE SWAP2 PUSH1 0x20 ADD SWAP2 PUSH2 0xDFE JUMP JUMPDEST DUP3 ADD SWAP2 SWAP1 PUSH0 MSTORE PUSH1 0x20 PUSH0 KECCAK256 SWAP1 JUMPDEST DUP2 SLOAD DUP2 MSTORE SWAP1 PUSH1 0x1 ADD SWAP1 PUSH1 0x20 ADD DUP1 DUP4 GT PUSH2 0xDE1 JUMPI DUP3 SWAP1 SUB PUSH1 0x1F AND DUP3 ADD SWAP2 JUMPDEST POP POP POP POP POP DUP2 JUMP JUMPDEST PUSH1 0x3 PUSH0 SWAP1 SLOAD SWAP1 PUSH2 0x100 EXP SWAP1 DIV PUSH20 0xFFFFFFFFFFFFFFFFFFFFFFFFFFFFFFFFFFFFFFFF AND DUP1 PUSH20 0xFFFFFFFFFFFFFFFFFFFFFFFFFFFFFFFFFFFFFFFF AND CALLER PUSH20 0xFFFFFFFFFFFFFFFFFFFFFFFFFFFFFFFFFFFFFFFF AND EQ PUSH2 0xE96 JUMPI PUSH1 0x40 MLOAD PUSH32 0x8C379A000000000000000000000000000000000000000000000000000000000 DUP2 MSTORE PUSH1 0x4 ADD PUSH2 0xE8D SWAP1 PUSH2 0x1698 JUMP JUMPDEST PUSH1 0x40 MLOAD DUP1 SWAP2 SUB SWAP1 REVERT JUMPDEST DUP2 PUSH0 DUP2 SUB PUSH2 0xED9 JUMPI PUSH1 0x40 MLOAD PUSH32 0x8C379A000000000000000000000000000000000000000000000000000000000 DUP2 MSTORE PUSH1 0x4 ADD PUSH2 0xED0 SWAP1 PUSH2 0x1821 JUMP JUMPDEST PUSH1 0x40 MLOAD DUP1 SWAP2 SUB SWAP1 REVERT JUMPDEST DUP4 DUP4 DUP1 PUSH1 0x5 PUSH0 DUP5 PUSH20 0xFFFFFFFFFFFFFFFFFFFFFFFFFFFFFFFFFFFFFFFF AND PUSH20 0xFFFFFFFFFFFFFFFFFFFFFFFFFFFFFFFFFFFFFFFF AND DUP2 MSTORE PUSH1 0x20 ADD SWAP1 DUP2 MSTORE PUSH1 0x20 ADD PUSH0 KECCAK256 SLOAD LT ISZERO PUSH2 0xF5B JUMPI PUSH1 0x40 MLOAD PUSH32 0x8C379A000000000000000000000000000000000000000000000000000000000 DUP2 MSTORE PUSH1 0x4 ADD PUSH2 0xF52 SWAP1 PUSH2 0x18AF JUMP JUMPDEST PUSH1 0x40 MLOAD DUP1 SWAP2 SUB SWAP1 REVERT JUMPDEST PUSH2 0xF65 DUP7 DUP7 PUSH2 0x124E JUMP JUMPDEST POP POP POP POP POP POP JUMP JUMPDEST PUSH1 0x3 PUSH0 SWAP1 SLOAD SWAP1 PUSH2 0x100 EXP SWAP1 DIV PUSH20 0xFFFFFFFFFFFFFFFFFFFFFFFFFFFFFFFFFFFFFFFF AND DUP2 JUMP JUMPDEST PUSH0 DUP1 DUP3 EQ DUP1 PUSH2 0xFCC JUMPI POP PUSH0 PUSH20 0xFFFFFFFFFFFFFFFFFFFFFFFFFFFFFFFFFFFFFFFF AND DUP4 PUSH20 0xFFFFFFFFFFFFFFFFFFFFFFFFFFFFFFFFFFFFFFFF AND EQ JUMPDEST DUP1 PUSH2 0x1013 JUMPI POP DUP2 PUSH1 0x5 PUSH0 CALLER PUSH20 0xFFFFFFFFFFFFFFFFFFFFFFFFFFFFFFFFFFFFFFFF AND PUSH20 0xFFFFFFFFFFFFFFFFFFFFFFFFFFFFFFFFFFFFFFFF AND DUP2 MSTORE PUSH1 0x20 ADD SWAP1 DUP2 MSTORE PUSH1 0x20 ADD PUSH0 KECCAK256 SLOAD LT JUMPDEST ISZERO PUSH2 0x1020 JUMPI PUSH0 SWAP1 POP PUSH2 0x1130 JUMP JUMPDEST DUP2 PUSH1 0x5 PUSH0 CALLER PUSH20 0xFFFFFFFFFFFFFFFFFFFFFFFFFFFFFFFFFFFFFFFF AND PUSH20 0xFFFFFFFFFFFFFFFFFFFFFFFFFFFFFFFFFFFFFFFF AND DUP2 MSTORE PUSH1 0x20 ADD SWAP1 DUP2 MSTORE PUSH1 0x20 ADD PUSH0 KECCAK256 PUSH0 DUP3 DUP3 SLOAD PUSH2 0x106C SWAP2 SWAP1 PUSH2 0x1771 JUMP JUMPDEST SWAP3 POP POP DUP2 SWAP1 SSTORE POP DUP2 PUSH1 0x5 PUSH0 DUP6 PUSH20 0xFFFFFFFFFFFFFFFFFFFFFFFFFFFFFFFFFFFFFFFF AND PUSH20 0xFFFFFFFFFFFFFFFFFFFFFFFFFFFFFFFFFFFFFFFF AND DUP2 MSTORE PUSH1 0x20 ADD SWAP1 DUP2 MSTORE PUSH1 0x20 ADD PUSH0 KECCAK256 PUSH0 DUP3 DUP3 SLOAD PUSH2 0x10BF SWAP2 SWAP1 PUSH2 0x17A4 JUMP JUMPDEST SWAP3 POP POP DUP2 SWAP1 SSTORE POP DUP3 PUSH20 0xFFFFFFFFFFFFFFFFFFFFFFFFFFFFFFFFFFFFFFFF AND CALLER PUSH20 0xFFFFFFFFFFFFFFFFFFFFFFFFFFFFFFFFFFFFFFFF AND PUSH32 0xDDF252AD1BE2C89B69C2B068FC378DAA952BA7F163C4A11628F55A4DF523B3EF DUP5 PUSH1 0x40 MLOAD PUSH2 0x1123 SWAP2 SWAP1 PUSH2 0x14C3 JUMP JUMPDEST PUSH1 0x40 MLOAD DUP1 SWAP2 SUB SWAP1 LOG3 PUSH1 0x1 SWAP1 POP JUMPDEST SWAP3 SWAP2 POP POP JUMP JUMPDEST PUSH32 0x0 DUP2 JUMP JUMPDEST PUSH1 0x6 PUSH1 0x20 MSTORE DUP2 PUSH0 MSTORE PUSH1 0x40 PUSH0 KECCAK256 PUSH1 0x20 MSTORE DUP1 PUSH0 MSTORE PUSH1 0x40 PUSH0 KECCAK256 PUSH0 SWAP2 POP SWAP2 POP POP SLOAD DUP2 JUMP JUMPDEST DUP1 PUSH1 0x5 PUSH0 DUP5 PUSH20 0xFFFFFFFFFFFFFFFFFFFFFFFFFFFFFFFFFFFFFFFF AND PUSH20 0xFFFFFFFFFFFFFFFFFFFFFFFFFFFFFFFFFFFFFFFF AND DUP2 MSTORE PUSH1 0x20 ADD SWAP1 DUP2 MSTORE PUSH1 0x20 ADD PUSH0 KECCAK256 PUSH0 DUP3 DUP3 SLOAD PUSH2 0x11C6 SWAP2 SWAP1 PUSH2 0x17A4 JUMP JUMPDEST SWAP3 POP POP DUP2 SWAP1 SSTORE POP DUP1 PUSH1 0x2 PUSH0 DUP3 DUP3 SLOAD PUSH2 0x11DE SWAP2 SWAP1 PUSH2 0x17A4 JUMP JUMPDEST SWAP3 POP POP DUP2 SWAP1 SSTORE POP DUP2 PUSH20 0xFFFFFFFFFFFFFFFFFFFFFFFFFFFFFFFFFFFFFFFF AND PUSH0 PUSH20 0xFFFFFFFFFFFFFFFFFFFFFFFFFFFFFFFFFFFFFFFF AND PUSH32 0xDDF252AD1BE2C89B69C2B068FC378DAA952BA7F163C4A11628F55A4DF523B3EF DUP4 PUSH1 0x40 MLOAD PUSH2 0x1242 SWAP2 SWAP1 PUSH2 0x14C3 JUMP JUMPDEST PUSH1 0x40 MLOAD DUP1 SWAP2 SUB SWAP1 LOG3 POP POP JUMP JUMPDEST DUP1 PUSH1 0x5 PUSH0 DUP5 PUSH20 0xFFFFFFFFFFFFFFFFFFFFFFFFFFFFFFFFFFFFFFFF AND PUSH20 0xFFFFFFFFFFFFFFFFFFFFFFFFFFFFFFFFFFFFFFFF AND DUP2 MSTORE PUSH1 0x20 ADD SWAP1 DUP2 MSTORE PUSH1 0x20 ADD PUSH0 KECCAK256 PUSH0 DUP3 DUP3 SLOAD PUSH2 0x129A SWAP2 SWAP1 PUSH2 0x1771 JUMP JUMPDEST SWAP3 POP POP DUP2 SWAP1 SSTORE POP DUP1 PUSH1 0x2 PUSH0 DUP3 DUP3 SLOAD PUSH2 0x12B2 SWAP2 SWAP1 PUSH2 0x1771 JUMP JUMPDEST SWAP3 POP POP DUP2 SWAP1 SSTORE POP PUSH0 PUSH20 0xFFFFFFFFFFFFFFFFFFFFFFFFFFFFFFFFFFFFFFFF AND DUP3 PUSH20 0xFFFFFFFFFFFFFFFFFFFFFFFFFFFFFFFFFFFFFFFF AND PUSH32 0xDDF252AD1BE2C89B69C2B068FC378DAA952BA7F163C4A11628F55A4DF523B3EF DUP4 PUSH1 0x40 MLOAD PUSH2 0x1316 SWAP2 SWAP1 PUSH2 0x14C3 JUMP JUMPDEST PUSH1 0x40 MLOAD DUP1 SWAP2 SUB SWAP1 LOG3 POP POP JUMP JUMPDEST PUSH0 DUP2 MLOAD SWAP1 POP SWAP2 SWAP1 POP JUMP JUMPDEST PUSH0 DUP3 DUP3 MSTORE PUSH1 0x20 DUP3 ADD SWAP1 POP SWAP3 SWAP2 POP POP JUMP JUMPDEST DUP3 DUP2 DUP4 MCOPY PUSH0 DUP4 DUP4 ADD MSTORE POP POP POP JUMP JUMPDEST PUSH0 PUSH1 0x1F NOT PUSH1 0x1F DUP4 ADD AND SWAP1 POP SWAP2 SWAP1 POP JUMP JUMPDEST PUSH0 PUSH2 0x1364 DUP3 PUSH2 0x1322 JUMP JUMPDEST PUSH2 0x136E DUP2 DUP6 PUSH2 0x132C JUMP JUMPDEST SWAP4 POP PUSH2 0x137E DUP2 DUP6 PUSH1 0x20 DUP7 ADD PUSH2 0x133C JUMP JUMPDEST PUSH2 0x1387 DUP2 PUSH2 0x134A JUMP JUMPDEST DUP5 ADD SWAP2 POP POP SWAP3 SWAP2 POP POP JUMP JUMPDEST PUSH0 PUSH1 0x20 DUP3 ADD SWAP1 POP DUP2 DUP2 SUB PUSH0 DUP4 ADD MSTORE PUSH2 0x13AA DUP2 DUP5 PUSH2 0x135A JUMP JUMPDEST SWAP1 POP SWAP3 SWAP2 POP POP JUMP JUMPDEST PUSH0 DUP1 REVERT JUMPDEST PUSH0 PUSH20 0xFFFFFFFFFFFFFFFFFFFFFFFFFFFFFFFFFFFFFFFF DUP3 AND SWAP1 POP SWAP2 SWAP1 POP JUMP JUMPDEST PUSH0 PUSH2 0x13DF DUP3 PUSH2 0x13B6 JUMP JUMPDEST SWAP1 POP SWAP2 SWAP1 POP JUMP JUMPDEST PUSH2 0x13EF DUP2 PUSH2 0x13D5 JUMP JUMPDEST DUP2 EQ PUSH2 0x13F9 JUMPI PUSH0 DUP1 REVERT JUMPDEST POP JUMP JUMPDEST PUSH0 DUP2 CALLDATALOAD SWAP1 POP PUSH2 0x140A DUP2 PUSH2 0x13E6 JUMP JUMPDEST SWAP3 SWAP2 POP POP JUMP JUMPDEST PUSH0 DUP2 SWAP1 POP SWAP2 SWAP1 POP JUMP JUMPDEST PUSH2 0x1422 DUP2 PUSH2 0x1410 JUMP JUMPDEST DUP2 EQ PUSH2 0x142C JUMPI PUSH0 DUP1 REVERT JUMPDEST POP JUMP JUMPDEST PUSH0 DUP2 CALLDATALOAD SWAP1 POP PUSH2 0x143D DUP2 PUSH2 0x1419 JUMP JUMPDEST SWAP3 SWAP2 POP POP JUMP JUMPDEST PUSH0 DUP1 PUSH1 0x40 DUP4 DUP6 SUB SLT ISZERO PUSH2 0x1459 JUMPI PUSH2 0x1458 PUSH2 0x13B2 JUMP JUMPDEST JUMPDEST PUSH0 PUSH2 0x1466 DUP6 DUP3 DUP7 ADD PUSH2 0x13FC JUMP JUMPDEST SWAP3 POP POP PUSH1 0x20 PUSH2 0x1477 DUP6 DUP3 DUP7 ADD PUSH2 0x142F JUMP JUMPDEST SWAP2 POP POP SWAP3 POP SWAP3 SWAP1 POP JUMP JUMPDEST PUSH0 DUP2 ISZERO ISZERO SWAP1 POP SWAP2 SWAP1 POP JUMP JUMPDEST PUSH2 0x1495 DUP2 PUSH2 0x1481 JUMP JUMPDEST DUP3 MSTORE POP POP JUMP JUMPDEST PUSH0 PUSH1 0x20 DUP3 ADD SWAP1 POP PUSH2 0x14AE PUSH0 DUP4 ADD DUP5 PUSH2 0x148C JUMP JUMPDEST SWAP3 SWAP2 POP POP JUMP JUMPDEST PUSH2 0x14BD DUP2 PUSH2 0x1410 JUMP JUMPDEST DUP3 MSTORE POP POP JUMP JUMPDEST PUSH0 PUSH1 0x20 DUP3 ADD SWAP1 POP PUSH2 0x14D6 PUSH0 DUP4 ADD DUP5 PUSH2 0x14B4 JUMP JUMPDEST SWAP3 SWAP2 POP POP JUMP JUMPDEST PUSH0 PUSH1 0x20 DUP3 DUP5 SUB SLT ISZERO PUSH2 0x14F1 JUMPI PUSH2 0x14F0 PUSH2 0x13B2 JUMP JUMPDEST JUMPDEST PUSH0 PUSH2 0x14FE DUP5 DUP3 DUP6 ADD PUSH2 0x13FC JUMP JUMPDEST SWAP2 POP POP SWAP3 SWAP2 POP POP JUMP JUMPDEST PUSH0 DUP1 PUSH0 PUSH1 0x60 DUP5 DUP7 SUB SLT ISZERO PUSH2 0x151E JUMPI PUSH2 0x151D PUSH2 0x13B2 JUMP JUMPDEST JUMPDEST PUSH0 PUSH2 0x152B DUP7 DUP3 DUP8 ADD PUSH2 0x13FC JUMP JUMPDEST SWAP4 POP POP PUSH1 0x20 PUSH2 0x153C DUP7 DUP3 DUP8 ADD PUSH2 0x13FC JUMP JUMPDEST SWAP3 POP POP PUSH1 0x40 PUSH2 0x154D DUP7 DUP3 DUP8 ADD PUSH2 0x142F JUMP JUMPDEST SWAP2 POP POP SWAP3 POP SWAP3 POP SWAP3 JUMP JUMPDEST PUSH0 PUSH1 0xFF DUP3 AND SWAP1 POP SWAP2 SWAP1 POP JUMP JUMPDEST PUSH2 0x156C DUP2 PUSH2 0x1557 JUMP JUMPDEST DUP3 MSTORE POP POP JUMP JUMPDEST PUSH0 PUSH1 0x20 DUP3 ADD SWAP1 POP PUSH2 0x1585 PUSH0 DUP4 ADD DUP5 PUSH2 0x1563 JUMP JUMPDEST SWAP3 SWAP2 POP POP JUMP JUMPDEST PUSH2 0x1594 DUP2 PUSH2 0x13D5 JUMP JUMPDEST DUP3 MSTORE POP POP JUMP JUMPDEST PUSH0 PUSH1 0x20 DUP3 ADD SWAP1 POP PUSH2 0x15AD PUSH0 DUP4 ADD DUP5 PUSH2 0x158B JUMP JUMPDEST SWAP3 SWAP2 POP POP JUMP JUMPDEST PUSH0 DUP1 PUSH1 0x40 DUP4 DUP6 SUB SLT ISZERO PUSH2 0x15C9 JUMPI PUSH2 0x15C8 PUSH2 0x13B2 JUMP JUMPDEST JUMPDEST PUSH0 PUSH2 0x15D6 DUP6 DUP3 DUP7 ADD PUSH2 0x13FC JUMP JUMPDEST SWAP3 POP POP PUSH1 0x20 PUSH2 0x15E7 DUP6 DUP3 DUP7 ADD PUSH2 0x13FC JUMP JUMPDEST SWAP2 POP POP SWAP3 POP SWAP3 SWAP1 POP JUMP JUMPDEST PUSH32 0x4E487B7100000000000000000000000000000000000000000000000000000000 PUSH0 MSTORE PUSH1 0x22 PUSH1 0x4 MSTORE PUSH1 0x24 PUSH0 REVERT JUMPDEST PUSH0 PUSH1 0x2 DUP3 DIV SWAP1 POP PUSH1 0x1 DUP3 AND DUP1 PUSH2 0x1635 JUMPI PUSH1 0x7F DUP3 AND SWAP2 POP JUMPDEST PUSH1 0x20 DUP3 LT DUP2 SUB PUSH2 0x1648 JUMPI PUSH2 0x1647 PUSH2 0x15F1 JUMP JUMPDEST JUMPDEST POP SWAP2 SWAP1 POP JUMP JUMPDEST PUSH32 0x43616C6C6572206973206E6F7420617574686F72697A65640000000000000000 PUSH0 DUP3 ADD MSTORE POP JUMP JUMPDEST PUSH0 PUSH2 0x1682 PUSH1 0x18 DUP4 PUSH2 0x132C JUMP JUMPDEST SWAP2 POP PUSH2 0x168D DUP3 PUSH2 0x164E JUMP JUMPDEST PUSH1 0x20 DUP3 ADD SWAP1 POP SWAP2 SWAP1 POP JUMP JUMPDEST PUSH0 PUSH1 0x20 DUP3 ADD SWAP1 POP DUP2 DUP2 SUB PUSH0 DUP4 ADD MSTORE PUSH2 0x16AF DUP2 PUSH2 0x1676 JUMP JUMPDEST SWAP1 POP SWAP2 SWAP1 POP JUMP JUMPDEST PUSH32 0x5472616E7366657220746F20746865207A65726F206164647265737320697320 PUSH0 DUP3 ADD MSTORE PUSH32 0x6E6F7420616C6C6F776564000000000000000000000000000000000000000000 PUSH1 0x20 DUP3 ADD MSTORE POP JUMP JUMPDEST PUSH0 PUSH2 0x1710 PUSH1 0x2B DUP4 PUSH2 0x132C JUMP JUMPDEST SWAP2 POP PUSH2 0x171B DUP3 PUSH2 0x16B6 JUMP JUMPDEST PUSH1 0x40 DUP3 ADD SWAP1 POP SWAP2 SWAP1 POP JUMP JUMPDEST PUSH0 PUSH1 0x20 DUP3 ADD SWAP1 POP DUP2 DUP2 SUB PUSH0 DUP4 ADD MSTORE PUSH2 0x173D DUP2 PUSH2 0x1704 JUMP JUMPDEST SWAP1 POP SWAP2 SWAP1 POP JUMP JUMPDEST PUSH32 0x4E487B7100000000000000000000000000000000000000000000000000000000 PUSH0 MSTORE PUSH1 0x11 PUSH1 0x4 MSTORE PUSH1 0x24 PUSH0 REVERT JUMPDEST PUSH0 PUSH2 0x177B DUP3 PUSH2 0x1410 JUMP JUMPDEST SWAP2 POP PUSH2 0x1786 DUP4 PUSH2 0x1410 JUMP JUMPDEST SWAP3 POP DUP3 DUP3 SUB SWAP1 POP DUP2 DUP2 GT ISZERO PUSH2 0x179E JUMPI PUSH2 0x179D PUSH2 0x1744 JUMP JUMPDEST JUMPDEST SWAP3 SWAP2 POP POP JUMP JUMPDEST PUSH0 PUSH2 0x17AE DUP3 PUSH2 0x1410 JUMP JUMPDEST SWAP2 POP PUSH2 0x17B9 DUP4 PUSH2 0x1410 JUMP JUMPDEST SWAP3 POP DUP3 DUP3 ADD SWAP1 POP DUP1 DUP3 GT ISZERO PUSH2 0x17D1 JUMPI PUSH2 0x17D0 PUSH2 0x1744 JUMP JUMPDEST JUMPDEST SWAP3 SWAP2 POP POP JUMP JUMPDEST PUSH32 0x416D6F756E74206D7573742062652067726561746572207468616E207A65726F PUSH0 DUP3 ADD MSTORE POP JUMP JUMPDEST PUSH0 PUSH2 0x180B PUSH1 0x20 DUP4 PUSH2 0x132C JUMP JUMPDEST SWAP2 POP PUSH2 0x1816 DUP3 PUSH2 0x17D7 JUMP JUMPDEST PUSH1 0x20 DUP3 ADD SWAP1 POP SWAP2 SWAP1 POP JUMP JUMPDEST PUSH0 PUSH1 0x20 DUP3 ADD SWAP1 POP DUP2 DUP2 SUB PUSH0 DUP4 ADD MSTORE PUSH2 0x1838 DUP2 PUSH2 0x17FF JUMP JUMPDEST SWAP1 POP SWAP2 SWAP1 POP JUMP JUMPDEST PUSH32 0x43616C6C657220646F6573206E6F7420686176652073756666696369656E7420 PUSH0 DUP3 ADD MSTORE PUSH32 0x62616C616E636500000000000000000000000000000000000000000000000000 PUSH1 0x20 DUP3 ADD MSTORE POP JUMP JUMPDEST PUSH0 PUSH2 0x1899 PUSH1 0x27 DUP4 PUSH2 0x132C JUMP JUMPDEST SWAP2 POP PUSH2 0x18A4 DUP3 PUSH2 0x183F JUMP JUMPDEST PUSH1 0x40 DUP3 ADD SWAP1 POP SWAP2 SWAP1 POP JUMP JUMPDEST PUSH0 PUSH1 0x20 DUP3 ADD SWAP1 POP DUP2 DUP2 SUB PUSH0 DUP4 ADD MSTORE PUSH2 0x18C6 DUP2 PUSH2 0x188D JUMP JUMPDEST SWAP1 POP SWAP2 SWAP1 POP JUMP INVALID LOG2 PUSH5 0x6970667358 0x22 SLT KECCAK256 LOG3 0x27 KECCAK256 CALLVALUE DUP14 PUSH13 0xBF406AF9E84B53320C4D8C6A6D MCOPY ADDMOD PUSH20 0xED991FCCABD1FD3E68D564736F6C634300081900 CALLER "
				},
				"gasEstimates": {
					"creation": {
						"codeDepositCost": "1280600",
						"executionCost": "infinite",
						"totalCost": "infinite"
					},
					"external": {
						"allowance(address,address)": "infinite",
						"approve(address,uint256)": "infinite",
						"balanceOf(address)": "2847",
						"burn(address,uint256)": "infinite",
						"claimTokenOwnership()": "56542",
						"decimals()": "infinite",
						"maxSupply()": "infinite",
						"mint(address,uint256)": "infinite",
						"name()": "infinite",
						"nextTokenOwner()": "2531",
						"symbol()": "infinite",
						"tokenOwner()": "2530",
						"totalSupply()": "2515",
						"transfer(address,uint256)": "infinite",
						"transferFrom(address,address,uint256)": "infinite",
						"transferTokenOwnership(address)": "32964"
					},
					"internal": {
						"_burn(address,uint256)": "infinite",
						"_mint(address,uint256)": "infinite"
					}
				},
				"methodIdentifiers": {
					"allowance(address,address)": "dd62ed3e",
					"approve(address,uint256)": "095ea7b3",
					"balanceOf(address)": "70a08231",
					"burn(address,uint256)": "9dc29fac",
					"claimTokenOwnership()": "10731a65",
					"decimals()": "313ce567",
					"maxSupply()": "d5abeb01",
					"mint(address,uint256)": "40c10f19",
					"name()": "06fdde03",
					"nextTokenOwner()": "5b833f1e",
					"symbol()": "95d89b41",
					"tokenOwner()": "a3e67610",
					"totalSupply()": "18160ddd",
					"transfer(address,uint256)": "a9059cbb",
					"transferFrom(address,address,uint256)": "23b872dd",
					"transferTokenOwnership(address)": "21e6b53d"
				}
			},
			"storageLayout": {
				"storage": [
					{
						"astId": 6,
						"contract": "src/ERC20.sol:ERC20",
						"label": "name",
						"offset": 0,
						"slot": "0",
						"type": "t_string_storage"
					},
					{
						"astId": 8,
						"contract": "src/ERC20.sol:ERC20",
						"label": "symbol",
						"offset": 0,
						"slot": "1",
						"type": "t_string_storage"
					},
					{
						"astId": 12,
						"contract": "src/ERC20.sol:ERC20",
						"label": "totalSupply",
						"offset": 0,
						"slot": "2",
						"type": "t_uint256"
					},
					{
						"astId": 16,
						"contract": "src/ERC20.sol:ERC20",
						"label": "tokenOwner",
						"offset": 0,
						"slot": "3",
						"type": "t_address"
					},
					{
						"astId": 18,
						"contract": "src/ERC20.sol:ERC20",
						"label": "nextTokenOwner",
						"offset": 0,
						"slot": "4",
						"type": "t_address"
					},
					{
						"astId": 22,
						"contract": "src/ERC20.sol:ERC20",
						"label": "balanceOf",
						"offset": 0,
						"slot": "5",
						"type": "t_mapping(t_address,t_uint256)"
					},
					{
						"astId": 28,
						"contract": "src/ERC20.sol:ERC20",
						"label": "allowance",
						"offset": 0,
						"slot": "6",
						"type": "t_mapping(t_address,t_mapping(t_address,t_uint256))"
					}
				],
				"types": {
					"t_address": {
						"encoding": "inplace",
						"label": "address",
						"numberOfBytes": "20"
					},
					"t_mapping(t_address,t_mapping(t_address,t_uint256))": {
						"encoding": "mapping",
						"key": "t_address",
						"label": "mapping(address => mapping(address => uint256))",
						"numberOfBytes": "32",
						"value": "t_mapping(t_address,t_uint256)"
					},
					"t_mapping(t_address,t_uint256)": {
						"encoding": "mapping",
						"key": "t_address",
						"label": "mapping(address => uint256)",
						"numberOfBytes": "32",
						"value": "t_uint256"
					},
					"t_string_storage": {
						"encoding": "bytes",
						"label": "string",
						"numberOfBytes": "32"
					},
					"t_uint256": {
						"encoding": "inplace",
						"label": "uint256",
						"numberOfBytes": "32"
					}
				}
			},
			"userdoc": {
				"kind": "user",
				"methods": {},
				"version": 1
			}
		}
	}
}