{
	"src/solt.sol": {
		"solt": {
			"abi": [
				{
					"inputs": [],
					"stateMutability": "nonpayable",
					"type": "constructor"
				},
				{
					"anonymous": false,
					"inputs": [
						{
							"indexed": false,
							"internalType": "address",
							"name": "newOwner",
							"type": "address"
						}
					],
					"name": "NewOwnerChosed",
					"type": "event"
				},
				{
					"anonymous": false,
					"inputs": [
						{
							"indexed": false,
							"internalType": "address",
							"name": "newOwner",
							"type": "address"
						}
					],
					"name": "NewOwnerClaimedOwnership",
					"type": "event"
				},
				{
					"anonymous": false,
					"inputs": [
						{
							"indexed": false,
							"internalType": "address",
							"name": "requestor",
							"type": "address"
						},
						{
							"indexed": false,
							"internalType": "uint32",
							"name": "amount",
							"type": "uint32"
						},
						{
							"indexed": false,
							"internalType": "uint32",
							"name": "coinPrice",
							"type": "uint32"
						},
						{
							"indexed": false,
							"internalType": "uint256",
							"name": "time",
							"type": "uint256"
						},
						{
							"indexed": false,
							"internalType": "enum solt.RequestTypes",
							"name": "Type",
							"type": "uint8"
						}
					],
					"name": "PendingRequestOpened",
					"type": "event"
				},
				{
					"anonymous": false,
					"inputs": [
						{
							"indexed": false,
							"internalType": "address",
							"name": "requestor",
							"type": "address"
						},
						{
							"indexed": false,
							"internalType": "uint32",
							"name": "amount",
							"type": "uint32"
						},
						{
							"indexed": false,
							"internalType": "uint32",
							"name": "coinPrice",
							"type": "uint32"
						},
						{
							"indexed": false,
							"internalType": "enum solt.RequestTypes",
							"name": "Type",
							"type": "uint8"
						}
					],
					"name": "RequestAccepted",
					"type": "event"
				},
				{
					"anonymous": false,
					"inputs": [
						{
							"indexed": false,
							"internalType": "address",
							"name": "requestor",
							"type": "address"
						},
						{
							"indexed": false,
							"internalType": "uint32",
							"name": "amount",
							"type": "uint32"
						},
						{
							"indexed": false,
							"internalType": "uint32",
							"name": "coinPrice",
							"type": "uint32"
						},
						{
							"indexed": false,
							"internalType": "uint256",
							"name": "time",
							"type": "uint256"
						},
						{
							"indexed": false,
							"internalType": "enum solt.RequestTypes",
							"name": "Type",
							"type": "uint8"
						}
					],
					"name": "RequestFulfilled",
					"type": "event"
				},
				{
					"anonymous": false,
					"inputs": [
						{
							"indexed": false,
							"internalType": "address",
							"name": "requestor",
							"type": "address"
						},
						{
							"indexed": false,
							"internalType": "uint32",
							"name": "amount",
							"type": "uint32"
						},
						{
							"indexed": false,
							"internalType": "uint32",
							"name": "coinPrice",
							"type": "uint32"
						},
						{
							"indexed": false,
							"internalType": "uint256",
							"name": "time",
							"type": "uint256"
						}
					],
					"name": "RequestPartiallyFulfilled",
					"type": "event"
				},
				{
					"inputs": [],
					"name": "ClaimOwnership",
					"outputs": [],
					"stateMutability": "nonpayable",
					"type": "function"
				},
				{
					"inputs": [
						{
							"internalType": "uint32",
							"name": "amount",
							"type": "uint32"
						},
						{
							"internalType": "uint32",
							"name": "coinPrice",
							"type": "uint32"
						}
					],
					"name": "buyRequest",
					"outputs": [],
					"stateMutability": "payable",
					"type": "function"
				},
				{
					"inputs": [
						{
							"internalType": "uint256",
							"name": "",
							"type": "uint256"
						}
					],
					"name": "buyRequestants",
					"outputs": [
						{
							"internalType": "address",
							"name": "",
							"type": "address"
						}
					],
					"stateMutability": "view",
					"type": "function"
				},
				{
					"inputs": [
						{
							"internalType": "address",
							"name": "newOwner",
							"type": "address"
						}
					],
					"name": "chooseNewOwner",
					"outputs": [],
					"stateMutability": "nonpayable",
					"type": "function"
				},
				{
					"inputs": [
						{
							"internalType": "uint32",
							"name": "amount",
							"type": "uint32"
						},
						{
							"internalType": "uint32",
							"name": "coinPrice",
							"type": "uint32"
						}
					],
					"name": "sellRequest",
					"outputs": [],
					"stateMutability": "nonpayable",
					"type": "function"
				},
				{
					"inputs": [
						{
							"internalType": "uint256",
							"name": "",
							"type": "uint256"
						}
					],
					"name": "sellRequestants",
					"outputs": [
						{
							"internalType": "address",
							"name": "",
							"type": "address"
						}
					],
					"stateMutability": "view",
					"type": "function"
				},
				{
					"inputs": [
						{
							"internalType": "address",
							"name": "reciver",
							"type": "address"
						},
						{
							"internalType": "uint32",
							"name": "amount",
							"type": "uint32"
						}
					],
					"name": "send",
					"outputs": [],
					"stateMutability": "nonpayable",
					"type": "function"
				},
				{
					"inputs": [
						{
							"internalType": "address",
							"name": "",
							"type": "address"
						}
					],
					"name": "users",
					"outputs": [
						{
							"internalType": "uint32",
							"name": "balance",
							"type": "uint32"
						},
						{
							"components": [
								{
									"internalType": "uint32",
									"name": "amount",
									"type": "uint32"
								},
								{
									"internalType": "uint32",
									"name": "coinPrice",
									"type": "uint32"
								},
								{
									"internalType": "uint256",
									"name": "time",
									"type": "uint256"
								},
								{
									"internalType": "enum solt.RequestTypes",
									"name": "Type",
									"type": "uint8"
								}
							],
							"internalType": "struct solt.UserRequest",
							"name": "Request",
							"type": "tuple"
						}
					],
					"stateMutability": "view",
					"type": "function"
				}
			],
			"devdoc": {
				"kind": "dev",
				"methods": {},
				"version": 1
			},
			"evm": {
				"assembly": "    /* \"src/solt.sol\":102:7078  contract solt{... */\n  mstore(0x40, 0x80)\n    /* \"src/solt.sol\":1552:1648  constructor(){... */\n  callvalue\n  dup1\n  iszero\n  tag_1\n  jumpi\n  0x00\n  dup1\n  revert\ntag_1:\n  pop\n    /* \"src/solt.sol\":1583:1593  msg.sender */\n  caller\n    /* \"src/solt.sol\":1575:1580  owner */\n  0x00\n  dup1\n    /* \"src/solt.sol\":1575:1593  owner = msg.sender */\n  0x0100\n  exp\n  dup2\n  sload\n  dup2\n  0xffffffffffffffffffffffffffffffffffffffff\n  mul\n  not\n  and\n  swap1\n  dup4\n  0xffffffffffffffffffffffffffffffffffffffff\n  and\n  mul\n  or\n  swap1\n  sstore\n  pop\n    /* \"src/solt.sol\":192:202  1000000000 */\n  0x3b9aca00\n    /* \"src/solt.sol\":1603:1608  users */\n  0x02\n    /* \"src/solt.sol\":1603:1620  users[msg.sender] */\n  0x00\n    /* \"src/solt.sol\":1609:1619  msg.sender */\n  caller\n    /* \"src/solt.sol\":1603:1620  users[msg.sender] */\n  0xffffffffffffffffffffffffffffffffffffffff\n  and\n  0xffffffffffffffffffffffffffffffffffffffff\n  and\n  dup2\n  mstore\n  0x20\n  add\n  swap1\n  dup2\n  mstore\n  0x20\n  add\n  0x00\n  keccak256\n    /* \"src/solt.sol\":1603:1628  users[msg.sender].balance */\n  0x00\n  add\n  0x00\n    /* \"src/solt.sol\":1603:1641  users[msg.sender].balance = MAX_SUPPLY */\n  0x0100\n  exp\n  dup2\n  sload\n  dup2\n  0xffffffff\n  mul\n  not\n  and\n  swap1\n  dup4\n  0xffffffff\n  and\n  mul\n  or\n  swap1\n  sstore\n  pop\n    /* \"src/solt.sol\":102:7078  contract solt{... */\n  dataSize(sub_0)\n  dup1\n  dataOffset(sub_0)\n  0x00\n  codecopy\n  0x00\n  return\nstop\n\nsub_0: assembly {\n        /* \"src/solt.sol\":102:7078  contract solt{... */\n      mstore(0x40, 0x80)\n      jumpi(tag_1, lt(calldatasize, 0x04))\n      shr(0xe0, calldataload(0x00))\n      dup1\n      0xa87430ba\n      gt\n      tag_10\n      jumpi\n      dup1\n      0xa87430ba\n      eq\n      tag_6\n      jumpi\n      dup1\n      0xc7734ea2\n      eq\n      tag_7\n      jumpi\n      dup1\n      0xf58d0d5c\n      eq\n      tag_8\n      jumpi\n      dup1\n      0xfec0244c\n      eq\n      tag_9\n      jumpi\n      jump(tag_1)\n    tag_10:\n      dup1\n      0x314bdd22\n      eq\n      tag_2\n      jumpi\n      dup1\n      0x552cb86a\n      eq\n      tag_3\n      jumpi\n      dup1\n      0x658f7fb5\n      eq\n      tag_4\n      jumpi\n      dup1\n      0x6da29022\n      eq\n      tag_5\n      jumpi\n    tag_1:\n      0x00\n      dup1\n      revert\n        /* \"src/solt.sol\":5615:5870  function buyRequest(uint32 amount, uint32 coinPrice) public payable noneRequest enoughEther(amount*coinPrice){... */\n    tag_2:\n      tag_11\n      0x04\n      dup1\n      calldatasize\n      sub\n      dup2\n      add\n      swap1\n      tag_12\n      swap2\n      swap1\n      tag_13\n      jump\t// in\n    tag_12:\n      tag_14\n      jump\t// in\n    tag_11:\n      stop\n        /* \"src/solt.sol\":853:884  address[] public buyRequestants */\n    tag_3:\n      callvalue\n      dup1\n      iszero\n      tag_15\n      jumpi\n      0x00\n      dup1\n      revert\n    tag_15:\n      pop\n      tag_16\n      0x04\n      dup1\n      calldatasize\n      sub\n      dup2\n      add\n      swap1\n      tag_17\n      swap2\n      swap1\n      tag_18\n      jump\t// in\n    tag_17:\n      tag_19\n      jump\t// in\n    tag_16:\n      mload(0x40)\n      tag_20\n      swap2\n      swap1\n      tag_21\n      jump\t// in\n    tag_20:\n      mload(0x40)\n      dup1\n      swap2\n      sub\n      swap1\n      return\n        /* \"src/solt.sol\":5365:5610  function sellRequest(uint32 amount, uint32 coinPrice) public noneRequest balaceSufficient(amount){... */\n    tag_4:\n      callvalue\n      dup1\n      iszero\n      tag_22\n      jumpi\n      0x00\n      dup1\n      revert\n    tag_22:\n      pop\n      tag_23\n      0x04\n      dup1\n      calldatasize\n      sub\n      dup2\n      add\n      swap1\n      tag_24\n      swap2\n      swap1\n      tag_13\n      jump\t// in\n    tag_24:\n      tag_25\n      jump\t// in\n    tag_23:\n      stop\n        /* \"src/solt.sol\":815:847  address[] public sellRequestants */\n    tag_5:\n      callvalue\n      dup1\n      iszero\n      tag_26\n      jumpi\n      0x00\n      dup1\n      revert\n    tag_26:\n      pop\n      tag_27\n      0x04\n      dup1\n      calldatasize\n      sub\n      dup2\n      add\n      swap1\n      tag_28\n      swap2\n      swap1\n      tag_18\n      jump\t// in\n    tag_28:\n      tag_29\n      jump\t// in\n    tag_27:\n      mload(0x40)\n      tag_30\n      swap2\n      swap1\n      tag_21\n      jump\t// in\n    tag_30:\n      mload(0x40)\n      dup1\n      swap2\n      sub\n      swap1\n      return\n        /* \"src/solt.sol\":710:747  mapping(address => User) public users */\n    tag_6:\n      callvalue\n      dup1\n      iszero\n      tag_31\n      jumpi\n      0x00\n      dup1\n      revert\n    tag_31:\n      pop\n      tag_32\n      0x04\n      dup1\n      calldatasize\n      sub\n      dup2\n      add\n      swap1\n      tag_33\n      swap2\n      swap1\n      tag_34\n      jump\t// in\n    tag_33:\n      tag_35\n      jump\t// in\n    tag_32:\n      mload(0x40)\n      tag_36\n      swap3\n      swap2\n      swap1\n      tag_37\n      jump\t// in\n    tag_36:\n      mload(0x40)\n      dup1\n      swap2\n      sub\n      swap1\n      return\n        /* \"src/solt.sol\":2936:3161  function send(address reciver, uint32 amount) public balaceSufficient(amount){... */\n    tag_7:\n      callvalue\n      dup1\n      iszero\n      tag_38\n      jumpi\n      0x00\n      dup1\n      revert\n    tag_38:\n      pop\n      tag_39\n      0x04\n      dup1\n      calldatasize\n      sub\n      dup2\n      add\n      swap1\n      tag_40\n      swap2\n      swap1\n      tag_41\n      jump\t// in\n    tag_40:\n      tag_42\n      jump\t// in\n    tag_39:\n      stop\n        /* \"src/solt.sol\":2437:2648  function chooseNewOwner(address newOwner) public allowOnly(owner){... */\n    tag_8:\n      callvalue\n      dup1\n      iszero\n      tag_43\n      jumpi\n      0x00\n      dup1\n      revert\n    tag_43:\n      pop\n      tag_44\n      0x04\n      dup1\n      calldatasize\n      sub\n      dup2\n      add\n      swap1\n      tag_45\n      swap2\n      swap1\n      tag_34\n      jump\t// in\n    tag_45:\n      tag_46\n      jump\t// in\n    tag_44:\n      stop\n        /* \"src/solt.sol\":2724:2890  function  ClaimOwnership() public allowOnly(nextOwner){... */\n    tag_9:\n      callvalue\n      dup1\n      iszero\n      tag_47\n      jumpi\n      0x00\n      dup1\n      revert\n    tag_47:\n      pop\n      tag_48\n      tag_49\n      jump\t// in\n    tag_48:\n      stop\n        /* \"src/solt.sol\":5615:5870  function buyRequest(uint32 amount, uint32 coinPrice) public payable noneRequest enoughEther(amount*coinPrice){... */\n    tag_14:\n        /* \"src/solt.sol\":2340:2357  RequestTypes.NONE */\n      0x00\n        /* \"src/solt.sol\":2306:2357  users[msg.sender].Request.Type == RequestTypes.NONE */\n      0x02\n      dup2\n      gt\n      iszero\n      tag_51\n      jumpi\n      tag_52\n      tag_53\n      jump\t// in\n    tag_52:\n    tag_51:\n        /* \"src/solt.sol\":2306:2311  users */\n      0x02\n        /* \"src/solt.sol\":2306:2323  users[msg.sender] */\n      0x00\n        /* \"src/solt.sol\":2312:2322  msg.sender */\n      caller\n        /* \"src/solt.sol\":2306:2323  users[msg.sender] */\n      0xffffffffffffffffffffffffffffffffffffffff\n      and\n      0xffffffffffffffffffffffffffffffffffffffff\n      and\n      dup2\n      mstore\n      0x20\n      add\n      swap1\n      dup2\n      mstore\n      0x20\n      add\n      0x00\n      keccak256\n        /* \"src/solt.sol\":2306:2331  users[msg.sender].Request */\n      0x01\n      add\n        /* \"src/solt.sol\":2306:2336  users[msg.sender].Request.Type */\n      0x02\n      add\n      0x00\n      swap1\n      sload\n      swap1\n      0x0100\n      exp\n      swap1\n      div\n      0xff\n      and\n        /* \"src/solt.sol\":2306:2357  users[msg.sender].Request.Type == RequestTypes.NONE */\n      0x02\n      dup2\n      gt\n      iszero\n      tag_54\n      jumpi\n      tag_55\n      tag_53\n      jump\t// in\n    tag_55:\n    tag_54:\n      eq\n        /* \"src/solt.sol\":2298:2358  require(users[msg.sender].Request.Type == RequestTypes.NONE) */\n      tag_56\n      jumpi\n      0x00\n      dup1\n      revert\n    tag_56:\n        /* \"src/solt.sol\":5714:5723  coinPrice */\n      dup1\n        /* \"src/solt.sol\":5707:5713  amount */\n      dup3\n        /* \"src/solt.sol\":5707:5723  amount*coinPrice */\n      tag_57\n      swap2\n      swap1\n      tag_58\n      jump\t// in\n    tag_57:\n        /* \"src/solt.sol\":2175:2182  _amount */\n      dup1\n        /* \"src/solt.sol\":2162:2182  msg.value >= _amount */\n      0xffffffff\n      and\n        /* \"src/solt.sol\":2162:2171  msg.value */\n      callvalue\n        /* \"src/solt.sol\":2162:2182  msg.value >= _amount */\n      lt\n      iszero\n        /* \"src/solt.sol\":2154:2183  require(msg.value >= _amount) */\n      tag_60\n      jumpi\n      0x00\n      dup1\n      revert\n    tag_60:\n        /* \"src/solt.sol\":5739:5803  RequestAccepted(msg.sender, amount, coinPrice, RequestTypes.BUY) */\n      0x3b78744e8fc340acfa751485e1450da12d4ebb8e96dd11a7f80eb576b50d5ada\n        /* \"src/solt.sol\":5755:5765  msg.sender */\n      caller\n        /* \"src/solt.sol\":5767:5773  amount */\n      dup5\n        /* \"src/solt.sol\":5775:5784  coinPrice */\n      dup5\n        /* \"src/solt.sol\":5786:5802  RequestTypes.BUY */\n      0x02\n        /* \"src/solt.sol\":5739:5803  RequestAccepted(msg.sender, amount, coinPrice, RequestTypes.BUY) */\n      mload(0x40)\n      tag_62\n      swap5\n      swap4\n      swap3\n      swap2\n      swap1\n      tag_63\n      jump\t// in\n    tag_62:\n      mload(0x40)\n      dup1\n      swap2\n      sub\n      swap1\n      log1\n        /* \"src/solt.sol\":5813:5863  matchRequests(amount, coinPrice, RequestTypes.BUY) */\n      tag_64\n        /* \"src/solt.sol\":5827:5833  amount */\n      dup4\n        /* \"src/solt.sol\":5835:5844  coinPrice */\n      dup4\n        /* \"src/solt.sol\":5846:5862  RequestTypes.BUY */\n      0x02\n        /* \"src/solt.sol\":5813:5826  matchRequests */\n      tag_65\n        /* \"src/solt.sol\":5813:5863  matchRequests(amount, coinPrice, RequestTypes.BUY) */\n      jump\t// in\n    tag_64:\n        /* \"src/solt.sol\":2369:2370  _ */\n      pop\n        /* \"src/solt.sol\":5615:5870  function buyRequest(uint32 amount, uint32 coinPrice) public payable noneRequest enoughEther(amount*coinPrice){... */\n      pop\n      pop\n      jump\t// out\n        /* \"src/solt.sol\":853:884  address[] public buyRequestants */\n    tag_19:\n      0x04\n      dup2\n      dup2\n      sload\n      dup2\n      lt\n      tag_66\n      jumpi\n      0x00\n      dup1\n      revert\n    tag_66:\n      swap1\n      0x00\n      mstore\n      keccak256(0x00, 0x20)\n      add\n      0x00\n      swap2\n      pop\n      sload\n      swap1\n      0x0100\n      exp\n      swap1\n      div\n      0xffffffffffffffffffffffffffffffffffffffff\n      and\n      dup2\n      jump\t// out\n        /* \"src/solt.sol\":5365:5610  function sellRequest(uint32 amount, uint32 coinPrice) public noneRequest balaceSufficient(amount){... */\n    tag_25:\n        /* \"src/solt.sol\":2340:2357  RequestTypes.NONE */\n      0x00\n        /* \"src/solt.sol\":2306:2357  users[msg.sender].Request.Type == RequestTypes.NONE */\n      0x02\n      dup2\n      gt\n      iszero\n      tag_69\n      jumpi\n      tag_70\n      tag_53\n      jump\t// in\n    tag_70:\n    tag_69:\n        /* \"src/solt.sol\":2306:2311  users */\n      0x02\n        /* \"src/solt.sol\":2306:2323  users[msg.sender] */\n      0x00\n        /* \"src/solt.sol\":2312:2322  msg.sender */\n      caller\n        /* \"src/solt.sol\":2306:2323  users[msg.sender] */\n      0xffffffffffffffffffffffffffffffffffffffff\n      and\n      0xffffffffffffffffffffffffffffffffffffffff\n      and\n      dup2\n      mstore\n      0x20\n      add\n      swap1\n      dup2\n      mstore\n      0x20\n      add\n      0x00\n      keccak256\n        /* \"src/solt.sol\":2306:2331  users[msg.sender].Request */\n      0x01\n      add\n        /* \"src/solt.sol\":2306:2336  users[msg.sender].Request.Type */\n      0x02\n      add\n      0x00\n      swap1\n      sload\n      swap1\n      0x0100\n      exp\n      swap1\n      div\n      0xff\n      and\n        /* \"src/solt.sol\":2306:2357  users[msg.sender].Request.Type == RequestTypes.NONE */\n      0x02\n      dup2\n      gt\n      iszero\n      tag_71\n      jumpi\n      tag_72\n      tag_53\n      jump\t// in\n    tag_72:\n    tag_71:\n      eq\n        /* \"src/solt.sol\":2298:2358  require(users[msg.sender].Request.Type == RequestTypes.NONE) */\n      tag_73\n      jumpi\n      0x00\n      dup1\n      revert\n    tag_73:\n        /* \"src/solt.sol\":5455:5461  amount */\n      dup2\n        /* \"src/solt.sol\":2004:2011  _amount */\n      dup1\n        /* \"src/solt.sol\":1975:2011  users[msg.sender].balance >= _amount */\n      0xffffffff\n      and\n        /* \"src/solt.sol\":1975:1980  users */\n      0x02\n        /* \"src/solt.sol\":1975:1992  users[msg.sender] */\n      0x00\n        /* \"src/solt.sol\":1981:1991  msg.sender */\n      caller\n        /* \"src/solt.sol\":1975:1992  users[msg.sender] */\n      0xffffffffffffffffffffffffffffffffffffffff\n      and\n      0xffffffffffffffffffffffffffffffffffffffff\n      and\n      dup2\n      mstore\n      0x20\n      add\n      swap1\n      dup2\n      mstore\n      0x20\n      add\n      0x00\n      keccak256\n        /* \"src/solt.sol\":1975:2000  users[msg.sender].balance */\n      0x00\n      add\n      0x00\n      swap1\n      sload\n      swap1\n      0x0100\n      exp\n      swap1\n      div\n      0xffffffff\n      and\n        /* \"src/solt.sol\":1975:2011  users[msg.sender].balance >= _amount */\n      0xffffffff\n      and\n      lt\n      iszero\n        /* \"src/solt.sol\":1967:2012  require(users[msg.sender].balance >= _amount) */\n      tag_75\n      jumpi\n      0x00\n      dup1\n      revert\n    tag_75:\n        /* \"src/solt.sol\":5477:5542  RequestAccepted(msg.sender, amount, coinPrice, RequestTypes.SELL) */\n      0x3b78744e8fc340acfa751485e1450da12d4ebb8e96dd11a7f80eb576b50d5ada\n        /* \"src/solt.sol\":5493:5503  msg.sender */\n      caller\n        /* \"src/solt.sol\":5505:5511  amount */\n      dup5\n        /* \"src/solt.sol\":5513:5522  coinPrice */\n      dup5\n        /* \"src/solt.sol\":5524:5541  RequestTypes.SELL */\n      0x01\n        /* \"src/solt.sol\":5477:5542  RequestAccepted(msg.sender, amount, coinPrice, RequestTypes.SELL) */\n      mload(0x40)\n      tag_77\n      swap5\n      swap4\n      swap3\n      swap2\n      swap1\n      tag_63\n      jump\t// in\n    tag_77:\n      mload(0x40)\n      dup1\n      swap2\n      sub\n      swap1\n      log1\n        /* \"src/solt.sol\":5552:5603  matchRequests(amount, coinPrice, RequestTypes.SELL) */\n      tag_78\n        /* \"src/solt.sol\":5566:5572  amount */\n      dup4\n        /* \"src/solt.sol\":5574:5583  coinPrice */\n      dup4\n        /* \"src/solt.sol\":5585:5602  RequestTypes.SELL */\n      0x01\n        /* \"src/solt.sol\":5552:5565  matchRequests */\n      tag_65\n        /* \"src/solt.sol\":5552:5603  matchRequests(amount, coinPrice, RequestTypes.SELL) */\n      jump\t// in\n    tag_78:\n        /* \"src/solt.sol\":2369:2370  _ */\n      pop\n        /* \"src/solt.sol\":5365:5610  function sellRequest(uint32 amount, uint32 coinPrice) public noneRequest balaceSufficient(amount){... */\n      pop\n      pop\n      jump\t// out\n        /* \"src/solt.sol\":815:847  address[] public sellRequestants */\n    tag_29:\n      0x03\n      dup2\n      dup2\n      sload\n      dup2\n      lt\n      tag_79\n      jumpi\n      0x00\n      dup1\n      revert\n    tag_79:\n      swap1\n      0x00\n      mstore\n      keccak256(0x00, 0x20)\n      add\n      0x00\n      swap2\n      pop\n      sload\n      swap1\n      0x0100\n      exp\n      swap1\n      div\n      0xffffffffffffffffffffffffffffffffffffffff\n      and\n      dup2\n      jump\t// out\n        /* \"src/solt.sol\":710:747  mapping(address => User) public users */\n    tag_35:\n      mstore(0x20, 0x02)\n      dup1\n      0x00\n      mstore\n      keccak256(0x00, 0x40)\n      0x00\n      swap2\n      pop\n      swap1\n      pop\n      dup1\n      0x00\n      add\n      0x00\n      swap1\n      sload\n      swap1\n      0x0100\n      exp\n      swap1\n      div\n      0xffffffff\n      and\n      swap1\n      dup1\n      0x01\n      add\n      mload(0x40)\n      dup1\n      0x80\n      add\n      0x40\n      mstore\n      swap1\n      dup2\n      0x00\n      dup3\n      add\n      0x00\n      swap1\n      sload\n      swap1\n      0x0100\n      exp\n      swap1\n      div\n      0xffffffff\n      and\n      0xffffffff\n      and\n      0xffffffff\n      and\n      dup2\n      mstore\n      0x20\n      add\n      0x00\n      dup3\n      add\n      0x04\n      swap1\n      sload\n      swap1\n      0x0100\n      exp\n      swap1\n      div\n      0xffffffff\n      and\n      0xffffffff\n      and\n      0xffffffff\n      and\n      dup2\n      mstore\n      0x20\n      add\n      0x01\n      dup3\n      add\n      sload\n      dup2\n      mstore\n      0x20\n      add\n      0x02\n      dup3\n      add\n      0x00\n      swap1\n      sload\n      swap1\n      0x0100\n      exp\n      swap1\n      div\n      0xff\n      and\n      0x02\n      dup2\n      gt\n      iszero\n      tag_81\n      jumpi\n      tag_82\n      tag_53\n      jump\t// in\n    tag_82:\n    tag_81:\n      0x02\n      dup2\n      gt\n      iszero\n      tag_83\n      jumpi\n      tag_84\n      tag_53\n      jump\t// in\n    tag_84:\n    tag_83:\n      dup2\n      mstore\n      pop\n      pop\n      swap1\n      pop\n      dup3\n      jump\t// out\n        /* \"src/solt.sol\":2936:3161  function send(address reciver, uint32 amount) public balaceSufficient(amount){... */\n    tag_42:\n        /* \"src/solt.sol\":3006:3012  amount */\n      dup1\n        /* \"src/solt.sol\":2004:2011  _amount */\n      dup1\n        /* \"src/solt.sol\":1975:2011  users[msg.sender].balance >= _amount */\n      0xffffffff\n      and\n        /* \"src/solt.sol\":1975:1980  users */\n      0x02\n        /* \"src/solt.sol\":1975:1992  users[msg.sender] */\n      0x00\n        /* \"src/solt.sol\":1981:1991  msg.sender */\n      caller\n        /* \"src/solt.sol\":1975:1992  users[msg.sender] */\n      0xffffffffffffffffffffffffffffffffffffffff\n      and\n      0xffffffffffffffffffffffffffffffffffffffff\n      and\n      dup2\n      mstore\n      0x20\n      add\n      swap1\n      dup2\n      mstore\n      0x20\n      add\n      0x00\n      keccak256\n        /* \"src/solt.sol\":1975:2000  users[msg.sender].balance */\n      0x00\n      add\n      0x00\n      swap1\n      sload\n      swap1\n      0x0100\n      exp\n      swap1\n      div\n      0xffffffff\n      and\n        /* \"src/solt.sol\":1975:2011  users[msg.sender].balance >= _amount */\n      0xffffffff\n      and\n      lt\n      iszero\n        /* \"src/solt.sol\":1967:2012  require(users[msg.sender].balance >= _amount) */\n      tag_86\n      jumpi\n      0x00\n      dup1\n      revert\n    tag_86:\n        /* \"src/solt.sol\":3052:3058  amount */\n      dup2\n        /* \"src/solt.sol\":3023:3028  users */\n      0x02\n        /* \"src/solt.sol\":3023:3040  users[msg.sender] */\n      0x00\n        /* \"src/solt.sol\":3029:3039  msg.sender */\n      caller\n        /* \"src/solt.sol\":3023:3040  users[msg.sender] */\n      0xffffffffffffffffffffffffffffffffffffffff\n      and\n      0xffffffffffffffffffffffffffffffffffffffff\n      and\n      dup2\n      mstore\n      0x20\n      add\n      swap1\n      dup2\n      mstore\n      0x20\n      add\n      0x00\n      keccak256\n        /* \"src/solt.sol\":3023:3048  users[msg.sender].balance */\n      0x00\n      add\n      0x00\n        /* \"src/solt.sol\":3023:3058  users[msg.sender].balance -= amount */\n      dup3\n      dup3\n      dup3\n      swap1\n      sload\n      swap1\n      0x0100\n      exp\n      swap1\n      div\n      0xffffffff\n      and\n      tag_88\n      swap2\n      swap1\n      tag_89\n      jump\t// in\n    tag_88:\n      swap3\n      pop\n      0x0100\n      exp\n      dup2\n      sload\n      dup2\n      0xffffffff\n      mul\n      not\n      and\n      swap1\n      dup4\n      0xffffffff\n      and\n      mul\n      or\n      swap1\n      sstore\n      pop\n        /* \"src/solt.sol\":3094:3100  amount */\n      dup2\n        /* \"src/solt.sol\":3068:3073  users */\n      0x02\n        /* \"src/solt.sol\":3068:3082  users[reciver] */\n      0x00\n        /* \"src/solt.sol\":3074:3081  reciver */\n      dup6\n        /* \"src/solt.sol\":3068:3082  users[reciver] */\n      0xffffffffffffffffffffffffffffffffffffffff\n      and\n      0xffffffffffffffffffffffffffffffffffffffff\n      and\n      dup2\n      mstore\n      0x20\n      add\n      swap1\n      dup2\n      mstore\n      0x20\n      add\n      0x00\n      keccak256\n        /* \"src/solt.sol\":3068:3090  users[reciver].balance */\n      0x00\n      add\n      0x00\n        /* \"src/solt.sol\":3068:3100  users[reciver].balance += amount */\n      dup3\n      dup3\n      dup3\n      swap1\n      sload\n      swap1\n      0x0100\n      exp\n      swap1\n      div\n      0xffffffff\n      and\n      tag_90\n      swap2\n      swap1\n      tag_91\n      jump\t// in\n    tag_90:\n      swap3\n      pop\n      0x0100\n      exp\n      dup2\n      sload\n      dup2\n      0xffffffff\n      mul\n      not\n      and\n      swap1\n      dup4\n      0xffffffff\n      and\n      mul\n      or\n      swap1\n      sstore\n      pop\n        /* \"src/solt.sol\":192:202  1000000000 */\n      0x3b9aca00\n        /* \"src/solt.sol\":3117:3153  users[reciver].balance <= MAX_SUPPLY */\n      0xffffffff\n      and\n        /* \"src/solt.sol\":3117:3122  users */\n      0x02\n        /* \"src/solt.sol\":3117:3131  users[reciver] */\n      0x00\n        /* \"src/solt.sol\":3123:3130  reciver */\n      dup6\n        /* \"src/solt.sol\":3117:3131  users[reciver] */\n      0xffffffffffffffffffffffffffffffffffffffff\n      and\n      0xffffffffffffffffffffffffffffffffffffffff\n      and\n      dup2\n      mstore\n      0x20\n      add\n      swap1\n      dup2\n      mstore\n      0x20\n      add\n      0x00\n      keccak256\n        /* \"src/solt.sol\":3117:3139  users[reciver].balance */\n      0x00\n      add\n      0x00\n      swap1\n      sload\n      swap1\n      0x0100\n      exp\n      swap1\n      div\n      0xffffffff\n      and\n        /* \"src/solt.sol\":3117:3153  users[reciver].balance <= MAX_SUPPLY */\n      0xffffffff\n      and\n      gt\n      iszero\n        /* \"src/solt.sol\":3110:3154  assert(users[reciver].balance <= MAX_SUPPLY) */\n      tag_92\n      jumpi\n      tag_93\n      tag_94\n      jump\t// in\n    tag_93:\n    tag_92:\n        /* \"src/solt.sol\":2936:3161  function send(address reciver, uint32 amount) public balaceSufficient(amount){... */\n      pop\n      pop\n      pop\n      jump\t// out\n        /* \"src/solt.sol\":2437:2648  function chooseNewOwner(address newOwner) public allowOnly(owner){... */\n    tag_46:\n        /* \"src/solt.sol\":2496:2501  owner */\n      0x00\n      dup1\n      sload\n      swap1\n      0x0100\n      exp\n      swap1\n      div\n      0xffffffffffffffffffffffffffffffffffffffff\n      and\n        /* \"src/solt.sol\":1791:1802  _authorized */\n      dup1\n        /* \"src/solt.sol\":1777:1802  msg.sender == _authorized */\n      0xffffffffffffffffffffffffffffffffffffffff\n      and\n        /* \"src/solt.sol\":1777:1787  msg.sender */\n      caller\n        /* \"src/solt.sol\":1777:1802  msg.sender == _authorized */\n      0xffffffffffffffffffffffffffffffffffffffff\n      and\n      eq\n        /* \"src/solt.sol\":1769:1831  require(msg.sender == _authorized, \"Caller is not authorized\") */\n      tag_96\n      jumpi\n      mload(0x40)\n      0x08c379a000000000000000000000000000000000000000000000000000000000\n      dup2\n      mstore\n      0x04\n      add\n      tag_97\n      swap1\n      tag_98\n      jump\t// in\n    tag_97:\n      mload(0x40)\n      dup1\n      swap2\n      sub\n      swap1\n      revert\n    tag_96:\n        /* \"src/solt.sol\":2540:2541  0 */\n      0x00\n        /* \"src/solt.sol\":2520:2542  newOwner != address(0) */\n      0xffffffffffffffffffffffffffffffffffffffff\n      and\n        /* \"src/solt.sol\":2520:2528  newOwner */\n      dup3\n        /* \"src/solt.sol\":2520:2542  newOwner != address(0) */\n      0xffffffffffffffffffffffffffffffffffffffff\n      and\n      sub\n        /* \"src/solt.sol\":2512:2572  require(newOwner != address(0), \"Invalid new owner address\") */\n      tag_100\n      jumpi\n      mload(0x40)\n      0x08c379a000000000000000000000000000000000000000000000000000000000\n      dup2\n      mstore\n      0x04\n      add\n      tag_101\n      swap1\n      tag_102\n      jump\t// in\n    tag_101:\n      mload(0x40)\n      dup1\n      swap2\n      sub\n      swap1\n      revert\n    tag_100:\n        /* \"src/solt.sol\":2594:2602  newOwner */\n      dup2\n        /* \"src/solt.sol\":2582:2591  nextOwner */\n      0x01\n      0x00\n        /* \"src/solt.sol\":2582:2602  nextOwner = newOwner */\n      0x0100\n      exp\n      dup2\n      sload\n      dup2\n      0xffffffffffffffffffffffffffffffffffffffff\n      mul\n      not\n      and\n      swap1\n      dup4\n      0xffffffffffffffffffffffffffffffffffffffff\n      and\n      mul\n      or\n      swap1\n      sstore\n      pop\n        /* \"src/solt.sol\":2617:2641  NewOwnerChosed(newOwner) */\n      0x19832a487a6f78515e372937599b1b1b2ebbe5fc5c97df815263c40940ae8637\n        /* \"src/solt.sol\":2632:2640  newOwner */\n      dup3\n        /* \"src/solt.sol\":2617:2641  NewOwnerChosed(newOwner) */\n      mload(0x40)\n      tag_103\n      swap2\n      swap1\n      tag_21\n      jump\t// in\n    tag_103:\n      mload(0x40)\n      dup1\n      swap2\n      sub\n      swap1\n      log1\n        /* \"src/solt.sol\":2437:2648  function chooseNewOwner(address newOwner) public allowOnly(owner){... */\n      pop\n      pop\n      jump\t// out\n        /* \"src/solt.sol\":2724:2890  function  ClaimOwnership() public allowOnly(nextOwner){... */\n    tag_49:\n        /* \"src/solt.sol\":2768:2777  nextOwner */\n      0x01\n      0x00\n      swap1\n      sload\n      swap1\n      0x0100\n      exp\n      swap1\n      div\n      0xffffffffffffffffffffffffffffffffffffffff\n      and\n        /* \"src/solt.sol\":1791:1802  _authorized */\n      dup1\n        /* \"src/solt.sol\":1777:1802  msg.sender == _authorized */\n      0xffffffffffffffffffffffffffffffffffffffff\n      and\n        /* \"src/solt.sol\":1777:1787  msg.sender */\n      caller\n        /* \"src/solt.sol\":1777:1802  msg.sender == _authorized */\n      0xffffffffffffffffffffffffffffffffffffffff\n      and\n      eq\n        /* \"src/solt.sol\":1769:1831  require(msg.sender == _authorized, \"Caller is not authorized\") */\n      tag_105\n      jumpi\n      mload(0x40)\n      0x08c379a000000000000000000000000000000000000000000000000000000000\n      dup2\n      mstore\n      0x04\n      add\n      tag_106\n      swap1\n      tag_98\n      jump\t// in\n    tag_106:\n      mload(0x40)\n      dup1\n      swap2\n      sub\n      swap1\n      revert\n    tag_105:\n        /* \"src/solt.sol\":2796:2805  nextOwner */\n      0x01\n      0x00\n      swap1\n      sload\n      swap1\n      0x0100\n      exp\n      swap1\n      div\n      0xffffffffffffffffffffffffffffffffffffffff\n      and\n        /* \"src/solt.sol\":2788:2793  owner */\n      0x00\n      dup1\n        /* \"src/solt.sol\":2788:2805  owner = nextOwner */\n      0x0100\n      exp\n      dup2\n      sload\n      dup2\n      0xffffffffffffffffffffffffffffffffffffffff\n      mul\n      not\n      and\n      swap1\n      dup4\n      0xffffffffffffffffffffffffffffffffffffffff\n      and\n      mul\n      or\n      swap1\n      sstore\n      pop\n        /* \"src/solt.sol\":2835:2836  0 */\n      0x00\n        /* \"src/solt.sol\":2815:2824  nextOwner */\n      0x01\n      0x00\n        /* \"src/solt.sol\":2815:2837  nextOwner = address(0) */\n      0x0100\n      exp\n      dup2\n      sload\n      dup2\n      0xffffffffffffffffffffffffffffffffffffffff\n      mul\n      not\n      and\n      swap1\n      dup4\n      0xffffffffffffffffffffffffffffffffffffffff\n      and\n      mul\n      or\n      swap1\n      sstore\n      pop\n        /* \"src/solt.sol\":2852:2883  NewOwnerClaimedOwnership(owner) */\n      0xd6f3f732383b13921aa3ee045d9a478451f38cd1f6c38e26de5ea6ddc8e1d96d\n        /* \"src/solt.sol\":2877:2882  owner */\n      0x00\n      dup1\n      sload\n      swap1\n      0x0100\n      exp\n      swap1\n      div\n      0xffffffffffffffffffffffffffffffffffffffff\n      and\n        /* \"src/solt.sol\":2852:2883  NewOwnerClaimedOwnership(owner) */\n      mload(0x40)\n      tag_108\n      swap2\n      swap1\n      tag_21\n      jump\t// in\n    tag_108:\n      mload(0x40)\n      dup1\n      swap2\n      sub\n      swap1\n      log1\n        /* \"src/solt.sol\":2724:2890  function  ClaimOwnership() public allowOnly(nextOwner){... */\n      pop\n      jump\t// out\n        /* \"src/solt.sol\":3505:4386  function matchRequests(uint32 amount, uint32 coinPrice, RequestTypes TYPE) private{... */\n    tag_65:\n        /* \"src/solt.sol\":3630:3634  TYPE */\n      dup1\n        /* \"src/solt.sol\":3597:3602  users */\n      0x02\n        /* \"src/solt.sol\":3597:3614  users[msg.sender] */\n      0x00\n        /* \"src/solt.sol\":3603:3613  msg.sender */\n      caller\n        /* \"src/solt.sol\":3597:3614  users[msg.sender] */\n      0xffffffffffffffffffffffffffffffffffffffff\n      and\n      0xffffffffffffffffffffffffffffffffffffffff\n      and\n      dup2\n      mstore\n      0x20\n      add\n      swap1\n      dup2\n      mstore\n      0x20\n      add\n      0x00\n      keccak256\n        /* \"src/solt.sol\":3597:3622  users[msg.sender].Request */\n      0x01\n      add\n        /* \"src/solt.sol\":3597:3627  users[msg.sender].Request.Type */\n      0x02\n      add\n      0x00\n        /* \"src/solt.sol\":3597:3634  users[msg.sender].Request.Type = TYPE */\n      0x0100\n      exp\n      dup2\n      sload\n      dup2\n      0xff\n      mul\n      not\n      and\n      swap1\n      dup4\n      0x02\n      dup2\n      gt\n      iszero\n      tag_110\n      jumpi\n      tag_111\n      tag_53\n      jump\t// in\n    tag_111:\n    tag_110:\n      mul\n      or\n      swap1\n      sstore\n      pop\n        /* \"src/solt.sol\":3644:3673  address[] storage requestants */\n      0x00\n        /* \"src/solt.sol\":3683:3700  RequestTypes.SELL */\n      0x01\n        /* \"src/solt.sol\":3677:3700  TYPE==RequestTypes.SELL */\n      0x02\n      dup2\n      gt\n      iszero\n      tag_112\n      jumpi\n      tag_113\n      tag_53\n      jump\t// in\n    tag_113:\n    tag_112:\n        /* \"src/solt.sol\":3677:3681  TYPE */\n      dup3\n        /* \"src/solt.sol\":3677:3700  TYPE==RequestTypes.SELL */\n      0x02\n      dup2\n      gt\n      iszero\n      tag_114\n      jumpi\n      tag_115\n      tag_53\n      jump\t// in\n    tag_115:\n    tag_114:\n      eq\n        /* \"src/solt.sol\":3677:3735  TYPE==RequestTypes.SELL ? buyRequestants : sellRequestants */\n      tag_116\n      jumpi\n        /* \"src/solt.sol\":3720:3735  sellRequestants */\n      0x03\n        /* \"src/solt.sol\":3677:3735  TYPE==RequestTypes.SELL ? buyRequestants : sellRequestants */\n      jump(tag_117)\n    tag_116:\n        /* \"src/solt.sol\":3703:3717  buyRequestants */\n      0x04\n        /* \"src/solt.sol\":3677:3735  TYPE==RequestTypes.SELL ? buyRequestants : sellRequestants */\n    tag_117:\n        /* \"src/solt.sol\":3644:3736  address[] storage requestants = (TYPE==RequestTypes.SELL ? buyRequestants : sellRequestants) */\n      swap1\n      pop\n        /* \"src/solt.sol\":3746:3763  uint32 amountLeft */\n      0x00\n        /* \"src/solt.sol\":3766:3772  amount */\n      dup5\n        /* \"src/solt.sol\":3746:3772  uint32 amountLeft = amount */\n      swap1\n      pop\n        /* \"src/solt.sol\":3787:3796  uint256 i */\n      0x00\n        /* \"src/solt.sol\":3799:3810  requestants */\n      dup3\n        /* \"src/solt.sol\":3799:3817  requestants.length */\n      dup1\n      sload\n      swap1\n      pop\n        /* \"src/solt.sol\":3787:3817  uint256 i = requestants.length */\n      swap1\n      pop\n        /* \"src/solt.sol\":3782:4104  for (uint256 i = requestants.length; i > 0; i--) {... */\n    tag_118:\n        /* \"src/solt.sol\":3823:3824  0 */\n      0x00\n        /* \"src/solt.sol\":3819:3820  i */\n      dup2\n        /* \"src/solt.sol\":3819:3824  i > 0 */\n      gt\n        /* \"src/solt.sol\":3782:4104  for (uint256 i = requestants.length; i > 0; i--) {... */\n      iszero\n      tag_119\n      jumpi\n        /* \"src/solt.sol\":3845:3872  UserRequest storage Request */\n      0x00\n        /* \"src/solt.sol\":3875:3880  users */\n      0x02\n        /* \"src/solt.sol\":3875:3898  users[requestants[i-1]] */\n      0x00\n        /* \"src/solt.sol\":3881:3892  requestants */\n      dup6\n        /* \"src/solt.sol\":3895:3896  1 */\n      0x01\n        /* \"src/solt.sol\":3893:3894  i */\n      dup6\n        /* \"src/solt.sol\":3893:3896  i-1 */\n      tag_121\n      swap2\n      swap1\n      tag_122\n      jump\t// in\n    tag_121:\n        /* \"src/solt.sol\":3881:3897  requestants[i-1] */\n      dup2\n      sload\n      dup2\n      lt\n      tag_123\n      jumpi\n      tag_124\n      tag_125\n      jump\t// in\n    tag_124:\n    tag_123:\n      swap1\n      0x00\n      mstore\n      keccak256(0x00, 0x20)\n      add\n      0x00\n      swap1\n      sload\n      swap1\n      0x0100\n      exp\n      swap1\n      div\n      0xffffffffffffffffffffffffffffffffffffffff\n      and\n        /* \"src/solt.sol\":3875:3898  users[requestants[i-1]] */\n      0xffffffffffffffffffffffffffffffffffffffff\n      and\n      0xffffffffffffffffffffffffffffffffffffffff\n      and\n      dup2\n      mstore\n      0x20\n      add\n      swap1\n      dup2\n      mstore\n      0x20\n      add\n      0x00\n      keccak256\n        /* \"src/solt.sol\":3875:3906  users[requestants[i-1]].Request */\n      0x01\n      add\n        /* \"src/solt.sol\":3845:3906  UserRequest storage Request = users[requestants[i-1]].Request */\n      swap1\n      pop\n        /* \"src/solt.sol\":3945:3954  coinPrice */\n      dup6\n        /* \"src/solt.sol\":3924:3954  Request.coinPrice >= coinPrice */\n      0xffffffff\n      and\n        /* \"src/solt.sol\":3924:3931  Request */\n      dup2\n        /* \"src/solt.sol\":3924:3941  Request.coinPrice */\n      0x00\n      add\n      0x04\n      swap1\n      sload\n      swap1\n      0x0100\n      exp\n      swap1\n      div\n      0xffffffff\n      and\n        /* \"src/solt.sol\":3924:3954  Request.coinPrice >= coinPrice */\n      0xffffffff\n      and\n      lt\n        /* \"src/solt.sol\":3920:4094  if (Request.coinPrice >= coinPrice) {... */\n      tag_127\n      jumpi\n        /* \"src/solt.sol\":3987:4043  executeRequests(requestants[i-1], amountLeft, TYPE, i-1) */\n      tag_128\n        /* \"src/solt.sol\":4003:4014  requestants */\n      dup5\n        /* \"src/solt.sol\":4017:4018  1 */\n      0x01\n        /* \"src/solt.sol\":4015:4016  i */\n      dup5\n        /* \"src/solt.sol\":4015:4018  i-1 */\n      tag_129\n      swap2\n      swap1\n      tag_122\n      jump\t// in\n    tag_129:\n        /* \"src/solt.sol\":4003:4019  requestants[i-1] */\n      dup2\n      sload\n      dup2\n      lt\n      tag_130\n      jumpi\n      tag_131\n      tag_125\n      jump\t// in\n    tag_131:\n    tag_130:\n      swap1\n      0x00\n      mstore\n      keccak256(0x00, 0x20)\n      add\n      0x00\n      swap1\n      sload\n      swap1\n      0x0100\n      exp\n      swap1\n      div\n      0xffffffffffffffffffffffffffffffffffffffff\n      and\n        /* \"src/solt.sol\":4021:4031  amountLeft */\n      dup5\n        /* \"src/solt.sol\":4033:4037  TYPE */\n      dup8\n        /* \"src/solt.sol\":4041:4042  1 */\n      0x01\n        /* \"src/solt.sol\":4039:4040  i */\n      dup7\n        /* \"src/solt.sol\":4039:4042  i-1 */\n      tag_133\n      swap2\n      swap1\n      tag_122\n      jump\t// in\n    tag_133:\n        /* \"src/solt.sol\":3987:4002  executeRequests */\n      tag_134\n        /* \"src/solt.sol\":3987:4043  executeRequests(requestants[i-1], amountLeft, TYPE, i-1) */\n      jump\t// in\n    tag_128:\n        /* \"src/solt.sol\":3974:4043  amountLeft = executeRequests(requestants[i-1], amountLeft, TYPE, i-1) */\n      swap3\n      pop\n        /* \"src/solt.sol\":4075:4076  0 */\n      0x00\n        /* \"src/solt.sol\":4061:4071  amountLeft */\n      dup4\n        /* \"src/solt.sol\":4061:4076  amountLeft == 0 */\n      0xffffffff\n      and\n      sub\n        /* \"src/solt.sol\":4057:4083  if (amountLeft == 0) break */\n      tag_135\n      jumpi\n        /* \"src/solt.sol\":4078:4083  break */\n      pop\n      jump(tag_119)\n        /* \"src/solt.sol\":4057:4083  if (amountLeft == 0) break */\n    tag_135:\n        /* \"src/solt.sol\":3920:4094  if (Request.coinPrice >= coinPrice) {... */\n    tag_127:\n        /* \"src/solt.sol\":3831:4104  {... */\n      pop\n        /* \"src/solt.sol\":3826:3829  i-- */\n      dup1\n      dup1\n      tag_136\n      swap1\n      tag_137\n      jump\t// in\n    tag_136:\n      swap2\n      pop\n      pop\n        /* \"src/solt.sol\":3782:4104  for (uint256 i = requestants.length; i > 0; i--) {... */\n      jump(tag_118)\n    tag_119:\n      pop\n        /* \"src/solt.sol\":4129:4130  0 */\n      0x00\n        /* \"src/solt.sol\":4116:4126  amountLeft */\n      dup2\n        /* \"src/solt.sol\":4116:4130  amountLeft > 0 */\n      0xffffffff\n      and\n      gt\n        /* \"src/solt.sol\":4113:4380  if(amountLeft > 0){... */\n      iszero\n      tag_138\n      jumpi\n        /* \"src/solt.sol\":4150:4234  RequestPartiallyFulfilled(msg.sender, amount-amountLeft, coinPrice, block.timestamp) */\n      0x978d903908ccbac73ce4df3b8f236d59f6381df28e270c303112ad091add2fd8\n        /* \"src/solt.sol\":4176:4186  msg.sender */\n      caller\n        /* \"src/solt.sol\":4195:4205  amountLeft */\n      dup3\n        /* \"src/solt.sol\":4188:4194  amount */\n      dup8\n        /* \"src/solt.sol\":4188:4205  amount-amountLeft */\n      tag_139\n      swap2\n      swap1\n      tag_89\n      jump\t// in\n    tag_139:\n        /* \"src/solt.sol\":4207:4216  coinPrice */\n      dup7\n        /* \"src/solt.sol\":4218:4233  block.timestamp */\n      timestamp\n        /* \"src/solt.sol\":4150:4234  RequestPartiallyFulfilled(msg.sender, amount-amountLeft, coinPrice, block.timestamp) */\n      mload(0x40)\n      tag_140\n      swap5\n      swap4\n      swap3\n      swap2\n      swap1\n      tag_141\n      jump\t// in\n    tag_140:\n      mload(0x40)\n      dup1\n      swap2\n      sub\n      swap1\n      log1\n        /* \"src/solt.sol\":4248:4287  addRequest(amountLeft, coinPrice, TYPE) */\n      tag_142\n        /* \"src/solt.sol\":4259:4269  amountLeft */\n      dup2\n        /* \"src/solt.sol\":4271:4280  coinPrice */\n      dup6\n        /* \"src/solt.sol\":4282:4286  TYPE */\n      dup6\n        /* \"src/solt.sol\":4248:4258  addRequest */\n      tag_143\n        /* \"src/solt.sol\":4248:4287  addRequest(amountLeft, coinPrice, TYPE) */\n      jump\t// in\n    tag_142:\n        /* \"src/solt.sol\":4113:4380  if(amountLeft > 0){... */\n      jump(tag_144)\n    tag_138:\n        /* \"src/solt.sol\":4349:4366  RequestTypes.NONE */\n      0x00\n        /* \"src/solt.sol\":4316:4321  users */\n      0x02\n        /* \"src/solt.sol\":4316:4333  users[msg.sender] */\n      0x00\n        /* \"src/solt.sol\":4322:4332  msg.sender */\n      caller\n        /* \"src/solt.sol\":4316:4333  users[msg.sender] */\n      0xffffffffffffffffffffffffffffffffffffffff\n      and\n      0xffffffffffffffffffffffffffffffffffffffff\n      and\n      dup2\n      mstore\n      0x20\n      add\n      swap1\n      dup2\n      mstore\n      0x20\n      add\n      0x00\n      keccak256\n        /* \"src/solt.sol\":4316:4341  users[msg.sender].Request */\n      0x01\n      add\n        /* \"src/solt.sol\":4316:4346  users[msg.sender].Request.Type */\n      0x02\n      add\n      0x00\n        /* \"src/solt.sol\":4316:4366  users[msg.sender].Request.Type = RequestTypes.NONE */\n      0x0100\n      exp\n      dup2\n      sload\n      dup2\n      0xff\n      mul\n      not\n      and\n      swap1\n      dup4\n      0x02\n      dup2\n      gt\n      iszero\n      tag_145\n      jumpi\n      tag_146\n      tag_53\n      jump\t// in\n    tag_146:\n    tag_145:\n      mul\n      or\n      swap1\n      sstore\n      pop\n        /* \"src/solt.sol\":4113:4380  if(amountLeft > 0){... */\n    tag_144:\n        /* \"src/solt.sol\":3587:4386  {... */\n      pop\n      pop\n        /* \"src/solt.sol\":3505:4386  function matchRequests(uint32 amount, uint32 coinPrice, RequestTypes TYPE) private{... */\n      pop\n      pop\n      pop\n      jump\t// out\n        /* \"src/solt.sol\":4439:5304  function executeRequests(address counterparty, uint32 amount, RequestTypes TYPE, uint256 requestIndex) private returns(uint32){... */\n    tag_134:\n        /* \"src/solt.sol\":4558:4564  uint32 */\n      0x00\n        /* \"src/solt.sol\":4575:4602  UserRequest storage Request */\n      dup1\n        /* \"src/solt.sol\":4605:4610  users */\n      0x02\n        /* \"src/solt.sol\":4605:4624  users[counterparty] */\n      0x00\n        /* \"src/solt.sol\":4611:4623  counterparty */\n      dup8\n        /* \"src/solt.sol\":4605:4624  users[counterparty] */\n      0xffffffffffffffffffffffffffffffffffffffff\n      and\n      0xffffffffffffffffffffffffffffffffffffffff\n      and\n      dup2\n      mstore\n      0x20\n      add\n      swap1\n      dup2\n      mstore\n      0x20\n      add\n      0x00\n      keccak256\n        /* \"src/solt.sol\":4605:4632  users[counterparty].Request */\n      0x01\n      add\n        /* \"src/solt.sol\":4575:4632  UserRequest storage Request = users[counterparty].Request */\n      swap1\n      pop\n        /* \"src/solt.sol\":4642:4660  uint32 tradeAmount */\n      0x00\n        /* \"src/solt.sol\":4672:4679  Request */\n      dup2\n        /* \"src/solt.sol\":4672:4686  Request.amount */\n      0x00\n      add\n      0x00\n      swap1\n      sload\n      swap1\n      0x0100\n      exp\n      swap1\n      div\n      0xffffffff\n      and\n        /* \"src/solt.sol\":4663:4686  amount < Request.amount */\n      0xffffffff\n      and\n        /* \"src/solt.sol\":4663:4669  amount */\n      dup7\n        /* \"src/solt.sol\":4663:4686  amount < Request.amount */\n      0xffffffff\n      and\n      lt\n        /* \"src/solt.sol\":4663:4712  amount < Request.amount ? amount : Request.amount */\n      tag_148\n      jumpi\n        /* \"src/solt.sol\":4698:4705  Request */\n      dup2\n        /* \"src/solt.sol\":4698:4712  Request.amount */\n      0x00\n      add\n      0x00\n      swap1\n      sload\n      swap1\n      0x0100\n      exp\n      swap1\n      div\n      0xffffffff\n      and\n        /* \"src/solt.sol\":4663:4712  amount < Request.amount ? amount : Request.amount */\n      jump(tag_149)\n    tag_148:\n        /* \"src/solt.sol\":4689:4695  amount */\n      dup6\n        /* \"src/solt.sol\":4663:4712  amount < Request.amount ? amount : Request.amount */\n    tag_149:\n        /* \"src/solt.sol\":4642:4712  uint32 tradeAmount = amount < Request.amount ? amount : Request.amount */\n      swap1\n      pop\n        /* \"src/solt.sol\":4734:4751  RequestTypes.SELL */\n      0x01\n        /* \"src/solt.sol\":4726:4751  TYPE == RequestTypes.SELL */\n      0x02\n      dup2\n      gt\n      iszero\n      tag_150\n      jumpi\n      tag_151\n      tag_53\n      jump\t// in\n    tag_151:\n    tag_150:\n        /* \"src/solt.sol\":4726:4730  TYPE */\n      dup6\n        /* \"src/solt.sol\":4726:4751  TYPE == RequestTypes.SELL */\n      0x02\n      dup2\n      gt\n      iszero\n      tag_152\n      jumpi\n      tag_153\n      tag_53\n      jump\t// in\n    tag_153:\n    tag_152:\n      sub\n        /* \"src/solt.sol\":4722:5152  if (TYPE == RequestTypes.SELL) {... */\n      tag_154\n      jumpi\n        /* \"src/solt.sol\":4767:4827  sendEther(payable(msg.sender),tradeAmount*Request.coinPrice) */\n      tag_155\n        /* \"src/solt.sol\":4785:4795  msg.sender */\n      caller\n        /* \"src/solt.sol\":4809:4816  Request */\n      dup4\n        /* \"src/solt.sol\":4809:4826  Request.coinPrice */\n      0x00\n      add\n      0x04\n      swap1\n      sload\n      swap1\n      0x0100\n      exp\n      swap1\n      div\n      0xffffffff\n      and\n        /* \"src/solt.sol\":4797:4808  tradeAmount */\n      dup4\n        /* \"src/solt.sol\":4797:4826  tradeAmount*Request.coinPrice */\n      tag_156\n      swap2\n      swap1\n      tag_58\n      jump\t// in\n    tag_156:\n        /* \"src/solt.sol\":4767:4776  sendEther */\n      tag_157\n        /* \"src/solt.sol\":4767:4827  sendEther(payable(msg.sender),tradeAmount*Request.coinPrice) */\n      jump\t// in\n    tag_155:\n        /* \"src/solt.sol\":4870:4881  tradeAmount */\n      dup1\n        /* \"src/solt.sol\":4841:4846  users */\n      0x02\n        /* \"src/solt.sol\":4841:4858  users[msg.sender] */\n      0x00\n        /* \"src/solt.sol\":4847:4857  msg.sender */\n      caller\n        /* \"src/solt.sol\":4841:4858  users[msg.sender] */\n      0xffffffffffffffffffffffffffffffffffffffff\n      and\n      0xffffffffffffffffffffffffffffffffffffffff\n      and\n      dup2\n      mstore\n      0x20\n      add\n      swap1\n      dup2\n      mstore\n      0x20\n      add\n      0x00\n      keccak256\n        /* \"src/solt.sol\":4841:4866  users[msg.sender].balance */\n      0x00\n      add\n      0x00\n        /* \"src/solt.sol\":4841:4881  users[msg.sender].balance -= tradeAmount */\n      dup3\n      dup3\n      dup3\n      swap1\n      sload\n      swap1\n      0x0100\n      exp\n      swap1\n      div\n      0xffffffff\n      and\n      tag_158\n      swap2\n      swap1\n      tag_89\n      jump\t// in\n    tag_158:\n      swap3\n      pop\n      0x0100\n      exp\n      dup2\n      sload\n      dup2\n      0xffffffff\n      mul\n      not\n      and\n      swap1\n      dup4\n      0xffffffff\n      and\n      mul\n      or\n      swap1\n      sstore\n      pop\n        /* \"src/solt.sol\":4926:4937  tradeAmount */\n      dup1\n        /* \"src/solt.sol\":4895:4900  users */\n      0x02\n        /* \"src/solt.sol\":4895:4914  users[counterparty] */\n      0x00\n        /* \"src/solt.sol\":4901:4913  counterparty */\n      dup10\n        /* \"src/solt.sol\":4895:4914  users[counterparty] */\n      0xffffffffffffffffffffffffffffffffffffffff\n      and\n      0xffffffffffffffffffffffffffffffffffffffff\n      and\n      dup2\n      mstore\n      0x20\n      add\n      swap1\n      dup2\n      mstore\n      0x20\n      add\n      0x00\n      keccak256\n        /* \"src/solt.sol\":4895:4922  users[counterparty].balance */\n      0x00\n      add\n      0x00\n        /* \"src/solt.sol\":4895:4937  users[counterparty].balance += tradeAmount */\n      dup3\n      dup3\n      dup3\n      swap1\n      sload\n      swap1\n      0x0100\n      exp\n      swap1\n      div\n      0xffffffff\n      and\n      tag_159\n      swap2\n      swap1\n      tag_91\n      jump\t// in\n    tag_159:\n      swap3\n      pop\n      0x0100\n      exp\n      dup2\n      sload\n      dup2\n      0xffffffff\n      mul\n      not\n      and\n      swap1\n      dup4\n      0xffffffff\n      and\n      mul\n      or\n      swap1\n      sstore\n      pop\n        /* \"src/solt.sol\":4722:5152  if (TYPE == RequestTypes.SELL) {... */\n      jump(tag_160)\n    tag_154:\n        /* \"src/solt.sol\":4969:5031  sendEther(payable(counterparty),tradeAmount*Request.coinPrice) */\n      tag_161\n        /* \"src/solt.sol\":4987:4999  counterparty */\n      dup8\n        /* \"src/solt.sol\":5013:5020  Request */\n      dup4\n        /* \"src/solt.sol\":5013:5030  Request.coinPrice */\n      0x00\n      add\n      0x04\n      swap1\n      sload\n      swap1\n      0x0100\n      exp\n      swap1\n      div\n      0xffffffff\n      and\n        /* \"src/solt.sol\":5001:5012  tradeAmount */\n      dup4\n        /* \"src/solt.sol\":5001:5030  tradeAmount*Request.coinPrice */\n      tag_162\n      swap2\n      swap1\n      tag_58\n      jump\t// in\n    tag_162:\n        /* \"src/solt.sol\":4969:4978  sendEther */\n      tag_157\n        /* \"src/solt.sol\":4969:5031  sendEther(payable(counterparty),tradeAmount*Request.coinPrice) */\n      jump\t// in\n    tag_161:\n        /* \"src/solt.sol\":5074:5085  tradeAmount */\n      dup1\n        /* \"src/solt.sol\":5045:5050  users */\n      0x02\n        /* \"src/solt.sol\":5045:5062  users[msg.sender] */\n      0x00\n        /* \"src/solt.sol\":5051:5061  msg.sender */\n      caller\n        /* \"src/solt.sol\":5045:5062  users[msg.sender] */\n      0xffffffffffffffffffffffffffffffffffffffff\n      and\n      0xffffffffffffffffffffffffffffffffffffffff\n      and\n      dup2\n      mstore\n      0x20\n      add\n      swap1\n      dup2\n      mstore\n      0x20\n      add\n      0x00\n      keccak256\n        /* \"src/solt.sol\":5045:5070  users[msg.sender].balance */\n      0x00\n      add\n      0x00\n        /* \"src/solt.sol\":5045:5085  users[msg.sender].balance += tradeAmount */\n      dup3\n      dup3\n      dup3\n      swap1\n      sload\n      swap1\n      0x0100\n      exp\n      swap1\n      div\n      0xffffffff\n      and\n      tag_163\n      swap2\n      swap1\n      tag_91\n      jump\t// in\n    tag_163:\n      swap3\n      pop\n      0x0100\n      exp\n      dup2\n      sload\n      dup2\n      0xffffffff\n      mul\n      not\n      and\n      swap1\n      dup4\n      0xffffffff\n      and\n      mul\n      or\n      swap1\n      sstore\n      pop\n        /* \"src/solt.sol\":5130:5141  tradeAmount */\n      dup1\n        /* \"src/solt.sol\":5099:5104  users */\n      0x02\n        /* \"src/solt.sol\":5099:5118  users[counterparty] */\n      0x00\n        /* \"src/solt.sol\":5105:5117  counterparty */\n      dup10\n        /* \"src/solt.sol\":5099:5118  users[counterparty] */\n      0xffffffffffffffffffffffffffffffffffffffff\n      and\n      0xffffffffffffffffffffffffffffffffffffffff\n      and\n      dup2\n      mstore\n      0x20\n      add\n      swap1\n      dup2\n      mstore\n      0x20\n      add\n      0x00\n      keccak256\n        /* \"src/solt.sol\":5099:5126  users[counterparty].balance */\n      0x00\n      add\n      0x00\n        /* \"src/solt.sol\":5099:5141  users[counterparty].balance -= tradeAmount */\n      dup3\n      dup3\n      dup3\n      swap1\n      sload\n      swap1\n      0x0100\n      exp\n      swap1\n      div\n      0xffffffff\n      and\n      tag_164\n      swap2\n      swap1\n      tag_89\n      jump\t// in\n    tag_164:\n      swap3\n      pop\n      0x0100\n      exp\n      dup2\n      sload\n      dup2\n      0xffffffff\n      mul\n      not\n      and\n      swap1\n      dup4\n      0xffffffff\n      and\n      mul\n      or\n      swap1\n      sstore\n      pop\n        /* \"src/solt.sol\":4722:5152  if (TYPE == RequestTypes.SELL) {... */\n    tag_160:\n        /* \"src/solt.sol\":5179:5190  tradeAmount */\n      dup1\n        /* \"src/solt.sol\":5161:5168  Request */\n      dup3\n        /* \"src/solt.sol\":5161:5175  Request.amount */\n      0x00\n      add\n      0x00\n        /* \"src/solt.sol\":5161:5190  Request.amount -= tradeAmount */\n      dup3\n      dup3\n      dup3\n      swap1\n      sload\n      swap1\n      0x0100\n      exp\n      swap1\n      div\n      0xffffffff\n      and\n      tag_165\n      swap2\n      swap1\n      tag_89\n      jump\t// in\n    tag_165:\n      swap3\n      pop\n      0x0100\n      exp\n      dup2\n      sload\n      dup2\n      0xffffffff\n      mul\n      not\n      and\n      swap1\n      dup4\n      0xffffffff\n      and\n      mul\n      or\n      swap1\n      sstore\n      pop\n        /* \"src/solt.sol\":5222:5223  0 */\n      0x00\n        /* \"src/solt.sol\":5204:5211  Request */\n      dup3\n        /* \"src/solt.sol\":5204:5218  Request.amount */\n      0x00\n      add\n      0x00\n      swap1\n      sload\n      swap1\n      0x0100\n      exp\n      swap1\n      div\n      0xffffffff\n      and\n        /* \"src/solt.sol\":5204:5223  Request.amount == 0 */\n      0xffffffff\n      and\n      sub\n        /* \"src/solt.sol\":5200:5261  if (Request.amount == 0) removeRequest(Request, requestIndex) */\n      tag_166\n      jumpi\n        /* \"src/solt.sol\":5225:5261  removeRequest(Request, requestIndex) */\n      tag_167\n        /* \"src/solt.sol\":5239:5246  Request */\n      dup3\n        /* \"src/solt.sol\":5248:5260  requestIndex */\n      dup6\n        /* \"src/solt.sol\":5225:5238  removeRequest */\n      tag_168\n        /* \"src/solt.sol\":5225:5261  removeRequest(Request, requestIndex) */\n      jump\t// in\n    tag_167:\n        /* \"src/solt.sol\":5200:5261  if (Request.amount == 0) removeRequest(Request, requestIndex) */\n    tag_166:\n        /* \"src/solt.sol\":5286:5297  tradeAmount */\n      dup1\n        /* \"src/solt.sol\":5278:5297  amount-=tradeAmount */\n      dup7\n      tag_169\n      swap2\n      swap1\n      tag_89\n      jump\t// in\n    tag_169:\n      swap6\n      pop\n      dup6\n        /* \"src/solt.sol\":5271:5297  return amount-=tradeAmount */\n      swap3\n      pop\n      pop\n      pop\n        /* \"src/solt.sol\":4439:5304  function executeRequests(address counterparty, uint32 amount, RequestTypes TYPE, uint256 requestIndex) private returns(uint32){... */\n      swap5\n      swap4\n      pop\n      pop\n      pop\n      pop\n      jump\t// out\n        /* \"src/solt.sol\":6538:7076  function addRequest(uint32 amount, uint32 coinPrice, RequestTypes TYPE) private {... */\n    tag_143:\n        /* \"src/solt.sol\":6628:6657  address[] storage requestants */\n      0x00\n        /* \"src/solt.sol\":6667:6684  RequestTypes.SELL */\n      0x01\n        /* \"src/solt.sol\":6661:6684  TYPE==RequestTypes.SELL */\n      0x02\n      dup2\n      gt\n      iszero\n      tag_171\n      jumpi\n      tag_172\n      tag_53\n      jump\t// in\n    tag_172:\n    tag_171:\n        /* \"src/solt.sol\":6661:6665  TYPE */\n      dup3\n        /* \"src/solt.sol\":6661:6684  TYPE==RequestTypes.SELL */\n      0x02\n      dup2\n      gt\n      iszero\n      tag_173\n      jumpi\n      tag_174\n      tag_53\n      jump\t// in\n    tag_174:\n    tag_173:\n      eq\n        /* \"src/solt.sol\":6661:6719  TYPE==RequestTypes.SELL ? sellRequestants : buyRequestants */\n      tag_175\n      jumpi\n        /* \"src/solt.sol\":6705:6719  buyRequestants */\n      0x04\n        /* \"src/solt.sol\":6661:6719  TYPE==RequestTypes.SELL ? sellRequestants : buyRequestants */\n      jump(tag_176)\n    tag_175:\n        /* \"src/solt.sol\":6687:6702  sellRequestants */\n      0x03\n        /* \"src/solt.sol\":6661:6719  TYPE==RequestTypes.SELL ? sellRequestants : buyRequestants */\n    tag_176:\n        /* \"src/solt.sol\":6628:6720  address[] storage requestants = (TYPE==RequestTypes.SELL ? sellRequestants : buyRequestants) */\n      swap1\n      pop\n        /* \"src/solt.sol\":6759:6765  amount */\n      dup4\n        /* \"src/solt.sol\":6730:6735  users */\n      0x02\n        /* \"src/solt.sol\":6730:6747  users[msg.sender] */\n      0x00\n        /* \"src/solt.sol\":6736:6746  msg.sender */\n      caller\n        /* \"src/solt.sol\":6730:6747  users[msg.sender] */\n      0xffffffffffffffffffffffffffffffffffffffff\n      and\n      0xffffffffffffffffffffffffffffffffffffffff\n      and\n      dup2\n      mstore\n      0x20\n      add\n      swap1\n      dup2\n      mstore\n      0x20\n      add\n      0x00\n      keccak256\n        /* \"src/solt.sol\":6730:6755  users[msg.sender].balance */\n      0x00\n      add\n      0x00\n        /* \"src/solt.sol\":6730:6765  users[msg.sender].balance -= amount */\n      dup3\n      dup3\n      dup3\n      swap1\n      sload\n      swap1\n      0x0100\n      exp\n      swap1\n      div\n      0xffffffff\n      and\n      tag_177\n      swap2\n      swap1\n      tag_89\n      jump\t// in\n    tag_177:\n      swap3\n      pop\n      0x0100\n      exp\n      dup2\n      sload\n      dup2\n      0xffffffff\n      mul\n      not\n      and\n      swap1\n      dup4\n      0xffffffff\n      and\n      mul\n      or\n      swap1\n      sstore\n      pop\n        /* \"src/solt.sol\":6775:6786  requestants */\n      dup1\n        /* \"src/solt.sol\":6792:6802  msg.sender */\n      caller\n        /* \"src/solt.sol\":6775:6803  requestants.push(msg.sender) */\n      swap1\n      dup1\n      0x01\n      dup2\n      sload\n      add\n      dup1\n      dup3\n      sstore\n      dup1\n      swap2\n      pop\n      pop\n      0x01\n      swap1\n      sub\n      swap1\n      0x00\n      mstore\n      keccak256(0x00, 0x20)\n      add\n      0x00\n      swap1\n      swap2\n      swap1\n      swap2\n      swap1\n      swap2\n      0x0100\n      exp\n      dup2\n      sload\n      dup2\n      0xffffffffffffffffffffffffffffffffffffffff\n      mul\n      not\n      and\n      swap1\n      dup4\n      0xffffffffffffffffffffffffffffffffffffffff\n      and\n      mul\n      or\n      swap1\n      sstore\n      pop\n        /* \"src/solt.sol\":6813:6840  UserRequest storage Request */\n      0x00\n        /* \"src/solt.sol\":6843:6848  users */\n      0x02\n        /* \"src/solt.sol\":6843:6860  users[msg.sender] */\n      0x00\n        /* \"src/solt.sol\":6849:6859  msg.sender */\n      caller\n        /* \"src/solt.sol\":6843:6860  users[msg.sender] */\n      0xffffffffffffffffffffffffffffffffffffffff\n      and\n      0xffffffffffffffffffffffffffffffffffffffff\n      and\n      dup2\n      mstore\n      0x20\n      add\n      swap1\n      dup2\n      mstore\n      0x20\n      add\n      0x00\n      keccak256\n        /* \"src/solt.sol\":6843:6868  users[msg.sender].Request */\n      0x01\n      add\n        /* \"src/solt.sol\":6813:6868  UserRequest storage Request = users[msg.sender].Request */\n      swap1\n      pop\n        /* \"src/solt.sol\":6895:6901  amount */\n      dup5\n        /* \"src/solt.sol\":6878:6885  Request */\n      dup2\n        /* \"src/solt.sol\":6878:6892  Request.amount */\n      0x00\n      add\n      0x00\n        /* \"src/solt.sol\":6878:6901  Request.amount = amount */\n      0x0100\n      exp\n      dup2\n      sload\n      dup2\n      0xffffffff\n      mul\n      not\n      and\n      swap1\n      dup4\n      0xffffffff\n      and\n      mul\n      or\n      swap1\n      sstore\n      pop\n        /* \"src/solt.sol\":6931:6940  coinPrice */\n      dup4\n        /* \"src/solt.sol\":6911:6918  Request */\n      dup2\n        /* \"src/solt.sol\":6911:6928  Request.coinPrice */\n      0x00\n      add\n      0x04\n        /* \"src/solt.sol\":6911:6940  Request.coinPrice = coinPrice */\n      0x0100\n      exp\n      dup2\n      sload\n      dup2\n      0xffffffff\n      mul\n      not\n      and\n      swap1\n      dup4\n      0xffffffff\n      and\n      mul\n      or\n      swap1\n      sstore\n      pop\n        /* \"src/solt.sol\":6965:6980  block.timestamp */\n      timestamp\n        /* \"src/solt.sol\":6950:6957  Request */\n      dup2\n        /* \"src/solt.sol\":6950:6962  Request.time */\n      0x01\n      add\n        /* \"src/solt.sol\":6950:6980  Request.time = block.timestamp */\n      dup2\n      swap1\n      sstore\n      pop\n        /* \"src/solt.sol\":6995:7069  PendingRequestOpened(msg.sender, amount, coinPrice, block.timestamp, TYPE) */\n      0x0faf6263aff7f74586f8e6848d95c85f75df0dd5b5db5948622c87c5969f795b\n        /* \"src/solt.sol\":7016:7026  msg.sender */\n      caller\n        /* \"src/solt.sol\":7028:7034  amount */\n      dup7\n        /* \"src/solt.sol\":7036:7045  coinPrice */\n      dup7\n        /* \"src/solt.sol\":7047:7062  block.timestamp */\n      timestamp\n        /* \"src/solt.sol\":7064:7068  TYPE */\n      dup8\n        /* \"src/solt.sol\":6995:7069  PendingRequestOpened(msg.sender, amount, coinPrice, block.timestamp, TYPE) */\n      mload(0x40)\n      tag_179\n      swap6\n      swap5\n      swap4\n      swap3\n      swap2\n      swap1\n      tag_180\n      jump\t// in\n    tag_179:\n      mload(0x40)\n      dup1\n      swap2\n      sub\n      swap1\n      log1\n        /* \"src/solt.sol\":6618:7076  {... */\n      pop\n      pop\n        /* \"src/solt.sol\":6538:7076  function addRequest(uint32 amount, uint32 coinPrice, RequestTypes TYPE) private {... */\n      pop\n      pop\n      pop\n      jump\t// out\n        /* \"src/solt.sol\":3233:3409  function sendEther(address payable reciver, uint32 amount) private{... */\n    tag_157:\n        /* \"src/solt.sol\":3310:3319  bool sent */\n      0x00\n        /* \"src/solt.sol\":3324:3331  reciver */\n      dup3\n        /* \"src/solt.sol\":3324:3336  reciver.call */\n      0xffffffffffffffffffffffffffffffffffffffff\n      and\n        /* \"src/solt.sol\":3344:3350  amount */\n      dup3\n        /* \"src/solt.sol\":3324:3355  reciver.call{value: amount}(\"\") */\n      0xffffffff\n      and\n      mload(0x40)\n      tag_182\n      swap1\n      tag_183\n      jump\t// in\n    tag_182:\n      0x00\n      mload(0x40)\n      dup1\n      dup4\n      sub\n      dup2\n      dup6\n      dup8\n      gas\n      call\n      swap3\n      pop\n      pop\n      pop\n      returndatasize\n      dup1\n      0x00\n      dup2\n      eq\n      tag_186\n      jumpi\n      mload(0x40)\n      swap2\n      pop\n      and(add(returndatasize, 0x3f), not(0x1f))\n      dup3\n      add\n      0x40\n      mstore\n      returndatasize\n      dup3\n      mstore\n      returndatasize\n      0x00\n      0x20\n      dup5\n      add\n      returndatacopy\n      jump(tag_185)\n    tag_186:\n      0x60\n      swap2\n      pop\n    tag_185:\n      pop\n        /* \"src/solt.sol\":3309:3355  (bool sent,) = reciver.call{value: amount}(\"\") */\n      pop\n      swap1\n      pop\n        /* \"src/solt.sol\":3373:3377  sent */\n      dup1\n        /* \"src/solt.sol\":3365:3402  require(sent, \"Failed to send Ether\") */\n      tag_187\n      jumpi\n      mload(0x40)\n      0x08c379a000000000000000000000000000000000000000000000000000000000\n      dup2\n      mstore\n      0x04\n      add\n      tag_188\n      swap1\n      tag_189\n      jump\t// in\n    tag_188:\n      mload(0x40)\n      dup1\n      swap2\n      sub\n      swap1\n      revert\n    tag_187:\n        /* \"src/solt.sol\":3299:3409  {... */\n      pop\n        /* \"src/solt.sol\":3233:3409  function sendEther(address payable reciver, uint32 amount) private{... */\n      pop\n      pop\n      jump\t// out\n        /* \"src/solt.sol\":5946:6471  function removeRequest(UserRequest storage request, uint256 requestIndex) private {... */\n    tag_168:\n        /* \"src/solt.sol\":6038:6067  address[] storage requestants */\n      0x00\n        /* \"src/solt.sol\":6085:6102  RequestTypes.SELL */\n      0x01\n        /* \"src/solt.sol\":6071:6102  request.Type==RequestTypes.SELL */\n      0x02\n      dup2\n      gt\n      iszero\n      tag_191\n      jumpi\n      tag_192\n      tag_53\n      jump\t// in\n    tag_192:\n    tag_191:\n        /* \"src/solt.sol\":6071:6078  request */\n      dup4\n        /* \"src/solt.sol\":6071:6083  request.Type */\n      0x02\n      add\n      0x00\n      swap1\n      sload\n      swap1\n      0x0100\n      exp\n      swap1\n      div\n      0xff\n      and\n        /* \"src/solt.sol\":6071:6102  request.Type==RequestTypes.SELL */\n      0x02\n      dup2\n      gt\n      iszero\n      tag_193\n      jumpi\n      tag_194\n      tag_53\n      jump\t// in\n    tag_194:\n    tag_193:\n      eq\n        /* \"src/solt.sol\":6071:6137  request.Type==RequestTypes.SELL ? sellRequestants : buyRequestants */\n      tag_195\n      jumpi\n        /* \"src/solt.sol\":6123:6137  buyRequestants */\n      0x04\n        /* \"src/solt.sol\":6071:6137  request.Type==RequestTypes.SELL ? sellRequestants : buyRequestants */\n      jump(tag_196)\n    tag_195:\n        /* \"src/solt.sol\":6105:6120  sellRequestants */\n      0x03\n        /* \"src/solt.sol\":6071:6137  request.Type==RequestTypes.SELL ? sellRequestants : buyRequestants */\n    tag_196:\n        /* \"src/solt.sol\":6038:6138  address[] storage requestants = (request.Type==RequestTypes.SELL ? sellRequestants : buyRequestants) */\n      swap1\n      pop\n        /* \"src/solt.sol\":6153:6262  RequestFulfilled(requestants[requestIndex], request.amount, request.coinPrice, block.timestamp, request.Type) */\n      0x6279b6d8aec4b002f259a5b1769d56e8d63d6ab0895c01b4f26e8667767bf00c\n        /* \"src/solt.sol\":6170:6181  requestants */\n      dup2\n        /* \"src/solt.sol\":6182:6194  requestIndex */\n      dup4\n        /* \"src/solt.sol\":6170:6195  requestants[requestIndex] */\n      dup2\n      sload\n      dup2\n      lt\n      tag_197\n      jumpi\n      tag_198\n      tag_125\n      jump\t// in\n    tag_198:\n    tag_197:\n      swap1\n      0x00\n      mstore\n      keccak256(0x00, 0x20)\n      add\n      0x00\n      swap1\n      sload\n      swap1\n      0x0100\n      exp\n      swap1\n      div\n      0xffffffffffffffffffffffffffffffffffffffff\n      and\n        /* \"src/solt.sol\":6197:6204  request */\n      dup5\n        /* \"src/solt.sol\":6197:6211  request.amount */\n      0x00\n      add\n      0x00\n      swap1\n      sload\n      swap1\n      0x0100\n      exp\n      swap1\n      div\n      0xffffffff\n      and\n        /* \"src/solt.sol\":6213:6220  request */\n      dup6\n        /* \"src/solt.sol\":6213:6230  request.coinPrice */\n      0x00\n      add\n      0x04\n      swap1\n      sload\n      swap1\n      0x0100\n      exp\n      swap1\n      div\n      0xffffffff\n      and\n        /* \"src/solt.sol\":6232:6247  block.timestamp */\n      timestamp\n        /* \"src/solt.sol\":6249:6256  request */\n      dup8\n        /* \"src/solt.sol\":6249:6261  request.Type */\n      0x02\n      add\n      0x00\n      swap1\n      sload\n      swap1\n      0x0100\n      exp\n      swap1\n      div\n      0xff\n      and\n        /* \"src/solt.sol\":6153:6262  RequestFulfilled(requestants[requestIndex], request.amount, request.coinPrice, block.timestamp, request.Type) */\n      mload(0x40)\n      tag_200\n      swap6\n      swap5\n      swap4\n      swap3\n      swap2\n      swap1\n      tag_180\n      jump\t// in\n    tag_200:\n      mload(0x40)\n      dup1\n      swap2\n      sub\n      swap1\n      log1\n        /* \"src/solt.sol\":6277:6286  uint256 i */\n      0x00\n        /* \"src/solt.sol\":6289:6301  requestIndex */\n      dup3\n        /* \"src/solt.sol\":6277:6301  uint256 i = requestIndex */\n      swap1\n      pop\n        /* \"src/solt.sol\":6272:6396  for (uint256 i = requestIndex; i < requestants.length - 1; i++) {... */\n    tag_201:\n        /* \"src/solt.sol\":6328:6329  1 */\n      0x01\n        /* \"src/solt.sol\":6307:6318  requestants */\n      dup3\n        /* \"src/solt.sol\":6307:6325  requestants.length */\n      dup1\n      sload\n      swap1\n      pop\n        /* \"src/solt.sol\":6307:6329  requestants.length - 1 */\n      tag_204\n      swap2\n      swap1\n      tag_122\n      jump\t// in\n    tag_204:\n        /* \"src/solt.sol\":6303:6304  i */\n      dup2\n        /* \"src/solt.sol\":6303:6329  i < requestants.length - 1 */\n      lt\n        /* \"src/solt.sol\":6272:6396  for (uint256 i = requestIndex; i < requestants.length - 1; i++) {... */\n      iszero\n      tag_202\n      jumpi\n        /* \"src/solt.sol\":6367:6378  requestants */\n      dup2\n        /* \"src/solt.sol\":6383:6384  1 */\n      0x01\n        /* \"src/solt.sol\":6379:6380  i */\n      dup3\n        /* \"src/solt.sol\":6379:6384  i + 1 */\n      tag_205\n      swap2\n      swap1\n      tag_206\n      jump\t// in\n    tag_205:\n        /* \"src/solt.sol\":6367:6385  requestants[i + 1] */\n      dup2\n      sload\n      dup2\n      lt\n      tag_207\n      jumpi\n      tag_208\n      tag_125\n      jump\t// in\n    tag_208:\n    tag_207:\n      swap1\n      0x00\n      mstore\n      keccak256(0x00, 0x20)\n      add\n      0x00\n      swap1\n      sload\n      swap1\n      0x0100\n      exp\n      swap1\n      div\n      0xffffffffffffffffffffffffffffffffffffffff\n      and\n        /* \"src/solt.sol\":6350:6361  requestants */\n      dup3\n        /* \"src/solt.sol\":6362:6363  i */\n      dup3\n        /* \"src/solt.sol\":6350:6364  requestants[i] */\n      dup2\n      sload\n      dup2\n      lt\n      tag_210\n      jumpi\n      tag_211\n      tag_125\n      jump\t// in\n    tag_211:\n    tag_210:\n      swap1\n      0x00\n      mstore\n      keccak256(0x00, 0x20)\n      add\n      0x00\n        /* \"src/solt.sol\":6350:6385  requestants[i] = requestants[i + 1] */\n      0x0100\n      exp\n      dup2\n      sload\n      dup2\n      0xffffffffffffffffffffffffffffffffffffffff\n      mul\n      not\n      and\n      swap1\n      dup4\n      0xffffffffffffffffffffffffffffffffffffffff\n      and\n      mul\n      or\n      swap1\n      sstore\n      pop\n        /* \"src/solt.sol\":6331:6334  i++ */\n      dup1\n      dup1\n      0x01\n      add\n      swap2\n      pop\n      pop\n        /* \"src/solt.sol\":6272:6396  for (uint256 i = requestIndex; i < requestants.length - 1; i++) {... */\n      jump(tag_201)\n    tag_202:\n      pop\n        /* \"src/solt.sol\":6405:6416  requestants */\n      dup1\n        /* \"src/solt.sol\":6405:6422  requestants.pop() */\n      dup1\n      sload\n      dup1\n      tag_213\n      jumpi\n      tag_214\n      tag_215\n      jump\t// in\n    tag_214:\n    tag_213:\n      0x01\n      swap1\n      sub\n      dup2\n      dup2\n      swap1\n      0x00\n      mstore\n      keccak256(0x00, 0x20)\n      add\n      exp(0x0100, 0x00)\n      dup2\n      sload\n      swap1\n      0xffffffffffffffffffffffffffffffffffffffff\n      mul\n      not\n      and\n      swap1\n      sstore\n      swap1\n      sstore\n        /* \"src/solt.sol\":6447:6464  RequestTypes.NONE */\n      0x00\n        /* \"src/solt.sol\":6432:6439  request */\n      dup4\n        /* \"src/solt.sol\":6432:6444  request.Type */\n      0x02\n      add\n      0x00\n        /* \"src/solt.sol\":6432:6464  request.Type = RequestTypes.NONE */\n      0x0100\n      exp\n      dup2\n      sload\n      dup2\n      0xff\n      mul\n      not\n      and\n      swap1\n      dup4\n      0x02\n      dup2\n      gt\n      iszero\n      tag_217\n      jumpi\n      tag_218\n      tag_53\n      jump\t// in\n    tag_218:\n    tag_217:\n      mul\n      or\n      swap1\n      sstore\n      pop\n        /* \"src/solt.sol\":6028:6471  {... */\n      pop\n        /* \"src/solt.sol\":5946:6471  function removeRequest(UserRequest storage request, uint256 requestIndex) private {... */\n      pop\n      pop\n      jump\t// out\n        /* \"#utility.yul\":88:205   */\n    tag_220:\n        /* \"#utility.yul\":197:198   */\n      0x00\n        /* \"#utility.yul\":194:195   */\n      dup1\n        /* \"#utility.yul\":187:199   */\n      revert\n        /* \"#utility.yul\":334:427   */\n    tag_222:\n        /* \"#utility.yul\":370:377   */\n      0x00\n        /* \"#utility.yul\":410:420   */\n      0xffffffff\n        /* \"#utility.yul\":403:408   */\n      dup3\n        /* \"#utility.yul\":399:421   */\n      and\n        /* \"#utility.yul\":388:421   */\n      swap1\n      pop\n        /* \"#utility.yul\":334:427   */\n      swap2\n      swap1\n      pop\n      jump\t// out\n        /* \"#utility.yul\":433:553   */\n    tag_223:\n        /* \"#utility.yul\":505:528   */\n      tag_260\n        /* \"#utility.yul\":522:527   */\n      dup2\n        /* \"#utility.yul\":505:528   */\n      tag_222\n      jump\t// in\n    tag_260:\n        /* \"#utility.yul\":498:503   */\n      dup2\n        /* \"#utility.yul\":495:529   */\n      eq\n        /* \"#utility.yul\":485:547   */\n      tag_261\n      jumpi\n        /* \"#utility.yul\":543:544   */\n      0x00\n        /* \"#utility.yul\":540:541   */\n      dup1\n        /* \"#utility.yul\":533:545   */\n      revert\n        /* \"#utility.yul\":485:547   */\n    tag_261:\n        /* \"#utility.yul\":433:553   */\n      pop\n      jump\t// out\n        /* \"#utility.yul\":559:696   */\n    tag_224:\n        /* \"#utility.yul\":604:609   */\n      0x00\n        /* \"#utility.yul\":642:648   */\n      dup2\n        /* \"#utility.yul\":629:649   */\n      calldataload\n        /* \"#utility.yul\":620:649   */\n      swap1\n      pop\n        /* \"#utility.yul\":658:690   */\n      tag_263\n        /* \"#utility.yul\":684:689   */\n      dup2\n        /* \"#utility.yul\":658:690   */\n      tag_223\n      jump\t// in\n    tag_263:\n        /* \"#utility.yul\":559:696   */\n      swap3\n      swap2\n      pop\n      pop\n      jump\t// out\n        /* \"#utility.yul\":702:1172   */\n    tag_13:\n        /* \"#utility.yul\":768:774   */\n      0x00\n        /* \"#utility.yul\":776:782   */\n      dup1\n        /* \"#utility.yul\":825:827   */\n      0x40\n        /* \"#utility.yul\":813:822   */\n      dup4\n        /* \"#utility.yul\":804:811   */\n      dup6\n        /* \"#utility.yul\":800:823   */\n      sub\n        /* \"#utility.yul\":796:828   */\n      slt\n        /* \"#utility.yul\":793:912   */\n      iszero\n      tag_265\n      jumpi\n        /* \"#utility.yul\":831:910   */\n      tag_266\n      tag_220\n      jump\t// in\n    tag_266:\n        /* \"#utility.yul\":793:912   */\n    tag_265:\n        /* \"#utility.yul\":951:952   */\n      0x00\n        /* \"#utility.yul\":976:1028   */\n      tag_267\n        /* \"#utility.yul\":1020:1027   */\n      dup6\n        /* \"#utility.yul\":1011:1017   */\n      dup3\n        /* \"#utility.yul\":1000:1009   */\n      dup7\n        /* \"#utility.yul\":996:1018   */\n      add\n        /* \"#utility.yul\":976:1028   */\n      tag_224\n      jump\t// in\n    tag_267:\n        /* \"#utility.yul\":966:1028   */\n      swap3\n      pop\n        /* \"#utility.yul\":922:1038   */\n      pop\n        /* \"#utility.yul\":1077:1079   */\n      0x20\n        /* \"#utility.yul\":1103:1155   */\n      tag_268\n        /* \"#utility.yul\":1147:1154   */\n      dup6\n        /* \"#utility.yul\":1138:1144   */\n      dup3\n        /* \"#utility.yul\":1127:1136   */\n      dup7\n        /* \"#utility.yul\":1123:1145   */\n      add\n        /* \"#utility.yul\":1103:1155   */\n      tag_224\n      jump\t// in\n    tag_268:\n        /* \"#utility.yul\":1093:1155   */\n      swap2\n      pop\n        /* \"#utility.yul\":1048:1165   */\n      pop\n        /* \"#utility.yul\":702:1172   */\n      swap3\n      pop\n      swap3\n      swap1\n      pop\n      jump\t// out\n        /* \"#utility.yul\":1178:1255   */\n    tag_225:\n        /* \"#utility.yul\":1215:1222   */\n      0x00\n        /* \"#utility.yul\":1244:1249   */\n      dup2\n        /* \"#utility.yul\":1233:1249   */\n      swap1\n      pop\n        /* \"#utility.yul\":1178:1255   */\n      swap2\n      swap1\n      pop\n      jump\t// out\n        /* \"#utility.yul\":1261:1383   */\n    tag_226:\n        /* \"#utility.yul\":1334:1358   */\n      tag_271\n        /* \"#utility.yul\":1352:1357   */\n      dup2\n        /* \"#utility.yul\":1334:1358   */\n      tag_225\n      jump\t// in\n    tag_271:\n        /* \"#utility.yul\":1327:1332   */\n      dup2\n        /* \"#utility.yul\":1324:1359   */\n      eq\n        /* \"#utility.yul\":1314:1377   */\n      tag_272\n      jumpi\n        /* \"#utility.yul\":1373:1374   */\n      0x00\n        /* \"#utility.yul\":1370:1371   */\n      dup1\n        /* \"#utility.yul\":1363:1375   */\n      revert\n        /* \"#utility.yul\":1314:1377   */\n    tag_272:\n        /* \"#utility.yul\":1261:1383   */\n      pop\n      jump\t// out\n        /* \"#utility.yul\":1389:1528   */\n    tag_227:\n        /* \"#utility.yul\":1435:1440   */\n      0x00\n        /* \"#utility.yul\":1473:1479   */\n      dup2\n        /* \"#utility.yul\":1460:1480   */\n      calldataload\n        /* \"#utility.yul\":1451:1480   */\n      swap1\n      pop\n        /* \"#utility.yul\":1489:1522   */\n      tag_274\n        /* \"#utility.yul\":1516:1521   */\n      dup2\n        /* \"#utility.yul\":1489:1522   */\n      tag_226\n      jump\t// in\n    tag_274:\n        /* \"#utility.yul\":1389:1528   */\n      swap3\n      swap2\n      pop\n      pop\n      jump\t// out\n        /* \"#utility.yul\":1534:1863   */\n    tag_18:\n        /* \"#utility.yul\":1593:1599   */\n      0x00\n        /* \"#utility.yul\":1642:1644   */\n      0x20\n        /* \"#utility.yul\":1630:1639   */\n      dup3\n        /* \"#utility.yul\":1621:1628   */\n      dup5\n        /* \"#utility.yul\":1617:1640   */\n      sub\n        /* \"#utility.yul\":1613:1645   */\n      slt\n        /* \"#utility.yul\":1610:1729   */\n      iszero\n      tag_276\n      jumpi\n        /* \"#utility.yul\":1648:1727   */\n      tag_277\n      tag_220\n      jump\t// in\n    tag_277:\n        /* \"#utility.yul\":1610:1729   */\n    tag_276:\n        /* \"#utility.yul\":1768:1769   */\n      0x00\n        /* \"#utility.yul\":1793:1846   */\n      tag_278\n        /* \"#utility.yul\":1838:1845   */\n      dup5\n        /* \"#utility.yul\":1829:1835   */\n      dup3\n        /* \"#utility.yul\":1818:1827   */\n      dup6\n        /* \"#utility.yul\":1814:1836   */\n      add\n        /* \"#utility.yul\":1793:1846   */\n      tag_227\n      jump\t// in\n    tag_278:\n        /* \"#utility.yul\":1783:1846   */\n      swap2\n      pop\n        /* \"#utility.yul\":1739:1856   */\n      pop\n        /* \"#utility.yul\":1534:1863   */\n      swap3\n      swap2\n      pop\n      pop\n      jump\t// out\n        /* \"#utility.yul\":1869:1995   */\n    tag_228:\n        /* \"#utility.yul\":1906:1913   */\n      0x00\n        /* \"#utility.yul\":1946:1988   */\n      0xffffffffffffffffffffffffffffffffffffffff\n        /* \"#utility.yul\":1939:1944   */\n      dup3\n        /* \"#utility.yul\":1935:1989   */\n      and\n        /* \"#utility.yul\":1924:1989   */\n      swap1\n      pop\n        /* \"#utility.yul\":1869:1995   */\n      swap2\n      swap1\n      pop\n      jump\t// out\n        /* \"#utility.yul\":2001:2097   */\n    tag_229:\n        /* \"#utility.yul\":2038:2045   */\n      0x00\n        /* \"#utility.yul\":2067:2091   */\n      tag_281\n        /* \"#utility.yul\":2085:2090   */\n      dup3\n        /* \"#utility.yul\":2067:2091   */\n      tag_228\n      jump\t// in\n    tag_281:\n        /* \"#utility.yul\":2056:2091   */\n      swap1\n      pop\n        /* \"#utility.yul\":2001:2097   */\n      swap2\n      swap1\n      pop\n      jump\t// out\n        /* \"#utility.yul\":2103:2221   */\n    tag_230:\n        /* \"#utility.yul\":2190:2214   */\n      tag_283\n        /* \"#utility.yul\":2208:2213   */\n      dup2\n        /* \"#utility.yul\":2190:2214   */\n      tag_229\n      jump\t// in\n    tag_283:\n        /* \"#utility.yul\":2185:2188   */\n      dup3\n        /* \"#utility.yul\":2178:2215   */\n      mstore\n        /* \"#utility.yul\":2103:2221   */\n      pop\n      pop\n      jump\t// out\n        /* \"#utility.yul\":2227:2449   */\n    tag_21:\n        /* \"#utility.yul\":2320:2324   */\n      0x00\n        /* \"#utility.yul\":2358:2360   */\n      0x20\n        /* \"#utility.yul\":2347:2356   */\n      dup3\n        /* \"#utility.yul\":2343:2361   */\n      add\n        /* \"#utility.yul\":2335:2361   */\n      swap1\n      pop\n        /* \"#utility.yul\":2371:2442   */\n      tag_285\n        /* \"#utility.yul\":2439:2440   */\n      0x00\n        /* \"#utility.yul\":2428:2437   */\n      dup4\n        /* \"#utility.yul\":2424:2441   */\n      add\n        /* \"#utility.yul\":2415:2421   */\n      dup5\n        /* \"#utility.yul\":2371:2442   */\n      tag_230\n      jump\t// in\n    tag_285:\n        /* \"#utility.yul\":2227:2449   */\n      swap3\n      swap2\n      pop\n      pop\n      jump\t// out\n        /* \"#utility.yul\":2455:2577   */\n    tag_231:\n        /* \"#utility.yul\":2528:2552   */\n      tag_287\n        /* \"#utility.yul\":2546:2551   */\n      dup2\n        /* \"#utility.yul\":2528:2552   */\n      tag_229\n      jump\t// in\n    tag_287:\n        /* \"#utility.yul\":2521:2526   */\n      dup2\n        /* \"#utility.yul\":2518:2553   */\n      eq\n        /* \"#utility.yul\":2508:2571   */\n      tag_288\n      jumpi\n        /* \"#utility.yul\":2567:2568   */\n      0x00\n        /* \"#utility.yul\":2564:2565   */\n      dup1\n        /* \"#utility.yul\":2557:2569   */\n      revert\n        /* \"#utility.yul\":2508:2571   */\n    tag_288:\n        /* \"#utility.yul\":2455:2577   */\n      pop\n      jump\t// out\n        /* \"#utility.yul\":2583:2722   */\n    tag_232:\n        /* \"#utility.yul\":2629:2634   */\n      0x00\n        /* \"#utility.yul\":2667:2673   */\n      dup2\n        /* \"#utility.yul\":2654:2674   */\n      calldataload\n        /* \"#utility.yul\":2645:2674   */\n      swap1\n      pop\n        /* \"#utility.yul\":2683:2716   */\n      tag_290\n        /* \"#utility.yul\":2710:2715   */\n      dup2\n        /* \"#utility.yul\":2683:2716   */\n      tag_231\n      jump\t// in\n    tag_290:\n        /* \"#utility.yul\":2583:2722   */\n      swap3\n      swap2\n      pop\n      pop\n      jump\t// out\n        /* \"#utility.yul\":2728:3057   */\n    tag_34:\n        /* \"#utility.yul\":2787:2793   */\n      0x00\n        /* \"#utility.yul\":2836:2838   */\n      0x20\n        /* \"#utility.yul\":2824:2833   */\n      dup3\n        /* \"#utility.yul\":2815:2822   */\n      dup5\n        /* \"#utility.yul\":2811:2834   */\n      sub\n        /* \"#utility.yul\":2807:2839   */\n      slt\n        /* \"#utility.yul\":2804:2923   */\n      iszero\n      tag_292\n      jumpi\n        /* \"#utility.yul\":2842:2921   */\n      tag_293\n      tag_220\n      jump\t// in\n    tag_293:\n        /* \"#utility.yul\":2804:2923   */\n    tag_292:\n        /* \"#utility.yul\":2962:2963   */\n      0x00\n        /* \"#utility.yul\":2987:3040   */\n      tag_294\n        /* \"#utility.yul\":3032:3039   */\n      dup5\n        /* \"#utility.yul\":3023:3029   */\n      dup3\n        /* \"#utility.yul\":3012:3021   */\n      dup6\n        /* \"#utility.yul\":3008:3030   */\n      add\n        /* \"#utility.yul\":2987:3040   */\n      tag_232\n      jump\t// in\n    tag_294:\n        /* \"#utility.yul\":2977:3040   */\n      swap2\n      pop\n        /* \"#utility.yul\":2933:3050   */\n      pop\n        /* \"#utility.yul\":2728:3057   */\n      swap3\n      swap2\n      pop\n      pop\n      jump\t// out\n        /* \"#utility.yul\":3063:3178   */\n    tag_233:\n        /* \"#utility.yul\":3148:3171   */\n      tag_296\n        /* \"#utility.yul\":3165:3170   */\n      dup2\n        /* \"#utility.yul\":3148:3171   */\n      tag_222\n      jump\t// in\n    tag_296:\n        /* \"#utility.yul\":3143:3146   */\n      dup3\n        /* \"#utility.yul\":3136:3172   */\n      mstore\n        /* \"#utility.yul\":3063:3178   */\n      pop\n      pop\n      jump\t// out\n        /* \"#utility.yul\":3184:3289   */\n    tag_234:\n        /* \"#utility.yul\":3259:3282   */\n      tag_298\n        /* \"#utility.yul\":3276:3281   */\n      dup2\n        /* \"#utility.yul\":3259:3282   */\n      tag_222\n      jump\t// in\n    tag_298:\n        /* \"#utility.yul\":3254:3257   */\n      dup3\n        /* \"#utility.yul\":3247:3283   */\n      mstore\n        /* \"#utility.yul\":3184:3289   */\n      pop\n      pop\n      jump\t// out\n        /* \"#utility.yul\":3295:3403   */\n    tag_235:\n        /* \"#utility.yul\":3372:3396   */\n      tag_300\n        /* \"#utility.yul\":3390:3395   */\n      dup2\n        /* \"#utility.yul\":3372:3396   */\n      tag_225\n      jump\t// in\n    tag_300:\n        /* \"#utility.yul\":3367:3370   */\n      dup3\n        /* \"#utility.yul\":3360:3397   */\n      mstore\n        /* \"#utility.yul\":3295:3403   */\n      pop\n      pop\n      jump\t// out\n        /* \"#utility.yul\":3409:3589   */\n    tag_53:\n        /* \"#utility.yul\":3457:3534   */\n      0x4e487b7100000000000000000000000000000000000000000000000000000000\n        /* \"#utility.yul\":3454:3455   */\n      0x00\n        /* \"#utility.yul\":3447:3535   */\n      mstore\n        /* \"#utility.yul\":3554:3558   */\n      0x21\n        /* \"#utility.yul\":3551:3552   */\n      0x04\n        /* \"#utility.yul\":3544:3559   */\n      mstore\n        /* \"#utility.yul\":3578:3582   */\n      0x24\n        /* \"#utility.yul\":3575:3576   */\n      0x00\n        /* \"#utility.yul\":3568:3583   */\n      revert\n        /* \"#utility.yul\":3595:3715   */\n    tag_236:\n        /* \"#utility.yul\":3683:3684   */\n      0x03\n        /* \"#utility.yul\":3676:3681   */\n      dup2\n        /* \"#utility.yul\":3673:3685   */\n      lt\n        /* \"#utility.yul\":3663:3709   */\n      tag_303\n      jumpi\n        /* \"#utility.yul\":3689:3707   */\n      tag_304\n      tag_53\n      jump\t// in\n    tag_304:\n        /* \"#utility.yul\":3663:3709   */\n    tag_303:\n        /* \"#utility.yul\":3595:3715   */\n      pop\n      jump\t// out\n        /* \"#utility.yul\":3721:3862   */\n    tag_237:\n        /* \"#utility.yul\":3773:3780   */\n      0x00\n        /* \"#utility.yul\":3802:3807   */\n      dup2\n        /* \"#utility.yul\":3791:3807   */\n      swap1\n      pop\n        /* \"#utility.yul\":3808:3856   */\n      tag_306\n        /* \"#utility.yul\":3850:3855   */\n      dup3\n        /* \"#utility.yul\":3808:3856   */\n      tag_236\n      jump\t// in\n    tag_306:\n        /* \"#utility.yul\":3721:3862   */\n      swap2\n      swap1\n      pop\n      jump\t// out\n        /* \"#utility.yul\":3868:4009   */\n    tag_238:\n        /* \"#utility.yul\":3931:3940   */\n      0x00\n        /* \"#utility.yul\":3964:4003   */\n      tag_308\n        /* \"#utility.yul\":3997:4002   */\n      dup3\n        /* \"#utility.yul\":3964:4003   */\n      tag_237\n      jump\t// in\n    tag_308:\n        /* \"#utility.yul\":3951:4003   */\n      swap1\n      pop\n        /* \"#utility.yul\":3868:4009   */\n      swap2\n      swap1\n      pop\n      jump\t// out\n        /* \"#utility.yul\":4015:4162   */\n    tag_239:\n        /* \"#utility.yul\":4105:4155   */\n      tag_310\n        /* \"#utility.yul\":4149:4154   */\n      dup2\n        /* \"#utility.yul\":4105:4155   */\n      tag_238\n      jump\t// in\n    tag_310:\n        /* \"#utility.yul\":4100:4103   */\n      dup3\n        /* \"#utility.yul\":4093:4156   */\n      mstore\n        /* \"#utility.yul\":4015:4162   */\n      pop\n      pop\n      jump\t// out\n        /* \"#utility.yul\":4226:5101   */\n    tag_240:\n        /* \"#utility.yul\":4377:4381   */\n      0x80\n        /* \"#utility.yul\":4372:4375   */\n      dup3\n        /* \"#utility.yul\":4368:4382   */\n      add\n        /* \"#utility.yul\":4466:4470   */\n      0x00\n        /* \"#utility.yul\":4459:4464   */\n      dup3\n        /* \"#utility.yul\":4455:4471   */\n      add\n        /* \"#utility.yul\":4449:4472   */\n      mload\n        /* \"#utility.yul\":4485:4546   */\n      tag_312\n        /* \"#utility.yul\":4540:4544   */\n      0x00\n        /* \"#utility.yul\":4535:4538   */\n      dup6\n        /* \"#utility.yul\":4531:4545   */\n      add\n        /* \"#utility.yul\":4517:4529   */\n      dup3\n        /* \"#utility.yul\":4485:4546   */\n      tag_234\n      jump\t// in\n    tag_312:\n        /* \"#utility.yul\":4392:4556   */\n      pop\n        /* \"#utility.yul\":4643:4647   */\n      0x20\n        /* \"#utility.yul\":4636:4641   */\n      dup3\n        /* \"#utility.yul\":4632:4648   */\n      add\n        /* \"#utility.yul\":4626:4649   */\n      mload\n        /* \"#utility.yul\":4662:4723   */\n      tag_313\n        /* \"#utility.yul\":4717:4721   */\n      0x20\n        /* \"#utility.yul\":4712:4715   */\n      dup6\n        /* \"#utility.yul\":4708:4722   */\n      add\n        /* \"#utility.yul\":4694:4706   */\n      dup3\n        /* \"#utility.yul\":4662:4723   */\n      tag_234\n      jump\t// in\n    tag_313:\n        /* \"#utility.yul\":4566:4733   */\n      pop\n        /* \"#utility.yul\":4815:4819   */\n      0x40\n        /* \"#utility.yul\":4808:4813   */\n      dup3\n        /* \"#utility.yul\":4804:4820   */\n      add\n        /* \"#utility.yul\":4798:4821   */\n      mload\n        /* \"#utility.yul\":4834:4897   */\n      tag_314\n        /* \"#utility.yul\":4891:4895   */\n      0x40\n        /* \"#utility.yul\":4886:4889   */\n      dup6\n        /* \"#utility.yul\":4882:4896   */\n      add\n        /* \"#utility.yul\":4868:4880   */\n      dup3\n        /* \"#utility.yul\":4834:4897   */\n      tag_235\n      jump\t// in\n    tag_314:\n        /* \"#utility.yul\":4743:4907   */\n      pop\n        /* \"#utility.yul\":4989:4993   */\n      0x60\n        /* \"#utility.yul\":4982:4987   */\n      dup3\n        /* \"#utility.yul\":4978:4994   */\n      add\n        /* \"#utility.yul\":4972:4995   */\n      mload\n        /* \"#utility.yul\":5008:5084   */\n      tag_315\n        /* \"#utility.yul\":5078:5082   */\n      0x60\n        /* \"#utility.yul\":5073:5076   */\n      dup6\n        /* \"#utility.yul\":5069:5083   */\n      add\n        /* \"#utility.yul\":5055:5067   */\n      dup3\n        /* \"#utility.yul\":5008:5084   */\n      tag_239\n      jump\t// in\n    tag_315:\n        /* \"#utility.yul\":4917:5094   */\n      pop\n        /* \"#utility.yul\":4346:5101   */\n      pop\n        /* \"#utility.yul\":4226:5101   */\n      pop\n      pop\n      jump\t// out\n        /* \"#utility.yul\":5107:5544   */\n    tag_37:\n        /* \"#utility.yul\":5280:5284   */\n      0x00\n        /* \"#utility.yul\":5318:5321   */\n      0xa0\n        /* \"#utility.yul\":5307:5316   */\n      dup3\n        /* \"#utility.yul\":5303:5322   */\n      add\n        /* \"#utility.yul\":5295:5322   */\n      swap1\n      pop\n        /* \"#utility.yul\":5332:5401   */\n      tag_317\n        /* \"#utility.yul\":5398:5399   */\n      0x00\n        /* \"#utility.yul\":5387:5396   */\n      dup4\n        /* \"#utility.yul\":5383:5400   */\n      add\n        /* \"#utility.yul\":5374:5380   */\n      dup6\n        /* \"#utility.yul\":5332:5401   */\n      tag_233\n      jump\t// in\n    tag_317:\n        /* \"#utility.yul\":5411:5537   */\n      tag_318\n        /* \"#utility.yul\":5533:5535   */\n      0x20\n        /* \"#utility.yul\":5522:5531   */\n      dup4\n        /* \"#utility.yul\":5518:5536   */\n      add\n        /* \"#utility.yul\":5509:5515   */\n      dup5\n        /* \"#utility.yul\":5411:5537   */\n      tag_240\n      jump\t// in\n    tag_318:\n        /* \"#utility.yul\":5107:5544   */\n      swap4\n      swap3\n      pop\n      pop\n      pop\n      jump\t// out\n        /* \"#utility.yul\":5550:6022   */\n    tag_41:\n        /* \"#utility.yul\":5617:5623   */\n      0x00\n        /* \"#utility.yul\":5625:5631   */\n      dup1\n        /* \"#utility.yul\":5674:5676   */\n      0x40\n        /* \"#utility.yul\":5662:5671   */\n      dup4\n        /* \"#utility.yul\":5653:5660   */\n      dup6\n        /* \"#utility.yul\":5649:5672   */\n      sub\n        /* \"#utility.yul\":5645:5677   */\n      slt\n        /* \"#utility.yul\":5642:5761   */\n      iszero\n      tag_320\n      jumpi\n        /* \"#utility.yul\":5680:5759   */\n      tag_321\n      tag_220\n      jump\t// in\n    tag_321:\n        /* \"#utility.yul\":5642:5761   */\n    tag_320:\n        /* \"#utility.yul\":5800:5801   */\n      0x00\n        /* \"#utility.yul\":5825:5878   */\n      tag_322\n        /* \"#utility.yul\":5870:5877   */\n      dup6\n        /* \"#utility.yul\":5861:5867   */\n      dup3\n        /* \"#utility.yul\":5850:5859   */\n      dup7\n        /* \"#utility.yul\":5846:5868   */\n      add\n        /* \"#utility.yul\":5825:5878   */\n      tag_232\n      jump\t// in\n    tag_322:\n        /* \"#utility.yul\":5815:5878   */\n      swap3\n      pop\n        /* \"#utility.yul\":5771:5888   */\n      pop\n        /* \"#utility.yul\":5927:5929   */\n      0x20\n        /* \"#utility.yul\":5953:6005   */\n      tag_323\n        /* \"#utility.yul\":5997:6004   */\n      dup6\n        /* \"#utility.yul\":5988:5994   */\n      dup3\n        /* \"#utility.yul\":5977:5986   */\n      dup7\n        /* \"#utility.yul\":5973:5995   */\n      add\n        /* \"#utility.yul\":5953:6005   */\n      tag_224\n      jump\t// in\n    tag_323:\n        /* \"#utility.yul\":5943:6005   */\n      swap2\n      pop\n        /* \"#utility.yul\":5898:6015   */\n      pop\n        /* \"#utility.yul\":5550:6022   */\n      swap3\n      pop\n      swap3\n      swap1\n      pop\n      jump\t// out\n        /* \"#utility.yul\":6028:6208   */\n    tag_241:\n        /* \"#utility.yul\":6076:6153   */\n      0x4e487b7100000000000000000000000000000000000000000000000000000000\n        /* \"#utility.yul\":6073:6074   */\n      0x00\n        /* \"#utility.yul\":6066:6154   */\n      mstore\n        /* \"#utility.yul\":6173:6177   */\n      0x11\n        /* \"#utility.yul\":6170:6171   */\n      0x04\n        /* \"#utility.yul\":6163:6178   */\n      mstore\n        /* \"#utility.yul\":6197:6201   */\n      0x24\n        /* \"#utility.yul\":6194:6195   */\n      0x00\n        /* \"#utility.yul\":6187:6202   */\n      revert\n        /* \"#utility.yul\":6214:6489   */\n    tag_58:\n        /* \"#utility.yul\":6253:6260   */\n      0x00\n        /* \"#utility.yul\":6276:6295   */\n      tag_326\n        /* \"#utility.yul\":6293:6294   */\n      dup3\n        /* \"#utility.yul\":6276:6295   */\n      tag_222\n      jump\t// in\n    tag_326:\n        /* \"#utility.yul\":6271:6295   */\n      swap2\n      pop\n        /* \"#utility.yul\":6309:6328   */\n      tag_327\n        /* \"#utility.yul\":6326:6327   */\n      dup4\n        /* \"#utility.yul\":6309:6328   */\n      tag_222\n      jump\t// in\n    tag_327:\n        /* \"#utility.yul\":6304:6328   */\n      swap3\n      pop\n        /* \"#utility.yul\":6363:6364   */\n      dup3\n        /* \"#utility.yul\":6360:6361   */\n      dup3\n        /* \"#utility.yul\":6356:6365   */\n      mul\n        /* \"#utility.yul\":6385:6414   */\n      tag_328\n        /* \"#utility.yul\":6402:6413   */\n      dup2\n        /* \"#utility.yul\":6385:6414   */\n      tag_222\n      jump\t// in\n    tag_328:\n        /* \"#utility.yul\":6374:6414   */\n      swap2\n      pop\n        /* \"#utility.yul\":6446:6457   */\n      dup1\n        /* \"#utility.yul\":6437:6444   */\n      dup3\n        /* \"#utility.yul\":6434:6458   */\n      eq\n        /* \"#utility.yul\":6424:6482   */\n      tag_329\n      jumpi\n        /* \"#utility.yul\":6462:6480   */\n      tag_330\n      tag_241\n      jump\t// in\n    tag_330:\n        /* \"#utility.yul\":6424:6482   */\n    tag_329:\n        /* \"#utility.yul\":6261:6489   */\n      pop\n        /* \"#utility.yul\":6214:6489   */\n      swap3\n      swap2\n      pop\n      pop\n      jump\t// out\n        /* \"#utility.yul\":6495:6652   */\n    tag_242:\n        /* \"#utility.yul\":6595:6645   */\n      tag_332\n        /* \"#utility.yul\":6639:6644   */\n      dup2\n        /* \"#utility.yul\":6595:6645   */\n      tag_238\n      jump\t// in\n    tag_332:\n        /* \"#utility.yul\":6590:6593   */\n      dup3\n        /* \"#utility.yul\":6583:6646   */\n      mstore\n        /* \"#utility.yul\":6495:6652   */\n      pop\n      pop\n      jump\t// out\n        /* \"#utility.yul\":6658:7229   */\n    tag_63:\n        /* \"#utility.yul\":6844:6848   */\n      0x00\n        /* \"#utility.yul\":6882:6885   */\n      0x80\n        /* \"#utility.yul\":6871:6880   */\n      dup3\n        /* \"#utility.yul\":6867:6886   */\n      add\n        /* \"#utility.yul\":6859:6886   */\n      swap1\n      pop\n        /* \"#utility.yul\":6896:6967   */\n      tag_334\n        /* \"#utility.yul\":6964:6965   */\n      0x00\n        /* \"#utility.yul\":6953:6962   */\n      dup4\n        /* \"#utility.yul\":6949:6966   */\n      add\n        /* \"#utility.yul\":6940:6946   */\n      dup8\n        /* \"#utility.yul\":6896:6967   */\n      tag_230\n      jump\t// in\n    tag_334:\n        /* \"#utility.yul\":6977:7047   */\n      tag_335\n        /* \"#utility.yul\":7043:7045   */\n      0x20\n        /* \"#utility.yul\":7032:7041   */\n      dup4\n        /* \"#utility.yul\":7028:7046   */\n      add\n        /* \"#utility.yul\":7019:7025   */\n      dup7\n        /* \"#utility.yul\":6977:7047   */\n      tag_233\n      jump\t// in\n    tag_335:\n        /* \"#utility.yul\":7057:7127   */\n      tag_336\n        /* \"#utility.yul\":7123:7125   */\n      0x40\n        /* \"#utility.yul\":7112:7121   */\n      dup4\n        /* \"#utility.yul\":7108:7126   */\n      add\n        /* \"#utility.yul\":7099:7105   */\n      dup6\n        /* \"#utility.yul\":7057:7127   */\n      tag_233\n      jump\t// in\n    tag_336:\n        /* \"#utility.yul\":7137:7222   */\n      tag_337\n        /* \"#utility.yul\":7218:7220   */\n      0x60\n        /* \"#utility.yul\":7207:7216   */\n      dup4\n        /* \"#utility.yul\":7203:7221   */\n      add\n        /* \"#utility.yul\":7194:7200   */\n      dup5\n        /* \"#utility.yul\":7137:7222   */\n      tag_242\n      jump\t// in\n    tag_337:\n        /* \"#utility.yul\":6658:7229   */\n      swap6\n      swap5\n      pop\n      pop\n      pop\n      pop\n      pop\n      jump\t// out\n        /* \"#utility.yul\":7235:7435   */\n    tag_89:\n        /* \"#utility.yul\":7274:7278   */\n      0x00\n        /* \"#utility.yul\":7294:7313   */\n      tag_339\n        /* \"#utility.yul\":7311:7312   */\n      dup3\n        /* \"#utility.yul\":7294:7313   */\n      tag_222\n      jump\t// in\n    tag_339:\n        /* \"#utility.yul\":7289:7313   */\n      swap2\n      pop\n        /* \"#utility.yul\":7327:7346   */\n      tag_340\n        /* \"#utility.yul\":7344:7345   */\n      dup4\n        /* \"#utility.yul\":7327:7346   */\n      tag_222\n      jump\t// in\n    tag_340:\n        /* \"#utility.yul\":7322:7346   */\n      swap3\n      pop\n        /* \"#utility.yul\":7370:7371   */\n      dup3\n        /* \"#utility.yul\":7367:7368   */\n      dup3\n        /* \"#utility.yul\":7363:7372   */\n      sub\n        /* \"#utility.yul\":7355:7372   */\n      swap1\n      pop\n        /* \"#utility.yul\":7394:7404   */\n      0xffffffff\n        /* \"#utility.yul\":7388:7392   */\n      dup2\n        /* \"#utility.yul\":7385:7405   */\n      gt\n        /* \"#utility.yul\":7382:7428   */\n      iszero\n      tag_341\n      jumpi\n        /* \"#utility.yul\":7408:7426   */\n      tag_342\n      tag_241\n      jump\t// in\n    tag_342:\n        /* \"#utility.yul\":7382:7428   */\n    tag_341:\n        /* \"#utility.yul\":7235:7435   */\n      swap3\n      swap2\n      pop\n      pop\n      jump\t// out\n        /* \"#utility.yul\":7441:7638   */\n    tag_91:\n        /* \"#utility.yul\":7480:7483   */\n      0x00\n        /* \"#utility.yul\":7499:7518   */\n      tag_344\n        /* \"#utility.yul\":7516:7517   */\n      dup3\n        /* \"#utility.yul\":7499:7518   */\n      tag_222\n      jump\t// in\n    tag_344:\n        /* \"#utility.yul\":7494:7518   */\n      swap2\n      pop\n        /* \"#utility.yul\":7532:7551   */\n      tag_345\n        /* \"#utility.yul\":7549:7550   */\n      dup4\n        /* \"#utility.yul\":7532:7551   */\n      tag_222\n      jump\t// in\n    tag_345:\n        /* \"#utility.yul\":7527:7551   */\n      swap3\n      pop\n        /* \"#utility.yul\":7574:7575   */\n      dup3\n        /* \"#utility.yul\":7571:7572   */\n      dup3\n        /* \"#utility.yul\":7567:7576   */\n      add\n        /* \"#utility.yul\":7560:7576   */\n      swap1\n      pop\n        /* \"#utility.yul\":7597:7607   */\n      0xffffffff\n        /* \"#utility.yul\":7592:7595   */\n      dup2\n        /* \"#utility.yul\":7589:7608   */\n      gt\n        /* \"#utility.yul\":7586:7631   */\n      iszero\n      tag_346\n      jumpi\n        /* \"#utility.yul\":7611:7629   */\n      tag_347\n      tag_241\n      jump\t// in\n    tag_347:\n        /* \"#utility.yul\":7586:7631   */\n    tag_346:\n        /* \"#utility.yul\":7441:7638   */\n      swap3\n      swap2\n      pop\n      pop\n      jump\t// out\n        /* \"#utility.yul\":7644:7824   */\n    tag_94:\n        /* \"#utility.yul\":7692:7769   */\n      0x4e487b7100000000000000000000000000000000000000000000000000000000\n        /* \"#utility.yul\":7689:7690   */\n      0x00\n        /* \"#utility.yul\":7682:7770   */\n      mstore\n        /* \"#utility.yul\":7789:7793   */\n      0x01\n        /* \"#utility.yul\":7786:7787   */\n      0x04\n        /* \"#utility.yul\":7779:7794   */\n      mstore\n        /* \"#utility.yul\":7813:7817   */\n      0x24\n        /* \"#utility.yul\":7810:7811   */\n      0x00\n        /* \"#utility.yul\":7803:7818   */\n      revert\n        /* \"#utility.yul\":7830:7999   */\n    tag_243:\n        /* \"#utility.yul\":7914:7925   */\n      0x00\n        /* \"#utility.yul\":7948:7954   */\n      dup3\n        /* \"#utility.yul\":7943:7946   */\n      dup3\n        /* \"#utility.yul\":7936:7955   */\n      mstore\n        /* \"#utility.yul\":7988:7992   */\n      0x20\n        /* \"#utility.yul\":7983:7986   */\n      dup3\n        /* \"#utility.yul\":7979:7993   */\n      add\n        /* \"#utility.yul\":7964:7993   */\n      swap1\n      pop\n        /* \"#utility.yul\":7830:7999   */\n      swap3\n      swap2\n      pop\n      pop\n      jump\t// out\n        /* \"#utility.yul\":8005:8179   */\n    tag_244:\n        /* \"#utility.yul\":8145:8171   */\n      0x43616c6c6572206973206e6f7420617574686f72697a65640000000000000000\n        /* \"#utility.yul\":8141:8142   */\n      0x00\n        /* \"#utility.yul\":8133:8139   */\n      dup3\n        /* \"#utility.yul\":8129:8143   */\n      add\n        /* \"#utility.yul\":8122:8172   */\n      mstore\n        /* \"#utility.yul\":8005:8179   */\n      pop\n      jump\t// out\n        /* \"#utility.yul\":8185:8551   */\n    tag_245:\n        /* \"#utility.yul\":8327:8330   */\n      0x00\n        /* \"#utility.yul\":8348:8415   */\n      tag_352\n        /* \"#utility.yul\":8412:8414   */\n      0x18\n        /* \"#utility.yul\":8407:8410   */\n      dup4\n        /* \"#utility.yul\":8348:8415   */\n      tag_243\n      jump\t// in\n    tag_352:\n        /* \"#utility.yul\":8341:8415   */\n      swap2\n      pop\n        /* \"#utility.yul\":8424:8517   */\n      tag_353\n        /* \"#utility.yul\":8513:8516   */\n      dup3\n        /* \"#utility.yul\":8424:8517   */\n      tag_244\n      jump\t// in\n    tag_353:\n        /* \"#utility.yul\":8542:8544   */\n      0x20\n        /* \"#utility.yul\":8537:8540   */\n      dup3\n        /* \"#utility.yul\":8533:8545   */\n      add\n        /* \"#utility.yul\":8526:8545   */\n      swap1\n      pop\n        /* \"#utility.yul\":8185:8551   */\n      swap2\n      swap1\n      pop\n      jump\t// out\n        /* \"#utility.yul\":8557:8976   */\n    tag_98:\n        /* \"#utility.yul\":8723:8727   */\n      0x00\n        /* \"#utility.yul\":8761:8763   */\n      0x20\n        /* \"#utility.yul\":8750:8759   */\n      dup3\n        /* \"#utility.yul\":8746:8764   */\n      add\n        /* \"#utility.yul\":8738:8764   */\n      swap1\n      pop\n        /* \"#utility.yul\":8810:8819   */\n      dup2\n        /* \"#utility.yul\":8804:8808   */\n      dup2\n        /* \"#utility.yul\":8800:8820   */\n      sub\n        /* \"#utility.yul\":8796:8797   */\n      0x00\n        /* \"#utility.yul\":8785:8794   */\n      dup4\n        /* \"#utility.yul\":8781:8798   */\n      add\n        /* \"#utility.yul\":8774:8821   */\n      mstore\n        /* \"#utility.yul\":8838:8969   */\n      tag_355\n        /* \"#utility.yul\":8964:8968   */\n      dup2\n        /* \"#utility.yul\":8838:8969   */\n      tag_245\n      jump\t// in\n    tag_355:\n        /* \"#utility.yul\":8830:8969   */\n      swap1\n      pop\n        /* \"#utility.yul\":8557:8976   */\n      swap2\n      swap1\n      pop\n      jump\t// out\n        /* \"#utility.yul\":8982:9157   */\n    tag_246:\n        /* \"#utility.yul\":9122:9149   */\n      0x496e76616c6964206e6577206f776e6572206164647265737300000000000000\n        /* \"#utility.yul\":9118:9119   */\n      0x00\n        /* \"#utility.yul\":9110:9116   */\n      dup3\n        /* \"#utility.yul\":9106:9120   */\n      add\n        /* \"#utility.yul\":9099:9150   */\n      mstore\n        /* \"#utility.yul\":8982:9157   */\n      pop\n      jump\t// out\n        /* \"#utility.yul\":9163:9529   */\n    tag_247:\n        /* \"#utility.yul\":9305:9308   */\n      0x00\n        /* \"#utility.yul\":9326:9393   */\n      tag_358\n        /* \"#utility.yul\":9390:9392   */\n      0x19\n        /* \"#utility.yul\":9385:9388   */\n      dup4\n        /* \"#utility.yul\":9326:9393   */\n      tag_243\n      jump\t// in\n    tag_358:\n        /* \"#utility.yul\":9319:9393   */\n      swap2\n      pop\n        /* \"#utility.yul\":9402:9495   */\n      tag_359\n        /* \"#utility.yul\":9491:9494   */\n      dup3\n        /* \"#utility.yul\":9402:9495   */\n      tag_246\n      jump\t// in\n    tag_359:\n        /* \"#utility.yul\":9520:9522   */\n      0x20\n        /* \"#utility.yul\":9515:9518   */\n      dup3\n        /* \"#utility.yul\":9511:9523   */\n      add\n        /* \"#utility.yul\":9504:9523   */\n      swap1\n      pop\n        /* \"#utility.yul\":9163:9529   */\n      swap2\n      swap1\n      pop\n      jump\t// out\n        /* \"#utility.yul\":9535:9954   */\n    tag_102:\n        /* \"#utility.yul\":9701:9705   */\n      0x00\n        /* \"#utility.yul\":9739:9741   */\n      0x20\n        /* \"#utility.yul\":9728:9737   */\n      dup3\n        /* \"#utility.yul\":9724:9742   */\n      add\n        /* \"#utility.yul\":9716:9742   */\n      swap1\n      pop\n        /* \"#utility.yul\":9788:9797   */\n      dup2\n        /* \"#utility.yul\":9782:9786   */\n      dup2\n        /* \"#utility.yul\":9778:9798   */\n      sub\n        /* \"#utility.yul\":9774:9775   */\n      0x00\n        /* \"#utility.yul\":9763:9772   */\n      dup4\n        /* \"#utility.yul\":9759:9776   */\n      add\n        /* \"#utility.yul\":9752:9799   */\n      mstore\n        /* \"#utility.yul\":9816:9947   */\n      tag_361\n        /* \"#utility.yul\":9942:9946   */\n      dup2\n        /* \"#utility.yul\":9816:9947   */\n      tag_247\n      jump\t// in\n    tag_361:\n        /* \"#utility.yul\":9808:9947   */\n      swap1\n      pop\n        /* \"#utility.yul\":9535:9954   */\n      swap2\n      swap1\n      pop\n      jump\t// out\n        /* \"#utility.yul\":9960:10154   */\n    tag_122:\n        /* \"#utility.yul\":10000:10004   */\n      0x00\n        /* \"#utility.yul\":10020:10040   */\n      tag_363\n        /* \"#utility.yul\":10038:10039   */\n      dup3\n        /* \"#utility.yul\":10020:10040   */\n      tag_225\n      jump\t// in\n    tag_363:\n        /* \"#utility.yul\":10015:10040   */\n      swap2\n      pop\n        /* \"#utility.yul\":10054:10074   */\n      tag_364\n        /* \"#utility.yul\":10072:10073   */\n      dup4\n        /* \"#utility.yul\":10054:10074   */\n      tag_225\n      jump\t// in\n    tag_364:\n        /* \"#utility.yul\":10049:10074   */\n      swap3\n      pop\n        /* \"#utility.yul\":10098:10099   */\n      dup3\n        /* \"#utility.yul\":10095:10096   */\n      dup3\n        /* \"#utility.yul\":10091:10100   */\n      sub\n        /* \"#utility.yul\":10083:10100   */\n      swap1\n      pop\n        /* \"#utility.yul\":10122:10123   */\n      dup2\n        /* \"#utility.yul\":10116:10120   */\n      dup2\n        /* \"#utility.yul\":10113:10124   */\n      gt\n        /* \"#utility.yul\":10110:10147   */\n      iszero\n      tag_365\n      jumpi\n        /* \"#utility.yul\":10127:10145   */\n      tag_366\n      tag_241\n      jump\t// in\n    tag_366:\n        /* \"#utility.yul\":10110:10147   */\n    tag_365:\n        /* \"#utility.yul\":9960:10154   */\n      swap3\n      swap2\n      pop\n      pop\n      jump\t// out\n        /* \"#utility.yul\":10160:10340   */\n    tag_125:\n        /* \"#utility.yul\":10208:10285   */\n      0x4e487b7100000000000000000000000000000000000000000000000000000000\n        /* \"#utility.yul\":10205:10206   */\n      0x00\n        /* \"#utility.yul\":10198:10286   */\n      mstore\n        /* \"#utility.yul\":10305:10309   */\n      0x32\n        /* \"#utility.yul\":10302:10303   */\n      0x04\n        /* \"#utility.yul\":10295:10310   */\n      mstore\n        /* \"#utility.yul\":10329:10333   */\n      0x24\n        /* \"#utility.yul\":10326:10327   */\n      0x00\n        /* \"#utility.yul\":10319:10334   */\n      revert\n        /* \"#utility.yul\":10346:10517   */\n    tag_137:\n        /* \"#utility.yul\":10385:10388   */\n      0x00\n        /* \"#utility.yul\":10408:10432   */\n      tag_369\n        /* \"#utility.yul\":10426:10431   */\n      dup3\n        /* \"#utility.yul\":10408:10432   */\n      tag_225\n      jump\t// in\n    tag_369:\n        /* \"#utility.yul\":10399:10432   */\n      swap2\n      pop\n        /* \"#utility.yul\":10454:10458   */\n      0x00\n        /* \"#utility.yul\":10447:10452   */\n      dup3\n        /* \"#utility.yul\":10444:10459   */\n      sub\n        /* \"#utility.yul\":10441:10482   */\n      tag_370\n      jumpi\n        /* \"#utility.yul\":10462:10480   */\n      tag_371\n      tag_241\n      jump\t// in\n    tag_371:\n        /* \"#utility.yul\":10441:10482   */\n    tag_370:\n        /* \"#utility.yul\":10509:10510   */\n      0x01\n        /* \"#utility.yul\":10502:10507   */\n      dup3\n        /* \"#utility.yul\":10498:10511   */\n      sub\n        /* \"#utility.yul\":10491:10511   */\n      swap1\n      pop\n        /* \"#utility.yul\":10346:10517   */\n      swap2\n      swap1\n      pop\n      jump\t// out\n        /* \"#utility.yul\":10523:10641   */\n    tag_248:\n        /* \"#utility.yul\":10610:10634   */\n      tag_373\n        /* \"#utility.yul\":10628:10633   */\n      dup2\n        /* \"#utility.yul\":10610:10634   */\n      tag_225\n      jump\t// in\n    tag_373:\n        /* \"#utility.yul\":10605:10608   */\n      dup3\n        /* \"#utility.yul\":10598:10635   */\n      mstore\n        /* \"#utility.yul\":10523:10641   */\n      pop\n      pop\n      jump\t// out\n        /* \"#utility.yul\":10647:11192   */\n    tag_141:\n        /* \"#utility.yul\":10820:10824   */\n      0x00\n        /* \"#utility.yul\":10858:10861   */\n      0x80\n        /* \"#utility.yul\":10847:10856   */\n      dup3\n        /* \"#utility.yul\":10843:10862   */\n      add\n        /* \"#utility.yul\":10835:10862   */\n      swap1\n      pop\n        /* \"#utility.yul\":10872:10943   */\n      tag_375\n        /* \"#utility.yul\":10940:10941   */\n      0x00\n        /* \"#utility.yul\":10929:10938   */\n      dup4\n        /* \"#utility.yul\":10925:10942   */\n      add\n        /* \"#utility.yul\":10916:10922   */\n      dup8\n        /* \"#utility.yul\":10872:10943   */\n      tag_230\n      jump\t// in\n    tag_375:\n        /* \"#utility.yul\":10953:11023   */\n      tag_376\n        /* \"#utility.yul\":11019:11021   */\n      0x20\n        /* \"#utility.yul\":11008:11017   */\n      dup4\n        /* \"#utility.yul\":11004:11022   */\n      add\n        /* \"#utility.yul\":10995:11001   */\n      dup7\n        /* \"#utility.yul\":10953:11023   */\n      tag_233\n      jump\t// in\n    tag_376:\n        /* \"#utility.yul\":11033:11103   */\n      tag_377\n        /* \"#utility.yul\":11099:11101   */\n      0x40\n        /* \"#utility.yul\":11088:11097   */\n      dup4\n        /* \"#utility.yul\":11084:11102   */\n      add\n        /* \"#utility.yul\":11075:11081   */\n      dup6\n        /* \"#utility.yul\":11033:11103   */\n      tag_233\n      jump\t// in\n    tag_377:\n        /* \"#utility.yul\":11113:11185   */\n      tag_378\n        /* \"#utility.yul\":11181:11183   */\n      0x60\n        /* \"#utility.yul\":11170:11179   */\n      dup4\n        /* \"#utility.yul\":11166:11184   */\n      add\n        /* \"#utility.yul\":11157:11163   */\n      dup5\n        /* \"#utility.yul\":11113:11185   */\n      tag_248\n      jump\t// in\n    tag_378:\n        /* \"#utility.yul\":10647:11192   */\n      swap6\n      swap5\n      pop\n      pop\n      pop\n      pop\n      pop\n      jump\t// out\n        /* \"#utility.yul\":11198:11880   */\n    tag_180:\n        /* \"#utility.yul\":11412:11416   */\n      0x00\n        /* \"#utility.yul\":11450:11453   */\n      0xa0\n        /* \"#utility.yul\":11439:11448   */\n      dup3\n        /* \"#utility.yul\":11435:11454   */\n      add\n        /* \"#utility.yul\":11427:11454   */\n      swap1\n      pop\n        /* \"#utility.yul\":11464:11535   */\n      tag_380\n        /* \"#utility.yul\":11532:11533   */\n      0x00\n        /* \"#utility.yul\":11521:11530   */\n      dup4\n        /* \"#utility.yul\":11517:11534   */\n      add\n        /* \"#utility.yul\":11508:11514   */\n      dup9\n        /* \"#utility.yul\":11464:11535   */\n      tag_230\n      jump\t// in\n    tag_380:\n        /* \"#utility.yul\":11545:11615   */\n      tag_381\n        /* \"#utility.yul\":11611:11613   */\n      0x20\n        /* \"#utility.yul\":11600:11609   */\n      dup4\n        /* \"#utility.yul\":11596:11614   */\n      add\n        /* \"#utility.yul\":11587:11593   */\n      dup8\n        /* \"#utility.yul\":11545:11615   */\n      tag_233\n      jump\t// in\n    tag_381:\n        /* \"#utility.yul\":11625:11695   */\n      tag_382\n        /* \"#utility.yul\":11691:11693   */\n      0x40\n        /* \"#utility.yul\":11680:11689   */\n      dup4\n        /* \"#utility.yul\":11676:11694   */\n      add\n        /* \"#utility.yul\":11667:11673   */\n      dup7\n        /* \"#utility.yul\":11625:11695   */\n      tag_233\n      jump\t// in\n    tag_382:\n        /* \"#utility.yul\":11705:11777   */\n      tag_383\n        /* \"#utility.yul\":11773:11775   */\n      0x60\n        /* \"#utility.yul\":11762:11771   */\n      dup4\n        /* \"#utility.yul\":11758:11776   */\n      add\n        /* \"#utility.yul\":11749:11755   */\n      dup6\n        /* \"#utility.yul\":11705:11777   */\n      tag_248\n      jump\t// in\n    tag_383:\n        /* \"#utility.yul\":11787:11873   */\n      tag_384\n        /* \"#utility.yul\":11868:11871   */\n      0x80\n        /* \"#utility.yul\":11857:11866   */\n      dup4\n        /* \"#utility.yul\":11853:11872   */\n      add\n        /* \"#utility.yul\":11844:11850   */\n      dup5\n        /* \"#utility.yul\":11787:11873   */\n      tag_242\n      jump\t// in\n    tag_384:\n        /* \"#utility.yul\":11198:11880   */\n      swap7\n      swap6\n      pop\n      pop\n      pop\n      pop\n      pop\n      pop\n      jump\t// out\n        /* \"#utility.yul\":11886:12033   */\n    tag_249:\n        /* \"#utility.yul\":11987:11998   */\n      0x00\n        /* \"#utility.yul\":12024:12027   */\n      dup2\n        /* \"#utility.yul\":12009:12027   */\n      swap1\n      pop\n        /* \"#utility.yul\":11886:12033   */\n      swap3\n      swap2\n      pop\n      pop\n      jump\t// out\n        /* \"#utility.yul\":12039:12153   */\n    tag_250:\n      pop\n      jump\t// out\n        /* \"#utility.yul\":12159:12557   */\n    tag_251:\n        /* \"#utility.yul\":12318:12321   */\n      0x00\n        /* \"#utility.yul\":12339:12422   */\n      tag_388\n        /* \"#utility.yul\":12420:12421   */\n      0x00\n        /* \"#utility.yul\":12415:12418   */\n      dup4\n        /* \"#utility.yul\":12339:12422   */\n      tag_249\n      jump\t// in\n    tag_388:\n        /* \"#utility.yul\":12332:12422   */\n      swap2\n      pop\n        /* \"#utility.yul\":12431:12524   */\n      tag_389\n        /* \"#utility.yul\":12520:12523   */\n      dup3\n        /* \"#utility.yul\":12431:12524   */\n      tag_250\n      jump\t// in\n    tag_389:\n        /* \"#utility.yul\":12549:12550   */\n      0x00\n        /* \"#utility.yul\":12544:12547   */\n      dup3\n        /* \"#utility.yul\":12540:12551   */\n      add\n        /* \"#utility.yul\":12533:12551   */\n      swap1\n      pop\n        /* \"#utility.yul\":12159:12557   */\n      swap2\n      swap1\n      pop\n      jump\t// out\n        /* \"#utility.yul\":12563:12942   */\n    tag_183:\n        /* \"#utility.yul\":12747:12750   */\n      0x00\n        /* \"#utility.yul\":12769:12916   */\n      tag_391\n        /* \"#utility.yul\":12912:12915   */\n      dup3\n        /* \"#utility.yul\":12769:12916   */\n      tag_251\n      jump\t// in\n    tag_391:\n        /* \"#utility.yul\":12762:12916   */\n      swap2\n      pop\n        /* \"#utility.yul\":12933:12936   */\n      dup2\n        /* \"#utility.yul\":12926:12936   */\n      swap1\n      pop\n        /* \"#utility.yul\":12563:12942   */\n      swap2\n      swap1\n      pop\n      jump\t// out\n        /* \"#utility.yul\":12948:13118   */\n    tag_252:\n        /* \"#utility.yul\":13088:13110   */\n      0x4661696c656420746f2073656e64204574686572000000000000000000000000\n        /* \"#utility.yul\":13084:13085   */\n      0x00\n        /* \"#utility.yul\":13076:13082   */\n      dup3\n        /* \"#utility.yul\":13072:13086   */\n      add\n        /* \"#utility.yul\":13065:13111   */\n      mstore\n        /* \"#utility.yul\":12948:13118   */\n      pop\n      jump\t// out\n        /* \"#utility.yul\":13124:13490   */\n    tag_253:\n        /* \"#utility.yul\":13266:13269   */\n      0x00\n        /* \"#utility.yul\":13287:13354   */\n      tag_394\n        /* \"#utility.yul\":13351:13353   */\n      0x14\n        /* \"#utility.yul\":13346:13349   */\n      dup4\n        /* \"#utility.yul\":13287:13354   */\n      tag_243\n      jump\t// in\n    tag_394:\n        /* \"#utility.yul\":13280:13354   */\n      swap2\n      pop\n        /* \"#utility.yul\":13363:13456   */\n      tag_395\n        /* \"#utility.yul\":13452:13455   */\n      dup3\n        /* \"#utility.yul\":13363:13456   */\n      tag_252\n      jump\t// in\n    tag_395:\n        /* \"#utility.yul\":13481:13483   */\n      0x20\n        /* \"#utility.yul\":13476:13479   */\n      dup3\n        /* \"#utility.yul\":13472:13484   */\n      add\n        /* \"#utility.yul\":13465:13484   */\n      swap1\n      pop\n        /* \"#utility.yul\":13124:13490   */\n      swap2\n      swap1\n      pop\n      jump\t// out\n        /* \"#utility.yul\":13496:13915   */\n    tag_189:\n        /* \"#utility.yul\":13662:13666   */\n      0x00\n        /* \"#utility.yul\":13700:13702   */\n      0x20\n        /* \"#utility.yul\":13689:13698   */\n      dup3\n        /* \"#utility.yul\":13685:13703   */\n      add\n        /* \"#utility.yul\":13677:13703   */\n      swap1\n      pop\n        /* \"#utility.yul\":13749:13758   */\n      dup2\n        /* \"#utility.yul\":13743:13747   */\n      dup2\n        /* \"#utility.yul\":13739:13759   */\n      sub\n        /* \"#utility.yul\":13735:13736   */\n      0x00\n        /* \"#utility.yul\":13724:13733   */\n      dup4\n        /* \"#utility.yul\":13720:13737   */\n      add\n        /* \"#utility.yul\":13713:13760   */\n      mstore\n        /* \"#utility.yul\":13777:13908   */\n      tag_397\n        /* \"#utility.yul\":13903:13907   */\n      dup2\n        /* \"#utility.yul\":13777:13908   */\n      tag_253\n      jump\t// in\n    tag_397:\n        /* \"#utility.yul\":13769:13908   */\n      swap1\n      pop\n        /* \"#utility.yul\":13496:13915   */\n      swap2\n      swap1\n      pop\n      jump\t// out\n        /* \"#utility.yul\":13921:14112   */\n    tag_206:\n        /* \"#utility.yul\":13961:13964   */\n      0x00\n        /* \"#utility.yul\":13980:14000   */\n      tag_399\n        /* \"#utility.yul\":13998:13999   */\n      dup3\n        /* \"#utility.yul\":13980:14000   */\n      tag_225\n      jump\t// in\n    tag_399:\n        /* \"#utility.yul\":13975:14000   */\n      swap2\n      pop\n        /* \"#utility.yul\":14014:14034   */\n      tag_400\n        /* \"#utility.yul\":14032:14033   */\n      dup4\n        /* \"#utility.yul\":14014:14034   */\n      tag_225\n      jump\t// in\n    tag_400:\n        /* \"#utility.yul\":14009:14034   */\n      swap3\n      pop\n        /* \"#utility.yul\":14057:14058   */\n      dup3\n        /* \"#utility.yul\":14054:14055   */\n      dup3\n        /* \"#utility.yul\":14050:14059   */\n      add\n        /* \"#utility.yul\":14043:14059   */\n      swap1\n      pop\n        /* \"#utility.yul\":14078:14081   */\n      dup1\n        /* \"#utility.yul\":14075:14076   */\n      dup3\n        /* \"#utility.yul\":14072:14082   */\n      gt\n        /* \"#utility.yul\":14069:14105   */\n      iszero\n      tag_401\n      jumpi\n        /* \"#utility.yul\":14085:14103   */\n      tag_402\n      tag_241\n      jump\t// in\n    tag_402:\n        /* \"#utility.yul\":14069:14105   */\n    tag_401:\n        /* \"#utility.yul\":13921:14112   */\n      swap3\n      swap2\n      pop\n      pop\n      jump\t// out\n        /* \"#utility.yul\":14118:14298   */\n    tag_215:\n        /* \"#utility.yul\":14166:14243   */\n      0x4e487b7100000000000000000000000000000000000000000000000000000000\n        /* \"#utility.yul\":14163:14164   */\n      0x00\n        /* \"#utility.yul\":14156:14244   */\n      mstore\n        /* \"#utility.yul\":14263:14267   */\n      0x31\n        /* \"#utility.yul\":14260:14261   */\n      0x04\n        /* \"#utility.yul\":14253:14268   */\n      mstore\n        /* \"#utility.yul\":14287:14291   */\n      0x24\n        /* \"#utility.yul\":14284:14285   */\n      0x00\n        /* \"#utility.yul\":14277:14292   */\n      revert\n\n    auxdata: 0xa26469706673582212202ada75731fd29226aa524e8f65771673981e61c6745e7997a538fe37ee72531564736f6c63430008190033\n}\n",
				"bytecode": {
					"linkReferences": {},
					"object": "6080604052348015600e575f80fd5b50335f806101000a81548173ffffffffffffffffffffffffffffffffffffffff021916908373ffffffffffffffffffffffffffffffffffffffff160217905550633b9aca0060025f3373ffffffffffffffffffffffffffffffffffffffff1673ffffffffffffffffffffffffffffffffffffffff1681526020019081526020015f205f015f6101000a81548163ffffffff021916908363ffffffff160217905550611c95806100bc5f395ff3fe60806040526004361061007a575f3560e01c8063a87430ba1161004d578063a87430ba1461013a578063c7734ea214610177578063f58d0d5c1461019f578063fec0244c146101c75761007a565b8063314bdd221461007e578063552cb86a1461009a578063658f7fb5146100d65780636da29022146100fe575b5f80fd5b61009860048036038101906100939190611555565b6101dd565b005b3480156100a5575f80fd5b506100c060048036038101906100bb91906115c6565b6102c8565b6040516100cd9190611630565b60405180910390f35b3480156100e1575f80fd5b506100fc60048036038101906100f79190611555565b610303565b005b348015610109575f80fd5b50610124600480360381019061011f91906115c6565b610437565b6040516101319190611630565b60405180910390f35b348015610145575f80fd5b50610160600480360381019061015b9190611673565b610472565b60405161016e929190611791565b60405180910390f35b348015610182575f80fd5b5061019d600480360381019061019891906117b8565b610538565b005b3480156101aa575f80fd5b506101c560048036038101906101c09190611673565b610709565b005b3480156101d2575f80fd5b506101db610880565b005b5f60028111156101f0576101ef6116cb565b5b60025f3373ffffffffffffffffffffffffffffffffffffffff1673ffffffffffffffffffffffffffffffffffffffff1681526020019081526020015f206001016002015f9054906101000a900460ff166002811115610252576102516116cb565b5b1461025b575f80fd5b80826102679190611823565b8063ffffffff16341015610279575f80fd5b7f3b78744e8fc340acfa751485e1450da12d4ebb8e96dd11a7f80eb576b50d5ada33848460026040516102af949392919061186e565b60405180910390a16102c383836002610a09565b505050565b600481815481106102d7575f80fd5b905f5260205f20015f915054906101000a900473ffffffffffffffffffffffffffffffffffffffff1681565b5f6002811115610316576103156116cb565b5b60025f3373ffffffffffffffffffffffffffffffffffffffff1673ffffffffffffffffffffffffffffffffffffffff1681526020019081526020015f206001016002015f9054906101000a900460ff166002811115610378576103776116cb565b5b14610381575f80fd5b818063ffffffff1660025f3373ffffffffffffffffffffffffffffffffffffffff1673ffffffffffffffffffffffffffffffffffffffff1681526020019081526020015f205f015f9054906101000a900463ffffffff1663ffffffff1610156103e8575f80fd5b7f3b78744e8fc340acfa751485e1450da12d4ebb8e96dd11a7f80eb576b50d5ada338484600160405161041e949392919061186e565b60405180910390a161043283836001610a09565b505050565b60038181548110610446575f80fd5b905f5260205f20015f915054906101000a900473ffffffffffffffffffffffffffffffffffffffff1681565b6002602052805f5260405f205f91509050805f015f9054906101000a900463ffffffff1690806001016040518060800160405290815f82015f9054906101000a900463ffffffff1663ffffffff1663ffffffff1681526020015f820160049054906101000a900463ffffffff1663ffffffff1663ffffffff16815260200160018201548152602001600282015f9054906101000a900460ff16600281111561051d5761051c6116cb565b5b600281111561052f5761052e6116cb565b5b81525050905082565b808063ffffffff1660025f3373ffffffffffffffffffffffffffffffffffffffff1673ffffffffffffffffffffffffffffffffffffffff1681526020019081526020015f205f015f9054906101000a900463ffffffff1663ffffffff16101561059f575f80fd5b8160025f3373ffffffffffffffffffffffffffffffffffffffff1673ffffffffffffffffffffffffffffffffffffffff1681526020019081526020015f205f015f8282829054906101000a900463ffffffff166105fc91906118b1565b92506101000a81548163ffffffff021916908363ffffffff1602179055508160025f8573ffffffffffffffffffffffffffffffffffffffff1673ffffffffffffffffffffffffffffffffffffffff1681526020019081526020015f205f015f8282829054906101000a900463ffffffff1661067791906118e8565b92506101000a81548163ffffffff021916908363ffffffff160217905550633b9aca0063ffffffff1660025f8573ffffffffffffffffffffffffffffffffffffffff1673ffffffffffffffffffffffffffffffffffffffff1681526020019081526020015f205f015f9054906101000a900463ffffffff1663ffffffff1611156107045761070361191f565b5b505050565b5f8054906101000a900473ffffffffffffffffffffffffffffffffffffffff168073ffffffffffffffffffffffffffffffffffffffff163373ffffffffffffffffffffffffffffffffffffffff1614610797576040517f08c379a000000000000000000000000000000000000000000000000000000000815260040161078e906119a6565b60405180910390fd5b5f73ffffffffffffffffffffffffffffffffffffffff168273ffffffffffffffffffffffffffffffffffffffff1603610805576040517f08c379a00000000000000000000000000000000000000000000000000000000081526004016107fc90611a0e565b60405180910390fd5b8160015f6101000a81548173ffffffffffffffffffffffffffffffffffffffff021916908373ffffffffffffffffffffffffffffffffffffffff1602179055507f19832a487a6f78515e372937599b1b1b2ebbe5fc5c97df815263c40940ae8637826040516108749190611630565b60405180910390a15050565b60015f9054906101000a900473ffffffffffffffffffffffffffffffffffffffff168073ffffffffffffffffffffffffffffffffffffffff163373ffffffffffffffffffffffffffffffffffffffff1614610910576040517f08c379a0000000000000000000000000000000000000000000000000000000008152600401610907906119a6565b60405180910390fd5b60015f9054906101000a900473ffffffffffffffffffffffffffffffffffffffff165f806101000a81548173ffffffffffffffffffffffffffffffffffffffff021916908373ffffffffffffffffffffffffffffffffffffffff1602179055505f60015f6101000a81548173ffffffffffffffffffffffffffffffffffffffff021916908373ffffffffffffffffffffffffffffffffffffffff1602179055507fd6f3f732383b13921aa3ee045d9a478451f38cd1f6c38e26de5ea6ddc8e1d96d5f8054906101000a900473ffffffffffffffffffffffffffffffffffffffff166040516109fe9190611630565b60405180910390a150565b8060025f3373ffffffffffffffffffffffffffffffffffffffff1673ffffffffffffffffffffffffffffffffffffffff1681526020019081526020015f206001016002015f6101000a81548160ff02191690836002811115610a6e57610a6d6116cb565b5b02179055505f60016002811115610a8857610a876116cb565b5b826002811115610a9b57610a9a6116cb565b5b14610aa7576003610aaa565b60045b90505f8490505f828054905090505b5f811115610bf8575f60025f85600185610ad39190611a2c565b81548110610ae457610ae3611a5f565b5b905f5260205f20015f9054906101000a900473ffffffffffffffffffffffffffffffffffffffff1673ffffffffffffffffffffffffffffffffffffffff1673ffffffffffffffffffffffffffffffffffffffff1681526020019081526020015f2060010190508563ffffffff16815f0160049054906101000a900463ffffffff1663ffffffff1610610be457610bce84600184610b819190611a2c565b81548110610b9257610b91611a5f565b5b905f5260205f20015f9054906101000a900473ffffffffffffffffffffffffffffffffffffffff168487600186610bc99190611a2c565b610cd1565b92505f8363ffffffff1603610be35750610bf8565b5b508080610bf090611a8c565b915050610ab9565b505f8163ffffffff161115610c5f577f978d903908ccbac73ce4df3b8f236d59f6381df28e270c303112ad091add2fd8338287610c3591906118b1565b8642604051610c479493929190611ac2565b60405180910390a1610c5a818585611049565b610cca565b5f60025f3373ffffffffffffffffffffffffffffffffffffffff1673ffffffffffffffffffffffffffffffffffffffff1681526020019081526020015f206001016002015f6101000a81548160ff02191690836002811115610cc457610cc36116cb565b5b02179055505b5050505050565b5f8060025f8773ffffffffffffffffffffffffffffffffffffffff1673ffffffffffffffffffffffffffffffffffffffff1681526020019081526020015f2060010190505f815f015f9054906101000a900463ffffffff1663ffffffff168663ffffffff1610610d5357815f015f9054906101000a900463ffffffff16610d55565b855b905060016002811115610d6b57610d6a6116cb565b5b856002811115610d7e57610d7d6116cb565b5b03610ea657610dab33835f0160049054906101000a900463ffffffff1683610da69190611823565b611231565b8060025f3373ffffffffffffffffffffffffffffffffffffffff1673ffffffffffffffffffffffffffffffffffffffff1681526020019081526020015f205f015f8282829054906101000a900463ffffffff16610e0891906118b1565b92506101000a81548163ffffffff021916908363ffffffff1602179055508060025f8973ffffffffffffffffffffffffffffffffffffffff1673ffffffffffffffffffffffffffffffffffffffff1681526020019081526020015f205f015f8282829054906101000a900463ffffffff16610e8391906118e8565b92506101000a81548163ffffffff021916908363ffffffff160217905550610fc5565b610ece87835f0160049054906101000a900463ffffffff1683610ec99190611823565b611231565b8060025f3373ffffffffffffffffffffffffffffffffffffffff1673ffffffffffffffffffffffffffffffffffffffff1681526020019081526020015f205f015f8282829054906101000a900463ffffffff16610f2b91906118e8565b92506101000a81548163ffffffff021916908363ffffffff1602179055508060025f8973ffffffffffffffffffffffffffffffffffffffff1673ffffffffffffffffffffffffffffffffffffffff1681526020019081526020015f205f015f8282829054906101000a900463ffffffff16610fa691906118b1565b92506101000a81548163ffffffff021916908363ffffffff1602179055505b80825f015f8282829054906101000a900463ffffffff16610fe691906118b1565b92506101000a81548163ffffffff021916908363ffffffff1602179055505f825f015f9054906101000a900463ffffffff1663ffffffff160361102e5761102d82856112e4565b5b808661103a91906118b1565b95508592505050949350505050565b5f6001600281111561105e5761105d6116cb565b5b826002811115611071576110706116cb565b5b1461107d576004611080565b60035b90508360025f3373ffffffffffffffffffffffffffffffffffffffff1673ffffffffffffffffffffffffffffffffffffffff1681526020019081526020015f205f015f8282829054906101000a900463ffffffff166110df91906118b1565b92506101000a81548163ffffffff021916908363ffffffff1602179055508033908060018154018082558091505060019003905f5260205f20015f9091909190916101000a81548173ffffffffffffffffffffffffffffffffffffffff021916908373ffffffffffffffffffffffffffffffffffffffff1602179055505f60025f3373ffffffffffffffffffffffffffffffffffffffff1673ffffffffffffffffffffffffffffffffffffffff1681526020019081526020015f20600101905084815f015f6101000a81548163ffffffff021916908363ffffffff16021790555083815f0160046101000a81548163ffffffff021916908363ffffffff1602179055504281600101819055507f0faf6263aff7f74586f8e6848d95c85f75df0dd5b5db5948622c87c5969f795b3386864287604051611222959493929190611b05565b60405180910390a15050505050565b5f8273ffffffffffffffffffffffffffffffffffffffff168263ffffffff1660405161125c90611b83565b5f6040518083038185875af1925050503d805f8114611296576040519150601f19603f3d011682016040523d82523d5f602084013e61129b565b606091505b50509050806112df576040517f08c379a00000000000000000000000000000000000000000000000000000000081526004016112d690611be1565b60405180910390fd5b505050565b5f600160028111156112f9576112f86116cb565b5b836002015f9054906101000a900460ff16600281111561131c5761131b6116cb565b5b1461132857600461132b565b60035b90507f6279b6d8aec4b002f259a5b1769d56e8d63d6ab0895c01b4f26e8667767bf00c81838154811061136157611360611a5f565b5b905f5260205f20015f9054906101000a900473ffffffffffffffffffffffffffffffffffffffff16845f015f9054906101000a900463ffffffff16855f0160049054906101000a900463ffffffff1642876002015f9054906101000a900460ff166040516113d3959493929190611b05565b60405180910390a15f8290505b600182805490506113f19190611a2c565b8110156114a457816001826114069190611bff565b8154811061141757611416611a5f565b5b905f5260205f20015f9054906101000a900473ffffffffffffffffffffffffffffffffffffffff1682828154811061145257611451611a5f565b5b905f5260205f20015f6101000a81548173ffffffffffffffffffffffffffffffffffffffff021916908373ffffffffffffffffffffffffffffffffffffffff16021790555080806001019150506113e0565b50808054806114b6576114b5611c32565b5b600190038181905f5260205f20015f6101000a81549073ffffffffffffffffffffffffffffffffffffffff021916905590555f836002015f6101000a81548160ff0219169083600281111561150e5761150d6116cb565b5b0217905550505050565b5f80fd5b5f63ffffffff82169050919050565b6115348161151c565b811461153e575f80fd5b50565b5f8135905061154f8161152b565b92915050565b5f806040838503121561156b5761156a611518565b5b5f61157885828601611541565b925050602061158985828601611541565b9150509250929050565b5f819050919050565b6115a581611593565b81146115af575f80fd5b50565b5f813590506115c08161159c565b92915050565b5f602082840312156115db576115da611518565b5b5f6115e8848285016115b2565b91505092915050565b5f73ffffffffffffffffffffffffffffffffffffffff82169050919050565b5f61161a826115f1565b9050919050565b61162a81611610565b82525050565b5f6020820190506116435f830184611621565b92915050565b61165281611610565b811461165c575f80fd5b50565b5f8135905061166d81611649565b92915050565b5f6020828403121561168857611687611518565b5b5f6116958482850161165f565b91505092915050565b6116a78161151c565b82525050565b6116b68161151c565b82525050565b6116c581611593565b82525050565b7f4e487b71000000000000000000000000000000000000000000000000000000005f52602160045260245ffd5b60038110611709576117086116cb565b5b50565b5f819050611719826116f8565b919050565b5f6117288261170c565b9050919050565b6117388161171e565b82525050565b608082015f8201516117525f8501826116ad565b50602082015161176560208501826116ad565b50604082015161177860408501826116bc565b50606082015161178b606085018261172f565b50505050565b5f60a0820190506117a45f83018561169e565b6117b1602083018461173e565b9392505050565b5f80604083850312156117ce576117cd611518565b5b5f6117db8582860161165f565b92505060206117ec85828601611541565b9150509250929050565b7f4e487b71000000000000000000000000000000000000000000000000000000005f52601160045260245ffd5b5f61182d8261151c565b91506118388361151c565b92508282026118468161151c565b9150808214611858576118576117f6565b5b5092915050565b6118688161171e565b82525050565b5f6080820190506118815f830187611621565b61188e602083018661169e565b61189b604083018561169e565b6118a8606083018461185f565b95945050505050565b5f6118bb8261151c565b91506118c68361151c565b9250828203905063ffffffff8111156118e2576118e16117f6565b5b92915050565b5f6118f28261151c565b91506118fd8361151c565b9250828201905063ffffffff811115611919576119186117f6565b5b92915050565b7f4e487b71000000000000000000000000000000000000000000000000000000005f52600160045260245ffd5b5f82825260208201905092915050565b7f43616c6c6572206973206e6f7420617574686f72697a656400000000000000005f82015250565b5f61199060188361194c565b915061199b8261195c565b602082019050919050565b5f6020820190508181035f8301526119bd81611984565b9050919050565b7f496e76616c6964206e6577206f776e65722061646472657373000000000000005f82015250565b5f6119f860198361194c565b9150611a03826119c4565b602082019050919050565b5f6020820190508181035f830152611a25816119ec565b9050919050565b5f611a3682611593565b9150611a4183611593565b9250828203905081811115611a5957611a586117f6565b5b92915050565b7f4e487b71000000000000000000000000000000000000000000000000000000005f52603260045260245ffd5b5f611a9682611593565b91505f8203611aa857611aa76117f6565b5b600182039050919050565b611abc81611593565b82525050565b5f608082019050611ad55f830187611621565b611ae2602083018661169e565b611aef604083018561169e565b611afc6060830184611ab3565b95945050505050565b5f60a082019050611b185f830188611621565b611b25602083018761169e565b611b32604083018661169e565b611b3f6060830185611ab3565b611b4c608083018461185f565b9695505050505050565b5f81905092915050565b50565b5f611b6e5f83611b56565b9150611b7982611b60565b5f82019050919050565b5f611b8d82611b63565b9150819050919050565b7f4661696c656420746f2073656e642045746865720000000000000000000000005f82015250565b5f611bcb60148361194c565b9150611bd682611b97565b602082019050919050565b5f6020820190508181035f830152611bf881611bbf565b9050919050565b5f611c0982611593565b9150611c1483611593565b9250828201905080821115611c2c57611c2b6117f6565b5b92915050565b7f4e487b71000000000000000000000000000000000000000000000000000000005f52603160045260245ffdfea26469706673582212202ada75731fd29226aa524e8f65771673981e61c6745e7997a538fe37ee72531564736f6c63430008190033",
					"opcodes": "PUSH1 0x80 PUSH1 0x40 MSTORE CALLVALUE DUP1 ISZERO PUSH1 0xE JUMPI PUSH0 DUP1 REVERT JUMPDEST POP CALLER PUSH0 DUP1 PUSH2 0x100 EXP DUP2 SLOAD DUP2 PUSH20 0xFFFFFFFFFFFFFFFFFFFFFFFFFFFFFFFFFFFFFFFF MUL NOT AND SWAP1 DUP4 PUSH20 0xFFFFFFFFFFFFFFFFFFFFFFFFFFFFFFFFFFFFFFFF AND MUL OR SWAP1 SSTORE POP PUSH4 0x3B9ACA00 PUSH1 0x2 PUSH0 CALLER PUSH20 0xFFFFFFFFFFFFFFFFFFFFFFFFFFFFFFFFFFFFFFFF AND PUSH20 0xFFFFFFFFFFFFFFFFFFFFFFFFFFFFFFFFFFFFFFFF AND DUP2 MSTORE PUSH1 0x20 ADD SWAP1 DUP2 MSTORE PUSH1 0x20 ADD PUSH0 KECCAK256 PUSH0 ADD PUSH0 PUSH2 0x100 EXP DUP2 SLOAD DUP2 PUSH4 0xFFFFFFFF MUL NOT AND SWAP1 DUP4 PUSH4 0xFFFFFFFF AND MUL OR SWAP1 SSTORE POP PUSH2 0x1C95 DUP1 PUSH2 0xBC PUSH0 CODECOPY PUSH0 RETURN INVALID PUSH1 0x80 PUSH1 0x40 MSTORE PUSH1 0x4 CALLDATASIZE LT PUSH2 0x7A JUMPI PUSH0 CALLDATALOAD PUSH1 0xE0 SHR DUP1 PUSH4 0xA87430BA GT PUSH2 0x4D JUMPI DUP1 PUSH4 0xA87430BA EQ PUSH2 0x13A JUMPI DUP1 PUSH4 0xC7734EA2 EQ PUSH2 0x177 JUMPI DUP1 PUSH4 0xF58D0D5C EQ PUSH2 0x19F JUMPI DUP1 PUSH4 0xFEC0244C EQ PUSH2 0x1C7 JUMPI PUSH2 0x7A JUMP JUMPDEST DUP1 PUSH4 0x314BDD22 EQ PUSH2 0x7E JUMPI DUP1 PUSH4 0x552CB86A EQ PUSH2 0x9A JUMPI DUP1 PUSH4 0x658F7FB5 EQ PUSH2 0xD6 JUMPI DUP1 PUSH4 0x6DA29022 EQ PUSH2 0xFE JUMPI JUMPDEST PUSH0 DUP1 REVERT JUMPDEST PUSH2 0x98 PUSH1 0x4 DUP1 CALLDATASIZE SUB DUP2 ADD SWAP1 PUSH2 0x93 SWAP2 SWAP1 PUSH2 0x1555 JUMP JUMPDEST PUSH2 0x1DD JUMP JUMPDEST STOP JUMPDEST CALLVALUE DUP1 ISZERO PUSH2 0xA5 JUMPI PUSH0 DUP1 REVERT JUMPDEST POP PUSH2 0xC0 PUSH1 0x4 DUP1 CALLDATASIZE SUB DUP2 ADD SWAP1 PUSH2 0xBB SWAP2 SWAP1 PUSH2 0x15C6 JUMP JUMPDEST PUSH2 0x2C8 JUMP JUMPDEST PUSH1 0x40 MLOAD PUSH2 0xCD SWAP2 SWAP1 PUSH2 0x1630 JUMP JUMPDEST PUSH1 0x40 MLOAD DUP1 SWAP2 SUB SWAP1 RETURN JUMPDEST CALLVALUE DUP1 ISZERO PUSH2 0xE1 JUMPI PUSH0 DUP1 REVERT JUMPDEST POP PUSH2 0xFC PUSH1 0x4 DUP1 CALLDATASIZE SUB DUP2 ADD SWAP1 PUSH2 0xF7 SWAP2 SWAP1 PUSH2 0x1555 JUMP JUMPDEST PUSH2 0x303 JUMP JUMPDEST STOP JUMPDEST CALLVALUE DUP1 ISZERO PUSH2 0x109 JUMPI PUSH0 DUP1 REVERT JUMPDEST POP PUSH2 0x124 PUSH1 0x4 DUP1 CALLDATASIZE SUB DUP2 ADD SWAP1 PUSH2 0x11F SWAP2 SWAP1 PUSH2 0x15C6 JUMP JUMPDEST PUSH2 0x437 JUMP JUMPDEST PUSH1 0x40 MLOAD PUSH2 0x131 SWAP2 SWAP1 PUSH2 0x1630 JUMP JUMPDEST PUSH1 0x40 MLOAD DUP1 SWAP2 SUB SWAP1 RETURN JUMPDEST CALLVALUE DUP1 ISZERO PUSH2 0x145 JUMPI PUSH0 DUP1 REVERT JUMPDEST POP PUSH2 0x160 PUSH1 0x4 DUP1 CALLDATASIZE SUB DUP2 ADD SWAP1 PUSH2 0x15B SWAP2 SWAP1 PUSH2 0x1673 JUMP JUMPDEST PUSH2 0x472 JUMP JUMPDEST PUSH1 0x40 MLOAD PUSH2 0x16E SWAP3 SWAP2 SWAP1 PUSH2 0x1791 JUMP JUMPDEST PUSH1 0x40 MLOAD DUP1 SWAP2 SUB SWAP1 RETURN JUMPDEST CALLVALUE DUP1 ISZERO PUSH2 0x182 JUMPI PUSH0 DUP1 REVERT JUMPDEST POP PUSH2 0x19D PUSH1 0x4 DUP1 CALLDATASIZE SUB DUP2 ADD SWAP1 PUSH2 0x198 SWAP2 SWAP1 PUSH2 0x17B8 JUMP JUMPDEST PUSH2 0x538 JUMP JUMPDEST STOP JUMPDEST CALLVALUE DUP1 ISZERO PUSH2 0x1AA JUMPI PUSH0 DUP1 REVERT JUMPDEST POP PUSH2 0x1C5 PUSH1 0x4 DUP1 CALLDATASIZE SUB DUP2 ADD SWAP1 PUSH2 0x1C0 SWAP2 SWAP1 PUSH2 0x1673 JUMP JUMPDEST PUSH2 0x709 JUMP JUMPDEST STOP JUMPDEST CALLVALUE DUP1 ISZERO PUSH2 0x1D2 JUMPI PUSH0 DUP1 REVERT JUMPDEST POP PUSH2 0x1DB PUSH2 0x880 JUMP JUMPDEST STOP JUMPDEST PUSH0 PUSH1 0x2 DUP2 GT ISZERO PUSH2 0x1F0 JUMPI PUSH2 0x1EF PUSH2 0x16CB JUMP JUMPDEST JUMPDEST PUSH1 0x2 PUSH0 CALLER PUSH20 0xFFFFFFFFFFFFFFFFFFFFFFFFFFFFFFFFFFFFFFFF AND PUSH20 0xFFFFFFFFFFFFFFFFFFFFFFFFFFFFFFFFFFFFFFFF AND DUP2 MSTORE PUSH1 0x20 ADD SWAP1 DUP2 MSTORE PUSH1 0x20 ADD PUSH0 KECCAK256 PUSH1 0x1 ADD PUSH1 0x2 ADD PUSH0 SWAP1 SLOAD SWAP1 PUSH2 0x100 EXP SWAP1 DIV PUSH1 0xFF AND PUSH1 0x2 DUP2 GT ISZERO PUSH2 0x252 JUMPI PUSH2 0x251 PUSH2 0x16CB JUMP JUMPDEST JUMPDEST EQ PUSH2 0x25B JUMPI PUSH0 DUP1 REVERT JUMPDEST DUP1 DUP3 PUSH2 0x267 SWAP2 SWAP1 PUSH2 0x1823 JUMP JUMPDEST DUP1 PUSH4 0xFFFFFFFF AND CALLVALUE LT ISZERO PUSH2 0x279 JUMPI PUSH0 DUP1 REVERT JUMPDEST PUSH32 0x3B78744E8FC340ACFA751485E1450DA12D4EBB8E96DD11A7F80EB576B50D5ADA CALLER DUP5 DUP5 PUSH1 0x2 PUSH1 0x40 MLOAD PUSH2 0x2AF SWAP5 SWAP4 SWAP3 SWAP2 SWAP1 PUSH2 0x186E JUMP JUMPDEST PUSH1 0x40 MLOAD DUP1 SWAP2 SUB SWAP1 LOG1 PUSH2 0x2C3 DUP4 DUP4 PUSH1 0x2 PUSH2 0xA09 JUMP JUMPDEST POP POP POP JUMP JUMPDEST PUSH1 0x4 DUP2 DUP2 SLOAD DUP2 LT PUSH2 0x2D7 JUMPI PUSH0 DUP1 REVERT JUMPDEST SWAP1 PUSH0 MSTORE PUSH1 0x20 PUSH0 KECCAK256 ADD PUSH0 SWAP2 POP SLOAD SWAP1 PUSH2 0x100 EXP SWAP1 DIV PUSH20 0xFFFFFFFFFFFFFFFFFFFFFFFFFFFFFFFFFFFFFFFF AND DUP2 JUMP JUMPDEST PUSH0 PUSH1 0x2 DUP2 GT ISZERO PUSH2 0x316 JUMPI PUSH2 0x315 PUSH2 0x16CB JUMP JUMPDEST JUMPDEST PUSH1 0x2 PUSH0 CALLER PUSH20 0xFFFFFFFFFFFFFFFFFFFFFFFFFFFFFFFFFFFFFFFF AND PUSH20 0xFFFFFFFFFFFFFFFFFFFFFFFFFFFFFFFFFFFFFFFF AND DUP2 MSTORE PUSH1 0x20 ADD SWAP1 DUP2 MSTORE PUSH1 0x20 ADD PUSH0 KECCAK256 PUSH1 0x1 ADD PUSH1 0x2 ADD PUSH0 SWAP1 SLOAD SWAP1 PUSH2 0x100 EXP SWAP1 DIV PUSH1 0xFF AND PUSH1 0x2 DUP2 GT ISZERO PUSH2 0x378 JUMPI PUSH2 0x377 PUSH2 0x16CB JUMP JUMPDEST JUMPDEST EQ PUSH2 0x381 JUMPI PUSH0 DUP1 REVERT JUMPDEST DUP2 DUP1 PUSH4 0xFFFFFFFF AND PUSH1 0x2 PUSH0 CALLER PUSH20 0xFFFFFFFFFFFFFFFFFFFFFFFFFFFFFFFFFFFFFFFF AND PUSH20 0xFFFFFFFFFFFFFFFFFFFFFFFFFFFFFFFFFFFFFFFF AND DUP2 MSTORE PUSH1 0x20 ADD SWAP1 DUP2 MSTORE PUSH1 0x20 ADD PUSH0 KECCAK256 PUSH0 ADD PUSH0 SWAP1 SLOAD SWAP1 PUSH2 0x100 EXP SWAP1 DIV PUSH4 0xFFFFFFFF AND PUSH4 0xFFFFFFFF AND LT ISZERO PUSH2 0x3E8 JUMPI PUSH0 DUP1 REVERT JUMPDEST PUSH32 0x3B78744E8FC340ACFA751485E1450DA12D4EBB8E96DD11A7F80EB576B50D5ADA CALLER DUP5 DUP5 PUSH1 0x1 PUSH1 0x40 MLOAD PUSH2 0x41E SWAP5 SWAP4 SWAP3 SWAP2 SWAP1 PUSH2 0x186E JUMP JUMPDEST PUSH1 0x40 MLOAD DUP1 SWAP2 SUB SWAP1 LOG1 PUSH2 0x432 DUP4 DUP4 PUSH1 0x1 PUSH2 0xA09 JUMP JUMPDEST POP POP POP JUMP JUMPDEST PUSH1 0x3 DUP2 DUP2 SLOAD DUP2 LT PUSH2 0x446 JUMPI PUSH0 DUP1 REVERT JUMPDEST SWAP1 PUSH0 MSTORE PUSH1 0x20 PUSH0 KECCAK256 ADD PUSH0 SWAP2 POP SLOAD SWAP1 PUSH2 0x100 EXP SWAP1 DIV PUSH20 0xFFFFFFFFFFFFFFFFFFFFFFFFFFFFFFFFFFFFFFFF AND DUP2 JUMP JUMPDEST PUSH1 0x2 PUSH1 0x20 MSTORE DUP1 PUSH0 MSTORE PUSH1 0x40 PUSH0 KECCAK256 PUSH0 SWAP2 POP SWAP1 POP DUP1 PUSH0 ADD PUSH0 SWAP1 SLOAD SWAP1 PUSH2 0x100 EXP SWAP1 DIV PUSH4 0xFFFFFFFF AND SWAP1 DUP1 PUSH1 0x1 ADD PUSH1 0x40 MLOAD DUP1 PUSH1 0x80 ADD PUSH1 0x40 MSTORE SWAP1 DUP2 PUSH0 DUP3 ADD PUSH0 SWAP1 SLOAD SWAP1 PUSH2 0x100 EXP SWAP1 DIV PUSH4 0xFFFFFFFF AND PUSH4 0xFFFFFFFF AND PUSH4 0xFFFFFFFF AND DUP2 MSTORE PUSH1 0x20 ADD PUSH0 DUP3 ADD PUSH1 0x4 SWAP1 SLOAD SWAP1 PUSH2 0x100 EXP SWAP1 DIV PUSH4 0xFFFFFFFF AND PUSH4 0xFFFFFFFF AND PUSH4 0xFFFFFFFF AND DUP2 MSTORE PUSH1 0x20 ADD PUSH1 0x1 DUP3 ADD SLOAD DUP2 MSTORE PUSH1 0x20 ADD PUSH1 0x2 DUP3 ADD PUSH0 SWAP1 SLOAD SWAP1 PUSH2 0x100 EXP SWAP1 DIV PUSH1 0xFF AND PUSH1 0x2 DUP2 GT ISZERO PUSH2 0x51D JUMPI PUSH2 0x51C PUSH2 0x16CB JUMP JUMPDEST JUMPDEST PUSH1 0x2 DUP2 GT ISZERO PUSH2 0x52F JUMPI PUSH2 0x52E PUSH2 0x16CB JUMP JUMPDEST JUMPDEST DUP2 MSTORE POP POP SWAP1 POP DUP3 JUMP JUMPDEST DUP1 DUP1 PUSH4 0xFFFFFFFF AND PUSH1 0x2 PUSH0 CALLER PUSH20 0xFFFFFFFFFFFFFFFFFFFFFFFFFFFFFFFFFFFFFFFF AND PUSH20 0xFFFFFFFFFFFFFFFFFFFFFFFFFFFFFFFFFFFFFFFF AND DUP2 MSTORE PUSH1 0x20 ADD SWAP1 DUP2 MSTORE PUSH1 0x20 ADD PUSH0 KECCAK256 PUSH0 ADD PUSH0 SWAP1 SLOAD SWAP1 PUSH2 0x100 EXP SWAP1 DIV PUSH4 0xFFFFFFFF AND PUSH4 0xFFFFFFFF AND LT ISZERO PUSH2 0x59F JUMPI PUSH0 DUP1 REVERT JUMPDEST DUP2 PUSH1 0x2 PUSH0 CALLER PUSH20 0xFFFFFFFFFFFFFFFFFFFFFFFFFFFFFFFFFFFFFFFF AND PUSH20 0xFFFFFFFFFFFFFFFFFFFFFFFFFFFFFFFFFFFFFFFF AND DUP2 MSTORE PUSH1 0x20 ADD SWAP1 DUP2 MSTORE PUSH1 0x20 ADD PUSH0 KECCAK256 PUSH0 ADD PUSH0 DUP3 DUP3 DUP3 SWAP1 SLOAD SWAP1 PUSH2 0x100 EXP SWAP1 DIV PUSH4 0xFFFFFFFF AND PUSH2 0x5FC SWAP2 SWAP1 PUSH2 0x18B1 JUMP JUMPDEST SWAP3 POP PUSH2 0x100 EXP DUP2 SLOAD DUP2 PUSH4 0xFFFFFFFF MUL NOT AND SWAP1 DUP4 PUSH4 0xFFFFFFFF AND MUL OR SWAP1 SSTORE POP DUP2 PUSH1 0x2 PUSH0 DUP6 PUSH20 0xFFFFFFFFFFFFFFFFFFFFFFFFFFFFFFFFFFFFFFFF AND PUSH20 0xFFFFFFFFFFFFFFFFFFFFFFFFFFFFFFFFFFFFFFFF AND DUP2 MSTORE PUSH1 0x20 ADD SWAP1 DUP2 MSTORE PUSH1 0x20 ADD PUSH0 KECCAK256 PUSH0 ADD PUSH0 DUP3 DUP3 DUP3 SWAP1 SLOAD SWAP1 PUSH2 0x100 EXP SWAP1 DIV PUSH4 0xFFFFFFFF AND PUSH2 0x677 SWAP2 SWAP1 PUSH2 0x18E8 JUMP JUMPDEST SWAP3 POP PUSH2 0x100 EXP DUP2 SLOAD DUP2 PUSH4 0xFFFFFFFF MUL NOT AND SWAP1 DUP4 PUSH4 0xFFFFFFFF AND MUL OR SWAP1 SSTORE POP PUSH4 0x3B9ACA00 PUSH4 0xFFFFFFFF AND PUSH1 0x2 PUSH0 DUP6 PUSH20 0xFFFFFFFFFFFFFFFFFFFFFFFFFFFFFFFFFFFFFFFF AND PUSH20 0xFFFFFFFFFFFFFFFFFFFFFFFFFFFFFFFFFFFFFFFF AND DUP2 MSTORE PUSH1 0x20 ADD SWAP1 DUP2 MSTORE PUSH1 0x20 ADD PUSH0 KECCAK256 PUSH0 ADD PUSH0 SWAP1 SLOAD SWAP1 PUSH2 0x100 EXP SWAP1 DIV PUSH4 0xFFFFFFFF AND PUSH4 0xFFFFFFFF AND GT ISZERO PUSH2 0x704 JUMPI PUSH2 0x703 PUSH2 0x191F JUMP JUMPDEST JUMPDEST POP POP POP JUMP JUMPDEST PUSH0 DUP1 SLOAD SWAP1 PUSH2 0x100 EXP SWAP1 DIV PUSH20 0xFFFFFFFFFFFFFFFFFFFFFFFFFFFFFFFFFFFFFFFF AND DUP1 PUSH20 0xFFFFFFFFFFFFFFFFFFFFFFFFFFFFFFFFFFFFFFFF AND CALLER PUSH20 0xFFFFFFFFFFFFFFFFFFFFFFFFFFFFFFFFFFFFFFFF AND EQ PUSH2 0x797 JUMPI PUSH1 0x40 MLOAD PUSH32 0x8C379A000000000000000000000000000000000000000000000000000000000 DUP2 MSTORE PUSH1 0x4 ADD PUSH2 0x78E SWAP1 PUSH2 0x19A6 JUMP JUMPDEST PUSH1 0x40 MLOAD DUP1 SWAP2 SUB SWAP1 REVERT JUMPDEST PUSH0 PUSH20 0xFFFFFFFFFFFFFFFFFFFFFFFFFFFFFFFFFFFFFFFF AND DUP3 PUSH20 0xFFFFFFFFFFFFFFFFFFFFFFFFFFFFFFFFFFFFFFFF AND SUB PUSH2 0x805 JUMPI PUSH1 0x40 MLOAD PUSH32 0x8C379A000000000000000000000000000000000000000000000000000000000 DUP2 MSTORE PUSH1 0x4 ADD PUSH2 0x7FC SWAP1 PUSH2 0x1A0E JUMP JUMPDEST PUSH1 0x40 MLOAD DUP1 SWAP2 SUB SWAP1 REVERT JUMPDEST DUP2 PUSH1 0x1 PUSH0 PUSH2 0x100 EXP DUP2 SLOAD DUP2 PUSH20 0xFFFFFFFFFFFFFFFFFFFFFFFFFFFFFFFFFFFFFFFF MUL NOT AND SWAP1 DUP4 PUSH20 0xFFFFFFFFFFFFFFFFFFFFFFFFFFFFFFFFFFFFFFFF AND MUL OR SWAP1 SSTORE POP PUSH32 0x19832A487A6F78515E372937599B1B1B2EBBE5FC5C97DF815263C40940AE8637 DUP3 PUSH1 0x40 MLOAD PUSH2 0x874 SWAP2 SWAP1 PUSH2 0x1630 JUMP JUMPDEST PUSH1 0x40 MLOAD DUP1 SWAP2 SUB SWAP1 LOG1 POP POP JUMP JUMPDEST PUSH1 0x1 PUSH0 SWAP1 SLOAD SWAP1 PUSH2 0x100 EXP SWAP1 DIV PUSH20 0xFFFFFFFFFFFFFFFFFFFFFFFFFFFFFFFFFFFFFFFF AND DUP1 PUSH20 0xFFFFFFFFFFFFFFFFFFFFFFFFFFFFFFFFFFFFFFFF AND CALLER PUSH20 0xFFFFFFFFFFFFFFFFFFFFFFFFFFFFFFFFFFFFFFFF AND EQ PUSH2 0x910 JUMPI PUSH1 0x40 MLOAD PUSH32 0x8C379A000000000000000000000000000000000000000000000000000000000 DUP2 MSTORE PUSH1 0x4 ADD PUSH2 0x907 SWAP1 PUSH2 0x19A6 JUMP JUMPDEST PUSH1 0x40 MLOAD DUP1 SWAP2 SUB SWAP1 REVERT JUMPDEST PUSH1 0x1 PUSH0 SWAP1 SLOAD SWAP1 PUSH2 0x100 EXP SWAP1 DIV PUSH20 0xFFFFFFFFFFFFFFFFFFFFFFFFFFFFFFFFFFFFFFFF AND PUSH0 DUP1 PUSH2 0x100 EXP DUP2 SLOAD DUP2 PUSH20 0xFFFFFFFFFFFFFFFFFFFFFFFFFFFFFFFFFFFFFFFF MUL NOT AND SWAP1 DUP4 PUSH20 0xFFFFFFFFFFFFFFFFFFFFFFFFFFFFFFFFFFFFFFFF AND MUL OR SWAP1 SSTORE POP PUSH0 PUSH1 0x1 PUSH0 PUSH2 0x100 EXP DUP2 SLOAD DUP2 PUSH20 0xFFFFFFFFFFFFFFFFFFFFFFFFFFFFFFFFFFFFFFFF MUL NOT AND SWAP1 DUP4 PUSH20 0xFFFFFFFFFFFFFFFFFFFFFFFFFFFFFFFFFFFFFFFF AND MUL OR SWAP1 SSTORE POP PUSH32 0xD6F3F732383B13921AA3EE045D9A478451F38CD1F6C38E26DE5EA6DDC8E1D96D PUSH0 DUP1 SLOAD SWAP1 PUSH2 0x100 EXP SWAP1 DIV PUSH20 0xFFFFFFFFFFFFFFFFFFFFFFFFFFFFFFFFFFFFFFFF AND PUSH1 0x40 MLOAD PUSH2 0x9FE SWAP2 SWAP1 PUSH2 0x1630 JUMP JUMPDEST PUSH1 0x40 MLOAD DUP1 SWAP2 SUB SWAP1 LOG1 POP JUMP JUMPDEST DUP1 PUSH1 0x2 PUSH0 CALLER PUSH20 0xFFFFFFFFFFFFFFFFFFFFFFFFFFFFFFFFFFFFFFFF AND PUSH20 0xFFFFFFFFFFFFFFFFFFFFFFFFFFFFFFFFFFFFFFFF AND DUP2 MSTORE PUSH1 0x20 ADD SWAP1 DUP2 MSTORE PUSH1 0x20 ADD PUSH0 KECCAK256 PUSH1 0x1 ADD PUSH1 0x2 ADD PUSH0 PUSH2 0x100 EXP DUP2 SLOAD DUP2 PUSH1 0xFF MUL NOT AND SWAP1 DUP4 PUSH1 0x2 DUP2 GT ISZERO PUSH2 0xA6E JUMPI PUSH2 0xA6D PUSH2 0x16CB JUMP JUMPDEST JUMPDEST MUL OR SWAP1 SSTORE POP PUSH0 PUSH1 0x1 PUSH1 0x2 DUP2 GT ISZERO PUSH2 0xA88 JUMPI PUSH2 0xA87 PUSH2 0x16CB JUMP JUMPDEST JUMPDEST DUP3 PUSH1 0x2 DUP2 GT ISZERO PUSH2 0xA9B JUMPI PUSH2 0xA9A PUSH2 0x16CB JUMP JUMPDEST JUMPDEST EQ PUSH2 0xAA7 JUMPI PUSH1 0x3 PUSH2 0xAAA JUMP JUMPDEST PUSH1 0x4 JUMPDEST SWAP1 POP PUSH0 DUP5 SWAP1 POP PUSH0 DUP3 DUP1 SLOAD SWAP1 POP SWAP1 POP JUMPDEST PUSH0 DUP2 GT ISZERO PUSH2 0xBF8 JUMPI PUSH0 PUSH1 0x2 PUSH0 DUP6 PUSH1 0x1 DUP6 PUSH2 0xAD3 SWAP2 SWAP1 PUSH2 0x1A2C JUMP JUMPDEST DUP2 SLOAD DUP2 LT PUSH2 0xAE4 JUMPI PUSH2 0xAE3 PUSH2 0x1A5F JUMP JUMPDEST JUMPDEST SWAP1 PUSH0 MSTORE PUSH1 0x20 PUSH0 KECCAK256 ADD PUSH0 SWAP1 SLOAD SWAP1 PUSH2 0x100 EXP SWAP1 DIV PUSH20 0xFFFFFFFFFFFFFFFFFFFFFFFFFFFFFFFFFFFFFFFF AND PUSH20 0xFFFFFFFFFFFFFFFFFFFFFFFFFFFFFFFFFFFFFFFF AND PUSH20 0xFFFFFFFFFFFFFFFFFFFFFFFFFFFFFFFFFFFFFFFF AND DUP2 MSTORE PUSH1 0x20 ADD SWAP1 DUP2 MSTORE PUSH1 0x20 ADD PUSH0 KECCAK256 PUSH1 0x1 ADD SWAP1 POP DUP6 PUSH4 0xFFFFFFFF AND DUP2 PUSH0 ADD PUSH1 0x4 SWAP1 SLOAD SWAP1 PUSH2 0x100 EXP SWAP1 DIV PUSH4 0xFFFFFFFF AND PUSH4 0xFFFFFFFF AND LT PUSH2 0xBE4 JUMPI PUSH2 0xBCE DUP5 PUSH1 0x1 DUP5 PUSH2 0xB81 SWAP2 SWAP1 PUSH2 0x1A2C JUMP JUMPDEST DUP2 SLOAD DUP2 LT PUSH2 0xB92 JUMPI PUSH2 0xB91 PUSH2 0x1A5F JUMP JUMPDEST JUMPDEST SWAP1 PUSH0 MSTORE PUSH1 0x20 PUSH0 KECCAK256 ADD PUSH0 SWAP1 SLOAD SWAP1 PUSH2 0x100 EXP SWAP1 DIV PUSH20 0xFFFFFFFFFFFFFFFFFFFFFFFFFFFFFFFFFFFFFFFF AND DUP5 DUP8 PUSH1 0x1 DUP7 PUSH2 0xBC9 SWAP2 SWAP1 PUSH2 0x1A2C JUMP JUMPDEST PUSH2 0xCD1 JUMP JUMPDEST SWAP3 POP PUSH0 DUP4 PUSH4 0xFFFFFFFF AND SUB PUSH2 0xBE3 JUMPI POP PUSH2 0xBF8 JUMP JUMPDEST JUMPDEST POP DUP1 DUP1 PUSH2 0xBF0 SWAP1 PUSH2 0x1A8C JUMP JUMPDEST SWAP2 POP POP PUSH2 0xAB9 JUMP JUMPDEST POP PUSH0 DUP2 PUSH4 0xFFFFFFFF AND GT ISZERO PUSH2 0xC5F JUMPI PUSH32 0x978D903908CCBAC73CE4DF3B8F236D59F6381DF28E270C303112AD091ADD2FD8 CALLER DUP3 DUP8 PUSH2 0xC35 SWAP2 SWAP1 PUSH2 0x18B1 JUMP JUMPDEST DUP7 TIMESTAMP PUSH1 0x40 MLOAD PUSH2 0xC47 SWAP5 SWAP4 SWAP3 SWAP2 SWAP1 PUSH2 0x1AC2 JUMP JUMPDEST PUSH1 0x40 MLOAD DUP1 SWAP2 SUB SWAP1 LOG1 PUSH2 0xC5A DUP2 DUP6 DUP6 PUSH2 0x1049 JUMP JUMPDEST PUSH2 0xCCA JUMP JUMPDEST PUSH0 PUSH1 0x2 PUSH0 CALLER PUSH20 0xFFFFFFFFFFFFFFFFFFFFFFFFFFFFFFFFFFFFFFFF AND PUSH20 0xFFFFFFFFFFFFFFFFFFFFFFFFFFFFFFFFFFFFFFFF AND DUP2 MSTORE PUSH1 0x20 ADD SWAP1 DUP2 MSTORE PUSH1 0x20 ADD PUSH0 KECCAK256 PUSH1 0x1 ADD PUSH1 0x2 ADD PUSH0 PUSH2 0x100 EXP DUP2 SLOAD DUP2 PUSH1 0xFF MUL NOT AND SWAP1 DUP4 PUSH1 0x2 DUP2 GT ISZERO PUSH2 0xCC4 JUMPI PUSH2 0xCC3 PUSH2 0x16CB JUMP JUMPDEST JUMPDEST MUL OR SWAP1 SSTORE POP JUMPDEST POP POP POP POP POP JUMP JUMPDEST PUSH0 DUP1 PUSH1 0x2 PUSH0 DUP8 PUSH20 0xFFFFFFFFFFFFFFFFFFFFFFFFFFFFFFFFFFFFFFFF AND PUSH20 0xFFFFFFFFFFFFFFFFFFFFFFFFFFFFFFFFFFFFFFFF AND DUP2 MSTORE PUSH1 0x20 ADD SWAP1 DUP2 MSTORE PUSH1 0x20 ADD PUSH0 KECCAK256 PUSH1 0x1 ADD SWAP1 POP PUSH0 DUP2 PUSH0 ADD PUSH0 SWAP1 SLOAD SWAP1 PUSH2 0x100 EXP SWAP1 DIV PUSH4 0xFFFFFFFF AND PUSH4 0xFFFFFFFF AND DUP7 PUSH4 0xFFFFFFFF AND LT PUSH2 0xD53 JUMPI DUP2 PUSH0 ADD PUSH0 SWAP1 SLOAD SWAP1 PUSH2 0x100 EXP SWAP1 DIV PUSH4 0xFFFFFFFF AND PUSH2 0xD55 JUMP JUMPDEST DUP6 JUMPDEST SWAP1 POP PUSH1 0x1 PUSH1 0x2 DUP2 GT ISZERO PUSH2 0xD6B JUMPI PUSH2 0xD6A PUSH2 0x16CB JUMP JUMPDEST JUMPDEST DUP6 PUSH1 0x2 DUP2 GT ISZERO PUSH2 0xD7E JUMPI PUSH2 0xD7D PUSH2 0x16CB JUMP JUMPDEST JUMPDEST SUB PUSH2 0xEA6 JUMPI PUSH2 0xDAB CALLER DUP4 PUSH0 ADD PUSH1 0x4 SWAP1 SLOAD SWAP1 PUSH2 0x100 EXP SWAP1 DIV PUSH4 0xFFFFFFFF AND DUP4 PUSH2 0xDA6 SWAP2 SWAP1 PUSH2 0x1823 JUMP JUMPDEST PUSH2 0x1231 JUMP JUMPDEST DUP1 PUSH1 0x2 PUSH0 CALLER PUSH20 0xFFFFFFFFFFFFFFFFFFFFFFFFFFFFFFFFFFFFFFFF AND PUSH20 0xFFFFFFFFFFFFFFFFFFFFFFFFFFFFFFFFFFFFFFFF AND DUP2 MSTORE PUSH1 0x20 ADD SWAP1 DUP2 MSTORE PUSH1 0x20 ADD PUSH0 KECCAK256 PUSH0 ADD PUSH0 DUP3 DUP3 DUP3 SWAP1 SLOAD SWAP1 PUSH2 0x100 EXP SWAP1 DIV PUSH4 0xFFFFFFFF AND PUSH2 0xE08 SWAP2 SWAP1 PUSH2 0x18B1 JUMP JUMPDEST SWAP3 POP PUSH2 0x100 EXP DUP2 SLOAD DUP2 PUSH4 0xFFFFFFFF MUL NOT AND SWAP1 DUP4 PUSH4 0xFFFFFFFF AND MUL OR SWAP1 SSTORE POP DUP1 PUSH1 0x2 PUSH0 DUP10 PUSH20 0xFFFFFFFFFFFFFFFFFFFFFFFFFFFFFFFFFFFFFFFF AND PUSH20 0xFFFFFFFFFFFFFFFFFFFFFFFFFFFFFFFFFFFFFFFF AND DUP2 MSTORE PUSH1 0x20 ADD SWAP1 DUP2 MSTORE PUSH1 0x20 ADD PUSH0 KECCAK256 PUSH0 ADD PUSH0 DUP3 DUP3 DUP3 SWAP1 SLOAD SWAP1 PUSH2 0x100 EXP SWAP1 DIV PUSH4 0xFFFFFFFF AND PUSH2 0xE83 SWAP2 SWAP1 PUSH2 0x18E8 JUMP JUMPDEST SWAP3 POP PUSH2 0x100 EXP DUP2 SLOAD DUP2 PUSH4 0xFFFFFFFF MUL NOT AND SWAP1 DUP4 PUSH4 0xFFFFFFFF AND MUL OR SWAP1 SSTORE POP PUSH2 0xFC5 JUMP JUMPDEST PUSH2 0xECE DUP8 DUP4 PUSH0 ADD PUSH1 0x4 SWAP1 SLOAD SWAP1 PUSH2 0x100 EXP SWAP1 DIV PUSH4 0xFFFFFFFF AND DUP4 PUSH2 0xEC9 SWAP2 SWAP1 PUSH2 0x1823 JUMP JUMPDEST PUSH2 0x1231 JUMP JUMPDEST DUP1 PUSH1 0x2 PUSH0 CALLER PUSH20 0xFFFFFFFFFFFFFFFFFFFFFFFFFFFFFFFFFFFFFFFF AND PUSH20 0xFFFFFFFFFFFFFFFFFFFFFFFFFFFFFFFFFFFFFFFF AND DUP2 MSTORE PUSH1 0x20 ADD SWAP1 DUP2 MSTORE PUSH1 0x20 ADD PUSH0 KECCAK256 PUSH0 ADD PUSH0 DUP3 DUP3 DUP3 SWAP1 SLOAD SWAP1 PUSH2 0x100 EXP SWAP1 DIV PUSH4 0xFFFFFFFF AND PUSH2 0xF2B SWAP2 SWAP1 PUSH2 0x18E8 JUMP JUMPDEST SWAP3 POP PUSH2 0x100 EXP DUP2 SLOAD DUP2 PUSH4 0xFFFFFFFF MUL NOT AND SWAP1 DUP4 PUSH4 0xFFFFFFFF AND MUL OR SWAP1 SSTORE POP DUP1 PUSH1 0x2 PUSH0 DUP10 PUSH20 0xFFFFFFFFFFFFFFFFFFFFFFFFFFFFFFFFFFFFFFFF AND PUSH20 0xFFFFFFFFFFFFFFFFFFFFFFFFFFFFFFFFFFFFFFFF AND DUP2 MSTORE PUSH1 0x20 ADD SWAP1 DUP2 MSTORE PUSH1 0x20 ADD PUSH0 KECCAK256 PUSH0 ADD PUSH0 DUP3 DUP3 DUP3 SWAP1 SLOAD SWAP1 PUSH2 0x100 EXP SWAP1 DIV PUSH4 0xFFFFFFFF AND PUSH2 0xFA6 SWAP2 SWAP1 PUSH2 0x18B1 JUMP JUMPDEST SWAP3 POP PUSH2 0x100 EXP DUP2 SLOAD DUP2 PUSH4 0xFFFFFFFF MUL NOT AND SWAP1 DUP4 PUSH4 0xFFFFFFFF AND MUL OR SWAP1 SSTORE POP JUMPDEST DUP1 DUP3 PUSH0 ADD PUSH0 DUP3 DUP3 DUP3 SWAP1 SLOAD SWAP1 PUSH2 0x100 EXP SWAP1 DIV PUSH4 0xFFFFFFFF AND PUSH2 0xFE6 SWAP2 SWAP1 PUSH2 0x18B1 JUMP JUMPDEST SWAP3 POP PUSH2 0x100 EXP DUP2 SLOAD DUP2 PUSH4 0xFFFFFFFF MUL NOT AND SWAP1 DUP4 PUSH4 0xFFFFFFFF AND MUL OR SWAP1 SSTORE POP PUSH0 DUP3 PUSH0 ADD PUSH0 SWAP1 SLOAD SWAP1 PUSH2 0x100 EXP SWAP1 DIV PUSH4 0xFFFFFFFF AND PUSH4 0xFFFFFFFF AND SUB PUSH2 0x102E JUMPI PUSH2 0x102D DUP3 DUP6 PUSH2 0x12E4 JUMP JUMPDEST JUMPDEST DUP1 DUP7 PUSH2 0x103A SWAP2 SWAP1 PUSH2 0x18B1 JUMP JUMPDEST SWAP6 POP DUP6 SWAP3 POP POP POP SWAP5 SWAP4 POP POP POP POP JUMP JUMPDEST PUSH0 PUSH1 0x1 PUSH1 0x2 DUP2 GT ISZERO PUSH2 0x105E JUMPI PUSH2 0x105D PUSH2 0x16CB JUMP JUMPDEST JUMPDEST DUP3 PUSH1 0x2 DUP2 GT ISZERO PUSH2 0x1071 JUMPI PUSH2 0x1070 PUSH2 0x16CB JUMP JUMPDEST JUMPDEST EQ PUSH2 0x107D JUMPI PUSH1 0x4 PUSH2 0x1080 JUMP JUMPDEST PUSH1 0x3 JUMPDEST SWAP1 POP DUP4 PUSH1 0x2 PUSH0 CALLER PUSH20 0xFFFFFFFFFFFFFFFFFFFFFFFFFFFFFFFFFFFFFFFF AND PUSH20 0xFFFFFFFFFFFFFFFFFFFFFFFFFFFFFFFFFFFFFFFF AND DUP2 MSTORE PUSH1 0x20 ADD SWAP1 DUP2 MSTORE PUSH1 0x20 ADD PUSH0 KECCAK256 PUSH0 ADD PUSH0 DUP3 DUP3 DUP3 SWAP1 SLOAD SWAP1 PUSH2 0x100 EXP SWAP1 DIV PUSH4 0xFFFFFFFF AND PUSH2 0x10DF SWAP2 SWAP1 PUSH2 0x18B1 JUMP JUMPDEST SWAP3 POP PUSH2 0x100 EXP DUP2 SLOAD DUP2 PUSH4 0xFFFFFFFF MUL NOT AND SWAP1 DUP4 PUSH4 0xFFFFFFFF AND MUL OR SWAP1 SSTORE POP DUP1 CALLER SWAP1 DUP1 PUSH1 0x1 DUP2 SLOAD ADD DUP1 DUP3 SSTORE DUP1 SWAP2 POP POP PUSH1 0x1 SWAP1 SUB SWAP1 PUSH0 MSTORE PUSH1 0x20 PUSH0 KECCAK256 ADD PUSH0 SWAP1 SWAP2 SWAP1 SWAP2 SWAP1 SWAP2 PUSH2 0x100 EXP DUP2 SLOAD DUP2 PUSH20 0xFFFFFFFFFFFFFFFFFFFFFFFFFFFFFFFFFFFFFFFF MUL NOT AND SWAP1 DUP4 PUSH20 0xFFFFFFFFFFFFFFFFFFFFFFFFFFFFFFFFFFFFFFFF AND MUL OR SWAP1 SSTORE POP PUSH0 PUSH1 0x2 PUSH0 CALLER PUSH20 0xFFFFFFFFFFFFFFFFFFFFFFFFFFFFFFFFFFFFFFFF AND PUSH20 0xFFFFFFFFFFFFFFFFFFFFFFFFFFFFFFFFFFFFFFFF AND DUP2 MSTORE PUSH1 0x20 ADD SWAP1 DUP2 MSTORE PUSH1 0x20 ADD PUSH0 KECCAK256 PUSH1 0x1 ADD SWAP1 POP DUP5 DUP2 PUSH0 ADD PUSH0 PUSH2 0x100 EXP DUP2 SLOAD DUP2 PUSH4 0xFFFFFFFF MUL NOT AND SWAP1 DUP4 PUSH4 0xFFFFFFFF AND MUL OR SWAP1 SSTORE POP DUP4 DUP2 PUSH0 ADD PUSH1 0x4 PUSH2 0x100 EXP DUP2 SLOAD DUP2 PUSH4 0xFFFFFFFF MUL NOT AND SWAP1 DUP4 PUSH4 0xFFFFFFFF AND MUL OR SWAP1 SSTORE POP TIMESTAMP DUP2 PUSH1 0x1 ADD DUP2 SWAP1 SSTORE POP PUSH32 0xFAF6263AFF7F74586F8E6848D95C85F75DF0DD5B5DB5948622C87C5969F795B CALLER DUP7 DUP7 TIMESTAMP DUP8 PUSH1 0x40 MLOAD PUSH2 0x1222 SWAP6 SWAP5 SWAP4 SWAP3 SWAP2 SWAP1 PUSH2 0x1B05 JUMP JUMPDEST PUSH1 0x40 MLOAD DUP1 SWAP2 SUB SWAP1 LOG1 POP POP POP POP POP JUMP JUMPDEST PUSH0 DUP3 PUSH20 0xFFFFFFFFFFFFFFFFFFFFFFFFFFFFFFFFFFFFFFFF AND DUP3 PUSH4 0xFFFFFFFF AND PUSH1 0x40 MLOAD PUSH2 0x125C SWAP1 PUSH2 0x1B83 JUMP JUMPDEST PUSH0 PUSH1 0x40 MLOAD DUP1 DUP4 SUB DUP2 DUP6 DUP8 GAS CALL SWAP3 POP POP POP RETURNDATASIZE DUP1 PUSH0 DUP2 EQ PUSH2 0x1296 JUMPI PUSH1 0x40 MLOAD SWAP2 POP PUSH1 0x1F NOT PUSH1 0x3F RETURNDATASIZE ADD AND DUP3 ADD PUSH1 0x40 MSTORE RETURNDATASIZE DUP3 MSTORE RETURNDATASIZE PUSH0 PUSH1 0x20 DUP5 ADD RETURNDATACOPY PUSH2 0x129B JUMP JUMPDEST PUSH1 0x60 SWAP2 POP JUMPDEST POP POP SWAP1 POP DUP1 PUSH2 0x12DF JUMPI PUSH1 0x40 MLOAD PUSH32 0x8C379A000000000000000000000000000000000000000000000000000000000 DUP2 MSTORE PUSH1 0x4 ADD PUSH2 0x12D6 SWAP1 PUSH2 0x1BE1 JUMP JUMPDEST PUSH1 0x40 MLOAD DUP1 SWAP2 SUB SWAP1 REVERT JUMPDEST POP POP POP JUMP JUMPDEST PUSH0 PUSH1 0x1 PUSH1 0x2 DUP2 GT ISZERO PUSH2 0x12F9 JUMPI PUSH2 0x12F8 PUSH2 0x16CB JUMP JUMPDEST JUMPDEST DUP4 PUSH1 0x2 ADD PUSH0 SWAP1 SLOAD SWAP1 PUSH2 0x100 EXP SWAP1 DIV PUSH1 0xFF AND PUSH1 0x2 DUP2 GT ISZERO PUSH2 0x131C JUMPI PUSH2 0x131B PUSH2 0x16CB JUMP JUMPDEST JUMPDEST EQ PUSH2 0x1328 JUMPI PUSH1 0x4 PUSH2 0x132B JUMP JUMPDEST PUSH1 0x3 JUMPDEST SWAP1 POP PUSH32 0x6279B6D8AEC4B002F259A5B1769D56E8D63D6AB0895C01B4F26E8667767BF00C DUP2 DUP4 DUP2 SLOAD DUP2 LT PUSH2 0x1361 JUMPI PUSH2 0x1360 PUSH2 0x1A5F JUMP JUMPDEST JUMPDEST SWAP1 PUSH0 MSTORE PUSH1 0x20 PUSH0 KECCAK256 ADD PUSH0 SWAP1 SLOAD SWAP1 PUSH2 0x100 EXP SWAP1 DIV PUSH20 0xFFFFFFFFFFFFFFFFFFFFFFFFFFFFFFFFFFFFFFFF AND DUP5 PUSH0 ADD PUSH0 SWAP1 SLOAD SWAP1 PUSH2 0x100 EXP SWAP1 DIV PUSH4 0xFFFFFFFF AND DUP6 PUSH0 ADD PUSH1 0x4 SWAP1 SLOAD SWAP1 PUSH2 0x100 EXP SWAP1 DIV PUSH4 0xFFFFFFFF AND TIMESTAMP DUP8 PUSH1 0x2 ADD PUSH0 SWAP1 SLOAD SWAP1 PUSH2 0x100 EXP SWAP1 DIV PUSH1 0xFF AND PUSH1 0x40 MLOAD PUSH2 0x13D3 SWAP6 SWAP5 SWAP4 SWAP3 SWAP2 SWAP1 PUSH2 0x1B05 JUMP JUMPDEST PUSH1 0x40 MLOAD DUP1 SWAP2 SUB SWAP1 LOG1 PUSH0 DUP3 SWAP1 POP JUMPDEST PUSH1 0x1 DUP3 DUP1 SLOAD SWAP1 POP PUSH2 0x13F1 SWAP2 SWAP1 PUSH2 0x1A2C JUMP JUMPDEST DUP2 LT ISZERO PUSH2 0x14A4 JUMPI DUP2 PUSH1 0x1 DUP3 PUSH2 0x1406 SWAP2 SWAP1 PUSH2 0x1BFF JUMP JUMPDEST DUP2 SLOAD DUP2 LT PUSH2 0x1417 JUMPI PUSH2 0x1416 PUSH2 0x1A5F JUMP JUMPDEST JUMPDEST SWAP1 PUSH0 MSTORE PUSH1 0x20 PUSH0 KECCAK256 ADD PUSH0 SWAP1 SLOAD SWAP1 PUSH2 0x100 EXP SWAP1 DIV PUSH20 0xFFFFFFFFFFFFFFFFFFFFFFFFFFFFFFFFFFFFFFFF AND DUP3 DUP3 DUP2 SLOAD DUP2 LT PUSH2 0x1452 JUMPI PUSH2 0x1451 PUSH2 0x1A5F JUMP JUMPDEST JUMPDEST SWAP1 PUSH0 MSTORE PUSH1 0x20 PUSH0 KECCAK256 ADD PUSH0 PUSH2 0x100 EXP DUP2 SLOAD DUP2 PUSH20 0xFFFFFFFFFFFFFFFFFFFFFFFFFFFFFFFFFFFFFFFF MUL NOT AND SWAP1 DUP4 PUSH20 0xFFFFFFFFFFFFFFFFFFFFFFFFFFFFFFFFFFFFFFFF AND MUL OR SWAP1 SSTORE POP DUP1 DUP1 PUSH1 0x1 ADD SWAP2 POP POP PUSH2 0x13E0 JUMP JUMPDEST POP DUP1 DUP1 SLOAD DUP1 PUSH2 0x14B6 JUMPI PUSH2 0x14B5 PUSH2 0x1C32 JUMP JUMPDEST JUMPDEST PUSH1 0x1 SWAP1 SUB DUP2 DUP2 SWAP1 PUSH0 MSTORE PUSH1 0x20 PUSH0 KECCAK256 ADD PUSH0 PUSH2 0x100 EXP DUP2 SLOAD SWAP1 PUSH20 0xFFFFFFFFFFFFFFFFFFFFFFFFFFFFFFFFFFFFFFFF MUL NOT AND SWAP1 SSTORE SWAP1 SSTORE PUSH0 DUP4 PUSH1 0x2 ADD PUSH0 PUSH2 0x100 EXP DUP2 SLOAD DUP2 PUSH1 0xFF MUL NOT AND SWAP1 DUP4 PUSH1 0x2 DUP2 GT ISZERO PUSH2 0x150E JUMPI PUSH2 0x150D PUSH2 0x16CB JUMP JUMPDEST JUMPDEST MUL OR SWAP1 SSTORE POP POP POP POP JUMP JUMPDEST PUSH0 DUP1 REVERT JUMPDEST PUSH0 PUSH4 0xFFFFFFFF DUP3 AND SWAP1 POP SWAP2 SWAP1 POP JUMP JUMPDEST PUSH2 0x1534 DUP2 PUSH2 0x151C JUMP JUMPDEST DUP2 EQ PUSH2 0x153E JUMPI PUSH0 DUP1 REVERT JUMPDEST POP JUMP JUMPDEST PUSH0 DUP2 CALLDATALOAD SWAP1 POP PUSH2 0x154F DUP2 PUSH2 0x152B JUMP JUMPDEST SWAP3 SWAP2 POP POP JUMP JUMPDEST PUSH0 DUP1 PUSH1 0x40 DUP4 DUP6 SUB SLT ISZERO PUSH2 0x156B JUMPI PUSH2 0x156A PUSH2 0x1518 JUMP JUMPDEST JUMPDEST PUSH0 PUSH2 0x1578 DUP6 DUP3 DUP7 ADD PUSH2 0x1541 JUMP JUMPDEST SWAP3 POP POP PUSH1 0x20 PUSH2 0x1589 DUP6 DUP3 DUP7 ADD PUSH2 0x1541 JUMP JUMPDEST SWAP2 POP POP SWAP3 POP SWAP3 SWAP1 POP JUMP JUMPDEST PUSH0 DUP2 SWAP1 POP SWAP2 SWAP1 POP JUMP JUMPDEST PUSH2 0x15A5 DUP2 PUSH2 0x1593 JUMP JUMPDEST DUP2 EQ PUSH2 0x15AF JUMPI PUSH0 DUP1 REVERT JUMPDEST POP JUMP JUMPDEST PUSH0 DUP2 CALLDATALOAD SWAP1 POP PUSH2 0x15C0 DUP2 PUSH2 0x159C JUMP JUMPDEST SWAP3 SWAP2 POP POP JUMP JUMPDEST PUSH0 PUSH1 0x20 DUP3 DUP5 SUB SLT ISZERO PUSH2 0x15DB JUMPI PUSH2 0x15DA PUSH2 0x1518 JUMP JUMPDEST JUMPDEST PUSH0 PUSH2 0x15E8 DUP5 DUP3 DUP6 ADD PUSH2 0x15B2 JUMP JUMPDEST SWAP2 POP POP SWAP3 SWAP2 POP POP JUMP JUMPDEST PUSH0 PUSH20 0xFFFFFFFFFFFFFFFFFFFFFFFFFFFFFFFFFFFFFFFF DUP3 AND SWAP1 POP SWAP2 SWAP1 POP JUMP JUMPDEST PUSH0 PUSH2 0x161A DUP3 PUSH2 0x15F1 JUMP JUMPDEST SWAP1 POP SWAP2 SWAP1 POP JUMP JUMPDEST PUSH2 0x162A DUP2 PUSH2 0x1610 JUMP JUMPDEST DUP3 MSTORE POP POP JUMP JUMPDEST PUSH0 PUSH1 0x20 DUP3 ADD SWAP1 POP PUSH2 0x1643 PUSH0 DUP4 ADD DUP5 PUSH2 0x1621 JUMP JUMPDEST SWAP3 SWAP2 POP POP JUMP JUMPDEST PUSH2 0x1652 DUP2 PUSH2 0x1610 JUMP JUMPDEST DUP2 EQ PUSH2 0x165C JUMPI PUSH0 DUP1 REVERT JUMPDEST POP JUMP JUMPDEST PUSH0 DUP2 CALLDATALOAD SWAP1 POP PUSH2 0x166D DUP2 PUSH2 0x1649 JUMP JUMPDEST SWAP3 SWAP2 POP POP JUMP JUMPDEST PUSH0 PUSH1 0x20 DUP3 DUP5 SUB SLT ISZERO PUSH2 0x1688 JUMPI PUSH2 0x1687 PUSH2 0x1518 JUMP JUMPDEST JUMPDEST PUSH0 PUSH2 0x1695 DUP5 DUP3 DUP6 ADD PUSH2 0x165F JUMP JUMPDEST SWAP2 POP POP SWAP3 SWAP2 POP POP JUMP JUMPDEST PUSH2 0x16A7 DUP2 PUSH2 0x151C JUMP JUMPDEST DUP3 MSTORE POP POP JUMP JUMPDEST PUSH2 0x16B6 DUP2 PUSH2 0x151C JUMP JUMPDEST DUP3 MSTORE POP POP JUMP JUMPDEST PUSH2 0x16C5 DUP2 PUSH2 0x1593 JUMP JUMPDEST DUP3 MSTORE POP POP JUMP JUMPDEST PUSH32 0x4E487B7100000000000000000000000000000000000000000000000000000000 PUSH0 MSTORE PUSH1 0x21 PUSH1 0x4 MSTORE PUSH1 0x24 PUSH0 REVERT JUMPDEST PUSH1 0x3 DUP2 LT PUSH2 0x1709 JUMPI PUSH2 0x1708 PUSH2 0x16CB JUMP JUMPDEST JUMPDEST POP JUMP JUMPDEST PUSH0 DUP2 SWAP1 POP PUSH2 0x1719 DUP3 PUSH2 0x16F8 JUMP JUMPDEST SWAP2 SWAP1 POP JUMP JUMPDEST PUSH0 PUSH2 0x1728 DUP3 PUSH2 0x170C JUMP JUMPDEST SWAP1 POP SWAP2 SWAP1 POP JUMP JUMPDEST PUSH2 0x1738 DUP2 PUSH2 0x171E JUMP JUMPDEST DUP3 MSTORE POP POP JUMP JUMPDEST PUSH1 0x80 DUP3 ADD PUSH0 DUP3 ADD MLOAD PUSH2 0x1752 PUSH0 DUP6 ADD DUP3 PUSH2 0x16AD JUMP JUMPDEST POP PUSH1 0x20 DUP3 ADD MLOAD PUSH2 0x1765 PUSH1 0x20 DUP6 ADD DUP3 PUSH2 0x16AD JUMP JUMPDEST POP PUSH1 0x40 DUP3 ADD MLOAD PUSH2 0x1778 PUSH1 0x40 DUP6 ADD DUP3 PUSH2 0x16BC JUMP JUMPDEST POP PUSH1 0x60 DUP3 ADD MLOAD PUSH2 0x178B PUSH1 0x60 DUP6 ADD DUP3 PUSH2 0x172F JUMP JUMPDEST POP POP POP POP JUMP JUMPDEST PUSH0 PUSH1 0xA0 DUP3 ADD SWAP1 POP PUSH2 0x17A4 PUSH0 DUP4 ADD DUP6 PUSH2 0x169E JUMP JUMPDEST PUSH2 0x17B1 PUSH1 0x20 DUP4 ADD DUP5 PUSH2 0x173E JUMP JUMPDEST SWAP4 SWAP3 POP POP POP JUMP JUMPDEST PUSH0 DUP1 PUSH1 0x40 DUP4 DUP6 SUB SLT ISZERO PUSH2 0x17CE JUMPI PUSH2 0x17CD PUSH2 0x1518 JUMP JUMPDEST JUMPDEST PUSH0 PUSH2 0x17DB DUP6 DUP3 DUP7 ADD PUSH2 0x165F JUMP JUMPDEST SWAP3 POP POP PUSH1 0x20 PUSH2 0x17EC DUP6 DUP3 DUP7 ADD PUSH2 0x1541 JUMP JUMPDEST SWAP2 POP POP SWAP3 POP SWAP3 SWAP1 POP JUMP JUMPDEST PUSH32 0x4E487B7100000000000000000000000000000000000000000000000000000000 PUSH0 MSTORE PUSH1 0x11 PUSH1 0x4 MSTORE PUSH1 0x24 PUSH0 REVERT JUMPDEST PUSH0 PUSH2 0x182D DUP3 PUSH2 0x151C JUMP JUMPDEST SWAP2 POP PUSH2 0x1838 DUP4 PUSH2 0x151C JUMP JUMPDEST SWAP3 POP DUP3 DUP3 MUL PUSH2 0x1846 DUP2 PUSH2 0x151C JUMP JUMPDEST SWAP2 POP DUP1 DUP3 EQ PUSH2 0x1858 JUMPI PUSH2 0x1857 PUSH2 0x17F6 JUMP JUMPDEST JUMPDEST POP SWAP3 SWAP2 POP POP JUMP JUMPDEST PUSH2 0x1868 DUP2 PUSH2 0x171E JUMP JUMPDEST DUP3 MSTORE POP POP JUMP JUMPDEST PUSH0 PUSH1 0x80 DUP3 ADD SWAP1 POP PUSH2 0x1881 PUSH0 DUP4 ADD DUP8 PUSH2 0x1621 JUMP JUMPDEST PUSH2 0x188E PUSH1 0x20 DUP4 ADD DUP7 PUSH2 0x169E JUMP JUMPDEST PUSH2 0x189B PUSH1 0x40 DUP4 ADD DUP6 PUSH2 0x169E JUMP JUMPDEST PUSH2 0x18A8 PUSH1 0x60 DUP4 ADD DUP5 PUSH2 0x185F JUMP JUMPDEST SWAP6 SWAP5 POP POP POP POP POP JUMP JUMPDEST PUSH0 PUSH2 0x18BB DUP3 PUSH2 0x151C JUMP JUMPDEST SWAP2 POP PUSH2 0x18C6 DUP4 PUSH2 0x151C JUMP JUMPDEST SWAP3 POP DUP3 DUP3 SUB SWAP1 POP PUSH4 0xFFFFFFFF DUP2 GT ISZERO PUSH2 0x18E2 JUMPI PUSH2 0x18E1 PUSH2 0x17F6 JUMP JUMPDEST JUMPDEST SWAP3 SWAP2 POP POP JUMP JUMPDEST PUSH0 PUSH2 0x18F2 DUP3 PUSH2 0x151C JUMP JUMPDEST SWAP2 POP PUSH2 0x18FD DUP4 PUSH2 0x151C JUMP JUMPDEST SWAP3 POP DUP3 DUP3 ADD SWAP1 POP PUSH4 0xFFFFFFFF DUP2 GT ISZERO PUSH2 0x1919 JUMPI PUSH2 0x1918 PUSH2 0x17F6 JUMP JUMPDEST JUMPDEST SWAP3 SWAP2 POP POP JUMP JUMPDEST PUSH32 0x4E487B7100000000000000000000000000000000000000000000000000000000 PUSH0 MSTORE PUSH1 0x1 PUSH1 0x4 MSTORE PUSH1 0x24 PUSH0 REVERT JUMPDEST PUSH0 DUP3 DUP3 MSTORE PUSH1 0x20 DUP3 ADD SWAP1 POP SWAP3 SWAP2 POP POP JUMP JUMPDEST PUSH32 0x43616C6C6572206973206E6F7420617574686F72697A65640000000000000000 PUSH0 DUP3 ADD MSTORE POP JUMP JUMPDEST PUSH0 PUSH2 0x1990 PUSH1 0x18 DUP4 PUSH2 0x194C JUMP JUMPDEST SWAP2 POP PUSH2 0x199B DUP3 PUSH2 0x195C JUMP JUMPDEST PUSH1 0x20 DUP3 ADD SWAP1 POP SWAP2 SWAP1 POP JUMP JUMPDEST PUSH0 PUSH1 0x20 DUP3 ADD SWAP1 POP DUP2 DUP2 SUB PUSH0 DUP4 ADD MSTORE PUSH2 0x19BD DUP2 PUSH2 0x1984 JUMP JUMPDEST SWAP1 POP SWAP2 SWAP1 POP JUMP JUMPDEST PUSH32 0x496E76616C6964206E6577206F776E6572206164647265737300000000000000 PUSH0 DUP3 ADD MSTORE POP JUMP JUMPDEST PUSH0 PUSH2 0x19F8 PUSH1 0x19 DUP4 PUSH2 0x194C JUMP JUMPDEST SWAP2 POP PUSH2 0x1A03 DUP3 PUSH2 0x19C4 JUMP JUMPDEST PUSH1 0x20 DUP3 ADD SWAP1 POP SWAP2 SWAP1 POP JUMP JUMPDEST PUSH0 PUSH1 0x20 DUP3 ADD SWAP1 POP DUP2 DUP2 SUB PUSH0 DUP4 ADD MSTORE PUSH2 0x1A25 DUP2 PUSH2 0x19EC JUMP JUMPDEST SWAP1 POP SWAP2 SWAP1 POP JUMP JUMPDEST PUSH0 PUSH2 0x1A36 DUP3 PUSH2 0x1593 JUMP JUMPDEST SWAP2 POP PUSH2 0x1A41 DUP4 PUSH2 0x1593 JUMP JUMPDEST SWAP3 POP DUP3 DUP3 SUB SWAP1 POP DUP2 DUP2 GT ISZERO PUSH2 0x1A59 JUMPI PUSH2 0x1A58 PUSH2 0x17F6 JUMP JUMPDEST JUMPDEST SWAP3 SWAP2 POP POP JUMP JUMPDEST PUSH32 0x4E487B7100000000000000000000000000000000000000000000000000000000 PUSH0 MSTORE PUSH1 0x32 PUSH1 0x4 MSTORE PUSH1 0x24 PUSH0 REVERT JUMPDEST PUSH0 PUSH2 0x1A96 DUP3 PUSH2 0x1593 JUMP JUMPDEST SWAP2 POP PUSH0 DUP3 SUB PUSH2 0x1AA8 JUMPI PUSH2 0x1AA7 PUSH2 0x17F6 JUMP JUMPDEST JUMPDEST PUSH1 0x1 DUP3 SUB SWAP1 POP SWAP2 SWAP1 POP JUMP JUMPDEST PUSH2 0x1ABC DUP2 PUSH2 0x1593 JUMP JUMPDEST DUP3 MSTORE POP POP JUMP JUMPDEST PUSH0 PUSH1 0x80 DUP3 ADD SWAP1 POP PUSH2 0x1AD5 PUSH0 DUP4 ADD DUP8 PUSH2 0x1621 JUMP JUMPDEST PUSH2 0x1AE2 PUSH1 0x20 DUP4 ADD DUP7 PUSH2 0x169E JUMP JUMPDEST PUSH2 0x1AEF PUSH1 0x40 DUP4 ADD DUP6 PUSH2 0x169E JUMP JUMPDEST PUSH2 0x1AFC PUSH1 0x60 DUP4 ADD DUP5 PUSH2 0x1AB3 JUMP JUMPDEST SWAP6 SWAP5 POP POP POP POP POP JUMP JUMPDEST PUSH0 PUSH1 0xA0 DUP3 ADD SWAP1 POP PUSH2 0x1B18 PUSH0 DUP4 ADD DUP9 PUSH2 0x1621 JUMP JUMPDEST PUSH2 0x1B25 PUSH1 0x20 DUP4 ADD DUP8 PUSH2 0x169E JUMP JUMPDEST PUSH2 0x1B32 PUSH1 0x40 DUP4 ADD DUP7 PUSH2 0x169E JUMP JUMPDEST PUSH2 0x1B3F PUSH1 0x60 DUP4 ADD DUP6 PUSH2 0x1AB3 JUMP JUMPDEST PUSH2 0x1B4C PUSH1 0x80 DUP4 ADD DUP5 PUSH2 0x185F JUMP JUMPDEST SWAP7 SWAP6 POP POP POP POP POP POP JUMP JUMPDEST PUSH0 DUP2 SWAP1 POP SWAP3 SWAP2 POP POP JUMP JUMPDEST POP JUMP JUMPDEST PUSH0 PUSH2 0x1B6E PUSH0 DUP4 PUSH2 0x1B56 JUMP JUMPDEST SWAP2 POP PUSH2 0x1B79 DUP3 PUSH2 0x1B60 JUMP JUMPDEST PUSH0 DUP3 ADD SWAP1 POP SWAP2 SWAP1 POP JUMP JUMPDEST PUSH0 PUSH2 0x1B8D DUP3 PUSH2 0x1B63 JUMP JUMPDEST SWAP2 POP DUP2 SWAP1 POP SWAP2 SWAP1 POP JUMP JUMPDEST PUSH32 0x4661696C656420746F2073656E64204574686572000000000000000000000000 PUSH0 DUP3 ADD MSTORE POP JUMP JUMPDEST PUSH0 PUSH2 0x1BCB PUSH1 0x14 DUP4 PUSH2 0x194C JUMP JUMPDEST SWAP2 POP PUSH2 0x1BD6 DUP3 PUSH2 0x1B97 JUMP JUMPDEST PUSH1 0x20 DUP3 ADD SWAP1 POP SWAP2 SWAP1 POP JUMP JUMPDEST PUSH0 PUSH1 0x20 DUP3 ADD SWAP1 POP DUP2 DUP2 SUB PUSH0 DUP4 ADD MSTORE PUSH2 0x1BF8 DUP2 PUSH2 0x1BBF JUMP JUMPDEST SWAP1 POP SWAP2 SWAP1 POP JUMP JUMPDEST PUSH0 PUSH2 0x1C09 DUP3 PUSH2 0x1593 JUMP JUMPDEST SWAP2 POP PUSH2 0x1C14 DUP4 PUSH2 0x1593 JUMP JUMPDEST SWAP3 POP DUP3 DUP3 ADD SWAP1 POP DUP1 DUP3 GT ISZERO PUSH2 0x1C2C JUMPI PUSH2 0x1C2B PUSH2 0x17F6 JUMP JUMPDEST JUMPDEST SWAP3 SWAP2 POP POP JUMP JUMPDEST PUSH32 0x4E487B7100000000000000000000000000000000000000000000000000000000 PUSH0 MSTORE PUSH1 0x31 PUSH1 0x4 MSTORE PUSH1 0x24 PUSH0 REVERT INVALID LOG2 PUSH5 0x6970667358 0x22 SLT KECCAK256 0x2A 0xDA PUSH22 0x731FD29226AA524E8F65771673981E61C6745E7997A5 CODESIZE INVALID CALLDATACOPY 0xEE PUSH19 0x531564736F6C63430008190033000000000000 "
				},
				"gasEstimates": {
					"creation": {
						"codeDepositCost": "1463400",
						"executionCost": "50148",
						"totalCost": "1513548"
					},
					"external": {
						"ClaimOwnership()": "56417",
						"buyRequest(uint32,uint32)": "infinite",
						"buyRequestants(uint256)": "4967",
						"chooseNewOwner(address)": "infinite",
						"sellRequest(uint32,uint32)": "infinite",
						"sellRequestants(uint256)": "5011",
						"send(address,uint32)": "infinite",
						"users(address)": "infinite"
					},
					"internal": {
						"addRequest(uint32,uint32,enum solt.RequestTypes)": "infinite",
						"executeRequests(address,uint32,enum solt.RequestTypes,uint256)": "infinite",
						"matchRequests(uint32,uint32,enum solt.RequestTypes)": "infinite",
						"removeRequest(struct solt.UserRequest storage pointer,uint256)": "infinite",
						"sendEther(address payable,uint32)": "infinite"
					}
				},
				"methodIdentifiers": {
					"ClaimOwnership()": "fec0244c",
					"buyRequest(uint32,uint32)": "314bdd22",
					"buyRequestants(uint256)": "552cb86a",
					"chooseNewOwner(address)": "f58d0d5c",
					"sellRequest(uint32,uint32)": "658f7fb5",
					"sellRequestants(uint256)": "6da29022",
					"send(address,uint32)": "c7734ea2",
					"users(address)": "a87430ba"
				}
			},
			"storageLayout": {
				"storage": [
					{
						"astId": 3,
						"contract": "src/solt.sol:solt",
						"label": "owner",
						"offset": 0,
						"slot": "0",
						"type": "t_address"
					},
					{
						"astId": 5,
						"contract": "src/solt.sol:solt",
						"label": "nextOwner",
						"offset": 0,
						"slot": "1",
						"type": "t_address"
					},
					{
						"astId": 33,
						"contract": "src/solt.sol:solt",
						"label": "users",
						"offset": 0,
						"slot": "2",
						"type": "t_mapping(t_address,t_struct(User)28_storage)"
					},
					{
						"astId": 36,
						"contract": "src/solt.sol:solt",
						"label": "sellRequestants",
						"offset": 0,
						"slot": "3",
						"type": "t_array(t_address)dyn_storage"
					},
					{
						"astId": 39,
						"contract": "src/solt.sol:solt",
						"label": "buyRequestants",
						"offset": 0,
						"slot": "4",
						"type": "t_array(t_address)dyn_storage"
					}
				],
				"types": {
					"t_address": {
						"encoding": "inplace",
						"label": "address",
						"numberOfBytes": "20"
					},
					"t_array(t_address)dyn_storage": {
						"base": "t_address",
						"encoding": "dynamic_array",
						"label": "address[]",
						"numberOfBytes": "32"
					},
					"t_enum(RequestTypes)12": {
						"encoding": "inplace",
						"label": "enum solt.RequestTypes",
						"numberOfBytes": "1"
					},
					"t_mapping(t_address,t_struct(User)28_storage)": {
						"encoding": "mapping",
						"key": "t_address",
						"label": "mapping(address => struct solt.User)",
						"numberOfBytes": "32",
						"value": "t_struct(User)28_storage"
					},
					"t_struct(User)28_storage": {
						"encoding": "inplace",
						"label": "struct solt.User",
						"members": [
							{
								"astId": 24,
								"contract": "src/solt.sol:solt",
								"label": "balance",
								"offset": 0,
								"slot": "0",
								"type": "t_uint32"
							},
							{
								"astId": 27,
								"contract": "src/solt.sol:solt",
								"label": "Request",
								"offset": 0,
								"slot": "1",
								"type": "t_struct(UserRequest)22_storage"
							}
						],
						"numberOfBytes": "128"
					},
					"t_struct(UserRequest)22_storage": {
						"encoding": "inplace",
						"label": "struct solt.UserRequest",
						"members": [
							{
								"astId": 14,
								"contract": "src/solt.sol:solt",
								"label": "amount",
								"offset": 0,
								"slot": "0",
								"type": "t_uint32"
							},
							{
								"astId": 16,
								"contract": "src/solt.sol:solt",
								"label": "coinPrice",
								"offset": 4,
								"slot": "0",
								"type": "t_uint32"
							},
							{
								"astId": 18,
								"contract": "src/solt.sol:solt",
								"label": "time",
								"offset": 0,
								"slot": "1",
								"type": "t_uint256"
							},
							{
								"astId": 21,
								"contract": "src/solt.sol:solt",
								"label": "Type",
								"offset": 0,
								"slot": "2",
								"type": "t_enum(RequestTypes)12"
							}
						],
						"numberOfBytes": "96"
					},
					"t_uint256": {
						"encoding": "inplace",
						"label": "uint256",
						"numberOfBytes": "32"
					},
					"t_uint32": {
						"encoding": "inplace",
						"label": "uint32",
						"numberOfBytes": "4"
					}
				}
			},
			"userdoc": {
				"kind": "user",
				"methods": {},
				"version": 1
			}
		}
	}
}