{
	"src/solt.sol": {
		"solt": {
			"abi": [
				{
					"inputs": [],
					"stateMutability": "nonpayable",
					"type": "constructor"
				},
				{
					"inputs": [],
					"name": "ClaimOwnership",
					"outputs": [],
					"stateMutability": "nonpayable",
					"type": "function"
				},
				{
					"inputs": [
						{
							"internalType": "uint32",
							"name": "amount",
							"type": "uint32"
						},
						{
							"internalType": "uint32",
							"name": "coinPrice",
							"type": "uint32"
						}
					],
					"name": "buyRequest",
					"outputs": [],
					"stateMutability": "payable",
					"type": "function"
				},
				{
					"inputs": [
						{
							"internalType": "uint256",
							"name": "",
							"type": "uint256"
						}
					],
					"name": "buyRequestants",
					"outputs": [
						{
							"internalType": "address",
							"name": "",
							"type": "address"
						}
					],
					"stateMutability": "view",
					"type": "function"
				},
				{
					"inputs": [
						{
							"internalType": "address",
							"name": "newOwner",
							"type": "address"
						}
					],
					"name": "chooseNewOwner",
					"outputs": [],
					"stateMutability": "nonpayable",
					"type": "function"
				},
				{
					"inputs": [
						{
							"internalType": "uint32",
							"name": "amount",
							"type": "uint32"
						},
						{
							"internalType": "uint32",
							"name": "coinPrice",
							"type": "uint32"
						}
					],
					"name": "sellRequest",
					"outputs": [],
					"stateMutability": "nonpayable",
					"type": "function"
				},
				{
					"inputs": [
						{
							"internalType": "uint256",
							"name": "",
							"type": "uint256"
						}
					],
					"name": "sellRequestants",
					"outputs": [
						{
							"internalType": "address",
							"name": "",
							"type": "address"
						}
					],
					"stateMutability": "view",
					"type": "function"
				},
				{
					"inputs": [
						{
							"internalType": "address",
							"name": "reciver",
							"type": "address"
						},
						{
							"internalType": "uint32",
							"name": "amount",
							"type": "uint32"
						}
					],
					"name": "send",
					"outputs": [],
					"stateMutability": "nonpayable",
					"type": "function"
				},
				{
					"inputs": [
						{
							"internalType": "address",
							"name": "",
							"type": "address"
						}
					],
					"name": "users",
					"outputs": [
						{
							"internalType": "uint32",
							"name": "balance",
							"type": "uint32"
						},
						{
							"components": [
								{
									"internalType": "uint32",
									"name": "amount",
									"type": "uint32"
								},
								{
									"internalType": "uint32",
									"name": "coinPrice",
									"type": "uint32"
								},
								{
									"internalType": "uint256",
									"name": "time",
									"type": "uint256"
								},
								{
									"internalType": "enum solt.RequestTypes",
									"name": "Type",
									"type": "uint8"
								}
							],
							"internalType": "struct solt.userRequest",
							"name": "Request",
							"type": "tuple"
						}
					],
					"stateMutability": "view",
					"type": "function"
				}
			],
			"devdoc": {
				"kind": "dev",
				"methods": {},
				"version": 1
			},
			"evm": {
				"assembly": "    /* \"src/solt.sol\":91:10037  contract solt{... */\n  mstore(0x40, 0x80)\n    /* \"src/solt.sol\":608:704  constructor(){... */\n  callvalue\n  dup1\n  iszero\n  tag_1\n  jumpi\n  0x00\n  dup1\n  revert\ntag_1:\n  pop\n    /* \"src/solt.sol\":639:649  msg.sender */\n  caller\n    /* \"src/solt.sol\":631:636  owner */\n  0x00\n  dup1\n    /* \"src/solt.sol\":631:649  owner = msg.sender */\n  0x0100\n  exp\n  dup2\n  sload\n  dup2\n  0xffffffffffffffffffffffffffffffffffffffff\n  mul\n  not\n  and\n  swap1\n  dup4\n  0xffffffffffffffffffffffffffffffffffffffff\n  and\n  mul\n  or\n  swap1\n  sstore\n  pop\n    /* \"src/solt.sol\":181:191  1000000000 */\n  0x3b9aca00\n    /* \"src/solt.sol\":659:664  users */\n  0x02\n    /* \"src/solt.sol\":659:676  users[msg.sender] */\n  0x00\n    /* \"src/solt.sol\":665:675  msg.sender */\n  caller\n    /* \"src/solt.sol\":659:676  users[msg.sender] */\n  0xffffffffffffffffffffffffffffffffffffffff\n  and\n  0xffffffffffffffffffffffffffffffffffffffff\n  and\n  dup2\n  mstore\n  0x20\n  add\n  swap1\n  dup2\n  mstore\n  0x20\n  add\n  0x00\n  keccak256\n    /* \"src/solt.sol\":659:684  users[msg.sender].balance */\n  0x00\n  add\n  0x00\n    /* \"src/solt.sol\":659:697  users[msg.sender].balance = MAX_SUPPLY */\n  0x0100\n  exp\n  dup2\n  sload\n  dup2\n  0xffffffff\n  mul\n  not\n  and\n  swap1\n  dup4\n  0xffffffff\n  and\n  mul\n  or\n  swap1\n  sstore\n  pop\n    /* \"src/solt.sol\":91:10037  contract solt{... */\n  dataSize(sub_0)\n  dup1\n  dataOffset(sub_0)\n  0x00\n  codecopy\n  0x00\n  return\nstop\n\nsub_0: assembly {\n        /* \"src/solt.sol\":91:10037  contract solt{... */\n      mstore(0x40, 0x80)\n      jumpi(tag_1, lt(calldatasize, 0x04))\n      shr(0xe0, calldataload(0x00))\n      dup1\n      0xa87430ba\n      gt\n      tag_10\n      jumpi\n      dup1\n      0xa87430ba\n      eq\n      tag_6\n      jumpi\n      dup1\n      0xc7734ea2\n      eq\n      tag_7\n      jumpi\n      dup1\n      0xf58d0d5c\n      eq\n      tag_8\n      jumpi\n      dup1\n      0xfec0244c\n      eq\n      tag_9\n      jumpi\n      jump(tag_1)\n    tag_10:\n      dup1\n      0x314bdd22\n      eq\n      tag_2\n      jumpi\n      dup1\n      0x552cb86a\n      eq\n      tag_3\n      jumpi\n      dup1\n      0x658f7fb5\n      eq\n      tag_4\n      jumpi\n      dup1\n      0x6da29022\n      eq\n      tag_5\n      jumpi\n    tag_1:\n      0x00\n      dup1\n      revert\n        /* \"src/solt.sol\":4001:4177  function buyRequest(uint32 amount, uint32 coinPrice) public payable noneRequest enoughEther(amount*coinPrice){... */\n    tag_2:\n      tag_11\n      0x04\n      dup1\n      calldatasize\n      sub\n      dup2\n      add\n      swap1\n      tag_12\n      swap2\n      swap1\n      tag_13\n      jump\t// in\n    tag_12:\n      tag_14\n      jump\t// in\n    tag_11:\n      stop\n        /* \"src/solt.sol\":570:601  address[] public buyRequestants */\n    tag_3:\n      callvalue\n      dup1\n      iszero\n      tag_15\n      jumpi\n      0x00\n      dup1\n      revert\n    tag_15:\n      pop\n      tag_16\n      0x04\n      dup1\n      calldatasize\n      sub\n      dup2\n      add\n      swap1\n      tag_17\n      swap2\n      swap1\n      tag_18\n      jump\t// in\n    tag_17:\n      tag_19\n      jump\t// in\n    tag_16:\n      mload(0x40)\n      tag_20\n      swap2\n      swap1\n      tag_21\n      jump\t// in\n    tag_20:\n      mload(0x40)\n      dup1\n      swap2\n      sub\n      swap1\n      return\n        /* \"src/solt.sol\":3830:3995  function sellRequest(uint32 amount, uint32 coinPrice) public noneRequest balaceSufficient(amount){... */\n    tag_4:\n      callvalue\n      dup1\n      iszero\n      tag_22\n      jumpi\n      0x00\n      dup1\n      revert\n    tag_22:\n      pop\n      tag_23\n      0x04\n      dup1\n      calldatasize\n      sub\n      dup2\n      add\n      swap1\n      tag_24\n      swap2\n      swap1\n      tag_13\n      jump\t// in\n    tag_24:\n      tag_25\n      jump\t// in\n    tag_23:\n      stop\n        /* \"src/solt.sol\":532:564  address[] public sellRequestants */\n    tag_5:\n      callvalue\n      dup1\n      iszero\n      tag_26\n      jumpi\n      0x00\n      dup1\n      revert\n    tag_26:\n      pop\n      tag_27\n      0x04\n      dup1\n      calldatasize\n      sub\n      dup2\n      add\n      swap1\n      tag_28\n      swap2\n      swap1\n      tag_18\n      jump\t// in\n    tag_28:\n      tag_29\n      jump\t// in\n    tag_27:\n      mload(0x40)\n      tag_30\n      swap2\n      swap1\n      tag_21\n      jump\t// in\n    tag_30:\n      mload(0x40)\n      dup1\n      swap2\n      sub\n      swap1\n      return\n        /* \"src/solt.sol\":488:525  mapping(address => User) public users */\n    tag_6:\n      callvalue\n      dup1\n      iszero\n      tag_31\n      jumpi\n      0x00\n      dup1\n      revert\n    tag_31:\n      pop\n      tag_32\n      0x04\n      dup1\n      calldatasize\n      sub\n      dup2\n      add\n      swap1\n      tag_33\n      swap2\n      swap1\n      tag_34\n      jump\t// in\n    tag_33:\n      tag_35\n      jump\t// in\n    tag_32:\n      mload(0x40)\n      tag_36\n      swap3\n      swap2\n      swap1\n      tag_37\n      jump\t// in\n    tag_36:\n      mload(0x40)\n      dup1\n      swap2\n      sub\n      swap1\n      return\n        /* \"src/solt.sol\":1768:1993  function send(address reciver, uint32 amount) public balaceSufficient(amount){... */\n    tag_7:\n      callvalue\n      dup1\n      iszero\n      tag_38\n      jumpi\n      0x00\n      dup1\n      revert\n    tag_38:\n      pop\n      tag_39\n      0x04\n      dup1\n      calldatasize\n      sub\n      dup2\n      add\n      swap1\n      tag_40\n      swap2\n      swap1\n      tag_41\n      jump\t// in\n    tag_40:\n      tag_42\n      jump\t// in\n    tag_39:\n      stop\n        /* \"src/solt.sol\":1354:1526  function chooseNewOwner(address newOwner) public allowOnly(owner){... */\n    tag_8:\n      callvalue\n      dup1\n      iszero\n      tag_43\n      jumpi\n      0x00\n      dup1\n      revert\n    tag_43:\n      pop\n      tag_44\n      0x04\n      dup1\n      calldatasize\n      sub\n      dup2\n      add\n      swap1\n      tag_45\n      swap2\n      swap1\n      tag_34\n      jump\t// in\n    tag_45:\n      tag_46\n      jump\t// in\n    tag_44:\n      stop\n        /* \"src/solt.sol\":1602:1722  function  ClaimOwnership() public allowOnly(nextOwner){... */\n    tag_9:\n      callvalue\n      dup1\n      iszero\n      tag_47\n      jumpi\n      0x00\n      dup1\n      revert\n    tag_47:\n      pop\n      tag_48\n      tag_49\n      jump\t// in\n    tag_48:\n      stop\n        /* \"src/solt.sol\":4001:4177  function buyRequest(uint32 amount, uint32 coinPrice) public payable noneRequest enoughEther(amount*coinPrice){... */\n    tag_14:\n        /* \"src/solt.sol\":1252:1269  RequestTypes.NONE */\n      0x00\n        /* \"src/solt.sol\":1218:1269  users[msg.sender].Request.Type == RequestTypes.NONE */\n      0x02\n      dup2\n      gt\n      iszero\n      tag_51\n      jumpi\n      tag_52\n      tag_53\n      jump\t// in\n    tag_52:\n    tag_51:\n        /* \"src/solt.sol\":1218:1223  users */\n      0x02\n        /* \"src/solt.sol\":1218:1235  users[msg.sender] */\n      0x00\n        /* \"src/solt.sol\":1224:1234  msg.sender */\n      caller\n        /* \"src/solt.sol\":1218:1235  users[msg.sender] */\n      0xffffffffffffffffffffffffffffffffffffffff\n      and\n      0xffffffffffffffffffffffffffffffffffffffff\n      and\n      dup2\n      mstore\n      0x20\n      add\n      swap1\n      dup2\n      mstore\n      0x20\n      add\n      0x00\n      keccak256\n        /* \"src/solt.sol\":1218:1243  users[msg.sender].Request */\n      0x01\n      add\n        /* \"src/solt.sol\":1218:1248  users[msg.sender].Request.Type */\n      0x02\n      add\n      0x00\n      swap1\n      sload\n      swap1\n      0x0100\n      exp\n      swap1\n      div\n      0xff\n      and\n        /* \"src/solt.sol\":1218:1269  users[msg.sender].Request.Type == RequestTypes.NONE */\n      0x02\n      dup2\n      gt\n      iszero\n      tag_54\n      jumpi\n      tag_55\n      tag_53\n      jump\t// in\n    tag_55:\n    tag_54:\n      eq\n        /* \"src/solt.sol\":1210:1270  require(users[msg.sender].Request.Type == RequestTypes.NONE) */\n      tag_56\n      jumpi\n      0x00\n      dup1\n      revert\n    tag_56:\n        /* \"src/solt.sol\":4100:4109  coinPrice */\n      dup1\n        /* \"src/solt.sol\":4093:4099  amount */\n      dup3\n        /* \"src/solt.sol\":4093:4109  amount*coinPrice */\n      tag_57\n      swap2\n      swap1\n      tag_58\n      jump\t// in\n    tag_57:\n        /* \"src/solt.sol\":1144:1151  _amount */\n      dup1\n        /* \"src/solt.sol\":1131:1151  msg.value >= _amount */\n      0xffffffff\n      and\n        /* \"src/solt.sol\":1131:1140  msg.value */\n      callvalue\n        /* \"src/solt.sol\":1131:1151  msg.value >= _amount */\n      lt\n      iszero\n        /* \"src/solt.sol\":1123:1152  require(msg.value >= _amount) */\n      tag_60\n      jumpi\n      0x00\n      dup1\n      revert\n    tag_60:\n        /* \"src/solt.sol\":4120:4170  matchRequests(amount, coinPrice, RequestTypes.BUY) */\n      tag_62\n        /* \"src/solt.sol\":4134:4140  amount */\n      dup4\n        /* \"src/solt.sol\":4142:4151  coinPrice */\n      dup4\n        /* \"src/solt.sol\":4153:4169  RequestTypes.BUY */\n      0x02\n        /* \"src/solt.sol\":4120:4133  matchRequests */\n      tag_63\n        /* \"src/solt.sol\":4120:4170  matchRequests(amount, coinPrice, RequestTypes.BUY) */\n      jump\t// in\n    tag_62:\n        /* \"src/solt.sol\":1281:1282  _ */\n      pop\n        /* \"src/solt.sol\":4001:4177  function buyRequest(uint32 amount, uint32 coinPrice) public payable noneRequest enoughEther(amount*coinPrice){... */\n      pop\n      pop\n      jump\t// out\n        /* \"src/solt.sol\":570:601  address[] public buyRequestants */\n    tag_19:\n      0x04\n      dup2\n      dup2\n      sload\n      dup2\n      lt\n      tag_64\n      jumpi\n      0x00\n      dup1\n      revert\n    tag_64:\n      swap1\n      0x00\n      mstore\n      keccak256(0x00, 0x20)\n      add\n      0x00\n      swap2\n      pop\n      sload\n      swap1\n      0x0100\n      exp\n      swap1\n      div\n      0xffffffffffffffffffffffffffffffffffffffff\n      and\n      dup2\n      jump\t// out\n        /* \"src/solt.sol\":3830:3995  function sellRequest(uint32 amount, uint32 coinPrice) public noneRequest balaceSufficient(amount){... */\n    tag_25:\n        /* \"src/solt.sol\":1252:1269  RequestTypes.NONE */\n      0x00\n        /* \"src/solt.sol\":1218:1269  users[msg.sender].Request.Type == RequestTypes.NONE */\n      0x02\n      dup2\n      gt\n      iszero\n      tag_67\n      jumpi\n      tag_68\n      tag_53\n      jump\t// in\n    tag_68:\n    tag_67:\n        /* \"src/solt.sol\":1218:1223  users */\n      0x02\n        /* \"src/solt.sol\":1218:1235  users[msg.sender] */\n      0x00\n        /* \"src/solt.sol\":1224:1234  msg.sender */\n      caller\n        /* \"src/solt.sol\":1218:1235  users[msg.sender] */\n      0xffffffffffffffffffffffffffffffffffffffff\n      and\n      0xffffffffffffffffffffffffffffffffffffffff\n      and\n      dup2\n      mstore\n      0x20\n      add\n      swap1\n      dup2\n      mstore\n      0x20\n      add\n      0x00\n      keccak256\n        /* \"src/solt.sol\":1218:1243  users[msg.sender].Request */\n      0x01\n      add\n        /* \"src/solt.sol\":1218:1248  users[msg.sender].Request.Type */\n      0x02\n      add\n      0x00\n      swap1\n      sload\n      swap1\n      0x0100\n      exp\n      swap1\n      div\n      0xff\n      and\n        /* \"src/solt.sol\":1218:1269  users[msg.sender].Request.Type == RequestTypes.NONE */\n      0x02\n      dup2\n      gt\n      iszero\n      tag_69\n      jumpi\n      tag_70\n      tag_53\n      jump\t// in\n    tag_70:\n    tag_69:\n      eq\n        /* \"src/solt.sol\":1210:1270  require(users[msg.sender].Request.Type == RequestTypes.NONE) */\n      tag_71\n      jumpi\n      0x00\n      dup1\n      revert\n    tag_71:\n        /* \"src/solt.sol\":3920:3926  amount */\n      dup2\n        /* \"src/solt.sol\":1045:1052  _amount */\n      dup1\n        /* \"src/solt.sol\":1016:1052  users[msg.sender].balance >= _amount */\n      0xffffffff\n      and\n        /* \"src/solt.sol\":1016:1021  users */\n      0x02\n        /* \"src/solt.sol\":1016:1033  users[msg.sender] */\n      0x00\n        /* \"src/solt.sol\":1022:1032  msg.sender */\n      caller\n        /* \"src/solt.sol\":1016:1033  users[msg.sender] */\n      0xffffffffffffffffffffffffffffffffffffffff\n      and\n      0xffffffffffffffffffffffffffffffffffffffff\n      and\n      dup2\n      mstore\n      0x20\n      add\n      swap1\n      dup2\n      mstore\n      0x20\n      add\n      0x00\n      keccak256\n        /* \"src/solt.sol\":1016:1041  users[msg.sender].balance */\n      0x00\n      add\n      0x00\n      swap1\n      sload\n      swap1\n      0x0100\n      exp\n      swap1\n      div\n      0xffffffff\n      and\n        /* \"src/solt.sol\":1016:1052  users[msg.sender].balance >= _amount */\n      0xffffffff\n      and\n      lt\n      iszero\n        /* \"src/solt.sol\":1008:1053  require(users[msg.sender].balance >= _amount) */\n      tag_73\n      jumpi\n      0x00\n      dup1\n      revert\n    tag_73:\n        /* \"src/solt.sol\":3937:3988  matchRequests(amount, coinPrice, RequestTypes.SELL) */\n      tag_75\n        /* \"src/solt.sol\":3951:3957  amount */\n      dup4\n        /* \"src/solt.sol\":3959:3968  coinPrice */\n      dup4\n        /* \"src/solt.sol\":3970:3987  RequestTypes.SELL */\n      0x01\n        /* \"src/solt.sol\":3937:3950  matchRequests */\n      tag_63\n        /* \"src/solt.sol\":3937:3988  matchRequests(amount, coinPrice, RequestTypes.SELL) */\n      jump\t// in\n    tag_75:\n        /* \"src/solt.sol\":1281:1282  _ */\n      pop\n        /* \"src/solt.sol\":3830:3995  function sellRequest(uint32 amount, uint32 coinPrice) public noneRequest balaceSufficient(amount){... */\n      pop\n      pop\n      jump\t// out\n        /* \"src/solt.sol\":532:564  address[] public sellRequestants */\n    tag_29:\n      0x03\n      dup2\n      dup2\n      sload\n      dup2\n      lt\n      tag_76\n      jumpi\n      0x00\n      dup1\n      revert\n    tag_76:\n      swap1\n      0x00\n      mstore\n      keccak256(0x00, 0x20)\n      add\n      0x00\n      swap2\n      pop\n      sload\n      swap1\n      0x0100\n      exp\n      swap1\n      div\n      0xffffffffffffffffffffffffffffffffffffffff\n      and\n      dup2\n      jump\t// out\n        /* \"src/solt.sol\":488:525  mapping(address => User) public users */\n    tag_35:\n      mstore(0x20, 0x02)\n      dup1\n      0x00\n      mstore\n      keccak256(0x00, 0x40)\n      0x00\n      swap2\n      pop\n      swap1\n      pop\n      dup1\n      0x00\n      add\n      0x00\n      swap1\n      sload\n      swap1\n      0x0100\n      exp\n      swap1\n      div\n      0xffffffff\n      and\n      swap1\n      dup1\n      0x01\n      add\n      mload(0x40)\n      dup1\n      0x80\n      add\n      0x40\n      mstore\n      swap1\n      dup2\n      0x00\n      dup3\n      add\n      0x00\n      swap1\n      sload\n      swap1\n      0x0100\n      exp\n      swap1\n      div\n      0xffffffff\n      and\n      0xffffffff\n      and\n      0xffffffff\n      and\n      dup2\n      mstore\n      0x20\n      add\n      0x00\n      dup3\n      add\n      0x04\n      swap1\n      sload\n      swap1\n      0x0100\n      exp\n      swap1\n      div\n      0xffffffff\n      and\n      0xffffffff\n      and\n      0xffffffff\n      and\n      dup2\n      mstore\n      0x20\n      add\n      0x01\n      dup3\n      add\n      sload\n      dup2\n      mstore\n      0x20\n      add\n      0x02\n      dup3\n      add\n      0x00\n      swap1\n      sload\n      swap1\n      0x0100\n      exp\n      swap1\n      div\n      0xff\n      and\n      0x02\n      dup2\n      gt\n      iszero\n      tag_78\n      jumpi\n      tag_79\n      tag_53\n      jump\t// in\n    tag_79:\n    tag_78:\n      0x02\n      dup2\n      gt\n      iszero\n      tag_80\n      jumpi\n      tag_81\n      tag_53\n      jump\t// in\n    tag_81:\n    tag_80:\n      dup2\n      mstore\n      pop\n      pop\n      swap1\n      pop\n      dup3\n      jump\t// out\n        /* \"src/solt.sol\":1768:1993  function send(address reciver, uint32 amount) public balaceSufficient(amount){... */\n    tag_42:\n        /* \"src/solt.sol\":1838:1844  amount */\n      dup1\n        /* \"src/solt.sol\":1045:1052  _amount */\n      dup1\n        /* \"src/solt.sol\":1016:1052  users[msg.sender].balance >= _amount */\n      0xffffffff\n      and\n        /* \"src/solt.sol\":1016:1021  users */\n      0x02\n        /* \"src/solt.sol\":1016:1033  users[msg.sender] */\n      0x00\n        /* \"src/solt.sol\":1022:1032  msg.sender */\n      caller\n        /* \"src/solt.sol\":1016:1033  users[msg.sender] */\n      0xffffffffffffffffffffffffffffffffffffffff\n      and\n      0xffffffffffffffffffffffffffffffffffffffff\n      and\n      dup2\n      mstore\n      0x20\n      add\n      swap1\n      dup2\n      mstore\n      0x20\n      add\n      0x00\n      keccak256\n        /* \"src/solt.sol\":1016:1041  users[msg.sender].balance */\n      0x00\n      add\n      0x00\n      swap1\n      sload\n      swap1\n      0x0100\n      exp\n      swap1\n      div\n      0xffffffff\n      and\n        /* \"src/solt.sol\":1016:1052  users[msg.sender].balance >= _amount */\n      0xffffffff\n      and\n      lt\n      iszero\n        /* \"src/solt.sol\":1008:1053  require(users[msg.sender].balance >= _amount) */\n      tag_83\n      jumpi\n      0x00\n      dup1\n      revert\n    tag_83:\n        /* \"src/solt.sol\":1884:1890  amount */\n      dup2\n        /* \"src/solt.sol\":1855:1860  users */\n      0x02\n        /* \"src/solt.sol\":1855:1872  users[msg.sender] */\n      0x00\n        /* \"src/solt.sol\":1861:1871  msg.sender */\n      caller\n        /* \"src/solt.sol\":1855:1872  users[msg.sender] */\n      0xffffffffffffffffffffffffffffffffffffffff\n      and\n      0xffffffffffffffffffffffffffffffffffffffff\n      and\n      dup2\n      mstore\n      0x20\n      add\n      swap1\n      dup2\n      mstore\n      0x20\n      add\n      0x00\n      keccak256\n        /* \"src/solt.sol\":1855:1880  users[msg.sender].balance */\n      0x00\n      add\n      0x00\n        /* \"src/solt.sol\":1855:1890  users[msg.sender].balance -= amount */\n      dup3\n      dup3\n      dup3\n      swap1\n      sload\n      swap1\n      0x0100\n      exp\n      swap1\n      div\n      0xffffffff\n      and\n      tag_85\n      swap2\n      swap1\n      tag_86\n      jump\t// in\n    tag_85:\n      swap3\n      pop\n      0x0100\n      exp\n      dup2\n      sload\n      dup2\n      0xffffffff\n      mul\n      not\n      and\n      swap1\n      dup4\n      0xffffffff\n      and\n      mul\n      or\n      swap1\n      sstore\n      pop\n        /* \"src/solt.sol\":1926:1932  amount */\n      dup2\n        /* \"src/solt.sol\":1900:1905  users */\n      0x02\n        /* \"src/solt.sol\":1900:1914  users[reciver] */\n      0x00\n        /* \"src/solt.sol\":1906:1913  reciver */\n      dup6\n        /* \"src/solt.sol\":1900:1914  users[reciver] */\n      0xffffffffffffffffffffffffffffffffffffffff\n      and\n      0xffffffffffffffffffffffffffffffffffffffff\n      and\n      dup2\n      mstore\n      0x20\n      add\n      swap1\n      dup2\n      mstore\n      0x20\n      add\n      0x00\n      keccak256\n        /* \"src/solt.sol\":1900:1922  users[reciver].balance */\n      0x00\n      add\n      0x00\n        /* \"src/solt.sol\":1900:1932  users[reciver].balance += amount */\n      dup3\n      dup3\n      dup3\n      swap1\n      sload\n      swap1\n      0x0100\n      exp\n      swap1\n      div\n      0xffffffff\n      and\n      tag_87\n      swap2\n      swap1\n      tag_88\n      jump\t// in\n    tag_87:\n      swap3\n      pop\n      0x0100\n      exp\n      dup2\n      sload\n      dup2\n      0xffffffff\n      mul\n      not\n      and\n      swap1\n      dup4\n      0xffffffff\n      and\n      mul\n      or\n      swap1\n      sstore\n      pop\n        /* \"src/solt.sol\":181:191  1000000000 */\n      0x3b9aca00\n        /* \"src/solt.sol\":1949:1985  users[reciver].balance <= MAX_SUPPLY */\n      0xffffffff\n      and\n        /* \"src/solt.sol\":1949:1954  users */\n      0x02\n        /* \"src/solt.sol\":1949:1963  users[reciver] */\n      0x00\n        /* \"src/solt.sol\":1955:1962  reciver */\n      dup6\n        /* \"src/solt.sol\":1949:1963  users[reciver] */\n      0xffffffffffffffffffffffffffffffffffffffff\n      and\n      0xffffffffffffffffffffffffffffffffffffffff\n      and\n      dup2\n      mstore\n      0x20\n      add\n      swap1\n      dup2\n      mstore\n      0x20\n      add\n      0x00\n      keccak256\n        /* \"src/solt.sol\":1949:1971  users[reciver].balance */\n      0x00\n      add\n      0x00\n      swap1\n      sload\n      swap1\n      0x0100\n      exp\n      swap1\n      div\n      0xffffffff\n      and\n        /* \"src/solt.sol\":1949:1985  users[reciver].balance <= MAX_SUPPLY */\n      0xffffffff\n      and\n      gt\n      iszero\n        /* \"src/solt.sol\":1942:1986  assert(users[reciver].balance <= MAX_SUPPLY) */\n      tag_89\n      jumpi\n      tag_90\n      tag_91\n      jump\t// in\n    tag_90:\n    tag_89:\n        /* \"src/solt.sol\":1768:1993  function send(address reciver, uint32 amount) public balaceSufficient(amount){... */\n      pop\n      pop\n      pop\n      jump\t// out\n        /* \"src/solt.sol\":1354:1526  function chooseNewOwner(address newOwner) public allowOnly(owner){... */\n    tag_46:\n        /* \"src/solt.sol\":1413:1418  owner */\n      0x00\n      dup1\n      sload\n      swap1\n      0x0100\n      exp\n      swap1\n      div\n      0xffffffffffffffffffffffffffffffffffffffff\n      and\n        /* \"src/solt.sol\":832:843  _authorized */\n      dup1\n        /* \"src/solt.sol\":818:843  msg.sender == _authorized */\n      0xffffffffffffffffffffffffffffffffffffffff\n      and\n        /* \"src/solt.sol\":818:828  msg.sender */\n      caller\n        /* \"src/solt.sol\":818:843  msg.sender == _authorized */\n      0xffffffffffffffffffffffffffffffffffffffff\n      and\n      eq\n        /* \"src/solt.sol\":810:872  require(msg.sender == _authorized, \"Caller is not authorized\") */\n      tag_93\n      jumpi\n      mload(0x40)\n      0x08c379a000000000000000000000000000000000000000000000000000000000\n      dup2\n      mstore\n      0x04\n      add\n      tag_94\n      swap1\n      tag_95\n      jump\t// in\n    tag_94:\n      mload(0x40)\n      dup1\n      swap2\n      sub\n      swap1\n      revert\n    tag_93:\n        /* \"src/solt.sol\":1457:1458  0 */\n      0x00\n        /* \"src/solt.sol\":1437:1459  newOwner != address(0) */\n      0xffffffffffffffffffffffffffffffffffffffff\n      and\n        /* \"src/solt.sol\":1437:1445  newOwner */\n      dup3\n        /* \"src/solt.sol\":1437:1459  newOwner != address(0) */\n      0xffffffffffffffffffffffffffffffffffffffff\n      and\n      sub\n        /* \"src/solt.sol\":1429:1489  require(newOwner != address(0), \"Invalid new owner address\") */\n      tag_97\n      jumpi\n      mload(0x40)\n      0x08c379a000000000000000000000000000000000000000000000000000000000\n      dup2\n      mstore\n      0x04\n      add\n      tag_98\n      swap1\n      tag_99\n      jump\t// in\n    tag_98:\n      mload(0x40)\n      dup1\n      swap2\n      sub\n      swap1\n      revert\n    tag_97:\n        /* \"src/solt.sol\":1511:1519  newOwner */\n      dup2\n        /* \"src/solt.sol\":1499:1508  nextOwner */\n      0x01\n      0x00\n        /* \"src/solt.sol\":1499:1519  nextOwner = newOwner */\n      0x0100\n      exp\n      dup2\n      sload\n      dup2\n      0xffffffffffffffffffffffffffffffffffffffff\n      mul\n      not\n      and\n      swap1\n      dup4\n      0xffffffffffffffffffffffffffffffffffffffff\n      and\n      mul\n      or\n      swap1\n      sstore\n      pop\n        /* \"src/solt.sol\":1354:1526  function chooseNewOwner(address newOwner) public allowOnly(owner){... */\n      pop\n      pop\n      jump\t// out\n        /* \"src/solt.sol\":1602:1722  function  ClaimOwnership() public allowOnly(nextOwner){... */\n    tag_49:\n        /* \"src/solt.sol\":1646:1655  nextOwner */\n      0x01\n      0x00\n      swap1\n      sload\n      swap1\n      0x0100\n      exp\n      swap1\n      div\n      0xffffffffffffffffffffffffffffffffffffffff\n      and\n        /* \"src/solt.sol\":832:843  _authorized */\n      dup1\n        /* \"src/solt.sol\":818:843  msg.sender == _authorized */\n      0xffffffffffffffffffffffffffffffffffffffff\n      and\n        /* \"src/solt.sol\":818:828  msg.sender */\n      caller\n        /* \"src/solt.sol\":818:843  msg.sender == _authorized */\n      0xffffffffffffffffffffffffffffffffffffffff\n      and\n      eq\n        /* \"src/solt.sol\":810:872  require(msg.sender == _authorized, \"Caller is not authorized\") */\n      tag_101\n      jumpi\n      mload(0x40)\n      0x08c379a000000000000000000000000000000000000000000000000000000000\n      dup2\n      mstore\n      0x04\n      add\n      tag_102\n      swap1\n      tag_95\n      jump\t// in\n    tag_102:\n      mload(0x40)\n      dup1\n      swap2\n      sub\n      swap1\n      revert\n    tag_101:\n        /* \"src/solt.sol\":1674:1683  nextOwner */\n      0x01\n      0x00\n      swap1\n      sload\n      swap1\n      0x0100\n      exp\n      swap1\n      div\n      0xffffffffffffffffffffffffffffffffffffffff\n      and\n        /* \"src/solt.sol\":1666:1671  owner */\n      0x00\n      dup1\n        /* \"src/solt.sol\":1666:1683  owner = nextOwner */\n      0x0100\n      exp\n      dup2\n      sload\n      dup2\n      0xffffffffffffffffffffffffffffffffffffffff\n      mul\n      not\n      and\n      swap1\n      dup4\n      0xffffffffffffffffffffffffffffffffffffffff\n      and\n      mul\n      or\n      swap1\n      sstore\n      pop\n        /* \"src/solt.sol\":1713:1714  0 */\n      0x00\n        /* \"src/solt.sol\":1693:1702  nextOwner */\n      0x01\n      0x00\n        /* \"src/solt.sol\":1693:1715  nextOwner = address(0) */\n      0x0100\n      exp\n      dup2\n      sload\n      dup2\n      0xffffffffffffffffffffffffffffffffffffffff\n      mul\n      not\n      and\n      swap1\n      dup4\n      0xffffffffffffffffffffffffffffffffffffffff\n      and\n      mul\n      or\n      swap1\n      sstore\n      pop\n        /* \"src/solt.sol\":1602:1722  function  ClaimOwnership() public allowOnly(nextOwner){... */\n      pop\n      jump\t// out\n        /* \"src/solt.sol\":2181:2956  function matchRequests(uint32 amount, uint32 coinPrice, RequestTypes TYPE) private{... */\n    tag_63:\n        /* \"src/solt.sol\":2306:2310  TYPE */\n      dup1\n        /* \"src/solt.sol\":2273:2278  users */\n      0x02\n        /* \"src/solt.sol\":2273:2290  users[msg.sender] */\n      0x00\n        /* \"src/solt.sol\":2279:2289  msg.sender */\n      caller\n        /* \"src/solt.sol\":2273:2290  users[msg.sender] */\n      0xffffffffffffffffffffffffffffffffffffffff\n      and\n      0xffffffffffffffffffffffffffffffffffffffff\n      and\n      dup2\n      mstore\n      0x20\n      add\n      swap1\n      dup2\n      mstore\n      0x20\n      add\n      0x00\n      keccak256\n        /* \"src/solt.sol\":2273:2298  users[msg.sender].Request */\n      0x01\n      add\n        /* \"src/solt.sol\":2273:2303  users[msg.sender].Request.Type */\n      0x02\n      add\n      0x00\n        /* \"src/solt.sol\":2273:2310  users[msg.sender].Request.Type = TYPE */\n      0x0100\n      exp\n      dup2\n      sload\n      dup2\n      0xff\n      mul\n      not\n      and\n      swap1\n      dup4\n      0x02\n      dup2\n      gt\n      iszero\n      tag_105\n      jumpi\n      tag_106\n      tag_53\n      jump\t// in\n    tag_106:\n    tag_105:\n      mul\n      or\n      swap1\n      sstore\n      pop\n        /* \"src/solt.sol\":2320:2349  address[] storage requestants */\n      0x00\n        /* \"src/solt.sol\":2359:2376  RequestTypes.SELL */\n      0x01\n        /* \"src/solt.sol\":2353:2376  TYPE==RequestTypes.SELL */\n      0x02\n      dup2\n      gt\n      iszero\n      tag_107\n      jumpi\n      tag_108\n      tag_53\n      jump\t// in\n    tag_108:\n    tag_107:\n        /* \"src/solt.sol\":2353:2357  TYPE */\n      dup3\n        /* \"src/solt.sol\":2353:2376  TYPE==RequestTypes.SELL */\n      0x02\n      dup2\n      gt\n      iszero\n      tag_109\n      jumpi\n      tag_110\n      tag_53\n      jump\t// in\n    tag_110:\n    tag_109:\n      eq\n        /* \"src/solt.sol\":2353:2411  TYPE==RequestTypes.SELL ? buyRequestants : sellRequestants */\n      tag_111\n      jumpi\n        /* \"src/solt.sol\":2396:2411  sellRequestants */\n      0x03\n        /* \"src/solt.sol\":2353:2411  TYPE==RequestTypes.SELL ? buyRequestants : sellRequestants */\n      jump(tag_112)\n    tag_111:\n        /* \"src/solt.sol\":2379:2393  buyRequestants */\n      0x04\n        /* \"src/solt.sol\":2353:2411  TYPE==RequestTypes.SELL ? buyRequestants : sellRequestants */\n    tag_112:\n        /* \"src/solt.sol\":2320:2412  address[] storage requestants = (TYPE==RequestTypes.SELL ? buyRequestants : sellRequestants) */\n      swap1\n      pop\n        /* \"src/solt.sol\":2422:2439  uint32 amountLeft */\n      0x00\n        /* \"src/solt.sol\":2442:2448  amount */\n      dup5\n        /* \"src/solt.sol\":2422:2448  uint32 amountLeft = amount */\n      swap1\n      pop\n        /* \"src/solt.sol\":2463:2469  uint i */\n      0x00\n        /* \"src/solt.sol\":2472:2483  requestants */\n      dup3\n        /* \"src/solt.sol\":2472:2490  requestants.length */\n      dup1\n      sload\n      swap1\n      pop\n        /* \"src/solt.sol\":2463:2490  uint i = requestants.length */\n      swap1\n      pop\n        /* \"src/solt.sol\":2458:2777  for (uint i = requestants.length; i > 0; i--) {... */\n    tag_113:\n        /* \"src/solt.sol\":2496:2497  0 */\n      0x00\n        /* \"src/solt.sol\":2492:2493  i */\n      dup2\n        /* \"src/solt.sol\":2492:2497  i > 0 */\n      gt\n        /* \"src/solt.sol\":2458:2777  for (uint i = requestants.length; i > 0; i--) {... */\n      iszero\n      tag_114\n      jumpi\n        /* \"src/solt.sol\":2518:2545  userRequest storage request */\n      0x00\n        /* \"src/solt.sol\":2548:2553  users */\n      0x02\n        /* \"src/solt.sol\":2548:2571  users[requestants[i-1]] */\n      0x00\n        /* \"src/solt.sol\":2554:2565  requestants */\n      dup6\n        /* \"src/solt.sol\":2568:2569  1 */\n      0x01\n        /* \"src/solt.sol\":2566:2567  i */\n      dup6\n        /* \"src/solt.sol\":2566:2569  i-1 */\n      tag_116\n      swap2\n      swap1\n      tag_117\n      jump\t// in\n    tag_116:\n        /* \"src/solt.sol\":2554:2570  requestants[i-1] */\n      dup2\n      sload\n      dup2\n      lt\n      tag_118\n      jumpi\n      tag_119\n      tag_120\n      jump\t// in\n    tag_119:\n    tag_118:\n      swap1\n      0x00\n      mstore\n      keccak256(0x00, 0x20)\n      add\n      0x00\n      swap1\n      sload\n      swap1\n      0x0100\n      exp\n      swap1\n      div\n      0xffffffffffffffffffffffffffffffffffffffff\n      and\n        /* \"src/solt.sol\":2548:2571  users[requestants[i-1]] */\n      0xffffffffffffffffffffffffffffffffffffffff\n      and\n      0xffffffffffffffffffffffffffffffffffffffff\n      and\n      dup2\n      mstore\n      0x20\n      add\n      swap1\n      dup2\n      mstore\n      0x20\n      add\n      0x00\n      keccak256\n        /* \"src/solt.sol\":2548:2579  users[requestants[i-1]].Request */\n      0x01\n      add\n        /* \"src/solt.sol\":2518:2579  userRequest storage request = users[requestants[i-1]].Request */\n      swap1\n      pop\n        /* \"src/solt.sol\":2618:2627  coinPrice */\n      dup6\n        /* \"src/solt.sol\":2597:2627  request.coinPrice >= coinPrice */\n      0xffffffff\n      and\n        /* \"src/solt.sol\":2597:2604  request */\n      dup2\n        /* \"src/solt.sol\":2597:2614  request.coinPrice */\n      0x00\n      add\n      0x04\n      swap1\n      sload\n      swap1\n      0x0100\n      exp\n      swap1\n      div\n      0xffffffff\n      and\n        /* \"src/solt.sol\":2597:2627  request.coinPrice >= coinPrice */\n      0xffffffff\n      and\n      lt\n        /* \"src/solt.sol\":2593:2767  if (request.coinPrice >= coinPrice) {... */\n      tag_122\n      jumpi\n        /* \"src/solt.sol\":2660:2716  executeRequests(requestants[i-1], amountLeft, TYPE, i-1) */\n      tag_123\n        /* \"src/solt.sol\":2676:2687  requestants */\n      dup5\n        /* \"src/solt.sol\":2690:2691  1 */\n      0x01\n        /* \"src/solt.sol\":2688:2689  i */\n      dup5\n        /* \"src/solt.sol\":2688:2691  i-1 */\n      tag_124\n      swap2\n      swap1\n      tag_117\n      jump\t// in\n    tag_124:\n        /* \"src/solt.sol\":2676:2692  requestants[i-1] */\n      dup2\n      sload\n      dup2\n      lt\n      tag_125\n      jumpi\n      tag_126\n      tag_120\n      jump\t// in\n    tag_126:\n    tag_125:\n      swap1\n      0x00\n      mstore\n      keccak256(0x00, 0x20)\n      add\n      0x00\n      swap1\n      sload\n      swap1\n      0x0100\n      exp\n      swap1\n      div\n      0xffffffffffffffffffffffffffffffffffffffff\n      and\n        /* \"src/solt.sol\":2694:2704  amountLeft */\n      dup5\n        /* \"src/solt.sol\":2706:2710  TYPE */\n      dup8\n        /* \"src/solt.sol\":2714:2715  1 */\n      0x01\n        /* \"src/solt.sol\":2712:2713  i */\n      dup7\n        /* \"src/solt.sol\":2712:2715  i-1 */\n      tag_128\n      swap2\n      swap1\n      tag_117\n      jump\t// in\n    tag_128:\n        /* \"src/solt.sol\":2660:2675  executeRequests */\n      tag_129\n        /* \"src/solt.sol\":2660:2716  executeRequests(requestants[i-1], amountLeft, TYPE, i-1) */\n      jump\t// in\n    tag_123:\n        /* \"src/solt.sol\":2647:2716  amountLeft = executeRequests(requestants[i-1], amountLeft, TYPE, i-1) */\n      swap3\n      pop\n        /* \"src/solt.sol\":2748:2749  0 */\n      0x00\n        /* \"src/solt.sol\":2734:2744  amountLeft */\n      dup4\n        /* \"src/solt.sol\":2734:2749  amountLeft == 0 */\n      0xffffffff\n      and\n      sub\n        /* \"src/solt.sol\":2730:2756  if (amountLeft == 0) break */\n      tag_130\n      jumpi\n        /* \"src/solt.sol\":2751:2756  break */\n      pop\n      jump(tag_114)\n        /* \"src/solt.sol\":2730:2756  if (amountLeft == 0) break */\n    tag_130:\n        /* \"src/solt.sol\":2593:2767  if (request.coinPrice >= coinPrice) {... */\n    tag_122:\n        /* \"src/solt.sol\":2504:2777  {... */\n      pop\n        /* \"src/solt.sol\":2499:2502  i-- */\n      dup1\n      dup1\n      tag_131\n      swap1\n      tag_132\n      jump\t// in\n    tag_131:\n      swap2\n      pop\n      pop\n        /* \"src/solt.sol\":2458:2777  for (uint i = requestants.length; i > 0; i--) {... */\n      jump(tag_113)\n    tag_114:\n      pop\n        /* \"src/solt.sol\":2802:2803  0 */\n      0x00\n        /* \"src/solt.sol\":2789:2799  amountLeft */\n      dup2\n        /* \"src/solt.sol\":2789:2803  amountLeft > 0 */\n      0xffffffff\n      and\n      gt\n        /* \"src/solt.sol\":2786:2950  if(amountLeft > 0){... */\n      iszero\n      tag_133\n      jumpi\n        /* \"src/solt.sol\":2818:2857  addRequest(amountLeft, coinPrice, TYPE) */\n      tag_134\n        /* \"src/solt.sol\":2829:2839  amountLeft */\n      dup2\n        /* \"src/solt.sol\":2841:2850  coinPrice */\n      dup6\n        /* \"src/solt.sol\":2852:2856  TYPE */\n      dup6\n        /* \"src/solt.sol\":2818:2828  addRequest */\n      tag_135\n        /* \"src/solt.sol\":2818:2857  addRequest(amountLeft, coinPrice, TYPE) */\n      jump\t// in\n    tag_134:\n        /* \"src/solt.sol\":2786:2950  if(amountLeft > 0){... */\n      jump(tag_136)\n    tag_133:\n        /* \"src/solt.sol\":2919:2936  RequestTypes.NONE */\n      0x00\n        /* \"src/solt.sol\":2886:2891  users */\n      0x02\n        /* \"src/solt.sol\":2886:2903  users[msg.sender] */\n      0x00\n        /* \"src/solt.sol\":2892:2902  msg.sender */\n      caller\n        /* \"src/solt.sol\":2886:2903  users[msg.sender] */\n      0xffffffffffffffffffffffffffffffffffffffff\n      and\n      0xffffffffffffffffffffffffffffffffffffffff\n      and\n      dup2\n      mstore\n      0x20\n      add\n      swap1\n      dup2\n      mstore\n      0x20\n      add\n      0x00\n      keccak256\n        /* \"src/solt.sol\":2886:2911  users[msg.sender].Request */\n      0x01\n      add\n        /* \"src/solt.sol\":2886:2916  users[msg.sender].Request.Type */\n      0x02\n      add\n      0x00\n        /* \"src/solt.sol\":2886:2936  users[msg.sender].Request.Type = RequestTypes.NONE */\n      0x0100\n      exp\n      dup2\n      sload\n      dup2\n      0xff\n      mul\n      not\n      and\n      swap1\n      dup4\n      0x02\n      dup2\n      gt\n      iszero\n      tag_137\n      jumpi\n      tag_138\n      tag_53\n      jump\t// in\n    tag_138:\n    tag_137:\n      mul\n      or\n      swap1\n      sstore\n      pop\n        /* \"src/solt.sol\":2786:2950  if(amountLeft > 0){... */\n    tag_136:\n        /* \"src/solt.sol\":2263:2956  {... */\n      pop\n      pop\n        /* \"src/solt.sol\":2181:2956  function matchRequests(uint32 amount, uint32 coinPrice, RequestTypes TYPE) private{... */\n      pop\n      pop\n      pop\n      jump\t// out\n        /* \"src/solt.sol\":2962:3824  function executeRequests(address counterparty, uint32 amount, RequestTypes TYPE, uint requestIndex) private returns(uint32){... */\n    tag_129:\n        /* \"src/solt.sol\":3078:3084  uint32 */\n      0x00\n        /* \"src/solt.sol\":3095:3122  userRequest storage request */\n      dup1\n        /* \"src/solt.sol\":3125:3130  users */\n      0x02\n        /* \"src/solt.sol\":3125:3144  users[counterparty] */\n      0x00\n        /* \"src/solt.sol\":3131:3143  counterparty */\n      dup8\n        /* \"src/solt.sol\":3125:3144  users[counterparty] */\n      0xffffffffffffffffffffffffffffffffffffffff\n      and\n      0xffffffffffffffffffffffffffffffffffffffff\n      and\n      dup2\n      mstore\n      0x20\n      add\n      swap1\n      dup2\n      mstore\n      0x20\n      add\n      0x00\n      keccak256\n        /* \"src/solt.sol\":3125:3152  users[counterparty].Request */\n      0x01\n      add\n        /* \"src/solt.sol\":3095:3152  userRequest storage request = users[counterparty].Request */\n      swap1\n      pop\n        /* \"src/solt.sol\":3162:3180  uint32 tradeAmount */\n      0x00\n        /* \"src/solt.sol\":3192:3199  request */\n      dup2\n        /* \"src/solt.sol\":3192:3206  request.amount */\n      0x00\n      add\n      0x00\n      swap1\n      sload\n      swap1\n      0x0100\n      exp\n      swap1\n      div\n      0xffffffff\n      and\n        /* \"src/solt.sol\":3183:3206  amount < request.amount */\n      0xffffffff\n      and\n        /* \"src/solt.sol\":3183:3189  amount */\n      dup7\n        /* \"src/solt.sol\":3183:3206  amount < request.amount */\n      0xffffffff\n      and\n      lt\n        /* \"src/solt.sol\":3183:3232  amount < request.amount ? amount : request.amount */\n      tag_140\n      jumpi\n        /* \"src/solt.sol\":3218:3225  request */\n      dup2\n        /* \"src/solt.sol\":3218:3232  request.amount */\n      0x00\n      add\n      0x00\n      swap1\n      sload\n      swap1\n      0x0100\n      exp\n      swap1\n      div\n      0xffffffff\n      and\n        /* \"src/solt.sol\":3183:3232  amount < request.amount ? amount : request.amount */\n      jump(tag_141)\n    tag_140:\n        /* \"src/solt.sol\":3209:3215  amount */\n      dup6\n        /* \"src/solt.sol\":3183:3232  amount < request.amount ? amount : request.amount */\n    tag_141:\n        /* \"src/solt.sol\":3162:3232  uint32 tradeAmount = amount < request.amount ? amount : request.amount */\n      swap1\n      pop\n        /* \"src/solt.sol\":3254:3271  RequestTypes.SELL */\n      0x01\n        /* \"src/solt.sol\":3246:3271  TYPE == RequestTypes.SELL */\n      0x02\n      dup2\n      gt\n      iszero\n      tag_142\n      jumpi\n      tag_143\n      tag_53\n      jump\t// in\n    tag_143:\n    tag_142:\n        /* \"src/solt.sol\":3246:3250  TYPE */\n      dup6\n        /* \"src/solt.sol\":3246:3271  TYPE == RequestTypes.SELL */\n      0x02\n      dup2\n      gt\n      iszero\n      tag_144\n      jumpi\n      tag_145\n      tag_53\n      jump\t// in\n    tag_145:\n    tag_144:\n      sub\n        /* \"src/solt.sol\":3242:3672  if (TYPE == RequestTypes.SELL) {... */\n      tag_146\n      jumpi\n        /* \"src/solt.sol\":3287:3347  sendEther(payable(msg.sender),tradeAmount*request.coinPrice) */\n      tag_147\n        /* \"src/solt.sol\":3305:3315  msg.sender */\n      caller\n        /* \"src/solt.sol\":3329:3336  request */\n      dup4\n        /* \"src/solt.sol\":3329:3346  request.coinPrice */\n      0x00\n      add\n      0x04\n      swap1\n      sload\n      swap1\n      0x0100\n      exp\n      swap1\n      div\n      0xffffffff\n      and\n        /* \"src/solt.sol\":3317:3328  tradeAmount */\n      dup4\n        /* \"src/solt.sol\":3317:3346  tradeAmount*request.coinPrice */\n      tag_148\n      swap2\n      swap1\n      tag_58\n      jump\t// in\n    tag_148:\n        /* \"src/solt.sol\":3287:3296  sendEther */\n      tag_149\n        /* \"src/solt.sol\":3287:3347  sendEther(payable(msg.sender),tradeAmount*request.coinPrice) */\n      jump\t// in\n    tag_147:\n        /* \"src/solt.sol\":3390:3401  tradeAmount */\n      dup1\n        /* \"src/solt.sol\":3361:3366  users */\n      0x02\n        /* \"src/solt.sol\":3361:3378  users[msg.sender] */\n      0x00\n        /* \"src/solt.sol\":3367:3377  msg.sender */\n      caller\n        /* \"src/solt.sol\":3361:3378  users[msg.sender] */\n      0xffffffffffffffffffffffffffffffffffffffff\n      and\n      0xffffffffffffffffffffffffffffffffffffffff\n      and\n      dup2\n      mstore\n      0x20\n      add\n      swap1\n      dup2\n      mstore\n      0x20\n      add\n      0x00\n      keccak256\n        /* \"src/solt.sol\":3361:3386  users[msg.sender].balance */\n      0x00\n      add\n      0x00\n        /* \"src/solt.sol\":3361:3401  users[msg.sender].balance -= tradeAmount */\n      dup3\n      dup3\n      dup3\n      swap1\n      sload\n      swap1\n      0x0100\n      exp\n      swap1\n      div\n      0xffffffff\n      and\n      tag_150\n      swap2\n      swap1\n      tag_86\n      jump\t// in\n    tag_150:\n      swap3\n      pop\n      0x0100\n      exp\n      dup2\n      sload\n      dup2\n      0xffffffff\n      mul\n      not\n      and\n      swap1\n      dup4\n      0xffffffff\n      and\n      mul\n      or\n      swap1\n      sstore\n      pop\n        /* \"src/solt.sol\":3446:3457  tradeAmount */\n      dup1\n        /* \"src/solt.sol\":3415:3420  users */\n      0x02\n        /* \"src/solt.sol\":3415:3434  users[counterparty] */\n      0x00\n        /* \"src/solt.sol\":3421:3433  counterparty */\n      dup10\n        /* \"src/solt.sol\":3415:3434  users[counterparty] */\n      0xffffffffffffffffffffffffffffffffffffffff\n      and\n      0xffffffffffffffffffffffffffffffffffffffff\n      and\n      dup2\n      mstore\n      0x20\n      add\n      swap1\n      dup2\n      mstore\n      0x20\n      add\n      0x00\n      keccak256\n        /* \"src/solt.sol\":3415:3442  users[counterparty].balance */\n      0x00\n      add\n      0x00\n        /* \"src/solt.sol\":3415:3457  users[counterparty].balance += tradeAmount */\n      dup3\n      dup3\n      dup3\n      swap1\n      sload\n      swap1\n      0x0100\n      exp\n      swap1\n      div\n      0xffffffff\n      and\n      tag_151\n      swap2\n      swap1\n      tag_88\n      jump\t// in\n    tag_151:\n      swap3\n      pop\n      0x0100\n      exp\n      dup2\n      sload\n      dup2\n      0xffffffff\n      mul\n      not\n      and\n      swap1\n      dup4\n      0xffffffff\n      and\n      mul\n      or\n      swap1\n      sstore\n      pop\n        /* \"src/solt.sol\":3242:3672  if (TYPE == RequestTypes.SELL) {... */\n      jump(tag_152)\n    tag_146:\n        /* \"src/solt.sol\":3489:3551  sendEther(payable(counterparty),tradeAmount*request.coinPrice) */\n      tag_153\n        /* \"src/solt.sol\":3507:3519  counterparty */\n      dup8\n        /* \"src/solt.sol\":3533:3540  request */\n      dup4\n        /* \"src/solt.sol\":3533:3550  request.coinPrice */\n      0x00\n      add\n      0x04\n      swap1\n      sload\n      swap1\n      0x0100\n      exp\n      swap1\n      div\n      0xffffffff\n      and\n        /* \"src/solt.sol\":3521:3532  tradeAmount */\n      dup4\n        /* \"src/solt.sol\":3521:3550  tradeAmount*request.coinPrice */\n      tag_154\n      swap2\n      swap1\n      tag_58\n      jump\t// in\n    tag_154:\n        /* \"src/solt.sol\":3489:3498  sendEther */\n      tag_149\n        /* \"src/solt.sol\":3489:3551  sendEther(payable(counterparty),tradeAmount*request.coinPrice) */\n      jump\t// in\n    tag_153:\n        /* \"src/solt.sol\":3594:3605  tradeAmount */\n      dup1\n        /* \"src/solt.sol\":3565:3570  users */\n      0x02\n        /* \"src/solt.sol\":3565:3582  users[msg.sender] */\n      0x00\n        /* \"src/solt.sol\":3571:3581  msg.sender */\n      caller\n        /* \"src/solt.sol\":3565:3582  users[msg.sender] */\n      0xffffffffffffffffffffffffffffffffffffffff\n      and\n      0xffffffffffffffffffffffffffffffffffffffff\n      and\n      dup2\n      mstore\n      0x20\n      add\n      swap1\n      dup2\n      mstore\n      0x20\n      add\n      0x00\n      keccak256\n        /* \"src/solt.sol\":3565:3590  users[msg.sender].balance */\n      0x00\n      add\n      0x00\n        /* \"src/solt.sol\":3565:3605  users[msg.sender].balance += tradeAmount */\n      dup3\n      dup3\n      dup3\n      swap1\n      sload\n      swap1\n      0x0100\n      exp\n      swap1\n      div\n      0xffffffff\n      and\n      tag_155\n      swap2\n      swap1\n      tag_88\n      jump\t// in\n    tag_155:\n      swap3\n      pop\n      0x0100\n      exp\n      dup2\n      sload\n      dup2\n      0xffffffff\n      mul\n      not\n      and\n      swap1\n      dup4\n      0xffffffff\n      and\n      mul\n      or\n      swap1\n      sstore\n      pop\n        /* \"src/solt.sol\":3650:3661  tradeAmount */\n      dup1\n        /* \"src/solt.sol\":3619:3624  users */\n      0x02\n        /* \"src/solt.sol\":3619:3638  users[counterparty] */\n      0x00\n        /* \"src/solt.sol\":3625:3637  counterparty */\n      dup10\n        /* \"src/solt.sol\":3619:3638  users[counterparty] */\n      0xffffffffffffffffffffffffffffffffffffffff\n      and\n      0xffffffffffffffffffffffffffffffffffffffff\n      and\n      dup2\n      mstore\n      0x20\n      add\n      swap1\n      dup2\n      mstore\n      0x20\n      add\n      0x00\n      keccak256\n        /* \"src/solt.sol\":3619:3646  users[counterparty].balance */\n      0x00\n      add\n      0x00\n        /* \"src/solt.sol\":3619:3661  users[counterparty].balance -= tradeAmount */\n      dup3\n      dup3\n      dup3\n      swap1\n      sload\n      swap1\n      0x0100\n      exp\n      swap1\n      div\n      0xffffffff\n      and\n      tag_156\n      swap2\n      swap1\n      tag_86\n      jump\t// in\n    tag_156:\n      swap3\n      pop\n      0x0100\n      exp\n      dup2\n      sload\n      dup2\n      0xffffffff\n      mul\n      not\n      and\n      swap1\n      dup4\n      0xffffffff\n      and\n      mul\n      or\n      swap1\n      sstore\n      pop\n        /* \"src/solt.sol\":3242:3672  if (TYPE == RequestTypes.SELL) {... */\n    tag_152:\n        /* \"src/solt.sol\":3699:3710  tradeAmount */\n      dup1\n        /* \"src/solt.sol\":3681:3688  request */\n      dup3\n        /* \"src/solt.sol\":3681:3695  request.amount */\n      0x00\n      add\n      0x00\n        /* \"src/solt.sol\":3681:3710  request.amount -= tradeAmount */\n      dup3\n      dup3\n      dup3\n      swap1\n      sload\n      swap1\n      0x0100\n      exp\n      swap1\n      div\n      0xffffffff\n      and\n      tag_157\n      swap2\n      swap1\n      tag_86\n      jump\t// in\n    tag_157:\n      swap3\n      pop\n      0x0100\n      exp\n      dup2\n      sload\n      dup2\n      0xffffffff\n      mul\n      not\n      and\n      swap1\n      dup4\n      0xffffffff\n      and\n      mul\n      or\n      swap1\n      sstore\n      pop\n        /* \"src/solt.sol\":3742:3743  0 */\n      0x00\n        /* \"src/solt.sol\":3724:3731  request */\n      dup3\n        /* \"src/solt.sol\":3724:3738  request.amount */\n      0x00\n      add\n      0x00\n      swap1\n      sload\n      swap1\n      0x0100\n      exp\n      swap1\n      div\n      0xffffffff\n      and\n        /* \"src/solt.sol\":3724:3743  request.amount == 0 */\n      0xffffffff\n      and\n      sub\n        /* \"src/solt.sol\":3720:3781  if (request.amount == 0) removeRequest(request, requestIndex) */\n      tag_158\n      jumpi\n        /* \"src/solt.sol\":3745:3781  removeRequest(request, requestIndex) */\n      tag_159\n        /* \"src/solt.sol\":3759:3766  request */\n      dup3\n        /* \"src/solt.sol\":3768:3780  requestIndex */\n      dup6\n        /* \"src/solt.sol\":3745:3758  removeRequest */\n      tag_160\n        /* \"src/solt.sol\":3745:3781  removeRequest(request, requestIndex) */\n      jump\t// in\n    tag_159:\n        /* \"src/solt.sol\":3720:3781  if (request.amount == 0) removeRequest(request, requestIndex) */\n    tag_158:\n        /* \"src/solt.sol\":3806:3817  tradeAmount */\n      dup1\n        /* \"src/solt.sol\":3798:3817  amount-=tradeAmount */\n      dup7\n      tag_161\n      swap2\n      swap1\n      tag_86\n      jump\t// in\n    tag_161:\n      swap6\n      pop\n      dup6\n        /* \"src/solt.sol\":3791:3817  return amount-=tradeAmount */\n      swap3\n      pop\n      pop\n      pop\n        /* \"src/solt.sol\":2962:3824  function executeRequests(address counterparty, uint32 amount, RequestTypes TYPE, uint requestIndex) private returns(uint32){... */\n      swap5\n      swap4\n      pop\n      pop\n      pop\n      pop\n      jump\t// out\n        /* \"src/solt.sol\":4584:5033  function addRequest(uint32 amount, uint32 coinPrice, RequestTypes TYPE) private {... */\n    tag_135:\n        /* \"src/solt.sol\":4674:4703  address[] storage requestants */\n      0x00\n        /* \"src/solt.sol\":4713:4730  RequestTypes.SELL */\n      0x01\n        /* \"src/solt.sol\":4707:4730  TYPE==RequestTypes.SELL */\n      0x02\n      dup2\n      gt\n      iszero\n      tag_163\n      jumpi\n      tag_164\n      tag_53\n      jump\t// in\n    tag_164:\n    tag_163:\n        /* \"src/solt.sol\":4707:4711  TYPE */\n      dup3\n        /* \"src/solt.sol\":4707:4730  TYPE==RequestTypes.SELL */\n      0x02\n      dup2\n      gt\n      iszero\n      tag_165\n      jumpi\n      tag_166\n      tag_53\n      jump\t// in\n    tag_166:\n    tag_165:\n      eq\n        /* \"src/solt.sol\":4707:4765  TYPE==RequestTypes.SELL ? sellRequestants : buyRequestants */\n      tag_167\n      jumpi\n        /* \"src/solt.sol\":4751:4765  buyRequestants */\n      0x04\n        /* \"src/solt.sol\":4707:4765  TYPE==RequestTypes.SELL ? sellRequestants : buyRequestants */\n      jump(tag_168)\n    tag_167:\n        /* \"src/solt.sol\":4733:4748  sellRequestants */\n      0x03\n        /* \"src/solt.sol\":4707:4765  TYPE==RequestTypes.SELL ? sellRequestants : buyRequestants */\n    tag_168:\n        /* \"src/solt.sol\":4674:4766  address[] storage requestants = (TYPE==RequestTypes.SELL ? sellRequestants : buyRequestants) */\n      swap1\n      pop\n        /* \"src/solt.sol\":4805:4811  amount */\n      dup4\n        /* \"src/solt.sol\":4776:4781  users */\n      0x02\n        /* \"src/solt.sol\":4776:4793  users[msg.sender] */\n      0x00\n        /* \"src/solt.sol\":4782:4792  msg.sender */\n      caller\n        /* \"src/solt.sol\":4776:4793  users[msg.sender] */\n      0xffffffffffffffffffffffffffffffffffffffff\n      and\n      0xffffffffffffffffffffffffffffffffffffffff\n      and\n      dup2\n      mstore\n      0x20\n      add\n      swap1\n      dup2\n      mstore\n      0x20\n      add\n      0x00\n      keccak256\n        /* \"src/solt.sol\":4776:4801  users[msg.sender].balance */\n      0x00\n      add\n      0x00\n        /* \"src/solt.sol\":4776:4811  users[msg.sender].balance -= amount */\n      dup3\n      dup3\n      dup3\n      swap1\n      sload\n      swap1\n      0x0100\n      exp\n      swap1\n      div\n      0xffffffff\n      and\n      tag_169\n      swap2\n      swap1\n      tag_86\n      jump\t// in\n    tag_169:\n      swap3\n      pop\n      0x0100\n      exp\n      dup2\n      sload\n      dup2\n      0xffffffff\n      mul\n      not\n      and\n      swap1\n      dup4\n      0xffffffff\n      and\n      mul\n      or\n      swap1\n      sstore\n      pop\n        /* \"src/solt.sol\":4821:4832  requestants */\n      dup1\n        /* \"src/solt.sol\":4838:4848  msg.sender */\n      caller\n        /* \"src/solt.sol\":4821:4849  requestants.push(msg.sender) */\n      swap1\n      dup1\n      0x01\n      dup2\n      sload\n      add\n      dup1\n      dup3\n      sstore\n      dup1\n      swap2\n      pop\n      pop\n      0x01\n      swap1\n      sub\n      swap1\n      0x00\n      mstore\n      keccak256(0x00, 0x20)\n      add\n      0x00\n      swap1\n      swap2\n      swap1\n      swap2\n      swap1\n      swap2\n      0x0100\n      exp\n      dup2\n      sload\n      dup2\n      0xffffffffffffffffffffffffffffffffffffffff\n      mul\n      not\n      and\n      swap1\n      dup4\n      0xffffffffffffffffffffffffffffffffffffffff\n      and\n      mul\n      or\n      swap1\n      sstore\n      pop\n        /* \"src/solt.sol\":4859:4886  userRequest storage request */\n      0x00\n        /* \"src/solt.sol\":4889:4894  users */\n      0x02\n        /* \"src/solt.sol\":4889:4906  users[msg.sender] */\n      0x00\n        /* \"src/solt.sol\":4895:4905  msg.sender */\n      caller\n        /* \"src/solt.sol\":4889:4906  users[msg.sender] */\n      0xffffffffffffffffffffffffffffffffffffffff\n      and\n      0xffffffffffffffffffffffffffffffffffffffff\n      and\n      dup2\n      mstore\n      0x20\n      add\n      swap1\n      dup2\n      mstore\n      0x20\n      add\n      0x00\n      keccak256\n        /* \"src/solt.sol\":4889:4914  users[msg.sender].Request */\n      0x01\n      add\n        /* \"src/solt.sol\":4859:4914  userRequest storage request = users[msg.sender].Request */\n      swap1\n      pop\n        /* \"src/solt.sol\":4941:4947  amount */\n      dup5\n        /* \"src/solt.sol\":4924:4931  request */\n      dup2\n        /* \"src/solt.sol\":4924:4938  request.amount */\n      0x00\n      add\n      0x00\n        /* \"src/solt.sol\":4924:4947  request.amount = amount */\n      0x0100\n      exp\n      dup2\n      sload\n      dup2\n      0xffffffff\n      mul\n      not\n      and\n      swap1\n      dup4\n      0xffffffff\n      and\n      mul\n      or\n      swap1\n      sstore\n      pop\n        /* \"src/solt.sol\":4977:4986  coinPrice */\n      dup4\n        /* \"src/solt.sol\":4957:4964  request */\n      dup2\n        /* \"src/solt.sol\":4957:4974  request.coinPrice */\n      0x00\n      add\n      0x04\n        /* \"src/solt.sol\":4957:4986  request.coinPrice = coinPrice */\n      0x0100\n      exp\n      dup2\n      sload\n      dup2\n      0xffffffff\n      mul\n      not\n      and\n      swap1\n      dup4\n      0xffffffff\n      and\n      mul\n      or\n      swap1\n      sstore\n      pop\n        /* \"src/solt.sol\":5011:5026  block.timestamp */\n      timestamp\n        /* \"src/solt.sol\":4996:5003  request */\n      dup2\n        /* \"src/solt.sol\":4996:5008  request.time */\n      0x01\n      add\n        /* \"src/solt.sol\":4996:5026  request.time = block.timestamp */\n      dup2\n      swap1\n      sstore\n      pop\n        /* \"src/solt.sol\":4664:5033  {... */\n      pop\n      pop\n        /* \"src/solt.sol\":4584:5033  function addRequest(uint32 amount, uint32 coinPrice, RequestTypes TYPE) private {... */\n      pop\n      pop\n      pop\n      jump\t// out\n        /* \"src/solt.sol\":1999:2175  function sendEther(address payable reciver, uint32 amount) private{... */\n    tag_149:\n        /* \"src/solt.sol\":2076:2085  bool sent */\n      0x00\n        /* \"src/solt.sol\":2090:2097  reciver */\n      dup3\n        /* \"src/solt.sol\":2090:2102  reciver.call */\n      0xffffffffffffffffffffffffffffffffffffffff\n      and\n        /* \"src/solt.sol\":2110:2116  amount */\n      dup3\n        /* \"src/solt.sol\":2090:2121  reciver.call{value: amount}(\"\") */\n      0xffffffff\n      and\n      mload(0x40)\n      tag_172\n      swap1\n      tag_173\n      jump\t// in\n    tag_172:\n      0x00\n      mload(0x40)\n      dup1\n      dup4\n      sub\n      dup2\n      dup6\n      dup8\n      gas\n      call\n      swap3\n      pop\n      pop\n      pop\n      returndatasize\n      dup1\n      0x00\n      dup2\n      eq\n      tag_176\n      jumpi\n      mload(0x40)\n      swap2\n      pop\n      and(add(returndatasize, 0x3f), not(0x1f))\n      dup3\n      add\n      0x40\n      mstore\n      returndatasize\n      dup3\n      mstore\n      returndatasize\n      0x00\n      0x20\n      dup5\n      add\n      returndatacopy\n      jump(tag_175)\n    tag_176:\n      0x60\n      swap2\n      pop\n    tag_175:\n      pop\n        /* \"src/solt.sol\":2075:2121  (bool sent,) = reciver.call{value: amount}(\"\") */\n      pop\n      swap1\n      pop\n        /* \"src/solt.sol\":2139:2143  sent */\n      dup1\n        /* \"src/solt.sol\":2131:2168  require(sent, \"Failed to send Ether\") */\n      tag_177\n      jumpi\n      mload(0x40)\n      0x08c379a000000000000000000000000000000000000000000000000000000000\n      dup2\n      mstore\n      0x04\n      add\n      tag_178\n      swap1\n      tag_179\n      jump\t// in\n    tag_178:\n      mload(0x40)\n      dup1\n      swap2\n      sub\n      swap1\n      revert\n    tag_177:\n        /* \"src/solt.sol\":2065:2175  {... */\n      pop\n        /* \"src/solt.sol\":1999:2175  function sendEther(address payable reciver, uint32 amount) private{... */\n      pop\n      pop\n      jump\t// out\n        /* \"src/solt.sol\":4183:4578  function removeRequest(userRequest storage request, uint requestIndex) private {... */\n    tag_160:\n        /* \"src/solt.sol\":4272:4301  address[] storage requestants */\n      0x00\n        /* \"src/solt.sol\":4319:4336  RequestTypes.SELL */\n      0x01\n        /* \"src/solt.sol\":4305:4336  request.Type==RequestTypes.SELL */\n      0x02\n      dup2\n      gt\n      iszero\n      tag_181\n      jumpi\n      tag_182\n      tag_53\n      jump\t// in\n    tag_182:\n    tag_181:\n        /* \"src/solt.sol\":4305:4312  request */\n      dup4\n        /* \"src/solt.sol\":4305:4317  request.Type */\n      0x02\n      add\n      0x00\n      swap1\n      sload\n      swap1\n      0x0100\n      exp\n      swap1\n      div\n      0xff\n      and\n        /* \"src/solt.sol\":4305:4336  request.Type==RequestTypes.SELL */\n      0x02\n      dup2\n      gt\n      iszero\n      tag_183\n      jumpi\n      tag_184\n      tag_53\n      jump\t// in\n    tag_184:\n    tag_183:\n      eq\n        /* \"src/solt.sol\":4305:4371  request.Type==RequestTypes.SELL ? sellRequestants : buyRequestants */\n      tag_185\n      jumpi\n        /* \"src/solt.sol\":4357:4371  buyRequestants */\n      0x04\n        /* \"src/solt.sol\":4305:4371  request.Type==RequestTypes.SELL ? sellRequestants : buyRequestants */\n      jump(tag_186)\n    tag_185:\n        /* \"src/solt.sol\":4339:4354  sellRequestants */\n      0x03\n        /* \"src/solt.sol\":4305:4371  request.Type==RequestTypes.SELL ? sellRequestants : buyRequestants */\n    tag_186:\n        /* \"src/solt.sol\":4272:4372  address[] storage requestants = (request.Type==RequestTypes.SELL ? sellRequestants : buyRequestants) */\n      swap1\n      pop\n        /* \"src/solt.sol\":4387:4393  uint i */\n      0x00\n        /* \"src/solt.sol\":4396:4408  requestIndex */\n      dup3\n        /* \"src/solt.sol\":4387:4408  uint i = requestIndex */\n      swap1\n      pop\n        /* \"src/solt.sol\":4382:4503  for (uint i = requestIndex; i < requestants.length - 1; i++) {... */\n    tag_187:\n        /* \"src/solt.sol\":4435:4436  1 */\n      0x01\n        /* \"src/solt.sol\":4414:4425  requestants */\n      dup3\n        /* \"src/solt.sol\":4414:4432  requestants.length */\n      dup1\n      sload\n      swap1\n      pop\n        /* \"src/solt.sol\":4414:4436  requestants.length - 1 */\n      tag_190\n      swap2\n      swap1\n      tag_117\n      jump\t// in\n    tag_190:\n        /* \"src/solt.sol\":4410:4411  i */\n      dup2\n        /* \"src/solt.sol\":4410:4436  i < requestants.length - 1 */\n      lt\n        /* \"src/solt.sol\":4382:4503  for (uint i = requestIndex; i < requestants.length - 1; i++) {... */\n      iszero\n      tag_188\n      jumpi\n        /* \"src/solt.sol\":4474:4485  requestants */\n      dup2\n        /* \"src/solt.sol\":4490:4491  1 */\n      0x01\n        /* \"src/solt.sol\":4486:4487  i */\n      dup3\n        /* \"src/solt.sol\":4486:4491  i + 1 */\n      tag_191\n      swap2\n      swap1\n      tag_192\n      jump\t// in\n    tag_191:\n        /* \"src/solt.sol\":4474:4492  requestants[i + 1] */\n      dup2\n      sload\n      dup2\n      lt\n      tag_193\n      jumpi\n      tag_194\n      tag_120\n      jump\t// in\n    tag_194:\n    tag_193:\n      swap1\n      0x00\n      mstore\n      keccak256(0x00, 0x20)\n      add\n      0x00\n      swap1\n      sload\n      swap1\n      0x0100\n      exp\n      swap1\n      div\n      0xffffffffffffffffffffffffffffffffffffffff\n      and\n        /* \"src/solt.sol\":4457:4468  requestants */\n      dup3\n        /* \"src/solt.sol\":4469:4470  i */\n      dup3\n        /* \"src/solt.sol\":4457:4471  requestants[i] */\n      dup2\n      sload\n      dup2\n      lt\n      tag_196\n      jumpi\n      tag_197\n      tag_120\n      jump\t// in\n    tag_197:\n    tag_196:\n      swap1\n      0x00\n      mstore\n      keccak256(0x00, 0x20)\n      add\n      0x00\n        /* \"src/solt.sol\":4457:4492  requestants[i] = requestants[i + 1] */\n      0x0100\n      exp\n      dup2\n      sload\n      dup2\n      0xffffffffffffffffffffffffffffffffffffffff\n      mul\n      not\n      and\n      swap1\n      dup4\n      0xffffffffffffffffffffffffffffffffffffffff\n      and\n      mul\n      or\n      swap1\n      sstore\n      pop\n        /* \"src/solt.sol\":4438:4441  i++ */\n      dup1\n      dup1\n      0x01\n      add\n      swap2\n      pop\n      pop\n        /* \"src/solt.sol\":4382:4503  for (uint i = requestIndex; i < requestants.length - 1; i++) {... */\n      jump(tag_187)\n    tag_188:\n      pop\n        /* \"src/solt.sol\":4512:4523  requestants */\n      dup1\n        /* \"src/solt.sol\":4512:4529  requestants.pop() */\n      dup1\n      sload\n      dup1\n      tag_199\n      jumpi\n      tag_200\n      tag_201\n      jump\t// in\n    tag_200:\n    tag_199:\n      0x01\n      swap1\n      sub\n      dup2\n      dup2\n      swap1\n      0x00\n      mstore\n      keccak256(0x00, 0x20)\n      add\n      exp(0x0100, 0x00)\n      dup2\n      sload\n      swap1\n      0xffffffffffffffffffffffffffffffffffffffff\n      mul\n      not\n      and\n      swap1\n      sstore\n      swap1\n      sstore\n        /* \"src/solt.sol\":4554:4571  RequestTypes.NONE */\n      0x00\n        /* \"src/solt.sol\":4539:4546  request */\n      dup4\n        /* \"src/solt.sol\":4539:4551  request.Type */\n      0x02\n      add\n      0x00\n        /* \"src/solt.sol\":4539:4571  request.Type = RequestTypes.NONE */\n      0x0100\n      exp\n      dup2\n      sload\n      dup2\n      0xff\n      mul\n      not\n      and\n      swap1\n      dup4\n      0x02\n      dup2\n      gt\n      iszero\n      tag_203\n      jumpi\n      tag_204\n      tag_53\n      jump\t// in\n    tag_204:\n    tag_203:\n      mul\n      or\n      swap1\n      sstore\n      pop\n        /* \"src/solt.sol\":4262:4578  {... */\n      pop\n        /* \"src/solt.sol\":4183:4578  function removeRequest(userRequest storage request, uint requestIndex) private {... */\n      pop\n      pop\n      jump\t// out\n        /* \"#utility.yul\":88:205   */\n    tag_206:\n        /* \"#utility.yul\":197:198   */\n      0x00\n        /* \"#utility.yul\":194:195   */\n      dup1\n        /* \"#utility.yul\":187:199   */\n      revert\n        /* \"#utility.yul\":334:427   */\n    tag_208:\n        /* \"#utility.yul\":370:377   */\n      0x00\n        /* \"#utility.yul\":410:420   */\n      0xffffffff\n        /* \"#utility.yul\":403:408   */\n      dup3\n        /* \"#utility.yul\":399:421   */\n      and\n        /* \"#utility.yul\":388:421   */\n      swap1\n      pop\n        /* \"#utility.yul\":334:427   */\n      swap2\n      swap1\n      pop\n      jump\t// out\n        /* \"#utility.yul\":433:553   */\n    tag_209:\n        /* \"#utility.yul\":505:528   */\n      tag_244\n        /* \"#utility.yul\":522:527   */\n      dup2\n        /* \"#utility.yul\":505:528   */\n      tag_208\n      jump\t// in\n    tag_244:\n        /* \"#utility.yul\":498:503   */\n      dup2\n        /* \"#utility.yul\":495:529   */\n      eq\n        /* \"#utility.yul\":485:547   */\n      tag_245\n      jumpi\n        /* \"#utility.yul\":543:544   */\n      0x00\n        /* \"#utility.yul\":540:541   */\n      dup1\n        /* \"#utility.yul\":533:545   */\n      revert\n        /* \"#utility.yul\":485:547   */\n    tag_245:\n        /* \"#utility.yul\":433:553   */\n      pop\n      jump\t// out\n        /* \"#utility.yul\":559:696   */\n    tag_210:\n        /* \"#utility.yul\":604:609   */\n      0x00\n        /* \"#utility.yul\":642:648   */\n      dup2\n        /* \"#utility.yul\":629:649   */\n      calldataload\n        /* \"#utility.yul\":620:649   */\n      swap1\n      pop\n        /* \"#utility.yul\":658:690   */\n      tag_247\n        /* \"#utility.yul\":684:689   */\n      dup2\n        /* \"#utility.yul\":658:690   */\n      tag_209\n      jump\t// in\n    tag_247:\n        /* \"#utility.yul\":559:696   */\n      swap3\n      swap2\n      pop\n      pop\n      jump\t// out\n        /* \"#utility.yul\":702:1172   */\n    tag_13:\n        /* \"#utility.yul\":768:774   */\n      0x00\n        /* \"#utility.yul\":776:782   */\n      dup1\n        /* \"#utility.yul\":825:827   */\n      0x40\n        /* \"#utility.yul\":813:822   */\n      dup4\n        /* \"#utility.yul\":804:811   */\n      dup6\n        /* \"#utility.yul\":800:823   */\n      sub\n        /* \"#utility.yul\":796:828   */\n      slt\n        /* \"#utility.yul\":793:912   */\n      iszero\n      tag_249\n      jumpi\n        /* \"#utility.yul\":831:910   */\n      tag_250\n      tag_206\n      jump\t// in\n    tag_250:\n        /* \"#utility.yul\":793:912   */\n    tag_249:\n        /* \"#utility.yul\":951:952   */\n      0x00\n        /* \"#utility.yul\":976:1028   */\n      tag_251\n        /* \"#utility.yul\":1020:1027   */\n      dup6\n        /* \"#utility.yul\":1011:1017   */\n      dup3\n        /* \"#utility.yul\":1000:1009   */\n      dup7\n        /* \"#utility.yul\":996:1018   */\n      add\n        /* \"#utility.yul\":976:1028   */\n      tag_210\n      jump\t// in\n    tag_251:\n        /* \"#utility.yul\":966:1028   */\n      swap3\n      pop\n        /* \"#utility.yul\":922:1038   */\n      pop\n        /* \"#utility.yul\":1077:1079   */\n      0x20\n        /* \"#utility.yul\":1103:1155   */\n      tag_252\n        /* \"#utility.yul\":1147:1154   */\n      dup6\n        /* \"#utility.yul\":1138:1144   */\n      dup3\n        /* \"#utility.yul\":1127:1136   */\n      dup7\n        /* \"#utility.yul\":1123:1145   */\n      add\n        /* \"#utility.yul\":1103:1155   */\n      tag_210\n      jump\t// in\n    tag_252:\n        /* \"#utility.yul\":1093:1155   */\n      swap2\n      pop\n        /* \"#utility.yul\":1048:1165   */\n      pop\n        /* \"#utility.yul\":702:1172   */\n      swap3\n      pop\n      swap3\n      swap1\n      pop\n      jump\t// out\n        /* \"#utility.yul\":1178:1255   */\n    tag_211:\n        /* \"#utility.yul\":1215:1222   */\n      0x00\n        /* \"#utility.yul\":1244:1249   */\n      dup2\n        /* \"#utility.yul\":1233:1249   */\n      swap1\n      pop\n        /* \"#utility.yul\":1178:1255   */\n      swap2\n      swap1\n      pop\n      jump\t// out\n        /* \"#utility.yul\":1261:1383   */\n    tag_212:\n        /* \"#utility.yul\":1334:1358   */\n      tag_255\n        /* \"#utility.yul\":1352:1357   */\n      dup2\n        /* \"#utility.yul\":1334:1358   */\n      tag_211\n      jump\t// in\n    tag_255:\n        /* \"#utility.yul\":1327:1332   */\n      dup2\n        /* \"#utility.yul\":1324:1359   */\n      eq\n        /* \"#utility.yul\":1314:1377   */\n      tag_256\n      jumpi\n        /* \"#utility.yul\":1373:1374   */\n      0x00\n        /* \"#utility.yul\":1370:1371   */\n      dup1\n        /* \"#utility.yul\":1363:1375   */\n      revert\n        /* \"#utility.yul\":1314:1377   */\n    tag_256:\n        /* \"#utility.yul\":1261:1383   */\n      pop\n      jump\t// out\n        /* \"#utility.yul\":1389:1528   */\n    tag_213:\n        /* \"#utility.yul\":1435:1440   */\n      0x00\n        /* \"#utility.yul\":1473:1479   */\n      dup2\n        /* \"#utility.yul\":1460:1480   */\n      calldataload\n        /* \"#utility.yul\":1451:1480   */\n      swap1\n      pop\n        /* \"#utility.yul\":1489:1522   */\n      tag_258\n        /* \"#utility.yul\":1516:1521   */\n      dup2\n        /* \"#utility.yul\":1489:1522   */\n      tag_212\n      jump\t// in\n    tag_258:\n        /* \"#utility.yul\":1389:1528   */\n      swap3\n      swap2\n      pop\n      pop\n      jump\t// out\n        /* \"#utility.yul\":1534:1863   */\n    tag_18:\n        /* \"#utility.yul\":1593:1599   */\n      0x00\n        /* \"#utility.yul\":1642:1644   */\n      0x20\n        /* \"#utility.yul\":1630:1639   */\n      dup3\n        /* \"#utility.yul\":1621:1628   */\n      dup5\n        /* \"#utility.yul\":1617:1640   */\n      sub\n        /* \"#utility.yul\":1613:1645   */\n      slt\n        /* \"#utility.yul\":1610:1729   */\n      iszero\n      tag_260\n      jumpi\n        /* \"#utility.yul\":1648:1727   */\n      tag_261\n      tag_206\n      jump\t// in\n    tag_261:\n        /* \"#utility.yul\":1610:1729   */\n    tag_260:\n        /* \"#utility.yul\":1768:1769   */\n      0x00\n        /* \"#utility.yul\":1793:1846   */\n      tag_262\n        /* \"#utility.yul\":1838:1845   */\n      dup5\n        /* \"#utility.yul\":1829:1835   */\n      dup3\n        /* \"#utility.yul\":1818:1827   */\n      dup6\n        /* \"#utility.yul\":1814:1836   */\n      add\n        /* \"#utility.yul\":1793:1846   */\n      tag_213\n      jump\t// in\n    tag_262:\n        /* \"#utility.yul\":1783:1846   */\n      swap2\n      pop\n        /* \"#utility.yul\":1739:1856   */\n      pop\n        /* \"#utility.yul\":1534:1863   */\n      swap3\n      swap2\n      pop\n      pop\n      jump\t// out\n        /* \"#utility.yul\":1869:1995   */\n    tag_214:\n        /* \"#utility.yul\":1906:1913   */\n      0x00\n        /* \"#utility.yul\":1946:1988   */\n      0xffffffffffffffffffffffffffffffffffffffff\n        /* \"#utility.yul\":1939:1944   */\n      dup3\n        /* \"#utility.yul\":1935:1989   */\n      and\n        /* \"#utility.yul\":1924:1989   */\n      swap1\n      pop\n        /* \"#utility.yul\":1869:1995   */\n      swap2\n      swap1\n      pop\n      jump\t// out\n        /* \"#utility.yul\":2001:2097   */\n    tag_215:\n        /* \"#utility.yul\":2038:2045   */\n      0x00\n        /* \"#utility.yul\":2067:2091   */\n      tag_265\n        /* \"#utility.yul\":2085:2090   */\n      dup3\n        /* \"#utility.yul\":2067:2091   */\n      tag_214\n      jump\t// in\n    tag_265:\n        /* \"#utility.yul\":2056:2091   */\n      swap1\n      pop\n        /* \"#utility.yul\":2001:2097   */\n      swap2\n      swap1\n      pop\n      jump\t// out\n        /* \"#utility.yul\":2103:2221   */\n    tag_216:\n        /* \"#utility.yul\":2190:2214   */\n      tag_267\n        /* \"#utility.yul\":2208:2213   */\n      dup2\n        /* \"#utility.yul\":2190:2214   */\n      tag_215\n      jump\t// in\n    tag_267:\n        /* \"#utility.yul\":2185:2188   */\n      dup3\n        /* \"#utility.yul\":2178:2215   */\n      mstore\n        /* \"#utility.yul\":2103:2221   */\n      pop\n      pop\n      jump\t// out\n        /* \"#utility.yul\":2227:2449   */\n    tag_21:\n        /* \"#utility.yul\":2320:2324   */\n      0x00\n        /* \"#utility.yul\":2358:2360   */\n      0x20\n        /* \"#utility.yul\":2347:2356   */\n      dup3\n        /* \"#utility.yul\":2343:2361   */\n      add\n        /* \"#utility.yul\":2335:2361   */\n      swap1\n      pop\n        /* \"#utility.yul\":2371:2442   */\n      tag_269\n        /* \"#utility.yul\":2439:2440   */\n      0x00\n        /* \"#utility.yul\":2428:2437   */\n      dup4\n        /* \"#utility.yul\":2424:2441   */\n      add\n        /* \"#utility.yul\":2415:2421   */\n      dup5\n        /* \"#utility.yul\":2371:2442   */\n      tag_216\n      jump\t// in\n    tag_269:\n        /* \"#utility.yul\":2227:2449   */\n      swap3\n      swap2\n      pop\n      pop\n      jump\t// out\n        /* \"#utility.yul\":2455:2577   */\n    tag_217:\n        /* \"#utility.yul\":2528:2552   */\n      tag_271\n        /* \"#utility.yul\":2546:2551   */\n      dup2\n        /* \"#utility.yul\":2528:2552   */\n      tag_215\n      jump\t// in\n    tag_271:\n        /* \"#utility.yul\":2521:2526   */\n      dup2\n        /* \"#utility.yul\":2518:2553   */\n      eq\n        /* \"#utility.yul\":2508:2571   */\n      tag_272\n      jumpi\n        /* \"#utility.yul\":2567:2568   */\n      0x00\n        /* \"#utility.yul\":2564:2565   */\n      dup1\n        /* \"#utility.yul\":2557:2569   */\n      revert\n        /* \"#utility.yul\":2508:2571   */\n    tag_272:\n        /* \"#utility.yul\":2455:2577   */\n      pop\n      jump\t// out\n        /* \"#utility.yul\":2583:2722   */\n    tag_218:\n        /* \"#utility.yul\":2629:2634   */\n      0x00\n        /* \"#utility.yul\":2667:2673   */\n      dup2\n        /* \"#utility.yul\":2654:2674   */\n      calldataload\n        /* \"#utility.yul\":2645:2674   */\n      swap1\n      pop\n        /* \"#utility.yul\":2683:2716   */\n      tag_274\n        /* \"#utility.yul\":2710:2715   */\n      dup2\n        /* \"#utility.yul\":2683:2716   */\n      tag_217\n      jump\t// in\n    tag_274:\n        /* \"#utility.yul\":2583:2722   */\n      swap3\n      swap2\n      pop\n      pop\n      jump\t// out\n        /* \"#utility.yul\":2728:3057   */\n    tag_34:\n        /* \"#utility.yul\":2787:2793   */\n      0x00\n        /* \"#utility.yul\":2836:2838   */\n      0x20\n        /* \"#utility.yul\":2824:2833   */\n      dup3\n        /* \"#utility.yul\":2815:2822   */\n      dup5\n        /* \"#utility.yul\":2811:2834   */\n      sub\n        /* \"#utility.yul\":2807:2839   */\n      slt\n        /* \"#utility.yul\":2804:2923   */\n      iszero\n      tag_276\n      jumpi\n        /* \"#utility.yul\":2842:2921   */\n      tag_277\n      tag_206\n      jump\t// in\n    tag_277:\n        /* \"#utility.yul\":2804:2923   */\n    tag_276:\n        /* \"#utility.yul\":2962:2963   */\n      0x00\n        /* \"#utility.yul\":2987:3040   */\n      tag_278\n        /* \"#utility.yul\":3032:3039   */\n      dup5\n        /* \"#utility.yul\":3023:3029   */\n      dup3\n        /* \"#utility.yul\":3012:3021   */\n      dup6\n        /* \"#utility.yul\":3008:3030   */\n      add\n        /* \"#utility.yul\":2987:3040   */\n      tag_218\n      jump\t// in\n    tag_278:\n        /* \"#utility.yul\":2977:3040   */\n      swap2\n      pop\n        /* \"#utility.yul\":2933:3050   */\n      pop\n        /* \"#utility.yul\":2728:3057   */\n      swap3\n      swap2\n      pop\n      pop\n      jump\t// out\n        /* \"#utility.yul\":3063:3178   */\n    tag_219:\n        /* \"#utility.yul\":3148:3171   */\n      tag_280\n        /* \"#utility.yul\":3165:3170   */\n      dup2\n        /* \"#utility.yul\":3148:3171   */\n      tag_208\n      jump\t// in\n    tag_280:\n        /* \"#utility.yul\":3143:3146   */\n      dup3\n        /* \"#utility.yul\":3136:3172   */\n      mstore\n        /* \"#utility.yul\":3063:3178   */\n      pop\n      pop\n      jump\t// out\n        /* \"#utility.yul\":3184:3289   */\n    tag_220:\n        /* \"#utility.yul\":3259:3282   */\n      tag_282\n        /* \"#utility.yul\":3276:3281   */\n      dup2\n        /* \"#utility.yul\":3259:3282   */\n      tag_208\n      jump\t// in\n    tag_282:\n        /* \"#utility.yul\":3254:3257   */\n      dup3\n        /* \"#utility.yul\":3247:3283   */\n      mstore\n        /* \"#utility.yul\":3184:3289   */\n      pop\n      pop\n      jump\t// out\n        /* \"#utility.yul\":3295:3403   */\n    tag_221:\n        /* \"#utility.yul\":3372:3396   */\n      tag_284\n        /* \"#utility.yul\":3390:3395   */\n      dup2\n        /* \"#utility.yul\":3372:3396   */\n      tag_211\n      jump\t// in\n    tag_284:\n        /* \"#utility.yul\":3367:3370   */\n      dup3\n        /* \"#utility.yul\":3360:3397   */\n      mstore\n        /* \"#utility.yul\":3295:3403   */\n      pop\n      pop\n      jump\t// out\n        /* \"#utility.yul\":3409:3589   */\n    tag_53:\n        /* \"#utility.yul\":3457:3534   */\n      0x4e487b7100000000000000000000000000000000000000000000000000000000\n        /* \"#utility.yul\":3454:3455   */\n      0x00\n        /* \"#utility.yul\":3447:3535   */\n      mstore\n        /* \"#utility.yul\":3554:3558   */\n      0x21\n        /* \"#utility.yul\":3551:3552   */\n      0x04\n        /* \"#utility.yul\":3544:3559   */\n      mstore\n        /* \"#utility.yul\":3578:3582   */\n      0x24\n        /* \"#utility.yul\":3575:3576   */\n      0x00\n        /* \"#utility.yul\":3568:3583   */\n      revert\n        /* \"#utility.yul\":3595:3715   */\n    tag_222:\n        /* \"#utility.yul\":3683:3684   */\n      0x03\n        /* \"#utility.yul\":3676:3681   */\n      dup2\n        /* \"#utility.yul\":3673:3685   */\n      lt\n        /* \"#utility.yul\":3663:3709   */\n      tag_287\n      jumpi\n        /* \"#utility.yul\":3689:3707   */\n      tag_288\n      tag_53\n      jump\t// in\n    tag_288:\n        /* \"#utility.yul\":3663:3709   */\n    tag_287:\n        /* \"#utility.yul\":3595:3715   */\n      pop\n      jump\t// out\n        /* \"#utility.yul\":3721:3862   */\n    tag_223:\n        /* \"#utility.yul\":3773:3780   */\n      0x00\n        /* \"#utility.yul\":3802:3807   */\n      dup2\n        /* \"#utility.yul\":3791:3807   */\n      swap1\n      pop\n        /* \"#utility.yul\":3808:3856   */\n      tag_290\n        /* \"#utility.yul\":3850:3855   */\n      dup3\n        /* \"#utility.yul\":3808:3856   */\n      tag_222\n      jump\t// in\n    tag_290:\n        /* \"#utility.yul\":3721:3862   */\n      swap2\n      swap1\n      pop\n      jump\t// out\n        /* \"#utility.yul\":3868:4009   */\n    tag_224:\n        /* \"#utility.yul\":3931:3940   */\n      0x00\n        /* \"#utility.yul\":3964:4003   */\n      tag_292\n        /* \"#utility.yul\":3997:4002   */\n      dup3\n        /* \"#utility.yul\":3964:4003   */\n      tag_223\n      jump\t// in\n    tag_292:\n        /* \"#utility.yul\":3951:4003   */\n      swap1\n      pop\n        /* \"#utility.yul\":3868:4009   */\n      swap2\n      swap1\n      pop\n      jump\t// out\n        /* \"#utility.yul\":4015:4162   */\n    tag_225:\n        /* \"#utility.yul\":4105:4155   */\n      tag_294\n        /* \"#utility.yul\":4149:4154   */\n      dup2\n        /* \"#utility.yul\":4105:4155   */\n      tag_224\n      jump\t// in\n    tag_294:\n        /* \"#utility.yul\":4100:4103   */\n      dup3\n        /* \"#utility.yul\":4093:4156   */\n      mstore\n        /* \"#utility.yul\":4015:4162   */\n      pop\n      pop\n      jump\t// out\n        /* \"#utility.yul\":4226:5101   */\n    tag_226:\n        /* \"#utility.yul\":4377:4381   */\n      0x80\n        /* \"#utility.yul\":4372:4375   */\n      dup3\n        /* \"#utility.yul\":4368:4382   */\n      add\n        /* \"#utility.yul\":4466:4470   */\n      0x00\n        /* \"#utility.yul\":4459:4464   */\n      dup3\n        /* \"#utility.yul\":4455:4471   */\n      add\n        /* \"#utility.yul\":4449:4472   */\n      mload\n        /* \"#utility.yul\":4485:4546   */\n      tag_296\n        /* \"#utility.yul\":4540:4544   */\n      0x00\n        /* \"#utility.yul\":4535:4538   */\n      dup6\n        /* \"#utility.yul\":4531:4545   */\n      add\n        /* \"#utility.yul\":4517:4529   */\n      dup3\n        /* \"#utility.yul\":4485:4546   */\n      tag_220\n      jump\t// in\n    tag_296:\n        /* \"#utility.yul\":4392:4556   */\n      pop\n        /* \"#utility.yul\":4643:4647   */\n      0x20\n        /* \"#utility.yul\":4636:4641   */\n      dup3\n        /* \"#utility.yul\":4632:4648   */\n      add\n        /* \"#utility.yul\":4626:4649   */\n      mload\n        /* \"#utility.yul\":4662:4723   */\n      tag_297\n        /* \"#utility.yul\":4717:4721   */\n      0x20\n        /* \"#utility.yul\":4712:4715   */\n      dup6\n        /* \"#utility.yul\":4708:4722   */\n      add\n        /* \"#utility.yul\":4694:4706   */\n      dup3\n        /* \"#utility.yul\":4662:4723   */\n      tag_220\n      jump\t// in\n    tag_297:\n        /* \"#utility.yul\":4566:4733   */\n      pop\n        /* \"#utility.yul\":4815:4819   */\n      0x40\n        /* \"#utility.yul\":4808:4813   */\n      dup3\n        /* \"#utility.yul\":4804:4820   */\n      add\n        /* \"#utility.yul\":4798:4821   */\n      mload\n        /* \"#utility.yul\":4834:4897   */\n      tag_298\n        /* \"#utility.yul\":4891:4895   */\n      0x40\n        /* \"#utility.yul\":4886:4889   */\n      dup6\n        /* \"#utility.yul\":4882:4896   */\n      add\n        /* \"#utility.yul\":4868:4880   */\n      dup3\n        /* \"#utility.yul\":4834:4897   */\n      tag_221\n      jump\t// in\n    tag_298:\n        /* \"#utility.yul\":4743:4907   */\n      pop\n        /* \"#utility.yul\":4989:4993   */\n      0x60\n        /* \"#utility.yul\":4982:4987   */\n      dup3\n        /* \"#utility.yul\":4978:4994   */\n      add\n        /* \"#utility.yul\":4972:4995   */\n      mload\n        /* \"#utility.yul\":5008:5084   */\n      tag_299\n        /* \"#utility.yul\":5078:5082   */\n      0x60\n        /* \"#utility.yul\":5073:5076   */\n      dup6\n        /* \"#utility.yul\":5069:5083   */\n      add\n        /* \"#utility.yul\":5055:5067   */\n      dup3\n        /* \"#utility.yul\":5008:5084   */\n      tag_225\n      jump\t// in\n    tag_299:\n        /* \"#utility.yul\":4917:5094   */\n      pop\n        /* \"#utility.yul\":4346:5101   */\n      pop\n        /* \"#utility.yul\":4226:5101   */\n      pop\n      pop\n      jump\t// out\n        /* \"#utility.yul\":5107:5544   */\n    tag_37:\n        /* \"#utility.yul\":5280:5284   */\n      0x00\n        /* \"#utility.yul\":5318:5321   */\n      0xa0\n        /* \"#utility.yul\":5307:5316   */\n      dup3\n        /* \"#utility.yul\":5303:5322   */\n      add\n        /* \"#utility.yul\":5295:5322   */\n      swap1\n      pop\n        /* \"#utility.yul\":5332:5401   */\n      tag_301\n        /* \"#utility.yul\":5398:5399   */\n      0x00\n        /* \"#utility.yul\":5387:5396   */\n      dup4\n        /* \"#utility.yul\":5383:5400   */\n      add\n        /* \"#utility.yul\":5374:5380   */\n      dup6\n        /* \"#utility.yul\":5332:5401   */\n      tag_219\n      jump\t// in\n    tag_301:\n        /* \"#utility.yul\":5411:5537   */\n      tag_302\n        /* \"#utility.yul\":5533:5535   */\n      0x20\n        /* \"#utility.yul\":5522:5531   */\n      dup4\n        /* \"#utility.yul\":5518:5536   */\n      add\n        /* \"#utility.yul\":5509:5515   */\n      dup5\n        /* \"#utility.yul\":5411:5537   */\n      tag_226\n      jump\t// in\n    tag_302:\n        /* \"#utility.yul\":5107:5544   */\n      swap4\n      swap3\n      pop\n      pop\n      pop\n      jump\t// out\n        /* \"#utility.yul\":5550:6022   */\n    tag_41:\n        /* \"#utility.yul\":5617:5623   */\n      0x00\n        /* \"#utility.yul\":5625:5631   */\n      dup1\n        /* \"#utility.yul\":5674:5676   */\n      0x40\n        /* \"#utility.yul\":5662:5671   */\n      dup4\n        /* \"#utility.yul\":5653:5660   */\n      dup6\n        /* \"#utility.yul\":5649:5672   */\n      sub\n        /* \"#utility.yul\":5645:5677   */\n      slt\n        /* \"#utility.yul\":5642:5761   */\n      iszero\n      tag_304\n      jumpi\n        /* \"#utility.yul\":5680:5759   */\n      tag_305\n      tag_206\n      jump\t// in\n    tag_305:\n        /* \"#utility.yul\":5642:5761   */\n    tag_304:\n        /* \"#utility.yul\":5800:5801   */\n      0x00\n        /* \"#utility.yul\":5825:5878   */\n      tag_306\n        /* \"#utility.yul\":5870:5877   */\n      dup6\n        /* \"#utility.yul\":5861:5867   */\n      dup3\n        /* \"#utility.yul\":5850:5859   */\n      dup7\n        /* \"#utility.yul\":5846:5868   */\n      add\n        /* \"#utility.yul\":5825:5878   */\n      tag_218\n      jump\t// in\n    tag_306:\n        /* \"#utility.yul\":5815:5878   */\n      swap3\n      pop\n        /* \"#utility.yul\":5771:5888   */\n      pop\n        /* \"#utility.yul\":5927:5929   */\n      0x20\n        /* \"#utility.yul\":5953:6005   */\n      tag_307\n        /* \"#utility.yul\":5997:6004   */\n      dup6\n        /* \"#utility.yul\":5988:5994   */\n      dup3\n        /* \"#utility.yul\":5977:5986   */\n      dup7\n        /* \"#utility.yul\":5973:5995   */\n      add\n        /* \"#utility.yul\":5953:6005   */\n      tag_210\n      jump\t// in\n    tag_307:\n        /* \"#utility.yul\":5943:6005   */\n      swap2\n      pop\n        /* \"#utility.yul\":5898:6015   */\n      pop\n        /* \"#utility.yul\":5550:6022   */\n      swap3\n      pop\n      swap3\n      swap1\n      pop\n      jump\t// out\n        /* \"#utility.yul\":6028:6208   */\n    tag_227:\n        /* \"#utility.yul\":6076:6153   */\n      0x4e487b7100000000000000000000000000000000000000000000000000000000\n        /* \"#utility.yul\":6073:6074   */\n      0x00\n        /* \"#utility.yul\":6066:6154   */\n      mstore\n        /* \"#utility.yul\":6173:6177   */\n      0x11\n        /* \"#utility.yul\":6170:6171   */\n      0x04\n        /* \"#utility.yul\":6163:6178   */\n      mstore\n        /* \"#utility.yul\":6197:6201   */\n      0x24\n        /* \"#utility.yul\":6194:6195   */\n      0x00\n        /* \"#utility.yul\":6187:6202   */\n      revert\n        /* \"#utility.yul\":6214:6489   */\n    tag_58:\n        /* \"#utility.yul\":6253:6260   */\n      0x00\n        /* \"#utility.yul\":6276:6295   */\n      tag_310\n        /* \"#utility.yul\":6293:6294   */\n      dup3\n        /* \"#utility.yul\":6276:6295   */\n      tag_208\n      jump\t// in\n    tag_310:\n        /* \"#utility.yul\":6271:6295   */\n      swap2\n      pop\n        /* \"#utility.yul\":6309:6328   */\n      tag_311\n        /* \"#utility.yul\":6326:6327   */\n      dup4\n        /* \"#utility.yul\":6309:6328   */\n      tag_208\n      jump\t// in\n    tag_311:\n        /* \"#utility.yul\":6304:6328   */\n      swap3\n      pop\n        /* \"#utility.yul\":6363:6364   */\n      dup3\n        /* \"#utility.yul\":6360:6361   */\n      dup3\n        /* \"#utility.yul\":6356:6365   */\n      mul\n        /* \"#utility.yul\":6385:6414   */\n      tag_312\n        /* \"#utility.yul\":6402:6413   */\n      dup2\n        /* \"#utility.yul\":6385:6414   */\n      tag_208\n      jump\t// in\n    tag_312:\n        /* \"#utility.yul\":6374:6414   */\n      swap2\n      pop\n        /* \"#utility.yul\":6446:6457   */\n      dup1\n        /* \"#utility.yul\":6437:6444   */\n      dup3\n        /* \"#utility.yul\":6434:6458   */\n      eq\n        /* \"#utility.yul\":6424:6482   */\n      tag_313\n      jumpi\n        /* \"#utility.yul\":6462:6480   */\n      tag_314\n      tag_227\n      jump\t// in\n    tag_314:\n        /* \"#utility.yul\":6424:6482   */\n    tag_313:\n        /* \"#utility.yul\":6261:6489   */\n      pop\n        /* \"#utility.yul\":6214:6489   */\n      swap3\n      swap2\n      pop\n      pop\n      jump\t// out\n        /* \"#utility.yul\":6495:6695   */\n    tag_86:\n        /* \"#utility.yul\":6534:6538   */\n      0x00\n        /* \"#utility.yul\":6554:6573   */\n      tag_316\n        /* \"#utility.yul\":6571:6572   */\n      dup3\n        /* \"#utility.yul\":6554:6573   */\n      tag_208\n      jump\t// in\n    tag_316:\n        /* \"#utility.yul\":6549:6573   */\n      swap2\n      pop\n        /* \"#utility.yul\":6587:6606   */\n      tag_317\n        /* \"#utility.yul\":6604:6605   */\n      dup4\n        /* \"#utility.yul\":6587:6606   */\n      tag_208\n      jump\t// in\n    tag_317:\n        /* \"#utility.yul\":6582:6606   */\n      swap3\n      pop\n        /* \"#utility.yul\":6630:6631   */\n      dup3\n        /* \"#utility.yul\":6627:6628   */\n      dup3\n        /* \"#utility.yul\":6623:6632   */\n      sub\n        /* \"#utility.yul\":6615:6632   */\n      swap1\n      pop\n        /* \"#utility.yul\":6654:6664   */\n      0xffffffff\n        /* \"#utility.yul\":6648:6652   */\n      dup2\n        /* \"#utility.yul\":6645:6665   */\n      gt\n        /* \"#utility.yul\":6642:6688   */\n      iszero\n      tag_318\n      jumpi\n        /* \"#utility.yul\":6668:6686   */\n      tag_319\n      tag_227\n      jump\t// in\n    tag_319:\n        /* \"#utility.yul\":6642:6688   */\n    tag_318:\n        /* \"#utility.yul\":6495:6695   */\n      swap3\n      swap2\n      pop\n      pop\n      jump\t// out\n        /* \"#utility.yul\":6701:6898   */\n    tag_88:\n        /* \"#utility.yul\":6740:6743   */\n      0x00\n        /* \"#utility.yul\":6759:6778   */\n      tag_321\n        /* \"#utility.yul\":6776:6777   */\n      dup3\n        /* \"#utility.yul\":6759:6778   */\n      tag_208\n      jump\t// in\n    tag_321:\n        /* \"#utility.yul\":6754:6778   */\n      swap2\n      pop\n        /* \"#utility.yul\":6792:6811   */\n      tag_322\n        /* \"#utility.yul\":6809:6810   */\n      dup4\n        /* \"#utility.yul\":6792:6811   */\n      tag_208\n      jump\t// in\n    tag_322:\n        /* \"#utility.yul\":6787:6811   */\n      swap3\n      pop\n        /* \"#utility.yul\":6834:6835   */\n      dup3\n        /* \"#utility.yul\":6831:6832   */\n      dup3\n        /* \"#utility.yul\":6827:6836   */\n      add\n        /* \"#utility.yul\":6820:6836   */\n      swap1\n      pop\n        /* \"#utility.yul\":6857:6867   */\n      0xffffffff\n        /* \"#utility.yul\":6852:6855   */\n      dup2\n        /* \"#utility.yul\":6849:6868   */\n      gt\n        /* \"#utility.yul\":6846:6891   */\n      iszero\n      tag_323\n      jumpi\n        /* \"#utility.yul\":6871:6889   */\n      tag_324\n      tag_227\n      jump\t// in\n    tag_324:\n        /* \"#utility.yul\":6846:6891   */\n    tag_323:\n        /* \"#utility.yul\":6701:6898   */\n      swap3\n      swap2\n      pop\n      pop\n      jump\t// out\n        /* \"#utility.yul\":6904:7084   */\n    tag_91:\n        /* \"#utility.yul\":6952:7029   */\n      0x4e487b7100000000000000000000000000000000000000000000000000000000\n        /* \"#utility.yul\":6949:6950   */\n      0x00\n        /* \"#utility.yul\":6942:7030   */\n      mstore\n        /* \"#utility.yul\":7049:7053   */\n      0x01\n        /* \"#utility.yul\":7046:7047   */\n      0x04\n        /* \"#utility.yul\":7039:7054   */\n      mstore\n        /* \"#utility.yul\":7073:7077   */\n      0x24\n        /* \"#utility.yul\":7070:7071   */\n      0x00\n        /* \"#utility.yul\":7063:7078   */\n      revert\n        /* \"#utility.yul\":7090:7259   */\n    tag_228:\n        /* \"#utility.yul\":7174:7185   */\n      0x00\n        /* \"#utility.yul\":7208:7214   */\n      dup3\n        /* \"#utility.yul\":7203:7206   */\n      dup3\n        /* \"#utility.yul\":7196:7215   */\n      mstore\n        /* \"#utility.yul\":7248:7252   */\n      0x20\n        /* \"#utility.yul\":7243:7246   */\n      dup3\n        /* \"#utility.yul\":7239:7253   */\n      add\n        /* \"#utility.yul\":7224:7253   */\n      swap1\n      pop\n        /* \"#utility.yul\":7090:7259   */\n      swap3\n      swap2\n      pop\n      pop\n      jump\t// out\n        /* \"#utility.yul\":7265:7439   */\n    tag_229:\n        /* \"#utility.yul\":7405:7431   */\n      0x43616c6c6572206973206e6f7420617574686f72697a65640000000000000000\n        /* \"#utility.yul\":7401:7402   */\n      0x00\n        /* \"#utility.yul\":7393:7399   */\n      dup3\n        /* \"#utility.yul\":7389:7403   */\n      add\n        /* \"#utility.yul\":7382:7432   */\n      mstore\n        /* \"#utility.yul\":7265:7439   */\n      pop\n      jump\t// out\n        /* \"#utility.yul\":7445:7811   */\n    tag_230:\n        /* \"#utility.yul\":7587:7590   */\n      0x00\n        /* \"#utility.yul\":7608:7675   */\n      tag_329\n        /* \"#utility.yul\":7672:7674   */\n      0x18\n        /* \"#utility.yul\":7667:7670   */\n      dup4\n        /* \"#utility.yul\":7608:7675   */\n      tag_228\n      jump\t// in\n    tag_329:\n        /* \"#utility.yul\":7601:7675   */\n      swap2\n      pop\n        /* \"#utility.yul\":7684:7777   */\n      tag_330\n        /* \"#utility.yul\":7773:7776   */\n      dup3\n        /* \"#utility.yul\":7684:7777   */\n      tag_229\n      jump\t// in\n    tag_330:\n        /* \"#utility.yul\":7802:7804   */\n      0x20\n        /* \"#utility.yul\":7797:7800   */\n      dup3\n        /* \"#utility.yul\":7793:7805   */\n      add\n        /* \"#utility.yul\":7786:7805   */\n      swap1\n      pop\n        /* \"#utility.yul\":7445:7811   */\n      swap2\n      swap1\n      pop\n      jump\t// out\n        /* \"#utility.yul\":7817:8236   */\n    tag_95:\n        /* \"#utility.yul\":7983:7987   */\n      0x00\n        /* \"#utility.yul\":8021:8023   */\n      0x20\n        /* \"#utility.yul\":8010:8019   */\n      dup3\n        /* \"#utility.yul\":8006:8024   */\n      add\n        /* \"#utility.yul\":7998:8024   */\n      swap1\n      pop\n        /* \"#utility.yul\":8070:8079   */\n      dup2\n        /* \"#utility.yul\":8064:8068   */\n      dup2\n        /* \"#utility.yul\":8060:8080   */\n      sub\n        /* \"#utility.yul\":8056:8057   */\n      0x00\n        /* \"#utility.yul\":8045:8054   */\n      dup4\n        /* \"#utility.yul\":8041:8058   */\n      add\n        /* \"#utility.yul\":8034:8081   */\n      mstore\n        /* \"#utility.yul\":8098:8229   */\n      tag_332\n        /* \"#utility.yul\":8224:8228   */\n      dup2\n        /* \"#utility.yul\":8098:8229   */\n      tag_230\n      jump\t// in\n    tag_332:\n        /* \"#utility.yul\":8090:8229   */\n      swap1\n      pop\n        /* \"#utility.yul\":7817:8236   */\n      swap2\n      swap1\n      pop\n      jump\t// out\n        /* \"#utility.yul\":8242:8417   */\n    tag_231:\n        /* \"#utility.yul\":8382:8409   */\n      0x496e76616c6964206e6577206f776e6572206164647265737300000000000000\n        /* \"#utility.yul\":8378:8379   */\n      0x00\n        /* \"#utility.yul\":8370:8376   */\n      dup3\n        /* \"#utility.yul\":8366:8380   */\n      add\n        /* \"#utility.yul\":8359:8410   */\n      mstore\n        /* \"#utility.yul\":8242:8417   */\n      pop\n      jump\t// out\n        /* \"#utility.yul\":8423:8789   */\n    tag_232:\n        /* \"#utility.yul\":8565:8568   */\n      0x00\n        /* \"#utility.yul\":8586:8653   */\n      tag_335\n        /* \"#utility.yul\":8650:8652   */\n      0x19\n        /* \"#utility.yul\":8645:8648   */\n      dup4\n        /* \"#utility.yul\":8586:8653   */\n      tag_228\n      jump\t// in\n    tag_335:\n        /* \"#utility.yul\":8579:8653   */\n      swap2\n      pop\n        /* \"#utility.yul\":8662:8755   */\n      tag_336\n        /* \"#utility.yul\":8751:8754   */\n      dup3\n        /* \"#utility.yul\":8662:8755   */\n      tag_231\n      jump\t// in\n    tag_336:\n        /* \"#utility.yul\":8780:8782   */\n      0x20\n        /* \"#utility.yul\":8775:8778   */\n      dup3\n        /* \"#utility.yul\":8771:8783   */\n      add\n        /* \"#utility.yul\":8764:8783   */\n      swap1\n      pop\n        /* \"#utility.yul\":8423:8789   */\n      swap2\n      swap1\n      pop\n      jump\t// out\n        /* \"#utility.yul\":8795:9214   */\n    tag_99:\n        /* \"#utility.yul\":8961:8965   */\n      0x00\n        /* \"#utility.yul\":8999:9001   */\n      0x20\n        /* \"#utility.yul\":8988:8997   */\n      dup3\n        /* \"#utility.yul\":8984:9002   */\n      add\n        /* \"#utility.yul\":8976:9002   */\n      swap1\n      pop\n        /* \"#utility.yul\":9048:9057   */\n      dup2\n        /* \"#utility.yul\":9042:9046   */\n      dup2\n        /* \"#utility.yul\":9038:9058   */\n      sub\n        /* \"#utility.yul\":9034:9035   */\n      0x00\n        /* \"#utility.yul\":9023:9032   */\n      dup4\n        /* \"#utility.yul\":9019:9036   */\n      add\n        /* \"#utility.yul\":9012:9059   */\n      mstore\n        /* \"#utility.yul\":9076:9207   */\n      tag_338\n        /* \"#utility.yul\":9202:9206   */\n      dup2\n        /* \"#utility.yul\":9076:9207   */\n      tag_232\n      jump\t// in\n    tag_338:\n        /* \"#utility.yul\":9068:9207   */\n      swap1\n      pop\n        /* \"#utility.yul\":8795:9214   */\n      swap2\n      swap1\n      pop\n      jump\t// out\n        /* \"#utility.yul\":9220:9414   */\n    tag_117:\n        /* \"#utility.yul\":9260:9264   */\n      0x00\n        /* \"#utility.yul\":9280:9300   */\n      tag_340\n        /* \"#utility.yul\":9298:9299   */\n      dup3\n        /* \"#utility.yul\":9280:9300   */\n      tag_211\n      jump\t// in\n    tag_340:\n        /* \"#utility.yul\":9275:9300   */\n      swap2\n      pop\n        /* \"#utility.yul\":9314:9334   */\n      tag_341\n        /* \"#utility.yul\":9332:9333   */\n      dup4\n        /* \"#utility.yul\":9314:9334   */\n      tag_211\n      jump\t// in\n    tag_341:\n        /* \"#utility.yul\":9309:9334   */\n      swap3\n      pop\n        /* \"#utility.yul\":9358:9359   */\n      dup3\n        /* \"#utility.yul\":9355:9356   */\n      dup3\n        /* \"#utility.yul\":9351:9360   */\n      sub\n        /* \"#utility.yul\":9343:9360   */\n      swap1\n      pop\n        /* \"#utility.yul\":9382:9383   */\n      dup2\n        /* \"#utility.yul\":9376:9380   */\n      dup2\n        /* \"#utility.yul\":9373:9384   */\n      gt\n        /* \"#utility.yul\":9370:9407   */\n      iszero\n      tag_342\n      jumpi\n        /* \"#utility.yul\":9387:9405   */\n      tag_343\n      tag_227\n      jump\t// in\n    tag_343:\n        /* \"#utility.yul\":9370:9407   */\n    tag_342:\n        /* \"#utility.yul\":9220:9414   */\n      swap3\n      swap2\n      pop\n      pop\n      jump\t// out\n        /* \"#utility.yul\":9420:9600   */\n    tag_120:\n        /* \"#utility.yul\":9468:9545   */\n      0x4e487b7100000000000000000000000000000000000000000000000000000000\n        /* \"#utility.yul\":9465:9466   */\n      0x00\n        /* \"#utility.yul\":9458:9546   */\n      mstore\n        /* \"#utility.yul\":9565:9569   */\n      0x32\n        /* \"#utility.yul\":9562:9563   */\n      0x04\n        /* \"#utility.yul\":9555:9570   */\n      mstore\n        /* \"#utility.yul\":9589:9593   */\n      0x24\n        /* \"#utility.yul\":9586:9587   */\n      0x00\n        /* \"#utility.yul\":9579:9594   */\n      revert\n        /* \"#utility.yul\":9606:9777   */\n    tag_132:\n        /* \"#utility.yul\":9645:9648   */\n      0x00\n        /* \"#utility.yul\":9668:9692   */\n      tag_346\n        /* \"#utility.yul\":9686:9691   */\n      dup3\n        /* \"#utility.yul\":9668:9692   */\n      tag_211\n      jump\t// in\n    tag_346:\n        /* \"#utility.yul\":9659:9692   */\n      swap2\n      pop\n        /* \"#utility.yul\":9714:9718   */\n      0x00\n        /* \"#utility.yul\":9707:9712   */\n      dup3\n        /* \"#utility.yul\":9704:9719   */\n      sub\n        /* \"#utility.yul\":9701:9742   */\n      tag_347\n      jumpi\n        /* \"#utility.yul\":9722:9740   */\n      tag_348\n      tag_227\n      jump\t// in\n    tag_348:\n        /* \"#utility.yul\":9701:9742   */\n    tag_347:\n        /* \"#utility.yul\":9769:9770   */\n      0x01\n        /* \"#utility.yul\":9762:9767   */\n      dup3\n        /* \"#utility.yul\":9758:9771   */\n      sub\n        /* \"#utility.yul\":9751:9771   */\n      swap1\n      pop\n        /* \"#utility.yul\":9606:9777   */\n      swap2\n      swap1\n      pop\n      jump\t// out\n        /* \"#utility.yul\":9783:9930   */\n    tag_233:\n        /* \"#utility.yul\":9884:9895   */\n      0x00\n        /* \"#utility.yul\":9921:9924   */\n      dup2\n        /* \"#utility.yul\":9906:9924   */\n      swap1\n      pop\n        /* \"#utility.yul\":9783:9930   */\n      swap3\n      swap2\n      pop\n      pop\n      jump\t// out\n        /* \"#utility.yul\":9936:10050   */\n    tag_234:\n      pop\n      jump\t// out\n        /* \"#utility.yul\":10056:10454   */\n    tag_235:\n        /* \"#utility.yul\":10215:10218   */\n      0x00\n        /* \"#utility.yul\":10236:10319   */\n      tag_352\n        /* \"#utility.yul\":10317:10318   */\n      0x00\n        /* \"#utility.yul\":10312:10315   */\n      dup4\n        /* \"#utility.yul\":10236:10319   */\n      tag_233\n      jump\t// in\n    tag_352:\n        /* \"#utility.yul\":10229:10319   */\n      swap2\n      pop\n        /* \"#utility.yul\":10328:10421   */\n      tag_353\n        /* \"#utility.yul\":10417:10420   */\n      dup3\n        /* \"#utility.yul\":10328:10421   */\n      tag_234\n      jump\t// in\n    tag_353:\n        /* \"#utility.yul\":10446:10447   */\n      0x00\n        /* \"#utility.yul\":10441:10444   */\n      dup3\n        /* \"#utility.yul\":10437:10448   */\n      add\n        /* \"#utility.yul\":10430:10448   */\n      swap1\n      pop\n        /* \"#utility.yul\":10056:10454   */\n      swap2\n      swap1\n      pop\n      jump\t// out\n        /* \"#utility.yul\":10460:10839   */\n    tag_173:\n        /* \"#utility.yul\":10644:10647   */\n      0x00\n        /* \"#utility.yul\":10666:10813   */\n      tag_355\n        /* \"#utility.yul\":10809:10812   */\n      dup3\n        /* \"#utility.yul\":10666:10813   */\n      tag_235\n      jump\t// in\n    tag_355:\n        /* \"#utility.yul\":10659:10813   */\n      swap2\n      pop\n        /* \"#utility.yul\":10830:10833   */\n      dup2\n        /* \"#utility.yul\":10823:10833   */\n      swap1\n      pop\n        /* \"#utility.yul\":10460:10839   */\n      swap2\n      swap1\n      pop\n      jump\t// out\n        /* \"#utility.yul\":10845:11015   */\n    tag_236:\n        /* \"#utility.yul\":10985:11007   */\n      0x4661696c656420746f2073656e64204574686572000000000000000000000000\n        /* \"#utility.yul\":10981:10982   */\n      0x00\n        /* \"#utility.yul\":10973:10979   */\n      dup3\n        /* \"#utility.yul\":10969:10983   */\n      add\n        /* \"#utility.yul\":10962:11008   */\n      mstore\n        /* \"#utility.yul\":10845:11015   */\n      pop\n      jump\t// out\n        /* \"#utility.yul\":11021:11387   */\n    tag_237:\n        /* \"#utility.yul\":11163:11166   */\n      0x00\n        /* \"#utility.yul\":11184:11251   */\n      tag_358\n        /* \"#utility.yul\":11248:11250   */\n      0x14\n        /* \"#utility.yul\":11243:11246   */\n      dup4\n        /* \"#utility.yul\":11184:11251   */\n      tag_228\n      jump\t// in\n    tag_358:\n        /* \"#utility.yul\":11177:11251   */\n      swap2\n      pop\n        /* \"#utility.yul\":11260:11353   */\n      tag_359\n        /* \"#utility.yul\":11349:11352   */\n      dup3\n        /* \"#utility.yul\":11260:11353   */\n      tag_236\n      jump\t// in\n    tag_359:\n        /* \"#utility.yul\":11378:11380   */\n      0x20\n        /* \"#utility.yul\":11373:11376   */\n      dup3\n        /* \"#utility.yul\":11369:11381   */\n      add\n        /* \"#utility.yul\":11362:11381   */\n      swap1\n      pop\n        /* \"#utility.yul\":11021:11387   */\n      swap2\n      swap1\n      pop\n      jump\t// out\n        /* \"#utility.yul\":11393:11812   */\n    tag_179:\n        /* \"#utility.yul\":11559:11563   */\n      0x00\n        /* \"#utility.yul\":11597:11599   */\n      0x20\n        /* \"#utility.yul\":11586:11595   */\n      dup3\n        /* \"#utility.yul\":11582:11600   */\n      add\n        /* \"#utility.yul\":11574:11600   */\n      swap1\n      pop\n        /* \"#utility.yul\":11646:11655   */\n      dup2\n        /* \"#utility.yul\":11640:11644   */\n      dup2\n        /* \"#utility.yul\":11636:11656   */\n      sub\n        /* \"#utility.yul\":11632:11633   */\n      0x00\n        /* \"#utility.yul\":11621:11630   */\n      dup4\n        /* \"#utility.yul\":11617:11634   */\n      add\n        /* \"#utility.yul\":11610:11657   */\n      mstore\n        /* \"#utility.yul\":11674:11805   */\n      tag_361\n        /* \"#utility.yul\":11800:11804   */\n      dup2\n        /* \"#utility.yul\":11674:11805   */\n      tag_237\n      jump\t// in\n    tag_361:\n        /* \"#utility.yul\":11666:11805   */\n      swap1\n      pop\n        /* \"#utility.yul\":11393:11812   */\n      swap2\n      swap1\n      pop\n      jump\t// out\n        /* \"#utility.yul\":11818:12009   */\n    tag_192:\n        /* \"#utility.yul\":11858:11861   */\n      0x00\n        /* \"#utility.yul\":11877:11897   */\n      tag_363\n        /* \"#utility.yul\":11895:11896   */\n      dup3\n        /* \"#utility.yul\":11877:11897   */\n      tag_211\n      jump\t// in\n    tag_363:\n        /* \"#utility.yul\":11872:11897   */\n      swap2\n      pop\n        /* \"#utility.yul\":11911:11931   */\n      tag_364\n        /* \"#utility.yul\":11929:11930   */\n      dup4\n        /* \"#utility.yul\":11911:11931   */\n      tag_211\n      jump\t// in\n    tag_364:\n        /* \"#utility.yul\":11906:11931   */\n      swap3\n      pop\n        /* \"#utility.yul\":11954:11955   */\n      dup3\n        /* \"#utility.yul\":11951:11952   */\n      dup3\n        /* \"#utility.yul\":11947:11956   */\n      add\n        /* \"#utility.yul\":11940:11956   */\n      swap1\n      pop\n        /* \"#utility.yul\":11975:11978   */\n      dup1\n        /* \"#utility.yul\":11972:11973   */\n      dup3\n        /* \"#utility.yul\":11969:11979   */\n      gt\n        /* \"#utility.yul\":11966:12002   */\n      iszero\n      tag_365\n      jumpi\n        /* \"#utility.yul\":11982:12000   */\n      tag_366\n      tag_227\n      jump\t// in\n    tag_366:\n        /* \"#utility.yul\":11966:12002   */\n    tag_365:\n        /* \"#utility.yul\":11818:12009   */\n      swap3\n      swap2\n      pop\n      pop\n      jump\t// out\n        /* \"#utility.yul\":12015:12195   */\n    tag_201:\n        /* \"#utility.yul\":12063:12140   */\n      0x4e487b7100000000000000000000000000000000000000000000000000000000\n        /* \"#utility.yul\":12060:12061   */\n      0x00\n        /* \"#utility.yul\":12053:12141   */\n      mstore\n        /* \"#utility.yul\":12160:12164   */\n      0x31\n        /* \"#utility.yul\":12157:12158   */\n      0x04\n        /* \"#utility.yul\":12150:12165   */\n      mstore\n        /* \"#utility.yul\":12184:12188   */\n      0x24\n        /* \"#utility.yul\":12181:12182   */\n      0x00\n        /* \"#utility.yul\":12174:12189   */\n      revert\n\n    auxdata: 0xa2646970667358221220949964417ad498b2640a61f467509900c4ea7a2a54940fda118ec65e3862089264736f6c63430008190033\n}\n",
				"bytecode": {
					"linkReferences": {},
					"object": "6080604052348015600e575f80fd5b50335f806101000a81548173ffffffffffffffffffffffffffffffffffffffff021916908373ffffffffffffffffffffffffffffffffffffffff160217905550633b9aca0060025f3373ffffffffffffffffffffffffffffffffffffffff1673ffffffffffffffffffffffffffffffffffffffff1681526020019081526020015f205f015f6101000a81548163ffffffff021916908363ffffffff160217905550611962806100bc5f395ff3fe60806040526004361061007a575f3560e01c8063a87430ba1161004d578063a87430ba1461013a578063c7734ea214610177578063f58d0d5c1461019f578063fec0244c146101c75761007a565b8063314bdd221461007e578063552cb86a1461009a578063658f7fb5146100d65780636da29022146100fe575b5f80fd5b61009860048036038101906100939190611317565b6101dd565b005b3480156100a5575f80fd5b506100c060048036038101906100bb9190611388565b61028a565b6040516100cd91906113f2565b60405180910390f35b3480156100e1575f80fd5b506100fc60048036038101906100f79190611317565b6102c5565b005b348015610109575f80fd5b50610124600480360381019061011f9190611388565b6103bb565b60405161013191906113f2565b60405180910390f35b348015610145575f80fd5b50610160600480360381019061015b9190611435565b6103f6565b60405161016e929190611553565b60405180910390f35b348015610182575f80fd5b5061019d6004803603810190610198919061157a565b6104bc565b005b3480156101aa575f80fd5b506101c560048036038101906101c09190611435565b61068d565b005b3480156101d2575f80fd5b506101db6107cd565b005b5f60028111156101f0576101ef61148d565b5b60025f3373ffffffffffffffffffffffffffffffffffffffff1673ffffffffffffffffffffffffffffffffffffffff1681526020019081526020015f206001016002015f9054906101000a900460ff1660028111156102525761025161148d565b5b1461025b575f80fd5b808261026791906115e5565b8063ffffffff16341015610279575f80fd5b61028583836002610900565b505050565b60048181548110610299575f80fd5b905f5260205f20015f915054906101000a900473ffffffffffffffffffffffffffffffffffffffff1681565b5f60028111156102d8576102d761148d565b5b60025f3373ffffffffffffffffffffffffffffffffffffffff1673ffffffffffffffffffffffffffffffffffffffff1681526020019081526020015f206001016002015f9054906101000a900460ff16600281111561033a5761033961148d565b5b14610343575f80fd5b818063ffffffff1660025f3373ffffffffffffffffffffffffffffffffffffffff1673ffffffffffffffffffffffffffffffffffffffff1681526020019081526020015f205f015f9054906101000a900463ffffffff1663ffffffff1610156103aa575f80fd5b6103b683836001610900565b505050565b600381815481106103ca575f80fd5b905f5260205f20015f915054906101000a900473ffffffffffffffffffffffffffffffffffffffff1681565b6002602052805f5260405f205f91509050805f015f9054906101000a900463ffffffff1690806001016040518060800160405290815f82015f9054906101000a900463ffffffff1663ffffffff1663ffffffff1681526020015f820160049054906101000a900463ffffffff1663ffffffff1663ffffffff16815260200160018201548152602001600282015f9054906101000a900460ff1660028111156104a1576104a061148d565b5b60028111156104b3576104b261148d565b5b81525050905082565b808063ffffffff1660025f3373ffffffffffffffffffffffffffffffffffffffff1673ffffffffffffffffffffffffffffffffffffffff1681526020019081526020015f205f015f9054906101000a900463ffffffff1663ffffffff161015610523575f80fd5b8160025f3373ffffffffffffffffffffffffffffffffffffffff1673ffffffffffffffffffffffffffffffffffffffff1681526020019081526020015f205f015f8282829054906101000a900463ffffffff166105809190611621565b92506101000a81548163ffffffff021916908363ffffffff1602179055508160025f8573ffffffffffffffffffffffffffffffffffffffff1673ffffffffffffffffffffffffffffffffffffffff1681526020019081526020015f205f015f8282829054906101000a900463ffffffff166105fb9190611658565b92506101000a81548163ffffffff021916908363ffffffff160217905550633b9aca0063ffffffff1660025f8573ffffffffffffffffffffffffffffffffffffffff1673ffffffffffffffffffffffffffffffffffffffff1681526020019081526020015f205f015f9054906101000a900463ffffffff1663ffffffff1611156106885761068761168f565b5b505050565b5f8054906101000a900473ffffffffffffffffffffffffffffffffffffffff168073ffffffffffffffffffffffffffffffffffffffff163373ffffffffffffffffffffffffffffffffffffffff161461071b576040517f08c379a000000000000000000000000000000000000000000000000000000000815260040161071290611716565b60405180910390fd5b5f73ffffffffffffffffffffffffffffffffffffffff168273ffffffffffffffffffffffffffffffffffffffff1603610789576040517f08c379a00000000000000000000000000000000000000000000000000000000081526004016107809061177e565b60405180910390fd5b8160015f6101000a81548173ffffffffffffffffffffffffffffffffffffffff021916908373ffffffffffffffffffffffffffffffffffffffff1602179055505050565b60015f9054906101000a900473ffffffffffffffffffffffffffffffffffffffff168073ffffffffffffffffffffffffffffffffffffffff163373ffffffffffffffffffffffffffffffffffffffff161461085d576040517f08c379a000000000000000000000000000000000000000000000000000000000815260040161085490611716565b60405180910390fd5b60015f9054906101000a900473ffffffffffffffffffffffffffffffffffffffff165f806101000a81548173ffffffffffffffffffffffffffffffffffffffff021916908373ffffffffffffffffffffffffffffffffffffffff1602179055505f60015f6101000a81548173ffffffffffffffffffffffffffffffffffffffff021916908373ffffffffffffffffffffffffffffffffffffffff16021790555050565b8060025f3373ffffffffffffffffffffffffffffffffffffffff1673ffffffffffffffffffffffffffffffffffffffff1681526020019081526020015f206001016002015f6101000a81548160ff021916908360028111156109655761096461148d565b5b02179055505f6001600281111561097f5761097e61148d565b5b8260028111156109925761099161148d565b5b1461099e5760036109a1565b60045b90505f8490505f828054905090505b5f811115610aef575f60025f856001856109ca919061179c565b815481106109db576109da6117cf565b5b905f5260205f20015f9054906101000a900473ffffffffffffffffffffffffffffffffffffffff1673ffffffffffffffffffffffffffffffffffffffff1673ffffffffffffffffffffffffffffffffffffffff1681526020019081526020015f2060010190508563ffffffff16815f0160049054906101000a900463ffffffff1663ffffffff1610610adb57610ac584600184610a78919061179c565b81548110610a8957610a886117cf565b5b905f5260205f20015f9054906101000a900473ffffffffffffffffffffffffffffffffffffffff168487600186610ac0919061179c565b610b80565b92505f8363ffffffff1603610ada5750610aef565b5b508080610ae7906117fc565b9150506109b0565b505f8163ffffffff161115610b0e57610b09818585610ef8565b610b79565b5f60025f3373ffffffffffffffffffffffffffffffffffffffff1673ffffffffffffffffffffffffffffffffffffffff1681526020019081526020015f206001016002015f6101000a81548160ff02191690836002811115610b7357610b7261148d565b5b02179055505b5050505050565b5f8060025f8773ffffffffffffffffffffffffffffffffffffffff1673ffffffffffffffffffffffffffffffffffffffff1681526020019081526020015f2060010190505f815f015f9054906101000a900463ffffffff1663ffffffff168663ffffffff1610610c0257815f015f9054906101000a900463ffffffff16610c04565b855b905060016002811115610c1a57610c1961148d565b5b856002811115610c2d57610c2c61148d565b5b03610d5557610c5a33835f0160049054906101000a900463ffffffff1683610c5591906115e5565b6110a1565b8060025f3373ffffffffffffffffffffffffffffffffffffffff1673ffffffffffffffffffffffffffffffffffffffff1681526020019081526020015f205f015f8282829054906101000a900463ffffffff16610cb79190611621565b92506101000a81548163ffffffff021916908363ffffffff1602179055508060025f8973ffffffffffffffffffffffffffffffffffffffff1673ffffffffffffffffffffffffffffffffffffffff1681526020019081526020015f205f015f8282829054906101000a900463ffffffff16610d329190611658565b92506101000a81548163ffffffff021916908363ffffffff160217905550610e74565b610d7d87835f0160049054906101000a900463ffffffff1683610d7891906115e5565b6110a1565b8060025f3373ffffffffffffffffffffffffffffffffffffffff1673ffffffffffffffffffffffffffffffffffffffff1681526020019081526020015f205f015f8282829054906101000a900463ffffffff16610dda9190611658565b92506101000a81548163ffffffff021916908363ffffffff1602179055508060025f8973ffffffffffffffffffffffffffffffffffffffff1673ffffffffffffffffffffffffffffffffffffffff1681526020019081526020015f205f015f8282829054906101000a900463ffffffff16610e559190611621565b92506101000a81548163ffffffff021916908363ffffffff1602179055505b80825f015f8282829054906101000a900463ffffffff16610e959190611621565b92506101000a81548163ffffffff021916908363ffffffff1602179055505f825f015f9054906101000a900463ffffffff1663ffffffff1603610edd57610edc8285611154565b5b8086610ee99190611621565b95508592505050949350505050565b5f60016002811115610f0d57610f0c61148d565b5b826002811115610f2057610f1f61148d565b5b14610f2c576004610f2f565b60035b90508360025f3373ffffffffffffffffffffffffffffffffffffffff1673ffffffffffffffffffffffffffffffffffffffff1681526020019081526020015f205f015f8282829054906101000a900463ffffffff16610f8e9190611621565b92506101000a81548163ffffffff021916908363ffffffff1602179055508033908060018154018082558091505060019003905f5260205f20015f9091909190916101000a81548173ffffffffffffffffffffffffffffffffffffffff021916908373ffffffffffffffffffffffffffffffffffffffff1602179055505f60025f3373ffffffffffffffffffffffffffffffffffffffff1673ffffffffffffffffffffffffffffffffffffffff1681526020019081526020015f20600101905084815f015f6101000a81548163ffffffff021916908363ffffffff16021790555083815f0160046101000a81548163ffffffff021916908363ffffffff1602179055504281600101819055505050505050565b5f8273ffffffffffffffffffffffffffffffffffffffff168263ffffffff166040516110cc90611850565b5f6040518083038185875af1925050503d805f8114611106576040519150601f19603f3d011682016040523d82523d5f602084013e61110b565b606091505b505090508061114f576040517f08c379a0000000000000000000000000000000000000000000000000000000008152600401611146906118ae565b60405180910390fd5b505050565b5f600160028111156111695761116861148d565b5b836002015f9054906101000a900460ff16600281111561118c5761118b61148d565b5b1461119857600461119b565b60035b90505f8290505b600182805490506111b3919061179c565b81101561126657816001826111c891906118cc565b815481106111d9576111d86117cf565b5b905f5260205f20015f9054906101000a900473ffffffffffffffffffffffffffffffffffffffff16828281548110611214576112136117cf565b5b905f5260205f20015f6101000a81548173ffffffffffffffffffffffffffffffffffffffff021916908373ffffffffffffffffffffffffffffffffffffffff16021790555080806001019150506111a2565b5080805480611278576112776118ff565b5b600190038181905f5260205f20015f6101000a81549073ffffffffffffffffffffffffffffffffffffffff021916905590555f836002015f6101000a81548160ff021916908360028111156112d0576112cf61148d565b5b0217905550505050565b5f80fd5b5f63ffffffff82169050919050565b6112f6816112de565b8114611300575f80fd5b50565b5f81359050611311816112ed565b92915050565b5f806040838503121561132d5761132c6112da565b5b5f61133a85828601611303565b925050602061134b85828601611303565b9150509250929050565b5f819050919050565b61136781611355565b8114611371575f80fd5b50565b5f813590506113828161135e565b92915050565b5f6020828403121561139d5761139c6112da565b5b5f6113aa84828501611374565b91505092915050565b5f73ffffffffffffffffffffffffffffffffffffffff82169050919050565b5f6113dc826113b3565b9050919050565b6113ec816113d2565b82525050565b5f6020820190506114055f8301846113e3565b92915050565b611414816113d2565b811461141e575f80fd5b50565b5f8135905061142f8161140b565b92915050565b5f6020828403121561144a576114496112da565b5b5f61145784828501611421565b91505092915050565b611469816112de565b82525050565b611478816112de565b82525050565b61148781611355565b82525050565b7f4e487b71000000000000000000000000000000000000000000000000000000005f52602160045260245ffd5b600381106114cb576114ca61148d565b5b50565b5f8190506114db826114ba565b919050565b5f6114ea826114ce565b9050919050565b6114fa816114e0565b82525050565b608082015f8201516115145f85018261146f565b506020820151611527602085018261146f565b50604082015161153a604085018261147e565b50606082015161154d60608501826114f1565b50505050565b5f60a0820190506115665f830185611460565b6115736020830184611500565b9392505050565b5f80604083850312156115905761158f6112da565b5b5f61159d85828601611421565b92505060206115ae85828601611303565b9150509250929050565b7f4e487b71000000000000000000000000000000000000000000000000000000005f52601160045260245ffd5b5f6115ef826112de565b91506115fa836112de565b9250828202611608816112de565b915080821461161a576116196115b8565b5b5092915050565b5f61162b826112de565b9150611636836112de565b9250828203905063ffffffff811115611652576116516115b8565b5b92915050565b5f611662826112de565b915061166d836112de565b9250828201905063ffffffff811115611689576116886115b8565b5b92915050565b7f4e487b71000000000000000000000000000000000000000000000000000000005f52600160045260245ffd5b5f82825260208201905092915050565b7f43616c6c6572206973206e6f7420617574686f72697a656400000000000000005f82015250565b5f6117006018836116bc565b915061170b826116cc565b602082019050919050565b5f6020820190508181035f83015261172d816116f4565b9050919050565b7f496e76616c6964206e6577206f776e65722061646472657373000000000000005f82015250565b5f6117686019836116bc565b915061177382611734565b602082019050919050565b5f6020820190508181035f8301526117958161175c565b9050919050565b5f6117a682611355565b91506117b183611355565b92508282039050818111156117c9576117c86115b8565b5b92915050565b7f4e487b71000000000000000000000000000000000000000000000000000000005f52603260045260245ffd5b5f61180682611355565b91505f8203611818576118176115b8565b5b600182039050919050565b5f81905092915050565b50565b5f61183b5f83611823565b91506118468261182d565b5f82019050919050565b5f61185a82611830565b9150819050919050565b7f4661696c656420746f2073656e642045746865720000000000000000000000005f82015250565b5f6118986014836116bc565b91506118a382611864565b602082019050919050565b5f6020820190508181035f8301526118c58161188c565b9050919050565b5f6118d682611355565b91506118e183611355565b92508282019050808211156118f9576118f86115b8565b5b92915050565b7f4e487b71000000000000000000000000000000000000000000000000000000005f52603160045260245ffdfea2646970667358221220949964417ad498b2640a61f467509900c4ea7a2a54940fda118ec65e3862089264736f6c63430008190033",
					"opcodes": "PUSH1 0x80 PUSH1 0x40 MSTORE CALLVALUE DUP1 ISZERO PUSH1 0xE JUMPI PUSH0 DUP1 REVERT JUMPDEST POP CALLER PUSH0 DUP1 PUSH2 0x100 EXP DUP2 SLOAD DUP2 PUSH20 0xFFFFFFFFFFFFFFFFFFFFFFFFFFFFFFFFFFFFFFFF MUL NOT AND SWAP1 DUP4 PUSH20 0xFFFFFFFFFFFFFFFFFFFFFFFFFFFFFFFFFFFFFFFF AND MUL OR SWAP1 SSTORE POP PUSH4 0x3B9ACA00 PUSH1 0x2 PUSH0 CALLER PUSH20 0xFFFFFFFFFFFFFFFFFFFFFFFFFFFFFFFFFFFFFFFF AND PUSH20 0xFFFFFFFFFFFFFFFFFFFFFFFFFFFFFFFFFFFFFFFF AND DUP2 MSTORE PUSH1 0x20 ADD SWAP1 DUP2 MSTORE PUSH1 0x20 ADD PUSH0 KECCAK256 PUSH0 ADD PUSH0 PUSH2 0x100 EXP DUP2 SLOAD DUP2 PUSH4 0xFFFFFFFF MUL NOT AND SWAP1 DUP4 PUSH4 0xFFFFFFFF AND MUL OR SWAP1 SSTORE POP PUSH2 0x1962 DUP1 PUSH2 0xBC PUSH0 CODECOPY PUSH0 RETURN INVALID PUSH1 0x80 PUSH1 0x40 MSTORE PUSH1 0x4 CALLDATASIZE LT PUSH2 0x7A JUMPI PUSH0 CALLDATALOAD PUSH1 0xE0 SHR DUP1 PUSH4 0xA87430BA GT PUSH2 0x4D JUMPI DUP1 PUSH4 0xA87430BA EQ PUSH2 0x13A JUMPI DUP1 PUSH4 0xC7734EA2 EQ PUSH2 0x177 JUMPI DUP1 PUSH4 0xF58D0D5C EQ PUSH2 0x19F JUMPI DUP1 PUSH4 0xFEC0244C EQ PUSH2 0x1C7 JUMPI PUSH2 0x7A JUMP JUMPDEST DUP1 PUSH4 0x314BDD22 EQ PUSH2 0x7E JUMPI DUP1 PUSH4 0x552CB86A EQ PUSH2 0x9A JUMPI DUP1 PUSH4 0x658F7FB5 EQ PUSH2 0xD6 JUMPI DUP1 PUSH4 0x6DA29022 EQ PUSH2 0xFE JUMPI JUMPDEST PUSH0 DUP1 REVERT JUMPDEST PUSH2 0x98 PUSH1 0x4 DUP1 CALLDATASIZE SUB DUP2 ADD SWAP1 PUSH2 0x93 SWAP2 SWAP1 PUSH2 0x1317 JUMP JUMPDEST PUSH2 0x1DD JUMP JUMPDEST STOP JUMPDEST CALLVALUE DUP1 ISZERO PUSH2 0xA5 JUMPI PUSH0 DUP1 REVERT JUMPDEST POP PUSH2 0xC0 PUSH1 0x4 DUP1 CALLDATASIZE SUB DUP2 ADD SWAP1 PUSH2 0xBB SWAP2 SWAP1 PUSH2 0x1388 JUMP JUMPDEST PUSH2 0x28A JUMP JUMPDEST PUSH1 0x40 MLOAD PUSH2 0xCD SWAP2 SWAP1 PUSH2 0x13F2 JUMP JUMPDEST PUSH1 0x40 MLOAD DUP1 SWAP2 SUB SWAP1 RETURN JUMPDEST CALLVALUE DUP1 ISZERO PUSH2 0xE1 JUMPI PUSH0 DUP1 REVERT JUMPDEST POP PUSH2 0xFC PUSH1 0x4 DUP1 CALLDATASIZE SUB DUP2 ADD SWAP1 PUSH2 0xF7 SWAP2 SWAP1 PUSH2 0x1317 JUMP JUMPDEST PUSH2 0x2C5 JUMP JUMPDEST STOP JUMPDEST CALLVALUE DUP1 ISZERO PUSH2 0x109 JUMPI PUSH0 DUP1 REVERT JUMPDEST POP PUSH2 0x124 PUSH1 0x4 DUP1 CALLDATASIZE SUB DUP2 ADD SWAP1 PUSH2 0x11F SWAP2 SWAP1 PUSH2 0x1388 JUMP JUMPDEST PUSH2 0x3BB JUMP JUMPDEST PUSH1 0x40 MLOAD PUSH2 0x131 SWAP2 SWAP1 PUSH2 0x13F2 JUMP JUMPDEST PUSH1 0x40 MLOAD DUP1 SWAP2 SUB SWAP1 RETURN JUMPDEST CALLVALUE DUP1 ISZERO PUSH2 0x145 JUMPI PUSH0 DUP1 REVERT JUMPDEST POP PUSH2 0x160 PUSH1 0x4 DUP1 CALLDATASIZE SUB DUP2 ADD SWAP1 PUSH2 0x15B SWAP2 SWAP1 PUSH2 0x1435 JUMP JUMPDEST PUSH2 0x3F6 JUMP JUMPDEST PUSH1 0x40 MLOAD PUSH2 0x16E SWAP3 SWAP2 SWAP1 PUSH2 0x1553 JUMP JUMPDEST PUSH1 0x40 MLOAD DUP1 SWAP2 SUB SWAP1 RETURN JUMPDEST CALLVALUE DUP1 ISZERO PUSH2 0x182 JUMPI PUSH0 DUP1 REVERT JUMPDEST POP PUSH2 0x19D PUSH1 0x4 DUP1 CALLDATASIZE SUB DUP2 ADD SWAP1 PUSH2 0x198 SWAP2 SWAP1 PUSH2 0x157A JUMP JUMPDEST PUSH2 0x4BC JUMP JUMPDEST STOP JUMPDEST CALLVALUE DUP1 ISZERO PUSH2 0x1AA JUMPI PUSH0 DUP1 REVERT JUMPDEST POP PUSH2 0x1C5 PUSH1 0x4 DUP1 CALLDATASIZE SUB DUP2 ADD SWAP1 PUSH2 0x1C0 SWAP2 SWAP1 PUSH2 0x1435 JUMP JUMPDEST PUSH2 0x68D JUMP JUMPDEST STOP JUMPDEST CALLVALUE DUP1 ISZERO PUSH2 0x1D2 JUMPI PUSH0 DUP1 REVERT JUMPDEST POP PUSH2 0x1DB PUSH2 0x7CD JUMP JUMPDEST STOP JUMPDEST PUSH0 PUSH1 0x2 DUP2 GT ISZERO PUSH2 0x1F0 JUMPI PUSH2 0x1EF PUSH2 0x148D JUMP JUMPDEST JUMPDEST PUSH1 0x2 PUSH0 CALLER PUSH20 0xFFFFFFFFFFFFFFFFFFFFFFFFFFFFFFFFFFFFFFFF AND PUSH20 0xFFFFFFFFFFFFFFFFFFFFFFFFFFFFFFFFFFFFFFFF AND DUP2 MSTORE PUSH1 0x20 ADD SWAP1 DUP2 MSTORE PUSH1 0x20 ADD PUSH0 KECCAK256 PUSH1 0x1 ADD PUSH1 0x2 ADD PUSH0 SWAP1 SLOAD SWAP1 PUSH2 0x100 EXP SWAP1 DIV PUSH1 0xFF AND PUSH1 0x2 DUP2 GT ISZERO PUSH2 0x252 JUMPI PUSH2 0x251 PUSH2 0x148D JUMP JUMPDEST JUMPDEST EQ PUSH2 0x25B JUMPI PUSH0 DUP1 REVERT JUMPDEST DUP1 DUP3 PUSH2 0x267 SWAP2 SWAP1 PUSH2 0x15E5 JUMP JUMPDEST DUP1 PUSH4 0xFFFFFFFF AND CALLVALUE LT ISZERO PUSH2 0x279 JUMPI PUSH0 DUP1 REVERT JUMPDEST PUSH2 0x285 DUP4 DUP4 PUSH1 0x2 PUSH2 0x900 JUMP JUMPDEST POP POP POP JUMP JUMPDEST PUSH1 0x4 DUP2 DUP2 SLOAD DUP2 LT PUSH2 0x299 JUMPI PUSH0 DUP1 REVERT JUMPDEST SWAP1 PUSH0 MSTORE PUSH1 0x20 PUSH0 KECCAK256 ADD PUSH0 SWAP2 POP SLOAD SWAP1 PUSH2 0x100 EXP SWAP1 DIV PUSH20 0xFFFFFFFFFFFFFFFFFFFFFFFFFFFFFFFFFFFFFFFF AND DUP2 JUMP JUMPDEST PUSH0 PUSH1 0x2 DUP2 GT ISZERO PUSH2 0x2D8 JUMPI PUSH2 0x2D7 PUSH2 0x148D JUMP JUMPDEST JUMPDEST PUSH1 0x2 PUSH0 CALLER PUSH20 0xFFFFFFFFFFFFFFFFFFFFFFFFFFFFFFFFFFFFFFFF AND PUSH20 0xFFFFFFFFFFFFFFFFFFFFFFFFFFFFFFFFFFFFFFFF AND DUP2 MSTORE PUSH1 0x20 ADD SWAP1 DUP2 MSTORE PUSH1 0x20 ADD PUSH0 KECCAK256 PUSH1 0x1 ADD PUSH1 0x2 ADD PUSH0 SWAP1 SLOAD SWAP1 PUSH2 0x100 EXP SWAP1 DIV PUSH1 0xFF AND PUSH1 0x2 DUP2 GT ISZERO PUSH2 0x33A JUMPI PUSH2 0x339 PUSH2 0x148D JUMP JUMPDEST JUMPDEST EQ PUSH2 0x343 JUMPI PUSH0 DUP1 REVERT JUMPDEST DUP2 DUP1 PUSH4 0xFFFFFFFF AND PUSH1 0x2 PUSH0 CALLER PUSH20 0xFFFFFFFFFFFFFFFFFFFFFFFFFFFFFFFFFFFFFFFF AND PUSH20 0xFFFFFFFFFFFFFFFFFFFFFFFFFFFFFFFFFFFFFFFF AND DUP2 MSTORE PUSH1 0x20 ADD SWAP1 DUP2 MSTORE PUSH1 0x20 ADD PUSH0 KECCAK256 PUSH0 ADD PUSH0 SWAP1 SLOAD SWAP1 PUSH2 0x100 EXP SWAP1 DIV PUSH4 0xFFFFFFFF AND PUSH4 0xFFFFFFFF AND LT ISZERO PUSH2 0x3AA JUMPI PUSH0 DUP1 REVERT JUMPDEST PUSH2 0x3B6 DUP4 DUP4 PUSH1 0x1 PUSH2 0x900 JUMP JUMPDEST POP POP POP JUMP JUMPDEST PUSH1 0x3 DUP2 DUP2 SLOAD DUP2 LT PUSH2 0x3CA JUMPI PUSH0 DUP1 REVERT JUMPDEST SWAP1 PUSH0 MSTORE PUSH1 0x20 PUSH0 KECCAK256 ADD PUSH0 SWAP2 POP SLOAD SWAP1 PUSH2 0x100 EXP SWAP1 DIV PUSH20 0xFFFFFFFFFFFFFFFFFFFFFFFFFFFFFFFFFFFFFFFF AND DUP2 JUMP JUMPDEST PUSH1 0x2 PUSH1 0x20 MSTORE DUP1 PUSH0 MSTORE PUSH1 0x40 PUSH0 KECCAK256 PUSH0 SWAP2 POP SWAP1 POP DUP1 PUSH0 ADD PUSH0 SWAP1 SLOAD SWAP1 PUSH2 0x100 EXP SWAP1 DIV PUSH4 0xFFFFFFFF AND SWAP1 DUP1 PUSH1 0x1 ADD PUSH1 0x40 MLOAD DUP1 PUSH1 0x80 ADD PUSH1 0x40 MSTORE SWAP1 DUP2 PUSH0 DUP3 ADD PUSH0 SWAP1 SLOAD SWAP1 PUSH2 0x100 EXP SWAP1 DIV PUSH4 0xFFFFFFFF AND PUSH4 0xFFFFFFFF AND PUSH4 0xFFFFFFFF AND DUP2 MSTORE PUSH1 0x20 ADD PUSH0 DUP3 ADD PUSH1 0x4 SWAP1 SLOAD SWAP1 PUSH2 0x100 EXP SWAP1 DIV PUSH4 0xFFFFFFFF AND PUSH4 0xFFFFFFFF AND PUSH4 0xFFFFFFFF AND DUP2 MSTORE PUSH1 0x20 ADD PUSH1 0x1 DUP3 ADD SLOAD DUP2 MSTORE PUSH1 0x20 ADD PUSH1 0x2 DUP3 ADD PUSH0 SWAP1 SLOAD SWAP1 PUSH2 0x100 EXP SWAP1 DIV PUSH1 0xFF AND PUSH1 0x2 DUP2 GT ISZERO PUSH2 0x4A1 JUMPI PUSH2 0x4A0 PUSH2 0x148D JUMP JUMPDEST JUMPDEST PUSH1 0x2 DUP2 GT ISZERO PUSH2 0x4B3 JUMPI PUSH2 0x4B2 PUSH2 0x148D JUMP JUMPDEST JUMPDEST DUP2 MSTORE POP POP SWAP1 POP DUP3 JUMP JUMPDEST DUP1 DUP1 PUSH4 0xFFFFFFFF AND PUSH1 0x2 PUSH0 CALLER PUSH20 0xFFFFFFFFFFFFFFFFFFFFFFFFFFFFFFFFFFFFFFFF AND PUSH20 0xFFFFFFFFFFFFFFFFFFFFFFFFFFFFFFFFFFFFFFFF AND DUP2 MSTORE PUSH1 0x20 ADD SWAP1 DUP2 MSTORE PUSH1 0x20 ADD PUSH0 KECCAK256 PUSH0 ADD PUSH0 SWAP1 SLOAD SWAP1 PUSH2 0x100 EXP SWAP1 DIV PUSH4 0xFFFFFFFF AND PUSH4 0xFFFFFFFF AND LT ISZERO PUSH2 0x523 JUMPI PUSH0 DUP1 REVERT JUMPDEST DUP2 PUSH1 0x2 PUSH0 CALLER PUSH20 0xFFFFFFFFFFFFFFFFFFFFFFFFFFFFFFFFFFFFFFFF AND PUSH20 0xFFFFFFFFFFFFFFFFFFFFFFFFFFFFFFFFFFFFFFFF AND DUP2 MSTORE PUSH1 0x20 ADD SWAP1 DUP2 MSTORE PUSH1 0x20 ADD PUSH0 KECCAK256 PUSH0 ADD PUSH0 DUP3 DUP3 DUP3 SWAP1 SLOAD SWAP1 PUSH2 0x100 EXP SWAP1 DIV PUSH4 0xFFFFFFFF AND PUSH2 0x580 SWAP2 SWAP1 PUSH2 0x1621 JUMP JUMPDEST SWAP3 POP PUSH2 0x100 EXP DUP2 SLOAD DUP2 PUSH4 0xFFFFFFFF MUL NOT AND SWAP1 DUP4 PUSH4 0xFFFFFFFF AND MUL OR SWAP1 SSTORE POP DUP2 PUSH1 0x2 PUSH0 DUP6 PUSH20 0xFFFFFFFFFFFFFFFFFFFFFFFFFFFFFFFFFFFFFFFF AND PUSH20 0xFFFFFFFFFFFFFFFFFFFFFFFFFFFFFFFFFFFFFFFF AND DUP2 MSTORE PUSH1 0x20 ADD SWAP1 DUP2 MSTORE PUSH1 0x20 ADD PUSH0 KECCAK256 PUSH0 ADD PUSH0 DUP3 DUP3 DUP3 SWAP1 SLOAD SWAP1 PUSH2 0x100 EXP SWAP1 DIV PUSH4 0xFFFFFFFF AND PUSH2 0x5FB SWAP2 SWAP1 PUSH2 0x1658 JUMP JUMPDEST SWAP3 POP PUSH2 0x100 EXP DUP2 SLOAD DUP2 PUSH4 0xFFFFFFFF MUL NOT AND SWAP1 DUP4 PUSH4 0xFFFFFFFF AND MUL OR SWAP1 SSTORE POP PUSH4 0x3B9ACA00 PUSH4 0xFFFFFFFF AND PUSH1 0x2 PUSH0 DUP6 PUSH20 0xFFFFFFFFFFFFFFFFFFFFFFFFFFFFFFFFFFFFFFFF AND PUSH20 0xFFFFFFFFFFFFFFFFFFFFFFFFFFFFFFFFFFFFFFFF AND DUP2 MSTORE PUSH1 0x20 ADD SWAP1 DUP2 MSTORE PUSH1 0x20 ADD PUSH0 KECCAK256 PUSH0 ADD PUSH0 SWAP1 SLOAD SWAP1 PUSH2 0x100 EXP SWAP1 DIV PUSH4 0xFFFFFFFF AND PUSH4 0xFFFFFFFF AND GT ISZERO PUSH2 0x688 JUMPI PUSH2 0x687 PUSH2 0x168F JUMP JUMPDEST JUMPDEST POP POP POP JUMP JUMPDEST PUSH0 DUP1 SLOAD SWAP1 PUSH2 0x100 EXP SWAP1 DIV PUSH20 0xFFFFFFFFFFFFFFFFFFFFFFFFFFFFFFFFFFFFFFFF AND DUP1 PUSH20 0xFFFFFFFFFFFFFFFFFFFFFFFFFFFFFFFFFFFFFFFF AND CALLER PUSH20 0xFFFFFFFFFFFFFFFFFFFFFFFFFFFFFFFFFFFFFFFF AND EQ PUSH2 0x71B JUMPI PUSH1 0x40 MLOAD PUSH32 0x8C379A000000000000000000000000000000000000000000000000000000000 DUP2 MSTORE PUSH1 0x4 ADD PUSH2 0x712 SWAP1 PUSH2 0x1716 JUMP JUMPDEST PUSH1 0x40 MLOAD DUP1 SWAP2 SUB SWAP1 REVERT JUMPDEST PUSH0 PUSH20 0xFFFFFFFFFFFFFFFFFFFFFFFFFFFFFFFFFFFFFFFF AND DUP3 PUSH20 0xFFFFFFFFFFFFFFFFFFFFFFFFFFFFFFFFFFFFFFFF AND SUB PUSH2 0x789 JUMPI PUSH1 0x40 MLOAD PUSH32 0x8C379A000000000000000000000000000000000000000000000000000000000 DUP2 MSTORE PUSH1 0x4 ADD PUSH2 0x780 SWAP1 PUSH2 0x177E JUMP JUMPDEST PUSH1 0x40 MLOAD DUP1 SWAP2 SUB SWAP1 REVERT JUMPDEST DUP2 PUSH1 0x1 PUSH0 PUSH2 0x100 EXP DUP2 SLOAD DUP2 PUSH20 0xFFFFFFFFFFFFFFFFFFFFFFFFFFFFFFFFFFFFFFFF MUL NOT AND SWAP1 DUP4 PUSH20 0xFFFFFFFFFFFFFFFFFFFFFFFFFFFFFFFFFFFFFFFF AND MUL OR SWAP1 SSTORE POP POP POP JUMP JUMPDEST PUSH1 0x1 PUSH0 SWAP1 SLOAD SWAP1 PUSH2 0x100 EXP SWAP1 DIV PUSH20 0xFFFFFFFFFFFFFFFFFFFFFFFFFFFFFFFFFFFFFFFF AND DUP1 PUSH20 0xFFFFFFFFFFFFFFFFFFFFFFFFFFFFFFFFFFFFFFFF AND CALLER PUSH20 0xFFFFFFFFFFFFFFFFFFFFFFFFFFFFFFFFFFFFFFFF AND EQ PUSH2 0x85D JUMPI PUSH1 0x40 MLOAD PUSH32 0x8C379A000000000000000000000000000000000000000000000000000000000 DUP2 MSTORE PUSH1 0x4 ADD PUSH2 0x854 SWAP1 PUSH2 0x1716 JUMP JUMPDEST PUSH1 0x40 MLOAD DUP1 SWAP2 SUB SWAP1 REVERT JUMPDEST PUSH1 0x1 PUSH0 SWAP1 SLOAD SWAP1 PUSH2 0x100 EXP SWAP1 DIV PUSH20 0xFFFFFFFFFFFFFFFFFFFFFFFFFFFFFFFFFFFFFFFF AND PUSH0 DUP1 PUSH2 0x100 EXP DUP2 SLOAD DUP2 PUSH20 0xFFFFFFFFFFFFFFFFFFFFFFFFFFFFFFFFFFFFFFFF MUL NOT AND SWAP1 DUP4 PUSH20 0xFFFFFFFFFFFFFFFFFFFFFFFFFFFFFFFFFFFFFFFF AND MUL OR SWAP1 SSTORE POP PUSH0 PUSH1 0x1 PUSH0 PUSH2 0x100 EXP DUP2 SLOAD DUP2 PUSH20 0xFFFFFFFFFFFFFFFFFFFFFFFFFFFFFFFFFFFFFFFF MUL NOT AND SWAP1 DUP4 PUSH20 0xFFFFFFFFFFFFFFFFFFFFFFFFFFFFFFFFFFFFFFFF AND MUL OR SWAP1 SSTORE POP POP JUMP JUMPDEST DUP1 PUSH1 0x2 PUSH0 CALLER PUSH20 0xFFFFFFFFFFFFFFFFFFFFFFFFFFFFFFFFFFFFFFFF AND PUSH20 0xFFFFFFFFFFFFFFFFFFFFFFFFFFFFFFFFFFFFFFFF AND DUP2 MSTORE PUSH1 0x20 ADD SWAP1 DUP2 MSTORE PUSH1 0x20 ADD PUSH0 KECCAK256 PUSH1 0x1 ADD PUSH1 0x2 ADD PUSH0 PUSH2 0x100 EXP DUP2 SLOAD DUP2 PUSH1 0xFF MUL NOT AND SWAP1 DUP4 PUSH1 0x2 DUP2 GT ISZERO PUSH2 0x965 JUMPI PUSH2 0x964 PUSH2 0x148D JUMP JUMPDEST JUMPDEST MUL OR SWAP1 SSTORE POP PUSH0 PUSH1 0x1 PUSH1 0x2 DUP2 GT ISZERO PUSH2 0x97F JUMPI PUSH2 0x97E PUSH2 0x148D JUMP JUMPDEST JUMPDEST DUP3 PUSH1 0x2 DUP2 GT ISZERO PUSH2 0x992 JUMPI PUSH2 0x991 PUSH2 0x148D JUMP JUMPDEST JUMPDEST EQ PUSH2 0x99E JUMPI PUSH1 0x3 PUSH2 0x9A1 JUMP JUMPDEST PUSH1 0x4 JUMPDEST SWAP1 POP PUSH0 DUP5 SWAP1 POP PUSH0 DUP3 DUP1 SLOAD SWAP1 POP SWAP1 POP JUMPDEST PUSH0 DUP2 GT ISZERO PUSH2 0xAEF JUMPI PUSH0 PUSH1 0x2 PUSH0 DUP6 PUSH1 0x1 DUP6 PUSH2 0x9CA SWAP2 SWAP1 PUSH2 0x179C JUMP JUMPDEST DUP2 SLOAD DUP2 LT PUSH2 0x9DB JUMPI PUSH2 0x9DA PUSH2 0x17CF JUMP JUMPDEST JUMPDEST SWAP1 PUSH0 MSTORE PUSH1 0x20 PUSH0 KECCAK256 ADD PUSH0 SWAP1 SLOAD SWAP1 PUSH2 0x100 EXP SWAP1 DIV PUSH20 0xFFFFFFFFFFFFFFFFFFFFFFFFFFFFFFFFFFFFFFFF AND PUSH20 0xFFFFFFFFFFFFFFFFFFFFFFFFFFFFFFFFFFFFFFFF AND PUSH20 0xFFFFFFFFFFFFFFFFFFFFFFFFFFFFFFFFFFFFFFFF AND DUP2 MSTORE PUSH1 0x20 ADD SWAP1 DUP2 MSTORE PUSH1 0x20 ADD PUSH0 KECCAK256 PUSH1 0x1 ADD SWAP1 POP DUP6 PUSH4 0xFFFFFFFF AND DUP2 PUSH0 ADD PUSH1 0x4 SWAP1 SLOAD SWAP1 PUSH2 0x100 EXP SWAP1 DIV PUSH4 0xFFFFFFFF AND PUSH4 0xFFFFFFFF AND LT PUSH2 0xADB JUMPI PUSH2 0xAC5 DUP5 PUSH1 0x1 DUP5 PUSH2 0xA78 SWAP2 SWAP1 PUSH2 0x179C JUMP JUMPDEST DUP2 SLOAD DUP2 LT PUSH2 0xA89 JUMPI PUSH2 0xA88 PUSH2 0x17CF JUMP JUMPDEST JUMPDEST SWAP1 PUSH0 MSTORE PUSH1 0x20 PUSH0 KECCAK256 ADD PUSH0 SWAP1 SLOAD SWAP1 PUSH2 0x100 EXP SWAP1 DIV PUSH20 0xFFFFFFFFFFFFFFFFFFFFFFFFFFFFFFFFFFFFFFFF AND DUP5 DUP8 PUSH1 0x1 DUP7 PUSH2 0xAC0 SWAP2 SWAP1 PUSH2 0x179C JUMP JUMPDEST PUSH2 0xB80 JUMP JUMPDEST SWAP3 POP PUSH0 DUP4 PUSH4 0xFFFFFFFF AND SUB PUSH2 0xADA JUMPI POP PUSH2 0xAEF JUMP JUMPDEST JUMPDEST POP DUP1 DUP1 PUSH2 0xAE7 SWAP1 PUSH2 0x17FC JUMP JUMPDEST SWAP2 POP POP PUSH2 0x9B0 JUMP JUMPDEST POP PUSH0 DUP2 PUSH4 0xFFFFFFFF AND GT ISZERO PUSH2 0xB0E JUMPI PUSH2 0xB09 DUP2 DUP6 DUP6 PUSH2 0xEF8 JUMP JUMPDEST PUSH2 0xB79 JUMP JUMPDEST PUSH0 PUSH1 0x2 PUSH0 CALLER PUSH20 0xFFFFFFFFFFFFFFFFFFFFFFFFFFFFFFFFFFFFFFFF AND PUSH20 0xFFFFFFFFFFFFFFFFFFFFFFFFFFFFFFFFFFFFFFFF AND DUP2 MSTORE PUSH1 0x20 ADD SWAP1 DUP2 MSTORE PUSH1 0x20 ADD PUSH0 KECCAK256 PUSH1 0x1 ADD PUSH1 0x2 ADD PUSH0 PUSH2 0x100 EXP DUP2 SLOAD DUP2 PUSH1 0xFF MUL NOT AND SWAP1 DUP4 PUSH1 0x2 DUP2 GT ISZERO PUSH2 0xB73 JUMPI PUSH2 0xB72 PUSH2 0x148D JUMP JUMPDEST JUMPDEST MUL OR SWAP1 SSTORE POP JUMPDEST POP POP POP POP POP JUMP JUMPDEST PUSH0 DUP1 PUSH1 0x2 PUSH0 DUP8 PUSH20 0xFFFFFFFFFFFFFFFFFFFFFFFFFFFFFFFFFFFFFFFF AND PUSH20 0xFFFFFFFFFFFFFFFFFFFFFFFFFFFFFFFFFFFFFFFF AND DUP2 MSTORE PUSH1 0x20 ADD SWAP1 DUP2 MSTORE PUSH1 0x20 ADD PUSH0 KECCAK256 PUSH1 0x1 ADD SWAP1 POP PUSH0 DUP2 PUSH0 ADD PUSH0 SWAP1 SLOAD SWAP1 PUSH2 0x100 EXP SWAP1 DIV PUSH4 0xFFFFFFFF AND PUSH4 0xFFFFFFFF AND DUP7 PUSH4 0xFFFFFFFF AND LT PUSH2 0xC02 JUMPI DUP2 PUSH0 ADD PUSH0 SWAP1 SLOAD SWAP1 PUSH2 0x100 EXP SWAP1 DIV PUSH4 0xFFFFFFFF AND PUSH2 0xC04 JUMP JUMPDEST DUP6 JUMPDEST SWAP1 POP PUSH1 0x1 PUSH1 0x2 DUP2 GT ISZERO PUSH2 0xC1A JUMPI PUSH2 0xC19 PUSH2 0x148D JUMP JUMPDEST JUMPDEST DUP6 PUSH1 0x2 DUP2 GT ISZERO PUSH2 0xC2D JUMPI PUSH2 0xC2C PUSH2 0x148D JUMP JUMPDEST JUMPDEST SUB PUSH2 0xD55 JUMPI PUSH2 0xC5A CALLER DUP4 PUSH0 ADD PUSH1 0x4 SWAP1 SLOAD SWAP1 PUSH2 0x100 EXP SWAP1 DIV PUSH4 0xFFFFFFFF AND DUP4 PUSH2 0xC55 SWAP2 SWAP1 PUSH2 0x15E5 JUMP JUMPDEST PUSH2 0x10A1 JUMP JUMPDEST DUP1 PUSH1 0x2 PUSH0 CALLER PUSH20 0xFFFFFFFFFFFFFFFFFFFFFFFFFFFFFFFFFFFFFFFF AND PUSH20 0xFFFFFFFFFFFFFFFFFFFFFFFFFFFFFFFFFFFFFFFF AND DUP2 MSTORE PUSH1 0x20 ADD SWAP1 DUP2 MSTORE PUSH1 0x20 ADD PUSH0 KECCAK256 PUSH0 ADD PUSH0 DUP3 DUP3 DUP3 SWAP1 SLOAD SWAP1 PUSH2 0x100 EXP SWAP1 DIV PUSH4 0xFFFFFFFF AND PUSH2 0xCB7 SWAP2 SWAP1 PUSH2 0x1621 JUMP JUMPDEST SWAP3 POP PUSH2 0x100 EXP DUP2 SLOAD DUP2 PUSH4 0xFFFFFFFF MUL NOT AND SWAP1 DUP4 PUSH4 0xFFFFFFFF AND MUL OR SWAP1 SSTORE POP DUP1 PUSH1 0x2 PUSH0 DUP10 PUSH20 0xFFFFFFFFFFFFFFFFFFFFFFFFFFFFFFFFFFFFFFFF AND PUSH20 0xFFFFFFFFFFFFFFFFFFFFFFFFFFFFFFFFFFFFFFFF AND DUP2 MSTORE PUSH1 0x20 ADD SWAP1 DUP2 MSTORE PUSH1 0x20 ADD PUSH0 KECCAK256 PUSH0 ADD PUSH0 DUP3 DUP3 DUP3 SWAP1 SLOAD SWAP1 PUSH2 0x100 EXP SWAP1 DIV PUSH4 0xFFFFFFFF AND PUSH2 0xD32 SWAP2 SWAP1 PUSH2 0x1658 JUMP JUMPDEST SWAP3 POP PUSH2 0x100 EXP DUP2 SLOAD DUP2 PUSH4 0xFFFFFFFF MUL NOT AND SWAP1 DUP4 PUSH4 0xFFFFFFFF AND MUL OR SWAP1 SSTORE POP PUSH2 0xE74 JUMP JUMPDEST PUSH2 0xD7D DUP8 DUP4 PUSH0 ADD PUSH1 0x4 SWAP1 SLOAD SWAP1 PUSH2 0x100 EXP SWAP1 DIV PUSH4 0xFFFFFFFF AND DUP4 PUSH2 0xD78 SWAP2 SWAP1 PUSH2 0x15E5 JUMP JUMPDEST PUSH2 0x10A1 JUMP JUMPDEST DUP1 PUSH1 0x2 PUSH0 CALLER PUSH20 0xFFFFFFFFFFFFFFFFFFFFFFFFFFFFFFFFFFFFFFFF AND PUSH20 0xFFFFFFFFFFFFFFFFFFFFFFFFFFFFFFFFFFFFFFFF AND DUP2 MSTORE PUSH1 0x20 ADD SWAP1 DUP2 MSTORE PUSH1 0x20 ADD PUSH0 KECCAK256 PUSH0 ADD PUSH0 DUP3 DUP3 DUP3 SWAP1 SLOAD SWAP1 PUSH2 0x100 EXP SWAP1 DIV PUSH4 0xFFFFFFFF AND PUSH2 0xDDA SWAP2 SWAP1 PUSH2 0x1658 JUMP JUMPDEST SWAP3 POP PUSH2 0x100 EXP DUP2 SLOAD DUP2 PUSH4 0xFFFFFFFF MUL NOT AND SWAP1 DUP4 PUSH4 0xFFFFFFFF AND MUL OR SWAP1 SSTORE POP DUP1 PUSH1 0x2 PUSH0 DUP10 PUSH20 0xFFFFFFFFFFFFFFFFFFFFFFFFFFFFFFFFFFFFFFFF AND PUSH20 0xFFFFFFFFFFFFFFFFFFFFFFFFFFFFFFFFFFFFFFFF AND DUP2 MSTORE PUSH1 0x20 ADD SWAP1 DUP2 MSTORE PUSH1 0x20 ADD PUSH0 KECCAK256 PUSH0 ADD PUSH0 DUP3 DUP3 DUP3 SWAP1 SLOAD SWAP1 PUSH2 0x100 EXP SWAP1 DIV PUSH4 0xFFFFFFFF AND PUSH2 0xE55 SWAP2 SWAP1 PUSH2 0x1621 JUMP JUMPDEST SWAP3 POP PUSH2 0x100 EXP DUP2 SLOAD DUP2 PUSH4 0xFFFFFFFF MUL NOT AND SWAP1 DUP4 PUSH4 0xFFFFFFFF AND MUL OR SWAP1 SSTORE POP JUMPDEST DUP1 DUP3 PUSH0 ADD PUSH0 DUP3 DUP3 DUP3 SWAP1 SLOAD SWAP1 PUSH2 0x100 EXP SWAP1 DIV PUSH4 0xFFFFFFFF AND PUSH2 0xE95 SWAP2 SWAP1 PUSH2 0x1621 JUMP JUMPDEST SWAP3 POP PUSH2 0x100 EXP DUP2 SLOAD DUP2 PUSH4 0xFFFFFFFF MUL NOT AND SWAP1 DUP4 PUSH4 0xFFFFFFFF AND MUL OR SWAP1 SSTORE POP PUSH0 DUP3 PUSH0 ADD PUSH0 SWAP1 SLOAD SWAP1 PUSH2 0x100 EXP SWAP1 DIV PUSH4 0xFFFFFFFF AND PUSH4 0xFFFFFFFF AND SUB PUSH2 0xEDD JUMPI PUSH2 0xEDC DUP3 DUP6 PUSH2 0x1154 JUMP JUMPDEST JUMPDEST DUP1 DUP7 PUSH2 0xEE9 SWAP2 SWAP1 PUSH2 0x1621 JUMP JUMPDEST SWAP6 POP DUP6 SWAP3 POP POP POP SWAP5 SWAP4 POP POP POP POP JUMP JUMPDEST PUSH0 PUSH1 0x1 PUSH1 0x2 DUP2 GT ISZERO PUSH2 0xF0D JUMPI PUSH2 0xF0C PUSH2 0x148D JUMP JUMPDEST JUMPDEST DUP3 PUSH1 0x2 DUP2 GT ISZERO PUSH2 0xF20 JUMPI PUSH2 0xF1F PUSH2 0x148D JUMP JUMPDEST JUMPDEST EQ PUSH2 0xF2C JUMPI PUSH1 0x4 PUSH2 0xF2F JUMP JUMPDEST PUSH1 0x3 JUMPDEST SWAP1 POP DUP4 PUSH1 0x2 PUSH0 CALLER PUSH20 0xFFFFFFFFFFFFFFFFFFFFFFFFFFFFFFFFFFFFFFFF AND PUSH20 0xFFFFFFFFFFFFFFFFFFFFFFFFFFFFFFFFFFFFFFFF AND DUP2 MSTORE PUSH1 0x20 ADD SWAP1 DUP2 MSTORE PUSH1 0x20 ADD PUSH0 KECCAK256 PUSH0 ADD PUSH0 DUP3 DUP3 DUP3 SWAP1 SLOAD SWAP1 PUSH2 0x100 EXP SWAP1 DIV PUSH4 0xFFFFFFFF AND PUSH2 0xF8E SWAP2 SWAP1 PUSH2 0x1621 JUMP JUMPDEST SWAP3 POP PUSH2 0x100 EXP DUP2 SLOAD DUP2 PUSH4 0xFFFFFFFF MUL NOT AND SWAP1 DUP4 PUSH4 0xFFFFFFFF AND MUL OR SWAP1 SSTORE POP DUP1 CALLER SWAP1 DUP1 PUSH1 0x1 DUP2 SLOAD ADD DUP1 DUP3 SSTORE DUP1 SWAP2 POP POP PUSH1 0x1 SWAP1 SUB SWAP1 PUSH0 MSTORE PUSH1 0x20 PUSH0 KECCAK256 ADD PUSH0 SWAP1 SWAP2 SWAP1 SWAP2 SWAP1 SWAP2 PUSH2 0x100 EXP DUP2 SLOAD DUP2 PUSH20 0xFFFFFFFFFFFFFFFFFFFFFFFFFFFFFFFFFFFFFFFF MUL NOT AND SWAP1 DUP4 PUSH20 0xFFFFFFFFFFFFFFFFFFFFFFFFFFFFFFFFFFFFFFFF AND MUL OR SWAP1 SSTORE POP PUSH0 PUSH1 0x2 PUSH0 CALLER PUSH20 0xFFFFFFFFFFFFFFFFFFFFFFFFFFFFFFFFFFFFFFFF AND PUSH20 0xFFFFFFFFFFFFFFFFFFFFFFFFFFFFFFFFFFFFFFFF AND DUP2 MSTORE PUSH1 0x20 ADD SWAP1 DUP2 MSTORE PUSH1 0x20 ADD PUSH0 KECCAK256 PUSH1 0x1 ADD SWAP1 POP DUP5 DUP2 PUSH0 ADD PUSH0 PUSH2 0x100 EXP DUP2 SLOAD DUP2 PUSH4 0xFFFFFFFF MUL NOT AND SWAP1 DUP4 PUSH4 0xFFFFFFFF AND MUL OR SWAP1 SSTORE POP DUP4 DUP2 PUSH0 ADD PUSH1 0x4 PUSH2 0x100 EXP DUP2 SLOAD DUP2 PUSH4 0xFFFFFFFF MUL NOT AND SWAP1 DUP4 PUSH4 0xFFFFFFFF AND MUL OR SWAP1 SSTORE POP TIMESTAMP DUP2 PUSH1 0x1 ADD DUP2 SWAP1 SSTORE POP POP POP POP POP POP JUMP JUMPDEST PUSH0 DUP3 PUSH20 0xFFFFFFFFFFFFFFFFFFFFFFFFFFFFFFFFFFFFFFFF AND DUP3 PUSH4 0xFFFFFFFF AND PUSH1 0x40 MLOAD PUSH2 0x10CC SWAP1 PUSH2 0x1850 JUMP JUMPDEST PUSH0 PUSH1 0x40 MLOAD DUP1 DUP4 SUB DUP2 DUP6 DUP8 GAS CALL SWAP3 POP POP POP RETURNDATASIZE DUP1 PUSH0 DUP2 EQ PUSH2 0x1106 JUMPI PUSH1 0x40 MLOAD SWAP2 POP PUSH1 0x1F NOT PUSH1 0x3F RETURNDATASIZE ADD AND DUP3 ADD PUSH1 0x40 MSTORE RETURNDATASIZE DUP3 MSTORE RETURNDATASIZE PUSH0 PUSH1 0x20 DUP5 ADD RETURNDATACOPY PUSH2 0x110B JUMP JUMPDEST PUSH1 0x60 SWAP2 POP JUMPDEST POP POP SWAP1 POP DUP1 PUSH2 0x114F JUMPI PUSH1 0x40 MLOAD PUSH32 0x8C379A000000000000000000000000000000000000000000000000000000000 DUP2 MSTORE PUSH1 0x4 ADD PUSH2 0x1146 SWAP1 PUSH2 0x18AE JUMP JUMPDEST PUSH1 0x40 MLOAD DUP1 SWAP2 SUB SWAP1 REVERT JUMPDEST POP POP POP JUMP JUMPDEST PUSH0 PUSH1 0x1 PUSH1 0x2 DUP2 GT ISZERO PUSH2 0x1169 JUMPI PUSH2 0x1168 PUSH2 0x148D JUMP JUMPDEST JUMPDEST DUP4 PUSH1 0x2 ADD PUSH0 SWAP1 SLOAD SWAP1 PUSH2 0x100 EXP SWAP1 DIV PUSH1 0xFF AND PUSH1 0x2 DUP2 GT ISZERO PUSH2 0x118C JUMPI PUSH2 0x118B PUSH2 0x148D JUMP JUMPDEST JUMPDEST EQ PUSH2 0x1198 JUMPI PUSH1 0x4 PUSH2 0x119B JUMP JUMPDEST PUSH1 0x3 JUMPDEST SWAP1 POP PUSH0 DUP3 SWAP1 POP JUMPDEST PUSH1 0x1 DUP3 DUP1 SLOAD SWAP1 POP PUSH2 0x11B3 SWAP2 SWAP1 PUSH2 0x179C JUMP JUMPDEST DUP2 LT ISZERO PUSH2 0x1266 JUMPI DUP2 PUSH1 0x1 DUP3 PUSH2 0x11C8 SWAP2 SWAP1 PUSH2 0x18CC JUMP JUMPDEST DUP2 SLOAD DUP2 LT PUSH2 0x11D9 JUMPI PUSH2 0x11D8 PUSH2 0x17CF JUMP JUMPDEST JUMPDEST SWAP1 PUSH0 MSTORE PUSH1 0x20 PUSH0 KECCAK256 ADD PUSH0 SWAP1 SLOAD SWAP1 PUSH2 0x100 EXP SWAP1 DIV PUSH20 0xFFFFFFFFFFFFFFFFFFFFFFFFFFFFFFFFFFFFFFFF AND DUP3 DUP3 DUP2 SLOAD DUP2 LT PUSH2 0x1214 JUMPI PUSH2 0x1213 PUSH2 0x17CF JUMP JUMPDEST JUMPDEST SWAP1 PUSH0 MSTORE PUSH1 0x20 PUSH0 KECCAK256 ADD PUSH0 PUSH2 0x100 EXP DUP2 SLOAD DUP2 PUSH20 0xFFFFFFFFFFFFFFFFFFFFFFFFFFFFFFFFFFFFFFFF MUL NOT AND SWAP1 DUP4 PUSH20 0xFFFFFFFFFFFFFFFFFFFFFFFFFFFFFFFFFFFFFFFF AND MUL OR SWAP1 SSTORE POP DUP1 DUP1 PUSH1 0x1 ADD SWAP2 POP POP PUSH2 0x11A2 JUMP JUMPDEST POP DUP1 DUP1 SLOAD DUP1 PUSH2 0x1278 JUMPI PUSH2 0x1277 PUSH2 0x18FF JUMP JUMPDEST JUMPDEST PUSH1 0x1 SWAP1 SUB DUP2 DUP2 SWAP1 PUSH0 MSTORE PUSH1 0x20 PUSH0 KECCAK256 ADD PUSH0 PUSH2 0x100 EXP DUP2 SLOAD SWAP1 PUSH20 0xFFFFFFFFFFFFFFFFFFFFFFFFFFFFFFFFFFFFFFFF MUL NOT AND SWAP1 SSTORE SWAP1 SSTORE PUSH0 DUP4 PUSH1 0x2 ADD PUSH0 PUSH2 0x100 EXP DUP2 SLOAD DUP2 PUSH1 0xFF MUL NOT AND SWAP1 DUP4 PUSH1 0x2 DUP2 GT ISZERO PUSH2 0x12D0 JUMPI PUSH2 0x12CF PUSH2 0x148D JUMP JUMPDEST JUMPDEST MUL OR SWAP1 SSTORE POP POP POP POP JUMP JUMPDEST PUSH0 DUP1 REVERT JUMPDEST PUSH0 PUSH4 0xFFFFFFFF DUP3 AND SWAP1 POP SWAP2 SWAP1 POP JUMP JUMPDEST PUSH2 0x12F6 DUP2 PUSH2 0x12DE JUMP JUMPDEST DUP2 EQ PUSH2 0x1300 JUMPI PUSH0 DUP1 REVERT JUMPDEST POP JUMP JUMPDEST PUSH0 DUP2 CALLDATALOAD SWAP1 POP PUSH2 0x1311 DUP2 PUSH2 0x12ED JUMP JUMPDEST SWAP3 SWAP2 POP POP JUMP JUMPDEST PUSH0 DUP1 PUSH1 0x40 DUP4 DUP6 SUB SLT ISZERO PUSH2 0x132D JUMPI PUSH2 0x132C PUSH2 0x12DA JUMP JUMPDEST JUMPDEST PUSH0 PUSH2 0x133A DUP6 DUP3 DUP7 ADD PUSH2 0x1303 JUMP JUMPDEST SWAP3 POP POP PUSH1 0x20 PUSH2 0x134B DUP6 DUP3 DUP7 ADD PUSH2 0x1303 JUMP JUMPDEST SWAP2 POP POP SWAP3 POP SWAP3 SWAP1 POP JUMP JUMPDEST PUSH0 DUP2 SWAP1 POP SWAP2 SWAP1 POP JUMP JUMPDEST PUSH2 0x1367 DUP2 PUSH2 0x1355 JUMP JUMPDEST DUP2 EQ PUSH2 0x1371 JUMPI PUSH0 DUP1 REVERT JUMPDEST POP JUMP JUMPDEST PUSH0 DUP2 CALLDATALOAD SWAP1 POP PUSH2 0x1382 DUP2 PUSH2 0x135E JUMP JUMPDEST SWAP3 SWAP2 POP POP JUMP JUMPDEST PUSH0 PUSH1 0x20 DUP3 DUP5 SUB SLT ISZERO PUSH2 0x139D JUMPI PUSH2 0x139C PUSH2 0x12DA JUMP JUMPDEST JUMPDEST PUSH0 PUSH2 0x13AA DUP5 DUP3 DUP6 ADD PUSH2 0x1374 JUMP JUMPDEST SWAP2 POP POP SWAP3 SWAP2 POP POP JUMP JUMPDEST PUSH0 PUSH20 0xFFFFFFFFFFFFFFFFFFFFFFFFFFFFFFFFFFFFFFFF DUP3 AND SWAP1 POP SWAP2 SWAP1 POP JUMP JUMPDEST PUSH0 PUSH2 0x13DC DUP3 PUSH2 0x13B3 JUMP JUMPDEST SWAP1 POP SWAP2 SWAP1 POP JUMP JUMPDEST PUSH2 0x13EC DUP2 PUSH2 0x13D2 JUMP JUMPDEST DUP3 MSTORE POP POP JUMP JUMPDEST PUSH0 PUSH1 0x20 DUP3 ADD SWAP1 POP PUSH2 0x1405 PUSH0 DUP4 ADD DUP5 PUSH2 0x13E3 JUMP JUMPDEST SWAP3 SWAP2 POP POP JUMP JUMPDEST PUSH2 0x1414 DUP2 PUSH2 0x13D2 JUMP JUMPDEST DUP2 EQ PUSH2 0x141E JUMPI PUSH0 DUP1 REVERT JUMPDEST POP JUMP JUMPDEST PUSH0 DUP2 CALLDATALOAD SWAP1 POP PUSH2 0x142F DUP2 PUSH2 0x140B JUMP JUMPDEST SWAP3 SWAP2 POP POP JUMP JUMPDEST PUSH0 PUSH1 0x20 DUP3 DUP5 SUB SLT ISZERO PUSH2 0x144A JUMPI PUSH2 0x1449 PUSH2 0x12DA JUMP JUMPDEST JUMPDEST PUSH0 PUSH2 0x1457 DUP5 DUP3 DUP6 ADD PUSH2 0x1421 JUMP JUMPDEST SWAP2 POP POP SWAP3 SWAP2 POP POP JUMP JUMPDEST PUSH2 0x1469 DUP2 PUSH2 0x12DE JUMP JUMPDEST DUP3 MSTORE POP POP JUMP JUMPDEST PUSH2 0x1478 DUP2 PUSH2 0x12DE JUMP JUMPDEST DUP3 MSTORE POP POP JUMP JUMPDEST PUSH2 0x1487 DUP2 PUSH2 0x1355 JUMP JUMPDEST DUP3 MSTORE POP POP JUMP JUMPDEST PUSH32 0x4E487B7100000000000000000000000000000000000000000000000000000000 PUSH0 MSTORE PUSH1 0x21 PUSH1 0x4 MSTORE PUSH1 0x24 PUSH0 REVERT JUMPDEST PUSH1 0x3 DUP2 LT PUSH2 0x14CB JUMPI PUSH2 0x14CA PUSH2 0x148D JUMP JUMPDEST JUMPDEST POP JUMP JUMPDEST PUSH0 DUP2 SWAP1 POP PUSH2 0x14DB DUP3 PUSH2 0x14BA JUMP JUMPDEST SWAP2 SWAP1 POP JUMP JUMPDEST PUSH0 PUSH2 0x14EA DUP3 PUSH2 0x14CE JUMP JUMPDEST SWAP1 POP SWAP2 SWAP1 POP JUMP JUMPDEST PUSH2 0x14FA DUP2 PUSH2 0x14E0 JUMP JUMPDEST DUP3 MSTORE POP POP JUMP JUMPDEST PUSH1 0x80 DUP3 ADD PUSH0 DUP3 ADD MLOAD PUSH2 0x1514 PUSH0 DUP6 ADD DUP3 PUSH2 0x146F JUMP JUMPDEST POP PUSH1 0x20 DUP3 ADD MLOAD PUSH2 0x1527 PUSH1 0x20 DUP6 ADD DUP3 PUSH2 0x146F JUMP JUMPDEST POP PUSH1 0x40 DUP3 ADD MLOAD PUSH2 0x153A PUSH1 0x40 DUP6 ADD DUP3 PUSH2 0x147E JUMP JUMPDEST POP PUSH1 0x60 DUP3 ADD MLOAD PUSH2 0x154D PUSH1 0x60 DUP6 ADD DUP3 PUSH2 0x14F1 JUMP JUMPDEST POP POP POP POP JUMP JUMPDEST PUSH0 PUSH1 0xA0 DUP3 ADD SWAP1 POP PUSH2 0x1566 PUSH0 DUP4 ADD DUP6 PUSH2 0x1460 JUMP JUMPDEST PUSH2 0x1573 PUSH1 0x20 DUP4 ADD DUP5 PUSH2 0x1500 JUMP JUMPDEST SWAP4 SWAP3 POP POP POP JUMP JUMPDEST PUSH0 DUP1 PUSH1 0x40 DUP4 DUP6 SUB SLT ISZERO PUSH2 0x1590 JUMPI PUSH2 0x158F PUSH2 0x12DA JUMP JUMPDEST JUMPDEST PUSH0 PUSH2 0x159D DUP6 DUP3 DUP7 ADD PUSH2 0x1421 JUMP JUMPDEST SWAP3 POP POP PUSH1 0x20 PUSH2 0x15AE DUP6 DUP3 DUP7 ADD PUSH2 0x1303 JUMP JUMPDEST SWAP2 POP POP SWAP3 POP SWAP3 SWAP1 POP JUMP JUMPDEST PUSH32 0x4E487B7100000000000000000000000000000000000000000000000000000000 PUSH0 MSTORE PUSH1 0x11 PUSH1 0x4 MSTORE PUSH1 0x24 PUSH0 REVERT JUMPDEST PUSH0 PUSH2 0x15EF DUP3 PUSH2 0x12DE JUMP JUMPDEST SWAP2 POP PUSH2 0x15FA DUP4 PUSH2 0x12DE JUMP JUMPDEST SWAP3 POP DUP3 DUP3 MUL PUSH2 0x1608 DUP2 PUSH2 0x12DE JUMP JUMPDEST SWAP2 POP DUP1 DUP3 EQ PUSH2 0x161A JUMPI PUSH2 0x1619 PUSH2 0x15B8 JUMP JUMPDEST JUMPDEST POP SWAP3 SWAP2 POP POP JUMP JUMPDEST PUSH0 PUSH2 0x162B DUP3 PUSH2 0x12DE JUMP JUMPDEST SWAP2 POP PUSH2 0x1636 DUP4 PUSH2 0x12DE JUMP JUMPDEST SWAP3 POP DUP3 DUP3 SUB SWAP1 POP PUSH4 0xFFFFFFFF DUP2 GT ISZERO PUSH2 0x1652 JUMPI PUSH2 0x1651 PUSH2 0x15B8 JUMP JUMPDEST JUMPDEST SWAP3 SWAP2 POP POP JUMP JUMPDEST PUSH0 PUSH2 0x1662 DUP3 PUSH2 0x12DE JUMP JUMPDEST SWAP2 POP PUSH2 0x166D DUP4 PUSH2 0x12DE JUMP JUMPDEST SWAP3 POP DUP3 DUP3 ADD SWAP1 POP PUSH4 0xFFFFFFFF DUP2 GT ISZERO PUSH2 0x1689 JUMPI PUSH2 0x1688 PUSH2 0x15B8 JUMP JUMPDEST JUMPDEST SWAP3 SWAP2 POP POP JUMP JUMPDEST PUSH32 0x4E487B7100000000000000000000000000000000000000000000000000000000 PUSH0 MSTORE PUSH1 0x1 PUSH1 0x4 MSTORE PUSH1 0x24 PUSH0 REVERT JUMPDEST PUSH0 DUP3 DUP3 MSTORE PUSH1 0x20 DUP3 ADD SWAP1 POP SWAP3 SWAP2 POP POP JUMP JUMPDEST PUSH32 0x43616C6C6572206973206E6F7420617574686F72697A65640000000000000000 PUSH0 DUP3 ADD MSTORE POP JUMP JUMPDEST PUSH0 PUSH2 0x1700 PUSH1 0x18 DUP4 PUSH2 0x16BC JUMP JUMPDEST SWAP2 POP PUSH2 0x170B DUP3 PUSH2 0x16CC JUMP JUMPDEST PUSH1 0x20 DUP3 ADD SWAP1 POP SWAP2 SWAP1 POP JUMP JUMPDEST PUSH0 PUSH1 0x20 DUP3 ADD SWAP1 POP DUP2 DUP2 SUB PUSH0 DUP4 ADD MSTORE PUSH2 0x172D DUP2 PUSH2 0x16F4 JUMP JUMPDEST SWAP1 POP SWAP2 SWAP1 POP JUMP JUMPDEST PUSH32 0x496E76616C6964206E6577206F776E6572206164647265737300000000000000 PUSH0 DUP3 ADD MSTORE POP JUMP JUMPDEST PUSH0 PUSH2 0x1768 PUSH1 0x19 DUP4 PUSH2 0x16BC JUMP JUMPDEST SWAP2 POP PUSH2 0x1773 DUP3 PUSH2 0x1734 JUMP JUMPDEST PUSH1 0x20 DUP3 ADD SWAP1 POP SWAP2 SWAP1 POP JUMP JUMPDEST PUSH0 PUSH1 0x20 DUP3 ADD SWAP1 POP DUP2 DUP2 SUB PUSH0 DUP4 ADD MSTORE PUSH2 0x1795 DUP2 PUSH2 0x175C JUMP JUMPDEST SWAP1 POP SWAP2 SWAP1 POP JUMP JUMPDEST PUSH0 PUSH2 0x17A6 DUP3 PUSH2 0x1355 JUMP JUMPDEST SWAP2 POP PUSH2 0x17B1 DUP4 PUSH2 0x1355 JUMP JUMPDEST SWAP3 POP DUP3 DUP3 SUB SWAP1 POP DUP2 DUP2 GT ISZERO PUSH2 0x17C9 JUMPI PUSH2 0x17C8 PUSH2 0x15B8 JUMP JUMPDEST JUMPDEST SWAP3 SWAP2 POP POP JUMP JUMPDEST PUSH32 0x4E487B7100000000000000000000000000000000000000000000000000000000 PUSH0 MSTORE PUSH1 0x32 PUSH1 0x4 MSTORE PUSH1 0x24 PUSH0 REVERT JUMPDEST PUSH0 PUSH2 0x1806 DUP3 PUSH2 0x1355 JUMP JUMPDEST SWAP2 POP PUSH0 DUP3 SUB PUSH2 0x1818 JUMPI PUSH2 0x1817 PUSH2 0x15B8 JUMP JUMPDEST JUMPDEST PUSH1 0x1 DUP3 SUB SWAP1 POP SWAP2 SWAP1 POP JUMP JUMPDEST PUSH0 DUP2 SWAP1 POP SWAP3 SWAP2 POP POP JUMP JUMPDEST POP JUMP JUMPDEST PUSH0 PUSH2 0x183B PUSH0 DUP4 PUSH2 0x1823 JUMP JUMPDEST SWAP2 POP PUSH2 0x1846 DUP3 PUSH2 0x182D JUMP JUMPDEST PUSH0 DUP3 ADD SWAP1 POP SWAP2 SWAP1 POP JUMP JUMPDEST PUSH0 PUSH2 0x185A DUP3 PUSH2 0x1830 JUMP JUMPDEST SWAP2 POP DUP2 SWAP1 POP SWAP2 SWAP1 POP JUMP JUMPDEST PUSH32 0x4661696C656420746F2073656E64204574686572000000000000000000000000 PUSH0 DUP3 ADD MSTORE POP JUMP JUMPDEST PUSH0 PUSH2 0x1898 PUSH1 0x14 DUP4 PUSH2 0x16BC JUMP JUMPDEST SWAP2 POP PUSH2 0x18A3 DUP3 PUSH2 0x1864 JUMP JUMPDEST PUSH1 0x20 DUP3 ADD SWAP1 POP SWAP2 SWAP1 POP JUMP JUMPDEST PUSH0 PUSH1 0x20 DUP3 ADD SWAP1 POP DUP2 DUP2 SUB PUSH0 DUP4 ADD MSTORE PUSH2 0x18C5 DUP2 PUSH2 0x188C JUMP JUMPDEST SWAP1 POP SWAP2 SWAP1 POP JUMP JUMPDEST PUSH0 PUSH2 0x18D6 DUP3 PUSH2 0x1355 JUMP JUMPDEST SWAP2 POP PUSH2 0x18E1 DUP4 PUSH2 0x1355 JUMP JUMPDEST SWAP3 POP DUP3 DUP3 ADD SWAP1 POP DUP1 DUP3 GT ISZERO PUSH2 0x18F9 JUMPI PUSH2 0x18F8 PUSH2 0x15B8 JUMP JUMPDEST JUMPDEST SWAP3 SWAP2 POP POP JUMP JUMPDEST PUSH32 0x4E487B7100000000000000000000000000000000000000000000000000000000 PUSH0 MSTORE PUSH1 0x31 PUSH1 0x4 MSTORE PUSH1 0x24 PUSH0 REVERT INVALID LOG2 PUSH5 0x6970667358 0x22 SLT KECCAK256 SWAP5 SWAP10 PUSH5 0x417AD498B2 PUSH5 0xA61F46750 SWAP10 STOP 0xC4 0xEA PUSH27 0x2A54940FDA118EC65E3862089264736F6C63430008190033000000 "
				},
				"gasEstimates": {
					"creation": {
						"codeDepositCost": "1299600",
						"executionCost": "49977",
						"totalCost": "1349577"
					},
					"external": {
						"ClaimOwnership()": "53049",
						"buyRequest(uint32,uint32)": "infinite",
						"buyRequestants(uint256)": "4967",
						"chooseNewOwner(address)": "26964",
						"sellRequest(uint32,uint32)": "infinite",
						"sellRequestants(uint256)": "5011",
						"send(address,uint32)": "infinite",
						"users(address)": "infinite"
					},
					"internal": {
						"addRequest(uint32,uint32,enum solt.RequestTypes)": "infinite",
						"executeRequests(address,uint32,enum solt.RequestTypes,uint256)": "infinite",
						"matchRequests(uint32,uint32,enum solt.RequestTypes)": "infinite",
						"removeRequest(struct solt.userRequest storage pointer,uint256)": "infinite",
						"sendEther(address payable,uint32)": "infinite"
					}
				},
				"methodIdentifiers": {
					"ClaimOwnership()": "fec0244c",
					"buyRequest(uint32,uint32)": "314bdd22",
					"buyRequestants(uint256)": "552cb86a",
					"chooseNewOwner(address)": "f58d0d5c",
					"sellRequest(uint32,uint32)": "658f7fb5",
					"sellRequestants(uint256)": "6da29022",
					"send(address,uint32)": "c7734ea2",
					"users(address)": "a87430ba"
				}
			},
			"storageLayout": {
				"storage": [
					{
						"astId": 3,
						"contract": "src/solt.sol:solt",
						"label": "owner",
						"offset": 0,
						"slot": "0",
						"type": "t_address"
					},
					{
						"astId": 5,
						"contract": "src/solt.sol:solt",
						"label": "nextOwner",
						"offset": 0,
						"slot": "1",
						"type": "t_address"
					},
					{
						"astId": 33,
						"contract": "src/solt.sol:solt",
						"label": "users",
						"offset": 0,
						"slot": "2",
						"type": "t_mapping(t_address,t_struct(User)28_storage)"
					},
					{
						"astId": 36,
						"contract": "src/solt.sol:solt",
						"label": "sellRequestants",
						"offset": 0,
						"slot": "3",
						"type": "t_array(t_address)dyn_storage"
					},
					{
						"astId": 39,
						"contract": "src/solt.sol:solt",
						"label": "buyRequestants",
						"offset": 0,
						"slot": "4",
						"type": "t_array(t_address)dyn_storage"
					}
				],
				"types": {
					"t_address": {
						"encoding": "inplace",
						"label": "address",
						"numberOfBytes": "20"
					},
					"t_array(t_address)dyn_storage": {
						"base": "t_address",
						"encoding": "dynamic_array",
						"label": "address[]",
						"numberOfBytes": "32"
					},
					"t_enum(RequestTypes)12": {
						"encoding": "inplace",
						"label": "enum solt.RequestTypes",
						"numberOfBytes": "1"
					},
					"t_mapping(t_address,t_struct(User)28_storage)": {
						"encoding": "mapping",
						"key": "t_address",
						"label": "mapping(address => struct solt.User)",
						"numberOfBytes": "32",
						"value": "t_struct(User)28_storage"
					},
					"t_struct(User)28_storage": {
						"encoding": "inplace",
						"label": "struct solt.User",
						"members": [
							{
								"astId": 24,
								"contract": "src/solt.sol:solt",
								"label": "balance",
								"offset": 0,
								"slot": "0",
								"type": "t_uint32"
							},
							{
								"astId": 27,
								"contract": "src/solt.sol:solt",
								"label": "Request",
								"offset": 0,
								"slot": "1",
								"type": "t_struct(userRequest)22_storage"
							}
						],
						"numberOfBytes": "128"
					},
					"t_struct(userRequest)22_storage": {
						"encoding": "inplace",
						"label": "struct solt.userRequest",
						"members": [
							{
								"astId": 14,
								"contract": "src/solt.sol:solt",
								"label": "amount",
								"offset": 0,
								"slot": "0",
								"type": "t_uint32"
							},
							{
								"astId": 16,
								"contract": "src/solt.sol:solt",
								"label": "coinPrice",
								"offset": 4,
								"slot": "0",
								"type": "t_uint32"
							},
							{
								"astId": 18,
								"contract": "src/solt.sol:solt",
								"label": "time",
								"offset": 0,
								"slot": "1",
								"type": "t_uint256"
							},
							{
								"astId": 21,
								"contract": "src/solt.sol:solt",
								"label": "Type",
								"offset": 0,
								"slot": "2",
								"type": "t_enum(RequestTypes)12"
							}
						],
						"numberOfBytes": "96"
					},
					"t_uint256": {
						"encoding": "inplace",
						"label": "uint256",
						"numberOfBytes": "32"
					},
					"t_uint32": {
						"encoding": "inplace",
						"label": "uint32",
						"numberOfBytes": "4"
					}
				}
			},
			"userdoc": {
				"kind": "user",
				"methods": {},
				"version": 1
			}
		}
	}
}