{
	"src/solt.sol": {
		"solt": {
			"abi": [
				{
					"inputs": [],
					"stateMutability": "nonpayable",
					"type": "constructor"
				},
				{
					"inputs": [],
					"name": "ClaimOwnership",
					"outputs": [],
					"stateMutability": "nonpayable",
					"type": "function"
				},
				{
					"inputs": [
						{
							"internalType": "address",
							"name": "newOwner",
							"type": "address"
						}
					],
					"name": "chooseNewOwner",
					"outputs": [],
					"stateMutability": "nonpayable",
					"type": "function"
				},
				{
					"inputs": [
						{
							"internalType": "uint32",
							"name": "amount",
							"type": "uint32"
						},
						{
							"internalType": "uint32",
							"name": "minCoinPrice",
							"type": "uint32"
						}
					],
					"name": "sellRequest",
					"outputs": [],
					"stateMutability": "nonpayable",
					"type": "function"
				},
				{
					"inputs": [
						{
							"internalType": "uint256",
							"name": "",
							"type": "uint256"
						}
					],
					"name": "sellRequests",
					"outputs": [
						{
							"internalType": "address",
							"name": "",
							"type": "address"
						}
					],
					"stateMutability": "view",
					"type": "function"
				},
				{
					"inputs": [
						{
							"internalType": "address",
							"name": "reciver",
							"type": "address"
						},
						{
							"internalType": "uint32",
							"name": "amount",
							"type": "uint32"
						}
					],
					"name": "send",
					"outputs": [],
					"stateMutability": "nonpayable",
					"type": "function"
				},
				{
					"inputs": [
						{
							"internalType": "address",
							"name": "",
							"type": "address"
						}
					],
					"name": "users",
					"outputs": [
						{
							"internalType": "uint32",
							"name": "balance",
							"type": "uint32"
						},
						{
							"components": [
								{
									"internalType": "address",
									"name": "userAddress",
									"type": "address"
								},
								{
									"internalType": "uint32",
									"name": "amount",
									"type": "uint32"
								},
								{
									"internalType": "uint32",
									"name": "coinPrice",
									"type": "uint32"
								},
								{
									"internalType": "uint256",
									"name": "time",
									"type": "uint256"
								},
								{
									"internalType": "enum solt.RequestTypes",
									"name": "Type",
									"type": "uint8"
								}
							],
							"internalType": "struct solt.userRequest",
							"name": "Request",
							"type": "tuple"
						}
					],
					"stateMutability": "view",
					"type": "function"
				}
			],
			"devdoc": {
				"kind": "dev",
				"methods": {},
				"version": 1
			},
			"evm": {
				"assembly": "    /* \"src/solt.sol\":91:4524  contract solt{... */\n  mstore(0x40, 0x80)\n    /* \"src/solt.sol\":171:181  1000000000 */\n  0x3b9aca00\n    /* \"src/solt.sol\":152:181  uint32 coinCount = 1000000000 */\n  0x01\n  exp(0x0100, 0x14)\n  dup2\n  sload\n  dup2\n  0xffffffff\n  mul\n  not\n  and\n  swap1\n  dup4\n  0xffffffff\n  and\n  mul\n  or\n  swap1\n  sstore\n  pop\n    /* \"src/solt.sol\":614:709  constructor(){... */\n  callvalue\n  dup1\n  iszero\n  tag_1\n  jumpi\n  0x00\n  dup1\n  revert\ntag_1:\n  pop\n    /* \"src/solt.sol\":645:655  msg.sender */\n  caller\n    /* \"src/solt.sol\":637:642  onwer */\n  0x00\n  dup1\n    /* \"src/solt.sol\":637:655  onwer = msg.sender */\n  0x0100\n  exp\n  dup2\n  sload\n  dup2\n  0xffffffffffffffffffffffffffffffffffffffff\n  mul\n  not\n  and\n  swap1\n  dup4\n  0xffffffffffffffffffffffffffffffffffffffff\n  and\n  mul\n  or\n  swap1\n  sstore\n  pop\n    /* \"src/solt.sol\":693:702  coinCount */\n  0x01\n  0x14\n  swap1\n  sload\n  swap1\n  0x0100\n  exp\n  swap1\n  div\n  0xffffffff\n  and\n    /* \"src/solt.sol\":665:670  users */\n  0x02\n    /* \"src/solt.sol\":665:682  users[msg.sender] */\n  0x00\n    /* \"src/solt.sol\":671:681  msg.sender */\n  caller\n    /* \"src/solt.sol\":665:682  users[msg.sender] */\n  0xffffffffffffffffffffffffffffffffffffffff\n  and\n  0xffffffffffffffffffffffffffffffffffffffff\n  and\n  dup2\n  mstore\n  0x20\n  add\n  swap1\n  dup2\n  mstore\n  0x20\n  add\n  0x00\n  keccak256\n    /* \"src/solt.sol\":665:690  users[msg.sender].balance */\n  0x00\n  add\n  0x00\n    /* \"src/solt.sol\":665:702  users[msg.sender].balance = coinCount */\n  0x0100\n  exp\n  dup2\n  sload\n  dup2\n  0xffffffff\n  mul\n  not\n  and\n  swap1\n  dup4\n  0xffffffff\n  and\n  mul\n  or\n  swap1\n  sstore\n  pop\n    /* \"src/solt.sol\":91:4524  contract solt{... */\n  dataSize(sub_0)\n  dup1\n  dataOffset(sub_0)\n  0x00\n  codecopy\n  0x00\n  return\nstop\n\nsub_0: assembly {\n        /* \"src/solt.sol\":91:4524  contract solt{... */\n      mstore(0x40, 0x80)\n      callvalue\n      dup1\n      iszero\n      tag_1\n      jumpi\n      0x00\n      dup1\n      revert\n    tag_1:\n      pop\n      jumpi(tag_2, lt(calldatasize, 0x04))\n      shr(0xe0, calldataload(0x00))\n      dup1\n      0x1a5230bb\n      eq\n      tag_3\n      jumpi\n      dup1\n      0x658f7fb5\n      eq\n      tag_4\n      jumpi\n      dup1\n      0xa87430ba\n      eq\n      tag_5\n      jumpi\n      dup1\n      0xc7734ea2\n      eq\n      tag_6\n      jumpi\n      dup1\n      0xf58d0d5c\n      eq\n      tag_7\n      jumpi\n      dup1\n      0xfec0244c\n      eq\n      tag_8\n      jumpi\n    tag_2:\n      0x00\n      dup1\n      revert\n        /* \"src/solt.sol\":551:580  address[] public sellRequests */\n    tag_3:\n      tag_9\n      0x04\n      dup1\n      calldatasize\n      sub\n      dup2\n      add\n      swap1\n      tag_10\n      swap2\n      swap1\n      tag_11\n      jump\t// in\n    tag_10:\n      tag_12\n      jump\t// in\n    tag_9:\n      mload(0x40)\n      tag_13\n      swap2\n      swap1\n      tag_14\n      jump\t// in\n    tag_13:\n      mload(0x40)\n      dup1\n      swap2\n      sub\n      swap1\n      return\n        /* \"src/solt.sol\":2020:4522  function sellRequest(uint32 amount, uint32 minCoinPrice) public noneRequest isBalaceSufficient(amount){... */\n    tag_4:\n      tag_15\n      0x04\n      dup1\n      calldatasize\n      sub\n      dup2\n      add\n      swap1\n      tag_16\n      swap2\n      swap1\n      tag_17\n      jump\t// in\n    tag_16:\n      tag_18\n      jump\t// in\n    tag_15:\n      stop\n        /* \"src/solt.sol\":507:544  mapping(address => User) public users */\n    tag_5:\n      tag_19\n      0x04\n      dup1\n      calldatasize\n      sub\n      dup2\n      add\n      swap1\n      tag_20\n      swap2\n      swap1\n      tag_21\n      jump\t// in\n    tag_20:\n      tag_22\n      jump\t// in\n    tag_19:\n      mload(0x40)\n      tag_23\n      swap3\n      swap2\n      swap1\n      tag_24\n      jump\t// in\n    tag_23:\n      mload(0x40)\n      dup1\n      swap2\n      sub\n      swap1\n      return\n        /* \"src/solt.sol\":1562:1788  function send(address reciver, uint32 amount) public isBalaceSufficient(amount){... */\n    tag_6:\n      tag_25\n      0x04\n      dup1\n      calldatasize\n      sub\n      dup2\n      add\n      swap1\n      tag_26\n      swap2\n      swap1\n      tag_27\n      jump\t// in\n    tag_26:\n      tag_28\n      jump\t// in\n    tag_25:\n      stop\n        /* \"src/solt.sol\":1222:1325  function chooseNewOwner(address newOwner) public OnlyChosen(onwer){... */\n    tag_7:\n      tag_29\n      0x04\n      dup1\n      calldatasize\n      sub\n      dup2\n      add\n      swap1\n      tag_30\n      swap2\n      swap1\n      tag_21\n      jump\t// in\n    tag_30:\n      tag_31\n      jump\t// in\n    tag_29:\n      stop\n        /* \"src/solt.sol\":1401:1516  function  ClaimOwnership() public OnlyChosen(nextOwner){... */\n    tag_8:\n      tag_32\n      tag_33\n      jump\t// in\n    tag_32:\n      stop\n        /* \"src/solt.sol\":551:580  address[] public sellRequests */\n    tag_12:\n      0x03\n      dup2\n      dup2\n      sload\n      dup2\n      lt\n      tag_34\n      jumpi\n      0x00\n      dup1\n      revert\n    tag_34:\n      swap1\n      0x00\n      mstore\n      keccak256(0x00, 0x20)\n      add\n      0x00\n      swap2\n      pop\n      sload\n      swap1\n      0x0100\n      exp\n      swap1\n      div\n      0xffffffffffffffffffffffffffffffffffffffff\n      and\n      dup2\n      jump\t// out\n        /* \"src/solt.sol\":2020:4522  function sellRequest(uint32 amount, uint32 minCoinPrice) public noneRequest isBalaceSufficient(amount){... */\n    tag_18:\n        /* \"src/solt.sol\":1120:1137  RequestTypes.none */\n      0x00\n        /* \"src/solt.sol\":1086:1137  users[msg.sender].Request.Type == RequestTypes.none */\n      0x02\n      dup2\n      gt\n      iszero\n      tag_37\n      jumpi\n      tag_38\n      tag_39\n      jump\t// in\n    tag_38:\n    tag_37:\n        /* \"src/solt.sol\":1086:1091  users */\n      0x02\n        /* \"src/solt.sol\":1086:1103  users[msg.sender] */\n      0x00\n        /* \"src/solt.sol\":1092:1102  msg.sender */\n      caller\n        /* \"src/solt.sol\":1086:1103  users[msg.sender] */\n      0xffffffffffffffffffffffffffffffffffffffff\n      and\n      0xffffffffffffffffffffffffffffffffffffffff\n      and\n      dup2\n      mstore\n      0x20\n      add\n      swap1\n      dup2\n      mstore\n      0x20\n      add\n      0x00\n      keccak256\n        /* \"src/solt.sol\":1086:1111  users[msg.sender].Request */\n      0x01\n      add\n        /* \"src/solt.sol\":1086:1116  users[msg.sender].Request.Type */\n      0x02\n      add\n      0x00\n      swap1\n      sload\n      swap1\n      0x0100\n      exp\n      swap1\n      div\n      0xff\n      and\n        /* \"src/solt.sol\":1086:1137  users[msg.sender].Request.Type == RequestTypes.none */\n      0x02\n      dup2\n      gt\n      iszero\n      tag_40\n      jumpi\n      tag_41\n      tag_39\n      jump\t// in\n    tag_41:\n    tag_40:\n      eq\n        /* \"src/solt.sol\":1078:1138  require(users[msg.sender].Request.Type == RequestTypes.none) */\n      tag_42\n      jumpi\n      0x00\n      dup1\n      revert\n    tag_42:\n        /* \"src/solt.sol\":2115:2121  amount */\n      dup2\n        /* \"src/solt.sol\":1014:1020  amount */\n      dup1\n        /* \"src/solt.sol\":985:1020  users[msg.sender].balance >= amount */\n      0xffffffff\n      and\n        /* \"src/solt.sol\":985:990  users */\n      0x02\n        /* \"src/solt.sol\":985:1002  users[msg.sender] */\n      0x00\n        /* \"src/solt.sol\":991:1001  msg.sender */\n      caller\n        /* \"src/solt.sol\":985:1002  users[msg.sender] */\n      0xffffffffffffffffffffffffffffffffffffffff\n      and\n      0xffffffffffffffffffffffffffffffffffffffff\n      and\n      dup2\n      mstore\n      0x20\n      add\n      swap1\n      dup2\n      mstore\n      0x20\n      add\n      0x00\n      keccak256\n        /* \"src/solt.sol\":985:1010  users[msg.sender].balance */\n      0x00\n      add\n      0x00\n      swap1\n      sload\n      swap1\n      0x0100\n      exp\n      swap1\n      div\n      0xffffffff\n      and\n        /* \"src/solt.sol\":985:1020  users[msg.sender].balance >= amount */\n      0xffffffff\n      and\n      lt\n      iszero\n        /* \"src/solt.sol\":977:1021  require(users[msg.sender].balance >= amount) */\n      tag_44\n      jumpi\n      0x00\n      dup1\n      revert\n    tag_44:\n        /* \"src/solt.sol\":2165:2182  RequestTypes.sell */\n      0x01\n        /* \"src/solt.sol\":2132:2137  users */\n      0x02\n        /* \"src/solt.sol\":2132:2149  users[msg.sender] */\n      0x00\n        /* \"src/solt.sol\":2138:2148  msg.sender */\n      caller\n        /* \"src/solt.sol\":2132:2149  users[msg.sender] */\n      0xffffffffffffffffffffffffffffffffffffffff\n      and\n      0xffffffffffffffffffffffffffffffffffffffff\n      and\n      dup2\n      mstore\n      0x20\n      add\n      swap1\n      dup2\n      mstore\n      0x20\n      add\n      0x00\n      keccak256\n        /* \"src/solt.sol\":2132:2157  users[msg.sender].Request */\n      0x01\n      add\n        /* \"src/solt.sol\":2132:2162  users[msg.sender].Request.Type */\n      0x02\n      add\n      0x00\n        /* \"src/solt.sol\":2132:2182  users[msg.sender].Request.Type = RequestTypes.sell */\n      0x0100\n      exp\n      dup2\n      sload\n      dup2\n      0xff\n      mul\n      not\n      and\n      swap1\n      dup4\n      0x02\n      dup2\n      gt\n      iszero\n      tag_46\n      jumpi\n      tag_47\n      tag_39\n      jump\t// in\n    tag_47:\n    tag_46:\n      mul\n      or\n      swap1\n      sstore\n      pop\n        /* \"src/solt.sol\":2192:2211  uint32 amountToSell */\n      0x00\n        /* \"src/solt.sol\":2214:2220  amount */\n      dup4\n        /* \"src/solt.sol\":2192:2220  uint32 amountToSell = amount */\n      swap1\n      pop\n        /* \"src/solt.sol\":2230:2259  userRequest memory buyRequest */\n      tag_48\n      tag_49\n      jump\t// in\n    tag_48:\n        /* \"src/solt.sol\":2269:4456  while(amountToSell > 0){... */\n    tag_50:\n        /* \"src/solt.sol\":2290:2291  0 */\n      0x00\n        /* \"src/solt.sol\":2275:2287  amountToSell */\n      dup3\n        /* \"src/solt.sol\":2275:2291  amountToSell > 0 */\n      0xffffffff\n      and\n      gt\n        /* \"src/solt.sol\":2269:4456  while(amountToSell > 0){... */\n      iszero\n      tag_51\n      jumpi\n        /* \"src/solt.sol\":2344:2345  0 */\n      0x00\n        /* \"src/solt.sol\":2322:2333  buyRequests */\n      0x04\n        /* \"src/solt.sol\":2322:2340  buyRequests.length */\n      dup1\n      sload\n      swap1\n      pop\n        /* \"src/solt.sol\":2322:2345  buyRequests.length != 0 */\n      eq\n      iszero\n        /* \"src/solt.sol\":2322:2423  buyRequests.length != 0 && users[buyRequests[buyRequests.length-1]].Request.coinPrice >= minCoinPrice */\n      dup1\n      iszero\n      tag_52\n      jumpi\n      pop\n        /* \"src/solt.sol\":2411:2423  minCoinPrice */\n      dup4\n        /* \"src/solt.sol\":2349:2423  users[buyRequests[buyRequests.length-1]].Request.coinPrice >= minCoinPrice */\n      0xffffffff\n      and\n        /* \"src/solt.sol\":2349:2354  users */\n      0x02\n        /* \"src/solt.sol\":2349:2389  users[buyRequests[buyRequests.length-1]] */\n      0x00\n        /* \"src/solt.sol\":2355:2366  buyRequests */\n      0x04\n        /* \"src/solt.sol\":2386:2387  1 */\n      0x01\n        /* \"src/solt.sol\":2367:2378  buyRequests */\n      0x04\n        /* \"src/solt.sol\":2367:2385  buyRequests.length */\n      dup1\n      sload\n      swap1\n      pop\n        /* \"src/solt.sol\":2367:2387  buyRequests.length-1 */\n      tag_53\n      swap2\n      swap1\n      tag_54\n      jump\t// in\n    tag_53:\n        /* \"src/solt.sol\":2355:2388  buyRequests[buyRequests.length-1] */\n      dup2\n      sload\n      dup2\n      lt\n      tag_55\n      jumpi\n      tag_56\n      tag_57\n      jump\t// in\n    tag_56:\n    tag_55:\n      swap1\n      0x00\n      mstore\n      keccak256(0x00, 0x20)\n      add\n      0x00\n      swap1\n      sload\n      swap1\n      0x0100\n      exp\n      swap1\n      div\n      0xffffffffffffffffffffffffffffffffffffffff\n      and\n        /* \"src/solt.sol\":2349:2389  users[buyRequests[buyRequests.length-1]] */\n      0xffffffffffffffffffffffffffffffffffffffff\n      and\n      0xffffffffffffffffffffffffffffffffffffffff\n      and\n      dup2\n      mstore\n      0x20\n      add\n      swap1\n      dup2\n      mstore\n      0x20\n      add\n      0x00\n      keccak256\n        /* \"src/solt.sol\":2349:2397  users[buyRequests[buyRequests.length-1]].Request */\n      0x01\n      add\n        /* \"src/solt.sol\":2349:2407  users[buyRequests[buyRequests.length-1]].Request.coinPrice */\n      0x00\n      add\n      0x18\n      swap1\n      sload\n      swap1\n      0x0100\n      exp\n      swap1\n      div\n      0xffffffff\n      and\n        /* \"src/solt.sol\":2349:2423  users[buyRequests[buyRequests.length-1]].Request.coinPrice >= minCoinPrice */\n      0xffffffff\n      and\n      lt\n      iszero\n        /* \"src/solt.sol\":2322:2423  buyRequests.length != 0 && users[buyRequests[buyRequests.length-1]].Request.coinPrice >= minCoinPrice */\n    tag_52:\n        /* \"src/solt.sol\":2319:4446  if(buyRequests.length != 0 && users[buyRequests[buyRequests.length-1]].Request.coinPrice >= minCoinPrice){... */\n      iszero\n      tag_59\n      jumpi\n        /* \"src/solt.sol\":2455:2460  users */\n      0x02\n        /* \"src/solt.sol\":2455:2495  users[buyRequests[buyRequests.length-1]] */\n      0x00\n        /* \"src/solt.sol\":2461:2472  buyRequests */\n      0x04\n        /* \"src/solt.sol\":2492:2493  1 */\n      0x01\n        /* \"src/solt.sol\":2473:2484  buyRequests */\n      0x04\n        /* \"src/solt.sol\":2473:2491  buyRequests.length */\n      dup1\n      sload\n      swap1\n      pop\n        /* \"src/solt.sol\":2473:2493  buyRequests.length-1 */\n      tag_60\n      swap2\n      swap1\n      tag_54\n      jump\t// in\n    tag_60:\n        /* \"src/solt.sol\":2461:2494  buyRequests[buyRequests.length-1] */\n      dup2\n      sload\n      dup2\n      lt\n      tag_61\n      jumpi\n      tag_62\n      tag_57\n      jump\t// in\n    tag_62:\n    tag_61:\n      swap1\n      0x00\n      mstore\n      keccak256(0x00, 0x20)\n      add\n      0x00\n      swap1\n      sload\n      swap1\n      0x0100\n      exp\n      swap1\n      div\n      0xffffffffffffffffffffffffffffffffffffffff\n      and\n        /* \"src/solt.sol\":2455:2495  users[buyRequests[buyRequests.length-1]] */\n      0xffffffffffffffffffffffffffffffffffffffff\n      and\n      0xffffffffffffffffffffffffffffffffffffffff\n      and\n      dup2\n      mstore\n      0x20\n      add\n      swap1\n      dup2\n      mstore\n      0x20\n      add\n      0x00\n      keccak256\n        /* \"src/solt.sol\":2455:2503  users[buyRequests[buyRequests.length-1]].Request */\n      0x01\n      add\n        /* \"src/solt.sol\":2442:2503  buyRequest = users[buyRequests[buyRequests.length-1]].Request */\n      mload(0x40)\n      dup1\n      0xa0\n      add\n      0x40\n      mstore\n      swap1\n      dup2\n      0x00\n      dup3\n      add\n      0x00\n      swap1\n      sload\n      swap1\n      0x0100\n      exp\n      swap1\n      div\n      0xffffffffffffffffffffffffffffffffffffffff\n      and\n      0xffffffffffffffffffffffffffffffffffffffff\n      and\n      0xffffffffffffffffffffffffffffffffffffffff\n      and\n      dup2\n      mstore\n      0x20\n      add\n      0x00\n      dup3\n      add\n      0x14\n      swap1\n      sload\n      swap1\n      0x0100\n      exp\n      swap1\n      div\n      0xffffffff\n      and\n      0xffffffff\n      and\n      0xffffffff\n      and\n      dup2\n      mstore\n      0x20\n      add\n      0x00\n      dup3\n      add\n      0x18\n      swap1\n      sload\n      swap1\n      0x0100\n      exp\n      swap1\n      div\n      0xffffffff\n      and\n      0xffffffff\n      and\n      0xffffffff\n      and\n      dup2\n      mstore\n      0x20\n      add\n      0x01\n      dup3\n      add\n      sload\n      dup2\n      mstore\n      0x20\n      add\n      0x02\n      dup3\n      add\n      0x00\n      swap1\n      sload\n      swap1\n      0x0100\n      exp\n      swap1\n      div\n      0xff\n      and\n      0x02\n      dup2\n      gt\n      iszero\n      tag_64\n      jumpi\n      tag_65\n      tag_39\n      jump\t// in\n    tag_65:\n    tag_64:\n      0x02\n      dup2\n      gt\n      iszero\n      tag_66\n      jumpi\n      tag_67\n      tag_39\n      jump\t// in\n    tag_67:\n    tag_66:\n      dup2\n      mstore\n      pop\n      pop\n      swap1\n      pop\n        /* \"src/solt.sol\":2534:2544  buyRequest */\n      dup1\n        /* \"src/solt.sol\":2534:2551  buyRequest.amount */\n      0x20\n      add\n      mload\n        /* \"src/solt.sol\":2524:2551  amount <= buyRequest.amount */\n      0xffffffff\n      and\n        /* \"src/solt.sol\":2524:2530  amount */\n      dup6\n        /* \"src/solt.sol\":2524:2551  amount <= buyRequest.amount */\n      0xffffffff\n      and\n      gt\n        /* \"src/solt.sol\":2521:3361  if(amount <= buyRequest.amount){... */\n      tag_68\n      jumpi\n        /* \"src/solt.sol\":2603:2609  amount */\n      dup5\n        /* \"src/solt.sol\":2574:2579  users */\n      0x02\n        /* \"src/solt.sol\":2574:2591  users[msg.sender] */\n      0x00\n        /* \"src/solt.sol\":2580:2590  msg.sender */\n      caller\n        /* \"src/solt.sol\":2574:2591  users[msg.sender] */\n      0xffffffffffffffffffffffffffffffffffffffff\n      and\n      0xffffffffffffffffffffffffffffffffffffffff\n      and\n      dup2\n      mstore\n      0x20\n      add\n      swap1\n      dup2\n      mstore\n      0x20\n      add\n      0x00\n      keccak256\n        /* \"src/solt.sol\":2574:2599  users[msg.sender].balance */\n      0x00\n      add\n      0x00\n        /* \"src/solt.sol\":2574:2609  users[msg.sender].balance -= amount */\n      dup3\n      dup3\n      dup3\n      swap1\n      sload\n      swap1\n      0x0100\n      exp\n      swap1\n      div\n      0xffffffff\n      and\n      tag_69\n      swap2\n      swap1\n      tag_70\n      jump\t// in\n    tag_69:\n      swap3\n      pop\n      0x0100\n      exp\n      dup2\n      sload\n      dup2\n      0xffffffff\n      mul\n      not\n      and\n      swap1\n      dup4\n      0xffffffff\n      and\n      mul\n      or\n      swap1\n      sstore\n      pop\n        /* \"src/solt.sol\":2652:2658  amount */\n      dup5\n        /* \"src/solt.sol\":2631:2641  buyRequest */\n      dup2\n        /* \"src/solt.sol\":2631:2648  buyRequest.amount */\n      0x20\n      add\n        /* \"src/solt.sol\":2631:2658  buyRequest.amount -= amount */\n      dup2\n      dup2\n      mload\n      tag_71\n      swap2\n      swap1\n      tag_70\n      jump\t// in\n    tag_71:\n      swap2\n      pop\n      swap1\n      0xffffffff\n      and\n      swap1\n      dup2\n      0xffffffff\n      and\n      dup2\n      mstore\n      pop\n      pop\n        /* \"src/solt.sol\":2680:2740  sendEther(payable(msg.sender),buyRequest.coinPrice * amount) */\n      tag_72\n        /* \"src/solt.sol\":2698:2708  msg.sender */\n      caller\n        /* \"src/solt.sol\":2733:2739  amount */\n      dup7\n        /* \"src/solt.sol\":2710:2720  buyRequest */\n      dup4\n        /* \"src/solt.sol\":2710:2730  buyRequest.coinPrice */\n      0x40\n      add\n      mload\n        /* \"src/solt.sol\":2710:2739  buyRequest.coinPrice * amount */\n      tag_73\n      swap2\n      swap1\n      tag_74\n      jump\t// in\n    tag_73:\n        /* \"src/solt.sol\":2680:2689  sendEther */\n      tag_75\n        /* \"src/solt.sol\":2680:2740  sendEther(payable(msg.sender),buyRequest.coinPrice * amount) */\n      jump\t// in\n    tag_72:\n        /* \"src/solt.sol\":2780:2797  RequestTypes.none */\n      0x00\n        /* \"src/solt.sol\":2762:2772  buyRequest */\n      dup2\n        /* \"src/solt.sol\":2762:2777  buyRequest.Type */\n      0x80\n      add\n        /* \"src/solt.sol\":2762:2797  buyRequest.Type = RequestTypes.none */\n      swap1\n      0x02\n      dup2\n      gt\n      iszero\n      tag_76\n      jumpi\n      tag_77\n      tag_39\n      jump\t// in\n    tag_77:\n    tag_76:\n      swap1\n      dup2\n      0x02\n      dup2\n      gt\n      iszero\n      tag_78\n      jumpi\n      tag_79\n      tag_39\n      jump\t// in\n    tag_79:\n    tag_78:\n      dup2\n      mstore\n      pop\n      pop\n        /* \"src/solt.sol\":2871:2877  amount */\n      dup5\n        /* \"src/solt.sol\":2819:2824  users */\n      0x02\n        /* \"src/solt.sol\":2819:2859  users[buyRequests[buyRequests.length-1]] */\n      0x00\n        /* \"src/solt.sol\":2825:2836  buyRequests */\n      0x04\n        /* \"src/solt.sol\":2856:2857  1 */\n      0x01\n        /* \"src/solt.sol\":2837:2848  buyRequests */\n      0x04\n        /* \"src/solt.sol\":2837:2855  buyRequests.length */\n      dup1\n      sload\n      swap1\n      pop\n        /* \"src/solt.sol\":2837:2857  buyRequests.length-1 */\n      tag_80\n      swap2\n      swap1\n      tag_54\n      jump\t// in\n    tag_80:\n        /* \"src/solt.sol\":2825:2858  buyRequests[buyRequests.length-1] */\n      dup2\n      sload\n      dup2\n      lt\n      tag_81\n      jumpi\n      tag_82\n      tag_57\n      jump\t// in\n    tag_82:\n    tag_81:\n      swap1\n      0x00\n      mstore\n      keccak256(0x00, 0x20)\n      add\n      0x00\n      swap1\n      sload\n      swap1\n      0x0100\n      exp\n      swap1\n      div\n      0xffffffffffffffffffffffffffffffffffffffff\n      and\n        /* \"src/solt.sol\":2819:2859  users[buyRequests[buyRequests.length-1]] */\n      0xffffffffffffffffffffffffffffffffffffffff\n      and\n      0xffffffffffffffffffffffffffffffffffffffff\n      and\n      dup2\n      mstore\n      0x20\n      add\n      swap1\n      dup2\n      mstore\n      0x20\n      add\n      0x00\n      keccak256\n        /* \"src/solt.sol\":2819:2867  users[buyRequests[buyRequests.length-1]].balance */\n      0x00\n      add\n      0x00\n        /* \"src/solt.sol\":2819:2877  users[buyRequests[buyRequests.length-1]].balance += amount */\n      dup3\n      dup3\n      dup3\n      swap1\n      sload\n      swap1\n      0x0100\n      exp\n      swap1\n      div\n      0xffffffff\n      and\n      tag_84\n      swap2\n      swap1\n      tag_85\n      jump\t// in\n    tag_84:\n      swap3\n      pop\n      0x0100\n      exp\n      dup2\n      sload\n      dup2\n      0xffffffff\n      mul\n      not\n      and\n      swap1\n      dup4\n      0xffffffff\n      and\n      mul\n      or\n      swap1\n      sstore\n      pop\n        /* \"src/solt.sol\":2914:2915  0 */\n      0x00\n        /* \"src/solt.sol\":2899:2915  amountToSell = 0 */\n      swap2\n      pop\n        /* \"src/solt.sol\":2521:3361  if(amount <= buyRequest.amount){... */\n      jump(tag_86)\n    tag_68:\n        /* \"src/solt.sol\":2989:2999  buyRequest */\n      dup1\n        /* \"src/solt.sol\":2989:3006  buyRequest.amount */\n      0x20\n      add\n      mload\n        /* \"src/solt.sol\":2960:2965  users */\n      0x02\n        /* \"src/solt.sol\":2960:2977  users[msg.sender] */\n      0x00\n        /* \"src/solt.sol\":2966:2976  msg.sender */\n      caller\n        /* \"src/solt.sol\":2960:2977  users[msg.sender] */\n      0xffffffffffffffffffffffffffffffffffffffff\n      and\n      0xffffffffffffffffffffffffffffffffffffffff\n      and\n      dup2\n      mstore\n      0x20\n      add\n      swap1\n      dup2\n      mstore\n      0x20\n      add\n      0x00\n      keccak256\n        /* \"src/solt.sol\":2960:2985  users[msg.sender].balance */\n      0x00\n      add\n      0x00\n        /* \"src/solt.sol\":2960:3006  users[msg.sender].balance -= buyRequest.amount */\n      dup3\n      dup3\n      dup3\n      swap1\n      sload\n      swap1\n      0x0100\n      exp\n      swap1\n      div\n      0xffffffff\n      and\n      tag_87\n      swap2\n      swap1\n      tag_70\n      jump\t// in\n    tag_87:\n      swap3\n      pop\n      0x0100\n      exp\n      dup2\n      sload\n      dup2\n      0xffffffff\n      mul\n      not\n      and\n      swap1\n      dup4\n      0xffffffff\n      and\n      mul\n      or\n      swap1\n      sstore\n      pop\n        /* \"src/solt.sol\":3028:3118  sendEther(payable(msg.sender),buyRequest.coinPrice * users[buyRequests[0]].Request.amount) */\n      tag_88\n        /* \"src/solt.sol\":3046:3056  msg.sender */\n      caller\n        /* \"src/solt.sol\":3081:3086  users */\n      0x02\n        /* \"src/solt.sol\":3081:3102  users[buyRequests[0]] */\n      0x00\n        /* \"src/solt.sol\":3087:3098  buyRequests */\n      0x04\n        /* \"src/solt.sol\":3099:3100  0 */\n      0x00\n        /* \"src/solt.sol\":3087:3101  buyRequests[0] */\n      dup2\n      sload\n      dup2\n      lt\n      tag_89\n      jumpi\n      tag_90\n      tag_57\n      jump\t// in\n    tag_90:\n    tag_89:\n      swap1\n      0x00\n      mstore\n      keccak256(0x00, 0x20)\n      add\n      0x00\n      swap1\n      sload\n      swap1\n      0x0100\n      exp\n      swap1\n      div\n      0xffffffffffffffffffffffffffffffffffffffff\n      and\n        /* \"src/solt.sol\":3081:3102  users[buyRequests[0]] */\n      0xffffffffffffffffffffffffffffffffffffffff\n      and\n      0xffffffffffffffffffffffffffffffffffffffff\n      and\n      dup2\n      mstore\n      0x20\n      add\n      swap1\n      dup2\n      mstore\n      0x20\n      add\n      0x00\n      keccak256\n        /* \"src/solt.sol\":3081:3110  users[buyRequests[0]].Request */\n      0x01\n      add\n        /* \"src/solt.sol\":3081:3117  users[buyRequests[0]].Request.amount */\n      0x00\n      add\n      0x14\n      swap1\n      sload\n      swap1\n      0x0100\n      exp\n      swap1\n      div\n      0xffffffff\n      and\n        /* \"src/solt.sol\":3058:3068  buyRequest */\n      dup4\n        /* \"src/solt.sol\":3058:3078  buyRequest.coinPrice */\n      0x40\n      add\n      mload\n        /* \"src/solt.sol\":3058:3117  buyRequest.coinPrice * users[buyRequests[0]].Request.amount */\n      tag_92\n      swap2\n      swap1\n      tag_74\n      jump\t// in\n    tag_92:\n        /* \"src/solt.sol\":3028:3037  sendEther */\n      tag_75\n        /* \"src/solt.sol\":3028:3118  sendEther(payable(msg.sender),buyRequest.coinPrice * users[buyRequests[0]].Request.amount) */\n      jump\t// in\n    tag_88:\n        /* \"src/solt.sol\":3192:3202  buyRequest */\n      dup1\n        /* \"src/solt.sol\":3192:3209  buyRequest.amount */\n      0x20\n      add\n      mload\n        /* \"src/solt.sol\":3140:3145  users */\n      0x02\n        /* \"src/solt.sol\":3140:3180  users[buyRequests[buyRequests.length-1]] */\n      0x00\n        /* \"src/solt.sol\":3146:3157  buyRequests */\n      0x04\n        /* \"src/solt.sol\":3177:3178  1 */\n      0x01\n        /* \"src/solt.sol\":3158:3169  buyRequests */\n      0x04\n        /* \"src/solt.sol\":3158:3176  buyRequests.length */\n      dup1\n      sload\n      swap1\n      pop\n        /* \"src/solt.sol\":3158:3178  buyRequests.length-1 */\n      tag_93\n      swap2\n      swap1\n      tag_54\n      jump\t// in\n    tag_93:\n        /* \"src/solt.sol\":3146:3179  buyRequests[buyRequests.length-1] */\n      dup2\n      sload\n      dup2\n      lt\n      tag_94\n      jumpi\n      tag_95\n      tag_57\n      jump\t// in\n    tag_95:\n    tag_94:\n      swap1\n      0x00\n      mstore\n      keccak256(0x00, 0x20)\n      add\n      0x00\n      swap1\n      sload\n      swap1\n      0x0100\n      exp\n      swap1\n      div\n      0xffffffffffffffffffffffffffffffffffffffff\n      and\n        /* \"src/solt.sol\":3140:3180  users[buyRequests[buyRequests.length-1]] */\n      0xffffffffffffffffffffffffffffffffffffffff\n      and\n      0xffffffffffffffffffffffffffffffffffffffff\n      and\n      dup2\n      mstore\n      0x20\n      add\n      swap1\n      dup2\n      mstore\n      0x20\n      add\n      0x00\n      keccak256\n        /* \"src/solt.sol\":3140:3188  users[buyRequests[buyRequests.length-1]].balance */\n      0x00\n      add\n      0x00\n        /* \"src/solt.sol\":3140:3209  users[buyRequests[buyRequests.length-1]].balance += buyRequest.amount */\n      dup3\n      dup3\n      dup3\n      swap1\n      sload\n      swap1\n      0x0100\n      exp\n      swap1\n      div\n      0xffffffff\n      and\n      tag_97\n      swap2\n      swap1\n      tag_85\n      jump\t// in\n    tag_97:\n      swap3\n      pop\n      0x0100\n      exp\n      dup2\n      sload\n      dup2\n      0xffffffff\n      mul\n      not\n      and\n      swap1\n      dup4\n      0xffffffff\n      and\n      mul\n      or\n      swap1\n      sstore\n      pop\n        /* \"src/solt.sol\":3247:3257  buyRequest */\n      dup1\n        /* \"src/solt.sol\":3247:3264  buyRequest.amount */\n      0x20\n      add\n      mload\n        /* \"src/solt.sol\":3231:3264  amountToSell -= buyRequest.amount */\n      dup3\n      tag_98\n      swap2\n      swap1\n      tag_70\n      jump\t// in\n    tag_98:\n      swap2\n      pop\n        /* \"src/solt.sol\":3286:3303  delete buyRequest */\n      tag_99\n      tag_49\n      jump\t// in\n    tag_99:\n      swap1\n      pop\n        /* \"src/solt.sol\":3325:3336  buyRequests */\n      0x04\n        /* \"src/solt.sol\":3325:3342  buyRequests.pop() */\n      dup1\n      sload\n      dup1\n      tag_100\n      jumpi\n      tag_101\n      tag_102\n      jump\t// in\n    tag_101:\n    tag_100:\n      0x01\n      swap1\n      sub\n      dup2\n      dup2\n      swap1\n      0x00\n      mstore\n      keccak256(0x00, 0x20)\n      add\n      exp(0x0100, 0x00)\n      dup2\n      sload\n      swap1\n      0xffffffffffffffffffffffffffffffffffffffff\n      mul\n      not\n      and\n      swap1\n      sstore\n      swap1\n      sstore\n        /* \"src/solt.sol\":2521:3361  if(amount <= buyRequest.amount){... */\n    tag_86:\n        /* \"src/solt.sol\":2319:4446  if(buyRequests.length != 0 && users[buyRequests[buyRequests.length-1]].Request.coinPrice >= minCoinPrice){... */\n      jump(tag_104)\n    tag_59:\n        /* \"src/solt.sol\":3430:3447  RequestTypes.sell */\n      0x01\n        /* \"src/solt.sol\":3397:3402  users */\n      0x02\n        /* \"src/solt.sol\":3397:3414  users[msg.sender] */\n      0x00\n        /* \"src/solt.sol\":3403:3413  msg.sender */\n      caller\n        /* \"src/solt.sol\":3397:3414  users[msg.sender] */\n      0xffffffffffffffffffffffffffffffffffffffff\n      and\n      0xffffffffffffffffffffffffffffffffffffffff\n      and\n      dup2\n      mstore\n      0x20\n      add\n      swap1\n      dup2\n      mstore\n      0x20\n      add\n      0x00\n      keccak256\n        /* \"src/solt.sol\":3397:3422  users[msg.sender].Request */\n      0x01\n      add\n        /* \"src/solt.sol\":3397:3427  users[msg.sender].Request.Type */\n      0x02\n      add\n      0x00\n        /* \"src/solt.sol\":3397:3447  users[msg.sender].Request.Type = RequestTypes.sell */\n      0x0100\n      exp\n      dup2\n      sload\n      dup2\n      0xff\n      mul\n      not\n      and\n      swap1\n      dup4\n      0x02\n      dup2\n      gt\n      iszero\n      tag_105\n      jumpi\n      tag_106\n      tag_39\n      jump\t// in\n    tag_106:\n    tag_105:\n      mul\n      or\n      swap1\n      sstore\n      pop\n        /* \"src/solt.sol\":3500:3512  amountToSell */\n      dup2\n        /* \"src/solt.sol\":3465:3470  users */\n      0x02\n        /* \"src/solt.sol\":3465:3482  users[msg.sender] */\n      0x00\n        /* \"src/solt.sol\":3471:3481  msg.sender */\n      caller\n        /* \"src/solt.sol\":3465:3482  users[msg.sender] */\n      0xffffffffffffffffffffffffffffffffffffffff\n      and\n      0xffffffffffffffffffffffffffffffffffffffff\n      and\n      dup2\n      mstore\n      0x20\n      add\n      swap1\n      dup2\n      mstore\n      0x20\n      add\n      0x00\n      keccak256\n        /* \"src/solt.sol\":3465:3490  users[msg.sender].Request */\n      0x01\n      add\n        /* \"src/solt.sol\":3465:3497  users[msg.sender].Request.amount */\n      0x00\n      add\n      0x14\n        /* \"src/solt.sol\":3465:3512  users[msg.sender].Request.amount = amountToSell */\n      0x0100\n      exp\n      dup2\n      sload\n      dup2\n      0xffffffff\n      mul\n      not\n      and\n      swap1\n      dup4\n      0xffffffff\n      and\n      mul\n      or\n      swap1\n      sstore\n      pop\n        /* \"src/solt.sol\":3568:3580  minCoinPrice */\n      dup4\n        /* \"src/solt.sol\":3530:3535  users */\n      0x02\n        /* \"src/solt.sol\":3530:3547  users[msg.sender] */\n      0x00\n        /* \"src/solt.sol\":3536:3546  msg.sender */\n      caller\n        /* \"src/solt.sol\":3530:3547  users[msg.sender] */\n      0xffffffffffffffffffffffffffffffffffffffff\n      and\n      0xffffffffffffffffffffffffffffffffffffffff\n      and\n      dup2\n      mstore\n      0x20\n      add\n      swap1\n      dup2\n      mstore\n      0x20\n      add\n      0x00\n      keccak256\n        /* \"src/solt.sol\":3530:3555  users[msg.sender].Request */\n      0x01\n      add\n        /* \"src/solt.sol\":3530:3565  users[msg.sender].Request.coinPrice */\n      0x00\n      add\n      0x18\n        /* \"src/solt.sol\":3530:3580  users[msg.sender].Request.coinPrice = minCoinPrice */\n      0x0100\n      exp\n      dup2\n      sload\n      dup2\n      0xffffffff\n      mul\n      not\n      and\n      swap1\n      dup4\n      0xffffffff\n      and\n      mul\n      or\n      swap1\n      sstore\n      pop\n        /* \"src/solt.sol\":3631:3646  block.timestamp */\n      timestamp\n        /* \"src/solt.sol\":3598:3603  users */\n      0x02\n        /* \"src/solt.sol\":3598:3615  users[msg.sender] */\n      0x00\n        /* \"src/solt.sol\":3604:3614  msg.sender */\n      caller\n        /* \"src/solt.sol\":3598:3615  users[msg.sender] */\n      0xffffffffffffffffffffffffffffffffffffffff\n      and\n      0xffffffffffffffffffffffffffffffffffffffff\n      and\n      dup2\n      mstore\n      0x20\n      add\n      swap1\n      dup2\n      mstore\n      0x20\n      add\n      0x00\n      keccak256\n        /* \"src/solt.sol\":3598:3623  users[msg.sender].Request */\n      0x01\n      add\n        /* \"src/solt.sol\":3598:3628  users[msg.sender].Request.time */\n      0x01\n      add\n        /* \"src/solt.sol\":3598:3646  users[msg.sender].Request.time = block.timestamp */\n      dup2\n      swap1\n      sstore\n      pop\n        /* \"src/solt.sol\":3693:3705  amountToSell */\n      dup2\n        /* \"src/solt.sol\":3664:3669  users */\n      0x02\n        /* \"src/solt.sol\":3664:3681  users[msg.sender] */\n      0x00\n        /* \"src/solt.sol\":3670:3680  msg.sender */\n      caller\n        /* \"src/solt.sol\":3664:3681  users[msg.sender] */\n      0xffffffffffffffffffffffffffffffffffffffff\n      and\n      0xffffffffffffffffffffffffffffffffffffffff\n      and\n      dup2\n      mstore\n      0x20\n      add\n      swap1\n      dup2\n      mstore\n      0x20\n      add\n      0x00\n      keccak256\n        /* \"src/solt.sol\":3664:3689  users[msg.sender].balance */\n      0x00\n      add\n      0x00\n        /* \"src/solt.sol\":3664:3705  users[msg.sender].balance -= amountToSell */\n      dup3\n      dup3\n      dup3\n      swap1\n      sload\n      swap1\n      0x0100\n      exp\n      swap1\n      div\n      0xffffffff\n      and\n      tag_107\n      swap2\n      swap1\n      tag_70\n      jump\t// in\n    tag_107:\n      swap3\n      pop\n      0x0100\n      exp\n      dup2\n      sload\n      dup2\n      0xffffffff\n      mul\n      not\n      and\n      swap1\n      dup4\n      0xffffffff\n      and\n      mul\n      or\n      swap1\n      sstore\n      pop\n        /* \"src/solt.sol\":3750:3751  0 */\n      0x00\n        /* \"src/solt.sol\":3727:3739  sellRequests */\n      0x03\n        /* \"src/solt.sol\":3727:3746  sellRequests.length */\n      dup1\n      sload\n      swap1\n      pop\n        /* \"src/solt.sol\":3727:3751  sellRequests.length != 0 */\n      eq\n        /* \"src/solt.sol\":3724:4408  if(sellRequests.length != 0){... */\n      tag_108\n      jumpi\n        /* \"src/solt.sol\":3778:3787  uint256 i */\n      0x00\n        /* \"src/solt.sol\":3810:3811  1 */\n      0x01\n        /* \"src/solt.sol\":3790:3802  sellRequests */\n      0x03\n        /* \"src/solt.sol\":3790:3809  sellRequests.length */\n      dup1\n      sload\n      swap1\n      pop\n        /* \"src/solt.sol\":3790:3811  sellRequests.length-1 */\n      tag_112\n      swap2\n      swap1\n      tag_54\n      jump\t// in\n    tag_112:\n        /* \"src/solt.sol\":3778:3811  uint256 i = sellRequests.length-1 */\n      swap1\n      pop\n        /* \"src/solt.sol\":3774:4316  for(uint256 i = sellRequests.length-1; i > 0; i--){... */\n    tag_109:\n        /* \"src/solt.sol\":3817:3818  0 */\n      0x00\n        /* \"src/solt.sol\":3813:3814  i */\n      dup2\n        /* \"src/solt.sol\":3813:3818  i > 0 */\n      gt\n        /* \"src/solt.sol\":3774:4316  for(uint256 i = sellRequests.length-1; i > 0; i--){... */\n      iszero\n      tag_110\n      jumpi\n        /* \"src/solt.sol\":3916:3928  minCoinPrice */\n      dup5\n        /* \"src/solt.sol\":3853:3928  users[sellRequests[buyRequests.length-1]].Request.coinPrice >= minCoinPrice */\n      0xffffffff\n      and\n        /* \"src/solt.sol\":3853:3858  users */\n      0x02\n        /* \"src/solt.sol\":3853:3894  users[sellRequests[buyRequests.length-1]] */\n      0x00\n        /* \"src/solt.sol\":3859:3871  sellRequests */\n      0x03\n        /* \"src/solt.sol\":3891:3892  1 */\n      0x01\n        /* \"src/solt.sol\":3872:3883  buyRequests */\n      0x04\n        /* \"src/solt.sol\":3872:3890  buyRequests.length */\n      dup1\n      sload\n      swap1\n      pop\n        /* \"src/solt.sol\":3872:3892  buyRequests.length-1 */\n      tag_113\n      swap2\n      swap1\n      tag_54\n      jump\t// in\n    tag_113:\n        /* \"src/solt.sol\":3859:3893  sellRequests[buyRequests.length-1] */\n      dup2\n      sload\n      dup2\n      lt\n      tag_114\n      jumpi\n      tag_115\n      tag_57\n      jump\t// in\n    tag_115:\n    tag_114:\n      swap1\n      0x00\n      mstore\n      keccak256(0x00, 0x20)\n      add\n      0x00\n      swap1\n      sload\n      swap1\n      0x0100\n      exp\n      swap1\n      div\n      0xffffffffffffffffffffffffffffffffffffffff\n      and\n        /* \"src/solt.sol\":3853:3894  users[sellRequests[buyRequests.length-1]] */\n      0xffffffffffffffffffffffffffffffffffffffff\n      and\n      0xffffffffffffffffffffffffffffffffffffffff\n      and\n      dup2\n      mstore\n      0x20\n      add\n      swap1\n      dup2\n      mstore\n      0x20\n      add\n      0x00\n      keccak256\n        /* \"src/solt.sol\":3853:3902  users[sellRequests[buyRequests.length-1]].Request */\n      0x01\n      add\n        /* \"src/solt.sol\":3853:3912  users[sellRequests[buyRequests.length-1]].Request.coinPrice */\n      0x00\n      add\n      0x18\n      swap1\n      sload\n      swap1\n      0x0100\n      exp\n      swap1\n      div\n      0xffffffff\n      and\n        /* \"src/solt.sol\":3853:3928  users[sellRequests[buyRequests.length-1]].Request.coinPrice >= minCoinPrice */\n      0xffffffff\n      and\n      lt\n        /* \"src/solt.sol\":3850:4294  if(users[sellRequests[buyRequests.length-1]].Request.coinPrice >= minCoinPrice){... */\n      tag_117\n      jumpi\n        /* \"src/solt.sol\":3959:3971  sellRequests */\n      0x03\n        /* \"src/solt.sol\":3977:3989  sellRequests */\n      dup1\n        /* \"src/solt.sol\":4012:4013  1 */\n      0x01\n        /* \"src/solt.sol\":3990:4002  sellRequests */\n      0x03\n        /* \"src/solt.sol\":3990:4009  sellRequests.length */\n      dup1\n      sload\n      swap1\n      pop\n        /* \"src/solt.sol\":3990:4013  sellRequests.length - 1 */\n      tag_118\n      swap2\n      swap1\n      tag_54\n      jump\t// in\n    tag_118:\n        /* \"src/solt.sol\":3977:4014  sellRequests[sellRequests.length - 1] */\n      dup2\n      sload\n      dup2\n      lt\n      tag_119\n      jumpi\n      tag_120\n      tag_57\n      jump\t// in\n    tag_120:\n    tag_119:\n      swap1\n      0x00\n      mstore\n      keccak256(0x00, 0x20)\n      add\n      0x00\n      swap1\n      sload\n      swap1\n      0x0100\n      exp\n      swap1\n      div\n      0xffffffffffffffffffffffffffffffffffffffff\n      and\n        /* \"src/solt.sol\":3959:4015  sellRequests.push(sellRequests[sellRequests.length - 1]) */\n      swap1\n      dup1\n      0x01\n      dup2\n      sload\n      add\n      dup1\n      dup3\n      sstore\n      dup1\n      swap2\n      pop\n      pop\n      0x01\n      swap1\n      sub\n      swap1\n      0x00\n      mstore\n      keccak256(0x00, 0x20)\n      add\n      0x00\n      swap1\n      swap2\n      swap1\n      swap2\n      swap1\n      swap2\n      0x0100\n      exp\n      dup2\n      sload\n      dup2\n      0xffffffffffffffffffffffffffffffffffffffff\n      mul\n      not\n      and\n      swap1\n      dup4\n      0xffffffffffffffffffffffffffffffffffffffff\n      and\n      mul\n      or\n      swap1\n      sstore\n      pop\n        /* \"src/solt.sol\":4050:4056  uint j */\n      0x00\n        /* \"src/solt.sol\":4081:4082  1 */\n      0x01\n        /* \"src/solt.sol\":4059:4071  sellRequests */\n      0x03\n        /* \"src/solt.sol\":4059:4078  sellRequests.length */\n      dup1\n      sload\n      swap1\n      pop\n        /* \"src/solt.sol\":4059:4082  sellRequests.length - 1 */\n      tag_126\n      swap2\n      swap1\n      tag_54\n      jump\t// in\n    tag_126:\n        /* \"src/solt.sol\":4050:4082  uint j = sellRequests.length - 1 */\n      swap1\n      pop\n        /* \"src/solt.sol\":4045:4198  for (uint j = sellRequests.length - 1; j > i; j--) {... */\n    tag_123:\n        /* \"src/solt.sol\":4088:4089  i */\n      dup2\n        /* \"src/solt.sol\":4084:4085  j */\n      dup2\n        /* \"src/solt.sol\":4084:4089  j > i */\n      gt\n        /* \"src/solt.sol\":4045:4198  for (uint j = sellRequests.length - 1; j > i; j--) {... */\n      iszero\n      tag_124\n      jumpi\n        /* \"src/solt.sol\":4148:4160  sellRequests */\n      0x03\n        /* \"src/solt.sol\":4165:4166  1 */\n      0x01\n        /* \"src/solt.sol\":4161:4162  j */\n      dup3\n        /* \"src/solt.sol\":4161:4166  j - 1 */\n      tag_127\n      swap2\n      swap1\n      tag_54\n      jump\t// in\n    tag_127:\n        /* \"src/solt.sol\":4148:4167  sellRequests[j - 1] */\n      dup2\n      sload\n      dup2\n      lt\n      tag_128\n      jumpi\n      tag_129\n      tag_57\n      jump\t// in\n    tag_129:\n    tag_128:\n      swap1\n      0x00\n      mstore\n      keccak256(0x00, 0x20)\n      add\n      0x00\n      swap1\n      sload\n      swap1\n      0x0100\n      exp\n      swap1\n      div\n      0xffffffffffffffffffffffffffffffffffffffff\n      and\n        /* \"src/solt.sol\":4130:4142  sellRequests */\n      0x03\n        /* \"src/solt.sol\":4143:4144  j */\n      dup3\n        /* \"src/solt.sol\":4130:4145  sellRequests[j] */\n      dup2\n      sload\n      dup2\n      lt\n      tag_131\n      jumpi\n      tag_132\n      tag_57\n      jump\t// in\n    tag_132:\n    tag_131:\n      swap1\n      0x00\n      mstore\n      keccak256(0x00, 0x20)\n      add\n      0x00\n        /* \"src/solt.sol\":4130:4167  sellRequests[j] = sellRequests[j - 1] */\n      0x0100\n      exp\n      dup2\n      sload\n      dup2\n      0xffffffffffffffffffffffffffffffffffffffff\n      mul\n      not\n      and\n      swap1\n      dup4\n      0xffffffffffffffffffffffffffffffffffffffff\n      and\n      mul\n      or\n      swap1\n      sstore\n      pop\n        /* \"src/solt.sol\":4091:4094  j-- */\n      dup1\n      dup1\n      tag_134\n      swap1\n      tag_135\n      jump\t// in\n    tag_134:\n      swap2\n      pop\n      pop\n        /* \"src/solt.sol\":4045:4198  for (uint j = sellRequests.length - 1; j > i; j--) {... */\n      jump(tag_123)\n    tag_124:\n      pop\n        /* \"src/solt.sol\":4245:4255  msg.sender */\n      caller\n        /* \"src/solt.sol\":4227:4239  sellRequests */\n      0x03\n        /* \"src/solt.sol\":4240:4241  i */\n      dup3\n        /* \"src/solt.sol\":4227:4242  sellRequests[i] */\n      dup2\n      sload\n      dup2\n      lt\n      tag_136\n      jumpi\n      tag_137\n      tag_57\n      jump\t// in\n    tag_137:\n    tag_136:\n      swap1\n      0x00\n      mstore\n      keccak256(0x00, 0x20)\n      add\n      0x00\n        /* \"src/solt.sol\":4227:4255  sellRequests[i] = msg.sender */\n      0x0100\n      exp\n      dup2\n      sload\n      dup2\n      0xffffffffffffffffffffffffffffffffffffffff\n      mul\n      not\n      and\n      swap1\n      dup4\n      0xffffffffffffffffffffffffffffffffffffffff\n      and\n      mul\n      or\n      swap1\n      sstore\n      pop\n        /* \"src/solt.sol\":3850:4294  if(users[sellRequests[buyRequests.length-1]].Request.coinPrice >= minCoinPrice){... */\n    tag_117:\n        /* \"src/solt.sol\":3820:3823  i-- */\n      dup1\n      dup1\n      tag_139\n      swap1\n      tag_135\n      jump\t// in\n    tag_139:\n      swap2\n      pop\n      pop\n        /* \"src/solt.sol\":3774:4316  for(uint256 i = sellRequests.length-1; i > 0; i--){... */\n      jump(tag_109)\n    tag_110:\n      pop\n        /* \"src/solt.sol\":3724:4408  if(sellRequests.length != 0){... */\n      jump(tag_140)\n    tag_108:\n        /* \"src/solt.sol\":4360:4372  sellRequests */\n      0x03\n        /* \"src/solt.sol\":4378:4388  msg.sender */\n      caller\n        /* \"src/solt.sol\":4360:4389  sellRequests.push(msg.sender) */\n      swap1\n      dup1\n      0x01\n      dup2\n      sload\n      add\n      dup1\n      dup3\n      sstore\n      dup1\n      swap2\n      pop\n      pop\n      0x01\n      swap1\n      sub\n      swap1\n      0x00\n      mstore\n      keccak256(0x00, 0x20)\n      add\n      0x00\n      swap1\n      swap2\n      swap1\n      swap2\n      swap1\n      swap2\n      0x0100\n      exp\n      dup2\n      sload\n      dup2\n      0xffffffffffffffffffffffffffffffffffffffff\n      mul\n      not\n      and\n      swap1\n      dup4\n      0xffffffffffffffffffffffffffffffffffffffff\n      and\n      mul\n      or\n      swap1\n      sstore\n      pop\n        /* \"src/solt.sol\":3724:4408  if(sellRequests.length != 0){... */\n    tag_140:\n        /* \"src/solt.sol\":4425:4432  return; */\n      pop\n      pop\n      jump(tag_45)\n        /* \"src/solt.sol\":2319:4446  if(buyRequests.length != 0 && users[buyRequests[buyRequests.length-1]].Request.coinPrice >= minCoinPrice){... */\n    tag_104:\n        /* \"src/solt.sol\":2269:4456  while(amountToSell > 0){... */\n      jump(tag_50)\n    tag_51:\n        /* \"src/solt.sol\":4498:4515  RequestTypes.none */\n      0x00\n        /* \"src/solt.sol\":4465:4470  users */\n      0x02\n        /* \"src/solt.sol\":4465:4482  users[msg.sender] */\n      0x00\n        /* \"src/solt.sol\":4471:4481  msg.sender */\n      caller\n        /* \"src/solt.sol\":4465:4482  users[msg.sender] */\n      0xffffffffffffffffffffffffffffffffffffffff\n      and\n      0xffffffffffffffffffffffffffffffffffffffff\n      and\n      dup2\n      mstore\n      0x20\n      add\n      swap1\n      dup2\n      mstore\n      0x20\n      add\n      0x00\n      keccak256\n        /* \"src/solt.sol\":4465:4490  users[msg.sender].Request */\n      0x01\n      add\n        /* \"src/solt.sol\":4465:4495  users[msg.sender].Request.Type */\n      0x02\n      add\n      0x00\n        /* \"src/solt.sol\":4465:4515  users[msg.sender].Request.Type = RequestTypes.none */\n      0x0100\n      exp\n      dup2\n      sload\n      dup2\n      0xff\n      mul\n      not\n      and\n      swap1\n      dup4\n      0x02\n      dup2\n      gt\n      iszero\n      tag_142\n      jumpi\n      tag_143\n      tag_39\n      jump\t// in\n    tag_143:\n    tag_142:\n      mul\n      or\n      swap1\n      sstore\n      pop\n        /* \"src/solt.sol\":2122:4522  {... */\n      pop\n      pop\n        /* \"src/solt.sol\":1031:1032  _ */\n    tag_45:\n        /* \"src/solt.sol\":1149:1150  _ */\n      pop\n        /* \"src/solt.sol\":2020:4522  function sellRequest(uint32 amount, uint32 minCoinPrice) public noneRequest isBalaceSufficient(amount){... */\n      pop\n      pop\n      jump\t// out\n        /* \"src/solt.sol\":507:544  mapping(address => User) public users */\n    tag_22:\n      mstore(0x20, 0x02)\n      dup1\n      0x00\n      mstore\n      keccak256(0x00, 0x40)\n      0x00\n      swap2\n      pop\n      swap1\n      pop\n      dup1\n      0x00\n      add\n      0x00\n      swap1\n      sload\n      swap1\n      0x0100\n      exp\n      swap1\n      div\n      0xffffffff\n      and\n      swap1\n      dup1\n      0x01\n      add\n      mload(0x40)\n      dup1\n      0xa0\n      add\n      0x40\n      mstore\n      swap1\n      dup2\n      0x00\n      dup3\n      add\n      0x00\n      swap1\n      sload\n      swap1\n      0x0100\n      exp\n      swap1\n      div\n      0xffffffffffffffffffffffffffffffffffffffff\n      and\n      0xffffffffffffffffffffffffffffffffffffffff\n      and\n      0xffffffffffffffffffffffffffffffffffffffff\n      and\n      dup2\n      mstore\n      0x20\n      add\n      0x00\n      dup3\n      add\n      0x14\n      swap1\n      sload\n      swap1\n      0x0100\n      exp\n      swap1\n      div\n      0xffffffff\n      and\n      0xffffffff\n      and\n      0xffffffff\n      and\n      dup2\n      mstore\n      0x20\n      add\n      0x00\n      dup3\n      add\n      0x18\n      swap1\n      sload\n      swap1\n      0x0100\n      exp\n      swap1\n      div\n      0xffffffff\n      and\n      0xffffffff\n      and\n      0xffffffff\n      and\n      dup2\n      mstore\n      0x20\n      add\n      0x01\n      dup3\n      add\n      sload\n      dup2\n      mstore\n      0x20\n      add\n      0x02\n      dup3\n      add\n      0x00\n      swap1\n      sload\n      swap1\n      0x0100\n      exp\n      swap1\n      div\n      0xff\n      and\n      0x02\n      dup2\n      gt\n      iszero\n      tag_144\n      jumpi\n      tag_145\n      tag_39\n      jump\t// in\n    tag_145:\n    tag_144:\n      0x02\n      dup2\n      gt\n      iszero\n      tag_146\n      jumpi\n      tag_147\n      tag_39\n      jump\t// in\n    tag_147:\n    tag_146:\n      dup2\n      mstore\n      pop\n      pop\n      swap1\n      pop\n      dup3\n      jump\t// out\n        /* \"src/solt.sol\":1562:1788  function send(address reciver, uint32 amount) public isBalaceSufficient(amount){... */\n    tag_28:\n        /* \"src/solt.sol\":1634:1640  amount */\n      dup1\n        /* \"src/solt.sol\":1014:1020  amount */\n      dup1\n        /* \"src/solt.sol\":985:1020  users[msg.sender].balance >= amount */\n      0xffffffff\n      and\n        /* \"src/solt.sol\":985:990  users */\n      0x02\n        /* \"src/solt.sol\":985:1002  users[msg.sender] */\n      0x00\n        /* \"src/solt.sol\":991:1001  msg.sender */\n      caller\n        /* \"src/solt.sol\":985:1002  users[msg.sender] */\n      0xffffffffffffffffffffffffffffffffffffffff\n      and\n      0xffffffffffffffffffffffffffffffffffffffff\n      and\n      dup2\n      mstore\n      0x20\n      add\n      swap1\n      dup2\n      mstore\n      0x20\n      add\n      0x00\n      keccak256\n        /* \"src/solt.sol\":985:1010  users[msg.sender].balance */\n      0x00\n      add\n      0x00\n      swap1\n      sload\n      swap1\n      0x0100\n      exp\n      swap1\n      div\n      0xffffffff\n      and\n        /* \"src/solt.sol\":985:1020  users[msg.sender].balance >= amount */\n      0xffffffff\n      and\n      lt\n      iszero\n        /* \"src/solt.sol\":977:1021  require(users[msg.sender].balance >= amount) */\n      tag_149\n      jumpi\n      0x00\n      dup1\n      revert\n    tag_149:\n        /* \"src/solt.sol\":1680:1686  amount */\n      dup2\n        /* \"src/solt.sol\":1651:1656  users */\n      0x02\n        /* \"src/solt.sol\":1651:1668  users[msg.sender] */\n      0x00\n        /* \"src/solt.sol\":1657:1667  msg.sender */\n      caller\n        /* \"src/solt.sol\":1651:1668  users[msg.sender] */\n      0xffffffffffffffffffffffffffffffffffffffff\n      and\n      0xffffffffffffffffffffffffffffffffffffffff\n      and\n      dup2\n      mstore\n      0x20\n      add\n      swap1\n      dup2\n      mstore\n      0x20\n      add\n      0x00\n      keccak256\n        /* \"src/solt.sol\":1651:1676  users[msg.sender].balance */\n      0x00\n      add\n      0x00\n        /* \"src/solt.sol\":1651:1686  users[msg.sender].balance -= amount */\n      dup3\n      dup3\n      dup3\n      swap1\n      sload\n      swap1\n      0x0100\n      exp\n      swap1\n      div\n      0xffffffff\n      and\n      tag_151\n      swap2\n      swap1\n      tag_70\n      jump\t// in\n    tag_151:\n      swap3\n      pop\n      0x0100\n      exp\n      dup2\n      sload\n      dup2\n      0xffffffff\n      mul\n      not\n      and\n      swap1\n      dup4\n      0xffffffff\n      and\n      mul\n      or\n      swap1\n      sstore\n      pop\n        /* \"src/solt.sol\":1722:1728  amount */\n      dup2\n        /* \"src/solt.sol\":1696:1701  users */\n      0x02\n        /* \"src/solt.sol\":1696:1710  users[reciver] */\n      0x00\n        /* \"src/solt.sol\":1702:1709  reciver */\n      dup6\n        /* \"src/solt.sol\":1696:1710  users[reciver] */\n      0xffffffffffffffffffffffffffffffffffffffff\n      and\n      0xffffffffffffffffffffffffffffffffffffffff\n      and\n      dup2\n      mstore\n      0x20\n      add\n      swap1\n      dup2\n      mstore\n      0x20\n      add\n      0x00\n      keccak256\n        /* \"src/solt.sol\":1696:1718  users[reciver].balance */\n      0x00\n      add\n      0x00\n        /* \"src/solt.sol\":1696:1728  users[reciver].balance += amount */\n      dup3\n      dup3\n      dup3\n      swap1\n      sload\n      swap1\n      0x0100\n      exp\n      swap1\n      div\n      0xffffffff\n      and\n      tag_152\n      swap2\n      swap1\n      tag_85\n      jump\t// in\n    tag_152:\n      swap3\n      pop\n      0x0100\n      exp\n      dup2\n      sload\n      dup2\n      0xffffffff\n      mul\n      not\n      and\n      swap1\n      dup4\n      0xffffffff\n      and\n      mul\n      or\n      swap1\n      sstore\n      pop\n        /* \"src/solt.sol\":1771:1780  coinCount */\n      0x01\n      0x14\n      swap1\n      sload\n      swap1\n      0x0100\n      exp\n      swap1\n      div\n      0xffffffff\n      and\n        /* \"src/solt.sol\":1745:1780  users[reciver].balance <= coinCount */\n      0xffffffff\n      and\n        /* \"src/solt.sol\":1745:1750  users */\n      0x02\n        /* \"src/solt.sol\":1745:1759  users[reciver] */\n      0x00\n        /* \"src/solt.sol\":1751:1758  reciver */\n      dup6\n        /* \"src/solt.sol\":1745:1759  users[reciver] */\n      0xffffffffffffffffffffffffffffffffffffffff\n      and\n      0xffffffffffffffffffffffffffffffffffffffff\n      and\n      dup2\n      mstore\n      0x20\n      add\n      swap1\n      dup2\n      mstore\n      0x20\n      add\n      0x00\n      keccak256\n        /* \"src/solt.sol\":1745:1767  users[reciver].balance */\n      0x00\n      add\n      0x00\n      swap1\n      sload\n      swap1\n      0x0100\n      exp\n      swap1\n      div\n      0xffffffff\n      and\n        /* \"src/solt.sol\":1745:1780  users[reciver].balance <= coinCount */\n      0xffffffff\n      and\n      gt\n      iszero\n        /* \"src/solt.sol\":1738:1781  assert(users[reciver].balance <= coinCount) */\n      tag_153\n      jumpi\n      tag_154\n      tag_155\n      jump\t// in\n    tag_154:\n    tag_153:\n        /* \"src/solt.sol\":1562:1788  function send(address reciver, uint32 amount) public isBalaceSufficient(amount){... */\n      pop\n      pop\n      pop\n      jump\t// out\n        /* \"src/solt.sol\":1222:1325  function chooseNewOwner(address newOwner) public OnlyChosen(onwer){... */\n    tag_31:\n        /* \"src/solt.sol\":1282:1287  onwer */\n      0x00\n      dup1\n      sload\n      swap1\n      0x0100\n      exp\n      swap1\n      div\n      0xffffffffffffffffffffffffffffffffffffffff\n      and\n        /* \"src/solt.sol\":833:839  chosen */\n      dup1\n        /* \"src/solt.sol\":819:839  msg.sender == chosen */\n      0xffffffffffffffffffffffffffffffffffffffff\n      and\n        /* \"src/solt.sol\":819:829  msg.sender */\n      caller\n        /* \"src/solt.sol\":819:839  msg.sender == chosen */\n      0xffffffffffffffffffffffffffffffffffffffff\n      and\n      eq\n        /* \"src/solt.sol\":811:840  require(msg.sender == chosen) */\n      tag_157\n      jumpi\n      0x00\n      dup1\n      revert\n    tag_157:\n        /* \"src/solt.sol\":1310:1318  newOwner */\n      dup2\n        /* \"src/solt.sol\":1298:1307  nextOwner */\n      0x01\n      0x00\n        /* \"src/solt.sol\":1298:1318  nextOwner = newOwner */\n      0x0100\n      exp\n      dup2\n      sload\n      dup2\n      0xffffffffffffffffffffffffffffffffffffffff\n      mul\n      not\n      and\n      swap1\n      dup4\n      0xffffffffffffffffffffffffffffffffffffffff\n      and\n      mul\n      or\n      swap1\n      sstore\n      pop\n        /* \"src/solt.sol\":1222:1325  function chooseNewOwner(address newOwner) public OnlyChosen(onwer){... */\n      pop\n      pop\n      jump\t// out\n        /* \"src/solt.sol\":1401:1516  function  ClaimOwnership() public OnlyChosen(nextOwner){... */\n    tag_33:\n        /* \"src/solt.sol\":1446:1455  nextOwner */\n      0x01\n      0x00\n      swap1\n      sload\n      swap1\n      0x0100\n      exp\n      swap1\n      div\n      0xffffffffffffffffffffffffffffffffffffffff\n      and\n        /* \"src/solt.sol\":833:839  chosen */\n      dup1\n        /* \"src/solt.sol\":819:839  msg.sender == chosen */\n      0xffffffffffffffffffffffffffffffffffffffff\n      and\n        /* \"src/solt.sol\":819:829  msg.sender */\n      caller\n        /* \"src/solt.sol\":819:839  msg.sender == chosen */\n      0xffffffffffffffffffffffffffffffffffffffff\n      and\n      eq\n        /* \"src/solt.sol\":811:840  require(msg.sender == chosen) */\n      tag_160\n      jumpi\n      0x00\n      dup1\n      revert\n    tag_160:\n        /* \"src/solt.sol\":1474:1483  nextOwner */\n      0x01\n      0x00\n      swap1\n      sload\n      swap1\n      0x0100\n      exp\n      swap1\n      div\n      0xffffffffffffffffffffffffffffffffffffffff\n      and\n        /* \"src/solt.sol\":1466:1471  onwer */\n      0x00\n      dup1\n        /* \"src/solt.sol\":1466:1483  onwer = nextOwner */\n      0x0100\n      exp\n      dup2\n      sload\n      dup2\n      0xffffffffffffffffffffffffffffffffffffffff\n      mul\n      not\n      and\n      swap1\n      dup4\n      0xffffffffffffffffffffffffffffffffffffffff\n      and\n      mul\n      or\n      swap1\n      sstore\n      pop\n        /* \"src/solt.sol\":1500:1509  nextOwner */\n      0x01\n      0x00\n        /* \"src/solt.sol\":1493:1509  delete nextOwner */\n      0x0100\n      exp\n      dup2\n      sload\n      swap1\n      0xffffffffffffffffffffffffffffffffffffffff\n      mul\n      not\n      and\n      swap1\n      sstore\n        /* \"src/solt.sol\":1401:1516  function  ClaimOwnership() public OnlyChosen(nextOwner){... */\n      pop\n      jump\t// out\n        /* \"src/solt.sol\":1819:2013  function sendEther(address payable reciver, uint32 amount) private{... */\n    tag_75:\n        /* \"src/solt.sol\":1896:1905  bool sent */\n      0x00\n        /* \"src/solt.sol\":1907:1924  bytes memory data */\n      dup1\n        /* \"src/solt.sol\":1928:1935  reciver */\n      dup4\n        /* \"src/solt.sol\":1928:1940  reciver.call */\n      0xffffffffffffffffffffffffffffffffffffffff\n      and\n        /* \"src/solt.sol\":1948:1954  amount */\n      dup4\n        /* \"src/solt.sol\":1928:1959  reciver.call{value: amount}(\"\") */\n      0xffffffff\n      and\n      mload(0x40)\n      tag_163\n      swap1\n      tag_164\n      jump\t// in\n    tag_163:\n      0x00\n      mload(0x40)\n      dup1\n      dup4\n      sub\n      dup2\n      dup6\n      dup8\n      gas\n      call\n      swap3\n      pop\n      pop\n      pop\n      returndatasize\n      dup1\n      0x00\n      dup2\n      eq\n      tag_167\n      jumpi\n      mload(0x40)\n      swap2\n      pop\n      and(add(returndatasize, 0x3f), not(0x1f))\n      dup3\n      add\n      0x40\n      mstore\n      returndatasize\n      dup3\n      mstore\n      returndatasize\n      0x00\n      0x20\n      dup5\n      add\n      returndatacopy\n      jump(tag_166)\n    tag_167:\n      0x60\n      swap2\n      pop\n    tag_166:\n      pop\n        /* \"src/solt.sol\":1895:1959  (bool sent, bytes memory data) = reciver.call{value: amount}(\"\") */\n      swap2\n      pop\n      swap2\n      pop\n        /* \"src/solt.sol\":1977:1981  sent */\n      dup2\n        /* \"src/solt.sol\":1969:2006  require(sent, \"Failed to send Ether\") */\n      tag_168\n      jumpi\n      mload(0x40)\n      0x08c379a000000000000000000000000000000000000000000000000000000000\n      dup2\n      mstore\n      0x04\n      add\n      tag_169\n      swap1\n      tag_170\n      jump\t// in\n    tag_169:\n      mload(0x40)\n      dup1\n      swap2\n      sub\n      swap1\n      revert\n    tag_168:\n        /* \"src/solt.sol\":1885:2013  {... */\n      pop\n      pop\n        /* \"src/solt.sol\":1819:2013  function sendEther(address payable reciver, uint32 amount) private{... */\n      pop\n      pop\n      jump\t// out\n    tag_49:\n      mload(0x40)\n      dup1\n      0xa0\n      add\n      0x40\n      mstore\n      dup1\n      and(0xffffffffffffffffffffffffffffffffffffffff, 0x00)\n      dup2\n      mstore\n      0x20\n      add\n      and(0xffffffff, 0x00)\n      dup2\n      mstore\n      0x20\n      add\n      and(0xffffffff, 0x00)\n      dup2\n      mstore\n      0x20\n      add\n      0x00\n      dup2\n      mstore\n      0x20\n      add\n      0x00\n      0x02\n      dup2\n      gt\n      iszero\n      tag_171\n      jumpi\n      tag_172\n      tag_39\n      jump\t// in\n    tag_172:\n    tag_171:\n      dup2\n      mstore\n      pop\n      swap1\n      jump\t// out\n        /* \"#utility.yul\":88:205   */\n    tag_174:\n        /* \"#utility.yul\":197:198   */\n      0x00\n        /* \"#utility.yul\":194:195   */\n      dup1\n        /* \"#utility.yul\":187:199   */\n      revert\n        /* \"#utility.yul\":334:411   */\n    tag_176:\n        /* \"#utility.yul\":371:378   */\n      0x00\n        /* \"#utility.yul\":400:405   */\n      dup2\n        /* \"#utility.yul\":389:405   */\n      swap1\n      pop\n        /* \"#utility.yul\":334:411   */\n      swap2\n      swap1\n      pop\n      jump\t// out\n        /* \"#utility.yul\":417:539   */\n    tag_177:\n        /* \"#utility.yul\":490:514   */\n      tag_209\n        /* \"#utility.yul\":508:513   */\n      dup2\n        /* \"#utility.yul\":490:514   */\n      tag_176\n      jump\t// in\n    tag_209:\n        /* \"#utility.yul\":483:488   */\n      dup2\n        /* \"#utility.yul\":480:515   */\n      eq\n        /* \"#utility.yul\":470:533   */\n      tag_210\n      jumpi\n        /* \"#utility.yul\":529:530   */\n      0x00\n        /* \"#utility.yul\":526:527   */\n      dup1\n        /* \"#utility.yul\":519:531   */\n      revert\n        /* \"#utility.yul\":470:533   */\n    tag_210:\n        /* \"#utility.yul\":417:539   */\n      pop\n      jump\t// out\n        /* \"#utility.yul\":545:684   */\n    tag_178:\n        /* \"#utility.yul\":591:596   */\n      0x00\n        /* \"#utility.yul\":629:635   */\n      dup2\n        /* \"#utility.yul\":616:636   */\n      calldataload\n        /* \"#utility.yul\":607:636   */\n      swap1\n      pop\n        /* \"#utility.yul\":645:678   */\n      tag_212\n        /* \"#utility.yul\":672:677   */\n      dup2\n        /* \"#utility.yul\":645:678   */\n      tag_177\n      jump\t// in\n    tag_212:\n        /* \"#utility.yul\":545:684   */\n      swap3\n      swap2\n      pop\n      pop\n      jump\t// out\n        /* \"#utility.yul\":690:1019   */\n    tag_11:\n        /* \"#utility.yul\":749:755   */\n      0x00\n        /* \"#utility.yul\":798:800   */\n      0x20\n        /* \"#utility.yul\":786:795   */\n      dup3\n        /* \"#utility.yul\":777:784   */\n      dup5\n        /* \"#utility.yul\":773:796   */\n      sub\n        /* \"#utility.yul\":769:801   */\n      slt\n        /* \"#utility.yul\":766:885   */\n      iszero\n      tag_214\n      jumpi\n        /* \"#utility.yul\":804:883   */\n      tag_215\n      tag_174\n      jump\t// in\n    tag_215:\n        /* \"#utility.yul\":766:885   */\n    tag_214:\n        /* \"#utility.yul\":924:925   */\n      0x00\n        /* \"#utility.yul\":949:1002   */\n      tag_216\n        /* \"#utility.yul\":994:1001   */\n      dup5\n        /* \"#utility.yul\":985:991   */\n      dup3\n        /* \"#utility.yul\":974:983   */\n      dup6\n        /* \"#utility.yul\":970:992   */\n      add\n        /* \"#utility.yul\":949:1002   */\n      tag_178\n      jump\t// in\n    tag_216:\n        /* \"#utility.yul\":939:1002   */\n      swap2\n      pop\n        /* \"#utility.yul\":895:1012   */\n      pop\n        /* \"#utility.yul\":690:1019   */\n      swap3\n      swap2\n      pop\n      pop\n      jump\t// out\n        /* \"#utility.yul\":1025:1151   */\n    tag_179:\n        /* \"#utility.yul\":1062:1069   */\n      0x00\n        /* \"#utility.yul\":1102:1144   */\n      0xffffffffffffffffffffffffffffffffffffffff\n        /* \"#utility.yul\":1095:1100   */\n      dup3\n        /* \"#utility.yul\":1091:1145   */\n      and\n        /* \"#utility.yul\":1080:1145   */\n      swap1\n      pop\n        /* \"#utility.yul\":1025:1151   */\n      swap2\n      swap1\n      pop\n      jump\t// out\n        /* \"#utility.yul\":1157:1253   */\n    tag_180:\n        /* \"#utility.yul\":1194:1201   */\n      0x00\n        /* \"#utility.yul\":1223:1247   */\n      tag_219\n        /* \"#utility.yul\":1241:1246   */\n      dup3\n        /* \"#utility.yul\":1223:1247   */\n      tag_179\n      jump\t// in\n    tag_219:\n        /* \"#utility.yul\":1212:1247   */\n      swap1\n      pop\n        /* \"#utility.yul\":1157:1253   */\n      swap2\n      swap1\n      pop\n      jump\t// out\n        /* \"#utility.yul\":1259:1377   */\n    tag_181:\n        /* \"#utility.yul\":1346:1370   */\n      tag_221\n        /* \"#utility.yul\":1364:1369   */\n      dup2\n        /* \"#utility.yul\":1346:1370   */\n      tag_180\n      jump\t// in\n    tag_221:\n        /* \"#utility.yul\":1341:1344   */\n      dup3\n        /* \"#utility.yul\":1334:1371   */\n      mstore\n        /* \"#utility.yul\":1259:1377   */\n      pop\n      pop\n      jump\t// out\n        /* \"#utility.yul\":1383:1605   */\n    tag_14:\n        /* \"#utility.yul\":1476:1480   */\n      0x00\n        /* \"#utility.yul\":1514:1516   */\n      0x20\n        /* \"#utility.yul\":1503:1512   */\n      dup3\n        /* \"#utility.yul\":1499:1517   */\n      add\n        /* \"#utility.yul\":1491:1517   */\n      swap1\n      pop\n        /* \"#utility.yul\":1527:1598   */\n      tag_223\n        /* \"#utility.yul\":1595:1596   */\n      0x00\n        /* \"#utility.yul\":1584:1593   */\n      dup4\n        /* \"#utility.yul\":1580:1597   */\n      add\n        /* \"#utility.yul\":1571:1577   */\n      dup5\n        /* \"#utility.yul\":1527:1598   */\n      tag_181\n      jump\t// in\n    tag_223:\n        /* \"#utility.yul\":1383:1605   */\n      swap3\n      swap2\n      pop\n      pop\n      jump\t// out\n        /* \"#utility.yul\":1611:1704   */\n    tag_182:\n        /* \"#utility.yul\":1647:1654   */\n      0x00\n        /* \"#utility.yul\":1687:1697   */\n      0xffffffff\n        /* \"#utility.yul\":1680:1685   */\n      dup3\n        /* \"#utility.yul\":1676:1698   */\n      and\n        /* \"#utility.yul\":1665:1698   */\n      swap1\n      pop\n        /* \"#utility.yul\":1611:1704   */\n      swap2\n      swap1\n      pop\n      jump\t// out\n        /* \"#utility.yul\":1710:1830   */\n    tag_183:\n        /* \"#utility.yul\":1782:1805   */\n      tag_226\n        /* \"#utility.yul\":1799:1804   */\n      dup2\n        /* \"#utility.yul\":1782:1805   */\n      tag_182\n      jump\t// in\n    tag_226:\n        /* \"#utility.yul\":1775:1780   */\n      dup2\n        /* \"#utility.yul\":1772:1806   */\n      eq\n        /* \"#utility.yul\":1762:1824   */\n      tag_227\n      jumpi\n        /* \"#utility.yul\":1820:1821   */\n      0x00\n        /* \"#utility.yul\":1817:1818   */\n      dup1\n        /* \"#utility.yul\":1810:1822   */\n      revert\n        /* \"#utility.yul\":1762:1824   */\n    tag_227:\n        /* \"#utility.yul\":1710:1830   */\n      pop\n      jump\t// out\n        /* \"#utility.yul\":1836:1973   */\n    tag_184:\n        /* \"#utility.yul\":1881:1886   */\n      0x00\n        /* \"#utility.yul\":1919:1925   */\n      dup2\n        /* \"#utility.yul\":1906:1926   */\n      calldataload\n        /* \"#utility.yul\":1897:1926   */\n      swap1\n      pop\n        /* \"#utility.yul\":1935:1967   */\n      tag_229\n        /* \"#utility.yul\":1961:1966   */\n      dup2\n        /* \"#utility.yul\":1935:1967   */\n      tag_183\n      jump\t// in\n    tag_229:\n        /* \"#utility.yul\":1836:1973   */\n      swap3\n      swap2\n      pop\n      pop\n      jump\t// out\n        /* \"#utility.yul\":1979:2449   */\n    tag_17:\n        /* \"#utility.yul\":2045:2051   */\n      0x00\n        /* \"#utility.yul\":2053:2059   */\n      dup1\n        /* \"#utility.yul\":2102:2104   */\n      0x40\n        /* \"#utility.yul\":2090:2099   */\n      dup4\n        /* \"#utility.yul\":2081:2088   */\n      dup6\n        /* \"#utility.yul\":2077:2100   */\n      sub\n        /* \"#utility.yul\":2073:2105   */\n      slt\n        /* \"#utility.yul\":2070:2189   */\n      iszero\n      tag_231\n      jumpi\n        /* \"#utility.yul\":2108:2187   */\n      tag_232\n      tag_174\n      jump\t// in\n    tag_232:\n        /* \"#utility.yul\":2070:2189   */\n    tag_231:\n        /* \"#utility.yul\":2228:2229   */\n      0x00\n        /* \"#utility.yul\":2253:2305   */\n      tag_233\n        /* \"#utility.yul\":2297:2304   */\n      dup6\n        /* \"#utility.yul\":2288:2294   */\n      dup3\n        /* \"#utility.yul\":2277:2286   */\n      dup7\n        /* \"#utility.yul\":2273:2295   */\n      add\n        /* \"#utility.yul\":2253:2305   */\n      tag_184\n      jump\t// in\n    tag_233:\n        /* \"#utility.yul\":2243:2305   */\n      swap3\n      pop\n        /* \"#utility.yul\":2199:2315   */\n      pop\n        /* \"#utility.yul\":2354:2356   */\n      0x20\n        /* \"#utility.yul\":2380:2432   */\n      tag_234\n        /* \"#utility.yul\":2424:2431   */\n      dup6\n        /* \"#utility.yul\":2415:2421   */\n      dup3\n        /* \"#utility.yul\":2404:2413   */\n      dup7\n        /* \"#utility.yul\":2400:2422   */\n      add\n        /* \"#utility.yul\":2380:2432   */\n      tag_184\n      jump\t// in\n    tag_234:\n        /* \"#utility.yul\":2370:2432   */\n      swap2\n      pop\n        /* \"#utility.yul\":2325:2442   */\n      pop\n        /* \"#utility.yul\":1979:2449   */\n      swap3\n      pop\n      swap3\n      swap1\n      pop\n      jump\t// out\n        /* \"#utility.yul\":2455:2577   */\n    tag_185:\n        /* \"#utility.yul\":2528:2552   */\n      tag_236\n        /* \"#utility.yul\":2546:2551   */\n      dup2\n        /* \"#utility.yul\":2528:2552   */\n      tag_180\n      jump\t// in\n    tag_236:\n        /* \"#utility.yul\":2521:2526   */\n      dup2\n        /* \"#utility.yul\":2518:2553   */\n      eq\n        /* \"#utility.yul\":2508:2571   */\n      tag_237\n      jumpi\n        /* \"#utility.yul\":2567:2568   */\n      0x00\n        /* \"#utility.yul\":2564:2565   */\n      dup1\n        /* \"#utility.yul\":2557:2569   */\n      revert\n        /* \"#utility.yul\":2508:2571   */\n    tag_237:\n        /* \"#utility.yul\":2455:2577   */\n      pop\n      jump\t// out\n        /* \"#utility.yul\":2583:2722   */\n    tag_186:\n        /* \"#utility.yul\":2629:2634   */\n      0x00\n        /* \"#utility.yul\":2667:2673   */\n      dup2\n        /* \"#utility.yul\":2654:2674   */\n      calldataload\n        /* \"#utility.yul\":2645:2674   */\n      swap1\n      pop\n        /* \"#utility.yul\":2683:2716   */\n      tag_239\n        /* \"#utility.yul\":2710:2715   */\n      dup2\n        /* \"#utility.yul\":2683:2716   */\n      tag_185\n      jump\t// in\n    tag_239:\n        /* \"#utility.yul\":2583:2722   */\n      swap3\n      swap2\n      pop\n      pop\n      jump\t// out\n        /* \"#utility.yul\":2728:3057   */\n    tag_21:\n        /* \"#utility.yul\":2787:2793   */\n      0x00\n        /* \"#utility.yul\":2836:2838   */\n      0x20\n        /* \"#utility.yul\":2824:2833   */\n      dup3\n        /* \"#utility.yul\":2815:2822   */\n      dup5\n        /* \"#utility.yul\":2811:2834   */\n      sub\n        /* \"#utility.yul\":2807:2839   */\n      slt\n        /* \"#utility.yul\":2804:2923   */\n      iszero\n      tag_241\n      jumpi\n        /* \"#utility.yul\":2842:2921   */\n      tag_242\n      tag_174\n      jump\t// in\n    tag_242:\n        /* \"#utility.yul\":2804:2923   */\n    tag_241:\n        /* \"#utility.yul\":2962:2963   */\n      0x00\n        /* \"#utility.yul\":2987:3040   */\n      tag_243\n        /* \"#utility.yul\":3032:3039   */\n      dup5\n        /* \"#utility.yul\":3023:3029   */\n      dup3\n        /* \"#utility.yul\":3012:3021   */\n      dup6\n        /* \"#utility.yul\":3008:3030   */\n      add\n        /* \"#utility.yul\":2987:3040   */\n      tag_186\n      jump\t// in\n    tag_243:\n        /* \"#utility.yul\":2977:3040   */\n      swap2\n      pop\n        /* \"#utility.yul\":2933:3050   */\n      pop\n        /* \"#utility.yul\":2728:3057   */\n      swap3\n      swap2\n      pop\n      pop\n      jump\t// out\n        /* \"#utility.yul\":3063:3178   */\n    tag_187:\n        /* \"#utility.yul\":3148:3171   */\n      tag_245\n        /* \"#utility.yul\":3165:3170   */\n      dup2\n        /* \"#utility.yul\":3148:3171   */\n      tag_182\n      jump\t// in\n    tag_245:\n        /* \"#utility.yul\":3143:3146   */\n      dup3\n        /* \"#utility.yul\":3136:3172   */\n      mstore\n        /* \"#utility.yul\":3063:3178   */\n      pop\n      pop\n      jump\t// out\n        /* \"#utility.yul\":3184:3292   */\n    tag_188:\n        /* \"#utility.yul\":3261:3285   */\n      tag_247\n        /* \"#utility.yul\":3279:3284   */\n      dup2\n        /* \"#utility.yul\":3261:3285   */\n      tag_180\n      jump\t// in\n    tag_247:\n        /* \"#utility.yul\":3256:3259   */\n      dup3\n        /* \"#utility.yul\":3249:3286   */\n      mstore\n        /* \"#utility.yul\":3184:3292   */\n      pop\n      pop\n      jump\t// out\n        /* \"#utility.yul\":3298:3403   */\n    tag_189:\n        /* \"#utility.yul\":3373:3396   */\n      tag_249\n        /* \"#utility.yul\":3390:3395   */\n      dup2\n        /* \"#utility.yul\":3373:3396   */\n      tag_182\n      jump\t// in\n    tag_249:\n        /* \"#utility.yul\":3368:3371   */\n      dup3\n        /* \"#utility.yul\":3361:3397   */\n      mstore\n        /* \"#utility.yul\":3298:3403   */\n      pop\n      pop\n      jump\t// out\n        /* \"#utility.yul\":3409:3517   */\n    tag_190:\n        /* \"#utility.yul\":3486:3510   */\n      tag_251\n        /* \"#utility.yul\":3504:3509   */\n      dup2\n        /* \"#utility.yul\":3486:3510   */\n      tag_176\n      jump\t// in\n    tag_251:\n        /* \"#utility.yul\":3481:3484   */\n      dup3\n        /* \"#utility.yul\":3474:3511   */\n      mstore\n        /* \"#utility.yul\":3409:3517   */\n      pop\n      pop\n      jump\t// out\n        /* \"#utility.yul\":3523:3703   */\n    tag_39:\n        /* \"#utility.yul\":3571:3648   */\n      0x4e487b7100000000000000000000000000000000000000000000000000000000\n        /* \"#utility.yul\":3568:3569   */\n      0x00\n        /* \"#utility.yul\":3561:3649   */\n      mstore\n        /* \"#utility.yul\":3668:3672   */\n      0x21\n        /* \"#utility.yul\":3665:3666   */\n      0x04\n        /* \"#utility.yul\":3658:3673   */\n      mstore\n        /* \"#utility.yul\":3692:3696   */\n      0x24\n        /* \"#utility.yul\":3689:3690   */\n      0x00\n        /* \"#utility.yul\":3682:3697   */\n      revert\n        /* \"#utility.yul\":3709:3829   */\n    tag_191:\n        /* \"#utility.yul\":3797:3798   */\n      0x03\n        /* \"#utility.yul\":3790:3795   */\n      dup2\n        /* \"#utility.yul\":3787:3799   */\n      lt\n        /* \"#utility.yul\":3777:3823   */\n      tag_254\n      jumpi\n        /* \"#utility.yul\":3803:3821   */\n      tag_255\n      tag_39\n      jump\t// in\n    tag_255:\n        /* \"#utility.yul\":3777:3823   */\n    tag_254:\n        /* \"#utility.yul\":3709:3829   */\n      pop\n      jump\t// out\n        /* \"#utility.yul\":3835:3976   */\n    tag_192:\n        /* \"#utility.yul\":3887:3894   */\n      0x00\n        /* \"#utility.yul\":3916:3921   */\n      dup2\n        /* \"#utility.yul\":3905:3921   */\n      swap1\n      pop\n        /* \"#utility.yul\":3922:3970   */\n      tag_257\n        /* \"#utility.yul\":3964:3969   */\n      dup3\n        /* \"#utility.yul\":3922:3970   */\n      tag_191\n      jump\t// in\n    tag_257:\n        /* \"#utility.yul\":3835:3976   */\n      swap2\n      swap1\n      pop\n      jump\t// out\n        /* \"#utility.yul\":3982:4123   */\n    tag_193:\n        /* \"#utility.yul\":4045:4054   */\n      0x00\n        /* \"#utility.yul\":4078:4117   */\n      tag_259\n        /* \"#utility.yul\":4111:4116   */\n      dup3\n        /* \"#utility.yul\":4078:4117   */\n      tag_192\n      jump\t// in\n    tag_259:\n        /* \"#utility.yul\":4065:4117   */\n      swap1\n      pop\n        /* \"#utility.yul\":3982:4123   */\n      swap2\n      swap1\n      pop\n      jump\t// out\n        /* \"#utility.yul\":4129:4276   */\n    tag_194:\n        /* \"#utility.yul\":4219:4269   */\n      tag_261\n        /* \"#utility.yul\":4263:4268   */\n      dup2\n        /* \"#utility.yul\":4219:4269   */\n      tag_193\n      jump\t// in\n    tag_261:\n        /* \"#utility.yul\":4214:4217   */\n      dup3\n        /* \"#utility.yul\":4207:4270   */\n      mstore\n        /* \"#utility.yul\":4129:4276   */\n      pop\n      pop\n      jump\t// out\n        /* \"#utility.yul\":4340:5396   */\n    tag_195:\n        /* \"#utility.yul\":4491:4495   */\n      0xa0\n        /* \"#utility.yul\":4486:4489   */\n      dup3\n        /* \"#utility.yul\":4482:4496   */\n      add\n        /* \"#utility.yul\":4585:4589   */\n      0x00\n        /* \"#utility.yul\":4578:4583   */\n      dup3\n        /* \"#utility.yul\":4574:4590   */\n      add\n        /* \"#utility.yul\":4568:4591   */\n      mload\n        /* \"#utility.yul\":4604:4667   */\n      tag_263\n        /* \"#utility.yul\":4661:4665   */\n      0x00\n        /* \"#utility.yul\":4656:4659   */\n      dup6\n        /* \"#utility.yul\":4652:4666   */\n      add\n        /* \"#utility.yul\":4638:4650   */\n      dup3\n        /* \"#utility.yul\":4604:4667   */\n      tag_188\n      jump\t// in\n    tag_263:\n        /* \"#utility.yul\":4506:4677   */\n      pop\n        /* \"#utility.yul\":4761:4765   */\n      0x20\n        /* \"#utility.yul\":4754:4759   */\n      dup3\n        /* \"#utility.yul\":4750:4766   */\n      add\n        /* \"#utility.yul\":4744:4767   */\n      mload\n        /* \"#utility.yul\":4780:4841   */\n      tag_264\n        /* \"#utility.yul\":4835:4839   */\n      0x20\n        /* \"#utility.yul\":4830:4833   */\n      dup6\n        /* \"#utility.yul\":4826:4840   */\n      add\n        /* \"#utility.yul\":4812:4824   */\n      dup3\n        /* \"#utility.yul\":4780:4841   */\n      tag_189\n      jump\t// in\n    tag_264:\n        /* \"#utility.yul\":4687:4851   */\n      pop\n        /* \"#utility.yul\":4938:4942   */\n      0x40\n        /* \"#utility.yul\":4931:4936   */\n      dup3\n        /* \"#utility.yul\":4927:4943   */\n      add\n        /* \"#utility.yul\":4921:4944   */\n      mload\n        /* \"#utility.yul\":4957:5018   */\n      tag_265\n        /* \"#utility.yul\":5012:5016   */\n      0x40\n        /* \"#utility.yul\":5007:5010   */\n      dup6\n        /* \"#utility.yul\":5003:5017   */\n      add\n        /* \"#utility.yul\":4989:5001   */\n      dup3\n        /* \"#utility.yul\":4957:5018   */\n      tag_189\n      jump\t// in\n    tag_265:\n        /* \"#utility.yul\":4861:5028   */\n      pop\n        /* \"#utility.yul\":5110:5114   */\n      0x60\n        /* \"#utility.yul\":5103:5108   */\n      dup3\n        /* \"#utility.yul\":5099:5115   */\n      add\n        /* \"#utility.yul\":5093:5116   */\n      mload\n        /* \"#utility.yul\":5129:5192   */\n      tag_266\n        /* \"#utility.yul\":5186:5190   */\n      0x60\n        /* \"#utility.yul\":5181:5184   */\n      dup6\n        /* \"#utility.yul\":5177:5191   */\n      add\n        /* \"#utility.yul\":5163:5175   */\n      dup3\n        /* \"#utility.yul\":5129:5192   */\n      tag_190\n      jump\t// in\n    tag_266:\n        /* \"#utility.yul\":5038:5202   */\n      pop\n        /* \"#utility.yul\":5284:5288   */\n      0x80\n        /* \"#utility.yul\":5277:5282   */\n      dup3\n        /* \"#utility.yul\":5273:5289   */\n      add\n        /* \"#utility.yul\":5267:5290   */\n      mload\n        /* \"#utility.yul\":5303:5379   */\n      tag_267\n        /* \"#utility.yul\":5373:5377   */\n      0x80\n        /* \"#utility.yul\":5368:5371   */\n      dup6\n        /* \"#utility.yul\":5364:5378   */\n      add\n        /* \"#utility.yul\":5350:5362   */\n      dup3\n        /* \"#utility.yul\":5303:5379   */\n      tag_194\n      jump\t// in\n    tag_267:\n        /* \"#utility.yul\":5212:5389   */\n      pop\n        /* \"#utility.yul\":4460:5396   */\n      pop\n        /* \"#utility.yul\":4340:5396   */\n      pop\n      pop\n      jump\t// out\n        /* \"#utility.yul\":5402:5839   */\n    tag_24:\n        /* \"#utility.yul\":5575:5579   */\n      0x00\n        /* \"#utility.yul\":5613:5616   */\n      0xc0\n        /* \"#utility.yul\":5602:5611   */\n      dup3\n        /* \"#utility.yul\":5598:5617   */\n      add\n        /* \"#utility.yul\":5590:5617   */\n      swap1\n      pop\n        /* \"#utility.yul\":5627:5696   */\n      tag_269\n        /* \"#utility.yul\":5693:5694   */\n      0x00\n        /* \"#utility.yul\":5682:5691   */\n      dup4\n        /* \"#utility.yul\":5678:5695   */\n      add\n        /* \"#utility.yul\":5669:5675   */\n      dup6\n        /* \"#utility.yul\":5627:5696   */\n      tag_187\n      jump\t// in\n    tag_269:\n        /* \"#utility.yul\":5706:5832   */\n      tag_270\n        /* \"#utility.yul\":5828:5830   */\n      0x20\n        /* \"#utility.yul\":5817:5826   */\n      dup4\n        /* \"#utility.yul\":5813:5831   */\n      add\n        /* \"#utility.yul\":5804:5810   */\n      dup5\n        /* \"#utility.yul\":5706:5832   */\n      tag_195\n      jump\t// in\n    tag_270:\n        /* \"#utility.yul\":5402:5839   */\n      swap4\n      swap3\n      pop\n      pop\n      pop\n      jump\t// out\n        /* \"#utility.yul\":5845:6317   */\n    tag_27:\n        /* \"#utility.yul\":5912:5918   */\n      0x00\n        /* \"#utility.yul\":5920:5926   */\n      dup1\n        /* \"#utility.yul\":5969:5971   */\n      0x40\n        /* \"#utility.yul\":5957:5966   */\n      dup4\n        /* \"#utility.yul\":5948:5955   */\n      dup6\n        /* \"#utility.yul\":5944:5967   */\n      sub\n        /* \"#utility.yul\":5940:5972   */\n      slt\n        /* \"#utility.yul\":5937:6056   */\n      iszero\n      tag_272\n      jumpi\n        /* \"#utility.yul\":5975:6054   */\n      tag_273\n      tag_174\n      jump\t// in\n    tag_273:\n        /* \"#utility.yul\":5937:6056   */\n    tag_272:\n        /* \"#utility.yul\":6095:6096   */\n      0x00\n        /* \"#utility.yul\":6120:6173   */\n      tag_274\n        /* \"#utility.yul\":6165:6172   */\n      dup6\n        /* \"#utility.yul\":6156:6162   */\n      dup3\n        /* \"#utility.yul\":6145:6154   */\n      dup7\n        /* \"#utility.yul\":6141:6163   */\n      add\n        /* \"#utility.yul\":6120:6173   */\n      tag_186\n      jump\t// in\n    tag_274:\n        /* \"#utility.yul\":6110:6173   */\n      swap3\n      pop\n        /* \"#utility.yul\":6066:6183   */\n      pop\n        /* \"#utility.yul\":6222:6224   */\n      0x20\n        /* \"#utility.yul\":6248:6300   */\n      tag_275\n        /* \"#utility.yul\":6292:6299   */\n      dup6\n        /* \"#utility.yul\":6283:6289   */\n      dup3\n        /* \"#utility.yul\":6272:6281   */\n      dup7\n        /* \"#utility.yul\":6268:6290   */\n      add\n        /* \"#utility.yul\":6248:6300   */\n      tag_184\n      jump\t// in\n    tag_275:\n        /* \"#utility.yul\":6238:6300   */\n      swap2\n      pop\n        /* \"#utility.yul\":6193:6310   */\n      pop\n        /* \"#utility.yul\":5845:6317   */\n      swap3\n      pop\n      swap3\n      swap1\n      pop\n      jump\t// out\n        /* \"#utility.yul\":6323:6503   */\n    tag_196:\n        /* \"#utility.yul\":6371:6448   */\n      0x4e487b7100000000000000000000000000000000000000000000000000000000\n        /* \"#utility.yul\":6368:6369   */\n      0x00\n        /* \"#utility.yul\":6361:6449   */\n      mstore\n        /* \"#utility.yul\":6468:6472   */\n      0x11\n        /* \"#utility.yul\":6465:6466   */\n      0x04\n        /* \"#utility.yul\":6458:6473   */\n      mstore\n        /* \"#utility.yul\":6492:6496   */\n      0x24\n        /* \"#utility.yul\":6489:6490   */\n      0x00\n        /* \"#utility.yul\":6482:6497   */\n      revert\n        /* \"#utility.yul\":6509:6703   */\n    tag_54:\n        /* \"#utility.yul\":6549:6553   */\n      0x00\n        /* \"#utility.yul\":6569:6589   */\n      tag_278\n        /* \"#utility.yul\":6587:6588   */\n      dup3\n        /* \"#utility.yul\":6569:6589   */\n      tag_176\n      jump\t// in\n    tag_278:\n        /* \"#utility.yul\":6564:6589   */\n      swap2\n      pop\n        /* \"#utility.yul\":6603:6623   */\n      tag_279\n        /* \"#utility.yul\":6621:6622   */\n      dup4\n        /* \"#utility.yul\":6603:6623   */\n      tag_176\n      jump\t// in\n    tag_279:\n        /* \"#utility.yul\":6598:6623   */\n      swap3\n      pop\n        /* \"#utility.yul\":6647:6648   */\n      dup3\n        /* \"#utility.yul\":6644:6645   */\n      dup3\n        /* \"#utility.yul\":6640:6649   */\n      sub\n        /* \"#utility.yul\":6632:6649   */\n      swap1\n      pop\n        /* \"#utility.yul\":6671:6672   */\n      dup2\n        /* \"#utility.yul\":6665:6669   */\n      dup2\n        /* \"#utility.yul\":6662:6673   */\n      gt\n        /* \"#utility.yul\":6659:6696   */\n      iszero\n      tag_280\n      jumpi\n        /* \"#utility.yul\":6676:6694   */\n      tag_281\n      tag_196\n      jump\t// in\n    tag_281:\n        /* \"#utility.yul\":6659:6696   */\n    tag_280:\n        /* \"#utility.yul\":6509:6703   */\n      swap3\n      swap2\n      pop\n      pop\n      jump\t// out\n        /* \"#utility.yul\":6709:6889   */\n    tag_57:\n        /* \"#utility.yul\":6757:6834   */\n      0x4e487b7100000000000000000000000000000000000000000000000000000000\n        /* \"#utility.yul\":6754:6755   */\n      0x00\n        /* \"#utility.yul\":6747:6835   */\n      mstore\n        /* \"#utility.yul\":6854:6858   */\n      0x32\n        /* \"#utility.yul\":6851:6852   */\n      0x04\n        /* \"#utility.yul\":6844:6859   */\n      mstore\n        /* \"#utility.yul\":6878:6882   */\n      0x24\n        /* \"#utility.yul\":6875:6876   */\n      0x00\n        /* \"#utility.yul\":6868:6883   */\n      revert\n        /* \"#utility.yul\":6895:7095   */\n    tag_70:\n        /* \"#utility.yul\":6934:6938   */\n      0x00\n        /* \"#utility.yul\":6954:6973   */\n      tag_284\n        /* \"#utility.yul\":6971:6972   */\n      dup3\n        /* \"#utility.yul\":6954:6973   */\n      tag_182\n      jump\t// in\n    tag_284:\n        /* \"#utility.yul\":6949:6973   */\n      swap2\n      pop\n        /* \"#utility.yul\":6987:7006   */\n      tag_285\n        /* \"#utility.yul\":7004:7005   */\n      dup4\n        /* \"#utility.yul\":6987:7006   */\n      tag_182\n      jump\t// in\n    tag_285:\n        /* \"#utility.yul\":6982:7006   */\n      swap3\n      pop\n        /* \"#utility.yul\":7030:7031   */\n      dup3\n        /* \"#utility.yul\":7027:7028   */\n      dup3\n        /* \"#utility.yul\":7023:7032   */\n      sub\n        /* \"#utility.yul\":7015:7032   */\n      swap1\n      pop\n        /* \"#utility.yul\":7054:7064   */\n      0xffffffff\n        /* \"#utility.yul\":7048:7052   */\n      dup2\n        /* \"#utility.yul\":7045:7065   */\n      gt\n        /* \"#utility.yul\":7042:7088   */\n      iszero\n      tag_286\n      jumpi\n        /* \"#utility.yul\":7068:7086   */\n      tag_287\n      tag_196\n      jump\t// in\n    tag_287:\n        /* \"#utility.yul\":7042:7088   */\n    tag_286:\n        /* \"#utility.yul\":6895:7095   */\n      swap3\n      swap2\n      pop\n      pop\n      jump\t// out\n        /* \"#utility.yul\":7101:7376   */\n    tag_74:\n        /* \"#utility.yul\":7140:7147   */\n      0x00\n        /* \"#utility.yul\":7163:7182   */\n      tag_289\n        /* \"#utility.yul\":7180:7181   */\n      dup3\n        /* \"#utility.yul\":7163:7182   */\n      tag_182\n      jump\t// in\n    tag_289:\n        /* \"#utility.yul\":7158:7182   */\n      swap2\n      pop\n        /* \"#utility.yul\":7196:7215   */\n      tag_290\n        /* \"#utility.yul\":7213:7214   */\n      dup4\n        /* \"#utility.yul\":7196:7215   */\n      tag_182\n      jump\t// in\n    tag_290:\n        /* \"#utility.yul\":7191:7215   */\n      swap3\n      pop\n        /* \"#utility.yul\":7250:7251   */\n      dup3\n        /* \"#utility.yul\":7247:7248   */\n      dup3\n        /* \"#utility.yul\":7243:7252   */\n      mul\n        /* \"#utility.yul\":7272:7301   */\n      tag_291\n        /* \"#utility.yul\":7289:7300   */\n      dup2\n        /* \"#utility.yul\":7272:7301   */\n      tag_182\n      jump\t// in\n    tag_291:\n        /* \"#utility.yul\":7261:7301   */\n      swap2\n      pop\n        /* \"#utility.yul\":7333:7344   */\n      dup1\n        /* \"#utility.yul\":7324:7331   */\n      dup3\n        /* \"#utility.yul\":7321:7345   */\n      eq\n        /* \"#utility.yul\":7311:7369   */\n      tag_292\n      jumpi\n        /* \"#utility.yul\":7349:7367   */\n      tag_293\n      tag_196\n      jump\t// in\n    tag_293:\n        /* \"#utility.yul\":7311:7369   */\n    tag_292:\n        /* \"#utility.yul\":7148:7376   */\n      pop\n        /* \"#utility.yul\":7101:7376   */\n      swap3\n      swap2\n      pop\n      pop\n      jump\t// out\n        /* \"#utility.yul\":7382:7579   */\n    tag_85:\n        /* \"#utility.yul\":7421:7424   */\n      0x00\n        /* \"#utility.yul\":7440:7459   */\n      tag_295\n        /* \"#utility.yul\":7457:7458   */\n      dup3\n        /* \"#utility.yul\":7440:7459   */\n      tag_182\n      jump\t// in\n    tag_295:\n        /* \"#utility.yul\":7435:7459   */\n      swap2\n      pop\n        /* \"#utility.yul\":7473:7492   */\n      tag_296\n        /* \"#utility.yul\":7490:7491   */\n      dup4\n        /* \"#utility.yul\":7473:7492   */\n      tag_182\n      jump\t// in\n    tag_296:\n        /* \"#utility.yul\":7468:7492   */\n      swap3\n      pop\n        /* \"#utility.yul\":7515:7516   */\n      dup3\n        /* \"#utility.yul\":7512:7513   */\n      dup3\n        /* \"#utility.yul\":7508:7517   */\n      add\n        /* \"#utility.yul\":7501:7517   */\n      swap1\n      pop\n        /* \"#utility.yul\":7538:7548   */\n      0xffffffff\n        /* \"#utility.yul\":7533:7536   */\n      dup2\n        /* \"#utility.yul\":7530:7549   */\n      gt\n        /* \"#utility.yul\":7527:7572   */\n      iszero\n      tag_297\n      jumpi\n        /* \"#utility.yul\":7552:7570   */\n      tag_298\n      tag_196\n      jump\t// in\n    tag_298:\n        /* \"#utility.yul\":7527:7572   */\n    tag_297:\n        /* \"#utility.yul\":7382:7579   */\n      swap3\n      swap2\n      pop\n      pop\n      jump\t// out\n        /* \"#utility.yul\":7585:7765   */\n    tag_102:\n        /* \"#utility.yul\":7633:7710   */\n      0x4e487b7100000000000000000000000000000000000000000000000000000000\n        /* \"#utility.yul\":7630:7631   */\n      0x00\n        /* \"#utility.yul\":7623:7711   */\n      mstore\n        /* \"#utility.yul\":7730:7734   */\n      0x31\n        /* \"#utility.yul\":7727:7728   */\n      0x04\n        /* \"#utility.yul\":7720:7735   */\n      mstore\n        /* \"#utility.yul\":7754:7758   */\n      0x24\n        /* \"#utility.yul\":7751:7752   */\n      0x00\n        /* \"#utility.yul\":7744:7759   */\n      revert\n        /* \"#utility.yul\":7771:7942   */\n    tag_135:\n        /* \"#utility.yul\":7810:7813   */\n      0x00\n        /* \"#utility.yul\":7833:7857   */\n      tag_301\n        /* \"#utility.yul\":7851:7856   */\n      dup3\n        /* \"#utility.yul\":7833:7857   */\n      tag_176\n      jump\t// in\n    tag_301:\n        /* \"#utility.yul\":7824:7857   */\n      swap2\n      pop\n        /* \"#utility.yul\":7879:7883   */\n      0x00\n        /* \"#utility.yul\":7872:7877   */\n      dup3\n        /* \"#utility.yul\":7869:7884   */\n      sub\n        /* \"#utility.yul\":7866:7907   */\n      tag_302\n      jumpi\n        /* \"#utility.yul\":7887:7905   */\n      tag_303\n      tag_196\n      jump\t// in\n    tag_303:\n        /* \"#utility.yul\":7866:7907   */\n    tag_302:\n        /* \"#utility.yul\":7934:7935   */\n      0x01\n        /* \"#utility.yul\":7927:7932   */\n      dup3\n        /* \"#utility.yul\":7923:7936   */\n      sub\n        /* \"#utility.yul\":7916:7936   */\n      swap1\n      pop\n        /* \"#utility.yul\":7771:7942   */\n      swap2\n      swap1\n      pop\n      jump\t// out\n        /* \"#utility.yul\":7948:8128   */\n    tag_155:\n        /* \"#utility.yul\":7996:8073   */\n      0x4e487b7100000000000000000000000000000000000000000000000000000000\n        /* \"#utility.yul\":7993:7994   */\n      0x00\n        /* \"#utility.yul\":7986:8074   */\n      mstore\n        /* \"#utility.yul\":8093:8097   */\n      0x01\n        /* \"#utility.yul\":8090:8091   */\n      0x04\n        /* \"#utility.yul\":8083:8098   */\n      mstore\n        /* \"#utility.yul\":8117:8121   */\n      0x24\n        /* \"#utility.yul\":8114:8115   */\n      0x00\n        /* \"#utility.yul\":8107:8122   */\n      revert\n        /* \"#utility.yul\":8134:8281   */\n    tag_197:\n        /* \"#utility.yul\":8235:8246   */\n      0x00\n        /* \"#utility.yul\":8272:8275   */\n      dup2\n        /* \"#utility.yul\":8257:8275   */\n      swap1\n      pop\n        /* \"#utility.yul\":8134:8281   */\n      swap3\n      swap2\n      pop\n      pop\n      jump\t// out\n        /* \"#utility.yul\":8287:8401   */\n    tag_198:\n      pop\n      jump\t// out\n        /* \"#utility.yul\":8407:8805   */\n    tag_199:\n        /* \"#utility.yul\":8566:8569   */\n      0x00\n        /* \"#utility.yul\":8587:8670   */\n      tag_308\n        /* \"#utility.yul\":8668:8669   */\n      0x00\n        /* \"#utility.yul\":8663:8666   */\n      dup4\n        /* \"#utility.yul\":8587:8670   */\n      tag_197\n      jump\t// in\n    tag_308:\n        /* \"#utility.yul\":8580:8670   */\n      swap2\n      pop\n        /* \"#utility.yul\":8679:8772   */\n      tag_309\n        /* \"#utility.yul\":8768:8771   */\n      dup3\n        /* \"#utility.yul\":8679:8772   */\n      tag_198\n      jump\t// in\n    tag_309:\n        /* \"#utility.yul\":8797:8798   */\n      0x00\n        /* \"#utility.yul\":8792:8795   */\n      dup3\n        /* \"#utility.yul\":8788:8799   */\n      add\n        /* \"#utility.yul\":8781:8799   */\n      swap1\n      pop\n        /* \"#utility.yul\":8407:8805   */\n      swap2\n      swap1\n      pop\n      jump\t// out\n        /* \"#utility.yul\":8811:9190   */\n    tag_164:\n        /* \"#utility.yul\":8995:8998   */\n      0x00\n        /* \"#utility.yul\":9017:9164   */\n      tag_311\n        /* \"#utility.yul\":9160:9163   */\n      dup3\n        /* \"#utility.yul\":9017:9164   */\n      tag_199\n      jump\t// in\n    tag_311:\n        /* \"#utility.yul\":9010:9164   */\n      swap2\n      pop\n        /* \"#utility.yul\":9181:9184   */\n      dup2\n        /* \"#utility.yul\":9174:9184   */\n      swap1\n      pop\n        /* \"#utility.yul\":8811:9190   */\n      swap2\n      swap1\n      pop\n      jump\t// out\n        /* \"#utility.yul\":9196:9365   */\n    tag_200:\n        /* \"#utility.yul\":9280:9291   */\n      0x00\n        /* \"#utility.yul\":9314:9320   */\n      dup3\n        /* \"#utility.yul\":9309:9312   */\n      dup3\n        /* \"#utility.yul\":9302:9321   */\n      mstore\n        /* \"#utility.yul\":9354:9358   */\n      0x20\n        /* \"#utility.yul\":9349:9352   */\n      dup3\n        /* \"#utility.yul\":9345:9359   */\n      add\n        /* \"#utility.yul\":9330:9359   */\n      swap1\n      pop\n        /* \"#utility.yul\":9196:9365   */\n      swap3\n      swap2\n      pop\n      pop\n      jump\t// out\n        /* \"#utility.yul\":9371:9541   */\n    tag_201:\n        /* \"#utility.yul\":9511:9533   */\n      0x4661696c656420746f2073656e64204574686572000000000000000000000000\n        /* \"#utility.yul\":9507:9508   */\n      0x00\n        /* \"#utility.yul\":9499:9505   */\n      dup3\n        /* \"#utility.yul\":9495:9509   */\n      add\n        /* \"#utility.yul\":9488:9534   */\n      mstore\n        /* \"#utility.yul\":9371:9541   */\n      pop\n      jump\t// out\n        /* \"#utility.yul\":9547:9913   */\n    tag_202:\n        /* \"#utility.yul\":9689:9692   */\n      0x00\n        /* \"#utility.yul\":9710:9777   */\n      tag_315\n        /* \"#utility.yul\":9774:9776   */\n      0x14\n        /* \"#utility.yul\":9769:9772   */\n      dup4\n        /* \"#utility.yul\":9710:9777   */\n      tag_200\n      jump\t// in\n    tag_315:\n        /* \"#utility.yul\":9703:9777   */\n      swap2\n      pop\n        /* \"#utility.yul\":9786:9879   */\n      tag_316\n        /* \"#utility.yul\":9875:9878   */\n      dup3\n        /* \"#utility.yul\":9786:9879   */\n      tag_201\n      jump\t// in\n    tag_316:\n        /* \"#utility.yul\":9904:9906   */\n      0x20\n        /* \"#utility.yul\":9899:9902   */\n      dup3\n        /* \"#utility.yul\":9895:9907   */\n      add\n        /* \"#utility.yul\":9888:9907   */\n      swap1\n      pop\n        /* \"#utility.yul\":9547:9913   */\n      swap2\n      swap1\n      pop\n      jump\t// out\n        /* \"#utility.yul\":9919:10338   */\n    tag_170:\n        /* \"#utility.yul\":10085:10089   */\n      0x00\n        /* \"#utility.yul\":10123:10125   */\n      0x20\n        /* \"#utility.yul\":10112:10121   */\n      dup3\n        /* \"#utility.yul\":10108:10126   */\n      add\n        /* \"#utility.yul\":10100:10126   */\n      swap1\n      pop\n        /* \"#utility.yul\":10172:10181   */\n      dup2\n        /* \"#utility.yul\":10166:10170   */\n      dup2\n        /* \"#utility.yul\":10162:10182   */\n      sub\n        /* \"#utility.yul\":10158:10159   */\n      0x00\n        /* \"#utility.yul\":10147:10156   */\n      dup4\n        /* \"#utility.yul\":10143:10160   */\n      add\n        /* \"#utility.yul\":10136:10183   */\n      mstore\n        /* \"#utility.yul\":10200:10331   */\n      tag_318\n        /* \"#utility.yul\":10326:10330   */\n      dup2\n        /* \"#utility.yul\":10200:10331   */\n      tag_202\n      jump\t// in\n    tag_318:\n        /* \"#utility.yul\":10192:10331   */\n      swap1\n      pop\n        /* \"#utility.yul\":9919:10338   */\n      swap2\n      swap1\n      pop\n      jump\t// out\n\n    auxdata: 0xa26469706673582212201e4c3b4702fe57c99f9ec2bb9489bca6a3b186c2a98aa0cdf81fb2474613fa9e64736f6c63430008190033\n}\n",
				"bytecode": {
					"linkReferences": {},
					"object": "6080604052633b9aca00600160146101000a81548163ffffffff021916908363ffffffff1602179055503480156033575f80fd5b50335f806101000a81548173ffffffffffffffffffffffffffffffffffffffff021916908373ffffffffffffffffffffffffffffffffffffffff160217905550600160149054906101000a900463ffffffff1660025f3373ffffffffffffffffffffffffffffffffffffffff1673ffffffffffffffffffffffffffffffffffffffff1681526020019081526020015f205f015f6101000a81548163ffffffff021916908363ffffffff1602179055506119fb806100ef5f395ff3fe608060405234801561000f575f80fd5b5060043610610060575f3560e01c80631a5230bb14610064578063658f7fb514610094578063a87430ba146100b0578063c7734ea2146100e1578063f58d0d5c146100fd578063fec0244c14610119575b5f80fd5b61007e6004803603810190610079919061148b565b610123565b60405161008b91906114f5565b60405180910390f35b6100ae60048036038101906100a99190611547565b61015e565b005b6100ca60048036038101906100c591906115af565b610ecb565b6040516100d89291906116ef565b60405180910390f35b6100fb60048036038101906100f69190611716565b610fe6565b005b610117600480360381019061011291906115af565b6111c5565b005b610121611260565b005b60038181548110610132575f80fd5b905f5260205f20015f915054906101000a900473ffffffffffffffffffffffffffffffffffffffff1681565b5f600281111561017157610170611616565b5b60025f3373ffffffffffffffffffffffffffffffffffffffff1673ffffffffffffffffffffffffffffffffffffffff1681526020019081526020015f206001016002015f9054906101000a900460ff1660028111156101d3576101d2611616565b5b146101dc575f80fd5b818063ffffffff1660025f3373ffffffffffffffffffffffffffffffffffffffff1673ffffffffffffffffffffffffffffffffffffffff1681526020019081526020015f205f015f9054906101000a900463ffffffff1663ffffffff161015610243575f80fd5b600160025f3373ffffffffffffffffffffffffffffffffffffffff1673ffffffffffffffffffffffffffffffffffffffff1681526020019081526020015f206001016002015f6101000a81548160ff021916908360028111156102a9576102a8611616565b5b02179055505f8390506102ba6113f6565b5b5f8263ffffffff161115610e59575f6004805490501415801561038857508363ffffffff1660025f600460016004805490506102f79190611781565b81548110610308576103076117b4565b5b905f5260205f20015f9054906101000a900473ffffffffffffffffffffffffffffffffffffffff1673ffffffffffffffffffffffffffffffffffffffff1673ffffffffffffffffffffffffffffffffffffffff1681526020019081526020015f206001015f0160189054906101000a900463ffffffff1663ffffffff1610155b1561092f5760025f600460016004805490506103a49190611781565b815481106103b5576103b46117b4565b5b905f5260205f20015f9054906101000a900473ffffffffffffffffffffffffffffffffffffffff1673ffffffffffffffffffffffffffffffffffffffff1673ffffffffffffffffffffffffffffffffffffffff1681526020019081526020015f206001016040518060a00160405290815f82015f9054906101000a900473ffffffffffffffffffffffffffffffffffffffff1673ffffffffffffffffffffffffffffffffffffffff1673ffffffffffffffffffffffffffffffffffffffff1681526020015f820160149054906101000a900463ffffffff1663ffffffff1663ffffffff1681526020015f820160189054906101000a900463ffffffff1663ffffffff1663ffffffff16815260200160018201548152602001600282015f9054906101000a900460ff1660028111156104f0576104ef611616565b5b600281111561050257610501611616565b5b815250509050806020015163ffffffff168563ffffffff16116106d9578460025f3373ffffffffffffffffffffffffffffffffffffffff1673ffffffffffffffffffffffffffffffffffffffff1681526020019081526020015f205f015f8282829054906101000a900463ffffffff1661057c91906117e1565b92506101000a81548163ffffffff021916908363ffffffff16021790555084816020018181516105ac91906117e1565b91509063ffffffff16908163ffffffff16815250506105da338683604001516105d59190611818565b611340565b5f816080019060028111156105f2576105f1611616565b5b9081600281111561060657610605611616565b5b815250508460025f600460016004805490506106229190611781565b81548110610633576106326117b4565b5b905f5260205f20015f9054906101000a900473ffffffffffffffffffffffffffffffffffffffff1673ffffffffffffffffffffffffffffffffffffffff1673ffffffffffffffffffffffffffffffffffffffff1681526020019081526020015f205f015f8282829054906101000a900463ffffffff166106b39190611854565b92506101000a81548163ffffffff021916908363ffffffff1602179055505f915061092a565b806020015160025f3373ffffffffffffffffffffffffffffffffffffffff1673ffffffffffffffffffffffffffffffffffffffff1681526020019081526020015f205f015f8282829054906101000a900463ffffffff1661073a91906117e1565b92506101000a81548163ffffffff021916908363ffffffff1602179055506107fe3360025f60045f81548110610773576107726117b4565b5b905f5260205f20015f9054906101000a900473ffffffffffffffffffffffffffffffffffffffff1673ffffffffffffffffffffffffffffffffffffffff1673ffffffffffffffffffffffffffffffffffffffff1681526020019081526020015f206001015f0160149054906101000a900463ffffffff1683604001516107f99190611818565b611340565b806020015160025f6004600160048054905061081a9190611781565b8154811061082b5761082a6117b4565b5b905f5260205f20015f9054906101000a900473ffffffffffffffffffffffffffffffffffffffff1673ffffffffffffffffffffffffffffffffffffffff1673ffffffffffffffffffffffffffffffffffffffff1681526020019081526020015f205f015f8282829054906101000a900463ffffffff166108ab9190611854565b92506101000a81548163ffffffff021916908363ffffffff1602179055508060200151826108d991906117e1565b91506108e36113f6565b905060048054806108f7576108f661188b565b5b600190038181905f5260205f20015f6101000a81549073ffffffffffffffffffffffffffffffffffffffff021916905590555b610e54565b600160025f3373ffffffffffffffffffffffffffffffffffffffff1673ffffffffffffffffffffffffffffffffffffffff1681526020019081526020015f206001016002015f6101000a81548160ff0219169083600281111561099557610994611616565b5b02179055508160025f3373ffffffffffffffffffffffffffffffffffffffff1673ffffffffffffffffffffffffffffffffffffffff1681526020019081526020015f206001015f0160146101000a81548163ffffffff021916908363ffffffff1602179055508360025f3373ffffffffffffffffffffffffffffffffffffffff1673ffffffffffffffffffffffffffffffffffffffff1681526020019081526020015f206001015f0160186101000a81548163ffffffff021916908363ffffffff1602179055504260025f3373ffffffffffffffffffffffffffffffffffffffff1673ffffffffffffffffffffffffffffffffffffffff1681526020019081526020015f20600101600101819055508160025f3373ffffffffffffffffffffffffffffffffffffffff1673ffffffffffffffffffffffffffffffffffffffff1681526020019081526020015f205f015f8282829054906101000a900463ffffffff16610b0191906117e1565b92506101000a81548163ffffffff021916908363ffffffff1602179055505f60038054905014610dec575f6001600380549050610b3e9190611781565b90505b5f811115610de6578463ffffffff1660025f60036001600480549050610b679190611781565b81548110610b7857610b776117b4565b5b905f5260205f20015f9054906101000a900473ffffffffffffffffffffffffffffffffffffffff1673ffffffffffffffffffffffffffffffffffffffff1673ffffffffffffffffffffffffffffffffffffffff1681526020019081526020015f206001015f0160189054906101000a900463ffffffff1663ffffffff1610610dd3576003806001600380549050610c0f9190611781565b81548110610c2057610c1f6117b4565b5b905f5260205f20015f9054906101000a900473ffffffffffffffffffffffffffffffffffffffff16908060018154018082558091505060019003905f5260205f20015f9091909190916101000a81548173ffffffffffffffffffffffffffffffffffffffff021916908373ffffffffffffffffffffffffffffffffffffffff1602179055505f6001600380549050610cb89190611781565b90505b81811115610d77576003600182610cd29190611781565b81548110610ce357610ce26117b4565b5b905f5260205f20015f9054906101000a900473ffffffffffffffffffffffffffffffffffffffff1660038281548110610d1f57610d1e6117b4565b5b905f5260205f20015f6101000a81548173ffffffffffffffffffffffffffffffffffffffff021916908373ffffffffffffffffffffffffffffffffffffffff1602179055508080610d6f906118b8565b915050610cbb565b503360038281548110610d8d57610d8c6117b4565b5b905f5260205f20015f6101000a81548173ffffffffffffffffffffffffffffffffffffffff021916908373ffffffffffffffffffffffffffffffffffffffff1602179055505b8080610dde906118b8565b915050610b41565b50610e4d565b600333908060018154018082558091505060019003905f5260205f20015f9091909190916101000a81548173ffffffffffffffffffffffffffffffffffffffff021916908373ffffffffffffffffffffffffffffffffffffffff1602179055505b5050610ec6565b6102bb565b5f60025f3373ffffffffffffffffffffffffffffffffffffffff1673ffffffffffffffffffffffffffffffffffffffff1681526020019081526020015f206001016002015f6101000a81548160ff02191690836002811115610ebe57610ebd611616565b5b021790555050505b505050565b6002602052805f5260405f205f91509050805f015f9054906101000a900463ffffffff1690806001016040518060a00160405290815f82015f9054906101000a900473ffffffffffffffffffffffffffffffffffffffff1673ffffffffffffffffffffffffffffffffffffffff1673ffffffffffffffffffffffffffffffffffffffff1681526020015f820160149054906101000a900463ffffffff1663ffffffff1663ffffffff1681526020015f820160189054906101000a900463ffffffff1663ffffffff1663ffffffff16815260200160018201548152602001600282015f9054906101000a900460ff166002811115610fcb57610fca611616565b5b6002811115610fdd57610fdc611616565b5b81525050905082565b808063ffffffff1660025f3373ffffffffffffffffffffffffffffffffffffffff1673ffffffffffffffffffffffffffffffffffffffff1681526020019081526020015f205f015f9054906101000a900463ffffffff1663ffffffff16101561104d575f80fd5b8160025f3373ffffffffffffffffffffffffffffffffffffffff1673ffffffffffffffffffffffffffffffffffffffff1681526020019081526020015f205f015f8282829054906101000a900463ffffffff166110aa91906117e1565b92506101000a81548163ffffffff021916908363ffffffff1602179055508160025f8573ffffffffffffffffffffffffffffffffffffffff1673ffffffffffffffffffffffffffffffffffffffff1681526020019081526020015f205f015f8282829054906101000a900463ffffffff166111259190611854565b92506101000a81548163ffffffff021916908363ffffffff160217905550600160149054906101000a900463ffffffff1663ffffffff1660025f8573ffffffffffffffffffffffffffffffffffffffff1673ffffffffffffffffffffffffffffffffffffffff1681526020019081526020015f205f015f9054906101000a900463ffffffff1663ffffffff1611156111c0576111bf6118df565b5b505050565b5f8054906101000a900473ffffffffffffffffffffffffffffffffffffffff168073ffffffffffffffffffffffffffffffffffffffff163373ffffffffffffffffffffffffffffffffffffffff161461121c575f80fd5b8160015f6101000a81548173ffffffffffffffffffffffffffffffffffffffff021916908373ffffffffffffffffffffffffffffffffffffffff1602179055505050565b60015f9054906101000a900473ffffffffffffffffffffffffffffffffffffffff168073ffffffffffffffffffffffffffffffffffffffff163373ffffffffffffffffffffffffffffffffffffffff16146112b9575f80fd5b60015f9054906101000a900473ffffffffffffffffffffffffffffffffffffffff165f806101000a81548173ffffffffffffffffffffffffffffffffffffffff021916908373ffffffffffffffffffffffffffffffffffffffff16021790555060015f6101000a81549073ffffffffffffffffffffffffffffffffffffffff021916905550565b5f808373ffffffffffffffffffffffffffffffffffffffff168363ffffffff1660405161136c90611939565b5f6040518083038185875af1925050503d805f81146113a6576040519150601f19603f3d011682016040523d82523d5f602084013e6113ab565b606091505b5091509150816113f0576040517f08c379a00000000000000000000000000000000000000000000000000000000081526004016113e7906119a7565b60405180910390fd5b50505050565b6040518060a001604052805f73ffffffffffffffffffffffffffffffffffffffff1681526020015f63ffffffff1681526020015f63ffffffff1681526020015f81526020015f600281111561144e5761144d611616565b5b81525090565b5f80fd5b5f819050919050565b61146a81611458565b8114611474575f80fd5b50565b5f8135905061148581611461565b92915050565b5f602082840312156114a05761149f611454565b5b5f6114ad84828501611477565b91505092915050565b5f73ffffffffffffffffffffffffffffffffffffffff82169050919050565b5f6114df826114b6565b9050919050565b6114ef816114d5565b82525050565b5f6020820190506115085f8301846114e6565b92915050565b5f63ffffffff82169050919050565b6115268161150e565b8114611530575f80fd5b50565b5f813590506115418161151d565b92915050565b5f806040838503121561155d5761155c611454565b5b5f61156a85828601611533565b925050602061157b85828601611533565b9150509250929050565b61158e816114d5565b8114611598575f80fd5b50565b5f813590506115a981611585565b92915050565b5f602082840312156115c4576115c3611454565b5b5f6115d18482850161159b565b91505092915050565b6115e38161150e565b82525050565b6115f2816114d5565b82525050565b6116018161150e565b82525050565b61161081611458565b82525050565b7f4e487b71000000000000000000000000000000000000000000000000000000005f52602160045260245ffd5b6003811061165457611653611616565b5b50565b5f81905061166482611643565b919050565b5f61167382611657565b9050919050565b61168381611669565b82525050565b60a082015f82015161169d5f8501826115e9565b5060208201516116b060208501826115f8565b5060408201516116c360408501826115f8565b5060608201516116d66060850182611607565b5060808201516116e9608085018261167a565b50505050565b5f60c0820190506117025f8301856115da565b61170f6020830184611689565b9392505050565b5f806040838503121561172c5761172b611454565b5b5f6117398582860161159b565b925050602061174a85828601611533565b9150509250929050565b7f4e487b71000000000000000000000000000000000000000000000000000000005f52601160045260245ffd5b5f61178b82611458565b915061179683611458565b92508282039050818111156117ae576117ad611754565b5b92915050565b7f4e487b71000000000000000000000000000000000000000000000000000000005f52603260045260245ffd5b5f6117eb8261150e565b91506117f68361150e565b9250828203905063ffffffff81111561181257611811611754565b5b92915050565b5f6118228261150e565b915061182d8361150e565b925082820261183b8161150e565b915080821461184d5761184c611754565b5b5092915050565b5f61185e8261150e565b91506118698361150e565b9250828201905063ffffffff81111561188557611884611754565b5b92915050565b7f4e487b71000000000000000000000000000000000000000000000000000000005f52603160045260245ffd5b5f6118c282611458565b91505f82036118d4576118d3611754565b5b600182039050919050565b7f4e487b71000000000000000000000000000000000000000000000000000000005f52600160045260245ffd5b5f81905092915050565b50565b5f6119245f8361190c565b915061192f82611916565b5f82019050919050565b5f61194382611919565b9150819050919050565b5f82825260208201905092915050565b7f4661696c656420746f2073656e642045746865720000000000000000000000005f82015250565b5f61199160148361194d565b915061199c8261195d565b602082019050919050565b5f6020820190508181035f8301526119be81611985565b905091905056fea26469706673582212201e4c3b4702fe57c99f9ec2bb9489bca6a3b186c2a98aa0cdf81fb2474613fa9e64736f6c63430008190033",
					"opcodes": "PUSH1 0x80 PUSH1 0x40 MSTORE PUSH4 0x3B9ACA00 PUSH1 0x1 PUSH1 0x14 PUSH2 0x100 EXP DUP2 SLOAD DUP2 PUSH4 0xFFFFFFFF MUL NOT AND SWAP1 DUP4 PUSH4 0xFFFFFFFF AND MUL OR SWAP1 SSTORE POP CALLVALUE DUP1 ISZERO PUSH1 0x33 JUMPI PUSH0 DUP1 REVERT JUMPDEST POP CALLER PUSH0 DUP1 PUSH2 0x100 EXP DUP2 SLOAD DUP2 PUSH20 0xFFFFFFFFFFFFFFFFFFFFFFFFFFFFFFFFFFFFFFFF MUL NOT AND SWAP1 DUP4 PUSH20 0xFFFFFFFFFFFFFFFFFFFFFFFFFFFFFFFFFFFFFFFF AND MUL OR SWAP1 SSTORE POP PUSH1 0x1 PUSH1 0x14 SWAP1 SLOAD SWAP1 PUSH2 0x100 EXP SWAP1 DIV PUSH4 0xFFFFFFFF AND PUSH1 0x2 PUSH0 CALLER PUSH20 0xFFFFFFFFFFFFFFFFFFFFFFFFFFFFFFFFFFFFFFFF AND PUSH20 0xFFFFFFFFFFFFFFFFFFFFFFFFFFFFFFFFFFFFFFFF AND DUP2 MSTORE PUSH1 0x20 ADD SWAP1 DUP2 MSTORE PUSH1 0x20 ADD PUSH0 KECCAK256 PUSH0 ADD PUSH0 PUSH2 0x100 EXP DUP2 SLOAD DUP2 PUSH4 0xFFFFFFFF MUL NOT AND SWAP1 DUP4 PUSH4 0xFFFFFFFF AND MUL OR SWAP1 SSTORE POP PUSH2 0x19FB DUP1 PUSH2 0xEF PUSH0 CODECOPY PUSH0 RETURN INVALID PUSH1 0x80 PUSH1 0x40 MSTORE CALLVALUE DUP1 ISZERO PUSH2 0xF JUMPI PUSH0 DUP1 REVERT JUMPDEST POP PUSH1 0x4 CALLDATASIZE LT PUSH2 0x60 JUMPI PUSH0 CALLDATALOAD PUSH1 0xE0 SHR DUP1 PUSH4 0x1A5230BB EQ PUSH2 0x64 JUMPI DUP1 PUSH4 0x658F7FB5 EQ PUSH2 0x94 JUMPI DUP1 PUSH4 0xA87430BA EQ PUSH2 0xB0 JUMPI DUP1 PUSH4 0xC7734EA2 EQ PUSH2 0xE1 JUMPI DUP1 PUSH4 0xF58D0D5C EQ PUSH2 0xFD JUMPI DUP1 PUSH4 0xFEC0244C EQ PUSH2 0x119 JUMPI JUMPDEST PUSH0 DUP1 REVERT JUMPDEST PUSH2 0x7E PUSH1 0x4 DUP1 CALLDATASIZE SUB DUP2 ADD SWAP1 PUSH2 0x79 SWAP2 SWAP1 PUSH2 0x148B JUMP JUMPDEST PUSH2 0x123 JUMP JUMPDEST PUSH1 0x40 MLOAD PUSH2 0x8B SWAP2 SWAP1 PUSH2 0x14F5 JUMP JUMPDEST PUSH1 0x40 MLOAD DUP1 SWAP2 SUB SWAP1 RETURN JUMPDEST PUSH2 0xAE PUSH1 0x4 DUP1 CALLDATASIZE SUB DUP2 ADD SWAP1 PUSH2 0xA9 SWAP2 SWAP1 PUSH2 0x1547 JUMP JUMPDEST PUSH2 0x15E JUMP JUMPDEST STOP JUMPDEST PUSH2 0xCA PUSH1 0x4 DUP1 CALLDATASIZE SUB DUP2 ADD SWAP1 PUSH2 0xC5 SWAP2 SWAP1 PUSH2 0x15AF JUMP JUMPDEST PUSH2 0xECB JUMP JUMPDEST PUSH1 0x40 MLOAD PUSH2 0xD8 SWAP3 SWAP2 SWAP1 PUSH2 0x16EF JUMP JUMPDEST PUSH1 0x40 MLOAD DUP1 SWAP2 SUB SWAP1 RETURN JUMPDEST PUSH2 0xFB PUSH1 0x4 DUP1 CALLDATASIZE SUB DUP2 ADD SWAP1 PUSH2 0xF6 SWAP2 SWAP1 PUSH2 0x1716 JUMP JUMPDEST PUSH2 0xFE6 JUMP JUMPDEST STOP JUMPDEST PUSH2 0x117 PUSH1 0x4 DUP1 CALLDATASIZE SUB DUP2 ADD SWAP1 PUSH2 0x112 SWAP2 SWAP1 PUSH2 0x15AF JUMP JUMPDEST PUSH2 0x11C5 JUMP JUMPDEST STOP JUMPDEST PUSH2 0x121 PUSH2 0x1260 JUMP JUMPDEST STOP JUMPDEST PUSH1 0x3 DUP2 DUP2 SLOAD DUP2 LT PUSH2 0x132 JUMPI PUSH0 DUP1 REVERT JUMPDEST SWAP1 PUSH0 MSTORE PUSH1 0x20 PUSH0 KECCAK256 ADD PUSH0 SWAP2 POP SLOAD SWAP1 PUSH2 0x100 EXP SWAP1 DIV PUSH20 0xFFFFFFFFFFFFFFFFFFFFFFFFFFFFFFFFFFFFFFFF AND DUP2 JUMP JUMPDEST PUSH0 PUSH1 0x2 DUP2 GT ISZERO PUSH2 0x171 JUMPI PUSH2 0x170 PUSH2 0x1616 JUMP JUMPDEST JUMPDEST PUSH1 0x2 PUSH0 CALLER PUSH20 0xFFFFFFFFFFFFFFFFFFFFFFFFFFFFFFFFFFFFFFFF AND PUSH20 0xFFFFFFFFFFFFFFFFFFFFFFFFFFFFFFFFFFFFFFFF AND DUP2 MSTORE PUSH1 0x20 ADD SWAP1 DUP2 MSTORE PUSH1 0x20 ADD PUSH0 KECCAK256 PUSH1 0x1 ADD PUSH1 0x2 ADD PUSH0 SWAP1 SLOAD SWAP1 PUSH2 0x100 EXP SWAP1 DIV PUSH1 0xFF AND PUSH1 0x2 DUP2 GT ISZERO PUSH2 0x1D3 JUMPI PUSH2 0x1D2 PUSH2 0x1616 JUMP JUMPDEST JUMPDEST EQ PUSH2 0x1DC JUMPI PUSH0 DUP1 REVERT JUMPDEST DUP2 DUP1 PUSH4 0xFFFFFFFF AND PUSH1 0x2 PUSH0 CALLER PUSH20 0xFFFFFFFFFFFFFFFFFFFFFFFFFFFFFFFFFFFFFFFF AND PUSH20 0xFFFFFFFFFFFFFFFFFFFFFFFFFFFFFFFFFFFFFFFF AND DUP2 MSTORE PUSH1 0x20 ADD SWAP1 DUP2 MSTORE PUSH1 0x20 ADD PUSH0 KECCAK256 PUSH0 ADD PUSH0 SWAP1 SLOAD SWAP1 PUSH2 0x100 EXP SWAP1 DIV PUSH4 0xFFFFFFFF AND PUSH4 0xFFFFFFFF AND LT ISZERO PUSH2 0x243 JUMPI PUSH0 DUP1 REVERT JUMPDEST PUSH1 0x1 PUSH1 0x2 PUSH0 CALLER PUSH20 0xFFFFFFFFFFFFFFFFFFFFFFFFFFFFFFFFFFFFFFFF AND PUSH20 0xFFFFFFFFFFFFFFFFFFFFFFFFFFFFFFFFFFFFFFFF AND DUP2 MSTORE PUSH1 0x20 ADD SWAP1 DUP2 MSTORE PUSH1 0x20 ADD PUSH0 KECCAK256 PUSH1 0x1 ADD PUSH1 0x2 ADD PUSH0 PUSH2 0x100 EXP DUP2 SLOAD DUP2 PUSH1 0xFF MUL NOT AND SWAP1 DUP4 PUSH1 0x2 DUP2 GT ISZERO PUSH2 0x2A9 JUMPI PUSH2 0x2A8 PUSH2 0x1616 JUMP JUMPDEST JUMPDEST MUL OR SWAP1 SSTORE POP PUSH0 DUP4 SWAP1 POP PUSH2 0x2BA PUSH2 0x13F6 JUMP JUMPDEST JUMPDEST PUSH0 DUP3 PUSH4 0xFFFFFFFF AND GT ISZERO PUSH2 0xE59 JUMPI PUSH0 PUSH1 0x4 DUP1 SLOAD SWAP1 POP EQ ISZERO DUP1 ISZERO PUSH2 0x388 JUMPI POP DUP4 PUSH4 0xFFFFFFFF AND PUSH1 0x2 PUSH0 PUSH1 0x4 PUSH1 0x1 PUSH1 0x4 DUP1 SLOAD SWAP1 POP PUSH2 0x2F7 SWAP2 SWAP1 PUSH2 0x1781 JUMP JUMPDEST DUP2 SLOAD DUP2 LT PUSH2 0x308 JUMPI PUSH2 0x307 PUSH2 0x17B4 JUMP JUMPDEST JUMPDEST SWAP1 PUSH0 MSTORE PUSH1 0x20 PUSH0 KECCAK256 ADD PUSH0 SWAP1 SLOAD SWAP1 PUSH2 0x100 EXP SWAP1 DIV PUSH20 0xFFFFFFFFFFFFFFFFFFFFFFFFFFFFFFFFFFFFFFFF AND PUSH20 0xFFFFFFFFFFFFFFFFFFFFFFFFFFFFFFFFFFFFFFFF AND PUSH20 0xFFFFFFFFFFFFFFFFFFFFFFFFFFFFFFFFFFFFFFFF AND DUP2 MSTORE PUSH1 0x20 ADD SWAP1 DUP2 MSTORE PUSH1 0x20 ADD PUSH0 KECCAK256 PUSH1 0x1 ADD PUSH0 ADD PUSH1 0x18 SWAP1 SLOAD SWAP1 PUSH2 0x100 EXP SWAP1 DIV PUSH4 0xFFFFFFFF AND PUSH4 0xFFFFFFFF AND LT ISZERO JUMPDEST ISZERO PUSH2 0x92F JUMPI PUSH1 0x2 PUSH0 PUSH1 0x4 PUSH1 0x1 PUSH1 0x4 DUP1 SLOAD SWAP1 POP PUSH2 0x3A4 SWAP2 SWAP1 PUSH2 0x1781 JUMP JUMPDEST DUP2 SLOAD DUP2 LT PUSH2 0x3B5 JUMPI PUSH2 0x3B4 PUSH2 0x17B4 JUMP JUMPDEST JUMPDEST SWAP1 PUSH0 MSTORE PUSH1 0x20 PUSH0 KECCAK256 ADD PUSH0 SWAP1 SLOAD SWAP1 PUSH2 0x100 EXP SWAP1 DIV PUSH20 0xFFFFFFFFFFFFFFFFFFFFFFFFFFFFFFFFFFFFFFFF AND PUSH20 0xFFFFFFFFFFFFFFFFFFFFFFFFFFFFFFFFFFFFFFFF AND PUSH20 0xFFFFFFFFFFFFFFFFFFFFFFFFFFFFFFFFFFFFFFFF AND DUP2 MSTORE PUSH1 0x20 ADD SWAP1 DUP2 MSTORE PUSH1 0x20 ADD PUSH0 KECCAK256 PUSH1 0x1 ADD PUSH1 0x40 MLOAD DUP1 PUSH1 0xA0 ADD PUSH1 0x40 MSTORE SWAP1 DUP2 PUSH0 DUP3 ADD PUSH0 SWAP1 SLOAD SWAP1 PUSH2 0x100 EXP SWAP1 DIV PUSH20 0xFFFFFFFFFFFFFFFFFFFFFFFFFFFFFFFFFFFFFFFF AND PUSH20 0xFFFFFFFFFFFFFFFFFFFFFFFFFFFFFFFFFFFFFFFF AND PUSH20 0xFFFFFFFFFFFFFFFFFFFFFFFFFFFFFFFFFFFFFFFF AND DUP2 MSTORE PUSH1 0x20 ADD PUSH0 DUP3 ADD PUSH1 0x14 SWAP1 SLOAD SWAP1 PUSH2 0x100 EXP SWAP1 DIV PUSH4 0xFFFFFFFF AND PUSH4 0xFFFFFFFF AND PUSH4 0xFFFFFFFF AND DUP2 MSTORE PUSH1 0x20 ADD PUSH0 DUP3 ADD PUSH1 0x18 SWAP1 SLOAD SWAP1 PUSH2 0x100 EXP SWAP1 DIV PUSH4 0xFFFFFFFF AND PUSH4 0xFFFFFFFF AND PUSH4 0xFFFFFFFF AND DUP2 MSTORE PUSH1 0x20 ADD PUSH1 0x1 DUP3 ADD SLOAD DUP2 MSTORE PUSH1 0x20 ADD PUSH1 0x2 DUP3 ADD PUSH0 SWAP1 SLOAD SWAP1 PUSH2 0x100 EXP SWAP1 DIV PUSH1 0xFF AND PUSH1 0x2 DUP2 GT ISZERO PUSH2 0x4F0 JUMPI PUSH2 0x4EF PUSH2 0x1616 JUMP JUMPDEST JUMPDEST PUSH1 0x2 DUP2 GT ISZERO PUSH2 0x502 JUMPI PUSH2 0x501 PUSH2 0x1616 JUMP JUMPDEST JUMPDEST DUP2 MSTORE POP POP SWAP1 POP DUP1 PUSH1 0x20 ADD MLOAD PUSH4 0xFFFFFFFF AND DUP6 PUSH4 0xFFFFFFFF AND GT PUSH2 0x6D9 JUMPI DUP5 PUSH1 0x2 PUSH0 CALLER PUSH20 0xFFFFFFFFFFFFFFFFFFFFFFFFFFFFFFFFFFFFFFFF AND PUSH20 0xFFFFFFFFFFFFFFFFFFFFFFFFFFFFFFFFFFFFFFFF AND DUP2 MSTORE PUSH1 0x20 ADD SWAP1 DUP2 MSTORE PUSH1 0x20 ADD PUSH0 KECCAK256 PUSH0 ADD PUSH0 DUP3 DUP3 DUP3 SWAP1 SLOAD SWAP1 PUSH2 0x100 EXP SWAP1 DIV PUSH4 0xFFFFFFFF AND PUSH2 0x57C SWAP2 SWAP1 PUSH2 0x17E1 JUMP JUMPDEST SWAP3 POP PUSH2 0x100 EXP DUP2 SLOAD DUP2 PUSH4 0xFFFFFFFF MUL NOT AND SWAP1 DUP4 PUSH4 0xFFFFFFFF AND MUL OR SWAP1 SSTORE POP DUP5 DUP2 PUSH1 0x20 ADD DUP2 DUP2 MLOAD PUSH2 0x5AC SWAP2 SWAP1 PUSH2 0x17E1 JUMP JUMPDEST SWAP2 POP SWAP1 PUSH4 0xFFFFFFFF AND SWAP1 DUP2 PUSH4 0xFFFFFFFF AND DUP2 MSTORE POP POP PUSH2 0x5DA CALLER DUP7 DUP4 PUSH1 0x40 ADD MLOAD PUSH2 0x5D5 SWAP2 SWAP1 PUSH2 0x1818 JUMP JUMPDEST PUSH2 0x1340 JUMP JUMPDEST PUSH0 DUP2 PUSH1 0x80 ADD SWAP1 PUSH1 0x2 DUP2 GT ISZERO PUSH2 0x5F2 JUMPI PUSH2 0x5F1 PUSH2 0x1616 JUMP JUMPDEST JUMPDEST SWAP1 DUP2 PUSH1 0x2 DUP2 GT ISZERO PUSH2 0x606 JUMPI PUSH2 0x605 PUSH2 0x1616 JUMP JUMPDEST JUMPDEST DUP2 MSTORE POP POP DUP5 PUSH1 0x2 PUSH0 PUSH1 0x4 PUSH1 0x1 PUSH1 0x4 DUP1 SLOAD SWAP1 POP PUSH2 0x622 SWAP2 SWAP1 PUSH2 0x1781 JUMP JUMPDEST DUP2 SLOAD DUP2 LT PUSH2 0x633 JUMPI PUSH2 0x632 PUSH2 0x17B4 JUMP JUMPDEST JUMPDEST SWAP1 PUSH0 MSTORE PUSH1 0x20 PUSH0 KECCAK256 ADD PUSH0 SWAP1 SLOAD SWAP1 PUSH2 0x100 EXP SWAP1 DIV PUSH20 0xFFFFFFFFFFFFFFFFFFFFFFFFFFFFFFFFFFFFFFFF AND PUSH20 0xFFFFFFFFFFFFFFFFFFFFFFFFFFFFFFFFFFFFFFFF AND PUSH20 0xFFFFFFFFFFFFFFFFFFFFFFFFFFFFFFFFFFFFFFFF AND DUP2 MSTORE PUSH1 0x20 ADD SWAP1 DUP2 MSTORE PUSH1 0x20 ADD PUSH0 KECCAK256 PUSH0 ADD PUSH0 DUP3 DUP3 DUP3 SWAP1 SLOAD SWAP1 PUSH2 0x100 EXP SWAP1 DIV PUSH4 0xFFFFFFFF AND PUSH2 0x6B3 SWAP2 SWAP1 PUSH2 0x1854 JUMP JUMPDEST SWAP3 POP PUSH2 0x100 EXP DUP2 SLOAD DUP2 PUSH4 0xFFFFFFFF MUL NOT AND SWAP1 DUP4 PUSH4 0xFFFFFFFF AND MUL OR SWAP1 SSTORE POP PUSH0 SWAP2 POP PUSH2 0x92A JUMP JUMPDEST DUP1 PUSH1 0x20 ADD MLOAD PUSH1 0x2 PUSH0 CALLER PUSH20 0xFFFFFFFFFFFFFFFFFFFFFFFFFFFFFFFFFFFFFFFF AND PUSH20 0xFFFFFFFFFFFFFFFFFFFFFFFFFFFFFFFFFFFFFFFF AND DUP2 MSTORE PUSH1 0x20 ADD SWAP1 DUP2 MSTORE PUSH1 0x20 ADD PUSH0 KECCAK256 PUSH0 ADD PUSH0 DUP3 DUP3 DUP3 SWAP1 SLOAD SWAP1 PUSH2 0x100 EXP SWAP1 DIV PUSH4 0xFFFFFFFF AND PUSH2 0x73A SWAP2 SWAP1 PUSH2 0x17E1 JUMP JUMPDEST SWAP3 POP PUSH2 0x100 EXP DUP2 SLOAD DUP2 PUSH4 0xFFFFFFFF MUL NOT AND SWAP1 DUP4 PUSH4 0xFFFFFFFF AND MUL OR SWAP1 SSTORE POP PUSH2 0x7FE CALLER PUSH1 0x2 PUSH0 PUSH1 0x4 PUSH0 DUP2 SLOAD DUP2 LT PUSH2 0x773 JUMPI PUSH2 0x772 PUSH2 0x17B4 JUMP JUMPDEST JUMPDEST SWAP1 PUSH0 MSTORE PUSH1 0x20 PUSH0 KECCAK256 ADD PUSH0 SWAP1 SLOAD SWAP1 PUSH2 0x100 EXP SWAP1 DIV PUSH20 0xFFFFFFFFFFFFFFFFFFFFFFFFFFFFFFFFFFFFFFFF AND PUSH20 0xFFFFFFFFFFFFFFFFFFFFFFFFFFFFFFFFFFFFFFFF AND PUSH20 0xFFFFFFFFFFFFFFFFFFFFFFFFFFFFFFFFFFFFFFFF AND DUP2 MSTORE PUSH1 0x20 ADD SWAP1 DUP2 MSTORE PUSH1 0x20 ADD PUSH0 KECCAK256 PUSH1 0x1 ADD PUSH0 ADD PUSH1 0x14 SWAP1 SLOAD SWAP1 PUSH2 0x100 EXP SWAP1 DIV PUSH4 0xFFFFFFFF AND DUP4 PUSH1 0x40 ADD MLOAD PUSH2 0x7F9 SWAP2 SWAP1 PUSH2 0x1818 JUMP JUMPDEST PUSH2 0x1340 JUMP JUMPDEST DUP1 PUSH1 0x20 ADD MLOAD PUSH1 0x2 PUSH0 PUSH1 0x4 PUSH1 0x1 PUSH1 0x4 DUP1 SLOAD SWAP1 POP PUSH2 0x81A SWAP2 SWAP1 PUSH2 0x1781 JUMP JUMPDEST DUP2 SLOAD DUP2 LT PUSH2 0x82B JUMPI PUSH2 0x82A PUSH2 0x17B4 JUMP JUMPDEST JUMPDEST SWAP1 PUSH0 MSTORE PUSH1 0x20 PUSH0 KECCAK256 ADD PUSH0 SWAP1 SLOAD SWAP1 PUSH2 0x100 EXP SWAP1 DIV PUSH20 0xFFFFFFFFFFFFFFFFFFFFFFFFFFFFFFFFFFFFFFFF AND PUSH20 0xFFFFFFFFFFFFFFFFFFFFFFFFFFFFFFFFFFFFFFFF AND PUSH20 0xFFFFFFFFFFFFFFFFFFFFFFFFFFFFFFFFFFFFFFFF AND DUP2 MSTORE PUSH1 0x20 ADD SWAP1 DUP2 MSTORE PUSH1 0x20 ADD PUSH0 KECCAK256 PUSH0 ADD PUSH0 DUP3 DUP3 DUP3 SWAP1 SLOAD SWAP1 PUSH2 0x100 EXP SWAP1 DIV PUSH4 0xFFFFFFFF AND PUSH2 0x8AB SWAP2 SWAP1 PUSH2 0x1854 JUMP JUMPDEST SWAP3 POP PUSH2 0x100 EXP DUP2 SLOAD DUP2 PUSH4 0xFFFFFFFF MUL NOT AND SWAP1 DUP4 PUSH4 0xFFFFFFFF AND MUL OR SWAP1 SSTORE POP DUP1 PUSH1 0x20 ADD MLOAD DUP3 PUSH2 0x8D9 SWAP2 SWAP1 PUSH2 0x17E1 JUMP JUMPDEST SWAP2 POP PUSH2 0x8E3 PUSH2 0x13F6 JUMP JUMPDEST SWAP1 POP PUSH1 0x4 DUP1 SLOAD DUP1 PUSH2 0x8F7 JUMPI PUSH2 0x8F6 PUSH2 0x188B JUMP JUMPDEST JUMPDEST PUSH1 0x1 SWAP1 SUB DUP2 DUP2 SWAP1 PUSH0 MSTORE PUSH1 0x20 PUSH0 KECCAK256 ADD PUSH0 PUSH2 0x100 EXP DUP2 SLOAD SWAP1 PUSH20 0xFFFFFFFFFFFFFFFFFFFFFFFFFFFFFFFFFFFFFFFF MUL NOT AND SWAP1 SSTORE SWAP1 SSTORE JUMPDEST PUSH2 0xE54 JUMP JUMPDEST PUSH1 0x1 PUSH1 0x2 PUSH0 CALLER PUSH20 0xFFFFFFFFFFFFFFFFFFFFFFFFFFFFFFFFFFFFFFFF AND PUSH20 0xFFFFFFFFFFFFFFFFFFFFFFFFFFFFFFFFFFFFFFFF AND DUP2 MSTORE PUSH1 0x20 ADD SWAP1 DUP2 MSTORE PUSH1 0x20 ADD PUSH0 KECCAK256 PUSH1 0x1 ADD PUSH1 0x2 ADD PUSH0 PUSH2 0x100 EXP DUP2 SLOAD DUP2 PUSH1 0xFF MUL NOT AND SWAP1 DUP4 PUSH1 0x2 DUP2 GT ISZERO PUSH2 0x995 JUMPI PUSH2 0x994 PUSH2 0x1616 JUMP JUMPDEST JUMPDEST MUL OR SWAP1 SSTORE POP DUP2 PUSH1 0x2 PUSH0 CALLER PUSH20 0xFFFFFFFFFFFFFFFFFFFFFFFFFFFFFFFFFFFFFFFF AND PUSH20 0xFFFFFFFFFFFFFFFFFFFFFFFFFFFFFFFFFFFFFFFF AND DUP2 MSTORE PUSH1 0x20 ADD SWAP1 DUP2 MSTORE PUSH1 0x20 ADD PUSH0 KECCAK256 PUSH1 0x1 ADD PUSH0 ADD PUSH1 0x14 PUSH2 0x100 EXP DUP2 SLOAD DUP2 PUSH4 0xFFFFFFFF MUL NOT AND SWAP1 DUP4 PUSH4 0xFFFFFFFF AND MUL OR SWAP1 SSTORE POP DUP4 PUSH1 0x2 PUSH0 CALLER PUSH20 0xFFFFFFFFFFFFFFFFFFFFFFFFFFFFFFFFFFFFFFFF AND PUSH20 0xFFFFFFFFFFFFFFFFFFFFFFFFFFFFFFFFFFFFFFFF AND DUP2 MSTORE PUSH1 0x20 ADD SWAP1 DUP2 MSTORE PUSH1 0x20 ADD PUSH0 KECCAK256 PUSH1 0x1 ADD PUSH0 ADD PUSH1 0x18 PUSH2 0x100 EXP DUP2 SLOAD DUP2 PUSH4 0xFFFFFFFF MUL NOT AND SWAP1 DUP4 PUSH4 0xFFFFFFFF AND MUL OR SWAP1 SSTORE POP TIMESTAMP PUSH1 0x2 PUSH0 CALLER PUSH20 0xFFFFFFFFFFFFFFFFFFFFFFFFFFFFFFFFFFFFFFFF AND PUSH20 0xFFFFFFFFFFFFFFFFFFFFFFFFFFFFFFFFFFFFFFFF AND DUP2 MSTORE PUSH1 0x20 ADD SWAP1 DUP2 MSTORE PUSH1 0x20 ADD PUSH0 KECCAK256 PUSH1 0x1 ADD PUSH1 0x1 ADD DUP2 SWAP1 SSTORE POP DUP2 PUSH1 0x2 PUSH0 CALLER PUSH20 0xFFFFFFFFFFFFFFFFFFFFFFFFFFFFFFFFFFFFFFFF AND PUSH20 0xFFFFFFFFFFFFFFFFFFFFFFFFFFFFFFFFFFFFFFFF AND DUP2 MSTORE PUSH1 0x20 ADD SWAP1 DUP2 MSTORE PUSH1 0x20 ADD PUSH0 KECCAK256 PUSH0 ADD PUSH0 DUP3 DUP3 DUP3 SWAP1 SLOAD SWAP1 PUSH2 0x100 EXP SWAP1 DIV PUSH4 0xFFFFFFFF AND PUSH2 0xB01 SWAP2 SWAP1 PUSH2 0x17E1 JUMP JUMPDEST SWAP3 POP PUSH2 0x100 EXP DUP2 SLOAD DUP2 PUSH4 0xFFFFFFFF MUL NOT AND SWAP1 DUP4 PUSH4 0xFFFFFFFF AND MUL OR SWAP1 SSTORE POP PUSH0 PUSH1 0x3 DUP1 SLOAD SWAP1 POP EQ PUSH2 0xDEC JUMPI PUSH0 PUSH1 0x1 PUSH1 0x3 DUP1 SLOAD SWAP1 POP PUSH2 0xB3E SWAP2 SWAP1 PUSH2 0x1781 JUMP JUMPDEST SWAP1 POP JUMPDEST PUSH0 DUP2 GT ISZERO PUSH2 0xDE6 JUMPI DUP5 PUSH4 0xFFFFFFFF AND PUSH1 0x2 PUSH0 PUSH1 0x3 PUSH1 0x1 PUSH1 0x4 DUP1 SLOAD SWAP1 POP PUSH2 0xB67 SWAP2 SWAP1 PUSH2 0x1781 JUMP JUMPDEST DUP2 SLOAD DUP2 LT PUSH2 0xB78 JUMPI PUSH2 0xB77 PUSH2 0x17B4 JUMP JUMPDEST JUMPDEST SWAP1 PUSH0 MSTORE PUSH1 0x20 PUSH0 KECCAK256 ADD PUSH0 SWAP1 SLOAD SWAP1 PUSH2 0x100 EXP SWAP1 DIV PUSH20 0xFFFFFFFFFFFFFFFFFFFFFFFFFFFFFFFFFFFFFFFF AND PUSH20 0xFFFFFFFFFFFFFFFFFFFFFFFFFFFFFFFFFFFFFFFF AND PUSH20 0xFFFFFFFFFFFFFFFFFFFFFFFFFFFFFFFFFFFFFFFF AND DUP2 MSTORE PUSH1 0x20 ADD SWAP1 DUP2 MSTORE PUSH1 0x20 ADD PUSH0 KECCAK256 PUSH1 0x1 ADD PUSH0 ADD PUSH1 0x18 SWAP1 SLOAD SWAP1 PUSH2 0x100 EXP SWAP1 DIV PUSH4 0xFFFFFFFF AND PUSH4 0xFFFFFFFF AND LT PUSH2 0xDD3 JUMPI PUSH1 0x3 DUP1 PUSH1 0x1 PUSH1 0x3 DUP1 SLOAD SWAP1 POP PUSH2 0xC0F SWAP2 SWAP1 PUSH2 0x1781 JUMP JUMPDEST DUP2 SLOAD DUP2 LT PUSH2 0xC20 JUMPI PUSH2 0xC1F PUSH2 0x17B4 JUMP JUMPDEST JUMPDEST SWAP1 PUSH0 MSTORE PUSH1 0x20 PUSH0 KECCAK256 ADD PUSH0 SWAP1 SLOAD SWAP1 PUSH2 0x100 EXP SWAP1 DIV PUSH20 0xFFFFFFFFFFFFFFFFFFFFFFFFFFFFFFFFFFFFFFFF AND SWAP1 DUP1 PUSH1 0x1 DUP2 SLOAD ADD DUP1 DUP3 SSTORE DUP1 SWAP2 POP POP PUSH1 0x1 SWAP1 SUB SWAP1 PUSH0 MSTORE PUSH1 0x20 PUSH0 KECCAK256 ADD PUSH0 SWAP1 SWAP2 SWAP1 SWAP2 SWAP1 SWAP2 PUSH2 0x100 EXP DUP2 SLOAD DUP2 PUSH20 0xFFFFFFFFFFFFFFFFFFFFFFFFFFFFFFFFFFFFFFFF MUL NOT AND SWAP1 DUP4 PUSH20 0xFFFFFFFFFFFFFFFFFFFFFFFFFFFFFFFFFFFFFFFF AND MUL OR SWAP1 SSTORE POP PUSH0 PUSH1 0x1 PUSH1 0x3 DUP1 SLOAD SWAP1 POP PUSH2 0xCB8 SWAP2 SWAP1 PUSH2 0x1781 JUMP JUMPDEST SWAP1 POP JUMPDEST DUP2 DUP2 GT ISZERO PUSH2 0xD77 JUMPI PUSH1 0x3 PUSH1 0x1 DUP3 PUSH2 0xCD2 SWAP2 SWAP1 PUSH2 0x1781 JUMP JUMPDEST DUP2 SLOAD DUP2 LT PUSH2 0xCE3 JUMPI PUSH2 0xCE2 PUSH2 0x17B4 JUMP JUMPDEST JUMPDEST SWAP1 PUSH0 MSTORE PUSH1 0x20 PUSH0 KECCAK256 ADD PUSH0 SWAP1 SLOAD SWAP1 PUSH2 0x100 EXP SWAP1 DIV PUSH20 0xFFFFFFFFFFFFFFFFFFFFFFFFFFFFFFFFFFFFFFFF AND PUSH1 0x3 DUP3 DUP2 SLOAD DUP2 LT PUSH2 0xD1F JUMPI PUSH2 0xD1E PUSH2 0x17B4 JUMP JUMPDEST JUMPDEST SWAP1 PUSH0 MSTORE PUSH1 0x20 PUSH0 KECCAK256 ADD PUSH0 PUSH2 0x100 EXP DUP2 SLOAD DUP2 PUSH20 0xFFFFFFFFFFFFFFFFFFFFFFFFFFFFFFFFFFFFFFFF MUL NOT AND SWAP1 DUP4 PUSH20 0xFFFFFFFFFFFFFFFFFFFFFFFFFFFFFFFFFFFFFFFF AND MUL OR SWAP1 SSTORE POP DUP1 DUP1 PUSH2 0xD6F SWAP1 PUSH2 0x18B8 JUMP JUMPDEST SWAP2 POP POP PUSH2 0xCBB JUMP JUMPDEST POP CALLER PUSH1 0x3 DUP3 DUP2 SLOAD DUP2 LT PUSH2 0xD8D JUMPI PUSH2 0xD8C PUSH2 0x17B4 JUMP JUMPDEST JUMPDEST SWAP1 PUSH0 MSTORE PUSH1 0x20 PUSH0 KECCAK256 ADD PUSH0 PUSH2 0x100 EXP DUP2 SLOAD DUP2 PUSH20 0xFFFFFFFFFFFFFFFFFFFFFFFFFFFFFFFFFFFFFFFF MUL NOT AND SWAP1 DUP4 PUSH20 0xFFFFFFFFFFFFFFFFFFFFFFFFFFFFFFFFFFFFFFFF AND MUL OR SWAP1 SSTORE POP JUMPDEST DUP1 DUP1 PUSH2 0xDDE SWAP1 PUSH2 0x18B8 JUMP JUMPDEST SWAP2 POP POP PUSH2 0xB41 JUMP JUMPDEST POP PUSH2 0xE4D JUMP JUMPDEST PUSH1 0x3 CALLER SWAP1 DUP1 PUSH1 0x1 DUP2 SLOAD ADD DUP1 DUP3 SSTORE DUP1 SWAP2 POP POP PUSH1 0x1 SWAP1 SUB SWAP1 PUSH0 MSTORE PUSH1 0x20 PUSH0 KECCAK256 ADD PUSH0 SWAP1 SWAP2 SWAP1 SWAP2 SWAP1 SWAP2 PUSH2 0x100 EXP DUP2 SLOAD DUP2 PUSH20 0xFFFFFFFFFFFFFFFFFFFFFFFFFFFFFFFFFFFFFFFF MUL NOT AND SWAP1 DUP4 PUSH20 0xFFFFFFFFFFFFFFFFFFFFFFFFFFFFFFFFFFFFFFFF AND MUL OR SWAP1 SSTORE POP JUMPDEST POP POP PUSH2 0xEC6 JUMP JUMPDEST PUSH2 0x2BB JUMP JUMPDEST PUSH0 PUSH1 0x2 PUSH0 CALLER PUSH20 0xFFFFFFFFFFFFFFFFFFFFFFFFFFFFFFFFFFFFFFFF AND PUSH20 0xFFFFFFFFFFFFFFFFFFFFFFFFFFFFFFFFFFFFFFFF AND DUP2 MSTORE PUSH1 0x20 ADD SWAP1 DUP2 MSTORE PUSH1 0x20 ADD PUSH0 KECCAK256 PUSH1 0x1 ADD PUSH1 0x2 ADD PUSH0 PUSH2 0x100 EXP DUP2 SLOAD DUP2 PUSH1 0xFF MUL NOT AND SWAP1 DUP4 PUSH1 0x2 DUP2 GT ISZERO PUSH2 0xEBE JUMPI PUSH2 0xEBD PUSH2 0x1616 JUMP JUMPDEST JUMPDEST MUL OR SWAP1 SSTORE POP POP POP JUMPDEST POP POP POP JUMP JUMPDEST PUSH1 0x2 PUSH1 0x20 MSTORE DUP1 PUSH0 MSTORE PUSH1 0x40 PUSH0 KECCAK256 PUSH0 SWAP2 POP SWAP1 POP DUP1 PUSH0 ADD PUSH0 SWAP1 SLOAD SWAP1 PUSH2 0x100 EXP SWAP1 DIV PUSH4 0xFFFFFFFF AND SWAP1 DUP1 PUSH1 0x1 ADD PUSH1 0x40 MLOAD DUP1 PUSH1 0xA0 ADD PUSH1 0x40 MSTORE SWAP1 DUP2 PUSH0 DUP3 ADD PUSH0 SWAP1 SLOAD SWAP1 PUSH2 0x100 EXP SWAP1 DIV PUSH20 0xFFFFFFFFFFFFFFFFFFFFFFFFFFFFFFFFFFFFFFFF AND PUSH20 0xFFFFFFFFFFFFFFFFFFFFFFFFFFFFFFFFFFFFFFFF AND PUSH20 0xFFFFFFFFFFFFFFFFFFFFFFFFFFFFFFFFFFFFFFFF AND DUP2 MSTORE PUSH1 0x20 ADD PUSH0 DUP3 ADD PUSH1 0x14 SWAP1 SLOAD SWAP1 PUSH2 0x100 EXP SWAP1 DIV PUSH4 0xFFFFFFFF AND PUSH4 0xFFFFFFFF AND PUSH4 0xFFFFFFFF AND DUP2 MSTORE PUSH1 0x20 ADD PUSH0 DUP3 ADD PUSH1 0x18 SWAP1 SLOAD SWAP1 PUSH2 0x100 EXP SWAP1 DIV PUSH4 0xFFFFFFFF AND PUSH4 0xFFFFFFFF AND PUSH4 0xFFFFFFFF AND DUP2 MSTORE PUSH1 0x20 ADD PUSH1 0x1 DUP3 ADD SLOAD DUP2 MSTORE PUSH1 0x20 ADD PUSH1 0x2 DUP3 ADD PUSH0 SWAP1 SLOAD SWAP1 PUSH2 0x100 EXP SWAP1 DIV PUSH1 0xFF AND PUSH1 0x2 DUP2 GT ISZERO PUSH2 0xFCB JUMPI PUSH2 0xFCA PUSH2 0x1616 JUMP JUMPDEST JUMPDEST PUSH1 0x2 DUP2 GT ISZERO PUSH2 0xFDD JUMPI PUSH2 0xFDC PUSH2 0x1616 JUMP JUMPDEST JUMPDEST DUP2 MSTORE POP POP SWAP1 POP DUP3 JUMP JUMPDEST DUP1 DUP1 PUSH4 0xFFFFFFFF AND PUSH1 0x2 PUSH0 CALLER PUSH20 0xFFFFFFFFFFFFFFFFFFFFFFFFFFFFFFFFFFFFFFFF AND PUSH20 0xFFFFFFFFFFFFFFFFFFFFFFFFFFFFFFFFFFFFFFFF AND DUP2 MSTORE PUSH1 0x20 ADD SWAP1 DUP2 MSTORE PUSH1 0x20 ADD PUSH0 KECCAK256 PUSH0 ADD PUSH0 SWAP1 SLOAD SWAP1 PUSH2 0x100 EXP SWAP1 DIV PUSH4 0xFFFFFFFF AND PUSH4 0xFFFFFFFF AND LT ISZERO PUSH2 0x104D JUMPI PUSH0 DUP1 REVERT JUMPDEST DUP2 PUSH1 0x2 PUSH0 CALLER PUSH20 0xFFFFFFFFFFFFFFFFFFFFFFFFFFFFFFFFFFFFFFFF AND PUSH20 0xFFFFFFFFFFFFFFFFFFFFFFFFFFFFFFFFFFFFFFFF AND DUP2 MSTORE PUSH1 0x20 ADD SWAP1 DUP2 MSTORE PUSH1 0x20 ADD PUSH0 KECCAK256 PUSH0 ADD PUSH0 DUP3 DUP3 DUP3 SWAP1 SLOAD SWAP1 PUSH2 0x100 EXP SWAP1 DIV PUSH4 0xFFFFFFFF AND PUSH2 0x10AA SWAP2 SWAP1 PUSH2 0x17E1 JUMP JUMPDEST SWAP3 POP PUSH2 0x100 EXP DUP2 SLOAD DUP2 PUSH4 0xFFFFFFFF MUL NOT AND SWAP1 DUP4 PUSH4 0xFFFFFFFF AND MUL OR SWAP1 SSTORE POP DUP2 PUSH1 0x2 PUSH0 DUP6 PUSH20 0xFFFFFFFFFFFFFFFFFFFFFFFFFFFFFFFFFFFFFFFF AND PUSH20 0xFFFFFFFFFFFFFFFFFFFFFFFFFFFFFFFFFFFFFFFF AND DUP2 MSTORE PUSH1 0x20 ADD SWAP1 DUP2 MSTORE PUSH1 0x20 ADD PUSH0 KECCAK256 PUSH0 ADD PUSH0 DUP3 DUP3 DUP3 SWAP1 SLOAD SWAP1 PUSH2 0x100 EXP SWAP1 DIV PUSH4 0xFFFFFFFF AND PUSH2 0x1125 SWAP2 SWAP1 PUSH2 0x1854 JUMP JUMPDEST SWAP3 POP PUSH2 0x100 EXP DUP2 SLOAD DUP2 PUSH4 0xFFFFFFFF MUL NOT AND SWAP1 DUP4 PUSH4 0xFFFFFFFF AND MUL OR SWAP1 SSTORE POP PUSH1 0x1 PUSH1 0x14 SWAP1 SLOAD SWAP1 PUSH2 0x100 EXP SWAP1 DIV PUSH4 0xFFFFFFFF AND PUSH4 0xFFFFFFFF AND PUSH1 0x2 PUSH0 DUP6 PUSH20 0xFFFFFFFFFFFFFFFFFFFFFFFFFFFFFFFFFFFFFFFF AND PUSH20 0xFFFFFFFFFFFFFFFFFFFFFFFFFFFFFFFFFFFFFFFF AND DUP2 MSTORE PUSH1 0x20 ADD SWAP1 DUP2 MSTORE PUSH1 0x20 ADD PUSH0 KECCAK256 PUSH0 ADD PUSH0 SWAP1 SLOAD SWAP1 PUSH2 0x100 EXP SWAP1 DIV PUSH4 0xFFFFFFFF AND PUSH4 0xFFFFFFFF AND GT ISZERO PUSH2 0x11C0 JUMPI PUSH2 0x11BF PUSH2 0x18DF JUMP JUMPDEST JUMPDEST POP POP POP JUMP JUMPDEST PUSH0 DUP1 SLOAD SWAP1 PUSH2 0x100 EXP SWAP1 DIV PUSH20 0xFFFFFFFFFFFFFFFFFFFFFFFFFFFFFFFFFFFFFFFF AND DUP1 PUSH20 0xFFFFFFFFFFFFFFFFFFFFFFFFFFFFFFFFFFFFFFFF AND CALLER PUSH20 0xFFFFFFFFFFFFFFFFFFFFFFFFFFFFFFFFFFFFFFFF AND EQ PUSH2 0x121C JUMPI PUSH0 DUP1 REVERT JUMPDEST DUP2 PUSH1 0x1 PUSH0 PUSH2 0x100 EXP DUP2 SLOAD DUP2 PUSH20 0xFFFFFFFFFFFFFFFFFFFFFFFFFFFFFFFFFFFFFFFF MUL NOT AND SWAP1 DUP4 PUSH20 0xFFFFFFFFFFFFFFFFFFFFFFFFFFFFFFFFFFFFFFFF AND MUL OR SWAP1 SSTORE POP POP POP JUMP JUMPDEST PUSH1 0x1 PUSH0 SWAP1 SLOAD SWAP1 PUSH2 0x100 EXP SWAP1 DIV PUSH20 0xFFFFFFFFFFFFFFFFFFFFFFFFFFFFFFFFFFFFFFFF AND DUP1 PUSH20 0xFFFFFFFFFFFFFFFFFFFFFFFFFFFFFFFFFFFFFFFF AND CALLER PUSH20 0xFFFFFFFFFFFFFFFFFFFFFFFFFFFFFFFFFFFFFFFF AND EQ PUSH2 0x12B9 JUMPI PUSH0 DUP1 REVERT JUMPDEST PUSH1 0x1 PUSH0 SWAP1 SLOAD SWAP1 PUSH2 0x100 EXP SWAP1 DIV PUSH20 0xFFFFFFFFFFFFFFFFFFFFFFFFFFFFFFFFFFFFFFFF AND PUSH0 DUP1 PUSH2 0x100 EXP DUP2 SLOAD DUP2 PUSH20 0xFFFFFFFFFFFFFFFFFFFFFFFFFFFFFFFFFFFFFFFF MUL NOT AND SWAP1 DUP4 PUSH20 0xFFFFFFFFFFFFFFFFFFFFFFFFFFFFFFFFFFFFFFFF AND MUL OR SWAP1 SSTORE POP PUSH1 0x1 PUSH0 PUSH2 0x100 EXP DUP2 SLOAD SWAP1 PUSH20 0xFFFFFFFFFFFFFFFFFFFFFFFFFFFFFFFFFFFFFFFF MUL NOT AND SWAP1 SSTORE POP JUMP JUMPDEST PUSH0 DUP1 DUP4 PUSH20 0xFFFFFFFFFFFFFFFFFFFFFFFFFFFFFFFFFFFFFFFF AND DUP4 PUSH4 0xFFFFFFFF AND PUSH1 0x40 MLOAD PUSH2 0x136C SWAP1 PUSH2 0x1939 JUMP JUMPDEST PUSH0 PUSH1 0x40 MLOAD DUP1 DUP4 SUB DUP2 DUP6 DUP8 GAS CALL SWAP3 POP POP POP RETURNDATASIZE DUP1 PUSH0 DUP2 EQ PUSH2 0x13A6 JUMPI PUSH1 0x40 MLOAD SWAP2 POP PUSH1 0x1F NOT PUSH1 0x3F RETURNDATASIZE ADD AND DUP3 ADD PUSH1 0x40 MSTORE RETURNDATASIZE DUP3 MSTORE RETURNDATASIZE PUSH0 PUSH1 0x20 DUP5 ADD RETURNDATACOPY PUSH2 0x13AB JUMP JUMPDEST PUSH1 0x60 SWAP2 POP JUMPDEST POP SWAP2 POP SWAP2 POP DUP2 PUSH2 0x13F0 JUMPI PUSH1 0x40 MLOAD PUSH32 0x8C379A000000000000000000000000000000000000000000000000000000000 DUP2 MSTORE PUSH1 0x4 ADD PUSH2 0x13E7 SWAP1 PUSH2 0x19A7 JUMP JUMPDEST PUSH1 0x40 MLOAD DUP1 SWAP2 SUB SWAP1 REVERT JUMPDEST POP POP POP POP JUMP JUMPDEST PUSH1 0x40 MLOAD DUP1 PUSH1 0xA0 ADD PUSH1 0x40 MSTORE DUP1 PUSH0 PUSH20 0xFFFFFFFFFFFFFFFFFFFFFFFFFFFFFFFFFFFFFFFF AND DUP2 MSTORE PUSH1 0x20 ADD PUSH0 PUSH4 0xFFFFFFFF AND DUP2 MSTORE PUSH1 0x20 ADD PUSH0 PUSH4 0xFFFFFFFF AND DUP2 MSTORE PUSH1 0x20 ADD PUSH0 DUP2 MSTORE PUSH1 0x20 ADD PUSH0 PUSH1 0x2 DUP2 GT ISZERO PUSH2 0x144E JUMPI PUSH2 0x144D PUSH2 0x1616 JUMP JUMPDEST JUMPDEST DUP2 MSTORE POP SWAP1 JUMP JUMPDEST PUSH0 DUP1 REVERT JUMPDEST PUSH0 DUP2 SWAP1 POP SWAP2 SWAP1 POP JUMP JUMPDEST PUSH2 0x146A DUP2 PUSH2 0x1458 JUMP JUMPDEST DUP2 EQ PUSH2 0x1474 JUMPI PUSH0 DUP1 REVERT JUMPDEST POP JUMP JUMPDEST PUSH0 DUP2 CALLDATALOAD SWAP1 POP PUSH2 0x1485 DUP2 PUSH2 0x1461 JUMP JUMPDEST SWAP3 SWAP2 POP POP JUMP JUMPDEST PUSH0 PUSH1 0x20 DUP3 DUP5 SUB SLT ISZERO PUSH2 0x14A0 JUMPI PUSH2 0x149F PUSH2 0x1454 JUMP JUMPDEST JUMPDEST PUSH0 PUSH2 0x14AD DUP5 DUP3 DUP6 ADD PUSH2 0x1477 JUMP JUMPDEST SWAP2 POP POP SWAP3 SWAP2 POP POP JUMP JUMPDEST PUSH0 PUSH20 0xFFFFFFFFFFFFFFFFFFFFFFFFFFFFFFFFFFFFFFFF DUP3 AND SWAP1 POP SWAP2 SWAP1 POP JUMP JUMPDEST PUSH0 PUSH2 0x14DF DUP3 PUSH2 0x14B6 JUMP JUMPDEST SWAP1 POP SWAP2 SWAP1 POP JUMP JUMPDEST PUSH2 0x14EF DUP2 PUSH2 0x14D5 JUMP JUMPDEST DUP3 MSTORE POP POP JUMP JUMPDEST PUSH0 PUSH1 0x20 DUP3 ADD SWAP1 POP PUSH2 0x1508 PUSH0 DUP4 ADD DUP5 PUSH2 0x14E6 JUMP JUMPDEST SWAP3 SWAP2 POP POP JUMP JUMPDEST PUSH0 PUSH4 0xFFFFFFFF DUP3 AND SWAP1 POP SWAP2 SWAP1 POP JUMP JUMPDEST PUSH2 0x1526 DUP2 PUSH2 0x150E JUMP JUMPDEST DUP2 EQ PUSH2 0x1530 JUMPI PUSH0 DUP1 REVERT JUMPDEST POP JUMP JUMPDEST PUSH0 DUP2 CALLDATALOAD SWAP1 POP PUSH2 0x1541 DUP2 PUSH2 0x151D JUMP JUMPDEST SWAP3 SWAP2 POP POP JUMP JUMPDEST PUSH0 DUP1 PUSH1 0x40 DUP4 DUP6 SUB SLT ISZERO PUSH2 0x155D JUMPI PUSH2 0x155C PUSH2 0x1454 JUMP JUMPDEST JUMPDEST PUSH0 PUSH2 0x156A DUP6 DUP3 DUP7 ADD PUSH2 0x1533 JUMP JUMPDEST SWAP3 POP POP PUSH1 0x20 PUSH2 0x157B DUP6 DUP3 DUP7 ADD PUSH2 0x1533 JUMP JUMPDEST SWAP2 POP POP SWAP3 POP SWAP3 SWAP1 POP JUMP JUMPDEST PUSH2 0x158E DUP2 PUSH2 0x14D5 JUMP JUMPDEST DUP2 EQ PUSH2 0x1598 JUMPI PUSH0 DUP1 REVERT JUMPDEST POP JUMP JUMPDEST PUSH0 DUP2 CALLDATALOAD SWAP1 POP PUSH2 0x15A9 DUP2 PUSH2 0x1585 JUMP JUMPDEST SWAP3 SWAP2 POP POP JUMP JUMPDEST PUSH0 PUSH1 0x20 DUP3 DUP5 SUB SLT ISZERO PUSH2 0x15C4 JUMPI PUSH2 0x15C3 PUSH2 0x1454 JUMP JUMPDEST JUMPDEST PUSH0 PUSH2 0x15D1 DUP5 DUP3 DUP6 ADD PUSH2 0x159B JUMP JUMPDEST SWAP2 POP POP SWAP3 SWAP2 POP POP JUMP JUMPDEST PUSH2 0x15E3 DUP2 PUSH2 0x150E JUMP JUMPDEST DUP3 MSTORE POP POP JUMP JUMPDEST PUSH2 0x15F2 DUP2 PUSH2 0x14D5 JUMP JUMPDEST DUP3 MSTORE POP POP JUMP JUMPDEST PUSH2 0x1601 DUP2 PUSH2 0x150E JUMP JUMPDEST DUP3 MSTORE POP POP JUMP JUMPDEST PUSH2 0x1610 DUP2 PUSH2 0x1458 JUMP JUMPDEST DUP3 MSTORE POP POP JUMP JUMPDEST PUSH32 0x4E487B7100000000000000000000000000000000000000000000000000000000 PUSH0 MSTORE PUSH1 0x21 PUSH1 0x4 MSTORE PUSH1 0x24 PUSH0 REVERT JUMPDEST PUSH1 0x3 DUP2 LT PUSH2 0x1654 JUMPI PUSH2 0x1653 PUSH2 0x1616 JUMP JUMPDEST JUMPDEST POP JUMP JUMPDEST PUSH0 DUP2 SWAP1 POP PUSH2 0x1664 DUP3 PUSH2 0x1643 JUMP JUMPDEST SWAP2 SWAP1 POP JUMP JUMPDEST PUSH0 PUSH2 0x1673 DUP3 PUSH2 0x1657 JUMP JUMPDEST SWAP1 POP SWAP2 SWAP1 POP JUMP JUMPDEST PUSH2 0x1683 DUP2 PUSH2 0x1669 JUMP JUMPDEST DUP3 MSTORE POP POP JUMP JUMPDEST PUSH1 0xA0 DUP3 ADD PUSH0 DUP3 ADD MLOAD PUSH2 0x169D PUSH0 DUP6 ADD DUP3 PUSH2 0x15E9 JUMP JUMPDEST POP PUSH1 0x20 DUP3 ADD MLOAD PUSH2 0x16B0 PUSH1 0x20 DUP6 ADD DUP3 PUSH2 0x15F8 JUMP JUMPDEST POP PUSH1 0x40 DUP3 ADD MLOAD PUSH2 0x16C3 PUSH1 0x40 DUP6 ADD DUP3 PUSH2 0x15F8 JUMP JUMPDEST POP PUSH1 0x60 DUP3 ADD MLOAD PUSH2 0x16D6 PUSH1 0x60 DUP6 ADD DUP3 PUSH2 0x1607 JUMP JUMPDEST POP PUSH1 0x80 DUP3 ADD MLOAD PUSH2 0x16E9 PUSH1 0x80 DUP6 ADD DUP3 PUSH2 0x167A JUMP JUMPDEST POP POP POP POP JUMP JUMPDEST PUSH0 PUSH1 0xC0 DUP3 ADD SWAP1 POP PUSH2 0x1702 PUSH0 DUP4 ADD DUP6 PUSH2 0x15DA JUMP JUMPDEST PUSH2 0x170F PUSH1 0x20 DUP4 ADD DUP5 PUSH2 0x1689 JUMP JUMPDEST SWAP4 SWAP3 POP POP POP JUMP JUMPDEST PUSH0 DUP1 PUSH1 0x40 DUP4 DUP6 SUB SLT ISZERO PUSH2 0x172C JUMPI PUSH2 0x172B PUSH2 0x1454 JUMP JUMPDEST JUMPDEST PUSH0 PUSH2 0x1739 DUP6 DUP3 DUP7 ADD PUSH2 0x159B JUMP JUMPDEST SWAP3 POP POP PUSH1 0x20 PUSH2 0x174A DUP6 DUP3 DUP7 ADD PUSH2 0x1533 JUMP JUMPDEST SWAP2 POP POP SWAP3 POP SWAP3 SWAP1 POP JUMP JUMPDEST PUSH32 0x4E487B7100000000000000000000000000000000000000000000000000000000 PUSH0 MSTORE PUSH1 0x11 PUSH1 0x4 MSTORE PUSH1 0x24 PUSH0 REVERT JUMPDEST PUSH0 PUSH2 0x178B DUP3 PUSH2 0x1458 JUMP JUMPDEST SWAP2 POP PUSH2 0x1796 DUP4 PUSH2 0x1458 JUMP JUMPDEST SWAP3 POP DUP3 DUP3 SUB SWAP1 POP DUP2 DUP2 GT ISZERO PUSH2 0x17AE JUMPI PUSH2 0x17AD PUSH2 0x1754 JUMP JUMPDEST JUMPDEST SWAP3 SWAP2 POP POP JUMP JUMPDEST PUSH32 0x4E487B7100000000000000000000000000000000000000000000000000000000 PUSH0 MSTORE PUSH1 0x32 PUSH1 0x4 MSTORE PUSH1 0x24 PUSH0 REVERT JUMPDEST PUSH0 PUSH2 0x17EB DUP3 PUSH2 0x150E JUMP JUMPDEST SWAP2 POP PUSH2 0x17F6 DUP4 PUSH2 0x150E JUMP JUMPDEST SWAP3 POP DUP3 DUP3 SUB SWAP1 POP PUSH4 0xFFFFFFFF DUP2 GT ISZERO PUSH2 0x1812 JUMPI PUSH2 0x1811 PUSH2 0x1754 JUMP JUMPDEST JUMPDEST SWAP3 SWAP2 POP POP JUMP JUMPDEST PUSH0 PUSH2 0x1822 DUP3 PUSH2 0x150E JUMP JUMPDEST SWAP2 POP PUSH2 0x182D DUP4 PUSH2 0x150E JUMP JUMPDEST SWAP3 POP DUP3 DUP3 MUL PUSH2 0x183B DUP2 PUSH2 0x150E JUMP JUMPDEST SWAP2 POP DUP1 DUP3 EQ PUSH2 0x184D JUMPI PUSH2 0x184C PUSH2 0x1754 JUMP JUMPDEST JUMPDEST POP SWAP3 SWAP2 POP POP JUMP JUMPDEST PUSH0 PUSH2 0x185E DUP3 PUSH2 0x150E JUMP JUMPDEST SWAP2 POP PUSH2 0x1869 DUP4 PUSH2 0x150E JUMP JUMPDEST SWAP3 POP DUP3 DUP3 ADD SWAP1 POP PUSH4 0xFFFFFFFF DUP2 GT ISZERO PUSH2 0x1885 JUMPI PUSH2 0x1884 PUSH2 0x1754 JUMP JUMPDEST JUMPDEST SWAP3 SWAP2 POP POP JUMP JUMPDEST PUSH32 0x4E487B7100000000000000000000000000000000000000000000000000000000 PUSH0 MSTORE PUSH1 0x31 PUSH1 0x4 MSTORE PUSH1 0x24 PUSH0 REVERT JUMPDEST PUSH0 PUSH2 0x18C2 DUP3 PUSH2 0x1458 JUMP JUMPDEST SWAP2 POP PUSH0 DUP3 SUB PUSH2 0x18D4 JUMPI PUSH2 0x18D3 PUSH2 0x1754 JUMP JUMPDEST JUMPDEST PUSH1 0x1 DUP3 SUB SWAP1 POP SWAP2 SWAP1 POP JUMP JUMPDEST PUSH32 0x4E487B7100000000000000000000000000000000000000000000000000000000 PUSH0 MSTORE PUSH1 0x1 PUSH1 0x4 MSTORE PUSH1 0x24 PUSH0 REVERT JUMPDEST PUSH0 DUP2 SWAP1 POP SWAP3 SWAP2 POP POP JUMP JUMPDEST POP JUMP JUMPDEST PUSH0 PUSH2 0x1924 PUSH0 DUP4 PUSH2 0x190C JUMP JUMPDEST SWAP2 POP PUSH2 0x192F DUP3 PUSH2 0x1916 JUMP JUMPDEST PUSH0 DUP3 ADD SWAP1 POP SWAP2 SWAP1 POP JUMP JUMPDEST PUSH0 PUSH2 0x1943 DUP3 PUSH2 0x1919 JUMP JUMPDEST SWAP2 POP DUP2 SWAP1 POP SWAP2 SWAP1 POP JUMP JUMPDEST PUSH0 DUP3 DUP3 MSTORE PUSH1 0x20 DUP3 ADD SWAP1 POP SWAP3 SWAP2 POP POP JUMP JUMPDEST PUSH32 0x4661696C656420746F2073656E64204574686572000000000000000000000000 PUSH0 DUP3 ADD MSTORE POP JUMP JUMPDEST PUSH0 PUSH2 0x1991 PUSH1 0x14 DUP4 PUSH2 0x194D JUMP JUMPDEST SWAP2 POP PUSH2 0x199C DUP3 PUSH2 0x195D JUMP JUMPDEST PUSH1 0x20 DUP3 ADD SWAP1 POP SWAP2 SWAP1 POP JUMP JUMPDEST PUSH0 PUSH1 0x20 DUP3 ADD SWAP1 POP DUP2 DUP2 SUB PUSH0 DUP4 ADD MSTORE PUSH2 0x19BE DUP2 PUSH2 0x1985 JUMP JUMPDEST SWAP1 POP SWAP2 SWAP1 POP JUMP INVALID LOG2 PUSH5 0x6970667358 0x22 SLT KECCAK256 0x1E 0x4C EXTCODESIZE SELFBALANCE MUL INVALID JUMPI 0xC9 SWAP16 SWAP15 0xC2 0xBB SWAP5 DUP10 0xBC 0xA6 LOG3 0xB1 DUP7 0xC2 0xA9 DUP11 LOG0 0xCD 0xF8 0x1F 0xB2 SELFBALANCE CHAINID SGT STATICCALL SWAP15 PUSH5 0x736F6C6343 STOP ADDMOD NOT STOP CALLER "
				},
				"gasEstimates": {
					"creation": {
						"codeDepositCost": "1330200",
						"executionCost": "76507",
						"totalCost": "1406707"
					},
					"external": {
						"ClaimOwnership()": "53047",
						"chooseNewOwner(address)": "26952",
						"sellRequest(uint32,uint32)": "infinite",
						"sellRequests(uint256)": "4922",
						"send(address,uint32)": "infinite",
						"users(address)": "infinite"
					},
					"internal": {
						"sendEther(address payable,uint32)": "infinite"
					}
				},
				"methodIdentifiers": {
					"ClaimOwnership()": "fec0244c",
					"chooseNewOwner(address)": "f58d0d5c",
					"sellRequest(uint32,uint32)": "658f7fb5",
					"sellRequests(uint256)": "1a5230bb",
					"send(address,uint32)": "c7734ea2",
					"users(address)": "a87430ba"
				}
			},
			"storageLayout": {
				"storage": [
					{
						"astId": 3,
						"contract": "src/solt.sol:solt",
						"label": "onwer",
						"offset": 0,
						"slot": "0",
						"type": "t_address"
					},
					{
						"astId": 5,
						"contract": "src/solt.sol:solt",
						"label": "nextOwner",
						"offset": 0,
						"slot": "1",
						"type": "t_address"
					},
					{
						"astId": 8,
						"contract": "src/solt.sol:solt",
						"label": "coinCount",
						"offset": 20,
						"slot": "1",
						"type": "t_uint32"
					},
					{
						"astId": 35,
						"contract": "src/solt.sol:solt",
						"label": "users",
						"offset": 0,
						"slot": "2",
						"type": "t_mapping(t_address,t_struct(User)30_storage)"
					},
					{
						"astId": 38,
						"contract": "src/solt.sol:solt",
						"label": "sellRequests",
						"offset": 0,
						"slot": "3",
						"type": "t_array(t_address)dyn_storage"
					},
					{
						"astId": 41,
						"contract": "src/solt.sol:solt",
						"label": "buyRequests",
						"offset": 0,
						"slot": "4",
						"type": "t_array(t_address)dyn_storage"
					}
				],
				"types": {
					"t_address": {
						"encoding": "inplace",
						"label": "address",
						"numberOfBytes": "20"
					},
					"t_array(t_address)dyn_storage": {
						"base": "t_address",
						"encoding": "dynamic_array",
						"label": "address[]",
						"numberOfBytes": "32"
					},
					"t_enum(RequestTypes)12": {
						"encoding": "inplace",
						"label": "enum solt.RequestTypes",
						"numberOfBytes": "1"
					},
					"t_mapping(t_address,t_struct(User)30_storage)": {
						"encoding": "mapping",
						"key": "t_address",
						"label": "mapping(address => struct solt.User)",
						"numberOfBytes": "32",
						"value": "t_struct(User)30_storage"
					},
					"t_struct(User)30_storage": {
						"encoding": "inplace",
						"label": "struct solt.User",
						"members": [
							{
								"astId": 26,
								"contract": "src/solt.sol:solt",
								"label": "balance",
								"offset": 0,
								"slot": "0",
								"type": "t_uint32"
							},
							{
								"astId": 29,
								"contract": "src/solt.sol:solt",
								"label": "Request",
								"offset": 0,
								"slot": "1",
								"type": "t_struct(userRequest)24_storage"
							}
						],
						"numberOfBytes": "128"
					},
					"t_struct(userRequest)24_storage": {
						"encoding": "inplace",
						"label": "struct solt.userRequest",
						"members": [
							{
								"astId": 14,
								"contract": "src/solt.sol:solt",
								"label": "userAddress",
								"offset": 0,
								"slot": "0",
								"type": "t_address"
							},
							{
								"astId": 16,
								"contract": "src/solt.sol:solt",
								"label": "amount",
								"offset": 20,
								"slot": "0",
								"type": "t_uint32"
							},
							{
								"astId": 18,
								"contract": "src/solt.sol:solt",
								"label": "coinPrice",
								"offset": 24,
								"slot": "0",
								"type": "t_uint32"
							},
							{
								"astId": 20,
								"contract": "src/solt.sol:solt",
								"label": "time",
								"offset": 0,
								"slot": "1",
								"type": "t_uint256"
							},
							{
								"astId": 23,
								"contract": "src/solt.sol:solt",
								"label": "Type",
								"offset": 0,
								"slot": "2",
								"type": "t_enum(RequestTypes)12"
							}
						],
						"numberOfBytes": "96"
					},
					"t_uint256": {
						"encoding": "inplace",
						"label": "uint256",
						"numberOfBytes": "32"
					},
					"t_uint32": {
						"encoding": "inplace",
						"label": "uint32",
						"numberOfBytes": "4"
					}
				}
			},
			"userdoc": {
				"kind": "user",
				"methods": {},
				"version": 1
			}
		}
	}
}