{
	"src/exchange.sol": {
		"exchange": {
			"abi": [
				{
					"inputs": [
						{
							"internalType": "address",
							"name": "_owner",
							"type": "address"
						}
					],
					"stateMutability": "nonpayable",
					"type": "constructor"
				},
				{
					"anonymous": false,
					"inputs": [
						{
							"indexed": true,
							"internalType": "address",
							"name": "newContractOwner",
							"type": "address"
						}
					],
					"name": "ContractOwnershipTransferFinished",
					"type": "event"
				},
				{
					"anonymous": false,
					"inputs": [
						{
							"indexed": true,
							"internalType": "address",
							"name": "from",
							"type": "address"
						},
						{
							"indexed": true,
							"internalType": "address",
							"name": "to",
							"type": "address"
						}
					],
					"name": "ContractOwnershipTransferStarted",
					"type": "event"
				},
				{
					"inputs": [
						{
							"internalType": "address",
							"name": "coinAddress",
							"type": "address"
						},
						{
							"internalType": "uint256",
							"name": "amount",
							"type": "uint256"
						},
						{
							"internalType": "uint256",
							"name": "coinPrice",
							"type": "uint256"
						}
					],
					"name": "buyRequest",
					"outputs": [],
					"stateMutability": "payable",
					"type": "function"
				},
				{
					"inputs": [
						{
							"internalType": "address",
							"name": "",
							"type": "address"
						},
						{
							"internalType": "uint256",
							"name": "",
							"type": "uint256"
						}
					],
					"name": "buyRequestants",
					"outputs": [
						{
							"internalType": "address",
							"name": "",
							"type": "address"
						}
					],
					"stateMutability": "view",
					"type": "function"
				},
				{
					"inputs": [],
					"name": "claimTokenOwnership",
					"outputs": [
						{
							"internalType": "bool",
							"name": "",
							"type": "bool"
						}
					],
					"stateMutability": "nonpayable",
					"type": "function"
				},
				{
					"inputs": [],
					"name": "contractOwner",
					"outputs": [
						{
							"internalType": "address",
							"name": "",
							"type": "address"
						}
					],
					"stateMutability": "view",
					"type": "function"
				},
				{
					"inputs": [],
					"name": "nextContractOwner",
					"outputs": [
						{
							"internalType": "address",
							"name": "",
							"type": "address"
						}
					],
					"stateMutability": "view",
					"type": "function"
				},
				{
					"inputs": [
						{
							"internalType": "address",
							"name": "tokenAddress",
							"type": "address"
						},
						{
							"internalType": "uint256",
							"name": "amount",
							"type": "uint256"
						},
						{
							"internalType": "uint256",
							"name": "coinPrice",
							"type": "uint256"
						}
					],
					"name": "sellRequest",
					"outputs": [],
					"stateMutability": "nonpayable",
					"type": "function"
				},
				{
					"inputs": [
						{
							"internalType": "address",
							"name": "",
							"type": "address"
						},
						{
							"internalType": "uint256",
							"name": "",
							"type": "uint256"
						}
					],
					"name": "sellRequestants",
					"outputs": [
						{
							"internalType": "address",
							"name": "",
							"type": "address"
						}
					],
					"stateMutability": "view",
					"type": "function"
				},
				{
					"inputs": [
						{
							"internalType": "address",
							"name": "_nextContractOwner",
							"type": "address"
						}
					],
					"name": "transferContractOwnership",
					"outputs": [
						{
							"internalType": "bool",
							"name": "",
							"type": "bool"
						}
					],
					"stateMutability": "nonpayable",
					"type": "function"
				},
				{
					"inputs": [
						{
							"internalType": "address",
							"name": "",
							"type": "address"
						}
					],
					"name": "users",
					"outputs": [
						{
							"components": [
								{
									"internalType": "address",
									"name": "tokenAddress",
									"type": "address"
								},
								{
									"internalType": "uint256",
									"name": "amount",
									"type": "uint256"
								},
								{
									"internalType": "uint256",
									"name": "coinPrice",
									"type": "uint256"
								},
								{
									"internalType": "uint256",
									"name": "time",
									"type": "uint256"
								},
								{
									"internalType": "enum exchange.RequestTypes",
									"name": "Type",
									"type": "uint8"
								}
							],
							"internalType": "struct exchange.UserRequest",
							"name": "Request",
							"type": "tuple"
						}
					],
					"stateMutability": "view",
					"type": "function"
				}
			],
			"devdoc": {
				"kind": "dev",
				"methods": {},
				"version": 1
			},
			"evm": {
				"assembly": "    /* \"src/exchange.sol\":133:7860  contract exchange{... */\n  mstore(0x40, 0x80)\n    /* \"src/exchange.sol\":2394:2462  constructor(address _owner){... */\n  callvalue\n  dup1\n  iszero\n  tag_1\n  jumpi\n  0x00\n  dup1\n  revert\ntag_1:\n  pop\n  mload(0x40)\n  sub(codesize, bytecodeSize)\n  dup1\n  bytecodeSize\n  dup4\n  codecopy\n  dup2\n  dup2\n  add\n  0x40\n  mstore\n  dup2\n  add\n  swap1\n  tag_2\n  swap2\n  swap1\n  tag_3\n  jump\t// in\ntag_2:\n    /* \"src/exchange.sol\":2448:2454  _owner */\n  dup1\n    /* \"src/exchange.sol\":2432:2445  contractOwner */\n  0x00\n  dup1\n    /* \"src/exchange.sol\":2432:2454  contractOwner = _owner */\n  0x0100\n  exp\n  dup2\n  sload\n  dup2\n  0xffffffffffffffffffffffffffffffffffffffff\n  mul\n  not\n  and\n  swap1\n  dup4\n  0xffffffffffffffffffffffffffffffffffffffff\n  and\n  mul\n  or\n  swap1\n  sstore\n  pop\n    /* \"src/exchange.sol\":2394:2462  constructor(address _owner){... */\n  pop\n    /* \"src/exchange.sol\":133:7860  contract exchange{... */\n  jump(tag_6)\n    /* \"#utility.yul\":88:205   */\ntag_8:\n    /* \"#utility.yul\":197:198   */\n  0x00\n    /* \"#utility.yul\":194:195   */\n  dup1\n    /* \"#utility.yul\":187:199   */\n  revert\n    /* \"#utility.yul\":334:460   */\ntag_10:\n    /* \"#utility.yul\":371:378   */\n  0x00\n    /* \"#utility.yul\":411:453   */\n  0xffffffffffffffffffffffffffffffffffffffff\n    /* \"#utility.yul\":404:409   */\n  dup3\n    /* \"#utility.yul\":400:454   */\n  and\n    /* \"#utility.yul\":389:454   */\n  swap1\n  pop\n    /* \"#utility.yul\":334:460   */\n  swap2\n  swap1\n  pop\n  jump\t// out\n    /* \"#utility.yul\":466:562   */\ntag_11:\n    /* \"#utility.yul\":503:510   */\n  0x00\n    /* \"#utility.yul\":532:556   */\n  tag_20\n    /* \"#utility.yul\":550:555   */\n  dup3\n    /* \"#utility.yul\":532:556   */\n  tag_10\n  jump\t// in\ntag_20:\n    /* \"#utility.yul\":521:556   */\n  swap1\n  pop\n    /* \"#utility.yul\":466:562   */\n  swap2\n  swap1\n  pop\n  jump\t// out\n    /* \"#utility.yul\":568:690   */\ntag_12:\n    /* \"#utility.yul\":641:665   */\n  tag_22\n    /* \"#utility.yul\":659:664   */\n  dup2\n    /* \"#utility.yul\":641:665   */\n  tag_11\n  jump\t// in\ntag_22:\n    /* \"#utility.yul\":634:639   */\n  dup2\n    /* \"#utility.yul\":631:666   */\n  eq\n    /* \"#utility.yul\":621:684   */\n  tag_23\n  jumpi\n    /* \"#utility.yul\":680:681   */\n  0x00\n    /* \"#utility.yul\":677:678   */\n  dup1\n    /* \"#utility.yul\":670:682   */\n  revert\n    /* \"#utility.yul\":621:684   */\ntag_23:\n    /* \"#utility.yul\":568:690   */\n  pop\n  jump\t// out\n    /* \"#utility.yul\":696:839   */\ntag_13:\n    /* \"#utility.yul\":753:758   */\n  0x00\n    /* \"#utility.yul\":784:790   */\n  dup2\n    /* \"#utility.yul\":778:791   */\n  mload\n    /* \"#utility.yul\":769:791   */\n  swap1\n  pop\n    /* \"#utility.yul\":800:833   */\n  tag_25\n    /* \"#utility.yul\":827:832   */\n  dup2\n    /* \"#utility.yul\":800:833   */\n  tag_12\n  jump\t// in\ntag_25:\n    /* \"#utility.yul\":696:839   */\n  swap3\n  swap2\n  pop\n  pop\n  jump\t// out\n    /* \"#utility.yul\":845:1196   */\ntag_3:\n    /* \"#utility.yul\":915:921   */\n  0x00\n    /* \"#utility.yul\":964:966   */\n  0x20\n    /* \"#utility.yul\":952:961   */\n  dup3\n    /* \"#utility.yul\":943:950   */\n  dup5\n    /* \"#utility.yul\":939:962   */\n  sub\n    /* \"#utility.yul\":935:967   */\n  slt\n    /* \"#utility.yul\":932:1051   */\n  iszero\n  tag_27\n  jumpi\n    /* \"#utility.yul\":970:1049   */\n  tag_28\n  tag_8\n  jump\t// in\ntag_28:\n    /* \"#utility.yul\":932:1051   */\ntag_27:\n    /* \"#utility.yul\":1090:1091   */\n  0x00\n    /* \"#utility.yul\":1115:1179   */\n  tag_29\n    /* \"#utility.yul\":1171:1178   */\n  dup5\n    /* \"#utility.yul\":1162:1168   */\n  dup3\n    /* \"#utility.yul\":1151:1160   */\n  dup6\n    /* \"#utility.yul\":1147:1169   */\n  add\n    /* \"#utility.yul\":1115:1179   */\n  tag_13\n  jump\t// in\ntag_29:\n    /* \"#utility.yul\":1105:1179   */\n  swap2\n  pop\n    /* \"#utility.yul\":1061:1189   */\n  pop\n    /* \"#utility.yul\":845:1196   */\n  swap3\n  swap2\n  pop\n  pop\n  jump\t// out\n    /* \"src/exchange.sol\":133:7860  contract exchange{... */\ntag_6:\n  dataSize(sub_0)\n  dup1\n  dataOffset(sub_0)\n  0x00\n  codecopy\n  0x00\n  return\nstop\n\nsub_0: assembly {\n        /* \"src/exchange.sol\":133:7860  contract exchange{... */\n      mstore(0x40, 0x80)\n      jumpi(tag_1, lt(calldatasize, 0x04))\n      shr(0xe0, calldataload(0x00))\n      dup1\n      0xa760e06a\n      gt\n      tag_11\n      jumpi\n      dup1\n      0xa760e06a\n      eq\n      tag_6\n      jumpi\n      dup1\n      0xa843c51f\n      eq\n      tag_7\n      jumpi\n      dup1\n      0xa87430ba\n      eq\n      tag_8\n      jumpi\n      dup1\n      0xc2eb05ba\n      eq\n      tag_9\n      jumpi\n      dup1\n      0xce606ee0\n      eq\n      tag_10\n      jumpi\n      jump(tag_1)\n    tag_11:\n      dup1\n      0x10731a65\n      eq\n      tag_2\n      jumpi\n      dup1\n      0x1fb64da0\n      eq\n      tag_3\n      jumpi\n      dup1\n      0x73b298e2\n      eq\n      tag_4\n      jumpi\n      dup1\n      0x83588b99\n      eq\n      tag_5\n      jumpi\n    tag_1:\n      0x00\n      dup1\n      revert\n        /* \"src/exchange.sol\":3007:3294  function claimTokenOwnership() external ... */\n    tag_2:\n      callvalue\n      dup1\n      iszero\n      tag_12\n      jumpi\n      0x00\n      dup1\n      revert\n    tag_12:\n      pop\n      tag_13\n      tag_14\n      jump\t// in\n    tag_13:\n      mload(0x40)\n      tag_15\n      swap2\n      swap1\n      tag_16\n      jump\t// in\n    tag_15:\n      mload(0x40)\n      dup1\n      swap2\n      sub\n      swap1\n      return\n        /* \"src/exchange.sol\":721:772  mapping(address => address[]) public buyRequestants */\n    tag_3:\n      callvalue\n      dup1\n      iszero\n      tag_17\n      jumpi\n      0x00\n      dup1\n      revert\n    tag_17:\n      pop\n      tag_18\n      0x04\n      dup1\n      calldatasize\n      sub\n      dup2\n      add\n      swap1\n      tag_19\n      swap2\n      swap1\n      tag_20\n      jump\t// in\n    tag_19:\n      tag_21\n      jump\t// in\n    tag_18:\n      mload(0x40)\n      tag_22\n      swap2\n      swap1\n      tag_23\n      jump\t// in\n    tag_22:\n      mload(0x40)\n      dup1\n      swap2\n      sub\n      swap1\n      return\n        /* \"src/exchange.sol\":3358:3852  function sellRequest(address tokenAddress, uint256 amount, uint256 coinPrice) external ... */\n    tag_4:\n      callvalue\n      dup1\n      iszero\n      tag_24\n      jumpi\n      0x00\n      dup1\n      revert\n    tag_24:\n      pop\n      tag_25\n      0x04\n      dup1\n      calldatasize\n      sub\n      dup2\n      add\n      swap1\n      tag_26\n      swap2\n      swap1\n      tag_27\n      jump\t// in\n    tag_26:\n      tag_28\n      jump\t// in\n    tag_25:\n      stop\n        /* \"src/exchange.sol\":662:714  mapping(address => address[]) public sellRequestants */\n    tag_5:\n      callvalue\n      dup1\n      iszero\n      tag_29\n      jumpi\n      0x00\n      dup1\n      revert\n    tag_29:\n      pop\n      tag_30\n      0x04\n      dup1\n      calldatasize\n      sub\n      dup2\n      add\n      swap1\n      tag_31\n      swap2\n      swap1\n      tag_20\n      jump\t// in\n    tag_31:\n      tag_32\n      jump\t// in\n    tag_30:\n      mload(0x40)\n      tag_33\n      swap2\n      swap1\n      tag_23\n      jump\t// in\n    tag_33:\n      mload(0x40)\n      dup1\n      swap2\n      sub\n      swap1\n      return\n        /* \"src/exchange.sol\":3860:4247  function buyRequest(address coinAddress, uint256 amount, uint256 coinPrice) public payable ... */\n    tag_6:\n      tag_34\n      0x04\n      dup1\n      calldatasize\n      sub\n      dup2\n      add\n      swap1\n      tag_35\n      swap2\n      swap1\n      tag_27\n      jump\t// in\n    tag_35:\n      tag_36\n      jump\t// in\n    tag_34:\n      stop\n        /* \"src/exchange.sol\":2568:2908  function transferContractOwnership(address _nextContractOwner) external ... */\n    tag_7:\n      callvalue\n      dup1\n      iszero\n      tag_37\n      jumpi\n      0x00\n      dup1\n      revert\n    tag_37:\n      pop\n      tag_38\n      0x04\n      dup1\n      calldatasize\n      sub\n      dup2\n      add\n      swap1\n      tag_39\n      swap2\n      swap1\n      tag_40\n      jump\t// in\n    tag_39:\n      tag_41\n      jump\t// in\n    tag_38:\n      mload(0x40)\n      tag_42\n      swap2\n      swap1\n      tag_16\n      jump\t// in\n    tag_42:\n      mload(0x40)\n      dup1\n      swap2\n      sub\n      swap1\n      return\n        /* \"src/exchange.sol\":554:591  mapping(address => User) public users */\n    tag_8:\n      callvalue\n      dup1\n      iszero\n      tag_43\n      jumpi\n      0x00\n      dup1\n      revert\n    tag_43:\n      pop\n      tag_44\n      0x04\n      dup1\n      calldatasize\n      sub\n      dup2\n      add\n      swap1\n      tag_45\n      swap2\n      swap1\n      tag_40\n      jump\t// in\n    tag_45:\n      tag_46\n      jump\t// in\n    tag_44:\n      mload(0x40)\n      tag_47\n      swap2\n      swap1\n      tag_48\n      jump\t// in\n    tag_47:\n      mload(0x40)\n      dup1\n      swap2\n      sub\n      swap1\n      return\n        /* \"src/exchange.sol\":198:230  address public nextContractOwner */\n    tag_9:\n      callvalue\n      dup1\n      iszero\n      tag_49\n      jumpi\n      0x00\n      dup1\n      revert\n    tag_49:\n      pop\n      tag_50\n      tag_51\n      jump\t// in\n    tag_50:\n      mload(0x40)\n      tag_52\n      swap2\n      swap1\n      tag_23\n      jump\t// in\n    tag_52:\n      mload(0x40)\n      dup1\n      swap2\n      sub\n      swap1\n      return\n        /* \"src/exchange.sol\":163:191  address public contractOwner */\n    tag_10:\n      callvalue\n      dup1\n      iszero\n      tag_53\n      jumpi\n      0x00\n      dup1\n      revert\n    tag_53:\n      pop\n      tag_54\n      tag_55\n      jump\t// in\n    tag_54:\n      mload(0x40)\n      tag_56\n      swap2\n      swap1\n      tag_23\n      jump\t// in\n    tag_56:\n      mload(0x40)\n      dup1\n      swap2\n      sub\n      swap1\n      return\n        /* \"src/exchange.sol\":3007:3294  function claimTokenOwnership() external ... */\n    tag_14:\n        /* \"src/exchange.sol\":3104:3108  bool */\n      0x00\n        /* \"src/exchange.sol\":3067:3084  nextContractOwner */\n      0x01\n      0x00\n      swap1\n      sload\n      swap1\n      0x0100\n      exp\n      swap1\n      div\n      0xffffffffffffffffffffffffffffffffffffffff\n      and\n        /* \"src/exchange.sol\":1396:1407  _authorized */\n      dup1\n        /* \"src/exchange.sol\":1382:1407  msg.sender == _authorized */\n      0xffffffffffffffffffffffffffffffffffffffff\n      and\n        /* \"src/exchange.sol\":1382:1392  msg.sender */\n      caller\n        /* \"src/exchange.sol\":1382:1407  msg.sender == _authorized */\n      0xffffffffffffffffffffffffffffffffffffffff\n      and\n      eq\n        /* \"src/exchange.sol\":1374:1436  require(msg.sender == _authorized, \"Caller is not authorized\") */\n      tag_58\n      jumpi\n      mload(0x40)\n      0x08c379a000000000000000000000000000000000000000000000000000000000\n      dup2\n      mstore\n      0x04\n      add\n      tag_59\n      swap1\n      tag_60\n      jump\t// in\n    tag_59:\n      mload(0x40)\n      dup1\n      swap2\n      sub\n      swap1\n      revert\n    tag_58:\n        /* \"src/exchange.sol\":3142:3159  nextContractOwner */\n      0x01\n      0x00\n      swap1\n      sload\n      swap1\n      0x0100\n      exp\n      swap1\n      div\n      0xffffffffffffffffffffffffffffffffffffffff\n      and\n        /* \"src/exchange.sol\":3126:3139  contractOwner */\n      0x00\n      dup1\n        /* \"src/exchange.sol\":3126:3159  contractOwner = nextContractOwner */\n      0x0100\n      exp\n      dup2\n      sload\n      dup2\n      0xffffffffffffffffffffffffffffffffffffffff\n      mul\n      not\n      and\n      swap1\n      dup4\n      0xffffffffffffffffffffffffffffffffffffffff\n      and\n      mul\n      or\n      swap1\n      sstore\n      pop\n        /* \"src/exchange.sol\":3198:3199  0 */\n      0x00\n        /* \"src/exchange.sol\":3170:3187  nextContractOwner */\n      0x01\n      0x00\n        /* \"src/exchange.sol\":3170:3200  nextContractOwner = address(0) */\n      0x0100\n      exp\n      dup2\n      sload\n      dup2\n      0xffffffffffffffffffffffffffffffffffffffff\n      mul\n      not\n      and\n      swap1\n      dup4\n      0xffffffffffffffffffffffffffffffffffffffff\n      and\n      mul\n      or\n      swap1\n      sstore\n      pop\n        /* \"src/exchange.sol\":3250:3263  contractOwner */\n      0x00\n      dup1\n      sload\n      swap1\n      0x0100\n      exp\n      swap1\n      div\n      0xffffffffffffffffffffffffffffffffffffffff\n      and\n        /* \"src/exchange.sol\":3216:3264  ContractOwnershipTransferFinished(contractOwner) */\n      0xffffffffffffffffffffffffffffffffffffffff\n      and\n      0x041e8ee868cb815a7e5cd1a100e6ff024772d79c071718c049ab7d3bc4e1226d\n      mload(0x40)\n      mload(0x40)\n      dup1\n      swap2\n      sub\n      swap1\n      log2\n        /* \"src/exchange.sol\":3282:3286  true */\n      0x01\n        /* \"src/exchange.sol\":3275:3286  return true */\n      swap2\n      pop\n        /* \"src/exchange.sol\":3007:3294  function claimTokenOwnership() external ... */\n      pop\n      swap1\n      jump\t// out\n        /* \"src/exchange.sol\":721:772  mapping(address => address[]) public buyRequestants */\n    tag_21:\n      mstore(0x20, 0x04)\n      dup2\n      0x00\n      mstore\n      keccak256(0x00, 0x40)\n      dup2\n      dup2\n      sload\n      dup2\n      lt\n      tag_62\n      jumpi\n      0x00\n      dup1\n      revert\n    tag_62:\n      swap1\n      0x00\n      mstore\n      keccak256(0x00, 0x20)\n      add\n      0x00\n      swap2\n      pop\n      swap2\n      pop\n      swap1\n      sload\n      swap1\n      0x0100\n      exp\n      swap1\n      div\n      0xffffffffffffffffffffffffffffffffffffffff\n      and\n      dup2\n      jump\t// out\n        /* \"src/exchange.sol\":3358:3852  function sellRequest(address tokenAddress, uint256 amount, uint256 coinPrice) external ... */\n    tag_28:\n        /* \"src/exchange.sol\":1988:2005  RequestTypes.NONE */\n      0x00\n        /* \"src/exchange.sol\":1954:2005  users[msg.sender].Request.Type == RequestTypes.NONE */\n      0x02\n      dup2\n      gt\n      iszero\n      tag_65\n      jumpi\n      tag_66\n      tag_67\n      jump\t// in\n    tag_66:\n    tag_65:\n        /* \"src/exchange.sol\":1954:1959  users */\n      0x02\n        /* \"src/exchange.sol\":1954:1971  users[msg.sender] */\n      0x00\n        /* \"src/exchange.sol\":1960:1970  msg.sender */\n      caller\n        /* \"src/exchange.sol\":1954:1971  users[msg.sender] */\n      0xffffffffffffffffffffffffffffffffffffffff\n      and\n      0xffffffffffffffffffffffffffffffffffffffff\n      and\n      dup2\n      mstore\n      0x20\n      add\n      swap1\n      dup2\n      mstore\n      0x20\n      add\n      0x00\n      keccak256\n        /* \"src/exchange.sol\":1954:1979  users[msg.sender].Request */\n      0x00\n      add\n        /* \"src/exchange.sol\":1954:1984  users[msg.sender].Request.Type */\n      0x04\n      add\n      0x00\n      swap1\n      sload\n      swap1\n      0x0100\n      exp\n      swap1\n      div\n      0xff\n      and\n        /* \"src/exchange.sol\":1954:2005  users[msg.sender].Request.Type == RequestTypes.NONE */\n      0x02\n      dup2\n      gt\n      iszero\n      tag_68\n      jumpi\n      tag_69\n      tag_67\n      jump\t// in\n    tag_69:\n    tag_68:\n      eq\n        /* \"src/exchange.sol\":1946:2006  require(users[msg.sender].Request.Type == RequestTypes.NONE) */\n      tag_70\n      jumpi\n      0x00\n      dup1\n      revert\n    tag_70:\n        /* \"src/exchange.sol\":3502:3514  tokenAddress */\n      dup3\n        /* \"src/exchange.sol\":3516:3522  amount */\n      dup3\n        /* \"src/exchange.sol\":1711:1718  _amount */\n      dup1\n        /* \"src/exchange.sol\":1657:1669  tokenAddress */\n      dup3\n        /* \"src/exchange.sol\":1650:1680  IERC20(tokenAddress).allowance */\n      0xffffffffffffffffffffffffffffffffffffffff\n      and\n      0xdd62ed3e\n        /* \"src/exchange.sol\":1681:1691  msg.sender */\n      caller\n        /* \"src/exchange.sol\":1701:1705  this */\n      address\n        /* \"src/exchange.sol\":1650:1707  IERC20(tokenAddress).allowance(msg.sender, address(this)) */\n      mload(0x40)\n      dup4\n      0xffffffff\n      and\n      0xe0\n      shl\n      dup2\n      mstore\n      0x04\n      add\n      tag_72\n      swap3\n      swap2\n      swap1\n      tag_73\n      jump\t// in\n    tag_72:\n      0x20\n      mload(0x40)\n      dup1\n      dup4\n      sub\n      dup2\n      dup7\n      gas\n      staticcall\n      iszero\n      dup1\n      iszero\n      tag_75\n      jumpi\n      returndatasize\n      0x00\n      dup1\n      returndatacopy\n      revert(0x00, returndatasize)\n    tag_75:\n      pop\n      pop\n      pop\n      pop\n      mload(0x40)\n      returndatasize\n      not(0x1f)\n      0x1f\n      dup3\n      add\n      and\n      dup3\n      add\n      dup1\n      0x40\n      mstore\n      pop\n      dup2\n      add\n      swap1\n      tag_76\n      swap2\n      swap1\n      tag_77\n      jump\t// in\n    tag_76:\n        /* \"src/exchange.sol\":1650:1718  IERC20(tokenAddress).allowance(msg.sender, address(this)) >= _amount */\n      lt\n      iszero\n        /* \"src/exchange.sol\":1642:1719  require(IERC20(tokenAddress).allowance(msg.sender, address(this)) >= _amount) */\n      tag_78\n      jumpi\n      0x00\n      dup1\n      revert\n    tag_78:\n        /* \"src/exchange.sol\":3551:3563  tokenAddress */\n      dup5\n        /* \"src/exchange.sol\":3565:3571  amount */\n      dup5\n        /* \"src/exchange.sol\":1874:1881  _amount */\n      dup1\n        /* \"src/exchange.sol\":1835:1847  tokenAddress */\n      dup3\n        /* \"src/exchange.sol\":1828:1858  IERC20(tokenAddress).balanceOf */\n      0xffffffffffffffffffffffffffffffffffffffff\n      and\n      0x70a08231\n        /* \"src/exchange.sol\":1859:1869  msg.sender */\n      caller\n        /* \"src/exchange.sol\":1828:1870  IERC20(tokenAddress).balanceOf(msg.sender) */\n      mload(0x40)\n      dup3\n      0xffffffff\n      and\n      0xe0\n      shl\n      dup2\n      mstore\n      0x04\n      add\n      tag_80\n      swap2\n      swap1\n      tag_23\n      jump\t// in\n    tag_80:\n      0x20\n      mload(0x40)\n      dup1\n      dup4\n      sub\n      dup2\n      dup7\n      gas\n      staticcall\n      iszero\n      dup1\n      iszero\n      tag_82\n      jumpi\n      returndatasize\n      0x00\n      dup1\n      returndatacopy\n      revert(0x00, returndatasize)\n    tag_82:\n      pop\n      pop\n      pop\n      pop\n      mload(0x40)\n      returndatasize\n      not(0x1f)\n      0x1f\n      dup3\n      add\n      and\n      dup3\n      add\n      dup1\n      0x40\n      mstore\n      pop\n      dup2\n      add\n      swap1\n      tag_83\n      swap2\n      swap1\n      tag_77\n      jump\t// in\n    tag_83:\n        /* \"src/exchange.sol\":1828:1881  IERC20(tokenAddress).balanceOf(msg.sender) >= _amount */\n      lt\n      iszero\n        /* \"src/exchange.sol\":1820:1882  require(IERC20(tokenAddress).balanceOf(msg.sender) >= _amount) */\n      tag_84\n      jumpi\n      0x00\n      dup1\n      revert\n    tag_84:\n        /* \"src/exchange.sol\":3622:3639  RequestTypes.SELL */\n      0x01\n        /* \"src/exchange.sol\":3589:3594  users */\n      0x02\n        /* \"src/exchange.sol\":3589:3606  users[msg.sender] */\n      0x00\n        /* \"src/exchange.sol\":3595:3605  msg.sender */\n      caller\n        /* \"src/exchange.sol\":3589:3606  users[msg.sender] */\n      0xffffffffffffffffffffffffffffffffffffffff\n      and\n      0xffffffffffffffffffffffffffffffffffffffff\n      and\n      dup2\n      mstore\n      0x20\n      add\n      swap1\n      dup2\n      mstore\n      0x20\n      add\n      0x00\n      keccak256\n        /* \"src/exchange.sol\":3589:3614  users[msg.sender].Request */\n      0x00\n      add\n        /* \"src/exchange.sol\":3589:3619  users[msg.sender].Request.Type */\n      0x04\n      add\n      0x00\n        /* \"src/exchange.sol\":3589:3639  users[msg.sender].Request.Type = RequestTypes.SELL */\n      0x0100\n      exp\n      dup2\n      sload\n      dup2\n      0xff\n      mul\n      not\n      and\n      swap1\n      dup4\n      0x02\n      dup2\n      gt\n      iszero\n      tag_86\n      jumpi\n      tag_87\n      tag_67\n      jump\t// in\n    tag_87:\n    tag_86:\n      mul\n      or\n      swap1\n      sstore\n      pop\n        /* \"src/exchange.sol\":3661:3673  tokenAddress */\n      dup7\n        /* \"src/exchange.sol\":3654:3687  IERC20(tokenAddress).transferFrom */\n      0xffffffffffffffffffffffffffffffffffffffff\n      and\n      0x23b872dd\n        /* \"src/exchange.sol\":3688:3698  msg.sender */\n      caller\n        /* \"src/exchange.sol\":3708:3712  this */\n      address\n        /* \"src/exchange.sol\":3715:3721  amount */\n      dup10\n        /* \"src/exchange.sol\":3654:3722  IERC20(tokenAddress).transferFrom(msg.sender, address(this), amount) */\n      mload(0x40)\n      dup5\n      0xffffffff\n      and\n      0xe0\n      shl\n      dup2\n      mstore\n      0x04\n      add\n      tag_88\n      swap4\n      swap3\n      swap2\n      swap1\n      tag_89\n      jump\t// in\n    tag_88:\n      0x20\n      mload(0x40)\n      dup1\n      dup4\n      sub\n      dup2\n      0x00\n      dup8\n      gas\n      call\n      iszero\n      dup1\n      iszero\n      tag_91\n      jumpi\n      returndatasize\n      0x00\n      dup1\n      returndatacopy\n      revert(0x00, returndatasize)\n    tag_91:\n      pop\n      pop\n      pop\n      pop\n      mload(0x40)\n      returndatasize\n      not(0x1f)\n      0x1f\n      dup3\n      add\n      and\n      dup3\n      add\n      dup1\n      0x40\n      mstore\n      pop\n      dup2\n      add\n      swap1\n      tag_92\n      swap2\n      swap1\n      tag_93\n      jump\t// in\n    tag_92:\n        /* \"src/exchange.sol\":3650:3767  if(!IERC20(tokenAddress).transferFrom(msg.sender, address(this), amount)) revert(\"Token transfer to exchange failed\") */\n      tag_94\n      jumpi\n        /* \"src/exchange.sol\":3724:3767  revert(\"Token transfer to exchange failed\") */\n      mload(0x40)\n      0x08c379a000000000000000000000000000000000000000000000000000000000\n      dup2\n      mstore\n      0x04\n      add\n      tag_95\n      swap1\n      tag_96\n      jump\t// in\n    tag_95:\n      mload(0x40)\n      dup1\n      swap2\n      sub\n      swap1\n      revert\n        /* \"src/exchange.sol\":3650:3767  if(!IERC20(tokenAddress).transferFrom(msg.sender, address(this), amount)) revert(\"Token transfer to exchange failed\") */\n    tag_94:\n        /* \"src/exchange.sol\":3778:3843  matchRequests(tokenAddress, amount, coinPrice, RequestTypes.SELL) */\n      tag_97\n        /* \"src/exchange.sol\":3792:3804  tokenAddress */\n      dup8\n        /* \"src/exchange.sol\":3806:3812  amount */\n      dup8\n        /* \"src/exchange.sol\":3814:3823  coinPrice */\n      dup8\n        /* \"src/exchange.sol\":3825:3842  RequestTypes.SELL */\n      0x01\n        /* \"src/exchange.sol\":3778:3791  matchRequests */\n      tag_98\n        /* \"src/exchange.sol\":3778:3843  matchRequests(tokenAddress, amount, coinPrice, RequestTypes.SELL) */\n      jump\t// in\n    tag_97:\n        /* \"src/exchange.sol\":1730:1731  _ */\n      pop\n      pop\n        /* \"src/exchange.sol\":2018:2019  _ */\n      pop\n      pop\n        /* \"src/exchange.sol\":3358:3852  function sellRequest(address tokenAddress, uint256 amount, uint256 coinPrice) external ... */\n      pop\n      pop\n      pop\n      jump\t// out\n        /* \"src/exchange.sol\":662:714  mapping(address => address[]) public sellRequestants */\n    tag_32:\n      mstore(0x20, 0x03)\n      dup2\n      0x00\n      mstore\n      keccak256(0x00, 0x40)\n      dup2\n      dup2\n      sload\n      dup2\n      lt\n      tag_99\n      jumpi\n      0x00\n      dup1\n      revert\n    tag_99:\n      swap1\n      0x00\n      mstore\n      keccak256(0x00, 0x20)\n      add\n      0x00\n      swap2\n      pop\n      swap2\n      pop\n      swap1\n      sload\n      swap1\n      0x0100\n      exp\n      swap1\n      div\n      0xffffffffffffffffffffffffffffffffffffffff\n      and\n      dup2\n      jump\t// out\n        /* \"src/exchange.sol\":3860:4247  function buyRequest(address coinAddress, uint256 amount, uint256 coinPrice) public payable ... */\n    tag_36:\n        /* \"src/exchange.sol\":1988:2005  RequestTypes.NONE */\n      0x00\n        /* \"src/exchange.sol\":1954:2005  users[msg.sender].Request.Type == RequestTypes.NONE */\n      0x02\n      dup2\n      gt\n      iszero\n      tag_102\n      jumpi\n      tag_103\n      tag_67\n      jump\t// in\n    tag_103:\n    tag_102:\n        /* \"src/exchange.sol\":1954:1959  users */\n      0x02\n        /* \"src/exchange.sol\":1954:1971  users[msg.sender] */\n      0x00\n        /* \"src/exchange.sol\":1960:1970  msg.sender */\n      caller\n        /* \"src/exchange.sol\":1954:1971  users[msg.sender] */\n      0xffffffffffffffffffffffffffffffffffffffff\n      and\n      0xffffffffffffffffffffffffffffffffffffffff\n      and\n      dup2\n      mstore\n      0x20\n      add\n      swap1\n      dup2\n      mstore\n      0x20\n      add\n      0x00\n      keccak256\n        /* \"src/exchange.sol\":1954:1979  users[msg.sender].Request */\n      0x00\n      add\n        /* \"src/exchange.sol\":1954:1984  users[msg.sender].Request.Type */\n      0x04\n      add\n      0x00\n      swap1\n      sload\n      swap1\n      0x0100\n      exp\n      swap1\n      div\n      0xff\n      and\n        /* \"src/exchange.sol\":1954:2005  users[msg.sender].Request.Type == RequestTypes.NONE */\n      0x02\n      dup2\n      gt\n      iszero\n      tag_104\n      jumpi\n      tag_105\n      tag_67\n      jump\t// in\n    tag_105:\n    tag_104:\n      eq\n        /* \"src/exchange.sol\":1946:2006  require(users[msg.sender].Request.Type == RequestTypes.NONE) */\n      tag_106\n      jumpi\n      0x00\n      dup1\n      revert\n    tag_106:\n        /* \"src/exchange.sol\":4007:4016  coinPrice */\n      dup1\n        /* \"src/exchange.sol\":4000:4006  amount */\n      dup3\n        /* \"src/exchange.sol\":4000:4016  amount*coinPrice */\n      tag_107\n      swap2\n      swap1\n      tag_108\n      jump\t// in\n    tag_107:\n        /* \"src/exchange.sol\":1531:1538  _amount */\n      dup1\n        /* \"src/exchange.sol\":1518:1527  msg.value */\n      callvalue\n        /* \"src/exchange.sol\":1518:1538  msg.value >= _amount */\n      lt\n      iszero\n        /* \"src/exchange.sol\":1510:1539  require(msg.value >= _amount) */\n      tag_110\n      jumpi\n      0x00\n      dup1\n      revert\n    tag_110:\n        /* \"src/exchange.sol\":4149:4165  RequestTypes.BUY */\n      0x02\n        /* \"src/exchange.sol\":4116:4121  users */\n      dup1\n        /* \"src/exchange.sol\":4116:4133  users[msg.sender] */\n      0x00\n        /* \"src/exchange.sol\":4122:4132  msg.sender */\n      caller\n        /* \"src/exchange.sol\":4116:4133  users[msg.sender] */\n      0xffffffffffffffffffffffffffffffffffffffff\n      and\n      0xffffffffffffffffffffffffffffffffffffffff\n      and\n      dup2\n      mstore\n      0x20\n      add\n      swap1\n      dup2\n      mstore\n      0x20\n      add\n      0x00\n      keccak256\n        /* \"src/exchange.sol\":4116:4141  users[msg.sender].Request */\n      0x00\n      add\n        /* \"src/exchange.sol\":4116:4146  users[msg.sender].Request.Type */\n      0x04\n      add\n      0x00\n        /* \"src/exchange.sol\":4116:4165  users[msg.sender].Request.Type = RequestTypes.BUY */\n      0x0100\n      exp\n      dup2\n      sload\n      dup2\n      0xff\n      mul\n      not\n      and\n      swap1\n      dup4\n      0x02\n      dup2\n      gt\n      iszero\n      tag_112\n      jumpi\n      tag_113\n      tag_67\n      jump\t// in\n    tag_113:\n    tag_112:\n      mul\n      or\n      swap1\n      sstore\n      pop\n        /* \"src/exchange.sol\":4176:4239  matchRequests(coinAddress, amount, coinPrice, RequestTypes.BUY) */\n      tag_114\n        /* \"src/exchange.sol\":4190:4201  coinAddress */\n      dup5\n        /* \"src/exchange.sol\":4203:4209  amount */\n      dup5\n        /* \"src/exchange.sol\":4211:4220  coinPrice */\n      dup5\n        /* \"src/exchange.sol\":4222:4238  RequestTypes.BUY */\n      0x02\n        /* \"src/exchange.sol\":4176:4189  matchRequests */\n      tag_98\n        /* \"src/exchange.sol\":4176:4239  matchRequests(coinAddress, amount, coinPrice, RequestTypes.BUY) */\n      jump\t// in\n    tag_114:\n        /* \"src/exchange.sol\":2018:2019  _ */\n      pop\n        /* \"src/exchange.sol\":3860:4247  function buyRequest(address coinAddress, uint256 amount, uint256 coinPrice) public payable ... */\n      pop\n      pop\n      pop\n      jump\t// out\n        /* \"src/exchange.sol\":2568:2908  function transferContractOwnership(address _nextContractOwner) external ... */\n    tag_41:\n        /* \"src/exchange.sol\":2736:2740  bool */\n      0x00\n        /* \"src/exchange.sol\":2660:2673  contractOwner */\n      dup1\n      0x00\n      swap1\n      sload\n      swap1\n      0x0100\n      exp\n      swap1\n      div\n      0xffffffffffffffffffffffffffffffffffffffff\n      and\n        /* \"src/exchange.sol\":1396:1407  _authorized */\n      dup1\n        /* \"src/exchange.sol\":1382:1407  msg.sender == _authorized */\n      0xffffffffffffffffffffffffffffffffffffffff\n      and\n        /* \"src/exchange.sol\":1382:1392  msg.sender */\n      caller\n        /* \"src/exchange.sol\":1382:1407  msg.sender == _authorized */\n      0xffffffffffffffffffffffffffffffffffffffff\n      and\n      eq\n        /* \"src/exchange.sol\":1374:1436  require(msg.sender == _authorized, \"Caller is not authorized\") */\n      tag_116\n      jumpi\n      mload(0x40)\n      0x08c379a000000000000000000000000000000000000000000000000000000000\n      dup2\n      mstore\n      0x04\n      add\n      tag_117\n      swap1\n      tag_60\n      jump\t// in\n    tag_117:\n      mload(0x40)\n      dup1\n      swap2\n      sub\n      swap1\n      revert\n    tag_116:\n        /* \"src/exchange.sol\":2699:2717  _nextContractOwner */\n      dup3\n        /* \"src/exchange.sol\":2102:2105  _to */\n      dup1\n        /* \"src/exchange.sol\":2088:2105  address(0) != _to */\n      0xffffffffffffffffffffffffffffffffffffffff\n      and\n        /* \"src/exchange.sol\":2096:2097  0 */\n      0x00\n        /* \"src/exchange.sol\":2088:2105  address(0) != _to */\n      0xffffffffffffffffffffffffffffffffffffffff\n      and\n      sub\n        /* \"src/exchange.sol\":2080:2153  require(address(0) != _to, \"Transfer to the zero address is not allowed\") */\n      tag_119\n      jumpi\n      mload(0x40)\n      0x08c379a000000000000000000000000000000000000000000000000000000000\n      dup2\n      mstore\n      0x04\n      add\n      tag_120\n      swap1\n      tag_121\n      jump\t// in\n    tag_120:\n      mload(0x40)\n      dup1\n      swap2\n      sub\n      swap1\n      revert\n    tag_119:\n        /* \"src/exchange.sol\":2778:2796  _nextContractOwner */\n      dup4\n        /* \"src/exchange.sol\":2758:2775  nextContractOwner */\n      0x01\n      0x00\n        /* \"src/exchange.sol\":2758:2796  nextContractOwner = _nextContractOwner */\n      0x0100\n      exp\n      dup2\n      sload\n      dup2\n      0xffffffffffffffffffffffffffffffffffffffff\n      mul\n      not\n      and\n      swap1\n      dup4\n      0xffffffffffffffffffffffffffffffffffffffff\n      and\n      mul\n      or\n      swap1\n      sstore\n      pop\n        /* \"src/exchange.sol\":2860:2877  nextContractOwner */\n      0x01\n      0x00\n      swap1\n      sload\n      swap1\n      0x0100\n      exp\n      swap1\n      div\n      0xffffffffffffffffffffffffffffffffffffffff\n      and\n        /* \"src/exchange.sol\":2812:2878  ContractOwnershipTransferStarted(contractOwner, nextContractOwner) */\n      0xffffffffffffffffffffffffffffffffffffffff\n      and\n        /* \"src/exchange.sol\":2845:2858  contractOwner */\n      0x00\n      dup1\n      sload\n      swap1\n      0x0100\n      exp\n      swap1\n      div\n      0xffffffffffffffffffffffffffffffffffffffff\n      and\n        /* \"src/exchange.sol\":2812:2878  ContractOwnershipTransferStarted(contractOwner, nextContractOwner) */\n      0xffffffffffffffffffffffffffffffffffffffff\n      and\n      0x3171ef419dfba51cf3b185fa6ee8071885c38deb1e1621df017995e8a5e9254c\n      mload(0x40)\n      mload(0x40)\n      dup1\n      swap2\n      sub\n      swap1\n      log3\n        /* \"src/exchange.sol\":2896:2900  true */\n      0x01\n        /* \"src/exchange.sol\":2889:2900  return true */\n      swap3\n      pop\n        /* \"src/exchange.sol\":1447:1448  _ */\n      pop\n        /* \"src/exchange.sol\":2568:2908  function transferContractOwnership(address _nextContractOwner) external ... */\n      pop\n      swap2\n      swap1\n      pop\n      jump\t// out\n        /* \"src/exchange.sol\":554:591  mapping(address => User) public users */\n    tag_46:\n      mstore(0x20, 0x02)\n      dup1\n      0x00\n      mstore\n      keccak256(0x00, 0x40)\n      0x00\n      swap2\n      pop\n      swap1\n      pop\n      dup1\n      0x00\n      add\n      mload(0x40)\n      dup1\n      0xa0\n      add\n      0x40\n      mstore\n      swap1\n      dup2\n      0x00\n      dup3\n      add\n      0x00\n      swap1\n      sload\n      swap1\n      0x0100\n      exp\n      swap1\n      div\n      0xffffffffffffffffffffffffffffffffffffffff\n      and\n      0xffffffffffffffffffffffffffffffffffffffff\n      and\n      0xffffffffffffffffffffffffffffffffffffffff\n      and\n      dup2\n      mstore\n      0x20\n      add\n      0x01\n      dup3\n      add\n      sload\n      dup2\n      mstore\n      0x20\n      add\n      0x02\n      dup3\n      add\n      sload\n      dup2\n      mstore\n      0x20\n      add\n      0x03\n      dup3\n      add\n      sload\n      dup2\n      mstore\n      0x20\n      add\n      0x04\n      dup3\n      add\n      0x00\n      swap1\n      sload\n      swap1\n      0x0100\n      exp\n      swap1\n      div\n      0xff\n      and\n      0x02\n      dup2\n      gt\n      iszero\n      tag_123\n      jumpi\n      tag_124\n      tag_67\n      jump\t// in\n    tag_124:\n    tag_123:\n      0x02\n      dup2\n      gt\n      iszero\n      tag_125\n      jumpi\n      tag_126\n      tag_67\n      jump\t// in\n    tag_126:\n    tag_125:\n      dup2\n      mstore\n      pop\n      pop\n      swap1\n      pop\n      dup2\n      jump\t// out\n        /* \"src/exchange.sol\":198:230  address public nextContractOwner */\n    tag_51:\n      0x01\n      0x00\n      swap1\n      sload\n      swap1\n      0x0100\n      exp\n      swap1\n      div\n      0xffffffffffffffffffffffffffffffffffffffff\n      and\n      dup2\n      jump\t// out\n        /* \"src/exchange.sol\":163:191  address public contractOwner */\n    tag_55:\n      0x00\n      dup1\n      sload\n      swap1\n      0x0100\n      exp\n      swap1\n      div\n      0xffffffffffffffffffffffffffffffffffffffff\n      and\n      dup2\n      jump\t// out\n        /* \"src/exchange.sol\":4346:5285  function matchRequests(address tokenAddress, uint256 amount, uint256 coinPrice, RequestTypes TYPE) private{... */\n    tag_98:\n        /* \"src/exchange.sol\":4463:4492  address[] storage requestants */\n      0x00\n        /* \"src/exchange.sol\":4502:4519  RequestTypes.SELL */\n      0x01\n        /* \"src/exchange.sol\":4496:4519  TYPE==RequestTypes.SELL */\n      0x02\n      dup2\n      gt\n      iszero\n      tag_128\n      jumpi\n      tag_129\n      tag_67\n      jump\t// in\n    tag_129:\n    tag_128:\n        /* \"src/exchange.sol\":4496:4500  TYPE */\n      dup3\n        /* \"src/exchange.sol\":4496:4519  TYPE==RequestTypes.SELL */\n      0x02\n      dup2\n      gt\n      iszero\n      tag_130\n      jumpi\n      tag_131\n      tag_67\n      jump\t// in\n    tag_131:\n    tag_130:\n      eq\n        /* \"src/exchange.sol\":4496:4582  TYPE==RequestTypes.SELL ? buyRequestants[tokenAddress] : sellRequestants[tokenAddress] */\n      tag_132\n      jumpi\n        /* \"src/exchange.sol\":4553:4568  sellRequestants */\n      0x03\n        /* \"src/exchange.sol\":4553:4582  sellRequestants[tokenAddress] */\n      0x00\n        /* \"src/exchange.sol\":4569:4581  tokenAddress */\n      dup7\n        /* \"src/exchange.sol\":4553:4582  sellRequestants[tokenAddress] */\n      0xffffffffffffffffffffffffffffffffffffffff\n      and\n      0xffffffffffffffffffffffffffffffffffffffff\n      and\n      dup2\n      mstore\n      0x20\n      add\n      swap1\n      dup2\n      mstore\n      0x20\n      add\n      0x00\n      keccak256\n        /* \"src/exchange.sol\":4496:4582  TYPE==RequestTypes.SELL ? buyRequestants[tokenAddress] : sellRequestants[tokenAddress] */\n      jump(tag_133)\n    tag_132:\n        /* \"src/exchange.sol\":4522:4536  buyRequestants */\n      0x04\n        /* \"src/exchange.sol\":4522:4550  buyRequestants[tokenAddress] */\n      0x00\n        /* \"src/exchange.sol\":4537:4549  tokenAddress */\n      dup7\n        /* \"src/exchange.sol\":4522:4550  buyRequestants[tokenAddress] */\n      0xffffffffffffffffffffffffffffffffffffffff\n      and\n      0xffffffffffffffffffffffffffffffffffffffff\n      and\n      dup2\n      mstore\n      0x20\n      add\n      swap1\n      dup2\n      mstore\n      0x20\n      add\n      0x00\n      keccak256\n        /* \"src/exchange.sol\":4496:4582  TYPE==RequestTypes.SELL ? buyRequestants[tokenAddress] : sellRequestants[tokenAddress] */\n    tag_133:\n        /* \"src/exchange.sol\":4463:4583  address[] storage requestants = (TYPE==RequestTypes.SELL ? buyRequestants[tokenAddress] : sellRequestants[tokenAddress]) */\n      swap1\n      pop\n        /* \"src/exchange.sol\":4594:4612  uint256 amountLeft */\n      0x00\n        /* \"src/exchange.sol\":4615:4621  amount */\n      dup5\n        /* \"src/exchange.sol\":4594:4621  uint256 amountLeft = amount */\n      swap1\n      pop\n        /* \"src/exchange.sol\":4637:4646  uint256 i */\n      0x00\n        /* \"src/exchange.sol\":4649:4660  requestants */\n      dup3\n        /* \"src/exchange.sol\":4649:4667  requestants.length */\n      dup1\n      sload\n      swap1\n      pop\n        /* \"src/exchange.sol\":4637:4667  uint256 i = requestants.length */\n      swap1\n      pop\n        /* \"src/exchange.sol\":4632:4980  for (uint256 i = requestants.length; i > 0; i--){... */\n    tag_134:\n        /* \"src/exchange.sol\":4673:4674  0 */\n      0x00\n        /* \"src/exchange.sol\":4669:4670  i */\n      dup2\n        /* \"src/exchange.sol\":4669:4674  i > 0 */\n      gt\n        /* \"src/exchange.sol\":4632:4980  for (uint256 i = requestants.length; i > 0; i--){... */\n      iszero\n      tag_135\n      jumpi\n        /* \"src/exchange.sol\":4695:4722  UserRequest storage Request */\n      0x00\n        /* \"src/exchange.sol\":4725:4730  users */\n      0x02\n        /* \"src/exchange.sol\":4725:4748  users[requestants[i-1]] */\n      0x00\n        /* \"src/exchange.sol\":4731:4742  requestants */\n      dup6\n        /* \"src/exchange.sol\":4745:4746  1 */\n      0x01\n        /* \"src/exchange.sol\":4743:4744  i */\n      dup6\n        /* \"src/exchange.sol\":4743:4746  i-1 */\n      tag_137\n      swap2\n      swap1\n      tag_138\n      jump\t// in\n    tag_137:\n        /* \"src/exchange.sol\":4731:4747  requestants[i-1] */\n      dup2\n      sload\n      dup2\n      lt\n      tag_139\n      jumpi\n      tag_140\n      tag_141\n      jump\t// in\n    tag_140:\n    tag_139:\n      swap1\n      0x00\n      mstore\n      keccak256(0x00, 0x20)\n      add\n      0x00\n      swap1\n      sload\n      swap1\n      0x0100\n      exp\n      swap1\n      div\n      0xffffffffffffffffffffffffffffffffffffffff\n      and\n        /* \"src/exchange.sol\":4725:4748  users[requestants[i-1]] */\n      0xffffffffffffffffffffffffffffffffffffffff\n      and\n      0xffffffffffffffffffffffffffffffffffffffff\n      and\n      dup2\n      mstore\n      0x20\n      add\n      swap1\n      dup2\n      mstore\n      0x20\n      add\n      0x00\n      keccak256\n        /* \"src/exchange.sol\":4725:4756  users[requestants[i-1]].Request */\n      0x00\n      add\n        /* \"src/exchange.sol\":4695:4756  UserRequest storage Request = users[requestants[i-1]].Request */\n      swap1\n      pop\n        /* \"src/exchange.sol\":4796:4805  coinPrice */\n      dup6\n        /* \"src/exchange.sol\":4775:4782  Request */\n      dup2\n        /* \"src/exchange.sol\":4775:4792  Request.coinPrice */\n      0x02\n      add\n      sload\n        /* \"src/exchange.sol\":4775:4805  Request.coinPrice >= coinPrice */\n      lt\n        /* \"src/exchange.sol\":4771:4969  if (Request.coinPrice >= coinPrice) {... */\n      tag_143\n      jumpi\n        /* \"src/exchange.sol\":4839:4908  executeRequests(tokenAddress,requestants[i-1], amountLeft, TYPE, i-1) */\n      tag_144\n        /* \"src/exchange.sol\":4855:4867  tokenAddress */\n      dup9\n        /* \"src/exchange.sol\":4868:4879  requestants */\n      dup6\n        /* \"src/exchange.sol\":4882:4883  1 */\n      0x01\n        /* \"src/exchange.sol\":4880:4881  i */\n      dup6\n        /* \"src/exchange.sol\":4880:4883  i-1 */\n      tag_145\n      swap2\n      swap1\n      tag_138\n      jump\t// in\n    tag_145:\n        /* \"src/exchange.sol\":4868:4884  requestants[i-1] */\n      dup2\n      sload\n      dup2\n      lt\n      tag_146\n      jumpi\n      tag_147\n      tag_141\n      jump\t// in\n    tag_147:\n    tag_146:\n      swap1\n      0x00\n      mstore\n      keccak256(0x00, 0x20)\n      add\n      0x00\n      swap1\n      sload\n      swap1\n      0x0100\n      exp\n      swap1\n      div\n      0xffffffffffffffffffffffffffffffffffffffff\n      and\n        /* \"src/exchange.sol\":4886:4896  amountLeft */\n      dup6\n        /* \"src/exchange.sol\":4898:4902  TYPE */\n      dup9\n        /* \"src/exchange.sol\":4906:4907  1 */\n      0x01\n        /* \"src/exchange.sol\":4904:4905  i */\n      dup8\n        /* \"src/exchange.sol\":4904:4907  i-1 */\n      tag_149\n      swap2\n      swap1\n      tag_138\n      jump\t// in\n    tag_149:\n        /* \"src/exchange.sol\":4839:4854  executeRequests */\n      tag_150\n        /* \"src/exchange.sol\":4839:4908  executeRequests(tokenAddress,requestants[i-1], amountLeft, TYPE, i-1) */\n      jump\t// in\n    tag_144:\n        /* \"src/exchange.sol\":4826:4908  amountLeft = executeRequests(tokenAddress,requestants[i-1], amountLeft, TYPE, i-1) */\n      swap3\n      pop\n        /* \"src/exchange.sol\":4945:4946  0 */\n      0x00\n        /* \"src/exchange.sol\":4931:4941  amountLeft */\n      dup4\n        /* \"src/exchange.sol\":4931:4946  amountLeft == 0 */\n      sub\n        /* \"src/exchange.sol\":4927:4953  if (amountLeft == 0) break */\n      tag_151\n      jumpi\n        /* \"src/exchange.sol\":4948:4953  break */\n      pop\n      jump(tag_135)\n        /* \"src/exchange.sol\":4927:4953  if (amountLeft == 0) break */\n    tag_151:\n        /* \"src/exchange.sol\":4771:4969  if (Request.coinPrice >= coinPrice) {... */\n    tag_143:\n        /* \"src/exchange.sol\":4680:4980  {... */\n      pop\n        /* \"src/exchange.sol\":4676:4679  i-- */\n      dup1\n      dup1\n      tag_152\n      swap1\n      tag_153\n      jump\t// in\n    tag_152:\n      swap2\n      pop\n      pop\n        /* \"src/exchange.sol\":4632:4980  for (uint256 i = requestants.length; i > 0; i--){... */\n      jump(tag_134)\n    tag_135:\n      pop\n        /* \"src/exchange.sol\":5006:5007  0 */\n      0x00\n        /* \"src/exchange.sol\":4993:5003  amountLeft */\n      dup2\n        /* \"src/exchange.sol\":4993:5007  amountLeft > 0 */\n      gt\n        /* \"src/exchange.sol\":4990:5278  if(amountLeft > 0){... */\n      iszero\n      tag_154\n      jumpi\n        /* \"src/exchange.sol\":5129:5182  addRequest(tokenAddress, amountLeft, coinPrice, TYPE) */\n      tag_155\n        /* \"src/exchange.sol\":5140:5152  tokenAddress */\n      dup7\n        /* \"src/exchange.sol\":5154:5164  amountLeft */\n      dup3\n        /* \"src/exchange.sol\":5166:5175  coinPrice */\n      dup7\n        /* \"src/exchange.sol\":5177:5181  TYPE */\n      dup7\n        /* \"src/exchange.sol\":5129:5139  addRequest */\n      tag_156\n        /* \"src/exchange.sol\":5129:5182  addRequest(tokenAddress, amountLeft, coinPrice, TYPE) */\n      jump\t// in\n    tag_155:\n        /* \"src/exchange.sol\":4990:5278  if(amountLeft > 0){... */\n      jump(tag_157)\n    tag_154:\n        /* \"src/exchange.sol\":5246:5263  RequestTypes.NONE */\n      0x00\n        /* \"src/exchange.sol\":5213:5218  users */\n      0x02\n        /* \"src/exchange.sol\":5213:5230  users[msg.sender] */\n      0x00\n        /* \"src/exchange.sol\":5219:5229  msg.sender */\n      caller\n        /* \"src/exchange.sol\":5213:5230  users[msg.sender] */\n      0xffffffffffffffffffffffffffffffffffffffff\n      and\n      0xffffffffffffffffffffffffffffffffffffffff\n      and\n      dup2\n      mstore\n      0x20\n      add\n      swap1\n      dup2\n      mstore\n      0x20\n      add\n      0x00\n      keccak256\n        /* \"src/exchange.sol\":5213:5238  users[msg.sender].Request */\n      0x00\n      add\n        /* \"src/exchange.sol\":5213:5243  users[msg.sender].Request.Type */\n      0x04\n      add\n      0x00\n        /* \"src/exchange.sol\":5213:5263  users[msg.sender].Request.Type = RequestTypes.NONE */\n      0x0100\n      exp\n      dup2\n      sload\n      dup2\n      0xff\n      mul\n      not\n      and\n      swap1\n      dup4\n      0x02\n      dup2\n      gt\n      iszero\n      tag_158\n      jumpi\n      tag_159\n      tag_67\n      jump\t// in\n    tag_159:\n    tag_158:\n      mul\n      or\n      swap1\n      sstore\n      pop\n        /* \"src/exchange.sol\":4990:5278  if(amountLeft > 0){... */\n    tag_157:\n        /* \"src/exchange.sol\":4452:5285  {... */\n      pop\n      pop\n        /* \"src/exchange.sol\":4346:5285  function matchRequests(address tokenAddress, uint256 amount, uint256 coinPrice, RequestTypes TYPE) private{... */\n      pop\n      pop\n      pop\n      pop\n      jump\t// out\n        /* \"src/exchange.sol\":5341:6265  function executeRequests(address tokenAddress, address counterparty, uint256 amount, RequestTypes TYPE, uint256 requestIndex) private returns(uint256){... */\n    tag_150:\n        /* \"src/exchange.sol\":5483:5490  uint256 */\n      0x00\n        /* \"src/exchange.sol\":5502:5529  UserRequest storage Request */\n      dup1\n        /* \"src/exchange.sol\":5532:5537  users */\n      0x02\n        /* \"src/exchange.sol\":5532:5551  users[counterparty] */\n      0x00\n        /* \"src/exchange.sol\":5538:5550  counterparty */\n      dup8\n        /* \"src/exchange.sol\":5532:5551  users[counterparty] */\n      0xffffffffffffffffffffffffffffffffffffffff\n      and\n      0xffffffffffffffffffffffffffffffffffffffff\n      and\n      dup2\n      mstore\n      0x20\n      add\n      swap1\n      dup2\n      mstore\n      0x20\n      add\n      0x00\n      keccak256\n        /* \"src/exchange.sol\":5532:5559  users[counterparty].Request */\n      0x00\n      add\n        /* \"src/exchange.sol\":5502:5559  UserRequest storage Request = users[counterparty].Request */\n      swap1\n      pop\n        /* \"src/exchange.sol\":5570:5589  uint256 tradeAmount */\n      0x00\n        /* \"src/exchange.sol\":5601:5608  Request */\n      dup2\n        /* \"src/exchange.sol\":5601:5615  Request.amount */\n      0x01\n      add\n      sload\n        /* \"src/exchange.sol\":5592:5598  amount */\n      dup7\n        /* \"src/exchange.sol\":5592:5615  amount < Request.amount */\n      lt\n        /* \"src/exchange.sol\":5592:5641  amount < Request.amount ? amount : Request.amount */\n      tag_161\n      jumpi\n        /* \"src/exchange.sol\":5627:5634  Request */\n      dup2\n        /* \"src/exchange.sol\":5627:5641  Request.amount */\n      0x01\n      add\n      sload\n        /* \"src/exchange.sol\":5592:5641  amount < Request.amount ? amount : Request.amount */\n      jump(tag_162)\n    tag_161:\n        /* \"src/exchange.sol\":5618:5624  amount */\n      dup6\n        /* \"src/exchange.sol\":5592:5641  amount < Request.amount ? amount : Request.amount */\n    tag_162:\n        /* \"src/exchange.sol\":5570:5641  uint256 tradeAmount = amount < Request.amount ? amount : Request.amount */\n      swap1\n      pop\n        /* \"src/exchange.sol\":5664:5681  RequestTypes.SELL */\n      0x01\n        /* \"src/exchange.sol\":5656:5681  TYPE == RequestTypes.SELL */\n      0x02\n      dup2\n      gt\n      iszero\n      tag_163\n      jumpi\n      tag_164\n      tag_67\n      jump\t// in\n    tag_164:\n    tag_163:\n        /* \"src/exchange.sol\":5656:5660  TYPE */\n      dup6\n        /* \"src/exchange.sol\":5656:5681  TYPE == RequestTypes.SELL */\n      0x02\n      dup2\n      gt\n      iszero\n      tag_165\n      jumpi\n      tag_166\n      tag_67\n      jump\t// in\n    tag_166:\n    tag_165:\n      sub\n        /* \"src/exchange.sol\":5652:6095  if (TYPE == RequestTypes.SELL) {... */\n      tag_167\n      jumpi\n        /* \"src/exchange.sol\":5709:5721  tokenAddress */\n      dup8\n        /* \"src/exchange.sol\":5702:5731  IERC20(tokenAddress).transfer */\n      0xffffffffffffffffffffffffffffffffffffffff\n      and\n      0xa9059cbb\n        /* \"src/exchange.sol\":5732:5744  counterparty */\n      dup9\n        /* \"src/exchange.sol\":5746:5757  tradeAmount */\n      dup4\n        /* \"src/exchange.sol\":5702:5758  IERC20(tokenAddress).transfer(counterparty, tradeAmount) */\n      mload(0x40)\n      dup4\n      0xffffffff\n      and\n      0xe0\n      shl\n      dup2\n      mstore\n      0x04\n      add\n      tag_168\n      swap3\n      swap2\n      swap1\n      tag_169\n      jump\t// in\n    tag_168:\n      0x20\n      mload(0x40)\n      dup1\n      dup4\n      sub\n      dup2\n      0x00\n      dup8\n      gas\n      call\n      iszero\n      dup1\n      iszero\n      tag_171\n      jumpi\n      returndatasize\n      0x00\n      dup1\n      returndatacopy\n      revert(0x00, returndatasize)\n    tag_171:\n      pop\n      pop\n      pop\n      pop\n      mload(0x40)\n      returndatasize\n      not(0x1f)\n      0x1f\n      dup3\n      add\n      and\n      dup3\n      add\n      dup1\n      0x40\n      mstore\n      pop\n      dup2\n      add\n      swap1\n      tag_172\n      swap2\n      swap1\n      tag_93\n      jump\t// in\n    tag_172:\n        /* \"src/exchange.sol\":5698:5800  if(!IERC20(tokenAddress).transfer(counterparty, tradeAmount)) revert(\"Token transfer to buyer failed\") */\n      tag_173\n      jumpi\n        /* \"src/exchange.sol\":5760:5800  revert(\"Token transfer to buyer failed\") */\n      mload(0x40)\n      0x08c379a000000000000000000000000000000000000000000000000000000000\n      dup2\n      mstore\n      0x04\n      add\n      tag_174\n      swap1\n      tag_175\n      jump\t// in\n    tag_174:\n      mload(0x40)\n      dup1\n      swap2\n      sub\n      swap1\n      revert\n        /* \"src/exchange.sol\":5698:5800  if(!IERC20(tokenAddress).transfer(counterparty, tradeAmount)) revert(\"Token transfer to buyer failed\") */\n    tag_173:\n        /* \"src/exchange.sol\":5815:5875  sendEther(payable(msg.sender),tradeAmount*Request.coinPrice) */\n      tag_176\n        /* \"src/exchange.sol\":5833:5843  msg.sender */\n      caller\n        /* \"src/exchange.sol\":5857:5864  Request */\n      dup4\n        /* \"src/exchange.sol\":5857:5874  Request.coinPrice */\n      0x02\n      add\n      sload\n        /* \"src/exchange.sol\":5845:5856  tradeAmount */\n      dup4\n        /* \"src/exchange.sol\":5845:5874  tradeAmount*Request.coinPrice */\n      tag_177\n      swap2\n      swap1\n      tag_108\n      jump\t// in\n    tag_177:\n        /* \"src/exchange.sol\":5815:5824  sendEther */\n      tag_178\n        /* \"src/exchange.sol\":5815:5875  sendEther(payable(msg.sender),tradeAmount*Request.coinPrice) */\n      jump\t// in\n    tag_176:\n        /* \"src/exchange.sol\":5652:6095  if (TYPE == RequestTypes.SELL) {... */\n      jump(tag_179)\n    tag_167:\n        /* \"src/exchange.sol\":5917:5929  tokenAddress */\n      dup8\n        /* \"src/exchange.sol\":5910:5939  IERC20(tokenAddress).transfer */\n      0xffffffffffffffffffffffffffffffffffffffff\n      and\n      0xa9059cbb\n        /* \"src/exchange.sol\":5940:5950  msg.sender */\n      caller\n        /* \"src/exchange.sol\":5952:5963  tradeAmount */\n      dup4\n        /* \"src/exchange.sol\":5910:5964  IERC20(tokenAddress).transfer(msg.sender, tradeAmount) */\n      mload(0x40)\n      dup4\n      0xffffffff\n      and\n      0xe0\n      shl\n      dup2\n      mstore\n      0x04\n      add\n      tag_180\n      swap3\n      swap2\n      swap1\n      tag_169\n      jump\t// in\n    tag_180:\n      0x20\n      mload(0x40)\n      dup1\n      dup4\n      sub\n      dup2\n      0x00\n      dup8\n      gas\n      call\n      iszero\n      dup1\n      iszero\n      tag_182\n      jumpi\n      returndatasize\n      0x00\n      dup1\n      returndatacopy\n      revert(0x00, returndatasize)\n    tag_182:\n      pop\n      pop\n      pop\n      pop\n      mload(0x40)\n      returndatasize\n      not(0x1f)\n      0x1f\n      dup3\n      add\n      and\n      dup3\n      add\n      dup1\n      0x40\n      mstore\n      pop\n      dup2\n      add\n      swap1\n      tag_183\n      swap2\n      swap1\n      tag_93\n      jump\t// in\n    tag_183:\n        /* \"src/exchange.sol\":5906:6006  if(!IERC20(tokenAddress).transfer(msg.sender, tradeAmount)) revert(\"Token transfer to buyer failed\") */\n      tag_184\n      jumpi\n        /* \"src/exchange.sol\":5966:6006  revert(\"Token transfer to buyer failed\") */\n      mload(0x40)\n      0x08c379a000000000000000000000000000000000000000000000000000000000\n      dup2\n      mstore\n      0x04\n      add\n      tag_185\n      swap1\n      tag_175\n      jump\t// in\n    tag_185:\n      mload(0x40)\n      dup1\n      swap2\n      sub\n      swap1\n      revert\n        /* \"src/exchange.sol\":5906:6006  if(!IERC20(tokenAddress).transfer(msg.sender, tradeAmount)) revert(\"Token transfer to buyer failed\") */\n    tag_184:\n        /* \"src/exchange.sol\":6021:6083  sendEther(payable(counterparty),tradeAmount*Request.coinPrice) */\n      tag_186\n        /* \"src/exchange.sol\":6039:6051  counterparty */\n      dup8\n        /* \"src/exchange.sol\":6065:6072  Request */\n      dup4\n        /* \"src/exchange.sol\":6065:6082  Request.coinPrice */\n      0x02\n      add\n      sload\n        /* \"src/exchange.sol\":6053:6064  tradeAmount */\n      dup4\n        /* \"src/exchange.sol\":6053:6082  tradeAmount*Request.coinPrice */\n      tag_187\n      swap2\n      swap1\n      tag_108\n      jump\t// in\n    tag_187:\n        /* \"src/exchange.sol\":6021:6030  sendEther */\n      tag_178\n        /* \"src/exchange.sol\":6021:6083  sendEther(payable(counterparty),tradeAmount*Request.coinPrice) */\n      jump\t// in\n    tag_186:\n        /* \"src/exchange.sol\":5652:6095  if (TYPE == RequestTypes.SELL) {... */\n    tag_179:\n        /* \"src/exchange.sol\":6123:6134  tradeAmount */\n      dup1\n        /* \"src/exchange.sol\":6105:6112  Request */\n      dup3\n        /* \"src/exchange.sol\":6105:6119  Request.amount */\n      0x01\n      add\n      0x00\n        /* \"src/exchange.sol\":6105:6134  Request.amount -= tradeAmount */\n      dup3\n      dup3\n      sload\n      tag_188\n      swap2\n      swap1\n      tag_138\n      jump\t// in\n    tag_188:\n      swap3\n      pop\n      pop\n      dup2\n      swap1\n      sstore\n      pop\n        /* \"src/exchange.sol\":6167:6168  0 */\n      0x00\n        /* \"src/exchange.sol\":6149:6156  Request */\n      dup3\n        /* \"src/exchange.sol\":6149:6163  Request.amount */\n      0x01\n      add\n      sload\n        /* \"src/exchange.sol\":6149:6168  Request.amount == 0 */\n      sub\n        /* \"src/exchange.sol\":6145:6220  if (Request.amount == 0) removeRequest(tokenAddress, Request, requestIndex) */\n      tag_189\n      jumpi\n        /* \"src/exchange.sol\":6170:6220  removeRequest(tokenAddress, Request, requestIndex) */\n      tag_190\n        /* \"src/exchange.sol\":6184:6196  tokenAddress */\n      dup9\n        /* \"src/exchange.sol\":6198:6205  Request */\n      dup4\n        /* \"src/exchange.sol\":6207:6219  requestIndex */\n      dup7\n        /* \"src/exchange.sol\":6170:6183  removeRequest */\n      tag_191\n        /* \"src/exchange.sol\":6170:6220  removeRequest(tokenAddress, Request, requestIndex) */\n      jump\t// in\n    tag_190:\n        /* \"src/exchange.sol\":6145:6220  if (Request.amount == 0) removeRequest(tokenAddress, Request, requestIndex) */\n    tag_189:\n        /* \"src/exchange.sol\":6246:6257  tradeAmount */\n      dup1\n        /* \"src/exchange.sol\":6238:6257  amount-=tradeAmount */\n      dup7\n      tag_192\n      swap2\n      swap1\n      tag_138\n      jump\t// in\n    tag_192:\n      swap6\n      pop\n      dup6\n        /* \"src/exchange.sol\":6231:6257  return amount-=tradeAmount */\n      swap3\n      pop\n      pop\n      pop\n        /* \"src/exchange.sol\":5341:6265  function executeRequests(address tokenAddress, address counterparty, uint256 amount, RequestTypes TYPE, uint256 requestIndex) private returns(uint256){... */\n      swap6\n      swap5\n      pop\n      pop\n      pop\n      pop\n      pop\n      jump\t// out\n        /* \"src/exchange.sol\":6335:6936  function addRequest(address tokenAddress, uint256 amount, uint256 coinPrice, RequestTypes TYPE) private {... */\n    tag_156:\n        /* \"src/exchange.sol\":6450:6479  address[] storage requestants */\n      0x00\n        /* \"src/exchange.sol\":6489:6506  RequestTypes.SELL */\n      0x01\n        /* \"src/exchange.sol\":6483:6506  TYPE!=RequestTypes.SELL */\n      0x02\n      dup2\n      gt\n      iszero\n      tag_194\n      jumpi\n      tag_195\n      tag_67\n      jump\t// in\n    tag_195:\n    tag_194:\n        /* \"src/exchange.sol\":6483:6487  TYPE */\n      dup3\n        /* \"src/exchange.sol\":6483:6506  TYPE!=RequestTypes.SELL */\n      0x02\n      dup2\n      gt\n      iszero\n      tag_196\n      jumpi\n      tag_197\n      tag_67\n      jump\t// in\n    tag_197:\n    tag_196:\n      sub\n        /* \"src/exchange.sol\":6483:6569  TYPE!=RequestTypes.SELL ? buyRequestants[tokenAddress] : sellRequestants[tokenAddress] */\n      tag_198\n      jumpi\n        /* \"src/exchange.sol\":6540:6555  sellRequestants */\n      0x03\n        /* \"src/exchange.sol\":6540:6569  sellRequestants[tokenAddress] */\n      0x00\n        /* \"src/exchange.sol\":6556:6568  tokenAddress */\n      dup7\n        /* \"src/exchange.sol\":6540:6569  sellRequestants[tokenAddress] */\n      0xffffffffffffffffffffffffffffffffffffffff\n      and\n      0xffffffffffffffffffffffffffffffffffffffff\n      and\n      dup2\n      mstore\n      0x20\n      add\n      swap1\n      dup2\n      mstore\n      0x20\n      add\n      0x00\n      keccak256\n        /* \"src/exchange.sol\":6483:6569  TYPE!=RequestTypes.SELL ? buyRequestants[tokenAddress] : sellRequestants[tokenAddress] */\n      jump(tag_199)\n    tag_198:\n        /* \"src/exchange.sol\":6509:6523  buyRequestants */\n      0x04\n        /* \"src/exchange.sol\":6509:6537  buyRequestants[tokenAddress] */\n      0x00\n        /* \"src/exchange.sol\":6524:6536  tokenAddress */\n      dup7\n        /* \"src/exchange.sol\":6509:6537  buyRequestants[tokenAddress] */\n      0xffffffffffffffffffffffffffffffffffffffff\n      and\n      0xffffffffffffffffffffffffffffffffffffffff\n      and\n      dup2\n      mstore\n      0x20\n      add\n      swap1\n      dup2\n      mstore\n      0x20\n      add\n      0x00\n      keccak256\n        /* \"src/exchange.sol\":6483:6569  TYPE!=RequestTypes.SELL ? buyRequestants[tokenAddress] : sellRequestants[tokenAddress] */\n    tag_199:\n        /* \"src/exchange.sol\":6450:6570  address[] storage requestants = (TYPE!=RequestTypes.SELL ? buyRequestants[tokenAddress] : sellRequestants[tokenAddress]) */\n      swap1\n      pop\n        /* \"src/exchange.sol\":6581:6592  requestants */\n      dup1\n        /* \"src/exchange.sol\":6598:6608  msg.sender */\n      caller\n        /* \"src/exchange.sol\":6581:6609  requestants.push(msg.sender) */\n      swap1\n      dup1\n      0x01\n      dup2\n      sload\n      add\n      dup1\n      dup3\n      sstore\n      dup1\n      swap2\n      pop\n      pop\n      0x01\n      swap1\n      sub\n      swap1\n      0x00\n      mstore\n      keccak256(0x00, 0x20)\n      add\n      0x00\n      swap1\n      swap2\n      swap1\n      swap2\n      swap1\n      swap2\n      0x0100\n      exp\n      dup2\n      sload\n      dup2\n      0xffffffffffffffffffffffffffffffffffffffff\n      mul\n      not\n      and\n      swap1\n      dup4\n      0xffffffffffffffffffffffffffffffffffffffff\n      and\n      mul\n      or\n      swap1\n      sstore\n      pop\n        /* \"src/exchange.sol\":6620:6647  UserRequest storage Request */\n      0x00\n        /* \"src/exchange.sol\":6650:6655  users */\n      0x02\n        /* \"src/exchange.sol\":6650:6667  users[msg.sender] */\n      0x00\n        /* \"src/exchange.sol\":6656:6666  msg.sender */\n      caller\n        /* \"src/exchange.sol\":6650:6667  users[msg.sender] */\n      0xffffffffffffffffffffffffffffffffffffffff\n      and\n      0xffffffffffffffffffffffffffffffffffffffff\n      and\n      dup2\n      mstore\n      0x20\n      add\n      swap1\n      dup2\n      mstore\n      0x20\n      add\n      0x00\n      keccak256\n        /* \"src/exchange.sol\":6650:6675  users[msg.sender].Request */\n      0x00\n      add\n        /* \"src/exchange.sol\":6620:6675  UserRequest storage Request = users[msg.sender].Request */\n      swap1\n      pop\n        /* \"src/exchange.sol\":6709:6721  tokenAddress */\n      dup6\n        /* \"src/exchange.sol\":6686:6693  Request */\n      dup2\n        /* \"src/exchange.sol\":6686:6706  Request.tokenAddress */\n      0x00\n      add\n      0x00\n        /* \"src/exchange.sol\":6686:6721  Request.tokenAddress = tokenAddress */\n      0x0100\n      exp\n      dup2\n      sload\n      dup2\n      0xffffffffffffffffffffffffffffffffffffffff\n      mul\n      not\n      and\n      swap1\n      dup4\n      0xffffffffffffffffffffffffffffffffffffffff\n      and\n      mul\n      or\n      swap1\n      sstore\n      pop\n        /* \"src/exchange.sol\":6749:6755  amount */\n      dup5\n        /* \"src/exchange.sol\":6732:6739  Request */\n      dup2\n        /* \"src/exchange.sol\":6732:6746  Request.amount */\n      0x01\n      add\n        /* \"src/exchange.sol\":6732:6755  Request.amount = amount */\n      dup2\n      swap1\n      sstore\n      pop\n        /* \"src/exchange.sol\":6786:6795  coinPrice */\n      dup4\n        /* \"src/exchange.sol\":6766:6773  Request */\n      dup2\n        /* \"src/exchange.sol\":6766:6783  Request.coinPrice */\n      0x02\n      add\n        /* \"src/exchange.sol\":6766:6795  Request.coinPrice = coinPrice */\n      dup2\n      swap1\n      sstore\n      pop\n        /* \"src/exchange.sol\":6821:6836  block.timestamp */\n      timestamp\n        /* \"src/exchange.sol\":6806:6813  Request */\n      dup2\n        /* \"src/exchange.sol\":6806:6818  Request.time */\n      0x03\n      add\n        /* \"src/exchange.sol\":6806:6836  Request.time = block.timestamp */\n      dup2\n      swap1\n      sstore\n      pop\n        /* \"src/exchange.sol\":6439:6936  {... */\n      pop\n      pop\n        /* \"src/exchange.sol\":6335:6936  function addRequest(address tokenAddress, uint256 amount, uint256 coinPrice, RequestTypes TYPE) private {... */\n      pop\n      pop\n      pop\n      pop\n      jump\t// out\n        /* \"src/exchange.sol\":7011:7191  function sendEther(address payable reciver, uint256 amount) private{... */\n    tag_178:\n        /* \"src/exchange.sol\":7090:7099  bool sent */\n      0x00\n        /* \"src/exchange.sol\":7104:7111  reciver */\n      dup3\n        /* \"src/exchange.sol\":7104:7116  reciver.call */\n      0xffffffffffffffffffffffffffffffffffffffff\n      and\n        /* \"src/exchange.sol\":7124:7130  amount */\n      dup3\n        /* \"src/exchange.sol\":7104:7135  reciver.call{value: amount}(\"\") */\n      mload(0x40)\n      tag_202\n      swap1\n      tag_203\n      jump\t// in\n    tag_202:\n      0x00\n      mload(0x40)\n      dup1\n      dup4\n      sub\n      dup2\n      dup6\n      dup8\n      gas\n      call\n      swap3\n      pop\n      pop\n      pop\n      returndatasize\n      dup1\n      0x00\n      dup2\n      eq\n      tag_206\n      jumpi\n      mload(0x40)\n      swap2\n      pop\n      and(add(returndatasize, 0x3f), not(0x1f))\n      dup3\n      add\n      0x40\n      mstore\n      returndatasize\n      dup3\n      mstore\n      returndatasize\n      0x00\n      0x20\n      dup5\n      add\n      returndatacopy\n      jump(tag_205)\n    tag_206:\n      0x60\n      swap2\n      pop\n    tag_205:\n      pop\n        /* \"src/exchange.sol\":7089:7135  (bool sent,) = reciver.call{value: amount}(\"\") */\n      pop\n      swap1\n      pop\n        /* \"src/exchange.sol\":7154:7158  sent */\n      dup1\n        /* \"src/exchange.sol\":7146:7183  require(sent, \"Failed to send Ether\") */\n      tag_207\n      jumpi\n      mload(0x40)\n      0x08c379a000000000000000000000000000000000000000000000000000000000\n      dup2\n      mstore\n      0x04\n      add\n      tag_208\n      swap1\n      tag_209\n      jump\t// in\n    tag_208:\n      mload(0x40)\n      dup1\n      swap2\n      sub\n      swap1\n      revert\n    tag_207:\n        /* \"src/exchange.sol\":7078:7191  {... */\n      pop\n        /* \"src/exchange.sol\":7011:7191  function sendEther(address payable reciver, uint256 amount) private{... */\n      pop\n      pop\n      jump\t// out\n        /* \"src/exchange.sol\":7270:7855  function removeRequest(address tokenAddress, UserRequest storage request, uint256 requestIndex) private {... */\n    tag_191:\n        /* \"src/exchange.sol\":7385:7414  address[] storage requestants */\n      0x00\n        /* \"src/exchange.sol\":7432:7449  RequestTypes.SELL */\n      0x01\n        /* \"src/exchange.sol\":7418:7449  request.Type==RequestTypes.SELL */\n      0x02\n      dup2\n      gt\n      iszero\n      tag_211\n      jumpi\n      tag_212\n      tag_67\n      jump\t// in\n    tag_212:\n    tag_211:\n        /* \"src/exchange.sol\":7418:7425  request */\n      dup4\n        /* \"src/exchange.sol\":7418:7430  request.Type */\n      0x04\n      add\n      0x00\n      swap1\n      sload\n      swap1\n      0x0100\n      exp\n      swap1\n      div\n      0xff\n      and\n        /* \"src/exchange.sol\":7418:7449  request.Type==RequestTypes.SELL */\n      0x02\n      dup2\n      gt\n      iszero\n      tag_213\n      jumpi\n      tag_214\n      tag_67\n      jump\t// in\n    tag_214:\n    tag_213:\n      eq\n        /* \"src/exchange.sol\":7418:7512  request.Type==RequestTypes.SELL ? sellRequestants[tokenAddress] : buyRequestants[tokenAddress] */\n      tag_215\n      jumpi\n        /* \"src/exchange.sol\":7484:7498  buyRequestants */\n      0x04\n        /* \"src/exchange.sol\":7484:7512  buyRequestants[tokenAddress] */\n      0x00\n        /* \"src/exchange.sol\":7499:7511  tokenAddress */\n      dup6\n        /* \"src/exchange.sol\":7484:7512  buyRequestants[tokenAddress] */\n      0xffffffffffffffffffffffffffffffffffffffff\n      and\n      0xffffffffffffffffffffffffffffffffffffffff\n      and\n      dup2\n      mstore\n      0x20\n      add\n      swap1\n      dup2\n      mstore\n      0x20\n      add\n      0x00\n      keccak256\n        /* \"src/exchange.sol\":7418:7512  request.Type==RequestTypes.SELL ? sellRequestants[tokenAddress] : buyRequestants[tokenAddress] */\n      jump(tag_216)\n    tag_215:\n        /* \"src/exchange.sol\":7452:7467  sellRequestants */\n      0x03\n        /* \"src/exchange.sol\":7452:7481  sellRequestants[tokenAddress] */\n      0x00\n        /* \"src/exchange.sol\":7468:7480  tokenAddress */\n      dup6\n        /* \"src/exchange.sol\":7452:7481  sellRequestants[tokenAddress] */\n      0xffffffffffffffffffffffffffffffffffffffff\n      and\n      0xffffffffffffffffffffffffffffffffffffffff\n      and\n      dup2\n      mstore\n      0x20\n      add\n      swap1\n      dup2\n      mstore\n      0x20\n      add\n      0x00\n      keccak256\n        /* \"src/exchange.sol\":7418:7512  request.Type==RequestTypes.SELL ? sellRequestants[tokenAddress] : buyRequestants[tokenAddress] */\n    tag_216:\n        /* \"src/exchange.sol\":7385:7513  address[] storage requestants = (request.Type==RequestTypes.SELL ? sellRequestants[tokenAddress] : buyRequestants[tokenAddress]) */\n      swap1\n      pop\n        /* \"src/exchange.sol\":7656:7665  uint256 i */\n      0x00\n        /* \"src/exchange.sol\":7668:7680  requestIndex */\n      dup3\n        /* \"src/exchange.sol\":7656:7680  uint256 i = requestIndex */\n      swap1\n      pop\n        /* \"src/exchange.sol\":7651:7777  for (uint256 i = requestIndex; i < requestants.length - 1; i++) {... */\n    tag_217:\n        /* \"src/exchange.sol\":7707:7708  1 */\n      0x01\n        /* \"src/exchange.sol\":7686:7697  requestants */\n      dup3\n        /* \"src/exchange.sol\":7686:7704  requestants.length */\n      dup1\n      sload\n      swap1\n      pop\n        /* \"src/exchange.sol\":7686:7708  requestants.length - 1 */\n      tag_220\n      swap2\n      swap1\n      tag_138\n      jump\t// in\n    tag_220:\n        /* \"src/exchange.sol\":7682:7683  i */\n      dup2\n        /* \"src/exchange.sol\":7682:7708  i < requestants.length - 1 */\n      lt\n        /* \"src/exchange.sol\":7651:7777  for (uint256 i = requestIndex; i < requestants.length - 1; i++) {... */\n      iszero\n      tag_218\n      jumpi\n        /* \"src/exchange.sol\":7747:7758  requestants */\n      dup2\n        /* \"src/exchange.sol\":7763:7764  1 */\n      0x01\n        /* \"src/exchange.sol\":7759:7760  i */\n      dup3\n        /* \"src/exchange.sol\":7759:7764  i + 1 */\n      tag_221\n      swap2\n      swap1\n      tag_222\n      jump\t// in\n    tag_221:\n        /* \"src/exchange.sol\":7747:7765  requestants[i + 1] */\n      dup2\n      sload\n      dup2\n      lt\n      tag_223\n      jumpi\n      tag_224\n      tag_141\n      jump\t// in\n    tag_224:\n    tag_223:\n      swap1\n      0x00\n      mstore\n      keccak256(0x00, 0x20)\n      add\n      0x00\n      swap1\n      sload\n      swap1\n      0x0100\n      exp\n      swap1\n      div\n      0xffffffffffffffffffffffffffffffffffffffff\n      and\n        /* \"src/exchange.sol\":7730:7741  requestants */\n      dup3\n        /* \"src/exchange.sol\":7742:7743  i */\n      dup3\n        /* \"src/exchange.sol\":7730:7744  requestants[i] */\n      dup2\n      sload\n      dup2\n      lt\n      tag_226\n      jumpi\n      tag_227\n      tag_141\n      jump\t// in\n    tag_227:\n    tag_226:\n      swap1\n      0x00\n      mstore\n      keccak256(0x00, 0x20)\n      add\n      0x00\n        /* \"src/exchange.sol\":7730:7765  requestants[i] = requestants[i + 1] */\n      0x0100\n      exp\n      dup2\n      sload\n      dup2\n      0xffffffffffffffffffffffffffffffffffffffff\n      mul\n      not\n      and\n      swap1\n      dup4\n      0xffffffffffffffffffffffffffffffffffffffff\n      and\n      mul\n      or\n      swap1\n      sstore\n      pop\n        /* \"src/exchange.sol\":7710:7713  i++ */\n      dup1\n      dup1\n      0x01\n      add\n      swap2\n      pop\n      pop\n        /* \"src/exchange.sol\":7651:7777  for (uint256 i = requestIndex; i < requestants.length - 1; i++) {... */\n      jump(tag_217)\n    tag_218:\n      pop\n        /* \"src/exchange.sol\":7787:7798  requestants */\n      dup1\n        /* \"src/exchange.sol\":7787:7804  requestants.pop() */\n      dup1\n      sload\n      dup1\n      tag_229\n      jumpi\n      tag_230\n      tag_231\n      jump\t// in\n    tag_230:\n    tag_229:\n      0x01\n      swap1\n      sub\n      dup2\n      dup2\n      swap1\n      0x00\n      mstore\n      keccak256(0x00, 0x20)\n      add\n      exp(0x0100, 0x00)\n      dup2\n      sload\n      swap1\n      0xffffffffffffffffffffffffffffffffffffffff\n      mul\n      not\n      and\n      swap1\n      sstore\n      swap1\n      sstore\n        /* \"src/exchange.sol\":7830:7847  RequestTypes.NONE */\n      0x00\n        /* \"src/exchange.sol\":7815:7822  request */\n      dup4\n        /* \"src/exchange.sol\":7815:7827  request.Type */\n      0x04\n      add\n      0x00\n        /* \"src/exchange.sol\":7815:7847  request.Type = RequestTypes.NONE */\n      0x0100\n      exp\n      dup2\n      sload\n      dup2\n      0xff\n      mul\n      not\n      and\n      swap1\n      dup4\n      0x02\n      dup2\n      gt\n      iszero\n      tag_233\n      jumpi\n      tag_234\n      tag_67\n      jump\t// in\n    tag_234:\n    tag_233:\n      mul\n      or\n      swap1\n      sstore\n      pop\n        /* \"src/exchange.sol\":7374:7855  {... */\n      pop\n        /* \"src/exchange.sol\":7270:7855  function removeRequest(address tokenAddress, UserRequest storage request, uint256 requestIndex) private {... */\n      pop\n      pop\n      pop\n      jump\t// out\n        /* \"#utility.yul\":7:97   */\n    tag_235:\n        /* \"#utility.yul\":41:48   */\n      0x00\n        /* \"#utility.yul\":84:89   */\n      dup2\n        /* \"#utility.yul\":77:90   */\n      iszero\n        /* \"#utility.yul\":70:91   */\n      iszero\n        /* \"#utility.yul\":59:91   */\n      swap1\n      pop\n        /* \"#utility.yul\":7:97   */\n      swap2\n      swap1\n      pop\n      jump\t// out\n        /* \"#utility.yul\":103:212   */\n    tag_236:\n        /* \"#utility.yul\":184:205   */\n      tag_277\n        /* \"#utility.yul\":199:204   */\n      dup2\n        /* \"#utility.yul\":184:205   */\n      tag_235\n      jump\t// in\n    tag_277:\n        /* \"#utility.yul\":179:182   */\n      dup3\n        /* \"#utility.yul\":172:206   */\n      mstore\n        /* \"#utility.yul\":103:212   */\n      pop\n      pop\n      jump\t// out\n        /* \"#utility.yul\":218:428   */\n    tag_16:\n        /* \"#utility.yul\":305:309   */\n      0x00\n        /* \"#utility.yul\":343:345   */\n      0x20\n        /* \"#utility.yul\":332:341   */\n      dup3\n        /* \"#utility.yul\":328:346   */\n      add\n        /* \"#utility.yul\":320:346   */\n      swap1\n      pop\n        /* \"#utility.yul\":356:421   */\n      tag_279\n        /* \"#utility.yul\":418:419   */\n      0x00\n        /* \"#utility.yul\":407:416   */\n      dup4\n        /* \"#utility.yul\":403:420   */\n      add\n        /* \"#utility.yul\":394:400   */\n      dup5\n        /* \"#utility.yul\":356:421   */\n      tag_236\n      jump\t// in\n    tag_279:\n        /* \"#utility.yul\":218:428   */\n      swap3\n      swap2\n      pop\n      pop\n      jump\t// out\n        /* \"#utility.yul\":515:632   */\n    tag_238:\n        /* \"#utility.yul\":624:625   */\n      0x00\n        /* \"#utility.yul\":621:622   */\n      dup1\n        /* \"#utility.yul\":614:626   */\n      revert\n        /* \"#utility.yul\":761:887   */\n    tag_240:\n        /* \"#utility.yul\":798:805   */\n      0x00\n        /* \"#utility.yul\":838:880   */\n      0xffffffffffffffffffffffffffffffffffffffff\n        /* \"#utility.yul\":831:836   */\n      dup3\n        /* \"#utility.yul\":827:881   */\n      and\n        /* \"#utility.yul\":816:881   */\n      swap1\n      pop\n        /* \"#utility.yul\":761:887   */\n      swap2\n      swap1\n      pop\n      jump\t// out\n        /* \"#utility.yul\":893:989   */\n    tag_241:\n        /* \"#utility.yul\":930:937   */\n      0x00\n        /* \"#utility.yul\":959:983   */\n      tag_285\n        /* \"#utility.yul\":977:982   */\n      dup3\n        /* \"#utility.yul\":959:983   */\n      tag_240\n      jump\t// in\n    tag_285:\n        /* \"#utility.yul\":948:983   */\n      swap1\n      pop\n        /* \"#utility.yul\":893:989   */\n      swap2\n      swap1\n      pop\n      jump\t// out\n        /* \"#utility.yul\":995:1117   */\n    tag_242:\n        /* \"#utility.yul\":1068:1092   */\n      tag_287\n        /* \"#utility.yul\":1086:1091   */\n      dup2\n        /* \"#utility.yul\":1068:1092   */\n      tag_241\n      jump\t// in\n    tag_287:\n        /* \"#utility.yul\":1061:1066   */\n      dup2\n        /* \"#utility.yul\":1058:1093   */\n      eq\n        /* \"#utility.yul\":1048:1111   */\n      tag_288\n      jumpi\n        /* \"#utility.yul\":1107:1108   */\n      0x00\n        /* \"#utility.yul\":1104:1105   */\n      dup1\n        /* \"#utility.yul\":1097:1109   */\n      revert\n        /* \"#utility.yul\":1048:1111   */\n    tag_288:\n        /* \"#utility.yul\":995:1117   */\n      pop\n      jump\t// out\n        /* \"#utility.yul\":1123:1262   */\n    tag_243:\n        /* \"#utility.yul\":1169:1174   */\n      0x00\n        /* \"#utility.yul\":1207:1213   */\n      dup2\n        /* \"#utility.yul\":1194:1214   */\n      calldataload\n        /* \"#utility.yul\":1185:1214   */\n      swap1\n      pop\n        /* \"#utility.yul\":1223:1256   */\n      tag_290\n        /* \"#utility.yul\":1250:1255   */\n      dup2\n        /* \"#utility.yul\":1223:1256   */\n      tag_242\n      jump\t// in\n    tag_290:\n        /* \"#utility.yul\":1123:1262   */\n      swap3\n      swap2\n      pop\n      pop\n      jump\t// out\n        /* \"#utility.yul\":1268:1345   */\n    tag_244:\n        /* \"#utility.yul\":1305:1312   */\n      0x00\n        /* \"#utility.yul\":1334:1339   */\n      dup2\n        /* \"#utility.yul\":1323:1339   */\n      swap1\n      pop\n        /* \"#utility.yul\":1268:1345   */\n      swap2\n      swap1\n      pop\n      jump\t// out\n        /* \"#utility.yul\":1351:1473   */\n    tag_245:\n        /* \"#utility.yul\":1424:1448   */\n      tag_293\n        /* \"#utility.yul\":1442:1447   */\n      dup2\n        /* \"#utility.yul\":1424:1448   */\n      tag_244\n      jump\t// in\n    tag_293:\n        /* \"#utility.yul\":1417:1422   */\n      dup2\n        /* \"#utility.yul\":1414:1449   */\n      eq\n        /* \"#utility.yul\":1404:1467   */\n      tag_294\n      jumpi\n        /* \"#utility.yul\":1463:1464   */\n      0x00\n        /* \"#utility.yul\":1460:1461   */\n      dup1\n        /* \"#utility.yul\":1453:1465   */\n      revert\n        /* \"#utility.yul\":1404:1467   */\n    tag_294:\n        /* \"#utility.yul\":1351:1473   */\n      pop\n      jump\t// out\n        /* \"#utility.yul\":1479:1618   */\n    tag_246:\n        /* \"#utility.yul\":1525:1530   */\n      0x00\n        /* \"#utility.yul\":1563:1569   */\n      dup2\n        /* \"#utility.yul\":1550:1570   */\n      calldataload\n        /* \"#utility.yul\":1541:1570   */\n      swap1\n      pop\n        /* \"#utility.yul\":1579:1612   */\n      tag_296\n        /* \"#utility.yul\":1606:1611   */\n      dup2\n        /* \"#utility.yul\":1579:1612   */\n      tag_245\n      jump\t// in\n    tag_296:\n        /* \"#utility.yul\":1479:1618   */\n      swap3\n      swap2\n      pop\n      pop\n      jump\t// out\n        /* \"#utility.yul\":1624:2098   */\n    tag_20:\n        /* \"#utility.yul\":1692:1698   */\n      0x00\n        /* \"#utility.yul\":1700:1706   */\n      dup1\n        /* \"#utility.yul\":1749:1751   */\n      0x40\n        /* \"#utility.yul\":1737:1746   */\n      dup4\n        /* \"#utility.yul\":1728:1735   */\n      dup6\n        /* \"#utility.yul\":1724:1747   */\n      sub\n        /* \"#utility.yul\":1720:1752   */\n      slt\n        /* \"#utility.yul\":1717:1836   */\n      iszero\n      tag_298\n      jumpi\n        /* \"#utility.yul\":1755:1834   */\n      tag_299\n      tag_238\n      jump\t// in\n    tag_299:\n        /* \"#utility.yul\":1717:1836   */\n    tag_298:\n        /* \"#utility.yul\":1875:1876   */\n      0x00\n        /* \"#utility.yul\":1900:1953   */\n      tag_300\n        /* \"#utility.yul\":1945:1952   */\n      dup6\n        /* \"#utility.yul\":1936:1942   */\n      dup3\n        /* \"#utility.yul\":1925:1934   */\n      dup7\n        /* \"#utility.yul\":1921:1943   */\n      add\n        /* \"#utility.yul\":1900:1953   */\n      tag_243\n      jump\t// in\n    tag_300:\n        /* \"#utility.yul\":1890:1953   */\n      swap3\n      pop\n        /* \"#utility.yul\":1846:1963   */\n      pop\n        /* \"#utility.yul\":2002:2004   */\n      0x20\n        /* \"#utility.yul\":2028:2081   */\n      tag_301\n        /* \"#utility.yul\":2073:2080   */\n      dup6\n        /* \"#utility.yul\":2064:2070   */\n      dup3\n        /* \"#utility.yul\":2053:2062   */\n      dup7\n        /* \"#utility.yul\":2049:2071   */\n      add\n        /* \"#utility.yul\":2028:2081   */\n      tag_246\n      jump\t// in\n    tag_301:\n        /* \"#utility.yul\":2018:2081   */\n      swap2\n      pop\n        /* \"#utility.yul\":1973:2091   */\n      pop\n        /* \"#utility.yul\":1624:2098   */\n      swap3\n      pop\n      swap3\n      swap1\n      pop\n      jump\t// out\n        /* \"#utility.yul\":2104:2222   */\n    tag_247:\n        /* \"#utility.yul\":2191:2215   */\n      tag_303\n        /* \"#utility.yul\":2209:2214   */\n      dup2\n        /* \"#utility.yul\":2191:2215   */\n      tag_241\n      jump\t// in\n    tag_303:\n        /* \"#utility.yul\":2186:2189   */\n      dup3\n        /* \"#utility.yul\":2179:2216   */\n      mstore\n        /* \"#utility.yul\":2104:2222   */\n      pop\n      pop\n      jump\t// out\n        /* \"#utility.yul\":2228:2450   */\n    tag_23:\n        /* \"#utility.yul\":2321:2325   */\n      0x00\n        /* \"#utility.yul\":2359:2361   */\n      0x20\n        /* \"#utility.yul\":2348:2357   */\n      dup3\n        /* \"#utility.yul\":2344:2362   */\n      add\n        /* \"#utility.yul\":2336:2362   */\n      swap1\n      pop\n        /* \"#utility.yul\":2372:2443   */\n      tag_305\n        /* \"#utility.yul\":2440:2441   */\n      0x00\n        /* \"#utility.yul\":2429:2438   */\n      dup4\n        /* \"#utility.yul\":2425:2442   */\n      add\n        /* \"#utility.yul\":2416:2422   */\n      dup5\n        /* \"#utility.yul\":2372:2443   */\n      tag_247\n      jump\t// in\n    tag_305:\n        /* \"#utility.yul\":2228:2450   */\n      swap3\n      swap2\n      pop\n      pop\n      jump\t// out\n        /* \"#utility.yul\":2456:3075   */\n    tag_27:\n        /* \"#utility.yul\":2533:2539   */\n      0x00\n        /* \"#utility.yul\":2541:2547   */\n      dup1\n        /* \"#utility.yul\":2549:2555   */\n      0x00\n        /* \"#utility.yul\":2598:2600   */\n      0x60\n        /* \"#utility.yul\":2586:2595   */\n      dup5\n        /* \"#utility.yul\":2577:2584   */\n      dup7\n        /* \"#utility.yul\":2573:2596   */\n      sub\n        /* \"#utility.yul\":2569:2601   */\n      slt\n        /* \"#utility.yul\":2566:2685   */\n      iszero\n      tag_307\n      jumpi\n        /* \"#utility.yul\":2604:2683   */\n      tag_308\n      tag_238\n      jump\t// in\n    tag_308:\n        /* \"#utility.yul\":2566:2685   */\n    tag_307:\n        /* \"#utility.yul\":2724:2725   */\n      0x00\n        /* \"#utility.yul\":2749:2802   */\n      tag_309\n        /* \"#utility.yul\":2794:2801   */\n      dup7\n        /* \"#utility.yul\":2785:2791   */\n      dup3\n        /* \"#utility.yul\":2774:2783   */\n      dup8\n        /* \"#utility.yul\":2770:2792   */\n      add\n        /* \"#utility.yul\":2749:2802   */\n      tag_243\n      jump\t// in\n    tag_309:\n        /* \"#utility.yul\":2739:2802   */\n      swap4\n      pop\n        /* \"#utility.yul\":2695:2812   */\n      pop\n        /* \"#utility.yul\":2851:2853   */\n      0x20\n        /* \"#utility.yul\":2877:2930   */\n      tag_310\n        /* \"#utility.yul\":2922:2929   */\n      dup7\n        /* \"#utility.yul\":2913:2919   */\n      dup3\n        /* \"#utility.yul\":2902:2911   */\n      dup8\n        /* \"#utility.yul\":2898:2920   */\n      add\n        /* \"#utility.yul\":2877:2930   */\n      tag_246\n      jump\t// in\n    tag_310:\n        /* \"#utility.yul\":2867:2930   */\n      swap3\n      pop\n        /* \"#utility.yul\":2822:2940   */\n      pop\n        /* \"#utility.yul\":2979:2981   */\n      0x40\n        /* \"#utility.yul\":3005:3058   */\n      tag_311\n        /* \"#utility.yul\":3050:3057   */\n      dup7\n        /* \"#utility.yul\":3041:3047   */\n      dup3\n        /* \"#utility.yul\":3030:3039   */\n      dup8\n        /* \"#utility.yul\":3026:3048   */\n      add\n        /* \"#utility.yul\":3005:3058   */\n      tag_246\n      jump\t// in\n    tag_311:\n        /* \"#utility.yul\":2995:3058   */\n      swap2\n      pop\n        /* \"#utility.yul\":2950:3068   */\n      pop\n        /* \"#utility.yul\":2456:3075   */\n      swap3\n      pop\n      swap3\n      pop\n      swap3\n      jump\t// out\n        /* \"#utility.yul\":3081:3410   */\n    tag_40:\n        /* \"#utility.yul\":3140:3146   */\n      0x00\n        /* \"#utility.yul\":3189:3191   */\n      0x20\n        /* \"#utility.yul\":3177:3186   */\n      dup3\n        /* \"#utility.yul\":3168:3175   */\n      dup5\n        /* \"#utility.yul\":3164:3187   */\n      sub\n        /* \"#utility.yul\":3160:3192   */\n      slt\n        /* \"#utility.yul\":3157:3276   */\n      iszero\n      tag_313\n      jumpi\n        /* \"#utility.yul\":3195:3274   */\n      tag_314\n      tag_238\n      jump\t// in\n    tag_314:\n        /* \"#utility.yul\":3157:3276   */\n    tag_313:\n        /* \"#utility.yul\":3315:3316   */\n      0x00\n        /* \"#utility.yul\":3340:3393   */\n      tag_315\n        /* \"#utility.yul\":3385:3392   */\n      dup5\n        /* \"#utility.yul\":3376:3382   */\n      dup3\n        /* \"#utility.yul\":3365:3374   */\n      dup6\n        /* \"#utility.yul\":3361:3383   */\n      add\n        /* \"#utility.yul\":3340:3393   */\n      tag_243\n      jump\t// in\n    tag_315:\n        /* \"#utility.yul\":3330:3393   */\n      swap2\n      pop\n        /* \"#utility.yul\":3286:3403   */\n      pop\n        /* \"#utility.yul\":3081:3410   */\n      swap3\n      swap2\n      pop\n      pop\n      jump\t// out\n        /* \"#utility.yul\":3416:3524   */\n    tag_248:\n        /* \"#utility.yul\":3493:3517   */\n      tag_317\n        /* \"#utility.yul\":3511:3516   */\n      dup2\n        /* \"#utility.yul\":3493:3517   */\n      tag_241\n      jump\t// in\n    tag_317:\n        /* \"#utility.yul\":3488:3491   */\n      dup3\n        /* \"#utility.yul\":3481:3518   */\n      mstore\n        /* \"#utility.yul\":3416:3524   */\n      pop\n      pop\n      jump\t// out\n        /* \"#utility.yul\":3530:3638   */\n    tag_249:\n        /* \"#utility.yul\":3607:3631   */\n      tag_319\n        /* \"#utility.yul\":3625:3630   */\n      dup2\n        /* \"#utility.yul\":3607:3631   */\n      tag_244\n      jump\t// in\n    tag_319:\n        /* \"#utility.yul\":3602:3605   */\n      dup3\n        /* \"#utility.yul\":3595:3632   */\n      mstore\n        /* \"#utility.yul\":3530:3638   */\n      pop\n      pop\n      jump\t// out\n        /* \"#utility.yul\":3644:3824   */\n    tag_67:\n        /* \"#utility.yul\":3692:3769   */\n      0x4e487b7100000000000000000000000000000000000000000000000000000000\n        /* \"#utility.yul\":3689:3690   */\n      0x00\n        /* \"#utility.yul\":3682:3770   */\n      mstore\n        /* \"#utility.yul\":3789:3793   */\n      0x21\n        /* \"#utility.yul\":3786:3787   */\n      0x04\n        /* \"#utility.yul\":3779:3794   */\n      mstore\n        /* \"#utility.yul\":3813:3817   */\n      0x24\n        /* \"#utility.yul\":3810:3811   */\n      0x00\n        /* \"#utility.yul\":3803:3818   */\n      revert\n        /* \"#utility.yul\":3830:3950   */\n    tag_250:\n        /* \"#utility.yul\":3918:3919   */\n      0x03\n        /* \"#utility.yul\":3911:3916   */\n      dup2\n        /* \"#utility.yul\":3908:3920   */\n      lt\n        /* \"#utility.yul\":3898:3944   */\n      tag_322\n      jumpi\n        /* \"#utility.yul\":3924:3942   */\n      tag_323\n      tag_67\n      jump\t// in\n    tag_323:\n        /* \"#utility.yul\":3898:3944   */\n    tag_322:\n        /* \"#utility.yul\":3830:3950   */\n      pop\n      jump\t// out\n        /* \"#utility.yul\":3956:4097   */\n    tag_251:\n        /* \"#utility.yul\":4008:4015   */\n      0x00\n        /* \"#utility.yul\":4037:4042   */\n      dup2\n        /* \"#utility.yul\":4026:4042   */\n      swap1\n      pop\n        /* \"#utility.yul\":4043:4091   */\n      tag_325\n        /* \"#utility.yul\":4085:4090   */\n      dup3\n        /* \"#utility.yul\":4043:4091   */\n      tag_250\n      jump\t// in\n    tag_325:\n        /* \"#utility.yul\":3956:4097   */\n      swap2\n      swap1\n      pop\n      jump\t// out\n        /* \"#utility.yul\":4103:4244   */\n    tag_252:\n        /* \"#utility.yul\":4166:4175   */\n      0x00\n        /* \"#utility.yul\":4199:4238   */\n      tag_327\n        /* \"#utility.yul\":4232:4237   */\n      dup3\n        /* \"#utility.yul\":4199:4238   */\n      tag_251\n      jump\t// in\n    tag_327:\n        /* \"#utility.yul\":4186:4238   */\n      swap1\n      pop\n        /* \"#utility.yul\":4103:4244   */\n      swap2\n      swap1\n      pop\n      jump\t// out\n        /* \"#utility.yul\":4250:4397   */\n    tag_253:\n        /* \"#utility.yul\":4340:4390   */\n      tag_329\n        /* \"#utility.yul\":4384:4389   */\n      dup2\n        /* \"#utility.yul\":4340:4390   */\n      tag_252\n      jump\t// in\n    tag_329:\n        /* \"#utility.yul\":4335:4338   */\n      dup3\n        /* \"#utility.yul\":4328:4391   */\n      mstore\n        /* \"#utility.yul\":4250:4397   */\n      pop\n      pop\n      jump\t// out\n        /* \"#utility.yul\":4469:5532   */\n    tag_254:\n        /* \"#utility.yul\":4622:4626   */\n      0xa0\n        /* \"#utility.yul\":4617:4620   */\n      dup3\n        /* \"#utility.yul\":4613:4627   */\n      add\n        /* \"#utility.yul\":4717:4721   */\n      0x00\n        /* \"#utility.yul\":4710:4715   */\n      dup3\n        /* \"#utility.yul\":4706:4722   */\n      add\n        /* \"#utility.yul\":4700:4723   */\n      mload\n        /* \"#utility.yul\":4736:4799   */\n      tag_331\n        /* \"#utility.yul\":4793:4797   */\n      0x00\n        /* \"#utility.yul\":4788:4791   */\n      dup6\n        /* \"#utility.yul\":4784:4798   */\n      add\n        /* \"#utility.yul\":4770:4782   */\n      dup3\n        /* \"#utility.yul\":4736:4799   */\n      tag_248\n      jump\t// in\n    tag_331:\n        /* \"#utility.yul\":4637:4809   */\n      pop\n        /* \"#utility.yul\":4893:4897   */\n      0x20\n        /* \"#utility.yul\":4886:4891   */\n      dup3\n        /* \"#utility.yul\":4882:4898   */\n      add\n        /* \"#utility.yul\":4876:4899   */\n      mload\n        /* \"#utility.yul\":4912:4975   */\n      tag_332\n        /* \"#utility.yul\":4969:4973   */\n      0x20\n        /* \"#utility.yul\":4964:4967   */\n      dup6\n        /* \"#utility.yul\":4960:4974   */\n      add\n        /* \"#utility.yul\":4946:4958   */\n      dup3\n        /* \"#utility.yul\":4912:4975   */\n      tag_249\n      jump\t// in\n    tag_332:\n        /* \"#utility.yul\":4819:4985   */\n      pop\n        /* \"#utility.yul\":5072:5076   */\n      0x40\n        /* \"#utility.yul\":5065:5070   */\n      dup3\n        /* \"#utility.yul\":5061:5077   */\n      add\n        /* \"#utility.yul\":5055:5078   */\n      mload\n        /* \"#utility.yul\":5091:5154   */\n      tag_333\n        /* \"#utility.yul\":5148:5152   */\n      0x40\n        /* \"#utility.yul\":5143:5146   */\n      dup6\n        /* \"#utility.yul\":5139:5153   */\n      add\n        /* \"#utility.yul\":5125:5137   */\n      dup3\n        /* \"#utility.yul\":5091:5154   */\n      tag_249\n      jump\t// in\n    tag_333:\n        /* \"#utility.yul\":4995:5164   */\n      pop\n        /* \"#utility.yul\":5246:5250   */\n      0x60\n        /* \"#utility.yul\":5239:5244   */\n      dup3\n        /* \"#utility.yul\":5235:5251   */\n      add\n        /* \"#utility.yul\":5229:5252   */\n      mload\n        /* \"#utility.yul\":5265:5328   */\n      tag_334\n        /* \"#utility.yul\":5322:5326   */\n      0x60\n        /* \"#utility.yul\":5317:5320   */\n      dup6\n        /* \"#utility.yul\":5313:5327   */\n      add\n        /* \"#utility.yul\":5299:5311   */\n      dup3\n        /* \"#utility.yul\":5265:5328   */\n      tag_249\n      jump\t// in\n    tag_334:\n        /* \"#utility.yul\":5174:5338   */\n      pop\n        /* \"#utility.yul\":5420:5424   */\n      0x80\n        /* \"#utility.yul\":5413:5418   */\n      dup3\n        /* \"#utility.yul\":5409:5425   */\n      add\n        /* \"#utility.yul\":5403:5426   */\n      mload\n        /* \"#utility.yul\":5439:5515   */\n      tag_335\n        /* \"#utility.yul\":5509:5513   */\n      0x80\n        /* \"#utility.yul\":5504:5507   */\n      dup6\n        /* \"#utility.yul\":5500:5514   */\n      add\n        /* \"#utility.yul\":5486:5498   */\n      dup3\n        /* \"#utility.yul\":5439:5515   */\n      tag_253\n      jump\t// in\n    tag_335:\n        /* \"#utility.yul\":5348:5525   */\n      pop\n        /* \"#utility.yul\":4591:5532   */\n      pop\n        /* \"#utility.yul\":4469:5532   */\n      pop\n      pop\n      jump\t// out\n        /* \"#utility.yul\":5538:5873   */\n    tag_48:\n        /* \"#utility.yul\":5687:5691   */\n      0x00\n        /* \"#utility.yul\":5725:5728   */\n      0xa0\n        /* \"#utility.yul\":5714:5723   */\n      dup3\n        /* \"#utility.yul\":5710:5729   */\n      add\n        /* \"#utility.yul\":5702:5729   */\n      swap1\n      pop\n        /* \"#utility.yul\":5739:5866   */\n      tag_337\n        /* \"#utility.yul\":5863:5864   */\n      0x00\n        /* \"#utility.yul\":5852:5861   */\n      dup4\n        /* \"#utility.yul\":5848:5865   */\n      add\n        /* \"#utility.yul\":5839:5845   */\n      dup5\n        /* \"#utility.yul\":5739:5866   */\n      tag_254\n      jump\t// in\n    tag_337:\n        /* \"#utility.yul\":5538:5873   */\n      swap3\n      swap2\n      pop\n      pop\n      jump\t// out\n        /* \"#utility.yul\":5879:6048   */\n    tag_255:\n        /* \"#utility.yul\":5963:5974   */\n      0x00\n        /* \"#utility.yul\":5997:6003   */\n      dup3\n        /* \"#utility.yul\":5992:5995   */\n      dup3\n        /* \"#utility.yul\":5985:6004   */\n      mstore\n        /* \"#utility.yul\":6037:6041   */\n      0x20\n        /* \"#utility.yul\":6032:6035   */\n      dup3\n        /* \"#utility.yul\":6028:6042   */\n      add\n        /* \"#utility.yul\":6013:6042   */\n      swap1\n      pop\n        /* \"#utility.yul\":5879:6048   */\n      swap3\n      swap2\n      pop\n      pop\n      jump\t// out\n        /* \"#utility.yul\":6054:6228   */\n    tag_256:\n        /* \"#utility.yul\":6194:6220   */\n      0x43616c6c6572206973206e6f7420617574686f72697a65640000000000000000\n        /* \"#utility.yul\":6190:6191   */\n      0x00\n        /* \"#utility.yul\":6182:6188   */\n      dup3\n        /* \"#utility.yul\":6178:6192   */\n      add\n        /* \"#utility.yul\":6171:6221   */\n      mstore\n        /* \"#utility.yul\":6054:6228   */\n      pop\n      jump\t// out\n        /* \"#utility.yul\":6234:6600   */\n    tag_257:\n        /* \"#utility.yul\":6376:6379   */\n      0x00\n        /* \"#utility.yul\":6397:6464   */\n      tag_341\n        /* \"#utility.yul\":6461:6463   */\n      0x18\n        /* \"#utility.yul\":6456:6459   */\n      dup4\n        /* \"#utility.yul\":6397:6464   */\n      tag_255\n      jump\t// in\n    tag_341:\n        /* \"#utility.yul\":6390:6464   */\n      swap2\n      pop\n        /* \"#utility.yul\":6473:6566   */\n      tag_342\n        /* \"#utility.yul\":6562:6565   */\n      dup3\n        /* \"#utility.yul\":6473:6566   */\n      tag_256\n      jump\t// in\n    tag_342:\n        /* \"#utility.yul\":6591:6593   */\n      0x20\n        /* \"#utility.yul\":6586:6589   */\n      dup3\n        /* \"#utility.yul\":6582:6594   */\n      add\n        /* \"#utility.yul\":6575:6594   */\n      swap1\n      pop\n        /* \"#utility.yul\":6234:6600   */\n      swap2\n      swap1\n      pop\n      jump\t// out\n        /* \"#utility.yul\":6606:7025   */\n    tag_60:\n        /* \"#utility.yul\":6772:6776   */\n      0x00\n        /* \"#utility.yul\":6810:6812   */\n      0x20\n        /* \"#utility.yul\":6799:6808   */\n      dup3\n        /* \"#utility.yul\":6795:6813   */\n      add\n        /* \"#utility.yul\":6787:6813   */\n      swap1\n      pop\n        /* \"#utility.yul\":6859:6868   */\n      dup2\n        /* \"#utility.yul\":6853:6857   */\n      dup2\n        /* \"#utility.yul\":6849:6869   */\n      sub\n        /* \"#utility.yul\":6845:6846   */\n      0x00\n        /* \"#utility.yul\":6834:6843   */\n      dup4\n        /* \"#utility.yul\":6830:6847   */\n      add\n        /* \"#utility.yul\":6823:6870   */\n      mstore\n        /* \"#utility.yul\":6887:7018   */\n      tag_344\n        /* \"#utility.yul\":7013:7017   */\n      dup2\n        /* \"#utility.yul\":6887:7018   */\n      tag_257\n      jump\t// in\n    tag_344:\n        /* \"#utility.yul\":6879:7018   */\n      swap1\n      pop\n        /* \"#utility.yul\":6606:7025   */\n      swap2\n      swap1\n      pop\n      jump\t// out\n        /* \"#utility.yul\":7031:7363   */\n    tag_73:\n        /* \"#utility.yul\":7152:7156   */\n      0x00\n        /* \"#utility.yul\":7190:7192   */\n      0x40\n        /* \"#utility.yul\":7179:7188   */\n      dup3\n        /* \"#utility.yul\":7175:7193   */\n      add\n        /* \"#utility.yul\":7167:7193   */\n      swap1\n      pop\n        /* \"#utility.yul\":7203:7274   */\n      tag_346\n        /* \"#utility.yul\":7271:7272   */\n      0x00\n        /* \"#utility.yul\":7260:7269   */\n      dup4\n        /* \"#utility.yul\":7256:7273   */\n      add\n        /* \"#utility.yul\":7247:7253   */\n      dup6\n        /* \"#utility.yul\":7203:7274   */\n      tag_247\n      jump\t// in\n    tag_346:\n        /* \"#utility.yul\":7284:7356   */\n      tag_347\n        /* \"#utility.yul\":7352:7354   */\n      0x20\n        /* \"#utility.yul\":7341:7350   */\n      dup4\n        /* \"#utility.yul\":7337:7355   */\n      add\n        /* \"#utility.yul\":7328:7334   */\n      dup5\n        /* \"#utility.yul\":7284:7356   */\n      tag_247\n      jump\t// in\n    tag_347:\n        /* \"#utility.yul\":7031:7363   */\n      swap4\n      swap3\n      pop\n      pop\n      pop\n      jump\t// out\n        /* \"#utility.yul\":7369:7512   */\n    tag_258:\n        /* \"#utility.yul\":7426:7431   */\n      0x00\n        /* \"#utility.yul\":7457:7463   */\n      dup2\n        /* \"#utility.yul\":7451:7464   */\n      mload\n        /* \"#utility.yul\":7442:7464   */\n      swap1\n      pop\n        /* \"#utility.yul\":7473:7506   */\n      tag_349\n        /* \"#utility.yul\":7500:7505   */\n      dup2\n        /* \"#utility.yul\":7473:7506   */\n      tag_245\n      jump\t// in\n    tag_349:\n        /* \"#utility.yul\":7369:7512   */\n      swap3\n      swap2\n      pop\n      pop\n      jump\t// out\n        /* \"#utility.yul\":7518:7869   */\n    tag_77:\n        /* \"#utility.yul\":7588:7594   */\n      0x00\n        /* \"#utility.yul\":7637:7639   */\n      0x20\n        /* \"#utility.yul\":7625:7634   */\n      dup3\n        /* \"#utility.yul\":7616:7623   */\n      dup5\n        /* \"#utility.yul\":7612:7635   */\n      sub\n        /* \"#utility.yul\":7608:7640   */\n      slt\n        /* \"#utility.yul\":7605:7724   */\n      iszero\n      tag_351\n      jumpi\n        /* \"#utility.yul\":7643:7722   */\n      tag_352\n      tag_238\n      jump\t// in\n    tag_352:\n        /* \"#utility.yul\":7605:7724   */\n    tag_351:\n        /* \"#utility.yul\":7763:7764   */\n      0x00\n        /* \"#utility.yul\":7788:7852   */\n      tag_353\n        /* \"#utility.yul\":7844:7851   */\n      dup5\n        /* \"#utility.yul\":7835:7841   */\n      dup3\n        /* \"#utility.yul\":7824:7833   */\n      dup6\n        /* \"#utility.yul\":7820:7842   */\n      add\n        /* \"#utility.yul\":7788:7852   */\n      tag_258\n      jump\t// in\n    tag_353:\n        /* \"#utility.yul\":7778:7852   */\n      swap2\n      pop\n        /* \"#utility.yul\":7734:7862   */\n      pop\n        /* \"#utility.yul\":7518:7869   */\n      swap3\n      swap2\n      pop\n      pop\n      jump\t// out\n        /* \"#utility.yul\":7875:7993   */\n    tag_259:\n        /* \"#utility.yul\":7962:7986   */\n      tag_355\n        /* \"#utility.yul\":7980:7985   */\n      dup2\n        /* \"#utility.yul\":7962:7986   */\n      tag_244\n      jump\t// in\n    tag_355:\n        /* \"#utility.yul\":7957:7960   */\n      dup3\n        /* \"#utility.yul\":7950:7987   */\n      mstore\n        /* \"#utility.yul\":7875:7993   */\n      pop\n      pop\n      jump\t// out\n        /* \"#utility.yul\":7999:8441   */\n    tag_89:\n        /* \"#utility.yul\":8148:8152   */\n      0x00\n        /* \"#utility.yul\":8186:8188   */\n      0x60\n        /* \"#utility.yul\":8175:8184   */\n      dup3\n        /* \"#utility.yul\":8171:8189   */\n      add\n        /* \"#utility.yul\":8163:8189   */\n      swap1\n      pop\n        /* \"#utility.yul\":8199:8270   */\n      tag_357\n        /* \"#utility.yul\":8267:8268   */\n      0x00\n        /* \"#utility.yul\":8256:8265   */\n      dup4\n        /* \"#utility.yul\":8252:8269   */\n      add\n        /* \"#utility.yul\":8243:8249   */\n      dup7\n        /* \"#utility.yul\":8199:8270   */\n      tag_247\n      jump\t// in\n    tag_357:\n        /* \"#utility.yul\":8280:8352   */\n      tag_358\n        /* \"#utility.yul\":8348:8350   */\n      0x20\n        /* \"#utility.yul\":8337:8346   */\n      dup4\n        /* \"#utility.yul\":8333:8351   */\n      add\n        /* \"#utility.yul\":8324:8330   */\n      dup6\n        /* \"#utility.yul\":8280:8352   */\n      tag_247\n      jump\t// in\n    tag_358:\n        /* \"#utility.yul\":8362:8434   */\n      tag_359\n        /* \"#utility.yul\":8430:8432   */\n      0x40\n        /* \"#utility.yul\":8419:8428   */\n      dup4\n        /* \"#utility.yul\":8415:8433   */\n      add\n        /* \"#utility.yul\":8406:8412   */\n      dup5\n        /* \"#utility.yul\":8362:8434   */\n      tag_259\n      jump\t// in\n    tag_359:\n        /* \"#utility.yul\":7999:8441   */\n      swap5\n      swap4\n      pop\n      pop\n      pop\n      pop\n      jump\t// out\n        /* \"#utility.yul\":8447:8563   */\n    tag_260:\n        /* \"#utility.yul\":8517:8538   */\n      tag_361\n        /* \"#utility.yul\":8532:8537   */\n      dup2\n        /* \"#utility.yul\":8517:8538   */\n      tag_235\n      jump\t// in\n    tag_361:\n        /* \"#utility.yul\":8510:8515   */\n      dup2\n        /* \"#utility.yul\":8507:8539   */\n      eq\n        /* \"#utility.yul\":8497:8557   */\n      tag_362\n      jumpi\n        /* \"#utility.yul\":8553:8554   */\n      0x00\n        /* \"#utility.yul\":8550:8551   */\n      dup1\n        /* \"#utility.yul\":8543:8555   */\n      revert\n        /* \"#utility.yul\":8497:8557   */\n    tag_362:\n        /* \"#utility.yul\":8447:8563   */\n      pop\n      jump\t// out\n        /* \"#utility.yul\":8569:8706   */\n    tag_261:\n        /* \"#utility.yul\":8623:8628   */\n      0x00\n        /* \"#utility.yul\":8654:8660   */\n      dup2\n        /* \"#utility.yul\":8648:8661   */\n      mload\n        /* \"#utility.yul\":8639:8661   */\n      swap1\n      pop\n        /* \"#utility.yul\":8670:8700   */\n      tag_364\n        /* \"#utility.yul\":8694:8699   */\n      dup2\n        /* \"#utility.yul\":8670:8700   */\n      tag_260\n      jump\t// in\n    tag_364:\n        /* \"#utility.yul\":8569:8706   */\n      swap3\n      swap2\n      pop\n      pop\n      jump\t// out\n        /* \"#utility.yul\":8712:9057   */\n    tag_93:\n        /* \"#utility.yul\":8779:8785   */\n      0x00\n        /* \"#utility.yul\":8828:8830   */\n      0x20\n        /* \"#utility.yul\":8816:8825   */\n      dup3\n        /* \"#utility.yul\":8807:8814   */\n      dup5\n        /* \"#utility.yul\":8803:8826   */\n      sub\n        /* \"#utility.yul\":8799:8831   */\n      slt\n        /* \"#utility.yul\":8796:8915   */\n      iszero\n      tag_366\n      jumpi\n        /* \"#utility.yul\":8834:8913   */\n      tag_367\n      tag_238\n      jump\t// in\n    tag_367:\n        /* \"#utility.yul\":8796:8915   */\n    tag_366:\n        /* \"#utility.yul\":8954:8955   */\n      0x00\n        /* \"#utility.yul\":8979:9040   */\n      tag_368\n        /* \"#utility.yul\":9032:9039   */\n      dup5\n        /* \"#utility.yul\":9023:9029   */\n      dup3\n        /* \"#utility.yul\":9012:9021   */\n      dup6\n        /* \"#utility.yul\":9008:9030   */\n      add\n        /* \"#utility.yul\":8979:9040   */\n      tag_261\n      jump\t// in\n    tag_368:\n        /* \"#utility.yul\":8969:9040   */\n      swap2\n      pop\n        /* \"#utility.yul\":8925:9050   */\n      pop\n        /* \"#utility.yul\":8712:9057   */\n      swap3\n      swap2\n      pop\n      pop\n      jump\t// out\n        /* \"#utility.yul\":9063:9283   */\n    tag_262:\n        /* \"#utility.yul\":9203:9237   */\n      0x546f6b656e207472616e7366657220746f2065786368616e6765206661696c65\n        /* \"#utility.yul\":9199:9200   */\n      0x00\n        /* \"#utility.yul\":9191:9197   */\n      dup3\n        /* \"#utility.yul\":9187:9201   */\n      add\n        /* \"#utility.yul\":9180:9238   */\n      mstore\n        /* \"#utility.yul\":9272:9275   */\n      0x6400000000000000000000000000000000000000000000000000000000000000\n        /* \"#utility.yul\":9267:9269   */\n      0x20\n        /* \"#utility.yul\":9259:9265   */\n      dup3\n        /* \"#utility.yul\":9255:9270   */\n      add\n        /* \"#utility.yul\":9248:9276   */\n      mstore\n        /* \"#utility.yul\":9063:9283   */\n      pop\n      jump\t// out\n        /* \"#utility.yul\":9289:9655   */\n    tag_263:\n        /* \"#utility.yul\":9431:9434   */\n      0x00\n        /* \"#utility.yul\":9452:9519   */\n      tag_371\n        /* \"#utility.yul\":9516:9518   */\n      0x21\n        /* \"#utility.yul\":9511:9514   */\n      dup4\n        /* \"#utility.yul\":9452:9519   */\n      tag_255\n      jump\t// in\n    tag_371:\n        /* \"#utility.yul\":9445:9519   */\n      swap2\n      pop\n        /* \"#utility.yul\":9528:9621   */\n      tag_372\n        /* \"#utility.yul\":9617:9620   */\n      dup3\n        /* \"#utility.yul\":9528:9621   */\n      tag_262\n      jump\t// in\n    tag_372:\n        /* \"#utility.yul\":9646:9648   */\n      0x40\n        /* \"#utility.yul\":9641:9644   */\n      dup3\n        /* \"#utility.yul\":9637:9649   */\n      add\n        /* \"#utility.yul\":9630:9649   */\n      swap1\n      pop\n        /* \"#utility.yul\":9289:9655   */\n      swap2\n      swap1\n      pop\n      jump\t// out\n        /* \"#utility.yul\":9661:10080   */\n    tag_96:\n        /* \"#utility.yul\":9827:9831   */\n      0x00\n        /* \"#utility.yul\":9865:9867   */\n      0x20\n        /* \"#utility.yul\":9854:9863   */\n      dup3\n        /* \"#utility.yul\":9850:9868   */\n      add\n        /* \"#utility.yul\":9842:9868   */\n      swap1\n      pop\n        /* \"#utility.yul\":9914:9923   */\n      dup2\n        /* \"#utility.yul\":9908:9912   */\n      dup2\n        /* \"#utility.yul\":9904:9924   */\n      sub\n        /* \"#utility.yul\":9900:9901   */\n      0x00\n        /* \"#utility.yul\":9889:9898   */\n      dup4\n        /* \"#utility.yul\":9885:9902   */\n      add\n        /* \"#utility.yul\":9878:9925   */\n      mstore\n        /* \"#utility.yul\":9942:10073   */\n      tag_374\n        /* \"#utility.yul\":10068:10072   */\n      dup2\n        /* \"#utility.yul\":9942:10073   */\n      tag_263\n      jump\t// in\n    tag_374:\n        /* \"#utility.yul\":9934:10073   */\n      swap1\n      pop\n        /* \"#utility.yul\":9661:10080   */\n      swap2\n      swap1\n      pop\n      jump\t// out\n        /* \"#utility.yul\":10086:10266   */\n    tag_264:\n        /* \"#utility.yul\":10134:10211   */\n      0x4e487b7100000000000000000000000000000000000000000000000000000000\n        /* \"#utility.yul\":10131:10132   */\n      0x00\n        /* \"#utility.yul\":10124:10212   */\n      mstore\n        /* \"#utility.yul\":10231:10235   */\n      0x11\n        /* \"#utility.yul\":10228:10229   */\n      0x04\n        /* \"#utility.yul\":10221:10236   */\n      mstore\n        /* \"#utility.yul\":10255:10259   */\n      0x24\n        /* \"#utility.yul\":10252:10253   */\n      0x00\n        /* \"#utility.yul\":10245:10260   */\n      revert\n        /* \"#utility.yul\":10272:10682   */\n    tag_108:\n        /* \"#utility.yul\":10312:10319   */\n      0x00\n        /* \"#utility.yul\":10335:10355   */\n      tag_377\n        /* \"#utility.yul\":10353:10354   */\n      dup3\n        /* \"#utility.yul\":10335:10355   */\n      tag_244\n      jump\t// in\n    tag_377:\n        /* \"#utility.yul\":10330:10355   */\n      swap2\n      pop\n        /* \"#utility.yul\":10369:10389   */\n      tag_378\n        /* \"#utility.yul\":10387:10388   */\n      dup4\n        /* \"#utility.yul\":10369:10389   */\n      tag_244\n      jump\t// in\n    tag_378:\n        /* \"#utility.yul\":10364:10389   */\n      swap3\n      pop\n        /* \"#utility.yul\":10424:10425   */\n      dup3\n        /* \"#utility.yul\":10421:10422   */\n      dup3\n        /* \"#utility.yul\":10417:10426   */\n      mul\n        /* \"#utility.yul\":10446:10476   */\n      tag_379\n        /* \"#utility.yul\":10464:10475   */\n      dup2\n        /* \"#utility.yul\":10446:10476   */\n      tag_244\n      jump\t// in\n    tag_379:\n        /* \"#utility.yul\":10435:10476   */\n      swap2\n      pop\n        /* \"#utility.yul\":10625:10626   */\n      dup3\n        /* \"#utility.yul\":10616:10623   */\n      dup3\n        /* \"#utility.yul\":10612:10627   */\n      div\n        /* \"#utility.yul\":10609:10610   */\n      dup5\n        /* \"#utility.yul\":10606:10628   */\n      eq\n        /* \"#utility.yul\":10586:10587   */\n      dup4\n        /* \"#utility.yul\":10579:10588   */\n      iszero\n        /* \"#utility.yul\":10559:10642   */\n      or\n        /* \"#utility.yul\":10536:10675   */\n      tag_380\n      jumpi\n        /* \"#utility.yul\":10655:10673   */\n      tag_381\n      tag_264\n      jump\t// in\n    tag_381:\n        /* \"#utility.yul\":10536:10675   */\n    tag_380:\n        /* \"#utility.yul\":10320:10682   */\n      pop\n        /* \"#utility.yul\":10272:10682   */\n      swap3\n      swap2\n      pop\n      pop\n      jump\t// out\n        /* \"#utility.yul\":10688:10918   */\n    tag_265:\n        /* \"#utility.yul\":10828:10862   */\n      0x5472616e7366657220746f20746865207a65726f206164647265737320697320\n        /* \"#utility.yul\":10824:10825   */\n      0x00\n        /* \"#utility.yul\":10816:10822   */\n      dup3\n        /* \"#utility.yul\":10812:10826   */\n      add\n        /* \"#utility.yul\":10805:10863   */\n      mstore\n        /* \"#utility.yul\":10897:10910   */\n      0x6e6f7420616c6c6f776564000000000000000000000000000000000000000000\n        /* \"#utility.yul\":10892:10894   */\n      0x20\n        /* \"#utility.yul\":10884:10890   */\n      dup3\n        /* \"#utility.yul\":10880:10895   */\n      add\n        /* \"#utility.yul\":10873:10911   */\n      mstore\n        /* \"#utility.yul\":10688:10918   */\n      pop\n      jump\t// out\n        /* \"#utility.yul\":10924:11290   */\n    tag_266:\n        /* \"#utility.yul\":11066:11069   */\n      0x00\n        /* \"#utility.yul\":11087:11154   */\n      tag_384\n        /* \"#utility.yul\":11151:11153   */\n      0x2b\n        /* \"#utility.yul\":11146:11149   */\n      dup4\n        /* \"#utility.yul\":11087:11154   */\n      tag_255\n      jump\t// in\n    tag_384:\n        /* \"#utility.yul\":11080:11154   */\n      swap2\n      pop\n        /* \"#utility.yul\":11163:11256   */\n      tag_385\n        /* \"#utility.yul\":11252:11255   */\n      dup3\n        /* \"#utility.yul\":11163:11256   */\n      tag_265\n      jump\t// in\n    tag_385:\n        /* \"#utility.yul\":11281:11283   */\n      0x40\n        /* \"#utility.yul\":11276:11279   */\n      dup3\n        /* \"#utility.yul\":11272:11284   */\n      add\n        /* \"#utility.yul\":11265:11284   */\n      swap1\n      pop\n        /* \"#utility.yul\":10924:11290   */\n      swap2\n      swap1\n      pop\n      jump\t// out\n        /* \"#utility.yul\":11296:11715   */\n    tag_121:\n        /* \"#utility.yul\":11462:11466   */\n      0x00\n        /* \"#utility.yul\":11500:11502   */\n      0x20\n        /* \"#utility.yul\":11489:11498   */\n      dup3\n        /* \"#utility.yul\":11485:11503   */\n      add\n        /* \"#utility.yul\":11477:11503   */\n      swap1\n      pop\n        /* \"#utility.yul\":11549:11558   */\n      dup2\n        /* \"#utility.yul\":11543:11547   */\n      dup2\n        /* \"#utility.yul\":11539:11559   */\n      sub\n        /* \"#utility.yul\":11535:11536   */\n      0x00\n        /* \"#utility.yul\":11524:11533   */\n      dup4\n        /* \"#utility.yul\":11520:11537   */\n      add\n        /* \"#utility.yul\":11513:11560   */\n      mstore\n        /* \"#utility.yul\":11577:11708   */\n      tag_387\n        /* \"#utility.yul\":11703:11707   */\n      dup2\n        /* \"#utility.yul\":11577:11708   */\n      tag_266\n      jump\t// in\n    tag_387:\n        /* \"#utility.yul\":11569:11708   */\n      swap1\n      pop\n        /* \"#utility.yul\":11296:11715   */\n      swap2\n      swap1\n      pop\n      jump\t// out\n        /* \"#utility.yul\":11721:11915   */\n    tag_138:\n        /* \"#utility.yul\":11761:11765   */\n      0x00\n        /* \"#utility.yul\":11781:11801   */\n      tag_389\n        /* \"#utility.yul\":11799:11800   */\n      dup3\n        /* \"#utility.yul\":11781:11801   */\n      tag_244\n      jump\t// in\n    tag_389:\n        /* \"#utility.yul\":11776:11801   */\n      swap2\n      pop\n        /* \"#utility.yul\":11815:11835   */\n      tag_390\n        /* \"#utility.yul\":11833:11834   */\n      dup4\n        /* \"#utility.yul\":11815:11835   */\n      tag_244\n      jump\t// in\n    tag_390:\n        /* \"#utility.yul\":11810:11835   */\n      swap3\n      pop\n        /* \"#utility.yul\":11859:11860   */\n      dup3\n        /* \"#utility.yul\":11856:11857   */\n      dup3\n        /* \"#utility.yul\":11852:11861   */\n      sub\n        /* \"#utility.yul\":11844:11861   */\n      swap1\n      pop\n        /* \"#utility.yul\":11883:11884   */\n      dup2\n        /* \"#utility.yul\":11877:11881   */\n      dup2\n        /* \"#utility.yul\":11874:11885   */\n      gt\n        /* \"#utility.yul\":11871:11908   */\n      iszero\n      tag_391\n      jumpi\n        /* \"#utility.yul\":11888:11906   */\n      tag_392\n      tag_264\n      jump\t// in\n    tag_392:\n        /* \"#utility.yul\":11871:11908   */\n    tag_391:\n        /* \"#utility.yul\":11721:11915   */\n      swap3\n      swap2\n      pop\n      pop\n      jump\t// out\n        /* \"#utility.yul\":11921:12101   */\n    tag_141:\n        /* \"#utility.yul\":11969:12046   */\n      0x4e487b7100000000000000000000000000000000000000000000000000000000\n        /* \"#utility.yul\":11966:11967   */\n      0x00\n        /* \"#utility.yul\":11959:12047   */\n      mstore\n        /* \"#utility.yul\":12066:12070   */\n      0x32\n        /* \"#utility.yul\":12063:12064   */\n      0x04\n        /* \"#utility.yul\":12056:12071   */\n      mstore\n        /* \"#utility.yul\":12090:12094   */\n      0x24\n        /* \"#utility.yul\":12087:12088   */\n      0x00\n        /* \"#utility.yul\":12080:12095   */\n      revert\n        /* \"#utility.yul\":12107:12278   */\n    tag_153:\n        /* \"#utility.yul\":12146:12149   */\n      0x00\n        /* \"#utility.yul\":12169:12193   */\n      tag_395\n        /* \"#utility.yul\":12187:12192   */\n      dup3\n        /* \"#utility.yul\":12169:12193   */\n      tag_244\n      jump\t// in\n    tag_395:\n        /* \"#utility.yul\":12160:12193   */\n      swap2\n      pop\n        /* \"#utility.yul\":12215:12219   */\n      0x00\n        /* \"#utility.yul\":12208:12213   */\n      dup3\n        /* \"#utility.yul\":12205:12220   */\n      sub\n        /* \"#utility.yul\":12202:12243   */\n      tag_396\n      jumpi\n        /* \"#utility.yul\":12223:12241   */\n      tag_397\n      tag_264\n      jump\t// in\n    tag_397:\n        /* \"#utility.yul\":12202:12243   */\n    tag_396:\n        /* \"#utility.yul\":12270:12271   */\n      0x01\n        /* \"#utility.yul\":12263:12268   */\n      dup3\n        /* \"#utility.yul\":12259:12272   */\n      sub\n        /* \"#utility.yul\":12252:12272   */\n      swap1\n      pop\n        /* \"#utility.yul\":12107:12278   */\n      swap2\n      swap1\n      pop\n      jump\t// out\n        /* \"#utility.yul\":12284:12616   */\n    tag_169:\n        /* \"#utility.yul\":12405:12409   */\n      0x00\n        /* \"#utility.yul\":12443:12445   */\n      0x40\n        /* \"#utility.yul\":12432:12441   */\n      dup3\n        /* \"#utility.yul\":12428:12446   */\n      add\n        /* \"#utility.yul\":12420:12446   */\n      swap1\n      pop\n        /* \"#utility.yul\":12456:12527   */\n      tag_399\n        /* \"#utility.yul\":12524:12525   */\n      0x00\n        /* \"#utility.yul\":12513:12522   */\n      dup4\n        /* \"#utility.yul\":12509:12526   */\n      add\n        /* \"#utility.yul\":12500:12506   */\n      dup6\n        /* \"#utility.yul\":12456:12527   */\n      tag_247\n      jump\t// in\n    tag_399:\n        /* \"#utility.yul\":12537:12609   */\n      tag_400\n        /* \"#utility.yul\":12605:12607   */\n      0x20\n        /* \"#utility.yul\":12594:12603   */\n      dup4\n        /* \"#utility.yul\":12590:12608   */\n      add\n        /* \"#utility.yul\":12581:12587   */\n      dup5\n        /* \"#utility.yul\":12537:12609   */\n      tag_259\n      jump\t// in\n    tag_400:\n        /* \"#utility.yul\":12284:12616   */\n      swap4\n      swap3\n      pop\n      pop\n      pop\n      jump\t// out\n        /* \"#utility.yul\":12622:12802   */\n    tag_267:\n        /* \"#utility.yul\":12762:12794   */\n      0x546f6b656e207472616e7366657220746f206275796572206661696c65640000\n        /* \"#utility.yul\":12758:12759   */\n      0x00\n        /* \"#utility.yul\":12750:12756   */\n      dup3\n        /* \"#utility.yul\":12746:12760   */\n      add\n        /* \"#utility.yul\":12739:12795   */\n      mstore\n        /* \"#utility.yul\":12622:12802   */\n      pop\n      jump\t// out\n        /* \"#utility.yul\":12808:13174   */\n    tag_268:\n        /* \"#utility.yul\":12950:12953   */\n      0x00\n        /* \"#utility.yul\":12971:13038   */\n      tag_403\n        /* \"#utility.yul\":13035:13037   */\n      0x1e\n        /* \"#utility.yul\":13030:13033   */\n      dup4\n        /* \"#utility.yul\":12971:13038   */\n      tag_255\n      jump\t// in\n    tag_403:\n        /* \"#utility.yul\":12964:13038   */\n      swap2\n      pop\n        /* \"#utility.yul\":13047:13140   */\n      tag_404\n        /* \"#utility.yul\":13136:13139   */\n      dup3\n        /* \"#utility.yul\":13047:13140   */\n      tag_267\n      jump\t// in\n    tag_404:\n        /* \"#utility.yul\":13165:13167   */\n      0x20\n        /* \"#utility.yul\":13160:13163   */\n      dup3\n        /* \"#utility.yul\":13156:13168   */\n      add\n        /* \"#utility.yul\":13149:13168   */\n      swap1\n      pop\n        /* \"#utility.yul\":12808:13174   */\n      swap2\n      swap1\n      pop\n      jump\t// out\n        /* \"#utility.yul\":13180:13599   */\n    tag_175:\n        /* \"#utility.yul\":13346:13350   */\n      0x00\n        /* \"#utility.yul\":13384:13386   */\n      0x20\n        /* \"#utility.yul\":13373:13382   */\n      dup3\n        /* \"#utility.yul\":13369:13387   */\n      add\n        /* \"#utility.yul\":13361:13387   */\n      swap1\n      pop\n        /* \"#utility.yul\":13433:13442   */\n      dup2\n        /* \"#utility.yul\":13427:13431   */\n      dup2\n        /* \"#utility.yul\":13423:13443   */\n      sub\n        /* \"#utility.yul\":13419:13420   */\n      0x00\n        /* \"#utility.yul\":13408:13417   */\n      dup4\n        /* \"#utility.yul\":13404:13421   */\n      add\n        /* \"#utility.yul\":13397:13444   */\n      mstore\n        /* \"#utility.yul\":13461:13592   */\n      tag_406\n        /* \"#utility.yul\":13587:13591   */\n      dup2\n        /* \"#utility.yul\":13461:13592   */\n      tag_268\n      jump\t// in\n    tag_406:\n        /* \"#utility.yul\":13453:13592   */\n      swap1\n      pop\n        /* \"#utility.yul\":13180:13599   */\n      swap2\n      swap1\n      pop\n      jump\t// out\n        /* \"#utility.yul\":13605:13752   */\n    tag_269:\n        /* \"#utility.yul\":13706:13717   */\n      0x00\n        /* \"#utility.yul\":13743:13746   */\n      dup2\n        /* \"#utility.yul\":13728:13746   */\n      swap1\n      pop\n        /* \"#utility.yul\":13605:13752   */\n      swap3\n      swap2\n      pop\n      pop\n      jump\t// out\n        /* \"#utility.yul\":13758:13872   */\n    tag_270:\n      pop\n      jump\t// out\n        /* \"#utility.yul\":13878:14276   */\n    tag_271:\n        /* \"#utility.yul\":14037:14040   */\n      0x00\n        /* \"#utility.yul\":14058:14141   */\n      tag_410\n        /* \"#utility.yul\":14139:14140   */\n      0x00\n        /* \"#utility.yul\":14134:14137   */\n      dup4\n        /* \"#utility.yul\":14058:14141   */\n      tag_269\n      jump\t// in\n    tag_410:\n        /* \"#utility.yul\":14051:14141   */\n      swap2\n      pop\n        /* \"#utility.yul\":14150:14243   */\n      tag_411\n        /* \"#utility.yul\":14239:14242   */\n      dup3\n        /* \"#utility.yul\":14150:14243   */\n      tag_270\n      jump\t// in\n    tag_411:\n        /* \"#utility.yul\":14268:14269   */\n      0x00\n        /* \"#utility.yul\":14263:14266   */\n      dup3\n        /* \"#utility.yul\":14259:14270   */\n      add\n        /* \"#utility.yul\":14252:14270   */\n      swap1\n      pop\n        /* \"#utility.yul\":13878:14276   */\n      swap2\n      swap1\n      pop\n      jump\t// out\n        /* \"#utility.yul\":14282:14661   */\n    tag_203:\n        /* \"#utility.yul\":14466:14469   */\n      0x00\n        /* \"#utility.yul\":14488:14635   */\n      tag_413\n        /* \"#utility.yul\":14631:14634   */\n      dup3\n        /* \"#utility.yul\":14488:14635   */\n      tag_271\n      jump\t// in\n    tag_413:\n        /* \"#utility.yul\":14481:14635   */\n      swap2\n      pop\n        /* \"#utility.yul\":14652:14655   */\n      dup2\n        /* \"#utility.yul\":14645:14655   */\n      swap1\n      pop\n        /* \"#utility.yul\":14282:14661   */\n      swap2\n      swap1\n      pop\n      jump\t// out\n        /* \"#utility.yul\":14667:14837   */\n    tag_272:\n        /* \"#utility.yul\":14807:14829   */\n      0x4661696c656420746f2073656e64204574686572000000000000000000000000\n        /* \"#utility.yul\":14803:14804   */\n      0x00\n        /* \"#utility.yul\":14795:14801   */\n      dup3\n        /* \"#utility.yul\":14791:14805   */\n      add\n        /* \"#utility.yul\":14784:14830   */\n      mstore\n        /* \"#utility.yul\":14667:14837   */\n      pop\n      jump\t// out\n        /* \"#utility.yul\":14843:15209   */\n    tag_273:\n        /* \"#utility.yul\":14985:14988   */\n      0x00\n        /* \"#utility.yul\":15006:15073   */\n      tag_416\n        /* \"#utility.yul\":15070:15072   */\n      0x14\n        /* \"#utility.yul\":15065:15068   */\n      dup4\n        /* \"#utility.yul\":15006:15073   */\n      tag_255\n      jump\t// in\n    tag_416:\n        /* \"#utility.yul\":14999:15073   */\n      swap2\n      pop\n        /* \"#utility.yul\":15082:15175   */\n      tag_417\n        /* \"#utility.yul\":15171:15174   */\n      dup3\n        /* \"#utility.yul\":15082:15175   */\n      tag_272\n      jump\t// in\n    tag_417:\n        /* \"#utility.yul\":15200:15202   */\n      0x20\n        /* \"#utility.yul\":15195:15198   */\n      dup3\n        /* \"#utility.yul\":15191:15203   */\n      add\n        /* \"#utility.yul\":15184:15203   */\n      swap1\n      pop\n        /* \"#utility.yul\":14843:15209   */\n      swap2\n      swap1\n      pop\n      jump\t// out\n        /* \"#utility.yul\":15215:15634   */\n    tag_209:\n        /* \"#utility.yul\":15381:15385   */\n      0x00\n        /* \"#utility.yul\":15419:15421   */\n      0x20\n        /* \"#utility.yul\":15408:15417   */\n      dup3\n        /* \"#utility.yul\":15404:15422   */\n      add\n        /* \"#utility.yul\":15396:15422   */\n      swap1\n      pop\n        /* \"#utility.yul\":15468:15477   */\n      dup2\n        /* \"#utility.yul\":15462:15466   */\n      dup2\n        /* \"#utility.yul\":15458:15478   */\n      sub\n        /* \"#utility.yul\":15454:15455   */\n      0x00\n        /* \"#utility.yul\":15443:15452   */\n      dup4\n        /* \"#utility.yul\":15439:15456   */\n      add\n        /* \"#utility.yul\":15432:15479   */\n      mstore\n        /* \"#utility.yul\":15496:15627   */\n      tag_419\n        /* \"#utility.yul\":15622:15626   */\n      dup2\n        /* \"#utility.yul\":15496:15627   */\n      tag_273\n      jump\t// in\n    tag_419:\n        /* \"#utility.yul\":15488:15627   */\n      swap1\n      pop\n        /* \"#utility.yul\":15215:15634   */\n      swap2\n      swap1\n      pop\n      jump\t// out\n        /* \"#utility.yul\":15640:15831   */\n    tag_222:\n        /* \"#utility.yul\":15680:15683   */\n      0x00\n        /* \"#utility.yul\":15699:15719   */\n      tag_421\n        /* \"#utility.yul\":15717:15718   */\n      dup3\n        /* \"#utility.yul\":15699:15719   */\n      tag_244\n      jump\t// in\n    tag_421:\n        /* \"#utility.yul\":15694:15719   */\n      swap2\n      pop\n        /* \"#utility.yul\":15733:15753   */\n      tag_422\n        /* \"#utility.yul\":15751:15752   */\n      dup4\n        /* \"#utility.yul\":15733:15753   */\n      tag_244\n      jump\t// in\n    tag_422:\n        /* \"#utility.yul\":15728:15753   */\n      swap3\n      pop\n        /* \"#utility.yul\":15776:15777   */\n      dup3\n        /* \"#utility.yul\":15773:15774   */\n      dup3\n        /* \"#utility.yul\":15769:15778   */\n      add\n        /* \"#utility.yul\":15762:15778   */\n      swap1\n      pop\n        /* \"#utility.yul\":15797:15800   */\n      dup1\n        /* \"#utility.yul\":15794:15795   */\n      dup3\n        /* \"#utility.yul\":15791:15801   */\n      gt\n        /* \"#utility.yul\":15788:15824   */\n      iszero\n      tag_423\n      jumpi\n        /* \"#utility.yul\":15804:15822   */\n      tag_424\n      tag_264\n      jump\t// in\n    tag_424:\n        /* \"#utility.yul\":15788:15824   */\n    tag_423:\n        /* \"#utility.yul\":15640:15831   */\n      swap3\n      swap2\n      pop\n      pop\n      jump\t// out\n        /* \"#utility.yul\":15837:16017   */\n    tag_231:\n        /* \"#utility.yul\":15885:15962   */\n      0x4e487b7100000000000000000000000000000000000000000000000000000000\n        /* \"#utility.yul\":15882:15883   */\n      0x00\n        /* \"#utility.yul\":15875:15963   */\n      mstore\n        /* \"#utility.yul\":15982:15986   */\n      0x31\n        /* \"#utility.yul\":15979:15980   */\n      0x04\n        /* \"#utility.yul\":15972:15987   */\n      mstore\n        /* \"#utility.yul\":16006:16010   */\n      0x24\n        /* \"#utility.yul\":16003:16004   */\n      0x00\n        /* \"#utility.yul\":15996:16011   */\n      revert\n\n    auxdata: 0xa2646970667358221220e7df4ad57733abc4de6488823e0f6f072c732d821cee9f237d22597da943ff3b64736f6c63430008190033\n}\n",
				"bytecode": {
					"linkReferences": {},
					"object": "608060405234801561000f575f80fd5b50604051611d95380380611d95833981810160405281019061003191906100d4565b805f806101000a81548173ffffffffffffffffffffffffffffffffffffffff021916908373ffffffffffffffffffffffffffffffffffffffff160217905550506100ff565b5f80fd5b5f73ffffffffffffffffffffffffffffffffffffffff82169050919050565b5f6100a38261007a565b9050919050565b6100b381610099565b81146100bd575f80fd5b50565b5f815190506100ce816100aa565b92915050565b5f602082840312156100e9576100e8610076565b5b5f6100f6848285016100c0565b91505092915050565b611c898061010c5f395ff3fe608060405260043610610085575f3560e01c8063a760e06a11610058578063a760e06a14610153578063a843c51f1461016f578063a87430ba146101ab578063c2eb05ba146101e7578063ce606ee01461021157610085565b806310731a65146100895780631fb64da0146100b357806373b298e2146100ef57806383588b9914610117575b5f80fd5b348015610094575f80fd5b5061009d61023b565b6040516100aa9190611498565b60405180910390f35b3480156100be575f80fd5b506100d960048036038101906100d49190611542565b6103d6565b6040516100e6919061158f565b60405180910390f35b3480156100fa575f80fd5b50610115600480360381019061011091906115a8565b61041e565b005b348015610122575f80fd5b5061013d60048036038101906101389190611542565b6106e3565b60405161014a919061158f565b60405180910390f35b61016d600480360381019061016891906115a8565b61072b565b005b34801561017a575f80fd5b50610195600480360381019061019091906115f8565b61083c565b6040516101a29190611498565b60405180910390f35b3480156101b6575f80fd5b506101d160048036038101906101cc91906115f8565b610a20565b6040516101de919061171a565b60405180910390f35b3480156101f2575f80fd5b506101fb610af0565b604051610208919061158f565b60405180910390f35b34801561021c575f80fd5b50610225610b15565b604051610232919061158f565b60405180910390f35b5f60015f9054906101000a900473ffffffffffffffffffffffffffffffffffffffff168073ffffffffffffffffffffffffffffffffffffffff163373ffffffffffffffffffffffffffffffffffffffff16146102cc576040517f08c379a00000000000000000000000000000000000000000000000000000000081526004016102c39061178d565b60405180910390fd5b60015f9054906101000a900473ffffffffffffffffffffffffffffffffffffffff165f806101000a81548173ffffffffffffffffffffffffffffffffffffffff021916908373ffffffffffffffffffffffffffffffffffffffff1602179055505f60015f6101000a81548173ffffffffffffffffffffffffffffffffffffffff021916908373ffffffffffffffffffffffffffffffffffffffff1602179055505f8054906101000a900473ffffffffffffffffffffffffffffffffffffffff1673ffffffffffffffffffffffffffffffffffffffff167f041e8ee868cb815a7e5cd1a100e6ff024772d79c071718c049ab7d3bc4e1226d60405160405180910390a2600191505090565b6004602052815f5260405f2081815481106103ef575f80fd5b905f5260205f20015f915091509054906101000a900473ffffffffffffffffffffffffffffffffffffffff1681565b5f600281111561043157610430611641565b5b60025f3373ffffffffffffffffffffffffffffffffffffffff1673ffffffffffffffffffffffffffffffffffffffff1681526020019081526020015f205f016004015f9054906101000a900460ff16600281111561049257610491611641565b5b1461049b575f80fd5b8282808273ffffffffffffffffffffffffffffffffffffffff1663dd62ed3e33306040518363ffffffff1660e01b81526004016104d99291906117ab565b602060405180830381865afa1580156104f4573d5f803e3d5ffd5b505050506040513d601f19601f8201168201806040525081019061051891906117e6565b1015610522575f80fd5b8484808273ffffffffffffffffffffffffffffffffffffffff166370a08231336040518263ffffffff1660e01b815260040161055e919061158f565b602060405180830381865afa158015610579573d5f803e3d5ffd5b505050506040513d601f19601f8201168201806040525081019061059d91906117e6565b10156105a7575f80fd5b600160025f3373ffffffffffffffffffffffffffffffffffffffff1673ffffffffffffffffffffffffffffffffffffffff1681526020019081526020015f205f016004015f6101000a81548160ff0219169083600281111561060c5761060b611641565b5b02179055508673ffffffffffffffffffffffffffffffffffffffff166323b872dd3330896040518463ffffffff1660e01b815260040161064e93929190611820565b6020604051808303815f875af115801561066a573d5f803e3d5ffd5b505050506040513d601f19601f8201168201806040525081019061068e919061187f565b6106cd576040517f08c379a00000000000000000000000000000000000000000000000000000000081526004016106c49061191a565b60405180910390fd5b6106da8787876001610b38565b50505050505050565b6003602052815f5260405f2081815481106106fc575f80fd5b905f5260205f20015f915091509054906101000a900473ffffffffffffffffffffffffffffffffffffffff1681565b5f600281111561073e5761073d611641565b5b60025f3373ffffffffffffffffffffffffffffffffffffffff1673ffffffffffffffffffffffffffffffffffffffff1681526020019081526020015f205f016004015f9054906101000a900460ff16600281111561079f5761079e611641565b5b146107a8575f80fd5b80826107b49190611965565b803410156107c0575f80fd5b6002805f3373ffffffffffffffffffffffffffffffffffffffff1673ffffffffffffffffffffffffffffffffffffffff1681526020019081526020015f205f016004015f6101000a81548160ff0219169083600281111561082457610823611641565b5b02179055506108368484846002610b38565b50505050565b5f805f9054906101000a900473ffffffffffffffffffffffffffffffffffffffff168073ffffffffffffffffffffffffffffffffffffffff163373ffffffffffffffffffffffffffffffffffffffff16146108cc576040517f08c379a00000000000000000000000000000000000000000000000000000000081526004016108c39061178d565b60405180910390fd5b828073ffffffffffffffffffffffffffffffffffffffff165f73ffffffffffffffffffffffffffffffffffffffff160361093b576040517f08c379a000000000000000000000000000000000000000000000000000000000815260040161093290611a16565b60405180910390fd5b8360015f6101000a81548173ffffffffffffffffffffffffffffffffffffffff021916908373ffffffffffffffffffffffffffffffffffffffff16021790555060015f9054906101000a900473ffffffffffffffffffffffffffffffffffffffff1673ffffffffffffffffffffffffffffffffffffffff165f8054906101000a900473ffffffffffffffffffffffffffffffffffffffff1673ffffffffffffffffffffffffffffffffffffffff167f3171ef419dfba51cf3b185fa6ee8071885c38deb1e1621df017995e8a5e9254c60405160405180910390a3600192505050919050565b6002602052805f5260405f205f91509050805f016040518060a00160405290815f82015f9054906101000a900473ffffffffffffffffffffffffffffffffffffffff1673ffffffffffffffffffffffffffffffffffffffff1673ffffffffffffffffffffffffffffffffffffffff168152602001600182015481526020016002820154815260200160038201548152602001600482015f9054906101000a900460ff166002811115610ad557610ad4611641565b5b6002811115610ae757610ae6611641565b5b81525050905081565b60015f9054906101000a900473ffffffffffffffffffffffffffffffffffffffff1681565b5f8054906101000a900473ffffffffffffffffffffffffffffffffffffffff1681565b5f60016002811115610b4d57610b4c611641565b5b826002811115610b6057610b5f611641565b5b14610ba75760035f8673ffffffffffffffffffffffffffffffffffffffff1673ffffffffffffffffffffffffffffffffffffffff1681526020019081526020015f20610be5565b60045f8673ffffffffffffffffffffffffffffffffffffffff1673ffffffffffffffffffffffffffffffffffffffff1681526020019081526020015f205b90505f8490505f828054905090505b5f811115610d12575f60025f85600185610c0e9190611a34565b81548110610c1f57610c1e611a67565b5b905f5260205f20015f9054906101000a900473ffffffffffffffffffffffffffffffffffffffff1673ffffffffffffffffffffffffffffffffffffffff1673ffffffffffffffffffffffffffffffffffffffff1681526020019081526020015f205f01905085816002015410610cfe57610cee8885600185610ca19190611a34565b81548110610cb257610cb1611a67565b5b905f5260205f20015f9054906101000a900473ffffffffffffffffffffffffffffffffffffffff168588600187610ce99190611a34565b610d9e565b92505f8303610cfd5750610d12565b5b508080610d0a90611a94565b915050610bf4565b505f811115610d2c57610d2786828686611020565b610d96565b5f60025f3373ffffffffffffffffffffffffffffffffffffffff1673ffffffffffffffffffffffffffffffffffffffff1681526020019081526020015f205f016004015f6101000a81548160ff02191690836002811115610d9057610d8f611641565b5b02179055505b505050505050565b5f8060025f8773ffffffffffffffffffffffffffffffffffffffff1673ffffffffffffffffffffffffffffffffffffffff1681526020019081526020015f205f0190505f81600101548610610df7578160010154610df9565b855b905060016002811115610e0f57610e0e611641565b5b856002811115610e2257610e21611641565b5b03610eff578773ffffffffffffffffffffffffffffffffffffffff1663a9059cbb88836040518363ffffffff1660e01b8152600401610e62929190611abb565b6020604051808303815f875af1158015610e7e573d5f803e3d5ffd5b505050506040513d601f19601f82011682018060405250810190610ea2919061187f565b610ee1576040517f08c379a0000000000000000000000000000000000000000000000000000000008152600401610ed890611b2c565b60405180910390fd5b610efa33836002015483610ef59190611965565b6111d4565b610fd3565b8773ffffffffffffffffffffffffffffffffffffffff1663a9059cbb33836040518363ffffffff1660e01b8152600401610f3a929190611abb565b6020604051808303815f875af1158015610f56573d5f803e3d5ffd5b505050506040513d601f19601f82011682018060405250810190610f7a919061187f565b610fb9576040517f08c379a0000000000000000000000000000000000000000000000000000000008152600401610fb090611b2c565b60405180910390fd5b610fd287836002015483610fcd9190611965565b6111d4565b5b80826001015f828254610fe69190611a34565b925050819055505f82600101540361100457611003888386611281565b5b80866110109190611a34565b9550859250505095945050505050565b5f6001600281111561103557611034611641565b5b82600281111561104857611047611641565b5b0361108f5760035f8673ffffffffffffffffffffffffffffffffffffffff1673ffffffffffffffffffffffffffffffffffffffff1681526020019081526020015f206110cd565b60045f8673ffffffffffffffffffffffffffffffffffffffff1673ffffffffffffffffffffffffffffffffffffffff1681526020019081526020015f205b90508033908060018154018082558091505060019003905f5260205f20015f9091909190916101000a81548173ffffffffffffffffffffffffffffffffffffffff021916908373ffffffffffffffffffffffffffffffffffffffff1602179055505f60025f3373ffffffffffffffffffffffffffffffffffffffff1673ffffffffffffffffffffffffffffffffffffffff1681526020019081526020015f205f01905085815f015f6101000a81548173ffffffffffffffffffffffffffffffffffffffff021916908373ffffffffffffffffffffffffffffffffffffffff160217905550848160010181905550838160020181905550428160030181905550505050505050565b5f8273ffffffffffffffffffffffffffffffffffffffff16826040516111f990611b77565b5f6040518083038185875af1925050503d805f8114611233576040519150601f19603f3d011682016040523d82523d5f602084013e611238565b606091505b505090508061127c576040517f08c379a000000000000000000000000000000000000000000000000000000000815260040161127390611bd5565b60405180910390fd5b505050565b5f6001600281111561129657611295611641565b5b836004015f9054906101000a900460ff1660028111156112b9576112b8611641565b5b146113005760045f8573ffffffffffffffffffffffffffffffffffffffff1673ffffffffffffffffffffffffffffffffffffffff1681526020019081526020015f2061133e565b60035f8573ffffffffffffffffffffffffffffffffffffffff1673ffffffffffffffffffffffffffffffffffffffff1681526020019081526020015f205b90505f8290505b600182805490506113569190611a34565b811015611409578160018261136b9190611bf3565b8154811061137c5761137b611a67565b5b905f5260205f20015f9054906101000a900473ffffffffffffffffffffffffffffffffffffffff168282815481106113b7576113b6611a67565b5b905f5260205f20015f6101000a81548173ffffffffffffffffffffffffffffffffffffffff021916908373ffffffffffffffffffffffffffffffffffffffff1602179055508080600101915050611345565b508080548061141b5761141a611c26565b5b600190038181905f5260205f20015f6101000a81549073ffffffffffffffffffffffffffffffffffffffff021916905590555f836004015f6101000a81548160ff0219169083600281111561147357611472611641565b5b021790555050505050565b5f8115159050919050565b6114928161147e565b82525050565b5f6020820190506114ab5f830184611489565b92915050565b5f80fd5b5f73ffffffffffffffffffffffffffffffffffffffff82169050919050565b5f6114de826114b5565b9050919050565b6114ee816114d4565b81146114f8575f80fd5b50565b5f81359050611509816114e5565b92915050565b5f819050919050565b6115218161150f565b811461152b575f80fd5b50565b5f8135905061153c81611518565b92915050565b5f8060408385031215611558576115576114b1565b5b5f611565858286016114fb565b92505060206115768582860161152e565b9150509250929050565b611589816114d4565b82525050565b5f6020820190506115a25f830184611580565b92915050565b5f805f606084860312156115bf576115be6114b1565b5b5f6115cc868287016114fb565b93505060206115dd8682870161152e565b92505060406115ee8682870161152e565b9150509250925092565b5f6020828403121561160d5761160c6114b1565b5b5f61161a848285016114fb565b91505092915050565b61162c816114d4565b82525050565b61163b8161150f565b82525050565b7f4e487b71000000000000000000000000000000000000000000000000000000005f52602160045260245ffd5b6003811061167f5761167e611641565b5b50565b5f81905061168f8261166e565b919050565b5f61169e82611682565b9050919050565b6116ae81611694565b82525050565b60a082015f8201516116c85f850182611623565b5060208201516116db6020850182611632565b5060408201516116ee6040850182611632565b5060608201516117016060850182611632565b50608082015161171460808501826116a5565b50505050565b5f60a08201905061172d5f8301846116b4565b92915050565b5f82825260208201905092915050565b7f43616c6c6572206973206e6f7420617574686f72697a656400000000000000005f82015250565b5f611777601883611733565b915061178282611743565b602082019050919050565b5f6020820190508181035f8301526117a48161176b565b9050919050565b5f6040820190506117be5f830185611580565b6117cb6020830184611580565b9392505050565b5f815190506117e081611518565b92915050565b5f602082840312156117fb576117fa6114b1565b5b5f611808848285016117d2565b91505092915050565b61181a8161150f565b82525050565b5f6060820190506118335f830186611580565b6118406020830185611580565b61184d6040830184611811565b949350505050565b61185e8161147e565b8114611868575f80fd5b50565b5f8151905061187981611855565b92915050565b5f60208284031215611894576118936114b1565b5b5f6118a18482850161186b565b91505092915050565b7f546f6b656e207472616e7366657220746f2065786368616e6765206661696c655f8201527f6400000000000000000000000000000000000000000000000000000000000000602082015250565b5f611904602183611733565b915061190f826118aa565b604082019050919050565b5f6020820190508181035f830152611931816118f8565b9050919050565b7f4e487b71000000000000000000000000000000000000000000000000000000005f52601160045260245ffd5b5f61196f8261150f565b915061197a8361150f565b92508282026119888161150f565b9150828204841483151761199f5761199e611938565b5b5092915050565b7f5472616e7366657220746f20746865207a65726f2061646472657373206973205f8201527f6e6f7420616c6c6f776564000000000000000000000000000000000000000000602082015250565b5f611a00602b83611733565b9150611a0b826119a6565b604082019050919050565b5f6020820190508181035f830152611a2d816119f4565b9050919050565b5f611a3e8261150f565b9150611a498361150f565b9250828203905081811115611a6157611a60611938565b5b92915050565b7f4e487b71000000000000000000000000000000000000000000000000000000005f52603260045260245ffd5b5f611a9e8261150f565b91505f8203611ab057611aaf611938565b5b600182039050919050565b5f604082019050611ace5f830185611580565b611adb6020830184611811565b9392505050565b7f546f6b656e207472616e7366657220746f206275796572206661696c656400005f82015250565b5f611b16601e83611733565b9150611b2182611ae2565b602082019050919050565b5f6020820190508181035f830152611b4381611b0a565b9050919050565b5f81905092915050565b50565b5f611b625f83611b4a565b9150611b6d82611b54565b5f82019050919050565b5f611b8182611b57565b9150819050919050565b7f4661696c656420746f2073656e642045746865720000000000000000000000005f82015250565b5f611bbf601483611733565b9150611bca82611b8b565b602082019050919050565b5f6020820190508181035f830152611bec81611bb3565b9050919050565b5f611bfd8261150f565b9150611c088361150f565b9250828201905080821115611c2057611c1f611938565b5b92915050565b7f4e487b71000000000000000000000000000000000000000000000000000000005f52603160045260245ffdfea2646970667358221220e7df4ad57733abc4de6488823e0f6f072c732d821cee9f237d22597da943ff3b64736f6c63430008190033",
					"opcodes": "PUSH1 0x80 PUSH1 0x40 MSTORE CALLVALUE DUP1 ISZERO PUSH2 0xF JUMPI PUSH0 DUP1 REVERT JUMPDEST POP PUSH1 0x40 MLOAD PUSH2 0x1D95 CODESIZE SUB DUP1 PUSH2 0x1D95 DUP4 CODECOPY DUP2 DUP2 ADD PUSH1 0x40 MSTORE DUP2 ADD SWAP1 PUSH2 0x31 SWAP2 SWAP1 PUSH2 0xD4 JUMP JUMPDEST DUP1 PUSH0 DUP1 PUSH2 0x100 EXP DUP2 SLOAD DUP2 PUSH20 0xFFFFFFFFFFFFFFFFFFFFFFFFFFFFFFFFFFFFFFFF MUL NOT AND SWAP1 DUP4 PUSH20 0xFFFFFFFFFFFFFFFFFFFFFFFFFFFFFFFFFFFFFFFF AND MUL OR SWAP1 SSTORE POP POP PUSH2 0xFF JUMP JUMPDEST PUSH0 DUP1 REVERT JUMPDEST PUSH0 PUSH20 0xFFFFFFFFFFFFFFFFFFFFFFFFFFFFFFFFFFFFFFFF DUP3 AND SWAP1 POP SWAP2 SWAP1 POP JUMP JUMPDEST PUSH0 PUSH2 0xA3 DUP3 PUSH2 0x7A JUMP JUMPDEST SWAP1 POP SWAP2 SWAP1 POP JUMP JUMPDEST PUSH2 0xB3 DUP2 PUSH2 0x99 JUMP JUMPDEST DUP2 EQ PUSH2 0xBD JUMPI PUSH0 DUP1 REVERT JUMPDEST POP JUMP JUMPDEST PUSH0 DUP2 MLOAD SWAP1 POP PUSH2 0xCE DUP2 PUSH2 0xAA JUMP JUMPDEST SWAP3 SWAP2 POP POP JUMP JUMPDEST PUSH0 PUSH1 0x20 DUP3 DUP5 SUB SLT ISZERO PUSH2 0xE9 JUMPI PUSH2 0xE8 PUSH2 0x76 JUMP JUMPDEST JUMPDEST PUSH0 PUSH2 0xF6 DUP5 DUP3 DUP6 ADD PUSH2 0xC0 JUMP JUMPDEST SWAP2 POP POP SWAP3 SWAP2 POP POP JUMP JUMPDEST PUSH2 0x1C89 DUP1 PUSH2 0x10C PUSH0 CODECOPY PUSH0 RETURN INVALID PUSH1 0x80 PUSH1 0x40 MSTORE PUSH1 0x4 CALLDATASIZE LT PUSH2 0x85 JUMPI PUSH0 CALLDATALOAD PUSH1 0xE0 SHR DUP1 PUSH4 0xA760E06A GT PUSH2 0x58 JUMPI DUP1 PUSH4 0xA760E06A EQ PUSH2 0x153 JUMPI DUP1 PUSH4 0xA843C51F EQ PUSH2 0x16F JUMPI DUP1 PUSH4 0xA87430BA EQ PUSH2 0x1AB JUMPI DUP1 PUSH4 0xC2EB05BA EQ PUSH2 0x1E7 JUMPI DUP1 PUSH4 0xCE606EE0 EQ PUSH2 0x211 JUMPI PUSH2 0x85 JUMP JUMPDEST DUP1 PUSH4 0x10731A65 EQ PUSH2 0x89 JUMPI DUP1 PUSH4 0x1FB64DA0 EQ PUSH2 0xB3 JUMPI DUP1 PUSH4 0x73B298E2 EQ PUSH2 0xEF JUMPI DUP1 PUSH4 0x83588B99 EQ PUSH2 0x117 JUMPI JUMPDEST PUSH0 DUP1 REVERT JUMPDEST CALLVALUE DUP1 ISZERO PUSH2 0x94 JUMPI PUSH0 DUP1 REVERT JUMPDEST POP PUSH2 0x9D PUSH2 0x23B JUMP JUMPDEST PUSH1 0x40 MLOAD PUSH2 0xAA SWAP2 SWAP1 PUSH2 0x1498 JUMP JUMPDEST PUSH1 0x40 MLOAD DUP1 SWAP2 SUB SWAP1 RETURN JUMPDEST CALLVALUE DUP1 ISZERO PUSH2 0xBE JUMPI PUSH0 DUP1 REVERT JUMPDEST POP PUSH2 0xD9 PUSH1 0x4 DUP1 CALLDATASIZE SUB DUP2 ADD SWAP1 PUSH2 0xD4 SWAP2 SWAP1 PUSH2 0x1542 JUMP JUMPDEST PUSH2 0x3D6 JUMP JUMPDEST PUSH1 0x40 MLOAD PUSH2 0xE6 SWAP2 SWAP1 PUSH2 0x158F JUMP JUMPDEST PUSH1 0x40 MLOAD DUP1 SWAP2 SUB SWAP1 RETURN JUMPDEST CALLVALUE DUP1 ISZERO PUSH2 0xFA JUMPI PUSH0 DUP1 REVERT JUMPDEST POP PUSH2 0x115 PUSH1 0x4 DUP1 CALLDATASIZE SUB DUP2 ADD SWAP1 PUSH2 0x110 SWAP2 SWAP1 PUSH2 0x15A8 JUMP JUMPDEST PUSH2 0x41E JUMP JUMPDEST STOP JUMPDEST CALLVALUE DUP1 ISZERO PUSH2 0x122 JUMPI PUSH0 DUP1 REVERT JUMPDEST POP PUSH2 0x13D PUSH1 0x4 DUP1 CALLDATASIZE SUB DUP2 ADD SWAP1 PUSH2 0x138 SWAP2 SWAP1 PUSH2 0x1542 JUMP JUMPDEST PUSH2 0x6E3 JUMP JUMPDEST PUSH1 0x40 MLOAD PUSH2 0x14A SWAP2 SWAP1 PUSH2 0x158F JUMP JUMPDEST PUSH1 0x40 MLOAD DUP1 SWAP2 SUB SWAP1 RETURN JUMPDEST PUSH2 0x16D PUSH1 0x4 DUP1 CALLDATASIZE SUB DUP2 ADD SWAP1 PUSH2 0x168 SWAP2 SWAP1 PUSH2 0x15A8 JUMP JUMPDEST PUSH2 0x72B JUMP JUMPDEST STOP JUMPDEST CALLVALUE DUP1 ISZERO PUSH2 0x17A JUMPI PUSH0 DUP1 REVERT JUMPDEST POP PUSH2 0x195 PUSH1 0x4 DUP1 CALLDATASIZE SUB DUP2 ADD SWAP1 PUSH2 0x190 SWAP2 SWAP1 PUSH2 0x15F8 JUMP JUMPDEST PUSH2 0x83C JUMP JUMPDEST PUSH1 0x40 MLOAD PUSH2 0x1A2 SWAP2 SWAP1 PUSH2 0x1498 JUMP JUMPDEST PUSH1 0x40 MLOAD DUP1 SWAP2 SUB SWAP1 RETURN JUMPDEST CALLVALUE DUP1 ISZERO PUSH2 0x1B6 JUMPI PUSH0 DUP1 REVERT JUMPDEST POP PUSH2 0x1D1 PUSH1 0x4 DUP1 CALLDATASIZE SUB DUP2 ADD SWAP1 PUSH2 0x1CC SWAP2 SWAP1 PUSH2 0x15F8 JUMP JUMPDEST PUSH2 0xA20 JUMP JUMPDEST PUSH1 0x40 MLOAD PUSH2 0x1DE SWAP2 SWAP1 PUSH2 0x171A JUMP JUMPDEST PUSH1 0x40 MLOAD DUP1 SWAP2 SUB SWAP1 RETURN JUMPDEST CALLVALUE DUP1 ISZERO PUSH2 0x1F2 JUMPI PUSH0 DUP1 REVERT JUMPDEST POP PUSH2 0x1FB PUSH2 0xAF0 JUMP JUMPDEST PUSH1 0x40 MLOAD PUSH2 0x208 SWAP2 SWAP1 PUSH2 0x158F JUMP JUMPDEST PUSH1 0x40 MLOAD DUP1 SWAP2 SUB SWAP1 RETURN JUMPDEST CALLVALUE DUP1 ISZERO PUSH2 0x21C JUMPI PUSH0 DUP1 REVERT JUMPDEST POP PUSH2 0x225 PUSH2 0xB15 JUMP JUMPDEST PUSH1 0x40 MLOAD PUSH2 0x232 SWAP2 SWAP1 PUSH2 0x158F JUMP JUMPDEST PUSH1 0x40 MLOAD DUP1 SWAP2 SUB SWAP1 RETURN JUMPDEST PUSH0 PUSH1 0x1 PUSH0 SWAP1 SLOAD SWAP1 PUSH2 0x100 EXP SWAP1 DIV PUSH20 0xFFFFFFFFFFFFFFFFFFFFFFFFFFFFFFFFFFFFFFFF AND DUP1 PUSH20 0xFFFFFFFFFFFFFFFFFFFFFFFFFFFFFFFFFFFFFFFF AND CALLER PUSH20 0xFFFFFFFFFFFFFFFFFFFFFFFFFFFFFFFFFFFFFFFF AND EQ PUSH2 0x2CC JUMPI PUSH1 0x40 MLOAD PUSH32 0x8C379A000000000000000000000000000000000000000000000000000000000 DUP2 MSTORE PUSH1 0x4 ADD PUSH2 0x2C3 SWAP1 PUSH2 0x178D JUMP JUMPDEST PUSH1 0x40 MLOAD DUP1 SWAP2 SUB SWAP1 REVERT JUMPDEST PUSH1 0x1 PUSH0 SWAP1 SLOAD SWAP1 PUSH2 0x100 EXP SWAP1 DIV PUSH20 0xFFFFFFFFFFFFFFFFFFFFFFFFFFFFFFFFFFFFFFFF AND PUSH0 DUP1 PUSH2 0x100 EXP DUP2 SLOAD DUP2 PUSH20 0xFFFFFFFFFFFFFFFFFFFFFFFFFFFFFFFFFFFFFFFF MUL NOT AND SWAP1 DUP4 PUSH20 0xFFFFFFFFFFFFFFFFFFFFFFFFFFFFFFFFFFFFFFFF AND MUL OR SWAP1 SSTORE POP PUSH0 PUSH1 0x1 PUSH0 PUSH2 0x100 EXP DUP2 SLOAD DUP2 PUSH20 0xFFFFFFFFFFFFFFFFFFFFFFFFFFFFFFFFFFFFFFFF MUL NOT AND SWAP1 DUP4 PUSH20 0xFFFFFFFFFFFFFFFFFFFFFFFFFFFFFFFFFFFFFFFF AND MUL OR SWAP1 SSTORE POP PUSH0 DUP1 SLOAD SWAP1 PUSH2 0x100 EXP SWAP1 DIV PUSH20 0xFFFFFFFFFFFFFFFFFFFFFFFFFFFFFFFFFFFFFFFF AND PUSH20 0xFFFFFFFFFFFFFFFFFFFFFFFFFFFFFFFFFFFFFFFF AND PUSH32 0x41E8EE868CB815A7E5CD1A100E6FF024772D79C071718C049AB7D3BC4E1226D PUSH1 0x40 MLOAD PUSH1 0x40 MLOAD DUP1 SWAP2 SUB SWAP1 LOG2 PUSH1 0x1 SWAP2 POP POP SWAP1 JUMP JUMPDEST PUSH1 0x4 PUSH1 0x20 MSTORE DUP2 PUSH0 MSTORE PUSH1 0x40 PUSH0 KECCAK256 DUP2 DUP2 SLOAD DUP2 LT PUSH2 0x3EF JUMPI PUSH0 DUP1 REVERT JUMPDEST SWAP1 PUSH0 MSTORE PUSH1 0x20 PUSH0 KECCAK256 ADD PUSH0 SWAP2 POP SWAP2 POP SWAP1 SLOAD SWAP1 PUSH2 0x100 EXP SWAP1 DIV PUSH20 0xFFFFFFFFFFFFFFFFFFFFFFFFFFFFFFFFFFFFFFFF AND DUP2 JUMP JUMPDEST PUSH0 PUSH1 0x2 DUP2 GT ISZERO PUSH2 0x431 JUMPI PUSH2 0x430 PUSH2 0x1641 JUMP JUMPDEST JUMPDEST PUSH1 0x2 PUSH0 CALLER PUSH20 0xFFFFFFFFFFFFFFFFFFFFFFFFFFFFFFFFFFFFFFFF AND PUSH20 0xFFFFFFFFFFFFFFFFFFFFFFFFFFFFFFFFFFFFFFFF AND DUP2 MSTORE PUSH1 0x20 ADD SWAP1 DUP2 MSTORE PUSH1 0x20 ADD PUSH0 KECCAK256 PUSH0 ADD PUSH1 0x4 ADD PUSH0 SWAP1 SLOAD SWAP1 PUSH2 0x100 EXP SWAP1 DIV PUSH1 0xFF AND PUSH1 0x2 DUP2 GT ISZERO PUSH2 0x492 JUMPI PUSH2 0x491 PUSH2 0x1641 JUMP JUMPDEST JUMPDEST EQ PUSH2 0x49B JUMPI PUSH0 DUP1 REVERT JUMPDEST DUP3 DUP3 DUP1 DUP3 PUSH20 0xFFFFFFFFFFFFFFFFFFFFFFFFFFFFFFFFFFFFFFFF AND PUSH4 0xDD62ED3E CALLER ADDRESS PUSH1 0x40 MLOAD DUP4 PUSH4 0xFFFFFFFF AND PUSH1 0xE0 SHL DUP2 MSTORE PUSH1 0x4 ADD PUSH2 0x4D9 SWAP3 SWAP2 SWAP1 PUSH2 0x17AB JUMP JUMPDEST PUSH1 0x20 PUSH1 0x40 MLOAD DUP1 DUP4 SUB DUP2 DUP7 GAS STATICCALL ISZERO DUP1 ISZERO PUSH2 0x4F4 JUMPI RETURNDATASIZE PUSH0 DUP1 RETURNDATACOPY RETURNDATASIZE PUSH0 REVERT JUMPDEST POP POP POP POP PUSH1 0x40 MLOAD RETURNDATASIZE PUSH1 0x1F NOT PUSH1 0x1F DUP3 ADD AND DUP3 ADD DUP1 PUSH1 0x40 MSTORE POP DUP2 ADD SWAP1 PUSH2 0x518 SWAP2 SWAP1 PUSH2 0x17E6 JUMP JUMPDEST LT ISZERO PUSH2 0x522 JUMPI PUSH0 DUP1 REVERT JUMPDEST DUP5 DUP5 DUP1 DUP3 PUSH20 0xFFFFFFFFFFFFFFFFFFFFFFFFFFFFFFFFFFFFFFFF AND PUSH4 0x70A08231 CALLER PUSH1 0x40 MLOAD DUP3 PUSH4 0xFFFFFFFF AND PUSH1 0xE0 SHL DUP2 MSTORE PUSH1 0x4 ADD PUSH2 0x55E SWAP2 SWAP1 PUSH2 0x158F JUMP JUMPDEST PUSH1 0x20 PUSH1 0x40 MLOAD DUP1 DUP4 SUB DUP2 DUP7 GAS STATICCALL ISZERO DUP1 ISZERO PUSH2 0x579 JUMPI RETURNDATASIZE PUSH0 DUP1 RETURNDATACOPY RETURNDATASIZE PUSH0 REVERT JUMPDEST POP POP POP POP PUSH1 0x40 MLOAD RETURNDATASIZE PUSH1 0x1F NOT PUSH1 0x1F DUP3 ADD AND DUP3 ADD DUP1 PUSH1 0x40 MSTORE POP DUP2 ADD SWAP1 PUSH2 0x59D SWAP2 SWAP1 PUSH2 0x17E6 JUMP JUMPDEST LT ISZERO PUSH2 0x5A7 JUMPI PUSH0 DUP1 REVERT JUMPDEST PUSH1 0x1 PUSH1 0x2 PUSH0 CALLER PUSH20 0xFFFFFFFFFFFFFFFFFFFFFFFFFFFFFFFFFFFFFFFF AND PUSH20 0xFFFFFFFFFFFFFFFFFFFFFFFFFFFFFFFFFFFFFFFF AND DUP2 MSTORE PUSH1 0x20 ADD SWAP1 DUP2 MSTORE PUSH1 0x20 ADD PUSH0 KECCAK256 PUSH0 ADD PUSH1 0x4 ADD PUSH0 PUSH2 0x100 EXP DUP2 SLOAD DUP2 PUSH1 0xFF MUL NOT AND SWAP1 DUP4 PUSH1 0x2 DUP2 GT ISZERO PUSH2 0x60C JUMPI PUSH2 0x60B PUSH2 0x1641 JUMP JUMPDEST JUMPDEST MUL OR SWAP1 SSTORE POP DUP7 PUSH20 0xFFFFFFFFFFFFFFFFFFFFFFFFFFFFFFFFFFFFFFFF AND PUSH4 0x23B872DD CALLER ADDRESS DUP10 PUSH1 0x40 MLOAD DUP5 PUSH4 0xFFFFFFFF AND PUSH1 0xE0 SHL DUP2 MSTORE PUSH1 0x4 ADD PUSH2 0x64E SWAP4 SWAP3 SWAP2 SWAP1 PUSH2 0x1820 JUMP JUMPDEST PUSH1 0x20 PUSH1 0x40 MLOAD DUP1 DUP4 SUB DUP2 PUSH0 DUP8 GAS CALL ISZERO DUP1 ISZERO PUSH2 0x66A JUMPI RETURNDATASIZE PUSH0 DUP1 RETURNDATACOPY RETURNDATASIZE PUSH0 REVERT JUMPDEST POP POP POP POP PUSH1 0x40 MLOAD RETURNDATASIZE PUSH1 0x1F NOT PUSH1 0x1F DUP3 ADD AND DUP3 ADD DUP1 PUSH1 0x40 MSTORE POP DUP2 ADD SWAP1 PUSH2 0x68E SWAP2 SWAP1 PUSH2 0x187F JUMP JUMPDEST PUSH2 0x6CD JUMPI PUSH1 0x40 MLOAD PUSH32 0x8C379A000000000000000000000000000000000000000000000000000000000 DUP2 MSTORE PUSH1 0x4 ADD PUSH2 0x6C4 SWAP1 PUSH2 0x191A JUMP JUMPDEST PUSH1 0x40 MLOAD DUP1 SWAP2 SUB SWAP1 REVERT JUMPDEST PUSH2 0x6DA DUP8 DUP8 DUP8 PUSH1 0x1 PUSH2 0xB38 JUMP JUMPDEST POP POP POP POP POP POP POP JUMP JUMPDEST PUSH1 0x3 PUSH1 0x20 MSTORE DUP2 PUSH0 MSTORE PUSH1 0x40 PUSH0 KECCAK256 DUP2 DUP2 SLOAD DUP2 LT PUSH2 0x6FC JUMPI PUSH0 DUP1 REVERT JUMPDEST SWAP1 PUSH0 MSTORE PUSH1 0x20 PUSH0 KECCAK256 ADD PUSH0 SWAP2 POP SWAP2 POP SWAP1 SLOAD SWAP1 PUSH2 0x100 EXP SWAP1 DIV PUSH20 0xFFFFFFFFFFFFFFFFFFFFFFFFFFFFFFFFFFFFFFFF AND DUP2 JUMP JUMPDEST PUSH0 PUSH1 0x2 DUP2 GT ISZERO PUSH2 0x73E JUMPI PUSH2 0x73D PUSH2 0x1641 JUMP JUMPDEST JUMPDEST PUSH1 0x2 PUSH0 CALLER PUSH20 0xFFFFFFFFFFFFFFFFFFFFFFFFFFFFFFFFFFFFFFFF AND PUSH20 0xFFFFFFFFFFFFFFFFFFFFFFFFFFFFFFFFFFFFFFFF AND DUP2 MSTORE PUSH1 0x20 ADD SWAP1 DUP2 MSTORE PUSH1 0x20 ADD PUSH0 KECCAK256 PUSH0 ADD PUSH1 0x4 ADD PUSH0 SWAP1 SLOAD SWAP1 PUSH2 0x100 EXP SWAP1 DIV PUSH1 0xFF AND PUSH1 0x2 DUP2 GT ISZERO PUSH2 0x79F JUMPI PUSH2 0x79E PUSH2 0x1641 JUMP JUMPDEST JUMPDEST EQ PUSH2 0x7A8 JUMPI PUSH0 DUP1 REVERT JUMPDEST DUP1 DUP3 PUSH2 0x7B4 SWAP2 SWAP1 PUSH2 0x1965 JUMP JUMPDEST DUP1 CALLVALUE LT ISZERO PUSH2 0x7C0 JUMPI PUSH0 DUP1 REVERT JUMPDEST PUSH1 0x2 DUP1 PUSH0 CALLER PUSH20 0xFFFFFFFFFFFFFFFFFFFFFFFFFFFFFFFFFFFFFFFF AND PUSH20 0xFFFFFFFFFFFFFFFFFFFFFFFFFFFFFFFFFFFFFFFF AND DUP2 MSTORE PUSH1 0x20 ADD SWAP1 DUP2 MSTORE PUSH1 0x20 ADD PUSH0 KECCAK256 PUSH0 ADD PUSH1 0x4 ADD PUSH0 PUSH2 0x100 EXP DUP2 SLOAD DUP2 PUSH1 0xFF MUL NOT AND SWAP1 DUP4 PUSH1 0x2 DUP2 GT ISZERO PUSH2 0x824 JUMPI PUSH2 0x823 PUSH2 0x1641 JUMP JUMPDEST JUMPDEST MUL OR SWAP1 SSTORE POP PUSH2 0x836 DUP5 DUP5 DUP5 PUSH1 0x2 PUSH2 0xB38 JUMP JUMPDEST POP POP POP POP JUMP JUMPDEST PUSH0 DUP1 PUSH0 SWAP1 SLOAD SWAP1 PUSH2 0x100 EXP SWAP1 DIV PUSH20 0xFFFFFFFFFFFFFFFFFFFFFFFFFFFFFFFFFFFFFFFF AND DUP1 PUSH20 0xFFFFFFFFFFFFFFFFFFFFFFFFFFFFFFFFFFFFFFFF AND CALLER PUSH20 0xFFFFFFFFFFFFFFFFFFFFFFFFFFFFFFFFFFFFFFFF AND EQ PUSH2 0x8CC JUMPI PUSH1 0x40 MLOAD PUSH32 0x8C379A000000000000000000000000000000000000000000000000000000000 DUP2 MSTORE PUSH1 0x4 ADD PUSH2 0x8C3 SWAP1 PUSH2 0x178D JUMP JUMPDEST PUSH1 0x40 MLOAD DUP1 SWAP2 SUB SWAP1 REVERT JUMPDEST DUP3 DUP1 PUSH20 0xFFFFFFFFFFFFFFFFFFFFFFFFFFFFFFFFFFFFFFFF AND PUSH0 PUSH20 0xFFFFFFFFFFFFFFFFFFFFFFFFFFFFFFFFFFFFFFFF AND SUB PUSH2 0x93B JUMPI PUSH1 0x40 MLOAD PUSH32 0x8C379A000000000000000000000000000000000000000000000000000000000 DUP2 MSTORE PUSH1 0x4 ADD PUSH2 0x932 SWAP1 PUSH2 0x1A16 JUMP JUMPDEST PUSH1 0x40 MLOAD DUP1 SWAP2 SUB SWAP1 REVERT JUMPDEST DUP4 PUSH1 0x1 PUSH0 PUSH2 0x100 EXP DUP2 SLOAD DUP2 PUSH20 0xFFFFFFFFFFFFFFFFFFFFFFFFFFFFFFFFFFFFFFFF MUL NOT AND SWAP1 DUP4 PUSH20 0xFFFFFFFFFFFFFFFFFFFFFFFFFFFFFFFFFFFFFFFF AND MUL OR SWAP1 SSTORE POP PUSH1 0x1 PUSH0 SWAP1 SLOAD SWAP1 PUSH2 0x100 EXP SWAP1 DIV PUSH20 0xFFFFFFFFFFFFFFFFFFFFFFFFFFFFFFFFFFFFFFFF AND PUSH20 0xFFFFFFFFFFFFFFFFFFFFFFFFFFFFFFFFFFFFFFFF AND PUSH0 DUP1 SLOAD SWAP1 PUSH2 0x100 EXP SWAP1 DIV PUSH20 0xFFFFFFFFFFFFFFFFFFFFFFFFFFFFFFFFFFFFFFFF AND PUSH20 0xFFFFFFFFFFFFFFFFFFFFFFFFFFFFFFFFFFFFFFFF AND PUSH32 0x3171EF419DFBA51CF3B185FA6EE8071885C38DEB1E1621DF017995E8A5E9254C PUSH1 0x40 MLOAD PUSH1 0x40 MLOAD DUP1 SWAP2 SUB SWAP1 LOG3 PUSH1 0x1 SWAP3 POP POP POP SWAP2 SWAP1 POP JUMP JUMPDEST PUSH1 0x2 PUSH1 0x20 MSTORE DUP1 PUSH0 MSTORE PUSH1 0x40 PUSH0 KECCAK256 PUSH0 SWAP2 POP SWAP1 POP DUP1 PUSH0 ADD PUSH1 0x40 MLOAD DUP1 PUSH1 0xA0 ADD PUSH1 0x40 MSTORE SWAP1 DUP2 PUSH0 DUP3 ADD PUSH0 SWAP1 SLOAD SWAP1 PUSH2 0x100 EXP SWAP1 DIV PUSH20 0xFFFFFFFFFFFFFFFFFFFFFFFFFFFFFFFFFFFFFFFF AND PUSH20 0xFFFFFFFFFFFFFFFFFFFFFFFFFFFFFFFFFFFFFFFF AND PUSH20 0xFFFFFFFFFFFFFFFFFFFFFFFFFFFFFFFFFFFFFFFF AND DUP2 MSTORE PUSH1 0x20 ADD PUSH1 0x1 DUP3 ADD SLOAD DUP2 MSTORE PUSH1 0x20 ADD PUSH1 0x2 DUP3 ADD SLOAD DUP2 MSTORE PUSH1 0x20 ADD PUSH1 0x3 DUP3 ADD SLOAD DUP2 MSTORE PUSH1 0x20 ADD PUSH1 0x4 DUP3 ADD PUSH0 SWAP1 SLOAD SWAP1 PUSH2 0x100 EXP SWAP1 DIV PUSH1 0xFF AND PUSH1 0x2 DUP2 GT ISZERO PUSH2 0xAD5 JUMPI PUSH2 0xAD4 PUSH2 0x1641 JUMP JUMPDEST JUMPDEST PUSH1 0x2 DUP2 GT ISZERO PUSH2 0xAE7 JUMPI PUSH2 0xAE6 PUSH2 0x1641 JUMP JUMPDEST JUMPDEST DUP2 MSTORE POP POP SWAP1 POP DUP2 JUMP JUMPDEST PUSH1 0x1 PUSH0 SWAP1 SLOAD SWAP1 PUSH2 0x100 EXP SWAP1 DIV PUSH20 0xFFFFFFFFFFFFFFFFFFFFFFFFFFFFFFFFFFFFFFFF AND DUP2 JUMP JUMPDEST PUSH0 DUP1 SLOAD SWAP1 PUSH2 0x100 EXP SWAP1 DIV PUSH20 0xFFFFFFFFFFFFFFFFFFFFFFFFFFFFFFFFFFFFFFFF AND DUP2 JUMP JUMPDEST PUSH0 PUSH1 0x1 PUSH1 0x2 DUP2 GT ISZERO PUSH2 0xB4D JUMPI PUSH2 0xB4C PUSH2 0x1641 JUMP JUMPDEST JUMPDEST DUP3 PUSH1 0x2 DUP2 GT ISZERO PUSH2 0xB60 JUMPI PUSH2 0xB5F PUSH2 0x1641 JUMP JUMPDEST JUMPDEST EQ PUSH2 0xBA7 JUMPI PUSH1 0x3 PUSH0 DUP7 PUSH20 0xFFFFFFFFFFFFFFFFFFFFFFFFFFFFFFFFFFFFFFFF AND PUSH20 0xFFFFFFFFFFFFFFFFFFFFFFFFFFFFFFFFFFFFFFFF AND DUP2 MSTORE PUSH1 0x20 ADD SWAP1 DUP2 MSTORE PUSH1 0x20 ADD PUSH0 KECCAK256 PUSH2 0xBE5 JUMP JUMPDEST PUSH1 0x4 PUSH0 DUP7 PUSH20 0xFFFFFFFFFFFFFFFFFFFFFFFFFFFFFFFFFFFFFFFF AND PUSH20 0xFFFFFFFFFFFFFFFFFFFFFFFFFFFFFFFFFFFFFFFF AND DUP2 MSTORE PUSH1 0x20 ADD SWAP1 DUP2 MSTORE PUSH1 0x20 ADD PUSH0 KECCAK256 JUMPDEST SWAP1 POP PUSH0 DUP5 SWAP1 POP PUSH0 DUP3 DUP1 SLOAD SWAP1 POP SWAP1 POP JUMPDEST PUSH0 DUP2 GT ISZERO PUSH2 0xD12 JUMPI PUSH0 PUSH1 0x2 PUSH0 DUP6 PUSH1 0x1 DUP6 PUSH2 0xC0E SWAP2 SWAP1 PUSH2 0x1A34 JUMP JUMPDEST DUP2 SLOAD DUP2 LT PUSH2 0xC1F JUMPI PUSH2 0xC1E PUSH2 0x1A67 JUMP JUMPDEST JUMPDEST SWAP1 PUSH0 MSTORE PUSH1 0x20 PUSH0 KECCAK256 ADD PUSH0 SWAP1 SLOAD SWAP1 PUSH2 0x100 EXP SWAP1 DIV PUSH20 0xFFFFFFFFFFFFFFFFFFFFFFFFFFFFFFFFFFFFFFFF AND PUSH20 0xFFFFFFFFFFFFFFFFFFFFFFFFFFFFFFFFFFFFFFFF AND PUSH20 0xFFFFFFFFFFFFFFFFFFFFFFFFFFFFFFFFFFFFFFFF AND DUP2 MSTORE PUSH1 0x20 ADD SWAP1 DUP2 MSTORE PUSH1 0x20 ADD PUSH0 KECCAK256 PUSH0 ADD SWAP1 POP DUP6 DUP2 PUSH1 0x2 ADD SLOAD LT PUSH2 0xCFE JUMPI PUSH2 0xCEE DUP9 DUP6 PUSH1 0x1 DUP6 PUSH2 0xCA1 SWAP2 SWAP1 PUSH2 0x1A34 JUMP JUMPDEST DUP2 SLOAD DUP2 LT PUSH2 0xCB2 JUMPI PUSH2 0xCB1 PUSH2 0x1A67 JUMP JUMPDEST JUMPDEST SWAP1 PUSH0 MSTORE PUSH1 0x20 PUSH0 KECCAK256 ADD PUSH0 SWAP1 SLOAD SWAP1 PUSH2 0x100 EXP SWAP1 DIV PUSH20 0xFFFFFFFFFFFFFFFFFFFFFFFFFFFFFFFFFFFFFFFF AND DUP6 DUP9 PUSH1 0x1 DUP8 PUSH2 0xCE9 SWAP2 SWAP1 PUSH2 0x1A34 JUMP JUMPDEST PUSH2 0xD9E JUMP JUMPDEST SWAP3 POP PUSH0 DUP4 SUB PUSH2 0xCFD JUMPI POP PUSH2 0xD12 JUMP JUMPDEST JUMPDEST POP DUP1 DUP1 PUSH2 0xD0A SWAP1 PUSH2 0x1A94 JUMP JUMPDEST SWAP2 POP POP PUSH2 0xBF4 JUMP JUMPDEST POP PUSH0 DUP2 GT ISZERO PUSH2 0xD2C JUMPI PUSH2 0xD27 DUP7 DUP3 DUP7 DUP7 PUSH2 0x1020 JUMP JUMPDEST PUSH2 0xD96 JUMP JUMPDEST PUSH0 PUSH1 0x2 PUSH0 CALLER PUSH20 0xFFFFFFFFFFFFFFFFFFFFFFFFFFFFFFFFFFFFFFFF AND PUSH20 0xFFFFFFFFFFFFFFFFFFFFFFFFFFFFFFFFFFFFFFFF AND DUP2 MSTORE PUSH1 0x20 ADD SWAP1 DUP2 MSTORE PUSH1 0x20 ADD PUSH0 KECCAK256 PUSH0 ADD PUSH1 0x4 ADD PUSH0 PUSH2 0x100 EXP DUP2 SLOAD DUP2 PUSH1 0xFF MUL NOT AND SWAP1 DUP4 PUSH1 0x2 DUP2 GT ISZERO PUSH2 0xD90 JUMPI PUSH2 0xD8F PUSH2 0x1641 JUMP JUMPDEST JUMPDEST MUL OR SWAP1 SSTORE POP JUMPDEST POP POP POP POP POP POP JUMP JUMPDEST PUSH0 DUP1 PUSH1 0x2 PUSH0 DUP8 PUSH20 0xFFFFFFFFFFFFFFFFFFFFFFFFFFFFFFFFFFFFFFFF AND PUSH20 0xFFFFFFFFFFFFFFFFFFFFFFFFFFFFFFFFFFFFFFFF AND DUP2 MSTORE PUSH1 0x20 ADD SWAP1 DUP2 MSTORE PUSH1 0x20 ADD PUSH0 KECCAK256 PUSH0 ADD SWAP1 POP PUSH0 DUP2 PUSH1 0x1 ADD SLOAD DUP7 LT PUSH2 0xDF7 JUMPI DUP2 PUSH1 0x1 ADD SLOAD PUSH2 0xDF9 JUMP JUMPDEST DUP6 JUMPDEST SWAP1 POP PUSH1 0x1 PUSH1 0x2 DUP2 GT ISZERO PUSH2 0xE0F JUMPI PUSH2 0xE0E PUSH2 0x1641 JUMP JUMPDEST JUMPDEST DUP6 PUSH1 0x2 DUP2 GT ISZERO PUSH2 0xE22 JUMPI PUSH2 0xE21 PUSH2 0x1641 JUMP JUMPDEST JUMPDEST SUB PUSH2 0xEFF JUMPI DUP8 PUSH20 0xFFFFFFFFFFFFFFFFFFFFFFFFFFFFFFFFFFFFFFFF AND PUSH4 0xA9059CBB DUP9 DUP4 PUSH1 0x40 MLOAD DUP4 PUSH4 0xFFFFFFFF AND PUSH1 0xE0 SHL DUP2 MSTORE PUSH1 0x4 ADD PUSH2 0xE62 SWAP3 SWAP2 SWAP1 PUSH2 0x1ABB JUMP JUMPDEST PUSH1 0x20 PUSH1 0x40 MLOAD DUP1 DUP4 SUB DUP2 PUSH0 DUP8 GAS CALL ISZERO DUP1 ISZERO PUSH2 0xE7E JUMPI RETURNDATASIZE PUSH0 DUP1 RETURNDATACOPY RETURNDATASIZE PUSH0 REVERT JUMPDEST POP POP POP POP PUSH1 0x40 MLOAD RETURNDATASIZE PUSH1 0x1F NOT PUSH1 0x1F DUP3 ADD AND DUP3 ADD DUP1 PUSH1 0x40 MSTORE POP DUP2 ADD SWAP1 PUSH2 0xEA2 SWAP2 SWAP1 PUSH2 0x187F JUMP JUMPDEST PUSH2 0xEE1 JUMPI PUSH1 0x40 MLOAD PUSH32 0x8C379A000000000000000000000000000000000000000000000000000000000 DUP2 MSTORE PUSH1 0x4 ADD PUSH2 0xED8 SWAP1 PUSH2 0x1B2C JUMP JUMPDEST PUSH1 0x40 MLOAD DUP1 SWAP2 SUB SWAP1 REVERT JUMPDEST PUSH2 0xEFA CALLER DUP4 PUSH1 0x2 ADD SLOAD DUP4 PUSH2 0xEF5 SWAP2 SWAP1 PUSH2 0x1965 JUMP JUMPDEST PUSH2 0x11D4 JUMP JUMPDEST PUSH2 0xFD3 JUMP JUMPDEST DUP8 PUSH20 0xFFFFFFFFFFFFFFFFFFFFFFFFFFFFFFFFFFFFFFFF AND PUSH4 0xA9059CBB CALLER DUP4 PUSH1 0x40 MLOAD DUP4 PUSH4 0xFFFFFFFF AND PUSH1 0xE0 SHL DUP2 MSTORE PUSH1 0x4 ADD PUSH2 0xF3A SWAP3 SWAP2 SWAP1 PUSH2 0x1ABB JUMP JUMPDEST PUSH1 0x20 PUSH1 0x40 MLOAD DUP1 DUP4 SUB DUP2 PUSH0 DUP8 GAS CALL ISZERO DUP1 ISZERO PUSH2 0xF56 JUMPI RETURNDATASIZE PUSH0 DUP1 RETURNDATACOPY RETURNDATASIZE PUSH0 REVERT JUMPDEST POP POP POP POP PUSH1 0x40 MLOAD RETURNDATASIZE PUSH1 0x1F NOT PUSH1 0x1F DUP3 ADD AND DUP3 ADD DUP1 PUSH1 0x40 MSTORE POP DUP2 ADD SWAP1 PUSH2 0xF7A SWAP2 SWAP1 PUSH2 0x187F JUMP JUMPDEST PUSH2 0xFB9 JUMPI PUSH1 0x40 MLOAD PUSH32 0x8C379A000000000000000000000000000000000000000000000000000000000 DUP2 MSTORE PUSH1 0x4 ADD PUSH2 0xFB0 SWAP1 PUSH2 0x1B2C JUMP JUMPDEST PUSH1 0x40 MLOAD DUP1 SWAP2 SUB SWAP1 REVERT JUMPDEST PUSH2 0xFD2 DUP8 DUP4 PUSH1 0x2 ADD SLOAD DUP4 PUSH2 0xFCD SWAP2 SWAP1 PUSH2 0x1965 JUMP JUMPDEST PUSH2 0x11D4 JUMP JUMPDEST JUMPDEST DUP1 DUP3 PUSH1 0x1 ADD PUSH0 DUP3 DUP3 SLOAD PUSH2 0xFE6 SWAP2 SWAP1 PUSH2 0x1A34 JUMP JUMPDEST SWAP3 POP POP DUP2 SWAP1 SSTORE POP PUSH0 DUP3 PUSH1 0x1 ADD SLOAD SUB PUSH2 0x1004 JUMPI PUSH2 0x1003 DUP9 DUP4 DUP7 PUSH2 0x1281 JUMP JUMPDEST JUMPDEST DUP1 DUP7 PUSH2 0x1010 SWAP2 SWAP1 PUSH2 0x1A34 JUMP JUMPDEST SWAP6 POP DUP6 SWAP3 POP POP POP SWAP6 SWAP5 POP POP POP POP POP JUMP JUMPDEST PUSH0 PUSH1 0x1 PUSH1 0x2 DUP2 GT ISZERO PUSH2 0x1035 JUMPI PUSH2 0x1034 PUSH2 0x1641 JUMP JUMPDEST JUMPDEST DUP3 PUSH1 0x2 DUP2 GT ISZERO PUSH2 0x1048 JUMPI PUSH2 0x1047 PUSH2 0x1641 JUMP JUMPDEST JUMPDEST SUB PUSH2 0x108F JUMPI PUSH1 0x3 PUSH0 DUP7 PUSH20 0xFFFFFFFFFFFFFFFFFFFFFFFFFFFFFFFFFFFFFFFF AND PUSH20 0xFFFFFFFFFFFFFFFFFFFFFFFFFFFFFFFFFFFFFFFF AND DUP2 MSTORE PUSH1 0x20 ADD SWAP1 DUP2 MSTORE PUSH1 0x20 ADD PUSH0 KECCAK256 PUSH2 0x10CD JUMP JUMPDEST PUSH1 0x4 PUSH0 DUP7 PUSH20 0xFFFFFFFFFFFFFFFFFFFFFFFFFFFFFFFFFFFFFFFF AND PUSH20 0xFFFFFFFFFFFFFFFFFFFFFFFFFFFFFFFFFFFFFFFF AND DUP2 MSTORE PUSH1 0x20 ADD SWAP1 DUP2 MSTORE PUSH1 0x20 ADD PUSH0 KECCAK256 JUMPDEST SWAP1 POP DUP1 CALLER SWAP1 DUP1 PUSH1 0x1 DUP2 SLOAD ADD DUP1 DUP3 SSTORE DUP1 SWAP2 POP POP PUSH1 0x1 SWAP1 SUB SWAP1 PUSH0 MSTORE PUSH1 0x20 PUSH0 KECCAK256 ADD PUSH0 SWAP1 SWAP2 SWAP1 SWAP2 SWAP1 SWAP2 PUSH2 0x100 EXP DUP2 SLOAD DUP2 PUSH20 0xFFFFFFFFFFFFFFFFFFFFFFFFFFFFFFFFFFFFFFFF MUL NOT AND SWAP1 DUP4 PUSH20 0xFFFFFFFFFFFFFFFFFFFFFFFFFFFFFFFFFFFFFFFF AND MUL OR SWAP1 SSTORE POP PUSH0 PUSH1 0x2 PUSH0 CALLER PUSH20 0xFFFFFFFFFFFFFFFFFFFFFFFFFFFFFFFFFFFFFFFF AND PUSH20 0xFFFFFFFFFFFFFFFFFFFFFFFFFFFFFFFFFFFFFFFF AND DUP2 MSTORE PUSH1 0x20 ADD SWAP1 DUP2 MSTORE PUSH1 0x20 ADD PUSH0 KECCAK256 PUSH0 ADD SWAP1 POP DUP6 DUP2 PUSH0 ADD PUSH0 PUSH2 0x100 EXP DUP2 SLOAD DUP2 PUSH20 0xFFFFFFFFFFFFFFFFFFFFFFFFFFFFFFFFFFFFFFFF MUL NOT AND SWAP1 DUP4 PUSH20 0xFFFFFFFFFFFFFFFFFFFFFFFFFFFFFFFFFFFFFFFF AND MUL OR SWAP1 SSTORE POP DUP5 DUP2 PUSH1 0x1 ADD DUP2 SWAP1 SSTORE POP DUP4 DUP2 PUSH1 0x2 ADD DUP2 SWAP1 SSTORE POP TIMESTAMP DUP2 PUSH1 0x3 ADD DUP2 SWAP1 SSTORE POP POP POP POP POP POP POP JUMP JUMPDEST PUSH0 DUP3 PUSH20 0xFFFFFFFFFFFFFFFFFFFFFFFFFFFFFFFFFFFFFFFF AND DUP3 PUSH1 0x40 MLOAD PUSH2 0x11F9 SWAP1 PUSH2 0x1B77 JUMP JUMPDEST PUSH0 PUSH1 0x40 MLOAD DUP1 DUP4 SUB DUP2 DUP6 DUP8 GAS CALL SWAP3 POP POP POP RETURNDATASIZE DUP1 PUSH0 DUP2 EQ PUSH2 0x1233 JUMPI PUSH1 0x40 MLOAD SWAP2 POP PUSH1 0x1F NOT PUSH1 0x3F RETURNDATASIZE ADD AND DUP3 ADD PUSH1 0x40 MSTORE RETURNDATASIZE DUP3 MSTORE RETURNDATASIZE PUSH0 PUSH1 0x20 DUP5 ADD RETURNDATACOPY PUSH2 0x1238 JUMP JUMPDEST PUSH1 0x60 SWAP2 POP JUMPDEST POP POP SWAP1 POP DUP1 PUSH2 0x127C JUMPI PUSH1 0x40 MLOAD PUSH32 0x8C379A000000000000000000000000000000000000000000000000000000000 DUP2 MSTORE PUSH1 0x4 ADD PUSH2 0x1273 SWAP1 PUSH2 0x1BD5 JUMP JUMPDEST PUSH1 0x40 MLOAD DUP1 SWAP2 SUB SWAP1 REVERT JUMPDEST POP POP POP JUMP JUMPDEST PUSH0 PUSH1 0x1 PUSH1 0x2 DUP2 GT ISZERO PUSH2 0x1296 JUMPI PUSH2 0x1295 PUSH2 0x1641 JUMP JUMPDEST JUMPDEST DUP4 PUSH1 0x4 ADD PUSH0 SWAP1 SLOAD SWAP1 PUSH2 0x100 EXP SWAP1 DIV PUSH1 0xFF AND PUSH1 0x2 DUP2 GT ISZERO PUSH2 0x12B9 JUMPI PUSH2 0x12B8 PUSH2 0x1641 JUMP JUMPDEST JUMPDEST EQ PUSH2 0x1300 JUMPI PUSH1 0x4 PUSH0 DUP6 PUSH20 0xFFFFFFFFFFFFFFFFFFFFFFFFFFFFFFFFFFFFFFFF AND PUSH20 0xFFFFFFFFFFFFFFFFFFFFFFFFFFFFFFFFFFFFFFFF AND DUP2 MSTORE PUSH1 0x20 ADD SWAP1 DUP2 MSTORE PUSH1 0x20 ADD PUSH0 KECCAK256 PUSH2 0x133E JUMP JUMPDEST PUSH1 0x3 PUSH0 DUP6 PUSH20 0xFFFFFFFFFFFFFFFFFFFFFFFFFFFFFFFFFFFFFFFF AND PUSH20 0xFFFFFFFFFFFFFFFFFFFFFFFFFFFFFFFFFFFFFFFF AND DUP2 MSTORE PUSH1 0x20 ADD SWAP1 DUP2 MSTORE PUSH1 0x20 ADD PUSH0 KECCAK256 JUMPDEST SWAP1 POP PUSH0 DUP3 SWAP1 POP JUMPDEST PUSH1 0x1 DUP3 DUP1 SLOAD SWAP1 POP PUSH2 0x1356 SWAP2 SWAP1 PUSH2 0x1A34 JUMP JUMPDEST DUP2 LT ISZERO PUSH2 0x1409 JUMPI DUP2 PUSH1 0x1 DUP3 PUSH2 0x136B SWAP2 SWAP1 PUSH2 0x1BF3 JUMP JUMPDEST DUP2 SLOAD DUP2 LT PUSH2 0x137C JUMPI PUSH2 0x137B PUSH2 0x1A67 JUMP JUMPDEST JUMPDEST SWAP1 PUSH0 MSTORE PUSH1 0x20 PUSH0 KECCAK256 ADD PUSH0 SWAP1 SLOAD SWAP1 PUSH2 0x100 EXP SWAP1 DIV PUSH20 0xFFFFFFFFFFFFFFFFFFFFFFFFFFFFFFFFFFFFFFFF AND DUP3 DUP3 DUP2 SLOAD DUP2 LT PUSH2 0x13B7 JUMPI PUSH2 0x13B6 PUSH2 0x1A67 JUMP JUMPDEST JUMPDEST SWAP1 PUSH0 MSTORE PUSH1 0x20 PUSH0 KECCAK256 ADD PUSH0 PUSH2 0x100 EXP DUP2 SLOAD DUP2 PUSH20 0xFFFFFFFFFFFFFFFFFFFFFFFFFFFFFFFFFFFFFFFF MUL NOT AND SWAP1 DUP4 PUSH20 0xFFFFFFFFFFFFFFFFFFFFFFFFFFFFFFFFFFFFFFFF AND MUL OR SWAP1 SSTORE POP DUP1 DUP1 PUSH1 0x1 ADD SWAP2 POP POP PUSH2 0x1345 JUMP JUMPDEST POP DUP1 DUP1 SLOAD DUP1 PUSH2 0x141B JUMPI PUSH2 0x141A PUSH2 0x1C26 JUMP JUMPDEST JUMPDEST PUSH1 0x1 SWAP1 SUB DUP2 DUP2 SWAP1 PUSH0 MSTORE PUSH1 0x20 PUSH0 KECCAK256 ADD PUSH0 PUSH2 0x100 EXP DUP2 SLOAD SWAP1 PUSH20 0xFFFFFFFFFFFFFFFFFFFFFFFFFFFFFFFFFFFFFFFF MUL NOT AND SWAP1 SSTORE SWAP1 SSTORE PUSH0 DUP4 PUSH1 0x4 ADD PUSH0 PUSH2 0x100 EXP DUP2 SLOAD DUP2 PUSH1 0xFF MUL NOT AND SWAP1 DUP4 PUSH1 0x2 DUP2 GT ISZERO PUSH2 0x1473 JUMPI PUSH2 0x1472 PUSH2 0x1641 JUMP JUMPDEST JUMPDEST MUL OR SWAP1 SSTORE POP POP POP POP POP JUMP JUMPDEST PUSH0 DUP2 ISZERO ISZERO SWAP1 POP SWAP2 SWAP1 POP JUMP JUMPDEST PUSH2 0x1492 DUP2 PUSH2 0x147E JUMP JUMPDEST DUP3 MSTORE POP POP JUMP JUMPDEST PUSH0 PUSH1 0x20 DUP3 ADD SWAP1 POP PUSH2 0x14AB PUSH0 DUP4 ADD DUP5 PUSH2 0x1489 JUMP JUMPDEST SWAP3 SWAP2 POP POP JUMP JUMPDEST PUSH0 DUP1 REVERT JUMPDEST PUSH0 PUSH20 0xFFFFFFFFFFFFFFFFFFFFFFFFFFFFFFFFFFFFFFFF DUP3 AND SWAP1 POP SWAP2 SWAP1 POP JUMP JUMPDEST PUSH0 PUSH2 0x14DE DUP3 PUSH2 0x14B5 JUMP JUMPDEST SWAP1 POP SWAP2 SWAP1 POP JUMP JUMPDEST PUSH2 0x14EE DUP2 PUSH2 0x14D4 JUMP JUMPDEST DUP2 EQ PUSH2 0x14F8 JUMPI PUSH0 DUP1 REVERT JUMPDEST POP JUMP JUMPDEST PUSH0 DUP2 CALLDATALOAD SWAP1 POP PUSH2 0x1509 DUP2 PUSH2 0x14E5 JUMP JUMPDEST SWAP3 SWAP2 POP POP JUMP JUMPDEST PUSH0 DUP2 SWAP1 POP SWAP2 SWAP1 POP JUMP JUMPDEST PUSH2 0x1521 DUP2 PUSH2 0x150F JUMP JUMPDEST DUP2 EQ PUSH2 0x152B JUMPI PUSH0 DUP1 REVERT JUMPDEST POP JUMP JUMPDEST PUSH0 DUP2 CALLDATALOAD SWAP1 POP PUSH2 0x153C DUP2 PUSH2 0x1518 JUMP JUMPDEST SWAP3 SWAP2 POP POP JUMP JUMPDEST PUSH0 DUP1 PUSH1 0x40 DUP4 DUP6 SUB SLT ISZERO PUSH2 0x1558 JUMPI PUSH2 0x1557 PUSH2 0x14B1 JUMP JUMPDEST JUMPDEST PUSH0 PUSH2 0x1565 DUP6 DUP3 DUP7 ADD PUSH2 0x14FB JUMP JUMPDEST SWAP3 POP POP PUSH1 0x20 PUSH2 0x1576 DUP6 DUP3 DUP7 ADD PUSH2 0x152E JUMP JUMPDEST SWAP2 POP POP SWAP3 POP SWAP3 SWAP1 POP JUMP JUMPDEST PUSH2 0x1589 DUP2 PUSH2 0x14D4 JUMP JUMPDEST DUP3 MSTORE POP POP JUMP JUMPDEST PUSH0 PUSH1 0x20 DUP3 ADD SWAP1 POP PUSH2 0x15A2 PUSH0 DUP4 ADD DUP5 PUSH2 0x1580 JUMP JUMPDEST SWAP3 SWAP2 POP POP JUMP JUMPDEST PUSH0 DUP1 PUSH0 PUSH1 0x60 DUP5 DUP7 SUB SLT ISZERO PUSH2 0x15BF JUMPI PUSH2 0x15BE PUSH2 0x14B1 JUMP JUMPDEST JUMPDEST PUSH0 PUSH2 0x15CC DUP7 DUP3 DUP8 ADD PUSH2 0x14FB JUMP JUMPDEST SWAP4 POP POP PUSH1 0x20 PUSH2 0x15DD DUP7 DUP3 DUP8 ADD PUSH2 0x152E JUMP JUMPDEST SWAP3 POP POP PUSH1 0x40 PUSH2 0x15EE DUP7 DUP3 DUP8 ADD PUSH2 0x152E JUMP JUMPDEST SWAP2 POP POP SWAP3 POP SWAP3 POP SWAP3 JUMP JUMPDEST PUSH0 PUSH1 0x20 DUP3 DUP5 SUB SLT ISZERO PUSH2 0x160D JUMPI PUSH2 0x160C PUSH2 0x14B1 JUMP JUMPDEST JUMPDEST PUSH0 PUSH2 0x161A DUP5 DUP3 DUP6 ADD PUSH2 0x14FB JUMP JUMPDEST SWAP2 POP POP SWAP3 SWAP2 POP POP JUMP JUMPDEST PUSH2 0x162C DUP2 PUSH2 0x14D4 JUMP JUMPDEST DUP3 MSTORE POP POP JUMP JUMPDEST PUSH2 0x163B DUP2 PUSH2 0x150F JUMP JUMPDEST DUP3 MSTORE POP POP JUMP JUMPDEST PUSH32 0x4E487B7100000000000000000000000000000000000000000000000000000000 PUSH0 MSTORE PUSH1 0x21 PUSH1 0x4 MSTORE PUSH1 0x24 PUSH0 REVERT JUMPDEST PUSH1 0x3 DUP2 LT PUSH2 0x167F JUMPI PUSH2 0x167E PUSH2 0x1641 JUMP JUMPDEST JUMPDEST POP JUMP JUMPDEST PUSH0 DUP2 SWAP1 POP PUSH2 0x168F DUP3 PUSH2 0x166E JUMP JUMPDEST SWAP2 SWAP1 POP JUMP JUMPDEST PUSH0 PUSH2 0x169E DUP3 PUSH2 0x1682 JUMP JUMPDEST SWAP1 POP SWAP2 SWAP1 POP JUMP JUMPDEST PUSH2 0x16AE DUP2 PUSH2 0x1694 JUMP JUMPDEST DUP3 MSTORE POP POP JUMP JUMPDEST PUSH1 0xA0 DUP3 ADD PUSH0 DUP3 ADD MLOAD PUSH2 0x16C8 PUSH0 DUP6 ADD DUP3 PUSH2 0x1623 JUMP JUMPDEST POP PUSH1 0x20 DUP3 ADD MLOAD PUSH2 0x16DB PUSH1 0x20 DUP6 ADD DUP3 PUSH2 0x1632 JUMP JUMPDEST POP PUSH1 0x40 DUP3 ADD MLOAD PUSH2 0x16EE PUSH1 0x40 DUP6 ADD DUP3 PUSH2 0x1632 JUMP JUMPDEST POP PUSH1 0x60 DUP3 ADD MLOAD PUSH2 0x1701 PUSH1 0x60 DUP6 ADD DUP3 PUSH2 0x1632 JUMP JUMPDEST POP PUSH1 0x80 DUP3 ADD MLOAD PUSH2 0x1714 PUSH1 0x80 DUP6 ADD DUP3 PUSH2 0x16A5 JUMP JUMPDEST POP POP POP POP JUMP JUMPDEST PUSH0 PUSH1 0xA0 DUP3 ADD SWAP1 POP PUSH2 0x172D PUSH0 DUP4 ADD DUP5 PUSH2 0x16B4 JUMP JUMPDEST SWAP3 SWAP2 POP POP JUMP JUMPDEST PUSH0 DUP3 DUP3 MSTORE PUSH1 0x20 DUP3 ADD SWAP1 POP SWAP3 SWAP2 POP POP JUMP JUMPDEST PUSH32 0x43616C6C6572206973206E6F7420617574686F72697A65640000000000000000 PUSH0 DUP3 ADD MSTORE POP JUMP JUMPDEST PUSH0 PUSH2 0x1777 PUSH1 0x18 DUP4 PUSH2 0x1733 JUMP JUMPDEST SWAP2 POP PUSH2 0x1782 DUP3 PUSH2 0x1743 JUMP JUMPDEST PUSH1 0x20 DUP3 ADD SWAP1 POP SWAP2 SWAP1 POP JUMP JUMPDEST PUSH0 PUSH1 0x20 DUP3 ADD SWAP1 POP DUP2 DUP2 SUB PUSH0 DUP4 ADD MSTORE PUSH2 0x17A4 DUP2 PUSH2 0x176B JUMP JUMPDEST SWAP1 POP SWAP2 SWAP1 POP JUMP JUMPDEST PUSH0 PUSH1 0x40 DUP3 ADD SWAP1 POP PUSH2 0x17BE PUSH0 DUP4 ADD DUP6 PUSH2 0x1580 JUMP JUMPDEST PUSH2 0x17CB PUSH1 0x20 DUP4 ADD DUP5 PUSH2 0x1580 JUMP JUMPDEST SWAP4 SWAP3 POP POP POP JUMP JUMPDEST PUSH0 DUP2 MLOAD SWAP1 POP PUSH2 0x17E0 DUP2 PUSH2 0x1518 JUMP JUMPDEST SWAP3 SWAP2 POP POP JUMP JUMPDEST PUSH0 PUSH1 0x20 DUP3 DUP5 SUB SLT ISZERO PUSH2 0x17FB JUMPI PUSH2 0x17FA PUSH2 0x14B1 JUMP JUMPDEST JUMPDEST PUSH0 PUSH2 0x1808 DUP5 DUP3 DUP6 ADD PUSH2 0x17D2 JUMP JUMPDEST SWAP2 POP POP SWAP3 SWAP2 POP POP JUMP JUMPDEST PUSH2 0x181A DUP2 PUSH2 0x150F JUMP JUMPDEST DUP3 MSTORE POP POP JUMP JUMPDEST PUSH0 PUSH1 0x60 DUP3 ADD SWAP1 POP PUSH2 0x1833 PUSH0 DUP4 ADD DUP7 PUSH2 0x1580 JUMP JUMPDEST PUSH2 0x1840 PUSH1 0x20 DUP4 ADD DUP6 PUSH2 0x1580 JUMP JUMPDEST PUSH2 0x184D PUSH1 0x40 DUP4 ADD DUP5 PUSH2 0x1811 JUMP JUMPDEST SWAP5 SWAP4 POP POP POP POP JUMP JUMPDEST PUSH2 0x185E DUP2 PUSH2 0x147E JUMP JUMPDEST DUP2 EQ PUSH2 0x1868 JUMPI PUSH0 DUP1 REVERT JUMPDEST POP JUMP JUMPDEST PUSH0 DUP2 MLOAD SWAP1 POP PUSH2 0x1879 DUP2 PUSH2 0x1855 JUMP JUMPDEST SWAP3 SWAP2 POP POP JUMP JUMPDEST PUSH0 PUSH1 0x20 DUP3 DUP5 SUB SLT ISZERO PUSH2 0x1894 JUMPI PUSH2 0x1893 PUSH2 0x14B1 JUMP JUMPDEST JUMPDEST PUSH0 PUSH2 0x18A1 DUP5 DUP3 DUP6 ADD PUSH2 0x186B JUMP JUMPDEST SWAP2 POP POP SWAP3 SWAP2 POP POP JUMP JUMPDEST PUSH32 0x546F6B656E207472616E7366657220746F2065786368616E6765206661696C65 PUSH0 DUP3 ADD MSTORE PUSH32 0x6400000000000000000000000000000000000000000000000000000000000000 PUSH1 0x20 DUP3 ADD MSTORE POP JUMP JUMPDEST PUSH0 PUSH2 0x1904 PUSH1 0x21 DUP4 PUSH2 0x1733 JUMP JUMPDEST SWAP2 POP PUSH2 0x190F DUP3 PUSH2 0x18AA JUMP JUMPDEST PUSH1 0x40 DUP3 ADD SWAP1 POP SWAP2 SWAP1 POP JUMP JUMPDEST PUSH0 PUSH1 0x20 DUP3 ADD SWAP1 POP DUP2 DUP2 SUB PUSH0 DUP4 ADD MSTORE PUSH2 0x1931 DUP2 PUSH2 0x18F8 JUMP JUMPDEST SWAP1 POP SWAP2 SWAP1 POP JUMP JUMPDEST PUSH32 0x4E487B7100000000000000000000000000000000000000000000000000000000 PUSH0 MSTORE PUSH1 0x11 PUSH1 0x4 MSTORE PUSH1 0x24 PUSH0 REVERT JUMPDEST PUSH0 PUSH2 0x196F DUP3 PUSH2 0x150F JUMP JUMPDEST SWAP2 POP PUSH2 0x197A DUP4 PUSH2 0x150F JUMP JUMPDEST SWAP3 POP DUP3 DUP3 MUL PUSH2 0x1988 DUP2 PUSH2 0x150F JUMP JUMPDEST SWAP2 POP DUP3 DUP3 DIV DUP5 EQ DUP4 ISZERO OR PUSH2 0x199F JUMPI PUSH2 0x199E PUSH2 0x1938 JUMP JUMPDEST JUMPDEST POP SWAP3 SWAP2 POP POP JUMP JUMPDEST PUSH32 0x5472616E7366657220746F20746865207A65726F206164647265737320697320 PUSH0 DUP3 ADD MSTORE PUSH32 0x6E6F7420616C6C6F776564000000000000000000000000000000000000000000 PUSH1 0x20 DUP3 ADD MSTORE POP JUMP JUMPDEST PUSH0 PUSH2 0x1A00 PUSH1 0x2B DUP4 PUSH2 0x1733 JUMP JUMPDEST SWAP2 POP PUSH2 0x1A0B DUP3 PUSH2 0x19A6 JUMP JUMPDEST PUSH1 0x40 DUP3 ADD SWAP1 POP SWAP2 SWAP1 POP JUMP JUMPDEST PUSH0 PUSH1 0x20 DUP3 ADD SWAP1 POP DUP2 DUP2 SUB PUSH0 DUP4 ADD MSTORE PUSH2 0x1A2D DUP2 PUSH2 0x19F4 JUMP JUMPDEST SWAP1 POP SWAP2 SWAP1 POP JUMP JUMPDEST PUSH0 PUSH2 0x1A3E DUP3 PUSH2 0x150F JUMP JUMPDEST SWAP2 POP PUSH2 0x1A49 DUP4 PUSH2 0x150F JUMP JUMPDEST SWAP3 POP DUP3 DUP3 SUB SWAP1 POP DUP2 DUP2 GT ISZERO PUSH2 0x1A61 JUMPI PUSH2 0x1A60 PUSH2 0x1938 JUMP JUMPDEST JUMPDEST SWAP3 SWAP2 POP POP JUMP JUMPDEST PUSH32 0x4E487B7100000000000000000000000000000000000000000000000000000000 PUSH0 MSTORE PUSH1 0x32 PUSH1 0x4 MSTORE PUSH1 0x24 PUSH0 REVERT JUMPDEST PUSH0 PUSH2 0x1A9E DUP3 PUSH2 0x150F JUMP JUMPDEST SWAP2 POP PUSH0 DUP3 SUB PUSH2 0x1AB0 JUMPI PUSH2 0x1AAF PUSH2 0x1938 JUMP JUMPDEST JUMPDEST PUSH1 0x1 DUP3 SUB SWAP1 POP SWAP2 SWAP1 POP JUMP JUMPDEST PUSH0 PUSH1 0x40 DUP3 ADD SWAP1 POP PUSH2 0x1ACE PUSH0 DUP4 ADD DUP6 PUSH2 0x1580 JUMP JUMPDEST PUSH2 0x1ADB PUSH1 0x20 DUP4 ADD DUP5 PUSH2 0x1811 JUMP JUMPDEST SWAP4 SWAP3 POP POP POP JUMP JUMPDEST PUSH32 0x546F6B656E207472616E7366657220746F206275796572206661696C65640000 PUSH0 DUP3 ADD MSTORE POP JUMP JUMPDEST PUSH0 PUSH2 0x1B16 PUSH1 0x1E DUP4 PUSH2 0x1733 JUMP JUMPDEST SWAP2 POP PUSH2 0x1B21 DUP3 PUSH2 0x1AE2 JUMP JUMPDEST PUSH1 0x20 DUP3 ADD SWAP1 POP SWAP2 SWAP1 POP JUMP JUMPDEST PUSH0 PUSH1 0x20 DUP3 ADD SWAP1 POP DUP2 DUP2 SUB PUSH0 DUP4 ADD MSTORE PUSH2 0x1B43 DUP2 PUSH2 0x1B0A JUMP JUMPDEST SWAP1 POP SWAP2 SWAP1 POP JUMP JUMPDEST PUSH0 DUP2 SWAP1 POP SWAP3 SWAP2 POP POP JUMP JUMPDEST POP JUMP JUMPDEST PUSH0 PUSH2 0x1B62 PUSH0 DUP4 PUSH2 0x1B4A JUMP JUMPDEST SWAP2 POP PUSH2 0x1B6D DUP3 PUSH2 0x1B54 JUMP JUMPDEST PUSH0 DUP3 ADD SWAP1 POP SWAP2 SWAP1 POP JUMP JUMPDEST PUSH0 PUSH2 0x1B81 DUP3 PUSH2 0x1B57 JUMP JUMPDEST SWAP2 POP DUP2 SWAP1 POP SWAP2 SWAP1 POP JUMP JUMPDEST PUSH32 0x4661696C656420746F2073656E64204574686572000000000000000000000000 PUSH0 DUP3 ADD MSTORE POP JUMP JUMPDEST PUSH0 PUSH2 0x1BBF PUSH1 0x14 DUP4 PUSH2 0x1733 JUMP JUMPDEST SWAP2 POP PUSH2 0x1BCA DUP3 PUSH2 0x1B8B JUMP JUMPDEST PUSH1 0x20 DUP3 ADD SWAP1 POP SWAP2 SWAP1 POP JUMP JUMPDEST PUSH0 PUSH1 0x20 DUP3 ADD SWAP1 POP DUP2 DUP2 SUB PUSH0 DUP4 ADD MSTORE PUSH2 0x1BEC DUP2 PUSH2 0x1BB3 JUMP JUMPDEST SWAP1 POP SWAP2 SWAP1 POP JUMP JUMPDEST PUSH0 PUSH2 0x1BFD DUP3 PUSH2 0x150F JUMP JUMPDEST SWAP2 POP PUSH2 0x1C08 DUP4 PUSH2 0x150F JUMP JUMPDEST SWAP3 POP DUP3 DUP3 ADD SWAP1 POP DUP1 DUP3 GT ISZERO PUSH2 0x1C20 JUMPI PUSH2 0x1C1F PUSH2 0x1938 JUMP JUMPDEST JUMPDEST SWAP3 SWAP2 POP POP JUMP JUMPDEST PUSH32 0x4E487B7100000000000000000000000000000000000000000000000000000000 PUSH0 MSTORE PUSH1 0x31 PUSH1 0x4 MSTORE PUSH1 0x24 PUSH0 REVERT INVALID LOG2 PUSH5 0x6970667358 0x22 SLT KECCAK256 0xE7 0xDF BLOBBASEFEE 0xD5 PUSH24 0x33ABC4DE6488823E0F6F072C732D821CEE9F237D22597DA9 NUMBER SELFDESTRUCT EXTCODESIZE PUSH5 0x736F6C6343 STOP ADDMOD NOT STOP CALLER "
				},
				"gasEstimates": {
					"creation": {
						"codeDepositCost": "1461000",
						"executionCost": "infinite",
						"totalCost": "infinite"
					},
					"external": {
						"buyRequest(address,uint256,uint256)": "infinite",
						"buyRequestants(address,uint256)": "infinite",
						"claimTokenOwnership()": "56472",
						"contractOwner()": "2593",
						"nextContractOwner()": "2574",
						"sellRequest(address,uint256,uint256)": "infinite",
						"sellRequestants(address,uint256)": "infinite",
						"transferContractOwnership(address)": "32960",
						"users(address)": "infinite"
					},
					"internal": {
						"addRequest(address,uint256,uint256,enum exchange.RequestTypes)": "139518",
						"executeRequests(address,address,uint256,enum exchange.RequestTypes,uint256)": "infinite",
						"matchRequests(address,uint256,uint256,enum exchange.RequestTypes)": "infinite",
						"removeRequest(address,struct exchange.UserRequest storage pointer,uint256)": "infinite",
						"sendEther(address payable,uint256)": "infinite"
					}
				},
				"methodIdentifiers": {
					"buyRequest(address,uint256,uint256)": "a760e06a",
					"buyRequestants(address,uint256)": "1fb64da0",
					"claimTokenOwnership()": "10731a65",
					"contractOwner()": "ce606ee0",
					"nextContractOwner()": "c2eb05ba",
					"sellRequest(address,uint256,uint256)": "73b298e2",
					"sellRequestants(address,uint256)": "83588b99",
					"transferContractOwnership(address)": "a843c51f",
					"users(address)": "a87430ba"
				}
			},
			"storageLayout": {
				"storage": [
					{
						"astId": 57,
						"contract": "src/exchange.sol:exchange",
						"label": "contractOwner",
						"offset": 0,
						"slot": "0",
						"type": "t_address"
					},
					{
						"astId": 59,
						"contract": "src/exchange.sol:exchange",
						"label": "nextContractOwner",
						"offset": 0,
						"slot": "1",
						"type": "t_address"
					},
					{
						"astId": 74,
						"contract": "src/exchange.sol:exchange",
						"label": "users",
						"offset": 0,
						"slot": "2",
						"type": "t_mapping(t_address,t_struct(User)104_storage)"
					},
					{
						"astId": 79,
						"contract": "src/exchange.sol:exchange",
						"label": "sellRequestants",
						"offset": 0,
						"slot": "3",
						"type": "t_mapping(t_address,t_array(t_address)dyn_storage)"
					},
					{
						"astId": 84,
						"contract": "src/exchange.sol:exchange",
						"label": "buyRequestants",
						"offset": 0,
						"slot": "4",
						"type": "t_mapping(t_address,t_array(t_address)dyn_storage)"
					}
				],
				"types": {
					"t_address": {
						"encoding": "inplace",
						"label": "address",
						"numberOfBytes": "20"
					},
					"t_array(t_address)dyn_storage": {
						"base": "t_address",
						"encoding": "dynamic_array",
						"label": "address[]",
						"numberOfBytes": "32"
					},
					"t_enum(RequestTypes)88": {
						"encoding": "inplace",
						"label": "enum exchange.RequestTypes",
						"numberOfBytes": "1"
					},
					"t_mapping(t_address,t_array(t_address)dyn_storage)": {
						"encoding": "mapping",
						"key": "t_address",
						"label": "mapping(address => address[])",
						"numberOfBytes": "32",
						"value": "t_array(t_address)dyn_storage"
					},
					"t_mapping(t_address,t_struct(User)104_storage)": {
						"encoding": "mapping",
						"key": "t_address",
						"label": "mapping(address => struct exchange.User)",
						"numberOfBytes": "32",
						"value": "t_struct(User)104_storage"
					},
					"t_struct(User)104_storage": {
						"encoding": "inplace",
						"label": "struct exchange.User",
						"members": [
							{
								"astId": 103,
								"contract": "src/exchange.sol:exchange",
								"label": "Request",
								"offset": 0,
								"slot": "0",
								"type": "t_struct(UserRequest)100_storage"
							}
						],
						"numberOfBytes": "160"
					},
					"t_struct(UserRequest)100_storage": {
						"encoding": "inplace",
						"label": "struct exchange.UserRequest",
						"members": [
							{
								"astId": 90,
								"contract": "src/exchange.sol:exchange",
								"label": "tokenAddress",
								"offset": 0,
								"slot": "0",
								"type": "t_address"
							},
							{
								"astId": 92,
								"contract": "src/exchange.sol:exchange",
								"label": "amount",
								"offset": 0,
								"slot": "1",
								"type": "t_uint256"
							},
							{
								"astId": 94,
								"contract": "src/exchange.sol:exchange",
								"label": "coinPrice",
								"offset": 0,
								"slot": "2",
								"type": "t_uint256"
							},
							{
								"astId": 96,
								"contract": "src/exchange.sol:exchange",
								"label": "time",
								"offset": 0,
								"slot": "3",
								"type": "t_uint256"
							},
							{
								"astId": 99,
								"contract": "src/exchange.sol:exchange",
								"label": "Type",
								"offset": 0,
								"slot": "4",
								"type": "t_enum(RequestTypes)88"
							}
						],
						"numberOfBytes": "160"
					},
					"t_uint256": {
						"encoding": "inplace",
						"label": "uint256",
						"numberOfBytes": "32"
					}
				}
			},
			"userdoc": {
				"kind": "user",
				"methods": {},
				"version": 1
			}
		}
	}
}