{
	"src/Exchange.sol": {
		"Exchange": {
			"abi": [
				{
					"inputs": [
						{
							"internalType": "address",
							"name": "_owner",
							"type": "address"
						}
					],
					"stateMutability": "nonpayable",
					"type": "constructor"
				},
				{
					"anonymous": false,
					"inputs": [
						{
							"indexed": true,
							"internalType": "address",
							"name": "newContractOwner",
							"type": "address"
						}
					],
					"name": "ContractOwnershipTransferFinished",
					"type": "event"
				},
				{
					"anonymous": false,
					"inputs": [
						{
							"indexed": true,
							"internalType": "address",
							"name": "from",
							"type": "address"
						},
						{
							"indexed": true,
							"internalType": "address",
							"name": "to",
							"type": "address"
						}
					],
					"name": "InitiatedOwnershipTransfer",
					"type": "event"
				},
				{
					"anonymous": false,
					"inputs": [
						{
							"indexed": true,
							"internalType": "address",
							"name": "tokenAddress",
							"type": "address"
						},
						{
							"indexed": true,
							"internalType": "address",
							"name": "requestor",
							"type": "address"
						},
						{
							"indexed": false,
							"internalType": "enum Exchange.RequestTypes",
							"name": "Type",
							"type": "uint8"
						},
						{
							"indexed": false,
							"internalType": "uint256",
							"name": "amount",
							"type": "uint256"
						},
						{
							"indexed": false,
							"internalType": "uint256",
							"name": "tokenPrice",
							"type": "uint256"
						}
					],
					"name": "RequestCreated",
					"type": "event"
				},
				{
					"anonymous": false,
					"inputs": [
						{
							"indexed": true,
							"internalType": "address",
							"name": "tokenAddress",
							"type": "address"
						},
						{
							"indexed": true,
							"internalType": "address",
							"name": "requestor",
							"type": "address"
						},
						{
							"indexed": true,
							"internalType": "address",
							"name": "counterparty",
							"type": "address"
						},
						{
							"indexed": false,
							"internalType": "enum Exchange.RequestTypes",
							"name": "Type",
							"type": "uint8"
						},
						{
							"indexed": false,
							"internalType": "uint256",
							"name": "amount",
							"type": "uint256"
						},
						{
							"indexed": false,
							"internalType": "uint256",
							"name": "tokenPrice",
							"type": "uint256"
						}
					],
					"name": "RequestExecuted",
					"type": "event"
				},
				{
					"inputs": [
						{
							"internalType": "address",
							"name": "",
							"type": "address"
						}
					],
					"name": "Requests",
					"outputs": [
						{
							"internalType": "address",
							"name": "tokenAddress",
							"type": "address"
						},
						{
							"internalType": "uint256",
							"name": "index",
							"type": "uint256"
						},
						{
							"internalType": "uint256",
							"name": "amount",
							"type": "uint256"
						},
						{
							"internalType": "uint256",
							"name": "tokenPrice",
							"type": "uint256"
						},
						{
							"internalType": "enum Exchange.RequestTypes",
							"name": "TYPE",
							"type": "uint8"
						}
					],
					"stateMutability": "view",
					"type": "function"
				},
				{
					"inputs": [
						{
							"internalType": "address",
							"name": "coinAddress",
							"type": "address"
						},
						{
							"internalType": "uint256",
							"name": "amount",
							"type": "uint256"
						},
						{
							"internalType": "uint256",
							"name": "coinPrice",
							"type": "uint256"
						}
					],
					"name": "buyRequest",
					"outputs": [],
					"stateMutability": "payable",
					"type": "function"
				},
				{
					"inputs": [
						{
							"internalType": "address",
							"name": "",
							"type": "address"
						},
						{
							"internalType": "uint256",
							"name": "",
							"type": "uint256"
						}
					],
					"name": "buyRequestants",
					"outputs": [
						{
							"internalType": "address",
							"name": "",
							"type": "address"
						}
					],
					"stateMutability": "view",
					"type": "function"
				},
				{
					"inputs": [],
					"name": "cancelRequest",
					"outputs": [],
					"stateMutability": "nonpayable",
					"type": "function"
				},
				{
					"inputs": [],
					"name": "claimTokenOwnership",
					"outputs": [
						{
							"internalType": "bool",
							"name": "",
							"type": "bool"
						}
					],
					"stateMutability": "nonpayable",
					"type": "function"
				},
				{
					"inputs": [],
					"name": "contractOwner",
					"outputs": [
						{
							"internalType": "address",
							"name": "",
							"type": "address"
						}
					],
					"stateMutability": "view",
					"type": "function"
				},
				{
					"inputs": [
						{
							"internalType": "address",
							"name": "_nextContractOwner",
							"type": "address"
						}
					],
					"name": "initiateOwnershipTransfer",
					"outputs": [
						{
							"internalType": "bool",
							"name": "",
							"type": "bool"
						}
					],
					"stateMutability": "nonpayable",
					"type": "function"
				},
				{
					"inputs": [],
					"name": "nextContractOwner",
					"outputs": [
						{
							"internalType": "address",
							"name": "",
							"type": "address"
						}
					],
					"stateMutability": "view",
					"type": "function"
				},
				{
					"inputs": [
						{
							"internalType": "address",
							"name": "tokenAddress",
							"type": "address"
						},
						{
							"internalType": "uint256",
							"name": "amount",
							"type": "uint256"
						},
						{
							"internalType": "uint256",
							"name": "coinPrice",
							"type": "uint256"
						}
					],
					"name": "sellRequest",
					"outputs": [],
					"stateMutability": "nonpayable",
					"type": "function"
				},
				{
					"inputs": [
						{
							"internalType": "address",
							"name": "",
							"type": "address"
						},
						{
							"internalType": "uint256",
							"name": "",
							"type": "uint256"
						}
					],
					"name": "sellRequestants",
					"outputs": [
						{
							"internalType": "address",
							"name": "",
							"type": "address"
						}
					],
					"stateMutability": "view",
					"type": "function"
				}
			],
			"devdoc": {
				"kind": "dev",
				"methods": {},
				"version": 1
			},
			"evm": {
				"assembly": "    /* \"src/Exchange.sol\":226:9526  contract Exchange{... */\n  mstore(0x40, 0x80)\n    /* \"src/Exchange.sol\":2853:2921  constructor(address _owner){... */\n  callvalue\n  dup1\n  iszero\n  tag_1\n  jumpi\n  0x00\n  dup1\n  revert\ntag_1:\n  pop\n  mload(0x40)\n  sub(codesize, bytecodeSize)\n  dup1\n  bytecodeSize\n  dup4\n  codecopy\n  dup2\n  dup2\n  add\n  0x40\n  mstore\n  dup2\n  add\n  swap1\n  tag_2\n  swap2\n  swap1\n  tag_3\n  jump\t// in\ntag_2:\n    /* \"src/Exchange.sol\":2907:2913  _owner */\n  dup1\n    /* \"src/Exchange.sol\":2891:2904  contractOwner */\n  0x00\n  dup1\n    /* \"src/Exchange.sol\":2891:2913  contractOwner = _owner */\n  0x0100\n  exp\n  dup2\n  sload\n  dup2\n  0xffffffffffffffffffffffffffffffffffffffff\n  mul\n  not\n  and\n  swap1\n  dup4\n  0xffffffffffffffffffffffffffffffffffffffff\n  and\n  mul\n  or\n  swap1\n  sstore\n  pop\n    /* \"src/Exchange.sol\":2853:2921  constructor(address _owner){... */\n  pop\n    /* \"src/Exchange.sol\":226:9526  contract Exchange{... */\n  jump(tag_6)\n    /* \"#utility.yul\":88:205   */\ntag_8:\n    /* \"#utility.yul\":197:198   */\n  0x00\n    /* \"#utility.yul\":194:195   */\n  dup1\n    /* \"#utility.yul\":187:199   */\n  revert\n    /* \"#utility.yul\":334:460   */\ntag_10:\n    /* \"#utility.yul\":371:378   */\n  0x00\n    /* \"#utility.yul\":411:453   */\n  0xffffffffffffffffffffffffffffffffffffffff\n    /* \"#utility.yul\":404:409   */\n  dup3\n    /* \"#utility.yul\":400:454   */\n  and\n    /* \"#utility.yul\":389:454   */\n  swap1\n  pop\n    /* \"#utility.yul\":334:460   */\n  swap2\n  swap1\n  pop\n  jump\t// out\n    /* \"#utility.yul\":466:562   */\ntag_11:\n    /* \"#utility.yul\":503:510   */\n  0x00\n    /* \"#utility.yul\":532:556   */\n  tag_20\n    /* \"#utility.yul\":550:555   */\n  dup3\n    /* \"#utility.yul\":532:556   */\n  tag_10\n  jump\t// in\ntag_20:\n    /* \"#utility.yul\":521:556   */\n  swap1\n  pop\n    /* \"#utility.yul\":466:562   */\n  swap2\n  swap1\n  pop\n  jump\t// out\n    /* \"#utility.yul\":568:690   */\ntag_12:\n    /* \"#utility.yul\":641:665   */\n  tag_22\n    /* \"#utility.yul\":659:664   */\n  dup2\n    /* \"#utility.yul\":641:665   */\n  tag_11\n  jump\t// in\ntag_22:\n    /* \"#utility.yul\":634:639   */\n  dup2\n    /* \"#utility.yul\":631:666   */\n  eq\n    /* \"#utility.yul\":621:684   */\n  tag_23\n  jumpi\n    /* \"#utility.yul\":680:681   */\n  0x00\n    /* \"#utility.yul\":677:678   */\n  dup1\n    /* \"#utility.yul\":670:682   */\n  revert\n    /* \"#utility.yul\":621:684   */\ntag_23:\n    /* \"#utility.yul\":568:690   */\n  pop\n  jump\t// out\n    /* \"#utility.yul\":696:839   */\ntag_13:\n    /* \"#utility.yul\":753:758   */\n  0x00\n    /* \"#utility.yul\":784:790   */\n  dup2\n    /* \"#utility.yul\":778:791   */\n  mload\n    /* \"#utility.yul\":769:791   */\n  swap1\n  pop\n    /* \"#utility.yul\":800:833   */\n  tag_25\n    /* \"#utility.yul\":827:832   */\n  dup2\n    /* \"#utility.yul\":800:833   */\n  tag_12\n  jump\t// in\ntag_25:\n    /* \"#utility.yul\":696:839   */\n  swap3\n  swap2\n  pop\n  pop\n  jump\t// out\n    /* \"#utility.yul\":845:1196   */\ntag_3:\n    /* \"#utility.yul\":915:921   */\n  0x00\n    /* \"#utility.yul\":964:966   */\n  0x20\n    /* \"#utility.yul\":952:961   */\n  dup3\n    /* \"#utility.yul\":943:950   */\n  dup5\n    /* \"#utility.yul\":939:962   */\n  sub\n    /* \"#utility.yul\":935:967   */\n  slt\n    /* \"#utility.yul\":932:1051   */\n  iszero\n  tag_27\n  jumpi\n    /* \"#utility.yul\":970:1049   */\n  tag_28\n  tag_8\n  jump\t// in\ntag_28:\n    /* \"#utility.yul\":932:1051   */\ntag_27:\n    /* \"#utility.yul\":1090:1091   */\n  0x00\n    /* \"#utility.yul\":1115:1179   */\n  tag_29\n    /* \"#utility.yul\":1171:1178   */\n  dup5\n    /* \"#utility.yul\":1162:1168   */\n  dup3\n    /* \"#utility.yul\":1151:1160   */\n  dup6\n    /* \"#utility.yul\":1147:1169   */\n  add\n    /* \"#utility.yul\":1115:1179   */\n  tag_13\n  jump\t// in\ntag_29:\n    /* \"#utility.yul\":1105:1179   */\n  swap2\n  pop\n    /* \"#utility.yul\":1061:1189   */\n  pop\n    /* \"#utility.yul\":845:1196   */\n  swap3\n  swap2\n  pop\n  pop\n  jump\t// out\n    /* \"src/Exchange.sol\":226:9526  contract Exchange{... */\ntag_6:\n  dataSize(sub_0)\n  dup1\n  dataOffset(sub_0)\n  0x00\n  codecopy\n  0x00\n  return\nstop\n\nsub_0: assembly {\n        /* \"src/Exchange.sol\":226:9526  contract Exchange{... */\n      mstore(0x40, 0x80)\n      jumpi(tag_1, lt(calldatasize, 0x04))\n      shr(0xe0, calldataload(0x00))\n      dup1\n      0x851b16f5\n      gt\n      tag_12\n      jumpi\n      dup1\n      0x851b16f5\n      eq\n      tag_7\n      jumpi\n      dup1\n      0xa760e06a\n      eq\n      tag_8\n      jumpi\n      dup1\n      0xc0b6f561\n      eq\n      tag_9\n      jumpi\n      dup1\n      0xc2eb05ba\n      eq\n      tag_10\n      jumpi\n      dup1\n      0xce606ee0\n      eq\n      tag_11\n      jumpi\n      jump(tag_1)\n    tag_12:\n      dup1\n      0x10731a65\n      eq\n      tag_2\n      jumpi\n      dup1\n      0x1a4b3311\n      eq\n      tag_3\n      jumpi\n      dup1\n      0x1fb64da0\n      eq\n      tag_4\n      jumpi\n      dup1\n      0x73b298e2\n      eq\n      tag_5\n      jumpi\n      dup1\n      0x83588b99\n      eq\n      tag_6\n      jumpi\n    tag_1:\n      0x00\n      dup1\n      revert\n        /* \"src/Exchange.sol\":3460:3747  function claimTokenOwnership() external ... */\n    tag_2:\n      callvalue\n      dup1\n      iszero\n      tag_13\n      jumpi\n      0x00\n      dup1\n      revert\n    tag_13:\n      pop\n      tag_14\n      tag_15\n      jump\t// in\n    tag_14:\n      mload(0x40)\n      tag_16\n      swap2\n      swap1\n      tag_17\n      jump\t// in\n    tag_16:\n      mload(0x40)\n      dup1\n      swap2\n      sub\n      swap1\n      return\n        /* \"src/Exchange.sol\":474:521  mapping(address => UserRequest) public Requests */\n    tag_3:\n      callvalue\n      dup1\n      iszero\n      tag_18\n      jumpi\n      0x00\n      dup1\n      revert\n    tag_18:\n      pop\n      tag_19\n      0x04\n      dup1\n      calldatasize\n      sub\n      dup2\n      add\n      swap1\n      tag_20\n      swap2\n      swap1\n      tag_21\n      jump\t// in\n    tag_20:\n      tag_22\n      jump\t// in\n    tag_19:\n      mload(0x40)\n      tag_23\n      swap6\n      swap5\n      swap4\n      swap3\n      swap2\n      swap1\n      tag_24\n      jump\t// in\n    tag_23:\n      mload(0x40)\n      dup1\n      swap2\n      sub\n      swap1\n      return\n        /* \"src/Exchange.sol\":686:737  mapping(address => address[]) public buyRequestants */\n    tag_4:\n      callvalue\n      dup1\n      iszero\n      tag_25\n      jumpi\n      0x00\n      dup1\n      revert\n    tag_25:\n      pop\n      tag_26\n      0x04\n      dup1\n      calldatasize\n      sub\n      dup2\n      add\n      swap1\n      tag_27\n      swap2\n      swap1\n      tag_28\n      jump\t// in\n    tag_27:\n      tag_29\n      jump\t// in\n    tag_26:\n      mload(0x40)\n      tag_30\n      swap2\n      swap1\n      tag_31\n      jump\t// in\n    tag_30:\n      mload(0x40)\n      dup1\n      swap2\n      sub\n      swap1\n      return\n        /* \"src/Exchange.sol\":3815:4368  function sellRequest(address tokenAddress, uint256 amount, uint256 coinPrice) external ... */\n    tag_5:\n      callvalue\n      dup1\n      iszero\n      tag_32\n      jumpi\n      0x00\n      dup1\n      revert\n    tag_32:\n      pop\n      tag_33\n      0x04\n      dup1\n      calldatasize\n      sub\n      dup2\n      add\n      swap1\n      tag_34\n      swap2\n      swap1\n      tag_35\n      jump\t// in\n    tag_34:\n      tag_36\n      jump\t// in\n    tag_33:\n      stop\n        /* \"src/Exchange.sol\":627:679  mapping(address => address[]) public sellRequestants */\n    tag_6:\n      callvalue\n      dup1\n      iszero\n      tag_37\n      jumpi\n      0x00\n      dup1\n      revert\n    tag_37:\n      pop\n      tag_38\n      0x04\n      dup1\n      calldatasize\n      sub\n      dup2\n      add\n      swap1\n      tag_39\n      swap2\n      swap1\n      tag_28\n      jump\t// in\n    tag_39:\n      tag_40\n      jump\t// in\n    tag_38:\n      mload(0x40)\n      tag_41\n      swap2\n      swap1\n      tag_31\n      jump\t// in\n    tag_41:\n      mload(0x40)\n      dup1\n      swap2\n      sub\n      swap1\n      return\n        /* \"src/Exchange.sol\":4854:5321  function cancelRequest() external{... */\n    tag_7:\n      callvalue\n      dup1\n      iszero\n      tag_42\n      jumpi\n      0x00\n      dup1\n      revert\n    tag_42:\n      pop\n      tag_43\n      tag_44\n      jump\t// in\n    tag_43:\n      stop\n        /* \"src/Exchange.sol\":4376:4846  function buyRequest(address coinAddress, uint256 amount, uint256 coinPrice) external payable ... */\n    tag_8:\n      tag_45\n      0x04\n      dup1\n      calldatasize\n      sub\n      dup2\n      add\n      swap1\n      tag_46\n      swap2\n      swap1\n      tag_35\n      jump\t// in\n    tag_46:\n      tag_47\n      jump\t// in\n    tag_45:\n      stop\n        /* \"src/Exchange.sol\":3027:3361  function initiateOwnershipTransfer(address _nextContractOwner) external ... */\n    tag_9:\n      callvalue\n      dup1\n      iszero\n      tag_48\n      jumpi\n      0x00\n      dup1\n      revert\n    tag_48:\n      pop\n      tag_49\n      0x04\n      dup1\n      calldatasize\n      sub\n      dup2\n      add\n      swap1\n      tag_50\n      swap2\n      swap1\n      tag_21\n      jump\t// in\n    tag_50:\n      tag_51\n      jump\t// in\n    tag_49:\n      mload(0x40)\n      tag_52\n      swap2\n      swap1\n      tag_17\n      jump\t// in\n    tag_52:\n      mload(0x40)\n      dup1\n      swap2\n      sub\n      swap1\n      return\n        /* \"src/Exchange.sol\":375:407  address public nextContractOwner */\n    tag_10:\n      callvalue\n      dup1\n      iszero\n      tag_53\n      jumpi\n      0x00\n      dup1\n      revert\n    tag_53:\n      pop\n      tag_54\n      tag_55\n      jump\t// in\n    tag_54:\n      mload(0x40)\n      tag_56\n      swap2\n      swap1\n      tag_31\n      jump\t// in\n    tag_56:\n      mload(0x40)\n      dup1\n      swap2\n      sub\n      swap1\n      return\n        /* \"src/Exchange.sol\":340:368  address public contractOwner */\n    tag_11:\n      callvalue\n      dup1\n      iszero\n      tag_57\n      jumpi\n      0x00\n      dup1\n      revert\n    tag_57:\n      pop\n      tag_58\n      tag_59\n      jump\t// in\n    tag_58:\n      mload(0x40)\n      tag_60\n      swap2\n      swap1\n      tag_31\n      jump\t// in\n    tag_60:\n      mload(0x40)\n      dup1\n      swap2\n      sub\n      swap1\n      return\n        /* \"src/Exchange.sol\":3460:3747  function claimTokenOwnership() external ... */\n    tag_15:\n        /* \"src/Exchange.sol\":3557:3561  bool */\n      0x00\n        /* \"src/Exchange.sol\":3520:3537  nextContractOwner */\n      0x01\n      0x00\n      swap1\n      sload\n      swap1\n      0x0100\n      exp\n      swap1\n      div\n      0xffffffffffffffffffffffffffffffffffffffff\n      and\n        /* \"src/Exchange.sol\":1735:1746  _authorized */\n      dup1\n        /* \"src/Exchange.sol\":1721:1746  msg.sender == _authorized */\n      0xffffffffffffffffffffffffffffffffffffffff\n      and\n        /* \"src/Exchange.sol\":1721:1731  msg.sender */\n      caller\n        /* \"src/Exchange.sol\":1721:1746  msg.sender == _authorized */\n      0xffffffffffffffffffffffffffffffffffffffff\n      and\n      eq\n        /* \"src/Exchange.sol\":1713:1775  require(msg.sender == _authorized, \"Caller is not authorized\") */\n      tag_62\n      jumpi\n      mload(0x40)\n      0x08c379a000000000000000000000000000000000000000000000000000000000\n      dup2\n      mstore\n      0x04\n      add\n      tag_63\n      swap1\n      tag_64\n      jump\t// in\n    tag_63:\n      mload(0x40)\n      dup1\n      swap2\n      sub\n      swap1\n      revert\n    tag_62:\n        /* \"src/Exchange.sol\":3595:3612  nextContractOwner */\n      0x01\n      0x00\n      swap1\n      sload\n      swap1\n      0x0100\n      exp\n      swap1\n      div\n      0xffffffffffffffffffffffffffffffffffffffff\n      and\n        /* \"src/Exchange.sol\":3579:3592  contractOwner */\n      0x00\n      dup1\n        /* \"src/Exchange.sol\":3579:3612  contractOwner = nextContractOwner */\n      0x0100\n      exp\n      dup2\n      sload\n      dup2\n      0xffffffffffffffffffffffffffffffffffffffff\n      mul\n      not\n      and\n      swap1\n      dup4\n      0xffffffffffffffffffffffffffffffffffffffff\n      and\n      mul\n      or\n      swap1\n      sstore\n      pop\n        /* \"src/Exchange.sol\":3651:3652  0 */\n      0x00\n        /* \"src/Exchange.sol\":3623:3640  nextContractOwner */\n      0x01\n      0x00\n        /* \"src/Exchange.sol\":3623:3653  nextContractOwner = address(0) */\n      0x0100\n      exp\n      dup2\n      sload\n      dup2\n      0xffffffffffffffffffffffffffffffffffffffff\n      mul\n      not\n      and\n      swap1\n      dup4\n      0xffffffffffffffffffffffffffffffffffffffff\n      and\n      mul\n      or\n      swap1\n      sstore\n      pop\n        /* \"src/Exchange.sol\":3703:3716  contractOwner */\n      0x00\n      dup1\n      sload\n      swap1\n      0x0100\n      exp\n      swap1\n      div\n      0xffffffffffffffffffffffffffffffffffffffff\n      and\n        /* \"src/Exchange.sol\":3669:3717  ContractOwnershipTransferFinished(contractOwner) */\n      0xffffffffffffffffffffffffffffffffffffffff\n      and\n      0x041e8ee868cb815a7e5cd1a100e6ff024772d79c071718c049ab7d3bc4e1226d\n      mload(0x40)\n      mload(0x40)\n      dup1\n      swap2\n      sub\n      swap1\n      log2\n        /* \"src/Exchange.sol\":3735:3739  true */\n      0x01\n        /* \"src/Exchange.sol\":3728:3739  return true */\n      swap2\n      pop\n        /* \"src/Exchange.sol\":3460:3747  function claimTokenOwnership() external ... */\n      pop\n      swap1\n      jump\t// out\n        /* \"src/Exchange.sol\":474:521  mapping(address => UserRequest) public Requests */\n    tag_22:\n      mstore(0x20, 0x02)\n      dup1\n      0x00\n      mstore\n      keccak256(0x00, 0x40)\n      0x00\n      swap2\n      pop\n      swap1\n      pop\n      dup1\n      0x00\n      add\n      0x00\n      swap1\n      sload\n      swap1\n      0x0100\n      exp\n      swap1\n      div\n      0xffffffffffffffffffffffffffffffffffffffff\n      and\n      swap1\n      dup1\n      0x01\n      add\n      sload\n      swap1\n      dup1\n      0x02\n      add\n      sload\n      swap1\n      dup1\n      0x03\n      add\n      sload\n      swap1\n      dup1\n      0x04\n      add\n      0x00\n      swap1\n      sload\n      swap1\n      0x0100\n      exp\n      swap1\n      div\n      0xff\n      and\n      swap1\n      pop\n      dup6\n      jump\t// out\n        /* \"src/Exchange.sol\":686:737  mapping(address => address[]) public buyRequestants */\n    tag_29:\n      mstore(0x20, 0x04)\n      dup2\n      0x00\n      mstore\n      keccak256(0x00, 0x40)\n      dup2\n      dup2\n      sload\n      dup2\n      lt\n      tag_66\n      jumpi\n      0x00\n      dup1\n      revert\n    tag_66:\n      swap1\n      0x00\n      mstore\n      keccak256(0x00, 0x20)\n      add\n      0x00\n      swap2\n      pop\n      swap2\n      pop\n      swap1\n      sload\n      swap1\n      0x0100\n      exp\n      swap1\n      div\n      0xffffffffffffffffffffffffffffffffffffffff\n      and\n      dup2\n      jump\t// out\n        /* \"src/Exchange.sol\":3815:4368  function sellRequest(address tokenAddress, uint256 amount, uint256 coinPrice) external ... */\n    tag_36:\n        /* \"src/Exchange.sol\":2322:2339  RequestTypes.NONE */\n      0x00\n        /* \"src/Exchange.sol\":2293:2339  Requests[msg.sender].TYPE == RequestTypes.NONE */\n      0x02\n      dup2\n      gt\n      iszero\n      tag_69\n      jumpi\n      tag_70\n      tag_71\n      jump\t// in\n    tag_70:\n    tag_69:\n        /* \"src/Exchange.sol\":2293:2301  Requests */\n      0x02\n        /* \"src/Exchange.sol\":2293:2313  Requests[msg.sender] */\n      0x00\n        /* \"src/Exchange.sol\":2302:2312  msg.sender */\n      caller\n        /* \"src/Exchange.sol\":2293:2313  Requests[msg.sender] */\n      0xffffffffffffffffffffffffffffffffffffffff\n      and\n      0xffffffffffffffffffffffffffffffffffffffff\n      and\n      dup2\n      mstore\n      0x20\n      add\n      swap1\n      dup2\n      mstore\n      0x20\n      add\n      0x00\n      keccak256\n        /* \"src/Exchange.sol\":2293:2318  Requests[msg.sender].TYPE */\n      0x04\n      add\n      0x00\n      swap1\n      sload\n      swap1\n      0x0100\n      exp\n      swap1\n      div\n      0xff\n      and\n        /* \"src/Exchange.sol\":2293:2339  Requests[msg.sender].TYPE == RequestTypes.NONE */\n      0x02\n      dup2\n      gt\n      iszero\n      tag_72\n      jumpi\n      tag_73\n      tag_71\n      jump\t// in\n    tag_73:\n    tag_72:\n      eq\n        /* \"src/Exchange.sol\":2285:2340  require(Requests[msg.sender].TYPE == RequestTypes.NONE) */\n      tag_74\n      jumpi\n      0x00\n      dup1\n      revert\n    tag_74:\n        /* \"src/Exchange.sol\":3953:3959  amount */\n      dup2\n        /* \"src/Exchange.sol\":2582:2583  0 */\n      0x00\n        /* \"src/Exchange.sol\":2571:2578  _amount */\n      dup2\n        /* \"src/Exchange.sol\":2571:2583  _amount != 0 */\n      sub\n        /* \"src/Exchange.sol\":2563:2620  require(_amount != 0, \"Amount must be greater than zero\") */\n      tag_76\n      jumpi\n      mload(0x40)\n      0x08c379a000000000000000000000000000000000000000000000000000000000\n      dup2\n      mstore\n      0x04\n      add\n      tag_77\n      swap1\n      tag_78\n      jump\t// in\n    tag_77:\n      mload(0x40)\n      dup1\n      swap2\n      sub\n      swap1\n      revert\n    tag_76:\n        /* \"src/Exchange.sol\":3983:3992  coinPrice */\n      dup2\n        /* \"src/Exchange.sol\":2714:2715  0 */\n      0x00\n        /* \"src/Exchange.sol\":2703:2710  _amount */\n      dup2\n        /* \"src/Exchange.sol\":2703:2715  _amount != 0 */\n      sub\n        /* \"src/Exchange.sol\":2695:2751  require(_amount != 0, \"Price must be greater than zero\") */\n      tag_80\n      jumpi\n      mload(0x40)\n      0x08c379a000000000000000000000000000000000000000000000000000000000\n      dup2\n      mstore\n      0x04\n      add\n      tag_81\n      swap1\n      tag_82\n      jump\t// in\n    tag_81:\n      mload(0x40)\n      dup1\n      swap2\n      sub\n      swap1\n      revert\n    tag_80:\n        /* \"src/Exchange.sol\":4023:4035  tokenAddress */\n      dup5\n        /* \"src/Exchange.sol\":4037:4043  amount */\n      dup5\n        /* \"src/Exchange.sol\":2050:2057  _amount */\n      dup1\n        /* \"src/Exchange.sol\":1996:2008  tokenAddress */\n      dup3\n        /* \"src/Exchange.sol\":1989:2019  IERC20(tokenAddress).allowance */\n      0xffffffffffffffffffffffffffffffffffffffff\n      and\n      0xdd62ed3e\n        /* \"src/Exchange.sol\":2020:2030  msg.sender */\n      caller\n        /* \"src/Exchange.sol\":2040:2044  this */\n      address\n        /* \"src/Exchange.sol\":1989:2046  IERC20(tokenAddress).allowance(msg.sender, address(this)) */\n      mload(0x40)\n      dup4\n      0xffffffff\n      and\n      0xe0\n      shl\n      dup2\n      mstore\n      0x04\n      add\n      tag_84\n      swap3\n      swap2\n      swap1\n      tag_85\n      jump\t// in\n    tag_84:\n      0x20\n      mload(0x40)\n      dup1\n      dup4\n      sub\n      dup2\n      dup7\n      gas\n      staticcall\n      iszero\n      dup1\n      iszero\n      tag_87\n      jumpi\n      returndatasize\n      0x00\n      dup1\n      returndatacopy\n      revert(0x00, returndatasize)\n    tag_87:\n      pop\n      pop\n      pop\n      pop\n      mload(0x40)\n      returndatasize\n      not(0x1f)\n      0x1f\n      dup3\n      add\n      and\n      dup3\n      add\n      dup1\n      0x40\n      mstore\n      pop\n      dup2\n      add\n      swap1\n      tag_88\n      swap2\n      swap1\n      tag_89\n      jump\t// in\n    tag_88:\n        /* \"src/Exchange.sol\":1989:2057  IERC20(tokenAddress).allowance(msg.sender, address(this)) >= _amount */\n      lt\n      iszero\n        /* \"src/Exchange.sol\":1981:2058  require(IERC20(tokenAddress).allowance(msg.sender, address(this)) >= _amount) */\n      tag_90\n      jumpi\n      0x00\n      dup1\n      revert\n    tag_90:\n        /* \"src/Exchange.sol\":4072:4084  tokenAddress */\n      dup7\n        /* \"src/Exchange.sol\":4086:4092  amount */\n      dup7\n        /* \"src/Exchange.sol\":2213:2220  _amount */\n      dup1\n        /* \"src/Exchange.sol\":2174:2186  tokenAddress */\n      dup3\n        /* \"src/Exchange.sol\":2167:2197  IERC20(tokenAddress).balanceOf */\n      0xffffffffffffffffffffffffffffffffffffffff\n      and\n      0x70a08231\n        /* \"src/Exchange.sol\":2198:2208  msg.sender */\n      caller\n        /* \"src/Exchange.sol\":2167:2209  IERC20(tokenAddress).balanceOf(msg.sender) */\n      mload(0x40)\n      dup3\n      0xffffffff\n      and\n      0xe0\n      shl\n      dup2\n      mstore\n      0x04\n      add\n      tag_92\n      swap2\n      swap1\n      tag_31\n      jump\t// in\n    tag_92:\n      0x20\n      mload(0x40)\n      dup1\n      dup4\n      sub\n      dup2\n      dup7\n      gas\n      staticcall\n      iszero\n      dup1\n      iszero\n      tag_94\n      jumpi\n      returndatasize\n      0x00\n      dup1\n      returndatacopy\n      revert(0x00, returndatasize)\n    tag_94:\n      pop\n      pop\n      pop\n      pop\n      mload(0x40)\n      returndatasize\n      not(0x1f)\n      0x1f\n      dup3\n      add\n      and\n      dup3\n      add\n      dup1\n      0x40\n      mstore\n      pop\n      dup2\n      add\n      swap1\n      tag_95\n      swap2\n      swap1\n      tag_89\n      jump\t// in\n    tag_95:\n        /* \"src/Exchange.sol\":2167:2220  IERC20(tokenAddress).balanceOf(msg.sender) >= _amount */\n      lt\n      iszero\n        /* \"src/Exchange.sol\":2159:2221  require(IERC20(tokenAddress).balanceOf(msg.sender) >= _amount) */\n      tag_96\n      jumpi\n      0x00\n      dup1\n      revert\n    tag_96:\n        /* \"src/Exchange.sol\":4138:4155  RequestTypes.SELL */\n      0x01\n        /* \"src/Exchange.sol\":4110:4118  Requests */\n      0x02\n        /* \"src/Exchange.sol\":4110:4130  Requests[msg.sender] */\n      0x00\n        /* \"src/Exchange.sol\":4119:4129  msg.sender */\n      caller\n        /* \"src/Exchange.sol\":4110:4130  Requests[msg.sender] */\n      0xffffffffffffffffffffffffffffffffffffffff\n      and\n      0xffffffffffffffffffffffffffffffffffffffff\n      and\n      dup2\n      mstore\n      0x20\n      add\n      swap1\n      dup2\n      mstore\n      0x20\n      add\n      0x00\n      keccak256\n        /* \"src/Exchange.sol\":4110:4135  Requests[msg.sender].TYPE */\n      0x04\n      add\n      0x00\n        /* \"src/Exchange.sol\":4110:4155  Requests[msg.sender].TYPE = RequestTypes.SELL */\n      0x0100\n      exp\n      dup2\n      sload\n      dup2\n      0xff\n      mul\n      not\n      and\n      swap1\n      dup4\n      0x02\n      dup2\n      gt\n      iszero\n      tag_98\n      jumpi\n      tag_99\n      tag_71\n      jump\t// in\n    tag_99:\n    tag_98:\n      mul\n      or\n      swap1\n      sstore\n      pop\n        /* \"src/Exchange.sol\":4177:4189  tokenAddress */\n      dup9\n        /* \"src/Exchange.sol\":4170:4203  IERC20(tokenAddress).transferFrom */\n      0xffffffffffffffffffffffffffffffffffffffff\n      and\n      0x23b872dd\n        /* \"src/Exchange.sol\":4204:4214  msg.sender */\n      caller\n        /* \"src/Exchange.sol\":4224:4228  this */\n      address\n        /* \"src/Exchange.sol\":4231:4237  amount */\n      dup12\n        /* \"src/Exchange.sol\":4170:4238  IERC20(tokenAddress).transferFrom(msg.sender, address(this), amount) */\n      mload(0x40)\n      dup5\n      0xffffffff\n      and\n      0xe0\n      shl\n      dup2\n      mstore\n      0x04\n      add\n      tag_100\n      swap4\n      swap3\n      swap2\n      swap1\n      tag_101\n      jump\t// in\n    tag_100:\n      0x20\n      mload(0x40)\n      dup1\n      dup4\n      sub\n      dup2\n      0x00\n      dup8\n      gas\n      call\n      iszero\n      dup1\n      iszero\n      tag_103\n      jumpi\n      returndatasize\n      0x00\n      dup1\n      returndatacopy\n      revert(0x00, returndatasize)\n    tag_103:\n      pop\n      pop\n      pop\n      pop\n      mload(0x40)\n      returndatasize\n      not(0x1f)\n      0x1f\n      dup3\n      add\n      and\n      dup3\n      add\n      dup1\n      0x40\n      mstore\n      pop\n      dup2\n      add\n      swap1\n      tag_104\n      swap2\n      swap1\n      tag_105\n      jump\t// in\n    tag_104:\n        /* \"src/Exchange.sol\":4166:4283  if(!IERC20(tokenAddress).transferFrom(msg.sender, address(this), amount)) revert(\"Token transfer to exchange failed\") */\n      tag_106\n      jumpi\n        /* \"src/Exchange.sol\":4240:4283  revert(\"Token transfer to exchange failed\") */\n      mload(0x40)\n      0x08c379a000000000000000000000000000000000000000000000000000000000\n      dup2\n      mstore\n      0x04\n      add\n      tag_107\n      swap1\n      tag_108\n      jump\t// in\n    tag_107:\n      mload(0x40)\n      dup1\n      swap2\n      sub\n      swap1\n      revert\n        /* \"src/Exchange.sol\":4166:4283  if(!IERC20(tokenAddress).transferFrom(msg.sender, address(this), amount)) revert(\"Token transfer to exchange failed\") */\n    tag_106:\n        /* \"src/Exchange.sol\":4294:4359  matchRequests(tokenAddress, amount, coinPrice, RequestTypes.SELL) */\n      tag_109\n        /* \"src/Exchange.sol\":4308:4320  tokenAddress */\n      dup10\n        /* \"src/Exchange.sol\":4322:4328  amount */\n      dup10\n        /* \"src/Exchange.sol\":4330:4339  coinPrice */\n      dup10\n        /* \"src/Exchange.sol\":4341:4358  RequestTypes.SELL */\n      0x01\n        /* \"src/Exchange.sol\":4294:4307  matchRequests */\n      tag_110\n        /* \"src/Exchange.sol\":4294:4359  matchRequests(tokenAddress, amount, coinPrice, RequestTypes.SELL) */\n      jump\t// in\n    tag_109:\n        /* \"src/Exchange.sol\":2069:2070  _ */\n      pop\n      pop\n        /* \"src/Exchange.sol\":2762:2763  _ */\n      pop\n      pop\n        /* \"src/Exchange.sol\":2631:2632  _ */\n      pop\n        /* \"src/Exchange.sol\":2352:2353  _ */\n      pop\n        /* \"src/Exchange.sol\":3815:4368  function sellRequest(address tokenAddress, uint256 amount, uint256 coinPrice) external ... */\n      pop\n      pop\n      pop\n      jump\t// out\n        /* \"src/Exchange.sol\":627:679  mapping(address => address[]) public sellRequestants */\n    tag_40:\n      mstore(0x20, 0x03)\n      dup2\n      0x00\n      mstore\n      keccak256(0x00, 0x40)\n      dup2\n      dup2\n      sload\n      dup2\n      lt\n      tag_111\n      jumpi\n      0x00\n      dup1\n      revert\n    tag_111:\n      swap1\n      0x00\n      mstore\n      keccak256(0x00, 0x20)\n      add\n      0x00\n      swap2\n      pop\n      swap2\n      pop\n      swap1\n      sload\n      swap1\n      0x0100\n      exp\n      swap1\n      div\n      0xffffffffffffffffffffffffffffffffffffffff\n      and\n      dup2\n      jump\t// out\n        /* \"src/Exchange.sol\":4854:5321  function cancelRequest() external{... */\n    tag_44:\n        /* \"src/Exchange.sol\":4935:4952  RequestTypes.NONE */\n      0x00\n        /* \"src/Exchange.sol\":4906:4952  Requests[msg.sender].TYPE != RequestTypes.NONE */\n      0x02\n      dup2\n      gt\n      iszero\n      tag_114\n      jumpi\n      tag_115\n      tag_71\n      jump\t// in\n    tag_115:\n    tag_114:\n        /* \"src/Exchange.sol\":4906:4914  Requests */\n      0x02\n        /* \"src/Exchange.sol\":4906:4926  Requests[msg.sender] */\n      0x00\n        /* \"src/Exchange.sol\":4915:4925  msg.sender */\n      caller\n        /* \"src/Exchange.sol\":4906:4926  Requests[msg.sender] */\n      0xffffffffffffffffffffffffffffffffffffffff\n      and\n      0xffffffffffffffffffffffffffffffffffffffff\n      and\n      dup2\n      mstore\n      0x20\n      add\n      swap1\n      dup2\n      mstore\n      0x20\n      add\n      0x00\n      keccak256\n        /* \"src/Exchange.sol\":4906:4931  Requests[msg.sender].TYPE */\n      0x04\n      add\n      0x00\n      swap1\n      sload\n      swap1\n      0x0100\n      exp\n      swap1\n      div\n      0xff\n      and\n        /* \"src/Exchange.sol\":4906:4952  Requests[msg.sender].TYPE != RequestTypes.NONE */\n      0x02\n      dup2\n      gt\n      iszero\n      tag_116\n      jumpi\n      tag_117\n      tag_71\n      jump\t// in\n    tag_117:\n    tag_116:\n      sub\n        /* \"src/Exchange.sol\":4898:4977  require(Requests[msg.sender].TYPE != RequestTypes.NONE,\"No requests to cancel\") */\n      tag_118\n      jumpi\n      mload(0x40)\n      0x08c379a000000000000000000000000000000000000000000000000000000000\n      dup2\n      mstore\n      0x04\n      add\n      tag_119\n      swap1\n      tag_120\n      jump\t// in\n    tag_119:\n      mload(0x40)\n      dup1\n      swap2\n      sub\n      swap1\n      revert\n    tag_118:\n        /* \"src/Exchange.sol\":4988:5015  UserRequest memory _Request */\n      0x00\n        /* \"src/Exchange.sol\":5018:5026  Requests */\n      0x02\n        /* \"src/Exchange.sol\":5018:5038  Requests[msg.sender] */\n      0x00\n        /* \"src/Exchange.sol\":5027:5037  msg.sender */\n      caller\n        /* \"src/Exchange.sol\":5018:5038  Requests[msg.sender] */\n      0xffffffffffffffffffffffffffffffffffffffff\n      and\n      0xffffffffffffffffffffffffffffffffffffffff\n      and\n      dup2\n      mstore\n      0x20\n      add\n      swap1\n      dup2\n      mstore\n      0x20\n      add\n      0x00\n      keccak256\n        /* \"src/Exchange.sol\":4988:5038  UserRequest memory _Request = Requests[msg.sender] */\n      mload(0x40)\n      dup1\n      0xa0\n      add\n      0x40\n      mstore\n      swap1\n      dup2\n      0x00\n      dup3\n      add\n      0x00\n      swap1\n      sload\n      swap1\n      0x0100\n      exp\n      swap1\n      div\n      0xffffffffffffffffffffffffffffffffffffffff\n      and\n      0xffffffffffffffffffffffffffffffffffffffff\n      and\n      0xffffffffffffffffffffffffffffffffffffffff\n      and\n      dup2\n      mstore\n      0x20\n      add\n      0x01\n      dup3\n      add\n      sload\n      dup2\n      mstore\n      0x20\n      add\n      0x02\n      dup3\n      add\n      sload\n      dup2\n      mstore\n      0x20\n      add\n      0x03\n      dup3\n      add\n      sload\n      dup2\n      mstore\n      0x20\n      add\n      0x04\n      dup3\n      add\n      0x00\n      swap1\n      sload\n      swap1\n      0x0100\n      exp\n      swap1\n      div\n      0xff\n      and\n      0x02\n      dup2\n      gt\n      iszero\n      tag_121\n      jumpi\n      tag_122\n      tag_71\n      jump\t// in\n    tag_122:\n    tag_121:\n      0x02\n      dup2\n      gt\n      iszero\n      tag_123\n      jumpi\n      tag_124\n      tag_71\n      jump\t// in\n    tag_124:\n    tag_123:\n      dup2\n      mstore\n      pop\n      pop\n      swap1\n      pop\n        /* \"src/Exchange.sol\":5069:5086  RequestTypes.SELL */\n      0x01\n        /* \"src/Exchange.sol\":5052:5086  _Request.TYPE == RequestTypes.SELL */\n      0x02\n      dup2\n      gt\n      iszero\n      tag_125\n      jumpi\n      tag_126\n      tag_71\n      jump\t// in\n    tag_126:\n    tag_125:\n        /* \"src/Exchange.sol\":5052:5060  _Request */\n      dup2\n        /* \"src/Exchange.sol\":5052:5065  _Request.TYPE */\n      0x80\n      add\n      mload\n        /* \"src/Exchange.sol\":5052:5086  _Request.TYPE == RequestTypes.SELL */\n      0x02\n      dup2\n      gt\n      iszero\n      tag_127\n      jumpi\n      tag_128\n      tag_71\n      jump\t// in\n    tag_128:\n    tag_127:\n      sub\n        /* \"src/Exchange.sol\":5049:5278  if(_Request.TYPE == RequestTypes.SELL){... */\n      tag_129\n      jumpi\n        /* \"src/Exchange.sol\":5109:5117  _Request */\n      dup1\n        /* \"src/Exchange.sol\":5109:5130  _Request.tokenAddress */\n      0x00\n      add\n      mload\n        /* \"src/Exchange.sol\":5102:5140  IERC20(_Request.tokenAddress).transfer */\n      0xffffffffffffffffffffffffffffffffffffffff\n      and\n      0xa9059cbb\n        /* \"src/Exchange.sol\":5141:5151  msg.sender */\n      caller\n        /* \"src/Exchange.sol\":5152:5160  _Request */\n      dup4\n        /* \"src/Exchange.sol\":5152:5167  _Request.amount */\n      0x40\n      add\n      mload\n        /* \"src/Exchange.sol\":5102:5168  IERC20(_Request.tokenAddress).transfer(msg.sender,_Request.amount) */\n      mload(0x40)\n      dup4\n      0xffffffff\n      and\n      0xe0\n      shl\n      dup2\n      mstore\n      0x04\n      add\n      tag_130\n      swap3\n      swap2\n      swap1\n      tag_131\n      jump\t// in\n    tag_130:\n      0x20\n      mload(0x40)\n      dup1\n      dup4\n      sub\n      dup2\n      0x00\n      dup8\n      gas\n      call\n      iszero\n      dup1\n      iszero\n      tag_133\n      jumpi\n      returndatasize\n      0x00\n      dup1\n      returndatacopy\n      revert(0x00, returndatasize)\n    tag_133:\n      pop\n      pop\n      pop\n      pop\n      mload(0x40)\n      returndatasize\n      not(0x1f)\n      0x1f\n      dup3\n      add\n      and\n      dup3\n      add\n      dup1\n      0x40\n      mstore\n      pop\n      dup2\n      add\n      swap1\n      tag_134\n      swap2\n      swap1\n      tag_105\n      jump\t// in\n    tag_134:\n      pop\n        /* \"src/Exchange.sol\":5049:5278  if(_Request.TYPE == RequestTypes.SELL){... */\n      jump(tag_135)\n    tag_129:\n        /* \"src/Exchange.sol\":5199:5266  sendEther(payable(msg.sender), _Request.amount*_Request.tokenPrice) */\n      tag_136\n        /* \"src/Exchange.sol\":5217:5227  msg.sender */\n      caller\n        /* \"src/Exchange.sol\":5246:5254  _Request */\n      dup3\n        /* \"src/Exchange.sol\":5246:5265  _Request.tokenPrice */\n      0x60\n      add\n      mload\n        /* \"src/Exchange.sol\":5230:5238  _Request */\n      dup4\n        /* \"src/Exchange.sol\":5230:5245  _Request.amount */\n      0x40\n      add\n      mload\n        /* \"src/Exchange.sol\":5230:5265  _Request.amount*_Request.tokenPrice */\n      tag_137\n      swap2\n      swap1\n      tag_138\n      jump\t// in\n    tag_137:\n        /* \"src/Exchange.sol\":5199:5208  sendEther */\n      tag_139\n        /* \"src/Exchange.sol\":5199:5266  sendEther(payable(msg.sender), _Request.amount*_Request.tokenPrice) */\n      jump\t// in\n    tag_136:\n        /* \"src/Exchange.sol\":5049:5278  if(_Request.TYPE == RequestTypes.SELL){... */\n    tag_135:\n        /* \"src/Exchange.sol\":5288:5313  removeRequest(msg.sender) */\n      tag_140\n        /* \"src/Exchange.sol\":5302:5312  msg.sender */\n      caller\n        /* \"src/Exchange.sol\":5288:5301  removeRequest */\n      tag_141\n        /* \"src/Exchange.sol\":5288:5313  removeRequest(msg.sender) */\n      jump\t// in\n    tag_140:\n        /* \"src/Exchange.sol\":4887:5321  {... */\n      pop\n        /* \"src/Exchange.sol\":4854:5321  function cancelRequest() external{... */\n      jump\t// out\n        /* \"src/Exchange.sol\":4376:4846  function buyRequest(address coinAddress, uint256 amount, uint256 coinPrice) external payable ... */\n    tag_47:\n        /* \"src/Exchange.sol\":2322:2339  RequestTypes.NONE */\n      0x00\n        /* \"src/Exchange.sol\":2293:2339  Requests[msg.sender].TYPE == RequestTypes.NONE */\n      0x02\n      dup2\n      gt\n      iszero\n      tag_143\n      jumpi\n      tag_144\n      tag_71\n      jump\t// in\n    tag_144:\n    tag_143:\n        /* \"src/Exchange.sol\":2293:2301  Requests */\n      0x02\n        /* \"src/Exchange.sol\":2293:2313  Requests[msg.sender] */\n      0x00\n        /* \"src/Exchange.sol\":2302:2312  msg.sender */\n      caller\n        /* \"src/Exchange.sol\":2293:2313  Requests[msg.sender] */\n      0xffffffffffffffffffffffffffffffffffffffff\n      and\n      0xffffffffffffffffffffffffffffffffffffffff\n      and\n      dup2\n      mstore\n      0x20\n      add\n      swap1\n      dup2\n      mstore\n      0x20\n      add\n      0x00\n      keccak256\n        /* \"src/Exchange.sol\":2293:2318  Requests[msg.sender].TYPE */\n      0x04\n      add\n      0x00\n      swap1\n      sload\n      swap1\n      0x0100\n      exp\n      swap1\n      div\n      0xff\n      and\n        /* \"src/Exchange.sol\":2293:2339  Requests[msg.sender].TYPE == RequestTypes.NONE */\n      0x02\n      dup2\n      gt\n      iszero\n      tag_145\n      jumpi\n      tag_146\n      tag_71\n      jump\t// in\n    tag_146:\n    tag_145:\n      eq\n        /* \"src/Exchange.sol\":2285:2340  require(Requests[msg.sender].TYPE == RequestTypes.NONE) */\n      tag_147\n      jumpi\n      0x00\n      dup1\n      revert\n    tag_147:\n        /* \"src/Exchange.sol\":4520:4526  amount */\n      dup2\n        /* \"src/Exchange.sol\":2582:2583  0 */\n      0x00\n        /* \"src/Exchange.sol\":2571:2578  _amount */\n      dup2\n        /* \"src/Exchange.sol\":2571:2583  _amount != 0 */\n      sub\n        /* \"src/Exchange.sol\":2563:2620  require(_amount != 0, \"Amount must be greater than zero\") */\n      tag_149\n      jumpi\n      mload(0x40)\n      0x08c379a000000000000000000000000000000000000000000000000000000000\n      dup2\n      mstore\n      0x04\n      add\n      tag_150\n      swap1\n      tag_78\n      jump\t// in\n    tag_150:\n      mload(0x40)\n      dup1\n      swap2\n      sub\n      swap1\n      revert\n    tag_149:\n        /* \"src/Exchange.sol\":4550:4559  coinPrice */\n      dup2\n        /* \"src/Exchange.sol\":2714:2715  0 */\n      0x00\n        /* \"src/Exchange.sol\":2703:2710  _amount */\n      dup2\n        /* \"src/Exchange.sol\":2703:2715  _amount != 0 */\n      sub\n        /* \"src/Exchange.sol\":2695:2751  require(_amount != 0, \"Price must be greater than zero\") */\n      tag_152\n      jumpi\n      mload(0x40)\n      0x08c379a000000000000000000000000000000000000000000000000000000000\n      dup2\n      mstore\n      0x04\n      add\n      tag_153\n      swap1\n      tag_82\n      jump\t// in\n    tag_153:\n      mload(0x40)\n      dup1\n      swap2\n      sub\n      swap1\n      revert\n    tag_152:\n        /* \"src/Exchange.sol\":4589:4598  coinPrice */\n      dup3\n        /* \"src/Exchange.sol\":4582:4588  amount */\n      dup5\n        /* \"src/Exchange.sol\":4582:4598  amount*coinPrice */\n      tag_154\n      swap2\n      swap1\n      tag_138\n      jump\t// in\n    tag_154:\n        /* \"src/Exchange.sol\":1870:1877  _amount */\n      dup1\n        /* \"src/Exchange.sol\":1857:1866  msg.value */\n      callvalue\n        /* \"src/Exchange.sol\":1857:1877  msg.value >= _amount */\n      lt\n      iszero\n        /* \"src/Exchange.sol\":1849:1878  require(msg.value >= _amount) */\n      tag_156\n      jumpi\n      0x00\n      dup1\n      revert\n    tag_156:\n        /* \"src/Exchange.sol\":4638:4647  coinPrice */\n      dup4\n        /* \"src/Exchange.sol\":4631:4637  amount */\n      dup6\n        /* \"src/Exchange.sol\":4631:4647  amount*coinPrice */\n      tag_158\n      swap2\n      swap1\n      tag_138\n      jump\t// in\n    tag_158:\n        /* \"src/Exchange.sol\":4619:4628  msg.value */\n      callvalue\n        /* \"src/Exchange.sol\":4619:4647  msg.value > amount*coinPrice */\n      gt\n        /* \"src/Exchange.sol\":4616:4709  if(msg.value > amount*coinPrice) sendEther(payable(msg.sender), msg.value - amount*coinPrice) */\n      iszero\n      tag_159\n      jumpi\n        /* \"src/Exchange.sol\":4649:4709  sendEther(payable(msg.sender), msg.value - amount*coinPrice) */\n      tag_160\n        /* \"src/Exchange.sol\":4667:4677  msg.sender */\n      caller\n        /* \"src/Exchange.sol\":4699:4708  coinPrice */\n      dup6\n        /* \"src/Exchange.sol\":4692:4698  amount */\n      dup8\n        /* \"src/Exchange.sol\":4692:4708  amount*coinPrice */\n      tag_161\n      swap2\n      swap1\n      tag_138\n      jump\t// in\n    tag_161:\n        /* \"src/Exchange.sol\":4680:4689  msg.value */\n      callvalue\n        /* \"src/Exchange.sol\":4680:4708  msg.value - amount*coinPrice */\n      tag_162\n      swap2\n      swap1\n      tag_163\n      jump\t// in\n    tag_162:\n        /* \"src/Exchange.sol\":4649:4658  sendEther */\n      tag_139\n        /* \"src/Exchange.sol\":4649:4709  sendEther(payable(msg.sender), msg.value - amount*coinPrice) */\n      jump\t// in\n    tag_160:\n        /* \"src/Exchange.sol\":4616:4709  if(msg.value > amount*coinPrice) sendEther(payable(msg.sender), msg.value - amount*coinPrice) */\n    tag_159:\n        /* \"src/Exchange.sol\":4748:4764  RequestTypes.BUY */\n      0x02\n        /* \"src/Exchange.sol\":4720:4728  Requests */\n      dup1\n        /* \"src/Exchange.sol\":4720:4740  Requests[msg.sender] */\n      0x00\n        /* \"src/Exchange.sol\":4729:4739  msg.sender */\n      caller\n        /* \"src/Exchange.sol\":4720:4740  Requests[msg.sender] */\n      0xffffffffffffffffffffffffffffffffffffffff\n      and\n      0xffffffffffffffffffffffffffffffffffffffff\n      and\n      dup2\n      mstore\n      0x20\n      add\n      swap1\n      dup2\n      mstore\n      0x20\n      add\n      0x00\n      keccak256\n        /* \"src/Exchange.sol\":4720:4745  Requests[msg.sender].TYPE */\n      0x04\n      add\n      0x00\n        /* \"src/Exchange.sol\":4720:4764  Requests[msg.sender].TYPE = RequestTypes.BUY */\n      0x0100\n      exp\n      dup2\n      sload\n      dup2\n      0xff\n      mul\n      not\n      and\n      swap1\n      dup4\n      0x02\n      dup2\n      gt\n      iszero\n      tag_164\n      jumpi\n      tag_165\n      tag_71\n      jump\t// in\n    tag_165:\n    tag_164:\n      mul\n      or\n      swap1\n      sstore\n      pop\n        /* \"src/Exchange.sol\":4775:4838  matchRequests(coinAddress, amount, coinPrice, RequestTypes.BUY) */\n      tag_166\n        /* \"src/Exchange.sol\":4789:4800  coinAddress */\n      dup7\n        /* \"src/Exchange.sol\":4802:4808  amount */\n      dup7\n        /* \"src/Exchange.sol\":4810:4819  coinPrice */\n      dup7\n        /* \"src/Exchange.sol\":4821:4837  RequestTypes.BUY */\n      0x02\n        /* \"src/Exchange.sol\":4775:4788  matchRequests */\n      tag_110\n        /* \"src/Exchange.sol\":4775:4838  matchRequests(coinAddress, amount, coinPrice, RequestTypes.BUY) */\n      jump\t// in\n    tag_166:\n        /* \"src/Exchange.sol\":2762:2763  _ */\n      pop\n        /* \"src/Exchange.sol\":2631:2632  _ */\n      pop\n        /* \"src/Exchange.sol\":2352:2353  _ */\n      pop\n        /* \"src/Exchange.sol\":4376:4846  function buyRequest(address coinAddress, uint256 amount, uint256 coinPrice) external payable ... */\n      pop\n      pop\n      pop\n      jump\t// out\n        /* \"src/Exchange.sol\":3027:3361  function initiateOwnershipTransfer(address _nextContractOwner) external ... */\n    tag_51:\n        /* \"src/Exchange.sol\":3195:3199  bool */\n      0x00\n        /* \"src/Exchange.sol\":3119:3132  contractOwner */\n      dup1\n      0x00\n      swap1\n      sload\n      swap1\n      0x0100\n      exp\n      swap1\n      div\n      0xffffffffffffffffffffffffffffffffffffffff\n      and\n        /* \"src/Exchange.sol\":1735:1746  _authorized */\n      dup1\n        /* \"src/Exchange.sol\":1721:1746  msg.sender == _authorized */\n      0xffffffffffffffffffffffffffffffffffffffff\n      and\n        /* \"src/Exchange.sol\":1721:1731  msg.sender */\n      caller\n        /* \"src/Exchange.sol\":1721:1746  msg.sender == _authorized */\n      0xffffffffffffffffffffffffffffffffffffffff\n      and\n      eq\n        /* \"src/Exchange.sol\":1713:1775  require(msg.sender == _authorized, \"Caller is not authorized\") */\n      tag_168\n      jumpi\n      mload(0x40)\n      0x08c379a000000000000000000000000000000000000000000000000000000000\n      dup2\n      mstore\n      0x04\n      add\n      tag_169\n      swap1\n      tag_64\n      jump\t// in\n    tag_169:\n      mload(0x40)\n      dup1\n      swap2\n      sub\n      swap1\n      revert\n    tag_168:\n        /* \"src/Exchange.sol\":3158:3176  _nextContractOwner */\n      dup3\n        /* \"src/Exchange.sol\":2436:2439  _to */\n      dup1\n        /* \"src/Exchange.sol\":2422:2439  address(0) != _to */\n      0xffffffffffffffffffffffffffffffffffffffff\n      and\n        /* \"src/Exchange.sol\":2430:2431  0 */\n      0x00\n        /* \"src/Exchange.sol\":2422:2439  address(0) != _to */\n      0xffffffffffffffffffffffffffffffffffffffff\n      and\n      sub\n        /* \"src/Exchange.sol\":2414:2487  require(address(0) != _to, \"Transfer to the zero address is not allowed\") */\n      tag_171\n      jumpi\n      mload(0x40)\n      0x08c379a000000000000000000000000000000000000000000000000000000000\n      dup2\n      mstore\n      0x04\n      add\n      tag_172\n      swap1\n      tag_173\n      jump\t// in\n    tag_172:\n      mload(0x40)\n      dup1\n      swap2\n      sub\n      swap1\n      revert\n    tag_171:\n        /* \"src/Exchange.sol\":3237:3255  _nextContractOwner */\n      dup4\n        /* \"src/Exchange.sol\":3217:3234  nextContractOwner */\n      0x01\n      0x00\n        /* \"src/Exchange.sol\":3217:3255  nextContractOwner = _nextContractOwner */\n      0x0100\n      exp\n      dup2\n      sload\n      dup2\n      0xffffffffffffffffffffffffffffffffffffffff\n      mul\n      not\n      and\n      swap1\n      dup4\n      0xffffffffffffffffffffffffffffffffffffffff\n      and\n      mul\n      or\n      swap1\n      sstore\n      pop\n        /* \"src/Exchange.sol\":3313:3330  nextContractOwner */\n      0x01\n      0x00\n      swap1\n      sload\n      swap1\n      0x0100\n      exp\n      swap1\n      div\n      0xffffffffffffffffffffffffffffffffffffffff\n      and\n        /* \"src/Exchange.sol\":3271:3331  InitiatedOwnershipTransfer(contractOwner, nextContractOwner) */\n      0xffffffffffffffffffffffffffffffffffffffff\n      and\n        /* \"src/Exchange.sol\":3298:3311  contractOwner */\n      0x00\n      dup1\n      sload\n      swap1\n      0x0100\n      exp\n      swap1\n      div\n      0xffffffffffffffffffffffffffffffffffffffff\n      and\n        /* \"src/Exchange.sol\":3271:3331  InitiatedOwnershipTransfer(contractOwner, nextContractOwner) */\n      0xffffffffffffffffffffffffffffffffffffffff\n      and\n      0xfee8bf98f40b2ac772a78cd4d45742484d3471f99046b224f8e6922e7c6eb1d2\n      mload(0x40)\n      mload(0x40)\n      dup1\n      swap2\n      sub\n      swap1\n      log3\n        /* \"src/Exchange.sol\":3349:3353  true */\n      0x01\n        /* \"src/Exchange.sol\":3342:3353  return true */\n      swap3\n      pop\n        /* \"src/Exchange.sol\":1786:1787  _ */\n      pop\n        /* \"src/Exchange.sol\":3027:3361  function initiateOwnershipTransfer(address _nextContractOwner) external ... */\n      pop\n      swap2\n      swap1\n      pop\n      jump\t// out\n        /* \"src/Exchange.sol\":375:407  address public nextContractOwner */\n    tag_55:\n      0x01\n      0x00\n      swap1\n      sload\n      swap1\n      0x0100\n      exp\n      swap1\n      div\n      0xffffffffffffffffffffffffffffffffffffffff\n      and\n      dup2\n      jump\t// out\n        /* \"src/Exchange.sol\":340:368  address public contractOwner */\n    tag_59:\n      0x00\n      dup1\n      sload\n      swap1\n      0x0100\n      exp\n      swap1\n      div\n      0xffffffffffffffffffffffffffffffffffffffff\n      and\n      dup2\n      jump\t// out\n        /* \"src/Exchange.sol\":5424:6247  function matchRequests(address tokenAddress, uint256 amount, uint256 tokenPrice, RequestTypes TYPE) private{... */\n    tag_110:\n        /* \"src/Exchange.sol\":5542:5570  address[] memory requestants */\n      0x00\n        /* \"src/Exchange.sol\":5580:5597  RequestTypes.SELL */\n      0x01\n        /* \"src/Exchange.sol\":5574:5597  TYPE==RequestTypes.SELL */\n      0x02\n      dup2\n      gt\n      iszero\n      tag_176\n      jumpi\n      tag_177\n      tag_71\n      jump\t// in\n    tag_177:\n    tag_176:\n        /* \"src/Exchange.sol\":5574:5578  TYPE */\n      dup3\n        /* \"src/Exchange.sol\":5574:5597  TYPE==RequestTypes.SELL */\n      0x02\n      dup2\n      gt\n      iszero\n      tag_178\n      jumpi\n      tag_179\n      tag_71\n      jump\t// in\n    tag_179:\n    tag_178:\n      eq\n        /* \"src/Exchange.sol\":5574:5660  TYPE==RequestTypes.SELL ? buyRequestants[tokenAddress] : sellRequestants[tokenAddress] */\n      tag_180\n      jumpi\n        /* \"src/Exchange.sol\":5631:5646  sellRequestants */\n      0x03\n        /* \"src/Exchange.sol\":5631:5660  sellRequestants[tokenAddress] */\n      0x00\n        /* \"src/Exchange.sol\":5647:5659  tokenAddress */\n      dup7\n        /* \"src/Exchange.sol\":5631:5660  sellRequestants[tokenAddress] */\n      0xffffffffffffffffffffffffffffffffffffffff\n      and\n      0xffffffffffffffffffffffffffffffffffffffff\n      and\n      dup2\n      mstore\n      0x20\n      add\n      swap1\n      dup2\n      mstore\n      0x20\n      add\n      0x00\n      keccak256\n        /* \"src/Exchange.sol\":5574:5660  TYPE==RequestTypes.SELL ? buyRequestants[tokenAddress] : sellRequestants[tokenAddress] */\n      jump(tag_181)\n    tag_180:\n        /* \"src/Exchange.sol\":5600:5614  buyRequestants */\n      0x04\n        /* \"src/Exchange.sol\":5600:5628  buyRequestants[tokenAddress] */\n      0x00\n        /* \"src/Exchange.sol\":5615:5627  tokenAddress */\n      dup7\n        /* \"src/Exchange.sol\":5600:5628  buyRequestants[tokenAddress] */\n      0xffffffffffffffffffffffffffffffffffffffff\n      and\n      0xffffffffffffffffffffffffffffffffffffffff\n      and\n      dup2\n      mstore\n      0x20\n      add\n      swap1\n      dup2\n      mstore\n      0x20\n      add\n      0x00\n      keccak256\n        /* \"src/Exchange.sol\":5574:5660  TYPE==RequestTypes.SELL ? buyRequestants[tokenAddress] : sellRequestants[tokenAddress] */\n    tag_181:\n        /* \"src/Exchange.sol\":5542:5661  address[] memory requestants = (TYPE==RequestTypes.SELL ? buyRequestants[tokenAddress] : sellRequestants[tokenAddress]) */\n      dup1\n      sload\n      dup1\n      0x20\n      mul\n      0x20\n      add\n      mload(0x40)\n      swap1\n      dup2\n      add\n      0x40\n      mstore\n      dup1\n      swap3\n      swap2\n      swap1\n      dup2\n      dup2\n      mstore\n      0x20\n      add\n      dup3\n      dup1\n      sload\n      dup1\n      iszero\n      tag_182\n      jumpi\n      0x20\n      mul\n      dup3\n      add\n      swap2\n      swap1\n      0x00\n      mstore\n      keccak256(0x00, 0x20)\n      swap1\n    tag_183:\n      dup2\n      0x00\n      swap1\n      sload\n      swap1\n      0x0100\n      exp\n      swap1\n      div\n      0xffffffffffffffffffffffffffffffffffffffff\n      and\n      0xffffffffffffffffffffffffffffffffffffffff\n      and\n      dup2\n      mstore\n      0x20\n      add\n      swap1\n      0x01\n      add\n      swap1\n      dup1\n      dup4\n      gt\n      tag_183\n      jumpi\n    tag_182:\n      pop\n      pop\n      pop\n      pop\n      pop\n      swap1\n      pop\n        /* \"src/Exchange.sol\":5672:5690  uint256 amountLeft */\n      0x00\n        /* \"src/Exchange.sol\":5693:5699  amount */\n      dup5\n        /* \"src/Exchange.sol\":5672:5699  uint256 amountLeft = amount */\n      swap1\n      pop\n        /* \"src/Exchange.sol\":5715:5724  uint256 i */\n      0x00\n        /* \"src/Exchange.sol\":5727:5738  requestants */\n      dup3\n        /* \"src/Exchange.sol\":5727:5745  requestants.length */\n      mload\n        /* \"src/Exchange.sol\":5715:5745  uint256 i = requestants.length */\n      swap1\n      pop\n        /* \"src/Exchange.sol\":5710:6052  for (uint256 i = requestants.length; i > 0; i--){... */\n    tag_184:\n        /* \"src/Exchange.sol\":5751:5752  0 */\n      0x00\n        /* \"src/Exchange.sol\":5747:5748  i */\n      dup2\n        /* \"src/Exchange.sol\":5747:5752  i > 0 */\n      gt\n        /* \"src/Exchange.sol\":5710:6052  for (uint256 i = requestants.length; i > 0; i--){... */\n      iszero\n      tag_185\n      jumpi\n        /* \"src/Exchange.sol\":5773:5799  UserRequest memory Request */\n      0x00\n        /* \"src/Exchange.sol\":5802:5810  Requests */\n      0x02\n        /* \"src/Exchange.sol\":5802:5828  Requests[requestants[i-1]] */\n      0x00\n        /* \"src/Exchange.sol\":5811:5822  requestants */\n      dup6\n        /* \"src/Exchange.sol\":5825:5826  1 */\n      0x01\n        /* \"src/Exchange.sol\":5823:5824  i */\n      dup6\n        /* \"src/Exchange.sol\":5823:5826  i-1 */\n      tag_187\n      swap2\n      swap1\n      tag_163\n      jump\t// in\n    tag_187:\n        /* \"src/Exchange.sol\":5811:5827  requestants[i-1] */\n      dup2\n      mload\n      dup2\n      lt\n      tag_188\n      jumpi\n      tag_189\n      tag_190\n      jump\t// in\n    tag_189:\n    tag_188:\n      0x20\n      mul\n      0x20\n      add\n      add\n      mload\n        /* \"src/Exchange.sol\":5802:5828  Requests[requestants[i-1]] */\n      0xffffffffffffffffffffffffffffffffffffffff\n      and\n      0xffffffffffffffffffffffffffffffffffffffff\n      and\n      dup2\n      mstore\n      0x20\n      add\n      swap1\n      dup2\n      mstore\n      0x20\n      add\n      0x00\n      keccak256\n        /* \"src/Exchange.sol\":5773:5828  UserRequest memory Request = Requests[requestants[i-1]] */\n      mload(0x40)\n      dup1\n      0xa0\n      add\n      0x40\n      mstore\n      swap1\n      dup2\n      0x00\n      dup3\n      add\n      0x00\n      swap1\n      sload\n      swap1\n      0x0100\n      exp\n      swap1\n      div\n      0xffffffffffffffffffffffffffffffffffffffff\n      and\n      0xffffffffffffffffffffffffffffffffffffffff\n      and\n      0xffffffffffffffffffffffffffffffffffffffff\n      and\n      dup2\n      mstore\n      0x20\n      add\n      0x01\n      dup3\n      add\n      sload\n      dup2\n      mstore\n      0x20\n      add\n      0x02\n      dup3\n      add\n      sload\n      dup2\n      mstore\n      0x20\n      add\n      0x03\n      dup3\n      add\n      sload\n      dup2\n      mstore\n      0x20\n      add\n      0x04\n      dup3\n      add\n      0x00\n      swap1\n      sload\n      swap1\n      0x0100\n      exp\n      swap1\n      div\n      0xff\n      and\n      0x02\n      dup2\n      gt\n      iszero\n      tag_191\n      jumpi\n      tag_192\n      tag_71\n      jump\t// in\n    tag_192:\n    tag_191:\n      0x02\n      dup2\n      gt\n      iszero\n      tag_193\n      jumpi\n      tag_194\n      tag_71\n      jump\t// in\n    tag_194:\n    tag_193:\n      dup2\n      mstore\n      pop\n      pop\n      swap1\n      pop\n        /* \"src/Exchange.sol\":5846:5877  priceCheck(Request, tokenPrice) */\n      tag_195\n        /* \"src/Exchange.sol\":5857:5864  Request */\n      dup2\n        /* \"src/Exchange.sol\":5866:5876  tokenPrice */\n      dup8\n        /* \"src/Exchange.sol\":5846:5856  priceCheck */\n      tag_196\n        /* \"src/Exchange.sol\":5846:5877  priceCheck(Request, tokenPrice) */\n      jump\t// in\n    tag_195:\n        /* \"src/Exchange.sol\":5843:6041  if(priceCheck(Request, tokenPrice)){... */\n      iszero\n      tag_197\n      jumpi\n        /* \"src/Exchange.sol\":5910:5980  executeRequests(tokenAddress,requestants[i-1], amountLeft, tokenPrice) */\n      tag_198\n        /* \"src/Exchange.sol\":5926:5938  tokenAddress */\n      dup9\n        /* \"src/Exchange.sol\":5939:5950  requestants */\n      dup6\n        /* \"src/Exchange.sol\":5953:5954  1 */\n      0x01\n        /* \"src/Exchange.sol\":5951:5952  i */\n      dup6\n        /* \"src/Exchange.sol\":5951:5954  i-1 */\n      tag_199\n      swap2\n      swap1\n      tag_163\n      jump\t// in\n    tag_199:\n        /* \"src/Exchange.sol\":5939:5955  requestants[i-1] */\n      dup2\n      mload\n      dup2\n      lt\n      tag_200\n      jumpi\n      tag_201\n      tag_190\n      jump\t// in\n    tag_201:\n    tag_200:\n      0x20\n      mul\n      0x20\n      add\n      add\n      mload\n        /* \"src/Exchange.sol\":5957:5967  amountLeft */\n      dup6\n        /* \"src/Exchange.sol\":5969:5979  tokenPrice */\n      dup10\n        /* \"src/Exchange.sol\":5910:5925  executeRequests */\n      tag_202\n        /* \"src/Exchange.sol\":5910:5980  executeRequests(tokenAddress,requestants[i-1], amountLeft, tokenPrice) */\n      jump\t// in\n    tag_198:\n        /* \"src/Exchange.sol\":5897:5980  amountLeft = executeRequests(tokenAddress,requestants[i-1], amountLeft, tokenPrice) */\n      swap3\n      pop\n        /* \"src/Exchange.sol\":6017:6018  0 */\n      0x00\n        /* \"src/Exchange.sol\":6003:6013  amountLeft */\n      dup4\n        /* \"src/Exchange.sol\":6003:6018  amountLeft == 0 */\n      sub\n        /* \"src/Exchange.sol\":5999:6025  if (amountLeft == 0) break */\n      tag_203\n      jumpi\n        /* \"src/Exchange.sol\":6020:6025  break */\n      pop\n      jump(tag_185)\n        /* \"src/Exchange.sol\":5999:6025  if (amountLeft == 0) break */\n    tag_203:\n        /* \"src/Exchange.sol\":5843:6041  if(priceCheck(Request, tokenPrice)){... */\n    tag_197:\n        /* \"src/Exchange.sol\":5758:6052  {... */\n      pop\n        /* \"src/Exchange.sol\":5754:5757  i-- */\n      dup1\n      dup1\n      tag_204\n      swap1\n      tag_205\n      jump\t// in\n    tag_204:\n      swap2\n      pop\n      pop\n        /* \"src/Exchange.sol\":5710:6052  for (uint256 i = requestants.length; i > 0; i--){... */\n      jump(tag_184)\n    tag_185:\n      pop\n        /* \"src/Exchange.sol\":6078:6079  0 */\n      0x00\n        /* \"src/Exchange.sol\":6065:6075  amountLeft */\n      dup2\n        /* \"src/Exchange.sol\":6065:6079  amountLeft > 0 */\n      gt\n        /* \"src/Exchange.sol\":6062:6240  if(amountLeft > 0){... */\n      iszero\n      tag_206\n      jumpi\n        /* \"src/Exchange.sol\":6095:6149  addRequest(tokenAddress, amountLeft, tokenPrice, TYPE) */\n      tag_207\n        /* \"src/Exchange.sol\":6106:6118  tokenAddress */\n      dup7\n        /* \"src/Exchange.sol\":6120:6130  amountLeft */\n      dup3\n        /* \"src/Exchange.sol\":6132:6142  tokenPrice */\n      dup7\n        /* \"src/Exchange.sol\":6144:6148  TYPE */\n      dup7\n        /* \"src/Exchange.sol\":6095:6105  addRequest */\n      tag_208\n        /* \"src/Exchange.sol\":6095:6149  addRequest(tokenAddress, amountLeft, tokenPrice, TYPE) */\n      jump\t// in\n    tag_207:\n        /* \"src/Exchange.sol\":6062:6240  if(amountLeft > 0){... */\n      jump(tag_209)\n    tag_206:\n        /* \"src/Exchange.sol\":6208:6225  RequestTypes.NONE */\n      0x00\n        /* \"src/Exchange.sol\":6180:6188  Requests */\n      0x02\n        /* \"src/Exchange.sol\":6180:6200  Requests[msg.sender] */\n      0x00\n        /* \"src/Exchange.sol\":6189:6199  msg.sender */\n      caller\n        /* \"src/Exchange.sol\":6180:6200  Requests[msg.sender] */\n      0xffffffffffffffffffffffffffffffffffffffff\n      and\n      0xffffffffffffffffffffffffffffffffffffffff\n      and\n      dup2\n      mstore\n      0x20\n      add\n      swap1\n      dup2\n      mstore\n      0x20\n      add\n      0x00\n      keccak256\n        /* \"src/Exchange.sol\":6180:6205  Requests[msg.sender].TYPE */\n      0x04\n      add\n      0x00\n        /* \"src/Exchange.sol\":6180:6225  Requests[msg.sender].TYPE = RequestTypes.NONE */\n      0x0100\n      exp\n      dup2\n      sload\n      dup2\n      0xff\n      mul\n      not\n      and\n      swap1\n      dup4\n      0x02\n      dup2\n      gt\n      iszero\n      tag_210\n      jumpi\n      tag_211\n      tag_71\n      jump\t// in\n    tag_211:\n    tag_210:\n      mul\n      or\n      swap1\n      sstore\n      pop\n        /* \"src/Exchange.sol\":6062:6240  if(amountLeft > 0){... */\n    tag_209:\n        /* \"src/Exchange.sol\":5531:6247  {... */\n      pop\n      pop\n        /* \"src/Exchange.sol\":5424:6247  function matchRequests(address tokenAddress, uint256 amount, uint256 tokenPrice, RequestTypes TYPE) private{... */\n      pop\n      pop\n      pop\n      pop\n      jump\t// out\n        /* \"src/Exchange.sol\":9343:9523  function sendEther(address payable reciver, uint256 amount) private{... */\n    tag_139:\n        /* \"src/Exchange.sol\":9422:9431  bool sent */\n      0x00\n        /* \"src/Exchange.sol\":9436:9443  reciver */\n      dup3\n        /* \"src/Exchange.sol\":9436:9448  reciver.call */\n      0xffffffffffffffffffffffffffffffffffffffff\n      and\n        /* \"src/Exchange.sol\":9456:9462  amount */\n      dup3\n        /* \"src/Exchange.sol\":9436:9467  reciver.call{value: amount}(\"\") */\n      mload(0x40)\n      tag_213\n      swap1\n      tag_214\n      jump\t// in\n    tag_213:\n      0x00\n      mload(0x40)\n      dup1\n      dup4\n      sub\n      dup2\n      dup6\n      dup8\n      gas\n      call\n      swap3\n      pop\n      pop\n      pop\n      returndatasize\n      dup1\n      0x00\n      dup2\n      eq\n      tag_217\n      jumpi\n      mload(0x40)\n      swap2\n      pop\n      and(add(returndatasize, 0x3f), not(0x1f))\n      dup3\n      add\n      0x40\n      mstore\n      returndatasize\n      dup3\n      mstore\n      returndatasize\n      0x00\n      0x20\n      dup5\n      add\n      returndatacopy\n      jump(tag_216)\n    tag_217:\n      0x60\n      swap2\n      pop\n    tag_216:\n      pop\n        /* \"src/Exchange.sol\":9421:9467  (bool sent,) = reciver.call{value: amount}(\"\") */\n      pop\n      swap1\n      pop\n        /* \"src/Exchange.sol\":9486:9490  sent */\n      dup1\n        /* \"src/Exchange.sol\":9478:9515  require(sent, \"Failed to send Ether\") */\n      tag_218\n      jumpi\n      mload(0x40)\n      0x08c379a000000000000000000000000000000000000000000000000000000000\n      dup2\n      mstore\n      0x04\n      add\n      tag_219\n      swap1\n      tag_220\n      jump\t// in\n    tag_219:\n      mload(0x40)\n      dup1\n      swap2\n      sub\n      swap1\n      revert\n    tag_218:\n        /* \"src/Exchange.sol\":9410:9523  {... */\n      pop\n        /* \"src/Exchange.sol\":9343:9523  function sendEther(address payable reciver, uint256 amount) private{... */\n      pop\n      pop\n      jump\t// out\n        /* \"src/Exchange.sol\":8760:9268  function removeRequest(address requestor) private {... */\n    tag_141:\n        /* \"src/Exchange.sol\":8821:8847  UserRequest memory Request */\n      0x00\n        /* \"src/Exchange.sol\":8850:8858  Requests */\n      0x02\n        /* \"src/Exchange.sol\":8850:8869  Requests[requestor] */\n      0x00\n        /* \"src/Exchange.sol\":8859:8868  requestor */\n      dup4\n        /* \"src/Exchange.sol\":8850:8869  Requests[requestor] */\n      0xffffffffffffffffffffffffffffffffffffffff\n      and\n      0xffffffffffffffffffffffffffffffffffffffff\n      and\n      dup2\n      mstore\n      0x20\n      add\n      swap1\n      dup2\n      mstore\n      0x20\n      add\n      0x00\n      keccak256\n        /* \"src/Exchange.sol\":8821:8869  UserRequest memory Request = Requests[requestor] */\n      mload(0x40)\n      dup1\n      0xa0\n      add\n      0x40\n      mstore\n      swap1\n      dup2\n      0x00\n      dup3\n      add\n      0x00\n      swap1\n      sload\n      swap1\n      0x0100\n      exp\n      swap1\n      div\n      0xffffffffffffffffffffffffffffffffffffffff\n      and\n      0xffffffffffffffffffffffffffffffffffffffff\n      and\n      0xffffffffffffffffffffffffffffffffffffffff\n      and\n      dup2\n      mstore\n      0x20\n      add\n      0x01\n      dup3\n      add\n      sload\n      dup2\n      mstore\n      0x20\n      add\n      0x02\n      dup3\n      add\n      sload\n      dup2\n      mstore\n      0x20\n      add\n      0x03\n      dup3\n      add\n      sload\n      dup2\n      mstore\n      0x20\n      add\n      0x04\n      dup3\n      add\n      0x00\n      swap1\n      sload\n      swap1\n      0x0100\n      exp\n      swap1\n      div\n      0xff\n      and\n      0x02\n      dup2\n      gt\n      iszero\n      tag_222\n      jumpi\n      tag_223\n      tag_71\n      jump\t// in\n    tag_223:\n    tag_222:\n      0x02\n      dup2\n      gt\n      iszero\n      tag_224\n      jumpi\n      tag_225\n      tag_71\n      jump\t// in\n    tag_225:\n    tag_224:\n      dup2\n      mstore\n      pop\n      pop\n      swap1\n      pop\n        /* \"src/Exchange.sol\":8880:8909  address[] storage requestants */\n      0x00\n        /* \"src/Exchange.sol\":8927:8944  RequestTypes.SELL */\n      0x01\n        /* \"src/Exchange.sol\":8913:8944  Request.TYPE==RequestTypes.SELL */\n      0x02\n      dup2\n      gt\n      iszero\n      tag_226\n      jumpi\n      tag_227\n      tag_71\n      jump\t// in\n    tag_227:\n    tag_226:\n        /* \"src/Exchange.sol\":8913:8920  Request */\n      dup3\n        /* \"src/Exchange.sol\":8913:8925  Request.TYPE */\n      0x80\n      add\n      mload\n        /* \"src/Exchange.sol\":8913:8944  Request.TYPE==RequestTypes.SELL */\n      0x02\n      dup2\n      gt\n      iszero\n      tag_228\n      jumpi\n      tag_229\n      tag_71\n      jump\t// in\n    tag_229:\n    tag_228:\n      eq\n        /* \"src/Exchange.sol\":8913:9023  Request.TYPE==RequestTypes.SELL ? sellRequestants[Request.tokenAddress] : buyRequestants[Request.tokenAddress] */\n      tag_230\n      jumpi\n        /* \"src/Exchange.sol\":8987:9001  buyRequestants */\n      0x04\n        /* \"src/Exchange.sol\":8987:9023  buyRequestants[Request.tokenAddress] */\n      0x00\n        /* \"src/Exchange.sol\":9002:9009  Request */\n      dup4\n        /* \"src/Exchange.sol\":9002:9022  Request.tokenAddress */\n      0x00\n      add\n      mload\n        /* \"src/Exchange.sol\":8987:9023  buyRequestants[Request.tokenAddress] */\n      0xffffffffffffffffffffffffffffffffffffffff\n      and\n      0xffffffffffffffffffffffffffffffffffffffff\n      and\n      dup2\n      mstore\n      0x20\n      add\n      swap1\n      dup2\n      mstore\n      0x20\n      add\n      0x00\n      keccak256\n        /* \"src/Exchange.sol\":8913:9023  Request.TYPE==RequestTypes.SELL ? sellRequestants[Request.tokenAddress] : buyRequestants[Request.tokenAddress] */\n      jump(tag_231)\n    tag_230:\n        /* \"src/Exchange.sol\":8947:8962  sellRequestants */\n      0x03\n        /* \"src/Exchange.sol\":8947:8984  sellRequestants[Request.tokenAddress] */\n      0x00\n        /* \"src/Exchange.sol\":8963:8970  Request */\n      dup4\n        /* \"src/Exchange.sol\":8963:8983  Request.tokenAddress */\n      0x00\n      add\n      mload\n        /* \"src/Exchange.sol\":8947:8984  sellRequestants[Request.tokenAddress] */\n      0xffffffffffffffffffffffffffffffffffffffff\n      and\n      0xffffffffffffffffffffffffffffffffffffffff\n      and\n      dup2\n      mstore\n      0x20\n      add\n      swap1\n      dup2\n      mstore\n      0x20\n      add\n      0x00\n      keccak256\n        /* \"src/Exchange.sol\":8913:9023  Request.TYPE==RequestTypes.SELL ? sellRequestants[Request.tokenAddress] : buyRequestants[Request.tokenAddress] */\n    tag_231:\n        /* \"src/Exchange.sol\":8880:9024  address[] storage requestants = (Request.TYPE==RequestTypes.SELL ? sellRequestants[Request.tokenAddress] : buyRequestants[Request.tokenAddress]) */\n      swap1\n      pop\n        /* \"src/Exchange.sol\":9089:9096  Request */\n      dup2\n        /* \"src/Exchange.sol\":9089:9102  Request.index */\n      0x20\n      add\n      mload\n        /* \"src/Exchange.sol\":9035:9043  Requests */\n      0x02\n        /* \"src/Exchange.sol\":9035:9080  Requests[requestants[requestants.length - 1]] */\n      0x00\n        /* \"src/Exchange.sol\":9044:9055  requestants */\n      dup4\n        /* \"src/Exchange.sol\":9077:9078  1 */\n      0x01\n        /* \"src/Exchange.sol\":9056:9067  requestants */\n      dup6\n        /* \"src/Exchange.sol\":9056:9074  requestants.length */\n      dup1\n      sload\n      swap1\n      pop\n        /* \"src/Exchange.sol\":9056:9078  requestants.length - 1 */\n      tag_232\n      swap2\n      swap1\n      tag_163\n      jump\t// in\n    tag_232:\n        /* \"src/Exchange.sol\":9044:9079  requestants[requestants.length - 1] */\n      dup2\n      sload\n      dup2\n      lt\n      tag_233\n      jumpi\n      tag_234\n      tag_190\n      jump\t// in\n    tag_234:\n    tag_233:\n      swap1\n      0x00\n      mstore\n      keccak256(0x00, 0x20)\n      add\n      0x00\n      swap1\n      sload\n      swap1\n      0x0100\n      exp\n      swap1\n      div\n      0xffffffffffffffffffffffffffffffffffffffff\n      and\n        /* \"src/Exchange.sol\":9035:9080  Requests[requestants[requestants.length - 1]] */\n      0xffffffffffffffffffffffffffffffffffffffff\n      and\n      0xffffffffffffffffffffffffffffffffffffffff\n      and\n      dup2\n      mstore\n      0x20\n      add\n      swap1\n      dup2\n      mstore\n      0x20\n      add\n      0x00\n      keccak256\n        /* \"src/Exchange.sol\":9035:9086  Requests[requestants[requestants.length - 1]].index */\n      0x01\n      add\n        /* \"src/Exchange.sol\":9035:9102  Requests[requestants[requestants.length - 1]].index = Request.index */\n      dup2\n      swap1\n      sstore\n      pop\n        /* \"src/Exchange.sol\":9142:9153  requestants */\n      dup1\n        /* \"src/Exchange.sol\":9175:9176  1 */\n      0x01\n        /* \"src/Exchange.sol\":9154:9165  requestants */\n      dup3\n        /* \"src/Exchange.sol\":9154:9172  requestants.length */\n      dup1\n      sload\n      swap1\n      pop\n        /* \"src/Exchange.sol\":9154:9176  requestants.length - 1 */\n      tag_236\n      swap2\n      swap1\n      tag_163\n      jump\t// in\n    tag_236:\n        /* \"src/Exchange.sol\":9142:9177  requestants[requestants.length - 1] */\n      dup2\n      sload\n      dup2\n      lt\n      tag_237\n      jumpi\n      tag_238\n      tag_190\n      jump\t// in\n    tag_238:\n    tag_237:\n      swap1\n      0x00\n      mstore\n      keccak256(0x00, 0x20)\n      add\n      0x00\n      swap1\n      sload\n      swap1\n      0x0100\n      exp\n      swap1\n      div\n      0xffffffffffffffffffffffffffffffffffffffff\n      and\n        /* \"src/Exchange.sol\":9113:9124  requestants */\n      dup2\n        /* \"src/Exchange.sol\":9125:9132  Request */\n      dup4\n        /* \"src/Exchange.sol\":9125:9138  Request.index */\n      0x20\n      add\n      mload\n        /* \"src/Exchange.sol\":9113:9139  requestants[Request.index] */\n      dup2\n      sload\n      dup2\n      lt\n      tag_240\n      jumpi\n      tag_241\n      tag_190\n      jump\t// in\n    tag_241:\n    tag_240:\n      swap1\n      0x00\n      mstore\n      keccak256(0x00, 0x20)\n      add\n      0x00\n        /* \"src/Exchange.sol\":9113:9177  requestants[Request.index] = requestants[requestants.length - 1] */\n      0x0100\n      exp\n      dup2\n      sload\n      dup2\n      0xffffffffffffffffffffffffffffffffffffffff\n      mul\n      not\n      and\n      swap1\n      dup4\n      0xffffffffffffffffffffffffffffffffffffffff\n      and\n      mul\n      or\n      swap1\n      sstore\n      pop\n        /* \"src/Exchange.sol\":9188:9199  requestants */\n      dup1\n        /* \"src/Exchange.sol\":9188:9205  requestants.pop() */\n      dup1\n      sload\n      dup1\n      tag_243\n      jumpi\n      tag_244\n      tag_245\n      jump\t// in\n    tag_244:\n    tag_243:\n      0x01\n      swap1\n      sub\n      dup2\n      dup2\n      swap1\n      0x00\n      mstore\n      keccak256(0x00, 0x20)\n      add\n      exp(0x0100, 0x00)\n      dup2\n      sload\n      swap1\n      0xffffffffffffffffffffffffffffffffffffffff\n      mul\n      not\n      and\n      swap1\n      sstore\n      swap1\n      sstore\n        /* \"src/Exchange.sol\":9243:9260  RequestTypes.NONE */\n      0x00\n        /* \"src/Exchange.sol\":9216:9224  Requests */\n      0x02\n        /* \"src/Exchange.sol\":9216:9235  Requests[requestor] */\n      0x00\n        /* \"src/Exchange.sol\":9225:9234  requestor */\n      dup6\n        /* \"src/Exchange.sol\":9216:9235  Requests[requestor] */\n      0xffffffffffffffffffffffffffffffffffffffff\n      and\n      0xffffffffffffffffffffffffffffffffffffffff\n      and\n      dup2\n      mstore\n      0x20\n      add\n      swap1\n      dup2\n      mstore\n      0x20\n      add\n      0x00\n      keccak256\n        /* \"src/Exchange.sol\":9216:9240  Requests[requestor].TYPE */\n      0x04\n      add\n      0x00\n        /* \"src/Exchange.sol\":9216:9260  Requests[requestor].TYPE = RequestTypes.NONE */\n      0x0100\n      exp\n      dup2\n      sload\n      dup2\n      0xff\n      mul\n      not\n      and\n      swap1\n      dup4\n      0x02\n      dup2\n      gt\n      iszero\n      tag_247\n      jumpi\n      tag_248\n      tag_71\n      jump\t// in\n    tag_248:\n    tag_247:\n      mul\n      or\n      swap1\n      sstore\n      pop\n        /* \"src/Exchange.sol\":8810:9268  {... */\n      pop\n      pop\n        /* \"src/Exchange.sol\":8760:9268  function removeRequest(address requestor) private {... */\n      pop\n      jump\t// out\n        /* \"src/Exchange.sol\":6255:6581  function priceCheck(UserRequest memory Request, uint256 tokenPrice) private pure returns(bool){... */\n    tag_196:\n        /* \"src/Exchange.sol\":6344:6348  bool */\n      0x00\n        /* \"src/Exchange.sol\":6379:6396  RequestTypes.SELL */\n      0x01\n        /* \"src/Exchange.sol\":6363:6396  Request.TYPE == RequestTypes.SELL */\n      0x02\n      dup2\n      gt\n      iszero\n      tag_250\n      jumpi\n      tag_251\n      tag_71\n      jump\t// in\n    tag_251:\n    tag_250:\n        /* \"src/Exchange.sol\":6363:6370  Request */\n      dup4\n        /* \"src/Exchange.sol\":6363:6375  Request.TYPE */\n      0x80\n      add\n      mload\n        /* \"src/Exchange.sol\":6363:6396  Request.TYPE == RequestTypes.SELL */\n      0x02\n      dup2\n      gt\n      iszero\n      tag_252\n      jumpi\n      tag_253\n      tag_71\n      jump\t// in\n    tag_253:\n    tag_252:\n      sub\n        /* \"src/Exchange.sol\":6360:6551  if(Request.TYPE == RequestTypes.SELL){... */\n      tag_254\n      jumpi\n        /* \"src/Exchange.sol\":6437:6447  tokenPrice */\n      dup2\n        /* \"src/Exchange.sol\":6415:6422  Request */\n      dup4\n        /* \"src/Exchange.sol\":6415:6433  Request.tokenPrice */\n      0x60\n      add\n      mload\n        /* \"src/Exchange.sol\":6415:6447  Request.tokenPrice <= tokenPrice */\n      gt\n        /* \"src/Exchange.sol\":6412:6460  if(Request.tokenPrice <= tokenPrice) return true */\n      tag_255\n      jumpi\n        /* \"src/Exchange.sol\":6456:6460  true */\n      0x01\n        /* \"src/Exchange.sol\":6449:6460  return true */\n      swap1\n      pop\n      jump(tag_249)\n        /* \"src/Exchange.sol\":6412:6460  if(Request.tokenPrice <= tokenPrice) return true */\n    tag_255:\n        /* \"src/Exchange.sol\":6360:6551  if(Request.TYPE == RequestTypes.SELL){... */\n      jump(tag_256)\n    tag_254:\n        /* \"src/Exchange.sol\":6516:6526  tokenPrice */\n      dup2\n        /* \"src/Exchange.sol\":6494:6501  Request */\n      dup4\n        /* \"src/Exchange.sol\":6494:6512  Request.tokenPrice */\n      0x60\n      add\n      mload\n        /* \"src/Exchange.sol\":6494:6526  Request.tokenPrice >= tokenPrice */\n      lt\n        /* \"src/Exchange.sol\":6491:6539  if(Request.tokenPrice >= tokenPrice) return true */\n      tag_257\n      jumpi\n        /* \"src/Exchange.sol\":6535:6539  true */\n      0x01\n        /* \"src/Exchange.sol\":6528:6539  return true */\n      swap1\n      pop\n      jump(tag_249)\n        /* \"src/Exchange.sol\":6491:6539  if(Request.tokenPrice >= tokenPrice) return true */\n    tag_257:\n        /* \"src/Exchange.sol\":6360:6551  if(Request.TYPE == RequestTypes.SELL){... */\n    tag_256:\n        /* \"src/Exchange.sol\":6568:6573  false */\n      0x00\n        /* \"src/Exchange.sol\":6561:6573  return false */\n      swap1\n      pop\n        /* \"src/Exchange.sol\":6255:6581  function priceCheck(UserRequest memory Request, uint256 tokenPrice) private pure returns(bool){... */\n    tag_249:\n      swap3\n      swap2\n      pop\n      pop\n      jump\t// out\n        /* \"src/Exchange.sol\":6637:7994  function executeRequests(address tokenAddress, address counterparty, uint256 amount, uint256 tokenPrice) private returns(uint256){... */\n    tag_202:\n        /* \"src/Exchange.sol\":6758:6765  uint256 */\n      0x00\n        /* \"src/Exchange.sol\":6777:6803  UserRequest memory Request */\n      dup1\n        /* \"src/Exchange.sol\":6806:6814  Requests */\n      0x02\n        /* \"src/Exchange.sol\":6806:6828  Requests[counterparty] */\n      0x00\n        /* \"src/Exchange.sol\":6815:6827  counterparty */\n      dup7\n        /* \"src/Exchange.sol\":6806:6828  Requests[counterparty] */\n      0xffffffffffffffffffffffffffffffffffffffff\n      and\n      0xffffffffffffffffffffffffffffffffffffffff\n      and\n      dup2\n      mstore\n      0x20\n      add\n      swap1\n      dup2\n      mstore\n      0x20\n      add\n      0x00\n      keccak256\n        /* \"src/Exchange.sol\":6777:6828  UserRequest memory Request = Requests[counterparty] */\n      mload(0x40)\n      dup1\n      0xa0\n      add\n      0x40\n      mstore\n      swap1\n      dup2\n      0x00\n      dup3\n      add\n      0x00\n      swap1\n      sload\n      swap1\n      0x0100\n      exp\n      swap1\n      div\n      0xffffffffffffffffffffffffffffffffffffffff\n      and\n      0xffffffffffffffffffffffffffffffffffffffff\n      and\n      0xffffffffffffffffffffffffffffffffffffffff\n      and\n      dup2\n      mstore\n      0x20\n      add\n      0x01\n      dup3\n      add\n      sload\n      dup2\n      mstore\n      0x20\n      add\n      0x02\n      dup3\n      add\n      sload\n      dup2\n      mstore\n      0x20\n      add\n      0x03\n      dup3\n      add\n      sload\n      dup2\n      mstore\n      0x20\n      add\n      0x04\n      dup3\n      add\n      0x00\n      swap1\n      sload\n      swap1\n      0x0100\n      exp\n      swap1\n      div\n      0xff\n      and\n      0x02\n      dup2\n      gt\n      iszero\n      tag_259\n      jumpi\n      tag_260\n      tag_71\n      jump\t// in\n    tag_260:\n    tag_259:\n      0x02\n      dup2\n      gt\n      iszero\n      tag_261\n      jumpi\n      tag_262\n      tag_71\n      jump\t// in\n    tag_262:\n    tag_261:\n      dup2\n      mstore\n      pop\n      pop\n      swap1\n      pop\n        /* \"src/Exchange.sol\":6839:6858  uint256 tradeAmount */\n      0x00\n        /* \"src/Exchange.sol\":6870:6877  Request */\n      dup2\n        /* \"src/Exchange.sol\":6870:6884  Request.amount */\n      0x40\n      add\n      mload\n        /* \"src/Exchange.sol\":6861:6867  amount */\n      dup6\n        /* \"src/Exchange.sol\":6861:6884  amount < Request.amount */\n      lt\n        /* \"src/Exchange.sol\":6861:6910  amount < Request.amount ? amount : Request.amount */\n      tag_263\n      jumpi\n        /* \"src/Exchange.sol\":6896:6903  Request */\n      dup2\n        /* \"src/Exchange.sol\":6896:6910  Request.amount */\n      0x40\n      add\n      mload\n        /* \"src/Exchange.sol\":6861:6910  amount < Request.amount ? amount : Request.amount */\n      jump(tag_264)\n    tag_263:\n        /* \"src/Exchange.sol\":6887:6893  amount */\n      dup5\n        /* \"src/Exchange.sol\":6861:6910  amount < Request.amount ? amount : Request.amount */\n    tag_264:\n        /* \"src/Exchange.sol\":6839:6910  uint256 tradeAmount = amount < Request.amount ? amount : Request.amount */\n      swap1\n      pop\n        /* \"src/Exchange.sol\":6941:6957  RequestTypes.BUY */\n      0x02\n        /* \"src/Exchange.sol\":6925:6957  Request.TYPE == RequestTypes.BUY */\n      dup1\n      dup2\n      gt\n      iszero\n      tag_265\n      jumpi\n      tag_266\n      tag_71\n      jump\t// in\n    tag_266:\n    tag_265:\n        /* \"src/Exchange.sol\":6925:6932  Request */\n      dup3\n        /* \"src/Exchange.sol\":6925:6937  Request.TYPE */\n      0x80\n      add\n      mload\n        /* \"src/Exchange.sol\":6925:6957  Request.TYPE == RequestTypes.BUY */\n      0x02\n      dup2\n      gt\n      iszero\n      tag_267\n      jumpi\n      tag_268\n      tag_71\n      jump\t// in\n    tag_268:\n    tag_267:\n      sub\n        /* \"src/Exchange.sol\":6921:7627  if (Request.TYPE == RequestTypes.BUY) {... */\n      tag_269\n      jumpi\n        /* \"src/Exchange.sol\":6985:6997  tokenAddress */\n      dup7\n        /* \"src/Exchange.sol\":6978:7007  IERC20(tokenAddress).transfer */\n      0xffffffffffffffffffffffffffffffffffffffff\n      and\n      0xa9059cbb\n        /* \"src/Exchange.sol\":7008:7020  counterparty */\n      dup8\n        /* \"src/Exchange.sol\":7022:7033  tradeAmount */\n      dup4\n        /* \"src/Exchange.sol\":6978:7034  IERC20(tokenAddress).transfer(counterparty, tradeAmount) */\n      mload(0x40)\n      dup4\n      0xffffffff\n      and\n      0xe0\n      shl\n      dup2\n      mstore\n      0x04\n      add\n      tag_270\n      swap3\n      swap2\n      swap1\n      tag_131\n      jump\t// in\n    tag_270:\n      0x20\n      mload(0x40)\n      dup1\n      dup4\n      sub\n      dup2\n      0x00\n      dup8\n      gas\n      call\n      iszero\n      dup1\n      iszero\n      tag_272\n      jumpi\n      returndatasize\n      0x00\n      dup1\n      returndatacopy\n      revert(0x00, returndatasize)\n    tag_272:\n      pop\n      pop\n      pop\n      pop\n      mload(0x40)\n      returndatasize\n      not(0x1f)\n      0x1f\n      dup3\n      add\n      and\n      dup3\n      add\n      dup1\n      0x40\n      mstore\n      pop\n      dup2\n      add\n      swap1\n      tag_273\n      swap2\n      swap1\n      tag_105\n      jump\t// in\n    tag_273:\n        /* \"src/Exchange.sol\":6974:7076  if(!IERC20(tokenAddress).transfer(counterparty, tradeAmount)) revert(\"Token transfer to buyer failed\") */\n      tag_274\n      jumpi\n        /* \"src/Exchange.sol\":7036:7076  revert(\"Token transfer to buyer failed\") */\n      mload(0x40)\n      0x08c379a000000000000000000000000000000000000000000000000000000000\n      dup2\n      mstore\n      0x04\n      add\n      tag_275\n      swap1\n      tag_276\n      jump\t// in\n    tag_275:\n      mload(0x40)\n      dup1\n      swap2\n      sub\n      swap1\n      revert\n        /* \"src/Exchange.sol\":6974:7076  if(!IERC20(tokenAddress).transfer(counterparty, tradeAmount)) revert(\"Token transfer to buyer failed\") */\n    tag_274:\n        /* \"src/Exchange.sol\":7091:7152  sendEther(payable(msg.sender),tradeAmount*Request.tokenPrice) */\n      tag_277\n        /* \"src/Exchange.sol\":7109:7119  msg.sender */\n      caller\n        /* \"src/Exchange.sol\":7133:7140  Request */\n      dup4\n        /* \"src/Exchange.sol\":7133:7151  Request.tokenPrice */\n      0x60\n      add\n      mload\n        /* \"src/Exchange.sol\":7121:7132  tradeAmount */\n      dup4\n        /* \"src/Exchange.sol\":7121:7151  tradeAmount*Request.tokenPrice */\n      tag_278\n      swap2\n      swap1\n      tag_138\n      jump\t// in\n    tag_278:\n        /* \"src/Exchange.sol\":7091:7100  sendEther */\n      tag_139\n        /* \"src/Exchange.sol\":7091:7152  sendEther(payable(msg.sender),tradeAmount*Request.tokenPrice) */\n      jump\t// in\n    tag_277:\n        /* \"src/Exchange.sol\":7191:7201  tokenPrice */\n      dup4\n        /* \"src/Exchange.sol\":7170:7177  Request */\n      dup3\n        /* \"src/Exchange.sol\":7170:7188  Request.tokenPrice */\n      0x60\n      add\n      mload\n        /* \"src/Exchange.sol\":7170:7201  Request.tokenPrice > tokenPrice */\n      gt\n        /* \"src/Exchange.sol\":7167:7280  if(Request.tokenPrice > tokenPrice) sendEther(payable(counterparty), (Request.tokenPrice-tokenPrice)*tradeAmount) */\n      iszero\n      tag_279\n      jumpi\n        /* \"src/Exchange.sol\":7203:7280  sendEther(payable(counterparty), (Request.tokenPrice-tokenPrice)*tradeAmount) */\n      tag_280\n        /* \"src/Exchange.sol\":7221:7233  counterparty */\n      dup7\n        /* \"src/Exchange.sol\":7268:7279  tradeAmount */\n      dup3\n        /* \"src/Exchange.sol\":7256:7266  tokenPrice */\n      dup7\n        /* \"src/Exchange.sol\":7237:7244  Request */\n      dup6\n        /* \"src/Exchange.sol\":7237:7255  Request.tokenPrice */\n      0x60\n      add\n      mload\n        /* \"src/Exchange.sol\":7237:7266  Request.tokenPrice-tokenPrice */\n      tag_281\n      swap2\n      swap1\n      tag_163\n      jump\t// in\n    tag_281:\n        /* \"src/Exchange.sol\":7236:7279  (Request.tokenPrice-tokenPrice)*tradeAmount */\n      tag_282\n      swap2\n      swap1\n      tag_138\n      jump\t// in\n    tag_282:\n        /* \"src/Exchange.sol\":7203:7212  sendEther */\n      tag_139\n        /* \"src/Exchange.sol\":7203:7280  sendEther(payable(counterparty), (Request.tokenPrice-tokenPrice)*tradeAmount) */\n      jump\t// in\n    tag_280:\n        /* \"src/Exchange.sol\":7167:7280  if(Request.tokenPrice > tokenPrice) sendEther(payable(counterparty), (Request.tokenPrice-tokenPrice)*tradeAmount) */\n    tag_279:\n        /* \"src/Exchange.sol\":6921:7627  if (Request.TYPE == RequestTypes.BUY) {... */\n      jump(tag_283)\n    tag_269:\n        /* \"src/Exchange.sol\":7322:7334  tokenAddress */\n      dup7\n        /* \"src/Exchange.sol\":7315:7344  IERC20(tokenAddress).transfer */\n      0xffffffffffffffffffffffffffffffffffffffff\n      and\n      0xa9059cbb\n        /* \"src/Exchange.sol\":7345:7355  msg.sender */\n      caller\n        /* \"src/Exchange.sol\":7357:7368  tradeAmount */\n      dup4\n        /* \"src/Exchange.sol\":7315:7369  IERC20(tokenAddress).transfer(msg.sender, tradeAmount) */\n      mload(0x40)\n      dup4\n      0xffffffff\n      and\n      0xe0\n      shl\n      dup2\n      mstore\n      0x04\n      add\n      tag_284\n      swap3\n      swap2\n      swap1\n      tag_131\n      jump\t// in\n    tag_284:\n      0x20\n      mload(0x40)\n      dup1\n      dup4\n      sub\n      dup2\n      0x00\n      dup8\n      gas\n      call\n      iszero\n      dup1\n      iszero\n      tag_286\n      jumpi\n      returndatasize\n      0x00\n      dup1\n      returndatacopy\n      revert(0x00, returndatasize)\n    tag_286:\n      pop\n      pop\n      pop\n      pop\n      mload(0x40)\n      returndatasize\n      not(0x1f)\n      0x1f\n      dup3\n      add\n      and\n      dup3\n      add\n      dup1\n      0x40\n      mstore\n      pop\n      dup2\n      add\n      swap1\n      tag_287\n      swap2\n      swap1\n      tag_105\n      jump\t// in\n    tag_287:\n        /* \"src/Exchange.sol\":7311:7411  if(!IERC20(tokenAddress).transfer(msg.sender, tradeAmount)) revert(\"Token transfer to buyer failed\") */\n      tag_288\n      jumpi\n        /* \"src/Exchange.sol\":7371:7411  revert(\"Token transfer to buyer failed\") */\n      mload(0x40)\n      0x08c379a000000000000000000000000000000000000000000000000000000000\n      dup2\n      mstore\n      0x04\n      add\n      tag_289\n      swap1\n      tag_276\n      jump\t// in\n    tag_289:\n      mload(0x40)\n      dup1\n      swap2\n      sub\n      swap1\n      revert\n        /* \"src/Exchange.sol\":7311:7411  if(!IERC20(tokenAddress).transfer(msg.sender, tradeAmount)) revert(\"Token transfer to buyer failed\") */\n    tag_288:\n        /* \"src/Exchange.sol\":7426:7489  sendEther(payable(counterparty),tradeAmount*Request.tokenPrice) */\n      tag_290\n        /* \"src/Exchange.sol\":7444:7456  counterparty */\n      dup7\n        /* \"src/Exchange.sol\":7470:7477  Request */\n      dup4\n        /* \"src/Exchange.sol\":7470:7488  Request.tokenPrice */\n      0x60\n      add\n      mload\n        /* \"src/Exchange.sol\":7458:7469  tradeAmount */\n      dup4\n        /* \"src/Exchange.sol\":7458:7488  tradeAmount*Request.tokenPrice */\n      tag_291\n      swap2\n      swap1\n      tag_138\n      jump\t// in\n    tag_291:\n        /* \"src/Exchange.sol\":7426:7435  sendEther */\n      tag_139\n        /* \"src/Exchange.sol\":7426:7489  sendEther(payable(counterparty),tradeAmount*Request.tokenPrice) */\n      jump\t// in\n    tag_290:\n        /* \"src/Exchange.sol\":7528:7538  tokenPrice */\n      dup4\n        /* \"src/Exchange.sol\":7507:7514  Request */\n      dup3\n        /* \"src/Exchange.sol\":7507:7525  Request.tokenPrice */\n      0x60\n      add\n      mload\n        /* \"src/Exchange.sol\":7507:7538  Request.tokenPrice < tokenPrice */\n      lt\n        /* \"src/Exchange.sol\":7504:7615  if(Request.tokenPrice < tokenPrice) sendEther(payable(msg.sender), (tokenPrice-Request.tokenPrice)*tradeAmount) */\n      iszero\n      tag_292\n      jumpi\n        /* \"src/Exchange.sol\":7540:7615  sendEther(payable(msg.sender), (tokenPrice-Request.tokenPrice)*tradeAmount) */\n      tag_293\n        /* \"src/Exchange.sol\":7558:7568  msg.sender */\n      caller\n        /* \"src/Exchange.sol\":7603:7614  tradeAmount */\n      dup3\n        /* \"src/Exchange.sol\":7583:7590  Request */\n      dup5\n        /* \"src/Exchange.sol\":7583:7601  Request.tokenPrice */\n      0x60\n      add\n      mload\n        /* \"src/Exchange.sol\":7572:7582  tokenPrice */\n      dup8\n        /* \"src/Exchange.sol\":7572:7601  tokenPrice-Request.tokenPrice */\n      tag_294\n      swap2\n      swap1\n      tag_163\n      jump\t// in\n    tag_294:\n        /* \"src/Exchange.sol\":7571:7614  (tokenPrice-Request.tokenPrice)*tradeAmount */\n      tag_295\n      swap2\n      swap1\n      tag_138\n      jump\t// in\n    tag_295:\n        /* \"src/Exchange.sol\":7540:7549  sendEther */\n      tag_139\n        /* \"src/Exchange.sol\":7540:7615  sendEther(payable(msg.sender), (tokenPrice-Request.tokenPrice)*tradeAmount) */\n      jump\t// in\n    tag_293:\n        /* \"src/Exchange.sol\":7504:7615  if(Request.tokenPrice < tokenPrice) sendEther(payable(msg.sender), (tokenPrice-Request.tokenPrice)*tradeAmount) */\n    tag_292:\n        /* \"src/Exchange.sol\":6921:7627  if (Request.TYPE == RequestTypes.BUY) {... */\n    tag_283:\n        /* \"src/Exchange.sol\":7655:7666  tradeAmount */\n      dup1\n        /* \"src/Exchange.sol\":7637:7644  Request */\n      dup3\n        /* \"src/Exchange.sol\":7637:7651  Request.amount */\n      0x40\n      add\n        /* \"src/Exchange.sol\":7637:7666  Request.amount -= tradeAmount */\n      dup2\n      dup2\n      mload\n      tag_296\n      swap2\n      swap1\n      tag_163\n      jump\t// in\n    tag_296:\n      swap2\n      pop\n      dup2\n      dup2\n      mstore\n      pop\n      pop\n        /* \"src/Exchange.sol\":7699:7700  0 */\n      0x00\n        /* \"src/Exchange.sol\":7681:7688  Request */\n      dup3\n        /* \"src/Exchange.sol\":7681:7695  Request.amount */\n      0x40\n      add\n      mload\n        /* \"src/Exchange.sol\":7681:7700  Request.amount == 0 */\n      sub\n        /* \"src/Exchange.sol\":7677:7832  if (Request.amount == 0){... */\n      tag_297\n      jumpi\n        /* \"src/Exchange.sol\":7716:7743  removeRequest(counterparty) */\n      tag_298\n        /* \"src/Exchange.sol\":7730:7742  counterparty */\n      dup7\n        /* \"src/Exchange.sol\":7716:7729  removeRequest */\n      tag_141\n        /* \"src/Exchange.sol\":7716:7743  removeRequest(counterparty) */\n      jump\t// in\n    tag_298:\n        /* \"src/Exchange.sol\":7677:7832  if (Request.amount == 0){... */\n      jump(tag_299)\n    tag_297:\n        /* \"src/Exchange.sol\":7806:7813  Request */\n      dup2\n        /* \"src/Exchange.sol\":7806:7820  Request.amount */\n      0x40\n      add\n      mload\n        /* \"src/Exchange.sol\":7774:7782  Requests */\n      0x02\n        /* \"src/Exchange.sol\":7774:7796  Requests[counterparty] */\n      0x00\n        /* \"src/Exchange.sol\":7783:7795  counterparty */\n      dup9\n        /* \"src/Exchange.sol\":7774:7796  Requests[counterparty] */\n      0xffffffffffffffffffffffffffffffffffffffff\n      and\n      0xffffffffffffffffffffffffffffffffffffffff\n      and\n      dup2\n      mstore\n      0x20\n      add\n      swap1\n      dup2\n      mstore\n      0x20\n      add\n      0x00\n      keccak256\n        /* \"src/Exchange.sol\":7774:7803  Requests[counterparty].amount */\n      0x02\n      add\n        /* \"src/Exchange.sol\":7774:7820  Requests[counterparty].amount = Request.amount */\n      dup2\n      swap1\n      sstore\n      pop\n        /* \"src/Exchange.sol\":7677:7832  if (Request.amount == 0){... */\n    tag_299:\n        /* \"src/Exchange.sol\":7889:7901  counterparty */\n      dup6\n        /* \"src/Exchange.sol\":7847:7949  RequestExecuted(tokenAddress, msg.sender, counterparty, Request.TYPE, tradeAmount, Request.tokenPrice) */\n      0xffffffffffffffffffffffffffffffffffffffff\n      and\n        /* \"src/Exchange.sol\":7877:7887  msg.sender */\n      caller\n        /* \"src/Exchange.sol\":7847:7949  RequestExecuted(tokenAddress, msg.sender, counterparty, Request.TYPE, tradeAmount, Request.tokenPrice) */\n      0xffffffffffffffffffffffffffffffffffffffff\n      and\n        /* \"src/Exchange.sol\":7863:7875  tokenAddress */\n      dup9\n        /* \"src/Exchange.sol\":7847:7949  RequestExecuted(tokenAddress, msg.sender, counterparty, Request.TYPE, tradeAmount, Request.tokenPrice) */\n      0xffffffffffffffffffffffffffffffffffffffff\n      and\n      0x1ce728f6a2703272ee2e07cf07fd21ddc592575a5b6774a529b595fdf56dd1a6\n        /* \"src/Exchange.sol\":7903:7910  Request */\n      dup6\n        /* \"src/Exchange.sol\":7903:7915  Request.TYPE */\n      0x80\n      add\n      mload\n        /* \"src/Exchange.sol\":7917:7928  tradeAmount */\n      dup6\n        /* \"src/Exchange.sol\":7930:7937  Request */\n      dup8\n        /* \"src/Exchange.sol\":7930:7948  Request.tokenPrice */\n      0x60\n      add\n      mload\n        /* \"src/Exchange.sol\":7847:7949  RequestExecuted(tokenAddress, msg.sender, counterparty, Request.TYPE, tradeAmount, Request.tokenPrice) */\n      mload(0x40)\n      tag_300\n      swap4\n      swap3\n      swap2\n      swap1\n      tag_301\n      jump\t// in\n    tag_300:\n      mload(0x40)\n      dup1\n      swap2\n      sub\n      swap1\n      log4\n        /* \"src/Exchange.sol\":7975:7986  tradeAmount */\n      dup1\n        /* \"src/Exchange.sol\":7967:7986  amount-=tradeAmount */\n      dup6\n      tag_302\n      swap2\n      swap1\n      tag_163\n      jump\t// in\n    tag_302:\n      swap5\n      pop\n      dup5\n        /* \"src/Exchange.sol\":7960:7986  return amount-=tradeAmount */\n      swap3\n      pop\n      pop\n      pop\n        /* \"src/Exchange.sol\":6637:7994  function executeRequests(address tokenAddress, address counterparty, uint256 amount, uint256 tokenPrice) private returns(uint256){... */\n      swap5\n      swap4\n      pop\n      pop\n      pop\n      pop\n      jump\t// out\n        /* \"src/Exchange.sol\":8064:8681  function addRequest(address _tokenAddress, uint256 _amount, uint256 _tokenPrice, RequestTypes _TYPE) private {... */\n    tag_208:\n        /* \"src/Exchange.sol\":8184:8213  address[] storage requestants */\n      0x00\n        /* \"src/Exchange.sol\":8224:8241  RequestTypes.SELL */\n      0x01\n        /* \"src/Exchange.sol\":8217:8241  _TYPE!=RequestTypes.SELL */\n      0x02\n      dup2\n      gt\n      iszero\n      tag_304\n      jumpi\n      tag_305\n      tag_71\n      jump\t// in\n    tag_305:\n    tag_304:\n        /* \"src/Exchange.sol\":8217:8222  _TYPE */\n      dup3\n        /* \"src/Exchange.sol\":8217:8241  _TYPE!=RequestTypes.SELL */\n      0x02\n      dup2\n      gt\n      iszero\n      tag_306\n      jumpi\n      tag_307\n      tag_71\n      jump\t// in\n    tag_307:\n    tag_306:\n      sub\n        /* \"src/Exchange.sol\":8217:8306  _TYPE!=RequestTypes.SELL ? buyRequestants[_tokenAddress] : sellRequestants[_tokenAddress] */\n      tag_308\n      jumpi\n        /* \"src/Exchange.sol\":8276:8291  sellRequestants */\n      0x03\n        /* \"src/Exchange.sol\":8276:8306  sellRequestants[_tokenAddress] */\n      0x00\n        /* \"src/Exchange.sol\":8292:8305  _tokenAddress */\n      dup7\n        /* \"src/Exchange.sol\":8276:8306  sellRequestants[_tokenAddress] */\n      0xffffffffffffffffffffffffffffffffffffffff\n      and\n      0xffffffffffffffffffffffffffffffffffffffff\n      and\n      dup2\n      mstore\n      0x20\n      add\n      swap1\n      dup2\n      mstore\n      0x20\n      add\n      0x00\n      keccak256\n        /* \"src/Exchange.sol\":8217:8306  _TYPE!=RequestTypes.SELL ? buyRequestants[_tokenAddress] : sellRequestants[_tokenAddress] */\n      jump(tag_309)\n    tag_308:\n        /* \"src/Exchange.sol\":8244:8258  buyRequestants */\n      0x04\n        /* \"src/Exchange.sol\":8244:8273  buyRequestants[_tokenAddress] */\n      0x00\n        /* \"src/Exchange.sol\":8259:8272  _tokenAddress */\n      dup7\n        /* \"src/Exchange.sol\":8244:8273  buyRequestants[_tokenAddress] */\n      0xffffffffffffffffffffffffffffffffffffffff\n      and\n      0xffffffffffffffffffffffffffffffffffffffff\n      and\n      dup2\n      mstore\n      0x20\n      add\n      swap1\n      dup2\n      mstore\n      0x20\n      add\n      0x00\n      keccak256\n        /* \"src/Exchange.sol\":8217:8306  _TYPE!=RequestTypes.SELL ? buyRequestants[_tokenAddress] : sellRequestants[_tokenAddress] */\n    tag_309:\n        /* \"src/Exchange.sol\":8184:8307  address[] storage requestants = (_TYPE!=RequestTypes.SELL ? buyRequestants[_tokenAddress] : sellRequestants[_tokenAddress]) */\n      swap1\n      pop\n        /* \"src/Exchange.sol\":8318:8329  requestants */\n      dup1\n        /* \"src/Exchange.sol\":8335:8345  msg.sender */\n      caller\n        /* \"src/Exchange.sol\":8318:8346  requestants.push(msg.sender) */\n      swap1\n      dup1\n      0x01\n      dup2\n      sload\n      add\n      dup1\n      dup3\n      sstore\n      dup1\n      swap2\n      pop\n      pop\n      0x01\n      swap1\n      sub\n      swap1\n      0x00\n      mstore\n      keccak256(0x00, 0x20)\n      add\n      0x00\n      swap1\n      swap2\n      swap1\n      swap2\n      swap1\n      swap2\n      0x0100\n      exp\n      dup2\n      sload\n      dup2\n      0xffffffffffffffffffffffffffffffffffffffff\n      mul\n      not\n      and\n      swap1\n      dup4\n      0xffffffffffffffffffffffffffffffffffffffff\n      and\n      mul\n      or\n      swap1\n      sstore\n      pop\n        /* \"src/Exchange.sol\":8380:8587  UserRequest({... */\n      mload(0x40)\n      dup1\n      0xa0\n      add\n      0x40\n      mstore\n      dup1\n        /* \"src/Exchange.sol\":8422:8435  _tokenAddress */\n      dup7\n        /* \"src/Exchange.sol\":8380:8587  UserRequest({... */\n      0xffffffffffffffffffffffffffffffffffffffff\n      and\n      dup2\n      mstore\n      0x20\n      add\n        /* \"src/Exchange.sol\":8477:8478  1 */\n      0x01\n        /* \"src/Exchange.sol\":8458:8469  requestants */\n      dup4\n        /* \"src/Exchange.sol\":8458:8476  requestants.length */\n      dup1\n      sload\n      swap1\n      pop\n        /* \"src/Exchange.sol\":8458:8478  requestants.length-1 */\n      tag_311\n      swap2\n      swap1\n      tag_163\n      jump\t// in\n    tag_311:\n        /* \"src/Exchange.sol\":8380:8587  UserRequest({... */\n      dup2\n      mstore\n      0x20\n      add\n        /* \"src/Exchange.sol\":8502:8509  _amount */\n      dup6\n        /* \"src/Exchange.sol\":8380:8587  UserRequest({... */\n      dup2\n      mstore\n      0x20\n      add\n        /* \"src/Exchange.sol\":8537:8548  _tokenPrice */\n      dup5\n        /* \"src/Exchange.sol\":8380:8587  UserRequest({... */\n      dup2\n      mstore\n      0x20\n      add\n        /* \"src/Exchange.sol\":8570:8575  _TYPE */\n      dup4\n        /* \"src/Exchange.sol\":8380:8587  UserRequest({... */\n      0x02\n      dup2\n      gt\n      iszero\n      tag_312\n      jumpi\n      tag_313\n      tag_71\n      jump\t// in\n    tag_313:\n    tag_312:\n      dup2\n      mstore\n      pop\n        /* \"src/Exchange.sol\":8357:8365  Requests */\n      0x02\n        /* \"src/Exchange.sol\":8357:8377  Requests[msg.sender] */\n      0x00\n        /* \"src/Exchange.sol\":8366:8376  msg.sender */\n      caller\n        /* \"src/Exchange.sol\":8357:8377  Requests[msg.sender] */\n      0xffffffffffffffffffffffffffffffffffffffff\n      and\n      0xffffffffffffffffffffffffffffffffffffffff\n      and\n      dup2\n      mstore\n      0x20\n      add\n      swap1\n      dup2\n      mstore\n      0x20\n      add\n      0x00\n      keccak256\n        /* \"src/Exchange.sol\":8357:8587  Requests[msg.sender] = UserRequest({... */\n      0x00\n      dup3\n      add\n      mload\n      dup2\n      0x00\n      add\n      exp(0x0100, 0x00)\n      dup2\n      sload\n      dup2\n      0xffffffffffffffffffffffffffffffffffffffff\n      mul\n      not\n      and\n      swap1\n      dup4\n      0xffffffffffffffffffffffffffffffffffffffff\n      and\n      mul\n      or\n      swap1\n      sstore\n      pop\n      0x20\n      dup3\n      add\n      mload\n      dup2\n      0x01\n      add\n      sstore\n      0x40\n      dup3\n      add\n      mload\n      dup2\n      0x02\n      add\n      sstore\n      0x60\n      dup3\n      add\n      mload\n      dup2\n      0x03\n      add\n      sstore\n      0x80\n      dup3\n      add\n      mload\n      dup2\n      0x04\n      add\n      exp(0x0100, 0x00)\n      dup2\n      sload\n      dup2\n      0xff\n      mul\n      not\n      and\n      swap1\n      dup4\n      0x02\n      dup2\n      gt\n      iszero\n      tag_314\n      jumpi\n      tag_315\n      tag_71\n      jump\t// in\n    tag_315:\n    tag_314:\n      mul\n      or\n      swap1\n      sstore\n      pop\n      swap1\n      pop\n      pop\n        /* \"src/Exchange.sol\":8633:8643  msg.sender */\n      caller\n        /* \"src/Exchange.sol\":8603:8673  RequestCreated(_tokenAddress, msg.sender, _TYPE, _amount, _tokenPrice) */\n      0xffffffffffffffffffffffffffffffffffffffff\n      and\n        /* \"src/Exchange.sol\":8618:8631  _tokenAddress */\n      dup6\n        /* \"src/Exchange.sol\":8603:8673  RequestCreated(_tokenAddress, msg.sender, _TYPE, _amount, _tokenPrice) */\n      0xffffffffffffffffffffffffffffffffffffffff\n      and\n      0xba9e7b0a1a964fea173e3888ffbcbe410fca9a481f92cf8fc8b76a1b70f31d68\n        /* \"src/Exchange.sol\":8645:8650  _TYPE */\n      dup5\n        /* \"src/Exchange.sol\":8652:8659  _amount */\n      dup8\n        /* \"src/Exchange.sol\":8661:8672  _tokenPrice */\n      dup8\n        /* \"src/Exchange.sol\":8603:8673  RequestCreated(_tokenAddress, msg.sender, _TYPE, _amount, _tokenPrice) */\n      mload(0x40)\n      tag_316\n      swap4\n      swap3\n      swap2\n      swap1\n      tag_301\n      jump\t// in\n    tag_316:\n      mload(0x40)\n      dup1\n      swap2\n      sub\n      swap1\n      log3\n        /* \"src/Exchange.sol\":8173:8681  {... */\n      pop\n        /* \"src/Exchange.sol\":8064:8681  function addRequest(address _tokenAddress, uint256 _amount, uint256 _tokenPrice, RequestTypes _TYPE) private {... */\n      pop\n      pop\n      pop\n      pop\n      jump\t// out\n        /* \"#utility.yul\":7:97   */\n    tag_317:\n        /* \"#utility.yul\":41:48   */\n      0x00\n        /* \"#utility.yul\":84:89   */\n      dup2\n        /* \"#utility.yul\":77:90   */\n      iszero\n        /* \"#utility.yul\":70:91   */\n      iszero\n        /* \"#utility.yul\":59:91   */\n      swap1\n      pop\n        /* \"#utility.yul\":7:97   */\n      swap2\n      swap1\n      pop\n      jump\t// out\n        /* \"#utility.yul\":103:212   */\n    tag_318:\n        /* \"#utility.yul\":184:205   */\n      tag_362\n        /* \"#utility.yul\":199:204   */\n      dup2\n        /* \"#utility.yul\":184:205   */\n      tag_317\n      jump\t// in\n    tag_362:\n        /* \"#utility.yul\":179:182   */\n      dup3\n        /* \"#utility.yul\":172:206   */\n      mstore\n        /* \"#utility.yul\":103:212   */\n      pop\n      pop\n      jump\t// out\n        /* \"#utility.yul\":218:428   */\n    tag_17:\n        /* \"#utility.yul\":305:309   */\n      0x00\n        /* \"#utility.yul\":343:345   */\n      0x20\n        /* \"#utility.yul\":332:341   */\n      dup3\n        /* \"#utility.yul\":328:346   */\n      add\n        /* \"#utility.yul\":320:346   */\n      swap1\n      pop\n        /* \"#utility.yul\":356:421   */\n      tag_364\n        /* \"#utility.yul\":418:419   */\n      0x00\n        /* \"#utility.yul\":407:416   */\n      dup4\n        /* \"#utility.yul\":403:420   */\n      add\n        /* \"#utility.yul\":394:400   */\n      dup5\n        /* \"#utility.yul\":356:421   */\n      tag_318\n      jump\t// in\n    tag_364:\n        /* \"#utility.yul\":218:428   */\n      swap3\n      swap2\n      pop\n      pop\n      jump\t// out\n        /* \"#utility.yul\":515:632   */\n    tag_320:\n        /* \"#utility.yul\":624:625   */\n      0x00\n        /* \"#utility.yul\":621:622   */\n      dup1\n        /* \"#utility.yul\":614:626   */\n      revert\n        /* \"#utility.yul\":761:887   */\n    tag_322:\n        /* \"#utility.yul\":798:805   */\n      0x00\n        /* \"#utility.yul\":838:880   */\n      0xffffffffffffffffffffffffffffffffffffffff\n        /* \"#utility.yul\":831:836   */\n      dup3\n        /* \"#utility.yul\":827:881   */\n      and\n        /* \"#utility.yul\":816:881   */\n      swap1\n      pop\n        /* \"#utility.yul\":761:887   */\n      swap2\n      swap1\n      pop\n      jump\t// out\n        /* \"#utility.yul\":893:989   */\n    tag_323:\n        /* \"#utility.yul\":930:937   */\n      0x00\n        /* \"#utility.yul\":959:983   */\n      tag_370\n        /* \"#utility.yul\":977:982   */\n      dup3\n        /* \"#utility.yul\":959:983   */\n      tag_322\n      jump\t// in\n    tag_370:\n        /* \"#utility.yul\":948:983   */\n      swap1\n      pop\n        /* \"#utility.yul\":893:989   */\n      swap2\n      swap1\n      pop\n      jump\t// out\n        /* \"#utility.yul\":995:1117   */\n    tag_324:\n        /* \"#utility.yul\":1068:1092   */\n      tag_372\n        /* \"#utility.yul\":1086:1091   */\n      dup2\n        /* \"#utility.yul\":1068:1092   */\n      tag_323\n      jump\t// in\n    tag_372:\n        /* \"#utility.yul\":1061:1066   */\n      dup2\n        /* \"#utility.yul\":1058:1093   */\n      eq\n        /* \"#utility.yul\":1048:1111   */\n      tag_373\n      jumpi\n        /* \"#utility.yul\":1107:1108   */\n      0x00\n        /* \"#utility.yul\":1104:1105   */\n      dup1\n        /* \"#utility.yul\":1097:1109   */\n      revert\n        /* \"#utility.yul\":1048:1111   */\n    tag_373:\n        /* \"#utility.yul\":995:1117   */\n      pop\n      jump\t// out\n        /* \"#utility.yul\":1123:1262   */\n    tag_325:\n        /* \"#utility.yul\":1169:1174   */\n      0x00\n        /* \"#utility.yul\":1207:1213   */\n      dup2\n        /* \"#utility.yul\":1194:1214   */\n      calldataload\n        /* \"#utility.yul\":1185:1214   */\n      swap1\n      pop\n        /* \"#utility.yul\":1223:1256   */\n      tag_375\n        /* \"#utility.yul\":1250:1255   */\n      dup2\n        /* \"#utility.yul\":1223:1256   */\n      tag_324\n      jump\t// in\n    tag_375:\n        /* \"#utility.yul\":1123:1262   */\n      swap3\n      swap2\n      pop\n      pop\n      jump\t// out\n        /* \"#utility.yul\":1268:1597   */\n    tag_21:\n        /* \"#utility.yul\":1327:1333   */\n      0x00\n        /* \"#utility.yul\":1376:1378   */\n      0x20\n        /* \"#utility.yul\":1364:1373   */\n      dup3\n        /* \"#utility.yul\":1355:1362   */\n      dup5\n        /* \"#utility.yul\":1351:1374   */\n      sub\n        /* \"#utility.yul\":1347:1379   */\n      slt\n        /* \"#utility.yul\":1344:1463   */\n      iszero\n      tag_377\n      jumpi\n        /* \"#utility.yul\":1382:1461   */\n      tag_378\n      tag_320\n      jump\t// in\n    tag_378:\n        /* \"#utility.yul\":1344:1463   */\n    tag_377:\n        /* \"#utility.yul\":1502:1503   */\n      0x00\n        /* \"#utility.yul\":1527:1580   */\n      tag_379\n        /* \"#utility.yul\":1572:1579   */\n      dup5\n        /* \"#utility.yul\":1563:1569   */\n      dup3\n        /* \"#utility.yul\":1552:1561   */\n      dup6\n        /* \"#utility.yul\":1548:1570   */\n      add\n        /* \"#utility.yul\":1527:1580   */\n      tag_325\n      jump\t// in\n    tag_379:\n        /* \"#utility.yul\":1517:1580   */\n      swap2\n      pop\n        /* \"#utility.yul\":1473:1590   */\n      pop\n        /* \"#utility.yul\":1268:1597   */\n      swap3\n      swap2\n      pop\n      pop\n      jump\t// out\n        /* \"#utility.yul\":1603:1721   */\n    tag_326:\n        /* \"#utility.yul\":1690:1714   */\n      tag_381\n        /* \"#utility.yul\":1708:1713   */\n      dup2\n        /* \"#utility.yul\":1690:1714   */\n      tag_323\n      jump\t// in\n    tag_381:\n        /* \"#utility.yul\":1685:1688   */\n      dup3\n        /* \"#utility.yul\":1678:1715   */\n      mstore\n        /* \"#utility.yul\":1603:1721   */\n      pop\n      pop\n      jump\t// out\n        /* \"#utility.yul\":1727:1804   */\n    tag_327:\n        /* \"#utility.yul\":1764:1771   */\n      0x00\n        /* \"#utility.yul\":1793:1798   */\n      dup2\n        /* \"#utility.yul\":1782:1798   */\n      swap1\n      pop\n        /* \"#utility.yul\":1727:1804   */\n      swap2\n      swap1\n      pop\n      jump\t// out\n        /* \"#utility.yul\":1810:1928   */\n    tag_328:\n        /* \"#utility.yul\":1897:1921   */\n      tag_384\n        /* \"#utility.yul\":1915:1920   */\n      dup2\n        /* \"#utility.yul\":1897:1921   */\n      tag_327\n      jump\t// in\n    tag_384:\n        /* \"#utility.yul\":1892:1895   */\n      dup3\n        /* \"#utility.yul\":1885:1922   */\n      mstore\n        /* \"#utility.yul\":1810:1928   */\n      pop\n      pop\n      jump\t// out\n        /* \"#utility.yul\":1934:2114   */\n    tag_71:\n        /* \"#utility.yul\":1982:2059   */\n      0x4e487b7100000000000000000000000000000000000000000000000000000000\n        /* \"#utility.yul\":1979:1980   */\n      0x00\n        /* \"#utility.yul\":1972:2060   */\n      mstore\n        /* \"#utility.yul\":2079:2083   */\n      0x21\n        /* \"#utility.yul\":2076:2077   */\n      0x04\n        /* \"#utility.yul\":2069:2084   */\n      mstore\n        /* \"#utility.yul\":2103:2107   */\n      0x24\n        /* \"#utility.yul\":2100:2101   */\n      0x00\n        /* \"#utility.yul\":2093:2108   */\n      revert\n        /* \"#utility.yul\":2120:2240   */\n    tag_329:\n        /* \"#utility.yul\":2208:2209   */\n      0x03\n        /* \"#utility.yul\":2201:2206   */\n      dup2\n        /* \"#utility.yul\":2198:2210   */\n      lt\n        /* \"#utility.yul\":2188:2234   */\n      tag_387\n      jumpi\n        /* \"#utility.yul\":2214:2232   */\n      tag_388\n      tag_71\n      jump\t// in\n    tag_388:\n        /* \"#utility.yul\":2188:2234   */\n    tag_387:\n        /* \"#utility.yul\":2120:2240   */\n      pop\n      jump\t// out\n        /* \"#utility.yul\":2246:2387   */\n    tag_330:\n        /* \"#utility.yul\":2298:2305   */\n      0x00\n        /* \"#utility.yul\":2327:2332   */\n      dup2\n        /* \"#utility.yul\":2316:2332   */\n      swap1\n      pop\n        /* \"#utility.yul\":2333:2381   */\n      tag_390\n        /* \"#utility.yul\":2375:2380   */\n      dup3\n        /* \"#utility.yul\":2333:2381   */\n      tag_329\n      jump\t// in\n    tag_390:\n        /* \"#utility.yul\":2246:2387   */\n      swap2\n      swap1\n      pop\n      jump\t// out\n        /* \"#utility.yul\":2393:2534   */\n    tag_331:\n        /* \"#utility.yul\":2456:2465   */\n      0x00\n        /* \"#utility.yul\":2489:2528   */\n      tag_392\n        /* \"#utility.yul\":2522:2527   */\n      dup3\n        /* \"#utility.yul\":2489:2528   */\n      tag_330\n      jump\t// in\n    tag_392:\n        /* \"#utility.yul\":2476:2528   */\n      swap1\n      pop\n        /* \"#utility.yul\":2393:2534   */\n      swap2\n      swap1\n      pop\n      jump\t// out\n        /* \"#utility.yul\":2540:2697   */\n    tag_332:\n        /* \"#utility.yul\":2640:2690   */\n      tag_394\n        /* \"#utility.yul\":2684:2689   */\n      dup2\n        /* \"#utility.yul\":2640:2690   */\n      tag_331\n      jump\t// in\n    tag_394:\n        /* \"#utility.yul\":2635:2638   */\n      dup3\n        /* \"#utility.yul\":2628:2691   */\n      mstore\n        /* \"#utility.yul\":2540:2697   */\n      pop\n      pop\n      jump\t// out\n        /* \"#utility.yul\":2703:3393   */\n    tag_24:\n        /* \"#utility.yul\":2921:2925   */\n      0x00\n        /* \"#utility.yul\":2959:2962   */\n      0xa0\n        /* \"#utility.yul\":2948:2957   */\n      dup3\n        /* \"#utility.yul\":2944:2963   */\n      add\n        /* \"#utility.yul\":2936:2963   */\n      swap1\n      pop\n        /* \"#utility.yul\":2973:3044   */\n      tag_396\n        /* \"#utility.yul\":3041:3042   */\n      0x00\n        /* \"#utility.yul\":3030:3039   */\n      dup4\n        /* \"#utility.yul\":3026:3043   */\n      add\n        /* \"#utility.yul\":3017:3023   */\n      dup9\n        /* \"#utility.yul\":2973:3044   */\n      tag_326\n      jump\t// in\n    tag_396:\n        /* \"#utility.yul\":3054:3126   */\n      tag_397\n        /* \"#utility.yul\":3122:3124   */\n      0x20\n        /* \"#utility.yul\":3111:3120   */\n      dup4\n        /* \"#utility.yul\":3107:3125   */\n      add\n        /* \"#utility.yul\":3098:3104   */\n      dup8\n        /* \"#utility.yul\":3054:3126   */\n      tag_328\n      jump\t// in\n    tag_397:\n        /* \"#utility.yul\":3136:3208   */\n      tag_398\n        /* \"#utility.yul\":3204:3206   */\n      0x40\n        /* \"#utility.yul\":3193:3202   */\n      dup4\n        /* \"#utility.yul\":3189:3207   */\n      add\n        /* \"#utility.yul\":3180:3186   */\n      dup7\n        /* \"#utility.yul\":3136:3208   */\n      tag_328\n      jump\t// in\n    tag_398:\n        /* \"#utility.yul\":3218:3290   */\n      tag_399\n        /* \"#utility.yul\":3286:3288   */\n      0x60\n        /* \"#utility.yul\":3275:3284   */\n      dup4\n        /* \"#utility.yul\":3271:3289   */\n      add\n        /* \"#utility.yul\":3262:3268   */\n      dup6\n        /* \"#utility.yul\":3218:3290   */\n      tag_328\n      jump\t// in\n    tag_399:\n        /* \"#utility.yul\":3300:3386   */\n      tag_400\n        /* \"#utility.yul\":3381:3384   */\n      0x80\n        /* \"#utility.yul\":3370:3379   */\n      dup4\n        /* \"#utility.yul\":3366:3385   */\n      add\n        /* \"#utility.yul\":3357:3363   */\n      dup5\n        /* \"#utility.yul\":3300:3386   */\n      tag_332\n      jump\t// in\n    tag_400:\n        /* \"#utility.yul\":2703:3393   */\n      swap7\n      swap6\n      pop\n      pop\n      pop\n      pop\n      pop\n      pop\n      jump\t// out\n        /* \"#utility.yul\":3399:3521   */\n    tag_333:\n        /* \"#utility.yul\":3472:3496   */\n      tag_402\n        /* \"#utility.yul\":3490:3495   */\n      dup2\n        /* \"#utility.yul\":3472:3496   */\n      tag_327\n      jump\t// in\n    tag_402:\n        /* \"#utility.yul\":3465:3470   */\n      dup2\n        /* \"#utility.yul\":3462:3497   */\n      eq\n        /* \"#utility.yul\":3452:3515   */\n      tag_403\n      jumpi\n        /* \"#utility.yul\":3511:3512   */\n      0x00\n        /* \"#utility.yul\":3508:3509   */\n      dup1\n        /* \"#utility.yul\":3501:3513   */\n      revert\n        /* \"#utility.yul\":3452:3515   */\n    tag_403:\n        /* \"#utility.yul\":3399:3521   */\n      pop\n      jump\t// out\n        /* \"#utility.yul\":3527:3666   */\n    tag_334:\n        /* \"#utility.yul\":3573:3578   */\n      0x00\n        /* \"#utility.yul\":3611:3617   */\n      dup2\n        /* \"#utility.yul\":3598:3618   */\n      calldataload\n        /* \"#utility.yul\":3589:3618   */\n      swap1\n      pop\n        /* \"#utility.yul\":3627:3660   */\n      tag_405\n        /* \"#utility.yul\":3654:3659   */\n      dup2\n        /* \"#utility.yul\":3627:3660   */\n      tag_333\n      jump\t// in\n    tag_405:\n        /* \"#utility.yul\":3527:3666   */\n      swap3\n      swap2\n      pop\n      pop\n      jump\t// out\n        /* \"#utility.yul\":3672:4146   */\n    tag_28:\n        /* \"#utility.yul\":3740:3746   */\n      0x00\n        /* \"#utility.yul\":3748:3754   */\n      dup1\n        /* \"#utility.yul\":3797:3799   */\n      0x40\n        /* \"#utility.yul\":3785:3794   */\n      dup4\n        /* \"#utility.yul\":3776:3783   */\n      dup6\n        /* \"#utility.yul\":3772:3795   */\n      sub\n        /* \"#utility.yul\":3768:3800   */\n      slt\n        /* \"#utility.yul\":3765:3884   */\n      iszero\n      tag_407\n      jumpi\n        /* \"#utility.yul\":3803:3882   */\n      tag_408\n      tag_320\n      jump\t// in\n    tag_408:\n        /* \"#utility.yul\":3765:3884   */\n    tag_407:\n        /* \"#utility.yul\":3923:3924   */\n      0x00\n        /* \"#utility.yul\":3948:4001   */\n      tag_409\n        /* \"#utility.yul\":3993:4000   */\n      dup6\n        /* \"#utility.yul\":3984:3990   */\n      dup3\n        /* \"#utility.yul\":3973:3982   */\n      dup7\n        /* \"#utility.yul\":3969:3991   */\n      add\n        /* \"#utility.yul\":3948:4001   */\n      tag_325\n      jump\t// in\n    tag_409:\n        /* \"#utility.yul\":3938:4001   */\n      swap3\n      pop\n        /* \"#utility.yul\":3894:4011   */\n      pop\n        /* \"#utility.yul\":4050:4052   */\n      0x20\n        /* \"#utility.yul\":4076:4129   */\n      tag_410\n        /* \"#utility.yul\":4121:4128   */\n      dup6\n        /* \"#utility.yul\":4112:4118   */\n      dup3\n        /* \"#utility.yul\":4101:4110   */\n      dup7\n        /* \"#utility.yul\":4097:4119   */\n      add\n        /* \"#utility.yul\":4076:4129   */\n      tag_334\n      jump\t// in\n    tag_410:\n        /* \"#utility.yul\":4066:4129   */\n      swap2\n      pop\n        /* \"#utility.yul\":4021:4139   */\n      pop\n        /* \"#utility.yul\":3672:4146   */\n      swap3\n      pop\n      swap3\n      swap1\n      pop\n      jump\t// out\n        /* \"#utility.yul\":4152:4374   */\n    tag_31:\n        /* \"#utility.yul\":4245:4249   */\n      0x00\n        /* \"#utility.yul\":4283:4285   */\n      0x20\n        /* \"#utility.yul\":4272:4281   */\n      dup3\n        /* \"#utility.yul\":4268:4286   */\n      add\n        /* \"#utility.yul\":4260:4286   */\n      swap1\n      pop\n        /* \"#utility.yul\":4296:4367   */\n      tag_412\n        /* \"#utility.yul\":4364:4365   */\n      0x00\n        /* \"#utility.yul\":4353:4362   */\n      dup4\n        /* \"#utility.yul\":4349:4366   */\n      add\n        /* \"#utility.yul\":4340:4346   */\n      dup5\n        /* \"#utility.yul\":4296:4367   */\n      tag_326\n      jump\t// in\n    tag_412:\n        /* \"#utility.yul\":4152:4374   */\n      swap3\n      swap2\n      pop\n      pop\n      jump\t// out\n        /* \"#utility.yul\":4380:4999   */\n    tag_35:\n        /* \"#utility.yul\":4457:4463   */\n      0x00\n        /* \"#utility.yul\":4465:4471   */\n      dup1\n        /* \"#utility.yul\":4473:4479   */\n      0x00\n        /* \"#utility.yul\":4522:4524   */\n      0x60\n        /* \"#utility.yul\":4510:4519   */\n      dup5\n        /* \"#utility.yul\":4501:4508   */\n      dup7\n        /* \"#utility.yul\":4497:4520   */\n      sub\n        /* \"#utility.yul\":4493:4525   */\n      slt\n        /* \"#utility.yul\":4490:4609   */\n      iszero\n      tag_414\n      jumpi\n        /* \"#utility.yul\":4528:4607   */\n      tag_415\n      tag_320\n      jump\t// in\n    tag_415:\n        /* \"#utility.yul\":4490:4609   */\n    tag_414:\n        /* \"#utility.yul\":4648:4649   */\n      0x00\n        /* \"#utility.yul\":4673:4726   */\n      tag_416\n        /* \"#utility.yul\":4718:4725   */\n      dup7\n        /* \"#utility.yul\":4709:4715   */\n      dup3\n        /* \"#utility.yul\":4698:4707   */\n      dup8\n        /* \"#utility.yul\":4694:4716   */\n      add\n        /* \"#utility.yul\":4673:4726   */\n      tag_325\n      jump\t// in\n    tag_416:\n        /* \"#utility.yul\":4663:4726   */\n      swap4\n      pop\n        /* \"#utility.yul\":4619:4736   */\n      pop\n        /* \"#utility.yul\":4775:4777   */\n      0x20\n        /* \"#utility.yul\":4801:4854   */\n      tag_417\n        /* \"#utility.yul\":4846:4853   */\n      dup7\n        /* \"#utility.yul\":4837:4843   */\n      dup3\n        /* \"#utility.yul\":4826:4835   */\n      dup8\n        /* \"#utility.yul\":4822:4844   */\n      add\n        /* \"#utility.yul\":4801:4854   */\n      tag_334\n      jump\t// in\n    tag_417:\n        /* \"#utility.yul\":4791:4854   */\n      swap3\n      pop\n        /* \"#utility.yul\":4746:4864   */\n      pop\n        /* \"#utility.yul\":4903:4905   */\n      0x40\n        /* \"#utility.yul\":4929:4982   */\n      tag_418\n        /* \"#utility.yul\":4974:4981   */\n      dup7\n        /* \"#utility.yul\":4965:4971   */\n      dup3\n        /* \"#utility.yul\":4954:4963   */\n      dup8\n        /* \"#utility.yul\":4950:4972   */\n      add\n        /* \"#utility.yul\":4929:4982   */\n      tag_334\n      jump\t// in\n    tag_418:\n        /* \"#utility.yul\":4919:4982   */\n      swap2\n      pop\n        /* \"#utility.yul\":4874:4992   */\n      pop\n        /* \"#utility.yul\":4380:4999   */\n      swap3\n      pop\n      swap3\n      pop\n      swap3\n      jump\t// out\n        /* \"#utility.yul\":5005:5174   */\n    tag_335:\n        /* \"#utility.yul\":5089:5100   */\n      0x00\n        /* \"#utility.yul\":5123:5129   */\n      dup3\n        /* \"#utility.yul\":5118:5121   */\n      dup3\n        /* \"#utility.yul\":5111:5130   */\n      mstore\n        /* \"#utility.yul\":5163:5167   */\n      0x20\n        /* \"#utility.yul\":5158:5161   */\n      dup3\n        /* \"#utility.yul\":5154:5168   */\n      add\n        /* \"#utility.yul\":5139:5168   */\n      swap1\n      pop\n        /* \"#utility.yul\":5005:5174   */\n      swap3\n      swap2\n      pop\n      pop\n      jump\t// out\n        /* \"#utility.yul\":5180:5354   */\n    tag_336:\n        /* \"#utility.yul\":5320:5346   */\n      0x43616c6c6572206973206e6f7420617574686f72697a65640000000000000000\n        /* \"#utility.yul\":5316:5317   */\n      0x00\n        /* \"#utility.yul\":5308:5314   */\n      dup3\n        /* \"#utility.yul\":5304:5318   */\n      add\n        /* \"#utility.yul\":5297:5347   */\n      mstore\n        /* \"#utility.yul\":5180:5354   */\n      pop\n      jump\t// out\n        /* \"#utility.yul\":5360:5726   */\n    tag_337:\n        /* \"#utility.yul\":5502:5505   */\n      0x00\n        /* \"#utility.yul\":5523:5590   */\n      tag_422\n        /* \"#utility.yul\":5587:5589   */\n      0x18\n        /* \"#utility.yul\":5582:5585   */\n      dup4\n        /* \"#utility.yul\":5523:5590   */\n      tag_335\n      jump\t// in\n    tag_422:\n        /* \"#utility.yul\":5516:5590   */\n      swap2\n      pop\n        /* \"#utility.yul\":5599:5692   */\n      tag_423\n        /* \"#utility.yul\":5688:5691   */\n      dup3\n        /* \"#utility.yul\":5599:5692   */\n      tag_336\n      jump\t// in\n    tag_423:\n        /* \"#utility.yul\":5717:5719   */\n      0x20\n        /* \"#utility.yul\":5712:5715   */\n      dup3\n        /* \"#utility.yul\":5708:5720   */\n      add\n        /* \"#utility.yul\":5701:5720   */\n      swap1\n      pop\n        /* \"#utility.yul\":5360:5726   */\n      swap2\n      swap1\n      pop\n      jump\t// out\n        /* \"#utility.yul\":5732:6151   */\n    tag_64:\n        /* \"#utility.yul\":5898:5902   */\n      0x00\n        /* \"#utility.yul\":5936:5938   */\n      0x20\n        /* \"#utility.yul\":5925:5934   */\n      dup3\n        /* \"#utility.yul\":5921:5939   */\n      add\n        /* \"#utility.yul\":5913:5939   */\n      swap1\n      pop\n        /* \"#utility.yul\":5985:5994   */\n      dup2\n        /* \"#utility.yul\":5979:5983   */\n      dup2\n        /* \"#utility.yul\":5975:5995   */\n      sub\n        /* \"#utility.yul\":5971:5972   */\n      0x00\n        /* \"#utility.yul\":5960:5969   */\n      dup4\n        /* \"#utility.yul\":5956:5973   */\n      add\n        /* \"#utility.yul\":5949:5996   */\n      mstore\n        /* \"#utility.yul\":6013:6144   */\n      tag_425\n        /* \"#utility.yul\":6139:6143   */\n      dup2\n        /* \"#utility.yul\":6013:6144   */\n      tag_337\n      jump\t// in\n    tag_425:\n        /* \"#utility.yul\":6005:6144   */\n      swap1\n      pop\n        /* \"#utility.yul\":5732:6151   */\n      swap2\n      swap1\n      pop\n      jump\t// out\n        /* \"#utility.yul\":6157:6339   */\n    tag_338:\n        /* \"#utility.yul\":6297:6331   */\n      0x416d6f756e74206d7573742062652067726561746572207468616e207a65726f\n        /* \"#utility.yul\":6293:6294   */\n      0x00\n        /* \"#utility.yul\":6285:6291   */\n      dup3\n        /* \"#utility.yul\":6281:6295   */\n      add\n        /* \"#utility.yul\":6274:6332   */\n      mstore\n        /* \"#utility.yul\":6157:6339   */\n      pop\n      jump\t// out\n        /* \"#utility.yul\":6345:6711   */\n    tag_339:\n        /* \"#utility.yul\":6487:6490   */\n      0x00\n        /* \"#utility.yul\":6508:6575   */\n      tag_428\n        /* \"#utility.yul\":6572:6574   */\n      0x20\n        /* \"#utility.yul\":6567:6570   */\n      dup4\n        /* \"#utility.yul\":6508:6575   */\n      tag_335\n      jump\t// in\n    tag_428:\n        /* \"#utility.yul\":6501:6575   */\n      swap2\n      pop\n        /* \"#utility.yul\":6584:6677   */\n      tag_429\n        /* \"#utility.yul\":6673:6676   */\n      dup3\n        /* \"#utility.yul\":6584:6677   */\n      tag_338\n      jump\t// in\n    tag_429:\n        /* \"#utility.yul\":6702:6704   */\n      0x20\n        /* \"#utility.yul\":6697:6700   */\n      dup3\n        /* \"#utility.yul\":6693:6705   */\n      add\n        /* \"#utility.yul\":6686:6705   */\n      swap1\n      pop\n        /* \"#utility.yul\":6345:6711   */\n      swap2\n      swap1\n      pop\n      jump\t// out\n        /* \"#utility.yul\":6717:7136   */\n    tag_78:\n        /* \"#utility.yul\":6883:6887   */\n      0x00\n        /* \"#utility.yul\":6921:6923   */\n      0x20\n        /* \"#utility.yul\":6910:6919   */\n      dup3\n        /* \"#utility.yul\":6906:6924   */\n      add\n        /* \"#utility.yul\":6898:6924   */\n      swap1\n      pop\n        /* \"#utility.yul\":6970:6979   */\n      dup2\n        /* \"#utility.yul\":6964:6968   */\n      dup2\n        /* \"#utility.yul\":6960:6980   */\n      sub\n        /* \"#utility.yul\":6956:6957   */\n      0x00\n        /* \"#utility.yul\":6945:6954   */\n      dup4\n        /* \"#utility.yul\":6941:6958   */\n      add\n        /* \"#utility.yul\":6934:6981   */\n      mstore\n        /* \"#utility.yul\":6998:7129   */\n      tag_431\n        /* \"#utility.yul\":7124:7128   */\n      dup2\n        /* \"#utility.yul\":6998:7129   */\n      tag_339\n      jump\t// in\n    tag_431:\n        /* \"#utility.yul\":6990:7129   */\n      swap1\n      pop\n        /* \"#utility.yul\":6717:7136   */\n      swap2\n      swap1\n      pop\n      jump\t// out\n        /* \"#utility.yul\":7142:7323   */\n    tag_340:\n        /* \"#utility.yul\":7282:7315   */\n      0x5072696365206d7573742062652067726561746572207468616e207a65726f00\n        /* \"#utility.yul\":7278:7279   */\n      0x00\n        /* \"#utility.yul\":7270:7276   */\n      dup3\n        /* \"#utility.yul\":7266:7280   */\n      add\n        /* \"#utility.yul\":7259:7316   */\n      mstore\n        /* \"#utility.yul\":7142:7323   */\n      pop\n      jump\t// out\n        /* \"#utility.yul\":7329:7695   */\n    tag_341:\n        /* \"#utility.yul\":7471:7474   */\n      0x00\n        /* \"#utility.yul\":7492:7559   */\n      tag_434\n        /* \"#utility.yul\":7556:7558   */\n      0x1f\n        /* \"#utility.yul\":7551:7554   */\n      dup4\n        /* \"#utility.yul\":7492:7559   */\n      tag_335\n      jump\t// in\n    tag_434:\n        /* \"#utility.yul\":7485:7559   */\n      swap2\n      pop\n        /* \"#utility.yul\":7568:7661   */\n      tag_435\n        /* \"#utility.yul\":7657:7660   */\n      dup3\n        /* \"#utility.yul\":7568:7661   */\n      tag_340\n      jump\t// in\n    tag_435:\n        /* \"#utility.yul\":7686:7688   */\n      0x20\n        /* \"#utility.yul\":7681:7684   */\n      dup3\n        /* \"#utility.yul\":7677:7689   */\n      add\n        /* \"#utility.yul\":7670:7689   */\n      swap1\n      pop\n        /* \"#utility.yul\":7329:7695   */\n      swap2\n      swap1\n      pop\n      jump\t// out\n        /* \"#utility.yul\":7701:8120   */\n    tag_82:\n        /* \"#utility.yul\":7867:7871   */\n      0x00\n        /* \"#utility.yul\":7905:7907   */\n      0x20\n        /* \"#utility.yul\":7894:7903   */\n      dup3\n        /* \"#utility.yul\":7890:7908   */\n      add\n        /* \"#utility.yul\":7882:7908   */\n      swap1\n      pop\n        /* \"#utility.yul\":7954:7963   */\n      dup2\n        /* \"#utility.yul\":7948:7952   */\n      dup2\n        /* \"#utility.yul\":7944:7964   */\n      sub\n        /* \"#utility.yul\":7940:7941   */\n      0x00\n        /* \"#utility.yul\":7929:7938   */\n      dup4\n        /* \"#utility.yul\":7925:7942   */\n      add\n        /* \"#utility.yul\":7918:7965   */\n      mstore\n        /* \"#utility.yul\":7982:8113   */\n      tag_437\n        /* \"#utility.yul\":8108:8112   */\n      dup2\n        /* \"#utility.yul\":7982:8113   */\n      tag_341\n      jump\t// in\n    tag_437:\n        /* \"#utility.yul\":7974:8113   */\n      swap1\n      pop\n        /* \"#utility.yul\":7701:8120   */\n      swap2\n      swap1\n      pop\n      jump\t// out\n        /* \"#utility.yul\":8126:8458   */\n    tag_85:\n        /* \"#utility.yul\":8247:8251   */\n      0x00\n        /* \"#utility.yul\":8285:8287   */\n      0x40\n        /* \"#utility.yul\":8274:8283   */\n      dup3\n        /* \"#utility.yul\":8270:8288   */\n      add\n        /* \"#utility.yul\":8262:8288   */\n      swap1\n      pop\n        /* \"#utility.yul\":8298:8369   */\n      tag_439\n        /* \"#utility.yul\":8366:8367   */\n      0x00\n        /* \"#utility.yul\":8355:8364   */\n      dup4\n        /* \"#utility.yul\":8351:8368   */\n      add\n        /* \"#utility.yul\":8342:8348   */\n      dup6\n        /* \"#utility.yul\":8298:8369   */\n      tag_326\n      jump\t// in\n    tag_439:\n        /* \"#utility.yul\":8379:8451   */\n      tag_440\n        /* \"#utility.yul\":8447:8449   */\n      0x20\n        /* \"#utility.yul\":8436:8445   */\n      dup4\n        /* \"#utility.yul\":8432:8450   */\n      add\n        /* \"#utility.yul\":8423:8429   */\n      dup5\n        /* \"#utility.yul\":8379:8451   */\n      tag_326\n      jump\t// in\n    tag_440:\n        /* \"#utility.yul\":8126:8458   */\n      swap4\n      swap3\n      pop\n      pop\n      pop\n      jump\t// out\n        /* \"#utility.yul\":8464:8607   */\n    tag_342:\n        /* \"#utility.yul\":8521:8526   */\n      0x00\n        /* \"#utility.yul\":8552:8558   */\n      dup2\n        /* \"#utility.yul\":8546:8559   */\n      mload\n        /* \"#utility.yul\":8537:8559   */\n      swap1\n      pop\n        /* \"#utility.yul\":8568:8601   */\n      tag_442\n        /* \"#utility.yul\":8595:8600   */\n      dup2\n        /* \"#utility.yul\":8568:8601   */\n      tag_333\n      jump\t// in\n    tag_442:\n        /* \"#utility.yul\":8464:8607   */\n      swap3\n      swap2\n      pop\n      pop\n      jump\t// out\n        /* \"#utility.yul\":8613:8964   */\n    tag_89:\n        /* \"#utility.yul\":8683:8689   */\n      0x00\n        /* \"#utility.yul\":8732:8734   */\n      0x20\n        /* \"#utility.yul\":8720:8729   */\n      dup3\n        /* \"#utility.yul\":8711:8718   */\n      dup5\n        /* \"#utility.yul\":8707:8730   */\n      sub\n        /* \"#utility.yul\":8703:8735   */\n      slt\n        /* \"#utility.yul\":8700:8819   */\n      iszero\n      tag_444\n      jumpi\n        /* \"#utility.yul\":8738:8817   */\n      tag_445\n      tag_320\n      jump\t// in\n    tag_445:\n        /* \"#utility.yul\":8700:8819   */\n    tag_444:\n        /* \"#utility.yul\":8858:8859   */\n      0x00\n        /* \"#utility.yul\":8883:8947   */\n      tag_446\n        /* \"#utility.yul\":8939:8946   */\n      dup5\n        /* \"#utility.yul\":8930:8936   */\n      dup3\n        /* \"#utility.yul\":8919:8928   */\n      dup6\n        /* \"#utility.yul\":8915:8937   */\n      add\n        /* \"#utility.yul\":8883:8947   */\n      tag_342\n      jump\t// in\n    tag_446:\n        /* \"#utility.yul\":8873:8947   */\n      swap2\n      pop\n        /* \"#utility.yul\":8829:8957   */\n      pop\n        /* \"#utility.yul\":8613:8964   */\n      swap3\n      swap2\n      pop\n      pop\n      jump\t// out\n        /* \"#utility.yul\":8970:9412   */\n    tag_101:\n        /* \"#utility.yul\":9119:9123   */\n      0x00\n        /* \"#utility.yul\":9157:9159   */\n      0x60\n        /* \"#utility.yul\":9146:9155   */\n      dup3\n        /* \"#utility.yul\":9142:9160   */\n      add\n        /* \"#utility.yul\":9134:9160   */\n      swap1\n      pop\n        /* \"#utility.yul\":9170:9241   */\n      tag_448\n        /* \"#utility.yul\":9238:9239   */\n      0x00\n        /* \"#utility.yul\":9227:9236   */\n      dup4\n        /* \"#utility.yul\":9223:9240   */\n      add\n        /* \"#utility.yul\":9214:9220   */\n      dup7\n        /* \"#utility.yul\":9170:9241   */\n      tag_326\n      jump\t// in\n    tag_448:\n        /* \"#utility.yul\":9251:9323   */\n      tag_449\n        /* \"#utility.yul\":9319:9321   */\n      0x20\n        /* \"#utility.yul\":9308:9317   */\n      dup4\n        /* \"#utility.yul\":9304:9322   */\n      add\n        /* \"#utility.yul\":9295:9301   */\n      dup6\n        /* \"#utility.yul\":9251:9323   */\n      tag_326\n      jump\t// in\n    tag_449:\n        /* \"#utility.yul\":9333:9405   */\n      tag_450\n        /* \"#utility.yul\":9401:9403   */\n      0x40\n        /* \"#utility.yul\":9390:9399   */\n      dup4\n        /* \"#utility.yul\":9386:9404   */\n      add\n        /* \"#utility.yul\":9377:9383   */\n      dup5\n        /* \"#utility.yul\":9333:9405   */\n      tag_328\n      jump\t// in\n    tag_450:\n        /* \"#utility.yul\":8970:9412   */\n      swap5\n      swap4\n      pop\n      pop\n      pop\n      pop\n      jump\t// out\n        /* \"#utility.yul\":9418:9534   */\n    tag_343:\n        /* \"#utility.yul\":9488:9509   */\n      tag_452\n        /* \"#utility.yul\":9503:9508   */\n      dup2\n        /* \"#utility.yul\":9488:9509   */\n      tag_317\n      jump\t// in\n    tag_452:\n        /* \"#utility.yul\":9481:9486   */\n      dup2\n        /* \"#utility.yul\":9478:9510   */\n      eq\n        /* \"#utility.yul\":9468:9528   */\n      tag_453\n      jumpi\n        /* \"#utility.yul\":9524:9525   */\n      0x00\n        /* \"#utility.yul\":9521:9522   */\n      dup1\n        /* \"#utility.yul\":9514:9526   */\n      revert\n        /* \"#utility.yul\":9468:9528   */\n    tag_453:\n        /* \"#utility.yul\":9418:9534   */\n      pop\n      jump\t// out\n        /* \"#utility.yul\":9540:9677   */\n    tag_344:\n        /* \"#utility.yul\":9594:9599   */\n      0x00\n        /* \"#utility.yul\":9625:9631   */\n      dup2\n        /* \"#utility.yul\":9619:9632   */\n      mload\n        /* \"#utility.yul\":9610:9632   */\n      swap1\n      pop\n        /* \"#utility.yul\":9641:9671   */\n      tag_455\n        /* \"#utility.yul\":9665:9670   */\n      dup2\n        /* \"#utility.yul\":9641:9671   */\n      tag_343\n      jump\t// in\n    tag_455:\n        /* \"#utility.yul\":9540:9677   */\n      swap3\n      swap2\n      pop\n      pop\n      jump\t// out\n        /* \"#utility.yul\":9683:10028   */\n    tag_105:\n        /* \"#utility.yul\":9750:9756   */\n      0x00\n        /* \"#utility.yul\":9799:9801   */\n      0x20\n        /* \"#utility.yul\":9787:9796   */\n      dup3\n        /* \"#utility.yul\":9778:9785   */\n      dup5\n        /* \"#utility.yul\":9774:9797   */\n      sub\n        /* \"#utility.yul\":9770:9802   */\n      slt\n        /* \"#utility.yul\":9767:9886   */\n      iszero\n      tag_457\n      jumpi\n        /* \"#utility.yul\":9805:9884   */\n      tag_458\n      tag_320\n      jump\t// in\n    tag_458:\n        /* \"#utility.yul\":9767:9886   */\n    tag_457:\n        /* \"#utility.yul\":9925:9926   */\n      0x00\n        /* \"#utility.yul\":9950:10011   */\n      tag_459\n        /* \"#utility.yul\":10003:10010   */\n      dup5\n        /* \"#utility.yul\":9994:10000   */\n      dup3\n        /* \"#utility.yul\":9983:9992   */\n      dup6\n        /* \"#utility.yul\":9979:10001   */\n      add\n        /* \"#utility.yul\":9950:10011   */\n      tag_344\n      jump\t// in\n    tag_459:\n        /* \"#utility.yul\":9940:10011   */\n      swap2\n      pop\n        /* \"#utility.yul\":9896:10021   */\n      pop\n        /* \"#utility.yul\":9683:10028   */\n      swap3\n      swap2\n      pop\n      pop\n      jump\t// out\n        /* \"#utility.yul\":10034:10254   */\n    tag_345:\n        /* \"#utility.yul\":10174:10208   */\n      0x546f6b656e207472616e7366657220746f2065786368616e6765206661696c65\n        /* \"#utility.yul\":10170:10171   */\n      0x00\n        /* \"#utility.yul\":10162:10168   */\n      dup3\n        /* \"#utility.yul\":10158:10172   */\n      add\n        /* \"#utility.yul\":10151:10209   */\n      mstore\n        /* \"#utility.yul\":10243:10246   */\n      0x6400000000000000000000000000000000000000000000000000000000000000\n        /* \"#utility.yul\":10238:10240   */\n      0x20\n        /* \"#utility.yul\":10230:10236   */\n      dup3\n        /* \"#utility.yul\":10226:10241   */\n      add\n        /* \"#utility.yul\":10219:10247   */\n      mstore\n        /* \"#utility.yul\":10034:10254   */\n      pop\n      jump\t// out\n        /* \"#utility.yul\":10260:10626   */\n    tag_346:\n        /* \"#utility.yul\":10402:10405   */\n      0x00\n        /* \"#utility.yul\":10423:10490   */\n      tag_462\n        /* \"#utility.yul\":10487:10489   */\n      0x21\n        /* \"#utility.yul\":10482:10485   */\n      dup4\n        /* \"#utility.yul\":10423:10490   */\n      tag_335\n      jump\t// in\n    tag_462:\n        /* \"#utility.yul\":10416:10490   */\n      swap2\n      pop\n        /* \"#utility.yul\":10499:10592   */\n      tag_463\n        /* \"#utility.yul\":10588:10591   */\n      dup3\n        /* \"#utility.yul\":10499:10592   */\n      tag_345\n      jump\t// in\n    tag_463:\n        /* \"#utility.yul\":10617:10619   */\n      0x40\n        /* \"#utility.yul\":10612:10615   */\n      dup3\n        /* \"#utility.yul\":10608:10620   */\n      add\n        /* \"#utility.yul\":10601:10620   */\n      swap1\n      pop\n        /* \"#utility.yul\":10260:10626   */\n      swap2\n      swap1\n      pop\n      jump\t// out\n        /* \"#utility.yul\":10632:11051   */\n    tag_108:\n        /* \"#utility.yul\":10798:10802   */\n      0x00\n        /* \"#utility.yul\":10836:10838   */\n      0x20\n        /* \"#utility.yul\":10825:10834   */\n      dup3\n        /* \"#utility.yul\":10821:10839   */\n      add\n        /* \"#utility.yul\":10813:10839   */\n      swap1\n      pop\n        /* \"#utility.yul\":10885:10894   */\n      dup2\n        /* \"#utility.yul\":10879:10883   */\n      dup2\n        /* \"#utility.yul\":10875:10895   */\n      sub\n        /* \"#utility.yul\":10871:10872   */\n      0x00\n        /* \"#utility.yul\":10860:10869   */\n      dup4\n        /* \"#utility.yul\":10856:10873   */\n      add\n        /* \"#utility.yul\":10849:10896   */\n      mstore\n        /* \"#utility.yul\":10913:11044   */\n      tag_465\n        /* \"#utility.yul\":11039:11043   */\n      dup2\n        /* \"#utility.yul\":10913:11044   */\n      tag_346\n      jump\t// in\n    tag_465:\n        /* \"#utility.yul\":10905:11044   */\n      swap1\n      pop\n        /* \"#utility.yul\":10632:11051   */\n      swap2\n      swap1\n      pop\n      jump\t// out\n        /* \"#utility.yul\":11057:11228   */\n    tag_347:\n        /* \"#utility.yul\":11197:11220   */\n      0x4e6f20726571756573747320746f2063616e63656c0000000000000000000000\n        /* \"#utility.yul\":11193:11194   */\n      0x00\n        /* \"#utility.yul\":11185:11191   */\n      dup3\n        /* \"#utility.yul\":11181:11195   */\n      add\n        /* \"#utility.yul\":11174:11221   */\n      mstore\n        /* \"#utility.yul\":11057:11228   */\n      pop\n      jump\t// out\n        /* \"#utility.yul\":11234:11600   */\n    tag_348:\n        /* \"#utility.yul\":11376:11379   */\n      0x00\n        /* \"#utility.yul\":11397:11464   */\n      tag_468\n        /* \"#utility.yul\":11461:11463   */\n      0x15\n        /* \"#utility.yul\":11456:11459   */\n      dup4\n        /* \"#utility.yul\":11397:11464   */\n      tag_335\n      jump\t// in\n    tag_468:\n        /* \"#utility.yul\":11390:11464   */\n      swap2\n      pop\n        /* \"#utility.yul\":11473:11566   */\n      tag_469\n        /* \"#utility.yul\":11562:11565   */\n      dup3\n        /* \"#utility.yul\":11473:11566   */\n      tag_347\n      jump\t// in\n    tag_469:\n        /* \"#utility.yul\":11591:11593   */\n      0x20\n        /* \"#utility.yul\":11586:11589   */\n      dup3\n        /* \"#utility.yul\":11582:11594   */\n      add\n        /* \"#utility.yul\":11575:11594   */\n      swap1\n      pop\n        /* \"#utility.yul\":11234:11600   */\n      swap2\n      swap1\n      pop\n      jump\t// out\n        /* \"#utility.yul\":11606:12025   */\n    tag_120:\n        /* \"#utility.yul\":11772:11776   */\n      0x00\n        /* \"#utility.yul\":11810:11812   */\n      0x20\n        /* \"#utility.yul\":11799:11808   */\n      dup3\n        /* \"#utility.yul\":11795:11813   */\n      add\n        /* \"#utility.yul\":11787:11813   */\n      swap1\n      pop\n        /* \"#utility.yul\":11859:11868   */\n      dup2\n        /* \"#utility.yul\":11853:11857   */\n      dup2\n        /* \"#utility.yul\":11849:11869   */\n      sub\n        /* \"#utility.yul\":11845:11846   */\n      0x00\n        /* \"#utility.yul\":11834:11843   */\n      dup4\n        /* \"#utility.yul\":11830:11847   */\n      add\n        /* \"#utility.yul\":11823:11870   */\n      mstore\n        /* \"#utility.yul\":11887:12018   */\n      tag_471\n        /* \"#utility.yul\":12013:12017   */\n      dup2\n        /* \"#utility.yul\":11887:12018   */\n      tag_348\n      jump\t// in\n    tag_471:\n        /* \"#utility.yul\":11879:12018   */\n      swap1\n      pop\n        /* \"#utility.yul\":11606:12025   */\n      swap2\n      swap1\n      pop\n      jump\t// out\n        /* \"#utility.yul\":12031:12363   */\n    tag_131:\n        /* \"#utility.yul\":12152:12156   */\n      0x00\n        /* \"#utility.yul\":12190:12192   */\n      0x40\n        /* \"#utility.yul\":12179:12188   */\n      dup3\n        /* \"#utility.yul\":12175:12193   */\n      add\n        /* \"#utility.yul\":12167:12193   */\n      swap1\n      pop\n        /* \"#utility.yul\":12203:12274   */\n      tag_473\n        /* \"#utility.yul\":12271:12272   */\n      0x00\n        /* \"#utility.yul\":12260:12269   */\n      dup4\n        /* \"#utility.yul\":12256:12273   */\n      add\n        /* \"#utility.yul\":12247:12253   */\n      dup6\n        /* \"#utility.yul\":12203:12274   */\n      tag_326\n      jump\t// in\n    tag_473:\n        /* \"#utility.yul\":12284:12356   */\n      tag_474\n        /* \"#utility.yul\":12352:12354   */\n      0x20\n        /* \"#utility.yul\":12341:12350   */\n      dup4\n        /* \"#utility.yul\":12337:12355   */\n      add\n        /* \"#utility.yul\":12328:12334   */\n      dup5\n        /* \"#utility.yul\":12284:12356   */\n      tag_328\n      jump\t// in\n    tag_474:\n        /* \"#utility.yul\":12031:12363   */\n      swap4\n      swap3\n      pop\n      pop\n      pop\n      jump\t// out\n        /* \"#utility.yul\":12369:12549   */\n    tag_349:\n        /* \"#utility.yul\":12417:12494   */\n      0x4e487b7100000000000000000000000000000000000000000000000000000000\n        /* \"#utility.yul\":12414:12415   */\n      0x00\n        /* \"#utility.yul\":12407:12495   */\n      mstore\n        /* \"#utility.yul\":12514:12518   */\n      0x11\n        /* \"#utility.yul\":12511:12512   */\n      0x04\n        /* \"#utility.yul\":12504:12519   */\n      mstore\n        /* \"#utility.yul\":12538:12542   */\n      0x24\n        /* \"#utility.yul\":12535:12536   */\n      0x00\n        /* \"#utility.yul\":12528:12543   */\n      revert\n        /* \"#utility.yul\":12555:12965   */\n    tag_138:\n        /* \"#utility.yul\":12595:12602   */\n      0x00\n        /* \"#utility.yul\":12618:12638   */\n      tag_477\n        /* \"#utility.yul\":12636:12637   */\n      dup3\n        /* \"#utility.yul\":12618:12638   */\n      tag_327\n      jump\t// in\n    tag_477:\n        /* \"#utility.yul\":12613:12638   */\n      swap2\n      pop\n        /* \"#utility.yul\":12652:12672   */\n      tag_478\n        /* \"#utility.yul\":12670:12671   */\n      dup4\n        /* \"#utility.yul\":12652:12672   */\n      tag_327\n      jump\t// in\n    tag_478:\n        /* \"#utility.yul\":12647:12672   */\n      swap3\n      pop\n        /* \"#utility.yul\":12707:12708   */\n      dup3\n        /* \"#utility.yul\":12704:12705   */\n      dup3\n        /* \"#utility.yul\":12700:12709   */\n      mul\n        /* \"#utility.yul\":12729:12759   */\n      tag_479\n        /* \"#utility.yul\":12747:12758   */\n      dup2\n        /* \"#utility.yul\":12729:12759   */\n      tag_327\n      jump\t// in\n    tag_479:\n        /* \"#utility.yul\":12718:12759   */\n      swap2\n      pop\n        /* \"#utility.yul\":12908:12909   */\n      dup3\n        /* \"#utility.yul\":12899:12906   */\n      dup3\n        /* \"#utility.yul\":12895:12910   */\n      div\n        /* \"#utility.yul\":12892:12893   */\n      dup5\n        /* \"#utility.yul\":12889:12911   */\n      eq\n        /* \"#utility.yul\":12869:12870   */\n      dup4\n        /* \"#utility.yul\":12862:12871   */\n      iszero\n        /* \"#utility.yul\":12842:12925   */\n      or\n        /* \"#utility.yul\":12819:12958   */\n      tag_480\n      jumpi\n        /* \"#utility.yul\":12938:12956   */\n      tag_481\n      tag_349\n      jump\t// in\n    tag_481:\n        /* \"#utility.yul\":12819:12958   */\n    tag_480:\n        /* \"#utility.yul\":12603:12965   */\n      pop\n        /* \"#utility.yul\":12555:12965   */\n      swap3\n      swap2\n      pop\n      pop\n      jump\t// out\n        /* \"#utility.yul\":12971:13165   */\n    tag_163:\n        /* \"#utility.yul\":13011:13015   */\n      0x00\n        /* \"#utility.yul\":13031:13051   */\n      tag_483\n        /* \"#utility.yul\":13049:13050   */\n      dup3\n        /* \"#utility.yul\":13031:13051   */\n      tag_327\n      jump\t// in\n    tag_483:\n        /* \"#utility.yul\":13026:13051   */\n      swap2\n      pop\n        /* \"#utility.yul\":13065:13085   */\n      tag_484\n        /* \"#utility.yul\":13083:13084   */\n      dup4\n        /* \"#utility.yul\":13065:13085   */\n      tag_327\n      jump\t// in\n    tag_484:\n        /* \"#utility.yul\":13060:13085   */\n      swap3\n      pop\n        /* \"#utility.yul\":13109:13110   */\n      dup3\n        /* \"#utility.yul\":13106:13107   */\n      dup3\n        /* \"#utility.yul\":13102:13111   */\n      sub\n        /* \"#utility.yul\":13094:13111   */\n      swap1\n      pop\n        /* \"#utility.yul\":13133:13134   */\n      dup2\n        /* \"#utility.yul\":13127:13131   */\n      dup2\n        /* \"#utility.yul\":13124:13135   */\n      gt\n        /* \"#utility.yul\":13121:13158   */\n      iszero\n      tag_485\n      jumpi\n        /* \"#utility.yul\":13138:13156   */\n      tag_486\n      tag_349\n      jump\t// in\n    tag_486:\n        /* \"#utility.yul\":13121:13158   */\n    tag_485:\n        /* \"#utility.yul\":12971:13165   */\n      swap3\n      swap2\n      pop\n      pop\n      jump\t// out\n        /* \"#utility.yul\":13171:13401   */\n    tag_350:\n        /* \"#utility.yul\":13311:13345   */\n      0x5472616e7366657220746f20746865207a65726f206164647265737320697320\n        /* \"#utility.yul\":13307:13308   */\n      0x00\n        /* \"#utility.yul\":13299:13305   */\n      dup3\n        /* \"#utility.yul\":13295:13309   */\n      add\n        /* \"#utility.yul\":13288:13346   */\n      mstore\n        /* \"#utility.yul\":13380:13393   */\n      0x6e6f7420616c6c6f776564000000000000000000000000000000000000000000\n        /* \"#utility.yul\":13375:13377   */\n      0x20\n        /* \"#utility.yul\":13367:13373   */\n      dup3\n        /* \"#utility.yul\":13363:13378   */\n      add\n        /* \"#utility.yul\":13356:13394   */\n      mstore\n        /* \"#utility.yul\":13171:13401   */\n      pop\n      jump\t// out\n        /* \"#utility.yul\":13407:13773   */\n    tag_351:\n        /* \"#utility.yul\":13549:13552   */\n      0x00\n        /* \"#utility.yul\":13570:13637   */\n      tag_489\n        /* \"#utility.yul\":13634:13636   */\n      0x2b\n        /* \"#utility.yul\":13629:13632   */\n      dup4\n        /* \"#utility.yul\":13570:13637   */\n      tag_335\n      jump\t// in\n    tag_489:\n        /* \"#utility.yul\":13563:13637   */\n      swap2\n      pop\n        /* \"#utility.yul\":13646:13739   */\n      tag_490\n        /* \"#utility.yul\":13735:13738   */\n      dup3\n        /* \"#utility.yul\":13646:13739   */\n      tag_350\n      jump\t// in\n    tag_490:\n        /* \"#utility.yul\":13764:13766   */\n      0x40\n        /* \"#utility.yul\":13759:13762   */\n      dup3\n        /* \"#utility.yul\":13755:13767   */\n      add\n        /* \"#utility.yul\":13748:13767   */\n      swap1\n      pop\n        /* \"#utility.yul\":13407:13773   */\n      swap2\n      swap1\n      pop\n      jump\t// out\n        /* \"#utility.yul\":13779:14198   */\n    tag_173:\n        /* \"#utility.yul\":13945:13949   */\n      0x00\n        /* \"#utility.yul\":13983:13985   */\n      0x20\n        /* \"#utility.yul\":13972:13981   */\n      dup3\n        /* \"#utility.yul\":13968:13986   */\n      add\n        /* \"#utility.yul\":13960:13986   */\n      swap1\n      pop\n        /* \"#utility.yul\":14032:14041   */\n      dup2\n        /* \"#utility.yul\":14026:14030   */\n      dup2\n        /* \"#utility.yul\":14022:14042   */\n      sub\n        /* \"#utility.yul\":14018:14019   */\n      0x00\n        /* \"#utility.yul\":14007:14016   */\n      dup4\n        /* \"#utility.yul\":14003:14020   */\n      add\n        /* \"#utility.yul\":13996:14043   */\n      mstore\n        /* \"#utility.yul\":14060:14191   */\n      tag_492\n        /* \"#utility.yul\":14186:14190   */\n      dup2\n        /* \"#utility.yul\":14060:14191   */\n      tag_351\n      jump\t// in\n    tag_492:\n        /* \"#utility.yul\":14052:14191   */\n      swap1\n      pop\n        /* \"#utility.yul\":13779:14198   */\n      swap2\n      swap1\n      pop\n      jump\t// out\n        /* \"#utility.yul\":14204:14384   */\n    tag_190:\n        /* \"#utility.yul\":14252:14329   */\n      0x4e487b7100000000000000000000000000000000000000000000000000000000\n        /* \"#utility.yul\":14249:14250   */\n      0x00\n        /* \"#utility.yul\":14242:14330   */\n      mstore\n        /* \"#utility.yul\":14349:14353   */\n      0x32\n        /* \"#utility.yul\":14346:14347   */\n      0x04\n        /* \"#utility.yul\":14339:14354   */\n      mstore\n        /* \"#utility.yul\":14373:14377   */\n      0x24\n        /* \"#utility.yul\":14370:14371   */\n      0x00\n        /* \"#utility.yul\":14363:14378   */\n      revert\n        /* \"#utility.yul\":14390:14561   */\n    tag_205:\n        /* \"#utility.yul\":14429:14432   */\n      0x00\n        /* \"#utility.yul\":14452:14476   */\n      tag_495\n        /* \"#utility.yul\":14470:14475   */\n      dup3\n        /* \"#utility.yul\":14452:14476   */\n      tag_327\n      jump\t// in\n    tag_495:\n        /* \"#utility.yul\":14443:14476   */\n      swap2\n      pop\n        /* \"#utility.yul\":14498:14502   */\n      0x00\n        /* \"#utility.yul\":14491:14496   */\n      dup3\n        /* \"#utility.yul\":14488:14503   */\n      sub\n        /* \"#utility.yul\":14485:14526   */\n      tag_496\n      jumpi\n        /* \"#utility.yul\":14506:14524   */\n      tag_497\n      tag_349\n      jump\t// in\n    tag_497:\n        /* \"#utility.yul\":14485:14526   */\n    tag_496:\n        /* \"#utility.yul\":14553:14554   */\n      0x01\n        /* \"#utility.yul\":14546:14551   */\n      dup3\n        /* \"#utility.yul\":14542:14555   */\n      sub\n        /* \"#utility.yul\":14535:14555   */\n      swap1\n      pop\n        /* \"#utility.yul\":14390:14561   */\n      swap2\n      swap1\n      pop\n      jump\t// out\n        /* \"#utility.yul\":14567:14714   */\n    tag_352:\n        /* \"#utility.yul\":14668:14679   */\n      0x00\n        /* \"#utility.yul\":14705:14708   */\n      dup2\n        /* \"#utility.yul\":14690:14708   */\n      swap1\n      pop\n        /* \"#utility.yul\":14567:14714   */\n      swap3\n      swap2\n      pop\n      pop\n      jump\t// out\n        /* \"#utility.yul\":14720:14834   */\n    tag_353:\n      pop\n      jump\t// out\n        /* \"#utility.yul\":14840:15238   */\n    tag_354:\n        /* \"#utility.yul\":14999:15002   */\n      0x00\n        /* \"#utility.yul\":15020:15103   */\n      tag_501\n        /* \"#utility.yul\":15101:15102   */\n      0x00\n        /* \"#utility.yul\":15096:15099   */\n      dup4\n        /* \"#utility.yul\":15020:15103   */\n      tag_352\n      jump\t// in\n    tag_501:\n        /* \"#utility.yul\":15013:15103   */\n      swap2\n      pop\n        /* \"#utility.yul\":15112:15205   */\n      tag_502\n        /* \"#utility.yul\":15201:15204   */\n      dup3\n        /* \"#utility.yul\":15112:15205   */\n      tag_353\n      jump\t// in\n    tag_502:\n        /* \"#utility.yul\":15230:15231   */\n      0x00\n        /* \"#utility.yul\":15225:15228   */\n      dup3\n        /* \"#utility.yul\":15221:15232   */\n      add\n        /* \"#utility.yul\":15214:15232   */\n      swap1\n      pop\n        /* \"#utility.yul\":14840:15238   */\n      swap2\n      swap1\n      pop\n      jump\t// out\n        /* \"#utility.yul\":15244:15623   */\n    tag_214:\n        /* \"#utility.yul\":15428:15431   */\n      0x00\n        /* \"#utility.yul\":15450:15597   */\n      tag_504\n        /* \"#utility.yul\":15593:15596   */\n      dup3\n        /* \"#utility.yul\":15450:15597   */\n      tag_354\n      jump\t// in\n    tag_504:\n        /* \"#utility.yul\":15443:15597   */\n      swap2\n      pop\n        /* \"#utility.yul\":15614:15617   */\n      dup2\n        /* \"#utility.yul\":15607:15617   */\n      swap1\n      pop\n        /* \"#utility.yul\":15244:15623   */\n      swap2\n      swap1\n      pop\n      jump\t// out\n        /* \"#utility.yul\":15629:15799   */\n    tag_355:\n        /* \"#utility.yul\":15769:15791   */\n      0x4661696c656420746f2073656e64204574686572000000000000000000000000\n        /* \"#utility.yul\":15765:15766   */\n      0x00\n        /* \"#utility.yul\":15757:15763   */\n      dup3\n        /* \"#utility.yul\":15753:15767   */\n      add\n        /* \"#utility.yul\":15746:15792   */\n      mstore\n        /* \"#utility.yul\":15629:15799   */\n      pop\n      jump\t// out\n        /* \"#utility.yul\":15805:16171   */\n    tag_356:\n        /* \"#utility.yul\":15947:15950   */\n      0x00\n        /* \"#utility.yul\":15968:16035   */\n      tag_507\n        /* \"#utility.yul\":16032:16034   */\n      0x14\n        /* \"#utility.yul\":16027:16030   */\n      dup4\n        /* \"#utility.yul\":15968:16035   */\n      tag_335\n      jump\t// in\n    tag_507:\n        /* \"#utility.yul\":15961:16035   */\n      swap2\n      pop\n        /* \"#utility.yul\":16044:16137   */\n      tag_508\n        /* \"#utility.yul\":16133:16136   */\n      dup3\n        /* \"#utility.yul\":16044:16137   */\n      tag_355\n      jump\t// in\n    tag_508:\n        /* \"#utility.yul\":16162:16164   */\n      0x20\n        /* \"#utility.yul\":16157:16160   */\n      dup3\n        /* \"#utility.yul\":16153:16165   */\n      add\n        /* \"#utility.yul\":16146:16165   */\n      swap1\n      pop\n        /* \"#utility.yul\":15805:16171   */\n      swap2\n      swap1\n      pop\n      jump\t// out\n        /* \"#utility.yul\":16177:16596   */\n    tag_220:\n        /* \"#utility.yul\":16343:16347   */\n      0x00\n        /* \"#utility.yul\":16381:16383   */\n      0x20\n        /* \"#utility.yul\":16370:16379   */\n      dup3\n        /* \"#utility.yul\":16366:16384   */\n      add\n        /* \"#utility.yul\":16358:16384   */\n      swap1\n      pop\n        /* \"#utility.yul\":16430:16439   */\n      dup2\n        /* \"#utility.yul\":16424:16428   */\n      dup2\n        /* \"#utility.yul\":16420:16440   */\n      sub\n        /* \"#utility.yul\":16416:16417   */\n      0x00\n        /* \"#utility.yul\":16405:16414   */\n      dup4\n        /* \"#utility.yul\":16401:16418   */\n      add\n        /* \"#utility.yul\":16394:16441   */\n      mstore\n        /* \"#utility.yul\":16458:16589   */\n      tag_510\n        /* \"#utility.yul\":16584:16588   */\n      dup2\n        /* \"#utility.yul\":16458:16589   */\n      tag_356\n      jump\t// in\n    tag_510:\n        /* \"#utility.yul\":16450:16589   */\n      swap1\n      pop\n        /* \"#utility.yul\":16177:16596   */\n      swap2\n      swap1\n      pop\n      jump\t// out\n        /* \"#utility.yul\":16602:16782   */\n    tag_245:\n        /* \"#utility.yul\":16650:16727   */\n      0x4e487b7100000000000000000000000000000000000000000000000000000000\n        /* \"#utility.yul\":16647:16648   */\n      0x00\n        /* \"#utility.yul\":16640:16728   */\n      mstore\n        /* \"#utility.yul\":16747:16751   */\n      0x31\n        /* \"#utility.yul\":16744:16745   */\n      0x04\n        /* \"#utility.yul\":16737:16752   */\n      mstore\n        /* \"#utility.yul\":16771:16775   */\n      0x24\n        /* \"#utility.yul\":16768:16769   */\n      0x00\n        /* \"#utility.yul\":16761:16776   */\n      revert\n        /* \"#utility.yul\":16788:16968   */\n    tag_357:\n        /* \"#utility.yul\":16928:16960   */\n      0x546f6b656e207472616e7366657220746f206275796572206661696c65640000\n        /* \"#utility.yul\":16924:16925   */\n      0x00\n        /* \"#utility.yul\":16916:16922   */\n      dup3\n        /* \"#utility.yul\":16912:16926   */\n      add\n        /* \"#utility.yul\":16905:16961   */\n      mstore\n        /* \"#utility.yul\":16788:16968   */\n      pop\n      jump\t// out\n        /* \"#utility.yul\":16974:17340   */\n    tag_358:\n        /* \"#utility.yul\":17116:17119   */\n      0x00\n        /* \"#utility.yul\":17137:17204   */\n      tag_514\n        /* \"#utility.yul\":17201:17203   */\n      0x1e\n        /* \"#utility.yul\":17196:17199   */\n      dup4\n        /* \"#utility.yul\":17137:17204   */\n      tag_335\n      jump\t// in\n    tag_514:\n        /* \"#utility.yul\":17130:17204   */\n      swap2\n      pop\n        /* \"#utility.yul\":17213:17306   */\n      tag_515\n        /* \"#utility.yul\":17302:17305   */\n      dup3\n        /* \"#utility.yul\":17213:17306   */\n      tag_357\n      jump\t// in\n    tag_515:\n        /* \"#utility.yul\":17331:17333   */\n      0x20\n        /* \"#utility.yul\":17326:17329   */\n      dup3\n        /* \"#utility.yul\":17322:17334   */\n      add\n        /* \"#utility.yul\":17315:17334   */\n      swap1\n      pop\n        /* \"#utility.yul\":16974:17340   */\n      swap2\n      swap1\n      pop\n      jump\t// out\n        /* \"#utility.yul\":17346:17765   */\n    tag_276:\n        /* \"#utility.yul\":17512:17516   */\n      0x00\n        /* \"#utility.yul\":17550:17552   */\n      0x20\n        /* \"#utility.yul\":17539:17548   */\n      dup3\n        /* \"#utility.yul\":17535:17553   */\n      add\n        /* \"#utility.yul\":17527:17553   */\n      swap1\n      pop\n        /* \"#utility.yul\":17599:17608   */\n      dup2\n        /* \"#utility.yul\":17593:17597   */\n      dup2\n        /* \"#utility.yul\":17589:17609   */\n      sub\n        /* \"#utility.yul\":17585:17586   */\n      0x00\n        /* \"#utility.yul\":17574:17583   */\n      dup4\n        /* \"#utility.yul\":17570:17587   */\n      add\n        /* \"#utility.yul\":17563:17610   */\n      mstore\n        /* \"#utility.yul\":17627:17758   */\n      tag_517\n        /* \"#utility.yul\":17753:17757   */\n      dup2\n        /* \"#utility.yul\":17627:17758   */\n      tag_358\n      jump\t// in\n    tag_517:\n        /* \"#utility.yul\":17619:17758   */\n      swap1\n      pop\n        /* \"#utility.yul\":17346:17765   */\n      swap2\n      swap1\n      pop\n      jump\t// out\n        /* \"#utility.yul\":17771:18239   */\n    tag_301:\n        /* \"#utility.yul\":17933:17937   */\n      0x00\n        /* \"#utility.yul\":17971:17973   */\n      0x60\n        /* \"#utility.yul\":17960:17969   */\n      dup3\n        /* \"#utility.yul\":17956:17974   */\n      add\n        /* \"#utility.yul\":17948:17974   */\n      swap1\n      pop\n        /* \"#utility.yul\":17984:18068   */\n      tag_519\n        /* \"#utility.yul\":18065:18066   */\n      0x00\n        /* \"#utility.yul\":18054:18063   */\n      dup4\n        /* \"#utility.yul\":18050:18067   */\n      add\n        /* \"#utility.yul\":18041:18047   */\n      dup7\n        /* \"#utility.yul\":17984:18068   */\n      tag_332\n      jump\t// in\n    tag_519:\n        /* \"#utility.yul\":18078:18150   */\n      tag_520\n        /* \"#utility.yul\":18146:18148   */\n      0x20\n        /* \"#utility.yul\":18135:18144   */\n      dup4\n        /* \"#utility.yul\":18131:18149   */\n      add\n        /* \"#utility.yul\":18122:18128   */\n      dup6\n        /* \"#utility.yul\":18078:18150   */\n      tag_328\n      jump\t// in\n    tag_520:\n        /* \"#utility.yul\":18160:18232   */\n      tag_521\n        /* \"#utility.yul\":18228:18230   */\n      0x40\n        /* \"#utility.yul\":18217:18226   */\n      dup4\n        /* \"#utility.yul\":18213:18231   */\n      add\n        /* \"#utility.yul\":18204:18210   */\n      dup5\n        /* \"#utility.yul\":18160:18232   */\n      tag_328\n      jump\t// in\n    tag_521:\n        /* \"#utility.yul\":17771:18239   */\n      swap5\n      swap4\n      pop\n      pop\n      pop\n      pop\n      jump\t// out\n\n    auxdata: 0xa2646970667358221220be829e3d31733a27592d9a0ba0d6da91576cb1b75715a0f753e5640d296fbf0a64736f6c63430008190033\n}\n",
				"bytecode": {
					"linkReferences": {},
					"object": "608060405234801561000f575f80fd5b506040516127d03803806127d0833981810160405281019061003191906100d4565b805f806101000a81548173ffffffffffffffffffffffffffffffffffffffff021916908373ffffffffffffffffffffffffffffffffffffffff160217905550506100ff565b5f80fd5b5f73ffffffffffffffffffffffffffffffffffffffff82169050919050565b5f6100a38261007a565b9050919050565b6100b381610099565b81146100bd575f80fd5b50565b5f815190506100ce816100aa565b92915050565b5f602082840312156100e9576100e8610076565b5b5f6100f6848285016100c0565b91505092915050565b6126c48061010c5f395ff3fe608060405260043610610090575f3560e01c8063851b16f511610058578063851b16f51461019e578063a760e06a146101b4578063c0b6f561146101d0578063c2eb05ba1461020c578063ce606ee01461023657610090565b806310731a65146100945780631a4b3311146100be5780631fb64da0146100fe57806373b298e21461013a57806383588b9914610162575b5f80fd5b34801561009f575f80fd5b506100a8610260565b6040516100b59190611de5565b60405180910390f35b3480156100c9575f80fd5b506100e460048036038101906100df9190611e5c565b6103fb565b6040516100f5959493929190611f21565b60405180910390f35b348015610109575f80fd5b50610124600480360381019061011f9190611f9c565b610458565b6040516101319190611fda565b60405180910390f35b348015610145575f80fd5b50610160600480360381019061015b9190611ff3565b6104a0565b005b34801561016d575f80fd5b5061018860048036038101906101839190611f9c565b6107e9565b6040516101959190611fda565b60405180910390f35b3480156101a9575f80fd5b506101b2610831565b005b6101ce60048036038101906101c99190611ff3565b610abc565b005b3480156101db575f80fd5b506101f660048036038101906101f19190611e5c565b610c85565b6040516102039190611de5565b60405180910390f35b348015610217575f80fd5b50610220610e69565b60405161022d9190611fda565b60405180910390f35b348015610241575f80fd5b5061024a610e8e565b6040516102579190611fda565b60405180910390f35b5f60015f9054906101000a900473ffffffffffffffffffffffffffffffffffffffff168073ffffffffffffffffffffffffffffffffffffffff163373ffffffffffffffffffffffffffffffffffffffff16146102f1576040517f08c379a00000000000000000000000000000000000000000000000000000000081526004016102e89061209d565b60405180910390fd5b60015f9054906101000a900473ffffffffffffffffffffffffffffffffffffffff165f806101000a81548173ffffffffffffffffffffffffffffffffffffffff021916908373ffffffffffffffffffffffffffffffffffffffff1602179055505f60015f6101000a81548173ffffffffffffffffffffffffffffffffffffffff021916908373ffffffffffffffffffffffffffffffffffffffff1602179055505f8054906101000a900473ffffffffffffffffffffffffffffffffffffffff1673ffffffffffffffffffffffffffffffffffffffff167f041e8ee868cb815a7e5cd1a100e6ff024772d79c071718c049ab7d3bc4e1226d60405160405180910390a2600191505090565b6002602052805f5260405f205f91509050805f015f9054906101000a900473ffffffffffffffffffffffffffffffffffffffff1690806001015490806002015490806003015490806004015f9054906101000a900460ff16905085565b6004602052815f5260405f208181548110610471575f80fd5b905f5260205f20015f915091509054906101000a900473ffffffffffffffffffffffffffffffffffffffff1681565b5f60028111156104b3576104b2611eae565b5b60025f3373ffffffffffffffffffffffffffffffffffffffff1673ffffffffffffffffffffffffffffffffffffffff1681526020019081526020015f206004015f9054906101000a900460ff16600281111561051257610511611eae565b5b1461051b575f80fd5b815f810361055e576040517f08c379a000000000000000000000000000000000000000000000000000000000815260040161055590612105565b60405180910390fd5b815f81036105a1576040517f08c379a00000000000000000000000000000000000000000000000000000000081526004016105989061216d565b60405180910390fd5b8484808273ffffffffffffffffffffffffffffffffffffffff1663dd62ed3e33306040518363ffffffff1660e01b81526004016105df92919061218b565b602060405180830381865afa1580156105fa573d5f803e3d5ffd5b505050506040513d601f19601f8201168201806040525081019061061e91906121c6565b1015610628575f80fd5b8686808273ffffffffffffffffffffffffffffffffffffffff166370a08231336040518263ffffffff1660e01b81526004016106649190611fda565b602060405180830381865afa15801561067f573d5f803e3d5ffd5b505050506040513d601f19601f820116820180604052508101906106a391906121c6565b10156106ad575f80fd5b600160025f3373ffffffffffffffffffffffffffffffffffffffff1673ffffffffffffffffffffffffffffffffffffffff1681526020019081526020015f206004015f6101000a81548160ff021916908360028111156107105761070f611eae565b5b02179055508873ffffffffffffffffffffffffffffffffffffffff166323b872dd33308b6040518463ffffffff1660e01b8152600401610752939291906121f1565b6020604051808303815f875af115801561076e573d5f803e3d5ffd5b505050506040513d601f19601f820116820180604052508101906107929190612250565b6107d1576040517f08c379a00000000000000000000000000000000000000000000000000000000081526004016107c8906122eb565b60405180910390fd5b6107de8989896001610eb1565b505050505050505050565b6003602052815f5260405f208181548110610802575f80fd5b905f5260205f20015f915091509054906101000a900473ffffffffffffffffffffffffffffffffffffffff1681565b5f600281111561084457610843611eae565b5b60025f3373ffffffffffffffffffffffffffffffffffffffff1673ffffffffffffffffffffffffffffffffffffffff1681526020019081526020015f206004015f9054906101000a900460ff1660028111156108a3576108a2611eae565b5b036108e3576040517f08c379a00000000000000000000000000000000000000000000000000000000081526004016108da90612353565b60405180910390fd5b5f60025f3373ffffffffffffffffffffffffffffffffffffffff1673ffffffffffffffffffffffffffffffffffffffff1681526020019081526020015f206040518060a00160405290815f82015f9054906101000a900473ffffffffffffffffffffffffffffffffffffffff1673ffffffffffffffffffffffffffffffffffffffff1673ffffffffffffffffffffffffffffffffffffffff168152602001600182015481526020016002820154815260200160038201548152602001600482015f9054906101000a900460ff1660028111156109c2576109c1611eae565b5b60028111156109d4576109d3611eae565b5b815250509050600160028111156109ee576109ed611eae565b5b81608001516002811115610a0557610a04611eae565b5b03610a9257805f015173ffffffffffffffffffffffffffffffffffffffff1663a9059cbb3383604001516040518363ffffffff1660e01b8152600401610a4c929190612371565b6020604051808303815f875af1158015610a68573d5f803e3d5ffd5b505050506040513d601f19601f82011682018060405250810190610a8c9190612250565b50610ab0565b610aaf3382606001518360400151610aaa91906123c5565b611200565b5b610ab9336112ad565b50565b5f6002811115610acf57610ace611eae565b5b60025f3373ffffffffffffffffffffffffffffffffffffffff1673ffffffffffffffffffffffffffffffffffffffff1681526020019081526020015f206004015f9054906101000a900460ff166002811115610b2e57610b2d611eae565b5b14610b37575f80fd5b815f8103610b7a576040517f08c379a0000000000000000000000000000000000000000000000000000000008152600401610b7190612105565b60405180910390fd5b815f8103610bbd576040517f08c379a0000000000000000000000000000000000000000000000000000000008152600401610bb49061216d565b60405180910390fd5b8284610bc991906123c5565b80341015610bd5575f80fd5b8385610be191906123c5565b341115610c0957610c08338587610bf891906123c5565b34610c039190612406565b611200565b5b6002805f3373ffffffffffffffffffffffffffffffffffffffff1673ffffffffffffffffffffffffffffffffffffffff1681526020019081526020015f206004015f6101000a81548160ff02191690836002811115610c6b57610c6a611eae565b5b0217905550610c7d8686866002610eb1565b505050505050565b5f805f9054906101000a900473ffffffffffffffffffffffffffffffffffffffff168073ffffffffffffffffffffffffffffffffffffffff163373ffffffffffffffffffffffffffffffffffffffff1614610d15576040517f08c379a0000000000000000000000000000000000000000000000000000000008152600401610d0c9061209d565b60405180910390fd5b828073ffffffffffffffffffffffffffffffffffffffff165f73ffffffffffffffffffffffffffffffffffffffff1603610d84576040517f08c379a0000000000000000000000000000000000000000000000000000000008152600401610d7b906124a9565b60405180910390fd5b8360015f6101000a81548173ffffffffffffffffffffffffffffffffffffffff021916908373ffffffffffffffffffffffffffffffffffffffff16021790555060015f9054906101000a900473ffffffffffffffffffffffffffffffffffffffff1673ffffffffffffffffffffffffffffffffffffffff165f8054906101000a900473ffffffffffffffffffffffffffffffffffffffff1673ffffffffffffffffffffffffffffffffffffffff167ffee8bf98f40b2ac772a78cd4d45742484d3471f99046b224f8e6922e7c6eb1d260405160405180910390a3600192505050919050565b60015f9054906101000a900473ffffffffffffffffffffffffffffffffffffffff1681565b5f8054906101000a900473ffffffffffffffffffffffffffffffffffffffff1681565b5f60016002811115610ec657610ec5611eae565b5b826002811115610ed957610ed8611eae565b5b14610f205760035f8673ffffffffffffffffffffffffffffffffffffffff1673ffffffffffffffffffffffffffffffffffffffff1681526020019081526020015f20610f5e565b60045f8673ffffffffffffffffffffffffffffffffffffffff1673ffffffffffffffffffffffffffffffffffffffff1681526020019081526020015f205b805480602002602001604051908101604052809291908181526020018280548015610fdb57602002820191905f5260205f20905b815f9054906101000a900473ffffffffffffffffffffffffffffffffffffffff1673ffffffffffffffffffffffffffffffffffffffff1681526020019060010190808311610f92575b505050505090505f8490505f825190505b5f811115611176575f60025f856001856110069190612406565b81518110611017576110166124c7565b5b602002602001015173ffffffffffffffffffffffffffffffffffffffff1673ffffffffffffffffffffffffffffffffffffffff1681526020019081526020015f206040518060a00160405290815f82015f9054906101000a900473ffffffffffffffffffffffffffffffffffffffff1673ffffffffffffffffffffffffffffffffffffffff1673ffffffffffffffffffffffffffffffffffffffff168152602001600182015481526020016002820154815260200160038201548152602001600482015f9054906101000a900460ff1660028111156110f9576110f8611eae565b5b600281111561110b5761110a611eae565b5b81525050905061111b8187611646565b156111625761115288856001856111329190612406565b81518110611143576111426124c7565b5b602002602001015185896116af565b92505f83036111615750611176565b5b50808061116e906124f4565b915050610fec565b505f8111156111905761118b86828686611b1d565b6111f8565b5f60025f3373ffffffffffffffffffffffffffffffffffffffff1673ffffffffffffffffffffffffffffffffffffffff1681526020019081526020015f206004015f6101000a81548160ff021916908360028111156111f2576111f1611eae565b5b02179055505b505050505050565b5f8273ffffffffffffffffffffffffffffffffffffffff168260405161122590612548565b5f6040518083038185875af1925050503d805f811461125f576040519150601f19603f3d011682016040523d82523d5f602084013e611264565b606091505b50509050806112a8576040517f08c379a000000000000000000000000000000000000000000000000000000000815260040161129f906125a6565b60405180910390fd5b505050565b5f60025f8373ffffffffffffffffffffffffffffffffffffffff1673ffffffffffffffffffffffffffffffffffffffff1681526020019081526020015f206040518060a00160405290815f82015f9054906101000a900473ffffffffffffffffffffffffffffffffffffffff1673ffffffffffffffffffffffffffffffffffffffff1673ffffffffffffffffffffffffffffffffffffffff168152602001600182015481526020016002820154815260200160038201548152602001600482015f9054906101000a900460ff16600281111561138c5761138b611eae565b5b600281111561139e5761139d611eae565b5b8152505090505f600160028111156113b9576113b8611eae565b5b826080015160028111156113d0576113cf611eae565b5b1461141a5760045f835f015173ffffffffffffffffffffffffffffffffffffffff1673ffffffffffffffffffffffffffffffffffffffff1681526020019081526020015f2061145b565b60035f835f015173ffffffffffffffffffffffffffffffffffffffff1673ffffffffffffffffffffffffffffffffffffffff1681526020019081526020015f205b9050816020015160025f83600185805490506114779190612406565b81548110611488576114876124c7565b5b905f5260205f20015f9054906101000a900473ffffffffffffffffffffffffffffffffffffffff1673ffffffffffffffffffffffffffffffffffffffff1673ffffffffffffffffffffffffffffffffffffffff1681526020019081526020015f206001018190555080600182805490506115029190612406565b81548110611513576115126124c7565b5b905f5260205f20015f9054906101000a900473ffffffffffffffffffffffffffffffffffffffff1681836020015181548110611552576115516124c7565b5b905f5260205f20015f6101000a81548173ffffffffffffffffffffffffffffffffffffffff021916908373ffffffffffffffffffffffffffffffffffffffff160217905550808054806115a8576115a76125c4565b5b600190038181905f5260205f20015f6101000a81549073ffffffffffffffffffffffffffffffffffffffff021916905590555f60025f8573ffffffffffffffffffffffffffffffffffffffff1673ffffffffffffffffffffffffffffffffffffffff1681526020019081526020015f206004015f6101000a81548160ff0219169083600281111561163c5761163b611eae565b5b0217905550505050565b5f6001600281111561165b5761165a611eae565b5b8360800151600281111561167257611671611eae565b5b03611690578183606001511161168b57600190506116a9565b6116a5565b818360600151106116a457600190506116a9565b5b5f90505b92915050565b5f8060025f8673ffffffffffffffffffffffffffffffffffffffff1673ffffffffffffffffffffffffffffffffffffffff1681526020019081526020015f206040518060a00160405290815f82015f9054906101000a900473ffffffffffffffffffffffffffffffffffffffff1673ffffffffffffffffffffffffffffffffffffffff1673ffffffffffffffffffffffffffffffffffffffff168152602001600182015481526020016002820154815260200160038201548152602001600482015f9054906101000a900460ff16600281111561178f5761178e611eae565b5b60028111156117a1576117a0611eae565b5b8152505090505f816040015185106117bd5781604001516117bf565b845b90506002808111156117d4576117d3611eae565b5b826080015160028111156117eb576117ea611eae565b5b036118f9578673ffffffffffffffffffffffffffffffffffffffff1663a9059cbb87836040518363ffffffff1660e01b815260040161182b929190612371565b6020604051808303815f875af1158015611847573d5f803e3d5ffd5b505050506040513d601f19601f8201168201806040525081019061186b9190612250565b6118aa576040517f08c379a00000000000000000000000000000000000000000000000000000000081526004016118a19061263b565b60405180910390fd5b6118c3338360600151836118be91906123c5565b611200565b83826060015111156118f4576118f386828685606001516118e49190612406565b6118ee91906123c5565b611200565b5b6119fe565b8673ffffffffffffffffffffffffffffffffffffffff1663a9059cbb33836040518363ffffffff1660e01b8152600401611934929190612371565b6020604051808303815f875af1158015611950573d5f803e3d5ffd5b505050506040513d601f19601f820116820180604052508101906119749190612250565b6119b3576040517f08c379a00000000000000000000000000000000000000000000000000000000081526004016119aa9061263b565b60405180910390fd5b6119cc868360600151836119c791906123c5565b611200565b83826060015110156119fd576119fc33828460600151876119ed9190612406565b6119f791906123c5565b611200565b5b5b8082604001818151611a109190612406565b915081815250505f826040015103611a3057611a2b866112ad565b611a7a565b816040015160025f8873ffffffffffffffffffffffffffffffffffffffff1673ffffffffffffffffffffffffffffffffffffffff1681526020019081526020015f20600201819055505b8573ffffffffffffffffffffffffffffffffffffffff163373ffffffffffffffffffffffffffffffffffffffff168873ffffffffffffffffffffffffffffffffffffffff167f1ce728f6a2703272ee2e07cf07fd21ddc592575a5b6774a529b595fdf56dd1a68560800151858760600151604051611afa93929190612659565b60405180910390a48085611b0e9190612406565b94508492505050949350505050565b5f60016002811115611b3257611b31611eae565b5b826002811115611b4557611b44611eae565b5b03611b8c5760035f8673ffffffffffffffffffffffffffffffffffffffff1673ffffffffffffffffffffffffffffffffffffffff1681526020019081526020015f20611bca565b60045f8673ffffffffffffffffffffffffffffffffffffffff1673ffffffffffffffffffffffffffffffffffffffff1681526020019081526020015f205b90508033908060018154018082558091505060019003905f5260205f20015f9091909190916101000a81548173ffffffffffffffffffffffffffffffffffffffff021916908373ffffffffffffffffffffffffffffffffffffffff1602179055506040518060a001604052808673ffffffffffffffffffffffffffffffffffffffff16815260200160018380549050611c639190612406565b8152602001858152602001848152602001836002811115611c8757611c86611eae565b5b81525060025f3373ffffffffffffffffffffffffffffffffffffffff1673ffffffffffffffffffffffffffffffffffffffff1681526020019081526020015f205f820151815f015f6101000a81548173ffffffffffffffffffffffffffffffffffffffff021916908373ffffffffffffffffffffffffffffffffffffffff1602179055506020820151816001015560408201518160020155606082015181600301556080820151816004015f6101000a81548160ff02191690836002811115611d5357611d52611eae565b5b02179055509050503373ffffffffffffffffffffffffffffffffffffffff168573ffffffffffffffffffffffffffffffffffffffff167fba9e7b0a1a964fea173e3888ffbcbe410fca9a481f92cf8fc8b76a1b70f31d68848787604051611dbc93929190612659565b60405180910390a35050505050565b5f8115159050919050565b611ddf81611dcb565b82525050565b5f602082019050611df85f830184611dd6565b92915050565b5f80fd5b5f73ffffffffffffffffffffffffffffffffffffffff82169050919050565b5f611e2b82611e02565b9050919050565b611e3b81611e21565b8114611e45575f80fd5b50565b5f81359050611e5681611e32565b92915050565b5f60208284031215611e7157611e70611dfe565b5b5f611e7e84828501611e48565b91505092915050565b611e9081611e21565b82525050565b5f819050919050565b611ea881611e96565b82525050565b7f4e487b71000000000000000000000000000000000000000000000000000000005f52602160045260245ffd5b60038110611eec57611eeb611eae565b5b50565b5f819050611efc82611edb565b919050565b5f611f0b82611eef565b9050919050565b611f1b81611f01565b82525050565b5f60a082019050611f345f830188611e87565b611f416020830187611e9f565b611f4e6040830186611e9f565b611f5b6060830185611e9f565b611f686080830184611f12565b9695505050505050565b611f7b81611e96565b8114611f85575f80fd5b50565b5f81359050611f9681611f72565b92915050565b5f8060408385031215611fb257611fb1611dfe565b5b5f611fbf85828601611e48565b9250506020611fd085828601611f88565b9150509250929050565b5f602082019050611fed5f830184611e87565b92915050565b5f805f6060848603121561200a57612009611dfe565b5b5f61201786828701611e48565b935050602061202886828701611f88565b925050604061203986828701611f88565b9150509250925092565b5f82825260208201905092915050565b7f43616c6c6572206973206e6f7420617574686f72697a656400000000000000005f82015250565b5f612087601883612043565b915061209282612053565b602082019050919050565b5f6020820190508181035f8301526120b48161207b565b9050919050565b7f416d6f756e74206d7573742062652067726561746572207468616e207a65726f5f82015250565b5f6120ef602083612043565b91506120fa826120bb565b602082019050919050565b5f6020820190508181035f83015261211c816120e3565b9050919050565b7f5072696365206d7573742062652067726561746572207468616e207a65726f005f82015250565b5f612157601f83612043565b915061216282612123565b602082019050919050565b5f6020820190508181035f8301526121848161214b565b9050919050565b5f60408201905061219e5f830185611e87565b6121ab6020830184611e87565b9392505050565b5f815190506121c081611f72565b92915050565b5f602082840312156121db576121da611dfe565b5b5f6121e8848285016121b2565b91505092915050565b5f6060820190506122045f830186611e87565b6122116020830185611e87565b61221e6040830184611e9f565b949350505050565b61222f81611dcb565b8114612239575f80fd5b50565b5f8151905061224a81612226565b92915050565b5f6020828403121561226557612264611dfe565b5b5f6122728482850161223c565b91505092915050565b7f546f6b656e207472616e7366657220746f2065786368616e6765206661696c655f8201527f6400000000000000000000000000000000000000000000000000000000000000602082015250565b5f6122d5602183612043565b91506122e08261227b565b604082019050919050565b5f6020820190508181035f830152612302816122c9565b9050919050565b7f4e6f20726571756573747320746f2063616e63656c00000000000000000000005f82015250565b5f61233d601583612043565b915061234882612309565b602082019050919050565b5f6020820190508181035f83015261236a81612331565b9050919050565b5f6040820190506123845f830185611e87565b6123916020830184611e9f565b9392505050565b7f4e487b71000000000000000000000000000000000000000000000000000000005f52601160045260245ffd5b5f6123cf82611e96565b91506123da83611e96565b92508282026123e881611e96565b915082820484148315176123ff576123fe612398565b5b5092915050565b5f61241082611e96565b915061241b83611e96565b925082820390508181111561243357612432612398565b5b92915050565b7f5472616e7366657220746f20746865207a65726f2061646472657373206973205f8201527f6e6f7420616c6c6f776564000000000000000000000000000000000000000000602082015250565b5f612493602b83612043565b915061249e82612439565b604082019050919050565b5f6020820190508181035f8301526124c081612487565b9050919050565b7f4e487b71000000000000000000000000000000000000000000000000000000005f52603260045260245ffd5b5f6124fe82611e96565b91505f82036125105761250f612398565b5b600182039050919050565b5f81905092915050565b50565b5f6125335f8361251b565b915061253e82612525565b5f82019050919050565b5f61255282612528565b9150819050919050565b7f4661696c656420746f2073656e642045746865720000000000000000000000005f82015250565b5f612590601483612043565b915061259b8261255c565b602082019050919050565b5f6020820190508181035f8301526125bd81612584565b9050919050565b7f4e487b71000000000000000000000000000000000000000000000000000000005f52603160045260245ffd5b7f546f6b656e207472616e7366657220746f206275796572206661696c656400005f82015250565b5f612625601e83612043565b9150612630826125f1565b602082019050919050565b5f6020820190508181035f83015261265281612619565b9050919050565b5f60608201905061266c5f830186611f12565b6126796020830185611e9f565b6126866040830184611e9f565b94935050505056fea2646970667358221220be829e3d31733a27592d9a0ba0d6da91576cb1b75715a0f753e5640d296fbf0a64736f6c63430008190033",
					"opcodes": "PUSH1 0x80 PUSH1 0x40 MSTORE CALLVALUE DUP1 ISZERO PUSH2 0xF JUMPI PUSH0 DUP1 REVERT JUMPDEST POP PUSH1 0x40 MLOAD PUSH2 0x27D0 CODESIZE SUB DUP1 PUSH2 0x27D0 DUP4 CODECOPY DUP2 DUP2 ADD PUSH1 0x40 MSTORE DUP2 ADD SWAP1 PUSH2 0x31 SWAP2 SWAP1 PUSH2 0xD4 JUMP JUMPDEST DUP1 PUSH0 DUP1 PUSH2 0x100 EXP DUP2 SLOAD DUP2 PUSH20 0xFFFFFFFFFFFFFFFFFFFFFFFFFFFFFFFFFFFFFFFF MUL NOT AND SWAP1 DUP4 PUSH20 0xFFFFFFFFFFFFFFFFFFFFFFFFFFFFFFFFFFFFFFFF AND MUL OR SWAP1 SSTORE POP POP PUSH2 0xFF JUMP JUMPDEST PUSH0 DUP1 REVERT JUMPDEST PUSH0 PUSH20 0xFFFFFFFFFFFFFFFFFFFFFFFFFFFFFFFFFFFFFFFF DUP3 AND SWAP1 POP SWAP2 SWAP1 POP JUMP JUMPDEST PUSH0 PUSH2 0xA3 DUP3 PUSH2 0x7A JUMP JUMPDEST SWAP1 POP SWAP2 SWAP1 POP JUMP JUMPDEST PUSH2 0xB3 DUP2 PUSH2 0x99 JUMP JUMPDEST DUP2 EQ PUSH2 0xBD JUMPI PUSH0 DUP1 REVERT JUMPDEST POP JUMP JUMPDEST PUSH0 DUP2 MLOAD SWAP1 POP PUSH2 0xCE DUP2 PUSH2 0xAA JUMP JUMPDEST SWAP3 SWAP2 POP POP JUMP JUMPDEST PUSH0 PUSH1 0x20 DUP3 DUP5 SUB SLT ISZERO PUSH2 0xE9 JUMPI PUSH2 0xE8 PUSH2 0x76 JUMP JUMPDEST JUMPDEST PUSH0 PUSH2 0xF6 DUP5 DUP3 DUP6 ADD PUSH2 0xC0 JUMP JUMPDEST SWAP2 POP POP SWAP3 SWAP2 POP POP JUMP JUMPDEST PUSH2 0x26C4 DUP1 PUSH2 0x10C PUSH0 CODECOPY PUSH0 RETURN INVALID PUSH1 0x80 PUSH1 0x40 MSTORE PUSH1 0x4 CALLDATASIZE LT PUSH2 0x90 JUMPI PUSH0 CALLDATALOAD PUSH1 0xE0 SHR DUP1 PUSH4 0x851B16F5 GT PUSH2 0x58 JUMPI DUP1 PUSH4 0x851B16F5 EQ PUSH2 0x19E JUMPI DUP1 PUSH4 0xA760E06A EQ PUSH2 0x1B4 JUMPI DUP1 PUSH4 0xC0B6F561 EQ PUSH2 0x1D0 JUMPI DUP1 PUSH4 0xC2EB05BA EQ PUSH2 0x20C JUMPI DUP1 PUSH4 0xCE606EE0 EQ PUSH2 0x236 JUMPI PUSH2 0x90 JUMP JUMPDEST DUP1 PUSH4 0x10731A65 EQ PUSH2 0x94 JUMPI DUP1 PUSH4 0x1A4B3311 EQ PUSH2 0xBE JUMPI DUP1 PUSH4 0x1FB64DA0 EQ PUSH2 0xFE JUMPI DUP1 PUSH4 0x73B298E2 EQ PUSH2 0x13A JUMPI DUP1 PUSH4 0x83588B99 EQ PUSH2 0x162 JUMPI JUMPDEST PUSH0 DUP1 REVERT JUMPDEST CALLVALUE DUP1 ISZERO PUSH2 0x9F JUMPI PUSH0 DUP1 REVERT JUMPDEST POP PUSH2 0xA8 PUSH2 0x260 JUMP JUMPDEST PUSH1 0x40 MLOAD PUSH2 0xB5 SWAP2 SWAP1 PUSH2 0x1DE5 JUMP JUMPDEST PUSH1 0x40 MLOAD DUP1 SWAP2 SUB SWAP1 RETURN JUMPDEST CALLVALUE DUP1 ISZERO PUSH2 0xC9 JUMPI PUSH0 DUP1 REVERT JUMPDEST POP PUSH2 0xE4 PUSH1 0x4 DUP1 CALLDATASIZE SUB DUP2 ADD SWAP1 PUSH2 0xDF SWAP2 SWAP1 PUSH2 0x1E5C JUMP JUMPDEST PUSH2 0x3FB JUMP JUMPDEST PUSH1 0x40 MLOAD PUSH2 0xF5 SWAP6 SWAP5 SWAP4 SWAP3 SWAP2 SWAP1 PUSH2 0x1F21 JUMP JUMPDEST PUSH1 0x40 MLOAD DUP1 SWAP2 SUB SWAP1 RETURN JUMPDEST CALLVALUE DUP1 ISZERO PUSH2 0x109 JUMPI PUSH0 DUP1 REVERT JUMPDEST POP PUSH2 0x124 PUSH1 0x4 DUP1 CALLDATASIZE SUB DUP2 ADD SWAP1 PUSH2 0x11F SWAP2 SWAP1 PUSH2 0x1F9C JUMP JUMPDEST PUSH2 0x458 JUMP JUMPDEST PUSH1 0x40 MLOAD PUSH2 0x131 SWAP2 SWAP1 PUSH2 0x1FDA JUMP JUMPDEST PUSH1 0x40 MLOAD DUP1 SWAP2 SUB SWAP1 RETURN JUMPDEST CALLVALUE DUP1 ISZERO PUSH2 0x145 JUMPI PUSH0 DUP1 REVERT JUMPDEST POP PUSH2 0x160 PUSH1 0x4 DUP1 CALLDATASIZE SUB DUP2 ADD SWAP1 PUSH2 0x15B SWAP2 SWAP1 PUSH2 0x1FF3 JUMP JUMPDEST PUSH2 0x4A0 JUMP JUMPDEST STOP JUMPDEST CALLVALUE DUP1 ISZERO PUSH2 0x16D JUMPI PUSH0 DUP1 REVERT JUMPDEST POP PUSH2 0x188 PUSH1 0x4 DUP1 CALLDATASIZE SUB DUP2 ADD SWAP1 PUSH2 0x183 SWAP2 SWAP1 PUSH2 0x1F9C JUMP JUMPDEST PUSH2 0x7E9 JUMP JUMPDEST PUSH1 0x40 MLOAD PUSH2 0x195 SWAP2 SWAP1 PUSH2 0x1FDA JUMP JUMPDEST PUSH1 0x40 MLOAD DUP1 SWAP2 SUB SWAP1 RETURN JUMPDEST CALLVALUE DUP1 ISZERO PUSH2 0x1A9 JUMPI PUSH0 DUP1 REVERT JUMPDEST POP PUSH2 0x1B2 PUSH2 0x831 JUMP JUMPDEST STOP JUMPDEST PUSH2 0x1CE PUSH1 0x4 DUP1 CALLDATASIZE SUB DUP2 ADD SWAP1 PUSH2 0x1C9 SWAP2 SWAP1 PUSH2 0x1FF3 JUMP JUMPDEST PUSH2 0xABC JUMP JUMPDEST STOP JUMPDEST CALLVALUE DUP1 ISZERO PUSH2 0x1DB JUMPI PUSH0 DUP1 REVERT JUMPDEST POP PUSH2 0x1F6 PUSH1 0x4 DUP1 CALLDATASIZE SUB DUP2 ADD SWAP1 PUSH2 0x1F1 SWAP2 SWAP1 PUSH2 0x1E5C JUMP JUMPDEST PUSH2 0xC85 JUMP JUMPDEST PUSH1 0x40 MLOAD PUSH2 0x203 SWAP2 SWAP1 PUSH2 0x1DE5 JUMP JUMPDEST PUSH1 0x40 MLOAD DUP1 SWAP2 SUB SWAP1 RETURN JUMPDEST CALLVALUE DUP1 ISZERO PUSH2 0x217 JUMPI PUSH0 DUP1 REVERT JUMPDEST POP PUSH2 0x220 PUSH2 0xE69 JUMP JUMPDEST PUSH1 0x40 MLOAD PUSH2 0x22D SWAP2 SWAP1 PUSH2 0x1FDA JUMP JUMPDEST PUSH1 0x40 MLOAD DUP1 SWAP2 SUB SWAP1 RETURN JUMPDEST CALLVALUE DUP1 ISZERO PUSH2 0x241 JUMPI PUSH0 DUP1 REVERT JUMPDEST POP PUSH2 0x24A PUSH2 0xE8E JUMP JUMPDEST PUSH1 0x40 MLOAD PUSH2 0x257 SWAP2 SWAP1 PUSH2 0x1FDA JUMP JUMPDEST PUSH1 0x40 MLOAD DUP1 SWAP2 SUB SWAP1 RETURN JUMPDEST PUSH0 PUSH1 0x1 PUSH0 SWAP1 SLOAD SWAP1 PUSH2 0x100 EXP SWAP1 DIV PUSH20 0xFFFFFFFFFFFFFFFFFFFFFFFFFFFFFFFFFFFFFFFF AND DUP1 PUSH20 0xFFFFFFFFFFFFFFFFFFFFFFFFFFFFFFFFFFFFFFFF AND CALLER PUSH20 0xFFFFFFFFFFFFFFFFFFFFFFFFFFFFFFFFFFFFFFFF AND EQ PUSH2 0x2F1 JUMPI PUSH1 0x40 MLOAD PUSH32 0x8C379A000000000000000000000000000000000000000000000000000000000 DUP2 MSTORE PUSH1 0x4 ADD PUSH2 0x2E8 SWAP1 PUSH2 0x209D JUMP JUMPDEST PUSH1 0x40 MLOAD DUP1 SWAP2 SUB SWAP1 REVERT JUMPDEST PUSH1 0x1 PUSH0 SWAP1 SLOAD SWAP1 PUSH2 0x100 EXP SWAP1 DIV PUSH20 0xFFFFFFFFFFFFFFFFFFFFFFFFFFFFFFFFFFFFFFFF AND PUSH0 DUP1 PUSH2 0x100 EXP DUP2 SLOAD DUP2 PUSH20 0xFFFFFFFFFFFFFFFFFFFFFFFFFFFFFFFFFFFFFFFF MUL NOT AND SWAP1 DUP4 PUSH20 0xFFFFFFFFFFFFFFFFFFFFFFFFFFFFFFFFFFFFFFFF AND MUL OR SWAP1 SSTORE POP PUSH0 PUSH1 0x1 PUSH0 PUSH2 0x100 EXP DUP2 SLOAD DUP2 PUSH20 0xFFFFFFFFFFFFFFFFFFFFFFFFFFFFFFFFFFFFFFFF MUL NOT AND SWAP1 DUP4 PUSH20 0xFFFFFFFFFFFFFFFFFFFFFFFFFFFFFFFFFFFFFFFF AND MUL OR SWAP1 SSTORE POP PUSH0 DUP1 SLOAD SWAP1 PUSH2 0x100 EXP SWAP1 DIV PUSH20 0xFFFFFFFFFFFFFFFFFFFFFFFFFFFFFFFFFFFFFFFF AND PUSH20 0xFFFFFFFFFFFFFFFFFFFFFFFFFFFFFFFFFFFFFFFF AND PUSH32 0x41E8EE868CB815A7E5CD1A100E6FF024772D79C071718C049AB7D3BC4E1226D PUSH1 0x40 MLOAD PUSH1 0x40 MLOAD DUP1 SWAP2 SUB SWAP1 LOG2 PUSH1 0x1 SWAP2 POP POP SWAP1 JUMP JUMPDEST PUSH1 0x2 PUSH1 0x20 MSTORE DUP1 PUSH0 MSTORE PUSH1 0x40 PUSH0 KECCAK256 PUSH0 SWAP2 POP SWAP1 POP DUP1 PUSH0 ADD PUSH0 SWAP1 SLOAD SWAP1 PUSH2 0x100 EXP SWAP1 DIV PUSH20 0xFFFFFFFFFFFFFFFFFFFFFFFFFFFFFFFFFFFFFFFF AND SWAP1 DUP1 PUSH1 0x1 ADD SLOAD SWAP1 DUP1 PUSH1 0x2 ADD SLOAD SWAP1 DUP1 PUSH1 0x3 ADD SLOAD SWAP1 DUP1 PUSH1 0x4 ADD PUSH0 SWAP1 SLOAD SWAP1 PUSH2 0x100 EXP SWAP1 DIV PUSH1 0xFF AND SWAP1 POP DUP6 JUMP JUMPDEST PUSH1 0x4 PUSH1 0x20 MSTORE DUP2 PUSH0 MSTORE PUSH1 0x40 PUSH0 KECCAK256 DUP2 DUP2 SLOAD DUP2 LT PUSH2 0x471 JUMPI PUSH0 DUP1 REVERT JUMPDEST SWAP1 PUSH0 MSTORE PUSH1 0x20 PUSH0 KECCAK256 ADD PUSH0 SWAP2 POP SWAP2 POP SWAP1 SLOAD SWAP1 PUSH2 0x100 EXP SWAP1 DIV PUSH20 0xFFFFFFFFFFFFFFFFFFFFFFFFFFFFFFFFFFFFFFFF AND DUP2 JUMP JUMPDEST PUSH0 PUSH1 0x2 DUP2 GT ISZERO PUSH2 0x4B3 JUMPI PUSH2 0x4B2 PUSH2 0x1EAE JUMP JUMPDEST JUMPDEST PUSH1 0x2 PUSH0 CALLER PUSH20 0xFFFFFFFFFFFFFFFFFFFFFFFFFFFFFFFFFFFFFFFF AND PUSH20 0xFFFFFFFFFFFFFFFFFFFFFFFFFFFFFFFFFFFFFFFF AND DUP2 MSTORE PUSH1 0x20 ADD SWAP1 DUP2 MSTORE PUSH1 0x20 ADD PUSH0 KECCAK256 PUSH1 0x4 ADD PUSH0 SWAP1 SLOAD SWAP1 PUSH2 0x100 EXP SWAP1 DIV PUSH1 0xFF AND PUSH1 0x2 DUP2 GT ISZERO PUSH2 0x512 JUMPI PUSH2 0x511 PUSH2 0x1EAE JUMP JUMPDEST JUMPDEST EQ PUSH2 0x51B JUMPI PUSH0 DUP1 REVERT JUMPDEST DUP2 PUSH0 DUP2 SUB PUSH2 0x55E JUMPI PUSH1 0x40 MLOAD PUSH32 0x8C379A000000000000000000000000000000000000000000000000000000000 DUP2 MSTORE PUSH1 0x4 ADD PUSH2 0x555 SWAP1 PUSH2 0x2105 JUMP JUMPDEST PUSH1 0x40 MLOAD DUP1 SWAP2 SUB SWAP1 REVERT JUMPDEST DUP2 PUSH0 DUP2 SUB PUSH2 0x5A1 JUMPI PUSH1 0x40 MLOAD PUSH32 0x8C379A000000000000000000000000000000000000000000000000000000000 DUP2 MSTORE PUSH1 0x4 ADD PUSH2 0x598 SWAP1 PUSH2 0x216D JUMP JUMPDEST PUSH1 0x40 MLOAD DUP1 SWAP2 SUB SWAP1 REVERT JUMPDEST DUP5 DUP5 DUP1 DUP3 PUSH20 0xFFFFFFFFFFFFFFFFFFFFFFFFFFFFFFFFFFFFFFFF AND PUSH4 0xDD62ED3E CALLER ADDRESS PUSH1 0x40 MLOAD DUP4 PUSH4 0xFFFFFFFF AND PUSH1 0xE0 SHL DUP2 MSTORE PUSH1 0x4 ADD PUSH2 0x5DF SWAP3 SWAP2 SWAP1 PUSH2 0x218B JUMP JUMPDEST PUSH1 0x20 PUSH1 0x40 MLOAD DUP1 DUP4 SUB DUP2 DUP7 GAS STATICCALL ISZERO DUP1 ISZERO PUSH2 0x5FA JUMPI RETURNDATASIZE PUSH0 DUP1 RETURNDATACOPY RETURNDATASIZE PUSH0 REVERT JUMPDEST POP POP POP POP PUSH1 0x40 MLOAD RETURNDATASIZE PUSH1 0x1F NOT PUSH1 0x1F DUP3 ADD AND DUP3 ADD DUP1 PUSH1 0x40 MSTORE POP DUP2 ADD SWAP1 PUSH2 0x61E SWAP2 SWAP1 PUSH2 0x21C6 JUMP JUMPDEST LT ISZERO PUSH2 0x628 JUMPI PUSH0 DUP1 REVERT JUMPDEST DUP7 DUP7 DUP1 DUP3 PUSH20 0xFFFFFFFFFFFFFFFFFFFFFFFFFFFFFFFFFFFFFFFF AND PUSH4 0x70A08231 CALLER PUSH1 0x40 MLOAD DUP3 PUSH4 0xFFFFFFFF AND PUSH1 0xE0 SHL DUP2 MSTORE PUSH1 0x4 ADD PUSH2 0x664 SWAP2 SWAP1 PUSH2 0x1FDA JUMP JUMPDEST PUSH1 0x20 PUSH1 0x40 MLOAD DUP1 DUP4 SUB DUP2 DUP7 GAS STATICCALL ISZERO DUP1 ISZERO PUSH2 0x67F JUMPI RETURNDATASIZE PUSH0 DUP1 RETURNDATACOPY RETURNDATASIZE PUSH0 REVERT JUMPDEST POP POP POP POP PUSH1 0x40 MLOAD RETURNDATASIZE PUSH1 0x1F NOT PUSH1 0x1F DUP3 ADD AND DUP3 ADD DUP1 PUSH1 0x40 MSTORE POP DUP2 ADD SWAP1 PUSH2 0x6A3 SWAP2 SWAP1 PUSH2 0x21C6 JUMP JUMPDEST LT ISZERO PUSH2 0x6AD JUMPI PUSH0 DUP1 REVERT JUMPDEST PUSH1 0x1 PUSH1 0x2 PUSH0 CALLER PUSH20 0xFFFFFFFFFFFFFFFFFFFFFFFFFFFFFFFFFFFFFFFF AND PUSH20 0xFFFFFFFFFFFFFFFFFFFFFFFFFFFFFFFFFFFFFFFF AND DUP2 MSTORE PUSH1 0x20 ADD SWAP1 DUP2 MSTORE PUSH1 0x20 ADD PUSH0 KECCAK256 PUSH1 0x4 ADD PUSH0 PUSH2 0x100 EXP DUP2 SLOAD DUP2 PUSH1 0xFF MUL NOT AND SWAP1 DUP4 PUSH1 0x2 DUP2 GT ISZERO PUSH2 0x710 JUMPI PUSH2 0x70F PUSH2 0x1EAE JUMP JUMPDEST JUMPDEST MUL OR SWAP1 SSTORE POP DUP9 PUSH20 0xFFFFFFFFFFFFFFFFFFFFFFFFFFFFFFFFFFFFFFFF AND PUSH4 0x23B872DD CALLER ADDRESS DUP12 PUSH1 0x40 MLOAD DUP5 PUSH4 0xFFFFFFFF AND PUSH1 0xE0 SHL DUP2 MSTORE PUSH1 0x4 ADD PUSH2 0x752 SWAP4 SWAP3 SWAP2 SWAP1 PUSH2 0x21F1 JUMP JUMPDEST PUSH1 0x20 PUSH1 0x40 MLOAD DUP1 DUP4 SUB DUP2 PUSH0 DUP8 GAS CALL ISZERO DUP1 ISZERO PUSH2 0x76E JUMPI RETURNDATASIZE PUSH0 DUP1 RETURNDATACOPY RETURNDATASIZE PUSH0 REVERT JUMPDEST POP POP POP POP PUSH1 0x40 MLOAD RETURNDATASIZE PUSH1 0x1F NOT PUSH1 0x1F DUP3 ADD AND DUP3 ADD DUP1 PUSH1 0x40 MSTORE POP DUP2 ADD SWAP1 PUSH2 0x792 SWAP2 SWAP1 PUSH2 0x2250 JUMP JUMPDEST PUSH2 0x7D1 JUMPI PUSH1 0x40 MLOAD PUSH32 0x8C379A000000000000000000000000000000000000000000000000000000000 DUP2 MSTORE PUSH1 0x4 ADD PUSH2 0x7C8 SWAP1 PUSH2 0x22EB JUMP JUMPDEST PUSH1 0x40 MLOAD DUP1 SWAP2 SUB SWAP1 REVERT JUMPDEST PUSH2 0x7DE DUP10 DUP10 DUP10 PUSH1 0x1 PUSH2 0xEB1 JUMP JUMPDEST POP POP POP POP POP POP POP POP POP JUMP JUMPDEST PUSH1 0x3 PUSH1 0x20 MSTORE DUP2 PUSH0 MSTORE PUSH1 0x40 PUSH0 KECCAK256 DUP2 DUP2 SLOAD DUP2 LT PUSH2 0x802 JUMPI PUSH0 DUP1 REVERT JUMPDEST SWAP1 PUSH0 MSTORE PUSH1 0x20 PUSH0 KECCAK256 ADD PUSH0 SWAP2 POP SWAP2 POP SWAP1 SLOAD SWAP1 PUSH2 0x100 EXP SWAP1 DIV PUSH20 0xFFFFFFFFFFFFFFFFFFFFFFFFFFFFFFFFFFFFFFFF AND DUP2 JUMP JUMPDEST PUSH0 PUSH1 0x2 DUP2 GT ISZERO PUSH2 0x844 JUMPI PUSH2 0x843 PUSH2 0x1EAE JUMP JUMPDEST JUMPDEST PUSH1 0x2 PUSH0 CALLER PUSH20 0xFFFFFFFFFFFFFFFFFFFFFFFFFFFFFFFFFFFFFFFF AND PUSH20 0xFFFFFFFFFFFFFFFFFFFFFFFFFFFFFFFFFFFFFFFF AND DUP2 MSTORE PUSH1 0x20 ADD SWAP1 DUP2 MSTORE PUSH1 0x20 ADD PUSH0 KECCAK256 PUSH1 0x4 ADD PUSH0 SWAP1 SLOAD SWAP1 PUSH2 0x100 EXP SWAP1 DIV PUSH1 0xFF AND PUSH1 0x2 DUP2 GT ISZERO PUSH2 0x8A3 JUMPI PUSH2 0x8A2 PUSH2 0x1EAE JUMP JUMPDEST JUMPDEST SUB PUSH2 0x8E3 JUMPI PUSH1 0x40 MLOAD PUSH32 0x8C379A000000000000000000000000000000000000000000000000000000000 DUP2 MSTORE PUSH1 0x4 ADD PUSH2 0x8DA SWAP1 PUSH2 0x2353 JUMP JUMPDEST PUSH1 0x40 MLOAD DUP1 SWAP2 SUB SWAP1 REVERT JUMPDEST PUSH0 PUSH1 0x2 PUSH0 CALLER PUSH20 0xFFFFFFFFFFFFFFFFFFFFFFFFFFFFFFFFFFFFFFFF AND PUSH20 0xFFFFFFFFFFFFFFFFFFFFFFFFFFFFFFFFFFFFFFFF AND DUP2 MSTORE PUSH1 0x20 ADD SWAP1 DUP2 MSTORE PUSH1 0x20 ADD PUSH0 KECCAK256 PUSH1 0x40 MLOAD DUP1 PUSH1 0xA0 ADD PUSH1 0x40 MSTORE SWAP1 DUP2 PUSH0 DUP3 ADD PUSH0 SWAP1 SLOAD SWAP1 PUSH2 0x100 EXP SWAP1 DIV PUSH20 0xFFFFFFFFFFFFFFFFFFFFFFFFFFFFFFFFFFFFFFFF AND PUSH20 0xFFFFFFFFFFFFFFFFFFFFFFFFFFFFFFFFFFFFFFFF AND PUSH20 0xFFFFFFFFFFFFFFFFFFFFFFFFFFFFFFFFFFFFFFFF AND DUP2 MSTORE PUSH1 0x20 ADD PUSH1 0x1 DUP3 ADD SLOAD DUP2 MSTORE PUSH1 0x20 ADD PUSH1 0x2 DUP3 ADD SLOAD DUP2 MSTORE PUSH1 0x20 ADD PUSH1 0x3 DUP3 ADD SLOAD DUP2 MSTORE PUSH1 0x20 ADD PUSH1 0x4 DUP3 ADD PUSH0 SWAP1 SLOAD SWAP1 PUSH2 0x100 EXP SWAP1 DIV PUSH1 0xFF AND PUSH1 0x2 DUP2 GT ISZERO PUSH2 0x9C2 JUMPI PUSH2 0x9C1 PUSH2 0x1EAE JUMP JUMPDEST JUMPDEST PUSH1 0x2 DUP2 GT ISZERO PUSH2 0x9D4 JUMPI PUSH2 0x9D3 PUSH2 0x1EAE JUMP JUMPDEST JUMPDEST DUP2 MSTORE POP POP SWAP1 POP PUSH1 0x1 PUSH1 0x2 DUP2 GT ISZERO PUSH2 0x9EE JUMPI PUSH2 0x9ED PUSH2 0x1EAE JUMP JUMPDEST JUMPDEST DUP2 PUSH1 0x80 ADD MLOAD PUSH1 0x2 DUP2 GT ISZERO PUSH2 0xA05 JUMPI PUSH2 0xA04 PUSH2 0x1EAE JUMP JUMPDEST JUMPDEST SUB PUSH2 0xA92 JUMPI DUP1 PUSH0 ADD MLOAD PUSH20 0xFFFFFFFFFFFFFFFFFFFFFFFFFFFFFFFFFFFFFFFF AND PUSH4 0xA9059CBB CALLER DUP4 PUSH1 0x40 ADD MLOAD PUSH1 0x40 MLOAD DUP4 PUSH4 0xFFFFFFFF AND PUSH1 0xE0 SHL DUP2 MSTORE PUSH1 0x4 ADD PUSH2 0xA4C SWAP3 SWAP2 SWAP1 PUSH2 0x2371 JUMP JUMPDEST PUSH1 0x20 PUSH1 0x40 MLOAD DUP1 DUP4 SUB DUP2 PUSH0 DUP8 GAS CALL ISZERO DUP1 ISZERO PUSH2 0xA68 JUMPI RETURNDATASIZE PUSH0 DUP1 RETURNDATACOPY RETURNDATASIZE PUSH0 REVERT JUMPDEST POP POP POP POP PUSH1 0x40 MLOAD RETURNDATASIZE PUSH1 0x1F NOT PUSH1 0x1F DUP3 ADD AND DUP3 ADD DUP1 PUSH1 0x40 MSTORE POP DUP2 ADD SWAP1 PUSH2 0xA8C SWAP2 SWAP1 PUSH2 0x2250 JUMP JUMPDEST POP PUSH2 0xAB0 JUMP JUMPDEST PUSH2 0xAAF CALLER DUP3 PUSH1 0x60 ADD MLOAD DUP4 PUSH1 0x40 ADD MLOAD PUSH2 0xAAA SWAP2 SWAP1 PUSH2 0x23C5 JUMP JUMPDEST PUSH2 0x1200 JUMP JUMPDEST JUMPDEST PUSH2 0xAB9 CALLER PUSH2 0x12AD JUMP JUMPDEST POP JUMP JUMPDEST PUSH0 PUSH1 0x2 DUP2 GT ISZERO PUSH2 0xACF JUMPI PUSH2 0xACE PUSH2 0x1EAE JUMP JUMPDEST JUMPDEST PUSH1 0x2 PUSH0 CALLER PUSH20 0xFFFFFFFFFFFFFFFFFFFFFFFFFFFFFFFFFFFFFFFF AND PUSH20 0xFFFFFFFFFFFFFFFFFFFFFFFFFFFFFFFFFFFFFFFF AND DUP2 MSTORE PUSH1 0x20 ADD SWAP1 DUP2 MSTORE PUSH1 0x20 ADD PUSH0 KECCAK256 PUSH1 0x4 ADD PUSH0 SWAP1 SLOAD SWAP1 PUSH2 0x100 EXP SWAP1 DIV PUSH1 0xFF AND PUSH1 0x2 DUP2 GT ISZERO PUSH2 0xB2E JUMPI PUSH2 0xB2D PUSH2 0x1EAE JUMP JUMPDEST JUMPDEST EQ PUSH2 0xB37 JUMPI PUSH0 DUP1 REVERT JUMPDEST DUP2 PUSH0 DUP2 SUB PUSH2 0xB7A JUMPI PUSH1 0x40 MLOAD PUSH32 0x8C379A000000000000000000000000000000000000000000000000000000000 DUP2 MSTORE PUSH1 0x4 ADD PUSH2 0xB71 SWAP1 PUSH2 0x2105 JUMP JUMPDEST PUSH1 0x40 MLOAD DUP1 SWAP2 SUB SWAP1 REVERT JUMPDEST DUP2 PUSH0 DUP2 SUB PUSH2 0xBBD JUMPI PUSH1 0x40 MLOAD PUSH32 0x8C379A000000000000000000000000000000000000000000000000000000000 DUP2 MSTORE PUSH1 0x4 ADD PUSH2 0xBB4 SWAP1 PUSH2 0x216D JUMP JUMPDEST PUSH1 0x40 MLOAD DUP1 SWAP2 SUB SWAP1 REVERT JUMPDEST DUP3 DUP5 PUSH2 0xBC9 SWAP2 SWAP1 PUSH2 0x23C5 JUMP JUMPDEST DUP1 CALLVALUE LT ISZERO PUSH2 0xBD5 JUMPI PUSH0 DUP1 REVERT JUMPDEST DUP4 DUP6 PUSH2 0xBE1 SWAP2 SWAP1 PUSH2 0x23C5 JUMP JUMPDEST CALLVALUE GT ISZERO PUSH2 0xC09 JUMPI PUSH2 0xC08 CALLER DUP6 DUP8 PUSH2 0xBF8 SWAP2 SWAP1 PUSH2 0x23C5 JUMP JUMPDEST CALLVALUE PUSH2 0xC03 SWAP2 SWAP1 PUSH2 0x2406 JUMP JUMPDEST PUSH2 0x1200 JUMP JUMPDEST JUMPDEST PUSH1 0x2 DUP1 PUSH0 CALLER PUSH20 0xFFFFFFFFFFFFFFFFFFFFFFFFFFFFFFFFFFFFFFFF AND PUSH20 0xFFFFFFFFFFFFFFFFFFFFFFFFFFFFFFFFFFFFFFFF AND DUP2 MSTORE PUSH1 0x20 ADD SWAP1 DUP2 MSTORE PUSH1 0x20 ADD PUSH0 KECCAK256 PUSH1 0x4 ADD PUSH0 PUSH2 0x100 EXP DUP2 SLOAD DUP2 PUSH1 0xFF MUL NOT AND SWAP1 DUP4 PUSH1 0x2 DUP2 GT ISZERO PUSH2 0xC6B JUMPI PUSH2 0xC6A PUSH2 0x1EAE JUMP JUMPDEST JUMPDEST MUL OR SWAP1 SSTORE POP PUSH2 0xC7D DUP7 DUP7 DUP7 PUSH1 0x2 PUSH2 0xEB1 JUMP JUMPDEST POP POP POP POP POP POP JUMP JUMPDEST PUSH0 DUP1 PUSH0 SWAP1 SLOAD SWAP1 PUSH2 0x100 EXP SWAP1 DIV PUSH20 0xFFFFFFFFFFFFFFFFFFFFFFFFFFFFFFFFFFFFFFFF AND DUP1 PUSH20 0xFFFFFFFFFFFFFFFFFFFFFFFFFFFFFFFFFFFFFFFF AND CALLER PUSH20 0xFFFFFFFFFFFFFFFFFFFFFFFFFFFFFFFFFFFFFFFF AND EQ PUSH2 0xD15 JUMPI PUSH1 0x40 MLOAD PUSH32 0x8C379A000000000000000000000000000000000000000000000000000000000 DUP2 MSTORE PUSH1 0x4 ADD PUSH2 0xD0C SWAP1 PUSH2 0x209D JUMP JUMPDEST PUSH1 0x40 MLOAD DUP1 SWAP2 SUB SWAP1 REVERT JUMPDEST DUP3 DUP1 PUSH20 0xFFFFFFFFFFFFFFFFFFFFFFFFFFFFFFFFFFFFFFFF AND PUSH0 PUSH20 0xFFFFFFFFFFFFFFFFFFFFFFFFFFFFFFFFFFFFFFFF AND SUB PUSH2 0xD84 JUMPI PUSH1 0x40 MLOAD PUSH32 0x8C379A000000000000000000000000000000000000000000000000000000000 DUP2 MSTORE PUSH1 0x4 ADD PUSH2 0xD7B SWAP1 PUSH2 0x24A9 JUMP JUMPDEST PUSH1 0x40 MLOAD DUP1 SWAP2 SUB SWAP1 REVERT JUMPDEST DUP4 PUSH1 0x1 PUSH0 PUSH2 0x100 EXP DUP2 SLOAD DUP2 PUSH20 0xFFFFFFFFFFFFFFFFFFFFFFFFFFFFFFFFFFFFFFFF MUL NOT AND SWAP1 DUP4 PUSH20 0xFFFFFFFFFFFFFFFFFFFFFFFFFFFFFFFFFFFFFFFF AND MUL OR SWAP1 SSTORE POP PUSH1 0x1 PUSH0 SWAP1 SLOAD SWAP1 PUSH2 0x100 EXP SWAP1 DIV PUSH20 0xFFFFFFFFFFFFFFFFFFFFFFFFFFFFFFFFFFFFFFFF AND PUSH20 0xFFFFFFFFFFFFFFFFFFFFFFFFFFFFFFFFFFFFFFFF AND PUSH0 DUP1 SLOAD SWAP1 PUSH2 0x100 EXP SWAP1 DIV PUSH20 0xFFFFFFFFFFFFFFFFFFFFFFFFFFFFFFFFFFFFFFFF AND PUSH20 0xFFFFFFFFFFFFFFFFFFFFFFFFFFFFFFFFFFFFFFFF AND PUSH32 0xFEE8BF98F40B2AC772A78CD4D45742484D3471F99046B224F8E6922E7C6EB1D2 PUSH1 0x40 MLOAD PUSH1 0x40 MLOAD DUP1 SWAP2 SUB SWAP1 LOG3 PUSH1 0x1 SWAP3 POP POP POP SWAP2 SWAP1 POP JUMP JUMPDEST PUSH1 0x1 PUSH0 SWAP1 SLOAD SWAP1 PUSH2 0x100 EXP SWAP1 DIV PUSH20 0xFFFFFFFFFFFFFFFFFFFFFFFFFFFFFFFFFFFFFFFF AND DUP2 JUMP JUMPDEST PUSH0 DUP1 SLOAD SWAP1 PUSH2 0x100 EXP SWAP1 DIV PUSH20 0xFFFFFFFFFFFFFFFFFFFFFFFFFFFFFFFFFFFFFFFF AND DUP2 JUMP JUMPDEST PUSH0 PUSH1 0x1 PUSH1 0x2 DUP2 GT ISZERO PUSH2 0xEC6 JUMPI PUSH2 0xEC5 PUSH2 0x1EAE JUMP JUMPDEST JUMPDEST DUP3 PUSH1 0x2 DUP2 GT ISZERO PUSH2 0xED9 JUMPI PUSH2 0xED8 PUSH2 0x1EAE JUMP JUMPDEST JUMPDEST EQ PUSH2 0xF20 JUMPI PUSH1 0x3 PUSH0 DUP7 PUSH20 0xFFFFFFFFFFFFFFFFFFFFFFFFFFFFFFFFFFFFFFFF AND PUSH20 0xFFFFFFFFFFFFFFFFFFFFFFFFFFFFFFFFFFFFFFFF AND DUP2 MSTORE PUSH1 0x20 ADD SWAP1 DUP2 MSTORE PUSH1 0x20 ADD PUSH0 KECCAK256 PUSH2 0xF5E JUMP JUMPDEST PUSH1 0x4 PUSH0 DUP7 PUSH20 0xFFFFFFFFFFFFFFFFFFFFFFFFFFFFFFFFFFFFFFFF AND PUSH20 0xFFFFFFFFFFFFFFFFFFFFFFFFFFFFFFFFFFFFFFFF AND DUP2 MSTORE PUSH1 0x20 ADD SWAP1 DUP2 MSTORE PUSH1 0x20 ADD PUSH0 KECCAK256 JUMPDEST DUP1 SLOAD DUP1 PUSH1 0x20 MUL PUSH1 0x20 ADD PUSH1 0x40 MLOAD SWAP1 DUP2 ADD PUSH1 0x40 MSTORE DUP1 SWAP3 SWAP2 SWAP1 DUP2 DUP2 MSTORE PUSH1 0x20 ADD DUP3 DUP1 SLOAD DUP1 ISZERO PUSH2 0xFDB JUMPI PUSH1 0x20 MUL DUP3 ADD SWAP2 SWAP1 PUSH0 MSTORE PUSH1 0x20 PUSH0 KECCAK256 SWAP1 JUMPDEST DUP2 PUSH0 SWAP1 SLOAD SWAP1 PUSH2 0x100 EXP SWAP1 DIV PUSH20 0xFFFFFFFFFFFFFFFFFFFFFFFFFFFFFFFFFFFFFFFF AND PUSH20 0xFFFFFFFFFFFFFFFFFFFFFFFFFFFFFFFFFFFFFFFF AND DUP2 MSTORE PUSH1 0x20 ADD SWAP1 PUSH1 0x1 ADD SWAP1 DUP1 DUP4 GT PUSH2 0xF92 JUMPI JUMPDEST POP POP POP POP POP SWAP1 POP PUSH0 DUP5 SWAP1 POP PUSH0 DUP3 MLOAD SWAP1 POP JUMPDEST PUSH0 DUP2 GT ISZERO PUSH2 0x1176 JUMPI PUSH0 PUSH1 0x2 PUSH0 DUP6 PUSH1 0x1 DUP6 PUSH2 0x1006 SWAP2 SWAP1 PUSH2 0x2406 JUMP JUMPDEST DUP2 MLOAD DUP2 LT PUSH2 0x1017 JUMPI PUSH2 0x1016 PUSH2 0x24C7 JUMP JUMPDEST JUMPDEST PUSH1 0x20 MUL PUSH1 0x20 ADD ADD MLOAD PUSH20 0xFFFFFFFFFFFFFFFFFFFFFFFFFFFFFFFFFFFFFFFF AND PUSH20 0xFFFFFFFFFFFFFFFFFFFFFFFFFFFFFFFFFFFFFFFF AND DUP2 MSTORE PUSH1 0x20 ADD SWAP1 DUP2 MSTORE PUSH1 0x20 ADD PUSH0 KECCAK256 PUSH1 0x40 MLOAD DUP1 PUSH1 0xA0 ADD PUSH1 0x40 MSTORE SWAP1 DUP2 PUSH0 DUP3 ADD PUSH0 SWAP1 SLOAD SWAP1 PUSH2 0x100 EXP SWAP1 DIV PUSH20 0xFFFFFFFFFFFFFFFFFFFFFFFFFFFFFFFFFFFFFFFF AND PUSH20 0xFFFFFFFFFFFFFFFFFFFFFFFFFFFFFFFFFFFFFFFF AND PUSH20 0xFFFFFFFFFFFFFFFFFFFFFFFFFFFFFFFFFFFFFFFF AND DUP2 MSTORE PUSH1 0x20 ADD PUSH1 0x1 DUP3 ADD SLOAD DUP2 MSTORE PUSH1 0x20 ADD PUSH1 0x2 DUP3 ADD SLOAD DUP2 MSTORE PUSH1 0x20 ADD PUSH1 0x3 DUP3 ADD SLOAD DUP2 MSTORE PUSH1 0x20 ADD PUSH1 0x4 DUP3 ADD PUSH0 SWAP1 SLOAD SWAP1 PUSH2 0x100 EXP SWAP1 DIV PUSH1 0xFF AND PUSH1 0x2 DUP2 GT ISZERO PUSH2 0x10F9 JUMPI PUSH2 0x10F8 PUSH2 0x1EAE JUMP JUMPDEST JUMPDEST PUSH1 0x2 DUP2 GT ISZERO PUSH2 0x110B JUMPI PUSH2 0x110A PUSH2 0x1EAE JUMP JUMPDEST JUMPDEST DUP2 MSTORE POP POP SWAP1 POP PUSH2 0x111B DUP2 DUP8 PUSH2 0x1646 JUMP JUMPDEST ISZERO PUSH2 0x1162 JUMPI PUSH2 0x1152 DUP9 DUP6 PUSH1 0x1 DUP6 PUSH2 0x1132 SWAP2 SWAP1 PUSH2 0x2406 JUMP JUMPDEST DUP2 MLOAD DUP2 LT PUSH2 0x1143 JUMPI PUSH2 0x1142 PUSH2 0x24C7 JUMP JUMPDEST JUMPDEST PUSH1 0x20 MUL PUSH1 0x20 ADD ADD MLOAD DUP6 DUP10 PUSH2 0x16AF JUMP JUMPDEST SWAP3 POP PUSH0 DUP4 SUB PUSH2 0x1161 JUMPI POP PUSH2 0x1176 JUMP JUMPDEST JUMPDEST POP DUP1 DUP1 PUSH2 0x116E SWAP1 PUSH2 0x24F4 JUMP JUMPDEST SWAP2 POP POP PUSH2 0xFEC JUMP JUMPDEST POP PUSH0 DUP2 GT ISZERO PUSH2 0x1190 JUMPI PUSH2 0x118B DUP7 DUP3 DUP7 DUP7 PUSH2 0x1B1D JUMP JUMPDEST PUSH2 0x11F8 JUMP JUMPDEST PUSH0 PUSH1 0x2 PUSH0 CALLER PUSH20 0xFFFFFFFFFFFFFFFFFFFFFFFFFFFFFFFFFFFFFFFF AND PUSH20 0xFFFFFFFFFFFFFFFFFFFFFFFFFFFFFFFFFFFFFFFF AND DUP2 MSTORE PUSH1 0x20 ADD SWAP1 DUP2 MSTORE PUSH1 0x20 ADD PUSH0 KECCAK256 PUSH1 0x4 ADD PUSH0 PUSH2 0x100 EXP DUP2 SLOAD DUP2 PUSH1 0xFF MUL NOT AND SWAP1 DUP4 PUSH1 0x2 DUP2 GT ISZERO PUSH2 0x11F2 JUMPI PUSH2 0x11F1 PUSH2 0x1EAE JUMP JUMPDEST JUMPDEST MUL OR SWAP1 SSTORE POP JUMPDEST POP POP POP POP POP POP JUMP JUMPDEST PUSH0 DUP3 PUSH20 0xFFFFFFFFFFFFFFFFFFFFFFFFFFFFFFFFFFFFFFFF AND DUP3 PUSH1 0x40 MLOAD PUSH2 0x1225 SWAP1 PUSH2 0x2548 JUMP JUMPDEST PUSH0 PUSH1 0x40 MLOAD DUP1 DUP4 SUB DUP2 DUP6 DUP8 GAS CALL SWAP3 POP POP POP RETURNDATASIZE DUP1 PUSH0 DUP2 EQ PUSH2 0x125F JUMPI PUSH1 0x40 MLOAD SWAP2 POP PUSH1 0x1F NOT PUSH1 0x3F RETURNDATASIZE ADD AND DUP3 ADD PUSH1 0x40 MSTORE RETURNDATASIZE DUP3 MSTORE RETURNDATASIZE PUSH0 PUSH1 0x20 DUP5 ADD RETURNDATACOPY PUSH2 0x1264 JUMP JUMPDEST PUSH1 0x60 SWAP2 POP JUMPDEST POP POP SWAP1 POP DUP1 PUSH2 0x12A8 JUMPI PUSH1 0x40 MLOAD PUSH32 0x8C379A000000000000000000000000000000000000000000000000000000000 DUP2 MSTORE PUSH1 0x4 ADD PUSH2 0x129F SWAP1 PUSH2 0x25A6 JUMP JUMPDEST PUSH1 0x40 MLOAD DUP1 SWAP2 SUB SWAP1 REVERT JUMPDEST POP POP POP JUMP JUMPDEST PUSH0 PUSH1 0x2 PUSH0 DUP4 PUSH20 0xFFFFFFFFFFFFFFFFFFFFFFFFFFFFFFFFFFFFFFFF AND PUSH20 0xFFFFFFFFFFFFFFFFFFFFFFFFFFFFFFFFFFFFFFFF AND DUP2 MSTORE PUSH1 0x20 ADD SWAP1 DUP2 MSTORE PUSH1 0x20 ADD PUSH0 KECCAK256 PUSH1 0x40 MLOAD DUP1 PUSH1 0xA0 ADD PUSH1 0x40 MSTORE SWAP1 DUP2 PUSH0 DUP3 ADD PUSH0 SWAP1 SLOAD SWAP1 PUSH2 0x100 EXP SWAP1 DIV PUSH20 0xFFFFFFFFFFFFFFFFFFFFFFFFFFFFFFFFFFFFFFFF AND PUSH20 0xFFFFFFFFFFFFFFFFFFFFFFFFFFFFFFFFFFFFFFFF AND PUSH20 0xFFFFFFFFFFFFFFFFFFFFFFFFFFFFFFFFFFFFFFFF AND DUP2 MSTORE PUSH1 0x20 ADD PUSH1 0x1 DUP3 ADD SLOAD DUP2 MSTORE PUSH1 0x20 ADD PUSH1 0x2 DUP3 ADD SLOAD DUP2 MSTORE PUSH1 0x20 ADD PUSH1 0x3 DUP3 ADD SLOAD DUP2 MSTORE PUSH1 0x20 ADD PUSH1 0x4 DUP3 ADD PUSH0 SWAP1 SLOAD SWAP1 PUSH2 0x100 EXP SWAP1 DIV PUSH1 0xFF AND PUSH1 0x2 DUP2 GT ISZERO PUSH2 0x138C JUMPI PUSH2 0x138B PUSH2 0x1EAE JUMP JUMPDEST JUMPDEST PUSH1 0x2 DUP2 GT ISZERO PUSH2 0x139E JUMPI PUSH2 0x139D PUSH2 0x1EAE JUMP JUMPDEST JUMPDEST DUP2 MSTORE POP POP SWAP1 POP PUSH0 PUSH1 0x1 PUSH1 0x2 DUP2 GT ISZERO PUSH2 0x13B9 JUMPI PUSH2 0x13B8 PUSH2 0x1EAE JUMP JUMPDEST JUMPDEST DUP3 PUSH1 0x80 ADD MLOAD PUSH1 0x2 DUP2 GT ISZERO PUSH2 0x13D0 JUMPI PUSH2 0x13CF PUSH2 0x1EAE JUMP JUMPDEST JUMPDEST EQ PUSH2 0x141A JUMPI PUSH1 0x4 PUSH0 DUP4 PUSH0 ADD MLOAD PUSH20 0xFFFFFFFFFFFFFFFFFFFFFFFFFFFFFFFFFFFFFFFF AND PUSH20 0xFFFFFFFFFFFFFFFFFFFFFFFFFFFFFFFFFFFFFFFF AND DUP2 MSTORE PUSH1 0x20 ADD SWAP1 DUP2 MSTORE PUSH1 0x20 ADD PUSH0 KECCAK256 PUSH2 0x145B JUMP JUMPDEST PUSH1 0x3 PUSH0 DUP4 PUSH0 ADD MLOAD PUSH20 0xFFFFFFFFFFFFFFFFFFFFFFFFFFFFFFFFFFFFFFFF AND PUSH20 0xFFFFFFFFFFFFFFFFFFFFFFFFFFFFFFFFFFFFFFFF AND DUP2 MSTORE PUSH1 0x20 ADD SWAP1 DUP2 MSTORE PUSH1 0x20 ADD PUSH0 KECCAK256 JUMPDEST SWAP1 POP DUP2 PUSH1 0x20 ADD MLOAD PUSH1 0x2 PUSH0 DUP4 PUSH1 0x1 DUP6 DUP1 SLOAD SWAP1 POP PUSH2 0x1477 SWAP2 SWAP1 PUSH2 0x2406 JUMP JUMPDEST DUP2 SLOAD DUP2 LT PUSH2 0x1488 JUMPI PUSH2 0x1487 PUSH2 0x24C7 JUMP JUMPDEST JUMPDEST SWAP1 PUSH0 MSTORE PUSH1 0x20 PUSH0 KECCAK256 ADD PUSH0 SWAP1 SLOAD SWAP1 PUSH2 0x100 EXP SWAP1 DIV PUSH20 0xFFFFFFFFFFFFFFFFFFFFFFFFFFFFFFFFFFFFFFFF AND PUSH20 0xFFFFFFFFFFFFFFFFFFFFFFFFFFFFFFFFFFFFFFFF AND PUSH20 0xFFFFFFFFFFFFFFFFFFFFFFFFFFFFFFFFFFFFFFFF AND DUP2 MSTORE PUSH1 0x20 ADD SWAP1 DUP2 MSTORE PUSH1 0x20 ADD PUSH0 KECCAK256 PUSH1 0x1 ADD DUP2 SWAP1 SSTORE POP DUP1 PUSH1 0x1 DUP3 DUP1 SLOAD SWAP1 POP PUSH2 0x1502 SWAP2 SWAP1 PUSH2 0x2406 JUMP JUMPDEST DUP2 SLOAD DUP2 LT PUSH2 0x1513 JUMPI PUSH2 0x1512 PUSH2 0x24C7 JUMP JUMPDEST JUMPDEST SWAP1 PUSH0 MSTORE PUSH1 0x20 PUSH0 KECCAK256 ADD PUSH0 SWAP1 SLOAD SWAP1 PUSH2 0x100 EXP SWAP1 DIV PUSH20 0xFFFFFFFFFFFFFFFFFFFFFFFFFFFFFFFFFFFFFFFF AND DUP2 DUP4 PUSH1 0x20 ADD MLOAD DUP2 SLOAD DUP2 LT PUSH2 0x1552 JUMPI PUSH2 0x1551 PUSH2 0x24C7 JUMP JUMPDEST JUMPDEST SWAP1 PUSH0 MSTORE PUSH1 0x20 PUSH0 KECCAK256 ADD PUSH0 PUSH2 0x100 EXP DUP2 SLOAD DUP2 PUSH20 0xFFFFFFFFFFFFFFFFFFFFFFFFFFFFFFFFFFFFFFFF MUL NOT AND SWAP1 DUP4 PUSH20 0xFFFFFFFFFFFFFFFFFFFFFFFFFFFFFFFFFFFFFFFF AND MUL OR SWAP1 SSTORE POP DUP1 DUP1 SLOAD DUP1 PUSH2 0x15A8 JUMPI PUSH2 0x15A7 PUSH2 0x25C4 JUMP JUMPDEST JUMPDEST PUSH1 0x1 SWAP1 SUB DUP2 DUP2 SWAP1 PUSH0 MSTORE PUSH1 0x20 PUSH0 KECCAK256 ADD PUSH0 PUSH2 0x100 EXP DUP2 SLOAD SWAP1 PUSH20 0xFFFFFFFFFFFFFFFFFFFFFFFFFFFFFFFFFFFFFFFF MUL NOT AND SWAP1 SSTORE SWAP1 SSTORE PUSH0 PUSH1 0x2 PUSH0 DUP6 PUSH20 0xFFFFFFFFFFFFFFFFFFFFFFFFFFFFFFFFFFFFFFFF AND PUSH20 0xFFFFFFFFFFFFFFFFFFFFFFFFFFFFFFFFFFFFFFFF AND DUP2 MSTORE PUSH1 0x20 ADD SWAP1 DUP2 MSTORE PUSH1 0x20 ADD PUSH0 KECCAK256 PUSH1 0x4 ADD PUSH0 PUSH2 0x100 EXP DUP2 SLOAD DUP2 PUSH1 0xFF MUL NOT AND SWAP1 DUP4 PUSH1 0x2 DUP2 GT ISZERO PUSH2 0x163C JUMPI PUSH2 0x163B PUSH2 0x1EAE JUMP JUMPDEST JUMPDEST MUL OR SWAP1 SSTORE POP POP POP POP JUMP JUMPDEST PUSH0 PUSH1 0x1 PUSH1 0x2 DUP2 GT ISZERO PUSH2 0x165B JUMPI PUSH2 0x165A PUSH2 0x1EAE JUMP JUMPDEST JUMPDEST DUP4 PUSH1 0x80 ADD MLOAD PUSH1 0x2 DUP2 GT ISZERO PUSH2 0x1672 JUMPI PUSH2 0x1671 PUSH2 0x1EAE JUMP JUMPDEST JUMPDEST SUB PUSH2 0x1690 JUMPI DUP2 DUP4 PUSH1 0x60 ADD MLOAD GT PUSH2 0x168B JUMPI PUSH1 0x1 SWAP1 POP PUSH2 0x16A9 JUMP JUMPDEST PUSH2 0x16A5 JUMP JUMPDEST DUP2 DUP4 PUSH1 0x60 ADD MLOAD LT PUSH2 0x16A4 JUMPI PUSH1 0x1 SWAP1 POP PUSH2 0x16A9 JUMP JUMPDEST JUMPDEST PUSH0 SWAP1 POP JUMPDEST SWAP3 SWAP2 POP POP JUMP JUMPDEST PUSH0 DUP1 PUSH1 0x2 PUSH0 DUP7 PUSH20 0xFFFFFFFFFFFFFFFFFFFFFFFFFFFFFFFFFFFFFFFF AND PUSH20 0xFFFFFFFFFFFFFFFFFFFFFFFFFFFFFFFFFFFFFFFF AND DUP2 MSTORE PUSH1 0x20 ADD SWAP1 DUP2 MSTORE PUSH1 0x20 ADD PUSH0 KECCAK256 PUSH1 0x40 MLOAD DUP1 PUSH1 0xA0 ADD PUSH1 0x40 MSTORE SWAP1 DUP2 PUSH0 DUP3 ADD PUSH0 SWAP1 SLOAD SWAP1 PUSH2 0x100 EXP SWAP1 DIV PUSH20 0xFFFFFFFFFFFFFFFFFFFFFFFFFFFFFFFFFFFFFFFF AND PUSH20 0xFFFFFFFFFFFFFFFFFFFFFFFFFFFFFFFFFFFFFFFF AND PUSH20 0xFFFFFFFFFFFFFFFFFFFFFFFFFFFFFFFFFFFFFFFF AND DUP2 MSTORE PUSH1 0x20 ADD PUSH1 0x1 DUP3 ADD SLOAD DUP2 MSTORE PUSH1 0x20 ADD PUSH1 0x2 DUP3 ADD SLOAD DUP2 MSTORE PUSH1 0x20 ADD PUSH1 0x3 DUP3 ADD SLOAD DUP2 MSTORE PUSH1 0x20 ADD PUSH1 0x4 DUP3 ADD PUSH0 SWAP1 SLOAD SWAP1 PUSH2 0x100 EXP SWAP1 DIV PUSH1 0xFF AND PUSH1 0x2 DUP2 GT ISZERO PUSH2 0x178F JUMPI PUSH2 0x178E PUSH2 0x1EAE JUMP JUMPDEST JUMPDEST PUSH1 0x2 DUP2 GT ISZERO PUSH2 0x17A1 JUMPI PUSH2 0x17A0 PUSH2 0x1EAE JUMP JUMPDEST JUMPDEST DUP2 MSTORE POP POP SWAP1 POP PUSH0 DUP2 PUSH1 0x40 ADD MLOAD DUP6 LT PUSH2 0x17BD JUMPI DUP2 PUSH1 0x40 ADD MLOAD PUSH2 0x17BF JUMP JUMPDEST DUP5 JUMPDEST SWAP1 POP PUSH1 0x2 DUP1 DUP2 GT ISZERO PUSH2 0x17D4 JUMPI PUSH2 0x17D3 PUSH2 0x1EAE JUMP JUMPDEST JUMPDEST DUP3 PUSH1 0x80 ADD MLOAD PUSH1 0x2 DUP2 GT ISZERO PUSH2 0x17EB JUMPI PUSH2 0x17EA PUSH2 0x1EAE JUMP JUMPDEST JUMPDEST SUB PUSH2 0x18F9 JUMPI DUP7 PUSH20 0xFFFFFFFFFFFFFFFFFFFFFFFFFFFFFFFFFFFFFFFF AND PUSH4 0xA9059CBB DUP8 DUP4 PUSH1 0x40 MLOAD DUP4 PUSH4 0xFFFFFFFF AND PUSH1 0xE0 SHL DUP2 MSTORE PUSH1 0x4 ADD PUSH2 0x182B SWAP3 SWAP2 SWAP1 PUSH2 0x2371 JUMP JUMPDEST PUSH1 0x20 PUSH1 0x40 MLOAD DUP1 DUP4 SUB DUP2 PUSH0 DUP8 GAS CALL ISZERO DUP1 ISZERO PUSH2 0x1847 JUMPI RETURNDATASIZE PUSH0 DUP1 RETURNDATACOPY RETURNDATASIZE PUSH0 REVERT JUMPDEST POP POP POP POP PUSH1 0x40 MLOAD RETURNDATASIZE PUSH1 0x1F NOT PUSH1 0x1F DUP3 ADD AND DUP3 ADD DUP1 PUSH1 0x40 MSTORE POP DUP2 ADD SWAP1 PUSH2 0x186B SWAP2 SWAP1 PUSH2 0x2250 JUMP JUMPDEST PUSH2 0x18AA JUMPI PUSH1 0x40 MLOAD PUSH32 0x8C379A000000000000000000000000000000000000000000000000000000000 DUP2 MSTORE PUSH1 0x4 ADD PUSH2 0x18A1 SWAP1 PUSH2 0x263B JUMP JUMPDEST PUSH1 0x40 MLOAD DUP1 SWAP2 SUB SWAP1 REVERT JUMPDEST PUSH2 0x18C3 CALLER DUP4 PUSH1 0x60 ADD MLOAD DUP4 PUSH2 0x18BE SWAP2 SWAP1 PUSH2 0x23C5 JUMP JUMPDEST PUSH2 0x1200 JUMP JUMPDEST DUP4 DUP3 PUSH1 0x60 ADD MLOAD GT ISZERO PUSH2 0x18F4 JUMPI PUSH2 0x18F3 DUP7 DUP3 DUP7 DUP6 PUSH1 0x60 ADD MLOAD PUSH2 0x18E4 SWAP2 SWAP1 PUSH2 0x2406 JUMP JUMPDEST PUSH2 0x18EE SWAP2 SWAP1 PUSH2 0x23C5 JUMP JUMPDEST PUSH2 0x1200 JUMP JUMPDEST JUMPDEST PUSH2 0x19FE JUMP JUMPDEST DUP7 PUSH20 0xFFFFFFFFFFFFFFFFFFFFFFFFFFFFFFFFFFFFFFFF AND PUSH4 0xA9059CBB CALLER DUP4 PUSH1 0x40 MLOAD DUP4 PUSH4 0xFFFFFFFF AND PUSH1 0xE0 SHL DUP2 MSTORE PUSH1 0x4 ADD PUSH2 0x1934 SWAP3 SWAP2 SWAP1 PUSH2 0x2371 JUMP JUMPDEST PUSH1 0x20 PUSH1 0x40 MLOAD DUP1 DUP4 SUB DUP2 PUSH0 DUP8 GAS CALL ISZERO DUP1 ISZERO PUSH2 0x1950 JUMPI RETURNDATASIZE PUSH0 DUP1 RETURNDATACOPY RETURNDATASIZE PUSH0 REVERT JUMPDEST POP POP POP POP PUSH1 0x40 MLOAD RETURNDATASIZE PUSH1 0x1F NOT PUSH1 0x1F DUP3 ADD AND DUP3 ADD DUP1 PUSH1 0x40 MSTORE POP DUP2 ADD SWAP1 PUSH2 0x1974 SWAP2 SWAP1 PUSH2 0x2250 JUMP JUMPDEST PUSH2 0x19B3 JUMPI PUSH1 0x40 MLOAD PUSH32 0x8C379A000000000000000000000000000000000000000000000000000000000 DUP2 MSTORE PUSH1 0x4 ADD PUSH2 0x19AA SWAP1 PUSH2 0x263B JUMP JUMPDEST PUSH1 0x40 MLOAD DUP1 SWAP2 SUB SWAP1 REVERT JUMPDEST PUSH2 0x19CC DUP7 DUP4 PUSH1 0x60 ADD MLOAD DUP4 PUSH2 0x19C7 SWAP2 SWAP1 PUSH2 0x23C5 JUMP JUMPDEST PUSH2 0x1200 JUMP JUMPDEST DUP4 DUP3 PUSH1 0x60 ADD MLOAD LT ISZERO PUSH2 0x19FD JUMPI PUSH2 0x19FC CALLER DUP3 DUP5 PUSH1 0x60 ADD MLOAD DUP8 PUSH2 0x19ED SWAP2 SWAP1 PUSH2 0x2406 JUMP JUMPDEST PUSH2 0x19F7 SWAP2 SWAP1 PUSH2 0x23C5 JUMP JUMPDEST PUSH2 0x1200 JUMP JUMPDEST JUMPDEST JUMPDEST DUP1 DUP3 PUSH1 0x40 ADD DUP2 DUP2 MLOAD PUSH2 0x1A10 SWAP2 SWAP1 PUSH2 0x2406 JUMP JUMPDEST SWAP2 POP DUP2 DUP2 MSTORE POP POP PUSH0 DUP3 PUSH1 0x40 ADD MLOAD SUB PUSH2 0x1A30 JUMPI PUSH2 0x1A2B DUP7 PUSH2 0x12AD JUMP JUMPDEST PUSH2 0x1A7A JUMP JUMPDEST DUP2 PUSH1 0x40 ADD MLOAD PUSH1 0x2 PUSH0 DUP9 PUSH20 0xFFFFFFFFFFFFFFFFFFFFFFFFFFFFFFFFFFFFFFFF AND PUSH20 0xFFFFFFFFFFFFFFFFFFFFFFFFFFFFFFFFFFFFFFFF AND DUP2 MSTORE PUSH1 0x20 ADD SWAP1 DUP2 MSTORE PUSH1 0x20 ADD PUSH0 KECCAK256 PUSH1 0x2 ADD DUP2 SWAP1 SSTORE POP JUMPDEST DUP6 PUSH20 0xFFFFFFFFFFFFFFFFFFFFFFFFFFFFFFFFFFFFFFFF AND CALLER PUSH20 0xFFFFFFFFFFFFFFFFFFFFFFFFFFFFFFFFFFFFFFFF AND DUP9 PUSH20 0xFFFFFFFFFFFFFFFFFFFFFFFFFFFFFFFFFFFFFFFF AND PUSH32 0x1CE728F6A2703272EE2E07CF07FD21DDC592575A5B6774A529B595FDF56DD1A6 DUP6 PUSH1 0x80 ADD MLOAD DUP6 DUP8 PUSH1 0x60 ADD MLOAD PUSH1 0x40 MLOAD PUSH2 0x1AFA SWAP4 SWAP3 SWAP2 SWAP1 PUSH2 0x2659 JUMP JUMPDEST PUSH1 0x40 MLOAD DUP1 SWAP2 SUB SWAP1 LOG4 DUP1 DUP6 PUSH2 0x1B0E SWAP2 SWAP1 PUSH2 0x2406 JUMP JUMPDEST SWAP5 POP DUP5 SWAP3 POP POP POP SWAP5 SWAP4 POP POP POP POP JUMP JUMPDEST PUSH0 PUSH1 0x1 PUSH1 0x2 DUP2 GT ISZERO PUSH2 0x1B32 JUMPI PUSH2 0x1B31 PUSH2 0x1EAE JUMP JUMPDEST JUMPDEST DUP3 PUSH1 0x2 DUP2 GT ISZERO PUSH2 0x1B45 JUMPI PUSH2 0x1B44 PUSH2 0x1EAE JUMP JUMPDEST JUMPDEST SUB PUSH2 0x1B8C JUMPI PUSH1 0x3 PUSH0 DUP7 PUSH20 0xFFFFFFFFFFFFFFFFFFFFFFFFFFFFFFFFFFFFFFFF AND PUSH20 0xFFFFFFFFFFFFFFFFFFFFFFFFFFFFFFFFFFFFFFFF AND DUP2 MSTORE PUSH1 0x20 ADD SWAP1 DUP2 MSTORE PUSH1 0x20 ADD PUSH0 KECCAK256 PUSH2 0x1BCA JUMP JUMPDEST PUSH1 0x4 PUSH0 DUP7 PUSH20 0xFFFFFFFFFFFFFFFFFFFFFFFFFFFFFFFFFFFFFFFF AND PUSH20 0xFFFFFFFFFFFFFFFFFFFFFFFFFFFFFFFFFFFFFFFF AND DUP2 MSTORE PUSH1 0x20 ADD SWAP1 DUP2 MSTORE PUSH1 0x20 ADD PUSH0 KECCAK256 JUMPDEST SWAP1 POP DUP1 CALLER SWAP1 DUP1 PUSH1 0x1 DUP2 SLOAD ADD DUP1 DUP3 SSTORE DUP1 SWAP2 POP POP PUSH1 0x1 SWAP1 SUB SWAP1 PUSH0 MSTORE PUSH1 0x20 PUSH0 KECCAK256 ADD PUSH0 SWAP1 SWAP2 SWAP1 SWAP2 SWAP1 SWAP2 PUSH2 0x100 EXP DUP2 SLOAD DUP2 PUSH20 0xFFFFFFFFFFFFFFFFFFFFFFFFFFFFFFFFFFFFFFFF MUL NOT AND SWAP1 DUP4 PUSH20 0xFFFFFFFFFFFFFFFFFFFFFFFFFFFFFFFFFFFFFFFF AND MUL OR SWAP1 SSTORE POP PUSH1 0x40 MLOAD DUP1 PUSH1 0xA0 ADD PUSH1 0x40 MSTORE DUP1 DUP7 PUSH20 0xFFFFFFFFFFFFFFFFFFFFFFFFFFFFFFFFFFFFFFFF AND DUP2 MSTORE PUSH1 0x20 ADD PUSH1 0x1 DUP4 DUP1 SLOAD SWAP1 POP PUSH2 0x1C63 SWAP2 SWAP1 PUSH2 0x2406 JUMP JUMPDEST DUP2 MSTORE PUSH1 0x20 ADD DUP6 DUP2 MSTORE PUSH1 0x20 ADD DUP5 DUP2 MSTORE PUSH1 0x20 ADD DUP4 PUSH1 0x2 DUP2 GT ISZERO PUSH2 0x1C87 JUMPI PUSH2 0x1C86 PUSH2 0x1EAE JUMP JUMPDEST JUMPDEST DUP2 MSTORE POP PUSH1 0x2 PUSH0 CALLER PUSH20 0xFFFFFFFFFFFFFFFFFFFFFFFFFFFFFFFFFFFFFFFF AND PUSH20 0xFFFFFFFFFFFFFFFFFFFFFFFFFFFFFFFFFFFFFFFF AND DUP2 MSTORE PUSH1 0x20 ADD SWAP1 DUP2 MSTORE PUSH1 0x20 ADD PUSH0 KECCAK256 PUSH0 DUP3 ADD MLOAD DUP2 PUSH0 ADD PUSH0 PUSH2 0x100 EXP DUP2 SLOAD DUP2 PUSH20 0xFFFFFFFFFFFFFFFFFFFFFFFFFFFFFFFFFFFFFFFF MUL NOT AND SWAP1 DUP4 PUSH20 0xFFFFFFFFFFFFFFFFFFFFFFFFFFFFFFFFFFFFFFFF AND MUL OR SWAP1 SSTORE POP PUSH1 0x20 DUP3 ADD MLOAD DUP2 PUSH1 0x1 ADD SSTORE PUSH1 0x40 DUP3 ADD MLOAD DUP2 PUSH1 0x2 ADD SSTORE PUSH1 0x60 DUP3 ADD MLOAD DUP2 PUSH1 0x3 ADD SSTORE PUSH1 0x80 DUP3 ADD MLOAD DUP2 PUSH1 0x4 ADD PUSH0 PUSH2 0x100 EXP DUP2 SLOAD DUP2 PUSH1 0xFF MUL NOT AND SWAP1 DUP4 PUSH1 0x2 DUP2 GT ISZERO PUSH2 0x1D53 JUMPI PUSH2 0x1D52 PUSH2 0x1EAE JUMP JUMPDEST JUMPDEST MUL OR SWAP1 SSTORE POP SWAP1 POP POP CALLER PUSH20 0xFFFFFFFFFFFFFFFFFFFFFFFFFFFFFFFFFFFFFFFF AND DUP6 PUSH20 0xFFFFFFFFFFFFFFFFFFFFFFFFFFFFFFFFFFFFFFFF AND PUSH32 0xBA9E7B0A1A964FEA173E3888FFBCBE410FCA9A481F92CF8FC8B76A1B70F31D68 DUP5 DUP8 DUP8 PUSH1 0x40 MLOAD PUSH2 0x1DBC SWAP4 SWAP3 SWAP2 SWAP1 PUSH2 0x2659 JUMP JUMPDEST PUSH1 0x40 MLOAD DUP1 SWAP2 SUB SWAP1 LOG3 POP POP POP POP POP JUMP JUMPDEST PUSH0 DUP2 ISZERO ISZERO SWAP1 POP SWAP2 SWAP1 POP JUMP JUMPDEST PUSH2 0x1DDF DUP2 PUSH2 0x1DCB JUMP JUMPDEST DUP3 MSTORE POP POP JUMP JUMPDEST PUSH0 PUSH1 0x20 DUP3 ADD SWAP1 POP PUSH2 0x1DF8 PUSH0 DUP4 ADD DUP5 PUSH2 0x1DD6 JUMP JUMPDEST SWAP3 SWAP2 POP POP JUMP JUMPDEST PUSH0 DUP1 REVERT JUMPDEST PUSH0 PUSH20 0xFFFFFFFFFFFFFFFFFFFFFFFFFFFFFFFFFFFFFFFF DUP3 AND SWAP1 POP SWAP2 SWAP1 POP JUMP JUMPDEST PUSH0 PUSH2 0x1E2B DUP3 PUSH2 0x1E02 JUMP JUMPDEST SWAP1 POP SWAP2 SWAP1 POP JUMP JUMPDEST PUSH2 0x1E3B DUP2 PUSH2 0x1E21 JUMP JUMPDEST DUP2 EQ PUSH2 0x1E45 JUMPI PUSH0 DUP1 REVERT JUMPDEST POP JUMP JUMPDEST PUSH0 DUP2 CALLDATALOAD SWAP1 POP PUSH2 0x1E56 DUP2 PUSH2 0x1E32 JUMP JUMPDEST SWAP3 SWAP2 POP POP JUMP JUMPDEST PUSH0 PUSH1 0x20 DUP3 DUP5 SUB SLT ISZERO PUSH2 0x1E71 JUMPI PUSH2 0x1E70 PUSH2 0x1DFE JUMP JUMPDEST JUMPDEST PUSH0 PUSH2 0x1E7E DUP5 DUP3 DUP6 ADD PUSH2 0x1E48 JUMP JUMPDEST SWAP2 POP POP SWAP3 SWAP2 POP POP JUMP JUMPDEST PUSH2 0x1E90 DUP2 PUSH2 0x1E21 JUMP JUMPDEST DUP3 MSTORE POP POP JUMP JUMPDEST PUSH0 DUP2 SWAP1 POP SWAP2 SWAP1 POP JUMP JUMPDEST PUSH2 0x1EA8 DUP2 PUSH2 0x1E96 JUMP JUMPDEST DUP3 MSTORE POP POP JUMP JUMPDEST PUSH32 0x4E487B7100000000000000000000000000000000000000000000000000000000 PUSH0 MSTORE PUSH1 0x21 PUSH1 0x4 MSTORE PUSH1 0x24 PUSH0 REVERT JUMPDEST PUSH1 0x3 DUP2 LT PUSH2 0x1EEC JUMPI PUSH2 0x1EEB PUSH2 0x1EAE JUMP JUMPDEST JUMPDEST POP JUMP JUMPDEST PUSH0 DUP2 SWAP1 POP PUSH2 0x1EFC DUP3 PUSH2 0x1EDB JUMP JUMPDEST SWAP2 SWAP1 POP JUMP JUMPDEST PUSH0 PUSH2 0x1F0B DUP3 PUSH2 0x1EEF JUMP JUMPDEST SWAP1 POP SWAP2 SWAP1 POP JUMP JUMPDEST PUSH2 0x1F1B DUP2 PUSH2 0x1F01 JUMP JUMPDEST DUP3 MSTORE POP POP JUMP JUMPDEST PUSH0 PUSH1 0xA0 DUP3 ADD SWAP1 POP PUSH2 0x1F34 PUSH0 DUP4 ADD DUP9 PUSH2 0x1E87 JUMP JUMPDEST PUSH2 0x1F41 PUSH1 0x20 DUP4 ADD DUP8 PUSH2 0x1E9F JUMP JUMPDEST PUSH2 0x1F4E PUSH1 0x40 DUP4 ADD DUP7 PUSH2 0x1E9F JUMP JUMPDEST PUSH2 0x1F5B PUSH1 0x60 DUP4 ADD DUP6 PUSH2 0x1E9F JUMP JUMPDEST PUSH2 0x1F68 PUSH1 0x80 DUP4 ADD DUP5 PUSH2 0x1F12 JUMP JUMPDEST SWAP7 SWAP6 POP POP POP POP POP POP JUMP JUMPDEST PUSH2 0x1F7B DUP2 PUSH2 0x1E96 JUMP JUMPDEST DUP2 EQ PUSH2 0x1F85 JUMPI PUSH0 DUP1 REVERT JUMPDEST POP JUMP JUMPDEST PUSH0 DUP2 CALLDATALOAD SWAP1 POP PUSH2 0x1F96 DUP2 PUSH2 0x1F72 JUMP JUMPDEST SWAP3 SWAP2 POP POP JUMP JUMPDEST PUSH0 DUP1 PUSH1 0x40 DUP4 DUP6 SUB SLT ISZERO PUSH2 0x1FB2 JUMPI PUSH2 0x1FB1 PUSH2 0x1DFE JUMP JUMPDEST JUMPDEST PUSH0 PUSH2 0x1FBF DUP6 DUP3 DUP7 ADD PUSH2 0x1E48 JUMP JUMPDEST SWAP3 POP POP PUSH1 0x20 PUSH2 0x1FD0 DUP6 DUP3 DUP7 ADD PUSH2 0x1F88 JUMP JUMPDEST SWAP2 POP POP SWAP3 POP SWAP3 SWAP1 POP JUMP JUMPDEST PUSH0 PUSH1 0x20 DUP3 ADD SWAP1 POP PUSH2 0x1FED PUSH0 DUP4 ADD DUP5 PUSH2 0x1E87 JUMP JUMPDEST SWAP3 SWAP2 POP POP JUMP JUMPDEST PUSH0 DUP1 PUSH0 PUSH1 0x60 DUP5 DUP7 SUB SLT ISZERO PUSH2 0x200A JUMPI PUSH2 0x2009 PUSH2 0x1DFE JUMP JUMPDEST JUMPDEST PUSH0 PUSH2 0x2017 DUP7 DUP3 DUP8 ADD PUSH2 0x1E48 JUMP JUMPDEST SWAP4 POP POP PUSH1 0x20 PUSH2 0x2028 DUP7 DUP3 DUP8 ADD PUSH2 0x1F88 JUMP JUMPDEST SWAP3 POP POP PUSH1 0x40 PUSH2 0x2039 DUP7 DUP3 DUP8 ADD PUSH2 0x1F88 JUMP JUMPDEST SWAP2 POP POP SWAP3 POP SWAP3 POP SWAP3 JUMP JUMPDEST PUSH0 DUP3 DUP3 MSTORE PUSH1 0x20 DUP3 ADD SWAP1 POP SWAP3 SWAP2 POP POP JUMP JUMPDEST PUSH32 0x43616C6C6572206973206E6F7420617574686F72697A65640000000000000000 PUSH0 DUP3 ADD MSTORE POP JUMP JUMPDEST PUSH0 PUSH2 0x2087 PUSH1 0x18 DUP4 PUSH2 0x2043 JUMP JUMPDEST SWAP2 POP PUSH2 0x2092 DUP3 PUSH2 0x2053 JUMP JUMPDEST PUSH1 0x20 DUP3 ADD SWAP1 POP SWAP2 SWAP1 POP JUMP JUMPDEST PUSH0 PUSH1 0x20 DUP3 ADD SWAP1 POP DUP2 DUP2 SUB PUSH0 DUP4 ADD MSTORE PUSH2 0x20B4 DUP2 PUSH2 0x207B JUMP JUMPDEST SWAP1 POP SWAP2 SWAP1 POP JUMP JUMPDEST PUSH32 0x416D6F756E74206D7573742062652067726561746572207468616E207A65726F PUSH0 DUP3 ADD MSTORE POP JUMP JUMPDEST PUSH0 PUSH2 0x20EF PUSH1 0x20 DUP4 PUSH2 0x2043 JUMP JUMPDEST SWAP2 POP PUSH2 0x20FA DUP3 PUSH2 0x20BB JUMP JUMPDEST PUSH1 0x20 DUP3 ADD SWAP1 POP SWAP2 SWAP1 POP JUMP JUMPDEST PUSH0 PUSH1 0x20 DUP3 ADD SWAP1 POP DUP2 DUP2 SUB PUSH0 DUP4 ADD MSTORE PUSH2 0x211C DUP2 PUSH2 0x20E3 JUMP JUMPDEST SWAP1 POP SWAP2 SWAP1 POP JUMP JUMPDEST PUSH32 0x5072696365206D7573742062652067726561746572207468616E207A65726F00 PUSH0 DUP3 ADD MSTORE POP JUMP JUMPDEST PUSH0 PUSH2 0x2157 PUSH1 0x1F DUP4 PUSH2 0x2043 JUMP JUMPDEST SWAP2 POP PUSH2 0x2162 DUP3 PUSH2 0x2123 JUMP JUMPDEST PUSH1 0x20 DUP3 ADD SWAP1 POP SWAP2 SWAP1 POP JUMP JUMPDEST PUSH0 PUSH1 0x20 DUP3 ADD SWAP1 POP DUP2 DUP2 SUB PUSH0 DUP4 ADD MSTORE PUSH2 0x2184 DUP2 PUSH2 0x214B JUMP JUMPDEST SWAP1 POP SWAP2 SWAP1 POP JUMP JUMPDEST PUSH0 PUSH1 0x40 DUP3 ADD SWAP1 POP PUSH2 0x219E PUSH0 DUP4 ADD DUP6 PUSH2 0x1E87 JUMP JUMPDEST PUSH2 0x21AB PUSH1 0x20 DUP4 ADD DUP5 PUSH2 0x1E87 JUMP JUMPDEST SWAP4 SWAP3 POP POP POP JUMP JUMPDEST PUSH0 DUP2 MLOAD SWAP1 POP PUSH2 0x21C0 DUP2 PUSH2 0x1F72 JUMP JUMPDEST SWAP3 SWAP2 POP POP JUMP JUMPDEST PUSH0 PUSH1 0x20 DUP3 DUP5 SUB SLT ISZERO PUSH2 0x21DB JUMPI PUSH2 0x21DA PUSH2 0x1DFE JUMP JUMPDEST JUMPDEST PUSH0 PUSH2 0x21E8 DUP5 DUP3 DUP6 ADD PUSH2 0x21B2 JUMP JUMPDEST SWAP2 POP POP SWAP3 SWAP2 POP POP JUMP JUMPDEST PUSH0 PUSH1 0x60 DUP3 ADD SWAP1 POP PUSH2 0x2204 PUSH0 DUP4 ADD DUP7 PUSH2 0x1E87 JUMP JUMPDEST PUSH2 0x2211 PUSH1 0x20 DUP4 ADD DUP6 PUSH2 0x1E87 JUMP JUMPDEST PUSH2 0x221E PUSH1 0x40 DUP4 ADD DUP5 PUSH2 0x1E9F JUMP JUMPDEST SWAP5 SWAP4 POP POP POP POP JUMP JUMPDEST PUSH2 0x222F DUP2 PUSH2 0x1DCB JUMP JUMPDEST DUP2 EQ PUSH2 0x2239 JUMPI PUSH0 DUP1 REVERT JUMPDEST POP JUMP JUMPDEST PUSH0 DUP2 MLOAD SWAP1 POP PUSH2 0x224A DUP2 PUSH2 0x2226 JUMP JUMPDEST SWAP3 SWAP2 POP POP JUMP JUMPDEST PUSH0 PUSH1 0x20 DUP3 DUP5 SUB SLT ISZERO PUSH2 0x2265 JUMPI PUSH2 0x2264 PUSH2 0x1DFE JUMP JUMPDEST JUMPDEST PUSH0 PUSH2 0x2272 DUP5 DUP3 DUP6 ADD PUSH2 0x223C JUMP JUMPDEST SWAP2 POP POP SWAP3 SWAP2 POP POP JUMP JUMPDEST PUSH32 0x546F6B656E207472616E7366657220746F2065786368616E6765206661696C65 PUSH0 DUP3 ADD MSTORE PUSH32 0x6400000000000000000000000000000000000000000000000000000000000000 PUSH1 0x20 DUP3 ADD MSTORE POP JUMP JUMPDEST PUSH0 PUSH2 0x22D5 PUSH1 0x21 DUP4 PUSH2 0x2043 JUMP JUMPDEST SWAP2 POP PUSH2 0x22E0 DUP3 PUSH2 0x227B JUMP JUMPDEST PUSH1 0x40 DUP3 ADD SWAP1 POP SWAP2 SWAP1 POP JUMP JUMPDEST PUSH0 PUSH1 0x20 DUP3 ADD SWAP1 POP DUP2 DUP2 SUB PUSH0 DUP4 ADD MSTORE PUSH2 0x2302 DUP2 PUSH2 0x22C9 JUMP JUMPDEST SWAP1 POP SWAP2 SWAP1 POP JUMP JUMPDEST PUSH32 0x4E6F20726571756573747320746F2063616E63656C0000000000000000000000 PUSH0 DUP3 ADD MSTORE POP JUMP JUMPDEST PUSH0 PUSH2 0x233D PUSH1 0x15 DUP4 PUSH2 0x2043 JUMP JUMPDEST SWAP2 POP PUSH2 0x2348 DUP3 PUSH2 0x2309 JUMP JUMPDEST PUSH1 0x20 DUP3 ADD SWAP1 POP SWAP2 SWAP1 POP JUMP JUMPDEST PUSH0 PUSH1 0x20 DUP3 ADD SWAP1 POP DUP2 DUP2 SUB PUSH0 DUP4 ADD MSTORE PUSH2 0x236A DUP2 PUSH2 0x2331 JUMP JUMPDEST SWAP1 POP SWAP2 SWAP1 POP JUMP JUMPDEST PUSH0 PUSH1 0x40 DUP3 ADD SWAP1 POP PUSH2 0x2384 PUSH0 DUP4 ADD DUP6 PUSH2 0x1E87 JUMP JUMPDEST PUSH2 0x2391 PUSH1 0x20 DUP4 ADD DUP5 PUSH2 0x1E9F JUMP JUMPDEST SWAP4 SWAP3 POP POP POP JUMP JUMPDEST PUSH32 0x4E487B7100000000000000000000000000000000000000000000000000000000 PUSH0 MSTORE PUSH1 0x11 PUSH1 0x4 MSTORE PUSH1 0x24 PUSH0 REVERT JUMPDEST PUSH0 PUSH2 0x23CF DUP3 PUSH2 0x1E96 JUMP JUMPDEST SWAP2 POP PUSH2 0x23DA DUP4 PUSH2 0x1E96 JUMP JUMPDEST SWAP3 POP DUP3 DUP3 MUL PUSH2 0x23E8 DUP2 PUSH2 0x1E96 JUMP JUMPDEST SWAP2 POP DUP3 DUP3 DIV DUP5 EQ DUP4 ISZERO OR PUSH2 0x23FF JUMPI PUSH2 0x23FE PUSH2 0x2398 JUMP JUMPDEST JUMPDEST POP SWAP3 SWAP2 POP POP JUMP JUMPDEST PUSH0 PUSH2 0x2410 DUP3 PUSH2 0x1E96 JUMP JUMPDEST SWAP2 POP PUSH2 0x241B DUP4 PUSH2 0x1E96 JUMP JUMPDEST SWAP3 POP DUP3 DUP3 SUB SWAP1 POP DUP2 DUP2 GT ISZERO PUSH2 0x2433 JUMPI PUSH2 0x2432 PUSH2 0x2398 JUMP JUMPDEST JUMPDEST SWAP3 SWAP2 POP POP JUMP JUMPDEST PUSH32 0x5472616E7366657220746F20746865207A65726F206164647265737320697320 PUSH0 DUP3 ADD MSTORE PUSH32 0x6E6F7420616C6C6F776564000000000000000000000000000000000000000000 PUSH1 0x20 DUP3 ADD MSTORE POP JUMP JUMPDEST PUSH0 PUSH2 0x2493 PUSH1 0x2B DUP4 PUSH2 0x2043 JUMP JUMPDEST SWAP2 POP PUSH2 0x249E DUP3 PUSH2 0x2439 JUMP JUMPDEST PUSH1 0x40 DUP3 ADD SWAP1 POP SWAP2 SWAP1 POP JUMP JUMPDEST PUSH0 PUSH1 0x20 DUP3 ADD SWAP1 POP DUP2 DUP2 SUB PUSH0 DUP4 ADD MSTORE PUSH2 0x24C0 DUP2 PUSH2 0x2487 JUMP JUMPDEST SWAP1 POP SWAP2 SWAP1 POP JUMP JUMPDEST PUSH32 0x4E487B7100000000000000000000000000000000000000000000000000000000 PUSH0 MSTORE PUSH1 0x32 PUSH1 0x4 MSTORE PUSH1 0x24 PUSH0 REVERT JUMPDEST PUSH0 PUSH2 0x24FE DUP3 PUSH2 0x1E96 JUMP JUMPDEST SWAP2 POP PUSH0 DUP3 SUB PUSH2 0x2510 JUMPI PUSH2 0x250F PUSH2 0x2398 JUMP JUMPDEST JUMPDEST PUSH1 0x1 DUP3 SUB SWAP1 POP SWAP2 SWAP1 POP JUMP JUMPDEST PUSH0 DUP2 SWAP1 POP SWAP3 SWAP2 POP POP JUMP JUMPDEST POP JUMP JUMPDEST PUSH0 PUSH2 0x2533 PUSH0 DUP4 PUSH2 0x251B JUMP JUMPDEST SWAP2 POP PUSH2 0x253E DUP3 PUSH2 0x2525 JUMP JUMPDEST PUSH0 DUP3 ADD SWAP1 POP SWAP2 SWAP1 POP JUMP JUMPDEST PUSH0 PUSH2 0x2552 DUP3 PUSH2 0x2528 JUMP JUMPDEST SWAP2 POP DUP2 SWAP1 POP SWAP2 SWAP1 POP JUMP JUMPDEST PUSH32 0x4661696C656420746F2073656E64204574686572000000000000000000000000 PUSH0 DUP3 ADD MSTORE POP JUMP JUMPDEST PUSH0 PUSH2 0x2590 PUSH1 0x14 DUP4 PUSH2 0x2043 JUMP JUMPDEST SWAP2 POP PUSH2 0x259B DUP3 PUSH2 0x255C JUMP JUMPDEST PUSH1 0x20 DUP3 ADD SWAP1 POP SWAP2 SWAP1 POP JUMP JUMPDEST PUSH0 PUSH1 0x20 DUP3 ADD SWAP1 POP DUP2 DUP2 SUB PUSH0 DUP4 ADD MSTORE PUSH2 0x25BD DUP2 PUSH2 0x2584 JUMP JUMPDEST SWAP1 POP SWAP2 SWAP1 POP JUMP JUMPDEST PUSH32 0x4E487B7100000000000000000000000000000000000000000000000000000000 PUSH0 MSTORE PUSH1 0x31 PUSH1 0x4 MSTORE PUSH1 0x24 PUSH0 REVERT JUMPDEST PUSH32 0x546F6B656E207472616E7366657220746F206275796572206661696C65640000 PUSH0 DUP3 ADD MSTORE POP JUMP JUMPDEST PUSH0 PUSH2 0x2625 PUSH1 0x1E DUP4 PUSH2 0x2043 JUMP JUMPDEST SWAP2 POP PUSH2 0x2630 DUP3 PUSH2 0x25F1 JUMP JUMPDEST PUSH1 0x20 DUP3 ADD SWAP1 POP SWAP2 SWAP1 POP JUMP JUMPDEST PUSH0 PUSH1 0x20 DUP3 ADD SWAP1 POP DUP2 DUP2 SUB PUSH0 DUP4 ADD MSTORE PUSH2 0x2652 DUP2 PUSH2 0x2619 JUMP JUMPDEST SWAP1 POP SWAP2 SWAP1 POP JUMP JUMPDEST PUSH0 PUSH1 0x60 DUP3 ADD SWAP1 POP PUSH2 0x266C PUSH0 DUP4 ADD DUP7 PUSH2 0x1F12 JUMP JUMPDEST PUSH2 0x2679 PUSH1 0x20 DUP4 ADD DUP6 PUSH2 0x1E9F JUMP JUMPDEST PUSH2 0x2686 PUSH1 0x40 DUP4 ADD DUP5 PUSH2 0x1E9F JUMP JUMPDEST SWAP5 SWAP4 POP POP POP POP JUMP INVALID LOG2 PUSH5 0x6970667358 0x22 SLT KECCAK256 0xBE DUP3 SWAP15 RETURNDATASIZE BALANCE PUSH20 0x3A27592D9A0BA0D6DA91576CB1B75715A0F753E5 PUSH5 0xD296FBF0A PUSH5 0x736F6C6343 STOP ADDMOD NOT STOP CALLER "
				},
				"gasEstimates": {
					"creation": {
						"codeDepositCost": "1984800",
						"executionCost": "infinite",
						"totalCost": "infinite"
					},
					"external": {
						"Requests(address)": "infinite",
						"buyRequest(address,uint256,uint256)": "infinite",
						"buyRequestants(address,uint256)": "infinite",
						"cancelRequest()": "infinite",
						"claimTokenOwnership()": "56472",
						"contractOwner()": "2593",
						"initiateOwnershipTransfer(address)": "32982",
						"nextContractOwner()": "2574",
						"sellRequest(address,uint256,uint256)": "infinite",
						"sellRequestants(address,uint256)": "infinite"
					},
					"internal": {
						"addRequest(address,uint256,uint256,enum Exchange.RequestTypes)": "infinite",
						"executeRequests(address,address,uint256,uint256)": "infinite",
						"matchRequests(address,uint256,uint256,enum Exchange.RequestTypes)": "infinite",
						"priceCheck(struct Exchange.UserRequest memory,uint256)": "infinite",
						"removeRequest(address)": "infinite",
						"sendEther(address payable,uint256)": "infinite"
					}
				},
				"methodIdentifiers": {
					"Requests(address)": "1a4b3311",
					"buyRequest(address,uint256,uint256)": "a760e06a",
					"buyRequestants(address,uint256)": "1fb64da0",
					"cancelRequest()": "851b16f5",
					"claimTokenOwnership()": "10731a65",
					"contractOwner()": "ce606ee0",
					"initiateOwnershipTransfer(address)": "c0b6f561",
					"nextContractOwner()": "c2eb05ba",
					"sellRequest(address,uint256,uint256)": "73b298e2",
					"sellRequestants(address,uint256)": "83588b99"
				}
			},
			"storageLayout": {
				"storage": [
					{
						"astId": 4,
						"contract": "src/Exchange.sol:Exchange",
						"label": "contractOwner",
						"offset": 0,
						"slot": "0",
						"type": "t_address"
					},
					{
						"astId": 6,
						"contract": "src/Exchange.sol:Exchange",
						"label": "nextContractOwner",
						"offset": 0,
						"slot": "1",
						"type": "t_address"
					},
					{
						"astId": 11,
						"contract": "src/Exchange.sol:Exchange",
						"label": "Requests",
						"offset": 0,
						"slot": "2",
						"type": "t_mapping(t_address,t_struct(UserRequest)37_storage)"
					},
					{
						"astId": 16,
						"contract": "src/Exchange.sol:Exchange",
						"label": "sellRequestants",
						"offset": 0,
						"slot": "3",
						"type": "t_mapping(t_address,t_array(t_address)dyn_storage)"
					},
					{
						"astId": 21,
						"contract": "src/Exchange.sol:Exchange",
						"label": "buyRequestants",
						"offset": 0,
						"slot": "4",
						"type": "t_mapping(t_address,t_array(t_address)dyn_storage)"
					}
				],
				"types": {
					"t_address": {
						"encoding": "inplace",
						"label": "address",
						"numberOfBytes": "20"
					},
					"t_array(t_address)dyn_storage": {
						"base": "t_address",
						"encoding": "dynamic_array",
						"label": "address[]",
						"numberOfBytes": "32"
					},
					"t_enum(RequestTypes)25": {
						"encoding": "inplace",
						"label": "enum Exchange.RequestTypes",
						"numberOfBytes": "1"
					},
					"t_mapping(t_address,t_array(t_address)dyn_storage)": {
						"encoding": "mapping",
						"key": "t_address",
						"label": "mapping(address => address[])",
						"numberOfBytes": "32",
						"value": "t_array(t_address)dyn_storage"
					},
					"t_mapping(t_address,t_struct(UserRequest)37_storage)": {
						"encoding": "mapping",
						"key": "t_address",
						"label": "mapping(address => struct Exchange.UserRequest)",
						"numberOfBytes": "32",
						"value": "t_struct(UserRequest)37_storage"
					},
					"t_struct(UserRequest)37_storage": {
						"encoding": "inplace",
						"label": "struct Exchange.UserRequest",
						"members": [
							{
								"astId": 27,
								"contract": "src/Exchange.sol:Exchange",
								"label": "tokenAddress",
								"offset": 0,
								"slot": "0",
								"type": "t_address"
							},
							{
								"astId": 29,
								"contract": "src/Exchange.sol:Exchange",
								"label": "index",
								"offset": 0,
								"slot": "1",
								"type": "t_uint256"
							},
							{
								"astId": 31,
								"contract": "src/Exchange.sol:Exchange",
								"label": "amount",
								"offset": 0,
								"slot": "2",
								"type": "t_uint256"
							},
							{
								"astId": 33,
								"contract": "src/Exchange.sol:Exchange",
								"label": "tokenPrice",
								"offset": 0,
								"slot": "3",
								"type": "t_uint256"
							},
							{
								"astId": 36,
								"contract": "src/Exchange.sol:Exchange",
								"label": "TYPE",
								"offset": 0,
								"slot": "4",
								"type": "t_enum(RequestTypes)25"
							}
						],
						"numberOfBytes": "160"
					},
					"t_uint256": {
						"encoding": "inplace",
						"label": "uint256",
						"numberOfBytes": "32"
					}
				}
			},
			"userdoc": {
				"kind": "user",
				"methods": {},
				"version": 1
			}
		}
	}
}