{
	"src/Exchange.sol": {
		"Exchange": {
			"abi": [
				{
					"inputs": [
						{
							"internalType": "address",
							"name": "_owner",
							"type": "address"
						}
					],
					"stateMutability": "nonpayable",
					"type": "constructor"
				},
				{
					"anonymous": false,
					"inputs": [
						{
							"indexed": true,
							"internalType": "address",
							"name": "newContractOwner",
							"type": "address"
						}
					],
					"name": "ContractOwnershipTransferFinished",
					"type": "event"
				},
				{
					"anonymous": false,
					"inputs": [
						{
							"indexed": true,
							"internalType": "address",
							"name": "from",
							"type": "address"
						},
						{
							"indexed": true,
							"internalType": "address",
							"name": "to",
							"type": "address"
						}
					],
					"name": "InitiatedOwnershipTransfer",
					"type": "event"
				},
				{
					"anonymous": false,
					"inputs": [
						{
							"indexed": true,
							"internalType": "address",
							"name": "tokenAddress",
							"type": "address"
						},
						{
							"indexed": true,
							"internalType": "address",
							"name": "requestor",
							"type": "address"
						},
						{
							"indexed": false,
							"internalType": "enum Exchange.RequestTypes",
							"name": "Type",
							"type": "uint8"
						},
						{
							"indexed": false,
							"internalType": "uint256",
							"name": "amount",
							"type": "uint256"
						},
						{
							"indexed": false,
							"internalType": "uint256",
							"name": "tokenPrice",
							"type": "uint256"
						}
					],
					"name": "RequestCreated",
					"type": "event"
				},
				{
					"anonymous": false,
					"inputs": [
						{
							"indexed": true,
							"internalType": "address",
							"name": "tokenAddress",
							"type": "address"
						},
						{
							"indexed": true,
							"internalType": "address",
							"name": "requestor",
							"type": "address"
						},
						{
							"indexed": true,
							"internalType": "address",
							"name": "counterparty",
							"type": "address"
						},
						{
							"indexed": false,
							"internalType": "enum Exchange.RequestTypes",
							"name": "Type",
							"type": "uint8"
						},
						{
							"indexed": false,
							"internalType": "uint256",
							"name": "amount",
							"type": "uint256"
						},
						{
							"indexed": false,
							"internalType": "uint256",
							"name": "tokenPrice",
							"type": "uint256"
						}
					],
					"name": "RequestExecuted",
					"type": "event"
				},
				{
					"inputs": [
						{
							"internalType": "address",
							"name": "",
							"type": "address"
						}
					],
					"name": "Requests",
					"outputs": [
						{
							"internalType": "address",
							"name": "tokenAddress",
							"type": "address"
						},
						{
							"internalType": "uint256",
							"name": "index",
							"type": "uint256"
						},
						{
							"internalType": "uint256",
							"name": "amount",
							"type": "uint256"
						},
						{
							"internalType": "uint256",
							"name": "tokenPrice",
							"type": "uint256"
						},
						{
							"internalType": "enum Exchange.RequestTypes",
							"name": "TYPE",
							"type": "uint8"
						}
					],
					"stateMutability": "view",
					"type": "function"
				},
				{
					"inputs": [
						{
							"internalType": "address",
							"name": "tokenAddress",
							"type": "address"
						},
						{
							"internalType": "uint256",
							"name": "amount",
							"type": "uint256"
						},
						{
							"internalType": "uint256",
							"name": "coinPrice",
							"type": "uint256"
						}
					],
					"name": "buyRequest",
					"outputs": [],
					"stateMutability": "payable",
					"type": "function"
				},
				{
					"inputs": [
						{
							"internalType": "address",
							"name": "",
							"type": "address"
						},
						{
							"internalType": "uint256",
							"name": "",
							"type": "uint256"
						}
					],
					"name": "buyRequestants",
					"outputs": [
						{
							"internalType": "address",
							"name": "",
							"type": "address"
						}
					],
					"stateMutability": "view",
					"type": "function"
				},
				{
					"inputs": [],
					"name": "cancelRequest",
					"outputs": [],
					"stateMutability": "nonpayable",
					"type": "function"
				},
				{
					"inputs": [],
					"name": "claimTokenOwnership",
					"outputs": [
						{
							"internalType": "bool",
							"name": "",
							"type": "bool"
						}
					],
					"stateMutability": "nonpayable",
					"type": "function"
				},
				{
					"inputs": [],
					"name": "contractOwner",
					"outputs": [
						{
							"internalType": "address",
							"name": "",
							"type": "address"
						}
					],
					"stateMutability": "view",
					"type": "function"
				},
				{
					"inputs": [
						{
							"internalType": "address",
							"name": "_nextContractOwner",
							"type": "address"
						}
					],
					"name": "initiateOwnershipTransfer",
					"outputs": [
						{
							"internalType": "bool",
							"name": "",
							"type": "bool"
						}
					],
					"stateMutability": "nonpayable",
					"type": "function"
				},
				{
					"inputs": [],
					"name": "nextContractOwner",
					"outputs": [
						{
							"internalType": "address",
							"name": "",
							"type": "address"
						}
					],
					"stateMutability": "view",
					"type": "function"
				},
				{
					"inputs": [
						{
							"internalType": "address",
							"name": "tokenAddress",
							"type": "address"
						},
						{
							"internalType": "uint256",
							"name": "amount",
							"type": "uint256"
						},
						{
							"internalType": "uint256",
							"name": "coinPrice",
							"type": "uint256"
						}
					],
					"name": "sellRequest",
					"outputs": [],
					"stateMutability": "nonpayable",
					"type": "function"
				},
				{
					"inputs": [
						{
							"internalType": "address",
							"name": "",
							"type": "address"
						},
						{
							"internalType": "uint256",
							"name": "",
							"type": "uint256"
						}
					],
					"name": "sellRequestants",
					"outputs": [
						{
							"internalType": "address",
							"name": "",
							"type": "address"
						}
					],
					"stateMutability": "view",
					"type": "function"
				}
			],
			"devdoc": {
				"kind": "dev",
				"methods": {},
				"version": 1
			},
			"evm": {
				"assembly": "    /* \"src/Exchange.sol\":227:10204  contract Exchange{... */\n  mstore(0x40, 0x80)\n    /* \"src/Exchange.sol\":3161:3252  constructor(address _owner) nonZeroAddress(_owner){... */\n  callvalue\n  dup1\n  iszero\n  tag_1\n  jumpi\n  0x00\n  dup1\n  revert\ntag_1:\n  pop\n  mload(0x40)\n  sub(codesize, bytecodeSize)\n  dup1\n  bytecodeSize\n  dup4\n  codecopy\n  dup2\n  dup2\n  add\n  0x40\n  mstore\n  dup2\n  add\n  swap1\n  tag_2\n  swap2\n  swap1\n  tag_3\n  jump\t// in\ntag_2:\n    /* \"src/Exchange.sol\":3204:3210  _owner */\n  dup1\n    /* \"src/Exchange.sol\":2492:2495  _to */\n  dup1\n    /* \"src/Exchange.sol\":2478:2495  address(0) != _to */\n  0xffffffffffffffffffffffffffffffffffffffff\n  and\n    /* \"src/Exchange.sol\":2486:2487  0 */\n  0x00\n    /* \"src/Exchange.sol\":2478:2495  address(0) != _to */\n  0xffffffffffffffffffffffffffffffffffffffff\n  and\n  sub\n    /* \"src/Exchange.sol\":2470:2543  require(address(0) != _to, \"Transfer to the zero address is not allowed\") */\n  tag_6\n  jumpi\n  mload(0x40)\n  0x08c379a000000000000000000000000000000000000000000000000000000000\n  dup2\n  mstore\n  0x04\n  add\n  tag_7\n  swap1\n  tag_8\n  jump\t// in\ntag_7:\n  mload(0x40)\n  dup1\n  swap2\n  sub\n  swap1\n  revert\ntag_6:\n    /* \"src/Exchange.sol\":3238:3244  _owner */\n  dup2\n    /* \"src/Exchange.sol\":3222:3235  contractOwner */\n  0x00\n  dup1\n    /* \"src/Exchange.sol\":3222:3244  contractOwner = _owner */\n  0x0100\n  exp\n  dup2\n  sload\n  dup2\n  0xffffffffffffffffffffffffffffffffffffffff\n  mul\n  not\n  and\n  swap1\n  dup4\n  0xffffffffffffffffffffffffffffffffffffffff\n  and\n  mul\n  or\n  swap1\n  sstore\n  pop\n    /* \"src/Exchange.sol\":3161:3252  constructor(address _owner) nonZeroAddress(_owner){... */\n  pop\n  pop\n    /* \"src/Exchange.sol\":227:10204  contract Exchange{... */\n  jump(tag_10)\n    /* \"#utility.yul\":88:205   */\ntag_12:\n    /* \"#utility.yul\":197:198   */\n  0x00\n    /* \"#utility.yul\":194:195   */\n  dup1\n    /* \"#utility.yul\":187:199   */\n  revert\n    /* \"#utility.yul\":334:460   */\ntag_14:\n    /* \"#utility.yul\":371:378   */\n  0x00\n    /* \"#utility.yul\":411:453   */\n  0xffffffffffffffffffffffffffffffffffffffff\n    /* \"#utility.yul\":404:409   */\n  dup3\n    /* \"#utility.yul\":400:454   */\n  and\n    /* \"#utility.yul\":389:454   */\n  swap1\n  pop\n    /* \"#utility.yul\":334:460   */\n  swap2\n  swap1\n  pop\n  jump\t// out\n    /* \"#utility.yul\":466:562   */\ntag_15:\n    /* \"#utility.yul\":503:510   */\n  0x00\n    /* \"#utility.yul\":532:556   */\n  tag_27\n    /* \"#utility.yul\":550:555   */\n  dup3\n    /* \"#utility.yul\":532:556   */\n  tag_14\n  jump\t// in\ntag_27:\n    /* \"#utility.yul\":521:556   */\n  swap1\n  pop\n    /* \"#utility.yul\":466:562   */\n  swap2\n  swap1\n  pop\n  jump\t// out\n    /* \"#utility.yul\":568:690   */\ntag_16:\n    /* \"#utility.yul\":641:665   */\n  tag_29\n    /* \"#utility.yul\":659:664   */\n  dup2\n    /* \"#utility.yul\":641:665   */\n  tag_15\n  jump\t// in\ntag_29:\n    /* \"#utility.yul\":634:639   */\n  dup2\n    /* \"#utility.yul\":631:666   */\n  eq\n    /* \"#utility.yul\":621:684   */\n  tag_30\n  jumpi\n    /* \"#utility.yul\":680:681   */\n  0x00\n    /* \"#utility.yul\":677:678   */\n  dup1\n    /* \"#utility.yul\":670:682   */\n  revert\n    /* \"#utility.yul\":621:684   */\ntag_30:\n    /* \"#utility.yul\":568:690   */\n  pop\n  jump\t// out\n    /* \"#utility.yul\":696:839   */\ntag_17:\n    /* \"#utility.yul\":753:758   */\n  0x00\n    /* \"#utility.yul\":784:790   */\n  dup2\n    /* \"#utility.yul\":778:791   */\n  mload\n    /* \"#utility.yul\":769:791   */\n  swap1\n  pop\n    /* \"#utility.yul\":800:833   */\n  tag_32\n    /* \"#utility.yul\":827:832   */\n  dup2\n    /* \"#utility.yul\":800:833   */\n  tag_16\n  jump\t// in\ntag_32:\n    /* \"#utility.yul\":696:839   */\n  swap3\n  swap2\n  pop\n  pop\n  jump\t// out\n    /* \"#utility.yul\":845:1196   */\ntag_3:\n    /* \"#utility.yul\":915:921   */\n  0x00\n    /* \"#utility.yul\":964:966   */\n  0x20\n    /* \"#utility.yul\":952:961   */\n  dup3\n    /* \"#utility.yul\":943:950   */\n  dup5\n    /* \"#utility.yul\":939:962   */\n  sub\n    /* \"#utility.yul\":935:967   */\n  slt\n    /* \"#utility.yul\":932:1051   */\n  iszero\n  tag_34\n  jumpi\n    /* \"#utility.yul\":970:1049   */\n  tag_35\n  tag_12\n  jump\t// in\ntag_35:\n    /* \"#utility.yul\":932:1051   */\ntag_34:\n    /* \"#utility.yul\":1090:1091   */\n  0x00\n    /* \"#utility.yul\":1115:1179   */\n  tag_36\n    /* \"#utility.yul\":1171:1178   */\n  dup5\n    /* \"#utility.yul\":1162:1168   */\n  dup3\n    /* \"#utility.yul\":1151:1160   */\n  dup6\n    /* \"#utility.yul\":1147:1169   */\n  add\n    /* \"#utility.yul\":1115:1179   */\n  tag_17\n  jump\t// in\ntag_36:\n    /* \"#utility.yul\":1105:1179   */\n  swap2\n  pop\n    /* \"#utility.yul\":1061:1189   */\n  pop\n    /* \"#utility.yul\":845:1196   */\n  swap3\n  swap2\n  pop\n  pop\n  jump\t// out\n    /* \"#utility.yul\":1202:1371   */\ntag_18:\n    /* \"#utility.yul\":1286:1297   */\n  0x00\n    /* \"#utility.yul\":1320:1326   */\n  dup3\n    /* \"#utility.yul\":1315:1318   */\n  dup3\n    /* \"#utility.yul\":1308:1327   */\n  mstore\n    /* \"#utility.yul\":1360:1364   */\n  0x20\n    /* \"#utility.yul\":1355:1358   */\n  dup3\n    /* \"#utility.yul\":1351:1365   */\n  add\n    /* \"#utility.yul\":1336:1365   */\n  swap1\n  pop\n    /* \"#utility.yul\":1202:1371   */\n  swap3\n  swap2\n  pop\n  pop\n  jump\t// out\n    /* \"#utility.yul\":1377:1607   */\ntag_19:\n    /* \"#utility.yul\":1517:1551   */\n  0x5472616e7366657220746f20746865207a65726f206164647265737320697320\n    /* \"#utility.yul\":1513:1514   */\n  0x00\n    /* \"#utility.yul\":1505:1511   */\n  dup3\n    /* \"#utility.yul\":1501:1515   */\n  add\n    /* \"#utility.yul\":1494:1552   */\n  mstore\n    /* \"#utility.yul\":1586:1599   */\n  0x6e6f7420616c6c6f776564000000000000000000000000000000000000000000\n    /* \"#utility.yul\":1581:1583   */\n  0x20\n    /* \"#utility.yul\":1573:1579   */\n  dup3\n    /* \"#utility.yul\":1569:1584   */\n  add\n    /* \"#utility.yul\":1562:1600   */\n  mstore\n    /* \"#utility.yul\":1377:1607   */\n  pop\n  jump\t// out\n    /* \"#utility.yul\":1613:1979   */\ntag_20:\n    /* \"#utility.yul\":1755:1758   */\n  0x00\n    /* \"#utility.yul\":1776:1843   */\n  tag_40\n    /* \"#utility.yul\":1840:1842   */\n  0x2b\n    /* \"#utility.yul\":1835:1838   */\n  dup4\n    /* \"#utility.yul\":1776:1843   */\n  tag_18\n  jump\t// in\ntag_40:\n    /* \"#utility.yul\":1769:1843   */\n  swap2\n  pop\n    /* \"#utility.yul\":1852:1945   */\n  tag_41\n    /* \"#utility.yul\":1941:1944   */\n  dup3\n    /* \"#utility.yul\":1852:1945   */\n  tag_19\n  jump\t// in\ntag_41:\n    /* \"#utility.yul\":1970:1972   */\n  0x40\n    /* \"#utility.yul\":1965:1968   */\n  dup3\n    /* \"#utility.yul\":1961:1973   */\n  add\n    /* \"#utility.yul\":1954:1973   */\n  swap1\n  pop\n    /* \"#utility.yul\":1613:1979   */\n  swap2\n  swap1\n  pop\n  jump\t// out\n    /* \"#utility.yul\":1985:2404   */\ntag_8:\n    /* \"#utility.yul\":2151:2155   */\n  0x00\n    /* \"#utility.yul\":2189:2191   */\n  0x20\n    /* \"#utility.yul\":2178:2187   */\n  dup3\n    /* \"#utility.yul\":2174:2192   */\n  add\n    /* \"#utility.yul\":2166:2192   */\n  swap1\n  pop\n    /* \"#utility.yul\":2238:2247   */\n  dup2\n    /* \"#utility.yul\":2232:2236   */\n  dup2\n    /* \"#utility.yul\":2228:2248   */\n  sub\n    /* \"#utility.yul\":2224:2225   */\n  0x00\n    /* \"#utility.yul\":2213:2222   */\n  dup4\n    /* \"#utility.yul\":2209:2226   */\n  add\n    /* \"#utility.yul\":2202:2249   */\n  mstore\n    /* \"#utility.yul\":2266:2397   */\n  tag_43\n    /* \"#utility.yul\":2392:2396   */\n  dup2\n    /* \"#utility.yul\":2266:2397   */\n  tag_20\n  jump\t// in\ntag_43:\n    /* \"#utility.yul\":2258:2397   */\n  swap1\n  pop\n    /* \"#utility.yul\":1985:2404   */\n  swap2\n  swap1\n  pop\n  jump\t// out\n    /* \"src/Exchange.sol\":227:10204  contract Exchange{... */\ntag_10:\n  dataSize(sub_0)\n  dup1\n  dataOffset(sub_0)\n  0x00\n  codecopy\n  0x00\n  return\nstop\n\nsub_0: assembly {\n        /* \"src/Exchange.sol\":227:10204  contract Exchange{... */\n      mstore(0x40, 0x80)\n      jumpi(tag_1, lt(calldatasize, 0x04))\n      shr(0xe0, calldataload(0x00))\n      dup1\n      0x851b16f5\n      gt\n      tag_12\n      jumpi\n      dup1\n      0x851b16f5\n      eq\n      tag_7\n      jumpi\n      dup1\n      0xa760e06a\n      eq\n      tag_8\n      jumpi\n      dup1\n      0xc0b6f561\n      eq\n      tag_9\n      jumpi\n      dup1\n      0xc2eb05ba\n      eq\n      tag_10\n      jumpi\n      dup1\n      0xce606ee0\n      eq\n      tag_11\n      jumpi\n      jump(tag_1)\n    tag_12:\n      dup1\n      0x10731a65\n      eq\n      tag_2\n      jumpi\n      dup1\n      0x1a4b3311\n      eq\n      tag_3\n      jumpi\n      dup1\n      0x1fb64da0\n      eq\n      tag_4\n      jumpi\n      dup1\n      0x73b298e2\n      eq\n      tag_5\n      jumpi\n      dup1\n      0x83588b99\n      eq\n      tag_6\n      jumpi\n    tag_1:\n      0x00\n      dup1\n      revert\n        /* \"src/Exchange.sol\":3791:4078  function claimTokenOwnership() external ... */\n    tag_2:\n      callvalue\n      dup1\n      iszero\n      tag_13\n      jumpi\n      0x00\n      dup1\n      revert\n    tag_13:\n      pop\n      tag_14\n      tag_15\n      jump\t// in\n    tag_14:\n      mload(0x40)\n      tag_16\n      swap2\n      swap1\n      tag_17\n      jump\t// in\n    tag_16:\n      mload(0x40)\n      dup1\n      swap2\n      sub\n      swap1\n      return\n        /* \"src/Exchange.sol\":475:522  mapping(address => UserRequest) public Requests */\n    tag_3:\n      callvalue\n      dup1\n      iszero\n      tag_18\n      jumpi\n      0x00\n      dup1\n      revert\n    tag_18:\n      pop\n      tag_19\n      0x04\n      dup1\n      calldatasize\n      sub\n      dup2\n      add\n      swap1\n      tag_20\n      swap2\n      swap1\n      tag_21\n      jump\t// in\n    tag_20:\n      tag_22\n      jump\t// in\n    tag_19:\n      mload(0x40)\n      tag_23\n      swap6\n      swap5\n      swap4\n      swap3\n      swap2\n      swap1\n      tag_24\n      jump\t// in\n    tag_23:\n      mload(0x40)\n      dup1\n      swap2\n      sub\n      swap1\n      return\n        /* \"src/Exchange.sol\":687:738  mapping(address => address[]) public buyRequestants */\n    tag_4:\n      callvalue\n      dup1\n      iszero\n      tag_25\n      jumpi\n      0x00\n      dup1\n      revert\n    tag_25:\n      pop\n      tag_26\n      0x04\n      dup1\n      calldatasize\n      sub\n      dup2\n      add\n      swap1\n      tag_27\n      swap2\n      swap1\n      tag_28\n      jump\t// in\n    tag_27:\n      tag_29\n      jump\t// in\n    tag_26:\n      mload(0x40)\n      tag_30\n      swap2\n      swap1\n      tag_31\n      jump\t// in\n    tag_30:\n      mload(0x40)\n      dup1\n      swap2\n      sub\n      swap1\n      return\n        /* \"src/Exchange.sol\":4146:4735  function sellRequest(address tokenAddress, uint256 amount, uint256 coinPrice) external ... */\n    tag_5:\n      callvalue\n      dup1\n      iszero\n      tag_32\n      jumpi\n      0x00\n      dup1\n      revert\n    tag_32:\n      pop\n      tag_33\n      0x04\n      dup1\n      calldatasize\n      sub\n      dup2\n      add\n      swap1\n      tag_34\n      swap2\n      swap1\n      tag_35\n      jump\t// in\n    tag_34:\n      tag_36\n      jump\t// in\n    tag_33:\n      stop\n        /* \"src/Exchange.sol\":628:680  mapping(address => address[]) public sellRequestants */\n    tag_6:\n      callvalue\n      dup1\n      iszero\n      tag_37\n      jumpi\n      0x00\n      dup1\n      revert\n    tag_37:\n      pop\n      tag_38\n      0x04\n      dup1\n      calldatasize\n      sub\n      dup2\n      add\n      swap1\n      tag_39\n      swap2\n      swap1\n      tag_28\n      jump\t// in\n    tag_39:\n      tag_40\n      jump\t// in\n    tag_38:\n      mload(0x40)\n      tag_41\n      swap2\n      swap1\n      tag_31\n      jump\t// in\n    tag_41:\n      mload(0x40)\n      dup1\n      swap2\n      sub\n      swap1\n      return\n        /* \"src/Exchange.sol\":5259:5999  function cancelRequest() external ... */\n    tag_7:\n      callvalue\n      dup1\n      iszero\n      tag_42\n      jumpi\n      0x00\n      dup1\n      revert\n    tag_42:\n      pop\n      tag_43\n      tag_44\n      jump\t// in\n    tag_43:\n      stop\n        /* \"src/Exchange.sol\":4743:5251  function buyRequest(address tokenAddress, uint256 amount, uint256 coinPrice) external payable ... */\n    tag_8:\n      tag_45\n      0x04\n      dup1\n      calldatasize\n      sub\n      dup2\n      add\n      swap1\n      tag_46\n      swap2\n      swap1\n      tag_35\n      jump\t// in\n    tag_46:\n      tag_47\n      jump\t// in\n    tag_45:\n      stop\n        /* \"src/Exchange.sol\":3358:3692  function initiateOwnershipTransfer(address _nextContractOwner) external ... */\n    tag_9:\n      callvalue\n      dup1\n      iszero\n      tag_48\n      jumpi\n      0x00\n      dup1\n      revert\n    tag_48:\n      pop\n      tag_49\n      0x04\n      dup1\n      calldatasize\n      sub\n      dup2\n      add\n      swap1\n      tag_50\n      swap2\n      swap1\n      tag_21\n      jump\t// in\n    tag_50:\n      tag_51\n      jump\t// in\n    tag_49:\n      mload(0x40)\n      tag_52\n      swap2\n      swap1\n      tag_17\n      jump\t// in\n    tag_52:\n      mload(0x40)\n      dup1\n      swap2\n      sub\n      swap1\n      return\n        /* \"src/Exchange.sol\":376:408  address public nextContractOwner */\n    tag_10:\n      callvalue\n      dup1\n      iszero\n      tag_53\n      jumpi\n      0x00\n      dup1\n      revert\n    tag_53:\n      pop\n      tag_54\n      tag_55\n      jump\t// in\n    tag_54:\n      mload(0x40)\n      tag_56\n      swap2\n      swap1\n      tag_31\n      jump\t// in\n    tag_56:\n      mload(0x40)\n      dup1\n      swap2\n      sub\n      swap1\n      return\n        /* \"src/Exchange.sol\":341:369  address public contractOwner */\n    tag_11:\n      callvalue\n      dup1\n      iszero\n      tag_57\n      jumpi\n      0x00\n      dup1\n      revert\n    tag_57:\n      pop\n      tag_58\n      tag_59\n      jump\t// in\n    tag_58:\n      mload(0x40)\n      tag_60\n      swap2\n      swap1\n      tag_31\n      jump\t// in\n    tag_60:\n      mload(0x40)\n      dup1\n      swap2\n      sub\n      swap1\n      return\n        /* \"src/Exchange.sol\":3791:4078  function claimTokenOwnership() external ... */\n    tag_15:\n        /* \"src/Exchange.sol\":3888:3892  bool */\n      0x00\n        /* \"src/Exchange.sol\":3851:3868  nextContractOwner */\n      0x01\n      0x00\n      swap1\n      sload\n      swap1\n      0x0100\n      exp\n      swap1\n      div\n      0xffffffffffffffffffffffffffffffffffffffff\n      and\n        /* \"src/Exchange.sol\":1791:1802  _authorized */\n      dup1\n        /* \"src/Exchange.sol\":1777:1802  msg.sender == _authorized */\n      0xffffffffffffffffffffffffffffffffffffffff\n      and\n        /* \"src/Exchange.sol\":1777:1787  msg.sender */\n      caller\n        /* \"src/Exchange.sol\":1777:1802  msg.sender == _authorized */\n      0xffffffffffffffffffffffffffffffffffffffff\n      and\n      eq\n        /* \"src/Exchange.sol\":1769:1831  require(msg.sender == _authorized, \"Caller is not authorized\") */\n      tag_62\n      jumpi\n      mload(0x40)\n      0x08c379a000000000000000000000000000000000000000000000000000000000\n      dup2\n      mstore\n      0x04\n      add\n      tag_63\n      swap1\n      tag_64\n      jump\t// in\n    tag_63:\n      mload(0x40)\n      dup1\n      swap2\n      sub\n      swap1\n      revert\n    tag_62:\n        /* \"src/Exchange.sol\":3926:3943  nextContractOwner */\n      0x01\n      0x00\n      swap1\n      sload\n      swap1\n      0x0100\n      exp\n      swap1\n      div\n      0xffffffffffffffffffffffffffffffffffffffff\n      and\n        /* \"src/Exchange.sol\":3910:3923  contractOwner */\n      0x00\n      dup1\n        /* \"src/Exchange.sol\":3910:3943  contractOwner = nextContractOwner */\n      0x0100\n      exp\n      dup2\n      sload\n      dup2\n      0xffffffffffffffffffffffffffffffffffffffff\n      mul\n      not\n      and\n      swap1\n      dup4\n      0xffffffffffffffffffffffffffffffffffffffff\n      and\n      mul\n      or\n      swap1\n      sstore\n      pop\n        /* \"src/Exchange.sol\":3982:3983  0 */\n      0x00\n        /* \"src/Exchange.sol\":3954:3971  nextContractOwner */\n      0x01\n      0x00\n        /* \"src/Exchange.sol\":3954:3984  nextContractOwner = address(0) */\n      0x0100\n      exp\n      dup2\n      sload\n      dup2\n      0xffffffffffffffffffffffffffffffffffffffff\n      mul\n      not\n      and\n      swap1\n      dup4\n      0xffffffffffffffffffffffffffffffffffffffff\n      and\n      mul\n      or\n      swap1\n      sstore\n      pop\n        /* \"src/Exchange.sol\":4034:4047  contractOwner */\n      0x00\n      dup1\n      sload\n      swap1\n      0x0100\n      exp\n      swap1\n      div\n      0xffffffffffffffffffffffffffffffffffffffff\n      and\n        /* \"src/Exchange.sol\":4000:4048  ContractOwnershipTransferFinished(contractOwner) */\n      0xffffffffffffffffffffffffffffffffffffffff\n      and\n      0x041e8ee868cb815a7e5cd1a100e6ff024772d79c071718c049ab7d3bc4e1226d\n      mload(0x40)\n      mload(0x40)\n      dup1\n      swap2\n      sub\n      swap1\n      log2\n        /* \"src/Exchange.sol\":4066:4070  true */\n      0x01\n        /* \"src/Exchange.sol\":4059:4070  return true */\n      swap2\n      pop\n        /* \"src/Exchange.sol\":3791:4078  function claimTokenOwnership() external ... */\n      pop\n      swap1\n      jump\t// out\n        /* \"src/Exchange.sol\":475:522  mapping(address => UserRequest) public Requests */\n    tag_22:\n      mstore(0x20, 0x02)\n      dup1\n      0x00\n      mstore\n      keccak256(0x00, 0x40)\n      0x00\n      swap2\n      pop\n      swap1\n      pop\n      dup1\n      0x00\n      add\n      0x00\n      swap1\n      sload\n      swap1\n      0x0100\n      exp\n      swap1\n      div\n      0xffffffffffffffffffffffffffffffffffffffff\n      and\n      swap1\n      dup1\n      0x01\n      add\n      sload\n      swap1\n      dup1\n      0x02\n      add\n      sload\n      swap1\n      dup1\n      0x03\n      add\n      sload\n      swap1\n      dup1\n      0x04\n      add\n      0x00\n      swap1\n      sload\n      swap1\n      0x0100\n      exp\n      swap1\n      div\n      0xff\n      and\n      swap1\n      pop\n      dup6\n      jump\t// out\n        /* \"src/Exchange.sol\":687:738  mapping(address => address[]) public buyRequestants */\n    tag_29:\n      mstore(0x20, 0x04)\n      dup2\n      0x00\n      mstore\n      keccak256(0x00, 0x40)\n      dup2\n      dup2\n      sload\n      dup2\n      lt\n      tag_66\n      jumpi\n      0x00\n      dup1\n      revert\n    tag_66:\n      swap1\n      0x00\n      mstore\n      keccak256(0x00, 0x20)\n      add\n      0x00\n      swap2\n      pop\n      swap2\n      pop\n      swap1\n      sload\n      swap1\n      0x0100\n      exp\n      swap1\n      div\n      0xffffffffffffffffffffffffffffffffffffffff\n      and\n      dup2\n      jump\t// out\n        /* \"src/Exchange.sol\":4146:4735  function sellRequest(address tokenAddress, uint256 amount, uint256 coinPrice) external ... */\n    tag_36:\n        /* \"src/Exchange.sol\":4256:4268  tokenAddress */\n      dup3\n        /* \"src/Exchange.sol\":2895:2911  freeForOperation */\n      0x05\n        /* \"src/Exchange.sol\":2895:2925  freeForOperation[tokenAddress] */\n      0x00\n        /* \"src/Exchange.sol\":2912:2924  tokenAddress */\n      dup3\n        /* \"src/Exchange.sol\":2895:2925  freeForOperation[tokenAddress] */\n      0xffffffffffffffffffffffffffffffffffffffff\n      and\n      0xffffffffffffffffffffffffffffffffffffffff\n      and\n      dup2\n      mstore\n      0x20\n      add\n      swap1\n      dup2\n      mstore\n      0x20\n      add\n      0x00\n      keccak256\n      0x00\n      swap1\n      sload\n      swap1\n      0x0100\n      exp\n      swap1\n      div\n      0xff\n      and\n        /* \"src/Exchange.sol\":2887:2960  require(freeForOperation[tokenAddress], \"Operation on token in progress\") */\n      tag_69\n      jumpi\n      mload(0x40)\n      0x08c379a000000000000000000000000000000000000000000000000000000000\n      dup2\n      mstore\n      0x04\n      add\n      tag_70\n      swap1\n      tag_71\n      jump\t// in\n    tag_70:\n      mload(0x40)\n      dup1\n      swap2\n      sub\n      swap1\n      revert\n    tag_69:\n        /* \"src/Exchange.sol\":3004:3009  false */\n      0x00\n        /* \"src/Exchange.sol\":2971:2987  freeForOperation */\n      0x05\n        /* \"src/Exchange.sol\":2971:3001  freeForOperation[tokenAddress] */\n      0x00\n        /* \"src/Exchange.sol\":2988:3000  tokenAddress */\n      dup4\n        /* \"src/Exchange.sol\":2971:3001  freeForOperation[tokenAddress] */\n      0xffffffffffffffffffffffffffffffffffffffff\n      and\n      0xffffffffffffffffffffffffffffffffffffffff\n      and\n      dup2\n      mstore\n      0x20\n      add\n      swap1\n      dup2\n      mstore\n      0x20\n      add\n      0x00\n      keccak256\n      0x00\n        /* \"src/Exchange.sol\":2971:3009  freeForOperation[tokenAddress] = false */\n      0x0100\n      exp\n      dup2\n      sload\n      dup2\n      0xff\n      mul\n      not\n      and\n      swap1\n      dup4\n      iszero\n      iszero\n      mul\n      or\n      swap1\n      sstore\n      pop\n        /* \"src/Exchange.sol\":2378:2395  RequestTypes.NONE */\n      0x00\n        /* \"src/Exchange.sol\":2349:2395  Requests[msg.sender].TYPE == RequestTypes.NONE */\n      0x02\n      dup2\n      gt\n      iszero\n      tag_73\n      jumpi\n      tag_74\n      tag_75\n      jump\t// in\n    tag_74:\n    tag_73:\n        /* \"src/Exchange.sol\":2349:2357  Requests */\n      0x02\n        /* \"src/Exchange.sol\":2349:2369  Requests[msg.sender] */\n      0x00\n        /* \"src/Exchange.sol\":2358:2368  msg.sender */\n      caller\n        /* \"src/Exchange.sol\":2349:2369  Requests[msg.sender] */\n      0xffffffffffffffffffffffffffffffffffffffff\n      and\n      0xffffffffffffffffffffffffffffffffffffffff\n      and\n      dup2\n      mstore\n      0x20\n      add\n      swap1\n      dup2\n      mstore\n      0x20\n      add\n      0x00\n      keccak256\n        /* \"src/Exchange.sol\":2349:2374  Requests[msg.sender].TYPE */\n      0x04\n      add\n      0x00\n      swap1\n      sload\n      swap1\n      0x0100\n      exp\n      swap1\n      div\n      0xff\n      and\n        /* \"src/Exchange.sol\":2349:2395  Requests[msg.sender].TYPE == RequestTypes.NONE */\n      0x02\n      dup2\n      gt\n      iszero\n      tag_76\n      jumpi\n      tag_77\n      tag_75\n      jump\t// in\n    tag_77:\n    tag_76:\n      eq\n        /* \"src/Exchange.sol\":2341:2396  require(Requests[msg.sender].TYPE == RequestTypes.NONE) */\n      tag_78\n      jumpi\n      0x00\n      dup1\n      revert\n    tag_78:\n        /* \"src/Exchange.sol\":4320:4326  amount */\n      dup3\n        /* \"src/Exchange.sol\":2638:2639  0 */\n      0x00\n        /* \"src/Exchange.sol\":2627:2634  _amount */\n      dup2\n        /* \"src/Exchange.sol\":2627:2639  _amount != 0 */\n      sub\n        /* \"src/Exchange.sol\":2619:2676  require(_amount != 0, \"Amount must be greater than zero\") */\n      tag_80\n      jumpi\n      mload(0x40)\n      0x08c379a000000000000000000000000000000000000000000000000000000000\n      dup2\n      mstore\n      0x04\n      add\n      tag_81\n      swap1\n      tag_82\n      jump\t// in\n    tag_81:\n      mload(0x40)\n      dup1\n      swap2\n      sub\n      swap1\n      revert\n    tag_80:\n        /* \"src/Exchange.sol\":4350:4359  coinPrice */\n      dup3\n        /* \"src/Exchange.sol\":2770:2771  0 */\n      0x00\n        /* \"src/Exchange.sol\":2759:2766  _amount */\n      dup2\n        /* \"src/Exchange.sol\":2759:2771  _amount != 0 */\n      sub\n        /* \"src/Exchange.sol\":2751:2807  require(_amount != 0, \"Price must be greater than zero\") */\n      tag_84\n      jumpi\n      mload(0x40)\n      0x08c379a000000000000000000000000000000000000000000000000000000000\n      dup2\n      mstore\n      0x04\n      add\n      tag_85\n      swap1\n      tag_86\n      jump\t// in\n    tag_85:\n      mload(0x40)\n      dup1\n      swap2\n      sub\n      swap1\n      revert\n    tag_84:\n        /* \"src/Exchange.sol\":4390:4402  tokenAddress */\n      dup6\n        /* \"src/Exchange.sol\":4404:4410  amount */\n      dup6\n        /* \"src/Exchange.sol\":2106:2113  _amount */\n      dup1\n        /* \"src/Exchange.sol\":2052:2064  tokenAddress */\n      dup3\n        /* \"src/Exchange.sol\":2045:2075  IERC20(tokenAddress).allowance */\n      0xffffffffffffffffffffffffffffffffffffffff\n      and\n      0xdd62ed3e\n        /* \"src/Exchange.sol\":2076:2086  msg.sender */\n      caller\n        /* \"src/Exchange.sol\":2096:2100  this */\n      address\n        /* \"src/Exchange.sol\":2045:2102  IERC20(tokenAddress).allowance(msg.sender, address(this)) */\n      mload(0x40)\n      dup4\n      0xffffffff\n      and\n      0xe0\n      shl\n      dup2\n      mstore\n      0x04\n      add\n      tag_88\n      swap3\n      swap2\n      swap1\n      tag_89\n      jump\t// in\n    tag_88:\n      0x20\n      mload(0x40)\n      dup1\n      dup4\n      sub\n      dup2\n      dup7\n      gas\n      staticcall\n      iszero\n      dup1\n      iszero\n      tag_91\n      jumpi\n      returndatasize\n      0x00\n      dup1\n      returndatacopy\n      revert(0x00, returndatasize)\n    tag_91:\n      pop\n      pop\n      pop\n      pop\n      mload(0x40)\n      returndatasize\n      not(0x1f)\n      0x1f\n      dup3\n      add\n      and\n      dup3\n      add\n      dup1\n      0x40\n      mstore\n      pop\n      dup2\n      add\n      swap1\n      tag_92\n      swap2\n      swap1\n      tag_93\n      jump\t// in\n    tag_92:\n        /* \"src/Exchange.sol\":2045:2113  IERC20(tokenAddress).allowance(msg.sender, address(this)) >= _amount */\n      lt\n      iszero\n        /* \"src/Exchange.sol\":2037:2114  require(IERC20(tokenAddress).allowance(msg.sender, address(this)) >= _amount) */\n      tag_94\n      jumpi\n      0x00\n      dup1\n      revert\n    tag_94:\n        /* \"src/Exchange.sol\":4439:4451  tokenAddress */\n      dup8\n        /* \"src/Exchange.sol\":4453:4459  amount */\n      dup8\n        /* \"src/Exchange.sol\":2269:2276  _amount */\n      dup1\n        /* \"src/Exchange.sol\":2230:2242  tokenAddress */\n      dup3\n        /* \"src/Exchange.sol\":2223:2253  IERC20(tokenAddress).balanceOf */\n      0xffffffffffffffffffffffffffffffffffffffff\n      and\n      0x70a08231\n        /* \"src/Exchange.sol\":2254:2264  msg.sender */\n      caller\n        /* \"src/Exchange.sol\":2223:2265  IERC20(tokenAddress).balanceOf(msg.sender) */\n      mload(0x40)\n      dup3\n      0xffffffff\n      and\n      0xe0\n      shl\n      dup2\n      mstore\n      0x04\n      add\n      tag_96\n      swap2\n      swap1\n      tag_31\n      jump\t// in\n    tag_96:\n      0x20\n      mload(0x40)\n      dup1\n      dup4\n      sub\n      dup2\n      dup7\n      gas\n      staticcall\n      iszero\n      dup1\n      iszero\n      tag_98\n      jumpi\n      returndatasize\n      0x00\n      dup1\n      returndatacopy\n      revert(0x00, returndatasize)\n    tag_98:\n      pop\n      pop\n      pop\n      pop\n      mload(0x40)\n      returndatasize\n      not(0x1f)\n      0x1f\n      dup3\n      add\n      and\n      dup3\n      add\n      dup1\n      0x40\n      mstore\n      pop\n      dup2\n      add\n      swap1\n      tag_99\n      swap2\n      swap1\n      tag_93\n      jump\t// in\n    tag_99:\n        /* \"src/Exchange.sol\":2223:2276  IERC20(tokenAddress).balanceOf(msg.sender) >= _amount */\n      lt\n      iszero\n        /* \"src/Exchange.sol\":2215:2277  require(IERC20(tokenAddress).balanceOf(msg.sender) >= _amount) */\n      tag_100\n      jumpi\n      0x00\n      dup1\n      revert\n    tag_100:\n        /* \"src/Exchange.sol\":4505:4522  RequestTypes.SELL */\n      0x01\n        /* \"src/Exchange.sol\":4477:4485  Requests */\n      0x02\n        /* \"src/Exchange.sol\":4477:4497  Requests[msg.sender] */\n      0x00\n        /* \"src/Exchange.sol\":4486:4496  msg.sender */\n      caller\n        /* \"src/Exchange.sol\":4477:4497  Requests[msg.sender] */\n      0xffffffffffffffffffffffffffffffffffffffff\n      and\n      0xffffffffffffffffffffffffffffffffffffffff\n      and\n      dup2\n      mstore\n      0x20\n      add\n      swap1\n      dup2\n      mstore\n      0x20\n      add\n      0x00\n      keccak256\n        /* \"src/Exchange.sol\":4477:4502  Requests[msg.sender].TYPE */\n      0x04\n      add\n      0x00\n        /* \"src/Exchange.sol\":4477:4522  Requests[msg.sender].TYPE = RequestTypes.SELL */\n      0x0100\n      exp\n      dup2\n      sload\n      dup2\n      0xff\n      mul\n      not\n      and\n      swap1\n      dup4\n      0x02\n      dup2\n      gt\n      iszero\n      tag_102\n      jumpi\n      tag_103\n      tag_75\n      jump\t// in\n    tag_103:\n    tag_102:\n      mul\n      or\n      swap1\n      sstore\n      pop\n        /* \"src/Exchange.sol\":4544:4556  tokenAddress */\n      dup10\n        /* \"src/Exchange.sol\":4537:4570  IERC20(tokenAddress).transferFrom */\n      0xffffffffffffffffffffffffffffffffffffffff\n      and\n      0x23b872dd\n        /* \"src/Exchange.sol\":4571:4581  msg.sender */\n      caller\n        /* \"src/Exchange.sol\":4591:4595  this */\n      address\n        /* \"src/Exchange.sol\":4598:4604  amount */\n      dup13\n        /* \"src/Exchange.sol\":4537:4605  IERC20(tokenAddress).transferFrom(msg.sender, address(this), amount) */\n      mload(0x40)\n      dup5\n      0xffffffff\n      and\n      0xe0\n      shl\n      dup2\n      mstore\n      0x04\n      add\n      tag_104\n      swap4\n      swap3\n      swap2\n      swap1\n      tag_105\n      jump\t// in\n    tag_104:\n      0x20\n      mload(0x40)\n      dup1\n      dup4\n      sub\n      dup2\n      0x00\n      dup8\n      gas\n      call\n      iszero\n      dup1\n      iszero\n      tag_107\n      jumpi\n      returndatasize\n      0x00\n      dup1\n      returndatacopy\n      revert(0x00, returndatasize)\n    tag_107:\n      pop\n      pop\n      pop\n      pop\n      mload(0x40)\n      returndatasize\n      not(0x1f)\n      0x1f\n      dup3\n      add\n      and\n      dup3\n      add\n      dup1\n      0x40\n      mstore\n      pop\n      dup2\n      add\n      swap1\n      tag_108\n      swap2\n      swap1\n      tag_109\n      jump\t// in\n    tag_108:\n        /* \"src/Exchange.sol\":4533:4650  if(!IERC20(tokenAddress).transferFrom(msg.sender, address(this), amount)) revert(\"Token transfer to exchange failed\") */\n      tag_110\n      jumpi\n        /* \"src/Exchange.sol\":4607:4650  revert(\"Token transfer to exchange failed\") */\n      mload(0x40)\n      0x08c379a000000000000000000000000000000000000000000000000000000000\n      dup2\n      mstore\n      0x04\n      add\n      tag_111\n      swap1\n      tag_112\n      jump\t// in\n    tag_111:\n      mload(0x40)\n      dup1\n      swap2\n      sub\n      swap1\n      revert\n        /* \"src/Exchange.sol\":4533:4650  if(!IERC20(tokenAddress).transferFrom(msg.sender, address(this), amount)) revert(\"Token transfer to exchange failed\") */\n    tag_110:\n        /* \"src/Exchange.sol\":4661:4726  matchRequests(tokenAddress, amount, coinPrice, RequestTypes.SELL) */\n      tag_113\n        /* \"src/Exchange.sol\":4675:4687  tokenAddress */\n      dup11\n        /* \"src/Exchange.sol\":4689:4695  amount */\n      dup11\n        /* \"src/Exchange.sol\":4697:4706  coinPrice */\n      dup11\n        /* \"src/Exchange.sol\":4708:4725  RequestTypes.SELL */\n      0x01\n        /* \"src/Exchange.sol\":4661:4674  matchRequests */\n      tag_114\n        /* \"src/Exchange.sol\":4661:4726  matchRequests(tokenAddress, amount, coinPrice, RequestTypes.SELL) */\n      jump\t// in\n    tag_113:\n        /* \"src/Exchange.sol\":2125:2126  _ */\n      pop\n      pop\n        /* \"src/Exchange.sol\":2818:2819  _ */\n      pop\n      pop\n        /* \"src/Exchange.sol\":2687:2688  _ */\n      pop\n        /* \"src/Exchange.sol\":2408:2409  _ */\n      pop\n        /* \"src/Exchange.sol\":3065:3069  true */\n      0x01\n        /* \"src/Exchange.sol\":3032:3048  freeForOperation */\n      0x05\n        /* \"src/Exchange.sol\":3032:3062  freeForOperation[tokenAddress] */\n      0x00\n        /* \"src/Exchange.sol\":3049:3061  tokenAddress */\n      dup4\n        /* \"src/Exchange.sol\":3032:3062  freeForOperation[tokenAddress] */\n      0xffffffffffffffffffffffffffffffffffffffff\n      and\n      0xffffffffffffffffffffffffffffffffffffffff\n      and\n      dup2\n      mstore\n      0x20\n      add\n      swap1\n      dup2\n      mstore\n      0x20\n      add\n      0x00\n      keccak256\n      0x00\n        /* \"src/Exchange.sol\":3032:3069  freeForOperation[tokenAddress] = true */\n      0x0100\n      exp\n      dup2\n      sload\n      dup2\n      0xff\n      mul\n      not\n      and\n      swap1\n      dup4\n      iszero\n      iszero\n      mul\n      or\n      swap1\n      sstore\n      pop\n        /* \"src/Exchange.sol\":4146:4735  function sellRequest(address tokenAddress, uint256 amount, uint256 coinPrice) external ... */\n      pop\n      pop\n      pop\n      pop\n      jump\t// out\n        /* \"src/Exchange.sol\":628:680  mapping(address => address[]) public sellRequestants */\n    tag_40:\n      mstore(0x20, 0x03)\n      dup2\n      0x00\n      mstore\n      keccak256(0x00, 0x40)\n      dup2\n      dup2\n      sload\n      dup2\n      lt\n      tag_115\n      jumpi\n      0x00\n      dup1\n      revert\n    tag_115:\n      swap1\n      0x00\n      mstore\n      keccak256(0x00, 0x20)\n      add\n      0x00\n      swap2\n      pop\n      swap2\n      pop\n      swap1\n      sload\n      swap1\n      0x0100\n      exp\n      swap1\n      div\n      0xffffffffffffffffffffffffffffffffffffffff\n      and\n      dup2\n      jump\t// out\n        /* \"src/Exchange.sol\":5259:5999  function cancelRequest() external ... */\n    tag_44:\n        /* \"src/Exchange.sol\":5318:5326  Requests */\n      0x02\n        /* \"src/Exchange.sol\":5318:5338  Requests[msg.sender] */\n      0x00\n        /* \"src/Exchange.sol\":5327:5337  msg.sender */\n      caller\n        /* \"src/Exchange.sol\":5318:5338  Requests[msg.sender] */\n      0xffffffffffffffffffffffffffffffffffffffff\n      and\n      0xffffffffffffffffffffffffffffffffffffffff\n      and\n      dup2\n      mstore\n      0x20\n      add\n      swap1\n      dup2\n      mstore\n      0x20\n      add\n      0x00\n      keccak256\n        /* \"src/Exchange.sol\":5318:5351  Requests[msg.sender].tokenAddress */\n      0x00\n      add\n      0x00\n      swap1\n      sload\n      swap1\n      0x0100\n      exp\n      swap1\n      div\n      0xffffffffffffffffffffffffffffffffffffffff\n      and\n        /* \"src/Exchange.sol\":2895:2911  freeForOperation */\n      0x05\n        /* \"src/Exchange.sol\":2895:2925  freeForOperation[tokenAddress] */\n      0x00\n        /* \"src/Exchange.sol\":2912:2924  tokenAddress */\n      dup3\n        /* \"src/Exchange.sol\":2895:2925  freeForOperation[tokenAddress] */\n      0xffffffffffffffffffffffffffffffffffffffff\n      and\n      0xffffffffffffffffffffffffffffffffffffffff\n      and\n      dup2\n      mstore\n      0x20\n      add\n      swap1\n      dup2\n      mstore\n      0x20\n      add\n      0x00\n      keccak256\n      0x00\n      swap1\n      sload\n      swap1\n      0x0100\n      exp\n      swap1\n      div\n      0xff\n      and\n        /* \"src/Exchange.sol\":2887:2960  require(freeForOperation[tokenAddress], \"Operation on token in progress\") */\n      tag_118\n      jumpi\n      mload(0x40)\n      0x08c379a000000000000000000000000000000000000000000000000000000000\n      dup2\n      mstore\n      0x04\n      add\n      tag_119\n      swap1\n      tag_71\n      jump\t// in\n    tag_119:\n      mload(0x40)\n      dup1\n      swap2\n      sub\n      swap1\n      revert\n    tag_118:\n        /* \"src/Exchange.sol\":3004:3009  false */\n      0x00\n        /* \"src/Exchange.sol\":2971:2987  freeForOperation */\n      0x05\n        /* \"src/Exchange.sol\":2971:3001  freeForOperation[tokenAddress] */\n      0x00\n        /* \"src/Exchange.sol\":2988:3000  tokenAddress */\n      dup4\n        /* \"src/Exchange.sol\":2971:3001  freeForOperation[tokenAddress] */\n      0xffffffffffffffffffffffffffffffffffffffff\n      and\n      0xffffffffffffffffffffffffffffffffffffffff\n      and\n      dup2\n      mstore\n      0x20\n      add\n      swap1\n      dup2\n      mstore\n      0x20\n      add\n      0x00\n      keccak256\n      0x00\n        /* \"src/Exchange.sol\":2971:3009  freeForOperation[tokenAddress] = false */\n      0x0100\n      exp\n      dup2\n      sload\n      dup2\n      0xff\n      mul\n      not\n      and\n      swap1\n      dup4\n      iszero\n      iszero\n      mul\n      or\n      swap1\n      sstore\n      pop\n        /* \"src/Exchange.sol\":5406:5423  RequestTypes.NONE */\n      0x00\n        /* \"src/Exchange.sol\":5377:5423  Requests[msg.sender].TYPE != RequestTypes.NONE */\n      0x02\n      dup2\n      gt\n      iszero\n      tag_121\n      jumpi\n      tag_122\n      tag_75\n      jump\t// in\n    tag_122:\n    tag_121:\n        /* \"src/Exchange.sol\":5377:5385  Requests */\n      0x02\n        /* \"src/Exchange.sol\":5377:5397  Requests[msg.sender] */\n      0x00\n        /* \"src/Exchange.sol\":5386:5396  msg.sender */\n      caller\n        /* \"src/Exchange.sol\":5377:5397  Requests[msg.sender] */\n      0xffffffffffffffffffffffffffffffffffffffff\n      and\n      0xffffffffffffffffffffffffffffffffffffffff\n      and\n      dup2\n      mstore\n      0x20\n      add\n      swap1\n      dup2\n      mstore\n      0x20\n      add\n      0x00\n      keccak256\n        /* \"src/Exchange.sol\":5377:5402  Requests[msg.sender].TYPE */\n      0x04\n      add\n      0x00\n      swap1\n      sload\n      swap1\n      0x0100\n      exp\n      swap1\n      div\n      0xff\n      and\n        /* \"src/Exchange.sol\":5377:5423  Requests[msg.sender].TYPE != RequestTypes.NONE */\n      0x02\n      dup2\n      gt\n      iszero\n      tag_123\n      jumpi\n      tag_124\n      tag_75\n      jump\t// in\n    tag_124:\n    tag_123:\n      sub\n        /* \"src/Exchange.sol\":5369:5448  require(Requests[msg.sender].TYPE != RequestTypes.NONE,\"No requests to cancel\") */\n      tag_125\n      jumpi\n      mload(0x40)\n      0x08c379a000000000000000000000000000000000000000000000000000000000\n      dup2\n      mstore\n      0x04\n      add\n      tag_126\n      swap1\n      tag_127\n      jump\t// in\n    tag_126:\n      mload(0x40)\n      dup1\n      swap2\n      sub\n      swap1\n      revert\n    tag_125:\n        /* \"src/Exchange.sol\":5498:5499  0 */\n      0x00\n        /* \"src/Exchange.sol\":5467:5475  Requests */\n      0x02\n        /* \"src/Exchange.sol\":5467:5487  Requests[msg.sender] */\n      0x00\n        /* \"src/Exchange.sol\":5476:5486  msg.sender */\n      caller\n        /* \"src/Exchange.sol\":5467:5487  Requests[msg.sender] */\n      0xffffffffffffffffffffffffffffffffffffffff\n      and\n      0xffffffffffffffffffffffffffffffffffffffff\n      and\n      dup2\n      mstore\n      0x20\n      add\n      swap1\n      dup2\n      mstore\n      0x20\n      add\n      0x00\n      keccak256\n        /* \"src/Exchange.sol\":5467:5494  Requests[msg.sender].amount */\n      0x02\n      add\n      sload\n        /* \"src/Exchange.sol\":5467:5499  Requests[msg.sender].amount != 0 */\n      sub\n        /* \"src/Exchange.sol\":5459:5535  require(Requests[msg.sender].amount != 0,\"You cannot cancel multiple times\") */\n      tag_128\n      jumpi\n      mload(0x40)\n      0x08c379a000000000000000000000000000000000000000000000000000000000\n      dup2\n      mstore\n      0x04\n      add\n      tag_129\n      swap1\n      tag_130\n      jump\t// in\n    tag_129:\n      mload(0x40)\n      dup1\n      swap2\n      sub\n      swap1\n      revert\n    tag_128:\n        /* \"src/Exchange.sol\":5546:5572  UserRequest memory Request */\n      0x00\n        /* \"src/Exchange.sol\":5575:5583  Requests */\n      0x02\n        /* \"src/Exchange.sol\":5575:5595  Requests[msg.sender] */\n      0x00\n        /* \"src/Exchange.sol\":5584:5594  msg.sender */\n      caller\n        /* \"src/Exchange.sol\":5575:5595  Requests[msg.sender] */\n      0xffffffffffffffffffffffffffffffffffffffff\n      and\n      0xffffffffffffffffffffffffffffffffffffffff\n      and\n      dup2\n      mstore\n      0x20\n      add\n      swap1\n      dup2\n      mstore\n      0x20\n      add\n      0x00\n      keccak256\n        /* \"src/Exchange.sol\":5546:5595  UserRequest memory Request = Requests[msg.sender] */\n      mload(0x40)\n      dup1\n      0xa0\n      add\n      0x40\n      mstore\n      swap1\n      dup2\n      0x00\n      dup3\n      add\n      0x00\n      swap1\n      sload\n      swap1\n      0x0100\n      exp\n      swap1\n      div\n      0xffffffffffffffffffffffffffffffffffffffff\n      and\n      0xffffffffffffffffffffffffffffffffffffffff\n      and\n      0xffffffffffffffffffffffffffffffffffffffff\n      and\n      dup2\n      mstore\n      0x20\n      add\n      0x01\n      dup3\n      add\n      sload\n      dup2\n      mstore\n      0x20\n      add\n      0x02\n      dup3\n      add\n      sload\n      dup2\n      mstore\n      0x20\n      add\n      0x03\n      dup3\n      add\n      sload\n      dup2\n      mstore\n      0x20\n      add\n      0x04\n      dup3\n      add\n      0x00\n      swap1\n      sload\n      swap1\n      0x0100\n      exp\n      swap1\n      div\n      0xff\n      and\n      0x02\n      dup2\n      gt\n      iszero\n      tag_131\n      jumpi\n      tag_132\n      tag_75\n      jump\t// in\n    tag_132:\n    tag_131:\n      0x02\n      dup2\n      gt\n      iszero\n      tag_133\n      jumpi\n      tag_134\n      tag_75\n      jump\t// in\n    tag_134:\n    tag_133:\n      dup2\n      mstore\n      pop\n      pop\n      swap1\n      pop\n        /* \"src/Exchange.sol\":5606:5621  uint256 _amount */\n      0x00\n        /* \"src/Exchange.sol\":5624:5631  Request */\n      dup2\n        /* \"src/Exchange.sol\":5624:5638  Request.amount */\n      0x40\n      add\n      mload\n        /* \"src/Exchange.sol\":5606:5638  uint256 _amount = Request.amount */\n      swap1\n      pop\n        /* \"src/Exchange.sol\":5679:5680  0 */\n      0x00\n        /* \"src/Exchange.sol\":5649:5657  Requests */\n      0x02\n        /* \"src/Exchange.sol\":5649:5669  Requests[msg.sender] */\n      0x00\n        /* \"src/Exchange.sol\":5658:5668  msg.sender */\n      caller\n        /* \"src/Exchange.sol\":5649:5669  Requests[msg.sender] */\n      0xffffffffffffffffffffffffffffffffffffffff\n      and\n      0xffffffffffffffffffffffffffffffffffffffff\n      and\n      dup2\n      mstore\n      0x20\n      add\n      swap1\n      dup2\n      mstore\n      0x20\n      add\n      0x00\n      keccak256\n        /* \"src/Exchange.sol\":5649:5676  Requests[msg.sender].amount */\n      0x02\n      add\n        /* \"src/Exchange.sol\":5649:5680  Requests[msg.sender].amount = 0 */\n      dup2\n      swap1\n      sstore\n      pop\n        /* \"src/Exchange.sol\":5710:5727  RequestTypes.SELL */\n      0x01\n        /* \"src/Exchange.sol\":5694:5727  Request.TYPE == RequestTypes.SELL */\n      0x02\n      dup2\n      gt\n      iszero\n      tag_135\n      jumpi\n      tag_136\n      tag_75\n      jump\t// in\n    tag_136:\n    tag_135:\n        /* \"src/Exchange.sol\":5694:5701  Request */\n      dup3\n        /* \"src/Exchange.sol\":5694:5706  Request.TYPE */\n      0x80\n      add\n      mload\n        /* \"src/Exchange.sol\":5694:5727  Request.TYPE == RequestTypes.SELL */\n      0x02\n      dup2\n      gt\n      iszero\n      tag_137\n      jumpi\n      tag_138\n      tag_75\n      jump\t// in\n    tag_138:\n    tag_137:\n      sub\n        /* \"src/Exchange.sol\":5691:5956  if(Request.TYPE == RequestTypes.SELL){... */\n      tag_139\n      jumpi\n        /* \"src/Exchange.sol\":5754:5761  Request */\n      dup2\n        /* \"src/Exchange.sol\":5754:5774  Request.tokenAddress */\n      0x00\n      add\n      mload\n        /* \"src/Exchange.sol\":5747:5784  IERC20(Request.tokenAddress).transfer */\n      0xffffffffffffffffffffffffffffffffffffffff\n      and\n      0xa9059cbb\n        /* \"src/Exchange.sol\":5785:5795  msg.sender */\n      caller\n        /* \"src/Exchange.sol\":5796:5803  _amount */\n      dup4\n        /* \"src/Exchange.sol\":5747:5804  IERC20(Request.tokenAddress).transfer(msg.sender,_amount) */\n      mload(0x40)\n      dup4\n      0xffffffff\n      and\n      0xe0\n      shl\n      dup2\n      mstore\n      0x04\n      add\n      tag_140\n      swap3\n      swap2\n      swap1\n      tag_141\n      jump\t// in\n    tag_140:\n      0x20\n      mload(0x40)\n      dup1\n      dup4\n      sub\n      dup2\n      0x00\n      dup8\n      gas\n      call\n      iszero\n      dup1\n      iszero\n      tag_143\n      jumpi\n      returndatasize\n      0x00\n      dup1\n      returndatacopy\n      revert(0x00, returndatasize)\n    tag_143:\n      pop\n      pop\n      pop\n      pop\n      mload(0x40)\n      returndatasize\n      not(0x1f)\n      0x1f\n      dup3\n      add\n      and\n      dup3\n      add\n      dup1\n      0x40\n      mstore\n      pop\n      dup2\n      add\n      swap1\n      tag_144\n      swap2\n      swap1\n      tag_109\n      jump\t// in\n    tag_144:\n        /* \"src/Exchange.sol\":5743:5855  if(!IERC20(Request.tokenAddress).transfer(msg.sender,_amount)) revert(\"Token transfer back to requestor failed\") */\n      tag_145\n      jumpi\n        /* \"src/Exchange.sol\":5806:5855  revert(\"Token transfer back to requestor failed\") */\n      mload(0x40)\n      0x08c379a000000000000000000000000000000000000000000000000000000000\n      dup2\n      mstore\n      0x04\n      add\n      tag_146\n      swap1\n      tag_147\n      jump\t// in\n    tag_146:\n      mload(0x40)\n      dup1\n      swap2\n      sub\n      swap1\n      revert\n        /* \"src/Exchange.sol\":5743:5855  if(!IERC20(Request.tokenAddress).transfer(msg.sender,_amount)) revert(\"Token transfer back to requestor failed\") */\n    tag_145:\n        /* \"src/Exchange.sol\":5691:5956  if(Request.TYPE == RequestTypes.SELL){... */\n      jump(tag_148)\n    tag_139:\n        /* \"src/Exchange.sol\":5886:5944  sendEther(payable(msg.sender), _amount*Request.tokenPrice) */\n      tag_149\n        /* \"src/Exchange.sol\":5904:5914  msg.sender */\n      caller\n        /* \"src/Exchange.sol\":5925:5932  Request */\n      dup4\n        /* \"src/Exchange.sol\":5925:5943  Request.tokenPrice */\n      0x60\n      add\n      mload\n        /* \"src/Exchange.sol\":5917:5924  _amount */\n      dup4\n        /* \"src/Exchange.sol\":5917:5943  _amount*Request.tokenPrice */\n      tag_150\n      swap2\n      swap1\n      tag_151\n      jump\t// in\n    tag_150:\n        /* \"src/Exchange.sol\":5886:5895  sendEther */\n      tag_152\n        /* \"src/Exchange.sol\":5886:5944  sendEther(payable(msg.sender), _amount*Request.tokenPrice) */\n      jump\t// in\n    tag_149:\n        /* \"src/Exchange.sol\":5691:5956  if(Request.TYPE == RequestTypes.SELL){... */\n    tag_148:\n        /* \"src/Exchange.sol\":5966:5991  removeRequest(msg.sender) */\n      tag_153\n        /* \"src/Exchange.sol\":5980:5990  msg.sender */\n      caller\n        /* \"src/Exchange.sol\":5966:5979  removeRequest */\n      tag_154\n        /* \"src/Exchange.sol\":5966:5991  removeRequest(msg.sender) */\n      jump\t// in\n    tag_153:\n        /* \"src/Exchange.sol\":5358:5999  {... */\n      pop\n      pop\n        /* \"src/Exchange.sol\":3065:3069  true */\n      0x01\n        /* \"src/Exchange.sol\":3032:3048  freeForOperation */\n      0x05\n        /* \"src/Exchange.sol\":3032:3062  freeForOperation[tokenAddress] */\n      0x00\n        /* \"src/Exchange.sol\":3049:3061  tokenAddress */\n      dup4\n        /* \"src/Exchange.sol\":3032:3062  freeForOperation[tokenAddress] */\n      0xffffffffffffffffffffffffffffffffffffffff\n      and\n      0xffffffffffffffffffffffffffffffffffffffff\n      and\n      dup2\n      mstore\n      0x20\n      add\n      swap1\n      dup2\n      mstore\n      0x20\n      add\n      0x00\n      keccak256\n      0x00\n        /* \"src/Exchange.sol\":3032:3069  freeForOperation[tokenAddress] = true */\n      0x0100\n      exp\n      dup2\n      sload\n      dup2\n      0xff\n      mul\n      not\n      and\n      swap1\n      dup4\n      iszero\n      iszero\n      mul\n      or\n      swap1\n      sstore\n      pop\n        /* \"src/Exchange.sol\":5259:5999  function cancelRequest() external ... */\n      pop\n      jump\t// out\n        /* \"src/Exchange.sol\":4743:5251  function buyRequest(address tokenAddress, uint256 amount, uint256 coinPrice) external payable ... */\n    tag_47:\n        /* \"src/Exchange.sol\":4860:4872  tokenAddress */\n      dup3\n        /* \"src/Exchange.sol\":2895:2911  freeForOperation */\n      0x05\n        /* \"src/Exchange.sol\":2895:2925  freeForOperation[tokenAddress] */\n      0x00\n        /* \"src/Exchange.sol\":2912:2924  tokenAddress */\n      dup3\n        /* \"src/Exchange.sol\":2895:2925  freeForOperation[tokenAddress] */\n      0xffffffffffffffffffffffffffffffffffffffff\n      and\n      0xffffffffffffffffffffffffffffffffffffffff\n      and\n      dup2\n      mstore\n      0x20\n      add\n      swap1\n      dup2\n      mstore\n      0x20\n      add\n      0x00\n      keccak256\n      0x00\n      swap1\n      sload\n      swap1\n      0x0100\n      exp\n      swap1\n      div\n      0xff\n      and\n        /* \"src/Exchange.sol\":2887:2960  require(freeForOperation[tokenAddress], \"Operation on token in progress\") */\n      tag_156\n      jumpi\n      mload(0x40)\n      0x08c379a000000000000000000000000000000000000000000000000000000000\n      dup2\n      mstore\n      0x04\n      add\n      tag_157\n      swap1\n      tag_71\n      jump\t// in\n    tag_157:\n      mload(0x40)\n      dup1\n      swap2\n      sub\n      swap1\n      revert\n    tag_156:\n        /* \"src/Exchange.sol\":3004:3009  false */\n      0x00\n        /* \"src/Exchange.sol\":2971:2987  freeForOperation */\n      0x05\n        /* \"src/Exchange.sol\":2971:3001  freeForOperation[tokenAddress] */\n      0x00\n        /* \"src/Exchange.sol\":2988:3000  tokenAddress */\n      dup4\n        /* \"src/Exchange.sol\":2971:3001  freeForOperation[tokenAddress] */\n      0xffffffffffffffffffffffffffffffffffffffff\n      and\n      0xffffffffffffffffffffffffffffffffffffffff\n      and\n      dup2\n      mstore\n      0x20\n      add\n      swap1\n      dup2\n      mstore\n      0x20\n      add\n      0x00\n      keccak256\n      0x00\n        /* \"src/Exchange.sol\":2971:3009  freeForOperation[tokenAddress] = false */\n      0x0100\n      exp\n      dup2\n      sload\n      dup2\n      0xff\n      mul\n      not\n      and\n      swap1\n      dup4\n      iszero\n      iszero\n      mul\n      or\n      swap1\n      sstore\n      pop\n        /* \"src/Exchange.sol\":2378:2395  RequestTypes.NONE */\n      0x00\n        /* \"src/Exchange.sol\":2349:2395  Requests[msg.sender].TYPE == RequestTypes.NONE */\n      0x02\n      dup2\n      gt\n      iszero\n      tag_159\n      jumpi\n      tag_160\n      tag_75\n      jump\t// in\n    tag_160:\n    tag_159:\n        /* \"src/Exchange.sol\":2349:2357  Requests */\n      0x02\n        /* \"src/Exchange.sol\":2349:2369  Requests[msg.sender] */\n      0x00\n        /* \"src/Exchange.sol\":2358:2368  msg.sender */\n      caller\n        /* \"src/Exchange.sol\":2349:2369  Requests[msg.sender] */\n      0xffffffffffffffffffffffffffffffffffffffff\n      and\n      0xffffffffffffffffffffffffffffffffffffffff\n      and\n      dup2\n      mstore\n      0x20\n      add\n      swap1\n      dup2\n      mstore\n      0x20\n      add\n      0x00\n      keccak256\n        /* \"src/Exchange.sol\":2349:2374  Requests[msg.sender].TYPE */\n      0x04\n      add\n      0x00\n      swap1\n      sload\n      swap1\n      0x0100\n      exp\n      swap1\n      div\n      0xff\n      and\n        /* \"src/Exchange.sol\":2349:2395  Requests[msg.sender].TYPE == RequestTypes.NONE */\n      0x02\n      dup2\n      gt\n      iszero\n      tag_161\n      jumpi\n      tag_162\n      tag_75\n      jump\t// in\n    tag_162:\n    tag_161:\n      eq\n        /* \"src/Exchange.sol\":2341:2396  require(Requests[msg.sender].TYPE == RequestTypes.NONE) */\n      tag_163\n      jumpi\n      0x00\n      dup1\n      revert\n    tag_163:\n        /* \"src/Exchange.sol\":4924:4930  amount */\n      dup3\n        /* \"src/Exchange.sol\":2638:2639  0 */\n      0x00\n        /* \"src/Exchange.sol\":2627:2634  _amount */\n      dup2\n        /* \"src/Exchange.sol\":2627:2639  _amount != 0 */\n      sub\n        /* \"src/Exchange.sol\":2619:2676  require(_amount != 0, \"Amount must be greater than zero\") */\n      tag_165\n      jumpi\n      mload(0x40)\n      0x08c379a000000000000000000000000000000000000000000000000000000000\n      dup2\n      mstore\n      0x04\n      add\n      tag_166\n      swap1\n      tag_82\n      jump\t// in\n    tag_166:\n      mload(0x40)\n      dup1\n      swap2\n      sub\n      swap1\n      revert\n    tag_165:\n        /* \"src/Exchange.sol\":4954:4963  coinPrice */\n      dup3\n        /* \"src/Exchange.sol\":2770:2771  0 */\n      0x00\n        /* \"src/Exchange.sol\":2759:2766  _amount */\n      dup2\n        /* \"src/Exchange.sol\":2759:2771  _amount != 0 */\n      sub\n        /* \"src/Exchange.sol\":2751:2807  require(_amount != 0, \"Price must be greater than zero\") */\n      tag_168\n      jumpi\n      mload(0x40)\n      0x08c379a000000000000000000000000000000000000000000000000000000000\n      dup2\n      mstore\n      0x04\n      add\n      tag_169\n      swap1\n      tag_86\n      jump\t// in\n    tag_169:\n      mload(0x40)\n      dup1\n      swap2\n      sub\n      swap1\n      revert\n    tag_168:\n        /* \"src/Exchange.sol\":4993:5002  coinPrice */\n      dup4\n        /* \"src/Exchange.sol\":4986:4992  amount */\n      dup6\n        /* \"src/Exchange.sol\":4986:5002  amount*coinPrice */\n      tag_170\n      swap2\n      swap1\n      tag_151\n      jump\t// in\n    tag_170:\n        /* \"src/Exchange.sol\":1926:1933  _amount */\n      dup1\n        /* \"src/Exchange.sol\":1913:1922  msg.value */\n      callvalue\n        /* \"src/Exchange.sol\":1913:1933  msg.value >= _amount */\n      lt\n      iszero\n        /* \"src/Exchange.sol\":1905:1934  require(msg.value >= _amount) */\n      tag_172\n      jumpi\n      0x00\n      dup1\n      revert\n    tag_172:\n        /* \"src/Exchange.sol\":5048:5064  RequestTypes.BUY */\n      0x02\n        /* \"src/Exchange.sol\":5020:5028  Requests */\n      dup1\n        /* \"src/Exchange.sol\":5020:5040  Requests[msg.sender] */\n      0x00\n        /* \"src/Exchange.sol\":5029:5039  msg.sender */\n      caller\n        /* \"src/Exchange.sol\":5020:5040  Requests[msg.sender] */\n      0xffffffffffffffffffffffffffffffffffffffff\n      and\n      0xffffffffffffffffffffffffffffffffffffffff\n      and\n      dup2\n      mstore\n      0x20\n      add\n      swap1\n      dup2\n      mstore\n      0x20\n      add\n      0x00\n      keccak256\n        /* \"src/Exchange.sol\":5020:5045  Requests[msg.sender].TYPE */\n      0x04\n      add\n      0x00\n        /* \"src/Exchange.sol\":5020:5064  Requests[msg.sender].TYPE = RequestTypes.BUY */\n      0x0100\n      exp\n      dup2\n      sload\n      dup2\n      0xff\n      mul\n      not\n      and\n      swap1\n      dup4\n      0x02\n      dup2\n      gt\n      iszero\n      tag_174\n      jumpi\n      tag_175\n      tag_75\n      jump\t// in\n    tag_175:\n    tag_174:\n      mul\n      or\n      swap1\n      sstore\n      pop\n        /* \"src/Exchange.sol\":5097:5106  coinPrice */\n      dup5\n        /* \"src/Exchange.sol\":5090:5096  amount */\n      dup7\n        /* \"src/Exchange.sol\":5090:5106  amount*coinPrice */\n      tag_176\n      swap2\n      swap1\n      tag_151\n      jump\t// in\n    tag_176:\n        /* \"src/Exchange.sol\":5078:5087  msg.value */\n      callvalue\n        /* \"src/Exchange.sol\":5078:5106  msg.value > amount*coinPrice */\n      gt\n        /* \"src/Exchange.sol\":5075:5168  if(msg.value > amount*coinPrice) sendEther(payable(msg.sender), msg.value - amount*coinPrice) */\n      iszero\n      tag_177\n      jumpi\n        /* \"src/Exchange.sol\":5108:5168  sendEther(payable(msg.sender), msg.value - amount*coinPrice) */\n      tag_178\n        /* \"src/Exchange.sol\":5126:5136  msg.sender */\n      caller\n        /* \"src/Exchange.sol\":5158:5167  coinPrice */\n      dup7\n        /* \"src/Exchange.sol\":5151:5157  amount */\n      dup9\n        /* \"src/Exchange.sol\":5151:5167  amount*coinPrice */\n      tag_179\n      swap2\n      swap1\n      tag_151\n      jump\t// in\n    tag_179:\n        /* \"src/Exchange.sol\":5139:5148  msg.value */\n      callvalue\n        /* \"src/Exchange.sol\":5139:5167  msg.value - amount*coinPrice */\n      tag_180\n      swap2\n      swap1\n      tag_181\n      jump\t// in\n    tag_180:\n        /* \"src/Exchange.sol\":5108:5117  sendEther */\n      tag_152\n        /* \"src/Exchange.sol\":5108:5168  sendEther(payable(msg.sender), msg.value - amount*coinPrice) */\n      jump\t// in\n    tag_178:\n        /* \"src/Exchange.sol\":5075:5168  if(msg.value > amount*coinPrice) sendEther(payable(msg.sender), msg.value - amount*coinPrice) */\n    tag_177:\n        /* \"src/Exchange.sol\":5179:5243  matchRequests(tokenAddress, amount, coinPrice, RequestTypes.BUY) */\n      tag_182\n        /* \"src/Exchange.sol\":5193:5205  tokenAddress */\n      dup8\n        /* \"src/Exchange.sol\":5207:5213  amount */\n      dup8\n        /* \"src/Exchange.sol\":5215:5224  coinPrice */\n      dup8\n        /* \"src/Exchange.sol\":5226:5242  RequestTypes.BUY */\n      0x02\n        /* \"src/Exchange.sol\":5179:5192  matchRequests */\n      tag_114\n        /* \"src/Exchange.sol\":5179:5243  matchRequests(tokenAddress, amount, coinPrice, RequestTypes.BUY) */\n      jump\t// in\n    tag_182:\n        /* \"src/Exchange.sol\":2818:2819  _ */\n      pop\n        /* \"src/Exchange.sol\":2687:2688  _ */\n      pop\n        /* \"src/Exchange.sol\":2408:2409  _ */\n      pop\n        /* \"src/Exchange.sol\":3065:3069  true */\n      0x01\n        /* \"src/Exchange.sol\":3032:3048  freeForOperation */\n      0x05\n        /* \"src/Exchange.sol\":3032:3062  freeForOperation[tokenAddress] */\n      0x00\n        /* \"src/Exchange.sol\":3049:3061  tokenAddress */\n      dup4\n        /* \"src/Exchange.sol\":3032:3062  freeForOperation[tokenAddress] */\n      0xffffffffffffffffffffffffffffffffffffffff\n      and\n      0xffffffffffffffffffffffffffffffffffffffff\n      and\n      dup2\n      mstore\n      0x20\n      add\n      swap1\n      dup2\n      mstore\n      0x20\n      add\n      0x00\n      keccak256\n      0x00\n        /* \"src/Exchange.sol\":3032:3069  freeForOperation[tokenAddress] = true */\n      0x0100\n      exp\n      dup2\n      sload\n      dup2\n      0xff\n      mul\n      not\n      and\n      swap1\n      dup4\n      iszero\n      iszero\n      mul\n      or\n      swap1\n      sstore\n      pop\n        /* \"src/Exchange.sol\":4743:5251  function buyRequest(address tokenAddress, uint256 amount, uint256 coinPrice) external payable ... */\n      pop\n      pop\n      pop\n      pop\n      jump\t// out\n        /* \"src/Exchange.sol\":3358:3692  function initiateOwnershipTransfer(address _nextContractOwner) external ... */\n    tag_51:\n        /* \"src/Exchange.sol\":3526:3530  bool */\n      0x00\n        /* \"src/Exchange.sol\":3450:3463  contractOwner */\n      dup1\n      0x00\n      swap1\n      sload\n      swap1\n      0x0100\n      exp\n      swap1\n      div\n      0xffffffffffffffffffffffffffffffffffffffff\n      and\n        /* \"src/Exchange.sol\":1791:1802  _authorized */\n      dup1\n        /* \"src/Exchange.sol\":1777:1802  msg.sender == _authorized */\n      0xffffffffffffffffffffffffffffffffffffffff\n      and\n        /* \"src/Exchange.sol\":1777:1787  msg.sender */\n      caller\n        /* \"src/Exchange.sol\":1777:1802  msg.sender == _authorized */\n      0xffffffffffffffffffffffffffffffffffffffff\n      and\n      eq\n        /* \"src/Exchange.sol\":1769:1831  require(msg.sender == _authorized, \"Caller is not authorized\") */\n      tag_184\n      jumpi\n      mload(0x40)\n      0x08c379a000000000000000000000000000000000000000000000000000000000\n      dup2\n      mstore\n      0x04\n      add\n      tag_185\n      swap1\n      tag_64\n      jump\t// in\n    tag_185:\n      mload(0x40)\n      dup1\n      swap2\n      sub\n      swap1\n      revert\n    tag_184:\n        /* \"src/Exchange.sol\":3489:3507  _nextContractOwner */\n      dup3\n        /* \"src/Exchange.sol\":2492:2495  _to */\n      dup1\n        /* \"src/Exchange.sol\":2478:2495  address(0) != _to */\n      0xffffffffffffffffffffffffffffffffffffffff\n      and\n        /* \"src/Exchange.sol\":2486:2487  0 */\n      0x00\n        /* \"src/Exchange.sol\":2478:2495  address(0) != _to */\n      0xffffffffffffffffffffffffffffffffffffffff\n      and\n      sub\n        /* \"src/Exchange.sol\":2470:2543  require(address(0) != _to, \"Transfer to the zero address is not allowed\") */\n      tag_187\n      jumpi\n      mload(0x40)\n      0x08c379a000000000000000000000000000000000000000000000000000000000\n      dup2\n      mstore\n      0x04\n      add\n      tag_188\n      swap1\n      tag_189\n      jump\t// in\n    tag_188:\n      mload(0x40)\n      dup1\n      swap2\n      sub\n      swap1\n      revert\n    tag_187:\n        /* \"src/Exchange.sol\":3568:3586  _nextContractOwner */\n      dup4\n        /* \"src/Exchange.sol\":3548:3565  nextContractOwner */\n      0x01\n      0x00\n        /* \"src/Exchange.sol\":3548:3586  nextContractOwner = _nextContractOwner */\n      0x0100\n      exp\n      dup2\n      sload\n      dup2\n      0xffffffffffffffffffffffffffffffffffffffff\n      mul\n      not\n      and\n      swap1\n      dup4\n      0xffffffffffffffffffffffffffffffffffffffff\n      and\n      mul\n      or\n      swap1\n      sstore\n      pop\n        /* \"src/Exchange.sol\":3644:3661  nextContractOwner */\n      0x01\n      0x00\n      swap1\n      sload\n      swap1\n      0x0100\n      exp\n      swap1\n      div\n      0xffffffffffffffffffffffffffffffffffffffff\n      and\n        /* \"src/Exchange.sol\":3602:3662  InitiatedOwnershipTransfer(contractOwner, nextContractOwner) */\n      0xffffffffffffffffffffffffffffffffffffffff\n      and\n        /* \"src/Exchange.sol\":3629:3642  contractOwner */\n      0x00\n      dup1\n      sload\n      swap1\n      0x0100\n      exp\n      swap1\n      div\n      0xffffffffffffffffffffffffffffffffffffffff\n      and\n        /* \"src/Exchange.sol\":3602:3662  InitiatedOwnershipTransfer(contractOwner, nextContractOwner) */\n      0xffffffffffffffffffffffffffffffffffffffff\n      and\n      0xfee8bf98f40b2ac772a78cd4d45742484d3471f99046b224f8e6922e7c6eb1d2\n      mload(0x40)\n      mload(0x40)\n      dup1\n      swap2\n      sub\n      swap1\n      log3\n        /* \"src/Exchange.sol\":3680:3684  true */\n      0x01\n        /* \"src/Exchange.sol\":3673:3684  return true */\n      swap3\n      pop\n        /* \"src/Exchange.sol\":1842:1843  _ */\n      pop\n        /* \"src/Exchange.sol\":3358:3692  function initiateOwnershipTransfer(address _nextContractOwner) external ... */\n      pop\n      swap2\n      swap1\n      pop\n      jump\t// out\n        /* \"src/Exchange.sol\":376:408  address public nextContractOwner */\n    tag_55:\n      0x01\n      0x00\n      swap1\n      sload\n      swap1\n      0x0100\n      exp\n      swap1\n      div\n      0xffffffffffffffffffffffffffffffffffffffff\n      and\n      dup2\n      jump\t// out\n        /* \"src/Exchange.sol\":341:369  address public contractOwner */\n    tag_59:\n      0x00\n      dup1\n      sload\n      swap1\n      0x0100\n      exp\n      swap1\n      div\n      0xffffffffffffffffffffffffffffffffffffffff\n      and\n      dup2\n      jump\t// out\n        /* \"src/Exchange.sol\":6102:6925  function matchRequests(address tokenAddress, uint256 amount, uint256 tokenPrice, RequestTypes TYPE) private{... */\n    tag_114:\n        /* \"src/Exchange.sol\":6220:6248  address[] memory requestants */\n      0x00\n        /* \"src/Exchange.sol\":6258:6275  RequestTypes.SELL */\n      0x01\n        /* \"src/Exchange.sol\":6252:6275  TYPE==RequestTypes.SELL */\n      0x02\n      dup2\n      gt\n      iszero\n      tag_192\n      jumpi\n      tag_193\n      tag_75\n      jump\t// in\n    tag_193:\n    tag_192:\n        /* \"src/Exchange.sol\":6252:6256  TYPE */\n      dup3\n        /* \"src/Exchange.sol\":6252:6275  TYPE==RequestTypes.SELL */\n      0x02\n      dup2\n      gt\n      iszero\n      tag_194\n      jumpi\n      tag_195\n      tag_75\n      jump\t// in\n    tag_195:\n    tag_194:\n      eq\n        /* \"src/Exchange.sol\":6252:6338  TYPE==RequestTypes.SELL ? buyRequestants[tokenAddress] : sellRequestants[tokenAddress] */\n      tag_196\n      jumpi\n        /* \"src/Exchange.sol\":6309:6324  sellRequestants */\n      0x03\n        /* \"src/Exchange.sol\":6309:6338  sellRequestants[tokenAddress] */\n      0x00\n        /* \"src/Exchange.sol\":6325:6337  tokenAddress */\n      dup7\n        /* \"src/Exchange.sol\":6309:6338  sellRequestants[tokenAddress] */\n      0xffffffffffffffffffffffffffffffffffffffff\n      and\n      0xffffffffffffffffffffffffffffffffffffffff\n      and\n      dup2\n      mstore\n      0x20\n      add\n      swap1\n      dup2\n      mstore\n      0x20\n      add\n      0x00\n      keccak256\n        /* \"src/Exchange.sol\":6252:6338  TYPE==RequestTypes.SELL ? buyRequestants[tokenAddress] : sellRequestants[tokenAddress] */\n      jump(tag_197)\n    tag_196:\n        /* \"src/Exchange.sol\":6278:6292  buyRequestants */\n      0x04\n        /* \"src/Exchange.sol\":6278:6306  buyRequestants[tokenAddress] */\n      0x00\n        /* \"src/Exchange.sol\":6293:6305  tokenAddress */\n      dup7\n        /* \"src/Exchange.sol\":6278:6306  buyRequestants[tokenAddress] */\n      0xffffffffffffffffffffffffffffffffffffffff\n      and\n      0xffffffffffffffffffffffffffffffffffffffff\n      and\n      dup2\n      mstore\n      0x20\n      add\n      swap1\n      dup2\n      mstore\n      0x20\n      add\n      0x00\n      keccak256\n        /* \"src/Exchange.sol\":6252:6338  TYPE==RequestTypes.SELL ? buyRequestants[tokenAddress] : sellRequestants[tokenAddress] */\n    tag_197:\n        /* \"src/Exchange.sol\":6220:6339  address[] memory requestants = (TYPE==RequestTypes.SELL ? buyRequestants[tokenAddress] : sellRequestants[tokenAddress]) */\n      dup1\n      sload\n      dup1\n      0x20\n      mul\n      0x20\n      add\n      mload(0x40)\n      swap1\n      dup2\n      add\n      0x40\n      mstore\n      dup1\n      swap3\n      swap2\n      swap1\n      dup2\n      dup2\n      mstore\n      0x20\n      add\n      dup3\n      dup1\n      sload\n      dup1\n      iszero\n      tag_198\n      jumpi\n      0x20\n      mul\n      dup3\n      add\n      swap2\n      swap1\n      0x00\n      mstore\n      keccak256(0x00, 0x20)\n      swap1\n    tag_199:\n      dup2\n      0x00\n      swap1\n      sload\n      swap1\n      0x0100\n      exp\n      swap1\n      div\n      0xffffffffffffffffffffffffffffffffffffffff\n      and\n      0xffffffffffffffffffffffffffffffffffffffff\n      and\n      dup2\n      mstore\n      0x20\n      add\n      swap1\n      0x01\n      add\n      swap1\n      dup1\n      dup4\n      gt\n      tag_199\n      jumpi\n    tag_198:\n      pop\n      pop\n      pop\n      pop\n      pop\n      swap1\n      pop\n        /* \"src/Exchange.sol\":6350:6368  uint256 amountLeft */\n      0x00\n        /* \"src/Exchange.sol\":6371:6377  amount */\n      dup5\n        /* \"src/Exchange.sol\":6350:6377  uint256 amountLeft = amount */\n      swap1\n      pop\n        /* \"src/Exchange.sol\":6393:6402  uint256 i */\n      0x00\n        /* \"src/Exchange.sol\":6405:6416  requestants */\n      dup3\n        /* \"src/Exchange.sol\":6405:6423  requestants.length */\n      mload\n        /* \"src/Exchange.sol\":6393:6423  uint256 i = requestants.length */\n      swap1\n      pop\n        /* \"src/Exchange.sol\":6388:6730  for (uint256 i = requestants.length; i > 0; i--){... */\n    tag_200:\n        /* \"src/Exchange.sol\":6429:6430  0 */\n      0x00\n        /* \"src/Exchange.sol\":6425:6426  i */\n      dup2\n        /* \"src/Exchange.sol\":6425:6430  i > 0 */\n      gt\n        /* \"src/Exchange.sol\":6388:6730  for (uint256 i = requestants.length; i > 0; i--){... */\n      iszero\n      tag_201\n      jumpi\n        /* \"src/Exchange.sol\":6451:6477  UserRequest memory Request */\n      0x00\n        /* \"src/Exchange.sol\":6480:6488  Requests */\n      0x02\n        /* \"src/Exchange.sol\":6480:6506  Requests[requestants[i-1]] */\n      0x00\n        /* \"src/Exchange.sol\":6489:6500  requestants */\n      dup6\n        /* \"src/Exchange.sol\":6503:6504  1 */\n      0x01\n        /* \"src/Exchange.sol\":6501:6502  i */\n      dup6\n        /* \"src/Exchange.sol\":6501:6504  i-1 */\n      tag_203\n      swap2\n      swap1\n      tag_181\n      jump\t// in\n    tag_203:\n        /* \"src/Exchange.sol\":6489:6505  requestants[i-1] */\n      dup2\n      mload\n      dup2\n      lt\n      tag_204\n      jumpi\n      tag_205\n      tag_206\n      jump\t// in\n    tag_205:\n    tag_204:\n      0x20\n      mul\n      0x20\n      add\n      add\n      mload\n        /* \"src/Exchange.sol\":6480:6506  Requests[requestants[i-1]] */\n      0xffffffffffffffffffffffffffffffffffffffff\n      and\n      0xffffffffffffffffffffffffffffffffffffffff\n      and\n      dup2\n      mstore\n      0x20\n      add\n      swap1\n      dup2\n      mstore\n      0x20\n      add\n      0x00\n      keccak256\n        /* \"src/Exchange.sol\":6451:6506  UserRequest memory Request = Requests[requestants[i-1]] */\n      mload(0x40)\n      dup1\n      0xa0\n      add\n      0x40\n      mstore\n      swap1\n      dup2\n      0x00\n      dup3\n      add\n      0x00\n      swap1\n      sload\n      swap1\n      0x0100\n      exp\n      swap1\n      div\n      0xffffffffffffffffffffffffffffffffffffffff\n      and\n      0xffffffffffffffffffffffffffffffffffffffff\n      and\n      0xffffffffffffffffffffffffffffffffffffffff\n      and\n      dup2\n      mstore\n      0x20\n      add\n      0x01\n      dup3\n      add\n      sload\n      dup2\n      mstore\n      0x20\n      add\n      0x02\n      dup3\n      add\n      sload\n      dup2\n      mstore\n      0x20\n      add\n      0x03\n      dup3\n      add\n      sload\n      dup2\n      mstore\n      0x20\n      add\n      0x04\n      dup3\n      add\n      0x00\n      swap1\n      sload\n      swap1\n      0x0100\n      exp\n      swap1\n      div\n      0xff\n      and\n      0x02\n      dup2\n      gt\n      iszero\n      tag_207\n      jumpi\n      tag_208\n      tag_75\n      jump\t// in\n    tag_208:\n    tag_207:\n      0x02\n      dup2\n      gt\n      iszero\n      tag_209\n      jumpi\n      tag_210\n      tag_75\n      jump\t// in\n    tag_210:\n    tag_209:\n      dup2\n      mstore\n      pop\n      pop\n      swap1\n      pop\n        /* \"src/Exchange.sol\":6524:6555  priceCheck(Request, tokenPrice) */\n      tag_211\n        /* \"src/Exchange.sol\":6535:6542  Request */\n      dup2\n        /* \"src/Exchange.sol\":6544:6554  tokenPrice */\n      dup8\n        /* \"src/Exchange.sol\":6524:6534  priceCheck */\n      tag_212\n        /* \"src/Exchange.sol\":6524:6555  priceCheck(Request, tokenPrice) */\n      jump\t// in\n    tag_211:\n        /* \"src/Exchange.sol\":6521:6719  if(priceCheck(Request, tokenPrice)){... */\n      iszero\n      tag_213\n      jumpi\n        /* \"src/Exchange.sol\":6588:6658  executeRequests(tokenAddress,requestants[i-1], amountLeft, tokenPrice) */\n      tag_214\n        /* \"src/Exchange.sol\":6604:6616  tokenAddress */\n      dup9\n        /* \"src/Exchange.sol\":6617:6628  requestants */\n      dup6\n        /* \"src/Exchange.sol\":6631:6632  1 */\n      0x01\n        /* \"src/Exchange.sol\":6629:6630  i */\n      dup6\n        /* \"src/Exchange.sol\":6629:6632  i-1 */\n      tag_215\n      swap2\n      swap1\n      tag_181\n      jump\t// in\n    tag_215:\n        /* \"src/Exchange.sol\":6617:6633  requestants[i-1] */\n      dup2\n      mload\n      dup2\n      lt\n      tag_216\n      jumpi\n      tag_217\n      tag_206\n      jump\t// in\n    tag_217:\n    tag_216:\n      0x20\n      mul\n      0x20\n      add\n      add\n      mload\n        /* \"src/Exchange.sol\":6635:6645  amountLeft */\n      dup6\n        /* \"src/Exchange.sol\":6647:6657  tokenPrice */\n      dup10\n        /* \"src/Exchange.sol\":6588:6603  executeRequests */\n      tag_218\n        /* \"src/Exchange.sol\":6588:6658  executeRequests(tokenAddress,requestants[i-1], amountLeft, tokenPrice) */\n      jump\t// in\n    tag_214:\n        /* \"src/Exchange.sol\":6575:6658  amountLeft = executeRequests(tokenAddress,requestants[i-1], amountLeft, tokenPrice) */\n      swap3\n      pop\n        /* \"src/Exchange.sol\":6695:6696  0 */\n      0x00\n        /* \"src/Exchange.sol\":6681:6691  amountLeft */\n      dup4\n        /* \"src/Exchange.sol\":6681:6696  amountLeft == 0 */\n      sub\n        /* \"src/Exchange.sol\":6677:6703  if (amountLeft == 0) break */\n      tag_219\n      jumpi\n        /* \"src/Exchange.sol\":6698:6703  break */\n      pop\n      jump(tag_201)\n        /* \"src/Exchange.sol\":6677:6703  if (amountLeft == 0) break */\n    tag_219:\n        /* \"src/Exchange.sol\":6521:6719  if(priceCheck(Request, tokenPrice)){... */\n    tag_213:\n        /* \"src/Exchange.sol\":6436:6730  {... */\n      pop\n        /* \"src/Exchange.sol\":6432:6435  i-- */\n      dup1\n      dup1\n      tag_220\n      swap1\n      tag_221\n      jump\t// in\n    tag_220:\n      swap2\n      pop\n      pop\n        /* \"src/Exchange.sol\":6388:6730  for (uint256 i = requestants.length; i > 0; i--){... */\n      jump(tag_200)\n    tag_201:\n      pop\n        /* \"src/Exchange.sol\":6756:6757  0 */\n      0x00\n        /* \"src/Exchange.sol\":6743:6753  amountLeft */\n      dup2\n        /* \"src/Exchange.sol\":6743:6757  amountLeft > 0 */\n      gt\n        /* \"src/Exchange.sol\":6740:6918  if(amountLeft > 0){... */\n      iszero\n      tag_222\n      jumpi\n        /* \"src/Exchange.sol\":6773:6827  addRequest(tokenAddress, amountLeft, tokenPrice, TYPE) */\n      tag_223\n        /* \"src/Exchange.sol\":6784:6796  tokenAddress */\n      dup7\n        /* \"src/Exchange.sol\":6798:6808  amountLeft */\n      dup3\n        /* \"src/Exchange.sol\":6810:6820  tokenPrice */\n      dup7\n        /* \"src/Exchange.sol\":6822:6826  TYPE */\n      dup7\n        /* \"src/Exchange.sol\":6773:6783  addRequest */\n      tag_224\n        /* \"src/Exchange.sol\":6773:6827  addRequest(tokenAddress, amountLeft, tokenPrice, TYPE) */\n      jump\t// in\n    tag_223:\n        /* \"src/Exchange.sol\":6740:6918  if(amountLeft > 0){... */\n      jump(tag_225)\n    tag_222:\n        /* \"src/Exchange.sol\":6886:6903  RequestTypes.NONE */\n      0x00\n        /* \"src/Exchange.sol\":6858:6866  Requests */\n      0x02\n        /* \"src/Exchange.sol\":6858:6878  Requests[msg.sender] */\n      0x00\n        /* \"src/Exchange.sol\":6867:6877  msg.sender */\n      caller\n        /* \"src/Exchange.sol\":6858:6878  Requests[msg.sender] */\n      0xffffffffffffffffffffffffffffffffffffffff\n      and\n      0xffffffffffffffffffffffffffffffffffffffff\n      and\n      dup2\n      mstore\n      0x20\n      add\n      swap1\n      dup2\n      mstore\n      0x20\n      add\n      0x00\n      keccak256\n        /* \"src/Exchange.sol\":6858:6883  Requests[msg.sender].TYPE */\n      0x04\n      add\n      0x00\n        /* \"src/Exchange.sol\":6858:6903  Requests[msg.sender].TYPE = RequestTypes.NONE */\n      0x0100\n      exp\n      dup2\n      sload\n      dup2\n      0xff\n      mul\n      not\n      and\n      swap1\n      dup4\n      0x02\n      dup2\n      gt\n      iszero\n      tag_226\n      jumpi\n      tag_227\n      tag_75\n      jump\t// in\n    tag_227:\n    tag_226:\n      mul\n      or\n      swap1\n      sstore\n      pop\n        /* \"src/Exchange.sol\":6740:6918  if(amountLeft > 0){... */\n    tag_225:\n        /* \"src/Exchange.sol\":6209:6925  {... */\n      pop\n      pop\n        /* \"src/Exchange.sol\":6102:6925  function matchRequests(address tokenAddress, uint256 amount, uint256 tokenPrice, RequestTypes TYPE) private{... */\n      pop\n      pop\n      pop\n      pop\n      jump\t// out\n        /* \"src/Exchange.sol\":10021:10201  function sendEther(address payable reciver, uint256 amount) private{... */\n    tag_152:\n        /* \"src/Exchange.sol\":10100:10109  bool sent */\n      0x00\n        /* \"src/Exchange.sol\":10114:10121  reciver */\n      dup3\n        /* \"src/Exchange.sol\":10114:10126  reciver.call */\n      0xffffffffffffffffffffffffffffffffffffffff\n      and\n        /* \"src/Exchange.sol\":10134:10140  amount */\n      dup3\n        /* \"src/Exchange.sol\":10114:10145  reciver.call{value: amount}(\"\") */\n      mload(0x40)\n      tag_229\n      swap1\n      tag_230\n      jump\t// in\n    tag_229:\n      0x00\n      mload(0x40)\n      dup1\n      dup4\n      sub\n      dup2\n      dup6\n      dup8\n      gas\n      call\n      swap3\n      pop\n      pop\n      pop\n      returndatasize\n      dup1\n      0x00\n      dup2\n      eq\n      tag_233\n      jumpi\n      mload(0x40)\n      swap2\n      pop\n      and(add(returndatasize, 0x3f), not(0x1f))\n      dup3\n      add\n      0x40\n      mstore\n      returndatasize\n      dup3\n      mstore\n      returndatasize\n      0x00\n      0x20\n      dup5\n      add\n      returndatacopy\n      jump(tag_232)\n    tag_233:\n      0x60\n      swap2\n      pop\n    tag_232:\n      pop\n        /* \"src/Exchange.sol\":10099:10145  (bool sent,) = reciver.call{value: amount}(\"\") */\n      pop\n      swap1\n      pop\n        /* \"src/Exchange.sol\":10164:10168  sent */\n      dup1\n        /* \"src/Exchange.sol\":10156:10193  require(sent, \"Failed to send Ether\") */\n      tag_234\n      jumpi\n      mload(0x40)\n      0x08c379a000000000000000000000000000000000000000000000000000000000\n      dup2\n      mstore\n      0x04\n      add\n      tag_235\n      swap1\n      tag_236\n      jump\t// in\n    tag_235:\n      mload(0x40)\n      dup1\n      swap2\n      sub\n      swap1\n      revert\n    tag_234:\n        /* \"src/Exchange.sol\":10088:10201  {... */\n      pop\n        /* \"src/Exchange.sol\":10021:10201  function sendEther(address payable reciver, uint256 amount) private{... */\n      pop\n      pop\n      jump\t// out\n        /* \"src/Exchange.sol\":9438:9946  function removeRequest(address requestor) private {... */\n    tag_154:\n        /* \"src/Exchange.sol\":9499:9525  UserRequest memory Request */\n      0x00\n        /* \"src/Exchange.sol\":9528:9536  Requests */\n      0x02\n        /* \"src/Exchange.sol\":9528:9547  Requests[requestor] */\n      0x00\n        /* \"src/Exchange.sol\":9537:9546  requestor */\n      dup4\n        /* \"src/Exchange.sol\":9528:9547  Requests[requestor] */\n      0xffffffffffffffffffffffffffffffffffffffff\n      and\n      0xffffffffffffffffffffffffffffffffffffffff\n      and\n      dup2\n      mstore\n      0x20\n      add\n      swap1\n      dup2\n      mstore\n      0x20\n      add\n      0x00\n      keccak256\n        /* \"src/Exchange.sol\":9499:9547  UserRequest memory Request = Requests[requestor] */\n      mload(0x40)\n      dup1\n      0xa0\n      add\n      0x40\n      mstore\n      swap1\n      dup2\n      0x00\n      dup3\n      add\n      0x00\n      swap1\n      sload\n      swap1\n      0x0100\n      exp\n      swap1\n      div\n      0xffffffffffffffffffffffffffffffffffffffff\n      and\n      0xffffffffffffffffffffffffffffffffffffffff\n      and\n      0xffffffffffffffffffffffffffffffffffffffff\n      and\n      dup2\n      mstore\n      0x20\n      add\n      0x01\n      dup3\n      add\n      sload\n      dup2\n      mstore\n      0x20\n      add\n      0x02\n      dup3\n      add\n      sload\n      dup2\n      mstore\n      0x20\n      add\n      0x03\n      dup3\n      add\n      sload\n      dup2\n      mstore\n      0x20\n      add\n      0x04\n      dup3\n      add\n      0x00\n      swap1\n      sload\n      swap1\n      0x0100\n      exp\n      swap1\n      div\n      0xff\n      and\n      0x02\n      dup2\n      gt\n      iszero\n      tag_238\n      jumpi\n      tag_239\n      tag_75\n      jump\t// in\n    tag_239:\n    tag_238:\n      0x02\n      dup2\n      gt\n      iszero\n      tag_240\n      jumpi\n      tag_241\n      tag_75\n      jump\t// in\n    tag_241:\n    tag_240:\n      dup2\n      mstore\n      pop\n      pop\n      swap1\n      pop\n        /* \"src/Exchange.sol\":9558:9587  address[] storage requestants */\n      0x00\n        /* \"src/Exchange.sol\":9605:9622  RequestTypes.SELL */\n      0x01\n        /* \"src/Exchange.sol\":9591:9622  Request.TYPE==RequestTypes.SELL */\n      0x02\n      dup2\n      gt\n      iszero\n      tag_242\n      jumpi\n      tag_243\n      tag_75\n      jump\t// in\n    tag_243:\n    tag_242:\n        /* \"src/Exchange.sol\":9591:9598  Request */\n      dup3\n        /* \"src/Exchange.sol\":9591:9603  Request.TYPE */\n      0x80\n      add\n      mload\n        /* \"src/Exchange.sol\":9591:9622  Request.TYPE==RequestTypes.SELL */\n      0x02\n      dup2\n      gt\n      iszero\n      tag_244\n      jumpi\n      tag_245\n      tag_75\n      jump\t// in\n    tag_245:\n    tag_244:\n      eq\n        /* \"src/Exchange.sol\":9591:9701  Request.TYPE==RequestTypes.SELL ? sellRequestants[Request.tokenAddress] : buyRequestants[Request.tokenAddress] */\n      tag_246\n      jumpi\n        /* \"src/Exchange.sol\":9665:9679  buyRequestants */\n      0x04\n        /* \"src/Exchange.sol\":9665:9701  buyRequestants[Request.tokenAddress] */\n      0x00\n        /* \"src/Exchange.sol\":9680:9687  Request */\n      dup4\n        /* \"src/Exchange.sol\":9680:9700  Request.tokenAddress */\n      0x00\n      add\n      mload\n        /* \"src/Exchange.sol\":9665:9701  buyRequestants[Request.tokenAddress] */\n      0xffffffffffffffffffffffffffffffffffffffff\n      and\n      0xffffffffffffffffffffffffffffffffffffffff\n      and\n      dup2\n      mstore\n      0x20\n      add\n      swap1\n      dup2\n      mstore\n      0x20\n      add\n      0x00\n      keccak256\n        /* \"src/Exchange.sol\":9591:9701  Request.TYPE==RequestTypes.SELL ? sellRequestants[Request.tokenAddress] : buyRequestants[Request.tokenAddress] */\n      jump(tag_247)\n    tag_246:\n        /* \"src/Exchange.sol\":9625:9640  sellRequestants */\n      0x03\n        /* \"src/Exchange.sol\":9625:9662  sellRequestants[Request.tokenAddress] */\n      0x00\n        /* \"src/Exchange.sol\":9641:9648  Request */\n      dup4\n        /* \"src/Exchange.sol\":9641:9661  Request.tokenAddress */\n      0x00\n      add\n      mload\n        /* \"src/Exchange.sol\":9625:9662  sellRequestants[Request.tokenAddress] */\n      0xffffffffffffffffffffffffffffffffffffffff\n      and\n      0xffffffffffffffffffffffffffffffffffffffff\n      and\n      dup2\n      mstore\n      0x20\n      add\n      swap1\n      dup2\n      mstore\n      0x20\n      add\n      0x00\n      keccak256\n        /* \"src/Exchange.sol\":9591:9701  Request.TYPE==RequestTypes.SELL ? sellRequestants[Request.tokenAddress] : buyRequestants[Request.tokenAddress] */\n    tag_247:\n        /* \"src/Exchange.sol\":9558:9702  address[] storage requestants = (Request.TYPE==RequestTypes.SELL ? sellRequestants[Request.tokenAddress] : buyRequestants[Request.tokenAddress]) */\n      swap1\n      pop\n        /* \"src/Exchange.sol\":9767:9774  Request */\n      dup2\n        /* \"src/Exchange.sol\":9767:9780  Request.index */\n      0x20\n      add\n      mload\n        /* \"src/Exchange.sol\":9713:9721  Requests */\n      0x02\n        /* \"src/Exchange.sol\":9713:9758  Requests[requestants[requestants.length - 1]] */\n      0x00\n        /* \"src/Exchange.sol\":9722:9733  requestants */\n      dup4\n        /* \"src/Exchange.sol\":9755:9756  1 */\n      0x01\n        /* \"src/Exchange.sol\":9734:9745  requestants */\n      dup6\n        /* \"src/Exchange.sol\":9734:9752  requestants.length */\n      dup1\n      sload\n      swap1\n      pop\n        /* \"src/Exchange.sol\":9734:9756  requestants.length - 1 */\n      tag_248\n      swap2\n      swap1\n      tag_181\n      jump\t// in\n    tag_248:\n        /* \"src/Exchange.sol\":9722:9757  requestants[requestants.length - 1] */\n      dup2\n      sload\n      dup2\n      lt\n      tag_249\n      jumpi\n      tag_250\n      tag_206\n      jump\t// in\n    tag_250:\n    tag_249:\n      swap1\n      0x00\n      mstore\n      keccak256(0x00, 0x20)\n      add\n      0x00\n      swap1\n      sload\n      swap1\n      0x0100\n      exp\n      swap1\n      div\n      0xffffffffffffffffffffffffffffffffffffffff\n      and\n        /* \"src/Exchange.sol\":9713:9758  Requests[requestants[requestants.length - 1]] */\n      0xffffffffffffffffffffffffffffffffffffffff\n      and\n      0xffffffffffffffffffffffffffffffffffffffff\n      and\n      dup2\n      mstore\n      0x20\n      add\n      swap1\n      dup2\n      mstore\n      0x20\n      add\n      0x00\n      keccak256\n        /* \"src/Exchange.sol\":9713:9764  Requests[requestants[requestants.length - 1]].index */\n      0x01\n      add\n        /* \"src/Exchange.sol\":9713:9780  Requests[requestants[requestants.length - 1]].index = Request.index */\n      dup2\n      swap1\n      sstore\n      pop\n        /* \"src/Exchange.sol\":9820:9831  requestants */\n      dup1\n        /* \"src/Exchange.sol\":9853:9854  1 */\n      0x01\n        /* \"src/Exchange.sol\":9832:9843  requestants */\n      dup3\n        /* \"src/Exchange.sol\":9832:9850  requestants.length */\n      dup1\n      sload\n      swap1\n      pop\n        /* \"src/Exchange.sol\":9832:9854  requestants.length - 1 */\n      tag_252\n      swap2\n      swap1\n      tag_181\n      jump\t// in\n    tag_252:\n        /* \"src/Exchange.sol\":9820:9855  requestants[requestants.length - 1] */\n      dup2\n      sload\n      dup2\n      lt\n      tag_253\n      jumpi\n      tag_254\n      tag_206\n      jump\t// in\n    tag_254:\n    tag_253:\n      swap1\n      0x00\n      mstore\n      keccak256(0x00, 0x20)\n      add\n      0x00\n      swap1\n      sload\n      swap1\n      0x0100\n      exp\n      swap1\n      div\n      0xffffffffffffffffffffffffffffffffffffffff\n      and\n        /* \"src/Exchange.sol\":9791:9802  requestants */\n      dup2\n        /* \"src/Exchange.sol\":9803:9810  Request */\n      dup4\n        /* \"src/Exchange.sol\":9803:9816  Request.index */\n      0x20\n      add\n      mload\n        /* \"src/Exchange.sol\":9791:9817  requestants[Request.index] */\n      dup2\n      sload\n      dup2\n      lt\n      tag_256\n      jumpi\n      tag_257\n      tag_206\n      jump\t// in\n    tag_257:\n    tag_256:\n      swap1\n      0x00\n      mstore\n      keccak256(0x00, 0x20)\n      add\n      0x00\n        /* \"src/Exchange.sol\":9791:9855  requestants[Request.index] = requestants[requestants.length - 1] */\n      0x0100\n      exp\n      dup2\n      sload\n      dup2\n      0xffffffffffffffffffffffffffffffffffffffff\n      mul\n      not\n      and\n      swap1\n      dup4\n      0xffffffffffffffffffffffffffffffffffffffff\n      and\n      mul\n      or\n      swap1\n      sstore\n      pop\n        /* \"src/Exchange.sol\":9866:9877  requestants */\n      dup1\n        /* \"src/Exchange.sol\":9866:9883  requestants.pop() */\n      dup1\n      sload\n      dup1\n      tag_259\n      jumpi\n      tag_260\n      tag_261\n      jump\t// in\n    tag_260:\n    tag_259:\n      0x01\n      swap1\n      sub\n      dup2\n      dup2\n      swap1\n      0x00\n      mstore\n      keccak256(0x00, 0x20)\n      add\n      exp(0x0100, 0x00)\n      dup2\n      sload\n      swap1\n      0xffffffffffffffffffffffffffffffffffffffff\n      mul\n      not\n      and\n      swap1\n      sstore\n      swap1\n      sstore\n        /* \"src/Exchange.sol\":9921:9938  RequestTypes.NONE */\n      0x00\n        /* \"src/Exchange.sol\":9894:9902  Requests */\n      0x02\n        /* \"src/Exchange.sol\":9894:9913  Requests[requestor] */\n      0x00\n        /* \"src/Exchange.sol\":9903:9912  requestor */\n      dup6\n        /* \"src/Exchange.sol\":9894:9913  Requests[requestor] */\n      0xffffffffffffffffffffffffffffffffffffffff\n      and\n      0xffffffffffffffffffffffffffffffffffffffff\n      and\n      dup2\n      mstore\n      0x20\n      add\n      swap1\n      dup2\n      mstore\n      0x20\n      add\n      0x00\n      keccak256\n        /* \"src/Exchange.sol\":9894:9918  Requests[requestor].TYPE */\n      0x04\n      add\n      0x00\n        /* \"src/Exchange.sol\":9894:9938  Requests[requestor].TYPE = RequestTypes.NONE */\n      0x0100\n      exp\n      dup2\n      sload\n      dup2\n      0xff\n      mul\n      not\n      and\n      swap1\n      dup4\n      0x02\n      dup2\n      gt\n      iszero\n      tag_263\n      jumpi\n      tag_264\n      tag_75\n      jump\t// in\n    tag_264:\n    tag_263:\n      mul\n      or\n      swap1\n      sstore\n      pop\n        /* \"src/Exchange.sol\":9488:9946  {... */\n      pop\n      pop\n        /* \"src/Exchange.sol\":9438:9946  function removeRequest(address requestor) private {... */\n      pop\n      jump\t// out\n        /* \"src/Exchange.sol\":6933:7259  function priceCheck(UserRequest memory Request, uint256 tokenPrice) private pure returns(bool){... */\n    tag_212:\n        /* \"src/Exchange.sol\":7022:7026  bool */\n      0x00\n        /* \"src/Exchange.sol\":7057:7074  RequestTypes.SELL */\n      0x01\n        /* \"src/Exchange.sol\":7041:7074  Request.TYPE == RequestTypes.SELL */\n      0x02\n      dup2\n      gt\n      iszero\n      tag_266\n      jumpi\n      tag_267\n      tag_75\n      jump\t// in\n    tag_267:\n    tag_266:\n        /* \"src/Exchange.sol\":7041:7048  Request */\n      dup4\n        /* \"src/Exchange.sol\":7041:7053  Request.TYPE */\n      0x80\n      add\n      mload\n        /* \"src/Exchange.sol\":7041:7074  Request.TYPE == RequestTypes.SELL */\n      0x02\n      dup2\n      gt\n      iszero\n      tag_268\n      jumpi\n      tag_269\n      tag_75\n      jump\t// in\n    tag_269:\n    tag_268:\n      sub\n        /* \"src/Exchange.sol\":7038:7229  if(Request.TYPE == RequestTypes.SELL){... */\n      tag_270\n      jumpi\n        /* \"src/Exchange.sol\":7115:7125  tokenPrice */\n      dup2\n        /* \"src/Exchange.sol\":7093:7100  Request */\n      dup4\n        /* \"src/Exchange.sol\":7093:7111  Request.tokenPrice */\n      0x60\n      add\n      mload\n        /* \"src/Exchange.sol\":7093:7125  Request.tokenPrice <= tokenPrice */\n      gt\n        /* \"src/Exchange.sol\":7090:7138  if(Request.tokenPrice <= tokenPrice) return true */\n      tag_271\n      jumpi\n        /* \"src/Exchange.sol\":7134:7138  true */\n      0x01\n        /* \"src/Exchange.sol\":7127:7138  return true */\n      swap1\n      pop\n      jump(tag_265)\n        /* \"src/Exchange.sol\":7090:7138  if(Request.tokenPrice <= tokenPrice) return true */\n    tag_271:\n        /* \"src/Exchange.sol\":7038:7229  if(Request.TYPE == RequestTypes.SELL){... */\n      jump(tag_272)\n    tag_270:\n        /* \"src/Exchange.sol\":7194:7204  tokenPrice */\n      dup2\n        /* \"src/Exchange.sol\":7172:7179  Request */\n      dup4\n        /* \"src/Exchange.sol\":7172:7190  Request.tokenPrice */\n      0x60\n      add\n      mload\n        /* \"src/Exchange.sol\":7172:7204  Request.tokenPrice >= tokenPrice */\n      lt\n        /* \"src/Exchange.sol\":7169:7217  if(Request.tokenPrice >= tokenPrice) return true */\n      tag_273\n      jumpi\n        /* \"src/Exchange.sol\":7213:7217  true */\n      0x01\n        /* \"src/Exchange.sol\":7206:7217  return true */\n      swap1\n      pop\n      jump(tag_265)\n        /* \"src/Exchange.sol\":7169:7217  if(Request.tokenPrice >= tokenPrice) return true */\n    tag_273:\n        /* \"src/Exchange.sol\":7038:7229  if(Request.TYPE == RequestTypes.SELL){... */\n    tag_272:\n        /* \"src/Exchange.sol\":7246:7251  false */\n      0x00\n        /* \"src/Exchange.sol\":7239:7251  return false */\n      swap1\n      pop\n        /* \"src/Exchange.sol\":6933:7259  function priceCheck(UserRequest memory Request, uint256 tokenPrice) private pure returns(bool){... */\n    tag_265:\n      swap3\n      swap2\n      pop\n      pop\n      jump\t// out\n        /* \"src/Exchange.sol\":7315:8672  function executeRequests(address tokenAddress, address counterparty, uint256 amount, uint256 tokenPrice) private returns(uint256){... */\n    tag_218:\n        /* \"src/Exchange.sol\":7436:7443  uint256 */\n      0x00\n        /* \"src/Exchange.sol\":7455:7481  UserRequest memory Request */\n      dup1\n        /* \"src/Exchange.sol\":7484:7492  Requests */\n      0x02\n        /* \"src/Exchange.sol\":7484:7506  Requests[counterparty] */\n      0x00\n        /* \"src/Exchange.sol\":7493:7505  counterparty */\n      dup7\n        /* \"src/Exchange.sol\":7484:7506  Requests[counterparty] */\n      0xffffffffffffffffffffffffffffffffffffffff\n      and\n      0xffffffffffffffffffffffffffffffffffffffff\n      and\n      dup2\n      mstore\n      0x20\n      add\n      swap1\n      dup2\n      mstore\n      0x20\n      add\n      0x00\n      keccak256\n        /* \"src/Exchange.sol\":7455:7506  UserRequest memory Request = Requests[counterparty] */\n      mload(0x40)\n      dup1\n      0xa0\n      add\n      0x40\n      mstore\n      swap1\n      dup2\n      0x00\n      dup3\n      add\n      0x00\n      swap1\n      sload\n      swap1\n      0x0100\n      exp\n      swap1\n      div\n      0xffffffffffffffffffffffffffffffffffffffff\n      and\n      0xffffffffffffffffffffffffffffffffffffffff\n      and\n      0xffffffffffffffffffffffffffffffffffffffff\n      and\n      dup2\n      mstore\n      0x20\n      add\n      0x01\n      dup3\n      add\n      sload\n      dup2\n      mstore\n      0x20\n      add\n      0x02\n      dup3\n      add\n      sload\n      dup2\n      mstore\n      0x20\n      add\n      0x03\n      dup3\n      add\n      sload\n      dup2\n      mstore\n      0x20\n      add\n      0x04\n      dup3\n      add\n      0x00\n      swap1\n      sload\n      swap1\n      0x0100\n      exp\n      swap1\n      div\n      0xff\n      and\n      0x02\n      dup2\n      gt\n      iszero\n      tag_275\n      jumpi\n      tag_276\n      tag_75\n      jump\t// in\n    tag_276:\n    tag_275:\n      0x02\n      dup2\n      gt\n      iszero\n      tag_277\n      jumpi\n      tag_278\n      tag_75\n      jump\t// in\n    tag_278:\n    tag_277:\n      dup2\n      mstore\n      pop\n      pop\n      swap1\n      pop\n        /* \"src/Exchange.sol\":7517:7536  uint256 tradeAmount */\n      0x00\n        /* \"src/Exchange.sol\":7548:7555  Request */\n      dup2\n        /* \"src/Exchange.sol\":7548:7562  Request.amount */\n      0x40\n      add\n      mload\n        /* \"src/Exchange.sol\":7539:7545  amount */\n      dup6\n        /* \"src/Exchange.sol\":7539:7562  amount < Request.amount */\n      lt\n        /* \"src/Exchange.sol\":7539:7588  amount < Request.amount ? amount : Request.amount */\n      tag_279\n      jumpi\n        /* \"src/Exchange.sol\":7574:7581  Request */\n      dup2\n        /* \"src/Exchange.sol\":7574:7588  Request.amount */\n      0x40\n      add\n      mload\n        /* \"src/Exchange.sol\":7539:7588  amount < Request.amount ? amount : Request.amount */\n      jump(tag_280)\n    tag_279:\n        /* \"src/Exchange.sol\":7565:7571  amount */\n      dup5\n        /* \"src/Exchange.sol\":7539:7588  amount < Request.amount ? amount : Request.amount */\n    tag_280:\n        /* \"src/Exchange.sol\":7517:7588  uint256 tradeAmount = amount < Request.amount ? amount : Request.amount */\n      swap1\n      pop\n        /* \"src/Exchange.sol\":7619:7635  RequestTypes.BUY */\n      0x02\n        /* \"src/Exchange.sol\":7603:7635  Request.TYPE == RequestTypes.BUY */\n      dup1\n      dup2\n      gt\n      iszero\n      tag_281\n      jumpi\n      tag_282\n      tag_75\n      jump\t// in\n    tag_282:\n    tag_281:\n        /* \"src/Exchange.sol\":7603:7610  Request */\n      dup3\n        /* \"src/Exchange.sol\":7603:7615  Request.TYPE */\n      0x80\n      add\n      mload\n        /* \"src/Exchange.sol\":7603:7635  Request.TYPE == RequestTypes.BUY */\n      0x02\n      dup2\n      gt\n      iszero\n      tag_283\n      jumpi\n      tag_284\n      tag_75\n      jump\t// in\n    tag_284:\n    tag_283:\n      sub\n        /* \"src/Exchange.sol\":7599:8305  if (Request.TYPE == RequestTypes.BUY) {... */\n      tag_285\n      jumpi\n        /* \"src/Exchange.sol\":7663:7675  tokenAddress */\n      dup7\n        /* \"src/Exchange.sol\":7656:7685  IERC20(tokenAddress).transfer */\n      0xffffffffffffffffffffffffffffffffffffffff\n      and\n      0xa9059cbb\n        /* \"src/Exchange.sol\":7686:7698  counterparty */\n      dup8\n        /* \"src/Exchange.sol\":7700:7711  tradeAmount */\n      dup4\n        /* \"src/Exchange.sol\":7656:7712  IERC20(tokenAddress).transfer(counterparty, tradeAmount) */\n      mload(0x40)\n      dup4\n      0xffffffff\n      and\n      0xe0\n      shl\n      dup2\n      mstore\n      0x04\n      add\n      tag_286\n      swap3\n      swap2\n      swap1\n      tag_141\n      jump\t// in\n    tag_286:\n      0x20\n      mload(0x40)\n      dup1\n      dup4\n      sub\n      dup2\n      0x00\n      dup8\n      gas\n      call\n      iszero\n      dup1\n      iszero\n      tag_288\n      jumpi\n      returndatasize\n      0x00\n      dup1\n      returndatacopy\n      revert(0x00, returndatasize)\n    tag_288:\n      pop\n      pop\n      pop\n      pop\n      mload(0x40)\n      returndatasize\n      not(0x1f)\n      0x1f\n      dup3\n      add\n      and\n      dup3\n      add\n      dup1\n      0x40\n      mstore\n      pop\n      dup2\n      add\n      swap1\n      tag_289\n      swap2\n      swap1\n      tag_109\n      jump\t// in\n    tag_289:\n        /* \"src/Exchange.sol\":7652:7754  if(!IERC20(tokenAddress).transfer(counterparty, tradeAmount)) revert(\"Token transfer to buyer failed\") */\n      tag_290\n      jumpi\n        /* \"src/Exchange.sol\":7714:7754  revert(\"Token transfer to buyer failed\") */\n      mload(0x40)\n      0x08c379a000000000000000000000000000000000000000000000000000000000\n      dup2\n      mstore\n      0x04\n      add\n      tag_291\n      swap1\n      tag_292\n      jump\t// in\n    tag_291:\n      mload(0x40)\n      dup1\n      swap2\n      sub\n      swap1\n      revert\n        /* \"src/Exchange.sol\":7652:7754  if(!IERC20(tokenAddress).transfer(counterparty, tradeAmount)) revert(\"Token transfer to buyer failed\") */\n    tag_290:\n        /* \"src/Exchange.sol\":7769:7830  sendEther(payable(msg.sender),tradeAmount*Request.tokenPrice) */\n      tag_293\n        /* \"src/Exchange.sol\":7787:7797  msg.sender */\n      caller\n        /* \"src/Exchange.sol\":7811:7818  Request */\n      dup4\n        /* \"src/Exchange.sol\":7811:7829  Request.tokenPrice */\n      0x60\n      add\n      mload\n        /* \"src/Exchange.sol\":7799:7810  tradeAmount */\n      dup4\n        /* \"src/Exchange.sol\":7799:7829  tradeAmount*Request.tokenPrice */\n      tag_294\n      swap2\n      swap1\n      tag_151\n      jump\t// in\n    tag_294:\n        /* \"src/Exchange.sol\":7769:7778  sendEther */\n      tag_152\n        /* \"src/Exchange.sol\":7769:7830  sendEther(payable(msg.sender),tradeAmount*Request.tokenPrice) */\n      jump\t// in\n    tag_293:\n        /* \"src/Exchange.sol\":7869:7879  tokenPrice */\n      dup4\n        /* \"src/Exchange.sol\":7848:7855  Request */\n      dup3\n        /* \"src/Exchange.sol\":7848:7866  Request.tokenPrice */\n      0x60\n      add\n      mload\n        /* \"src/Exchange.sol\":7848:7879  Request.tokenPrice > tokenPrice */\n      gt\n        /* \"src/Exchange.sol\":7845:7958  if(Request.tokenPrice > tokenPrice) sendEther(payable(counterparty), (Request.tokenPrice-tokenPrice)*tradeAmount) */\n      iszero\n      tag_295\n      jumpi\n        /* \"src/Exchange.sol\":7881:7958  sendEther(payable(counterparty), (Request.tokenPrice-tokenPrice)*tradeAmount) */\n      tag_296\n        /* \"src/Exchange.sol\":7899:7911  counterparty */\n      dup7\n        /* \"src/Exchange.sol\":7946:7957  tradeAmount */\n      dup3\n        /* \"src/Exchange.sol\":7934:7944  tokenPrice */\n      dup7\n        /* \"src/Exchange.sol\":7915:7922  Request */\n      dup6\n        /* \"src/Exchange.sol\":7915:7933  Request.tokenPrice */\n      0x60\n      add\n      mload\n        /* \"src/Exchange.sol\":7915:7944  Request.tokenPrice-tokenPrice */\n      tag_297\n      swap2\n      swap1\n      tag_181\n      jump\t// in\n    tag_297:\n        /* \"src/Exchange.sol\":7914:7957  (Request.tokenPrice-tokenPrice)*tradeAmount */\n      tag_298\n      swap2\n      swap1\n      tag_151\n      jump\t// in\n    tag_298:\n        /* \"src/Exchange.sol\":7881:7890  sendEther */\n      tag_152\n        /* \"src/Exchange.sol\":7881:7958  sendEther(payable(counterparty), (Request.tokenPrice-tokenPrice)*tradeAmount) */\n      jump\t// in\n    tag_296:\n        /* \"src/Exchange.sol\":7845:7958  if(Request.tokenPrice > tokenPrice) sendEther(payable(counterparty), (Request.tokenPrice-tokenPrice)*tradeAmount) */\n    tag_295:\n        /* \"src/Exchange.sol\":7599:8305  if (Request.TYPE == RequestTypes.BUY) {... */\n      jump(tag_299)\n    tag_285:\n        /* \"src/Exchange.sol\":8000:8012  tokenAddress */\n      dup7\n        /* \"src/Exchange.sol\":7993:8022  IERC20(tokenAddress).transfer */\n      0xffffffffffffffffffffffffffffffffffffffff\n      and\n      0xa9059cbb\n        /* \"src/Exchange.sol\":8023:8033  msg.sender */\n      caller\n        /* \"src/Exchange.sol\":8035:8046  tradeAmount */\n      dup4\n        /* \"src/Exchange.sol\":7993:8047  IERC20(tokenAddress).transfer(msg.sender, tradeAmount) */\n      mload(0x40)\n      dup4\n      0xffffffff\n      and\n      0xe0\n      shl\n      dup2\n      mstore\n      0x04\n      add\n      tag_300\n      swap3\n      swap2\n      swap1\n      tag_141\n      jump\t// in\n    tag_300:\n      0x20\n      mload(0x40)\n      dup1\n      dup4\n      sub\n      dup2\n      0x00\n      dup8\n      gas\n      call\n      iszero\n      dup1\n      iszero\n      tag_302\n      jumpi\n      returndatasize\n      0x00\n      dup1\n      returndatacopy\n      revert(0x00, returndatasize)\n    tag_302:\n      pop\n      pop\n      pop\n      pop\n      mload(0x40)\n      returndatasize\n      not(0x1f)\n      0x1f\n      dup3\n      add\n      and\n      dup3\n      add\n      dup1\n      0x40\n      mstore\n      pop\n      dup2\n      add\n      swap1\n      tag_303\n      swap2\n      swap1\n      tag_109\n      jump\t// in\n    tag_303:\n        /* \"src/Exchange.sol\":7989:8089  if(!IERC20(tokenAddress).transfer(msg.sender, tradeAmount)) revert(\"Token transfer to buyer failed\") */\n      tag_304\n      jumpi\n        /* \"src/Exchange.sol\":8049:8089  revert(\"Token transfer to buyer failed\") */\n      mload(0x40)\n      0x08c379a000000000000000000000000000000000000000000000000000000000\n      dup2\n      mstore\n      0x04\n      add\n      tag_305\n      swap1\n      tag_292\n      jump\t// in\n    tag_305:\n      mload(0x40)\n      dup1\n      swap2\n      sub\n      swap1\n      revert\n        /* \"src/Exchange.sol\":7989:8089  if(!IERC20(tokenAddress).transfer(msg.sender, tradeAmount)) revert(\"Token transfer to buyer failed\") */\n    tag_304:\n        /* \"src/Exchange.sol\":8104:8167  sendEther(payable(counterparty),tradeAmount*Request.tokenPrice) */\n      tag_306\n        /* \"src/Exchange.sol\":8122:8134  counterparty */\n      dup7\n        /* \"src/Exchange.sol\":8148:8155  Request */\n      dup4\n        /* \"src/Exchange.sol\":8148:8166  Request.tokenPrice */\n      0x60\n      add\n      mload\n        /* \"src/Exchange.sol\":8136:8147  tradeAmount */\n      dup4\n        /* \"src/Exchange.sol\":8136:8166  tradeAmount*Request.tokenPrice */\n      tag_307\n      swap2\n      swap1\n      tag_151\n      jump\t// in\n    tag_307:\n        /* \"src/Exchange.sol\":8104:8113  sendEther */\n      tag_152\n        /* \"src/Exchange.sol\":8104:8167  sendEther(payable(counterparty),tradeAmount*Request.tokenPrice) */\n      jump\t// in\n    tag_306:\n        /* \"src/Exchange.sol\":8206:8216  tokenPrice */\n      dup4\n        /* \"src/Exchange.sol\":8185:8192  Request */\n      dup3\n        /* \"src/Exchange.sol\":8185:8203  Request.tokenPrice */\n      0x60\n      add\n      mload\n        /* \"src/Exchange.sol\":8185:8216  Request.tokenPrice < tokenPrice */\n      lt\n        /* \"src/Exchange.sol\":8182:8293  if(Request.tokenPrice < tokenPrice) sendEther(payable(msg.sender), (tokenPrice-Request.tokenPrice)*tradeAmount) */\n      iszero\n      tag_308\n      jumpi\n        /* \"src/Exchange.sol\":8218:8293  sendEther(payable(msg.sender), (tokenPrice-Request.tokenPrice)*tradeAmount) */\n      tag_309\n        /* \"src/Exchange.sol\":8236:8246  msg.sender */\n      caller\n        /* \"src/Exchange.sol\":8281:8292  tradeAmount */\n      dup3\n        /* \"src/Exchange.sol\":8261:8268  Request */\n      dup5\n        /* \"src/Exchange.sol\":8261:8279  Request.tokenPrice */\n      0x60\n      add\n      mload\n        /* \"src/Exchange.sol\":8250:8260  tokenPrice */\n      dup8\n        /* \"src/Exchange.sol\":8250:8279  tokenPrice-Request.tokenPrice */\n      tag_310\n      swap2\n      swap1\n      tag_181\n      jump\t// in\n    tag_310:\n        /* \"src/Exchange.sol\":8249:8292  (tokenPrice-Request.tokenPrice)*tradeAmount */\n      tag_311\n      swap2\n      swap1\n      tag_151\n      jump\t// in\n    tag_311:\n        /* \"src/Exchange.sol\":8218:8227  sendEther */\n      tag_152\n        /* \"src/Exchange.sol\":8218:8293  sendEther(payable(msg.sender), (tokenPrice-Request.tokenPrice)*tradeAmount) */\n      jump\t// in\n    tag_309:\n        /* \"src/Exchange.sol\":8182:8293  if(Request.tokenPrice < tokenPrice) sendEther(payable(msg.sender), (tokenPrice-Request.tokenPrice)*tradeAmount) */\n    tag_308:\n        /* \"src/Exchange.sol\":7599:8305  if (Request.TYPE == RequestTypes.BUY) {... */\n    tag_299:\n        /* \"src/Exchange.sol\":8333:8344  tradeAmount */\n      dup1\n        /* \"src/Exchange.sol\":8315:8322  Request */\n      dup3\n        /* \"src/Exchange.sol\":8315:8329  Request.amount */\n      0x40\n      add\n        /* \"src/Exchange.sol\":8315:8344  Request.amount -= tradeAmount */\n      dup2\n      dup2\n      mload\n      tag_312\n      swap2\n      swap1\n      tag_181\n      jump\t// in\n    tag_312:\n      swap2\n      pop\n      dup2\n      dup2\n      mstore\n      pop\n      pop\n        /* \"src/Exchange.sol\":8377:8378  0 */\n      0x00\n        /* \"src/Exchange.sol\":8359:8366  Request */\n      dup3\n        /* \"src/Exchange.sol\":8359:8373  Request.amount */\n      0x40\n      add\n      mload\n        /* \"src/Exchange.sol\":8359:8378  Request.amount == 0 */\n      sub\n        /* \"src/Exchange.sol\":8355:8510  if (Request.amount == 0){... */\n      tag_313\n      jumpi\n        /* \"src/Exchange.sol\":8394:8421  removeRequest(counterparty) */\n      tag_314\n        /* \"src/Exchange.sol\":8408:8420  counterparty */\n      dup7\n        /* \"src/Exchange.sol\":8394:8407  removeRequest */\n      tag_154\n        /* \"src/Exchange.sol\":8394:8421  removeRequest(counterparty) */\n      jump\t// in\n    tag_314:\n        /* \"src/Exchange.sol\":8355:8510  if (Request.amount == 0){... */\n      jump(tag_315)\n    tag_313:\n        /* \"src/Exchange.sol\":8484:8491  Request */\n      dup2\n        /* \"src/Exchange.sol\":8484:8498  Request.amount */\n      0x40\n      add\n      mload\n        /* \"src/Exchange.sol\":8452:8460  Requests */\n      0x02\n        /* \"src/Exchange.sol\":8452:8474  Requests[counterparty] */\n      0x00\n        /* \"src/Exchange.sol\":8461:8473  counterparty */\n      dup9\n        /* \"src/Exchange.sol\":8452:8474  Requests[counterparty] */\n      0xffffffffffffffffffffffffffffffffffffffff\n      and\n      0xffffffffffffffffffffffffffffffffffffffff\n      and\n      dup2\n      mstore\n      0x20\n      add\n      swap1\n      dup2\n      mstore\n      0x20\n      add\n      0x00\n      keccak256\n        /* \"src/Exchange.sol\":8452:8481  Requests[counterparty].amount */\n      0x02\n      add\n        /* \"src/Exchange.sol\":8452:8498  Requests[counterparty].amount = Request.amount */\n      dup2\n      swap1\n      sstore\n      pop\n        /* \"src/Exchange.sol\":8355:8510  if (Request.amount == 0){... */\n    tag_315:\n        /* \"src/Exchange.sol\":8567:8579  counterparty */\n      dup6\n        /* \"src/Exchange.sol\":8525:8627  RequestExecuted(tokenAddress, msg.sender, counterparty, Request.TYPE, tradeAmount, Request.tokenPrice) */\n      0xffffffffffffffffffffffffffffffffffffffff\n      and\n        /* \"src/Exchange.sol\":8555:8565  msg.sender */\n      caller\n        /* \"src/Exchange.sol\":8525:8627  RequestExecuted(tokenAddress, msg.sender, counterparty, Request.TYPE, tradeAmount, Request.tokenPrice) */\n      0xffffffffffffffffffffffffffffffffffffffff\n      and\n        /* \"src/Exchange.sol\":8541:8553  tokenAddress */\n      dup9\n        /* \"src/Exchange.sol\":8525:8627  RequestExecuted(tokenAddress, msg.sender, counterparty, Request.TYPE, tradeAmount, Request.tokenPrice) */\n      0xffffffffffffffffffffffffffffffffffffffff\n      and\n      0x1ce728f6a2703272ee2e07cf07fd21ddc592575a5b6774a529b595fdf56dd1a6\n        /* \"src/Exchange.sol\":8581:8588  Request */\n      dup6\n        /* \"src/Exchange.sol\":8581:8593  Request.TYPE */\n      0x80\n      add\n      mload\n        /* \"src/Exchange.sol\":8595:8606  tradeAmount */\n      dup6\n        /* \"src/Exchange.sol\":8608:8615  Request */\n      dup8\n        /* \"src/Exchange.sol\":8608:8626  Request.tokenPrice */\n      0x60\n      add\n      mload\n        /* \"src/Exchange.sol\":8525:8627  RequestExecuted(tokenAddress, msg.sender, counterparty, Request.TYPE, tradeAmount, Request.tokenPrice) */\n      mload(0x40)\n      tag_316\n      swap4\n      swap3\n      swap2\n      swap1\n      tag_317\n      jump\t// in\n    tag_316:\n      mload(0x40)\n      dup1\n      swap2\n      sub\n      swap1\n      log4\n        /* \"src/Exchange.sol\":8653:8664  tradeAmount */\n      dup1\n        /* \"src/Exchange.sol\":8645:8664  amount-=tradeAmount */\n      dup6\n      tag_318\n      swap2\n      swap1\n      tag_181\n      jump\t// in\n    tag_318:\n      swap5\n      pop\n      dup5\n        /* \"src/Exchange.sol\":8638:8664  return amount-=tradeAmount */\n      swap3\n      pop\n      pop\n      pop\n        /* \"src/Exchange.sol\":7315:8672  function executeRequests(address tokenAddress, address counterparty, uint256 amount, uint256 tokenPrice) private returns(uint256){... */\n      swap5\n      swap4\n      pop\n      pop\n      pop\n      pop\n      jump\t// out\n        /* \"src/Exchange.sol\":8742:9359  function addRequest(address _tokenAddress, uint256 _amount, uint256 _tokenPrice, RequestTypes _TYPE) private {... */\n    tag_224:\n        /* \"src/Exchange.sol\":8862:8891  address[] storage requestants */\n      0x00\n        /* \"src/Exchange.sol\":8902:8919  RequestTypes.SELL */\n      0x01\n        /* \"src/Exchange.sol\":8895:8919  _TYPE!=RequestTypes.SELL */\n      0x02\n      dup2\n      gt\n      iszero\n      tag_320\n      jumpi\n      tag_321\n      tag_75\n      jump\t// in\n    tag_321:\n    tag_320:\n        /* \"src/Exchange.sol\":8895:8900  _TYPE */\n      dup3\n        /* \"src/Exchange.sol\":8895:8919  _TYPE!=RequestTypes.SELL */\n      0x02\n      dup2\n      gt\n      iszero\n      tag_322\n      jumpi\n      tag_323\n      tag_75\n      jump\t// in\n    tag_323:\n    tag_322:\n      sub\n        /* \"src/Exchange.sol\":8895:8984  _TYPE!=RequestTypes.SELL ? buyRequestants[_tokenAddress] : sellRequestants[_tokenAddress] */\n      tag_324\n      jumpi\n        /* \"src/Exchange.sol\":8954:8969  sellRequestants */\n      0x03\n        /* \"src/Exchange.sol\":8954:8984  sellRequestants[_tokenAddress] */\n      0x00\n        /* \"src/Exchange.sol\":8970:8983  _tokenAddress */\n      dup7\n        /* \"src/Exchange.sol\":8954:8984  sellRequestants[_tokenAddress] */\n      0xffffffffffffffffffffffffffffffffffffffff\n      and\n      0xffffffffffffffffffffffffffffffffffffffff\n      and\n      dup2\n      mstore\n      0x20\n      add\n      swap1\n      dup2\n      mstore\n      0x20\n      add\n      0x00\n      keccak256\n        /* \"src/Exchange.sol\":8895:8984  _TYPE!=RequestTypes.SELL ? buyRequestants[_tokenAddress] : sellRequestants[_tokenAddress] */\n      jump(tag_325)\n    tag_324:\n        /* \"src/Exchange.sol\":8922:8936  buyRequestants */\n      0x04\n        /* \"src/Exchange.sol\":8922:8951  buyRequestants[_tokenAddress] */\n      0x00\n        /* \"src/Exchange.sol\":8937:8950  _tokenAddress */\n      dup7\n        /* \"src/Exchange.sol\":8922:8951  buyRequestants[_tokenAddress] */\n      0xffffffffffffffffffffffffffffffffffffffff\n      and\n      0xffffffffffffffffffffffffffffffffffffffff\n      and\n      dup2\n      mstore\n      0x20\n      add\n      swap1\n      dup2\n      mstore\n      0x20\n      add\n      0x00\n      keccak256\n        /* \"src/Exchange.sol\":8895:8984  _TYPE!=RequestTypes.SELL ? buyRequestants[_tokenAddress] : sellRequestants[_tokenAddress] */\n    tag_325:\n        /* \"src/Exchange.sol\":8862:8985  address[] storage requestants = (_TYPE!=RequestTypes.SELL ? buyRequestants[_tokenAddress] : sellRequestants[_tokenAddress]) */\n      swap1\n      pop\n        /* \"src/Exchange.sol\":8996:9007  requestants */\n      dup1\n        /* \"src/Exchange.sol\":9013:9023  msg.sender */\n      caller\n        /* \"src/Exchange.sol\":8996:9024  requestants.push(msg.sender) */\n      swap1\n      dup1\n      0x01\n      dup2\n      sload\n      add\n      dup1\n      dup3\n      sstore\n      dup1\n      swap2\n      pop\n      pop\n      0x01\n      swap1\n      sub\n      swap1\n      0x00\n      mstore\n      keccak256(0x00, 0x20)\n      add\n      0x00\n      swap1\n      swap2\n      swap1\n      swap2\n      swap1\n      swap2\n      0x0100\n      exp\n      dup2\n      sload\n      dup2\n      0xffffffffffffffffffffffffffffffffffffffff\n      mul\n      not\n      and\n      swap1\n      dup4\n      0xffffffffffffffffffffffffffffffffffffffff\n      and\n      mul\n      or\n      swap1\n      sstore\n      pop\n        /* \"src/Exchange.sol\":9058:9265  UserRequest({... */\n      mload(0x40)\n      dup1\n      0xa0\n      add\n      0x40\n      mstore\n      dup1\n        /* \"src/Exchange.sol\":9100:9113  _tokenAddress */\n      dup7\n        /* \"src/Exchange.sol\":9058:9265  UserRequest({... */\n      0xffffffffffffffffffffffffffffffffffffffff\n      and\n      dup2\n      mstore\n      0x20\n      add\n        /* \"src/Exchange.sol\":9155:9156  1 */\n      0x01\n        /* \"src/Exchange.sol\":9136:9147  requestants */\n      dup4\n        /* \"src/Exchange.sol\":9136:9154  requestants.length */\n      dup1\n      sload\n      swap1\n      pop\n        /* \"src/Exchange.sol\":9136:9156  requestants.length-1 */\n      tag_327\n      swap2\n      swap1\n      tag_181\n      jump\t// in\n    tag_327:\n        /* \"src/Exchange.sol\":9058:9265  UserRequest({... */\n      dup2\n      mstore\n      0x20\n      add\n        /* \"src/Exchange.sol\":9180:9187  _amount */\n      dup6\n        /* \"src/Exchange.sol\":9058:9265  UserRequest({... */\n      dup2\n      mstore\n      0x20\n      add\n        /* \"src/Exchange.sol\":9215:9226  _tokenPrice */\n      dup5\n        /* \"src/Exchange.sol\":9058:9265  UserRequest({... */\n      dup2\n      mstore\n      0x20\n      add\n        /* \"src/Exchange.sol\":9248:9253  _TYPE */\n      dup4\n        /* \"src/Exchange.sol\":9058:9265  UserRequest({... */\n      0x02\n      dup2\n      gt\n      iszero\n      tag_328\n      jumpi\n      tag_329\n      tag_75\n      jump\t// in\n    tag_329:\n    tag_328:\n      dup2\n      mstore\n      pop\n        /* \"src/Exchange.sol\":9035:9043  Requests */\n      0x02\n        /* \"src/Exchange.sol\":9035:9055  Requests[msg.sender] */\n      0x00\n        /* \"src/Exchange.sol\":9044:9054  msg.sender */\n      caller\n        /* \"src/Exchange.sol\":9035:9055  Requests[msg.sender] */\n      0xffffffffffffffffffffffffffffffffffffffff\n      and\n      0xffffffffffffffffffffffffffffffffffffffff\n      and\n      dup2\n      mstore\n      0x20\n      add\n      swap1\n      dup2\n      mstore\n      0x20\n      add\n      0x00\n      keccak256\n        /* \"src/Exchange.sol\":9035:9265  Requests[msg.sender] = UserRequest({... */\n      0x00\n      dup3\n      add\n      mload\n      dup2\n      0x00\n      add\n      exp(0x0100, 0x00)\n      dup2\n      sload\n      dup2\n      0xffffffffffffffffffffffffffffffffffffffff\n      mul\n      not\n      and\n      swap1\n      dup4\n      0xffffffffffffffffffffffffffffffffffffffff\n      and\n      mul\n      or\n      swap1\n      sstore\n      pop\n      0x20\n      dup3\n      add\n      mload\n      dup2\n      0x01\n      add\n      sstore\n      0x40\n      dup3\n      add\n      mload\n      dup2\n      0x02\n      add\n      sstore\n      0x60\n      dup3\n      add\n      mload\n      dup2\n      0x03\n      add\n      sstore\n      0x80\n      dup3\n      add\n      mload\n      dup2\n      0x04\n      add\n      exp(0x0100, 0x00)\n      dup2\n      sload\n      dup2\n      0xff\n      mul\n      not\n      and\n      swap1\n      dup4\n      0x02\n      dup2\n      gt\n      iszero\n      tag_330\n      jumpi\n      tag_331\n      tag_75\n      jump\t// in\n    tag_331:\n    tag_330:\n      mul\n      or\n      swap1\n      sstore\n      pop\n      swap1\n      pop\n      pop\n        /* \"src/Exchange.sol\":9311:9321  msg.sender */\n      caller\n        /* \"src/Exchange.sol\":9281:9351  RequestCreated(_tokenAddress, msg.sender, _TYPE, _amount, _tokenPrice) */\n      0xffffffffffffffffffffffffffffffffffffffff\n      and\n        /* \"src/Exchange.sol\":9296:9309  _tokenAddress */\n      dup6\n        /* \"src/Exchange.sol\":9281:9351  RequestCreated(_tokenAddress, msg.sender, _TYPE, _amount, _tokenPrice) */\n      0xffffffffffffffffffffffffffffffffffffffff\n      and\n      0xba9e7b0a1a964fea173e3888ffbcbe410fca9a481f92cf8fc8b76a1b70f31d68\n        /* \"src/Exchange.sol\":9323:9328  _TYPE */\n      dup5\n        /* \"src/Exchange.sol\":9330:9337  _amount */\n      dup8\n        /* \"src/Exchange.sol\":9339:9350  _tokenPrice */\n      dup8\n        /* \"src/Exchange.sol\":9281:9351  RequestCreated(_tokenAddress, msg.sender, _TYPE, _amount, _tokenPrice) */\n      mload(0x40)\n      tag_332\n      swap4\n      swap3\n      swap2\n      swap1\n      tag_317\n      jump\t// in\n    tag_332:\n      mload(0x40)\n      dup1\n      swap2\n      sub\n      swap1\n      log3\n        /* \"src/Exchange.sol\":8851:9359  {... */\n      pop\n        /* \"src/Exchange.sol\":8742:9359  function addRequest(address _tokenAddress, uint256 _amount, uint256 _tokenPrice, RequestTypes _TYPE) private {... */\n      pop\n      pop\n      pop\n      pop\n      jump\t// out\n        /* \"#utility.yul\":7:97   */\n    tag_333:\n        /* \"#utility.yul\":41:48   */\n      0x00\n        /* \"#utility.yul\":84:89   */\n      dup2\n        /* \"#utility.yul\":77:90   */\n      iszero\n        /* \"#utility.yul\":70:91   */\n      iszero\n        /* \"#utility.yul\":59:91   */\n      swap1\n      pop\n        /* \"#utility.yul\":7:97   */\n      swap2\n      swap1\n      pop\n      jump\t// out\n        /* \"#utility.yul\":103:212   */\n    tag_334:\n        /* \"#utility.yul\":184:205   */\n      tag_384\n        /* \"#utility.yul\":199:204   */\n      dup2\n        /* \"#utility.yul\":184:205   */\n      tag_333\n      jump\t// in\n    tag_384:\n        /* \"#utility.yul\":179:182   */\n      dup3\n        /* \"#utility.yul\":172:206   */\n      mstore\n        /* \"#utility.yul\":103:212   */\n      pop\n      pop\n      jump\t// out\n        /* \"#utility.yul\":218:428   */\n    tag_17:\n        /* \"#utility.yul\":305:309   */\n      0x00\n        /* \"#utility.yul\":343:345   */\n      0x20\n        /* \"#utility.yul\":332:341   */\n      dup3\n        /* \"#utility.yul\":328:346   */\n      add\n        /* \"#utility.yul\":320:346   */\n      swap1\n      pop\n        /* \"#utility.yul\":356:421   */\n      tag_386\n        /* \"#utility.yul\":418:419   */\n      0x00\n        /* \"#utility.yul\":407:416   */\n      dup4\n        /* \"#utility.yul\":403:420   */\n      add\n        /* \"#utility.yul\":394:400   */\n      dup5\n        /* \"#utility.yul\":356:421   */\n      tag_334\n      jump\t// in\n    tag_386:\n        /* \"#utility.yul\":218:428   */\n      swap3\n      swap2\n      pop\n      pop\n      jump\t// out\n        /* \"#utility.yul\":515:632   */\n    tag_336:\n        /* \"#utility.yul\":624:625   */\n      0x00\n        /* \"#utility.yul\":621:622   */\n      dup1\n        /* \"#utility.yul\":614:626   */\n      revert\n        /* \"#utility.yul\":761:887   */\n    tag_338:\n        /* \"#utility.yul\":798:805   */\n      0x00\n        /* \"#utility.yul\":838:880   */\n      0xffffffffffffffffffffffffffffffffffffffff\n        /* \"#utility.yul\":831:836   */\n      dup3\n        /* \"#utility.yul\":827:881   */\n      and\n        /* \"#utility.yul\":816:881   */\n      swap1\n      pop\n        /* \"#utility.yul\":761:887   */\n      swap2\n      swap1\n      pop\n      jump\t// out\n        /* \"#utility.yul\":893:989   */\n    tag_339:\n        /* \"#utility.yul\":930:937   */\n      0x00\n        /* \"#utility.yul\":959:983   */\n      tag_392\n        /* \"#utility.yul\":977:982   */\n      dup3\n        /* \"#utility.yul\":959:983   */\n      tag_338\n      jump\t// in\n    tag_392:\n        /* \"#utility.yul\":948:983   */\n      swap1\n      pop\n        /* \"#utility.yul\":893:989   */\n      swap2\n      swap1\n      pop\n      jump\t// out\n        /* \"#utility.yul\":995:1117   */\n    tag_340:\n        /* \"#utility.yul\":1068:1092   */\n      tag_394\n        /* \"#utility.yul\":1086:1091   */\n      dup2\n        /* \"#utility.yul\":1068:1092   */\n      tag_339\n      jump\t// in\n    tag_394:\n        /* \"#utility.yul\":1061:1066   */\n      dup2\n        /* \"#utility.yul\":1058:1093   */\n      eq\n        /* \"#utility.yul\":1048:1111   */\n      tag_395\n      jumpi\n        /* \"#utility.yul\":1107:1108   */\n      0x00\n        /* \"#utility.yul\":1104:1105   */\n      dup1\n        /* \"#utility.yul\":1097:1109   */\n      revert\n        /* \"#utility.yul\":1048:1111   */\n    tag_395:\n        /* \"#utility.yul\":995:1117   */\n      pop\n      jump\t// out\n        /* \"#utility.yul\":1123:1262   */\n    tag_341:\n        /* \"#utility.yul\":1169:1174   */\n      0x00\n        /* \"#utility.yul\":1207:1213   */\n      dup2\n        /* \"#utility.yul\":1194:1214   */\n      calldataload\n        /* \"#utility.yul\":1185:1214   */\n      swap1\n      pop\n        /* \"#utility.yul\":1223:1256   */\n      tag_397\n        /* \"#utility.yul\":1250:1255   */\n      dup2\n        /* \"#utility.yul\":1223:1256   */\n      tag_340\n      jump\t// in\n    tag_397:\n        /* \"#utility.yul\":1123:1262   */\n      swap3\n      swap2\n      pop\n      pop\n      jump\t// out\n        /* \"#utility.yul\":1268:1597   */\n    tag_21:\n        /* \"#utility.yul\":1327:1333   */\n      0x00\n        /* \"#utility.yul\":1376:1378   */\n      0x20\n        /* \"#utility.yul\":1364:1373   */\n      dup3\n        /* \"#utility.yul\":1355:1362   */\n      dup5\n        /* \"#utility.yul\":1351:1374   */\n      sub\n        /* \"#utility.yul\":1347:1379   */\n      slt\n        /* \"#utility.yul\":1344:1463   */\n      iszero\n      tag_399\n      jumpi\n        /* \"#utility.yul\":1382:1461   */\n      tag_400\n      tag_336\n      jump\t// in\n    tag_400:\n        /* \"#utility.yul\":1344:1463   */\n    tag_399:\n        /* \"#utility.yul\":1502:1503   */\n      0x00\n        /* \"#utility.yul\":1527:1580   */\n      tag_401\n        /* \"#utility.yul\":1572:1579   */\n      dup5\n        /* \"#utility.yul\":1563:1569   */\n      dup3\n        /* \"#utility.yul\":1552:1561   */\n      dup6\n        /* \"#utility.yul\":1548:1570   */\n      add\n        /* \"#utility.yul\":1527:1580   */\n      tag_341\n      jump\t// in\n    tag_401:\n        /* \"#utility.yul\":1517:1580   */\n      swap2\n      pop\n        /* \"#utility.yul\":1473:1590   */\n      pop\n        /* \"#utility.yul\":1268:1597   */\n      swap3\n      swap2\n      pop\n      pop\n      jump\t// out\n        /* \"#utility.yul\":1603:1721   */\n    tag_342:\n        /* \"#utility.yul\":1690:1714   */\n      tag_403\n        /* \"#utility.yul\":1708:1713   */\n      dup2\n        /* \"#utility.yul\":1690:1714   */\n      tag_339\n      jump\t// in\n    tag_403:\n        /* \"#utility.yul\":1685:1688   */\n      dup3\n        /* \"#utility.yul\":1678:1715   */\n      mstore\n        /* \"#utility.yul\":1603:1721   */\n      pop\n      pop\n      jump\t// out\n        /* \"#utility.yul\":1727:1804   */\n    tag_343:\n        /* \"#utility.yul\":1764:1771   */\n      0x00\n        /* \"#utility.yul\":1793:1798   */\n      dup2\n        /* \"#utility.yul\":1782:1798   */\n      swap1\n      pop\n        /* \"#utility.yul\":1727:1804   */\n      swap2\n      swap1\n      pop\n      jump\t// out\n        /* \"#utility.yul\":1810:1928   */\n    tag_344:\n        /* \"#utility.yul\":1897:1921   */\n      tag_406\n        /* \"#utility.yul\":1915:1920   */\n      dup2\n        /* \"#utility.yul\":1897:1921   */\n      tag_343\n      jump\t// in\n    tag_406:\n        /* \"#utility.yul\":1892:1895   */\n      dup3\n        /* \"#utility.yul\":1885:1922   */\n      mstore\n        /* \"#utility.yul\":1810:1928   */\n      pop\n      pop\n      jump\t// out\n        /* \"#utility.yul\":1934:2114   */\n    tag_75:\n        /* \"#utility.yul\":1982:2059   */\n      0x4e487b7100000000000000000000000000000000000000000000000000000000\n        /* \"#utility.yul\":1979:1980   */\n      0x00\n        /* \"#utility.yul\":1972:2060   */\n      mstore\n        /* \"#utility.yul\":2079:2083   */\n      0x21\n        /* \"#utility.yul\":2076:2077   */\n      0x04\n        /* \"#utility.yul\":2069:2084   */\n      mstore\n        /* \"#utility.yul\":2103:2107   */\n      0x24\n        /* \"#utility.yul\":2100:2101   */\n      0x00\n        /* \"#utility.yul\":2093:2108   */\n      revert\n        /* \"#utility.yul\":2120:2240   */\n    tag_345:\n        /* \"#utility.yul\":2208:2209   */\n      0x03\n        /* \"#utility.yul\":2201:2206   */\n      dup2\n        /* \"#utility.yul\":2198:2210   */\n      lt\n        /* \"#utility.yul\":2188:2234   */\n      tag_409\n      jumpi\n        /* \"#utility.yul\":2214:2232   */\n      tag_410\n      tag_75\n      jump\t// in\n    tag_410:\n        /* \"#utility.yul\":2188:2234   */\n    tag_409:\n        /* \"#utility.yul\":2120:2240   */\n      pop\n      jump\t// out\n        /* \"#utility.yul\":2246:2387   */\n    tag_346:\n        /* \"#utility.yul\":2298:2305   */\n      0x00\n        /* \"#utility.yul\":2327:2332   */\n      dup2\n        /* \"#utility.yul\":2316:2332   */\n      swap1\n      pop\n        /* \"#utility.yul\":2333:2381   */\n      tag_412\n        /* \"#utility.yul\":2375:2380   */\n      dup3\n        /* \"#utility.yul\":2333:2381   */\n      tag_345\n      jump\t// in\n    tag_412:\n        /* \"#utility.yul\":2246:2387   */\n      swap2\n      swap1\n      pop\n      jump\t// out\n        /* \"#utility.yul\":2393:2534   */\n    tag_347:\n        /* \"#utility.yul\":2456:2465   */\n      0x00\n        /* \"#utility.yul\":2489:2528   */\n      tag_414\n        /* \"#utility.yul\":2522:2527   */\n      dup3\n        /* \"#utility.yul\":2489:2528   */\n      tag_346\n      jump\t// in\n    tag_414:\n        /* \"#utility.yul\":2476:2528   */\n      swap1\n      pop\n        /* \"#utility.yul\":2393:2534   */\n      swap2\n      swap1\n      pop\n      jump\t// out\n        /* \"#utility.yul\":2540:2697   */\n    tag_348:\n        /* \"#utility.yul\":2640:2690   */\n      tag_416\n        /* \"#utility.yul\":2684:2689   */\n      dup2\n        /* \"#utility.yul\":2640:2690   */\n      tag_347\n      jump\t// in\n    tag_416:\n        /* \"#utility.yul\":2635:2638   */\n      dup3\n        /* \"#utility.yul\":2628:2691   */\n      mstore\n        /* \"#utility.yul\":2540:2697   */\n      pop\n      pop\n      jump\t// out\n        /* \"#utility.yul\":2703:3393   */\n    tag_24:\n        /* \"#utility.yul\":2921:2925   */\n      0x00\n        /* \"#utility.yul\":2959:2962   */\n      0xa0\n        /* \"#utility.yul\":2948:2957   */\n      dup3\n        /* \"#utility.yul\":2944:2963   */\n      add\n        /* \"#utility.yul\":2936:2963   */\n      swap1\n      pop\n        /* \"#utility.yul\":2973:3044   */\n      tag_418\n        /* \"#utility.yul\":3041:3042   */\n      0x00\n        /* \"#utility.yul\":3030:3039   */\n      dup4\n        /* \"#utility.yul\":3026:3043   */\n      add\n        /* \"#utility.yul\":3017:3023   */\n      dup9\n        /* \"#utility.yul\":2973:3044   */\n      tag_342\n      jump\t// in\n    tag_418:\n        /* \"#utility.yul\":3054:3126   */\n      tag_419\n        /* \"#utility.yul\":3122:3124   */\n      0x20\n        /* \"#utility.yul\":3111:3120   */\n      dup4\n        /* \"#utility.yul\":3107:3125   */\n      add\n        /* \"#utility.yul\":3098:3104   */\n      dup8\n        /* \"#utility.yul\":3054:3126   */\n      tag_344\n      jump\t// in\n    tag_419:\n        /* \"#utility.yul\":3136:3208   */\n      tag_420\n        /* \"#utility.yul\":3204:3206   */\n      0x40\n        /* \"#utility.yul\":3193:3202   */\n      dup4\n        /* \"#utility.yul\":3189:3207   */\n      add\n        /* \"#utility.yul\":3180:3186   */\n      dup7\n        /* \"#utility.yul\":3136:3208   */\n      tag_344\n      jump\t// in\n    tag_420:\n        /* \"#utility.yul\":3218:3290   */\n      tag_421\n        /* \"#utility.yul\":3286:3288   */\n      0x60\n        /* \"#utility.yul\":3275:3284   */\n      dup4\n        /* \"#utility.yul\":3271:3289   */\n      add\n        /* \"#utility.yul\":3262:3268   */\n      dup6\n        /* \"#utility.yul\":3218:3290   */\n      tag_344\n      jump\t// in\n    tag_421:\n        /* \"#utility.yul\":3300:3386   */\n      tag_422\n        /* \"#utility.yul\":3381:3384   */\n      0x80\n        /* \"#utility.yul\":3370:3379   */\n      dup4\n        /* \"#utility.yul\":3366:3385   */\n      add\n        /* \"#utility.yul\":3357:3363   */\n      dup5\n        /* \"#utility.yul\":3300:3386   */\n      tag_348\n      jump\t// in\n    tag_422:\n        /* \"#utility.yul\":2703:3393   */\n      swap7\n      swap6\n      pop\n      pop\n      pop\n      pop\n      pop\n      pop\n      jump\t// out\n        /* \"#utility.yul\":3399:3521   */\n    tag_349:\n        /* \"#utility.yul\":3472:3496   */\n      tag_424\n        /* \"#utility.yul\":3490:3495   */\n      dup2\n        /* \"#utility.yul\":3472:3496   */\n      tag_343\n      jump\t// in\n    tag_424:\n        /* \"#utility.yul\":3465:3470   */\n      dup2\n        /* \"#utility.yul\":3462:3497   */\n      eq\n        /* \"#utility.yul\":3452:3515   */\n      tag_425\n      jumpi\n        /* \"#utility.yul\":3511:3512   */\n      0x00\n        /* \"#utility.yul\":3508:3509   */\n      dup1\n        /* \"#utility.yul\":3501:3513   */\n      revert\n        /* \"#utility.yul\":3452:3515   */\n    tag_425:\n        /* \"#utility.yul\":3399:3521   */\n      pop\n      jump\t// out\n        /* \"#utility.yul\":3527:3666   */\n    tag_350:\n        /* \"#utility.yul\":3573:3578   */\n      0x00\n        /* \"#utility.yul\":3611:3617   */\n      dup2\n        /* \"#utility.yul\":3598:3618   */\n      calldataload\n        /* \"#utility.yul\":3589:3618   */\n      swap1\n      pop\n        /* \"#utility.yul\":3627:3660   */\n      tag_427\n        /* \"#utility.yul\":3654:3659   */\n      dup2\n        /* \"#utility.yul\":3627:3660   */\n      tag_349\n      jump\t// in\n    tag_427:\n        /* \"#utility.yul\":3527:3666   */\n      swap3\n      swap2\n      pop\n      pop\n      jump\t// out\n        /* \"#utility.yul\":3672:4146   */\n    tag_28:\n        /* \"#utility.yul\":3740:3746   */\n      0x00\n        /* \"#utility.yul\":3748:3754   */\n      dup1\n        /* \"#utility.yul\":3797:3799   */\n      0x40\n        /* \"#utility.yul\":3785:3794   */\n      dup4\n        /* \"#utility.yul\":3776:3783   */\n      dup6\n        /* \"#utility.yul\":3772:3795   */\n      sub\n        /* \"#utility.yul\":3768:3800   */\n      slt\n        /* \"#utility.yul\":3765:3884   */\n      iszero\n      tag_429\n      jumpi\n        /* \"#utility.yul\":3803:3882   */\n      tag_430\n      tag_336\n      jump\t// in\n    tag_430:\n        /* \"#utility.yul\":3765:3884   */\n    tag_429:\n        /* \"#utility.yul\":3923:3924   */\n      0x00\n        /* \"#utility.yul\":3948:4001   */\n      tag_431\n        /* \"#utility.yul\":3993:4000   */\n      dup6\n        /* \"#utility.yul\":3984:3990   */\n      dup3\n        /* \"#utility.yul\":3973:3982   */\n      dup7\n        /* \"#utility.yul\":3969:3991   */\n      add\n        /* \"#utility.yul\":3948:4001   */\n      tag_341\n      jump\t// in\n    tag_431:\n        /* \"#utility.yul\":3938:4001   */\n      swap3\n      pop\n        /* \"#utility.yul\":3894:4011   */\n      pop\n        /* \"#utility.yul\":4050:4052   */\n      0x20\n        /* \"#utility.yul\":4076:4129   */\n      tag_432\n        /* \"#utility.yul\":4121:4128   */\n      dup6\n        /* \"#utility.yul\":4112:4118   */\n      dup3\n        /* \"#utility.yul\":4101:4110   */\n      dup7\n        /* \"#utility.yul\":4097:4119   */\n      add\n        /* \"#utility.yul\":4076:4129   */\n      tag_350\n      jump\t// in\n    tag_432:\n        /* \"#utility.yul\":4066:4129   */\n      swap2\n      pop\n        /* \"#utility.yul\":4021:4139   */\n      pop\n        /* \"#utility.yul\":3672:4146   */\n      swap3\n      pop\n      swap3\n      swap1\n      pop\n      jump\t// out\n        /* \"#utility.yul\":4152:4374   */\n    tag_31:\n        /* \"#utility.yul\":4245:4249   */\n      0x00\n        /* \"#utility.yul\":4283:4285   */\n      0x20\n        /* \"#utility.yul\":4272:4281   */\n      dup3\n        /* \"#utility.yul\":4268:4286   */\n      add\n        /* \"#utility.yul\":4260:4286   */\n      swap1\n      pop\n        /* \"#utility.yul\":4296:4367   */\n      tag_434\n        /* \"#utility.yul\":4364:4365   */\n      0x00\n        /* \"#utility.yul\":4353:4362   */\n      dup4\n        /* \"#utility.yul\":4349:4366   */\n      add\n        /* \"#utility.yul\":4340:4346   */\n      dup5\n        /* \"#utility.yul\":4296:4367   */\n      tag_342\n      jump\t// in\n    tag_434:\n        /* \"#utility.yul\":4152:4374   */\n      swap3\n      swap2\n      pop\n      pop\n      jump\t// out\n        /* \"#utility.yul\":4380:4999   */\n    tag_35:\n        /* \"#utility.yul\":4457:4463   */\n      0x00\n        /* \"#utility.yul\":4465:4471   */\n      dup1\n        /* \"#utility.yul\":4473:4479   */\n      0x00\n        /* \"#utility.yul\":4522:4524   */\n      0x60\n        /* \"#utility.yul\":4510:4519   */\n      dup5\n        /* \"#utility.yul\":4501:4508   */\n      dup7\n        /* \"#utility.yul\":4497:4520   */\n      sub\n        /* \"#utility.yul\":4493:4525   */\n      slt\n        /* \"#utility.yul\":4490:4609   */\n      iszero\n      tag_436\n      jumpi\n        /* \"#utility.yul\":4528:4607   */\n      tag_437\n      tag_336\n      jump\t// in\n    tag_437:\n        /* \"#utility.yul\":4490:4609   */\n    tag_436:\n        /* \"#utility.yul\":4648:4649   */\n      0x00\n        /* \"#utility.yul\":4673:4726   */\n      tag_438\n        /* \"#utility.yul\":4718:4725   */\n      dup7\n        /* \"#utility.yul\":4709:4715   */\n      dup3\n        /* \"#utility.yul\":4698:4707   */\n      dup8\n        /* \"#utility.yul\":4694:4716   */\n      add\n        /* \"#utility.yul\":4673:4726   */\n      tag_341\n      jump\t// in\n    tag_438:\n        /* \"#utility.yul\":4663:4726   */\n      swap4\n      pop\n        /* \"#utility.yul\":4619:4736   */\n      pop\n        /* \"#utility.yul\":4775:4777   */\n      0x20\n        /* \"#utility.yul\":4801:4854   */\n      tag_439\n        /* \"#utility.yul\":4846:4853   */\n      dup7\n        /* \"#utility.yul\":4837:4843   */\n      dup3\n        /* \"#utility.yul\":4826:4835   */\n      dup8\n        /* \"#utility.yul\":4822:4844   */\n      add\n        /* \"#utility.yul\":4801:4854   */\n      tag_350\n      jump\t// in\n    tag_439:\n        /* \"#utility.yul\":4791:4854   */\n      swap3\n      pop\n        /* \"#utility.yul\":4746:4864   */\n      pop\n        /* \"#utility.yul\":4903:4905   */\n      0x40\n        /* \"#utility.yul\":4929:4982   */\n      tag_440\n        /* \"#utility.yul\":4974:4981   */\n      dup7\n        /* \"#utility.yul\":4965:4971   */\n      dup3\n        /* \"#utility.yul\":4954:4963   */\n      dup8\n        /* \"#utility.yul\":4950:4972   */\n      add\n        /* \"#utility.yul\":4929:4982   */\n      tag_350\n      jump\t// in\n    tag_440:\n        /* \"#utility.yul\":4919:4982   */\n      swap2\n      pop\n        /* \"#utility.yul\":4874:4992   */\n      pop\n        /* \"#utility.yul\":4380:4999   */\n      swap3\n      pop\n      swap3\n      pop\n      swap3\n      jump\t// out\n        /* \"#utility.yul\":5005:5174   */\n    tag_351:\n        /* \"#utility.yul\":5089:5100   */\n      0x00\n        /* \"#utility.yul\":5123:5129   */\n      dup3\n        /* \"#utility.yul\":5118:5121   */\n      dup3\n        /* \"#utility.yul\":5111:5130   */\n      mstore\n        /* \"#utility.yul\":5163:5167   */\n      0x20\n        /* \"#utility.yul\":5158:5161   */\n      dup3\n        /* \"#utility.yul\":5154:5168   */\n      add\n        /* \"#utility.yul\":5139:5168   */\n      swap1\n      pop\n        /* \"#utility.yul\":5005:5174   */\n      swap3\n      swap2\n      pop\n      pop\n      jump\t// out\n        /* \"#utility.yul\":5180:5354   */\n    tag_352:\n        /* \"#utility.yul\":5320:5346   */\n      0x43616c6c6572206973206e6f7420617574686f72697a65640000000000000000\n        /* \"#utility.yul\":5316:5317   */\n      0x00\n        /* \"#utility.yul\":5308:5314   */\n      dup3\n        /* \"#utility.yul\":5304:5318   */\n      add\n        /* \"#utility.yul\":5297:5347   */\n      mstore\n        /* \"#utility.yul\":5180:5354   */\n      pop\n      jump\t// out\n        /* \"#utility.yul\":5360:5726   */\n    tag_353:\n        /* \"#utility.yul\":5502:5505   */\n      0x00\n        /* \"#utility.yul\":5523:5590   */\n      tag_444\n        /* \"#utility.yul\":5587:5589   */\n      0x18\n        /* \"#utility.yul\":5582:5585   */\n      dup4\n        /* \"#utility.yul\":5523:5590   */\n      tag_351\n      jump\t// in\n    tag_444:\n        /* \"#utility.yul\":5516:5590   */\n      swap2\n      pop\n        /* \"#utility.yul\":5599:5692   */\n      tag_445\n        /* \"#utility.yul\":5688:5691   */\n      dup3\n        /* \"#utility.yul\":5599:5692   */\n      tag_352\n      jump\t// in\n    tag_445:\n        /* \"#utility.yul\":5717:5719   */\n      0x20\n        /* \"#utility.yul\":5712:5715   */\n      dup3\n        /* \"#utility.yul\":5708:5720   */\n      add\n        /* \"#utility.yul\":5701:5720   */\n      swap1\n      pop\n        /* \"#utility.yul\":5360:5726   */\n      swap2\n      swap1\n      pop\n      jump\t// out\n        /* \"#utility.yul\":5732:6151   */\n    tag_64:\n        /* \"#utility.yul\":5898:5902   */\n      0x00\n        /* \"#utility.yul\":5936:5938   */\n      0x20\n        /* \"#utility.yul\":5925:5934   */\n      dup3\n        /* \"#utility.yul\":5921:5939   */\n      add\n        /* \"#utility.yul\":5913:5939   */\n      swap1\n      pop\n        /* \"#utility.yul\":5985:5994   */\n      dup2\n        /* \"#utility.yul\":5979:5983   */\n      dup2\n        /* \"#utility.yul\":5975:5995   */\n      sub\n        /* \"#utility.yul\":5971:5972   */\n      0x00\n        /* \"#utility.yul\":5960:5969   */\n      dup4\n        /* \"#utility.yul\":5956:5973   */\n      add\n        /* \"#utility.yul\":5949:5996   */\n      mstore\n        /* \"#utility.yul\":6013:6144   */\n      tag_447\n        /* \"#utility.yul\":6139:6143   */\n      dup2\n        /* \"#utility.yul\":6013:6144   */\n      tag_353\n      jump\t// in\n    tag_447:\n        /* \"#utility.yul\":6005:6144   */\n      swap1\n      pop\n        /* \"#utility.yul\":5732:6151   */\n      swap2\n      swap1\n      pop\n      jump\t// out\n        /* \"#utility.yul\":6157:6337   */\n    tag_354:\n        /* \"#utility.yul\":6297:6329   */\n      0x4f7065726174696f6e206f6e20746f6b656e20696e2070726f67726573730000\n        /* \"#utility.yul\":6293:6294   */\n      0x00\n        /* \"#utility.yul\":6285:6291   */\n      dup3\n        /* \"#utility.yul\":6281:6295   */\n      add\n        /* \"#utility.yul\":6274:6330   */\n      mstore\n        /* \"#utility.yul\":6157:6337   */\n      pop\n      jump\t// out\n        /* \"#utility.yul\":6343:6709   */\n    tag_355:\n        /* \"#utility.yul\":6485:6488   */\n      0x00\n        /* \"#utility.yul\":6506:6573   */\n      tag_450\n        /* \"#utility.yul\":6570:6572   */\n      0x1e\n        /* \"#utility.yul\":6565:6568   */\n      dup4\n        /* \"#utility.yul\":6506:6573   */\n      tag_351\n      jump\t// in\n    tag_450:\n        /* \"#utility.yul\":6499:6573   */\n      swap2\n      pop\n        /* \"#utility.yul\":6582:6675   */\n      tag_451\n        /* \"#utility.yul\":6671:6674   */\n      dup3\n        /* \"#utility.yul\":6582:6675   */\n      tag_354\n      jump\t// in\n    tag_451:\n        /* \"#utility.yul\":6700:6702   */\n      0x20\n        /* \"#utility.yul\":6695:6698   */\n      dup3\n        /* \"#utility.yul\":6691:6703   */\n      add\n        /* \"#utility.yul\":6684:6703   */\n      swap1\n      pop\n        /* \"#utility.yul\":6343:6709   */\n      swap2\n      swap1\n      pop\n      jump\t// out\n        /* \"#utility.yul\":6715:7134   */\n    tag_71:\n        /* \"#utility.yul\":6881:6885   */\n      0x00\n        /* \"#utility.yul\":6919:6921   */\n      0x20\n        /* \"#utility.yul\":6908:6917   */\n      dup3\n        /* \"#utility.yul\":6904:6922   */\n      add\n        /* \"#utility.yul\":6896:6922   */\n      swap1\n      pop\n        /* \"#utility.yul\":6968:6977   */\n      dup2\n        /* \"#utility.yul\":6962:6966   */\n      dup2\n        /* \"#utility.yul\":6958:6978   */\n      sub\n        /* \"#utility.yul\":6954:6955   */\n      0x00\n        /* \"#utility.yul\":6943:6952   */\n      dup4\n        /* \"#utility.yul\":6939:6956   */\n      add\n        /* \"#utility.yul\":6932:6979   */\n      mstore\n        /* \"#utility.yul\":6996:7127   */\n      tag_453\n        /* \"#utility.yul\":7122:7126   */\n      dup2\n        /* \"#utility.yul\":6996:7127   */\n      tag_355\n      jump\t// in\n    tag_453:\n        /* \"#utility.yul\":6988:7127   */\n      swap1\n      pop\n        /* \"#utility.yul\":6715:7134   */\n      swap2\n      swap1\n      pop\n      jump\t// out\n        /* \"#utility.yul\":7140:7322   */\n    tag_356:\n        /* \"#utility.yul\":7280:7314   */\n      0x416d6f756e74206d7573742062652067726561746572207468616e207a65726f\n        /* \"#utility.yul\":7276:7277   */\n      0x00\n        /* \"#utility.yul\":7268:7274   */\n      dup3\n        /* \"#utility.yul\":7264:7278   */\n      add\n        /* \"#utility.yul\":7257:7315   */\n      mstore\n        /* \"#utility.yul\":7140:7322   */\n      pop\n      jump\t// out\n        /* \"#utility.yul\":7328:7694   */\n    tag_357:\n        /* \"#utility.yul\":7470:7473   */\n      0x00\n        /* \"#utility.yul\":7491:7558   */\n      tag_456\n        /* \"#utility.yul\":7555:7557   */\n      0x20\n        /* \"#utility.yul\":7550:7553   */\n      dup4\n        /* \"#utility.yul\":7491:7558   */\n      tag_351\n      jump\t// in\n    tag_456:\n        /* \"#utility.yul\":7484:7558   */\n      swap2\n      pop\n        /* \"#utility.yul\":7567:7660   */\n      tag_457\n        /* \"#utility.yul\":7656:7659   */\n      dup3\n        /* \"#utility.yul\":7567:7660   */\n      tag_356\n      jump\t// in\n    tag_457:\n        /* \"#utility.yul\":7685:7687   */\n      0x20\n        /* \"#utility.yul\":7680:7683   */\n      dup3\n        /* \"#utility.yul\":7676:7688   */\n      add\n        /* \"#utility.yul\":7669:7688   */\n      swap1\n      pop\n        /* \"#utility.yul\":7328:7694   */\n      swap2\n      swap1\n      pop\n      jump\t// out\n        /* \"#utility.yul\":7700:8119   */\n    tag_82:\n        /* \"#utility.yul\":7866:7870   */\n      0x00\n        /* \"#utility.yul\":7904:7906   */\n      0x20\n        /* \"#utility.yul\":7893:7902   */\n      dup3\n        /* \"#utility.yul\":7889:7907   */\n      add\n        /* \"#utility.yul\":7881:7907   */\n      swap1\n      pop\n        /* \"#utility.yul\":7953:7962   */\n      dup2\n        /* \"#utility.yul\":7947:7951   */\n      dup2\n        /* \"#utility.yul\":7943:7963   */\n      sub\n        /* \"#utility.yul\":7939:7940   */\n      0x00\n        /* \"#utility.yul\":7928:7937   */\n      dup4\n        /* \"#utility.yul\":7924:7941   */\n      add\n        /* \"#utility.yul\":7917:7964   */\n      mstore\n        /* \"#utility.yul\":7981:8112   */\n      tag_459\n        /* \"#utility.yul\":8107:8111   */\n      dup2\n        /* \"#utility.yul\":7981:8112   */\n      tag_357\n      jump\t// in\n    tag_459:\n        /* \"#utility.yul\":7973:8112   */\n      swap1\n      pop\n        /* \"#utility.yul\":7700:8119   */\n      swap2\n      swap1\n      pop\n      jump\t// out\n        /* \"#utility.yul\":8125:8306   */\n    tag_358:\n        /* \"#utility.yul\":8265:8298   */\n      0x5072696365206d7573742062652067726561746572207468616e207a65726f00\n        /* \"#utility.yul\":8261:8262   */\n      0x00\n        /* \"#utility.yul\":8253:8259   */\n      dup3\n        /* \"#utility.yul\":8249:8263   */\n      add\n        /* \"#utility.yul\":8242:8299   */\n      mstore\n        /* \"#utility.yul\":8125:8306   */\n      pop\n      jump\t// out\n        /* \"#utility.yul\":8312:8678   */\n    tag_359:\n        /* \"#utility.yul\":8454:8457   */\n      0x00\n        /* \"#utility.yul\":8475:8542   */\n      tag_462\n        /* \"#utility.yul\":8539:8541   */\n      0x1f\n        /* \"#utility.yul\":8534:8537   */\n      dup4\n        /* \"#utility.yul\":8475:8542   */\n      tag_351\n      jump\t// in\n    tag_462:\n        /* \"#utility.yul\":8468:8542   */\n      swap2\n      pop\n        /* \"#utility.yul\":8551:8644   */\n      tag_463\n        /* \"#utility.yul\":8640:8643   */\n      dup3\n        /* \"#utility.yul\":8551:8644   */\n      tag_358\n      jump\t// in\n    tag_463:\n        /* \"#utility.yul\":8669:8671   */\n      0x20\n        /* \"#utility.yul\":8664:8667   */\n      dup3\n        /* \"#utility.yul\":8660:8672   */\n      add\n        /* \"#utility.yul\":8653:8672   */\n      swap1\n      pop\n        /* \"#utility.yul\":8312:8678   */\n      swap2\n      swap1\n      pop\n      jump\t// out\n        /* \"#utility.yul\":8684:9103   */\n    tag_86:\n        /* \"#utility.yul\":8850:8854   */\n      0x00\n        /* \"#utility.yul\":8888:8890   */\n      0x20\n        /* \"#utility.yul\":8877:8886   */\n      dup3\n        /* \"#utility.yul\":8873:8891   */\n      add\n        /* \"#utility.yul\":8865:8891   */\n      swap1\n      pop\n        /* \"#utility.yul\":8937:8946   */\n      dup2\n        /* \"#utility.yul\":8931:8935   */\n      dup2\n        /* \"#utility.yul\":8927:8947   */\n      sub\n        /* \"#utility.yul\":8923:8924   */\n      0x00\n        /* \"#utility.yul\":8912:8921   */\n      dup4\n        /* \"#utility.yul\":8908:8925   */\n      add\n        /* \"#utility.yul\":8901:8948   */\n      mstore\n        /* \"#utility.yul\":8965:9096   */\n      tag_465\n        /* \"#utility.yul\":9091:9095   */\n      dup2\n        /* \"#utility.yul\":8965:9096   */\n      tag_359\n      jump\t// in\n    tag_465:\n        /* \"#utility.yul\":8957:9096   */\n      swap1\n      pop\n        /* \"#utility.yul\":8684:9103   */\n      swap2\n      swap1\n      pop\n      jump\t// out\n        /* \"#utility.yul\":9109:9441   */\n    tag_89:\n        /* \"#utility.yul\":9230:9234   */\n      0x00\n        /* \"#utility.yul\":9268:9270   */\n      0x40\n        /* \"#utility.yul\":9257:9266   */\n      dup3\n        /* \"#utility.yul\":9253:9271   */\n      add\n        /* \"#utility.yul\":9245:9271   */\n      swap1\n      pop\n        /* \"#utility.yul\":9281:9352   */\n      tag_467\n        /* \"#utility.yul\":9349:9350   */\n      0x00\n        /* \"#utility.yul\":9338:9347   */\n      dup4\n        /* \"#utility.yul\":9334:9351   */\n      add\n        /* \"#utility.yul\":9325:9331   */\n      dup6\n        /* \"#utility.yul\":9281:9352   */\n      tag_342\n      jump\t// in\n    tag_467:\n        /* \"#utility.yul\":9362:9434   */\n      tag_468\n        /* \"#utility.yul\":9430:9432   */\n      0x20\n        /* \"#utility.yul\":9419:9428   */\n      dup4\n        /* \"#utility.yul\":9415:9433   */\n      add\n        /* \"#utility.yul\":9406:9412   */\n      dup5\n        /* \"#utility.yul\":9362:9434   */\n      tag_342\n      jump\t// in\n    tag_468:\n        /* \"#utility.yul\":9109:9441   */\n      swap4\n      swap3\n      pop\n      pop\n      pop\n      jump\t// out\n        /* \"#utility.yul\":9447:9590   */\n    tag_360:\n        /* \"#utility.yul\":9504:9509   */\n      0x00\n        /* \"#utility.yul\":9535:9541   */\n      dup2\n        /* \"#utility.yul\":9529:9542   */\n      mload\n        /* \"#utility.yul\":9520:9542   */\n      swap1\n      pop\n        /* \"#utility.yul\":9551:9584   */\n      tag_470\n        /* \"#utility.yul\":9578:9583   */\n      dup2\n        /* \"#utility.yul\":9551:9584   */\n      tag_349\n      jump\t// in\n    tag_470:\n        /* \"#utility.yul\":9447:9590   */\n      swap3\n      swap2\n      pop\n      pop\n      jump\t// out\n        /* \"#utility.yul\":9596:9947   */\n    tag_93:\n        /* \"#utility.yul\":9666:9672   */\n      0x00\n        /* \"#utility.yul\":9715:9717   */\n      0x20\n        /* \"#utility.yul\":9703:9712   */\n      dup3\n        /* \"#utility.yul\":9694:9701   */\n      dup5\n        /* \"#utility.yul\":9690:9713   */\n      sub\n        /* \"#utility.yul\":9686:9718   */\n      slt\n        /* \"#utility.yul\":9683:9802   */\n      iszero\n      tag_472\n      jumpi\n        /* \"#utility.yul\":9721:9800   */\n      tag_473\n      tag_336\n      jump\t// in\n    tag_473:\n        /* \"#utility.yul\":9683:9802   */\n    tag_472:\n        /* \"#utility.yul\":9841:9842   */\n      0x00\n        /* \"#utility.yul\":9866:9930   */\n      tag_474\n        /* \"#utility.yul\":9922:9929   */\n      dup5\n        /* \"#utility.yul\":9913:9919   */\n      dup3\n        /* \"#utility.yul\":9902:9911   */\n      dup6\n        /* \"#utility.yul\":9898:9920   */\n      add\n        /* \"#utility.yul\":9866:9930   */\n      tag_360\n      jump\t// in\n    tag_474:\n        /* \"#utility.yul\":9856:9930   */\n      swap2\n      pop\n        /* \"#utility.yul\":9812:9940   */\n      pop\n        /* \"#utility.yul\":9596:9947   */\n      swap3\n      swap2\n      pop\n      pop\n      jump\t// out\n        /* \"#utility.yul\":9953:10395   */\n    tag_105:\n        /* \"#utility.yul\":10102:10106   */\n      0x00\n        /* \"#utility.yul\":10140:10142   */\n      0x60\n        /* \"#utility.yul\":10129:10138   */\n      dup3\n        /* \"#utility.yul\":10125:10143   */\n      add\n        /* \"#utility.yul\":10117:10143   */\n      swap1\n      pop\n        /* \"#utility.yul\":10153:10224   */\n      tag_476\n        /* \"#utility.yul\":10221:10222   */\n      0x00\n        /* \"#utility.yul\":10210:10219   */\n      dup4\n        /* \"#utility.yul\":10206:10223   */\n      add\n        /* \"#utility.yul\":10197:10203   */\n      dup7\n        /* \"#utility.yul\":10153:10224   */\n      tag_342\n      jump\t// in\n    tag_476:\n        /* \"#utility.yul\":10234:10306   */\n      tag_477\n        /* \"#utility.yul\":10302:10304   */\n      0x20\n        /* \"#utility.yul\":10291:10300   */\n      dup4\n        /* \"#utility.yul\":10287:10305   */\n      add\n        /* \"#utility.yul\":10278:10284   */\n      dup6\n        /* \"#utility.yul\":10234:10306   */\n      tag_342\n      jump\t// in\n    tag_477:\n        /* \"#utility.yul\":10316:10388   */\n      tag_478\n        /* \"#utility.yul\":10384:10386   */\n      0x40\n        /* \"#utility.yul\":10373:10382   */\n      dup4\n        /* \"#utility.yul\":10369:10387   */\n      add\n        /* \"#utility.yul\":10360:10366   */\n      dup5\n        /* \"#utility.yul\":10316:10388   */\n      tag_344\n      jump\t// in\n    tag_478:\n        /* \"#utility.yul\":9953:10395   */\n      swap5\n      swap4\n      pop\n      pop\n      pop\n      pop\n      jump\t// out\n        /* \"#utility.yul\":10401:10517   */\n    tag_361:\n        /* \"#utility.yul\":10471:10492   */\n      tag_480\n        /* \"#utility.yul\":10486:10491   */\n      dup2\n        /* \"#utility.yul\":10471:10492   */\n      tag_333\n      jump\t// in\n    tag_480:\n        /* \"#utility.yul\":10464:10469   */\n      dup2\n        /* \"#utility.yul\":10461:10493   */\n      eq\n        /* \"#utility.yul\":10451:10511   */\n      tag_481\n      jumpi\n        /* \"#utility.yul\":10507:10508   */\n      0x00\n        /* \"#utility.yul\":10504:10505   */\n      dup1\n        /* \"#utility.yul\":10497:10509   */\n      revert\n        /* \"#utility.yul\":10451:10511   */\n    tag_481:\n        /* \"#utility.yul\":10401:10517   */\n      pop\n      jump\t// out\n        /* \"#utility.yul\":10523:10660   */\n    tag_362:\n        /* \"#utility.yul\":10577:10582   */\n      0x00\n        /* \"#utility.yul\":10608:10614   */\n      dup2\n        /* \"#utility.yul\":10602:10615   */\n      mload\n        /* \"#utility.yul\":10593:10615   */\n      swap1\n      pop\n        /* \"#utility.yul\":10624:10654   */\n      tag_483\n        /* \"#utility.yul\":10648:10653   */\n      dup2\n        /* \"#utility.yul\":10624:10654   */\n      tag_361\n      jump\t// in\n    tag_483:\n        /* \"#utility.yul\":10523:10660   */\n      swap3\n      swap2\n      pop\n      pop\n      jump\t// out\n        /* \"#utility.yul\":10666:11011   */\n    tag_109:\n        /* \"#utility.yul\":10733:10739   */\n      0x00\n        /* \"#utility.yul\":10782:10784   */\n      0x20\n        /* \"#utility.yul\":10770:10779   */\n      dup3\n        /* \"#utility.yul\":10761:10768   */\n      dup5\n        /* \"#utility.yul\":10757:10780   */\n      sub\n        /* \"#utility.yul\":10753:10785   */\n      slt\n        /* \"#utility.yul\":10750:10869   */\n      iszero\n      tag_485\n      jumpi\n        /* \"#utility.yul\":10788:10867   */\n      tag_486\n      tag_336\n      jump\t// in\n    tag_486:\n        /* \"#utility.yul\":10750:10869   */\n    tag_485:\n        /* \"#utility.yul\":10908:10909   */\n      0x00\n        /* \"#utility.yul\":10933:10994   */\n      tag_487\n        /* \"#utility.yul\":10986:10993   */\n      dup5\n        /* \"#utility.yul\":10977:10983   */\n      dup3\n        /* \"#utility.yul\":10966:10975   */\n      dup6\n        /* \"#utility.yul\":10962:10984   */\n      add\n        /* \"#utility.yul\":10933:10994   */\n      tag_362\n      jump\t// in\n    tag_487:\n        /* \"#utility.yul\":10923:10994   */\n      swap2\n      pop\n        /* \"#utility.yul\":10879:11004   */\n      pop\n        /* \"#utility.yul\":10666:11011   */\n      swap3\n      swap2\n      pop\n      pop\n      jump\t// out\n        /* \"#utility.yul\":11017:11237   */\n    tag_363:\n        /* \"#utility.yul\":11157:11191   */\n      0x546f6b656e207472616e7366657220746f2065786368616e6765206661696c65\n        /* \"#utility.yul\":11153:11154   */\n      0x00\n        /* \"#utility.yul\":11145:11151   */\n      dup3\n        /* \"#utility.yul\":11141:11155   */\n      add\n        /* \"#utility.yul\":11134:11192   */\n      mstore\n        /* \"#utility.yul\":11226:11229   */\n      0x6400000000000000000000000000000000000000000000000000000000000000\n        /* \"#utility.yul\":11221:11223   */\n      0x20\n        /* \"#utility.yul\":11213:11219   */\n      dup3\n        /* \"#utility.yul\":11209:11224   */\n      add\n        /* \"#utility.yul\":11202:11230   */\n      mstore\n        /* \"#utility.yul\":11017:11237   */\n      pop\n      jump\t// out\n        /* \"#utility.yul\":11243:11609   */\n    tag_364:\n        /* \"#utility.yul\":11385:11388   */\n      0x00\n        /* \"#utility.yul\":11406:11473   */\n      tag_490\n        /* \"#utility.yul\":11470:11472   */\n      0x21\n        /* \"#utility.yul\":11465:11468   */\n      dup4\n        /* \"#utility.yul\":11406:11473   */\n      tag_351\n      jump\t// in\n    tag_490:\n        /* \"#utility.yul\":11399:11473   */\n      swap2\n      pop\n        /* \"#utility.yul\":11482:11575   */\n      tag_491\n        /* \"#utility.yul\":11571:11574   */\n      dup3\n        /* \"#utility.yul\":11482:11575   */\n      tag_363\n      jump\t// in\n    tag_491:\n        /* \"#utility.yul\":11600:11602   */\n      0x40\n        /* \"#utility.yul\":11595:11598   */\n      dup3\n        /* \"#utility.yul\":11591:11603   */\n      add\n        /* \"#utility.yul\":11584:11603   */\n      swap1\n      pop\n        /* \"#utility.yul\":11243:11609   */\n      swap2\n      swap1\n      pop\n      jump\t// out\n        /* \"#utility.yul\":11615:12034   */\n    tag_112:\n        /* \"#utility.yul\":11781:11785   */\n      0x00\n        /* \"#utility.yul\":11819:11821   */\n      0x20\n        /* \"#utility.yul\":11808:11817   */\n      dup3\n        /* \"#utility.yul\":11804:11822   */\n      add\n        /* \"#utility.yul\":11796:11822   */\n      swap1\n      pop\n        /* \"#utility.yul\":11868:11877   */\n      dup2\n        /* \"#utility.yul\":11862:11866   */\n      dup2\n        /* \"#utility.yul\":11858:11878   */\n      sub\n        /* \"#utility.yul\":11854:11855   */\n      0x00\n        /* \"#utility.yul\":11843:11852   */\n      dup4\n        /* \"#utility.yul\":11839:11856   */\n      add\n        /* \"#utility.yul\":11832:11879   */\n      mstore\n        /* \"#utility.yul\":11896:12027   */\n      tag_493\n        /* \"#utility.yul\":12022:12026   */\n      dup2\n        /* \"#utility.yul\":11896:12027   */\n      tag_364\n      jump\t// in\n    tag_493:\n        /* \"#utility.yul\":11888:12027   */\n      swap1\n      pop\n        /* \"#utility.yul\":11615:12034   */\n      swap2\n      swap1\n      pop\n      jump\t// out\n        /* \"#utility.yul\":12040:12211   */\n    tag_365:\n        /* \"#utility.yul\":12180:12203   */\n      0x4e6f20726571756573747320746f2063616e63656c0000000000000000000000\n        /* \"#utility.yul\":12176:12177   */\n      0x00\n        /* \"#utility.yul\":12168:12174   */\n      dup3\n        /* \"#utility.yul\":12164:12178   */\n      add\n        /* \"#utility.yul\":12157:12204   */\n      mstore\n        /* \"#utility.yul\":12040:12211   */\n      pop\n      jump\t// out\n        /* \"#utility.yul\":12217:12583   */\n    tag_366:\n        /* \"#utility.yul\":12359:12362   */\n      0x00\n        /* \"#utility.yul\":12380:12447   */\n      tag_496\n        /* \"#utility.yul\":12444:12446   */\n      0x15\n        /* \"#utility.yul\":12439:12442   */\n      dup4\n        /* \"#utility.yul\":12380:12447   */\n      tag_351\n      jump\t// in\n    tag_496:\n        /* \"#utility.yul\":12373:12447   */\n      swap2\n      pop\n        /* \"#utility.yul\":12456:12549   */\n      tag_497\n        /* \"#utility.yul\":12545:12548   */\n      dup3\n        /* \"#utility.yul\":12456:12549   */\n      tag_365\n      jump\t// in\n    tag_497:\n        /* \"#utility.yul\":12574:12576   */\n      0x20\n        /* \"#utility.yul\":12569:12572   */\n      dup3\n        /* \"#utility.yul\":12565:12577   */\n      add\n        /* \"#utility.yul\":12558:12577   */\n      swap1\n      pop\n        /* \"#utility.yul\":12217:12583   */\n      swap2\n      swap1\n      pop\n      jump\t// out\n        /* \"#utility.yul\":12589:13008   */\n    tag_127:\n        /* \"#utility.yul\":12755:12759   */\n      0x00\n        /* \"#utility.yul\":12793:12795   */\n      0x20\n        /* \"#utility.yul\":12782:12791   */\n      dup3\n        /* \"#utility.yul\":12778:12796   */\n      add\n        /* \"#utility.yul\":12770:12796   */\n      swap1\n      pop\n        /* \"#utility.yul\":12842:12851   */\n      dup2\n        /* \"#utility.yul\":12836:12840   */\n      dup2\n        /* \"#utility.yul\":12832:12852   */\n      sub\n        /* \"#utility.yul\":12828:12829   */\n      0x00\n        /* \"#utility.yul\":12817:12826   */\n      dup4\n        /* \"#utility.yul\":12813:12830   */\n      add\n        /* \"#utility.yul\":12806:12853   */\n      mstore\n        /* \"#utility.yul\":12870:13001   */\n      tag_499\n        /* \"#utility.yul\":12996:13000   */\n      dup2\n        /* \"#utility.yul\":12870:13001   */\n      tag_366\n      jump\t// in\n    tag_499:\n        /* \"#utility.yul\":12862:13001   */\n      swap1\n      pop\n        /* \"#utility.yul\":12589:13008   */\n      swap2\n      swap1\n      pop\n      jump\t// out\n        /* \"#utility.yul\":13014:13196   */\n    tag_367:\n        /* \"#utility.yul\":13154:13188   */\n      0x596f752063616e6e6f742063616e63656c206d756c7469706c652074696d6573\n        /* \"#utility.yul\":13150:13151   */\n      0x00\n        /* \"#utility.yul\":13142:13148   */\n      dup3\n        /* \"#utility.yul\":13138:13152   */\n      add\n        /* \"#utility.yul\":13131:13189   */\n      mstore\n        /* \"#utility.yul\":13014:13196   */\n      pop\n      jump\t// out\n        /* \"#utility.yul\":13202:13568   */\n    tag_368:\n        /* \"#utility.yul\":13344:13347   */\n      0x00\n        /* \"#utility.yul\":13365:13432   */\n      tag_502\n        /* \"#utility.yul\":13429:13431   */\n      0x20\n        /* \"#utility.yul\":13424:13427   */\n      dup4\n        /* \"#utility.yul\":13365:13432   */\n      tag_351\n      jump\t// in\n    tag_502:\n        /* \"#utility.yul\":13358:13432   */\n      swap2\n      pop\n        /* \"#utility.yul\":13441:13534   */\n      tag_503\n        /* \"#utility.yul\":13530:13533   */\n      dup3\n        /* \"#utility.yul\":13441:13534   */\n      tag_367\n      jump\t// in\n    tag_503:\n        /* \"#utility.yul\":13559:13561   */\n      0x20\n        /* \"#utility.yul\":13554:13557   */\n      dup3\n        /* \"#utility.yul\":13550:13562   */\n      add\n        /* \"#utility.yul\":13543:13562   */\n      swap1\n      pop\n        /* \"#utility.yul\":13202:13568   */\n      swap2\n      swap1\n      pop\n      jump\t// out\n        /* \"#utility.yul\":13574:13993   */\n    tag_130:\n        /* \"#utility.yul\":13740:13744   */\n      0x00\n        /* \"#utility.yul\":13778:13780   */\n      0x20\n        /* \"#utility.yul\":13767:13776   */\n      dup3\n        /* \"#utility.yul\":13763:13781   */\n      add\n        /* \"#utility.yul\":13755:13781   */\n      swap1\n      pop\n        /* \"#utility.yul\":13827:13836   */\n      dup2\n        /* \"#utility.yul\":13821:13825   */\n      dup2\n        /* \"#utility.yul\":13817:13837   */\n      sub\n        /* \"#utility.yul\":13813:13814   */\n      0x00\n        /* \"#utility.yul\":13802:13811   */\n      dup4\n        /* \"#utility.yul\":13798:13815   */\n      add\n        /* \"#utility.yul\":13791:13838   */\n      mstore\n        /* \"#utility.yul\":13855:13986   */\n      tag_505\n        /* \"#utility.yul\":13981:13985   */\n      dup2\n        /* \"#utility.yul\":13855:13986   */\n      tag_368\n      jump\t// in\n    tag_505:\n        /* \"#utility.yul\":13847:13986   */\n      swap1\n      pop\n        /* \"#utility.yul\":13574:13993   */\n      swap2\n      swap1\n      pop\n      jump\t// out\n        /* \"#utility.yul\":13999:14331   */\n    tag_141:\n        /* \"#utility.yul\":14120:14124   */\n      0x00\n        /* \"#utility.yul\":14158:14160   */\n      0x40\n        /* \"#utility.yul\":14147:14156   */\n      dup3\n        /* \"#utility.yul\":14143:14161   */\n      add\n        /* \"#utility.yul\":14135:14161   */\n      swap1\n      pop\n        /* \"#utility.yul\":14171:14242   */\n      tag_507\n        /* \"#utility.yul\":14239:14240   */\n      0x00\n        /* \"#utility.yul\":14228:14237   */\n      dup4\n        /* \"#utility.yul\":14224:14241   */\n      add\n        /* \"#utility.yul\":14215:14221   */\n      dup6\n        /* \"#utility.yul\":14171:14242   */\n      tag_342\n      jump\t// in\n    tag_507:\n        /* \"#utility.yul\":14252:14324   */\n      tag_508\n        /* \"#utility.yul\":14320:14322   */\n      0x20\n        /* \"#utility.yul\":14309:14318   */\n      dup4\n        /* \"#utility.yul\":14305:14323   */\n      add\n        /* \"#utility.yul\":14296:14302   */\n      dup5\n        /* \"#utility.yul\":14252:14324   */\n      tag_344\n      jump\t// in\n    tag_508:\n        /* \"#utility.yul\":13999:14331   */\n      swap4\n      swap3\n      pop\n      pop\n      pop\n      jump\t// out\n        /* \"#utility.yul\":14337:14563   */\n    tag_369:\n        /* \"#utility.yul\":14477:14511   */\n      0x546f6b656e207472616e73666572206261636b20746f20726571756573746f72\n        /* \"#utility.yul\":14473:14474   */\n      0x00\n        /* \"#utility.yul\":14465:14471   */\n      dup3\n        /* \"#utility.yul\":14461:14475   */\n      add\n        /* \"#utility.yul\":14454:14512   */\n      mstore\n        /* \"#utility.yul\":14546:14555   */\n      0x206661696c656400000000000000000000000000000000000000000000000000\n        /* \"#utility.yul\":14541:14543   */\n      0x20\n        /* \"#utility.yul\":14533:14539   */\n      dup3\n        /* \"#utility.yul\":14529:14544   */\n      add\n        /* \"#utility.yul\":14522:14556   */\n      mstore\n        /* \"#utility.yul\":14337:14563   */\n      pop\n      jump\t// out\n        /* \"#utility.yul\":14569:14935   */\n    tag_370:\n        /* \"#utility.yul\":14711:14714   */\n      0x00\n        /* \"#utility.yul\":14732:14799   */\n      tag_511\n        /* \"#utility.yul\":14796:14798   */\n      0x27\n        /* \"#utility.yul\":14791:14794   */\n      dup4\n        /* \"#utility.yul\":14732:14799   */\n      tag_351\n      jump\t// in\n    tag_511:\n        /* \"#utility.yul\":14725:14799   */\n      swap2\n      pop\n        /* \"#utility.yul\":14808:14901   */\n      tag_512\n        /* \"#utility.yul\":14897:14900   */\n      dup3\n        /* \"#utility.yul\":14808:14901   */\n      tag_369\n      jump\t// in\n    tag_512:\n        /* \"#utility.yul\":14926:14928   */\n      0x40\n        /* \"#utility.yul\":14921:14924   */\n      dup3\n        /* \"#utility.yul\":14917:14929   */\n      add\n        /* \"#utility.yul\":14910:14929   */\n      swap1\n      pop\n        /* \"#utility.yul\":14569:14935   */\n      swap2\n      swap1\n      pop\n      jump\t// out\n        /* \"#utility.yul\":14941:15360   */\n    tag_147:\n        /* \"#utility.yul\":15107:15111   */\n      0x00\n        /* \"#utility.yul\":15145:15147   */\n      0x20\n        /* \"#utility.yul\":15134:15143   */\n      dup3\n        /* \"#utility.yul\":15130:15148   */\n      add\n        /* \"#utility.yul\":15122:15148   */\n      swap1\n      pop\n        /* \"#utility.yul\":15194:15203   */\n      dup2\n        /* \"#utility.yul\":15188:15192   */\n      dup2\n        /* \"#utility.yul\":15184:15204   */\n      sub\n        /* \"#utility.yul\":15180:15181   */\n      0x00\n        /* \"#utility.yul\":15169:15178   */\n      dup4\n        /* \"#utility.yul\":15165:15182   */\n      add\n        /* \"#utility.yul\":15158:15205   */\n      mstore\n        /* \"#utility.yul\":15222:15353   */\n      tag_514\n        /* \"#utility.yul\":15348:15352   */\n      dup2\n        /* \"#utility.yul\":15222:15353   */\n      tag_370\n      jump\t// in\n    tag_514:\n        /* \"#utility.yul\":15214:15353   */\n      swap1\n      pop\n        /* \"#utility.yul\":14941:15360   */\n      swap2\n      swap1\n      pop\n      jump\t// out\n        /* \"#utility.yul\":15366:15546   */\n    tag_371:\n        /* \"#utility.yul\":15414:15491   */\n      0x4e487b7100000000000000000000000000000000000000000000000000000000\n        /* \"#utility.yul\":15411:15412   */\n      0x00\n        /* \"#utility.yul\":15404:15492   */\n      mstore\n        /* \"#utility.yul\":15511:15515   */\n      0x11\n        /* \"#utility.yul\":15508:15509   */\n      0x04\n        /* \"#utility.yul\":15501:15516   */\n      mstore\n        /* \"#utility.yul\":15535:15539   */\n      0x24\n        /* \"#utility.yul\":15532:15533   */\n      0x00\n        /* \"#utility.yul\":15525:15540   */\n      revert\n        /* \"#utility.yul\":15552:15962   */\n    tag_151:\n        /* \"#utility.yul\":15592:15599   */\n      0x00\n        /* \"#utility.yul\":15615:15635   */\n      tag_517\n        /* \"#utility.yul\":15633:15634   */\n      dup3\n        /* \"#utility.yul\":15615:15635   */\n      tag_343\n      jump\t// in\n    tag_517:\n        /* \"#utility.yul\":15610:15635   */\n      swap2\n      pop\n        /* \"#utility.yul\":15649:15669   */\n      tag_518\n        /* \"#utility.yul\":15667:15668   */\n      dup4\n        /* \"#utility.yul\":15649:15669   */\n      tag_343\n      jump\t// in\n    tag_518:\n        /* \"#utility.yul\":15644:15669   */\n      swap3\n      pop\n        /* \"#utility.yul\":15704:15705   */\n      dup3\n        /* \"#utility.yul\":15701:15702   */\n      dup3\n        /* \"#utility.yul\":15697:15706   */\n      mul\n        /* \"#utility.yul\":15726:15756   */\n      tag_519\n        /* \"#utility.yul\":15744:15755   */\n      dup2\n        /* \"#utility.yul\":15726:15756   */\n      tag_343\n      jump\t// in\n    tag_519:\n        /* \"#utility.yul\":15715:15756   */\n      swap2\n      pop\n        /* \"#utility.yul\":15905:15906   */\n      dup3\n        /* \"#utility.yul\":15896:15903   */\n      dup3\n        /* \"#utility.yul\":15892:15907   */\n      div\n        /* \"#utility.yul\":15889:15890   */\n      dup5\n        /* \"#utility.yul\":15886:15908   */\n      eq\n        /* \"#utility.yul\":15866:15867   */\n      dup4\n        /* \"#utility.yul\":15859:15868   */\n      iszero\n        /* \"#utility.yul\":15839:15922   */\n      or\n        /* \"#utility.yul\":15816:15955   */\n      tag_520\n      jumpi\n        /* \"#utility.yul\":15935:15953   */\n      tag_521\n      tag_371\n      jump\t// in\n    tag_521:\n        /* \"#utility.yul\":15816:15955   */\n    tag_520:\n        /* \"#utility.yul\":15600:15962   */\n      pop\n        /* \"#utility.yul\":15552:15962   */\n      swap3\n      swap2\n      pop\n      pop\n      jump\t// out\n        /* \"#utility.yul\":15968:16162   */\n    tag_181:\n        /* \"#utility.yul\":16008:16012   */\n      0x00\n        /* \"#utility.yul\":16028:16048   */\n      tag_523\n        /* \"#utility.yul\":16046:16047   */\n      dup3\n        /* \"#utility.yul\":16028:16048   */\n      tag_343\n      jump\t// in\n    tag_523:\n        /* \"#utility.yul\":16023:16048   */\n      swap2\n      pop\n        /* \"#utility.yul\":16062:16082   */\n      tag_524\n        /* \"#utility.yul\":16080:16081   */\n      dup4\n        /* \"#utility.yul\":16062:16082   */\n      tag_343\n      jump\t// in\n    tag_524:\n        /* \"#utility.yul\":16057:16082   */\n      swap3\n      pop\n        /* \"#utility.yul\":16106:16107   */\n      dup3\n        /* \"#utility.yul\":16103:16104   */\n      dup3\n        /* \"#utility.yul\":16099:16108   */\n      sub\n        /* \"#utility.yul\":16091:16108   */\n      swap1\n      pop\n        /* \"#utility.yul\":16130:16131   */\n      dup2\n        /* \"#utility.yul\":16124:16128   */\n      dup2\n        /* \"#utility.yul\":16121:16132   */\n      gt\n        /* \"#utility.yul\":16118:16155   */\n      iszero\n      tag_525\n      jumpi\n        /* \"#utility.yul\":16135:16153   */\n      tag_526\n      tag_371\n      jump\t// in\n    tag_526:\n        /* \"#utility.yul\":16118:16155   */\n    tag_525:\n        /* \"#utility.yul\":15968:16162   */\n      swap3\n      swap2\n      pop\n      pop\n      jump\t// out\n        /* \"#utility.yul\":16168:16398   */\n    tag_372:\n        /* \"#utility.yul\":16308:16342   */\n      0x5472616e7366657220746f20746865207a65726f206164647265737320697320\n        /* \"#utility.yul\":16304:16305   */\n      0x00\n        /* \"#utility.yul\":16296:16302   */\n      dup3\n        /* \"#utility.yul\":16292:16306   */\n      add\n        /* \"#utility.yul\":16285:16343   */\n      mstore\n        /* \"#utility.yul\":16377:16390   */\n      0x6e6f7420616c6c6f776564000000000000000000000000000000000000000000\n        /* \"#utility.yul\":16372:16374   */\n      0x20\n        /* \"#utility.yul\":16364:16370   */\n      dup3\n        /* \"#utility.yul\":16360:16375   */\n      add\n        /* \"#utility.yul\":16353:16391   */\n      mstore\n        /* \"#utility.yul\":16168:16398   */\n      pop\n      jump\t// out\n        /* \"#utility.yul\":16404:16770   */\n    tag_373:\n        /* \"#utility.yul\":16546:16549   */\n      0x00\n        /* \"#utility.yul\":16567:16634   */\n      tag_529\n        /* \"#utility.yul\":16631:16633   */\n      0x2b\n        /* \"#utility.yul\":16626:16629   */\n      dup4\n        /* \"#utility.yul\":16567:16634   */\n      tag_351\n      jump\t// in\n    tag_529:\n        /* \"#utility.yul\":16560:16634   */\n      swap2\n      pop\n        /* \"#utility.yul\":16643:16736   */\n      tag_530\n        /* \"#utility.yul\":16732:16735   */\n      dup3\n        /* \"#utility.yul\":16643:16736   */\n      tag_372\n      jump\t// in\n    tag_530:\n        /* \"#utility.yul\":16761:16763   */\n      0x40\n        /* \"#utility.yul\":16756:16759   */\n      dup3\n        /* \"#utility.yul\":16752:16764   */\n      add\n        /* \"#utility.yul\":16745:16764   */\n      swap1\n      pop\n        /* \"#utility.yul\":16404:16770   */\n      swap2\n      swap1\n      pop\n      jump\t// out\n        /* \"#utility.yul\":16776:17195   */\n    tag_189:\n        /* \"#utility.yul\":16942:16946   */\n      0x00\n        /* \"#utility.yul\":16980:16982   */\n      0x20\n        /* \"#utility.yul\":16969:16978   */\n      dup3\n        /* \"#utility.yul\":16965:16983   */\n      add\n        /* \"#utility.yul\":16957:16983   */\n      swap1\n      pop\n        /* \"#utility.yul\":17029:17038   */\n      dup2\n        /* \"#utility.yul\":17023:17027   */\n      dup2\n        /* \"#utility.yul\":17019:17039   */\n      sub\n        /* \"#utility.yul\":17015:17016   */\n      0x00\n        /* \"#utility.yul\":17004:17013   */\n      dup4\n        /* \"#utility.yul\":17000:17017   */\n      add\n        /* \"#utility.yul\":16993:17040   */\n      mstore\n        /* \"#utility.yul\":17057:17188   */\n      tag_532\n        /* \"#utility.yul\":17183:17187   */\n      dup2\n        /* \"#utility.yul\":17057:17188   */\n      tag_373\n      jump\t// in\n    tag_532:\n        /* \"#utility.yul\":17049:17188   */\n      swap1\n      pop\n        /* \"#utility.yul\":16776:17195   */\n      swap2\n      swap1\n      pop\n      jump\t// out\n        /* \"#utility.yul\":17201:17381   */\n    tag_206:\n        /* \"#utility.yul\":17249:17326   */\n      0x4e487b7100000000000000000000000000000000000000000000000000000000\n        /* \"#utility.yul\":17246:17247   */\n      0x00\n        /* \"#utility.yul\":17239:17327   */\n      mstore\n        /* \"#utility.yul\":17346:17350   */\n      0x32\n        /* \"#utility.yul\":17343:17344   */\n      0x04\n        /* \"#utility.yul\":17336:17351   */\n      mstore\n        /* \"#utility.yul\":17370:17374   */\n      0x24\n        /* \"#utility.yul\":17367:17368   */\n      0x00\n        /* \"#utility.yul\":17360:17375   */\n      revert\n        /* \"#utility.yul\":17387:17558   */\n    tag_221:\n        /* \"#utility.yul\":17426:17429   */\n      0x00\n        /* \"#utility.yul\":17449:17473   */\n      tag_535\n        /* \"#utility.yul\":17467:17472   */\n      dup3\n        /* \"#utility.yul\":17449:17473   */\n      tag_343\n      jump\t// in\n    tag_535:\n        /* \"#utility.yul\":17440:17473   */\n      swap2\n      pop\n        /* \"#utility.yul\":17495:17499   */\n      0x00\n        /* \"#utility.yul\":17488:17493   */\n      dup3\n        /* \"#utility.yul\":17485:17500   */\n      sub\n        /* \"#utility.yul\":17482:17523   */\n      tag_536\n      jumpi\n        /* \"#utility.yul\":17503:17521   */\n      tag_537\n      tag_371\n      jump\t// in\n    tag_537:\n        /* \"#utility.yul\":17482:17523   */\n    tag_536:\n        /* \"#utility.yul\":17550:17551   */\n      0x01\n        /* \"#utility.yul\":17543:17548   */\n      dup3\n        /* \"#utility.yul\":17539:17552   */\n      sub\n        /* \"#utility.yul\":17532:17552   */\n      swap1\n      pop\n        /* \"#utility.yul\":17387:17558   */\n      swap2\n      swap1\n      pop\n      jump\t// out\n        /* \"#utility.yul\":17564:17711   */\n    tag_374:\n        /* \"#utility.yul\":17665:17676   */\n      0x00\n        /* \"#utility.yul\":17702:17705   */\n      dup2\n        /* \"#utility.yul\":17687:17705   */\n      swap1\n      pop\n        /* \"#utility.yul\":17564:17711   */\n      swap3\n      swap2\n      pop\n      pop\n      jump\t// out\n        /* \"#utility.yul\":17717:17831   */\n    tag_375:\n      pop\n      jump\t// out\n        /* \"#utility.yul\":17837:18235   */\n    tag_376:\n        /* \"#utility.yul\":17996:17999   */\n      0x00\n        /* \"#utility.yul\":18017:18100   */\n      tag_541\n        /* \"#utility.yul\":18098:18099   */\n      0x00\n        /* \"#utility.yul\":18093:18096   */\n      dup4\n        /* \"#utility.yul\":18017:18100   */\n      tag_374\n      jump\t// in\n    tag_541:\n        /* \"#utility.yul\":18010:18100   */\n      swap2\n      pop\n        /* \"#utility.yul\":18109:18202   */\n      tag_542\n        /* \"#utility.yul\":18198:18201   */\n      dup3\n        /* \"#utility.yul\":18109:18202   */\n      tag_375\n      jump\t// in\n    tag_542:\n        /* \"#utility.yul\":18227:18228   */\n      0x00\n        /* \"#utility.yul\":18222:18225   */\n      dup3\n        /* \"#utility.yul\":18218:18229   */\n      add\n        /* \"#utility.yul\":18211:18229   */\n      swap1\n      pop\n        /* \"#utility.yul\":17837:18235   */\n      swap2\n      swap1\n      pop\n      jump\t// out\n        /* \"#utility.yul\":18241:18620   */\n    tag_230:\n        /* \"#utility.yul\":18425:18428   */\n      0x00\n        /* \"#utility.yul\":18447:18594   */\n      tag_544\n        /* \"#utility.yul\":18590:18593   */\n      dup3\n        /* \"#utility.yul\":18447:18594   */\n      tag_376\n      jump\t// in\n    tag_544:\n        /* \"#utility.yul\":18440:18594   */\n      swap2\n      pop\n        /* \"#utility.yul\":18611:18614   */\n      dup2\n        /* \"#utility.yul\":18604:18614   */\n      swap1\n      pop\n        /* \"#utility.yul\":18241:18620   */\n      swap2\n      swap1\n      pop\n      jump\t// out\n        /* \"#utility.yul\":18626:18796   */\n    tag_377:\n        /* \"#utility.yul\":18766:18788   */\n      0x4661696c656420746f2073656e64204574686572000000000000000000000000\n        /* \"#utility.yul\":18762:18763   */\n      0x00\n        /* \"#utility.yul\":18754:18760   */\n      dup3\n        /* \"#utility.yul\":18750:18764   */\n      add\n        /* \"#utility.yul\":18743:18789   */\n      mstore\n        /* \"#utility.yul\":18626:18796   */\n      pop\n      jump\t// out\n        /* \"#utility.yul\":18802:19168   */\n    tag_378:\n        /* \"#utility.yul\":18944:18947   */\n      0x00\n        /* \"#utility.yul\":18965:19032   */\n      tag_547\n        /* \"#utility.yul\":19029:19031   */\n      0x14\n        /* \"#utility.yul\":19024:19027   */\n      dup4\n        /* \"#utility.yul\":18965:19032   */\n      tag_351\n      jump\t// in\n    tag_547:\n        /* \"#utility.yul\":18958:19032   */\n      swap2\n      pop\n        /* \"#utility.yul\":19041:19134   */\n      tag_548\n        /* \"#utility.yul\":19130:19133   */\n      dup3\n        /* \"#utility.yul\":19041:19134   */\n      tag_377\n      jump\t// in\n    tag_548:\n        /* \"#utility.yul\":19159:19161   */\n      0x20\n        /* \"#utility.yul\":19154:19157   */\n      dup3\n        /* \"#utility.yul\":19150:19162   */\n      add\n        /* \"#utility.yul\":19143:19162   */\n      swap1\n      pop\n        /* \"#utility.yul\":18802:19168   */\n      swap2\n      swap1\n      pop\n      jump\t// out\n        /* \"#utility.yul\":19174:19593   */\n    tag_236:\n        /* \"#utility.yul\":19340:19344   */\n      0x00\n        /* \"#utility.yul\":19378:19380   */\n      0x20\n        /* \"#utility.yul\":19367:19376   */\n      dup3\n        /* \"#utility.yul\":19363:19381   */\n      add\n        /* \"#utility.yul\":19355:19381   */\n      swap1\n      pop\n        /* \"#utility.yul\":19427:19436   */\n      dup2\n        /* \"#utility.yul\":19421:19425   */\n      dup2\n        /* \"#utility.yul\":19417:19437   */\n      sub\n        /* \"#utility.yul\":19413:19414   */\n      0x00\n        /* \"#utility.yul\":19402:19411   */\n      dup4\n        /* \"#utility.yul\":19398:19415   */\n      add\n        /* \"#utility.yul\":19391:19438   */\n      mstore\n        /* \"#utility.yul\":19455:19586   */\n      tag_550\n        /* \"#utility.yul\":19581:19585   */\n      dup2\n        /* \"#utility.yul\":19455:19586   */\n      tag_378\n      jump\t// in\n    tag_550:\n        /* \"#utility.yul\":19447:19586   */\n      swap1\n      pop\n        /* \"#utility.yul\":19174:19593   */\n      swap2\n      swap1\n      pop\n      jump\t// out\n        /* \"#utility.yul\":19599:19779   */\n    tag_261:\n        /* \"#utility.yul\":19647:19724   */\n      0x4e487b7100000000000000000000000000000000000000000000000000000000\n        /* \"#utility.yul\":19644:19645   */\n      0x00\n        /* \"#utility.yul\":19637:19725   */\n      mstore\n        /* \"#utility.yul\":19744:19748   */\n      0x31\n        /* \"#utility.yul\":19741:19742   */\n      0x04\n        /* \"#utility.yul\":19734:19749   */\n      mstore\n        /* \"#utility.yul\":19768:19772   */\n      0x24\n        /* \"#utility.yul\":19765:19766   */\n      0x00\n        /* \"#utility.yul\":19758:19773   */\n      revert\n        /* \"#utility.yul\":19785:19965   */\n    tag_379:\n        /* \"#utility.yul\":19925:19957   */\n      0x546f6b656e207472616e7366657220746f206275796572206661696c65640000\n        /* \"#utility.yul\":19921:19922   */\n      0x00\n        /* \"#utility.yul\":19913:19919   */\n      dup3\n        /* \"#utility.yul\":19909:19923   */\n      add\n        /* \"#utility.yul\":19902:19958   */\n      mstore\n        /* \"#utility.yul\":19785:19965   */\n      pop\n      jump\t// out\n        /* \"#utility.yul\":19971:20337   */\n    tag_380:\n        /* \"#utility.yul\":20113:20116   */\n      0x00\n        /* \"#utility.yul\":20134:20201   */\n      tag_554\n        /* \"#utility.yul\":20198:20200   */\n      0x1e\n        /* \"#utility.yul\":20193:20196   */\n      dup4\n        /* \"#utility.yul\":20134:20201   */\n      tag_351\n      jump\t// in\n    tag_554:\n        /* \"#utility.yul\":20127:20201   */\n      swap2\n      pop\n        /* \"#utility.yul\":20210:20303   */\n      tag_555\n        /* \"#utility.yul\":20299:20302   */\n      dup3\n        /* \"#utility.yul\":20210:20303   */\n      tag_379\n      jump\t// in\n    tag_555:\n        /* \"#utility.yul\":20328:20330   */\n      0x20\n        /* \"#utility.yul\":20323:20326   */\n      dup3\n        /* \"#utility.yul\":20319:20331   */\n      add\n        /* \"#utility.yul\":20312:20331   */\n      swap1\n      pop\n        /* \"#utility.yul\":19971:20337   */\n      swap2\n      swap1\n      pop\n      jump\t// out\n        /* \"#utility.yul\":20343:20762   */\n    tag_292:\n        /* \"#utility.yul\":20509:20513   */\n      0x00\n        /* \"#utility.yul\":20547:20549   */\n      0x20\n        /* \"#utility.yul\":20536:20545   */\n      dup3\n        /* \"#utility.yul\":20532:20550   */\n      add\n        /* \"#utility.yul\":20524:20550   */\n      swap1\n      pop\n        /* \"#utility.yul\":20596:20605   */\n      dup2\n        /* \"#utility.yul\":20590:20594   */\n      dup2\n        /* \"#utility.yul\":20586:20606   */\n      sub\n        /* \"#utility.yul\":20582:20583   */\n      0x00\n        /* \"#utility.yul\":20571:20580   */\n      dup4\n        /* \"#utility.yul\":20567:20584   */\n      add\n        /* \"#utility.yul\":20560:20607   */\n      mstore\n        /* \"#utility.yul\":20624:20755   */\n      tag_557\n        /* \"#utility.yul\":20750:20754   */\n      dup2\n        /* \"#utility.yul\":20624:20755   */\n      tag_380\n      jump\t// in\n    tag_557:\n        /* \"#utility.yul\":20616:20755   */\n      swap1\n      pop\n        /* \"#utility.yul\":20343:20762   */\n      swap2\n      swap1\n      pop\n      jump\t// out\n        /* \"#utility.yul\":20768:21236   */\n    tag_317:\n        /* \"#utility.yul\":20930:20934   */\n      0x00\n        /* \"#utility.yul\":20968:20970   */\n      0x60\n        /* \"#utility.yul\":20957:20966   */\n      dup3\n        /* \"#utility.yul\":20953:20971   */\n      add\n        /* \"#utility.yul\":20945:20971   */\n      swap1\n      pop\n        /* \"#utility.yul\":20981:21065   */\n      tag_559\n        /* \"#utility.yul\":21062:21063   */\n      0x00\n        /* \"#utility.yul\":21051:21060   */\n      dup4\n        /* \"#utility.yul\":21047:21064   */\n      add\n        /* \"#utility.yul\":21038:21044   */\n      dup7\n        /* \"#utility.yul\":20981:21065   */\n      tag_348\n      jump\t// in\n    tag_559:\n        /* \"#utility.yul\":21075:21147   */\n      tag_560\n        /* \"#utility.yul\":21143:21145   */\n      0x20\n        /* \"#utility.yul\":21132:21141   */\n      dup4\n        /* \"#utility.yul\":21128:21146   */\n      add\n        /* \"#utility.yul\":21119:21125   */\n      dup6\n        /* \"#utility.yul\":21075:21147   */\n      tag_344\n      jump\t// in\n    tag_560:\n        /* \"#utility.yul\":21157:21229   */\n      tag_561\n        /* \"#utility.yul\":21225:21227   */\n      0x40\n        /* \"#utility.yul\":21214:21223   */\n      dup4\n        /* \"#utility.yul\":21210:21228   */\n      add\n        /* \"#utility.yul\":21201:21207   */\n      dup5\n        /* \"#utility.yul\":21157:21229   */\n      tag_344\n      jump\t// in\n    tag_561:\n        /* \"#utility.yul\":20768:21236   */\n      swap5\n      swap4\n      pop\n      pop\n      pop\n      pop\n      jump\t// out\n\n    auxdata: 0xa2646970667358221220ede0569e3db35bce2a0ab881785c49423b5d4b591af3045cdf7b808f0756b40064736f6c63430008190033\n}\n",
				"bytecode": {
					"linkReferences": {},
					"object": "608060405234801561000f575f80fd5b50604051612f3c380380612f3c83398181016040528101906100319190610144565b808073ffffffffffffffffffffffffffffffffffffffff165f73ffffffffffffffffffffffffffffffffffffffff16036100a0576040517f08c379a0000000000000000000000000000000000000000000000000000000008152600401610097906101ef565b60405180910390fd5b815f806101000a81548173ffffffffffffffffffffffffffffffffffffffff021916908373ffffffffffffffffffffffffffffffffffffffff160217905550505061020d565b5f80fd5b5f73ffffffffffffffffffffffffffffffffffffffff82169050919050565b5f610113826100ea565b9050919050565b61012381610109565b811461012d575f80fd5b50565b5f8151905061013e8161011a565b92915050565b5f60208284031215610159576101586100e6565b5b5f61016684828501610130565b91505092915050565b5f82825260208201905092915050565b7f5472616e7366657220746f20746865207a65726f2061646472657373206973205f8201527f6e6f7420616c6c6f776564000000000000000000000000000000000000000000602082015250565b5f6101d9602b8361016f565b91506101e48261017f565b604082019050919050565b5f6020820190508181035f830152610206816101cd565b9050919050565b612d228061021a5f395ff3fe608060405260043610610090575f3560e01c8063851b16f511610058578063851b16f51461019e578063a760e06a146101b4578063c0b6f561146101d0578063c2eb05ba1461020c578063ce606ee01461023657610090565b806310731a65146100945780631a4b3311146100be5780631fb64da0146100fe57806373b298e21461013a57806383588b9914610162575b5f80fd5b34801561009f575f80fd5b506100a8610260565b6040516100b591906122e5565b60405180910390f35b3480156100c9575f80fd5b506100e460048036038101906100df919061235c565b6103fb565b6040516100f5959493929190612421565b60405180910390f35b348015610109575f80fd5b50610124600480360381019061011f919061249c565b610458565b60405161013191906124da565b60405180910390f35b348015610145575f80fd5b50610160600480360381019061015b91906124f3565b6104a0565b005b34801561016d575f80fd5b506101886004803603810190610183919061249c565b61091d565b60405161019591906124da565b60405180910390f35b3480156101a9575f80fd5b506101b2610965565b005b6101ce60048036038101906101c991906124f3565b610e88565b005b3480156101db575f80fd5b506101f660048036038101906101f1919061235c565b611185565b60405161020391906122e5565b60405180910390f35b348015610217575f80fd5b50610220611369565b60405161022d91906124da565b60405180910390f35b348015610241575f80fd5b5061024a61138e565b60405161025791906124da565b60405180910390f35b5f60015f9054906101000a900473ffffffffffffffffffffffffffffffffffffffff168073ffffffffffffffffffffffffffffffffffffffff163373ffffffffffffffffffffffffffffffffffffffff16146102f1576040517f08c379a00000000000000000000000000000000000000000000000000000000081526004016102e89061259d565b60405180910390fd5b60015f9054906101000a900473ffffffffffffffffffffffffffffffffffffffff165f806101000a81548173ffffffffffffffffffffffffffffffffffffffff021916908373ffffffffffffffffffffffffffffffffffffffff1602179055505f60015f6101000a81548173ffffffffffffffffffffffffffffffffffffffff021916908373ffffffffffffffffffffffffffffffffffffffff1602179055505f8054906101000a900473ffffffffffffffffffffffffffffffffffffffff1673ffffffffffffffffffffffffffffffffffffffff167f041e8ee868cb815a7e5cd1a100e6ff024772d79c071718c049ab7d3bc4e1226d60405160405180910390a2600191505090565b6002602052805f5260405f205f91509050805f015f9054906101000a900473ffffffffffffffffffffffffffffffffffffffff1690806001015490806002015490806003015490806004015f9054906101000a900460ff16905085565b6004602052815f5260405f208181548110610471575f80fd5b905f5260205f20015f915091509054906101000a900473ffffffffffffffffffffffffffffffffffffffff1681565b8260055f8273ffffffffffffffffffffffffffffffffffffffff1673ffffffffffffffffffffffffffffffffffffffff1681526020019081526020015f205f9054906101000a900460ff1661052a576040517f08c379a000000000000000000000000000000000000000000000000000000000815260040161052190612605565b60405180910390fd5b5f60055f8373ffffffffffffffffffffffffffffffffffffffff1673ffffffffffffffffffffffffffffffffffffffff1681526020019081526020015f205f6101000a81548160ff0219169083151502179055505f6002811115610591576105906123ae565b5b60025f3373ffffffffffffffffffffffffffffffffffffffff1673ffffffffffffffffffffffffffffffffffffffff1681526020019081526020015f206004015f9054906101000a900460ff1660028111156105f0576105ef6123ae565b5b146105f9575f80fd5b825f810361063c576040517f08c379a00000000000000000000000000000000000000000000000000000000081526004016106339061266d565b60405180910390fd5b825f810361067f576040517f08c379a0000000000000000000000000000000000000000000000000000000008152600401610676906126d5565b60405180910390fd5b8585808273ffffffffffffffffffffffffffffffffffffffff1663dd62ed3e33306040518363ffffffff1660e01b81526004016106bd9291906126f3565b602060405180830381865afa1580156106d8573d5f803e3d5ffd5b505050506040513d601f19601f820116820180604052508101906106fc919061272e565b1015610706575f80fd5b8787808273ffffffffffffffffffffffffffffffffffffffff166370a08231336040518263ffffffff1660e01b815260040161074291906124da565b602060405180830381865afa15801561075d573d5f803e3d5ffd5b505050506040513d601f19601f82011682018060405250810190610781919061272e565b101561078b575f80fd5b600160025f3373ffffffffffffffffffffffffffffffffffffffff1673ffffffffffffffffffffffffffffffffffffffff1681526020019081526020015f206004015f6101000a81548160ff021916908360028111156107ee576107ed6123ae565b5b02179055508973ffffffffffffffffffffffffffffffffffffffff166323b872dd33308c6040518463ffffffff1660e01b815260040161083093929190612759565b6020604051808303815f875af115801561084c573d5f803e3d5ffd5b505050506040513d601f19601f8201168201806040525081019061087091906127b8565b6108af576040517f08c379a00000000000000000000000000000000000000000000000000000000081526004016108a690612853565b60405180910390fd5b6108bc8a8a8a60016113b1565b505050505050600160055f8373ffffffffffffffffffffffffffffffffffffffff1673ffffffffffffffffffffffffffffffffffffffff1681526020019081526020015f205f6101000a81548160ff02191690831515021790555050505050565b6003602052815f5260405f208181548110610936575f80fd5b905f5260205f20015f915091509054906101000a900473ffffffffffffffffffffffffffffffffffffffff1681565b60025f3373ffffffffffffffffffffffffffffffffffffffff1673ffffffffffffffffffffffffffffffffffffffff1681526020019081526020015f205f015f9054906101000a900473ffffffffffffffffffffffffffffffffffffffff1660055f8273ffffffffffffffffffffffffffffffffffffffff1673ffffffffffffffffffffffffffffffffffffffff1681526020019081526020015f205f9054906101000a900460ff16610a4d576040517f08c379a0000000000000000000000000000000000000000000000000000000008152600401610a4490612605565b60405180910390fd5b5f60055f8373ffffffffffffffffffffffffffffffffffffffff1673ffffffffffffffffffffffffffffffffffffffff1681526020019081526020015f205f6101000a81548160ff0219169083151502179055505f6002811115610ab457610ab36123ae565b5b60025f3373ffffffffffffffffffffffffffffffffffffffff1673ffffffffffffffffffffffffffffffffffffffff1681526020019081526020015f206004015f9054906101000a900460ff166002811115610b1357610b126123ae565b5b03610b53576040517f08c379a0000000000000000000000000000000000000000000000000000000008152600401610b4a906128bb565b60405180910390fd5b5f60025f3373ffffffffffffffffffffffffffffffffffffffff1673ffffffffffffffffffffffffffffffffffffffff1681526020019081526020015f206002015403610bd5576040517f08c379a0000000000000000000000000000000000000000000000000000000008152600401610bcc90612923565b60405180910390fd5b5f60025f3373ffffffffffffffffffffffffffffffffffffffff1673ffffffffffffffffffffffffffffffffffffffff1681526020019081526020015f206040518060a00160405290815f82015f9054906101000a900473ffffffffffffffffffffffffffffffffffffffff1673ffffffffffffffffffffffffffffffffffffffff1673ffffffffffffffffffffffffffffffffffffffff168152602001600182015481526020016002820154815260200160038201548152602001600482015f9054906101000a900460ff166002811115610cb457610cb36123ae565b5b6002811115610cc657610cc56123ae565b5b8152505090505f816040015190505f60025f3373ffffffffffffffffffffffffffffffffffffffff1673ffffffffffffffffffffffffffffffffffffffff1681526020019081526020015f206002018190555060016002811115610d2d57610d2c6123ae565b5b82608001516002811115610d4457610d436123ae565b5b03610e0b57815f015173ffffffffffffffffffffffffffffffffffffffff1663a9059cbb33836040518363ffffffff1660e01b8152600401610d87929190612941565b6020604051808303815f875af1158015610da3573d5f803e3d5ffd5b505050506040513d601f19601f82011682018060405250810190610dc791906127b8565b610e06576040517f08c379a0000000000000000000000000000000000000000000000000000000008152600401610dfd906129d8565b60405180910390fd5b610e25565b610e2433836060015183610e1f9190612a23565b611700565b5b610e2e336117ad565b5050600160055f8373ffffffffffffffffffffffffffffffffffffffff1673ffffffffffffffffffffffffffffffffffffffff1681526020019081526020015f205f6101000a81548160ff02191690831515021790555050565b8260055f8273ffffffffffffffffffffffffffffffffffffffff1673ffffffffffffffffffffffffffffffffffffffff1681526020019081526020015f205f9054906101000a900460ff16610f12576040517f08c379a0000000000000000000000000000000000000000000000000000000008152600401610f0990612605565b60405180910390fd5b5f60055f8373ffffffffffffffffffffffffffffffffffffffff1673ffffffffffffffffffffffffffffffffffffffff1681526020019081526020015f205f6101000a81548160ff0219169083151502179055505f6002811115610f7957610f786123ae565b5b60025f3373ffffffffffffffffffffffffffffffffffffffff1673ffffffffffffffffffffffffffffffffffffffff1681526020019081526020015f206004015f9054906101000a900460ff166002811115610fd857610fd76123ae565b5b14610fe1575f80fd5b825f8103611024576040517f08c379a000000000000000000000000000000000000000000000000000000000815260040161101b9061266d565b60405180910390fd5b825f8103611067576040517f08c379a000000000000000000000000000000000000000000000000000000000815260040161105e906126d5565b60405180910390fd5b83856110739190612a23565b8034101561107f575f80fd5b6002805f3373ffffffffffffffffffffffffffffffffffffffff1673ffffffffffffffffffffffffffffffffffffffff1681526020019081526020015f206004015f6101000a81548160ff021916908360028111156110e1576110e06123ae565b5b021790555084866110f29190612a23565b34111561111a576111193386886111099190612a23565b346111149190612a64565b611700565b5b61112787878760026113b1565b505050600160055f8373ffffffffffffffffffffffffffffffffffffffff1673ffffffffffffffffffffffffffffffffffffffff1681526020019081526020015f205f6101000a81548160ff02191690831515021790555050505050565b5f805f9054906101000a900473ffffffffffffffffffffffffffffffffffffffff168073ffffffffffffffffffffffffffffffffffffffff163373ffffffffffffffffffffffffffffffffffffffff1614611215576040517f08c379a000000000000000000000000000000000000000000000000000000000815260040161120c9061259d565b60405180910390fd5b828073ffffffffffffffffffffffffffffffffffffffff165f73ffffffffffffffffffffffffffffffffffffffff1603611284576040517f08c379a000000000000000000000000000000000000000000000000000000000815260040161127b90612b07565b60405180910390fd5b8360015f6101000a81548173ffffffffffffffffffffffffffffffffffffffff021916908373ffffffffffffffffffffffffffffffffffffffff16021790555060015f9054906101000a900473ffffffffffffffffffffffffffffffffffffffff1673ffffffffffffffffffffffffffffffffffffffff165f8054906101000a900473ffffffffffffffffffffffffffffffffffffffff1673ffffffffffffffffffffffffffffffffffffffff167ffee8bf98f40b2ac772a78cd4d45742484d3471f99046b224f8e6922e7c6eb1d260405160405180910390a3600192505050919050565b60015f9054906101000a900473ffffffffffffffffffffffffffffffffffffffff1681565b5f8054906101000a900473ffffffffffffffffffffffffffffffffffffffff1681565b5f600160028111156113c6576113c56123ae565b5b8260028111156113d9576113d86123ae565b5b146114205760035f8673ffffffffffffffffffffffffffffffffffffffff1673ffffffffffffffffffffffffffffffffffffffff1681526020019081526020015f2061145e565b60045f8673ffffffffffffffffffffffffffffffffffffffff1673ffffffffffffffffffffffffffffffffffffffff1681526020019081526020015f205b8054806020026020016040519081016040528092919081815260200182805480156114db57602002820191905f5260205f20905b815f9054906101000a900473ffffffffffffffffffffffffffffffffffffffff1673ffffffffffffffffffffffffffffffffffffffff1681526020019060010190808311611492575b505050505090505f8490505f825190505b5f811115611676575f60025f856001856115069190612a64565b8151811061151757611516612b25565b5b602002602001015173ffffffffffffffffffffffffffffffffffffffff1673ffffffffffffffffffffffffffffffffffffffff1681526020019081526020015f206040518060a00160405290815f82015f9054906101000a900473ffffffffffffffffffffffffffffffffffffffff1673ffffffffffffffffffffffffffffffffffffffff1673ffffffffffffffffffffffffffffffffffffffff168152602001600182015481526020016002820154815260200160038201548152602001600482015f9054906101000a900460ff1660028111156115f9576115f86123ae565b5b600281111561160b5761160a6123ae565b5b81525050905061161b8187611b46565b156116625761165288856001856116329190612a64565b8151811061164357611642612b25565b5b60200260200101518589611baf565b92505f83036116615750611676565b5b50808061166e90612b52565b9150506114ec565b505f8111156116905761168b8682868661201d565b6116f8565b5f60025f3373ffffffffffffffffffffffffffffffffffffffff1673ffffffffffffffffffffffffffffffffffffffff1681526020019081526020015f206004015f6101000a81548160ff021916908360028111156116f2576116f16123ae565b5b02179055505b505050505050565b5f8273ffffffffffffffffffffffffffffffffffffffff168260405161172590612ba6565b5f6040518083038185875af1925050503d805f811461175f576040519150601f19603f3d011682016040523d82523d5f602084013e611764565b606091505b50509050806117a8576040517f08c379a000000000000000000000000000000000000000000000000000000000815260040161179f90612c04565b60405180910390fd5b505050565b5f60025f8373ffffffffffffffffffffffffffffffffffffffff1673ffffffffffffffffffffffffffffffffffffffff1681526020019081526020015f206040518060a00160405290815f82015f9054906101000a900473ffffffffffffffffffffffffffffffffffffffff1673ffffffffffffffffffffffffffffffffffffffff1673ffffffffffffffffffffffffffffffffffffffff168152602001600182015481526020016002820154815260200160038201548152602001600482015f9054906101000a900460ff16600281111561188c5761188b6123ae565b5b600281111561189e5761189d6123ae565b5b8152505090505f600160028111156118b9576118b86123ae565b5b826080015160028111156118d0576118cf6123ae565b5b1461191a5760045f835f015173ffffffffffffffffffffffffffffffffffffffff1673ffffffffffffffffffffffffffffffffffffffff1681526020019081526020015f2061195b565b60035f835f015173ffffffffffffffffffffffffffffffffffffffff1673ffffffffffffffffffffffffffffffffffffffff1681526020019081526020015f205b9050816020015160025f83600185805490506119779190612a64565b8154811061198857611987612b25565b5b905f5260205f20015f9054906101000a900473ffffffffffffffffffffffffffffffffffffffff1673ffffffffffffffffffffffffffffffffffffffff1673ffffffffffffffffffffffffffffffffffffffff1681526020019081526020015f20600101819055508060018280549050611a029190612a64565b81548110611a1357611a12612b25565b5b905f5260205f20015f9054906101000a900473ffffffffffffffffffffffffffffffffffffffff1681836020015181548110611a5257611a51612b25565b5b905f5260205f20015f6101000a81548173ffffffffffffffffffffffffffffffffffffffff021916908373ffffffffffffffffffffffffffffffffffffffff16021790555080805480611aa857611aa7612c22565b5b600190038181905f5260205f20015f6101000a81549073ffffffffffffffffffffffffffffffffffffffff021916905590555f60025f8573ffffffffffffffffffffffffffffffffffffffff1673ffffffffffffffffffffffffffffffffffffffff1681526020019081526020015f206004015f6101000a81548160ff02191690836002811115611b3c57611b3b6123ae565b5b0217905550505050565b5f60016002811115611b5b57611b5a6123ae565b5b83608001516002811115611b7257611b716123ae565b5b03611b905781836060015111611b8b5760019050611ba9565b611ba5565b81836060015110611ba45760019050611ba9565b5b5f90505b92915050565b5f8060025f8673ffffffffffffffffffffffffffffffffffffffff1673ffffffffffffffffffffffffffffffffffffffff1681526020019081526020015f206040518060a00160405290815f82015f9054906101000a900473ffffffffffffffffffffffffffffffffffffffff1673ffffffffffffffffffffffffffffffffffffffff1673ffffffffffffffffffffffffffffffffffffffff168152602001600182015481526020016002820154815260200160038201548152602001600482015f9054906101000a900460ff166002811115611c8f57611c8e6123ae565b5b6002811115611ca157611ca06123ae565b5b8152505090505f81604001518510611cbd578160400151611cbf565b845b9050600280811115611cd457611cd36123ae565b5b82608001516002811115611ceb57611cea6123ae565b5b03611df9578673ffffffffffffffffffffffffffffffffffffffff1663a9059cbb87836040518363ffffffff1660e01b8152600401611d2b929190612941565b6020604051808303815f875af1158015611d47573d5f803e3d5ffd5b505050506040513d601f19601f82011682018060405250810190611d6b91906127b8565b611daa576040517f08c379a0000000000000000000000000000000000000000000000000000000008152600401611da190612c99565b60405180910390fd5b611dc333836060015183611dbe9190612a23565b611700565b8382606001511115611df457611df38682868560600151611de49190612a64565b611dee9190612a23565b611700565b5b611efe565b8673ffffffffffffffffffffffffffffffffffffffff1663a9059cbb33836040518363ffffffff1660e01b8152600401611e34929190612941565b6020604051808303815f875af1158015611e50573d5f803e3d5ffd5b505050506040513d601f19601f82011682018060405250810190611e7491906127b8565b611eb3576040517f08c379a0000000000000000000000000000000000000000000000000000000008152600401611eaa90612c99565b60405180910390fd5b611ecc86836060015183611ec79190612a23565b611700565b8382606001511015611efd57611efc3382846060015187611eed9190612a64565b611ef79190612a23565b611700565b5b5b8082604001818151611f109190612a64565b915081815250505f826040015103611f3057611f2b866117ad565b611f7a565b816040015160025f8873ffffffffffffffffffffffffffffffffffffffff1673ffffffffffffffffffffffffffffffffffffffff1681526020019081526020015f20600201819055505b8573ffffffffffffffffffffffffffffffffffffffff163373ffffffffffffffffffffffffffffffffffffffff168873ffffffffffffffffffffffffffffffffffffffff167f1ce728f6a2703272ee2e07cf07fd21ddc592575a5b6774a529b595fdf56dd1a68560800151858760600151604051611ffa93929190612cb7565b60405180910390a4808561200e9190612a64565b94508492505050949350505050565b5f60016002811115612032576120316123ae565b5b826002811115612045576120446123ae565b5b0361208c5760035f8673ffffffffffffffffffffffffffffffffffffffff1673ffffffffffffffffffffffffffffffffffffffff1681526020019081526020015f206120ca565b60045f8673ffffffffffffffffffffffffffffffffffffffff1673ffffffffffffffffffffffffffffffffffffffff1681526020019081526020015f205b90508033908060018154018082558091505060019003905f5260205f20015f9091909190916101000a81548173ffffffffffffffffffffffffffffffffffffffff021916908373ffffffffffffffffffffffffffffffffffffffff1602179055506040518060a001604052808673ffffffffffffffffffffffffffffffffffffffff168152602001600183805490506121639190612a64565b8152602001858152602001848152602001836002811115612187576121866123ae565b5b81525060025f3373ffffffffffffffffffffffffffffffffffffffff1673ffffffffffffffffffffffffffffffffffffffff1681526020019081526020015f205f820151815f015f6101000a81548173ffffffffffffffffffffffffffffffffffffffff021916908373ffffffffffffffffffffffffffffffffffffffff1602179055506020820151816001015560408201518160020155606082015181600301556080820151816004015f6101000a81548160ff02191690836002811115612253576122526123ae565b5b02179055509050503373ffffffffffffffffffffffffffffffffffffffff168573ffffffffffffffffffffffffffffffffffffffff167fba9e7b0a1a964fea173e3888ffbcbe410fca9a481f92cf8fc8b76a1b70f31d688487876040516122bc93929190612cb7565b60405180910390a35050505050565b5f8115159050919050565b6122df816122cb565b82525050565b5f6020820190506122f85f8301846122d6565b92915050565b5f80fd5b5f73ffffffffffffffffffffffffffffffffffffffff82169050919050565b5f61232b82612302565b9050919050565b61233b81612321565b8114612345575f80fd5b50565b5f8135905061235681612332565b92915050565b5f60208284031215612371576123706122fe565b5b5f61237e84828501612348565b91505092915050565b61239081612321565b82525050565b5f819050919050565b6123a881612396565b82525050565b7f4e487b71000000000000000000000000000000000000000000000000000000005f52602160045260245ffd5b600381106123ec576123eb6123ae565b5b50565b5f8190506123fc826123db565b919050565b5f61240b826123ef565b9050919050565b61241b81612401565b82525050565b5f60a0820190506124345f830188612387565b612441602083018761239f565b61244e604083018661239f565b61245b606083018561239f565b6124686080830184612412565b9695505050505050565b61247b81612396565b8114612485575f80fd5b50565b5f8135905061249681612472565b92915050565b5f80604083850312156124b2576124b16122fe565b5b5f6124bf85828601612348565b92505060206124d085828601612488565b9150509250929050565b5f6020820190506124ed5f830184612387565b92915050565b5f805f6060848603121561250a576125096122fe565b5b5f61251786828701612348565b935050602061252886828701612488565b925050604061253986828701612488565b9150509250925092565b5f82825260208201905092915050565b7f43616c6c6572206973206e6f7420617574686f72697a656400000000000000005f82015250565b5f612587601883612543565b915061259282612553565b602082019050919050565b5f6020820190508181035f8301526125b48161257b565b9050919050565b7f4f7065726174696f6e206f6e20746f6b656e20696e2070726f677265737300005f82015250565b5f6125ef601e83612543565b91506125fa826125bb565b602082019050919050565b5f6020820190508181035f83015261261c816125e3565b9050919050565b7f416d6f756e74206d7573742062652067726561746572207468616e207a65726f5f82015250565b5f612657602083612543565b915061266282612623565b602082019050919050565b5f6020820190508181035f8301526126848161264b565b9050919050565b7f5072696365206d7573742062652067726561746572207468616e207a65726f005f82015250565b5f6126bf601f83612543565b91506126ca8261268b565b602082019050919050565b5f6020820190508181035f8301526126ec816126b3565b9050919050565b5f6040820190506127065f830185612387565b6127136020830184612387565b9392505050565b5f8151905061272881612472565b92915050565b5f60208284031215612743576127426122fe565b5b5f6127508482850161271a565b91505092915050565b5f60608201905061276c5f830186612387565b6127796020830185612387565b612786604083018461239f565b949350505050565b612797816122cb565b81146127a1575f80fd5b50565b5f815190506127b28161278e565b92915050565b5f602082840312156127cd576127cc6122fe565b5b5f6127da848285016127a4565b91505092915050565b7f546f6b656e207472616e7366657220746f2065786368616e6765206661696c655f8201527f6400000000000000000000000000000000000000000000000000000000000000602082015250565b5f61283d602183612543565b9150612848826127e3565b604082019050919050565b5f6020820190508181035f83015261286a81612831565b9050919050565b7f4e6f20726571756573747320746f2063616e63656c00000000000000000000005f82015250565b5f6128a5601583612543565b91506128b082612871565b602082019050919050565b5f6020820190508181035f8301526128d281612899565b9050919050565b7f596f752063616e6e6f742063616e63656c206d756c7469706c652074696d65735f82015250565b5f61290d602083612543565b9150612918826128d9565b602082019050919050565b5f6020820190508181035f83015261293a81612901565b9050919050565b5f6040820190506129545f830185612387565b612961602083018461239f565b9392505050565b7f546f6b656e207472616e73666572206261636b20746f20726571756573746f725f8201527f206661696c656400000000000000000000000000000000000000000000000000602082015250565b5f6129c2602783612543565b91506129cd82612968565b604082019050919050565b5f6020820190508181035f8301526129ef816129b6565b9050919050565b7f4e487b71000000000000000000000000000000000000000000000000000000005f52601160045260245ffd5b5f612a2d82612396565b9150612a3883612396565b9250828202612a4681612396565b91508282048414831517612a5d57612a5c6129f6565b5b5092915050565b5f612a6e82612396565b9150612a7983612396565b9250828203905081811115612a9157612a906129f6565b5b92915050565b7f5472616e7366657220746f20746865207a65726f2061646472657373206973205f8201527f6e6f7420616c6c6f776564000000000000000000000000000000000000000000602082015250565b5f612af1602b83612543565b9150612afc82612a97565b604082019050919050565b5f6020820190508181035f830152612b1e81612ae5565b9050919050565b7f4e487b71000000000000000000000000000000000000000000000000000000005f52603260045260245ffd5b5f612b5c82612396565b91505f8203612b6e57612b6d6129f6565b5b600182039050919050565b5f81905092915050565b50565b5f612b915f83612b79565b9150612b9c82612b83565b5f82019050919050565b5f612bb082612b86565b9150819050919050565b7f4661696c656420746f2073656e642045746865720000000000000000000000005f82015250565b5f612bee601483612543565b9150612bf982612bba565b602082019050919050565b5f6020820190508181035f830152612c1b81612be2565b9050919050565b7f4e487b71000000000000000000000000000000000000000000000000000000005f52603160045260245ffd5b7f546f6b656e207472616e7366657220746f206275796572206661696c656400005f82015250565b5f612c83601e83612543565b9150612c8e82612c4f565b602082019050919050565b5f6020820190508181035f830152612cb081612c77565b9050919050565b5f606082019050612cca5f830186612412565b612cd7602083018561239f565b612ce4604083018461239f565b94935050505056fea2646970667358221220ede0569e3db35bce2a0ab881785c49423b5d4b591af3045cdf7b808f0756b40064736f6c63430008190033",
					"opcodes": "PUSH1 0x80 PUSH1 0x40 MSTORE CALLVALUE DUP1 ISZERO PUSH2 0xF JUMPI PUSH0 DUP1 REVERT JUMPDEST POP PUSH1 0x40 MLOAD PUSH2 0x2F3C CODESIZE SUB DUP1 PUSH2 0x2F3C DUP4 CODECOPY DUP2 DUP2 ADD PUSH1 0x40 MSTORE DUP2 ADD SWAP1 PUSH2 0x31 SWAP2 SWAP1 PUSH2 0x144 JUMP JUMPDEST DUP1 DUP1 PUSH20 0xFFFFFFFFFFFFFFFFFFFFFFFFFFFFFFFFFFFFFFFF AND PUSH0 PUSH20 0xFFFFFFFFFFFFFFFFFFFFFFFFFFFFFFFFFFFFFFFF AND SUB PUSH2 0xA0 JUMPI PUSH1 0x40 MLOAD PUSH32 0x8C379A000000000000000000000000000000000000000000000000000000000 DUP2 MSTORE PUSH1 0x4 ADD PUSH2 0x97 SWAP1 PUSH2 0x1EF JUMP JUMPDEST PUSH1 0x40 MLOAD DUP1 SWAP2 SUB SWAP1 REVERT JUMPDEST DUP2 PUSH0 DUP1 PUSH2 0x100 EXP DUP2 SLOAD DUP2 PUSH20 0xFFFFFFFFFFFFFFFFFFFFFFFFFFFFFFFFFFFFFFFF MUL NOT AND SWAP1 DUP4 PUSH20 0xFFFFFFFFFFFFFFFFFFFFFFFFFFFFFFFFFFFFFFFF AND MUL OR SWAP1 SSTORE POP POP POP PUSH2 0x20D JUMP JUMPDEST PUSH0 DUP1 REVERT JUMPDEST PUSH0 PUSH20 0xFFFFFFFFFFFFFFFFFFFFFFFFFFFFFFFFFFFFFFFF DUP3 AND SWAP1 POP SWAP2 SWAP1 POP JUMP JUMPDEST PUSH0 PUSH2 0x113 DUP3 PUSH2 0xEA JUMP JUMPDEST SWAP1 POP SWAP2 SWAP1 POP JUMP JUMPDEST PUSH2 0x123 DUP2 PUSH2 0x109 JUMP JUMPDEST DUP2 EQ PUSH2 0x12D JUMPI PUSH0 DUP1 REVERT JUMPDEST POP JUMP JUMPDEST PUSH0 DUP2 MLOAD SWAP1 POP PUSH2 0x13E DUP2 PUSH2 0x11A JUMP JUMPDEST SWAP3 SWAP2 POP POP JUMP JUMPDEST PUSH0 PUSH1 0x20 DUP3 DUP5 SUB SLT ISZERO PUSH2 0x159 JUMPI PUSH2 0x158 PUSH2 0xE6 JUMP JUMPDEST JUMPDEST PUSH0 PUSH2 0x166 DUP5 DUP3 DUP6 ADD PUSH2 0x130 JUMP JUMPDEST SWAP2 POP POP SWAP3 SWAP2 POP POP JUMP JUMPDEST PUSH0 DUP3 DUP3 MSTORE PUSH1 0x20 DUP3 ADD SWAP1 POP SWAP3 SWAP2 POP POP JUMP JUMPDEST PUSH32 0x5472616E7366657220746F20746865207A65726F206164647265737320697320 PUSH0 DUP3 ADD MSTORE PUSH32 0x6E6F7420616C6C6F776564000000000000000000000000000000000000000000 PUSH1 0x20 DUP3 ADD MSTORE POP JUMP JUMPDEST PUSH0 PUSH2 0x1D9 PUSH1 0x2B DUP4 PUSH2 0x16F JUMP JUMPDEST SWAP2 POP PUSH2 0x1E4 DUP3 PUSH2 0x17F JUMP JUMPDEST PUSH1 0x40 DUP3 ADD SWAP1 POP SWAP2 SWAP1 POP JUMP JUMPDEST PUSH0 PUSH1 0x20 DUP3 ADD SWAP1 POP DUP2 DUP2 SUB PUSH0 DUP4 ADD MSTORE PUSH2 0x206 DUP2 PUSH2 0x1CD JUMP JUMPDEST SWAP1 POP SWAP2 SWAP1 POP JUMP JUMPDEST PUSH2 0x2D22 DUP1 PUSH2 0x21A PUSH0 CODECOPY PUSH0 RETURN INVALID PUSH1 0x80 PUSH1 0x40 MSTORE PUSH1 0x4 CALLDATASIZE LT PUSH2 0x90 JUMPI PUSH0 CALLDATALOAD PUSH1 0xE0 SHR DUP1 PUSH4 0x851B16F5 GT PUSH2 0x58 JUMPI DUP1 PUSH4 0x851B16F5 EQ PUSH2 0x19E JUMPI DUP1 PUSH4 0xA760E06A EQ PUSH2 0x1B4 JUMPI DUP1 PUSH4 0xC0B6F561 EQ PUSH2 0x1D0 JUMPI DUP1 PUSH4 0xC2EB05BA EQ PUSH2 0x20C JUMPI DUP1 PUSH4 0xCE606EE0 EQ PUSH2 0x236 JUMPI PUSH2 0x90 JUMP JUMPDEST DUP1 PUSH4 0x10731A65 EQ PUSH2 0x94 JUMPI DUP1 PUSH4 0x1A4B3311 EQ PUSH2 0xBE JUMPI DUP1 PUSH4 0x1FB64DA0 EQ PUSH2 0xFE JUMPI DUP1 PUSH4 0x73B298E2 EQ PUSH2 0x13A JUMPI DUP1 PUSH4 0x83588B99 EQ PUSH2 0x162 JUMPI JUMPDEST PUSH0 DUP1 REVERT JUMPDEST CALLVALUE DUP1 ISZERO PUSH2 0x9F JUMPI PUSH0 DUP1 REVERT JUMPDEST POP PUSH2 0xA8 PUSH2 0x260 JUMP JUMPDEST PUSH1 0x40 MLOAD PUSH2 0xB5 SWAP2 SWAP1 PUSH2 0x22E5 JUMP JUMPDEST PUSH1 0x40 MLOAD DUP1 SWAP2 SUB SWAP1 RETURN JUMPDEST CALLVALUE DUP1 ISZERO PUSH2 0xC9 JUMPI PUSH0 DUP1 REVERT JUMPDEST POP PUSH2 0xE4 PUSH1 0x4 DUP1 CALLDATASIZE SUB DUP2 ADD SWAP1 PUSH2 0xDF SWAP2 SWAP1 PUSH2 0x235C JUMP JUMPDEST PUSH2 0x3FB JUMP JUMPDEST PUSH1 0x40 MLOAD PUSH2 0xF5 SWAP6 SWAP5 SWAP4 SWAP3 SWAP2 SWAP1 PUSH2 0x2421 JUMP JUMPDEST PUSH1 0x40 MLOAD DUP1 SWAP2 SUB SWAP1 RETURN JUMPDEST CALLVALUE DUP1 ISZERO PUSH2 0x109 JUMPI PUSH0 DUP1 REVERT JUMPDEST POP PUSH2 0x124 PUSH1 0x4 DUP1 CALLDATASIZE SUB DUP2 ADD SWAP1 PUSH2 0x11F SWAP2 SWAP1 PUSH2 0x249C JUMP JUMPDEST PUSH2 0x458 JUMP JUMPDEST PUSH1 0x40 MLOAD PUSH2 0x131 SWAP2 SWAP1 PUSH2 0x24DA JUMP JUMPDEST PUSH1 0x40 MLOAD DUP1 SWAP2 SUB SWAP1 RETURN JUMPDEST CALLVALUE DUP1 ISZERO PUSH2 0x145 JUMPI PUSH0 DUP1 REVERT JUMPDEST POP PUSH2 0x160 PUSH1 0x4 DUP1 CALLDATASIZE SUB DUP2 ADD SWAP1 PUSH2 0x15B SWAP2 SWAP1 PUSH2 0x24F3 JUMP JUMPDEST PUSH2 0x4A0 JUMP JUMPDEST STOP JUMPDEST CALLVALUE DUP1 ISZERO PUSH2 0x16D JUMPI PUSH0 DUP1 REVERT JUMPDEST POP PUSH2 0x188 PUSH1 0x4 DUP1 CALLDATASIZE SUB DUP2 ADD SWAP1 PUSH2 0x183 SWAP2 SWAP1 PUSH2 0x249C JUMP JUMPDEST PUSH2 0x91D JUMP JUMPDEST PUSH1 0x40 MLOAD PUSH2 0x195 SWAP2 SWAP1 PUSH2 0x24DA JUMP JUMPDEST PUSH1 0x40 MLOAD DUP1 SWAP2 SUB SWAP1 RETURN JUMPDEST CALLVALUE DUP1 ISZERO PUSH2 0x1A9 JUMPI PUSH0 DUP1 REVERT JUMPDEST POP PUSH2 0x1B2 PUSH2 0x965 JUMP JUMPDEST STOP JUMPDEST PUSH2 0x1CE PUSH1 0x4 DUP1 CALLDATASIZE SUB DUP2 ADD SWAP1 PUSH2 0x1C9 SWAP2 SWAP1 PUSH2 0x24F3 JUMP JUMPDEST PUSH2 0xE88 JUMP JUMPDEST STOP JUMPDEST CALLVALUE DUP1 ISZERO PUSH2 0x1DB JUMPI PUSH0 DUP1 REVERT JUMPDEST POP PUSH2 0x1F6 PUSH1 0x4 DUP1 CALLDATASIZE SUB DUP2 ADD SWAP1 PUSH2 0x1F1 SWAP2 SWAP1 PUSH2 0x235C JUMP JUMPDEST PUSH2 0x1185 JUMP JUMPDEST PUSH1 0x40 MLOAD PUSH2 0x203 SWAP2 SWAP1 PUSH2 0x22E5 JUMP JUMPDEST PUSH1 0x40 MLOAD DUP1 SWAP2 SUB SWAP1 RETURN JUMPDEST CALLVALUE DUP1 ISZERO PUSH2 0x217 JUMPI PUSH0 DUP1 REVERT JUMPDEST POP PUSH2 0x220 PUSH2 0x1369 JUMP JUMPDEST PUSH1 0x40 MLOAD PUSH2 0x22D SWAP2 SWAP1 PUSH2 0x24DA JUMP JUMPDEST PUSH1 0x40 MLOAD DUP1 SWAP2 SUB SWAP1 RETURN JUMPDEST CALLVALUE DUP1 ISZERO PUSH2 0x241 JUMPI PUSH0 DUP1 REVERT JUMPDEST POP PUSH2 0x24A PUSH2 0x138E JUMP JUMPDEST PUSH1 0x40 MLOAD PUSH2 0x257 SWAP2 SWAP1 PUSH2 0x24DA JUMP JUMPDEST PUSH1 0x40 MLOAD DUP1 SWAP2 SUB SWAP1 RETURN JUMPDEST PUSH0 PUSH1 0x1 PUSH0 SWAP1 SLOAD SWAP1 PUSH2 0x100 EXP SWAP1 DIV PUSH20 0xFFFFFFFFFFFFFFFFFFFFFFFFFFFFFFFFFFFFFFFF AND DUP1 PUSH20 0xFFFFFFFFFFFFFFFFFFFFFFFFFFFFFFFFFFFFFFFF AND CALLER PUSH20 0xFFFFFFFFFFFFFFFFFFFFFFFFFFFFFFFFFFFFFFFF AND EQ PUSH2 0x2F1 JUMPI PUSH1 0x40 MLOAD PUSH32 0x8C379A000000000000000000000000000000000000000000000000000000000 DUP2 MSTORE PUSH1 0x4 ADD PUSH2 0x2E8 SWAP1 PUSH2 0x259D JUMP JUMPDEST PUSH1 0x40 MLOAD DUP1 SWAP2 SUB SWAP1 REVERT JUMPDEST PUSH1 0x1 PUSH0 SWAP1 SLOAD SWAP1 PUSH2 0x100 EXP SWAP1 DIV PUSH20 0xFFFFFFFFFFFFFFFFFFFFFFFFFFFFFFFFFFFFFFFF AND PUSH0 DUP1 PUSH2 0x100 EXP DUP2 SLOAD DUP2 PUSH20 0xFFFFFFFFFFFFFFFFFFFFFFFFFFFFFFFFFFFFFFFF MUL NOT AND SWAP1 DUP4 PUSH20 0xFFFFFFFFFFFFFFFFFFFFFFFFFFFFFFFFFFFFFFFF AND MUL OR SWAP1 SSTORE POP PUSH0 PUSH1 0x1 PUSH0 PUSH2 0x100 EXP DUP2 SLOAD DUP2 PUSH20 0xFFFFFFFFFFFFFFFFFFFFFFFFFFFFFFFFFFFFFFFF MUL NOT AND SWAP1 DUP4 PUSH20 0xFFFFFFFFFFFFFFFFFFFFFFFFFFFFFFFFFFFFFFFF AND MUL OR SWAP1 SSTORE POP PUSH0 DUP1 SLOAD SWAP1 PUSH2 0x100 EXP SWAP1 DIV PUSH20 0xFFFFFFFFFFFFFFFFFFFFFFFFFFFFFFFFFFFFFFFF AND PUSH20 0xFFFFFFFFFFFFFFFFFFFFFFFFFFFFFFFFFFFFFFFF AND PUSH32 0x41E8EE868CB815A7E5CD1A100E6FF024772D79C071718C049AB7D3BC4E1226D PUSH1 0x40 MLOAD PUSH1 0x40 MLOAD DUP1 SWAP2 SUB SWAP1 LOG2 PUSH1 0x1 SWAP2 POP POP SWAP1 JUMP JUMPDEST PUSH1 0x2 PUSH1 0x20 MSTORE DUP1 PUSH0 MSTORE PUSH1 0x40 PUSH0 KECCAK256 PUSH0 SWAP2 POP SWAP1 POP DUP1 PUSH0 ADD PUSH0 SWAP1 SLOAD SWAP1 PUSH2 0x100 EXP SWAP1 DIV PUSH20 0xFFFFFFFFFFFFFFFFFFFFFFFFFFFFFFFFFFFFFFFF AND SWAP1 DUP1 PUSH1 0x1 ADD SLOAD SWAP1 DUP1 PUSH1 0x2 ADD SLOAD SWAP1 DUP1 PUSH1 0x3 ADD SLOAD SWAP1 DUP1 PUSH1 0x4 ADD PUSH0 SWAP1 SLOAD SWAP1 PUSH2 0x100 EXP SWAP1 DIV PUSH1 0xFF AND SWAP1 POP DUP6 JUMP JUMPDEST PUSH1 0x4 PUSH1 0x20 MSTORE DUP2 PUSH0 MSTORE PUSH1 0x40 PUSH0 KECCAK256 DUP2 DUP2 SLOAD DUP2 LT PUSH2 0x471 JUMPI PUSH0 DUP1 REVERT JUMPDEST SWAP1 PUSH0 MSTORE PUSH1 0x20 PUSH0 KECCAK256 ADD PUSH0 SWAP2 POP SWAP2 POP SWAP1 SLOAD SWAP1 PUSH2 0x100 EXP SWAP1 DIV PUSH20 0xFFFFFFFFFFFFFFFFFFFFFFFFFFFFFFFFFFFFFFFF AND DUP2 JUMP JUMPDEST DUP3 PUSH1 0x5 PUSH0 DUP3 PUSH20 0xFFFFFFFFFFFFFFFFFFFFFFFFFFFFFFFFFFFFFFFF AND PUSH20 0xFFFFFFFFFFFFFFFFFFFFFFFFFFFFFFFFFFFFFFFF AND DUP2 MSTORE PUSH1 0x20 ADD SWAP1 DUP2 MSTORE PUSH1 0x20 ADD PUSH0 KECCAK256 PUSH0 SWAP1 SLOAD SWAP1 PUSH2 0x100 EXP SWAP1 DIV PUSH1 0xFF AND PUSH2 0x52A JUMPI PUSH1 0x40 MLOAD PUSH32 0x8C379A000000000000000000000000000000000000000000000000000000000 DUP2 MSTORE PUSH1 0x4 ADD PUSH2 0x521 SWAP1 PUSH2 0x2605 JUMP JUMPDEST PUSH1 0x40 MLOAD DUP1 SWAP2 SUB SWAP1 REVERT JUMPDEST PUSH0 PUSH1 0x5 PUSH0 DUP4 PUSH20 0xFFFFFFFFFFFFFFFFFFFFFFFFFFFFFFFFFFFFFFFF AND PUSH20 0xFFFFFFFFFFFFFFFFFFFFFFFFFFFFFFFFFFFFFFFF AND DUP2 MSTORE PUSH1 0x20 ADD SWAP1 DUP2 MSTORE PUSH1 0x20 ADD PUSH0 KECCAK256 PUSH0 PUSH2 0x100 EXP DUP2 SLOAD DUP2 PUSH1 0xFF MUL NOT AND SWAP1 DUP4 ISZERO ISZERO MUL OR SWAP1 SSTORE POP PUSH0 PUSH1 0x2 DUP2 GT ISZERO PUSH2 0x591 JUMPI PUSH2 0x590 PUSH2 0x23AE JUMP JUMPDEST JUMPDEST PUSH1 0x2 PUSH0 CALLER PUSH20 0xFFFFFFFFFFFFFFFFFFFFFFFFFFFFFFFFFFFFFFFF AND PUSH20 0xFFFFFFFFFFFFFFFFFFFFFFFFFFFFFFFFFFFFFFFF AND DUP2 MSTORE PUSH1 0x20 ADD SWAP1 DUP2 MSTORE PUSH1 0x20 ADD PUSH0 KECCAK256 PUSH1 0x4 ADD PUSH0 SWAP1 SLOAD SWAP1 PUSH2 0x100 EXP SWAP1 DIV PUSH1 0xFF AND PUSH1 0x2 DUP2 GT ISZERO PUSH2 0x5F0 JUMPI PUSH2 0x5EF PUSH2 0x23AE JUMP JUMPDEST JUMPDEST EQ PUSH2 0x5F9 JUMPI PUSH0 DUP1 REVERT JUMPDEST DUP3 PUSH0 DUP2 SUB PUSH2 0x63C JUMPI PUSH1 0x40 MLOAD PUSH32 0x8C379A000000000000000000000000000000000000000000000000000000000 DUP2 MSTORE PUSH1 0x4 ADD PUSH2 0x633 SWAP1 PUSH2 0x266D JUMP JUMPDEST PUSH1 0x40 MLOAD DUP1 SWAP2 SUB SWAP1 REVERT JUMPDEST DUP3 PUSH0 DUP2 SUB PUSH2 0x67F JUMPI PUSH1 0x40 MLOAD PUSH32 0x8C379A000000000000000000000000000000000000000000000000000000000 DUP2 MSTORE PUSH1 0x4 ADD PUSH2 0x676 SWAP1 PUSH2 0x26D5 JUMP JUMPDEST PUSH1 0x40 MLOAD DUP1 SWAP2 SUB SWAP1 REVERT JUMPDEST DUP6 DUP6 DUP1 DUP3 PUSH20 0xFFFFFFFFFFFFFFFFFFFFFFFFFFFFFFFFFFFFFFFF AND PUSH4 0xDD62ED3E CALLER ADDRESS PUSH1 0x40 MLOAD DUP4 PUSH4 0xFFFFFFFF AND PUSH1 0xE0 SHL DUP2 MSTORE PUSH1 0x4 ADD PUSH2 0x6BD SWAP3 SWAP2 SWAP1 PUSH2 0x26F3 JUMP JUMPDEST PUSH1 0x20 PUSH1 0x40 MLOAD DUP1 DUP4 SUB DUP2 DUP7 GAS STATICCALL ISZERO DUP1 ISZERO PUSH2 0x6D8 JUMPI RETURNDATASIZE PUSH0 DUP1 RETURNDATACOPY RETURNDATASIZE PUSH0 REVERT JUMPDEST POP POP POP POP PUSH1 0x40 MLOAD RETURNDATASIZE PUSH1 0x1F NOT PUSH1 0x1F DUP3 ADD AND DUP3 ADD DUP1 PUSH1 0x40 MSTORE POP DUP2 ADD SWAP1 PUSH2 0x6FC SWAP2 SWAP1 PUSH2 0x272E JUMP JUMPDEST LT ISZERO PUSH2 0x706 JUMPI PUSH0 DUP1 REVERT JUMPDEST DUP8 DUP8 DUP1 DUP3 PUSH20 0xFFFFFFFFFFFFFFFFFFFFFFFFFFFFFFFFFFFFFFFF AND PUSH4 0x70A08231 CALLER PUSH1 0x40 MLOAD DUP3 PUSH4 0xFFFFFFFF AND PUSH1 0xE0 SHL DUP2 MSTORE PUSH1 0x4 ADD PUSH2 0x742 SWAP2 SWAP1 PUSH2 0x24DA JUMP JUMPDEST PUSH1 0x20 PUSH1 0x40 MLOAD DUP1 DUP4 SUB DUP2 DUP7 GAS STATICCALL ISZERO DUP1 ISZERO PUSH2 0x75D JUMPI RETURNDATASIZE PUSH0 DUP1 RETURNDATACOPY RETURNDATASIZE PUSH0 REVERT JUMPDEST POP POP POP POP PUSH1 0x40 MLOAD RETURNDATASIZE PUSH1 0x1F NOT PUSH1 0x1F DUP3 ADD AND DUP3 ADD DUP1 PUSH1 0x40 MSTORE POP DUP2 ADD SWAP1 PUSH2 0x781 SWAP2 SWAP1 PUSH2 0x272E JUMP JUMPDEST LT ISZERO PUSH2 0x78B JUMPI PUSH0 DUP1 REVERT JUMPDEST PUSH1 0x1 PUSH1 0x2 PUSH0 CALLER PUSH20 0xFFFFFFFFFFFFFFFFFFFFFFFFFFFFFFFFFFFFFFFF AND PUSH20 0xFFFFFFFFFFFFFFFFFFFFFFFFFFFFFFFFFFFFFFFF AND DUP2 MSTORE PUSH1 0x20 ADD SWAP1 DUP2 MSTORE PUSH1 0x20 ADD PUSH0 KECCAK256 PUSH1 0x4 ADD PUSH0 PUSH2 0x100 EXP DUP2 SLOAD DUP2 PUSH1 0xFF MUL NOT AND SWAP1 DUP4 PUSH1 0x2 DUP2 GT ISZERO PUSH2 0x7EE JUMPI PUSH2 0x7ED PUSH2 0x23AE JUMP JUMPDEST JUMPDEST MUL OR SWAP1 SSTORE POP DUP10 PUSH20 0xFFFFFFFFFFFFFFFFFFFFFFFFFFFFFFFFFFFFFFFF AND PUSH4 0x23B872DD CALLER ADDRESS DUP13 PUSH1 0x40 MLOAD DUP5 PUSH4 0xFFFFFFFF AND PUSH1 0xE0 SHL DUP2 MSTORE PUSH1 0x4 ADD PUSH2 0x830 SWAP4 SWAP3 SWAP2 SWAP1 PUSH2 0x2759 JUMP JUMPDEST PUSH1 0x20 PUSH1 0x40 MLOAD DUP1 DUP4 SUB DUP2 PUSH0 DUP8 GAS CALL ISZERO DUP1 ISZERO PUSH2 0x84C JUMPI RETURNDATASIZE PUSH0 DUP1 RETURNDATACOPY RETURNDATASIZE PUSH0 REVERT JUMPDEST POP POP POP POP PUSH1 0x40 MLOAD RETURNDATASIZE PUSH1 0x1F NOT PUSH1 0x1F DUP3 ADD AND DUP3 ADD DUP1 PUSH1 0x40 MSTORE POP DUP2 ADD SWAP1 PUSH2 0x870 SWAP2 SWAP1 PUSH2 0x27B8 JUMP JUMPDEST PUSH2 0x8AF JUMPI PUSH1 0x40 MLOAD PUSH32 0x8C379A000000000000000000000000000000000000000000000000000000000 DUP2 MSTORE PUSH1 0x4 ADD PUSH2 0x8A6 SWAP1 PUSH2 0x2853 JUMP JUMPDEST PUSH1 0x40 MLOAD DUP1 SWAP2 SUB SWAP1 REVERT JUMPDEST PUSH2 0x8BC DUP11 DUP11 DUP11 PUSH1 0x1 PUSH2 0x13B1 JUMP JUMPDEST POP POP POP POP POP POP PUSH1 0x1 PUSH1 0x5 PUSH0 DUP4 PUSH20 0xFFFFFFFFFFFFFFFFFFFFFFFFFFFFFFFFFFFFFFFF AND PUSH20 0xFFFFFFFFFFFFFFFFFFFFFFFFFFFFFFFFFFFFFFFF AND DUP2 MSTORE PUSH1 0x20 ADD SWAP1 DUP2 MSTORE PUSH1 0x20 ADD PUSH0 KECCAK256 PUSH0 PUSH2 0x100 EXP DUP2 SLOAD DUP2 PUSH1 0xFF MUL NOT AND SWAP1 DUP4 ISZERO ISZERO MUL OR SWAP1 SSTORE POP POP POP POP POP JUMP JUMPDEST PUSH1 0x3 PUSH1 0x20 MSTORE DUP2 PUSH0 MSTORE PUSH1 0x40 PUSH0 KECCAK256 DUP2 DUP2 SLOAD DUP2 LT PUSH2 0x936 JUMPI PUSH0 DUP1 REVERT JUMPDEST SWAP1 PUSH0 MSTORE PUSH1 0x20 PUSH0 KECCAK256 ADD PUSH0 SWAP2 POP SWAP2 POP SWAP1 SLOAD SWAP1 PUSH2 0x100 EXP SWAP1 DIV PUSH20 0xFFFFFFFFFFFFFFFFFFFFFFFFFFFFFFFFFFFFFFFF AND DUP2 JUMP JUMPDEST PUSH1 0x2 PUSH0 CALLER PUSH20 0xFFFFFFFFFFFFFFFFFFFFFFFFFFFFFFFFFFFFFFFF AND PUSH20 0xFFFFFFFFFFFFFFFFFFFFFFFFFFFFFFFFFFFFFFFF AND DUP2 MSTORE PUSH1 0x20 ADD SWAP1 DUP2 MSTORE PUSH1 0x20 ADD PUSH0 KECCAK256 PUSH0 ADD PUSH0 SWAP1 SLOAD SWAP1 PUSH2 0x100 EXP SWAP1 DIV PUSH20 0xFFFFFFFFFFFFFFFFFFFFFFFFFFFFFFFFFFFFFFFF AND PUSH1 0x5 PUSH0 DUP3 PUSH20 0xFFFFFFFFFFFFFFFFFFFFFFFFFFFFFFFFFFFFFFFF AND PUSH20 0xFFFFFFFFFFFFFFFFFFFFFFFFFFFFFFFFFFFFFFFF AND DUP2 MSTORE PUSH1 0x20 ADD SWAP1 DUP2 MSTORE PUSH1 0x20 ADD PUSH0 KECCAK256 PUSH0 SWAP1 SLOAD SWAP1 PUSH2 0x100 EXP SWAP1 DIV PUSH1 0xFF AND PUSH2 0xA4D JUMPI PUSH1 0x40 MLOAD PUSH32 0x8C379A000000000000000000000000000000000000000000000000000000000 DUP2 MSTORE PUSH1 0x4 ADD PUSH2 0xA44 SWAP1 PUSH2 0x2605 JUMP JUMPDEST PUSH1 0x40 MLOAD DUP1 SWAP2 SUB SWAP1 REVERT JUMPDEST PUSH0 PUSH1 0x5 PUSH0 DUP4 PUSH20 0xFFFFFFFFFFFFFFFFFFFFFFFFFFFFFFFFFFFFFFFF AND PUSH20 0xFFFFFFFFFFFFFFFFFFFFFFFFFFFFFFFFFFFFFFFF AND DUP2 MSTORE PUSH1 0x20 ADD SWAP1 DUP2 MSTORE PUSH1 0x20 ADD PUSH0 KECCAK256 PUSH0 PUSH2 0x100 EXP DUP2 SLOAD DUP2 PUSH1 0xFF MUL NOT AND SWAP1 DUP4 ISZERO ISZERO MUL OR SWAP1 SSTORE POP PUSH0 PUSH1 0x2 DUP2 GT ISZERO PUSH2 0xAB4 JUMPI PUSH2 0xAB3 PUSH2 0x23AE JUMP JUMPDEST JUMPDEST PUSH1 0x2 PUSH0 CALLER PUSH20 0xFFFFFFFFFFFFFFFFFFFFFFFFFFFFFFFFFFFFFFFF AND PUSH20 0xFFFFFFFFFFFFFFFFFFFFFFFFFFFFFFFFFFFFFFFF AND DUP2 MSTORE PUSH1 0x20 ADD SWAP1 DUP2 MSTORE PUSH1 0x20 ADD PUSH0 KECCAK256 PUSH1 0x4 ADD PUSH0 SWAP1 SLOAD SWAP1 PUSH2 0x100 EXP SWAP1 DIV PUSH1 0xFF AND PUSH1 0x2 DUP2 GT ISZERO PUSH2 0xB13 JUMPI PUSH2 0xB12 PUSH2 0x23AE JUMP JUMPDEST JUMPDEST SUB PUSH2 0xB53 JUMPI PUSH1 0x40 MLOAD PUSH32 0x8C379A000000000000000000000000000000000000000000000000000000000 DUP2 MSTORE PUSH1 0x4 ADD PUSH2 0xB4A SWAP1 PUSH2 0x28BB JUMP JUMPDEST PUSH1 0x40 MLOAD DUP1 SWAP2 SUB SWAP1 REVERT JUMPDEST PUSH0 PUSH1 0x2 PUSH0 CALLER PUSH20 0xFFFFFFFFFFFFFFFFFFFFFFFFFFFFFFFFFFFFFFFF AND PUSH20 0xFFFFFFFFFFFFFFFFFFFFFFFFFFFFFFFFFFFFFFFF AND DUP2 MSTORE PUSH1 0x20 ADD SWAP1 DUP2 MSTORE PUSH1 0x20 ADD PUSH0 KECCAK256 PUSH1 0x2 ADD SLOAD SUB PUSH2 0xBD5 JUMPI PUSH1 0x40 MLOAD PUSH32 0x8C379A000000000000000000000000000000000000000000000000000000000 DUP2 MSTORE PUSH1 0x4 ADD PUSH2 0xBCC SWAP1 PUSH2 0x2923 JUMP JUMPDEST PUSH1 0x40 MLOAD DUP1 SWAP2 SUB SWAP1 REVERT JUMPDEST PUSH0 PUSH1 0x2 PUSH0 CALLER PUSH20 0xFFFFFFFFFFFFFFFFFFFFFFFFFFFFFFFFFFFFFFFF AND PUSH20 0xFFFFFFFFFFFFFFFFFFFFFFFFFFFFFFFFFFFFFFFF AND DUP2 MSTORE PUSH1 0x20 ADD SWAP1 DUP2 MSTORE PUSH1 0x20 ADD PUSH0 KECCAK256 PUSH1 0x40 MLOAD DUP1 PUSH1 0xA0 ADD PUSH1 0x40 MSTORE SWAP1 DUP2 PUSH0 DUP3 ADD PUSH0 SWAP1 SLOAD SWAP1 PUSH2 0x100 EXP SWAP1 DIV PUSH20 0xFFFFFFFFFFFFFFFFFFFFFFFFFFFFFFFFFFFFFFFF AND PUSH20 0xFFFFFFFFFFFFFFFFFFFFFFFFFFFFFFFFFFFFFFFF AND PUSH20 0xFFFFFFFFFFFFFFFFFFFFFFFFFFFFFFFFFFFFFFFF AND DUP2 MSTORE PUSH1 0x20 ADD PUSH1 0x1 DUP3 ADD SLOAD DUP2 MSTORE PUSH1 0x20 ADD PUSH1 0x2 DUP3 ADD SLOAD DUP2 MSTORE PUSH1 0x20 ADD PUSH1 0x3 DUP3 ADD SLOAD DUP2 MSTORE PUSH1 0x20 ADD PUSH1 0x4 DUP3 ADD PUSH0 SWAP1 SLOAD SWAP1 PUSH2 0x100 EXP SWAP1 DIV PUSH1 0xFF AND PUSH1 0x2 DUP2 GT ISZERO PUSH2 0xCB4 JUMPI PUSH2 0xCB3 PUSH2 0x23AE JUMP JUMPDEST JUMPDEST PUSH1 0x2 DUP2 GT ISZERO PUSH2 0xCC6 JUMPI PUSH2 0xCC5 PUSH2 0x23AE JUMP JUMPDEST JUMPDEST DUP2 MSTORE POP POP SWAP1 POP PUSH0 DUP2 PUSH1 0x40 ADD MLOAD SWAP1 POP PUSH0 PUSH1 0x2 PUSH0 CALLER PUSH20 0xFFFFFFFFFFFFFFFFFFFFFFFFFFFFFFFFFFFFFFFF AND PUSH20 0xFFFFFFFFFFFFFFFFFFFFFFFFFFFFFFFFFFFFFFFF AND DUP2 MSTORE PUSH1 0x20 ADD SWAP1 DUP2 MSTORE PUSH1 0x20 ADD PUSH0 KECCAK256 PUSH1 0x2 ADD DUP2 SWAP1 SSTORE POP PUSH1 0x1 PUSH1 0x2 DUP2 GT ISZERO PUSH2 0xD2D JUMPI PUSH2 0xD2C PUSH2 0x23AE JUMP JUMPDEST JUMPDEST DUP3 PUSH1 0x80 ADD MLOAD PUSH1 0x2 DUP2 GT ISZERO PUSH2 0xD44 JUMPI PUSH2 0xD43 PUSH2 0x23AE JUMP JUMPDEST JUMPDEST SUB PUSH2 0xE0B JUMPI DUP2 PUSH0 ADD MLOAD PUSH20 0xFFFFFFFFFFFFFFFFFFFFFFFFFFFFFFFFFFFFFFFF AND PUSH4 0xA9059CBB CALLER DUP4 PUSH1 0x40 MLOAD DUP4 PUSH4 0xFFFFFFFF AND PUSH1 0xE0 SHL DUP2 MSTORE PUSH1 0x4 ADD PUSH2 0xD87 SWAP3 SWAP2 SWAP1 PUSH2 0x2941 JUMP JUMPDEST PUSH1 0x20 PUSH1 0x40 MLOAD DUP1 DUP4 SUB DUP2 PUSH0 DUP8 GAS CALL ISZERO DUP1 ISZERO PUSH2 0xDA3 JUMPI RETURNDATASIZE PUSH0 DUP1 RETURNDATACOPY RETURNDATASIZE PUSH0 REVERT JUMPDEST POP POP POP POP PUSH1 0x40 MLOAD RETURNDATASIZE PUSH1 0x1F NOT PUSH1 0x1F DUP3 ADD AND DUP3 ADD DUP1 PUSH1 0x40 MSTORE POP DUP2 ADD SWAP1 PUSH2 0xDC7 SWAP2 SWAP1 PUSH2 0x27B8 JUMP JUMPDEST PUSH2 0xE06 JUMPI PUSH1 0x40 MLOAD PUSH32 0x8C379A000000000000000000000000000000000000000000000000000000000 DUP2 MSTORE PUSH1 0x4 ADD PUSH2 0xDFD SWAP1 PUSH2 0x29D8 JUMP JUMPDEST PUSH1 0x40 MLOAD DUP1 SWAP2 SUB SWAP1 REVERT JUMPDEST PUSH2 0xE25 JUMP JUMPDEST PUSH2 0xE24 CALLER DUP4 PUSH1 0x60 ADD MLOAD DUP4 PUSH2 0xE1F SWAP2 SWAP1 PUSH2 0x2A23 JUMP JUMPDEST PUSH2 0x1700 JUMP JUMPDEST JUMPDEST PUSH2 0xE2E CALLER PUSH2 0x17AD JUMP JUMPDEST POP POP PUSH1 0x1 PUSH1 0x5 PUSH0 DUP4 PUSH20 0xFFFFFFFFFFFFFFFFFFFFFFFFFFFFFFFFFFFFFFFF AND PUSH20 0xFFFFFFFFFFFFFFFFFFFFFFFFFFFFFFFFFFFFFFFF AND DUP2 MSTORE PUSH1 0x20 ADD SWAP1 DUP2 MSTORE PUSH1 0x20 ADD PUSH0 KECCAK256 PUSH0 PUSH2 0x100 EXP DUP2 SLOAD DUP2 PUSH1 0xFF MUL NOT AND SWAP1 DUP4 ISZERO ISZERO MUL OR SWAP1 SSTORE POP POP JUMP JUMPDEST DUP3 PUSH1 0x5 PUSH0 DUP3 PUSH20 0xFFFFFFFFFFFFFFFFFFFFFFFFFFFFFFFFFFFFFFFF AND PUSH20 0xFFFFFFFFFFFFFFFFFFFFFFFFFFFFFFFFFFFFFFFF AND DUP2 MSTORE PUSH1 0x20 ADD SWAP1 DUP2 MSTORE PUSH1 0x20 ADD PUSH0 KECCAK256 PUSH0 SWAP1 SLOAD SWAP1 PUSH2 0x100 EXP SWAP1 DIV PUSH1 0xFF AND PUSH2 0xF12 JUMPI PUSH1 0x40 MLOAD PUSH32 0x8C379A000000000000000000000000000000000000000000000000000000000 DUP2 MSTORE PUSH1 0x4 ADD PUSH2 0xF09 SWAP1 PUSH2 0x2605 JUMP JUMPDEST PUSH1 0x40 MLOAD DUP1 SWAP2 SUB SWAP1 REVERT JUMPDEST PUSH0 PUSH1 0x5 PUSH0 DUP4 PUSH20 0xFFFFFFFFFFFFFFFFFFFFFFFFFFFFFFFFFFFFFFFF AND PUSH20 0xFFFFFFFFFFFFFFFFFFFFFFFFFFFFFFFFFFFFFFFF AND DUP2 MSTORE PUSH1 0x20 ADD SWAP1 DUP2 MSTORE PUSH1 0x20 ADD PUSH0 KECCAK256 PUSH0 PUSH2 0x100 EXP DUP2 SLOAD DUP2 PUSH1 0xFF MUL NOT AND SWAP1 DUP4 ISZERO ISZERO MUL OR SWAP1 SSTORE POP PUSH0 PUSH1 0x2 DUP2 GT ISZERO PUSH2 0xF79 JUMPI PUSH2 0xF78 PUSH2 0x23AE JUMP JUMPDEST JUMPDEST PUSH1 0x2 PUSH0 CALLER PUSH20 0xFFFFFFFFFFFFFFFFFFFFFFFFFFFFFFFFFFFFFFFF AND PUSH20 0xFFFFFFFFFFFFFFFFFFFFFFFFFFFFFFFFFFFFFFFF AND DUP2 MSTORE PUSH1 0x20 ADD SWAP1 DUP2 MSTORE PUSH1 0x20 ADD PUSH0 KECCAK256 PUSH1 0x4 ADD PUSH0 SWAP1 SLOAD SWAP1 PUSH2 0x100 EXP SWAP1 DIV PUSH1 0xFF AND PUSH1 0x2 DUP2 GT ISZERO PUSH2 0xFD8 JUMPI PUSH2 0xFD7 PUSH2 0x23AE JUMP JUMPDEST JUMPDEST EQ PUSH2 0xFE1 JUMPI PUSH0 DUP1 REVERT JUMPDEST DUP3 PUSH0 DUP2 SUB PUSH2 0x1024 JUMPI PUSH1 0x40 MLOAD PUSH32 0x8C379A000000000000000000000000000000000000000000000000000000000 DUP2 MSTORE PUSH1 0x4 ADD PUSH2 0x101B SWAP1 PUSH2 0x266D JUMP JUMPDEST PUSH1 0x40 MLOAD DUP1 SWAP2 SUB SWAP1 REVERT JUMPDEST DUP3 PUSH0 DUP2 SUB PUSH2 0x1067 JUMPI PUSH1 0x40 MLOAD PUSH32 0x8C379A000000000000000000000000000000000000000000000000000000000 DUP2 MSTORE PUSH1 0x4 ADD PUSH2 0x105E SWAP1 PUSH2 0x26D5 JUMP JUMPDEST PUSH1 0x40 MLOAD DUP1 SWAP2 SUB SWAP1 REVERT JUMPDEST DUP4 DUP6 PUSH2 0x1073 SWAP2 SWAP1 PUSH2 0x2A23 JUMP JUMPDEST DUP1 CALLVALUE LT ISZERO PUSH2 0x107F JUMPI PUSH0 DUP1 REVERT JUMPDEST PUSH1 0x2 DUP1 PUSH0 CALLER PUSH20 0xFFFFFFFFFFFFFFFFFFFFFFFFFFFFFFFFFFFFFFFF AND PUSH20 0xFFFFFFFFFFFFFFFFFFFFFFFFFFFFFFFFFFFFFFFF AND DUP2 MSTORE PUSH1 0x20 ADD SWAP1 DUP2 MSTORE PUSH1 0x20 ADD PUSH0 KECCAK256 PUSH1 0x4 ADD PUSH0 PUSH2 0x100 EXP DUP2 SLOAD DUP2 PUSH1 0xFF MUL NOT AND SWAP1 DUP4 PUSH1 0x2 DUP2 GT ISZERO PUSH2 0x10E1 JUMPI PUSH2 0x10E0 PUSH2 0x23AE JUMP JUMPDEST JUMPDEST MUL OR SWAP1 SSTORE POP DUP5 DUP7 PUSH2 0x10F2 SWAP2 SWAP1 PUSH2 0x2A23 JUMP JUMPDEST CALLVALUE GT ISZERO PUSH2 0x111A JUMPI PUSH2 0x1119 CALLER DUP7 DUP9 PUSH2 0x1109 SWAP2 SWAP1 PUSH2 0x2A23 JUMP JUMPDEST CALLVALUE PUSH2 0x1114 SWAP2 SWAP1 PUSH2 0x2A64 JUMP JUMPDEST PUSH2 0x1700 JUMP JUMPDEST JUMPDEST PUSH2 0x1127 DUP8 DUP8 DUP8 PUSH1 0x2 PUSH2 0x13B1 JUMP JUMPDEST POP POP POP PUSH1 0x1 PUSH1 0x5 PUSH0 DUP4 PUSH20 0xFFFFFFFFFFFFFFFFFFFFFFFFFFFFFFFFFFFFFFFF AND PUSH20 0xFFFFFFFFFFFFFFFFFFFFFFFFFFFFFFFFFFFFFFFF AND DUP2 MSTORE PUSH1 0x20 ADD SWAP1 DUP2 MSTORE PUSH1 0x20 ADD PUSH0 KECCAK256 PUSH0 PUSH2 0x100 EXP DUP2 SLOAD DUP2 PUSH1 0xFF MUL NOT AND SWAP1 DUP4 ISZERO ISZERO MUL OR SWAP1 SSTORE POP POP POP POP POP JUMP JUMPDEST PUSH0 DUP1 PUSH0 SWAP1 SLOAD SWAP1 PUSH2 0x100 EXP SWAP1 DIV PUSH20 0xFFFFFFFFFFFFFFFFFFFFFFFFFFFFFFFFFFFFFFFF AND DUP1 PUSH20 0xFFFFFFFFFFFFFFFFFFFFFFFFFFFFFFFFFFFFFFFF AND CALLER PUSH20 0xFFFFFFFFFFFFFFFFFFFFFFFFFFFFFFFFFFFFFFFF AND EQ PUSH2 0x1215 JUMPI PUSH1 0x40 MLOAD PUSH32 0x8C379A000000000000000000000000000000000000000000000000000000000 DUP2 MSTORE PUSH1 0x4 ADD PUSH2 0x120C SWAP1 PUSH2 0x259D JUMP JUMPDEST PUSH1 0x40 MLOAD DUP1 SWAP2 SUB SWAP1 REVERT JUMPDEST DUP3 DUP1 PUSH20 0xFFFFFFFFFFFFFFFFFFFFFFFFFFFFFFFFFFFFFFFF AND PUSH0 PUSH20 0xFFFFFFFFFFFFFFFFFFFFFFFFFFFFFFFFFFFFFFFF AND SUB PUSH2 0x1284 JUMPI PUSH1 0x40 MLOAD PUSH32 0x8C379A000000000000000000000000000000000000000000000000000000000 DUP2 MSTORE PUSH1 0x4 ADD PUSH2 0x127B SWAP1 PUSH2 0x2B07 JUMP JUMPDEST PUSH1 0x40 MLOAD DUP1 SWAP2 SUB SWAP1 REVERT JUMPDEST DUP4 PUSH1 0x1 PUSH0 PUSH2 0x100 EXP DUP2 SLOAD DUP2 PUSH20 0xFFFFFFFFFFFFFFFFFFFFFFFFFFFFFFFFFFFFFFFF MUL NOT AND SWAP1 DUP4 PUSH20 0xFFFFFFFFFFFFFFFFFFFFFFFFFFFFFFFFFFFFFFFF AND MUL OR SWAP1 SSTORE POP PUSH1 0x1 PUSH0 SWAP1 SLOAD SWAP1 PUSH2 0x100 EXP SWAP1 DIV PUSH20 0xFFFFFFFFFFFFFFFFFFFFFFFFFFFFFFFFFFFFFFFF AND PUSH20 0xFFFFFFFFFFFFFFFFFFFFFFFFFFFFFFFFFFFFFFFF AND PUSH0 DUP1 SLOAD SWAP1 PUSH2 0x100 EXP SWAP1 DIV PUSH20 0xFFFFFFFFFFFFFFFFFFFFFFFFFFFFFFFFFFFFFFFF AND PUSH20 0xFFFFFFFFFFFFFFFFFFFFFFFFFFFFFFFFFFFFFFFF AND PUSH32 0xFEE8BF98F40B2AC772A78CD4D45742484D3471F99046B224F8E6922E7C6EB1D2 PUSH1 0x40 MLOAD PUSH1 0x40 MLOAD DUP1 SWAP2 SUB SWAP1 LOG3 PUSH1 0x1 SWAP3 POP POP POP SWAP2 SWAP1 POP JUMP JUMPDEST PUSH1 0x1 PUSH0 SWAP1 SLOAD SWAP1 PUSH2 0x100 EXP SWAP1 DIV PUSH20 0xFFFFFFFFFFFFFFFFFFFFFFFFFFFFFFFFFFFFFFFF AND DUP2 JUMP JUMPDEST PUSH0 DUP1 SLOAD SWAP1 PUSH2 0x100 EXP SWAP1 DIV PUSH20 0xFFFFFFFFFFFFFFFFFFFFFFFFFFFFFFFFFFFFFFFF AND DUP2 JUMP JUMPDEST PUSH0 PUSH1 0x1 PUSH1 0x2 DUP2 GT ISZERO PUSH2 0x13C6 JUMPI PUSH2 0x13C5 PUSH2 0x23AE JUMP JUMPDEST JUMPDEST DUP3 PUSH1 0x2 DUP2 GT ISZERO PUSH2 0x13D9 JUMPI PUSH2 0x13D8 PUSH2 0x23AE JUMP JUMPDEST JUMPDEST EQ PUSH2 0x1420 JUMPI PUSH1 0x3 PUSH0 DUP7 PUSH20 0xFFFFFFFFFFFFFFFFFFFFFFFFFFFFFFFFFFFFFFFF AND PUSH20 0xFFFFFFFFFFFFFFFFFFFFFFFFFFFFFFFFFFFFFFFF AND DUP2 MSTORE PUSH1 0x20 ADD SWAP1 DUP2 MSTORE PUSH1 0x20 ADD PUSH0 KECCAK256 PUSH2 0x145E JUMP JUMPDEST PUSH1 0x4 PUSH0 DUP7 PUSH20 0xFFFFFFFFFFFFFFFFFFFFFFFFFFFFFFFFFFFFFFFF AND PUSH20 0xFFFFFFFFFFFFFFFFFFFFFFFFFFFFFFFFFFFFFFFF AND DUP2 MSTORE PUSH1 0x20 ADD SWAP1 DUP2 MSTORE PUSH1 0x20 ADD PUSH0 KECCAK256 JUMPDEST DUP1 SLOAD DUP1 PUSH1 0x20 MUL PUSH1 0x20 ADD PUSH1 0x40 MLOAD SWAP1 DUP2 ADD PUSH1 0x40 MSTORE DUP1 SWAP3 SWAP2 SWAP1 DUP2 DUP2 MSTORE PUSH1 0x20 ADD DUP3 DUP1 SLOAD DUP1 ISZERO PUSH2 0x14DB JUMPI PUSH1 0x20 MUL DUP3 ADD SWAP2 SWAP1 PUSH0 MSTORE PUSH1 0x20 PUSH0 KECCAK256 SWAP1 JUMPDEST DUP2 PUSH0 SWAP1 SLOAD SWAP1 PUSH2 0x100 EXP SWAP1 DIV PUSH20 0xFFFFFFFFFFFFFFFFFFFFFFFFFFFFFFFFFFFFFFFF AND PUSH20 0xFFFFFFFFFFFFFFFFFFFFFFFFFFFFFFFFFFFFFFFF AND DUP2 MSTORE PUSH1 0x20 ADD SWAP1 PUSH1 0x1 ADD SWAP1 DUP1 DUP4 GT PUSH2 0x1492 JUMPI JUMPDEST POP POP POP POP POP SWAP1 POP PUSH0 DUP5 SWAP1 POP PUSH0 DUP3 MLOAD SWAP1 POP JUMPDEST PUSH0 DUP2 GT ISZERO PUSH2 0x1676 JUMPI PUSH0 PUSH1 0x2 PUSH0 DUP6 PUSH1 0x1 DUP6 PUSH2 0x1506 SWAP2 SWAP1 PUSH2 0x2A64 JUMP JUMPDEST DUP2 MLOAD DUP2 LT PUSH2 0x1517 JUMPI PUSH2 0x1516 PUSH2 0x2B25 JUMP JUMPDEST JUMPDEST PUSH1 0x20 MUL PUSH1 0x20 ADD ADD MLOAD PUSH20 0xFFFFFFFFFFFFFFFFFFFFFFFFFFFFFFFFFFFFFFFF AND PUSH20 0xFFFFFFFFFFFFFFFFFFFFFFFFFFFFFFFFFFFFFFFF AND DUP2 MSTORE PUSH1 0x20 ADD SWAP1 DUP2 MSTORE PUSH1 0x20 ADD PUSH0 KECCAK256 PUSH1 0x40 MLOAD DUP1 PUSH1 0xA0 ADD PUSH1 0x40 MSTORE SWAP1 DUP2 PUSH0 DUP3 ADD PUSH0 SWAP1 SLOAD SWAP1 PUSH2 0x100 EXP SWAP1 DIV PUSH20 0xFFFFFFFFFFFFFFFFFFFFFFFFFFFFFFFFFFFFFFFF AND PUSH20 0xFFFFFFFFFFFFFFFFFFFFFFFFFFFFFFFFFFFFFFFF AND PUSH20 0xFFFFFFFFFFFFFFFFFFFFFFFFFFFFFFFFFFFFFFFF AND DUP2 MSTORE PUSH1 0x20 ADD PUSH1 0x1 DUP3 ADD SLOAD DUP2 MSTORE PUSH1 0x20 ADD PUSH1 0x2 DUP3 ADD SLOAD DUP2 MSTORE PUSH1 0x20 ADD PUSH1 0x3 DUP3 ADD SLOAD DUP2 MSTORE PUSH1 0x20 ADD PUSH1 0x4 DUP3 ADD PUSH0 SWAP1 SLOAD SWAP1 PUSH2 0x100 EXP SWAP1 DIV PUSH1 0xFF AND PUSH1 0x2 DUP2 GT ISZERO PUSH2 0x15F9 JUMPI PUSH2 0x15F8 PUSH2 0x23AE JUMP JUMPDEST JUMPDEST PUSH1 0x2 DUP2 GT ISZERO PUSH2 0x160B JUMPI PUSH2 0x160A PUSH2 0x23AE JUMP JUMPDEST JUMPDEST DUP2 MSTORE POP POP SWAP1 POP PUSH2 0x161B DUP2 DUP8 PUSH2 0x1B46 JUMP JUMPDEST ISZERO PUSH2 0x1662 JUMPI PUSH2 0x1652 DUP9 DUP6 PUSH1 0x1 DUP6 PUSH2 0x1632 SWAP2 SWAP1 PUSH2 0x2A64 JUMP JUMPDEST DUP2 MLOAD DUP2 LT PUSH2 0x1643 JUMPI PUSH2 0x1642 PUSH2 0x2B25 JUMP JUMPDEST JUMPDEST PUSH1 0x20 MUL PUSH1 0x20 ADD ADD MLOAD DUP6 DUP10 PUSH2 0x1BAF JUMP JUMPDEST SWAP3 POP PUSH0 DUP4 SUB PUSH2 0x1661 JUMPI POP PUSH2 0x1676 JUMP JUMPDEST JUMPDEST POP DUP1 DUP1 PUSH2 0x166E SWAP1 PUSH2 0x2B52 JUMP JUMPDEST SWAP2 POP POP PUSH2 0x14EC JUMP JUMPDEST POP PUSH0 DUP2 GT ISZERO PUSH2 0x1690 JUMPI PUSH2 0x168B DUP7 DUP3 DUP7 DUP7 PUSH2 0x201D JUMP JUMPDEST PUSH2 0x16F8 JUMP JUMPDEST PUSH0 PUSH1 0x2 PUSH0 CALLER PUSH20 0xFFFFFFFFFFFFFFFFFFFFFFFFFFFFFFFFFFFFFFFF AND PUSH20 0xFFFFFFFFFFFFFFFFFFFFFFFFFFFFFFFFFFFFFFFF AND DUP2 MSTORE PUSH1 0x20 ADD SWAP1 DUP2 MSTORE PUSH1 0x20 ADD PUSH0 KECCAK256 PUSH1 0x4 ADD PUSH0 PUSH2 0x100 EXP DUP2 SLOAD DUP2 PUSH1 0xFF MUL NOT AND SWAP1 DUP4 PUSH1 0x2 DUP2 GT ISZERO PUSH2 0x16F2 JUMPI PUSH2 0x16F1 PUSH2 0x23AE JUMP JUMPDEST JUMPDEST MUL OR SWAP1 SSTORE POP JUMPDEST POP POP POP POP POP POP JUMP JUMPDEST PUSH0 DUP3 PUSH20 0xFFFFFFFFFFFFFFFFFFFFFFFFFFFFFFFFFFFFFFFF AND DUP3 PUSH1 0x40 MLOAD PUSH2 0x1725 SWAP1 PUSH2 0x2BA6 JUMP JUMPDEST PUSH0 PUSH1 0x40 MLOAD DUP1 DUP4 SUB DUP2 DUP6 DUP8 GAS CALL SWAP3 POP POP POP RETURNDATASIZE DUP1 PUSH0 DUP2 EQ PUSH2 0x175F JUMPI PUSH1 0x40 MLOAD SWAP2 POP PUSH1 0x1F NOT PUSH1 0x3F RETURNDATASIZE ADD AND DUP3 ADD PUSH1 0x40 MSTORE RETURNDATASIZE DUP3 MSTORE RETURNDATASIZE PUSH0 PUSH1 0x20 DUP5 ADD RETURNDATACOPY PUSH2 0x1764 JUMP JUMPDEST PUSH1 0x60 SWAP2 POP JUMPDEST POP POP SWAP1 POP DUP1 PUSH2 0x17A8 JUMPI PUSH1 0x40 MLOAD PUSH32 0x8C379A000000000000000000000000000000000000000000000000000000000 DUP2 MSTORE PUSH1 0x4 ADD PUSH2 0x179F SWAP1 PUSH2 0x2C04 JUMP JUMPDEST PUSH1 0x40 MLOAD DUP1 SWAP2 SUB SWAP1 REVERT JUMPDEST POP POP POP JUMP JUMPDEST PUSH0 PUSH1 0x2 PUSH0 DUP4 PUSH20 0xFFFFFFFFFFFFFFFFFFFFFFFFFFFFFFFFFFFFFFFF AND PUSH20 0xFFFFFFFFFFFFFFFFFFFFFFFFFFFFFFFFFFFFFFFF AND DUP2 MSTORE PUSH1 0x20 ADD SWAP1 DUP2 MSTORE PUSH1 0x20 ADD PUSH0 KECCAK256 PUSH1 0x40 MLOAD DUP1 PUSH1 0xA0 ADD PUSH1 0x40 MSTORE SWAP1 DUP2 PUSH0 DUP3 ADD PUSH0 SWAP1 SLOAD SWAP1 PUSH2 0x100 EXP SWAP1 DIV PUSH20 0xFFFFFFFFFFFFFFFFFFFFFFFFFFFFFFFFFFFFFFFF AND PUSH20 0xFFFFFFFFFFFFFFFFFFFFFFFFFFFFFFFFFFFFFFFF AND PUSH20 0xFFFFFFFFFFFFFFFFFFFFFFFFFFFFFFFFFFFFFFFF AND DUP2 MSTORE PUSH1 0x20 ADD PUSH1 0x1 DUP3 ADD SLOAD DUP2 MSTORE PUSH1 0x20 ADD PUSH1 0x2 DUP3 ADD SLOAD DUP2 MSTORE PUSH1 0x20 ADD PUSH1 0x3 DUP3 ADD SLOAD DUP2 MSTORE PUSH1 0x20 ADD PUSH1 0x4 DUP3 ADD PUSH0 SWAP1 SLOAD SWAP1 PUSH2 0x100 EXP SWAP1 DIV PUSH1 0xFF AND PUSH1 0x2 DUP2 GT ISZERO PUSH2 0x188C JUMPI PUSH2 0x188B PUSH2 0x23AE JUMP JUMPDEST JUMPDEST PUSH1 0x2 DUP2 GT ISZERO PUSH2 0x189E JUMPI PUSH2 0x189D PUSH2 0x23AE JUMP JUMPDEST JUMPDEST DUP2 MSTORE POP POP SWAP1 POP PUSH0 PUSH1 0x1 PUSH1 0x2 DUP2 GT ISZERO PUSH2 0x18B9 JUMPI PUSH2 0x18B8 PUSH2 0x23AE JUMP JUMPDEST JUMPDEST DUP3 PUSH1 0x80 ADD MLOAD PUSH1 0x2 DUP2 GT ISZERO PUSH2 0x18D0 JUMPI PUSH2 0x18CF PUSH2 0x23AE JUMP JUMPDEST JUMPDEST EQ PUSH2 0x191A JUMPI PUSH1 0x4 PUSH0 DUP4 PUSH0 ADD MLOAD PUSH20 0xFFFFFFFFFFFFFFFFFFFFFFFFFFFFFFFFFFFFFFFF AND PUSH20 0xFFFFFFFFFFFFFFFFFFFFFFFFFFFFFFFFFFFFFFFF AND DUP2 MSTORE PUSH1 0x20 ADD SWAP1 DUP2 MSTORE PUSH1 0x20 ADD PUSH0 KECCAK256 PUSH2 0x195B JUMP JUMPDEST PUSH1 0x3 PUSH0 DUP4 PUSH0 ADD MLOAD PUSH20 0xFFFFFFFFFFFFFFFFFFFFFFFFFFFFFFFFFFFFFFFF AND PUSH20 0xFFFFFFFFFFFFFFFFFFFFFFFFFFFFFFFFFFFFFFFF AND DUP2 MSTORE PUSH1 0x20 ADD SWAP1 DUP2 MSTORE PUSH1 0x20 ADD PUSH0 KECCAK256 JUMPDEST SWAP1 POP DUP2 PUSH1 0x20 ADD MLOAD PUSH1 0x2 PUSH0 DUP4 PUSH1 0x1 DUP6 DUP1 SLOAD SWAP1 POP PUSH2 0x1977 SWAP2 SWAP1 PUSH2 0x2A64 JUMP JUMPDEST DUP2 SLOAD DUP2 LT PUSH2 0x1988 JUMPI PUSH2 0x1987 PUSH2 0x2B25 JUMP JUMPDEST JUMPDEST SWAP1 PUSH0 MSTORE PUSH1 0x20 PUSH0 KECCAK256 ADD PUSH0 SWAP1 SLOAD SWAP1 PUSH2 0x100 EXP SWAP1 DIV PUSH20 0xFFFFFFFFFFFFFFFFFFFFFFFFFFFFFFFFFFFFFFFF AND PUSH20 0xFFFFFFFFFFFFFFFFFFFFFFFFFFFFFFFFFFFFFFFF AND PUSH20 0xFFFFFFFFFFFFFFFFFFFFFFFFFFFFFFFFFFFFFFFF AND DUP2 MSTORE PUSH1 0x20 ADD SWAP1 DUP2 MSTORE PUSH1 0x20 ADD PUSH0 KECCAK256 PUSH1 0x1 ADD DUP2 SWAP1 SSTORE POP DUP1 PUSH1 0x1 DUP3 DUP1 SLOAD SWAP1 POP PUSH2 0x1A02 SWAP2 SWAP1 PUSH2 0x2A64 JUMP JUMPDEST DUP2 SLOAD DUP2 LT PUSH2 0x1A13 JUMPI PUSH2 0x1A12 PUSH2 0x2B25 JUMP JUMPDEST JUMPDEST SWAP1 PUSH0 MSTORE PUSH1 0x20 PUSH0 KECCAK256 ADD PUSH0 SWAP1 SLOAD SWAP1 PUSH2 0x100 EXP SWAP1 DIV PUSH20 0xFFFFFFFFFFFFFFFFFFFFFFFFFFFFFFFFFFFFFFFF AND DUP2 DUP4 PUSH1 0x20 ADD MLOAD DUP2 SLOAD DUP2 LT PUSH2 0x1A52 JUMPI PUSH2 0x1A51 PUSH2 0x2B25 JUMP JUMPDEST JUMPDEST SWAP1 PUSH0 MSTORE PUSH1 0x20 PUSH0 KECCAK256 ADD PUSH0 PUSH2 0x100 EXP DUP2 SLOAD DUP2 PUSH20 0xFFFFFFFFFFFFFFFFFFFFFFFFFFFFFFFFFFFFFFFF MUL NOT AND SWAP1 DUP4 PUSH20 0xFFFFFFFFFFFFFFFFFFFFFFFFFFFFFFFFFFFFFFFF AND MUL OR SWAP1 SSTORE POP DUP1 DUP1 SLOAD DUP1 PUSH2 0x1AA8 JUMPI PUSH2 0x1AA7 PUSH2 0x2C22 JUMP JUMPDEST JUMPDEST PUSH1 0x1 SWAP1 SUB DUP2 DUP2 SWAP1 PUSH0 MSTORE PUSH1 0x20 PUSH0 KECCAK256 ADD PUSH0 PUSH2 0x100 EXP DUP2 SLOAD SWAP1 PUSH20 0xFFFFFFFFFFFFFFFFFFFFFFFFFFFFFFFFFFFFFFFF MUL NOT AND SWAP1 SSTORE SWAP1 SSTORE PUSH0 PUSH1 0x2 PUSH0 DUP6 PUSH20 0xFFFFFFFFFFFFFFFFFFFFFFFFFFFFFFFFFFFFFFFF AND PUSH20 0xFFFFFFFFFFFFFFFFFFFFFFFFFFFFFFFFFFFFFFFF AND DUP2 MSTORE PUSH1 0x20 ADD SWAP1 DUP2 MSTORE PUSH1 0x20 ADD PUSH0 KECCAK256 PUSH1 0x4 ADD PUSH0 PUSH2 0x100 EXP DUP2 SLOAD DUP2 PUSH1 0xFF MUL NOT AND SWAP1 DUP4 PUSH1 0x2 DUP2 GT ISZERO PUSH2 0x1B3C JUMPI PUSH2 0x1B3B PUSH2 0x23AE JUMP JUMPDEST JUMPDEST MUL OR SWAP1 SSTORE POP POP POP POP JUMP JUMPDEST PUSH0 PUSH1 0x1 PUSH1 0x2 DUP2 GT ISZERO PUSH2 0x1B5B JUMPI PUSH2 0x1B5A PUSH2 0x23AE JUMP JUMPDEST JUMPDEST DUP4 PUSH1 0x80 ADD MLOAD PUSH1 0x2 DUP2 GT ISZERO PUSH2 0x1B72 JUMPI PUSH2 0x1B71 PUSH2 0x23AE JUMP JUMPDEST JUMPDEST SUB PUSH2 0x1B90 JUMPI DUP2 DUP4 PUSH1 0x60 ADD MLOAD GT PUSH2 0x1B8B JUMPI PUSH1 0x1 SWAP1 POP PUSH2 0x1BA9 JUMP JUMPDEST PUSH2 0x1BA5 JUMP JUMPDEST DUP2 DUP4 PUSH1 0x60 ADD MLOAD LT PUSH2 0x1BA4 JUMPI PUSH1 0x1 SWAP1 POP PUSH2 0x1BA9 JUMP JUMPDEST JUMPDEST PUSH0 SWAP1 POP JUMPDEST SWAP3 SWAP2 POP POP JUMP JUMPDEST PUSH0 DUP1 PUSH1 0x2 PUSH0 DUP7 PUSH20 0xFFFFFFFFFFFFFFFFFFFFFFFFFFFFFFFFFFFFFFFF AND PUSH20 0xFFFFFFFFFFFFFFFFFFFFFFFFFFFFFFFFFFFFFFFF AND DUP2 MSTORE PUSH1 0x20 ADD SWAP1 DUP2 MSTORE PUSH1 0x20 ADD PUSH0 KECCAK256 PUSH1 0x40 MLOAD DUP1 PUSH1 0xA0 ADD PUSH1 0x40 MSTORE SWAP1 DUP2 PUSH0 DUP3 ADD PUSH0 SWAP1 SLOAD SWAP1 PUSH2 0x100 EXP SWAP1 DIV PUSH20 0xFFFFFFFFFFFFFFFFFFFFFFFFFFFFFFFFFFFFFFFF AND PUSH20 0xFFFFFFFFFFFFFFFFFFFFFFFFFFFFFFFFFFFFFFFF AND PUSH20 0xFFFFFFFFFFFFFFFFFFFFFFFFFFFFFFFFFFFFFFFF AND DUP2 MSTORE PUSH1 0x20 ADD PUSH1 0x1 DUP3 ADD SLOAD DUP2 MSTORE PUSH1 0x20 ADD PUSH1 0x2 DUP3 ADD SLOAD DUP2 MSTORE PUSH1 0x20 ADD PUSH1 0x3 DUP3 ADD SLOAD DUP2 MSTORE PUSH1 0x20 ADD PUSH1 0x4 DUP3 ADD PUSH0 SWAP1 SLOAD SWAP1 PUSH2 0x100 EXP SWAP1 DIV PUSH1 0xFF AND PUSH1 0x2 DUP2 GT ISZERO PUSH2 0x1C8F JUMPI PUSH2 0x1C8E PUSH2 0x23AE JUMP JUMPDEST JUMPDEST PUSH1 0x2 DUP2 GT ISZERO PUSH2 0x1CA1 JUMPI PUSH2 0x1CA0 PUSH2 0x23AE JUMP JUMPDEST JUMPDEST DUP2 MSTORE POP POP SWAP1 POP PUSH0 DUP2 PUSH1 0x40 ADD MLOAD DUP6 LT PUSH2 0x1CBD JUMPI DUP2 PUSH1 0x40 ADD MLOAD PUSH2 0x1CBF JUMP JUMPDEST DUP5 JUMPDEST SWAP1 POP PUSH1 0x2 DUP1 DUP2 GT ISZERO PUSH2 0x1CD4 JUMPI PUSH2 0x1CD3 PUSH2 0x23AE JUMP JUMPDEST JUMPDEST DUP3 PUSH1 0x80 ADD MLOAD PUSH1 0x2 DUP2 GT ISZERO PUSH2 0x1CEB JUMPI PUSH2 0x1CEA PUSH2 0x23AE JUMP JUMPDEST JUMPDEST SUB PUSH2 0x1DF9 JUMPI DUP7 PUSH20 0xFFFFFFFFFFFFFFFFFFFFFFFFFFFFFFFFFFFFFFFF AND PUSH4 0xA9059CBB DUP8 DUP4 PUSH1 0x40 MLOAD DUP4 PUSH4 0xFFFFFFFF AND PUSH1 0xE0 SHL DUP2 MSTORE PUSH1 0x4 ADD PUSH2 0x1D2B SWAP3 SWAP2 SWAP1 PUSH2 0x2941 JUMP JUMPDEST PUSH1 0x20 PUSH1 0x40 MLOAD DUP1 DUP4 SUB DUP2 PUSH0 DUP8 GAS CALL ISZERO DUP1 ISZERO PUSH2 0x1D47 JUMPI RETURNDATASIZE PUSH0 DUP1 RETURNDATACOPY RETURNDATASIZE PUSH0 REVERT JUMPDEST POP POP POP POP PUSH1 0x40 MLOAD RETURNDATASIZE PUSH1 0x1F NOT PUSH1 0x1F DUP3 ADD AND DUP3 ADD DUP1 PUSH1 0x40 MSTORE POP DUP2 ADD SWAP1 PUSH2 0x1D6B SWAP2 SWAP1 PUSH2 0x27B8 JUMP JUMPDEST PUSH2 0x1DAA JUMPI PUSH1 0x40 MLOAD PUSH32 0x8C379A000000000000000000000000000000000000000000000000000000000 DUP2 MSTORE PUSH1 0x4 ADD PUSH2 0x1DA1 SWAP1 PUSH2 0x2C99 JUMP JUMPDEST PUSH1 0x40 MLOAD DUP1 SWAP2 SUB SWAP1 REVERT JUMPDEST PUSH2 0x1DC3 CALLER DUP4 PUSH1 0x60 ADD MLOAD DUP4 PUSH2 0x1DBE SWAP2 SWAP1 PUSH2 0x2A23 JUMP JUMPDEST PUSH2 0x1700 JUMP JUMPDEST DUP4 DUP3 PUSH1 0x60 ADD MLOAD GT ISZERO PUSH2 0x1DF4 JUMPI PUSH2 0x1DF3 DUP7 DUP3 DUP7 DUP6 PUSH1 0x60 ADD MLOAD PUSH2 0x1DE4 SWAP2 SWAP1 PUSH2 0x2A64 JUMP JUMPDEST PUSH2 0x1DEE SWAP2 SWAP1 PUSH2 0x2A23 JUMP JUMPDEST PUSH2 0x1700 JUMP JUMPDEST JUMPDEST PUSH2 0x1EFE JUMP JUMPDEST DUP7 PUSH20 0xFFFFFFFFFFFFFFFFFFFFFFFFFFFFFFFFFFFFFFFF AND PUSH4 0xA9059CBB CALLER DUP4 PUSH1 0x40 MLOAD DUP4 PUSH4 0xFFFFFFFF AND PUSH1 0xE0 SHL DUP2 MSTORE PUSH1 0x4 ADD PUSH2 0x1E34 SWAP3 SWAP2 SWAP1 PUSH2 0x2941 JUMP JUMPDEST PUSH1 0x20 PUSH1 0x40 MLOAD DUP1 DUP4 SUB DUP2 PUSH0 DUP8 GAS CALL ISZERO DUP1 ISZERO PUSH2 0x1E50 JUMPI RETURNDATASIZE PUSH0 DUP1 RETURNDATACOPY RETURNDATASIZE PUSH0 REVERT JUMPDEST POP POP POP POP PUSH1 0x40 MLOAD RETURNDATASIZE PUSH1 0x1F NOT PUSH1 0x1F DUP3 ADD AND DUP3 ADD DUP1 PUSH1 0x40 MSTORE POP DUP2 ADD SWAP1 PUSH2 0x1E74 SWAP2 SWAP1 PUSH2 0x27B8 JUMP JUMPDEST PUSH2 0x1EB3 JUMPI PUSH1 0x40 MLOAD PUSH32 0x8C379A000000000000000000000000000000000000000000000000000000000 DUP2 MSTORE PUSH1 0x4 ADD PUSH2 0x1EAA SWAP1 PUSH2 0x2C99 JUMP JUMPDEST PUSH1 0x40 MLOAD DUP1 SWAP2 SUB SWAP1 REVERT JUMPDEST PUSH2 0x1ECC DUP7 DUP4 PUSH1 0x60 ADD MLOAD DUP4 PUSH2 0x1EC7 SWAP2 SWAP1 PUSH2 0x2A23 JUMP JUMPDEST PUSH2 0x1700 JUMP JUMPDEST DUP4 DUP3 PUSH1 0x60 ADD MLOAD LT ISZERO PUSH2 0x1EFD JUMPI PUSH2 0x1EFC CALLER DUP3 DUP5 PUSH1 0x60 ADD MLOAD DUP8 PUSH2 0x1EED SWAP2 SWAP1 PUSH2 0x2A64 JUMP JUMPDEST PUSH2 0x1EF7 SWAP2 SWAP1 PUSH2 0x2A23 JUMP JUMPDEST PUSH2 0x1700 JUMP JUMPDEST JUMPDEST JUMPDEST DUP1 DUP3 PUSH1 0x40 ADD DUP2 DUP2 MLOAD PUSH2 0x1F10 SWAP2 SWAP1 PUSH2 0x2A64 JUMP JUMPDEST SWAP2 POP DUP2 DUP2 MSTORE POP POP PUSH0 DUP3 PUSH1 0x40 ADD MLOAD SUB PUSH2 0x1F30 JUMPI PUSH2 0x1F2B DUP7 PUSH2 0x17AD JUMP JUMPDEST PUSH2 0x1F7A JUMP JUMPDEST DUP2 PUSH1 0x40 ADD MLOAD PUSH1 0x2 PUSH0 DUP9 PUSH20 0xFFFFFFFFFFFFFFFFFFFFFFFFFFFFFFFFFFFFFFFF AND PUSH20 0xFFFFFFFFFFFFFFFFFFFFFFFFFFFFFFFFFFFFFFFF AND DUP2 MSTORE PUSH1 0x20 ADD SWAP1 DUP2 MSTORE PUSH1 0x20 ADD PUSH0 KECCAK256 PUSH1 0x2 ADD DUP2 SWAP1 SSTORE POP JUMPDEST DUP6 PUSH20 0xFFFFFFFFFFFFFFFFFFFFFFFFFFFFFFFFFFFFFFFF AND CALLER PUSH20 0xFFFFFFFFFFFFFFFFFFFFFFFFFFFFFFFFFFFFFFFF AND DUP9 PUSH20 0xFFFFFFFFFFFFFFFFFFFFFFFFFFFFFFFFFFFFFFFF AND PUSH32 0x1CE728F6A2703272EE2E07CF07FD21DDC592575A5B6774A529B595FDF56DD1A6 DUP6 PUSH1 0x80 ADD MLOAD DUP6 DUP8 PUSH1 0x60 ADD MLOAD PUSH1 0x40 MLOAD PUSH2 0x1FFA SWAP4 SWAP3 SWAP2 SWAP1 PUSH2 0x2CB7 JUMP JUMPDEST PUSH1 0x40 MLOAD DUP1 SWAP2 SUB SWAP1 LOG4 DUP1 DUP6 PUSH2 0x200E SWAP2 SWAP1 PUSH2 0x2A64 JUMP JUMPDEST SWAP5 POP DUP5 SWAP3 POP POP POP SWAP5 SWAP4 POP POP POP POP JUMP JUMPDEST PUSH0 PUSH1 0x1 PUSH1 0x2 DUP2 GT ISZERO PUSH2 0x2032 JUMPI PUSH2 0x2031 PUSH2 0x23AE JUMP JUMPDEST JUMPDEST DUP3 PUSH1 0x2 DUP2 GT ISZERO PUSH2 0x2045 JUMPI PUSH2 0x2044 PUSH2 0x23AE JUMP JUMPDEST JUMPDEST SUB PUSH2 0x208C JUMPI PUSH1 0x3 PUSH0 DUP7 PUSH20 0xFFFFFFFFFFFFFFFFFFFFFFFFFFFFFFFFFFFFFFFF AND PUSH20 0xFFFFFFFFFFFFFFFFFFFFFFFFFFFFFFFFFFFFFFFF AND DUP2 MSTORE PUSH1 0x20 ADD SWAP1 DUP2 MSTORE PUSH1 0x20 ADD PUSH0 KECCAK256 PUSH2 0x20CA JUMP JUMPDEST PUSH1 0x4 PUSH0 DUP7 PUSH20 0xFFFFFFFFFFFFFFFFFFFFFFFFFFFFFFFFFFFFFFFF AND PUSH20 0xFFFFFFFFFFFFFFFFFFFFFFFFFFFFFFFFFFFFFFFF AND DUP2 MSTORE PUSH1 0x20 ADD SWAP1 DUP2 MSTORE PUSH1 0x20 ADD PUSH0 KECCAK256 JUMPDEST SWAP1 POP DUP1 CALLER SWAP1 DUP1 PUSH1 0x1 DUP2 SLOAD ADD DUP1 DUP3 SSTORE DUP1 SWAP2 POP POP PUSH1 0x1 SWAP1 SUB SWAP1 PUSH0 MSTORE PUSH1 0x20 PUSH0 KECCAK256 ADD PUSH0 SWAP1 SWAP2 SWAP1 SWAP2 SWAP1 SWAP2 PUSH2 0x100 EXP DUP2 SLOAD DUP2 PUSH20 0xFFFFFFFFFFFFFFFFFFFFFFFFFFFFFFFFFFFFFFFF MUL NOT AND SWAP1 DUP4 PUSH20 0xFFFFFFFFFFFFFFFFFFFFFFFFFFFFFFFFFFFFFFFF AND MUL OR SWAP1 SSTORE POP PUSH1 0x40 MLOAD DUP1 PUSH1 0xA0 ADD PUSH1 0x40 MSTORE DUP1 DUP7 PUSH20 0xFFFFFFFFFFFFFFFFFFFFFFFFFFFFFFFFFFFFFFFF AND DUP2 MSTORE PUSH1 0x20 ADD PUSH1 0x1 DUP4 DUP1 SLOAD SWAP1 POP PUSH2 0x2163 SWAP2 SWAP1 PUSH2 0x2A64 JUMP JUMPDEST DUP2 MSTORE PUSH1 0x20 ADD DUP6 DUP2 MSTORE PUSH1 0x20 ADD DUP5 DUP2 MSTORE PUSH1 0x20 ADD DUP4 PUSH1 0x2 DUP2 GT ISZERO PUSH2 0x2187 JUMPI PUSH2 0x2186 PUSH2 0x23AE JUMP JUMPDEST JUMPDEST DUP2 MSTORE POP PUSH1 0x2 PUSH0 CALLER PUSH20 0xFFFFFFFFFFFFFFFFFFFFFFFFFFFFFFFFFFFFFFFF AND PUSH20 0xFFFFFFFFFFFFFFFFFFFFFFFFFFFFFFFFFFFFFFFF AND DUP2 MSTORE PUSH1 0x20 ADD SWAP1 DUP2 MSTORE PUSH1 0x20 ADD PUSH0 KECCAK256 PUSH0 DUP3 ADD MLOAD DUP2 PUSH0 ADD PUSH0 PUSH2 0x100 EXP DUP2 SLOAD DUP2 PUSH20 0xFFFFFFFFFFFFFFFFFFFFFFFFFFFFFFFFFFFFFFFF MUL NOT AND SWAP1 DUP4 PUSH20 0xFFFFFFFFFFFFFFFFFFFFFFFFFFFFFFFFFFFFFFFF AND MUL OR SWAP1 SSTORE POP PUSH1 0x20 DUP3 ADD MLOAD DUP2 PUSH1 0x1 ADD SSTORE PUSH1 0x40 DUP3 ADD MLOAD DUP2 PUSH1 0x2 ADD SSTORE PUSH1 0x60 DUP3 ADD MLOAD DUP2 PUSH1 0x3 ADD SSTORE PUSH1 0x80 DUP3 ADD MLOAD DUP2 PUSH1 0x4 ADD PUSH0 PUSH2 0x100 EXP DUP2 SLOAD DUP2 PUSH1 0xFF MUL NOT AND SWAP1 DUP4 PUSH1 0x2 DUP2 GT ISZERO PUSH2 0x2253 JUMPI PUSH2 0x2252 PUSH2 0x23AE JUMP JUMPDEST JUMPDEST MUL OR SWAP1 SSTORE POP SWAP1 POP POP CALLER PUSH20 0xFFFFFFFFFFFFFFFFFFFFFFFFFFFFFFFFFFFFFFFF AND DUP6 PUSH20 0xFFFFFFFFFFFFFFFFFFFFFFFFFFFFFFFFFFFFFFFF AND PUSH32 0xBA9E7B0A1A964FEA173E3888FFBCBE410FCA9A481F92CF8FC8B76A1B70F31D68 DUP5 DUP8 DUP8 PUSH1 0x40 MLOAD PUSH2 0x22BC SWAP4 SWAP3 SWAP2 SWAP1 PUSH2 0x2CB7 JUMP JUMPDEST PUSH1 0x40 MLOAD DUP1 SWAP2 SUB SWAP1 LOG3 POP POP POP POP POP JUMP JUMPDEST PUSH0 DUP2 ISZERO ISZERO SWAP1 POP SWAP2 SWAP1 POP JUMP JUMPDEST PUSH2 0x22DF DUP2 PUSH2 0x22CB JUMP JUMPDEST DUP3 MSTORE POP POP JUMP JUMPDEST PUSH0 PUSH1 0x20 DUP3 ADD SWAP1 POP PUSH2 0x22F8 PUSH0 DUP4 ADD DUP5 PUSH2 0x22D6 JUMP JUMPDEST SWAP3 SWAP2 POP POP JUMP JUMPDEST PUSH0 DUP1 REVERT JUMPDEST PUSH0 PUSH20 0xFFFFFFFFFFFFFFFFFFFFFFFFFFFFFFFFFFFFFFFF DUP3 AND SWAP1 POP SWAP2 SWAP1 POP JUMP JUMPDEST PUSH0 PUSH2 0x232B DUP3 PUSH2 0x2302 JUMP JUMPDEST SWAP1 POP SWAP2 SWAP1 POP JUMP JUMPDEST PUSH2 0x233B DUP2 PUSH2 0x2321 JUMP JUMPDEST DUP2 EQ PUSH2 0x2345 JUMPI PUSH0 DUP1 REVERT JUMPDEST POP JUMP JUMPDEST PUSH0 DUP2 CALLDATALOAD SWAP1 POP PUSH2 0x2356 DUP2 PUSH2 0x2332 JUMP JUMPDEST SWAP3 SWAP2 POP POP JUMP JUMPDEST PUSH0 PUSH1 0x20 DUP3 DUP5 SUB SLT ISZERO PUSH2 0x2371 JUMPI PUSH2 0x2370 PUSH2 0x22FE JUMP JUMPDEST JUMPDEST PUSH0 PUSH2 0x237E DUP5 DUP3 DUP6 ADD PUSH2 0x2348 JUMP JUMPDEST SWAP2 POP POP SWAP3 SWAP2 POP POP JUMP JUMPDEST PUSH2 0x2390 DUP2 PUSH2 0x2321 JUMP JUMPDEST DUP3 MSTORE POP POP JUMP JUMPDEST PUSH0 DUP2 SWAP1 POP SWAP2 SWAP1 POP JUMP JUMPDEST PUSH2 0x23A8 DUP2 PUSH2 0x2396 JUMP JUMPDEST DUP3 MSTORE POP POP JUMP JUMPDEST PUSH32 0x4E487B7100000000000000000000000000000000000000000000000000000000 PUSH0 MSTORE PUSH1 0x21 PUSH1 0x4 MSTORE PUSH1 0x24 PUSH0 REVERT JUMPDEST PUSH1 0x3 DUP2 LT PUSH2 0x23EC JUMPI PUSH2 0x23EB PUSH2 0x23AE JUMP JUMPDEST JUMPDEST POP JUMP JUMPDEST PUSH0 DUP2 SWAP1 POP PUSH2 0x23FC DUP3 PUSH2 0x23DB JUMP JUMPDEST SWAP2 SWAP1 POP JUMP JUMPDEST PUSH0 PUSH2 0x240B DUP3 PUSH2 0x23EF JUMP JUMPDEST SWAP1 POP SWAP2 SWAP1 POP JUMP JUMPDEST PUSH2 0x241B DUP2 PUSH2 0x2401 JUMP JUMPDEST DUP3 MSTORE POP POP JUMP JUMPDEST PUSH0 PUSH1 0xA0 DUP3 ADD SWAP1 POP PUSH2 0x2434 PUSH0 DUP4 ADD DUP9 PUSH2 0x2387 JUMP JUMPDEST PUSH2 0x2441 PUSH1 0x20 DUP4 ADD DUP8 PUSH2 0x239F JUMP JUMPDEST PUSH2 0x244E PUSH1 0x40 DUP4 ADD DUP7 PUSH2 0x239F JUMP JUMPDEST PUSH2 0x245B PUSH1 0x60 DUP4 ADD DUP6 PUSH2 0x239F JUMP JUMPDEST PUSH2 0x2468 PUSH1 0x80 DUP4 ADD DUP5 PUSH2 0x2412 JUMP JUMPDEST SWAP7 SWAP6 POP POP POP POP POP POP JUMP JUMPDEST PUSH2 0x247B DUP2 PUSH2 0x2396 JUMP JUMPDEST DUP2 EQ PUSH2 0x2485 JUMPI PUSH0 DUP1 REVERT JUMPDEST POP JUMP JUMPDEST PUSH0 DUP2 CALLDATALOAD SWAP1 POP PUSH2 0x2496 DUP2 PUSH2 0x2472 JUMP JUMPDEST SWAP3 SWAP2 POP POP JUMP JUMPDEST PUSH0 DUP1 PUSH1 0x40 DUP4 DUP6 SUB SLT ISZERO PUSH2 0x24B2 JUMPI PUSH2 0x24B1 PUSH2 0x22FE JUMP JUMPDEST JUMPDEST PUSH0 PUSH2 0x24BF DUP6 DUP3 DUP7 ADD PUSH2 0x2348 JUMP JUMPDEST SWAP3 POP POP PUSH1 0x20 PUSH2 0x24D0 DUP6 DUP3 DUP7 ADD PUSH2 0x2488 JUMP JUMPDEST SWAP2 POP POP SWAP3 POP SWAP3 SWAP1 POP JUMP JUMPDEST PUSH0 PUSH1 0x20 DUP3 ADD SWAP1 POP PUSH2 0x24ED PUSH0 DUP4 ADD DUP5 PUSH2 0x2387 JUMP JUMPDEST SWAP3 SWAP2 POP POP JUMP JUMPDEST PUSH0 DUP1 PUSH0 PUSH1 0x60 DUP5 DUP7 SUB SLT ISZERO PUSH2 0x250A JUMPI PUSH2 0x2509 PUSH2 0x22FE JUMP JUMPDEST JUMPDEST PUSH0 PUSH2 0x2517 DUP7 DUP3 DUP8 ADD PUSH2 0x2348 JUMP JUMPDEST SWAP4 POP POP PUSH1 0x20 PUSH2 0x2528 DUP7 DUP3 DUP8 ADD PUSH2 0x2488 JUMP JUMPDEST SWAP3 POP POP PUSH1 0x40 PUSH2 0x2539 DUP7 DUP3 DUP8 ADD PUSH2 0x2488 JUMP JUMPDEST SWAP2 POP POP SWAP3 POP SWAP3 POP SWAP3 JUMP JUMPDEST PUSH0 DUP3 DUP3 MSTORE PUSH1 0x20 DUP3 ADD SWAP1 POP SWAP3 SWAP2 POP POP JUMP JUMPDEST PUSH32 0x43616C6C6572206973206E6F7420617574686F72697A65640000000000000000 PUSH0 DUP3 ADD MSTORE POP JUMP JUMPDEST PUSH0 PUSH2 0x2587 PUSH1 0x18 DUP4 PUSH2 0x2543 JUMP JUMPDEST SWAP2 POP PUSH2 0x2592 DUP3 PUSH2 0x2553 JUMP JUMPDEST PUSH1 0x20 DUP3 ADD SWAP1 POP SWAP2 SWAP1 POP JUMP JUMPDEST PUSH0 PUSH1 0x20 DUP3 ADD SWAP1 POP DUP2 DUP2 SUB PUSH0 DUP4 ADD MSTORE PUSH2 0x25B4 DUP2 PUSH2 0x257B JUMP JUMPDEST SWAP1 POP SWAP2 SWAP1 POP JUMP JUMPDEST PUSH32 0x4F7065726174696F6E206F6E20746F6B656E20696E2070726F67726573730000 PUSH0 DUP3 ADD MSTORE POP JUMP JUMPDEST PUSH0 PUSH2 0x25EF PUSH1 0x1E DUP4 PUSH2 0x2543 JUMP JUMPDEST SWAP2 POP PUSH2 0x25FA DUP3 PUSH2 0x25BB JUMP JUMPDEST PUSH1 0x20 DUP3 ADD SWAP1 POP SWAP2 SWAP1 POP JUMP JUMPDEST PUSH0 PUSH1 0x20 DUP3 ADD SWAP1 POP DUP2 DUP2 SUB PUSH0 DUP4 ADD MSTORE PUSH2 0x261C DUP2 PUSH2 0x25E3 JUMP JUMPDEST SWAP1 POP SWAP2 SWAP1 POP JUMP JUMPDEST PUSH32 0x416D6F756E74206D7573742062652067726561746572207468616E207A65726F PUSH0 DUP3 ADD MSTORE POP JUMP JUMPDEST PUSH0 PUSH2 0x2657 PUSH1 0x20 DUP4 PUSH2 0x2543 JUMP JUMPDEST SWAP2 POP PUSH2 0x2662 DUP3 PUSH2 0x2623 JUMP JUMPDEST PUSH1 0x20 DUP3 ADD SWAP1 POP SWAP2 SWAP1 POP JUMP JUMPDEST PUSH0 PUSH1 0x20 DUP3 ADD SWAP1 POP DUP2 DUP2 SUB PUSH0 DUP4 ADD MSTORE PUSH2 0x2684 DUP2 PUSH2 0x264B JUMP JUMPDEST SWAP1 POP SWAP2 SWAP1 POP JUMP JUMPDEST PUSH32 0x5072696365206D7573742062652067726561746572207468616E207A65726F00 PUSH0 DUP3 ADD MSTORE POP JUMP JUMPDEST PUSH0 PUSH2 0x26BF PUSH1 0x1F DUP4 PUSH2 0x2543 JUMP JUMPDEST SWAP2 POP PUSH2 0x26CA DUP3 PUSH2 0x268B JUMP JUMPDEST PUSH1 0x20 DUP3 ADD SWAP1 POP SWAP2 SWAP1 POP JUMP JUMPDEST PUSH0 PUSH1 0x20 DUP3 ADD SWAP1 POP DUP2 DUP2 SUB PUSH0 DUP4 ADD MSTORE PUSH2 0x26EC DUP2 PUSH2 0x26B3 JUMP JUMPDEST SWAP1 POP SWAP2 SWAP1 POP JUMP JUMPDEST PUSH0 PUSH1 0x40 DUP3 ADD SWAP1 POP PUSH2 0x2706 PUSH0 DUP4 ADD DUP6 PUSH2 0x2387 JUMP JUMPDEST PUSH2 0x2713 PUSH1 0x20 DUP4 ADD DUP5 PUSH2 0x2387 JUMP JUMPDEST SWAP4 SWAP3 POP POP POP JUMP JUMPDEST PUSH0 DUP2 MLOAD SWAP1 POP PUSH2 0x2728 DUP2 PUSH2 0x2472 JUMP JUMPDEST SWAP3 SWAP2 POP POP JUMP JUMPDEST PUSH0 PUSH1 0x20 DUP3 DUP5 SUB SLT ISZERO PUSH2 0x2743 JUMPI PUSH2 0x2742 PUSH2 0x22FE JUMP JUMPDEST JUMPDEST PUSH0 PUSH2 0x2750 DUP5 DUP3 DUP6 ADD PUSH2 0x271A JUMP JUMPDEST SWAP2 POP POP SWAP3 SWAP2 POP POP JUMP JUMPDEST PUSH0 PUSH1 0x60 DUP3 ADD SWAP1 POP PUSH2 0x276C PUSH0 DUP4 ADD DUP7 PUSH2 0x2387 JUMP JUMPDEST PUSH2 0x2779 PUSH1 0x20 DUP4 ADD DUP6 PUSH2 0x2387 JUMP JUMPDEST PUSH2 0x2786 PUSH1 0x40 DUP4 ADD DUP5 PUSH2 0x239F JUMP JUMPDEST SWAP5 SWAP4 POP POP POP POP JUMP JUMPDEST PUSH2 0x2797 DUP2 PUSH2 0x22CB JUMP JUMPDEST DUP2 EQ PUSH2 0x27A1 JUMPI PUSH0 DUP1 REVERT JUMPDEST POP JUMP JUMPDEST PUSH0 DUP2 MLOAD SWAP1 POP PUSH2 0x27B2 DUP2 PUSH2 0x278E JUMP JUMPDEST SWAP3 SWAP2 POP POP JUMP JUMPDEST PUSH0 PUSH1 0x20 DUP3 DUP5 SUB SLT ISZERO PUSH2 0x27CD JUMPI PUSH2 0x27CC PUSH2 0x22FE JUMP JUMPDEST JUMPDEST PUSH0 PUSH2 0x27DA DUP5 DUP3 DUP6 ADD PUSH2 0x27A4 JUMP JUMPDEST SWAP2 POP POP SWAP3 SWAP2 POP POP JUMP JUMPDEST PUSH32 0x546F6B656E207472616E7366657220746F2065786368616E6765206661696C65 PUSH0 DUP3 ADD MSTORE PUSH32 0x6400000000000000000000000000000000000000000000000000000000000000 PUSH1 0x20 DUP3 ADD MSTORE POP JUMP JUMPDEST PUSH0 PUSH2 0x283D PUSH1 0x21 DUP4 PUSH2 0x2543 JUMP JUMPDEST SWAP2 POP PUSH2 0x2848 DUP3 PUSH2 0x27E3 JUMP JUMPDEST PUSH1 0x40 DUP3 ADD SWAP1 POP SWAP2 SWAP1 POP JUMP JUMPDEST PUSH0 PUSH1 0x20 DUP3 ADD SWAP1 POP DUP2 DUP2 SUB PUSH0 DUP4 ADD MSTORE PUSH2 0x286A DUP2 PUSH2 0x2831 JUMP JUMPDEST SWAP1 POP SWAP2 SWAP1 POP JUMP JUMPDEST PUSH32 0x4E6F20726571756573747320746F2063616E63656C0000000000000000000000 PUSH0 DUP3 ADD MSTORE POP JUMP JUMPDEST PUSH0 PUSH2 0x28A5 PUSH1 0x15 DUP4 PUSH2 0x2543 JUMP JUMPDEST SWAP2 POP PUSH2 0x28B0 DUP3 PUSH2 0x2871 JUMP JUMPDEST PUSH1 0x20 DUP3 ADD SWAP1 POP SWAP2 SWAP1 POP JUMP JUMPDEST PUSH0 PUSH1 0x20 DUP3 ADD SWAP1 POP DUP2 DUP2 SUB PUSH0 DUP4 ADD MSTORE PUSH2 0x28D2 DUP2 PUSH2 0x2899 JUMP JUMPDEST SWAP1 POP SWAP2 SWAP1 POP JUMP JUMPDEST PUSH32 0x596F752063616E6E6F742063616E63656C206D756C7469706C652074696D6573 PUSH0 DUP3 ADD MSTORE POP JUMP JUMPDEST PUSH0 PUSH2 0x290D PUSH1 0x20 DUP4 PUSH2 0x2543 JUMP JUMPDEST SWAP2 POP PUSH2 0x2918 DUP3 PUSH2 0x28D9 JUMP JUMPDEST PUSH1 0x20 DUP3 ADD SWAP1 POP SWAP2 SWAP1 POP JUMP JUMPDEST PUSH0 PUSH1 0x20 DUP3 ADD SWAP1 POP DUP2 DUP2 SUB PUSH0 DUP4 ADD MSTORE PUSH2 0x293A DUP2 PUSH2 0x2901 JUMP JUMPDEST SWAP1 POP SWAP2 SWAP1 POP JUMP JUMPDEST PUSH0 PUSH1 0x40 DUP3 ADD SWAP1 POP PUSH2 0x2954 PUSH0 DUP4 ADD DUP6 PUSH2 0x2387 JUMP JUMPDEST PUSH2 0x2961 PUSH1 0x20 DUP4 ADD DUP5 PUSH2 0x239F JUMP JUMPDEST SWAP4 SWAP3 POP POP POP JUMP JUMPDEST PUSH32 0x546F6B656E207472616E73666572206261636B20746F20726571756573746F72 PUSH0 DUP3 ADD MSTORE PUSH32 0x206661696C656400000000000000000000000000000000000000000000000000 PUSH1 0x20 DUP3 ADD MSTORE POP JUMP JUMPDEST PUSH0 PUSH2 0x29C2 PUSH1 0x27 DUP4 PUSH2 0x2543 JUMP JUMPDEST SWAP2 POP PUSH2 0x29CD DUP3 PUSH2 0x2968 JUMP JUMPDEST PUSH1 0x40 DUP3 ADD SWAP1 POP SWAP2 SWAP1 POP JUMP JUMPDEST PUSH0 PUSH1 0x20 DUP3 ADD SWAP1 POP DUP2 DUP2 SUB PUSH0 DUP4 ADD MSTORE PUSH2 0x29EF DUP2 PUSH2 0x29B6 JUMP JUMPDEST SWAP1 POP SWAP2 SWAP1 POP JUMP JUMPDEST PUSH32 0x4E487B7100000000000000000000000000000000000000000000000000000000 PUSH0 MSTORE PUSH1 0x11 PUSH1 0x4 MSTORE PUSH1 0x24 PUSH0 REVERT JUMPDEST PUSH0 PUSH2 0x2A2D DUP3 PUSH2 0x2396 JUMP JUMPDEST SWAP2 POP PUSH2 0x2A38 DUP4 PUSH2 0x2396 JUMP JUMPDEST SWAP3 POP DUP3 DUP3 MUL PUSH2 0x2A46 DUP2 PUSH2 0x2396 JUMP JUMPDEST SWAP2 POP DUP3 DUP3 DIV DUP5 EQ DUP4 ISZERO OR PUSH2 0x2A5D JUMPI PUSH2 0x2A5C PUSH2 0x29F6 JUMP JUMPDEST JUMPDEST POP SWAP3 SWAP2 POP POP JUMP JUMPDEST PUSH0 PUSH2 0x2A6E DUP3 PUSH2 0x2396 JUMP JUMPDEST SWAP2 POP PUSH2 0x2A79 DUP4 PUSH2 0x2396 JUMP JUMPDEST SWAP3 POP DUP3 DUP3 SUB SWAP1 POP DUP2 DUP2 GT ISZERO PUSH2 0x2A91 JUMPI PUSH2 0x2A90 PUSH2 0x29F6 JUMP JUMPDEST JUMPDEST SWAP3 SWAP2 POP POP JUMP JUMPDEST PUSH32 0x5472616E7366657220746F20746865207A65726F206164647265737320697320 PUSH0 DUP3 ADD MSTORE PUSH32 0x6E6F7420616C6C6F776564000000000000000000000000000000000000000000 PUSH1 0x20 DUP3 ADD MSTORE POP JUMP JUMPDEST PUSH0 PUSH2 0x2AF1 PUSH1 0x2B DUP4 PUSH2 0x2543 JUMP JUMPDEST SWAP2 POP PUSH2 0x2AFC DUP3 PUSH2 0x2A97 JUMP JUMPDEST PUSH1 0x40 DUP3 ADD SWAP1 POP SWAP2 SWAP1 POP JUMP JUMPDEST PUSH0 PUSH1 0x20 DUP3 ADD SWAP1 POP DUP2 DUP2 SUB PUSH0 DUP4 ADD MSTORE PUSH2 0x2B1E DUP2 PUSH2 0x2AE5 JUMP JUMPDEST SWAP1 POP SWAP2 SWAP1 POP JUMP JUMPDEST PUSH32 0x4E487B7100000000000000000000000000000000000000000000000000000000 PUSH0 MSTORE PUSH1 0x32 PUSH1 0x4 MSTORE PUSH1 0x24 PUSH0 REVERT JUMPDEST PUSH0 PUSH2 0x2B5C DUP3 PUSH2 0x2396 JUMP JUMPDEST SWAP2 POP PUSH0 DUP3 SUB PUSH2 0x2B6E JUMPI PUSH2 0x2B6D PUSH2 0x29F6 JUMP JUMPDEST JUMPDEST PUSH1 0x1 DUP3 SUB SWAP1 POP SWAP2 SWAP1 POP JUMP JUMPDEST PUSH0 DUP2 SWAP1 POP SWAP3 SWAP2 POP POP JUMP JUMPDEST POP JUMP JUMPDEST PUSH0 PUSH2 0x2B91 PUSH0 DUP4 PUSH2 0x2B79 JUMP JUMPDEST SWAP2 POP PUSH2 0x2B9C DUP3 PUSH2 0x2B83 JUMP JUMPDEST PUSH0 DUP3 ADD SWAP1 POP SWAP2 SWAP1 POP JUMP JUMPDEST PUSH0 PUSH2 0x2BB0 DUP3 PUSH2 0x2B86 JUMP JUMPDEST SWAP2 POP DUP2 SWAP1 POP SWAP2 SWAP1 POP JUMP JUMPDEST PUSH32 0x4661696C656420746F2073656E64204574686572000000000000000000000000 PUSH0 DUP3 ADD MSTORE POP JUMP JUMPDEST PUSH0 PUSH2 0x2BEE PUSH1 0x14 DUP4 PUSH2 0x2543 JUMP JUMPDEST SWAP2 POP PUSH2 0x2BF9 DUP3 PUSH2 0x2BBA JUMP JUMPDEST PUSH1 0x20 DUP3 ADD SWAP1 POP SWAP2 SWAP1 POP JUMP JUMPDEST PUSH0 PUSH1 0x20 DUP3 ADD SWAP1 POP DUP2 DUP2 SUB PUSH0 DUP4 ADD MSTORE PUSH2 0x2C1B DUP2 PUSH2 0x2BE2 JUMP JUMPDEST SWAP1 POP SWAP2 SWAP1 POP JUMP JUMPDEST PUSH32 0x4E487B7100000000000000000000000000000000000000000000000000000000 PUSH0 MSTORE PUSH1 0x31 PUSH1 0x4 MSTORE PUSH1 0x24 PUSH0 REVERT JUMPDEST PUSH32 0x546F6B656E207472616E7366657220746F206275796572206661696C65640000 PUSH0 DUP3 ADD MSTORE POP JUMP JUMPDEST PUSH0 PUSH2 0x2C83 PUSH1 0x1E DUP4 PUSH2 0x2543 JUMP JUMPDEST SWAP2 POP PUSH2 0x2C8E DUP3 PUSH2 0x2C4F JUMP JUMPDEST PUSH1 0x20 DUP3 ADD SWAP1 POP SWAP2 SWAP1 POP JUMP JUMPDEST PUSH0 PUSH1 0x20 DUP3 ADD SWAP1 POP DUP2 DUP2 SUB PUSH0 DUP4 ADD MSTORE PUSH2 0x2CB0 DUP2 PUSH2 0x2C77 JUMP JUMPDEST SWAP1 POP SWAP2 SWAP1 POP JUMP JUMPDEST PUSH0 PUSH1 0x60 DUP3 ADD SWAP1 POP PUSH2 0x2CCA PUSH0 DUP4 ADD DUP7 PUSH2 0x2412 JUMP JUMPDEST PUSH2 0x2CD7 PUSH1 0x20 DUP4 ADD DUP6 PUSH2 0x239F JUMP JUMPDEST PUSH2 0x2CE4 PUSH1 0x40 DUP4 ADD DUP5 PUSH2 0x239F JUMP JUMPDEST SWAP5 SWAP4 POP POP POP POP JUMP INVALID LOG2 PUSH5 0x6970667358 0x22 SLT KECCAK256 0xED 0xE0 JUMP SWAP15 RETURNDATASIZE 0xB3 JUMPDEST 0xCE 0x2A EXP 0xB8 DUP2 PUSH25 0x5C49423B5D4B591AF3045CDF7B808F0756B40064736F6C6343 STOP ADDMOD NOT STOP CALLER "
				},
				"gasEstimates": {
					"creation": {
						"codeDepositCost": "2310800",
						"executionCost": "infinite",
						"totalCost": "infinite"
					},
					"external": {
						"Requests(address)": "infinite",
						"buyRequest(address,uint256,uint256)": "infinite",
						"buyRequestants(address,uint256)": "infinite",
						"cancelRequest()": "infinite",
						"claimTokenOwnership()": "56472",
						"contractOwner()": "2593",
						"initiateOwnershipTransfer(address)": "32982",
						"nextContractOwner()": "2574",
						"sellRequest(address,uint256,uint256)": "infinite",
						"sellRequestants(address,uint256)": "infinite"
					},
					"internal": {
						"addRequest(address,uint256,uint256,enum Exchange.RequestTypes)": "infinite",
						"executeRequests(address,address,uint256,uint256)": "infinite",
						"matchRequests(address,uint256,uint256,enum Exchange.RequestTypes)": "infinite",
						"priceCheck(struct Exchange.UserRequest memory,uint256)": "infinite",
						"removeRequest(address)": "infinite",
						"sendEther(address payable,uint256)": "infinite"
					}
				},
				"methodIdentifiers": {
					"Requests(address)": "1a4b3311",
					"buyRequest(address,uint256,uint256)": "a760e06a",
					"buyRequestants(address,uint256)": "1fb64da0",
					"cancelRequest()": "851b16f5",
					"claimTokenOwnership()": "10731a65",
					"contractOwner()": "ce606ee0",
					"initiateOwnershipTransfer(address)": "c0b6f561",
					"nextContractOwner()": "c2eb05ba",
					"sellRequest(address,uint256,uint256)": "73b298e2",
					"sellRequestants(address,uint256)": "83588b99"
				}
			},
			"storageLayout": {
				"storage": [
					{
						"astId": 4,
						"contract": "src/Exchange.sol:Exchange",
						"label": "contractOwner",
						"offset": 0,
						"slot": "0",
						"type": "t_address"
					},
					{
						"astId": 6,
						"contract": "src/Exchange.sol:Exchange",
						"label": "nextContractOwner",
						"offset": 0,
						"slot": "1",
						"type": "t_address"
					},
					{
						"astId": 11,
						"contract": "src/Exchange.sol:Exchange",
						"label": "Requests",
						"offset": 0,
						"slot": "2",
						"type": "t_mapping(t_address,t_struct(UserRequest)41_storage)"
					},
					{
						"astId": 16,
						"contract": "src/Exchange.sol:Exchange",
						"label": "sellRequestants",
						"offset": 0,
						"slot": "3",
						"type": "t_mapping(t_address,t_array(t_address)dyn_storage)"
					},
					{
						"astId": 21,
						"contract": "src/Exchange.sol:Exchange",
						"label": "buyRequestants",
						"offset": 0,
						"slot": "4",
						"type": "t_mapping(t_address,t_array(t_address)dyn_storage)"
					},
					{
						"astId": 25,
						"contract": "src/Exchange.sol:Exchange",
						"label": "freeForOperation",
						"offset": 0,
						"slot": "5",
						"type": "t_mapping(t_address,t_bool)"
					}
				],
				"types": {
					"t_address": {
						"encoding": "inplace",
						"label": "address",
						"numberOfBytes": "20"
					},
					"t_array(t_address)dyn_storage": {
						"base": "t_address",
						"encoding": "dynamic_array",
						"label": "address[]",
						"numberOfBytes": "32"
					},
					"t_bool": {
						"encoding": "inplace",
						"label": "bool",
						"numberOfBytes": "1"
					},
					"t_enum(RequestTypes)29": {
						"encoding": "inplace",
						"label": "enum Exchange.RequestTypes",
						"numberOfBytes": "1"
					},
					"t_mapping(t_address,t_array(t_address)dyn_storage)": {
						"encoding": "mapping",
						"key": "t_address",
						"label": "mapping(address => address[])",
						"numberOfBytes": "32",
						"value": "t_array(t_address)dyn_storage"
					},
					"t_mapping(t_address,t_bool)": {
						"encoding": "mapping",
						"key": "t_address",
						"label": "mapping(address => bool)",
						"numberOfBytes": "32",
						"value": "t_bool"
					},
					"t_mapping(t_address,t_struct(UserRequest)41_storage)": {
						"encoding": "mapping",
						"key": "t_address",
						"label": "mapping(address => struct Exchange.UserRequest)",
						"numberOfBytes": "32",
						"value": "t_struct(UserRequest)41_storage"
					},
					"t_struct(UserRequest)41_storage": {
						"encoding": "inplace",
						"label": "struct Exchange.UserRequest",
						"members": [
							{
								"astId": 31,
								"contract": "src/Exchange.sol:Exchange",
								"label": "tokenAddress",
								"offset": 0,
								"slot": "0",
								"type": "t_address"
							},
							{
								"astId": 33,
								"contract": "src/Exchange.sol:Exchange",
								"label": "index",
								"offset": 0,
								"slot": "1",
								"type": "t_uint256"
							},
							{
								"astId": 35,
								"contract": "src/Exchange.sol:Exchange",
								"label": "amount",
								"offset": 0,
								"slot": "2",
								"type": "t_uint256"
							},
							{
								"astId": 37,
								"contract": "src/Exchange.sol:Exchange",
								"label": "tokenPrice",
								"offset": 0,
								"slot": "3",
								"type": "t_uint256"
							},
							{
								"astId": 40,
								"contract": "src/Exchange.sol:Exchange",
								"label": "TYPE",
								"offset": 0,
								"slot": "4",
								"type": "t_enum(RequestTypes)29"
							}
						],
						"numberOfBytes": "160"
					},
					"t_uint256": {
						"encoding": "inplace",
						"label": "uint256",
						"numberOfBytes": "32"
					}
				}
			},
			"userdoc": {
				"kind": "user",
				"methods": {},
				"version": 1
			}
		}
	}
}