{
	"src/solt.sol": {
		"solt": {
			"abi": [
				{
					"inputs": [],
					"stateMutability": "nonpayable",
					"type": "constructor"
				},
				{
					"inputs": [],
					"name": "ClaimOwnership",
					"outputs": [],
					"stateMutability": "nonpayable",
					"type": "function"
				},
				{
					"inputs": [
						{
							"internalType": "address",
							"name": "newOwner",
							"type": "address"
						}
					],
					"name": "chooseNewOwner",
					"outputs": [],
					"stateMutability": "nonpayable",
					"type": "function"
				},
				{
					"inputs": [
						{
							"internalType": "address",
							"name": "reciver",
							"type": "address"
						},
						{
							"internalType": "uint32",
							"name": "amount",
							"type": "uint32"
						}
					],
					"name": "send",
					"outputs": [],
					"stateMutability": "nonpayable",
					"type": "function"
				}
			],
			"devdoc": {
				"kind": "dev",
				"methods": {},
				"version": 1
			},
			"evm": {
				"assembly": "    /* \"src/solt.sol\":70:964  contract solt{... */\n  mstore(0x40, 0x80)\n    /* \"src/solt.sol\":150:160  1000000000 */\n  0x3b9aca00\n    /* \"src/solt.sol\":131:160  uint32 coinCount = 1000000000 */\n  0x01\n  exp(0x0100, 0x14)\n  dup2\n  sload\n  dup2\n  0xffffffff\n  mul\n  not\n  and\n  swap1\n  dup4\n  0xffffffff\n  and\n  mul\n  or\n  swap1\n  sstore\n  pop\n    /* \"src/solt.sol\":208:298  constructor(){... */\n  callvalue\n  dup1\n  iszero\n  tag_1\n  jumpi\n  0x00\n  dup1\n  revert\ntag_1:\n  pop\n    /* \"src/solt.sol\":239:249  msg.sender */\n  caller\n    /* \"src/solt.sol\":231:236  onwer */\n  0x00\n  dup1\n    /* \"src/solt.sol\":231:249  onwer = msg.sender */\n  0x0100\n  exp\n  dup2\n  sload\n  dup2\n  0xffffffffffffffffffffffffffffffffffffffff\n  mul\n  not\n  and\n  swap1\n  dup4\n  0xffffffffffffffffffffffffffffffffffffffff\n  and\n  mul\n  or\n  swap1\n  sstore\n  pop\n    /* \"src/solt.sol\":282:291  coinCount */\n  0x01\n  0x14\n  swap1\n  sload\n  swap1\n  0x0100\n  exp\n  swap1\n  div\n  0xffffffff\n  and\n    /* \"src/solt.sol\":259:267  balances */\n  0x02\n    /* \"src/solt.sol\":259:279  balances[msg.sender] */\n  0x00\n    /* \"src/solt.sol\":268:278  msg.sender */\n  caller\n    /* \"src/solt.sol\":259:279  balances[msg.sender] */\n  0xffffffffffffffffffffffffffffffffffffffff\n  and\n  0xffffffffffffffffffffffffffffffffffffffff\n  and\n  dup2\n  mstore\n  0x20\n  add\n  swap1\n  dup2\n  mstore\n  0x20\n  add\n  0x00\n  keccak256\n  0x00\n    /* \"src/solt.sol\":259:291  balances[msg.sender] = coinCount */\n  0x0100\n  exp\n  dup2\n  sload\n  dup2\n  0xffffffff\n  mul\n  not\n  and\n  swap1\n  dup4\n  0xffffffff\n  and\n  mul\n  or\n  swap1\n  sstore\n  pop\n    /* \"src/solt.sol\":70:964  contract solt{... */\n  dataSize(sub_0)\n  dup1\n  dataOffset(sub_0)\n  0x00\n  codecopy\n  0x00\n  return\nstop\n\nsub_0: assembly {\n        /* \"src/solt.sol\":70:964  contract solt{... */\n      mstore(0x40, 0x80)\n      callvalue\n      dup1\n      iszero\n      tag_1\n      jumpi\n      0x00\n      dup1\n      revert\n    tag_1:\n      pop\n      jumpi(tag_2, lt(calldatasize, 0x04))\n      shr(0xe0, calldataload(0x00))\n      dup1\n      0xc7734ea2\n      eq\n      tag_3\n      jumpi\n      dup1\n      0xf58d0d5c\n      eq\n      tag_4\n      jumpi\n      dup1\n      0xfec0244c\n      eq\n      tag_5\n      jumpi\n    tag_2:\n      0x00\n      dup1\n      revert\n        /* \"src/solt.sol\":751:962  function send(address reciver, uint32 amount) public isBalaceSufficient(amount){... */\n    tag_3:\n      tag_6\n      0x04\n      dup1\n      calldatasize\n      sub\n      dup2\n      add\n      swap1\n      tag_7\n      swap2\n      swap1\n      tag_8\n      jump\t// in\n    tag_7:\n      tag_9\n      jump\t// in\n    tag_6:\n      stop\n        /* \"src/solt.sol\":519:622  function chooseNewOwner(address newOwner) public OnlyChosen(onwer){... */\n    tag_4:\n      tag_10\n      0x04\n      dup1\n      calldatasize\n      sub\n      dup2\n      add\n      swap1\n      tag_11\n      swap2\n      swap1\n      tag_12\n      jump\t// in\n    tag_11:\n      tag_13\n      jump\t// in\n    tag_10:\n      stop\n        /* \"src/solt.sol\":630:745  function  ClaimOwnership() public OnlyChosen(nextOwner){... */\n    tag_5:\n      tag_14\n      tag_15\n      jump\t// in\n    tag_14:\n      stop\n        /* \"src/solt.sol\":751:962  function send(address reciver, uint32 amount) public isBalaceSufficient(amount){... */\n    tag_9:\n        /* \"src/solt.sol\":823:829  amount */\n      dup1\n        /* \"src/solt.sol\":487:493  amount */\n      dup1\n        /* \"src/solt.sol\":463:493  balances[msg.sender] >= amount */\n      0xffffffff\n      and\n        /* \"src/solt.sol\":463:471  balances */\n      0x02\n        /* \"src/solt.sol\":463:483  balances[msg.sender] */\n      0x00\n        /* \"src/solt.sol\":472:482  msg.sender */\n      caller\n        /* \"src/solt.sol\":463:483  balances[msg.sender] */\n      0xffffffffffffffffffffffffffffffffffffffff\n      and\n      0xffffffffffffffffffffffffffffffffffffffff\n      and\n      dup2\n      mstore\n      0x20\n      add\n      swap1\n      dup2\n      mstore\n      0x20\n      add\n      0x00\n      keccak256\n      0x00\n      swap1\n      sload\n      swap1\n      0x0100\n      exp\n      swap1\n      div\n      0xffffffff\n      and\n        /* \"src/solt.sol\":463:493  balances[msg.sender] >= amount */\n      0xffffffff\n      and\n      lt\n      iszero\n        /* \"src/solt.sol\":455:494  require(balances[msg.sender] >= amount) */\n      tag_17\n      jumpi\n      0x00\n      dup1\n      revert\n    tag_17:\n        /* \"src/solt.sol\":864:870  amount */\n      dup2\n        /* \"src/solt.sol\":840:848  balances */\n      0x02\n        /* \"src/solt.sol\":840:860  balances[msg.sender] */\n      0x00\n        /* \"src/solt.sol\":849:859  msg.sender */\n      caller\n        /* \"src/solt.sol\":840:860  balances[msg.sender] */\n      0xffffffffffffffffffffffffffffffffffffffff\n      and\n      0xffffffffffffffffffffffffffffffffffffffff\n      and\n      dup2\n      mstore\n      0x20\n      add\n      swap1\n      dup2\n      mstore\n      0x20\n      add\n      0x00\n      keccak256\n      0x00\n        /* \"src/solt.sol\":840:870  balances[msg.sender] -= amount */\n      dup3\n      dup3\n      dup3\n      swap1\n      sload\n      swap1\n      0x0100\n      exp\n      swap1\n      div\n      0xffffffff\n      and\n      tag_19\n      swap2\n      swap1\n      tag_20\n      jump\t// in\n    tag_19:\n      swap3\n      pop\n      0x0100\n      exp\n      dup2\n      sload\n      dup2\n      0xffffffff\n      mul\n      not\n      and\n      swap1\n      dup4\n      0xffffffff\n      and\n      mul\n      or\n      swap1\n      sstore\n      pop\n        /* \"src/solt.sol\":901:907  amount */\n      dup2\n        /* \"src/solt.sol\":880:888  balances */\n      0x02\n        /* \"src/solt.sol\":880:897  balances[reciver] */\n      0x00\n        /* \"src/solt.sol\":889:896  reciver */\n      dup6\n        /* \"src/solt.sol\":880:897  balances[reciver] */\n      0xffffffffffffffffffffffffffffffffffffffff\n      and\n      0xffffffffffffffffffffffffffffffffffffffff\n      and\n      dup2\n      mstore\n      0x20\n      add\n      swap1\n      dup2\n      mstore\n      0x20\n      add\n      0x00\n      keccak256\n      0x00\n        /* \"src/solt.sol\":880:907  balances[reciver] += amount */\n      dup3\n      dup3\n      dup3\n      swap1\n      sload\n      swap1\n      0x0100\n      exp\n      swap1\n      div\n      0xffffffff\n      and\n      tag_21\n      swap2\n      swap1\n      tag_22\n      jump\t// in\n    tag_21:\n      swap3\n      pop\n      0x0100\n      exp\n      dup2\n      sload\n      dup2\n      0xffffffff\n      mul\n      not\n      and\n      swap1\n      dup4\n      0xffffffff\n      and\n      mul\n      or\n      swap1\n      sstore\n      pop\n        /* \"src/solt.sol\":945:954  coinCount */\n      0x01\n      0x14\n      swap1\n      sload\n      swap1\n      0x0100\n      exp\n      swap1\n      div\n      0xffffffff\n      and\n        /* \"src/solt.sol\":924:954  balances[reciver] <= coinCount */\n      0xffffffff\n      and\n        /* \"src/solt.sol\":924:932  balances */\n      0x02\n        /* \"src/solt.sol\":924:941  balances[reciver] */\n      0x00\n        /* \"src/solt.sol\":933:940  reciver */\n      dup6\n        /* \"src/solt.sol\":924:941  balances[reciver] */\n      0xffffffffffffffffffffffffffffffffffffffff\n      and\n      0xffffffffffffffffffffffffffffffffffffffff\n      and\n      dup2\n      mstore\n      0x20\n      add\n      swap1\n      dup2\n      mstore\n      0x20\n      add\n      0x00\n      keccak256\n      0x00\n      swap1\n      sload\n      swap1\n      0x0100\n      exp\n      swap1\n      div\n      0xffffffff\n      and\n        /* \"src/solt.sol\":924:954  balances[reciver] <= coinCount */\n      0xffffffff\n      and\n      gt\n      iszero\n        /* \"src/solt.sol\":917:955  assert(balances[reciver] <= coinCount) */\n      tag_23\n      jumpi\n      tag_24\n      tag_25\n      jump\t// in\n    tag_24:\n    tag_23:\n        /* \"src/solt.sol\":751:962  function send(address reciver, uint32 amount) public isBalaceSufficient(amount){... */\n      pop\n      pop\n      pop\n      jump\t// out\n        /* \"src/solt.sol\":519:622  function chooseNewOwner(address newOwner) public OnlyChosen(onwer){... */\n    tag_13:\n        /* \"src/solt.sol\":579:584  onwer */\n      0x00\n      dup1\n      sload\n      swap1\n      0x0100\n      exp\n      swap1\n      div\n      0xffffffffffffffffffffffffffffffffffffffff\n      and\n        /* \"src/solt.sol\":371:377  chosen */\n      dup1\n        /* \"src/solt.sol\":357:377  msg.sender == chosen */\n      0xffffffffffffffffffffffffffffffffffffffff\n      and\n        /* \"src/solt.sol\":357:367  msg.sender */\n      caller\n        /* \"src/solt.sol\":357:377  msg.sender == chosen */\n      0xffffffffffffffffffffffffffffffffffffffff\n      and\n      eq\n        /* \"src/solt.sol\":349:378  require(msg.sender == chosen) */\n      tag_27\n      jumpi\n      0x00\n      dup1\n      revert\n    tag_27:\n        /* \"src/solt.sol\":607:615  newOwner */\n      dup2\n        /* \"src/solt.sol\":595:604  nextOwner */\n      0x01\n      0x00\n        /* \"src/solt.sol\":595:615  nextOwner = newOwner */\n      0x0100\n      exp\n      dup2\n      sload\n      dup2\n      0xffffffffffffffffffffffffffffffffffffffff\n      mul\n      not\n      and\n      swap1\n      dup4\n      0xffffffffffffffffffffffffffffffffffffffff\n      and\n      mul\n      or\n      swap1\n      sstore\n      pop\n        /* \"src/solt.sol\":519:622  function chooseNewOwner(address newOwner) public OnlyChosen(onwer){... */\n      pop\n      pop\n      jump\t// out\n        /* \"src/solt.sol\":630:745  function  ClaimOwnership() public OnlyChosen(nextOwner){... */\n    tag_15:\n        /* \"src/solt.sol\":675:684  nextOwner */\n      0x01\n      0x00\n      swap1\n      sload\n      swap1\n      0x0100\n      exp\n      swap1\n      div\n      0xffffffffffffffffffffffffffffffffffffffff\n      and\n        /* \"src/solt.sol\":371:377  chosen */\n      dup1\n        /* \"src/solt.sol\":357:377  msg.sender == chosen */\n      0xffffffffffffffffffffffffffffffffffffffff\n      and\n        /* \"src/solt.sol\":357:367  msg.sender */\n      caller\n        /* \"src/solt.sol\":357:377  msg.sender == chosen */\n      0xffffffffffffffffffffffffffffffffffffffff\n      and\n      eq\n        /* \"src/solt.sol\":349:378  require(msg.sender == chosen) */\n      tag_30\n      jumpi\n      0x00\n      dup1\n      revert\n    tag_30:\n        /* \"src/solt.sol\":703:712  nextOwner */\n      0x01\n      0x00\n      swap1\n      sload\n      swap1\n      0x0100\n      exp\n      swap1\n      div\n      0xffffffffffffffffffffffffffffffffffffffff\n      and\n        /* \"src/solt.sol\":695:700  onwer */\n      0x00\n      dup1\n        /* \"src/solt.sol\":695:712  onwer = nextOwner */\n      0x0100\n      exp\n      dup2\n      sload\n      dup2\n      0xffffffffffffffffffffffffffffffffffffffff\n      mul\n      not\n      and\n      swap1\n      dup4\n      0xffffffffffffffffffffffffffffffffffffffff\n      and\n      mul\n      or\n      swap1\n      sstore\n      pop\n        /* \"src/solt.sol\":729:738  nextOwner */\n      0x01\n      0x00\n        /* \"src/solt.sol\":722:738  delete nextOwner */\n      0x0100\n      exp\n      dup2\n      sload\n      swap1\n      0xffffffffffffffffffffffffffffffffffffffff\n      mul\n      not\n      and\n      swap1\n      sstore\n        /* \"src/solt.sol\":630:745  function  ClaimOwnership() public OnlyChosen(nextOwner){... */\n      pop\n      jump\t// out\n        /* \"#utility.yul\":88:205   */\n    tag_33:\n        /* \"#utility.yul\":197:198   */\n      0x00\n        /* \"#utility.yul\":194:195   */\n      dup1\n        /* \"#utility.yul\":187:199   */\n      revert\n        /* \"#utility.yul\":334:460   */\n    tag_35:\n        /* \"#utility.yul\":371:378   */\n      0x00\n        /* \"#utility.yul\":411:453   */\n      0xffffffffffffffffffffffffffffffffffffffff\n        /* \"#utility.yul\":404:409   */\n      dup3\n        /* \"#utility.yul\":400:454   */\n      and\n        /* \"#utility.yul\":389:454   */\n      swap1\n      pop\n        /* \"#utility.yul\":334:460   */\n      swap2\n      swap1\n      pop\n      jump\t// out\n        /* \"#utility.yul\":466:562   */\n    tag_36:\n        /* \"#utility.yul\":503:510   */\n      0x00\n        /* \"#utility.yul\":532:556   */\n      tag_49\n        /* \"#utility.yul\":550:555   */\n      dup3\n        /* \"#utility.yul\":532:556   */\n      tag_35\n      jump\t// in\n    tag_49:\n        /* \"#utility.yul\":521:556   */\n      swap1\n      pop\n        /* \"#utility.yul\":466:562   */\n      swap2\n      swap1\n      pop\n      jump\t// out\n        /* \"#utility.yul\":568:690   */\n    tag_37:\n        /* \"#utility.yul\":641:665   */\n      tag_51\n        /* \"#utility.yul\":659:664   */\n      dup2\n        /* \"#utility.yul\":641:665   */\n      tag_36\n      jump\t// in\n    tag_51:\n        /* \"#utility.yul\":634:639   */\n      dup2\n        /* \"#utility.yul\":631:666   */\n      eq\n        /* \"#utility.yul\":621:684   */\n      tag_52\n      jumpi\n        /* \"#utility.yul\":680:681   */\n      0x00\n        /* \"#utility.yul\":677:678   */\n      dup1\n        /* \"#utility.yul\":670:682   */\n      revert\n        /* \"#utility.yul\":621:684   */\n    tag_52:\n        /* \"#utility.yul\":568:690   */\n      pop\n      jump\t// out\n        /* \"#utility.yul\":696:835   */\n    tag_38:\n        /* \"#utility.yul\":742:747   */\n      0x00\n        /* \"#utility.yul\":780:786   */\n      dup2\n        /* \"#utility.yul\":767:787   */\n      calldataload\n        /* \"#utility.yul\":758:787   */\n      swap1\n      pop\n        /* \"#utility.yul\":796:829   */\n      tag_54\n        /* \"#utility.yul\":823:828   */\n      dup2\n        /* \"#utility.yul\":796:829   */\n      tag_37\n      jump\t// in\n    tag_54:\n        /* \"#utility.yul\":696:835   */\n      swap3\n      swap2\n      pop\n      pop\n      jump\t// out\n        /* \"#utility.yul\":841:934   */\n    tag_39:\n        /* \"#utility.yul\":877:884   */\n      0x00\n        /* \"#utility.yul\":917:927   */\n      0xffffffff\n        /* \"#utility.yul\":910:915   */\n      dup3\n        /* \"#utility.yul\":906:928   */\n      and\n        /* \"#utility.yul\":895:928   */\n      swap1\n      pop\n        /* \"#utility.yul\":841:934   */\n      swap2\n      swap1\n      pop\n      jump\t// out\n        /* \"#utility.yul\":940:1060   */\n    tag_40:\n        /* \"#utility.yul\":1012:1035   */\n      tag_57\n        /* \"#utility.yul\":1029:1034   */\n      dup2\n        /* \"#utility.yul\":1012:1035   */\n      tag_39\n      jump\t// in\n    tag_57:\n        /* \"#utility.yul\":1005:1010   */\n      dup2\n        /* \"#utility.yul\":1002:1036   */\n      eq\n        /* \"#utility.yul\":992:1054   */\n      tag_58\n      jumpi\n        /* \"#utility.yul\":1050:1051   */\n      0x00\n        /* \"#utility.yul\":1047:1048   */\n      dup1\n        /* \"#utility.yul\":1040:1052   */\n      revert\n        /* \"#utility.yul\":992:1054   */\n    tag_58:\n        /* \"#utility.yul\":940:1060   */\n      pop\n      jump\t// out\n        /* \"#utility.yul\":1066:1203   */\n    tag_41:\n        /* \"#utility.yul\":1111:1116   */\n      0x00\n        /* \"#utility.yul\":1149:1155   */\n      dup2\n        /* \"#utility.yul\":1136:1156   */\n      calldataload\n        /* \"#utility.yul\":1127:1156   */\n      swap1\n      pop\n        /* \"#utility.yul\":1165:1197   */\n      tag_60\n        /* \"#utility.yul\":1191:1196   */\n      dup2\n        /* \"#utility.yul\":1165:1197   */\n      tag_40\n      jump\t// in\n    tag_60:\n        /* \"#utility.yul\":1066:1203   */\n      swap3\n      swap2\n      pop\n      pop\n      jump\t// out\n        /* \"#utility.yul\":1209:1681   */\n    tag_8:\n        /* \"#utility.yul\":1276:1282   */\n      0x00\n        /* \"#utility.yul\":1284:1290   */\n      dup1\n        /* \"#utility.yul\":1333:1335   */\n      0x40\n        /* \"#utility.yul\":1321:1330   */\n      dup4\n        /* \"#utility.yul\":1312:1319   */\n      dup6\n        /* \"#utility.yul\":1308:1331   */\n      sub\n        /* \"#utility.yul\":1304:1336   */\n      slt\n        /* \"#utility.yul\":1301:1420   */\n      iszero\n      tag_62\n      jumpi\n        /* \"#utility.yul\":1339:1418   */\n      tag_63\n      tag_33\n      jump\t// in\n    tag_63:\n        /* \"#utility.yul\":1301:1420   */\n    tag_62:\n        /* \"#utility.yul\":1459:1460   */\n      0x00\n        /* \"#utility.yul\":1484:1537   */\n      tag_64\n        /* \"#utility.yul\":1529:1536   */\n      dup6\n        /* \"#utility.yul\":1520:1526   */\n      dup3\n        /* \"#utility.yul\":1509:1518   */\n      dup7\n        /* \"#utility.yul\":1505:1527   */\n      add\n        /* \"#utility.yul\":1484:1537   */\n      tag_38\n      jump\t// in\n    tag_64:\n        /* \"#utility.yul\":1474:1537   */\n      swap3\n      pop\n        /* \"#utility.yul\":1430:1547   */\n      pop\n        /* \"#utility.yul\":1586:1588   */\n      0x20\n        /* \"#utility.yul\":1612:1664   */\n      tag_65\n        /* \"#utility.yul\":1656:1663   */\n      dup6\n        /* \"#utility.yul\":1647:1653   */\n      dup3\n        /* \"#utility.yul\":1636:1645   */\n      dup7\n        /* \"#utility.yul\":1632:1654   */\n      add\n        /* \"#utility.yul\":1612:1664   */\n      tag_41\n      jump\t// in\n    tag_65:\n        /* \"#utility.yul\":1602:1664   */\n      swap2\n      pop\n        /* \"#utility.yul\":1557:1674   */\n      pop\n        /* \"#utility.yul\":1209:1681   */\n      swap3\n      pop\n      swap3\n      swap1\n      pop\n      jump\t// out\n        /* \"#utility.yul\":1687:2016   */\n    tag_12:\n        /* \"#utility.yul\":1746:1752   */\n      0x00\n        /* \"#utility.yul\":1795:1797   */\n      0x20\n        /* \"#utility.yul\":1783:1792   */\n      dup3\n        /* \"#utility.yul\":1774:1781   */\n      dup5\n        /* \"#utility.yul\":1770:1793   */\n      sub\n        /* \"#utility.yul\":1766:1798   */\n      slt\n        /* \"#utility.yul\":1763:1882   */\n      iszero\n      tag_67\n      jumpi\n        /* \"#utility.yul\":1801:1880   */\n      tag_68\n      tag_33\n      jump\t// in\n    tag_68:\n        /* \"#utility.yul\":1763:1882   */\n    tag_67:\n        /* \"#utility.yul\":1921:1922   */\n      0x00\n        /* \"#utility.yul\":1946:1999   */\n      tag_69\n        /* \"#utility.yul\":1991:1998   */\n      dup5\n        /* \"#utility.yul\":1982:1988   */\n      dup3\n        /* \"#utility.yul\":1971:1980   */\n      dup6\n        /* \"#utility.yul\":1967:1989   */\n      add\n        /* \"#utility.yul\":1946:1999   */\n      tag_38\n      jump\t// in\n    tag_69:\n        /* \"#utility.yul\":1936:1999   */\n      swap2\n      pop\n        /* \"#utility.yul\":1892:2009   */\n      pop\n        /* \"#utility.yul\":1687:2016   */\n      swap3\n      swap2\n      pop\n      pop\n      jump\t// out\n        /* \"#utility.yul\":2022:2202   */\n    tag_42:\n        /* \"#utility.yul\":2070:2147   */\n      0x4e487b7100000000000000000000000000000000000000000000000000000000\n        /* \"#utility.yul\":2067:2068   */\n      0x00\n        /* \"#utility.yul\":2060:2148   */\n      mstore\n        /* \"#utility.yul\":2167:2171   */\n      0x11\n        /* \"#utility.yul\":2164:2165   */\n      0x04\n        /* \"#utility.yul\":2157:2172   */\n      mstore\n        /* \"#utility.yul\":2191:2195   */\n      0x24\n        /* \"#utility.yul\":2188:2189   */\n      0x00\n        /* \"#utility.yul\":2181:2196   */\n      revert\n        /* \"#utility.yul\":2208:2408   */\n    tag_20:\n        /* \"#utility.yul\":2247:2251   */\n      0x00\n        /* \"#utility.yul\":2267:2286   */\n      tag_72\n        /* \"#utility.yul\":2284:2285   */\n      dup3\n        /* \"#utility.yul\":2267:2286   */\n      tag_39\n      jump\t// in\n    tag_72:\n        /* \"#utility.yul\":2262:2286   */\n      swap2\n      pop\n        /* \"#utility.yul\":2300:2319   */\n      tag_73\n        /* \"#utility.yul\":2317:2318   */\n      dup4\n        /* \"#utility.yul\":2300:2319   */\n      tag_39\n      jump\t// in\n    tag_73:\n        /* \"#utility.yul\":2295:2319   */\n      swap3\n      pop\n        /* \"#utility.yul\":2343:2344   */\n      dup3\n        /* \"#utility.yul\":2340:2341   */\n      dup3\n        /* \"#utility.yul\":2336:2345   */\n      sub\n        /* \"#utility.yul\":2328:2345   */\n      swap1\n      pop\n        /* \"#utility.yul\":2367:2377   */\n      0xffffffff\n        /* \"#utility.yul\":2361:2365   */\n      dup2\n        /* \"#utility.yul\":2358:2378   */\n      gt\n        /* \"#utility.yul\":2355:2401   */\n      iszero\n      tag_74\n      jumpi\n        /* \"#utility.yul\":2381:2399   */\n      tag_75\n      tag_42\n      jump\t// in\n    tag_75:\n        /* \"#utility.yul\":2355:2401   */\n    tag_74:\n        /* \"#utility.yul\":2208:2408   */\n      swap3\n      swap2\n      pop\n      pop\n      jump\t// out\n        /* \"#utility.yul\":2414:2611   */\n    tag_22:\n        /* \"#utility.yul\":2453:2456   */\n      0x00\n        /* \"#utility.yul\":2472:2491   */\n      tag_77\n        /* \"#utility.yul\":2489:2490   */\n      dup3\n        /* \"#utility.yul\":2472:2491   */\n      tag_39\n      jump\t// in\n    tag_77:\n        /* \"#utility.yul\":2467:2491   */\n      swap2\n      pop\n        /* \"#utility.yul\":2505:2524   */\n      tag_78\n        /* \"#utility.yul\":2522:2523   */\n      dup4\n        /* \"#utility.yul\":2505:2524   */\n      tag_39\n      jump\t// in\n    tag_78:\n        /* \"#utility.yul\":2500:2524   */\n      swap3\n      pop\n        /* \"#utility.yul\":2547:2548   */\n      dup3\n        /* \"#utility.yul\":2544:2545   */\n      dup3\n        /* \"#utility.yul\":2540:2549   */\n      add\n        /* \"#utility.yul\":2533:2549   */\n      swap1\n      pop\n        /* \"#utility.yul\":2570:2580   */\n      0xffffffff\n        /* \"#utility.yul\":2565:2568   */\n      dup2\n        /* \"#utility.yul\":2562:2581   */\n      gt\n        /* \"#utility.yul\":2559:2604   */\n      iszero\n      tag_79\n      jumpi\n        /* \"#utility.yul\":2584:2602   */\n      tag_80\n      tag_42\n      jump\t// in\n    tag_80:\n        /* \"#utility.yul\":2559:2604   */\n    tag_79:\n        /* \"#utility.yul\":2414:2611   */\n      swap3\n      swap2\n      pop\n      pop\n      jump\t// out\n        /* \"#utility.yul\":2617:2797   */\n    tag_25:\n        /* \"#utility.yul\":2665:2742   */\n      0x4e487b7100000000000000000000000000000000000000000000000000000000\n        /* \"#utility.yul\":2662:2663   */\n      0x00\n        /* \"#utility.yul\":2655:2743   */\n      mstore\n        /* \"#utility.yul\":2762:2766   */\n      0x01\n        /* \"#utility.yul\":2759:2760   */\n      0x04\n        /* \"#utility.yul\":2752:2767   */\n      mstore\n        /* \"#utility.yul\":2786:2790   */\n      0x24\n        /* \"#utility.yul\":2783:2784   */\n      0x00\n        /* \"#utility.yul\":2776:2791   */\n      revert\n\n    auxdata: 0xa264697066735822122099d9c0eb8b2b650c475da8034f787eac1fdbbf7a052400dfc5d45488a8c6ff6464736f6c63430008190033\n}\n",
				"bytecode": {
					"linkReferences": {},
					"object": "6080604052633b9aca00600160146101000a81548163ffffffff021916908363ffffffff1602179055503480156033575f80fd5b50335f806101000a81548173ffffffffffffffffffffffffffffffffffffffff021916908373ffffffffffffffffffffffffffffffffffffffff160217905550600160149054906101000a900463ffffffff1660025f3373ffffffffffffffffffffffffffffffffffffffff1673ffffffffffffffffffffffffffffffffffffffff1681526020019081526020015f205f6101000a81548163ffffffff021916908363ffffffff1602179055506105d5806100ed5f395ff3fe608060405234801561000f575f80fd5b506004361061003f575f3560e01c8063c7734ea214610043578063f58d0d5c1461005f578063fec0244c1461007b575b5f80fd5b61005d6004803603810190610058919061046e565b610085565b005b610079600480360381019061007491906104ac565b61025c565b005b6100836102f7565b005b808063ffffffff1660025f3373ffffffffffffffffffffffffffffffffffffffff1673ffffffffffffffffffffffffffffffffffffffff1681526020019081526020015f205f9054906101000a900463ffffffff1663ffffffff1610156100ea575f80fd5b8160025f3373ffffffffffffffffffffffffffffffffffffffff1673ffffffffffffffffffffffffffffffffffffffff1681526020019081526020015f205f8282829054906101000a900463ffffffff166101459190610504565b92506101000a81548163ffffffff021916908363ffffffff1602179055508160025f8573ffffffffffffffffffffffffffffffffffffffff1673ffffffffffffffffffffffffffffffffffffffff1681526020019081526020015f205f8282829054906101000a900463ffffffff166101be919061053b565b92506101000a81548163ffffffff021916908363ffffffff160217905550600160149054906101000a900463ffffffff1663ffffffff1660025f8573ffffffffffffffffffffffffffffffffffffffff1673ffffffffffffffffffffffffffffffffffffffff1681526020019081526020015f205f9054906101000a900463ffffffff1663ffffffff16111561025757610256610572565b5b505050565b5f8054906101000a900473ffffffffffffffffffffffffffffffffffffffff168073ffffffffffffffffffffffffffffffffffffffff163373ffffffffffffffffffffffffffffffffffffffff16146102b3575f80fd5b8160015f6101000a81548173ffffffffffffffffffffffffffffffffffffffff021916908373ffffffffffffffffffffffffffffffffffffffff1602179055505050565b60015f9054906101000a900473ffffffffffffffffffffffffffffffffffffffff168073ffffffffffffffffffffffffffffffffffffffff163373ffffffffffffffffffffffffffffffffffffffff1614610350575f80fd5b60015f9054906101000a900473ffffffffffffffffffffffffffffffffffffffff165f806101000a81548173ffffffffffffffffffffffffffffffffffffffff021916908373ffffffffffffffffffffffffffffffffffffffff16021790555060015f6101000a81549073ffffffffffffffffffffffffffffffffffffffff021916905550565b5f80fd5b5f73ffffffffffffffffffffffffffffffffffffffff82169050919050565b5f610404826103db565b9050919050565b610414816103fa565b811461041e575f80fd5b50565b5f8135905061042f8161040b565b92915050565b5f63ffffffff82169050919050565b61044d81610435565b8114610457575f80fd5b50565b5f8135905061046881610444565b92915050565b5f8060408385031215610484576104836103d7565b5b5f61049185828601610421565b92505060206104a28582860161045a565b9150509250929050565b5f602082840312156104c1576104c06103d7565b5b5f6104ce84828501610421565b91505092915050565b7f4e487b71000000000000000000000000000000000000000000000000000000005f52601160045260245ffd5b5f61050e82610435565b915061051983610435565b9250828203905063ffffffff811115610535576105346104d7565b5b92915050565b5f61054582610435565b915061055083610435565b9250828201905063ffffffff81111561056c5761056b6104d7565b5b92915050565b7f4e487b71000000000000000000000000000000000000000000000000000000005f52600160045260245ffdfea264697066735822122099d9c0eb8b2b650c475da8034f787eac1fdbbf7a052400dfc5d45488a8c6ff6464736f6c63430008190033",
					"opcodes": "PUSH1 0x80 PUSH1 0x40 MSTORE PUSH4 0x3B9ACA00 PUSH1 0x1 PUSH1 0x14 PUSH2 0x100 EXP DUP2 SLOAD DUP2 PUSH4 0xFFFFFFFF MUL NOT AND SWAP1 DUP4 PUSH4 0xFFFFFFFF AND MUL OR SWAP1 SSTORE POP CALLVALUE DUP1 ISZERO PUSH1 0x33 JUMPI PUSH0 DUP1 REVERT JUMPDEST POP CALLER PUSH0 DUP1 PUSH2 0x100 EXP DUP2 SLOAD DUP2 PUSH20 0xFFFFFFFFFFFFFFFFFFFFFFFFFFFFFFFFFFFFFFFF MUL NOT AND SWAP1 DUP4 PUSH20 0xFFFFFFFFFFFFFFFFFFFFFFFFFFFFFFFFFFFFFFFF AND MUL OR SWAP1 SSTORE POP PUSH1 0x1 PUSH1 0x14 SWAP1 SLOAD SWAP1 PUSH2 0x100 EXP SWAP1 DIV PUSH4 0xFFFFFFFF AND PUSH1 0x2 PUSH0 CALLER PUSH20 0xFFFFFFFFFFFFFFFFFFFFFFFFFFFFFFFFFFFFFFFF AND PUSH20 0xFFFFFFFFFFFFFFFFFFFFFFFFFFFFFFFFFFFFFFFF AND DUP2 MSTORE PUSH1 0x20 ADD SWAP1 DUP2 MSTORE PUSH1 0x20 ADD PUSH0 KECCAK256 PUSH0 PUSH2 0x100 EXP DUP2 SLOAD DUP2 PUSH4 0xFFFFFFFF MUL NOT AND SWAP1 DUP4 PUSH4 0xFFFFFFFF AND MUL OR SWAP1 SSTORE POP PUSH2 0x5D5 DUP1 PUSH2 0xED PUSH0 CODECOPY PUSH0 RETURN INVALID PUSH1 0x80 PUSH1 0x40 MSTORE CALLVALUE DUP1 ISZERO PUSH2 0xF JUMPI PUSH0 DUP1 REVERT JUMPDEST POP PUSH1 0x4 CALLDATASIZE LT PUSH2 0x3F JUMPI PUSH0 CALLDATALOAD PUSH1 0xE0 SHR DUP1 PUSH4 0xC7734EA2 EQ PUSH2 0x43 JUMPI DUP1 PUSH4 0xF58D0D5C EQ PUSH2 0x5F JUMPI DUP1 PUSH4 0xFEC0244C EQ PUSH2 0x7B JUMPI JUMPDEST PUSH0 DUP1 REVERT JUMPDEST PUSH2 0x5D PUSH1 0x4 DUP1 CALLDATASIZE SUB DUP2 ADD SWAP1 PUSH2 0x58 SWAP2 SWAP1 PUSH2 0x46E JUMP JUMPDEST PUSH2 0x85 JUMP JUMPDEST STOP JUMPDEST PUSH2 0x79 PUSH1 0x4 DUP1 CALLDATASIZE SUB DUP2 ADD SWAP1 PUSH2 0x74 SWAP2 SWAP1 PUSH2 0x4AC JUMP JUMPDEST PUSH2 0x25C JUMP JUMPDEST STOP JUMPDEST PUSH2 0x83 PUSH2 0x2F7 JUMP JUMPDEST STOP JUMPDEST DUP1 DUP1 PUSH4 0xFFFFFFFF AND PUSH1 0x2 PUSH0 CALLER PUSH20 0xFFFFFFFFFFFFFFFFFFFFFFFFFFFFFFFFFFFFFFFF AND PUSH20 0xFFFFFFFFFFFFFFFFFFFFFFFFFFFFFFFFFFFFFFFF AND DUP2 MSTORE PUSH1 0x20 ADD SWAP1 DUP2 MSTORE PUSH1 0x20 ADD PUSH0 KECCAK256 PUSH0 SWAP1 SLOAD SWAP1 PUSH2 0x100 EXP SWAP1 DIV PUSH4 0xFFFFFFFF AND PUSH4 0xFFFFFFFF AND LT ISZERO PUSH2 0xEA JUMPI PUSH0 DUP1 REVERT JUMPDEST DUP2 PUSH1 0x2 PUSH0 CALLER PUSH20 0xFFFFFFFFFFFFFFFFFFFFFFFFFFFFFFFFFFFFFFFF AND PUSH20 0xFFFFFFFFFFFFFFFFFFFFFFFFFFFFFFFFFFFFFFFF AND DUP2 MSTORE PUSH1 0x20 ADD SWAP1 DUP2 MSTORE PUSH1 0x20 ADD PUSH0 KECCAK256 PUSH0 DUP3 DUP3 DUP3 SWAP1 SLOAD SWAP1 PUSH2 0x100 EXP SWAP1 DIV PUSH4 0xFFFFFFFF AND PUSH2 0x145 SWAP2 SWAP1 PUSH2 0x504 JUMP JUMPDEST SWAP3 POP PUSH2 0x100 EXP DUP2 SLOAD DUP2 PUSH4 0xFFFFFFFF MUL NOT AND SWAP1 DUP4 PUSH4 0xFFFFFFFF AND MUL OR SWAP1 SSTORE POP DUP2 PUSH1 0x2 PUSH0 DUP6 PUSH20 0xFFFFFFFFFFFFFFFFFFFFFFFFFFFFFFFFFFFFFFFF AND PUSH20 0xFFFFFFFFFFFFFFFFFFFFFFFFFFFFFFFFFFFFFFFF AND DUP2 MSTORE PUSH1 0x20 ADD SWAP1 DUP2 MSTORE PUSH1 0x20 ADD PUSH0 KECCAK256 PUSH0 DUP3 DUP3 DUP3 SWAP1 SLOAD SWAP1 PUSH2 0x100 EXP SWAP1 DIV PUSH4 0xFFFFFFFF AND PUSH2 0x1BE SWAP2 SWAP1 PUSH2 0x53B JUMP JUMPDEST SWAP3 POP PUSH2 0x100 EXP DUP2 SLOAD DUP2 PUSH4 0xFFFFFFFF MUL NOT AND SWAP1 DUP4 PUSH4 0xFFFFFFFF AND MUL OR SWAP1 SSTORE POP PUSH1 0x1 PUSH1 0x14 SWAP1 SLOAD SWAP1 PUSH2 0x100 EXP SWAP1 DIV PUSH4 0xFFFFFFFF AND PUSH4 0xFFFFFFFF AND PUSH1 0x2 PUSH0 DUP6 PUSH20 0xFFFFFFFFFFFFFFFFFFFFFFFFFFFFFFFFFFFFFFFF AND PUSH20 0xFFFFFFFFFFFFFFFFFFFFFFFFFFFFFFFFFFFFFFFF AND DUP2 MSTORE PUSH1 0x20 ADD SWAP1 DUP2 MSTORE PUSH1 0x20 ADD PUSH0 KECCAK256 PUSH0 SWAP1 SLOAD SWAP1 PUSH2 0x100 EXP SWAP1 DIV PUSH4 0xFFFFFFFF AND PUSH4 0xFFFFFFFF AND GT ISZERO PUSH2 0x257 JUMPI PUSH2 0x256 PUSH2 0x572 JUMP JUMPDEST JUMPDEST POP POP POP JUMP JUMPDEST PUSH0 DUP1 SLOAD SWAP1 PUSH2 0x100 EXP SWAP1 DIV PUSH20 0xFFFFFFFFFFFFFFFFFFFFFFFFFFFFFFFFFFFFFFFF AND DUP1 PUSH20 0xFFFFFFFFFFFFFFFFFFFFFFFFFFFFFFFFFFFFFFFF AND CALLER PUSH20 0xFFFFFFFFFFFFFFFFFFFFFFFFFFFFFFFFFFFFFFFF AND EQ PUSH2 0x2B3 JUMPI PUSH0 DUP1 REVERT JUMPDEST DUP2 PUSH1 0x1 PUSH0 PUSH2 0x100 EXP DUP2 SLOAD DUP2 PUSH20 0xFFFFFFFFFFFFFFFFFFFFFFFFFFFFFFFFFFFFFFFF MUL NOT AND SWAP1 DUP4 PUSH20 0xFFFFFFFFFFFFFFFFFFFFFFFFFFFFFFFFFFFFFFFF AND MUL OR SWAP1 SSTORE POP POP POP JUMP JUMPDEST PUSH1 0x1 PUSH0 SWAP1 SLOAD SWAP1 PUSH2 0x100 EXP SWAP1 DIV PUSH20 0xFFFFFFFFFFFFFFFFFFFFFFFFFFFFFFFFFFFFFFFF AND DUP1 PUSH20 0xFFFFFFFFFFFFFFFFFFFFFFFFFFFFFFFFFFFFFFFF AND CALLER PUSH20 0xFFFFFFFFFFFFFFFFFFFFFFFFFFFFFFFFFFFFFFFF AND EQ PUSH2 0x350 JUMPI PUSH0 DUP1 REVERT JUMPDEST PUSH1 0x1 PUSH0 SWAP1 SLOAD SWAP1 PUSH2 0x100 EXP SWAP1 DIV PUSH20 0xFFFFFFFFFFFFFFFFFFFFFFFFFFFFFFFFFFFFFFFF AND PUSH0 DUP1 PUSH2 0x100 EXP DUP2 SLOAD DUP2 PUSH20 0xFFFFFFFFFFFFFFFFFFFFFFFFFFFFFFFFFFFFFFFF MUL NOT AND SWAP1 DUP4 PUSH20 0xFFFFFFFFFFFFFFFFFFFFFFFFFFFFFFFFFFFFFFFF AND MUL OR SWAP1 SSTORE POP PUSH1 0x1 PUSH0 PUSH2 0x100 EXP DUP2 SLOAD SWAP1 PUSH20 0xFFFFFFFFFFFFFFFFFFFFFFFFFFFFFFFFFFFFFFFF MUL NOT AND SWAP1 SSTORE POP JUMP JUMPDEST PUSH0 DUP1 REVERT JUMPDEST PUSH0 PUSH20 0xFFFFFFFFFFFFFFFFFFFFFFFFFFFFFFFFFFFFFFFF DUP3 AND SWAP1 POP SWAP2 SWAP1 POP JUMP JUMPDEST PUSH0 PUSH2 0x404 DUP3 PUSH2 0x3DB JUMP JUMPDEST SWAP1 POP SWAP2 SWAP1 POP JUMP JUMPDEST PUSH2 0x414 DUP2 PUSH2 0x3FA JUMP JUMPDEST DUP2 EQ PUSH2 0x41E JUMPI PUSH0 DUP1 REVERT JUMPDEST POP JUMP JUMPDEST PUSH0 DUP2 CALLDATALOAD SWAP1 POP PUSH2 0x42F DUP2 PUSH2 0x40B JUMP JUMPDEST SWAP3 SWAP2 POP POP JUMP JUMPDEST PUSH0 PUSH4 0xFFFFFFFF DUP3 AND SWAP1 POP SWAP2 SWAP1 POP JUMP JUMPDEST PUSH2 0x44D DUP2 PUSH2 0x435 JUMP JUMPDEST DUP2 EQ PUSH2 0x457 JUMPI PUSH0 DUP1 REVERT JUMPDEST POP JUMP JUMPDEST PUSH0 DUP2 CALLDATALOAD SWAP1 POP PUSH2 0x468 DUP2 PUSH2 0x444 JUMP JUMPDEST SWAP3 SWAP2 POP POP JUMP JUMPDEST PUSH0 DUP1 PUSH1 0x40 DUP4 DUP6 SUB SLT ISZERO PUSH2 0x484 JUMPI PUSH2 0x483 PUSH2 0x3D7 JUMP JUMPDEST JUMPDEST PUSH0 PUSH2 0x491 DUP6 DUP3 DUP7 ADD PUSH2 0x421 JUMP JUMPDEST SWAP3 POP POP PUSH1 0x20 PUSH2 0x4A2 DUP6 DUP3 DUP7 ADD PUSH2 0x45A JUMP JUMPDEST SWAP2 POP POP SWAP3 POP SWAP3 SWAP1 POP JUMP JUMPDEST PUSH0 PUSH1 0x20 DUP3 DUP5 SUB SLT ISZERO PUSH2 0x4C1 JUMPI PUSH2 0x4C0 PUSH2 0x3D7 JUMP JUMPDEST JUMPDEST PUSH0 PUSH2 0x4CE DUP5 DUP3 DUP6 ADD PUSH2 0x421 JUMP JUMPDEST SWAP2 POP POP SWAP3 SWAP2 POP POP JUMP JUMPDEST PUSH32 0x4E487B7100000000000000000000000000000000000000000000000000000000 PUSH0 MSTORE PUSH1 0x11 PUSH1 0x4 MSTORE PUSH1 0x24 PUSH0 REVERT JUMPDEST PUSH0 PUSH2 0x50E DUP3 PUSH2 0x435 JUMP JUMPDEST SWAP2 POP PUSH2 0x519 DUP4 PUSH2 0x435 JUMP JUMPDEST SWAP3 POP DUP3 DUP3 SUB SWAP1 POP PUSH4 0xFFFFFFFF DUP2 GT ISZERO PUSH2 0x535 JUMPI PUSH2 0x534 PUSH2 0x4D7 JUMP JUMPDEST JUMPDEST SWAP3 SWAP2 POP POP JUMP JUMPDEST PUSH0 PUSH2 0x545 DUP3 PUSH2 0x435 JUMP JUMPDEST SWAP2 POP PUSH2 0x550 DUP4 PUSH2 0x435 JUMP JUMPDEST SWAP3 POP DUP3 DUP3 ADD SWAP1 POP PUSH4 0xFFFFFFFF DUP2 GT ISZERO PUSH2 0x56C JUMPI PUSH2 0x56B PUSH2 0x4D7 JUMP JUMPDEST JUMPDEST SWAP3 SWAP2 POP POP JUMP JUMPDEST PUSH32 0x4E487B7100000000000000000000000000000000000000000000000000000000 PUSH0 MSTORE PUSH1 0x1 PUSH1 0x4 MSTORE PUSH1 0x24 PUSH0 REVERT INVALID LOG2 PUSH5 0x6970667358 0x22 SLT KECCAK256 SWAP10 0xD9 0xC0 0xEB DUP12 0x2B PUSH6 0xC475DA8034F PUSH25 0x7EAC1FDBBF7A052400DFC5D45488A8C6FF6464736F6C634300 ADDMOD NOT STOP CALLER "
				},
				"gasEstimates": {
					"creation": {
						"codeDepositCost": "298600",
						"executionCost": "75456",
						"totalCost": "374056"
					},
					"external": {
						"ClaimOwnership()": "52981",
						"chooseNewOwner(address)": "26886",
						"send(address,uint32)": "infinite"
					}
				},
				"methodIdentifiers": {
					"ClaimOwnership()": "fec0244c",
					"chooseNewOwner(address)": "f58d0d5c",
					"send(address,uint32)": "c7734ea2"
				}
			},
			"storageLayout": {
				"storage": [
					{
						"astId": 3,
						"contract": "src/solt.sol:solt",
						"label": "onwer",
						"offset": 0,
						"slot": "0",
						"type": "t_address"
					},
					{
						"astId": 5,
						"contract": "src/solt.sol:solt",
						"label": "nextOwner",
						"offset": 0,
						"slot": "1",
						"type": "t_address"
					},
					{
						"astId": 8,
						"contract": "src/solt.sol:solt",
						"label": "coinCount",
						"offset": 20,
						"slot": "1",
						"type": "t_uint32"
					},
					{
						"astId": 12,
						"contract": "src/solt.sol:solt",
						"label": "balances",
						"offset": 0,
						"slot": "2",
						"type": "t_mapping(t_address,t_uint32)"
					}
				],
				"types": {
					"t_address": {
						"encoding": "inplace",
						"label": "address",
						"numberOfBytes": "20"
					},
					"t_mapping(t_address,t_uint32)": {
						"encoding": "mapping",
						"key": "t_address",
						"label": "mapping(address => uint32)",
						"numberOfBytes": "32",
						"value": "t_uint32"
					},
					"t_uint32": {
						"encoding": "inplace",
						"label": "uint32",
						"numberOfBytes": "4"
					}
				}
			},
			"userdoc": {
				"kind": "user",
				"methods": {},
				"version": 1
			}
		}
	}
}